{
	"contracts/Pair.sol": {
		"Pair": {
			"abi": [
				{
					"inputs": [
						{
							"internalType": "address",
							"name": "token",
							"type": "address"
						}
					],
					"stateMutability": "nonpayable",
					"type": "constructor"
				},
				{
					"anonymous": false,
					"inputs": [
						{
							"indexed": true,
							"internalType": "address",
							"name": "provider",
							"type": "address"
						},
						{
							"indexed": true,
							"internalType": "uint256",
							"name": "ethAmount",
							"type": "uint256"
						},
						{
							"indexed": true,
							"internalType": "uint256",
							"name": "tokenAmount",
							"type": "uint256"
						}
					],
					"name": "AddLiquidity",
					"type": "event"
				},
				{
					"anonymous": false,
					"inputs": [
						{
							"indexed": true,
							"internalType": "address",
							"name": "owner",
							"type": "address"
						},
						{
							"indexed": true,
							"internalType": "address",
							"name": "spender",
							"type": "address"
						},
						{
							"indexed": false,
							"internalType": "uint256",
							"name": "value",
							"type": "uint256"
						}
					],
					"name": "Approval",
					"type": "event"
				},
				{
					"anonymous": false,
					"inputs": [
						{
							"indexed": true,
							"internalType": "address",
							"name": "provider",
							"type": "address"
						},
						{
							"indexed": true,
							"internalType": "uint256",
							"name": "ethAmount",
							"type": "uint256"
						},
						{
							"indexed": true,
							"internalType": "uint256",
							"name": "tokenAmount",
							"type": "uint256"
						}
					],
					"name": "RemoveLiquidity",
					"type": "event"
				},
				{
					"anonymous": false,
					"inputs": [
						{
							"indexed": true,
							"internalType": "address",
							"name": "buyer",
							"type": "address"
						},
						{
							"indexed": true,
							"internalType": "uint256",
							"name": "tokensGiven",
							"type": "uint256"
						},
						{
							"indexed": false,
							"internalType": "uint256",
							"name": "ethRecieved",
							"type": "uint256"
						}
					],
					"name": "SwapForEth",
					"type": "event"
				},
				{
					"anonymous": false,
					"inputs": [
						{
							"indexed": true,
							"internalType": "address",
							"name": "buyer",
							"type": "address"
						},
						{
							"indexed": true,
							"internalType": "uint256",
							"name": "ethGiven",
							"type": "uint256"
						},
						{
							"indexed": false,
							"internalType": "uint256",
							"name": "tokensRecieved",
							"type": "uint256"
						}
					],
					"name": "SwapForTokens",
					"type": "event"
				},
				{
					"anonymous": false,
					"inputs": [
						{
							"indexed": true,
							"internalType": "address",
							"name": "from",
							"type": "address"
						},
						{
							"indexed": true,
							"internalType": "address",
							"name": "to",
							"type": "address"
						},
						{
							"indexed": false,
							"internalType": "uint256",
							"name": "value",
							"type": "uint256"
						}
					],
					"name": "Transfer",
					"type": "event"
				},
				{
					"inputs": [
						{
							"internalType": "uint256",
							"name": "inputTokenAmount",
							"type": "uint256"
						}
					],
					"name": "addLiquidity",
					"outputs": [
						{
							"internalType": "uint256",
							"name": "lpTokenAmount",
							"type": "uint256"
						}
					],
					"stateMutability": "payable",
					"type": "function"
				},
				{
					"inputs": [
						{
							"internalType": "address",
							"name": "owner",
							"type": "address"
						},
						{
							"internalType": "address",
							"name": "spender",
							"type": "address"
						}
					],
					"name": "allowance",
					"outputs": [
						{
							"internalType": "uint256",
							"name": "",
							"type": "uint256"
						}
					],
					"stateMutability": "view",
					"type": "function"
				},
				{
					"inputs": [
						{
							"internalType": "address",
							"name": "spender",
							"type": "address"
						},
						{
							"internalType": "uint256",
							"name": "amount",
							"type": "uint256"
						}
					],
					"name": "approve",
					"outputs": [
						{
							"internalType": "bool",
							"name": "",
							"type": "bool"
						}
					],
					"stateMutability": "nonpayable",
					"type": "function"
				},
				{
					"inputs": [
						{
							"internalType": "address",
							"name": "account",
							"type": "address"
						}
					],
					"name": "balanceOf",
					"outputs": [
						{
							"internalType": "uint256",
							"name": "",
							"type": "uint256"
						}
					],
					"stateMutability": "view",
					"type": "function"
				},
				{
					"inputs": [],
					"name": "decimals",
					"outputs": [
						{
							"internalType": "uint8",
							"name": "",
							"type": "uint8"
						}
					],
					"stateMutability": "view",
					"type": "function"
				},
				{
					"inputs": [
						{
							"internalType": "address",
							"name": "spender",
							"type": "address"
						},
						{
							"internalType": "uint256",
							"name": "subtractedValue",
							"type": "uint256"
						}
					],
					"name": "decreaseAllowance",
					"outputs": [
						{
							"internalType": "bool",
							"name": "",
							"type": "bool"
						}
					],
					"stateMutability": "nonpayable",
					"type": "function"
				},
				{
					"inputs": [],
					"name": "factoryAddress",
					"outputs": [
						{
							"internalType": "address",
							"name": "",
							"type": "address"
						}
					],
					"stateMutability": "view",
					"type": "function"
				},
				{
					"inputs": [],
					"name": "getReserves",
					"outputs": [
						{
							"internalType": "uint256",
							"name": "tokenReserve",
							"type": "uint256"
						},
						{
							"internalType": "uint256",
							"name": "ethReserve",
							"type": "uint256"
						}
					],
					"stateMutability": "view",
					"type": "function"
				},
				{
					"inputs": [
						{
							"internalType": "uint256",
							"name": "ethAmount",
							"type": "uint256"
						}
					],
					"name": "getTokenAmountForSwap",
					"outputs": [
						{
							"internalType": "uint256",
							"name": "tokenAmount",
							"type": "uint256"
						}
					],
					"stateMutability": "view",
					"type": "function"
				},
				{
					"inputs": [
						{
							"internalType": "address",
							"name": "spender",
							"type": "address"
						},
						{
							"internalType": "uint256",
							"name": "addedValue",
							"type": "uint256"
						}
					],
					"name": "increaseAllowance",
					"outputs": [
						{
							"internalType": "bool",
							"name": "",
							"type": "bool"
						}
					],
					"stateMutability": "nonpayable",
					"type": "function"
				},
				{
					"inputs": [],
					"name": "name",
					"outputs": [
						{
							"internalType": "string",
							"name": "",
							"type": "string"
						}
					],
					"stateMutability": "view",
					"type": "function"
				},
				{
					"inputs": [
						{
							"internalType": "uint256",
							"name": "lpTokenAmount",
							"type": "uint256"
						}
					],
					"name": "removeLiquidity",
					"outputs": [
						{
							"internalType": "uint256",
							"name": "ethAmount",
							"type": "uint256"
						},
						{
							"internalType": "uint256",
							"name": "tokenAmount",
							"type": "uint256"
						}
					],
					"stateMutability": "nonpayable",
					"type": "function"
				},
				{
					"inputs": [],
					"name": "symbol",
					"outputs": [
						{
							"internalType": "string",
							"name": "",
							"type": "string"
						}
					],
					"stateMutability": "view",
					"type": "function"
				},
				{
					"inputs": [],
					"name": "tokenAddress",
					"outputs": [
						{
							"internalType": "address",
							"name": "",
							"type": "address"
						}
					],
					"stateMutability": "view",
					"type": "function"
				},
				{
					"inputs": [],
					"name": "totalSupply",
					"outputs": [
						{
							"internalType": "uint256",
							"name": "",
							"type": "uint256"
						}
					],
					"stateMutability": "view",
					"type": "function"
				},
				{
					"inputs": [
						{
							"internalType": "address",
							"name": "to",
							"type": "address"
						},
						{
							"internalType": "uint256",
							"name": "amount",
							"type": "uint256"
						}
					],
					"name": "transfer",
					"outputs": [
						{
							"internalType": "bool",
							"name": "",
							"type": "bool"
						}
					],
					"stateMutability": "nonpayable",
					"type": "function"
				},
				{
					"inputs": [
						{
							"internalType": "address",
							"name": "from",
							"type": "address"
						},
						{
							"internalType": "address",
							"name": "to",
							"type": "address"
						},
						{
							"internalType": "uint256",
							"name": "amount",
							"type": "uint256"
						}
					],
					"name": "transferFrom",
					"outputs": [
						{
							"internalType": "bool",
							"name": "",
							"type": "bool"
						}
					],
					"stateMutability": "nonpayable",
					"type": "function"
				}
			],
			"devdoc": {
				"kind": "dev",
				"methods": {
					"allowance(address,address)": {
						"details": "See {IERC20-allowance}."
					},
					"approve(address,uint256)": {
						"details": "See {IERC20-approve}. NOTE: If `amount` is the maximum `uint256`, the allowance is not updated on `transferFrom`. This is semantically equivalent to an infinite approval. Requirements: - `spender` cannot be the zero address."
					},
					"balanceOf(address)": {
						"details": "See {IERC20-balanceOf}."
					},
					"decimals()": {
						"details": "Returns the number of decimals used to get its user representation. For example, if `decimals` equals `2`, a balance of `505` tokens should be displayed to a user as `5.05` (`505 / 10 ** 2`). Tokens usually opt for a value of 18, imitating the relationship between Ether and Wei. This is the value {ERC20} uses, unless this function is overridden; NOTE: This information is only used for _display_ purposes: it in no way affects any of the arithmetic of the contract, including {IERC20-balanceOf} and {IERC20-transfer}."
					},
					"decreaseAllowance(address,uint256)": {
						"details": "Atomically decreases the allowance granted to `spender` by the caller. This is an alternative to {approve} that can be used as a mitigation for problems described in {IERC20-approve}. Emits an {Approval} event indicating the updated allowance. Requirements: - `spender` cannot be the zero address. - `spender` must have allowance for the caller of at least `subtractedValue`."
					},
					"increaseAllowance(address,uint256)": {
						"details": "Atomically increases the allowance granted to `spender` by the caller. This is an alternative to {approve} that can be used as a mitigation for problems described in {IERC20-approve}. Emits an {Approval} event indicating the updated allowance. Requirements: - `spender` cannot be the zero address."
					},
					"name()": {
						"details": "Returns the name of the token."
					},
					"symbol()": {
						"details": "Returns the symbol of the token, usually a shorter version of the name."
					},
					"totalSupply()": {
						"details": "See {IERC20-totalSupply}."
					},
					"transfer(address,uint256)": {
						"details": "See {IERC20-transfer}. Requirements: - `to` cannot be the zero address. - the caller must have a balance of at least `amount`."
					},
					"transferFrom(address,address,uint256)": {
						"details": "See {IERC20-transferFrom}. Emits an {Approval} event indicating the updated allowance. This is not required by the EIP. See the note at the beginning of {ERC20}. NOTE: Does not update the allowance if the current allowance is the maximum `uint256`. Requirements: - `from` and `to` cannot be the zero address. - `from` must have a balance of at least `amount`. - the caller must have allowance for ``from``'s tokens of at least `amount`."
					}
				},
				"version": 1
			},
			"evm": {
				"assembly": "    /* \"contracts/Pair.sol\":822:4739  contract Pair is ERC20 {\r... */\n  mstore(0x40, 0x80)\n    /* \"contracts/Pair.sol\":1633:1822  constructor(address token) ERC20(\"Swap V1\", \"Swap-V1\"){\r... */\n  callvalue\n  dup1\n  iszero\n  tag_1\n  jumpi\n  0x00\n  dup1\n  revert\ntag_1:\n  pop\n  mload(0x40)\n  sub(codesize, bytecodeSize)\n  dup1\n  bytecodeSize\n  dup4\n  codecopy\n  dup2\n  dup2\n  add\n  0x40\n  mstore\n  dup2\n  add\n  swap1\n  tag_2\n  swap2\n  swap1\n  tag_3\n  jump\t// in\ntag_2:\n    /* \"@openzeppelin/contracts/token/ERC20/ERC20.sol\":1978:2091  constructor(string memory name_, string memory symbol_) {... */\n  mload(0x40)\n  dup1\n  0x40\n  add\n  0x40\n  mstore\n  dup1\n  0x07\n  dup2\n  mstore\n  0x20\n  add\n  0x5377617020563100000000000000000000000000000000000000000000000000\n  dup2\n  mstore\n  pop\n  mload(0x40)\n  dup1\n  0x40\n  add\n  0x40\n  mstore\n  dup1\n  0x07\n  dup2\n  mstore\n  0x20\n  add\n  0x537761702d563100000000000000000000000000000000000000000000000000\n  dup2\n  mstore\n  pop\n    /* \"@openzeppelin/contracts/token/ERC20/ERC20.sol\":2052:2057  name_ */\n  dup2\n    /* \"@openzeppelin/contracts/token/ERC20/ERC20.sol\":2044:2049  _name */\n  0x03\n    /* \"@openzeppelin/contracts/token/ERC20/ERC20.sol\":2044:2057  _name = name_ */\n  swap1\n  dup1\n  mload\n  swap1\n  0x20\n  add\n  swap1\n  tag_7\n  swap3\n  swap2\n  swap1\n  tag_8\n  jump\t// in\ntag_7:\n  pop\n    /* \"@openzeppelin/contracts/token/ERC20/ERC20.sol\":2077:2084  symbol_ */\n  dup1\n    /* \"@openzeppelin/contracts/token/ERC20/ERC20.sol\":2067:2074  _symbol */\n  0x04\n    /* \"@openzeppelin/contracts/token/ERC20/ERC20.sol\":2067:2084  _symbol = symbol_ */\n  swap1\n  dup1\n  mload\n  swap1\n  0x20\n  add\n  swap1\n  tag_9\n  swap3\n  swap2\n  swap1\n  tag_8\n  jump\t// in\ntag_9:\n  pop\n    /* \"@openzeppelin/contracts/token/ERC20/ERC20.sol\":1978:2091  constructor(string memory name_, string memory symbol_) {... */\n  pop\n  pop\n    /* \"contracts/Pair.sol\":1723:1724  0 */\n  0x00\n    /* \"contracts/Pair.sol\":1706:1725  token != address(0) */\n  0xffffffffffffffffffffffffffffffffffffffff\n  and\n    /* \"contracts/Pair.sol\":1706:1711  token */\n  dup2\n    /* \"contracts/Pair.sol\":1706:1725  token != address(0) */\n  0xffffffffffffffffffffffffffffffffffffffff\n  and\n  eq\n  iszero\n    /* \"contracts/Pair.sol\":1698:1745  require(token != address(0), \"Invalid address\") */\n  tag_11\n  jumpi\n  mload(0x40)\n  0x08c379a000000000000000000000000000000000000000000000000000000000\n  dup2\n  mstore\n  0x04\n  add\n  tag_12\n  swap1\n  tag_13\n  jump\t// in\ntag_12:\n  mload(0x40)\n  dup1\n  swap2\n  sub\n  swap1\n  revert\ntag_11:\n    /* \"contracts/Pair.sol\":1771:1776  token */\n  dup1\n    /* \"contracts/Pair.sol\":1756:1768  tokenAddress */\n  0x05\n  0x00\n    /* \"contracts/Pair.sol\":1756:1776  tokenAddress = token */\n  0x0100\n  exp\n  dup2\n  sload\n  dup2\n  0xffffffffffffffffffffffffffffffffffffffff\n  mul\n  not\n  and\n  swap1\n  dup4\n  0xffffffffffffffffffffffffffffffffffffffff\n  and\n  mul\n  or\n  swap1\n  sstore\n  pop\n    /* \"contracts/Pair.sol\":1804:1814  msg.sender */\n  caller\n    /* \"contracts/Pair.sol\":1787:1801  factoryAddress */\n  0x06\n  0x00\n    /* \"contracts/Pair.sol\":1787:1814  factoryAddress = msg.sender */\n  0x0100\n  exp\n  dup2\n  sload\n  dup2\n  0xffffffffffffffffffffffffffffffffffffffff\n  mul\n  not\n  and\n  swap1\n  dup4\n  0xffffffffffffffffffffffffffffffffffffffff\n  and\n  mul\n  or\n  swap1\n  sstore\n  pop\n    /* \"contracts/Pair.sol\":1633:1822  constructor(address token) ERC20(\"Swap V1\", \"Swap-V1\"){\r... */\n  pop\n    /* \"contracts/Pair.sol\":822:4739  contract Pair is ERC20 {\r... */\n  jump(tag_14)\ntag_8:\n  dup3\n  dup1\n  sload\n  tag_15\n  swap1\n  tag_16\n  jump\t// in\ntag_15:\n  swap1\n  0x00\n  mstore\n  keccak256(0x00, 0x20)\n  swap1\n  0x1f\n  add\n  0x20\n  swap1\n  div\n  dup2\n  add\n  swap3\n  dup3\n  tag_18\n  jumpi\n  0x00\n  dup6\n  sstore\n  jump(tag_17)\ntag_18:\n  dup3\n  0x1f\n  lt\n  tag_19\n  jumpi\n  dup1\n  mload\n  not(0xff)\n  and\n  dup4\n  dup1\n  add\n  or\n  dup6\n  sstore\n  jump(tag_17)\ntag_19:\n  dup3\n  dup1\n  add\n  0x01\n  add\n  dup6\n  sstore\n  dup3\n  iszero\n  tag_17\n  jumpi\n  swap2\n  dup3\n  add\ntag_20:\n  dup3\n  dup2\n  gt\n  iszero\n  tag_21\n  jumpi\n  dup3\n  mload\n  dup3\n  sstore\n  swap2\n  0x20\n  add\n  swap2\n  swap1\n  0x01\n  add\n  swap1\n  jump(tag_20)\ntag_21:\ntag_17:\n  pop\n  swap1\n  pop\n  tag_22\n  swap2\n  swap1\n  tag_23\n  jump\t// in\ntag_22:\n  pop\n  swap1\n  jump\t// out\ntag_23:\ntag_24:\n  dup1\n  dup3\n  gt\n  iszero\n  tag_25\n  jumpi\n  0x00\n  dup2\n  0x00\n  swap1\n  sstore\n  pop\n  0x01\n  add\n  jump(tag_24)\ntag_25:\n  pop\n  swap1\n  jump\t// out\n    /* \"#utility.yul\":7:150   */\ntag_27:\n    /* \"#utility.yul\":64:69   */\n  0x00\n    /* \"#utility.yul\":95:101   */\n  dup2\n    /* \"#utility.yul\":89:102   */\n  mload\n    /* \"#utility.yul\":80:102   */\n  swap1\n  pop\n    /* \"#utility.yul\":111:144   */\n  tag_29\n    /* \"#utility.yul\":138:143   */\n  dup2\n    /* \"#utility.yul\":111:144   */\n  tag_30\n  jump\t// in\ntag_29:\n    /* \"#utility.yul\":7:150   */\n  swap3\n  swap2\n  pop\n  pop\n  jump\t// out\n    /* \"#utility.yul\":156:507   */\ntag_3:\n    /* \"#utility.yul\":226:232   */\n  0x00\n    /* \"#utility.yul\":275:277   */\n  0x20\n    /* \"#utility.yul\":263:272   */\n  dup3\n    /* \"#utility.yul\":254:261   */\n  dup5\n    /* \"#utility.yul\":250:273   */\n  sub\n    /* \"#utility.yul\":246:278   */\n  slt\n    /* \"#utility.yul\":243:362   */\n  iszero\n  tag_32\n  jumpi\n    /* \"#utility.yul\":281:360   */\n  tag_33\n  tag_34\n  jump\t// in\ntag_33:\n    /* \"#utility.yul\":243:362   */\ntag_32:\n    /* \"#utility.yul\":401:402   */\n  0x00\n    /* \"#utility.yul\":426:490   */\n  tag_35\n    /* \"#utility.yul\":482:489   */\n  dup5\n    /* \"#utility.yul\":473:479   */\n  dup3\n    /* \"#utility.yul\":462:471   */\n  dup6\n    /* \"#utility.yul\":458:480   */\n  add\n    /* \"#utility.yul\":426:490   */\n  tag_27\n  jump\t// in\ntag_35:\n    /* \"#utility.yul\":416:490   */\n  swap2\n  pop\n    /* \"#utility.yul\":372:500   */\n  pop\n    /* \"#utility.yul\":156:507   */\n  swap3\n  swap2\n  pop\n  pop\n  jump\t// out\n    /* \"#utility.yul\":513:879   */\ntag_36:\n    /* \"#utility.yul\":655:658   */\n  0x00\n    /* \"#utility.yul\":676:743   */\n  tag_38\n    /* \"#utility.yul\":740:742   */\n  0x0f\n    /* \"#utility.yul\":735:738   */\n  dup4\n    /* \"#utility.yul\":676:743   */\n  tag_39\n  jump\t// in\ntag_38:\n    /* \"#utility.yul\":669:743   */\n  swap2\n  pop\n    /* \"#utility.yul\":752:845   */\n  tag_40\n    /* \"#utility.yul\":841:844   */\n  dup3\n    /* \"#utility.yul\":752:845   */\n  tag_41\n  jump\t// in\ntag_40:\n    /* \"#utility.yul\":870:872   */\n  0x20\n    /* \"#utility.yul\":865:868   */\n  dup3\n    /* \"#utility.yul\":861:873   */\n  add\n    /* \"#utility.yul\":854:873   */\n  swap1\n  pop\n    /* \"#utility.yul\":513:879   */\n  swap2\n  swap1\n  pop\n  jump\t// out\n    /* \"#utility.yul\":885:1304   */\ntag_13:\n    /* \"#utility.yul\":1051:1055   */\n  0x00\n    /* \"#utility.yul\":1089:1091   */\n  0x20\n    /* \"#utility.yul\":1078:1087   */\n  dup3\n    /* \"#utility.yul\":1074:1092   */\n  add\n    /* \"#utility.yul\":1066:1092   */\n  swap1\n  pop\n    /* \"#utility.yul\":1138:1147   */\n  dup2\n    /* \"#utility.yul\":1132:1136   */\n  dup2\n    /* \"#utility.yul\":1128:1148   */\n  sub\n    /* \"#utility.yul\":1124:1125   */\n  0x00\n    /* \"#utility.yul\":1113:1122   */\n  dup4\n    /* \"#utility.yul\":1109:1126   */\n  add\n    /* \"#utility.yul\":1102:1149   */\n  mstore\n    /* \"#utility.yul\":1166:1297   */\n  tag_43\n    /* \"#utility.yul\":1292:1296   */\n  dup2\n    /* \"#utility.yul\":1166:1297   */\n  tag_36\n  jump\t// in\ntag_43:\n    /* \"#utility.yul\":1158:1297   */\n  swap1\n  pop\n    /* \"#utility.yul\":885:1304   */\n  swap2\n  swap1\n  pop\n  jump\t// out\n    /* \"#utility.yul\":1391:1560   */\ntag_39:\n    /* \"#utility.yul\":1475:1486   */\n  0x00\n    /* \"#utility.yul\":1509:1515   */\n  dup3\n    /* \"#utility.yul\":1504:1507   */\n  dup3\n    /* \"#utility.yul\":1497:1516   */\n  mstore\n    /* \"#utility.yul\":1549:1553   */\n  0x20\n    /* \"#utility.yul\":1544:1547   */\n  dup3\n    /* \"#utility.yul\":1540:1554   */\n  add\n    /* \"#utility.yul\":1525:1554   */\n  swap1\n  pop\n    /* \"#utility.yul\":1391:1560   */\n  swap3\n  swap2\n  pop\n  pop\n  jump\t// out\n    /* \"#utility.yul\":1566:1662   */\ntag_47:\n    /* \"#utility.yul\":1603:1610   */\n  0x00\n    /* \"#utility.yul\":1632:1656   */\n  tag_49\n    /* \"#utility.yul\":1650:1655   */\n  dup3\n    /* \"#utility.yul\":1632:1656   */\n  tag_50\n  jump\t// in\ntag_49:\n    /* \"#utility.yul\":1621:1656   */\n  swap1\n  pop\n    /* \"#utility.yul\":1566:1662   */\n  swap2\n  swap1\n  pop\n  jump\t// out\n    /* \"#utility.yul\":1668:1794   */\ntag_50:\n    /* \"#utility.yul\":1705:1712   */\n  0x00\n    /* \"#utility.yul\":1745:1787   */\n  0xffffffffffffffffffffffffffffffffffffffff\n    /* \"#utility.yul\":1738:1743   */\n  dup3\n    /* \"#utility.yul\":1734:1788   */\n  and\n    /* \"#utility.yul\":1723:1788   */\n  swap1\n  pop\n    /* \"#utility.yul\":1668:1794   */\n  swap2\n  swap1\n  pop\n  jump\t// out\n    /* \"#utility.yul\":1800:2120   */\ntag_16:\n    /* \"#utility.yul\":1844:1850   */\n  0x00\n    /* \"#utility.yul\":1881:1882   */\n  0x02\n    /* \"#utility.yul\":1875:1879   */\n  dup3\n    /* \"#utility.yul\":1871:1883   */\n  div\n    /* \"#utility.yul\":1861:1883   */\n  swap1\n  pop\n    /* \"#utility.yul\":1928:1929   */\n  0x01\n    /* \"#utility.yul\":1922:1926   */\n  dup3\n    /* \"#utility.yul\":1918:1930   */\n  and\n    /* \"#utility.yul\":1949:1967   */\n  dup1\n    /* \"#utility.yul\":1939:2020   */\n  tag_53\n  jumpi\n    /* \"#utility.yul\":2005:2009   */\n  0x7f\n    /* \"#utility.yul\":1997:2003   */\n  dup3\n    /* \"#utility.yul\":1993:2010   */\n  and\n    /* \"#utility.yul\":1983:2010   */\n  swap2\n  pop\n    /* \"#utility.yul\":1939:2020   */\ntag_53:\n    /* \"#utility.yul\":2067:2069   */\n  0x20\n    /* \"#utility.yul\":2059:2065   */\n  dup3\n    /* \"#utility.yul\":2056:2070   */\n  lt\n    /* \"#utility.yul\":2036:2054   */\n  dup2\n    /* \"#utility.yul\":2033:2071   */\n  eq\n    /* \"#utility.yul\":2030:2114   */\n  iszero\n  tag_54\n  jumpi\n    /* \"#utility.yul\":2086:2104   */\n  tag_55\n  tag_56\n  jump\t// in\ntag_55:\n    /* \"#utility.yul\":2030:2114   */\ntag_54:\n    /* \"#utility.yul\":1851:2120   */\n  pop\n    /* \"#utility.yul\":1800:2120   */\n  swap2\n  swap1\n  pop\n  jump\t// out\n    /* \"#utility.yul\":2126:2306   */\ntag_56:\n    /* \"#utility.yul\":2174:2251   */\n  0x4e487b7100000000000000000000000000000000000000000000000000000000\n    /* \"#utility.yul\":2171:2172   */\n  0x00\n    /* \"#utility.yul\":2164:2252   */\n  mstore\n    /* \"#utility.yul\":2271:2275   */\n  0x22\n    /* \"#utility.yul\":2268:2269   */\n  0x04\n    /* \"#utility.yul\":2261:2276   */\n  mstore\n    /* \"#utility.yul\":2295:2299   */\n  0x24\n    /* \"#utility.yul\":2292:2293   */\n  0x00\n    /* \"#utility.yul\":2285:2300   */\n  revert\n    /* \"#utility.yul\":2435:2552   */\ntag_34:\n    /* \"#utility.yul\":2544:2545   */\n  0x00\n    /* \"#utility.yul\":2541:2542   */\n  dup1\n    /* \"#utility.yul\":2534:2546   */\n  revert\n    /* \"#utility.yul\":2558:2723   */\ntag_41:\n    /* \"#utility.yul\":2698:2715   */\n  0x496e76616c696420616464726573730000000000000000000000000000000000\n    /* \"#utility.yul\":2694:2695   */\n  0x00\n    /* \"#utility.yul\":2686:2692   */\n  dup3\n    /* \"#utility.yul\":2682:2696   */\n  add\n    /* \"#utility.yul\":2675:2716   */\n  mstore\n    /* \"#utility.yul\":2558:2723   */\n  pop\n  jump\t// out\n    /* \"#utility.yul\":2729:2851   */\ntag_30:\n    /* \"#utility.yul\":2802:2826   */\n  tag_63\n    /* \"#utility.yul\":2820:2825   */\n  dup2\n    /* \"#utility.yul\":2802:2826   */\n  tag_47\n  jump\t// in\ntag_63:\n    /* \"#utility.yul\":2795:2800   */\n  dup2\n    /* \"#utility.yul\":2792:2827   */\n  eq\n    /* \"#utility.yul\":2782:2845   */\n  tag_64\n  jumpi\n    /* \"#utility.yul\":2841:2842   */\n  0x00\n    /* \"#utility.yul\":2838:2839   */\n  dup1\n    /* \"#utility.yul\":2831:2843   */\n  revert\n    /* \"#utility.yul\":2782:2845   */\ntag_64:\n    /* \"#utility.yul\":2729:2851   */\n  pop\n  jump\t// out\n    /* \"contracts/Pair.sol\":822:4739  contract Pair is ERC20 {\r... */\ntag_14:\n  dataSize(sub_0)\n  dup1\n  dataOffset(sub_0)\n  0x00\n  codecopy\n  0x00\n  return\nstop\n\nsub_0: assembly {\n        /* \"contracts/Pair.sol\":822:4739  contract Pair is ERC20 {\r... */\n      mstore(0x40, 0x80)\n      jumpi(tag_1, lt(calldatasize, 0x04))\n      shr(0xe0, calldataload(0x00))\n      dup1\n      0x51c6590a\n      gt\n      tag_19\n      jumpi\n      dup1\n      0x9c8f9f23\n      gt\n      tag_20\n      jumpi\n      dup1\n      0x9c8f9f23\n      eq\n      tag_14\n      jumpi\n      dup1\n      0x9d76ea58\n      eq\n      tag_15\n      jumpi\n      dup1\n      0xa457c2d7\n      eq\n      tag_16\n      jumpi\n      dup1\n      0xa9059cbb\n      eq\n      tag_17\n      jumpi\n      dup1\n      0xdd62ed3e\n      eq\n      tag_18\n      jumpi\n      jump(tag_1)\n    tag_20:\n      dup1\n      0x51c6590a\n      eq\n      tag_10\n      jumpi\n      dup1\n      0x70a08231\n      eq\n      tag_11\n      jumpi\n      dup1\n      0x95d89b41\n      eq\n      tag_12\n      jumpi\n      dup1\n      0x966dae0e\n      eq\n      tag_13\n      jumpi\n      jump(tag_1)\n    tag_19:\n      dup1\n      0x18160ddd\n      gt\n      tag_21\n      jumpi\n      dup1\n      0x18160ddd\n      eq\n      tag_6\n      jumpi\n      dup1\n      0x23b872dd\n      eq\n      tag_7\n      jumpi\n      dup1\n      0x313ce567\n      eq\n      tag_8\n      jumpi\n      dup1\n      0x39509351\n      eq\n      tag_9\n      jumpi\n      jump(tag_1)\n    tag_21:\n      dup1\n      0x06fdde03\n      eq\n      tag_2\n      jumpi\n      dup1\n      0x0902f1ac\n      eq\n      tag_3\n      jumpi\n      dup1\n      0x095ea7b3\n      eq\n      tag_4\n      jumpi\n      dup1\n      0x0f8070b4\n      eq\n      tag_5\n      jumpi\n    tag_1:\n      0x00\n      dup1\n      revert\n        /* \"@openzeppelin/contracts/token/ERC20/ERC20.sol\":2156:2254  function name() public view virtual override returns (string memory) {... */\n    tag_2:\n      callvalue\n      dup1\n      iszero\n      tag_22\n      jumpi\n      0x00\n      dup1\n      revert\n    tag_22:\n      pop\n      tag_23\n      tag_24\n      jump\t// in\n    tag_23:\n      mload(0x40)\n      tag_25\n      swap2\n      swap1\n      tag_26\n      jump\t// in\n    tag_25:\n      mload(0x40)\n      dup1\n      swap2\n      sub\n      swap1\n      return\n        /* \"contracts/Pair.sol\":1830:2040  function getReserves() public view returns (uint256 tokenReserve, uint256 ethReserve) {\r... */\n    tag_3:\n      callvalue\n      dup1\n      iszero\n      tag_27\n      jumpi\n      0x00\n      dup1\n      revert\n    tag_27:\n      pop\n      tag_28\n      tag_29\n      jump\t// in\n    tag_28:\n      mload(0x40)\n      tag_30\n      swap3\n      swap2\n      swap1\n      tag_31\n      jump\t// in\n    tag_30:\n      mload(0x40)\n      dup1\n      swap2\n      sub\n      swap1\n      return\n        /* \"@openzeppelin/contracts/token/ERC20/ERC20.sol\":4433:4630  function approve(address spender, uint256 amount) public virtual override returns (bool) {... */\n    tag_4:\n      callvalue\n      dup1\n      iszero\n      tag_32\n      jumpi\n      0x00\n      dup1\n      revert\n    tag_32:\n      pop\n      tag_33\n      0x04\n      dup1\n      calldatasize\n      sub\n      dup2\n      add\n      swap1\n      tag_34\n      swap2\n      swap1\n      tag_35\n      jump\t// in\n    tag_34:\n      tag_36\n      jump\t// in\n    tag_33:\n      mload(0x40)\n      tag_37\n      swap2\n      swap1\n      tag_38\n      jump\t// in\n    tag_37:\n      mload(0x40)\n      dup1\n      swap2\n      sub\n      swap1\n      return\n        /* \"contracts/Pair.sol\":4482:4736  function getTokenAmountForSwap(uint256 ethAmount) public view returns (uint256 tokenAmount){\r... */\n    tag_5:\n      callvalue\n      dup1\n      iszero\n      tag_39\n      jumpi\n      0x00\n      dup1\n      revert\n    tag_39:\n      pop\n      tag_40\n      0x04\n      dup1\n      calldatasize\n      sub\n      dup2\n      add\n      swap1\n      tag_41\n      swap2\n      swap1\n      tag_42\n      jump\t// in\n    tag_41:\n      tag_43\n      jump\t// in\n    tag_40:\n      mload(0x40)\n      tag_44\n      swap2\n      swap1\n      tag_45\n      jump\t// in\n    tag_44:\n      mload(0x40)\n      dup1\n      swap2\n      sub\n      swap1\n      return\n        /* \"@openzeppelin/contracts/token/ERC20/ERC20.sol\":3244:3350  function totalSupply() public view virtual override returns (uint256) {... */\n    tag_6:\n      callvalue\n      dup1\n      iszero\n      tag_46\n      jumpi\n      0x00\n      dup1\n      revert\n    tag_46:\n      pop\n      tag_47\n      tag_48\n      jump\t// in\n    tag_47:\n      mload(0x40)\n      tag_49\n      swap2\n      swap1\n      tag_45\n      jump\t// in\n    tag_49:\n      mload(0x40)\n      dup1\n      swap2\n      sub\n      swap1\n      return\n        /* \"@openzeppelin/contracts/token/ERC20/ERC20.sol\":5192:5478  function transferFrom(... */\n    tag_7:\n      callvalue\n      dup1\n      iszero\n      tag_50\n      jumpi\n      0x00\n      dup1\n      revert\n    tag_50:\n      pop\n      tag_51\n      0x04\n      dup1\n      calldatasize\n      sub\n      dup2\n      add\n      swap1\n      tag_52\n      swap2\n      swap1\n      tag_53\n      jump\t// in\n    tag_52:\n      tag_54\n      jump\t// in\n    tag_51:\n      mload(0x40)\n      tag_55\n      swap2\n      swap1\n      tag_38\n      jump\t// in\n    tag_55:\n      mload(0x40)\n      dup1\n      swap2\n      sub\n      swap1\n      return\n        /* \"@openzeppelin/contracts/token/ERC20/ERC20.sol\":3093:3184  function decimals() public view virtual override returns (uint8) {... */\n    tag_8:\n      callvalue\n      dup1\n      iszero\n      tag_56\n      jumpi\n      0x00\n      dup1\n      revert\n    tag_56:\n      pop\n      tag_57\n      tag_58\n      jump\t// in\n    tag_57:\n      mload(0x40)\n      tag_59\n      swap2\n      swap1\n      tag_60\n      jump\t// in\n    tag_59:\n      mload(0x40)\n      dup1\n      swap2\n      sub\n      swap1\n      return\n        /* \"@openzeppelin/contracts/token/ERC20/ERC20.sol\":5873:6107  function increaseAllowance(address spender, uint256 addedValue) public virtual returns (bool) {... */\n    tag_9:\n      callvalue\n      dup1\n      iszero\n      tag_61\n      jumpi\n      0x00\n      dup1\n      revert\n    tag_61:\n      pop\n      tag_62\n      0x04\n      dup1\n      calldatasize\n      sub\n      dup2\n      add\n      swap1\n      tag_63\n      swap2\n      swap1\n      tag_35\n      jump\t// in\n    tag_63:\n      tag_64\n      jump\t// in\n    tag_62:\n      mload(0x40)\n      tag_65\n      swap2\n      swap1\n      tag_38\n      jump\t// in\n    tag_65:\n      mload(0x40)\n      dup1\n      swap2\n      sub\n      swap1\n      return\n        /* \"contracts/Pair.sol\":2048:3380  function addLiquidity(uint256 inputTokenAmount) public payable returns (uint256 lpTokenAmount){\r... */\n    tag_10:\n      tag_66\n      0x04\n      dup1\n      calldatasize\n      sub\n      dup2\n      add\n      swap1\n      tag_67\n      swap2\n      swap1\n      tag_42\n      jump\t// in\n    tag_67:\n      tag_68\n      jump\t// in\n    tag_66:\n      mload(0x40)\n      tag_69\n      swap2\n      swap1\n      tag_45\n      jump\t// in\n    tag_69:\n      mload(0x40)\n      dup1\n      swap2\n      sub\n      swap1\n      return\n        /* \"@openzeppelin/contracts/token/ERC20/ERC20.sol\":3408:3533  function balanceOf(address account) public view virtual override returns (uint256) {... */\n    tag_11:\n      callvalue\n      dup1\n      iszero\n      tag_70\n      jumpi\n      0x00\n      dup1\n      revert\n    tag_70:\n      pop\n      tag_71\n      0x04\n      dup1\n      calldatasize\n      sub\n      dup2\n      add\n      swap1\n      tag_72\n      swap2\n      swap1\n      tag_73\n      jump\t// in\n    tag_72:\n      tag_74\n      jump\t// in\n    tag_71:\n      mload(0x40)\n      tag_75\n      swap2\n      swap1\n      tag_45\n      jump\t// in\n    tag_75:\n      mload(0x40)\n      dup1\n      swap2\n      sub\n      swap1\n      return\n        /* \"@openzeppelin/contracts/token/ERC20/ERC20.sol\":2367:2469  function symbol() public view virtual override returns (string memory) {... */\n    tag_12:\n      callvalue\n      dup1\n      iszero\n      tag_76\n      jumpi\n      0x00\n      dup1\n      revert\n    tag_76:\n      pop\n      tag_77\n      tag_78\n      jump\t// in\n    tag_77:\n      mload(0x40)\n      tag_79\n      swap2\n      swap1\n      tag_26\n      jump\t// in\n    tag_79:\n      mload(0x40)\n      dup1\n      swap2\n      sub\n      swap1\n      return\n        /* \"contracts/Pair.sol\":886:915  address public factoryAddress */\n    tag_13:\n      callvalue\n      dup1\n      iszero\n      tag_80\n      jumpi\n      0x00\n      dup1\n      revert\n    tag_80:\n      pop\n      tag_81\n      tag_82\n      jump\t// in\n    tag_81:\n      mload(0x40)\n      tag_83\n      swap2\n      swap1\n      tag_84\n      jump\t// in\n    tag_83:\n      mload(0x40)\n      dup1\n      swap2\n      sub\n      swap1\n      return\n        /* \"contracts/Pair.sol\":3388:4112  function removeLiquidity(uint256 lpTokenAmount) public returns (uint256 ethAmount, uint256 tokenAmount){\r... */\n    tag_14:\n      callvalue\n      dup1\n      iszero\n      tag_85\n      jumpi\n      0x00\n      dup1\n      revert\n    tag_85:\n      pop\n      tag_86\n      0x04\n      dup1\n      calldatasize\n      sub\n      dup2\n      add\n      swap1\n      tag_87\n      swap2\n      swap1\n      tag_42\n      jump\t// in\n    tag_87:\n      tag_88\n      jump\t// in\n    tag_86:\n      mload(0x40)\n      tag_89\n      swap3\n      swap2\n      swap1\n      tag_31\n      jump\t// in\n    tag_89:\n      mload(0x40)\n      dup1\n      swap2\n      sub\n      swap1\n      return\n        /* \"contracts/Pair.sol\":852:879  address public tokenAddress */\n    tag_15:\n      callvalue\n      dup1\n      iszero\n      tag_90\n      jumpi\n      0x00\n      dup1\n      revert\n    tag_90:\n      pop\n      tag_91\n      tag_92\n      jump\t// in\n    tag_91:\n      mload(0x40)\n      tag_93\n      swap2\n      swap1\n      tag_84\n      jump\t// in\n    tag_93:\n      mload(0x40)\n      dup1\n      swap2\n      sub\n      swap1\n      return\n        /* \"@openzeppelin/contracts/token/ERC20/ERC20.sol\":6594:7021  function decreaseAllowance(address spender, uint256 subtractedValue) public virtual returns (bool) {... */\n    tag_16:\n      callvalue\n      dup1\n      iszero\n      tag_94\n      jumpi\n      0x00\n      dup1\n      revert\n    tag_94:\n      pop\n      tag_95\n      0x04\n      dup1\n      calldatasize\n      sub\n      dup2\n      add\n      swap1\n      tag_96\n      swap2\n      swap1\n      tag_35\n      jump\t// in\n    tag_96:\n      tag_97\n      jump\t// in\n    tag_95:\n      mload(0x40)\n      tag_98\n      swap2\n      swap1\n      tag_38\n      jump\t// in\n    tag_98:\n      mload(0x40)\n      dup1\n      swap2\n      sub\n      swap1\n      return\n        /* \"@openzeppelin/contracts/token/ERC20/ERC20.sol\":3729:3918  function transfer(address to, uint256 amount) public virtual override returns (bool) {... */\n    tag_17:\n      callvalue\n      dup1\n      iszero\n      tag_99\n      jumpi\n      0x00\n      dup1\n      revert\n    tag_99:\n      pop\n      tag_100\n      0x04\n      dup1\n      calldatasize\n      sub\n      dup2\n      add\n      swap1\n      tag_101\n      swap2\n      swap1\n      tag_35\n      jump\t// in\n    tag_101:\n      tag_102\n      jump\t// in\n    tag_100:\n      mload(0x40)\n      tag_103\n      swap2\n      swap1\n      tag_38\n      jump\t// in\n    tag_103:\n      mload(0x40)\n      dup1\n      swap2\n      sub\n      swap1\n      return\n        /* \"@openzeppelin/contracts/token/ERC20/ERC20.sol\":3976:4125  function allowance(address owner, address spender) public view virtual override returns (uint256) {... */\n    tag_18:\n      callvalue\n      dup1\n      iszero\n      tag_104\n      jumpi\n      0x00\n      dup1\n      revert\n    tag_104:\n      pop\n      tag_105\n      0x04\n      dup1\n      calldatasize\n      sub\n      dup2\n      add\n      swap1\n      tag_106\n      swap2\n      swap1\n      tag_107\n      jump\t// in\n    tag_106:\n      tag_108\n      jump\t// in\n    tag_105:\n      mload(0x40)\n      tag_109\n      swap2\n      swap1\n      tag_45\n      jump\t// in\n    tag_109:\n      mload(0x40)\n      dup1\n      swap2\n      sub\n      swap1\n      return\n        /* \"@openzeppelin/contracts/token/ERC20/ERC20.sol\":2156:2254  function name() public view virtual override returns (string memory) {... */\n    tag_24:\n        /* \"@openzeppelin/contracts/token/ERC20/ERC20.sol\":2210:2223  string memory */\n      0x60\n        /* \"@openzeppelin/contracts/token/ERC20/ERC20.sol\":2242:2247  _name */\n      0x03\n        /* \"@openzeppelin/contracts/token/ERC20/ERC20.sol\":2235:2247  return _name */\n      dup1\n      sload\n      tag_111\n      swap1\n      tag_112\n      jump\t// in\n    tag_111:\n      dup1\n      0x1f\n      add\n      0x20\n      dup1\n      swap2\n      div\n      mul\n      0x20\n      add\n      mload(0x40)\n      swap1\n      dup2\n      add\n      0x40\n      mstore\n      dup1\n      swap3\n      swap2\n      swap1\n      dup2\n      dup2\n      mstore\n      0x20\n      add\n      dup3\n      dup1\n      sload\n      tag_113\n      swap1\n      tag_112\n      jump\t// in\n    tag_113:\n      dup1\n      iszero\n      tag_114\n      jumpi\n      dup1\n      0x1f\n      lt\n      tag_115\n      jumpi\n      0x0100\n      dup1\n      dup4\n      sload\n      div\n      mul\n      dup4\n      mstore\n      swap2\n      0x20\n      add\n      swap2\n      jump(tag_114)\n    tag_115:\n      dup3\n      add\n      swap2\n      swap1\n      0x00\n      mstore\n      keccak256(0x00, 0x20)\n      swap1\n    tag_116:\n      dup2\n      sload\n      dup2\n      mstore\n      swap1\n      0x01\n      add\n      swap1\n      0x20\n      add\n      dup1\n      dup4\n      gt\n      tag_116\n      jumpi\n      dup3\n      swap1\n      sub\n      0x1f\n      and\n      dup3\n      add\n      swap2\n    tag_114:\n      pop\n      pop\n      pop\n      pop\n      pop\n      swap1\n      pop\n        /* \"@openzeppelin/contracts/token/ERC20/ERC20.sol\":2156:2254  function name() public view virtual override returns (string memory) {... */\n      swap1\n      jump\t// out\n        /* \"contracts/Pair.sol\":1830:2040  function getReserves() public view returns (uint256 tokenReserve, uint256 ethReserve) {\r... */\n    tag_29:\n        /* \"contracts/Pair.sol\":1874:1894  uint256 tokenReserve */\n      0x00\n        /* \"contracts/Pair.sol\":1896:1914  uint256 ethReserve */\n      dup1\n        /* \"contracts/Pair.sol\":1949:1961  tokenAddress */\n      0x05\n      0x00\n      swap1\n      sload\n      swap1\n      0x0100\n      exp\n      swap1\n      div\n      0xffffffffffffffffffffffffffffffffffffffff\n      and\n        /* \"contracts/Pair.sol\":1942:1972  IERC20(tokenAddress).balanceOf */\n      0xffffffffffffffffffffffffffffffffffffffff\n      and\n      0x70a08231\n        /* \"contracts/Pair.sol\":1981:1985  this */\n      address\n        /* \"contracts/Pair.sol\":1942:1987  IERC20(tokenAddress).balanceOf(address(this)) */\n      mload(0x40)\n      dup3\n      0xffffffff\n      and\n      0xe0\n      shl\n      dup2\n      mstore\n      0x04\n      add\n      tag_118\n      swap2\n      swap1\n      tag_84\n      jump\t// in\n    tag_118:\n      0x20\n      mload(0x40)\n      dup1\n      dup4\n      sub\n      dup2\n      dup7\n      dup1\n      extcodesize\n      iszero\n      dup1\n      iszero\n      tag_119\n      jumpi\n      0x00\n      dup1\n      revert\n    tag_119:\n      pop\n      gas\n      staticcall\n      iszero\n      dup1\n      iszero\n      tag_121\n      jumpi\n      returndatasize\n      0x00\n      dup1\n      returndatacopy\n      revert(0x00, returndatasize)\n    tag_121:\n      pop\n      pop\n      pop\n      pop\n      mload(0x40)\n      returndatasize\n      not(0x1f)\n      0x1f\n      dup3\n      add\n      and\n      dup3\n      add\n      dup1\n      0x40\n      mstore\n      pop\n      dup2\n      add\n      swap1\n      tag_122\n      swap2\n      swap1\n      tag_123\n      jump\t// in\n    tag_122:\n        /* \"contracts/Pair.sol\":1927:1987  tokenReserve = IERC20(tokenAddress).balanceOf(address(this)) */\n      swap2\n      pop\n        /* \"contracts/Pair.sol\":2011:2032  address(this).balance */\n      selfbalance\n        /* \"contracts/Pair.sol\":1998:2032  ethReserve = address(this).balance */\n      swap1\n      pop\n        /* \"contracts/Pair.sol\":1830:2040  function getReserves() public view returns (uint256 tokenReserve, uint256 ethReserve) {\r... */\n      swap1\n      swap2\n      jump\t// out\n        /* \"@openzeppelin/contracts/token/ERC20/ERC20.sol\":4433:4630  function approve(address spender, uint256 amount) public virtual override returns (bool) {... */\n    tag_36:\n        /* \"@openzeppelin/contracts/token/ERC20/ERC20.sol\":4516:4520  bool */\n      0x00\n        /* \"@openzeppelin/contracts/token/ERC20/ERC20.sol\":4532:4545  address owner */\n      dup1\n        /* \"@openzeppelin/contracts/token/ERC20/ERC20.sol\":4548:4560  _msgSender() */\n      tag_125\n        /* \"@openzeppelin/contracts/token/ERC20/ERC20.sol\":4548:4558  _msgSender */\n      tag_126\n        /* \"@openzeppelin/contracts/token/ERC20/ERC20.sol\":4548:4560  _msgSender() */\n      jump\t// in\n    tag_125:\n        /* \"@openzeppelin/contracts/token/ERC20/ERC20.sol\":4532:4560  address owner = _msgSender() */\n      swap1\n      pop\n        /* \"@openzeppelin/contracts/token/ERC20/ERC20.sol\":4570:4602  _approve(owner, spender, amount) */\n      tag_127\n        /* \"@openzeppelin/contracts/token/ERC20/ERC20.sol\":4579:4584  owner */\n      dup2\n        /* \"@openzeppelin/contracts/token/ERC20/ERC20.sol\":4586:4593  spender */\n      dup6\n        /* \"@openzeppelin/contracts/token/ERC20/ERC20.sol\":4595:4601  amount */\n      dup6\n        /* \"@openzeppelin/contracts/token/ERC20/ERC20.sol\":4570:4578  _approve */\n      tag_128\n        /* \"@openzeppelin/contracts/token/ERC20/ERC20.sol\":4570:4602  _approve(owner, spender, amount) */\n      jump\t// in\n    tag_127:\n        /* \"@openzeppelin/contracts/token/ERC20/ERC20.sol\":4619:4623  true */\n      0x01\n        /* \"@openzeppelin/contracts/token/ERC20/ERC20.sol\":4612:4623  return true */\n      swap2\n      pop\n      pop\n        /* \"@openzeppelin/contracts/token/ERC20/ERC20.sol\":4433:4630  function approve(address spender, uint256 amount) public virtual override returns (bool) {... */\n      swap3\n      swap2\n      pop\n      pop\n      jump\t// out\n        /* \"contracts/Pair.sol\":4482:4736  function getTokenAmountForSwap(uint256 ethAmount) public view returns (uint256 tokenAmount){\r... */\n    tag_43:\n        /* \"contracts/Pair.sol\":4553:4572  uint256 tokenAmount */\n      0x00\n        /* \"contracts/Pair.sol\":4604:4605  0 */\n      dup1\n        /* \"contracts/Pair.sol\":4592:4601  ethAmount */\n      dup3\n        /* \"contracts/Pair.sol\":4592:4605  ethAmount > 0 */\n      gt\n        /* \"contracts/Pair.sol\":4584:4635  require(ethAmount > 0, \"ETH amount cannot be zero\") */\n      tag_130\n      jumpi\n      mload(0x40)\n      0x08c379a000000000000000000000000000000000000000000000000000000000\n      dup2\n      mstore\n      0x04\n      add\n      tag_131\n      swap1\n      tag_132\n      jump\t// in\n    tag_131:\n      mload(0x40)\n      dup1\n      swap2\n      sub\n      swap1\n      revert\n    tag_130:\n        /* \"contracts/Pair.sol\":4649:4669  uint256 tokenReserve */\n      0x00\n        /* \"contracts/Pair.sol\":4671:4689  uint256 ethReserve */\n      dup1\n        /* \"contracts/Pair.sol\":4693:4706  getReserves() */\n      tag_133\n        /* \"contracts/Pair.sol\":4693:4704  getReserves */\n      tag_29\n        /* \"contracts/Pair.sol\":4693:4706  getReserves() */\n      jump\t// in\n    tag_133:\n        /* \"contracts/Pair.sol\":4648:4706  (uint256 tokenReserve, uint256 ethReserve) = getReserves() */\n      swap2\n      pop\n      swap2\n      pop\n        /* \"contracts/Pair.sol\":4573:4736  {\r... */\n      pop\n      pop\n        /* \"contracts/Pair.sol\":4482:4736  function getTokenAmountForSwap(uint256 ethAmount) public view returns (uint256 tokenAmount){\r... */\n      swap2\n      swap1\n      pop\n      jump\t// out\n        /* \"@openzeppelin/contracts/token/ERC20/ERC20.sol\":3244:3350  function totalSupply() public view virtual override returns (uint256) {... */\n    tag_48:\n        /* \"@openzeppelin/contracts/token/ERC20/ERC20.sol\":3305:3312  uint256 */\n      0x00\n        /* \"@openzeppelin/contracts/token/ERC20/ERC20.sol\":3331:3343  _totalSupply */\n      sload(0x02)\n        /* \"@openzeppelin/contracts/token/ERC20/ERC20.sol\":3324:3343  return _totalSupply */\n      swap1\n      pop\n        /* \"@openzeppelin/contracts/token/ERC20/ERC20.sol\":3244:3350  function totalSupply() public view virtual override returns (uint256) {... */\n      swap1\n      jump\t// out\n        /* \"@openzeppelin/contracts/token/ERC20/ERC20.sol\":5192:5478  function transferFrom(... */\n    tag_54:\n        /* \"@openzeppelin/contracts/token/ERC20/ERC20.sol\":5319:5323  bool */\n      0x00\n        /* \"@openzeppelin/contracts/token/ERC20/ERC20.sol\":5335:5350  address spender */\n      dup1\n        /* \"@openzeppelin/contracts/token/ERC20/ERC20.sol\":5353:5365  _msgSender() */\n      tag_136\n        /* \"@openzeppelin/contracts/token/ERC20/ERC20.sol\":5353:5363  _msgSender */\n      tag_126\n        /* \"@openzeppelin/contracts/token/ERC20/ERC20.sol\":5353:5365  _msgSender() */\n      jump\t// in\n    tag_136:\n        /* \"@openzeppelin/contracts/token/ERC20/ERC20.sol\":5335:5365  address spender = _msgSender() */\n      swap1\n      pop\n        /* \"@openzeppelin/contracts/token/ERC20/ERC20.sol\":5375:5413  _spendAllowance(from, spender, amount) */\n      tag_137\n        /* \"@openzeppelin/contracts/token/ERC20/ERC20.sol\":5391:5395  from */\n      dup6\n        /* \"@openzeppelin/contracts/token/ERC20/ERC20.sol\":5397:5404  spender */\n      dup3\n        /* \"@openzeppelin/contracts/token/ERC20/ERC20.sol\":5406:5412  amount */\n      dup6\n        /* \"@openzeppelin/contracts/token/ERC20/ERC20.sol\":5375:5390  _spendAllowance */\n      tag_138\n        /* \"@openzeppelin/contracts/token/ERC20/ERC20.sol\":5375:5413  _spendAllowance(from, spender, amount) */\n      jump\t// in\n    tag_137:\n        /* \"@openzeppelin/contracts/token/ERC20/ERC20.sol\":5423:5450  _transfer(from, to, amount) */\n      tag_139\n        /* \"@openzeppelin/contracts/token/ERC20/ERC20.sol\":5433:5437  from */\n      dup6\n        /* \"@openzeppelin/contracts/token/ERC20/ERC20.sol\":5439:5441  to */\n      dup6\n        /* \"@openzeppelin/contracts/token/ERC20/ERC20.sol\":5443:5449  amount */\n      dup6\n        /* \"@openzeppelin/contracts/token/ERC20/ERC20.sol\":5423:5432  _transfer */\n      tag_140\n        /* \"@openzeppelin/contracts/token/ERC20/ERC20.sol\":5423:5450  _transfer(from, to, amount) */\n      jump\t// in\n    tag_139:\n        /* \"@openzeppelin/contracts/token/ERC20/ERC20.sol\":5467:5471  true */\n      0x01\n        /* \"@openzeppelin/contracts/token/ERC20/ERC20.sol\":5460:5471  return true */\n      swap2\n      pop\n      pop\n        /* \"@openzeppelin/contracts/token/ERC20/ERC20.sol\":5192:5478  function transferFrom(... */\n      swap4\n      swap3\n      pop\n      pop\n      pop\n      jump\t// out\n        /* \"@openzeppelin/contracts/token/ERC20/ERC20.sol\":3093:3184  function decimals() public view virtual override returns (uint8) {... */\n    tag_58:\n        /* \"@openzeppelin/contracts/token/ERC20/ERC20.sol\":3151:3156  uint8 */\n      0x00\n        /* \"@openzeppelin/contracts/token/ERC20/ERC20.sol\":3175:3177  18 */\n      0x12\n        /* \"@openzeppelin/contracts/token/ERC20/ERC20.sol\":3168:3177  return 18 */\n      swap1\n      pop\n        /* \"@openzeppelin/contracts/token/ERC20/ERC20.sol\":3093:3184  function decimals() public view virtual override returns (uint8) {... */\n      swap1\n      jump\t// out\n        /* \"@openzeppelin/contracts/token/ERC20/ERC20.sol\":5873:6107  function increaseAllowance(address spender, uint256 addedValue) public virtual returns (bool) {... */\n    tag_64:\n        /* \"@openzeppelin/contracts/token/ERC20/ERC20.sol\":5961:5965  bool */\n      0x00\n        /* \"@openzeppelin/contracts/token/ERC20/ERC20.sol\":5977:5990  address owner */\n      dup1\n        /* \"@openzeppelin/contracts/token/ERC20/ERC20.sol\":5993:6005  _msgSender() */\n      tag_143\n        /* \"@openzeppelin/contracts/token/ERC20/ERC20.sol\":5993:6003  _msgSender */\n      tag_126\n        /* \"@openzeppelin/contracts/token/ERC20/ERC20.sol\":5993:6005  _msgSender() */\n      jump\t// in\n    tag_143:\n        /* \"@openzeppelin/contracts/token/ERC20/ERC20.sol\":5977:6005  address owner = _msgSender() */\n      swap1\n      pop\n        /* \"@openzeppelin/contracts/token/ERC20/ERC20.sol\":6015:6079  _approve(owner, spender, allowance(owner, spender) + addedValue) */\n      tag_144\n        /* \"@openzeppelin/contracts/token/ERC20/ERC20.sol\":6024:6029  owner */\n      dup2\n        /* \"@openzeppelin/contracts/token/ERC20/ERC20.sol\":6031:6038  spender */\n      dup6\n        /* \"@openzeppelin/contracts/token/ERC20/ERC20.sol\":6068:6078  addedValue */\n      dup6\n        /* \"@openzeppelin/contracts/token/ERC20/ERC20.sol\":6040:6065  allowance(owner, spender) */\n      tag_145\n        /* \"@openzeppelin/contracts/token/ERC20/ERC20.sol\":6050:6055  owner */\n      dup6\n        /* \"@openzeppelin/contracts/token/ERC20/ERC20.sol\":6057:6064  spender */\n      dup10\n        /* \"@openzeppelin/contracts/token/ERC20/ERC20.sol\":6040:6049  allowance */\n      tag_108\n        /* \"@openzeppelin/contracts/token/ERC20/ERC20.sol\":6040:6065  allowance(owner, spender) */\n      jump\t// in\n    tag_145:\n        /* \"@openzeppelin/contracts/token/ERC20/ERC20.sol\":6040:6078  allowance(owner, spender) + addedValue */\n      tag_146\n      swap2\n      swap1\n      tag_147\n      jump\t// in\n    tag_146:\n        /* \"@openzeppelin/contracts/token/ERC20/ERC20.sol\":6015:6023  _approve */\n      tag_128\n        /* \"@openzeppelin/contracts/token/ERC20/ERC20.sol\":6015:6079  _approve(owner, spender, allowance(owner, spender) + addedValue) */\n      jump\t// in\n    tag_144:\n        /* \"@openzeppelin/contracts/token/ERC20/ERC20.sol\":6096:6100  true */\n      0x01\n        /* \"@openzeppelin/contracts/token/ERC20/ERC20.sol\":6089:6100  return true */\n      swap2\n      pop\n      pop\n        /* \"@openzeppelin/contracts/token/ERC20/ERC20.sol\":5873:6107  function increaseAllowance(address spender, uint256 addedValue) public virtual returns (bool) {... */\n      swap3\n      swap2\n      pop\n      pop\n      jump\t// out\n        /* \"contracts/Pair.sol\":2048:3380  function addLiquidity(uint256 inputTokenAmount) public payable returns (uint256 lpTokenAmount){\r... */\n    tag_68:\n        /* \"contracts/Pair.sol\":2120:2141  uint256 lpTokenAmount */\n      0x00\n        /* \"contracts/Pair.sol\":2154:2174  uint256 tokenReserve */\n      dup1\n        /* \"contracts/Pair.sol\":2176:2194  uint256 ethReserve */\n      0x00\n        /* \"contracts/Pair.sol\":2198:2211  getReserves() */\n      tag_149\n        /* \"contracts/Pair.sol\":2198:2209  getReserves */\n      tag_29\n        /* \"contracts/Pair.sol\":2198:2211  getReserves() */\n      jump\t// in\n    tag_149:\n        /* \"contracts/Pair.sol\":2153:2211  (uint256 tokenReserve, uint256 ethReserve) = getReserves() */\n      swap2\n      pop\n      swap2\n      pop\n        /* \"contracts/Pair.sol\":2440:2441  0 */\n      0x00\n        /* \"contracts/Pair.sol\":2424:2436  tokenReserve */\n      dup3\n        /* \"contracts/Pair.sol\":2424:2441  tokenReserve == 0 */\n      eq\n        /* \"contracts/Pair.sol\":2420:3259  if (tokenReserve == 0) {\r... */\n      iszero\n      tag_150\n      jumpi\n        /* \"contracts/Pair.sol\":2458:2470  IERC20 token */\n      0x00\n        /* \"contracts/Pair.sol\":2480:2492  tokenAddress */\n      0x05\n      0x00\n      swap1\n      sload\n      swap1\n      0x0100\n      exp\n      swap1\n      div\n      0xffffffffffffffffffffffffffffffffffffffff\n      and\n        /* \"contracts/Pair.sol\":2458:2493  IERC20 token = IERC20(tokenAddress) */\n      swap1\n      pop\n        /* \"contracts/Pair.sol\":2508:2513  token */\n      dup1\n        /* \"contracts/Pair.sol\":2508:2526  token.transferFrom */\n      0xffffffffffffffffffffffffffffffffffffffff\n      and\n      0x23b872dd\n        /* \"contracts/Pair.sol\":2527:2537  msg.sender */\n      caller\n        /* \"contracts/Pair.sol\":2547:2551  this */\n      address\n        /* \"contracts/Pair.sol\":2554:2570  inputTokenAmount */\n      dup9\n        /* \"contracts/Pair.sol\":2508:2571  token.transferFrom(msg.sender, address(this), inputTokenAmount) */\n      mload(0x40)\n      dup5\n      0xffffffff\n      and\n      0xe0\n      shl\n      dup2\n      mstore\n      0x04\n      add\n      tag_151\n      swap4\n      swap3\n      swap2\n      swap1\n      tag_152\n      jump\t// in\n    tag_151:\n      0x20\n      mload(0x40)\n      dup1\n      dup4\n      sub\n      dup2\n      0x00\n      dup8\n      dup1\n      extcodesize\n      iszero\n      dup1\n      iszero\n      tag_153\n      jumpi\n      0x00\n      dup1\n      revert\n    tag_153:\n      pop\n      gas\n      call\n      iszero\n      dup1\n      iszero\n      tag_155\n      jumpi\n      returndatasize\n      0x00\n      dup1\n      returndatacopy\n      revert(0x00, returndatasize)\n    tag_155:\n      pop\n      pop\n      pop\n      pop\n      mload(0x40)\n      returndatasize\n      not(0x1f)\n      0x1f\n      dup3\n      add\n      and\n      dup3\n      add\n      dup1\n      0x40\n      mstore\n      pop\n      dup2\n      add\n      swap1\n      tag_156\n      swap2\n      swap1\n      tag_157\n      jump\t// in\n    tag_156:\n      pop\n        /* \"contracts/Pair.sol\":2602:2612  ethReserve */\n      dup2\n        /* \"contracts/Pair.sol\":2586:2612  lpTokenAmount = ethReserve */\n      swap4\n      pop\n        /* \"contracts/Pair.sol\":2443:2624  {\r... */\n      pop\n        /* \"contracts/Pair.sol\":2420:3259  if (tokenReserve == 0) {\r... */\n      jump(tag_158)\n    tag_150:\n        /* \"contracts/Pair.sol\":2702:2711  msg.value */\n      callvalue\n        /* \"contracts/Pair.sol\":2688:2711  ethReserve -= msg.value */\n      dup2\n      tag_159\n      swap2\n      swap1\n      tag_160\n      jump\t// in\n    tag_159:\n      swap1\n      pop\n        /* \"contracts/Pair.sol\":2799:2825  uint256 requiredTokenInput */\n      0x00\n        /* \"contracts/Pair.sol\":2853:2863  ethReserve */\n      dup2\n        /* \"contracts/Pair.sol\":2840:2852  tokenReserve */\n      dup4\n        /* \"contracts/Pair.sol\":2828:2837  msg.value */\n      callvalue\n        /* \"contracts/Pair.sol\":2828:2852  msg.value * tokenReserve */\n      tag_161\n      swap2\n      swap1\n      tag_162\n      jump\t// in\n    tag_161:\n        /* \"contracts/Pair.sol\":2828:2863  msg.value * tokenReserve/ethReserve */\n      tag_163\n      swap2\n      swap1\n      tag_164\n      jump\t// in\n    tag_163:\n        /* \"contracts/Pair.sol\":2799:2863  uint256 requiredTokenInput = msg.value * tokenReserve/ethReserve */\n      swap1\n      pop\n        /* \"contracts/Pair.sol\":2984:3002  requiredTokenInput */\n      dup1\n        /* \"contracts/Pair.sol\":2964:2980  inputTokenAmount */\n      dup6\n        /* \"contracts/Pair.sol\":2964:3002  inputTokenAmount >= requiredTokenInput */\n      lt\n      iszero\n        /* \"contracts/Pair.sol\":2956:3048  require(inputTokenAmount >= requiredTokenInput, \"Insufficient input amount of ERC20 Tokens\") */\n      tag_165\n      jumpi\n      mload(0x40)\n      0x08c379a000000000000000000000000000000000000000000000000000000000\n      dup2\n      mstore\n      0x04\n      add\n      tag_166\n      swap1\n      tag_167\n      jump\t// in\n    tag_166:\n      mload(0x40)\n      dup1\n      swap2\n      sub\n      swap1\n      revert\n    tag_165:\n        /* \"contracts/Pair.sol\":3063:3075  IERC20 token */\n      0x00\n        /* \"contracts/Pair.sol\":3085:3097  tokenAddress */\n      0x05\n      0x00\n      swap1\n      sload\n      swap1\n      0x0100\n      exp\n      swap1\n      div\n      0xffffffffffffffffffffffffffffffffffffffff\n      and\n        /* \"contracts/Pair.sol\":3063:3098  IERC20 token = IERC20(tokenAddress) */\n      swap1\n      pop\n        /* \"contracts/Pair.sol\":3113:3118  token */\n      dup1\n        /* \"contracts/Pair.sol\":3113:3131  token.transferFrom */\n      0xffffffffffffffffffffffffffffffffffffffff\n      and\n      0x23b872dd\n        /* \"contracts/Pair.sol\":3132:3142  msg.sender */\n      caller\n        /* \"contracts/Pair.sol\":3152:3156  this */\n      address\n        /* \"contracts/Pair.sol\":3159:3175  inputTokenAmount */\n      dup10\n        /* \"contracts/Pair.sol\":3113:3176  token.transferFrom(msg.sender, address(this), inputTokenAmount) */\n      mload(0x40)\n      dup5\n      0xffffffff\n      and\n      0xe0\n      shl\n      dup2\n      mstore\n      0x04\n      add\n      tag_168\n      swap4\n      swap3\n      swap2\n      swap1\n      tag_152\n      jump\t// in\n    tag_168:\n      0x20\n      mload(0x40)\n      dup1\n      dup4\n      sub\n      dup2\n      0x00\n      dup8\n      dup1\n      extcodesize\n      iszero\n      dup1\n      iszero\n      tag_169\n      jumpi\n      0x00\n      dup1\n      revert\n    tag_169:\n      pop\n      gas\n      call\n      iszero\n      dup1\n      iszero\n      tag_171\n      jumpi\n      returndatasize\n      0x00\n      dup1\n      returndatacopy\n      revert(0x00, returndatasize)\n    tag_171:\n      pop\n      pop\n      pop\n      pop\n      mload(0x40)\n      returndatasize\n      not(0x1f)\n      0x1f\n      dup3\n      add\n      and\n      dup3\n      add\n      dup1\n      0x40\n      mstore\n      pop\n      dup2\n      add\n      swap1\n      tag_172\n      swap2\n      swap1\n      tag_157\n      jump\t// in\n    tag_172:\n      pop\n        /* \"contracts/Pair.sol\":3237:3247  ethReserve */\n      dup3\n        /* \"contracts/Pair.sol\":3224:3233  msg.value */\n      callvalue\n        /* \"contracts/Pair.sol\":3208:3221  totalSupply() */\n      tag_173\n        /* \"contracts/Pair.sol\":3208:3219  totalSupply */\n      tag_48\n        /* \"contracts/Pair.sol\":3208:3221  totalSupply() */\n      jump\t// in\n    tag_173:\n        /* \"contracts/Pair.sol\":3208:3233  totalSupply() * msg.value */\n      tag_174\n      swap2\n      swap1\n      tag_162\n      jump\t// in\n    tag_174:\n        /* \"contracts/Pair.sol\":3207:3247  (totalSupply() * msg.value) / ethReserve */\n      tag_175\n      swap2\n      swap1\n      tag_164\n      jump\t// in\n    tag_175:\n        /* \"contracts/Pair.sol\":3191:3247  lpTokenAmount = (totalSupply() * msg.value) / ethReserve */\n      swap5\n      pop\n        /* \"contracts/Pair.sol\":2673:3259  {\r... */\n      pop\n      pop\n        /* \"contracts/Pair.sol\":2420:3259  if (tokenReserve == 0) {\r... */\n    tag_158:\n        /* \"contracts/Pair.sol\":3271:3303  _mint(msg.sender, lpTokenAmount) */\n      tag_176\n        /* \"contracts/Pair.sol\":3277:3287  msg.sender */\n      caller\n        /* \"contracts/Pair.sol\":3289:3302  lpTokenAmount */\n      dup5\n        /* \"contracts/Pair.sol\":3271:3276  _mint */\n      tag_177\n        /* \"contracts/Pair.sol\":3271:3303  _mint(msg.sender, lpTokenAmount) */\n      jump\t// in\n    tag_176:\n        /* \"contracts/Pair.sol\":3355:3371  inputTokenAmount */\n      dup4\n        /* \"contracts/Pair.sol\":3344:3353  msg.value */\n      callvalue\n        /* \"contracts/Pair.sol\":3332:3342  msg.sender */\n      caller\n        /* \"contracts/Pair.sol\":3319:3372  AddLiquidity(msg.sender, msg.value, inputTokenAmount) */\n      0xffffffffffffffffffffffffffffffffffffffff\n      and\n      0x06239653922ac7bea6aa2b19dc486b9361821d37712eb796adfd38d81de278ca\n      mload(0x40)\n      mload(0x40)\n      dup1\n      swap2\n      sub\n      swap1\n      log4\n        /* \"contracts/Pair.sol\":2142:3380  {\r... */\n      pop\n      pop\n        /* \"contracts/Pair.sol\":2048:3380  function addLiquidity(uint256 inputTokenAmount) public payable returns (uint256 lpTokenAmount){\r... */\n      swap2\n      swap1\n      pop\n      jump\t// out\n        /* \"@openzeppelin/contracts/token/ERC20/ERC20.sol\":3408:3533  function balanceOf(address account) public view virtual override returns (uint256) {... */\n    tag_74:\n        /* \"@openzeppelin/contracts/token/ERC20/ERC20.sol\":3482:3489  uint256 */\n      0x00\n        /* \"@openzeppelin/contracts/token/ERC20/ERC20.sol\":3508:3517  _balances */\n      dup1\n        /* \"@openzeppelin/contracts/token/ERC20/ERC20.sol\":3508:3526  _balances[account] */\n      0x00\n        /* \"@openzeppelin/contracts/token/ERC20/ERC20.sol\":3518:3525  account */\n      dup4\n        /* \"@openzeppelin/contracts/token/ERC20/ERC20.sol\":3508:3526  _balances[account] */\n      0xffffffffffffffffffffffffffffffffffffffff\n      and\n      0xffffffffffffffffffffffffffffffffffffffff\n      and\n      dup2\n      mstore\n      0x20\n      add\n      swap1\n      dup2\n      mstore\n      0x20\n      add\n      0x00\n      keccak256\n      sload\n        /* \"@openzeppelin/contracts/token/ERC20/ERC20.sol\":3501:3526  return _balances[account] */\n      swap1\n      pop\n        /* \"@openzeppelin/contracts/token/ERC20/ERC20.sol\":3408:3533  function balanceOf(address account) public view virtual override returns (uint256) {... */\n      swap2\n      swap1\n      pop\n      jump\t// out\n        /* \"@openzeppelin/contracts/token/ERC20/ERC20.sol\":2367:2469  function symbol() public view virtual override returns (string memory) {... */\n    tag_78:\n        /* \"@openzeppelin/contracts/token/ERC20/ERC20.sol\":2423:2436  string memory */\n      0x60\n        /* \"@openzeppelin/contracts/token/ERC20/ERC20.sol\":2455:2462  _symbol */\n      0x04\n        /* \"@openzeppelin/contracts/token/ERC20/ERC20.sol\":2448:2462  return _symbol */\n      dup1\n      sload\n      tag_180\n      swap1\n      tag_112\n      jump\t// in\n    tag_180:\n      dup1\n      0x1f\n      add\n      0x20\n      dup1\n      swap2\n      div\n      mul\n      0x20\n      add\n      mload(0x40)\n      swap1\n      dup2\n      add\n      0x40\n      mstore\n      dup1\n      swap3\n      swap2\n      swap1\n      dup2\n      dup2\n      mstore\n      0x20\n      add\n      dup3\n      dup1\n      sload\n      tag_181\n      swap1\n      tag_112\n      jump\t// in\n    tag_181:\n      dup1\n      iszero\n      tag_182\n      jumpi\n      dup1\n      0x1f\n      lt\n      tag_183\n      jumpi\n      0x0100\n      dup1\n      dup4\n      sload\n      div\n      mul\n      dup4\n      mstore\n      swap2\n      0x20\n      add\n      swap2\n      jump(tag_182)\n    tag_183:\n      dup3\n      add\n      swap2\n      swap1\n      0x00\n      mstore\n      keccak256(0x00, 0x20)\n      swap1\n    tag_184:\n      dup2\n      sload\n      dup2\n      mstore\n      swap1\n      0x01\n      add\n      swap1\n      0x20\n      add\n      dup1\n      dup4\n      gt\n      tag_184\n      jumpi\n      dup3\n      swap1\n      sub\n      0x1f\n      and\n      dup3\n      add\n      swap2\n    tag_182:\n      pop\n      pop\n      pop\n      pop\n      pop\n      swap1\n      pop\n        /* \"@openzeppelin/contracts/token/ERC20/ERC20.sol\":2367:2469  function symbol() public view virtual override returns (string memory) {... */\n      swap1\n      jump\t// out\n        /* \"contracts/Pair.sol\":886:915  address public factoryAddress */\n    tag_82:\n      0x06\n      0x00\n      swap1\n      sload\n      swap1\n      0x0100\n      exp\n      swap1\n      div\n      0xffffffffffffffffffffffffffffffffffffffff\n      and\n      dup2\n      jump\t// out\n        /* \"contracts/Pair.sol\":3388:4112  function removeLiquidity(uint256 lpTokenAmount) public returns (uint256 ethAmount, uint256 tokenAmount){\r... */\n    tag_88:\n        /* \"contracts/Pair.sol\":3452:3469  uint256 ethAmount */\n      0x00\n        /* \"contracts/Pair.sol\":3471:3490  uint256 tokenAmount */\n      dup1\n        /* \"contracts/Pair.sol\":3526:3527  0 */\n      0x00\n        /* \"contracts/Pair.sol\":3510:3523  lpTokenAmount */\n      dup4\n        /* \"contracts/Pair.sol\":3510:3527  lpTokenAmount > 0 */\n      gt\n        /* \"contracts/Pair.sol\":3502:3587  require(lpTokenAmount > 0, \"Please input a valid amount of LP Tokens to burn/redeem\") */\n      tag_186\n      jumpi\n      mload(0x40)\n      0x08c379a000000000000000000000000000000000000000000000000000000000\n      dup2\n      mstore\n      0x04\n      add\n      tag_187\n      swap1\n      tag_188\n      jump\t// in\n    tag_187:\n      mload(0x40)\n      dup1\n      swap2\n      sub\n      swap1\n      revert\n    tag_186:\n        /* \"contracts/Pair.sol\":3601:3621  uint256 tokenReserve */\n      0x00\n        /* \"contracts/Pair.sol\":3623:3641  uint256 ethReserve */\n      dup1\n        /* \"contracts/Pair.sol\":3645:3658  getReserves() */\n      tag_189\n        /* \"contracts/Pair.sol\":3645:3656  getReserves */\n      tag_29\n        /* \"contracts/Pair.sol\":3645:3658  getReserves() */\n      jump\t// in\n    tag_189:\n        /* \"contracts/Pair.sol\":3600:3658  (uint256 tokenReserve, uint256 ethReserve) = getReserves() */\n      swap2\n      pop\n      swap2\n      pop\n        /* \"contracts/Pair.sol\":3712:3725  totalSupply() */\n      tag_190\n        /* \"contracts/Pair.sol\":3712:3723  totalSupply */\n      tag_48\n        /* \"contracts/Pair.sol\":3712:3725  totalSupply() */\n      jump\t// in\n    tag_190:\n        /* \"contracts/Pair.sol\":3695:3708  lpTokenAmount */\n      dup6\n        /* \"contracts/Pair.sol\":3682:3692  ethReserve */\n      dup3\n        /* \"contracts/Pair.sol\":3682:3708  ethReserve * lpTokenAmount */\n      tag_191\n      swap2\n      swap1\n      tag_162\n      jump\t// in\n    tag_191:\n        /* \"contracts/Pair.sol\":3681:3725  (ethReserve * lpTokenAmount) / totalSupply() */\n      tag_192\n      swap2\n      swap1\n      tag_164\n      jump\t// in\n    tag_192:\n        /* \"contracts/Pair.sol\":3669:3725  ethAmount = (ethReserve * lpTokenAmount) / totalSupply() */\n      swap4\n      pop\n        /* \"contracts/Pair.sol\":3783:3796  totalSupply() */\n      tag_193\n        /* \"contracts/Pair.sol\":3783:3794  totalSupply */\n      tag_48\n        /* \"contracts/Pair.sol\":3783:3796  totalSupply() */\n      jump\t// in\n    tag_193:\n        /* \"contracts/Pair.sol\":3766:3779  lpTokenAmount */\n      dup6\n        /* \"contracts/Pair.sol\":3751:3763  tokenReserve */\n      dup4\n        /* \"contracts/Pair.sol\":3751:3779  tokenReserve * lpTokenAmount */\n      tag_194\n      swap2\n      swap1\n      tag_162\n      jump\t// in\n    tag_194:\n        /* \"contracts/Pair.sol\":3750:3796  (tokenReserve * lpTokenAmount) / totalSupply() */\n      tag_195\n      swap2\n      swap1\n      tag_164\n      jump\t// in\n    tag_195:\n        /* \"contracts/Pair.sol\":3736:3796  tokenAmount = (tokenReserve * lpTokenAmount) / totalSupply() */\n      swap3\n      pop\n        /* \"contracts/Pair.sol\":3809:3841  _burn(msg.sender, lpTokenAmount) */\n      tag_196\n        /* \"contracts/Pair.sol\":3815:3825  msg.sender */\n      caller\n        /* \"contracts/Pair.sol\":3827:3840  lpTokenAmount */\n      dup7\n        /* \"contracts/Pair.sol\":3809:3814  _burn */\n      tag_197\n        /* \"contracts/Pair.sol\":3809:3841  _burn(msg.sender, lpTokenAmount) */\n      jump\t// in\n    tag_196:\n        /* \"contracts/Pair.sol\":3853:3862  bool sent */\n      0x00\n        /* \"contracts/Pair.sol\":3869:3879  msg.sender */\n      caller\n        /* \"contracts/Pair.sol\":3868:3885  (msg.sender).call */\n      0xffffffffffffffffffffffffffffffffffffffff\n      and\n        /* \"contracts/Pair.sol\":3893:3902  ethAmount */\n      dup6\n        /* \"contracts/Pair.sol\":3868:3907  (msg.sender).call{value: ethAmount}(\"\") */\n      mload(0x40)\n      tag_198\n      swap1\n      tag_199\n      jump\t// in\n    tag_198:\n      0x00\n      mload(0x40)\n      dup1\n      dup4\n      sub\n      dup2\n      dup6\n      dup8\n      gas\n      call\n      swap3\n      pop\n      pop\n      pop\n      returndatasize\n      dup1\n      0x00\n      dup2\n      eq\n      tag_202\n      jumpi\n      mload(0x40)\n      swap2\n      pop\n      and(add(returndatasize, 0x3f), not(0x1f))\n      dup3\n      add\n      0x40\n      mstore\n      returndatasize\n      dup3\n      mstore\n      returndatasize\n      0x00\n      0x20\n      dup5\n      add\n      returndatacopy\n      jump(tag_201)\n    tag_202:\n      0x60\n      swap2\n      pop\n    tag_201:\n      pop\n        /* \"contracts/Pair.sol\":3852:3907  (bool sent, ) = (msg.sender).call{value: ethAmount}(\"\") */\n      pop\n      swap1\n      pop\n        /* \"contracts/Pair.sol\":3926:3930  sent */\n      dup1\n        /* \"contracts/Pair.sol\":3918:3972  require(sent, \"Transaction of Ether was unsuccessful\") */\n      tag_203\n      jumpi\n      mload(0x40)\n      0x08c379a000000000000000000000000000000000000000000000000000000000\n      dup2\n      mstore\n      0x04\n      add\n      tag_204\n      swap1\n      tag_205\n      jump\t// in\n    tag_204:\n      mload(0x40)\n      dup1\n      swap2\n      sub\n      swap1\n      revert\n    tag_203:\n        /* \"contracts/Pair.sol\":3990:4002  tokenAddress */\n      0x05\n      0x00\n      swap1\n      sload\n      swap1\n      0x0100\n      exp\n      swap1\n      div\n      0xffffffffffffffffffffffffffffffffffffffff\n      and\n        /* \"contracts/Pair.sol\":3983:4012  IERC20(tokenAddress).transfer */\n      0xffffffffffffffffffffffffffffffffffffffff\n      and\n      0xa9059cbb\n        /* \"contracts/Pair.sol\":4013:4023  msg.sender */\n      caller\n        /* \"contracts/Pair.sol\":4025:4036  tokenAmount */\n      dup7\n        /* \"contracts/Pair.sol\":3983:4037  IERC20(tokenAddress).transfer(msg.sender, tokenAmount) */\n      mload(0x40)\n      dup4\n      0xffffffff\n      and\n      0xe0\n      shl\n      dup2\n      mstore\n      0x04\n      add\n      tag_206\n      swap3\n      swap2\n      swap1\n      tag_207\n      jump\t// in\n    tag_206:\n      0x20\n      mload(0x40)\n      dup1\n      dup4\n      sub\n      dup2\n      0x00\n      dup8\n      dup1\n      extcodesize\n      iszero\n      dup1\n      iszero\n      tag_208\n      jumpi\n      0x00\n      dup1\n      revert\n    tag_208:\n      pop\n      gas\n      call\n      iszero\n      dup1\n      iszero\n      tag_210\n      jumpi\n      returndatasize\n      0x00\n      dup1\n      returndatacopy\n      revert(0x00, returndatasize)\n    tag_210:\n      pop\n      pop\n      pop\n      pop\n      mload(0x40)\n      returndatasize\n      not(0x1f)\n      0x1f\n      dup3\n      add\n      and\n      dup3\n      add\n      dup1\n      0x40\n      mstore\n      pop\n      dup2\n      add\n      swap1\n      tag_211\n      swap2\n      swap1\n      tag_157\n      jump\t// in\n    tag_211:\n      pop\n        /* \"contracts/Pair.sol\":4092:4103  tokenAmount */\n      dup4\n        /* \"contracts/Pair.sol\":4081:4090  ethAmount */\n      dup6\n        /* \"contracts/Pair.sol\":4069:4079  msg.sender */\n      caller\n        /* \"contracts/Pair.sol\":4053:4104  RemoveLiquidity(msg.sender, ethAmount, tokenAmount) */\n      0xffffffffffffffffffffffffffffffffffffffff\n      and\n      0x0fbf06c058b90cb038a618f8c2acbf6145f8b3570fd1fa56abb8f0f3f05b36e8\n      mload(0x40)\n      mload(0x40)\n      dup1\n      swap2\n      sub\n      swap1\n      log4\n        /* \"contracts/Pair.sol\":3491:4112  {\r... */\n      pop\n      pop\n      pop\n        /* \"contracts/Pair.sol\":3388:4112  function removeLiquidity(uint256 lpTokenAmount) public returns (uint256 ethAmount, uint256 tokenAmount){\r... */\n      swap2\n      pop\n      swap2\n      jump\t// out\n        /* \"contracts/Pair.sol\":852:879  address public tokenAddress */\n    tag_92:\n      0x05\n      0x00\n      swap1\n      sload\n      swap1\n      0x0100\n      exp\n      swap1\n      div\n      0xffffffffffffffffffffffffffffffffffffffff\n      and\n      dup2\n      jump\t// out\n        /* \"@openzeppelin/contracts/token/ERC20/ERC20.sol\":6594:7021  function decreaseAllowance(address spender, uint256 subtractedValue) public virtual returns (bool) {... */\n    tag_97:\n        /* \"@openzeppelin/contracts/token/ERC20/ERC20.sol\":6687:6691  bool */\n      0x00\n        /* \"@openzeppelin/contracts/token/ERC20/ERC20.sol\":6703:6716  address owner */\n      dup1\n        /* \"@openzeppelin/contracts/token/ERC20/ERC20.sol\":6719:6731  _msgSender() */\n      tag_213\n        /* \"@openzeppelin/contracts/token/ERC20/ERC20.sol\":6719:6729  _msgSender */\n      tag_126\n        /* \"@openzeppelin/contracts/token/ERC20/ERC20.sol\":6719:6731  _msgSender() */\n      jump\t// in\n    tag_213:\n        /* \"@openzeppelin/contracts/token/ERC20/ERC20.sol\":6703:6731  address owner = _msgSender() */\n      swap1\n      pop\n        /* \"@openzeppelin/contracts/token/ERC20/ERC20.sol\":6741:6765  uint256 currentAllowance */\n      0x00\n        /* \"@openzeppelin/contracts/token/ERC20/ERC20.sol\":6768:6793  allowance(owner, spender) */\n      tag_214\n        /* \"@openzeppelin/contracts/token/ERC20/ERC20.sol\":6778:6783  owner */\n      dup3\n        /* \"@openzeppelin/contracts/token/ERC20/ERC20.sol\":6785:6792  spender */\n      dup7\n        /* \"@openzeppelin/contracts/token/ERC20/ERC20.sol\":6768:6777  allowance */\n      tag_108\n        /* \"@openzeppelin/contracts/token/ERC20/ERC20.sol\":6768:6793  allowance(owner, spender) */\n      jump\t// in\n    tag_214:\n        /* \"@openzeppelin/contracts/token/ERC20/ERC20.sol\":6741:6793  uint256 currentAllowance = allowance(owner, spender) */\n      swap1\n      pop\n        /* \"@openzeppelin/contracts/token/ERC20/ERC20.sol\":6831:6846  subtractedValue */\n      dup4\n        /* \"@openzeppelin/contracts/token/ERC20/ERC20.sol\":6811:6827  currentAllowance */\n      dup2\n        /* \"@openzeppelin/contracts/token/ERC20/ERC20.sol\":6811:6846  currentAllowance >= subtractedValue */\n      lt\n      iszero\n        /* \"@openzeppelin/contracts/token/ERC20/ERC20.sol\":6803:6888  require(currentAllowance >= subtractedValue, \"ERC20: decreased allowance below zero\") */\n      tag_215\n      jumpi\n      mload(0x40)\n      0x08c379a000000000000000000000000000000000000000000000000000000000\n      dup2\n      mstore\n      0x04\n      add\n      tag_216\n      swap1\n      tag_217\n      jump\t// in\n    tag_216:\n      mload(0x40)\n      dup1\n      swap2\n      sub\n      swap1\n      revert\n    tag_215:\n        /* \"@openzeppelin/contracts/token/ERC20/ERC20.sol\":6922:6982  _approve(owner, spender, currentAllowance - subtractedValue) */\n      tag_218\n        /* \"@openzeppelin/contracts/token/ERC20/ERC20.sol\":6931:6936  owner */\n      dup3\n        /* \"@openzeppelin/contracts/token/ERC20/ERC20.sol\":6938:6945  spender */\n      dup7\n        /* \"@openzeppelin/contracts/token/ERC20/ERC20.sol\":6966:6981  subtractedValue */\n      dup7\n        /* \"@openzeppelin/contracts/token/ERC20/ERC20.sol\":6947:6963  currentAllowance */\n      dup5\n        /* \"@openzeppelin/contracts/token/ERC20/ERC20.sol\":6947:6981  currentAllowance - subtractedValue */\n      sub\n        /* \"@openzeppelin/contracts/token/ERC20/ERC20.sol\":6922:6930  _approve */\n      tag_128\n        /* \"@openzeppelin/contracts/token/ERC20/ERC20.sol\":6922:6982  _approve(owner, spender, currentAllowance - subtractedValue) */\n      jump\t// in\n    tag_218:\n        /* \"@openzeppelin/contracts/token/ERC20/ERC20.sol\":7010:7014  true */\n      0x01\n        /* \"@openzeppelin/contracts/token/ERC20/ERC20.sol\":7003:7014  return true */\n      swap3\n      pop\n      pop\n      pop\n        /* \"@openzeppelin/contracts/token/ERC20/ERC20.sol\":6594:7021  function decreaseAllowance(address spender, uint256 subtractedValue) public virtual returns (bool) {... */\n      swap3\n      swap2\n      pop\n      pop\n      jump\t// out\n        /* \"@openzeppelin/contracts/token/ERC20/ERC20.sol\":3729:3918  function transfer(address to, uint256 amount) public virtual override returns (bool) {... */\n    tag_102:\n        /* \"@openzeppelin/contracts/token/ERC20/ERC20.sol\":3808:3812  bool */\n      0x00\n        /* \"@openzeppelin/contracts/token/ERC20/ERC20.sol\":3824:3837  address owner */\n      dup1\n        /* \"@openzeppelin/contracts/token/ERC20/ERC20.sol\":3840:3852  _msgSender() */\n      tag_220\n        /* \"@openzeppelin/contracts/token/ERC20/ERC20.sol\":3840:3850  _msgSender */\n      tag_126\n        /* \"@openzeppelin/contracts/token/ERC20/ERC20.sol\":3840:3852  _msgSender() */\n      jump\t// in\n    tag_220:\n        /* \"@openzeppelin/contracts/token/ERC20/ERC20.sol\":3824:3852  address owner = _msgSender() */\n      swap1\n      pop\n        /* \"@openzeppelin/contracts/token/ERC20/ERC20.sol\":3862:3890  _transfer(owner, to, amount) */\n      tag_221\n        /* \"@openzeppelin/contracts/token/ERC20/ERC20.sol\":3872:3877  owner */\n      dup2\n        /* \"@openzeppelin/contracts/token/ERC20/ERC20.sol\":3879:3881  to */\n      dup6\n        /* \"@openzeppelin/contracts/token/ERC20/ERC20.sol\":3883:3889  amount */\n      dup6\n        /* \"@openzeppelin/contracts/token/ERC20/ERC20.sol\":3862:3871  _transfer */\n      tag_140\n        /* \"@openzeppelin/contracts/token/ERC20/ERC20.sol\":3862:3890  _transfer(owner, to, amount) */\n      jump\t// in\n    tag_221:\n        /* \"@openzeppelin/contracts/token/ERC20/ERC20.sol\":3907:3911  true */\n      0x01\n        /* \"@openzeppelin/contracts/token/ERC20/ERC20.sol\":3900:3911  return true */\n      swap2\n      pop\n      pop\n        /* \"@openzeppelin/contracts/token/ERC20/ERC20.sol\":3729:3918  function transfer(address to, uint256 amount) public virtual override returns (bool) {... */\n      swap3\n      swap2\n      pop\n      pop\n      jump\t// out\n        /* \"@openzeppelin/contracts/token/ERC20/ERC20.sol\":3976:4125  function allowance(address owner, address spender) public view virtual override returns (uint256) {... */\n    tag_108:\n        /* \"@openzeppelin/contracts/token/ERC20/ERC20.sol\":4065:4072  uint256 */\n      0x00\n        /* \"@openzeppelin/contracts/token/ERC20/ERC20.sol\":4091:4102  _allowances */\n      0x01\n        /* \"@openzeppelin/contracts/token/ERC20/ERC20.sol\":4091:4109  _allowances[owner] */\n      0x00\n        /* \"@openzeppelin/contracts/token/ERC20/ERC20.sol\":4103:4108  owner */\n      dup5\n        /* \"@openzeppelin/contracts/token/ERC20/ERC20.sol\":4091:4109  _allowances[owner] */\n      0xffffffffffffffffffffffffffffffffffffffff\n      and\n      0xffffffffffffffffffffffffffffffffffffffff\n      and\n      dup2\n      mstore\n      0x20\n      add\n      swap1\n      dup2\n      mstore\n      0x20\n      add\n      0x00\n      keccak256\n        /* \"@openzeppelin/contracts/token/ERC20/ERC20.sol\":4091:4118  _allowances[owner][spender] */\n      0x00\n        /* \"@openzeppelin/contracts/token/ERC20/ERC20.sol\":4110:4117  spender */\n      dup4\n        /* \"@openzeppelin/contracts/token/ERC20/ERC20.sol\":4091:4118  _allowances[owner][spender] */\n      0xffffffffffffffffffffffffffffffffffffffff\n      and\n      0xffffffffffffffffffffffffffffffffffffffff\n      and\n      dup2\n      mstore\n      0x20\n      add\n      swap1\n      dup2\n      mstore\n      0x20\n      add\n      0x00\n      keccak256\n      sload\n        /* \"@openzeppelin/contracts/token/ERC20/ERC20.sol\":4084:4118  return _allowances[owner][spender] */\n      swap1\n      pop\n        /* \"@openzeppelin/contracts/token/ERC20/ERC20.sol\":3976:4125  function allowance(address owner, address spender) public view virtual override returns (uint256) {... */\n      swap3\n      swap2\n      pop\n      pop\n      jump\t// out\n        /* \"@openzeppelin/contracts/utils/Context.sol\":640:736  function _msgSender() internal view virtual returns (address) {... */\n    tag_126:\n        /* \"@openzeppelin/contracts/utils/Context.sol\":693:700  address */\n      0x00\n        /* \"@openzeppelin/contracts/utils/Context.sol\":719:729  msg.sender */\n      caller\n        /* \"@openzeppelin/contracts/utils/Context.sol\":712:729  return msg.sender */\n      swap1\n      pop\n        /* \"@openzeppelin/contracts/utils/Context.sol\":640:736  function _msgSender() internal view virtual returns (address) {... */\n      swap1\n      jump\t// out\n        /* \"@openzeppelin/contracts/token/ERC20/ERC20.sol\":10110:10480  function _approve(... */\n    tag_128:\n        /* \"@openzeppelin/contracts/token/ERC20/ERC20.sol\":10258:10259  0 */\n      0x00\n        /* \"@openzeppelin/contracts/token/ERC20/ERC20.sol\":10241:10260  owner != address(0) */\n      0xffffffffffffffffffffffffffffffffffffffff\n      and\n        /* \"@openzeppelin/contracts/token/ERC20/ERC20.sol\":10241:10246  owner */\n      dup4\n        /* \"@openzeppelin/contracts/token/ERC20/ERC20.sol\":10241:10260  owner != address(0) */\n      0xffffffffffffffffffffffffffffffffffffffff\n      and\n      eq\n      iszero\n        /* \"@openzeppelin/contracts/token/ERC20/ERC20.sol\":10233:10301  require(owner != address(0), \"ERC20: approve from the zero address\") */\n      tag_225\n      jumpi\n      mload(0x40)\n      0x08c379a000000000000000000000000000000000000000000000000000000000\n      dup2\n      mstore\n      0x04\n      add\n      tag_226\n      swap1\n      tag_227\n      jump\t// in\n    tag_226:\n      mload(0x40)\n      dup1\n      swap2\n      sub\n      swap1\n      revert\n    tag_225:\n        /* \"@openzeppelin/contracts/token/ERC20/ERC20.sol\":10338:10339  0 */\n      0x00\n        /* \"@openzeppelin/contracts/token/ERC20/ERC20.sol\":10319:10340  spender != address(0) */\n      0xffffffffffffffffffffffffffffffffffffffff\n      and\n        /* \"@openzeppelin/contracts/token/ERC20/ERC20.sol\":10319:10326  spender */\n      dup3\n        /* \"@openzeppelin/contracts/token/ERC20/ERC20.sol\":10319:10340  spender != address(0) */\n      0xffffffffffffffffffffffffffffffffffffffff\n      and\n      eq\n      iszero\n        /* \"@openzeppelin/contracts/token/ERC20/ERC20.sol\":10311:10379  require(spender != address(0), \"ERC20: approve to the zero address\") */\n      tag_228\n      jumpi\n      mload(0x40)\n      0x08c379a000000000000000000000000000000000000000000000000000000000\n      dup2\n      mstore\n      0x04\n      add\n      tag_229\n      swap1\n      tag_230\n      jump\t// in\n    tag_229:\n      mload(0x40)\n      dup1\n      swap2\n      sub\n      swap1\n      revert\n    tag_228:\n        /* \"@openzeppelin/contracts/token/ERC20/ERC20.sol\":10420:10426  amount */\n      dup1\n        /* \"@openzeppelin/contracts/token/ERC20/ERC20.sol\":10390:10401  _allowances */\n      0x01\n        /* \"@openzeppelin/contracts/token/ERC20/ERC20.sol\":10390:10408  _allowances[owner] */\n      0x00\n        /* \"@openzeppelin/contracts/token/ERC20/ERC20.sol\":10402:10407  owner */\n      dup6\n        /* \"@openzeppelin/contracts/token/ERC20/ERC20.sol\":10390:10408  _allowances[owner] */\n      0xffffffffffffffffffffffffffffffffffffffff\n      and\n      0xffffffffffffffffffffffffffffffffffffffff\n      and\n      dup2\n      mstore\n      0x20\n      add\n      swap1\n      dup2\n      mstore\n      0x20\n      add\n      0x00\n      keccak256\n        /* \"@openzeppelin/contracts/token/ERC20/ERC20.sol\":10390:10417  _allowances[owner][spender] */\n      0x00\n        /* \"@openzeppelin/contracts/token/ERC20/ERC20.sol\":10409:10416  spender */\n      dup5\n        /* \"@openzeppelin/contracts/token/ERC20/ERC20.sol\":10390:10417  _allowances[owner][spender] */\n      0xffffffffffffffffffffffffffffffffffffffff\n      and\n      0xffffffffffffffffffffffffffffffffffffffff\n      and\n      dup2\n      mstore\n      0x20\n      add\n      swap1\n      dup2\n      mstore\n      0x20\n      add\n      0x00\n      keccak256\n        /* \"@openzeppelin/contracts/token/ERC20/ERC20.sol\":10390:10426  _allowances[owner][spender] = amount */\n      dup2\n      swap1\n      sstore\n      pop\n        /* \"@openzeppelin/contracts/token/ERC20/ERC20.sol\":10457:10464  spender */\n      dup2\n        /* \"@openzeppelin/contracts/token/ERC20/ERC20.sol\":10441:10473  Approval(owner, spender, amount) */\n      0xffffffffffffffffffffffffffffffffffffffff\n      and\n        /* \"@openzeppelin/contracts/token/ERC20/ERC20.sol\":10450:10455  owner */\n      dup4\n        /* \"@openzeppelin/contracts/token/ERC20/ERC20.sol\":10441:10473  Approval(owner, spender, amount) */\n      0xffffffffffffffffffffffffffffffffffffffff\n      and\n      0x8c5be1e5ebec7d5bd14f71427d1e84f3dd0314c0f7b2291e5b200ac8c7c3b925\n        /* \"@openzeppelin/contracts/token/ERC20/ERC20.sol\":10466:10472  amount */\n      dup4\n        /* \"@openzeppelin/contracts/token/ERC20/ERC20.sol\":10441:10473  Approval(owner, spender, amount) */\n      mload(0x40)\n      tag_231\n      swap2\n      swap1\n      tag_45\n      jump\t// in\n    tag_231:\n      mload(0x40)\n      dup1\n      swap2\n      sub\n      swap1\n      log3\n        /* \"@openzeppelin/contracts/token/ERC20/ERC20.sol\":10110:10480  function _approve(... */\n      pop\n      pop\n      pop\n      jump\t// out\n        /* \"@openzeppelin/contracts/token/ERC20/ERC20.sol\":10761:11202  function _spendAllowance(... */\n    tag_138:\n        /* \"@openzeppelin/contracts/token/ERC20/ERC20.sol\":10891:10915  uint256 currentAllowance */\n      0x00\n        /* \"@openzeppelin/contracts/token/ERC20/ERC20.sol\":10918:10943  allowance(owner, spender) */\n      tag_233\n        /* \"@openzeppelin/contracts/token/ERC20/ERC20.sol\":10928:10933  owner */\n      dup5\n        /* \"@openzeppelin/contracts/token/ERC20/ERC20.sol\":10935:10942  spender */\n      dup5\n        /* \"@openzeppelin/contracts/token/ERC20/ERC20.sol\":10918:10927  allowance */\n      tag_108\n        /* \"@openzeppelin/contracts/token/ERC20/ERC20.sol\":10918:10943  allowance(owner, spender) */\n      jump\t// in\n    tag_233:\n        /* \"@openzeppelin/contracts/token/ERC20/ERC20.sol\":10891:10943  uint256 currentAllowance = allowance(owner, spender) */\n      swap1\n      pop\n        /* \"@openzeppelin/contracts/token/ERC20/ERC20.sol\":10977:10994  type(uint256).max */\n      0xffffffffffffffffffffffffffffffffffffffffffffffffffffffffffffffff\n        /* \"@openzeppelin/contracts/token/ERC20/ERC20.sol\":10957:10973  currentAllowance */\n      dup2\n        /* \"@openzeppelin/contracts/token/ERC20/ERC20.sol\":10957:10994  currentAllowance != type(uint256).max */\n      eq\n        /* \"@openzeppelin/contracts/token/ERC20/ERC20.sol\":10953:11196  if (currentAllowance != type(uint256).max) {... */\n      tag_234\n      jumpi\n        /* \"@openzeppelin/contracts/token/ERC20/ERC20.sol\":11038:11044  amount */\n      dup2\n        /* \"@openzeppelin/contracts/token/ERC20/ERC20.sol\":11018:11034  currentAllowance */\n      dup2\n        /* \"@openzeppelin/contracts/token/ERC20/ERC20.sol\":11018:11044  currentAllowance >= amount */\n      lt\n      iszero\n        /* \"@openzeppelin/contracts/token/ERC20/ERC20.sol\":11010:11078  require(currentAllowance >= amount, \"ERC20: insufficient allowance\") */\n      tag_235\n      jumpi\n      mload(0x40)\n      0x08c379a000000000000000000000000000000000000000000000000000000000\n      dup2\n      mstore\n      0x04\n      add\n      tag_236\n      swap1\n      tag_237\n      jump\t// in\n    tag_236:\n      mload(0x40)\n      dup1\n      swap2\n      sub\n      swap1\n      revert\n    tag_235:\n        /* \"@openzeppelin/contracts/token/ERC20/ERC20.sol\":11120:11171  _approve(owner, spender, currentAllowance - amount) */\n      tag_238\n        /* \"@openzeppelin/contracts/token/ERC20/ERC20.sol\":11129:11134  owner */\n      dup5\n        /* \"@openzeppelin/contracts/token/ERC20/ERC20.sol\":11136:11143  spender */\n      dup5\n        /* \"@openzeppelin/contracts/token/ERC20/ERC20.sol\":11164:11170  amount */\n      dup5\n        /* \"@openzeppelin/contracts/token/ERC20/ERC20.sol\":11145:11161  currentAllowance */\n      dup5\n        /* \"@openzeppelin/contracts/token/ERC20/ERC20.sol\":11145:11170  currentAllowance - amount */\n      sub\n        /* \"@openzeppelin/contracts/token/ERC20/ERC20.sol\":11120:11128  _approve */\n      tag_128\n        /* \"@openzeppelin/contracts/token/ERC20/ERC20.sol\":11120:11171  _approve(owner, spender, currentAllowance - amount) */\n      jump\t// in\n    tag_238:\n        /* \"@openzeppelin/contracts/token/ERC20/ERC20.sol\":10953:11196  if (currentAllowance != type(uint256).max) {... */\n    tag_234:\n        /* \"@openzeppelin/contracts/token/ERC20/ERC20.sol\":10881:11202  {... */\n      pop\n        /* \"@openzeppelin/contracts/token/ERC20/ERC20.sol\":10761:11202  function _spendAllowance(... */\n      pop\n      pop\n      pop\n      jump\t// out\n        /* \"@openzeppelin/contracts/token/ERC20/ERC20.sol\":7475:8126  function _transfer(... */\n    tag_140:\n        /* \"@openzeppelin/contracts/token/ERC20/ERC20.sol\":7617:7618  0 */\n      0x00\n        /* \"@openzeppelin/contracts/token/ERC20/ERC20.sol\":7601:7619  from != address(0) */\n      0xffffffffffffffffffffffffffffffffffffffff\n      and\n        /* \"@openzeppelin/contracts/token/ERC20/ERC20.sol\":7601:7605  from */\n      dup4\n        /* \"@openzeppelin/contracts/token/ERC20/ERC20.sol\":7601:7619  from != address(0) */\n      0xffffffffffffffffffffffffffffffffffffffff\n      and\n      eq\n      iszero\n        /* \"@openzeppelin/contracts/token/ERC20/ERC20.sol\":7593:7661  require(from != address(0), \"ERC20: transfer from the zero address\") */\n      tag_240\n      jumpi\n      mload(0x40)\n      0x08c379a000000000000000000000000000000000000000000000000000000000\n      dup2\n      mstore\n      0x04\n      add\n      tag_241\n      swap1\n      tag_242\n      jump\t// in\n    tag_241:\n      mload(0x40)\n      dup1\n      swap2\n      sub\n      swap1\n      revert\n    tag_240:\n        /* \"@openzeppelin/contracts/token/ERC20/ERC20.sol\":7693:7694  0 */\n      0x00\n        /* \"@openzeppelin/contracts/token/ERC20/ERC20.sol\":7679:7695  to != address(0) */\n      0xffffffffffffffffffffffffffffffffffffffff\n      and\n        /* \"@openzeppelin/contracts/token/ERC20/ERC20.sol\":7679:7681  to */\n      dup3\n        /* \"@openzeppelin/contracts/token/ERC20/ERC20.sol\":7679:7695  to != address(0) */\n      0xffffffffffffffffffffffffffffffffffffffff\n      and\n      eq\n      iszero\n        /* \"@openzeppelin/contracts/token/ERC20/ERC20.sol\":7671:7735  require(to != address(0), \"ERC20: transfer to the zero address\") */\n      tag_243\n      jumpi\n      mload(0x40)\n      0x08c379a000000000000000000000000000000000000000000000000000000000\n      dup2\n      mstore\n      0x04\n      add\n      tag_244\n      swap1\n      tag_245\n      jump\t// in\n    tag_244:\n      mload(0x40)\n      dup1\n      swap2\n      sub\n      swap1\n      revert\n    tag_243:\n        /* \"@openzeppelin/contracts/token/ERC20/ERC20.sol\":7746:7784  _beforeTokenTransfer(from, to, amount) */\n      tag_246\n        /* \"@openzeppelin/contracts/token/ERC20/ERC20.sol\":7767:7771  from */\n      dup4\n        /* \"@openzeppelin/contracts/token/ERC20/ERC20.sol\":7773:7775  to */\n      dup4\n        /* \"@openzeppelin/contracts/token/ERC20/ERC20.sol\":7777:7783  amount */\n      dup4\n        /* \"@openzeppelin/contracts/token/ERC20/ERC20.sol\":7746:7766  _beforeTokenTransfer */\n      tag_247\n        /* \"@openzeppelin/contracts/token/ERC20/ERC20.sol\":7746:7784  _beforeTokenTransfer(from, to, amount) */\n      jump\t// in\n    tag_246:\n        /* \"@openzeppelin/contracts/token/ERC20/ERC20.sol\":7795:7814  uint256 fromBalance */\n      0x00\n        /* \"@openzeppelin/contracts/token/ERC20/ERC20.sol\":7817:7826  _balances */\n      dup1\n        /* \"@openzeppelin/contracts/token/ERC20/ERC20.sol\":7817:7832  _balances[from] */\n      0x00\n        /* \"@openzeppelin/contracts/token/ERC20/ERC20.sol\":7827:7831  from */\n      dup6\n        /* \"@openzeppelin/contracts/token/ERC20/ERC20.sol\":7817:7832  _balances[from] */\n      0xffffffffffffffffffffffffffffffffffffffff\n      and\n      0xffffffffffffffffffffffffffffffffffffffff\n      and\n      dup2\n      mstore\n      0x20\n      add\n      swap1\n      dup2\n      mstore\n      0x20\n      add\n      0x00\n      keccak256\n      sload\n        /* \"@openzeppelin/contracts/token/ERC20/ERC20.sol\":7795:7832  uint256 fromBalance = _balances[from] */\n      swap1\n      pop\n        /* \"@openzeppelin/contracts/token/ERC20/ERC20.sol\":7865:7871  amount */\n      dup2\n        /* \"@openzeppelin/contracts/token/ERC20/ERC20.sol\":7850:7861  fromBalance */\n      dup2\n        /* \"@openzeppelin/contracts/token/ERC20/ERC20.sol\":7850:7871  fromBalance >= amount */\n      lt\n      iszero\n        /* \"@openzeppelin/contracts/token/ERC20/ERC20.sol\":7842:7914  require(fromBalance >= amount, \"ERC20: transfer amount exceeds balance\") */\n      tag_248\n      jumpi\n      mload(0x40)\n      0x08c379a000000000000000000000000000000000000000000000000000000000\n      dup2\n      mstore\n      0x04\n      add\n      tag_249\n      swap1\n      tag_250\n      jump\t// in\n    tag_249:\n      mload(0x40)\n      dup1\n      swap2\n      sub\n      swap1\n      revert\n    tag_248:\n        /* \"@openzeppelin/contracts/token/ERC20/ERC20.sol\":7980:7986  amount */\n      dup2\n        /* \"@openzeppelin/contracts/token/ERC20/ERC20.sol\":7966:7977  fromBalance */\n      dup2\n        /* \"@openzeppelin/contracts/token/ERC20/ERC20.sol\":7966:7986  fromBalance - amount */\n      sub\n        /* \"@openzeppelin/contracts/token/ERC20/ERC20.sol\":7948:7957  _balances */\n      0x00\n        /* \"@openzeppelin/contracts/token/ERC20/ERC20.sol\":7948:7963  _balances[from] */\n      dup1\n        /* \"@openzeppelin/contracts/token/ERC20/ERC20.sol\":7958:7962  from */\n      dup7\n        /* \"@openzeppelin/contracts/token/ERC20/ERC20.sol\":7948:7963  _balances[from] */\n      0xffffffffffffffffffffffffffffffffffffffff\n      and\n      0xffffffffffffffffffffffffffffffffffffffff\n      and\n      dup2\n      mstore\n      0x20\n      add\n      swap1\n      dup2\n      mstore\n      0x20\n      add\n      0x00\n      keccak256\n        /* \"@openzeppelin/contracts/token/ERC20/ERC20.sol\":7948:7986  _balances[from] = fromBalance - amount */\n      dup2\n      swap1\n      sstore\n      pop\n        /* \"@openzeppelin/contracts/token/ERC20/ERC20.sol\":8023:8029  amount */\n      dup2\n        /* \"@openzeppelin/contracts/token/ERC20/ERC20.sol\":8006:8015  _balances */\n      0x00\n        /* \"@openzeppelin/contracts/token/ERC20/ERC20.sol\":8006:8019  _balances[to] */\n      dup1\n        /* \"@openzeppelin/contracts/token/ERC20/ERC20.sol\":8016:8018  to */\n      dup6\n        /* \"@openzeppelin/contracts/token/ERC20/ERC20.sol\":8006:8019  _balances[to] */\n      0xffffffffffffffffffffffffffffffffffffffff\n      and\n      0xffffffffffffffffffffffffffffffffffffffff\n      and\n      dup2\n      mstore\n      0x20\n      add\n      swap1\n      dup2\n      mstore\n      0x20\n      add\n      0x00\n      keccak256\n      0x00\n        /* \"@openzeppelin/contracts/token/ERC20/ERC20.sol\":8006:8029  _balances[to] += amount */\n      dup3\n      dup3\n      sload\n      tag_251\n      swap2\n      swap1\n      tag_147\n      jump\t// in\n    tag_251:\n      swap3\n      pop\n      pop\n      dup2\n      swap1\n      sstore\n      pop\n        /* \"@openzeppelin/contracts/token/ERC20/ERC20.sol\":8060:8062  to */\n      dup3\n        /* \"@openzeppelin/contracts/token/ERC20/ERC20.sol\":8045:8071  Transfer(from, to, amount) */\n      0xffffffffffffffffffffffffffffffffffffffff\n      and\n        /* \"@openzeppelin/contracts/token/ERC20/ERC20.sol\":8054:8058  from */\n      dup5\n        /* \"@openzeppelin/contracts/token/ERC20/ERC20.sol\":8045:8071  Transfer(from, to, amount) */\n      0xffffffffffffffffffffffffffffffffffffffff\n      and\n      0xddf252ad1be2c89b69c2b068fc378daa952ba7f163c4a11628f55a4df523b3ef\n        /* \"@openzeppelin/contracts/token/ERC20/ERC20.sol\":8064:8070  amount */\n      dup5\n        /* \"@openzeppelin/contracts/token/ERC20/ERC20.sol\":8045:8071  Transfer(from, to, amount) */\n      mload(0x40)\n      tag_252\n      swap2\n      swap1\n      tag_45\n      jump\t// in\n    tag_252:\n      mload(0x40)\n      dup1\n      swap2\n      sub\n      swap1\n      log3\n        /* \"@openzeppelin/contracts/token/ERC20/ERC20.sol\":8082:8119  _afterTokenTransfer(from, to, amount) */\n      tag_253\n        /* \"@openzeppelin/contracts/token/ERC20/ERC20.sol\":8102:8106  from */\n      dup5\n        /* \"@openzeppelin/contracts/token/ERC20/ERC20.sol\":8108:8110  to */\n      dup5\n        /* \"@openzeppelin/contracts/token/ERC20/ERC20.sol\":8112:8118  amount */\n      dup5\n        /* \"@openzeppelin/contracts/token/ERC20/ERC20.sol\":8082:8101  _afterTokenTransfer */\n      tag_254\n        /* \"@openzeppelin/contracts/token/ERC20/ERC20.sol\":8082:8119  _afterTokenTransfer(from, to, amount) */\n      jump\t// in\n    tag_253:\n        /* \"@openzeppelin/contracts/token/ERC20/ERC20.sol\":7583:8126  {... */\n      pop\n        /* \"@openzeppelin/contracts/token/ERC20/ERC20.sol\":7475:8126  function _transfer(... */\n      pop\n      pop\n      pop\n      jump\t// out\n        /* \"@openzeppelin/contracts/token/ERC20/ERC20.sol\":8402:8791  function _mint(address account, uint256 amount) internal virtual {... */\n    tag_177:\n        /* \"@openzeppelin/contracts/token/ERC20/ERC20.sol\":8504:8505  0 */\n      0x00\n        /* \"@openzeppelin/contracts/token/ERC20/ERC20.sol\":8485:8506  account != address(0) */\n      0xffffffffffffffffffffffffffffffffffffffff\n      and\n        /* \"@openzeppelin/contracts/token/ERC20/ERC20.sol\":8485:8492  account */\n      dup3\n        /* \"@openzeppelin/contracts/token/ERC20/ERC20.sol\":8485:8506  account != address(0) */\n      0xffffffffffffffffffffffffffffffffffffffff\n      and\n      eq\n      iszero\n        /* \"@openzeppelin/contracts/token/ERC20/ERC20.sol\":8477:8542  require(account != address(0), \"ERC20: mint to the zero address\") */\n      tag_256\n      jumpi\n      mload(0x40)\n      0x08c379a000000000000000000000000000000000000000000000000000000000\n      dup2\n      mstore\n      0x04\n      add\n      tag_257\n      swap1\n      tag_258\n      jump\t// in\n    tag_257:\n      mload(0x40)\n      dup1\n      swap2\n      sub\n      swap1\n      revert\n    tag_256:\n        /* \"@openzeppelin/contracts/token/ERC20/ERC20.sol\":8553:8602  _beforeTokenTransfer(address(0), account, amount) */\n      tag_259\n        /* \"@openzeppelin/contracts/token/ERC20/ERC20.sol\":8582:8583  0 */\n      0x00\n        /* \"@openzeppelin/contracts/token/ERC20/ERC20.sol\":8586:8593  account */\n      dup4\n        /* \"@openzeppelin/contracts/token/ERC20/ERC20.sol\":8595:8601  amount */\n      dup4\n        /* \"@openzeppelin/contracts/token/ERC20/ERC20.sol\":8553:8573  _beforeTokenTransfer */\n      tag_247\n        /* \"@openzeppelin/contracts/token/ERC20/ERC20.sol\":8553:8602  _beforeTokenTransfer(address(0), account, amount) */\n      jump\t// in\n    tag_259:\n        /* \"@openzeppelin/contracts/token/ERC20/ERC20.sol\":8629:8635  amount */\n      dup1\n        /* \"@openzeppelin/contracts/token/ERC20/ERC20.sol\":8613:8625  _totalSupply */\n      0x02\n      0x00\n        /* \"@openzeppelin/contracts/token/ERC20/ERC20.sol\":8613:8635  _totalSupply += amount */\n      dup3\n      dup3\n      sload\n      tag_260\n      swap2\n      swap1\n      tag_147\n      jump\t// in\n    tag_260:\n      swap3\n      pop\n      pop\n      dup2\n      swap1\n      sstore\n      pop\n        /* \"@openzeppelin/contracts/token/ERC20/ERC20.sol\":8667:8673  amount */\n      dup1\n        /* \"@openzeppelin/contracts/token/ERC20/ERC20.sol\":8645:8654  _balances */\n      0x00\n        /* \"@openzeppelin/contracts/token/ERC20/ERC20.sol\":8645:8663  _balances[account] */\n      dup1\n        /* \"@openzeppelin/contracts/token/ERC20/ERC20.sol\":8655:8662  account */\n      dup5\n        /* \"@openzeppelin/contracts/token/ERC20/ERC20.sol\":8645:8663  _balances[account] */\n      0xffffffffffffffffffffffffffffffffffffffff\n      and\n      0xffffffffffffffffffffffffffffffffffffffff\n      and\n      dup2\n      mstore\n      0x20\n      add\n      swap1\n      dup2\n      mstore\n      0x20\n      add\n      0x00\n      keccak256\n      0x00\n        /* \"@openzeppelin/contracts/token/ERC20/ERC20.sol\":8645:8673  _balances[account] += amount */\n      dup3\n      dup3\n      sload\n      tag_261\n      swap2\n      swap1\n      tag_147\n      jump\t// in\n    tag_261:\n      swap3\n      pop\n      pop\n      dup2\n      swap1\n      sstore\n      pop\n        /* \"@openzeppelin/contracts/token/ERC20/ERC20.sol\":8709:8716  account */\n      dup2\n        /* \"@openzeppelin/contracts/token/ERC20/ERC20.sol\":8688:8725  Transfer(address(0), account, amount) */\n      0xffffffffffffffffffffffffffffffffffffffff\n      and\n        /* \"@openzeppelin/contracts/token/ERC20/ERC20.sol\":8705:8706  0 */\n      0x00\n        /* \"@openzeppelin/contracts/token/ERC20/ERC20.sol\":8688:8725  Transfer(address(0), account, amount) */\n      0xffffffffffffffffffffffffffffffffffffffff\n      and\n      0xddf252ad1be2c89b69c2b068fc378daa952ba7f163c4a11628f55a4df523b3ef\n        /* \"@openzeppelin/contracts/token/ERC20/ERC20.sol\":8718:8724  amount */\n      dup4\n        /* \"@openzeppelin/contracts/token/ERC20/ERC20.sol\":8688:8725  Transfer(address(0), account, amount) */\n      mload(0x40)\n      tag_262\n      swap2\n      swap1\n      tag_45\n      jump\t// in\n    tag_262:\n      mload(0x40)\n      dup1\n      swap2\n      sub\n      swap1\n      log3\n        /* \"@openzeppelin/contracts/token/ERC20/ERC20.sol\":8736:8784  _afterTokenTransfer(address(0), account, amount) */\n      tag_263\n        /* \"@openzeppelin/contracts/token/ERC20/ERC20.sol\":8764:8765  0 */\n      0x00\n        /* \"@openzeppelin/contracts/token/ERC20/ERC20.sol\":8768:8775  account */\n      dup4\n        /* \"@openzeppelin/contracts/token/ERC20/ERC20.sol\":8777:8783  amount */\n      dup4\n        /* \"@openzeppelin/contracts/token/ERC20/ERC20.sol\":8736:8755  _afterTokenTransfer */\n      tag_254\n        /* \"@openzeppelin/contracts/token/ERC20/ERC20.sol\":8736:8784  _afterTokenTransfer(address(0), account, amount) */\n      jump\t// in\n    tag_263:\n        /* \"@openzeppelin/contracts/token/ERC20/ERC20.sol\":8402:8791  function _mint(address account, uint256 amount) internal virtual {... */\n      pop\n      pop\n      jump\t// out\n        /* \"@openzeppelin/contracts/token/ERC20/ERC20.sol\":9111:9687  function _burn(address account, uint256 amount) internal virtual {... */\n    tag_197:\n        /* \"@openzeppelin/contracts/token/ERC20/ERC20.sol\":9213:9214  0 */\n      0x00\n        /* \"@openzeppelin/contracts/token/ERC20/ERC20.sol\":9194:9215  account != address(0) */\n      0xffffffffffffffffffffffffffffffffffffffff\n      and\n        /* \"@openzeppelin/contracts/token/ERC20/ERC20.sol\":9194:9201  account */\n      dup3\n        /* \"@openzeppelin/contracts/token/ERC20/ERC20.sol\":9194:9215  account != address(0) */\n      0xffffffffffffffffffffffffffffffffffffffff\n      and\n      eq\n      iszero\n        /* \"@openzeppelin/contracts/token/ERC20/ERC20.sol\":9186:9253  require(account != address(0), \"ERC20: burn from the zero address\") */\n      tag_265\n      jumpi\n      mload(0x40)\n      0x08c379a000000000000000000000000000000000000000000000000000000000\n      dup2\n      mstore\n      0x04\n      add\n      tag_266\n      swap1\n      tag_267\n      jump\t// in\n    tag_266:\n      mload(0x40)\n      dup1\n      swap2\n      sub\n      swap1\n      revert\n    tag_265:\n        /* \"@openzeppelin/contracts/token/ERC20/ERC20.sol\":9264:9313  _beforeTokenTransfer(account, address(0), amount) */\n      tag_268\n        /* \"@openzeppelin/contracts/token/ERC20/ERC20.sol\":9285:9292  account */\n      dup3\n        /* \"@openzeppelin/contracts/token/ERC20/ERC20.sol\":9302:9303  0 */\n      0x00\n        /* \"@openzeppelin/contracts/token/ERC20/ERC20.sol\":9306:9312  amount */\n      dup4\n        /* \"@openzeppelin/contracts/token/ERC20/ERC20.sol\":9264:9284  _beforeTokenTransfer */\n      tag_247\n        /* \"@openzeppelin/contracts/token/ERC20/ERC20.sol\":9264:9313  _beforeTokenTransfer(account, address(0), amount) */\n      jump\t// in\n    tag_268:\n        /* \"@openzeppelin/contracts/token/ERC20/ERC20.sol\":9324:9346  uint256 accountBalance */\n      0x00\n        /* \"@openzeppelin/contracts/token/ERC20/ERC20.sol\":9349:9358  _balances */\n      dup1\n        /* \"@openzeppelin/contracts/token/ERC20/ERC20.sol\":9349:9367  _balances[account] */\n      0x00\n        /* \"@openzeppelin/contracts/token/ERC20/ERC20.sol\":9359:9366  account */\n      dup5\n        /* \"@openzeppelin/contracts/token/ERC20/ERC20.sol\":9349:9367  _balances[account] */\n      0xffffffffffffffffffffffffffffffffffffffff\n      and\n      0xffffffffffffffffffffffffffffffffffffffff\n      and\n      dup2\n      mstore\n      0x20\n      add\n      swap1\n      dup2\n      mstore\n      0x20\n      add\n      0x00\n      keccak256\n      sload\n        /* \"@openzeppelin/contracts/token/ERC20/ERC20.sol\":9324:9367  uint256 accountBalance = _balances[account] */\n      swap1\n      pop\n        /* \"@openzeppelin/contracts/token/ERC20/ERC20.sol\":9403:9409  amount */\n      dup2\n        /* \"@openzeppelin/contracts/token/ERC20/ERC20.sol\":9385:9399  accountBalance */\n      dup2\n        /* \"@openzeppelin/contracts/token/ERC20/ERC20.sol\":9385:9409  accountBalance >= amount */\n      lt\n      iszero\n        /* \"@openzeppelin/contracts/token/ERC20/ERC20.sol\":9377:9448  require(accountBalance >= amount, \"ERC20: burn amount exceeds balance\") */\n      tag_269\n      jumpi\n      mload(0x40)\n      0x08c379a000000000000000000000000000000000000000000000000000000000\n      dup2\n      mstore\n      0x04\n      add\n      tag_270\n      swap1\n      tag_271\n      jump\t// in\n    tag_270:\n      mload(0x40)\n      dup1\n      swap2\n      sub\n      swap1\n      revert\n    tag_269:\n        /* \"@openzeppelin/contracts/token/ERC20/ERC20.sol\":9520:9526  amount */\n      dup2\n        /* \"@openzeppelin/contracts/token/ERC20/ERC20.sol\":9503:9517  accountBalance */\n      dup2\n        /* \"@openzeppelin/contracts/token/ERC20/ERC20.sol\":9503:9526  accountBalance - amount */\n      sub\n        /* \"@openzeppelin/contracts/token/ERC20/ERC20.sol\":9482:9491  _balances */\n      0x00\n        /* \"@openzeppelin/contracts/token/ERC20/ERC20.sol\":9482:9500  _balances[account] */\n      dup1\n        /* \"@openzeppelin/contracts/token/ERC20/ERC20.sol\":9492:9499  account */\n      dup6\n        /* \"@openzeppelin/contracts/token/ERC20/ERC20.sol\":9482:9500  _balances[account] */\n      0xffffffffffffffffffffffffffffffffffffffff\n      and\n      0xffffffffffffffffffffffffffffffffffffffff\n      and\n      dup2\n      mstore\n      0x20\n      add\n      swap1\n      dup2\n      mstore\n      0x20\n      add\n      0x00\n      keccak256\n        /* \"@openzeppelin/contracts/token/ERC20/ERC20.sol\":9482:9526  _balances[account] = accountBalance - amount */\n      dup2\n      swap1\n      sstore\n      pop\n        /* \"@openzeppelin/contracts/token/ERC20/ERC20.sol\":9562:9568  amount */\n      dup2\n        /* \"@openzeppelin/contracts/token/ERC20/ERC20.sol\":9546:9558  _totalSupply */\n      0x02\n      0x00\n        /* \"@openzeppelin/contracts/token/ERC20/ERC20.sol\":9546:9568  _totalSupply -= amount */\n      dup3\n      dup3\n      sload\n      tag_272\n      swap2\n      swap1\n      tag_160\n      jump\t// in\n    tag_272:\n      swap3\n      pop\n      pop\n      dup2\n      swap1\n      sstore\n      pop\n        /* \"@openzeppelin/contracts/token/ERC20/ERC20.sol\":9610:9611  0 */\n      0x00\n        /* \"@openzeppelin/contracts/token/ERC20/ERC20.sol\":9584:9621  Transfer(account, address(0), amount) */\n      0xffffffffffffffffffffffffffffffffffffffff\n      and\n        /* \"@openzeppelin/contracts/token/ERC20/ERC20.sol\":9593:9600  account */\n      dup4\n        /* \"@openzeppelin/contracts/token/ERC20/ERC20.sol\":9584:9621  Transfer(account, address(0), amount) */\n      0xffffffffffffffffffffffffffffffffffffffff\n      and\n      0xddf252ad1be2c89b69c2b068fc378daa952ba7f163c4a11628f55a4df523b3ef\n        /* \"@openzeppelin/contracts/token/ERC20/ERC20.sol\":9614:9620  amount */\n      dup5\n        /* \"@openzeppelin/contracts/token/ERC20/ERC20.sol\":9584:9621  Transfer(account, address(0), amount) */\n      mload(0x40)\n      tag_273\n      swap2\n      swap1\n      tag_45\n      jump\t// in\n    tag_273:\n      mload(0x40)\n      dup1\n      swap2\n      sub\n      swap1\n      log3\n        /* \"@openzeppelin/contracts/token/ERC20/ERC20.sol\":9632:9680  _afterTokenTransfer(account, address(0), amount) */\n      tag_274\n        /* \"@openzeppelin/contracts/token/ERC20/ERC20.sol\":9652:9659  account */\n      dup4\n        /* \"@openzeppelin/contracts/token/ERC20/ERC20.sol\":9669:9670  0 */\n      0x00\n        /* \"@openzeppelin/contracts/token/ERC20/ERC20.sol\":9673:9679  amount */\n      dup5\n        /* \"@openzeppelin/contracts/token/ERC20/ERC20.sol\":9632:9651  _afterTokenTransfer */\n      tag_254\n        /* \"@openzeppelin/contracts/token/ERC20/ERC20.sol\":9632:9680  _afterTokenTransfer(account, address(0), amount) */\n      jump\t// in\n    tag_274:\n        /* \"@openzeppelin/contracts/token/ERC20/ERC20.sol\":9176:9687  {... */\n      pop\n        /* \"@openzeppelin/contracts/token/ERC20/ERC20.sol\":9111:9687  function _burn(address account, uint256 amount) internal virtual {... */\n      pop\n      pop\n      jump\t// out\n        /* \"@openzeppelin/contracts/token/ERC20/ERC20.sol\":11786:11907  function _beforeTokenTransfer(... */\n    tag_247:\n      pop\n      pop\n      pop\n      jump\t// out\n        /* \"@openzeppelin/contracts/token/ERC20/ERC20.sol\":12495:12615  function _afterTokenTransfer(... */\n    tag_254:\n      pop\n      pop\n      pop\n      jump\t// out\n        /* \"#utility.yul\":7:146   */\n    tag_278:\n        /* \"#utility.yul\":53:58   */\n      0x00\n        /* \"#utility.yul\":91:97   */\n      dup2\n        /* \"#utility.yul\":78:98   */\n      calldataload\n        /* \"#utility.yul\":69:98   */\n      swap1\n      pop\n        /* \"#utility.yul\":107:140   */\n      tag_280\n        /* \"#utility.yul\":134:139   */\n      dup2\n        /* \"#utility.yul\":107:140   */\n      tag_281\n      jump\t// in\n    tag_280:\n        /* \"#utility.yul\":7:146   */\n      swap3\n      swap2\n      pop\n      pop\n      jump\t// out\n        /* \"#utility.yul\":152:289   */\n    tag_282:\n        /* \"#utility.yul\":206:211   */\n      0x00\n        /* \"#utility.yul\":237:243   */\n      dup2\n        /* \"#utility.yul\":231:244   */\n      mload\n        /* \"#utility.yul\":222:244   */\n      swap1\n      pop\n        /* \"#utility.yul\":253:283   */\n      tag_284\n        /* \"#utility.yul\":277:282   */\n      dup2\n        /* \"#utility.yul\":253:283   */\n      tag_285\n      jump\t// in\n    tag_284:\n        /* \"#utility.yul\":152:289   */\n      swap3\n      swap2\n      pop\n      pop\n      jump\t// out\n        /* \"#utility.yul\":295:434   */\n    tag_286:\n        /* \"#utility.yul\":341:346   */\n      0x00\n        /* \"#utility.yul\":379:385   */\n      dup2\n        /* \"#utility.yul\":366:386   */\n      calldataload\n        /* \"#utility.yul\":357:386   */\n      swap1\n      pop\n        /* \"#utility.yul\":395:428   */\n      tag_288\n        /* \"#utility.yul\":422:427   */\n      dup2\n        /* \"#utility.yul\":395:428   */\n      tag_289\n      jump\t// in\n    tag_288:\n        /* \"#utility.yul\":295:434   */\n      swap3\n      swap2\n      pop\n      pop\n      jump\t// out\n        /* \"#utility.yul\":440:583   */\n    tag_290:\n        /* \"#utility.yul\":497:502   */\n      0x00\n        /* \"#utility.yul\":528:534   */\n      dup2\n        /* \"#utility.yul\":522:535   */\n      mload\n        /* \"#utility.yul\":513:535   */\n      swap1\n      pop\n        /* \"#utility.yul\":544:577   */\n      tag_292\n        /* \"#utility.yul\":571:576   */\n      dup2\n        /* \"#utility.yul\":544:577   */\n      tag_289\n      jump\t// in\n    tag_292:\n        /* \"#utility.yul\":440:583   */\n      swap3\n      swap2\n      pop\n      pop\n      jump\t// out\n        /* \"#utility.yul\":589:918   */\n    tag_73:\n        /* \"#utility.yul\":648:654   */\n      0x00\n        /* \"#utility.yul\":697:699   */\n      0x20\n        /* \"#utility.yul\":685:694   */\n      dup3\n        /* \"#utility.yul\":676:683   */\n      dup5\n        /* \"#utility.yul\":672:695   */\n      sub\n        /* \"#utility.yul\":668:700   */\n      slt\n        /* \"#utility.yul\":665:784   */\n      iszero\n      tag_294\n      jumpi\n        /* \"#utility.yul\":703:782   */\n      tag_295\n      tag_296\n      jump\t// in\n    tag_295:\n        /* \"#utility.yul\":665:784   */\n    tag_294:\n        /* \"#utility.yul\":823:824   */\n      0x00\n        /* \"#utility.yul\":848:901   */\n      tag_297\n        /* \"#utility.yul\":893:900   */\n      dup5\n        /* \"#utility.yul\":884:890   */\n      dup3\n        /* \"#utility.yul\":873:882   */\n      dup6\n        /* \"#utility.yul\":869:891   */\n      add\n        /* \"#utility.yul\":848:901   */\n      tag_278\n      jump\t// in\n    tag_297:\n        /* \"#utility.yul\":838:901   */\n      swap2\n      pop\n        /* \"#utility.yul\":794:911   */\n      pop\n        /* \"#utility.yul\":589:918   */\n      swap3\n      swap2\n      pop\n      pop\n      jump\t// out\n        /* \"#utility.yul\":924:1398   */\n    tag_107:\n        /* \"#utility.yul\":992:998   */\n      0x00\n        /* \"#utility.yul\":1000:1006   */\n      dup1\n        /* \"#utility.yul\":1049:1051   */\n      0x40\n        /* \"#utility.yul\":1037:1046   */\n      dup4\n        /* \"#utility.yul\":1028:1035   */\n      dup6\n        /* \"#utility.yul\":1024:1047   */\n      sub\n        /* \"#utility.yul\":1020:1052   */\n      slt\n        /* \"#utility.yul\":1017:1136   */\n      iszero\n      tag_299\n      jumpi\n        /* \"#utility.yul\":1055:1134   */\n      tag_300\n      tag_296\n      jump\t// in\n    tag_300:\n        /* \"#utility.yul\":1017:1136   */\n    tag_299:\n        /* \"#utility.yul\":1175:1176   */\n      0x00\n        /* \"#utility.yul\":1200:1253   */\n      tag_301\n        /* \"#utility.yul\":1245:1252   */\n      dup6\n        /* \"#utility.yul\":1236:1242   */\n      dup3\n        /* \"#utility.yul\":1225:1234   */\n      dup7\n        /* \"#utility.yul\":1221:1243   */\n      add\n        /* \"#utility.yul\":1200:1253   */\n      tag_278\n      jump\t// in\n    tag_301:\n        /* \"#utility.yul\":1190:1253   */\n      swap3\n      pop\n        /* \"#utility.yul\":1146:1263   */\n      pop\n        /* \"#utility.yul\":1302:1304   */\n      0x20\n        /* \"#utility.yul\":1328:1381   */\n      tag_302\n        /* \"#utility.yul\":1373:1380   */\n      dup6\n        /* \"#utility.yul\":1364:1370   */\n      dup3\n        /* \"#utility.yul\":1353:1362   */\n      dup7\n        /* \"#utility.yul\":1349:1371   */\n      add\n        /* \"#utility.yul\":1328:1381   */\n      tag_278\n      jump\t// in\n    tag_302:\n        /* \"#utility.yul\":1318:1381   */\n      swap2\n      pop\n        /* \"#utility.yul\":1273:1391   */\n      pop\n        /* \"#utility.yul\":924:1398   */\n      swap3\n      pop\n      swap3\n      swap1\n      pop\n      jump\t// out\n        /* \"#utility.yul\":1404:2023   */\n    tag_53:\n        /* \"#utility.yul\":1481:1487   */\n      0x00\n        /* \"#utility.yul\":1489:1495   */\n      dup1\n        /* \"#utility.yul\":1497:1503   */\n      0x00\n        /* \"#utility.yul\":1546:1548   */\n      0x60\n        /* \"#utility.yul\":1534:1543   */\n      dup5\n        /* \"#utility.yul\":1525:1532   */\n      dup7\n        /* \"#utility.yul\":1521:1544   */\n      sub\n        /* \"#utility.yul\":1517:1549   */\n      slt\n        /* \"#utility.yul\":1514:1633   */\n      iszero\n      tag_304\n      jumpi\n        /* \"#utility.yul\":1552:1631   */\n      tag_305\n      tag_296\n      jump\t// in\n    tag_305:\n        /* \"#utility.yul\":1514:1633   */\n    tag_304:\n        /* \"#utility.yul\":1672:1673   */\n      0x00\n        /* \"#utility.yul\":1697:1750   */\n      tag_306\n        /* \"#utility.yul\":1742:1749   */\n      dup7\n        /* \"#utility.yul\":1733:1739   */\n      dup3\n        /* \"#utility.yul\":1722:1731   */\n      dup8\n        /* \"#utility.yul\":1718:1740   */\n      add\n        /* \"#utility.yul\":1697:1750   */\n      tag_278\n      jump\t// in\n    tag_306:\n        /* \"#utility.yul\":1687:1750   */\n      swap4\n      pop\n        /* \"#utility.yul\":1643:1760   */\n      pop\n        /* \"#utility.yul\":1799:1801   */\n      0x20\n        /* \"#utility.yul\":1825:1878   */\n      tag_307\n        /* \"#utility.yul\":1870:1877   */\n      dup7\n        /* \"#utility.yul\":1861:1867   */\n      dup3\n        /* \"#utility.yul\":1850:1859   */\n      dup8\n        /* \"#utility.yul\":1846:1868   */\n      add\n        /* \"#utility.yul\":1825:1878   */\n      tag_278\n      jump\t// in\n    tag_307:\n        /* \"#utility.yul\":1815:1878   */\n      swap3\n      pop\n        /* \"#utility.yul\":1770:1888   */\n      pop\n        /* \"#utility.yul\":1927:1929   */\n      0x40\n        /* \"#utility.yul\":1953:2006   */\n      tag_308\n        /* \"#utility.yul\":1998:2005   */\n      dup7\n        /* \"#utility.yul\":1989:1995   */\n      dup3\n        /* \"#utility.yul\":1978:1987   */\n      dup8\n        /* \"#utility.yul\":1974:1996   */\n      add\n        /* \"#utility.yul\":1953:2006   */\n      tag_286\n      jump\t// in\n    tag_308:\n        /* \"#utility.yul\":1943:2006   */\n      swap2\n      pop\n        /* \"#utility.yul\":1898:2016   */\n      pop\n        /* \"#utility.yul\":1404:2023   */\n      swap3\n      pop\n      swap3\n      pop\n      swap3\n      jump\t// out\n        /* \"#utility.yul\":2029:2503   */\n    tag_35:\n        /* \"#utility.yul\":2097:2103   */\n      0x00\n        /* \"#utility.yul\":2105:2111   */\n      dup1\n        /* \"#utility.yul\":2154:2156   */\n      0x40\n        /* \"#utility.yul\":2142:2151   */\n      dup4\n        /* \"#utility.yul\":2133:2140   */\n      dup6\n        /* \"#utility.yul\":2129:2152   */\n      sub\n        /* \"#utility.yul\":2125:2157   */\n      slt\n        /* \"#utility.yul\":2122:2241   */\n      iszero\n      tag_310\n      jumpi\n        /* \"#utility.yul\":2160:2239   */\n      tag_311\n      tag_296\n      jump\t// in\n    tag_311:\n        /* \"#utility.yul\":2122:2241   */\n    tag_310:\n        /* \"#utility.yul\":2280:2281   */\n      0x00\n        /* \"#utility.yul\":2305:2358   */\n      tag_312\n        /* \"#utility.yul\":2350:2357   */\n      dup6\n        /* \"#utility.yul\":2341:2347   */\n      dup3\n        /* \"#utility.yul\":2330:2339   */\n      dup7\n        /* \"#utility.yul\":2326:2348   */\n      add\n        /* \"#utility.yul\":2305:2358   */\n      tag_278\n      jump\t// in\n    tag_312:\n        /* \"#utility.yul\":2295:2358   */\n      swap3\n      pop\n        /* \"#utility.yul\":2251:2368   */\n      pop\n        /* \"#utility.yul\":2407:2409   */\n      0x20\n        /* \"#utility.yul\":2433:2486   */\n      tag_313\n        /* \"#utility.yul\":2478:2485   */\n      dup6\n        /* \"#utility.yul\":2469:2475   */\n      dup3\n        /* \"#utility.yul\":2458:2467   */\n      dup7\n        /* \"#utility.yul\":2454:2476   */\n      add\n        /* \"#utility.yul\":2433:2486   */\n      tag_286\n      jump\t// in\n    tag_313:\n        /* \"#utility.yul\":2423:2486   */\n      swap2\n      pop\n        /* \"#utility.yul\":2378:2496   */\n      pop\n        /* \"#utility.yul\":2029:2503   */\n      swap3\n      pop\n      swap3\n      swap1\n      pop\n      jump\t// out\n        /* \"#utility.yul\":2509:2854   */\n    tag_157:\n        /* \"#utility.yul\":2576:2582   */\n      0x00\n        /* \"#utility.yul\":2625:2627   */\n      0x20\n        /* \"#utility.yul\":2613:2622   */\n      dup3\n        /* \"#utility.yul\":2604:2611   */\n      dup5\n        /* \"#utility.yul\":2600:2623   */\n      sub\n        /* \"#utility.yul\":2596:2628   */\n      slt\n        /* \"#utility.yul\":2593:2712   */\n      iszero\n      tag_315\n      jumpi\n        /* \"#utility.yul\":2631:2710   */\n      tag_316\n      tag_296\n      jump\t// in\n    tag_316:\n        /* \"#utility.yul\":2593:2712   */\n    tag_315:\n        /* \"#utility.yul\":2751:2752   */\n      0x00\n        /* \"#utility.yul\":2776:2837   */\n      tag_317\n        /* \"#utility.yul\":2829:2836   */\n      dup5\n        /* \"#utility.yul\":2820:2826   */\n      dup3\n        /* \"#utility.yul\":2809:2818   */\n      dup6\n        /* \"#utility.yul\":2805:2827   */\n      add\n        /* \"#utility.yul\":2776:2837   */\n      tag_282\n      jump\t// in\n    tag_317:\n        /* \"#utility.yul\":2766:2837   */\n      swap2\n      pop\n        /* \"#utility.yul\":2722:2847   */\n      pop\n        /* \"#utility.yul\":2509:2854   */\n      swap3\n      swap2\n      pop\n      pop\n      jump\t// out\n        /* \"#utility.yul\":2860:3189   */\n    tag_42:\n        /* \"#utility.yul\":2919:2925   */\n      0x00\n        /* \"#utility.yul\":2968:2970   */\n      0x20\n        /* \"#utility.yul\":2956:2965   */\n      dup3\n        /* \"#utility.yul\":2947:2954   */\n      dup5\n        /* \"#utility.yul\":2943:2966   */\n      sub\n        /* \"#utility.yul\":2939:2971   */\n      slt\n        /* \"#utility.yul\":2936:3055   */\n      iszero\n      tag_319\n      jumpi\n        /* \"#utility.yul\":2974:3053   */\n      tag_320\n      tag_296\n      jump\t// in\n    tag_320:\n        /* \"#utility.yul\":2936:3055   */\n    tag_319:\n        /* \"#utility.yul\":3094:3095   */\n      0x00\n        /* \"#utility.yul\":3119:3172   */\n      tag_321\n        /* \"#utility.yul\":3164:3171   */\n      dup5\n        /* \"#utility.yul\":3155:3161   */\n      dup3\n        /* \"#utility.yul\":3144:3153   */\n      dup6\n        /* \"#utility.yul\":3140:3162   */\n      add\n        /* \"#utility.yul\":3119:3172   */\n      tag_286\n      jump\t// in\n    tag_321:\n        /* \"#utility.yul\":3109:3172   */\n      swap2\n      pop\n        /* \"#utility.yul\":3065:3182   */\n      pop\n        /* \"#utility.yul\":2860:3189   */\n      swap3\n      swap2\n      pop\n      pop\n      jump\t// out\n        /* \"#utility.yul\":3195:3546   */\n    tag_123:\n        /* \"#utility.yul\":3265:3271   */\n      0x00\n        /* \"#utility.yul\":3314:3316   */\n      0x20\n        /* \"#utility.yul\":3302:3311   */\n      dup3\n        /* \"#utility.yul\":3293:3300   */\n      dup5\n        /* \"#utility.yul\":3289:3312   */\n      sub\n        /* \"#utility.yul\":3285:3317   */\n      slt\n        /* \"#utility.yul\":3282:3401   */\n      iszero\n      tag_323\n      jumpi\n        /* \"#utility.yul\":3320:3399   */\n      tag_324\n      tag_296\n      jump\t// in\n    tag_324:\n        /* \"#utility.yul\":3282:3401   */\n    tag_323:\n        /* \"#utility.yul\":3440:3441   */\n      0x00\n        /* \"#utility.yul\":3465:3529   */\n      tag_325\n        /* \"#utility.yul\":3521:3528   */\n      dup5\n        /* \"#utility.yul\":3512:3518   */\n      dup3\n        /* \"#utility.yul\":3501:3510   */\n      dup6\n        /* \"#utility.yul\":3497:3519   */\n      add\n        /* \"#utility.yul\":3465:3529   */\n      tag_290\n      jump\t// in\n    tag_325:\n        /* \"#utility.yul\":3455:3529   */\n      swap2\n      pop\n        /* \"#utility.yul\":3411:3539   */\n      pop\n        /* \"#utility.yul\":3195:3546   */\n      swap3\n      swap2\n      pop\n      pop\n      jump\t// out\n        /* \"#utility.yul\":3552:3670   */\n    tag_326:\n        /* \"#utility.yul\":3639:3663   */\n      tag_328\n        /* \"#utility.yul\":3657:3662   */\n      dup2\n        /* \"#utility.yul\":3639:3663   */\n      tag_329\n      jump\t// in\n    tag_328:\n        /* \"#utility.yul\":3634:3637   */\n      dup3\n        /* \"#utility.yul\":3627:3664   */\n      mstore\n        /* \"#utility.yul\":3552:3670   */\n      pop\n      pop\n      jump\t// out\n        /* \"#utility.yul\":3676:3785   */\n    tag_330:\n        /* \"#utility.yul\":3757:3778   */\n      tag_332\n        /* \"#utility.yul\":3772:3777   */\n      dup2\n        /* \"#utility.yul\":3757:3778   */\n      tag_333\n      jump\t// in\n    tag_332:\n        /* \"#utility.yul\":3752:3755   */\n      dup3\n        /* \"#utility.yul\":3745:3779   */\n      mstore\n        /* \"#utility.yul\":3676:3785   */\n      pop\n      pop\n      jump\t// out\n        /* \"#utility.yul\":3791:4155   */\n    tag_334:\n        /* \"#utility.yul\":3879:3882   */\n      0x00\n        /* \"#utility.yul\":3907:3946   */\n      tag_336\n        /* \"#utility.yul\":3940:3945   */\n      dup3\n        /* \"#utility.yul\":3907:3946   */\n      tag_337\n      jump\t// in\n    tag_336:\n        /* \"#utility.yul\":3962:4033   */\n      tag_338\n        /* \"#utility.yul\":4026:4032   */\n      dup2\n        /* \"#utility.yul\":4021:4024   */\n      dup6\n        /* \"#utility.yul\":3962:4033   */\n      tag_339\n      jump\t// in\n    tag_338:\n        /* \"#utility.yul\":3955:4033   */\n      swap4\n      pop\n        /* \"#utility.yul\":4042:4094   */\n      tag_340\n        /* \"#utility.yul\":4087:4093   */\n      dup2\n        /* \"#utility.yul\":4082:4085   */\n      dup6\n        /* \"#utility.yul\":4075:4079   */\n      0x20\n        /* \"#utility.yul\":4068:4073   */\n      dup7\n        /* \"#utility.yul\":4064:4080   */\n      add\n        /* \"#utility.yul\":4042:4094   */\n      tag_341\n      jump\t// in\n    tag_340:\n        /* \"#utility.yul\":4119:4148   */\n      tag_342\n        /* \"#utility.yul\":4141:4147   */\n      dup2\n        /* \"#utility.yul\":4119:4148   */\n      tag_343\n      jump\t// in\n    tag_342:\n        /* \"#utility.yul\":4114:4117   */\n      dup5\n        /* \"#utility.yul\":4110:4149   */\n      add\n        /* \"#utility.yul\":4103:4149   */\n      swap2\n      pop\n        /* \"#utility.yul\":3883:4155   */\n      pop\n        /* \"#utility.yul\":3791:4155   */\n      swap3\n      swap2\n      pop\n      pop\n      jump\t// out\n        /* \"#utility.yul\":4161:4527   */\n    tag_344:\n        /* \"#utility.yul\":4303:4306   */\n      0x00\n        /* \"#utility.yul\":4324:4391   */\n      tag_346\n        /* \"#utility.yul\":4388:4390   */\n      0x23\n        /* \"#utility.yul\":4383:4386   */\n      dup4\n        /* \"#utility.yul\":4324:4391   */\n      tag_339\n      jump\t// in\n    tag_346:\n        /* \"#utility.yul\":4317:4391   */\n      swap2\n      pop\n        /* \"#utility.yul\":4400:4493   */\n      tag_347\n        /* \"#utility.yul\":4489:4492   */\n      dup3\n        /* \"#utility.yul\":4400:4493   */\n      tag_348\n      jump\t// in\n    tag_347:\n        /* \"#utility.yul\":4518:4520   */\n      0x40\n        /* \"#utility.yul\":4513:4516   */\n      dup3\n        /* \"#utility.yul\":4509:4521   */\n      add\n        /* \"#utility.yul\":4502:4521   */\n      swap1\n      pop\n        /* \"#utility.yul\":4161:4527   */\n      swap2\n      swap1\n      pop\n      jump\t// out\n        /* \"#utility.yul\":4533:4899   */\n    tag_349:\n        /* \"#utility.yul\":4675:4678   */\n      0x00\n        /* \"#utility.yul\":4696:4763   */\n      tag_351\n        /* \"#utility.yul\":4760:4762   */\n      0x22\n        /* \"#utility.yul\":4755:4758   */\n      dup4\n        /* \"#utility.yul\":4696:4763   */\n      tag_339\n      jump\t// in\n    tag_351:\n        /* \"#utility.yul\":4689:4763   */\n      swap2\n      pop\n        /* \"#utility.yul\":4772:4865   */\n      tag_352\n        /* \"#utility.yul\":4861:4864   */\n      dup3\n        /* \"#utility.yul\":4772:4865   */\n      tag_353\n      jump\t// in\n    tag_352:\n        /* \"#utility.yul\":4890:4892   */\n      0x40\n        /* \"#utility.yul\":4885:4888   */\n      dup3\n        /* \"#utility.yul\":4881:4893   */\n      add\n        /* \"#utility.yul\":4874:4893   */\n      swap1\n      pop\n        /* \"#utility.yul\":4533:4899   */\n      swap2\n      swap1\n      pop\n      jump\t// out\n        /* \"#utility.yul\":4905:5271   */\n    tag_354:\n        /* \"#utility.yul\":5047:5050   */\n      0x00\n        /* \"#utility.yul\":5068:5135   */\n      tag_356\n        /* \"#utility.yul\":5132:5134   */\n      0x22\n        /* \"#utility.yul\":5127:5130   */\n      dup4\n        /* \"#utility.yul\":5068:5135   */\n      tag_339\n      jump\t// in\n    tag_356:\n        /* \"#utility.yul\":5061:5135   */\n      swap2\n      pop\n        /* \"#utility.yul\":5144:5237   */\n      tag_357\n        /* \"#utility.yul\":5233:5236   */\n      dup3\n        /* \"#utility.yul\":5144:5237   */\n      tag_358\n      jump\t// in\n    tag_357:\n        /* \"#utility.yul\":5262:5264   */\n      0x40\n        /* \"#utility.yul\":5257:5260   */\n      dup3\n        /* \"#utility.yul\":5253:5265   */\n      add\n        /* \"#utility.yul\":5246:5265   */\n      swap1\n      pop\n        /* \"#utility.yul\":4905:5271   */\n      swap2\n      swap1\n      pop\n      jump\t// out\n        /* \"#utility.yul\":5277:5643   */\n    tag_359:\n        /* \"#utility.yul\":5419:5422   */\n      0x00\n        /* \"#utility.yul\":5440:5507   */\n      tag_361\n        /* \"#utility.yul\":5504:5506   */\n      0x29\n        /* \"#utility.yul\":5499:5502   */\n      dup4\n        /* \"#utility.yul\":5440:5507   */\n      tag_339\n      jump\t// in\n    tag_361:\n        /* \"#utility.yul\":5433:5507   */\n      swap2\n      pop\n        /* \"#utility.yul\":5516:5609   */\n      tag_362\n        /* \"#utility.yul\":5605:5608   */\n      dup3\n        /* \"#utility.yul\":5516:5609   */\n      tag_363\n      jump\t// in\n    tag_362:\n        /* \"#utility.yul\":5634:5636   */\n      0x40\n        /* \"#utility.yul\":5629:5632   */\n      dup3\n        /* \"#utility.yul\":5625:5637   */\n      add\n        /* \"#utility.yul\":5618:5637   */\n      swap1\n      pop\n        /* \"#utility.yul\":5277:5643   */\n      swap2\n      swap1\n      pop\n      jump\t// out\n        /* \"#utility.yul\":5649:6015   */\n    tag_364:\n        /* \"#utility.yul\":5791:5794   */\n      0x00\n        /* \"#utility.yul\":5812:5879   */\n      tag_366\n        /* \"#utility.yul\":5876:5878   */\n      0x1d\n        /* \"#utility.yul\":5871:5874   */\n      dup4\n        /* \"#utility.yul\":5812:5879   */\n      tag_339\n      jump\t// in\n    tag_366:\n        /* \"#utility.yul\":5805:5879   */\n      swap2\n      pop\n        /* \"#utility.yul\":5888:5981   */\n      tag_367\n        /* \"#utility.yul\":5977:5980   */\n      dup3\n        /* \"#utility.yul\":5888:5981   */\n      tag_368\n      jump\t// in\n    tag_367:\n        /* \"#utility.yul\":6006:6008   */\n      0x20\n        /* \"#utility.yul\":6001:6004   */\n      dup3\n        /* \"#utility.yul\":5997:6009   */\n      add\n        /* \"#utility.yul\":5990:6009   */\n      swap1\n      pop\n        /* \"#utility.yul\":5649:6015   */\n      swap2\n      swap1\n      pop\n      jump\t// out\n        /* \"#utility.yul\":6021:6387   */\n    tag_369:\n        /* \"#utility.yul\":6163:6166   */\n      0x00\n        /* \"#utility.yul\":6184:6251   */\n      tag_371\n        /* \"#utility.yul\":6248:6250   */\n      0x26\n        /* \"#utility.yul\":6243:6246   */\n      dup4\n        /* \"#utility.yul\":6184:6251   */\n      tag_339\n      jump\t// in\n    tag_371:\n        /* \"#utility.yul\":6177:6251   */\n      swap2\n      pop\n        /* \"#utility.yul\":6260:6353   */\n      tag_372\n        /* \"#utility.yul\":6349:6352   */\n      dup3\n        /* \"#utility.yul\":6260:6353   */\n      tag_373\n      jump\t// in\n    tag_372:\n        /* \"#utility.yul\":6378:6380   */\n      0x40\n        /* \"#utility.yul\":6373:6376   */\n      dup3\n        /* \"#utility.yul\":6369:6381   */\n      add\n        /* \"#utility.yul\":6362:6381   */\n      swap1\n      pop\n        /* \"#utility.yul\":6021:6387   */\n      swap2\n      swap1\n      pop\n      jump\t// out\n        /* \"#utility.yul\":6393:6759   */\n    tag_374:\n        /* \"#utility.yul\":6535:6538   */\n      0x00\n        /* \"#utility.yul\":6556:6623   */\n      tag_376\n        /* \"#utility.yul\":6620:6622   */\n      0x37\n        /* \"#utility.yul\":6615:6618   */\n      dup4\n        /* \"#utility.yul\":6556:6623   */\n      tag_339\n      jump\t// in\n    tag_376:\n        /* \"#utility.yul\":6549:6623   */\n      swap2\n      pop\n        /* \"#utility.yul\":6632:6725   */\n      tag_377\n        /* \"#utility.yul\":6721:6724   */\n      dup3\n        /* \"#utility.yul\":6632:6725   */\n      tag_378\n      jump\t// in\n    tag_377:\n        /* \"#utility.yul\":6750:6752   */\n      0x40\n        /* \"#utility.yul\":6745:6748   */\n      dup3\n        /* \"#utility.yul\":6741:6753   */\n      add\n        /* \"#utility.yul\":6734:6753   */\n      swap1\n      pop\n        /* \"#utility.yul\":6393:6759   */\n      swap2\n      swap1\n      pop\n      jump\t// out\n        /* \"#utility.yul\":6765:7131   */\n    tag_379:\n        /* \"#utility.yul\":6907:6910   */\n      0x00\n        /* \"#utility.yul\":6928:6995   */\n      tag_381\n        /* \"#utility.yul\":6992:6994   */\n      0x21\n        /* \"#utility.yul\":6987:6990   */\n      dup4\n        /* \"#utility.yul\":6928:6995   */\n      tag_339\n      jump\t// in\n    tag_381:\n        /* \"#utility.yul\":6921:6995   */\n      swap2\n      pop\n        /* \"#utility.yul\":7004:7097   */\n      tag_382\n        /* \"#utility.yul\":7093:7096   */\n      dup3\n        /* \"#utility.yul\":7004:7097   */\n      tag_383\n      jump\t// in\n    tag_382:\n        /* \"#utility.yul\":7122:7124   */\n      0x40\n        /* \"#utility.yul\":7117:7120   */\n      dup3\n        /* \"#utility.yul\":7113:7125   */\n      add\n        /* \"#utility.yul\":7106:7125   */\n      swap1\n      pop\n        /* \"#utility.yul\":6765:7131   */\n      swap2\n      swap1\n      pop\n      jump\t// out\n        /* \"#utility.yul\":7137:7503   */\n    tag_384:\n        /* \"#utility.yul\":7279:7282   */\n      0x00\n        /* \"#utility.yul\":7300:7367   */\n      tag_386\n        /* \"#utility.yul\":7364:7366   */\n      0x19\n        /* \"#utility.yul\":7359:7362   */\n      dup4\n        /* \"#utility.yul\":7300:7367   */\n      tag_339\n      jump\t// in\n    tag_386:\n        /* \"#utility.yul\":7293:7367   */\n      swap2\n      pop\n        /* \"#utility.yul\":7376:7469   */\n      tag_387\n        /* \"#utility.yul\":7465:7468   */\n      dup3\n        /* \"#utility.yul\":7376:7469   */\n      tag_388\n      jump\t// in\n    tag_387:\n        /* \"#utility.yul\":7494:7496   */\n      0x20\n        /* \"#utility.yul\":7489:7492   */\n      dup3\n        /* \"#utility.yul\":7485:7497   */\n      add\n        /* \"#utility.yul\":7478:7497   */\n      swap1\n      pop\n        /* \"#utility.yul\":7137:7503   */\n      swap2\n      swap1\n      pop\n      jump\t// out\n        /* \"#utility.yul\":7509:7875   */\n    tag_389:\n        /* \"#utility.yul\":7651:7654   */\n      0x00\n        /* \"#utility.yul\":7672:7739   */\n      tag_391\n        /* \"#utility.yul\":7736:7738   */\n      0x25\n        /* \"#utility.yul\":7731:7734   */\n      dup4\n        /* \"#utility.yul\":7672:7739   */\n      tag_339\n      jump\t// in\n    tag_391:\n        /* \"#utility.yul\":7665:7739   */\n      swap2\n      pop\n        /* \"#utility.yul\":7748:7841   */\n      tag_392\n        /* \"#utility.yul\":7837:7840   */\n      dup3\n        /* \"#utility.yul\":7748:7841   */\n      tag_393\n      jump\t// in\n    tag_392:\n        /* \"#utility.yul\":7866:7868   */\n      0x40\n        /* \"#utility.yul\":7861:7864   */\n      dup3\n        /* \"#utility.yul\":7857:7869   */\n      add\n        /* \"#utility.yul\":7850:7869   */\n      swap1\n      pop\n        /* \"#utility.yul\":7509:7875   */\n      swap2\n      swap1\n      pop\n      jump\t// out\n        /* \"#utility.yul\":7881:8247   */\n    tag_394:\n        /* \"#utility.yul\":8023:8026   */\n      0x00\n        /* \"#utility.yul\":8044:8111   */\n      tag_396\n        /* \"#utility.yul\":8108:8110   */\n      0x25\n        /* \"#utility.yul\":8103:8106   */\n      dup4\n        /* \"#utility.yul\":8044:8111   */\n      tag_339\n      jump\t// in\n    tag_396:\n        /* \"#utility.yul\":8037:8111   */\n      swap2\n      pop\n        /* \"#utility.yul\":8120:8213   */\n      tag_397\n        /* \"#utility.yul\":8209:8212   */\n      dup3\n        /* \"#utility.yul\":8120:8213   */\n      tag_398\n      jump\t// in\n    tag_397:\n        /* \"#utility.yul\":8238:8240   */\n      0x40\n        /* \"#utility.yul\":8233:8236   */\n      dup3\n        /* \"#utility.yul\":8229:8241   */\n      add\n        /* \"#utility.yul\":8222:8241   */\n      swap1\n      pop\n        /* \"#utility.yul\":7881:8247   */\n      swap2\n      swap1\n      pop\n      jump\t// out\n        /* \"#utility.yul\":8253:8651   */\n    tag_399:\n        /* \"#utility.yul\":8412:8415   */\n      0x00\n        /* \"#utility.yul\":8433:8516   */\n      tag_401\n        /* \"#utility.yul\":8514:8515   */\n      0x00\n        /* \"#utility.yul\":8509:8512   */\n      dup4\n        /* \"#utility.yul\":8433:8516   */\n      tag_402\n      jump\t// in\n    tag_401:\n        /* \"#utility.yul\":8426:8516   */\n      swap2\n      pop\n        /* \"#utility.yul\":8525:8618   */\n      tag_403\n        /* \"#utility.yul\":8614:8617   */\n      dup3\n        /* \"#utility.yul\":8525:8618   */\n      tag_404\n      jump\t// in\n    tag_403:\n        /* \"#utility.yul\":8643:8644   */\n      0x00\n        /* \"#utility.yul\":8638:8641   */\n      dup3\n        /* \"#utility.yul\":8634:8645   */\n      add\n        /* \"#utility.yul\":8627:8645   */\n      swap1\n      pop\n        /* \"#utility.yul\":8253:8651   */\n      swap2\n      swap1\n      pop\n      jump\t// out\n        /* \"#utility.yul\":8657:9023   */\n    tag_405:\n        /* \"#utility.yul\":8799:8802   */\n      0x00\n        /* \"#utility.yul\":8820:8887   */\n      tag_407\n        /* \"#utility.yul\":8884:8886   */\n      0x24\n        /* \"#utility.yul\":8879:8882   */\n      dup4\n        /* \"#utility.yul\":8820:8887   */\n      tag_339\n      jump\t// in\n    tag_407:\n        /* \"#utility.yul\":8813:8887   */\n      swap2\n      pop\n        /* \"#utility.yul\":8896:8989   */\n      tag_408\n        /* \"#utility.yul\":8985:8988   */\n      dup3\n        /* \"#utility.yul\":8896:8989   */\n      tag_409\n      jump\t// in\n    tag_408:\n        /* \"#utility.yul\":9014:9016   */\n      0x40\n        /* \"#utility.yul\":9009:9012   */\n      dup3\n        /* \"#utility.yul\":9005:9017   */\n      add\n        /* \"#utility.yul\":8998:9017   */\n      swap1\n      pop\n        /* \"#utility.yul\":8657:9023   */\n      swap2\n      swap1\n      pop\n      jump\t// out\n        /* \"#utility.yul\":9029:9395   */\n    tag_410:\n        /* \"#utility.yul\":9171:9174   */\n      0x00\n        /* \"#utility.yul\":9192:9259   */\n      tag_412\n        /* \"#utility.yul\":9256:9258   */\n      0x25\n        /* \"#utility.yul\":9251:9254   */\n      dup4\n        /* \"#utility.yul\":9192:9259   */\n      tag_339\n      jump\t// in\n    tag_412:\n        /* \"#utility.yul\":9185:9259   */\n      swap2\n      pop\n        /* \"#utility.yul\":9268:9361   */\n      tag_413\n        /* \"#utility.yul\":9357:9360   */\n      dup3\n        /* \"#utility.yul\":9268:9361   */\n      tag_414\n      jump\t// in\n    tag_413:\n        /* \"#utility.yul\":9386:9388   */\n      0x40\n        /* \"#utility.yul\":9381:9384   */\n      dup3\n        /* \"#utility.yul\":9377:9389   */\n      add\n        /* \"#utility.yul\":9370:9389   */\n      swap1\n      pop\n        /* \"#utility.yul\":9029:9395   */\n      swap2\n      swap1\n      pop\n      jump\t// out\n        /* \"#utility.yul\":9401:9767   */\n    tag_415:\n        /* \"#utility.yul\":9543:9546   */\n      0x00\n        /* \"#utility.yul\":9564:9631   */\n      tag_417\n        /* \"#utility.yul\":9628:9630   */\n      0x1f\n        /* \"#utility.yul\":9623:9626   */\n      dup4\n        /* \"#utility.yul\":9564:9631   */\n      tag_339\n      jump\t// in\n    tag_417:\n        /* \"#utility.yul\":9557:9631   */\n      swap2\n      pop\n        /* \"#utility.yul\":9640:9733   */\n      tag_418\n        /* \"#utility.yul\":9729:9732   */\n      dup3\n        /* \"#utility.yul\":9640:9733   */\n      tag_419\n      jump\t// in\n    tag_418:\n        /* \"#utility.yul\":9758:9760   */\n      0x20\n        /* \"#utility.yul\":9753:9756   */\n      dup3\n        /* \"#utility.yul\":9749:9761   */\n      add\n        /* \"#utility.yul\":9742:9761   */\n      swap1\n      pop\n        /* \"#utility.yul\":9401:9767   */\n      swap2\n      swap1\n      pop\n      jump\t// out\n        /* \"#utility.yul\":9773:9891   */\n    tag_420:\n        /* \"#utility.yul\":9860:9884   */\n      tag_422\n        /* \"#utility.yul\":9878:9883   */\n      dup2\n        /* \"#utility.yul\":9860:9884   */\n      tag_423\n      jump\t// in\n    tag_422:\n        /* \"#utility.yul\":9855:9858   */\n      dup3\n        /* \"#utility.yul\":9848:9885   */\n      mstore\n        /* \"#utility.yul\":9773:9891   */\n      pop\n      pop\n      jump\t// out\n        /* \"#utility.yul\":9897:10009   */\n    tag_424:\n        /* \"#utility.yul\":9980:10002   */\n      tag_426\n        /* \"#utility.yul\":9996:10001   */\n      dup2\n        /* \"#utility.yul\":9980:10002   */\n      tag_427\n      jump\t// in\n    tag_426:\n        /* \"#utility.yul\":9975:9978   */\n      dup3\n        /* \"#utility.yul\":9968:10003   */\n      mstore\n        /* \"#utility.yul\":9897:10009   */\n      pop\n      pop\n      jump\t// out\n        /* \"#utility.yul\":10015:10394   */\n    tag_199:\n        /* \"#utility.yul\":10199:10202   */\n      0x00\n        /* \"#utility.yul\":10221:10368   */\n      tag_429\n        /* \"#utility.yul\":10364:10367   */\n      dup3\n        /* \"#utility.yul\":10221:10368   */\n      tag_399\n      jump\t// in\n    tag_429:\n        /* \"#utility.yul\":10214:10368   */\n      swap2\n      pop\n        /* \"#utility.yul\":10385:10388   */\n      dup2\n        /* \"#utility.yul\":10378:10388   */\n      swap1\n      pop\n        /* \"#utility.yul\":10015:10394   */\n      swap2\n      swap1\n      pop\n      jump\t// out\n        /* \"#utility.yul\":10400:10622   */\n    tag_84:\n        /* \"#utility.yul\":10493:10497   */\n      0x00\n        /* \"#utility.yul\":10531:10533   */\n      0x20\n        /* \"#utility.yul\":10520:10529   */\n      dup3\n        /* \"#utility.yul\":10516:10534   */\n      add\n        /* \"#utility.yul\":10508:10534   */\n      swap1\n      pop\n        /* \"#utility.yul\":10544:10615   */\n      tag_431\n        /* \"#utility.yul\":10612:10613   */\n      0x00\n        /* \"#utility.yul\":10601:10610   */\n      dup4\n        /* \"#utility.yul\":10597:10614   */\n      add\n        /* \"#utility.yul\":10588:10594   */\n      dup5\n        /* \"#utility.yul\":10544:10615   */\n      tag_326\n      jump\t// in\n    tag_431:\n        /* \"#utility.yul\":10400:10622   */\n      swap3\n      swap2\n      pop\n      pop\n      jump\t// out\n        /* \"#utility.yul\":10628:11070   */\n    tag_152:\n        /* \"#utility.yul\":10777:10781   */\n      0x00\n        /* \"#utility.yul\":10815:10817   */\n      0x60\n        /* \"#utility.yul\":10804:10813   */\n      dup3\n        /* \"#utility.yul\":10800:10818   */\n      add\n        /* \"#utility.yul\":10792:10818   */\n      swap1\n      pop\n        /* \"#utility.yul\":10828:10899   */\n      tag_433\n        /* \"#utility.yul\":10896:10897   */\n      0x00\n        /* \"#utility.yul\":10885:10894   */\n      dup4\n        /* \"#utility.yul\":10881:10898   */\n      add\n        /* \"#utility.yul\":10872:10878   */\n      dup7\n        /* \"#utility.yul\":10828:10899   */\n      tag_326\n      jump\t// in\n    tag_433:\n        /* \"#utility.yul\":10909:10981   */\n      tag_434\n        /* \"#utility.yul\":10977:10979   */\n      0x20\n        /* \"#utility.yul\":10966:10975   */\n      dup4\n        /* \"#utility.yul\":10962:10980   */\n      add\n        /* \"#utility.yul\":10953:10959   */\n      dup6\n        /* \"#utility.yul\":10909:10981   */\n      tag_326\n      jump\t// in\n    tag_434:\n        /* \"#utility.yul\":10991:11063   */\n      tag_435\n        /* \"#utility.yul\":11059:11061   */\n      0x40\n        /* \"#utility.yul\":11048:11057   */\n      dup4\n        /* \"#utility.yul\":11044:11062   */\n      add\n        /* \"#utility.yul\":11035:11041   */\n      dup5\n        /* \"#utility.yul\":10991:11063   */\n      tag_420\n      jump\t// in\n    tag_435:\n        /* \"#utility.yul\":10628:11070   */\n      swap5\n      swap4\n      pop\n      pop\n      pop\n      pop\n      jump\t// out\n        /* \"#utility.yul\":11076:11408   */\n    tag_207:\n        /* \"#utility.yul\":11197:11201   */\n      0x00\n        /* \"#utility.yul\":11235:11237   */\n      0x40\n        /* \"#utility.yul\":11224:11233   */\n      dup3\n        /* \"#utility.yul\":11220:11238   */\n      add\n        /* \"#utility.yul\":11212:11238   */\n      swap1\n      pop\n        /* \"#utility.yul\":11248:11319   */\n      tag_437\n        /* \"#utility.yul\":11316:11317   */\n      0x00\n        /* \"#utility.yul\":11305:11314   */\n      dup4\n        /* \"#utility.yul\":11301:11318   */\n      add\n        /* \"#utility.yul\":11292:11298   */\n      dup6\n        /* \"#utility.yul\":11248:11319   */\n      tag_326\n      jump\t// in\n    tag_437:\n        /* \"#utility.yul\":11329:11401   */\n      tag_438\n        /* \"#utility.yul\":11397:11399   */\n      0x20\n        /* \"#utility.yul\":11386:11395   */\n      dup4\n        /* \"#utility.yul\":11382:11400   */\n      add\n        /* \"#utility.yul\":11373:11379   */\n      dup5\n        /* \"#utility.yul\":11329:11401   */\n      tag_420\n      jump\t// in\n    tag_438:\n        /* \"#utility.yul\":11076:11408   */\n      swap4\n      swap3\n      pop\n      pop\n      pop\n      jump\t// out\n        /* \"#utility.yul\":11414:11624   */\n    tag_38:\n        /* \"#utility.yul\":11501:11505   */\n      0x00\n        /* \"#utility.yul\":11539:11541   */\n      0x20\n        /* \"#utility.yul\":11528:11537   */\n      dup3\n        /* \"#utility.yul\":11524:11542   */\n      add\n        /* \"#utility.yul\":11516:11542   */\n      swap1\n      pop\n        /* \"#utility.yul\":11552:11617   */\n      tag_440\n        /* \"#utility.yul\":11614:11615   */\n      0x00\n        /* \"#utility.yul\":11603:11612   */\n      dup4\n        /* \"#utility.yul\":11599:11616   */\n      add\n        /* \"#utility.yul\":11590:11596   */\n      dup5\n        /* \"#utility.yul\":11552:11617   */\n      tag_330\n      jump\t// in\n    tag_440:\n        /* \"#utility.yul\":11414:11624   */\n      swap3\n      swap2\n      pop\n      pop\n      jump\t// out\n        /* \"#utility.yul\":11630:11943   */\n    tag_26:\n        /* \"#utility.yul\":11743:11747   */\n      0x00\n        /* \"#utility.yul\":11781:11783   */\n      0x20\n        /* \"#utility.yul\":11770:11779   */\n      dup3\n        /* \"#utility.yul\":11766:11784   */\n      add\n        /* \"#utility.yul\":11758:11784   */\n      swap1\n      pop\n        /* \"#utility.yul\":11830:11839   */\n      dup2\n        /* \"#utility.yul\":11824:11828   */\n      dup2\n        /* \"#utility.yul\":11820:11840   */\n      sub\n        /* \"#utility.yul\":11816:11817   */\n      0x00\n        /* \"#utility.yul\":11805:11814   */\n      dup4\n        /* \"#utility.yul\":11801:11818   */\n      add\n        /* \"#utility.yul\":11794:11841   */\n      mstore\n        /* \"#utility.yul\":11858:11936   */\n      tag_442\n        /* \"#utility.yul\":11931:11935   */\n      dup2\n        /* \"#utility.yul\":11922:11928   */\n      dup5\n        /* \"#utility.yul\":11858:11936   */\n      tag_334\n      jump\t// in\n    tag_442:\n        /* \"#utility.yul\":11850:11936   */\n      swap1\n      pop\n        /* \"#utility.yul\":11630:11943   */\n      swap3\n      swap2\n      pop\n      pop\n      jump\t// out\n        /* \"#utility.yul\":11949:12368   */\n    tag_245:\n        /* \"#utility.yul\":12115:12119   */\n      0x00\n        /* \"#utility.yul\":12153:12155   */\n      0x20\n        /* \"#utility.yul\":12142:12151   */\n      dup3\n        /* \"#utility.yul\":12138:12156   */\n      add\n        /* \"#utility.yul\":12130:12156   */\n      swap1\n      pop\n        /* \"#utility.yul\":12202:12211   */\n      dup2\n        /* \"#utility.yul\":12196:12200   */\n      dup2\n        /* \"#utility.yul\":12192:12212   */\n      sub\n        /* \"#utility.yul\":12188:12189   */\n      0x00\n        /* \"#utility.yul\":12177:12186   */\n      dup4\n        /* \"#utility.yul\":12173:12190   */\n      add\n        /* \"#utility.yul\":12166:12213   */\n      mstore\n        /* \"#utility.yul\":12230:12361   */\n      tag_444\n        /* \"#utility.yul\":12356:12360   */\n      dup2\n        /* \"#utility.yul\":12230:12361   */\n      tag_344\n      jump\t// in\n    tag_444:\n        /* \"#utility.yul\":12222:12361   */\n      swap1\n      pop\n        /* \"#utility.yul\":11949:12368   */\n      swap2\n      swap1\n      pop\n      jump\t// out\n        /* \"#utility.yul\":12374:12793   */\n    tag_271:\n        /* \"#utility.yul\":12540:12544   */\n      0x00\n        /* \"#utility.yul\":12578:12580   */\n      0x20\n        /* \"#utility.yul\":12567:12576   */\n      dup3\n        /* \"#utility.yul\":12563:12581   */\n      add\n        /* \"#utility.yul\":12555:12581   */\n      swap1\n      pop\n        /* \"#utility.yul\":12627:12636   */\n      dup2\n        /* \"#utility.yul\":12621:12625   */\n      dup2\n        /* \"#utility.yul\":12617:12637   */\n      sub\n        /* \"#utility.yul\":12613:12614   */\n      0x00\n        /* \"#utility.yul\":12602:12611   */\n      dup4\n        /* \"#utility.yul\":12598:12615   */\n      add\n        /* \"#utility.yul\":12591:12638   */\n      mstore\n        /* \"#utility.yul\":12655:12786   */\n      tag_446\n        /* \"#utility.yul\":12781:12785   */\n      dup2\n        /* \"#utility.yul\":12655:12786   */\n      tag_349\n      jump\t// in\n    tag_446:\n        /* \"#utility.yul\":12647:12786   */\n      swap1\n      pop\n        /* \"#utility.yul\":12374:12793   */\n      swap2\n      swap1\n      pop\n      jump\t// out\n        /* \"#utility.yul\":12799:13218   */\n    tag_230:\n        /* \"#utility.yul\":12965:12969   */\n      0x00\n        /* \"#utility.yul\":13003:13005   */\n      0x20\n        /* \"#utility.yul\":12992:13001   */\n      dup3\n        /* \"#utility.yul\":12988:13006   */\n      add\n        /* \"#utility.yul\":12980:13006   */\n      swap1\n      pop\n        /* \"#utility.yul\":13052:13061   */\n      dup2\n        /* \"#utility.yul\":13046:13050   */\n      dup2\n        /* \"#utility.yul\":13042:13062   */\n      sub\n        /* \"#utility.yul\":13038:13039   */\n      0x00\n        /* \"#utility.yul\":13027:13036   */\n      dup4\n        /* \"#utility.yul\":13023:13040   */\n      add\n        /* \"#utility.yul\":13016:13063   */\n      mstore\n        /* \"#utility.yul\":13080:13211   */\n      tag_448\n        /* \"#utility.yul\":13206:13210   */\n      dup2\n        /* \"#utility.yul\":13080:13211   */\n      tag_354\n      jump\t// in\n    tag_448:\n        /* \"#utility.yul\":13072:13211   */\n      swap1\n      pop\n        /* \"#utility.yul\":12799:13218   */\n      swap2\n      swap1\n      pop\n      jump\t// out\n        /* \"#utility.yul\":13224:13643   */\n    tag_167:\n        /* \"#utility.yul\":13390:13394   */\n      0x00\n        /* \"#utility.yul\":13428:13430   */\n      0x20\n        /* \"#utility.yul\":13417:13426   */\n      dup3\n        /* \"#utility.yul\":13413:13431   */\n      add\n        /* \"#utility.yul\":13405:13431   */\n      swap1\n      pop\n        /* \"#utility.yul\":13477:13486   */\n      dup2\n        /* \"#utility.yul\":13471:13475   */\n      dup2\n        /* \"#utility.yul\":13467:13487   */\n      sub\n        /* \"#utility.yul\":13463:13464   */\n      0x00\n        /* \"#utility.yul\":13452:13461   */\n      dup4\n        /* \"#utility.yul\":13448:13465   */\n      add\n        /* \"#utility.yul\":13441:13488   */\n      mstore\n        /* \"#utility.yul\":13505:13636   */\n      tag_450\n        /* \"#utility.yul\":13631:13635   */\n      dup2\n        /* \"#utility.yul\":13505:13636   */\n      tag_359\n      jump\t// in\n    tag_450:\n        /* \"#utility.yul\":13497:13636   */\n      swap1\n      pop\n        /* \"#utility.yul\":13224:13643   */\n      swap2\n      swap1\n      pop\n      jump\t// out\n        /* \"#utility.yul\":13649:14068   */\n    tag_237:\n        /* \"#utility.yul\":13815:13819   */\n      0x00\n        /* \"#utility.yul\":13853:13855   */\n      0x20\n        /* \"#utility.yul\":13842:13851   */\n      dup3\n        /* \"#utility.yul\":13838:13856   */\n      add\n        /* \"#utility.yul\":13830:13856   */\n      swap1\n      pop\n        /* \"#utility.yul\":13902:13911   */\n      dup2\n        /* \"#utility.yul\":13896:13900   */\n      dup2\n        /* \"#utility.yul\":13892:13912   */\n      sub\n        /* \"#utility.yul\":13888:13889   */\n      0x00\n        /* \"#utility.yul\":13877:13886   */\n      dup4\n        /* \"#utility.yul\":13873:13890   */\n      add\n        /* \"#utility.yul\":13866:13913   */\n      mstore\n        /* \"#utility.yul\":13930:14061   */\n      tag_452\n        /* \"#utility.yul\":14056:14060   */\n      dup2\n        /* \"#utility.yul\":13930:14061   */\n      tag_364\n      jump\t// in\n    tag_452:\n        /* \"#utility.yul\":13922:14061   */\n      swap1\n      pop\n        /* \"#utility.yul\":13649:14068   */\n      swap2\n      swap1\n      pop\n      jump\t// out\n        /* \"#utility.yul\":14074:14493   */\n    tag_250:\n        /* \"#utility.yul\":14240:14244   */\n      0x00\n        /* \"#utility.yul\":14278:14280   */\n      0x20\n        /* \"#utility.yul\":14267:14276   */\n      dup3\n        /* \"#utility.yul\":14263:14281   */\n      add\n        /* \"#utility.yul\":14255:14281   */\n      swap1\n      pop\n        /* \"#utility.yul\":14327:14336   */\n      dup2\n        /* \"#utility.yul\":14321:14325   */\n      dup2\n        /* \"#utility.yul\":14317:14337   */\n      sub\n        /* \"#utility.yul\":14313:14314   */\n      0x00\n        /* \"#utility.yul\":14302:14311   */\n      dup4\n        /* \"#utility.yul\":14298:14315   */\n      add\n        /* \"#utility.yul\":14291:14338   */\n      mstore\n        /* \"#utility.yul\":14355:14486   */\n      tag_454\n        /* \"#utility.yul\":14481:14485   */\n      dup2\n        /* \"#utility.yul\":14355:14486   */\n      tag_369\n      jump\t// in\n    tag_454:\n        /* \"#utility.yul\":14347:14486   */\n      swap1\n      pop\n        /* \"#utility.yul\":14074:14493   */\n      swap2\n      swap1\n      pop\n      jump\t// out\n        /* \"#utility.yul\":14499:14918   */\n    tag_188:\n        /* \"#utility.yul\":14665:14669   */\n      0x00\n        /* \"#utility.yul\":14703:14705   */\n      0x20\n        /* \"#utility.yul\":14692:14701   */\n      dup3\n        /* \"#utility.yul\":14688:14706   */\n      add\n        /* \"#utility.yul\":14680:14706   */\n      swap1\n      pop\n        /* \"#utility.yul\":14752:14761   */\n      dup2\n        /* \"#utility.yul\":14746:14750   */\n      dup2\n        /* \"#utility.yul\":14742:14762   */\n      sub\n        /* \"#utility.yul\":14738:14739   */\n      0x00\n        /* \"#utility.yul\":14727:14736   */\n      dup4\n        /* \"#utility.yul\":14723:14740   */\n      add\n        /* \"#utility.yul\":14716:14763   */\n      mstore\n        /* \"#utility.yul\":14780:14911   */\n      tag_456\n        /* \"#utility.yul\":14906:14910   */\n      dup2\n        /* \"#utility.yul\":14780:14911   */\n      tag_374\n      jump\t// in\n    tag_456:\n        /* \"#utility.yul\":14772:14911   */\n      swap1\n      pop\n        /* \"#utility.yul\":14499:14918   */\n      swap2\n      swap1\n      pop\n      jump\t// out\n        /* \"#utility.yul\":14924:15343   */\n    tag_267:\n        /* \"#utility.yul\":15090:15094   */\n      0x00\n        /* \"#utility.yul\":15128:15130   */\n      0x20\n        /* \"#utility.yul\":15117:15126   */\n      dup3\n        /* \"#utility.yul\":15113:15131   */\n      add\n        /* \"#utility.yul\":15105:15131   */\n      swap1\n      pop\n        /* \"#utility.yul\":15177:15186   */\n      dup2\n        /* \"#utility.yul\":15171:15175   */\n      dup2\n        /* \"#utility.yul\":15167:15187   */\n      sub\n        /* \"#utility.yul\":15163:15164   */\n      0x00\n        /* \"#utility.yul\":15152:15161   */\n      dup4\n        /* \"#utility.yul\":15148:15165   */\n      add\n        /* \"#utility.yul\":15141:15188   */\n      mstore\n        /* \"#utility.yul\":15205:15336   */\n      tag_458\n        /* \"#utility.yul\":15331:15335   */\n      dup2\n        /* \"#utility.yul\":15205:15336   */\n      tag_379\n      jump\t// in\n    tag_458:\n        /* \"#utility.yul\":15197:15336   */\n      swap1\n      pop\n        /* \"#utility.yul\":14924:15343   */\n      swap2\n      swap1\n      pop\n      jump\t// out\n        /* \"#utility.yul\":15349:15768   */\n    tag_132:\n        /* \"#utility.yul\":15515:15519   */\n      0x00\n        /* \"#utility.yul\":15553:15555   */\n      0x20\n        /* \"#utility.yul\":15542:15551   */\n      dup3\n        /* \"#utility.yul\":15538:15556   */\n      add\n        /* \"#utility.yul\":15530:15556   */\n      swap1\n      pop\n        /* \"#utility.yul\":15602:15611   */\n      dup2\n        /* \"#utility.yul\":15596:15600   */\n      dup2\n        /* \"#utility.yul\":15592:15612   */\n      sub\n        /* \"#utility.yul\":15588:15589   */\n      0x00\n        /* \"#utility.yul\":15577:15586   */\n      dup4\n        /* \"#utility.yul\":15573:15590   */\n      add\n        /* \"#utility.yul\":15566:15613   */\n      mstore\n        /* \"#utility.yul\":15630:15761   */\n      tag_460\n        /* \"#utility.yul\":15756:15760   */\n      dup2\n        /* \"#utility.yul\":15630:15761   */\n      tag_384\n      jump\t// in\n    tag_460:\n        /* \"#utility.yul\":15622:15761   */\n      swap1\n      pop\n        /* \"#utility.yul\":15349:15768   */\n      swap2\n      swap1\n      pop\n      jump\t// out\n        /* \"#utility.yul\":15774:16193   */\n    tag_242:\n        /* \"#utility.yul\":15940:15944   */\n      0x00\n        /* \"#utility.yul\":15978:15980   */\n      0x20\n        /* \"#utility.yul\":15967:15976   */\n      dup3\n        /* \"#utility.yul\":15963:15981   */\n      add\n        /* \"#utility.yul\":15955:15981   */\n      swap1\n      pop\n        /* \"#utility.yul\":16027:16036   */\n      dup2\n        /* \"#utility.yul\":16021:16025   */\n      dup2\n        /* \"#utility.yul\":16017:16037   */\n      sub\n        /* \"#utility.yul\":16013:16014   */\n      0x00\n        /* \"#utility.yul\":16002:16011   */\n      dup4\n        /* \"#utility.yul\":15998:16015   */\n      add\n        /* \"#utility.yul\":15991:16038   */\n      mstore\n        /* \"#utility.yul\":16055:16186   */\n      tag_462\n        /* \"#utility.yul\":16181:16185   */\n      dup2\n        /* \"#utility.yul\":16055:16186   */\n      tag_389\n      jump\t// in\n    tag_462:\n        /* \"#utility.yul\":16047:16186   */\n      swap1\n      pop\n        /* \"#utility.yul\":15774:16193   */\n      swap2\n      swap1\n      pop\n      jump\t// out\n        /* \"#utility.yul\":16199:16618   */\n    tag_205:\n        /* \"#utility.yul\":16365:16369   */\n      0x00\n        /* \"#utility.yul\":16403:16405   */\n      0x20\n        /* \"#utility.yul\":16392:16401   */\n      dup3\n        /* \"#utility.yul\":16388:16406   */\n      add\n        /* \"#utility.yul\":16380:16406   */\n      swap1\n      pop\n        /* \"#utility.yul\":16452:16461   */\n      dup2\n        /* \"#utility.yul\":16446:16450   */\n      dup2\n        /* \"#utility.yul\":16442:16462   */\n      sub\n        /* \"#utility.yul\":16438:16439   */\n      0x00\n        /* \"#utility.yul\":16427:16436   */\n      dup4\n        /* \"#utility.yul\":16423:16440   */\n      add\n        /* \"#utility.yul\":16416:16463   */\n      mstore\n        /* \"#utility.yul\":16480:16611   */\n      tag_464\n        /* \"#utility.yul\":16606:16610   */\n      dup2\n        /* \"#utility.yul\":16480:16611   */\n      tag_394\n      jump\t// in\n    tag_464:\n        /* \"#utility.yul\":16472:16611   */\n      swap1\n      pop\n        /* \"#utility.yul\":16199:16618   */\n      swap2\n      swap1\n      pop\n      jump\t// out\n        /* \"#utility.yul\":16624:17043   */\n    tag_227:\n        /* \"#utility.yul\":16790:16794   */\n      0x00\n        /* \"#utility.yul\":16828:16830   */\n      0x20\n        /* \"#utility.yul\":16817:16826   */\n      dup3\n        /* \"#utility.yul\":16813:16831   */\n      add\n        /* \"#utility.yul\":16805:16831   */\n      swap1\n      pop\n        /* \"#utility.yul\":16877:16886   */\n      dup2\n        /* \"#utility.yul\":16871:16875   */\n      dup2\n        /* \"#utility.yul\":16867:16887   */\n      sub\n        /* \"#utility.yul\":16863:16864   */\n      0x00\n        /* \"#utility.yul\":16852:16861   */\n      dup4\n        /* \"#utility.yul\":16848:16865   */\n      add\n        /* \"#utility.yul\":16841:16888   */\n      mstore\n        /* \"#utility.yul\":16905:17036   */\n      tag_466\n        /* \"#utility.yul\":17031:17035   */\n      dup2\n        /* \"#utility.yul\":16905:17036   */\n      tag_405\n      jump\t// in\n    tag_466:\n        /* \"#utility.yul\":16897:17036   */\n      swap1\n      pop\n        /* \"#utility.yul\":16624:17043   */\n      swap2\n      swap1\n      pop\n      jump\t// out\n        /* \"#utility.yul\":17049:17468   */\n    tag_217:\n        /* \"#utility.yul\":17215:17219   */\n      0x00\n        /* \"#utility.yul\":17253:17255   */\n      0x20\n        /* \"#utility.yul\":17242:17251   */\n      dup3\n        /* \"#utility.yul\":17238:17256   */\n      add\n        /* \"#utility.yul\":17230:17256   */\n      swap1\n      pop\n        /* \"#utility.yul\":17302:17311   */\n      dup2\n        /* \"#utility.yul\":17296:17300   */\n      dup2\n        /* \"#utility.yul\":17292:17312   */\n      sub\n        /* \"#utility.yul\":17288:17289   */\n      0x00\n        /* \"#utility.yul\":17277:17286   */\n      dup4\n        /* \"#utility.yul\":17273:17290   */\n      add\n        /* \"#utility.yul\":17266:17313   */\n      mstore\n        /* \"#utility.yul\":17330:17461   */\n      tag_468\n        /* \"#utility.yul\":17456:17460   */\n      dup2\n        /* \"#utility.yul\":17330:17461   */\n      tag_410\n      jump\t// in\n    tag_468:\n        /* \"#utility.yul\":17322:17461   */\n      swap1\n      pop\n        /* \"#utility.yul\":17049:17468   */\n      swap2\n      swap1\n      pop\n      jump\t// out\n        /* \"#utility.yul\":17474:17893   */\n    tag_258:\n        /* \"#utility.yul\":17640:17644   */\n      0x00\n        /* \"#utility.yul\":17678:17680   */\n      0x20\n        /* \"#utility.yul\":17667:17676   */\n      dup3\n        /* \"#utility.yul\":17663:17681   */\n      add\n        /* \"#utility.yul\":17655:17681   */\n      swap1\n      pop\n        /* \"#utility.yul\":17727:17736   */\n      dup2\n        /* \"#utility.yul\":17721:17725   */\n      dup2\n        /* \"#utility.yul\":17717:17737   */\n      sub\n        /* \"#utility.yul\":17713:17714   */\n      0x00\n        /* \"#utility.yul\":17702:17711   */\n      dup4\n        /* \"#utility.yul\":17698:17715   */\n      add\n        /* \"#utility.yul\":17691:17738   */\n      mstore\n        /* \"#utility.yul\":17755:17886   */\n      tag_470\n        /* \"#utility.yul\":17881:17885   */\n      dup2\n        /* \"#utility.yul\":17755:17886   */\n      tag_415\n      jump\t// in\n    tag_470:\n        /* \"#utility.yul\":17747:17886   */\n      swap1\n      pop\n        /* \"#utility.yul\":17474:17893   */\n      swap2\n      swap1\n      pop\n      jump\t// out\n        /* \"#utility.yul\":17899:18121   */\n    tag_45:\n        /* \"#utility.yul\":17992:17996   */\n      0x00\n        /* \"#utility.yul\":18030:18032   */\n      0x20\n        /* \"#utility.yul\":18019:18028   */\n      dup3\n        /* \"#utility.yul\":18015:18033   */\n      add\n        /* \"#utility.yul\":18007:18033   */\n      swap1\n      pop\n        /* \"#utility.yul\":18043:18114   */\n      tag_472\n        /* \"#utility.yul\":18111:18112   */\n      0x00\n        /* \"#utility.yul\":18100:18109   */\n      dup4\n        /* \"#utility.yul\":18096:18113   */\n      add\n        /* \"#utility.yul\":18087:18093   */\n      dup5\n        /* \"#utility.yul\":18043:18114   */\n      tag_420\n      jump\t// in\n    tag_472:\n        /* \"#utility.yul\":17899:18121   */\n      swap3\n      swap2\n      pop\n      pop\n      jump\t// out\n        /* \"#utility.yul\":18127:18459   */\n    tag_31:\n        /* \"#utility.yul\":18248:18252   */\n      0x00\n        /* \"#utility.yul\":18286:18288   */\n      0x40\n        /* \"#utility.yul\":18275:18284   */\n      dup3\n        /* \"#utility.yul\":18271:18289   */\n      add\n        /* \"#utility.yul\":18263:18289   */\n      swap1\n      pop\n        /* \"#utility.yul\":18299:18370   */\n      tag_474\n        /* \"#utility.yul\":18367:18368   */\n      0x00\n        /* \"#utility.yul\":18356:18365   */\n      dup4\n        /* \"#utility.yul\":18352:18369   */\n      add\n        /* \"#utility.yul\":18343:18349   */\n      dup6\n        /* \"#utility.yul\":18299:18370   */\n      tag_420\n      jump\t// in\n    tag_474:\n        /* \"#utility.yul\":18380:18452   */\n      tag_475\n        /* \"#utility.yul\":18448:18450   */\n      0x20\n        /* \"#utility.yul\":18437:18446   */\n      dup4\n        /* \"#utility.yul\":18433:18451   */\n      add\n        /* \"#utility.yul\":18424:18430   */\n      dup5\n        /* \"#utility.yul\":18380:18452   */\n      tag_420\n      jump\t// in\n    tag_475:\n        /* \"#utility.yul\":18127:18459   */\n      swap4\n      swap3\n      pop\n      pop\n      pop\n      jump\t// out\n        /* \"#utility.yul\":18465:18679   */\n    tag_60:\n        /* \"#utility.yul\":18554:18558   */\n      0x00\n        /* \"#utility.yul\":18592:18594   */\n      0x20\n        /* \"#utility.yul\":18581:18590   */\n      dup3\n        /* \"#utility.yul\":18577:18595   */\n      add\n        /* \"#utility.yul\":18569:18595   */\n      swap1\n      pop\n        /* \"#utility.yul\":18605:18672   */\n      tag_477\n        /* \"#utility.yul\":18669:18670   */\n      0x00\n        /* \"#utility.yul\":18658:18667   */\n      dup4\n        /* \"#utility.yul\":18654:18671   */\n      add\n        /* \"#utility.yul\":18645:18651   */\n      dup5\n        /* \"#utility.yul\":18605:18672   */\n      tag_424\n      jump\t// in\n    tag_477:\n        /* \"#utility.yul\":18465:18679   */\n      swap3\n      swap2\n      pop\n      pop\n      jump\t// out\n        /* \"#utility.yul\":18766:18865   */\n    tag_337:\n        /* \"#utility.yul\":18818:18824   */\n      0x00\n        /* \"#utility.yul\":18852:18857   */\n      dup2\n        /* \"#utility.yul\":18846:18858   */\n      mload\n        /* \"#utility.yul\":18836:18858   */\n      swap1\n      pop\n        /* \"#utility.yul\":18766:18865   */\n      swap2\n      swap1\n      pop\n      jump\t// out\n        /* \"#utility.yul\":18871:19018   */\n    tag_402:\n        /* \"#utility.yul\":18972:18983   */\n      0x00\n        /* \"#utility.yul\":19009:19012   */\n      dup2\n        /* \"#utility.yul\":18994:19012   */\n      swap1\n      pop\n        /* \"#utility.yul\":18871:19018   */\n      swap3\n      swap2\n      pop\n      pop\n      jump\t// out\n        /* \"#utility.yul\":19024:19193   */\n    tag_339:\n        /* \"#utility.yul\":19108:19119   */\n      0x00\n        /* \"#utility.yul\":19142:19148   */\n      dup3\n        /* \"#utility.yul\":19137:19140   */\n      dup3\n        /* \"#utility.yul\":19130:19149   */\n      mstore\n        /* \"#utility.yul\":19182:19186   */\n      0x20\n        /* \"#utility.yul\":19177:19180   */\n      dup3\n        /* \"#utility.yul\":19173:19187   */\n      add\n        /* \"#utility.yul\":19158:19187   */\n      swap1\n      pop\n        /* \"#utility.yul\":19024:19193   */\n      swap3\n      swap2\n      pop\n      pop\n      jump\t// out\n        /* \"#utility.yul\":19199:19504   */\n    tag_147:\n        /* \"#utility.yul\":19239:19242   */\n      0x00\n        /* \"#utility.yul\":19258:19278   */\n      tag_484\n        /* \"#utility.yul\":19276:19277   */\n      dup3\n        /* \"#utility.yul\":19258:19278   */\n      tag_423\n      jump\t// in\n    tag_484:\n        /* \"#utility.yul\":19253:19278   */\n      swap2\n      pop\n        /* \"#utility.yul\":19292:19312   */\n      tag_485\n        /* \"#utility.yul\":19310:19311   */\n      dup4\n        /* \"#utility.yul\":19292:19312   */\n      tag_423\n      jump\t// in\n    tag_485:\n        /* \"#utility.yul\":19287:19312   */\n      swap3\n      pop\n        /* \"#utility.yul\":19446:19447   */\n      dup3\n        /* \"#utility.yul\":19378:19444   */\n      0xffffffffffffffffffffffffffffffffffffffffffffffffffffffffffffffff\n        /* \"#utility.yul\":19374:19448   */\n      sub\n        /* \"#utility.yul\":19371:19372   */\n      dup3\n        /* \"#utility.yul\":19368:19449   */\n      gt\n        /* \"#utility.yul\":19365:19472   */\n      iszero\n      tag_486\n      jumpi\n        /* \"#utility.yul\":19452:19470   */\n      tag_487\n      tag_488\n      jump\t// in\n    tag_487:\n        /* \"#utility.yul\":19365:19472   */\n    tag_486:\n        /* \"#utility.yul\":19496:19497   */\n      dup3\n        /* \"#utility.yul\":19493:19494   */\n      dup3\n        /* \"#utility.yul\":19489:19498   */\n      add\n        /* \"#utility.yul\":19482:19498   */\n      swap1\n      pop\n        /* \"#utility.yul\":19199:19504   */\n      swap3\n      swap2\n      pop\n      pop\n      jump\t// out\n        /* \"#utility.yul\":19510:19695   */\n    tag_164:\n        /* \"#utility.yul\":19550:19551   */\n      0x00\n        /* \"#utility.yul\":19567:19587   */\n      tag_490\n        /* \"#utility.yul\":19585:19586   */\n      dup3\n        /* \"#utility.yul\":19567:19587   */\n      tag_423\n      jump\t// in\n    tag_490:\n        /* \"#utility.yul\":19562:19587   */\n      swap2\n      pop\n        /* \"#utility.yul\":19601:19621   */\n      tag_491\n        /* \"#utility.yul\":19619:19620   */\n      dup4\n        /* \"#utility.yul\":19601:19621   */\n      tag_423\n      jump\t// in\n    tag_491:\n        /* \"#utility.yul\":19596:19621   */\n      swap3\n      pop\n        /* \"#utility.yul\":19640:19641   */\n      dup3\n        /* \"#utility.yul\":19630:19665   */\n      tag_492\n      jumpi\n        /* \"#utility.yul\":19645:19663   */\n      tag_493\n      tag_494\n      jump\t// in\n    tag_493:\n        /* \"#utility.yul\":19630:19665   */\n    tag_492:\n        /* \"#utility.yul\":19687:19688   */\n      dup3\n        /* \"#utility.yul\":19684:19685   */\n      dup3\n        /* \"#utility.yul\":19680:19689   */\n      div\n        /* \"#utility.yul\":19675:19689   */\n      swap1\n      pop\n        /* \"#utility.yul\":19510:19695   */\n      swap3\n      swap2\n      pop\n      pop\n      jump\t// out\n        /* \"#utility.yul\":19701:20049   */\n    tag_162:\n        /* \"#utility.yul\":19741:19748   */\n      0x00\n        /* \"#utility.yul\":19764:19784   */\n      tag_496\n        /* \"#utility.yul\":19782:19783   */\n      dup3\n        /* \"#utility.yul\":19764:19784   */\n      tag_423\n      jump\t// in\n    tag_496:\n        /* \"#utility.yul\":19759:19784   */\n      swap2\n      pop\n        /* \"#utility.yul\":19798:19818   */\n      tag_497\n        /* \"#utility.yul\":19816:19817   */\n      dup4\n        /* \"#utility.yul\":19798:19818   */\n      tag_423\n      jump\t// in\n    tag_497:\n        /* \"#utility.yul\":19793:19818   */\n      swap3\n      pop\n        /* \"#utility.yul\":19986:19987   */\n      dup2\n        /* \"#utility.yul\":19918:19984   */\n      0xffffffffffffffffffffffffffffffffffffffffffffffffffffffffffffffff\n        /* \"#utility.yul\":19914:19988   */\n      div\n        /* \"#utility.yul\":19911:19912   */\n      dup4\n        /* \"#utility.yul\":19908:19989   */\n      gt\n        /* \"#utility.yul\":19903:19904   */\n      dup3\n        /* \"#utility.yul\":19896:19905   */\n      iszero\n        /* \"#utility.yul\":19889:19906   */\n      iszero\n        /* \"#utility.yul\":19885:19990   */\n      and\n        /* \"#utility.yul\":19882:20013   */\n      iszero\n      tag_498\n      jumpi\n        /* \"#utility.yul\":19993:20011   */\n      tag_499\n      tag_488\n      jump\t// in\n    tag_499:\n        /* \"#utility.yul\":19882:20013   */\n    tag_498:\n        /* \"#utility.yul\":20041:20042   */\n      dup3\n        /* \"#utility.yul\":20038:20039   */\n      dup3\n        /* \"#utility.yul\":20034:20043   */\n      mul\n        /* \"#utility.yul\":20023:20043   */\n      swap1\n      pop\n        /* \"#utility.yul\":19701:20049   */\n      swap3\n      swap2\n      pop\n      pop\n      jump\t// out\n        /* \"#utility.yul\":20055:20246   */\n    tag_160:\n        /* \"#utility.yul\":20095:20099   */\n      0x00\n        /* \"#utility.yul\":20115:20135   */\n      tag_501\n        /* \"#utility.yul\":20133:20134   */\n      dup3\n        /* \"#utility.yul\":20115:20135   */\n      tag_423\n      jump\t// in\n    tag_501:\n        /* \"#utility.yul\":20110:20135   */\n      swap2\n      pop\n        /* \"#utility.yul\":20149:20169   */\n      tag_502\n        /* \"#utility.yul\":20167:20168   */\n      dup4\n        /* \"#utility.yul\":20149:20169   */\n      tag_423\n      jump\t// in\n    tag_502:\n        /* \"#utility.yul\":20144:20169   */\n      swap3\n      pop\n        /* \"#utility.yul\":20188:20189   */\n      dup3\n        /* \"#utility.yul\":20185:20186   */\n      dup3\n        /* \"#utility.yul\":20182:20190   */\n      lt\n        /* \"#utility.yul\":20179:20213   */\n      iszero\n      tag_503\n      jumpi\n        /* \"#utility.yul\":20193:20211   */\n      tag_504\n      tag_488\n      jump\t// in\n    tag_504:\n        /* \"#utility.yul\":20179:20213   */\n    tag_503:\n        /* \"#utility.yul\":20238:20239   */\n      dup3\n        /* \"#utility.yul\":20235:20236   */\n      dup3\n        /* \"#utility.yul\":20231:20240   */\n      sub\n        /* \"#utility.yul\":20223:20240   */\n      swap1\n      pop\n        /* \"#utility.yul\":20055:20246   */\n      swap3\n      swap2\n      pop\n      pop\n      jump\t// out\n        /* \"#utility.yul\":20252:20348   */\n    tag_329:\n        /* \"#utility.yul\":20289:20296   */\n      0x00\n        /* \"#utility.yul\":20318:20342   */\n      tag_506\n        /* \"#utility.yul\":20336:20341   */\n      dup3\n        /* \"#utility.yul\":20318:20342   */\n      tag_507\n      jump\t// in\n    tag_506:\n        /* \"#utility.yul\":20307:20342   */\n      swap1\n      pop\n        /* \"#utility.yul\":20252:20348   */\n      swap2\n      swap1\n      pop\n      jump\t// out\n        /* \"#utility.yul\":20354:20444   */\n    tag_333:\n        /* \"#utility.yul\":20388:20395   */\n      0x00\n        /* \"#utility.yul\":20431:20436   */\n      dup2\n        /* \"#utility.yul\":20424:20437   */\n      iszero\n        /* \"#utility.yul\":20417:20438   */\n      iszero\n        /* \"#utility.yul\":20406:20438   */\n      swap1\n      pop\n        /* \"#utility.yul\":20354:20444   */\n      swap2\n      swap1\n      pop\n      jump\t// out\n        /* \"#utility.yul\":20450:20576   */\n    tag_507:\n        /* \"#utility.yul\":20487:20494   */\n      0x00\n        /* \"#utility.yul\":20527:20569   */\n      0xffffffffffffffffffffffffffffffffffffffff\n        /* \"#utility.yul\":20520:20525   */\n      dup3\n        /* \"#utility.yul\":20516:20570   */\n      and\n        /* \"#utility.yul\":20505:20570   */\n      swap1\n      pop\n        /* \"#utility.yul\":20450:20576   */\n      swap2\n      swap1\n      pop\n      jump\t// out\n        /* \"#utility.yul\":20582:20659   */\n    tag_423:\n        /* \"#utility.yul\":20619:20626   */\n      0x00\n        /* \"#utility.yul\":20648:20653   */\n      dup2\n        /* \"#utility.yul\":20637:20653   */\n      swap1\n      pop\n        /* \"#utility.yul\":20582:20659   */\n      swap2\n      swap1\n      pop\n      jump\t// out\n        /* \"#utility.yul\":20665:20751   */\n    tag_427:\n        /* \"#utility.yul\":20700:20707   */\n      0x00\n        /* \"#utility.yul\":20740:20744   */\n      0xff\n        /* \"#utility.yul\":20733:20738   */\n      dup3\n        /* \"#utility.yul\":20729:20745   */\n      and\n        /* \"#utility.yul\":20718:20745   */\n      swap1\n      pop\n        /* \"#utility.yul\":20665:20751   */\n      swap2\n      swap1\n      pop\n      jump\t// out\n        /* \"#utility.yul\":20757:21064   */\n    tag_341:\n        /* \"#utility.yul\":20825:20826   */\n      0x00\n        /* \"#utility.yul\":20835:20948   */\n    tag_513:\n        /* \"#utility.yul\":20849:20855   */\n      dup4\n        /* \"#utility.yul\":20846:20847   */\n      dup2\n        /* \"#utility.yul\":20843:20856   */\n      lt\n        /* \"#utility.yul\":20835:20948   */\n      iszero\n      tag_515\n      jumpi\n        /* \"#utility.yul\":20934:20935   */\n      dup1\n        /* \"#utility.yul\":20929:20932   */\n      dup3\n        /* \"#utility.yul\":20925:20936   */\n      add\n        /* \"#utility.yul\":20919:20937   */\n      mload\n        /* \"#utility.yul\":20915:20916   */\n      dup2\n        /* \"#utility.yul\":20910:20913   */\n      dup5\n        /* \"#utility.yul\":20906:20917   */\n      add\n        /* \"#utility.yul\":20899:20938   */\n      mstore\n        /* \"#utility.yul\":20871:20873   */\n      0x20\n        /* \"#utility.yul\":20868:20869   */\n      dup2\n        /* \"#utility.yul\":20864:20874   */\n      add\n        /* \"#utility.yul\":20859:20874   */\n      swap1\n      pop\n        /* \"#utility.yul\":20835:20948   */\n      jump(tag_513)\n    tag_515:\n        /* \"#utility.yul\":20966:20972   */\n      dup4\n        /* \"#utility.yul\":20963:20964   */\n      dup2\n        /* \"#utility.yul\":20960:20973   */\n      gt\n        /* \"#utility.yul\":20957:21058   */\n      iszero\n      tag_516\n      jumpi\n        /* \"#utility.yul\":21046:21047   */\n      0x00\n        /* \"#utility.yul\":21037:21043   */\n      dup5\n        /* \"#utility.yul\":21032:21035   */\n      dup5\n        /* \"#utility.yul\":21028:21044   */\n      add\n        /* \"#utility.yul\":21021:21048   */\n      mstore\n        /* \"#utility.yul\":20957:21058   */\n    tag_516:\n        /* \"#utility.yul\":20806:21064   */\n      pop\n        /* \"#utility.yul\":20757:21064   */\n      pop\n      pop\n      pop\n      jump\t// out\n        /* \"#utility.yul\":21070:21390   */\n    tag_112:\n        /* \"#utility.yul\":21114:21120   */\n      0x00\n        /* \"#utility.yul\":21151:21152   */\n      0x02\n        /* \"#utility.yul\":21145:21149   */\n      dup3\n        /* \"#utility.yul\":21141:21153   */\n      div\n        /* \"#utility.yul\":21131:21153   */\n      swap1\n      pop\n        /* \"#utility.yul\":21198:21199   */\n      0x01\n        /* \"#utility.yul\":21192:21196   */\n      dup3\n        /* \"#utility.yul\":21188:21200   */\n      and\n        /* \"#utility.yul\":21219:21237   */\n      dup1\n        /* \"#utility.yul\":21209:21290   */\n      tag_518\n      jumpi\n        /* \"#utility.yul\":21275:21279   */\n      0x7f\n        /* \"#utility.yul\":21267:21273   */\n      dup3\n        /* \"#utility.yul\":21263:21280   */\n      and\n        /* \"#utility.yul\":21253:21280   */\n      swap2\n      pop\n        /* \"#utility.yul\":21209:21290   */\n    tag_518:\n        /* \"#utility.yul\":21337:21339   */\n      0x20\n        /* \"#utility.yul\":21329:21335   */\n      dup3\n        /* \"#utility.yul\":21326:21340   */\n      lt\n        /* \"#utility.yul\":21306:21324   */\n      dup2\n        /* \"#utility.yul\":21303:21341   */\n      eq\n        /* \"#utility.yul\":21300:21384   */\n      iszero\n      tag_519\n      jumpi\n        /* \"#utility.yul\":21356:21374   */\n      tag_520\n      tag_521\n      jump\t// in\n    tag_520:\n        /* \"#utility.yul\":21300:21384   */\n    tag_519:\n        /* \"#utility.yul\":21121:21390   */\n      pop\n        /* \"#utility.yul\":21070:21390   */\n      swap2\n      swap1\n      pop\n      jump\t// out\n        /* \"#utility.yul\":21396:21576   */\n    tag_488:\n        /* \"#utility.yul\":21444:21521   */\n      0x4e487b7100000000000000000000000000000000000000000000000000000000\n        /* \"#utility.yul\":21441:21442   */\n      0x00\n        /* \"#utility.yul\":21434:21522   */\n      mstore\n        /* \"#utility.yul\":21541:21545   */\n      0x11\n        /* \"#utility.yul\":21538:21539   */\n      0x04\n        /* \"#utility.yul\":21531:21546   */\n      mstore\n        /* \"#utility.yul\":21565:21569   */\n      0x24\n        /* \"#utility.yul\":21562:21563   */\n      0x00\n        /* \"#utility.yul\":21555:21570   */\n      revert\n        /* \"#utility.yul\":21582:21762   */\n    tag_494:\n        /* \"#utility.yul\":21630:21707   */\n      0x4e487b7100000000000000000000000000000000000000000000000000000000\n        /* \"#utility.yul\":21627:21628   */\n      0x00\n        /* \"#utility.yul\":21620:21708   */\n      mstore\n        /* \"#utility.yul\":21727:21731   */\n      0x12\n        /* \"#utility.yul\":21724:21725   */\n      0x04\n        /* \"#utility.yul\":21717:21732   */\n      mstore\n        /* \"#utility.yul\":21751:21755   */\n      0x24\n        /* \"#utility.yul\":21748:21749   */\n      0x00\n        /* \"#utility.yul\":21741:21756   */\n      revert\n        /* \"#utility.yul\":21768:21948   */\n    tag_521:\n        /* \"#utility.yul\":21816:21893   */\n      0x4e487b7100000000000000000000000000000000000000000000000000000000\n        /* \"#utility.yul\":21813:21814   */\n      0x00\n        /* \"#utility.yul\":21806:21894   */\n      mstore\n        /* \"#utility.yul\":21913:21917   */\n      0x22\n        /* \"#utility.yul\":21910:21911   */\n      0x04\n        /* \"#utility.yul\":21903:21918   */\n      mstore\n        /* \"#utility.yul\":21937:21941   */\n      0x24\n        /* \"#utility.yul\":21934:21935   */\n      0x00\n        /* \"#utility.yul\":21927:21942   */\n      revert\n        /* \"#utility.yul\":22077:22194   */\n    tag_296:\n        /* \"#utility.yul\":22186:22187   */\n      0x00\n        /* \"#utility.yul\":22183:22184   */\n      dup1\n        /* \"#utility.yul\":22176:22188   */\n      revert\n        /* \"#utility.yul\":22200:22302   */\n    tag_343:\n        /* \"#utility.yul\":22241:22247   */\n      0x00\n        /* \"#utility.yul\":22292:22294   */\n      0x1f\n        /* \"#utility.yul\":22288:22295   */\n      not\n        /* \"#utility.yul\":22283:22285   */\n      0x1f\n        /* \"#utility.yul\":22276:22281   */\n      dup4\n        /* \"#utility.yul\":22272:22286   */\n      add\n        /* \"#utility.yul\":22268:22296   */\n      and\n        /* \"#utility.yul\":22258:22296   */\n      swap1\n      pop\n        /* \"#utility.yul\":22200:22302   */\n      swap2\n      swap1\n      pop\n      jump\t// out\n        /* \"#utility.yul\":22308:22530   */\n    tag_348:\n        /* \"#utility.yul\":22448:22482   */\n      0x45524332303a207472616e7366657220746f20746865207a65726f2061646472\n        /* \"#utility.yul\":22444:22445   */\n      0x00\n        /* \"#utility.yul\":22436:22442   */\n      dup3\n        /* \"#utility.yul\":22432:22446   */\n      add\n        /* \"#utility.yul\":22425:22483   */\n      mstore\n        /* \"#utility.yul\":22517:22522   */\n      0x6573730000000000000000000000000000000000000000000000000000000000\n        /* \"#utility.yul\":22512:22514   */\n      0x20\n        /* \"#utility.yul\":22504:22510   */\n      dup3\n        /* \"#utility.yul\":22500:22515   */\n      add\n        /* \"#utility.yul\":22493:22523   */\n      mstore\n        /* \"#utility.yul\":22308:22530   */\n      pop\n      jump\t// out\n        /* \"#utility.yul\":22536:22757   */\n    tag_353:\n        /* \"#utility.yul\":22676:22710   */\n      0x45524332303a206275726e20616d6f756e7420657863656564732062616c616e\n        /* \"#utility.yul\":22672:22673   */\n      0x00\n        /* \"#utility.yul\":22664:22670   */\n      dup3\n        /* \"#utility.yul\":22660:22674   */\n      add\n        /* \"#utility.yul\":22653:22711   */\n      mstore\n        /* \"#utility.yul\":22745:22749   */\n      0x6365000000000000000000000000000000000000000000000000000000000000\n        /* \"#utility.yul\":22740:22742   */\n      0x20\n        /* \"#utility.yul\":22732:22738   */\n      dup3\n        /* \"#utility.yul\":22728:22743   */\n      add\n        /* \"#utility.yul\":22721:22750   */\n      mstore\n        /* \"#utility.yul\":22536:22757   */\n      pop\n      jump\t// out\n        /* \"#utility.yul\":22763:22984   */\n    tag_358:\n        /* \"#utility.yul\":22903:22937   */\n      0x45524332303a20617070726f766520746f20746865207a65726f206164647265\n        /* \"#utility.yul\":22899:22900   */\n      0x00\n        /* \"#utility.yul\":22891:22897   */\n      dup3\n        /* \"#utility.yul\":22887:22901   */\n      add\n        /* \"#utility.yul\":22880:22938   */\n      mstore\n        /* \"#utility.yul\":22972:22976   */\n      0x7373000000000000000000000000000000000000000000000000000000000000\n        /* \"#utility.yul\":22967:22969   */\n      0x20\n        /* \"#utility.yul\":22959:22965   */\n      dup3\n        /* \"#utility.yul\":22955:22970   */\n      add\n        /* \"#utility.yul\":22948:22977   */\n      mstore\n        /* \"#utility.yul\":22763:22984   */\n      pop\n      jump\t// out\n        /* \"#utility.yul\":22990:23218   */\n    tag_363:\n        /* \"#utility.yul\":23130:23164   */\n      0x496e73756666696369656e7420696e70757420616d6f756e74206f6620455243\n        /* \"#utility.yul\":23126:23127   */\n      0x00\n        /* \"#utility.yul\":23118:23124   */\n      dup3\n        /* \"#utility.yul\":23114:23128   */\n      add\n        /* \"#utility.yul\":23107:23165   */\n      mstore\n        /* \"#utility.yul\":23199:23210   */\n      0x323020546f6b656e730000000000000000000000000000000000000000000000\n        /* \"#utility.yul\":23194:23196   */\n      0x20\n        /* \"#utility.yul\":23186:23192   */\n      dup3\n        /* \"#utility.yul\":23182:23197   */\n      add\n        /* \"#utility.yul\":23175:23211   */\n      mstore\n        /* \"#utility.yul\":22990:23218   */\n      pop\n      jump\t// out\n        /* \"#utility.yul\":23224:23403   */\n    tag_368:\n        /* \"#utility.yul\":23364:23395   */\n      0x45524332303a20696e73756666696369656e7420616c6c6f77616e6365000000\n        /* \"#utility.yul\":23360:23361   */\n      0x00\n        /* \"#utility.yul\":23352:23358   */\n      dup3\n        /* \"#utility.yul\":23348:23362   */\n      add\n        /* \"#utility.yul\":23341:23396   */\n      mstore\n        /* \"#utility.yul\":23224:23403   */\n      pop\n      jump\t// out\n        /* \"#utility.yul\":23409:23634   */\n    tag_373:\n        /* \"#utility.yul\":23549:23583   */\n      0x45524332303a207472616e7366657220616d6f756e7420657863656564732062\n        /* \"#utility.yul\":23545:23546   */\n      0x00\n        /* \"#utility.yul\":23537:23543   */\n      dup3\n        /* \"#utility.yul\":23533:23547   */\n      add\n        /* \"#utility.yul\":23526:23584   */\n      mstore\n        /* \"#utility.yul\":23618:23626   */\n      0x616c616e63650000000000000000000000000000000000000000000000000000\n        /* \"#utility.yul\":23613:23615   */\n      0x20\n        /* \"#utility.yul\":23605:23611   */\n      dup3\n        /* \"#utility.yul\":23601:23616   */\n      add\n        /* \"#utility.yul\":23594:23627   */\n      mstore\n        /* \"#utility.yul\":23409:23634   */\n      pop\n      jump\t// out\n        /* \"#utility.yul\":23640:23882   */\n    tag_378:\n        /* \"#utility.yul\":23780:23814   */\n      0x506c6561736520696e70757420612076616c696420616d6f756e74206f66204c\n        /* \"#utility.yul\":23776:23777   */\n      0x00\n        /* \"#utility.yul\":23768:23774   */\n      dup3\n        /* \"#utility.yul\":23764:23778   */\n      add\n        /* \"#utility.yul\":23757:23815   */\n      mstore\n        /* \"#utility.yul\":23849:23874   */\n      0x5020546f6b656e7320746f206275726e2f72656465656d000000000000000000\n        /* \"#utility.yul\":23844:23846   */\n      0x20\n        /* \"#utility.yul\":23836:23842   */\n      dup3\n        /* \"#utility.yul\":23832:23847   */\n      add\n        /* \"#utility.yul\":23825:23875   */\n      mstore\n        /* \"#utility.yul\":23640:23882   */\n      pop\n      jump\t// out\n        /* \"#utility.yul\":23888:24108   */\n    tag_383:\n        /* \"#utility.yul\":24028:24062   */\n      0x45524332303a206275726e2066726f6d20746865207a65726f20616464726573\n        /* \"#utility.yul\":24024:24025   */\n      0x00\n        /* \"#utility.yul\":24016:24022   */\n      dup3\n        /* \"#utility.yul\":24012:24026   */\n      add\n        /* \"#utility.yul\":24005:24063   */\n      mstore\n        /* \"#utility.yul\":24097:24100   */\n      0x7300000000000000000000000000000000000000000000000000000000000000\n        /* \"#utility.yul\":24092:24094   */\n      0x20\n        /* \"#utility.yul\":24084:24090   */\n      dup3\n        /* \"#utility.yul\":24080:24095   */\n      add\n        /* \"#utility.yul\":24073:24101   */\n      mstore\n        /* \"#utility.yul\":23888:24108   */\n      pop\n      jump\t// out\n        /* \"#utility.yul\":24114:24289   */\n    tag_388:\n        /* \"#utility.yul\":24254:24281   */\n      0x45544820616d6f756e742063616e6e6f74206265207a65726f00000000000000\n        /* \"#utility.yul\":24250:24251   */\n      0x00\n        /* \"#utility.yul\":24242:24248   */\n      dup3\n        /* \"#utility.yul\":24238:24252   */\n      add\n        /* \"#utility.yul\":24231:24282   */\n      mstore\n        /* \"#utility.yul\":24114:24289   */\n      pop\n      jump\t// out\n        /* \"#utility.yul\":24295:24519   */\n    tag_393:\n        /* \"#utility.yul\":24435:24469   */\n      0x45524332303a207472616e736665722066726f6d20746865207a65726f206164\n        /* \"#utility.yul\":24431:24432   */\n      0x00\n        /* \"#utility.yul\":24423:24429   */\n      dup3\n        /* \"#utility.yul\":24419:24433   */\n      add\n        /* \"#utility.yul\":24412:24470   */\n      mstore\n        /* \"#utility.yul\":24504:24511   */\n      0x6472657373000000000000000000000000000000000000000000000000000000\n        /* \"#utility.yul\":24499:24501   */\n      0x20\n        /* \"#utility.yul\":24491:24497   */\n      dup3\n        /* \"#utility.yul\":24487:24502   */\n      add\n        /* \"#utility.yul\":24480:24512   */\n      mstore\n        /* \"#utility.yul\":24295:24519   */\n      pop\n      jump\t// out\n        /* \"#utility.yul\":24525:24749   */\n    tag_398:\n        /* \"#utility.yul\":24665:24699   */\n      0x5472616e73616374696f6e206f662045746865722077617320756e7375636365\n        /* \"#utility.yul\":24661:24662   */\n      0x00\n        /* \"#utility.yul\":24653:24659   */\n      dup3\n        /* \"#utility.yul\":24649:24663   */\n      add\n        /* \"#utility.yul\":24642:24700   */\n      mstore\n        /* \"#utility.yul\":24734:24741   */\n      0x737366756c000000000000000000000000000000000000000000000000000000\n        /* \"#utility.yul\":24729:24731   */\n      0x20\n        /* \"#utility.yul\":24721:24727   */\n      dup3\n        /* \"#utility.yul\":24717:24732   */\n      add\n        /* \"#utility.yul\":24710:24742   */\n      mstore\n        /* \"#utility.yul\":24525:24749   */\n      pop\n      jump\t// out\n        /* \"#utility.yul\":24755:24869   */\n    tag_404:\n      pop\n      jump\t// out\n        /* \"#utility.yul\":24875:25098   */\n    tag_409:\n        /* \"#utility.yul\":25015:25049   */\n      0x45524332303a20617070726f76652066726f6d20746865207a65726f20616464\n        /* \"#utility.yul\":25011:25012   */\n      0x00\n        /* \"#utility.yul\":25003:25009   */\n      dup3\n        /* \"#utility.yul\":24999:25013   */\n      add\n        /* \"#utility.yul\":24992:25050   */\n      mstore\n        /* \"#utility.yul\":25084:25090   */\n      0x7265737300000000000000000000000000000000000000000000000000000000\n        /* \"#utility.yul\":25079:25081   */\n      0x20\n        /* \"#utility.yul\":25071:25077   */\n      dup3\n        /* \"#utility.yul\":25067:25082   */\n      add\n        /* \"#utility.yul\":25060:25091   */\n      mstore\n        /* \"#utility.yul\":24875:25098   */\n      pop\n      jump\t// out\n        /* \"#utility.yul\":25104:25328   */\n    tag_414:\n        /* \"#utility.yul\":25244:25278   */\n      0x45524332303a2064656372656173656420616c6c6f77616e63652062656c6f77\n        /* \"#utility.yul\":25240:25241   */\n      0x00\n        /* \"#utility.yul\":25232:25238   */\n      dup3\n        /* \"#utility.yul\":25228:25242   */\n      add\n        /* \"#utility.yul\":25221:25279   */\n      mstore\n        /* \"#utility.yul\":25313:25320   */\n      0x207a65726f000000000000000000000000000000000000000000000000000000\n        /* \"#utility.yul\":25308:25310   */\n      0x20\n        /* \"#utility.yul\":25300:25306   */\n      dup3\n        /* \"#utility.yul\":25296:25311   */\n      add\n        /* \"#utility.yul\":25289:25321   */\n      mstore\n        /* \"#utility.yul\":25104:25328   */\n      pop\n      jump\t// out\n        /* \"#utility.yul\":25334:25515   */\n    tag_419:\n        /* \"#utility.yul\":25474:25507   */\n      0x45524332303a206d696e7420746f20746865207a65726f206164647265737300\n        /* \"#utility.yul\":25470:25471   */\n      0x00\n        /* \"#utility.yul\":25462:25468   */\n      dup3\n        /* \"#utility.yul\":25458:25472   */\n      add\n        /* \"#utility.yul\":25451:25508   */\n      mstore\n        /* \"#utility.yul\":25334:25515   */\n      pop\n      jump\t// out\n        /* \"#utility.yul\":25521:25643   */\n    tag_281:\n        /* \"#utility.yul\":25594:25618   */\n      tag_545\n        /* \"#utility.yul\":25612:25617   */\n      dup2\n        /* \"#utility.yul\":25594:25618   */\n      tag_329\n      jump\t// in\n    tag_545:\n        /* \"#utility.yul\":25587:25592   */\n      dup2\n        /* \"#utility.yul\":25584:25619   */\n      eq\n        /* \"#utility.yul\":25574:25637   */\n      tag_546\n      jumpi\n        /* \"#utility.yul\":25633:25634   */\n      0x00\n        /* \"#utility.yul\":25630:25631   */\n      dup1\n        /* \"#utility.yul\":25623:25635   */\n      revert\n        /* \"#utility.yul\":25574:25637   */\n    tag_546:\n        /* \"#utility.yul\":25521:25643   */\n      pop\n      jump\t// out\n        /* \"#utility.yul\":25649:25765   */\n    tag_285:\n        /* \"#utility.yul\":25719:25740   */\n      tag_548\n        /* \"#utility.yul\":25734:25739   */\n      dup2\n        /* \"#utility.yul\":25719:25740   */\n      tag_333\n      jump\t// in\n    tag_548:\n        /* \"#utility.yul\":25712:25717   */\n      dup2\n        /* \"#utility.yul\":25709:25741   */\n      eq\n        /* \"#utility.yul\":25699:25759   */\n      tag_549\n      jumpi\n        /* \"#utility.yul\":25755:25756   */\n      0x00\n        /* \"#utility.yul\":25752:25753   */\n      dup1\n        /* \"#utility.yul\":25745:25757   */\n      revert\n        /* \"#utility.yul\":25699:25759   */\n    tag_549:\n        /* \"#utility.yul\":25649:25765   */\n      pop\n      jump\t// out\n        /* \"#utility.yul\":25771:25893   */\n    tag_289:\n        /* \"#utility.yul\":25844:25868   */\n      tag_551\n        /* \"#utility.yul\":25862:25867   */\n      dup2\n        /* \"#utility.yul\":25844:25868   */\n      tag_423\n      jump\t// in\n    tag_551:\n        /* \"#utility.yul\":25837:25842   */\n      dup2\n        /* \"#utility.yul\":25834:25869   */\n      eq\n        /* \"#utility.yul\":25824:25887   */\n      tag_552\n      jumpi\n        /* \"#utility.yul\":25883:25884   */\n      0x00\n        /* \"#utility.yul\":25880:25881   */\n      dup1\n        /* \"#utility.yul\":25873:25885   */\n      revert\n        /* \"#utility.yul\":25824:25887   */\n    tag_552:\n        /* \"#utility.yul\":25771:25893   */\n      pop\n      jump\t// out\n\n    auxdata: 0xa26469706673582212209214dd256998b882c348874752a5716e262856682a0d1ad537d6d80206e199dd64736f6c63430008070033\n}\n",
				"bytecode": {
					"linkReferences": {},
					"object": "60806040523480156200001157600080fd5b50604051620028433803806200284383398181016040528101906200003791906200029a565b6040518060400160405280600781526020017f53776170205631000000000000000000000000000000000000000000000000008152506040518060400160405280600781526020017f537761702d5631000000000000000000000000000000000000000000000000008152508160039080519060200190620000bb929190620001d3565b508060049080519060200190620000d4929190620001d3565b505050600073ffffffffffffffffffffffffffffffffffffffff168173ffffffffffffffffffffffffffffffffffffffff1614156200014a576040517f08c379a00000000000000000000000000000000000000000000000000000000081526004016200014190620002f3565b60405180910390fd5b80600560006101000a81548173ffffffffffffffffffffffffffffffffffffffff021916908373ffffffffffffffffffffffffffffffffffffffff16021790555033600660006101000a81548173ffffffffffffffffffffffffffffffffffffffff021916908373ffffffffffffffffffffffffffffffffffffffff1602179055505062000407565b828054620001e1906200035a565b90600052602060002090601f01602090048101928262000205576000855562000251565b82601f106200022057805160ff191683800117855562000251565b8280016001018555821562000251579182015b828111156200025057825182559160200191906001019062000233565b5b50905062000260919062000264565b5090565b5b808211156200027f57600081600090555060010162000265565b5090565b6000815190506200029481620003ed565b92915050565b600060208284031215620002b357620002b2620003bf565b5b6000620002c38482850162000283565b91505092915050565b6000620002db600f8362000315565b9150620002e882620003c4565b602082019050919050565b600060208201905081810360008301526200030e81620002cc565b9050919050565b600082825260208201905092915050565b600062000333826200033a565b9050919050565b600073ffffffffffffffffffffffffffffffffffffffff82169050919050565b600060028204905060018216806200037357607f821691505b602082108114156200038a576200038962000390565b5b50919050565b7f4e487b7100000000000000000000000000000000000000000000000000000000600052602260045260246000fd5b600080fd5b7f496e76616c696420616464726573730000000000000000000000000000000000600082015250565b620003f88162000326565b81146200040457600080fd5b50565b61242c80620004176000396000f3fe6080604052600436106100fe5760003560e01c806351c6590a116100955780639c8f9f23116100645780639c8f9f23146103675780639d76ea58146103a5578063a457c2d7146103d0578063a9059cbb1461040d578063dd62ed3e1461044a576100fe565b806351c6590a146102a457806370a08231146102d457806395d89b4114610311578063966dae0e1461033c576100fe565b806318160ddd116100d157806318160ddd146101d457806323b872dd146101ff578063313ce5671461023c5780633950935114610267576100fe565b806306fdde03146101035780630902f1ac1461012e578063095ea7b31461015a5780630f8070b414610197575b600080fd5b34801561010f57600080fd5b50610118610487565b6040516101259190611af4565b60405180910390f35b34801561013a57600080fd5b50610143610519565b604051610151929190611cf1565b60405180910390f35b34801561016657600080fd5b50610181600480360381019061017c9190611700565b6105d0565b60405161018e9190611ad9565b60405180910390f35b3480156101a357600080fd5b506101be60048036038101906101b9919061176d565b6105f3565b6040516101cb9190611cd6565b60405180910390f35b3480156101e057600080fd5b506101e961064d565b6040516101f69190611cd6565b60405180910390f35b34801561020b57600080fd5b50610226600480360381019061022191906116ad565b610657565b6040516102339190611ad9565b60405180910390f35b34801561024857600080fd5b50610251610686565b60405161025e9190611d1a565b60405180910390f35b34801561027357600080fd5b5061028e60048036038101906102899190611700565b61068f565b60405161029b9190611ad9565b60405180910390f35b6102be60048036038101906102b9919061176d565b6106c6565b6040516102cb9190611cd6565b60405180910390f35b3480156102e057600080fd5b506102fb60048036038101906102f69190611640565b61093c565b6040516103089190611cd6565b60405180910390f35b34801561031d57600080fd5b50610326610984565b6040516103339190611af4565b60405180910390f35b34801561034857600080fd5b50610351610a16565b60405161035e9190611a5e565b60405180910390f35b34801561037357600080fd5b5061038e6004803603810190610389919061176d565b610a3c565b60405161039c929190611cf1565b60405180910390f35b3480156103b157600080fd5b506103ba610c84565b6040516103c79190611a5e565b60405180910390f35b3480156103dc57600080fd5b506103f760048036038101906103f29190611700565b610caa565b6040516104049190611ad9565b60405180910390f35b34801561041957600080fd5b50610434600480360381019061042f9190611700565b610d21565b6040516104419190611ad9565b60405180910390f35b34801561045657600080fd5b50610471600480360381019061046c919061166d565b610d44565b60405161047e9190611cd6565b60405180910390f35b60606003805461049690611ef9565b80601f01602080910402602001604051908101604052809291908181526020018280546104c290611ef9565b801561050f5780601f106104e45761010080835404028352916020019161050f565b820191906000526020600020905b8154815290600101906020018083116104f257829003601f168201915b5050505050905090565b600080600560009054906101000a900473ffffffffffffffffffffffffffffffffffffffff1673ffffffffffffffffffffffffffffffffffffffff166370a08231306040518263ffffffff1660e01b81526004016105779190611a5e565b60206040518083038186803b15801561058f57600080fd5b505afa1580156105a3573d6000803e3d6000fd5b505050506040513d601f19601f820116820180604052508101906105c7919061179a565b91504790509091565b6000806105db610dcb565b90506105e8818585610dd3565b600191505092915050565b6000808211610637576040517f08c379a000000000000000000000000000000000000000000000000000000000815260040161062e90611c16565b60405180910390fd5b600080610642610519565b915091505050919050565b6000600254905090565b600080610662610dcb565b905061066f858285610f9e565b61067a85858561102a565b60019150509392505050565b60006012905090565b60008061069a610dcb565b90506106bb8185856106ac8589610d44565b6106b69190611d5c565b610dd3565b600191505092915050565b60008060006106d3610519565b9150915060008214156107a0576000600560009054906101000a900473ffffffffffffffffffffffffffffffffffffffff1690508073ffffffffffffffffffffffffffffffffffffffff166323b872dd3330886040518463ffffffff1660e01b815260040161074493929190611a79565b602060405180830381600087803b15801561075e57600080fd5b505af1158015610772573d6000803e3d6000fd5b505050506040513d601f19601f820116820180604052508101906107969190611740565b50819350506108e6565b34816107ac9190611e3d565b905060008183346107bd9190611de3565b6107c79190611db2565b90508085101561080c576040517f08c379a000000000000000000000000000000000000000000000000000000000815260040161080390611b76565b60405180910390fd5b6000600560009054906101000a900473ffffffffffffffffffffffffffffffffffffffff1690508073ffffffffffffffffffffffffffffffffffffffff166323b872dd3330896040518463ffffffff1660e01b815260040161087093929190611a79565b602060405180830381600087803b15801561088a57600080fd5b505af115801561089e573d6000803e3d6000fd5b505050506040513d601f19601f820116820180604052508101906108c29190611740565b5082346108cd61064d565b6108d79190611de3565b6108e19190611db2565b945050505b6108f033846112ab565b83343373ffffffffffffffffffffffffffffffffffffffff167f06239653922ac7bea6aa2b19dc486b9361821d37712eb796adfd38d81de278ca60405160405180910390a45050919050565b60008060008373ffffffffffffffffffffffffffffffffffffffff1673ffffffffffffffffffffffffffffffffffffffff168152602001908152602001600020549050919050565b60606004805461099390611ef9565b80601f01602080910402602001604051908101604052809291908181526020018280546109bf90611ef9565b8015610a0c5780601f106109e157610100808354040283529160200191610a0c565b820191906000526020600020905b8154815290600101906020018083116109ef57829003601f168201915b5050505050905090565b600660009054906101000a900473ffffffffffffffffffffffffffffffffffffffff1681565b60008060008311610a82576040517f08c379a0000000000000000000000000000000000000000000000000000000008152600401610a7990611bd6565b60405180910390fd5b600080610a8d610519565b91509150610a9961064d565b8582610aa59190611de3565b610aaf9190611db2565b9350610ab961064d565b8583610ac59190611de3565b610acf9190611db2565b9250610adb338661140b565b60003373ffffffffffffffffffffffffffffffffffffffff1685604051610b0190611a49565b60006040518083038185875af1925050503d8060008114610b3e576040519150601f19603f3d011682016040523d82523d6000602084013e610b43565b606091505b5050905080610b87576040517f08c379a0000000000000000000000000000000000000000000000000000000008152600401610b7e90611c56565b60405180910390fd5b600560009054906101000a900473ffffffffffffffffffffffffffffffffffffffff1673ffffffffffffffffffffffffffffffffffffffff1663a9059cbb33866040518363ffffffff1660e01b8152600401610be4929190611ab0565b602060405180830381600087803b158015610bfe57600080fd5b505af1158015610c12573d6000803e3d6000fd5b505050506040513d601f19601f82011682018060405250810190610c369190611740565b5083853373ffffffffffffffffffffffffffffffffffffffff167f0fbf06c058b90cb038a618f8c2acbf6145f8b3570fd1fa56abb8f0f3f05b36e860405160405180910390a4505050915091565b600560009054906101000a900473ffffffffffffffffffffffffffffffffffffffff1681565b600080610cb5610dcb565b90506000610cc38286610d44565b905083811015610d08576040517f08c379a0000000000000000000000000000000000000000000000000000000008152600401610cff90611c96565b60405180910390fd5b610d158286868403610dd3565b60019250505092915050565b600080610d2c610dcb565b9050610d3981858561102a565b600191505092915050565b6000600160008473ffffffffffffffffffffffffffffffffffffffff1673ffffffffffffffffffffffffffffffffffffffff16815260200190815260200160002060008373ffffffffffffffffffffffffffffffffffffffff1673ffffffffffffffffffffffffffffffffffffffff16815260200190815260200160002054905092915050565b600033905090565b600073ffffffffffffffffffffffffffffffffffffffff168373ffffffffffffffffffffffffffffffffffffffff161415610e43576040517f08c379a0000000000000000000000000000000000000000000000000000000008152600401610e3a90611c76565b60405180910390fd5b600073ffffffffffffffffffffffffffffffffffffffff168273ffffffffffffffffffffffffffffffffffffffff161415610eb3576040517f08c379a0000000000000000000000000000000000000000000000000000000008152600401610eaa90611b56565b60405180910390fd5b80600160008573ffffffffffffffffffffffffffffffffffffffff1673ffffffffffffffffffffffffffffffffffffffff16815260200190815260200160002060008473ffffffffffffffffffffffffffffffffffffffff1673ffffffffffffffffffffffffffffffffffffffff168152602001908152602001600020819055508173ffffffffffffffffffffffffffffffffffffffff168373ffffffffffffffffffffffffffffffffffffffff167f8c5be1e5ebec7d5bd14f71427d1e84f3dd0314c0f7b2291e5b200ac8c7c3b92583604051610f919190611cd6565b60405180910390a3505050565b6000610faa8484610d44565b90507fffffffffffffffffffffffffffffffffffffffffffffffffffffffffffffffff81146110245781811015611016576040517f08c379a000000000000000000000000000000000000000000000000000000000815260040161100d90611b96565b60405180910390fd5b6110238484848403610dd3565b5b50505050565b600073ffffffffffffffffffffffffffffffffffffffff168373ffffffffffffffffffffffffffffffffffffffff16141561109a576040517f08c379a000000000000000000000000000000000000000000000000000000000815260040161109190611c36565b60405180910390fd5b600073ffffffffffffffffffffffffffffffffffffffff168273ffffffffffffffffffffffffffffffffffffffff16141561110a576040517f08c379a000000000000000000000000000000000000000000000000000000000815260040161110190611b16565b60405180910390fd5b6111158383836115e2565b60008060008573ffffffffffffffffffffffffffffffffffffffff1673ffffffffffffffffffffffffffffffffffffffff1681526020019081526020016000205490508181101561119b576040517f08c379a000000000000000000000000000000000000000000000000000000000815260040161119290611bb6565b60405180910390fd5b8181036000808673ffffffffffffffffffffffffffffffffffffffff1673ffffffffffffffffffffffffffffffffffffffff16815260200190815260200160002081905550816000808573ffffffffffffffffffffffffffffffffffffffff1673ffffffffffffffffffffffffffffffffffffffff168152602001908152602001600020600082825461122e9190611d5c565b925050819055508273ffffffffffffffffffffffffffffffffffffffff168473ffffffffffffffffffffffffffffffffffffffff167fddf252ad1be2c89b69c2b068fc378daa952ba7f163c4a11628f55a4df523b3ef846040516112929190611cd6565b60405180910390a36112a58484846115e7565b50505050565b600073ffffffffffffffffffffffffffffffffffffffff168273ffffffffffffffffffffffffffffffffffffffff16141561131b576040517f08c379a000000000000000000000000000000000000000000000000000000000815260040161131290611cb6565b60405180910390fd5b611327600083836115e2565b80600260008282546113399190611d5c565b92505081905550806000808473ffffffffffffffffffffffffffffffffffffffff1673ffffffffffffffffffffffffffffffffffffffff168152602001908152602001600020600082825461138e9190611d5c565b925050819055508173ffffffffffffffffffffffffffffffffffffffff16600073ffffffffffffffffffffffffffffffffffffffff167fddf252ad1be2c89b69c2b068fc378daa952ba7f163c4a11628f55a4df523b3ef836040516113f39190611cd6565b60405180910390a3611407600083836115e7565b5050565b600073ffffffffffffffffffffffffffffffffffffffff168273ffffffffffffffffffffffffffffffffffffffff16141561147b576040517f08c379a000000000000000000000000000000000000000000000000000000000815260040161147290611bf6565b60405180910390fd5b611487826000836115e2565b60008060008473ffffffffffffffffffffffffffffffffffffffff1673ffffffffffffffffffffffffffffffffffffffff1681526020019081526020016000205490508181101561150d576040517f08c379a000000000000000000000000000000000000000000000000000000000815260040161150490611b36565b60405180910390fd5b8181036000808573ffffffffffffffffffffffffffffffffffffffff1673ffffffffffffffffffffffffffffffffffffffff1681526020019081526020016000208190555081600260008282546115649190611e3d565b92505081905550600073ffffffffffffffffffffffffffffffffffffffff168373ffffffffffffffffffffffffffffffffffffffff167fddf252ad1be2c89b69c2b068fc378daa952ba7f163c4a11628f55a4df523b3ef846040516115c99190611cd6565b60405180910390a36115dd836000846115e7565b505050565b505050565b505050565b6000813590506115fb816123b1565b92915050565b600081519050611610816123c8565b92915050565b600081359050611625816123df565b92915050565b60008151905061163a816123df565b92915050565b60006020828403121561165657611655611fb8565b5b6000611664848285016115ec565b91505092915050565b6000806040838503121561168457611683611fb8565b5b6000611692858286016115ec565b92505060206116a3858286016115ec565b9150509250929050565b6000806000606084860312156116c6576116c5611fb8565b5b60006116d4868287016115ec565b93505060206116e5868287016115ec565b92505060406116f686828701611616565b9150509250925092565b6000806040838503121561171757611716611fb8565b5b6000611725858286016115ec565b925050602061173685828601611616565b9150509250929050565b60006020828403121561175657611755611fb8565b5b600061176484828501611601565b91505092915050565b60006020828403121561178357611782611fb8565b5b600061179184828501611616565b91505092915050565b6000602082840312156117b0576117af611fb8565b5b60006117be8482850161162b565b91505092915050565b6117d081611e71565b82525050565b6117df81611e83565b82525050565b60006117f082611d35565b6117fa8185611d4b565b935061180a818560208601611ec6565b61181381611fbd565b840191505092915050565b600061182b602383611d4b565b915061183682611fce565b604082019050919050565b600061184e602283611d4b565b91506118598261201d565b604082019050919050565b6000611871602283611d4b565b915061187c8261206c565b604082019050919050565b6000611894602983611d4b565b915061189f826120bb565b604082019050919050565b60006118b7601d83611d4b565b91506118c28261210a565b602082019050919050565b60006118da602683611d4b565b91506118e582612133565b604082019050919050565b60006118fd603783611d4b565b915061190882612182565b604082019050919050565b6000611920602183611d4b565b915061192b826121d1565b604082019050919050565b6000611943601983611d4b565b915061194e82612220565b602082019050919050565b6000611966602583611d4b565b915061197182612249565b604082019050919050565b6000611989602583611d4b565b915061199482612298565b604082019050919050565b60006119ac600083611d40565b91506119b7826122e7565b600082019050919050565b60006119cf602483611d4b565b91506119da826122ea565b604082019050919050565b60006119f2602583611d4b565b91506119fd82612339565b604082019050919050565b6000611a15601f83611d4b565b9150611a2082612388565b602082019050919050565b611a3481611eaf565b82525050565b611a4381611eb9565b82525050565b6000611a548261199f565b9150819050919050565b6000602082019050611a7360008301846117c7565b92915050565b6000606082019050611a8e60008301866117c7565b611a9b60208301856117c7565b611aa86040830184611a2b565b949350505050565b6000604082019050611ac560008301856117c7565b611ad26020830184611a2b565b9392505050565b6000602082019050611aee60008301846117d6565b92915050565b60006020820190508181036000830152611b0e81846117e5565b905092915050565b60006020820190508181036000830152611b2f8161181e565b9050919050565b60006020820190508181036000830152611b4f81611841565b9050919050565b60006020820190508181036000830152611b6f81611864565b9050919050565b60006020820190508181036000830152611b8f81611887565b9050919050565b60006020820190508181036000830152611baf816118aa565b9050919050565b60006020820190508181036000830152611bcf816118cd565b9050919050565b60006020820190508181036000830152611bef816118f0565b9050919050565b60006020820190508181036000830152611c0f81611913565b9050919050565b60006020820190508181036000830152611c2f81611936565b9050919050565b60006020820190508181036000830152611c4f81611959565b9050919050565b60006020820190508181036000830152611c6f8161197c565b9050919050565b60006020820190508181036000830152611c8f816119c2565b9050919050565b60006020820190508181036000830152611caf816119e5565b9050919050565b60006020820190508181036000830152611ccf81611a08565b9050919050565b6000602082019050611ceb6000830184611a2b565b92915050565b6000604082019050611d066000830185611a2b565b611d136020830184611a2b565b9392505050565b6000602082019050611d2f6000830184611a3a565b92915050565b600081519050919050565b600081905092915050565b600082825260208201905092915050565b6000611d6782611eaf565b9150611d7283611eaf565b9250827fffffffffffffffffffffffffffffffffffffffffffffffffffffffffffffffff03821115611da757611da6611f2b565b5b828201905092915050565b6000611dbd82611eaf565b9150611dc883611eaf565b925082611dd857611dd7611f5a565b5b828204905092915050565b6000611dee82611eaf565b9150611df983611eaf565b9250817fffffffffffffffffffffffffffffffffffffffffffffffffffffffffffffffff0483118215151615611e3257611e31611f2b565b5b828202905092915050565b6000611e4882611eaf565b9150611e5383611eaf565b925082821015611e6657611e65611f2b565b5b828203905092915050565b6000611e7c82611e8f565b9050919050565b60008115159050919050565b600073ffffffffffffffffffffffffffffffffffffffff82169050919050565b6000819050919050565b600060ff82169050919050565b60005b83811015611ee4578082015181840152602081019050611ec9565b83811115611ef3576000848401525b50505050565b60006002820490506001821680611f1157607f821691505b60208210811415611f2557611f24611f89565b5b50919050565b7f4e487b7100000000000000000000000000000000000000000000000000000000600052601160045260246000fd5b7f4e487b7100000000000000000000000000000000000000000000000000000000600052601260045260246000fd5b7f4e487b7100000000000000000000000000000000000000000000000000000000600052602260045260246000fd5b600080fd5b6000601f19601f8301169050919050565b7f45524332303a207472616e7366657220746f20746865207a65726f206164647260008201527f6573730000000000000000000000000000000000000000000000000000000000602082015250565b7f45524332303a206275726e20616d6f756e7420657863656564732062616c616e60008201527f6365000000000000000000000000000000000000000000000000000000000000602082015250565b7f45524332303a20617070726f766520746f20746865207a65726f20616464726560008201527f7373000000000000000000000000000000000000000000000000000000000000602082015250565b7f496e73756666696369656e7420696e70757420616d6f756e74206f662045524360008201527f323020546f6b656e730000000000000000000000000000000000000000000000602082015250565b7f45524332303a20696e73756666696369656e7420616c6c6f77616e6365000000600082015250565b7f45524332303a207472616e7366657220616d6f756e742065786365656473206260008201527f616c616e63650000000000000000000000000000000000000000000000000000602082015250565b7f506c6561736520696e70757420612076616c696420616d6f756e74206f66204c60008201527f5020546f6b656e7320746f206275726e2f72656465656d000000000000000000602082015250565b7f45524332303a206275726e2066726f6d20746865207a65726f2061646472657360008201527f7300000000000000000000000000000000000000000000000000000000000000602082015250565b7f45544820616d6f756e742063616e6e6f74206265207a65726f00000000000000600082015250565b7f45524332303a207472616e736665722066726f6d20746865207a65726f20616460008201527f6472657373000000000000000000000000000000000000000000000000000000602082015250565b7f5472616e73616374696f6e206f662045746865722077617320756e737563636560008201527f737366756c000000000000000000000000000000000000000000000000000000602082015250565b50565b7f45524332303a20617070726f76652066726f6d20746865207a65726f2061646460008201527f7265737300000000000000000000000000000000000000000000000000000000602082015250565b7f45524332303a2064656372656173656420616c6c6f77616e63652062656c6f7760008201527f207a65726f000000000000000000000000000000000000000000000000000000602082015250565b7f45524332303a206d696e7420746f20746865207a65726f206164647265737300600082015250565b6123ba81611e71565b81146123c557600080fd5b50565b6123d181611e83565b81146123dc57600080fd5b50565b6123e881611eaf565b81146123f357600080fd5b5056fea26469706673582212209214dd256998b882c348874752a5716e262856682a0d1ad537d6d80206e199dd64736f6c63430008070033",
					"opcodes": "PUSH1 0x80 PUSH1 0x40 MSTORE CALLVALUE DUP1 ISZERO PUSH3 0x11 JUMPI PUSH1 0x0 DUP1 REVERT JUMPDEST POP PUSH1 0x40 MLOAD PUSH3 0x2843 CODESIZE SUB DUP1 PUSH3 0x2843 DUP4 CODECOPY DUP2 DUP2 ADD PUSH1 0x40 MSTORE DUP2 ADD SWAP1 PUSH3 0x37 SWAP2 SWAP1 PUSH3 0x29A JUMP JUMPDEST PUSH1 0x40 MLOAD DUP1 PUSH1 0x40 ADD PUSH1 0x40 MSTORE DUP1 PUSH1 0x7 DUP2 MSTORE PUSH1 0x20 ADD PUSH32 0x5377617020563100000000000000000000000000000000000000000000000000 DUP2 MSTORE POP PUSH1 0x40 MLOAD DUP1 PUSH1 0x40 ADD PUSH1 0x40 MSTORE DUP1 PUSH1 0x7 DUP2 MSTORE PUSH1 0x20 ADD PUSH32 0x537761702D563100000000000000000000000000000000000000000000000000 DUP2 MSTORE POP DUP2 PUSH1 0x3 SWAP1 DUP1 MLOAD SWAP1 PUSH1 0x20 ADD SWAP1 PUSH3 0xBB SWAP3 SWAP2 SWAP1 PUSH3 0x1D3 JUMP JUMPDEST POP DUP1 PUSH1 0x4 SWAP1 DUP1 MLOAD SWAP1 PUSH1 0x20 ADD SWAP1 PUSH3 0xD4 SWAP3 SWAP2 SWAP1 PUSH3 0x1D3 JUMP JUMPDEST POP POP POP PUSH1 0x0 PUSH20 0xFFFFFFFFFFFFFFFFFFFFFFFFFFFFFFFFFFFFFFFF AND DUP2 PUSH20 0xFFFFFFFFFFFFFFFFFFFFFFFFFFFFFFFFFFFFFFFF AND EQ ISZERO PUSH3 0x14A JUMPI PUSH1 0x40 MLOAD PUSH32 0x8C379A000000000000000000000000000000000000000000000000000000000 DUP2 MSTORE PUSH1 0x4 ADD PUSH3 0x141 SWAP1 PUSH3 0x2F3 JUMP JUMPDEST PUSH1 0x40 MLOAD DUP1 SWAP2 SUB SWAP1 REVERT JUMPDEST DUP1 PUSH1 0x5 PUSH1 0x0 PUSH2 0x100 EXP DUP2 SLOAD DUP2 PUSH20 0xFFFFFFFFFFFFFFFFFFFFFFFFFFFFFFFFFFFFFFFF MUL NOT AND SWAP1 DUP4 PUSH20 0xFFFFFFFFFFFFFFFFFFFFFFFFFFFFFFFFFFFFFFFF AND MUL OR SWAP1 SSTORE POP CALLER PUSH1 0x6 PUSH1 0x0 PUSH2 0x100 EXP DUP2 SLOAD DUP2 PUSH20 0xFFFFFFFFFFFFFFFFFFFFFFFFFFFFFFFFFFFFFFFF MUL NOT AND SWAP1 DUP4 PUSH20 0xFFFFFFFFFFFFFFFFFFFFFFFFFFFFFFFFFFFFFFFF AND MUL OR SWAP1 SSTORE POP POP PUSH3 0x407 JUMP JUMPDEST DUP3 DUP1 SLOAD PUSH3 0x1E1 SWAP1 PUSH3 0x35A JUMP JUMPDEST SWAP1 PUSH1 0x0 MSTORE PUSH1 0x20 PUSH1 0x0 KECCAK256 SWAP1 PUSH1 0x1F ADD PUSH1 0x20 SWAP1 DIV DUP2 ADD SWAP3 DUP3 PUSH3 0x205 JUMPI PUSH1 0x0 DUP6 SSTORE PUSH3 0x251 JUMP JUMPDEST DUP3 PUSH1 0x1F LT PUSH3 0x220 JUMPI DUP1 MLOAD PUSH1 0xFF NOT AND DUP4 DUP1 ADD OR DUP6 SSTORE PUSH3 0x251 JUMP JUMPDEST DUP3 DUP1 ADD PUSH1 0x1 ADD DUP6 SSTORE DUP3 ISZERO PUSH3 0x251 JUMPI SWAP2 DUP3 ADD JUMPDEST DUP3 DUP2 GT ISZERO PUSH3 0x250 JUMPI DUP3 MLOAD DUP3 SSTORE SWAP2 PUSH1 0x20 ADD SWAP2 SWAP1 PUSH1 0x1 ADD SWAP1 PUSH3 0x233 JUMP JUMPDEST JUMPDEST POP SWAP1 POP PUSH3 0x260 SWAP2 SWAP1 PUSH3 0x264 JUMP JUMPDEST POP SWAP1 JUMP JUMPDEST JUMPDEST DUP1 DUP3 GT ISZERO PUSH3 0x27F JUMPI PUSH1 0x0 DUP2 PUSH1 0x0 SWAP1 SSTORE POP PUSH1 0x1 ADD PUSH3 0x265 JUMP JUMPDEST POP SWAP1 JUMP JUMPDEST PUSH1 0x0 DUP2 MLOAD SWAP1 POP PUSH3 0x294 DUP2 PUSH3 0x3ED JUMP JUMPDEST SWAP3 SWAP2 POP POP JUMP JUMPDEST PUSH1 0x0 PUSH1 0x20 DUP3 DUP5 SUB SLT ISZERO PUSH3 0x2B3 JUMPI PUSH3 0x2B2 PUSH3 0x3BF JUMP JUMPDEST JUMPDEST PUSH1 0x0 PUSH3 0x2C3 DUP5 DUP3 DUP6 ADD PUSH3 0x283 JUMP JUMPDEST SWAP2 POP POP SWAP3 SWAP2 POP POP JUMP JUMPDEST PUSH1 0x0 PUSH3 0x2DB PUSH1 0xF DUP4 PUSH3 0x315 JUMP JUMPDEST SWAP2 POP PUSH3 0x2E8 DUP3 PUSH3 0x3C4 JUMP JUMPDEST PUSH1 0x20 DUP3 ADD SWAP1 POP SWAP2 SWAP1 POP JUMP JUMPDEST PUSH1 0x0 PUSH1 0x20 DUP3 ADD SWAP1 POP DUP2 DUP2 SUB PUSH1 0x0 DUP4 ADD MSTORE PUSH3 0x30E DUP2 PUSH3 0x2CC JUMP JUMPDEST SWAP1 POP SWAP2 SWAP1 POP JUMP JUMPDEST PUSH1 0x0 DUP3 DUP3 MSTORE PUSH1 0x20 DUP3 ADD SWAP1 POP SWAP3 SWAP2 POP POP JUMP JUMPDEST PUSH1 0x0 PUSH3 0x333 DUP3 PUSH3 0x33A JUMP JUMPDEST SWAP1 POP SWAP2 SWAP1 POP JUMP JUMPDEST PUSH1 0x0 PUSH20 0xFFFFFFFFFFFFFFFFFFFFFFFFFFFFFFFFFFFFFFFF DUP3 AND SWAP1 POP SWAP2 SWAP1 POP JUMP JUMPDEST PUSH1 0x0 PUSH1 0x2 DUP3 DIV SWAP1 POP PUSH1 0x1 DUP3 AND DUP1 PUSH3 0x373 JUMPI PUSH1 0x7F DUP3 AND SWAP2 POP JUMPDEST PUSH1 0x20 DUP3 LT DUP2 EQ ISZERO PUSH3 0x38A JUMPI PUSH3 0x389 PUSH3 0x390 JUMP JUMPDEST JUMPDEST POP SWAP2 SWAP1 POP JUMP JUMPDEST PUSH32 0x4E487B7100000000000000000000000000000000000000000000000000000000 PUSH1 0x0 MSTORE PUSH1 0x22 PUSH1 0x4 MSTORE PUSH1 0x24 PUSH1 0x0 REVERT JUMPDEST PUSH1 0x0 DUP1 REVERT JUMPDEST PUSH32 0x496E76616C696420616464726573730000000000000000000000000000000000 PUSH1 0x0 DUP3 ADD MSTORE POP JUMP JUMPDEST PUSH3 0x3F8 DUP2 PUSH3 0x326 JUMP JUMPDEST DUP2 EQ PUSH3 0x404 JUMPI PUSH1 0x0 DUP1 REVERT JUMPDEST POP JUMP JUMPDEST PUSH2 0x242C DUP1 PUSH3 0x417 PUSH1 0x0 CODECOPY PUSH1 0x0 RETURN INVALID PUSH1 0x80 PUSH1 0x40 MSTORE PUSH1 0x4 CALLDATASIZE LT PUSH2 0xFE JUMPI PUSH1 0x0 CALLDATALOAD PUSH1 0xE0 SHR DUP1 PUSH4 0x51C6590A GT PUSH2 0x95 JUMPI DUP1 PUSH4 0x9C8F9F23 GT PUSH2 0x64 JUMPI DUP1 PUSH4 0x9C8F9F23 EQ PUSH2 0x367 JUMPI DUP1 PUSH4 0x9D76EA58 EQ PUSH2 0x3A5 JUMPI DUP1 PUSH4 0xA457C2D7 EQ PUSH2 0x3D0 JUMPI DUP1 PUSH4 0xA9059CBB EQ PUSH2 0x40D JUMPI DUP1 PUSH4 0xDD62ED3E EQ PUSH2 0x44A JUMPI PUSH2 0xFE JUMP JUMPDEST DUP1 PUSH4 0x51C6590A EQ PUSH2 0x2A4 JUMPI DUP1 PUSH4 0x70A08231 EQ PUSH2 0x2D4 JUMPI DUP1 PUSH4 0x95D89B41 EQ PUSH2 0x311 JUMPI DUP1 PUSH4 0x966DAE0E EQ PUSH2 0x33C JUMPI PUSH2 0xFE JUMP JUMPDEST DUP1 PUSH4 0x18160DDD GT PUSH2 0xD1 JUMPI DUP1 PUSH4 0x18160DDD EQ PUSH2 0x1D4 JUMPI DUP1 PUSH4 0x23B872DD EQ PUSH2 0x1FF JUMPI DUP1 PUSH4 0x313CE567 EQ PUSH2 0x23C JUMPI DUP1 PUSH4 0x39509351 EQ PUSH2 0x267 JUMPI PUSH2 0xFE JUMP JUMPDEST DUP1 PUSH4 0x6FDDE03 EQ PUSH2 0x103 JUMPI DUP1 PUSH4 0x902F1AC EQ PUSH2 0x12E JUMPI DUP1 PUSH4 0x95EA7B3 EQ PUSH2 0x15A JUMPI DUP1 PUSH4 0xF8070B4 EQ PUSH2 0x197 JUMPI JUMPDEST PUSH1 0x0 DUP1 REVERT JUMPDEST CALLVALUE DUP1 ISZERO PUSH2 0x10F JUMPI PUSH1 0x0 DUP1 REVERT JUMPDEST POP PUSH2 0x118 PUSH2 0x487 JUMP JUMPDEST PUSH1 0x40 MLOAD PUSH2 0x125 SWAP2 SWAP1 PUSH2 0x1AF4 JUMP JUMPDEST PUSH1 0x40 MLOAD DUP1 SWAP2 SUB SWAP1 RETURN JUMPDEST CALLVALUE DUP1 ISZERO PUSH2 0x13A JUMPI PUSH1 0x0 DUP1 REVERT JUMPDEST POP PUSH2 0x143 PUSH2 0x519 JUMP JUMPDEST PUSH1 0x40 MLOAD PUSH2 0x151 SWAP3 SWAP2 SWAP1 PUSH2 0x1CF1 JUMP JUMPDEST PUSH1 0x40 MLOAD DUP1 SWAP2 SUB SWAP1 RETURN JUMPDEST CALLVALUE DUP1 ISZERO PUSH2 0x166 JUMPI PUSH1 0x0 DUP1 REVERT JUMPDEST POP PUSH2 0x181 PUSH1 0x4 DUP1 CALLDATASIZE SUB DUP2 ADD SWAP1 PUSH2 0x17C SWAP2 SWAP1 PUSH2 0x1700 JUMP JUMPDEST PUSH2 0x5D0 JUMP JUMPDEST PUSH1 0x40 MLOAD PUSH2 0x18E SWAP2 SWAP1 PUSH2 0x1AD9 JUMP JUMPDEST PUSH1 0x40 MLOAD DUP1 SWAP2 SUB SWAP1 RETURN JUMPDEST CALLVALUE DUP1 ISZERO PUSH2 0x1A3 JUMPI PUSH1 0x0 DUP1 REVERT JUMPDEST POP PUSH2 0x1BE PUSH1 0x4 DUP1 CALLDATASIZE SUB DUP2 ADD SWAP1 PUSH2 0x1B9 SWAP2 SWAP1 PUSH2 0x176D JUMP JUMPDEST PUSH2 0x5F3 JUMP JUMPDEST PUSH1 0x40 MLOAD PUSH2 0x1CB SWAP2 SWAP1 PUSH2 0x1CD6 JUMP JUMPDEST PUSH1 0x40 MLOAD DUP1 SWAP2 SUB SWAP1 RETURN JUMPDEST CALLVALUE DUP1 ISZERO PUSH2 0x1E0 JUMPI PUSH1 0x0 DUP1 REVERT JUMPDEST POP PUSH2 0x1E9 PUSH2 0x64D JUMP JUMPDEST PUSH1 0x40 MLOAD PUSH2 0x1F6 SWAP2 SWAP1 PUSH2 0x1CD6 JUMP JUMPDEST PUSH1 0x40 MLOAD DUP1 SWAP2 SUB SWAP1 RETURN JUMPDEST CALLVALUE DUP1 ISZERO PUSH2 0x20B JUMPI PUSH1 0x0 DUP1 REVERT JUMPDEST POP PUSH2 0x226 PUSH1 0x4 DUP1 CALLDATASIZE SUB DUP2 ADD SWAP1 PUSH2 0x221 SWAP2 SWAP1 PUSH2 0x16AD JUMP JUMPDEST PUSH2 0x657 JUMP JUMPDEST PUSH1 0x40 MLOAD PUSH2 0x233 SWAP2 SWAP1 PUSH2 0x1AD9 JUMP JUMPDEST PUSH1 0x40 MLOAD DUP1 SWAP2 SUB SWAP1 RETURN JUMPDEST CALLVALUE DUP1 ISZERO PUSH2 0x248 JUMPI PUSH1 0x0 DUP1 REVERT JUMPDEST POP PUSH2 0x251 PUSH2 0x686 JUMP JUMPDEST PUSH1 0x40 MLOAD PUSH2 0x25E SWAP2 SWAP1 PUSH2 0x1D1A JUMP JUMPDEST PUSH1 0x40 MLOAD DUP1 SWAP2 SUB SWAP1 RETURN JUMPDEST CALLVALUE DUP1 ISZERO PUSH2 0x273 JUMPI PUSH1 0x0 DUP1 REVERT JUMPDEST POP PUSH2 0x28E PUSH1 0x4 DUP1 CALLDATASIZE SUB DUP2 ADD SWAP1 PUSH2 0x289 SWAP2 SWAP1 PUSH2 0x1700 JUMP JUMPDEST PUSH2 0x68F JUMP JUMPDEST PUSH1 0x40 MLOAD PUSH2 0x29B SWAP2 SWAP1 PUSH2 0x1AD9 JUMP JUMPDEST PUSH1 0x40 MLOAD DUP1 SWAP2 SUB SWAP1 RETURN JUMPDEST PUSH2 0x2BE PUSH1 0x4 DUP1 CALLDATASIZE SUB DUP2 ADD SWAP1 PUSH2 0x2B9 SWAP2 SWAP1 PUSH2 0x176D JUMP JUMPDEST PUSH2 0x6C6 JUMP JUMPDEST PUSH1 0x40 MLOAD PUSH2 0x2CB SWAP2 SWAP1 PUSH2 0x1CD6 JUMP JUMPDEST PUSH1 0x40 MLOAD DUP1 SWAP2 SUB SWAP1 RETURN JUMPDEST CALLVALUE DUP1 ISZERO PUSH2 0x2E0 JUMPI PUSH1 0x0 DUP1 REVERT JUMPDEST POP PUSH2 0x2FB PUSH1 0x4 DUP1 CALLDATASIZE SUB DUP2 ADD SWAP1 PUSH2 0x2F6 SWAP2 SWAP1 PUSH2 0x1640 JUMP JUMPDEST PUSH2 0x93C JUMP JUMPDEST PUSH1 0x40 MLOAD PUSH2 0x308 SWAP2 SWAP1 PUSH2 0x1CD6 JUMP JUMPDEST PUSH1 0x40 MLOAD DUP1 SWAP2 SUB SWAP1 RETURN JUMPDEST CALLVALUE DUP1 ISZERO PUSH2 0x31D JUMPI PUSH1 0x0 DUP1 REVERT JUMPDEST POP PUSH2 0x326 PUSH2 0x984 JUMP JUMPDEST PUSH1 0x40 MLOAD PUSH2 0x333 SWAP2 SWAP1 PUSH2 0x1AF4 JUMP JUMPDEST PUSH1 0x40 MLOAD DUP1 SWAP2 SUB SWAP1 RETURN JUMPDEST CALLVALUE DUP1 ISZERO PUSH2 0x348 JUMPI PUSH1 0x0 DUP1 REVERT JUMPDEST POP PUSH2 0x351 PUSH2 0xA16 JUMP JUMPDEST PUSH1 0x40 MLOAD PUSH2 0x35E SWAP2 SWAP1 PUSH2 0x1A5E JUMP JUMPDEST PUSH1 0x40 MLOAD DUP1 SWAP2 SUB SWAP1 RETURN JUMPDEST CALLVALUE DUP1 ISZERO PUSH2 0x373 JUMPI PUSH1 0x0 DUP1 REVERT JUMPDEST POP PUSH2 0x38E PUSH1 0x4 DUP1 CALLDATASIZE SUB DUP2 ADD SWAP1 PUSH2 0x389 SWAP2 SWAP1 PUSH2 0x176D JUMP JUMPDEST PUSH2 0xA3C JUMP JUMPDEST PUSH1 0x40 MLOAD PUSH2 0x39C SWAP3 SWAP2 SWAP1 PUSH2 0x1CF1 JUMP JUMPDEST PUSH1 0x40 MLOAD DUP1 SWAP2 SUB SWAP1 RETURN JUMPDEST CALLVALUE DUP1 ISZERO PUSH2 0x3B1 JUMPI PUSH1 0x0 DUP1 REVERT JUMPDEST POP PUSH2 0x3BA PUSH2 0xC84 JUMP JUMPDEST PUSH1 0x40 MLOAD PUSH2 0x3C7 SWAP2 SWAP1 PUSH2 0x1A5E JUMP JUMPDEST PUSH1 0x40 MLOAD DUP1 SWAP2 SUB SWAP1 RETURN JUMPDEST CALLVALUE DUP1 ISZERO PUSH2 0x3DC JUMPI PUSH1 0x0 DUP1 REVERT JUMPDEST POP PUSH2 0x3F7 PUSH1 0x4 DUP1 CALLDATASIZE SUB DUP2 ADD SWAP1 PUSH2 0x3F2 SWAP2 SWAP1 PUSH2 0x1700 JUMP JUMPDEST PUSH2 0xCAA JUMP JUMPDEST PUSH1 0x40 MLOAD PUSH2 0x404 SWAP2 SWAP1 PUSH2 0x1AD9 JUMP JUMPDEST PUSH1 0x40 MLOAD DUP1 SWAP2 SUB SWAP1 RETURN JUMPDEST CALLVALUE DUP1 ISZERO PUSH2 0x419 JUMPI PUSH1 0x0 DUP1 REVERT JUMPDEST POP PUSH2 0x434 PUSH1 0x4 DUP1 CALLDATASIZE SUB DUP2 ADD SWAP1 PUSH2 0x42F SWAP2 SWAP1 PUSH2 0x1700 JUMP JUMPDEST PUSH2 0xD21 JUMP JUMPDEST PUSH1 0x40 MLOAD PUSH2 0x441 SWAP2 SWAP1 PUSH2 0x1AD9 JUMP JUMPDEST PUSH1 0x40 MLOAD DUP1 SWAP2 SUB SWAP1 RETURN JUMPDEST CALLVALUE DUP1 ISZERO PUSH2 0x456 JUMPI PUSH1 0x0 DUP1 REVERT JUMPDEST POP PUSH2 0x471 PUSH1 0x4 DUP1 CALLDATASIZE SUB DUP2 ADD SWAP1 PUSH2 0x46C SWAP2 SWAP1 PUSH2 0x166D JUMP JUMPDEST PUSH2 0xD44 JUMP JUMPDEST PUSH1 0x40 MLOAD PUSH2 0x47E SWAP2 SWAP1 PUSH2 0x1CD6 JUMP JUMPDEST PUSH1 0x40 MLOAD DUP1 SWAP2 SUB SWAP1 RETURN JUMPDEST PUSH1 0x60 PUSH1 0x3 DUP1 SLOAD PUSH2 0x496 SWAP1 PUSH2 0x1EF9 JUMP JUMPDEST DUP1 PUSH1 0x1F ADD PUSH1 0x20 DUP1 SWAP2 DIV MUL PUSH1 0x20 ADD PUSH1 0x40 MLOAD SWAP1 DUP2 ADD PUSH1 0x40 MSTORE DUP1 SWAP3 SWAP2 SWAP1 DUP2 DUP2 MSTORE PUSH1 0x20 ADD DUP3 DUP1 SLOAD PUSH2 0x4C2 SWAP1 PUSH2 0x1EF9 JUMP JUMPDEST DUP1 ISZERO PUSH2 0x50F JUMPI DUP1 PUSH1 0x1F LT PUSH2 0x4E4 JUMPI PUSH2 0x100 DUP1 DUP4 SLOAD DIV MUL DUP4 MSTORE SWAP2 PUSH1 0x20 ADD SWAP2 PUSH2 0x50F JUMP JUMPDEST DUP3 ADD SWAP2 SWAP1 PUSH1 0x0 MSTORE PUSH1 0x20 PUSH1 0x0 KECCAK256 SWAP1 JUMPDEST DUP2 SLOAD DUP2 MSTORE SWAP1 PUSH1 0x1 ADD SWAP1 PUSH1 0x20 ADD DUP1 DUP4 GT PUSH2 0x4F2 JUMPI DUP3 SWAP1 SUB PUSH1 0x1F AND DUP3 ADD SWAP2 JUMPDEST POP POP POP POP POP SWAP1 POP SWAP1 JUMP JUMPDEST PUSH1 0x0 DUP1 PUSH1 0x5 PUSH1 0x0 SWAP1 SLOAD SWAP1 PUSH2 0x100 EXP SWAP1 DIV PUSH20 0xFFFFFFFFFFFFFFFFFFFFFFFFFFFFFFFFFFFFFFFF AND PUSH20 0xFFFFFFFFFFFFFFFFFFFFFFFFFFFFFFFFFFFFFFFF AND PUSH4 0x70A08231 ADDRESS PUSH1 0x40 MLOAD DUP3 PUSH4 0xFFFFFFFF AND PUSH1 0xE0 SHL DUP2 MSTORE PUSH1 0x4 ADD PUSH2 0x577 SWAP2 SWAP1 PUSH2 0x1A5E JUMP JUMPDEST PUSH1 0x20 PUSH1 0x40 MLOAD DUP1 DUP4 SUB DUP2 DUP7 DUP1 EXTCODESIZE ISZERO DUP1 ISZERO PUSH2 0x58F JUMPI PUSH1 0x0 DUP1 REVERT JUMPDEST POP GAS STATICCALL ISZERO DUP1 ISZERO PUSH2 0x5A3 JUMPI RETURNDATASIZE PUSH1 0x0 DUP1 RETURNDATACOPY RETURNDATASIZE PUSH1 0x0 REVERT JUMPDEST POP POP POP POP PUSH1 0x40 MLOAD RETURNDATASIZE PUSH1 0x1F NOT PUSH1 0x1F DUP3 ADD AND DUP3 ADD DUP1 PUSH1 0x40 MSTORE POP DUP2 ADD SWAP1 PUSH2 0x5C7 SWAP2 SWAP1 PUSH2 0x179A JUMP JUMPDEST SWAP2 POP SELFBALANCE SWAP1 POP SWAP1 SWAP2 JUMP JUMPDEST PUSH1 0x0 DUP1 PUSH2 0x5DB PUSH2 0xDCB JUMP JUMPDEST SWAP1 POP PUSH2 0x5E8 DUP2 DUP6 DUP6 PUSH2 0xDD3 JUMP JUMPDEST PUSH1 0x1 SWAP2 POP POP SWAP3 SWAP2 POP POP JUMP JUMPDEST PUSH1 0x0 DUP1 DUP3 GT PUSH2 0x637 JUMPI PUSH1 0x40 MLOAD PUSH32 0x8C379A000000000000000000000000000000000000000000000000000000000 DUP2 MSTORE PUSH1 0x4 ADD PUSH2 0x62E SWAP1 PUSH2 0x1C16 JUMP JUMPDEST PUSH1 0x40 MLOAD DUP1 SWAP2 SUB SWAP1 REVERT JUMPDEST PUSH1 0x0 DUP1 PUSH2 0x642 PUSH2 0x519 JUMP JUMPDEST SWAP2 POP SWAP2 POP POP POP SWAP2 SWAP1 POP JUMP JUMPDEST PUSH1 0x0 PUSH1 0x2 SLOAD SWAP1 POP SWAP1 JUMP JUMPDEST PUSH1 0x0 DUP1 PUSH2 0x662 PUSH2 0xDCB JUMP JUMPDEST SWAP1 POP PUSH2 0x66F DUP6 DUP3 DUP6 PUSH2 0xF9E JUMP JUMPDEST PUSH2 0x67A DUP6 DUP6 DUP6 PUSH2 0x102A JUMP JUMPDEST PUSH1 0x1 SWAP2 POP POP SWAP4 SWAP3 POP POP POP JUMP JUMPDEST PUSH1 0x0 PUSH1 0x12 SWAP1 POP SWAP1 JUMP JUMPDEST PUSH1 0x0 DUP1 PUSH2 0x69A PUSH2 0xDCB JUMP JUMPDEST SWAP1 POP PUSH2 0x6BB DUP2 DUP6 DUP6 PUSH2 0x6AC DUP6 DUP10 PUSH2 0xD44 JUMP JUMPDEST PUSH2 0x6B6 SWAP2 SWAP1 PUSH2 0x1D5C JUMP JUMPDEST PUSH2 0xDD3 JUMP JUMPDEST PUSH1 0x1 SWAP2 POP POP SWAP3 SWAP2 POP POP JUMP JUMPDEST PUSH1 0x0 DUP1 PUSH1 0x0 PUSH2 0x6D3 PUSH2 0x519 JUMP JUMPDEST SWAP2 POP SWAP2 POP PUSH1 0x0 DUP3 EQ ISZERO PUSH2 0x7A0 JUMPI PUSH1 0x0 PUSH1 0x5 PUSH1 0x0 SWAP1 SLOAD SWAP1 PUSH2 0x100 EXP SWAP1 DIV PUSH20 0xFFFFFFFFFFFFFFFFFFFFFFFFFFFFFFFFFFFFFFFF AND SWAP1 POP DUP1 PUSH20 0xFFFFFFFFFFFFFFFFFFFFFFFFFFFFFFFFFFFFFFFF AND PUSH4 0x23B872DD CALLER ADDRESS DUP9 PUSH1 0x40 MLOAD DUP5 PUSH4 0xFFFFFFFF AND PUSH1 0xE0 SHL DUP2 MSTORE PUSH1 0x4 ADD PUSH2 0x744 SWAP4 SWAP3 SWAP2 SWAP1 PUSH2 0x1A79 JUMP JUMPDEST PUSH1 0x20 PUSH1 0x40 MLOAD DUP1 DUP4 SUB DUP2 PUSH1 0x0 DUP8 DUP1 EXTCODESIZE ISZERO DUP1 ISZERO PUSH2 0x75E JUMPI PUSH1 0x0 DUP1 REVERT JUMPDEST POP GAS CALL ISZERO DUP1 ISZERO PUSH2 0x772 JUMPI RETURNDATASIZE PUSH1 0x0 DUP1 RETURNDATACOPY RETURNDATASIZE PUSH1 0x0 REVERT JUMPDEST POP POP POP POP PUSH1 0x40 MLOAD RETURNDATASIZE PUSH1 0x1F NOT PUSH1 0x1F DUP3 ADD AND DUP3 ADD DUP1 PUSH1 0x40 MSTORE POP DUP2 ADD SWAP1 PUSH2 0x796 SWAP2 SWAP1 PUSH2 0x1740 JUMP JUMPDEST POP DUP2 SWAP4 POP POP PUSH2 0x8E6 JUMP JUMPDEST CALLVALUE DUP2 PUSH2 0x7AC SWAP2 SWAP1 PUSH2 0x1E3D JUMP JUMPDEST SWAP1 POP PUSH1 0x0 DUP2 DUP4 CALLVALUE PUSH2 0x7BD SWAP2 SWAP1 PUSH2 0x1DE3 JUMP JUMPDEST PUSH2 0x7C7 SWAP2 SWAP1 PUSH2 0x1DB2 JUMP JUMPDEST SWAP1 POP DUP1 DUP6 LT ISZERO PUSH2 0x80C JUMPI PUSH1 0x40 MLOAD PUSH32 0x8C379A000000000000000000000000000000000000000000000000000000000 DUP2 MSTORE PUSH1 0x4 ADD PUSH2 0x803 SWAP1 PUSH2 0x1B76 JUMP JUMPDEST PUSH1 0x40 MLOAD DUP1 SWAP2 SUB SWAP1 REVERT JUMPDEST PUSH1 0x0 PUSH1 0x5 PUSH1 0x0 SWAP1 SLOAD SWAP1 PUSH2 0x100 EXP SWAP1 DIV PUSH20 0xFFFFFFFFFFFFFFFFFFFFFFFFFFFFFFFFFFFFFFFF AND SWAP1 POP DUP1 PUSH20 0xFFFFFFFFFFFFFFFFFFFFFFFFFFFFFFFFFFFFFFFF AND PUSH4 0x23B872DD CALLER ADDRESS DUP10 PUSH1 0x40 MLOAD DUP5 PUSH4 0xFFFFFFFF AND PUSH1 0xE0 SHL DUP2 MSTORE PUSH1 0x4 ADD PUSH2 0x870 SWAP4 SWAP3 SWAP2 SWAP1 PUSH2 0x1A79 JUMP JUMPDEST PUSH1 0x20 PUSH1 0x40 MLOAD DUP1 DUP4 SUB DUP2 PUSH1 0x0 DUP8 DUP1 EXTCODESIZE ISZERO DUP1 ISZERO PUSH2 0x88A JUMPI PUSH1 0x0 DUP1 REVERT JUMPDEST POP GAS CALL ISZERO DUP1 ISZERO PUSH2 0x89E JUMPI RETURNDATASIZE PUSH1 0x0 DUP1 RETURNDATACOPY RETURNDATASIZE PUSH1 0x0 REVERT JUMPDEST POP POP POP POP PUSH1 0x40 MLOAD RETURNDATASIZE PUSH1 0x1F NOT PUSH1 0x1F DUP3 ADD AND DUP3 ADD DUP1 PUSH1 0x40 MSTORE POP DUP2 ADD SWAP1 PUSH2 0x8C2 SWAP2 SWAP1 PUSH2 0x1740 JUMP JUMPDEST POP DUP3 CALLVALUE PUSH2 0x8CD PUSH2 0x64D JUMP JUMPDEST PUSH2 0x8D7 SWAP2 SWAP1 PUSH2 0x1DE3 JUMP JUMPDEST PUSH2 0x8E1 SWAP2 SWAP1 PUSH2 0x1DB2 JUMP JUMPDEST SWAP5 POP POP POP JUMPDEST PUSH2 0x8F0 CALLER DUP5 PUSH2 0x12AB JUMP JUMPDEST DUP4 CALLVALUE CALLER PUSH20 0xFFFFFFFFFFFFFFFFFFFFFFFFFFFFFFFFFFFFFFFF AND PUSH32 0x6239653922AC7BEA6AA2B19DC486B9361821D37712EB796ADFD38D81DE278CA PUSH1 0x40 MLOAD PUSH1 0x40 MLOAD DUP1 SWAP2 SUB SWAP1 LOG4 POP POP SWAP2 SWAP1 POP JUMP JUMPDEST PUSH1 0x0 DUP1 PUSH1 0x0 DUP4 PUSH20 0xFFFFFFFFFFFFFFFFFFFFFFFFFFFFFFFFFFFFFFFF AND PUSH20 0xFFFFFFFFFFFFFFFFFFFFFFFFFFFFFFFFFFFFFFFF AND DUP2 MSTORE PUSH1 0x20 ADD SWAP1 DUP2 MSTORE PUSH1 0x20 ADD PUSH1 0x0 KECCAK256 SLOAD SWAP1 POP SWAP2 SWAP1 POP JUMP JUMPDEST PUSH1 0x60 PUSH1 0x4 DUP1 SLOAD PUSH2 0x993 SWAP1 PUSH2 0x1EF9 JUMP JUMPDEST DUP1 PUSH1 0x1F ADD PUSH1 0x20 DUP1 SWAP2 DIV MUL PUSH1 0x20 ADD PUSH1 0x40 MLOAD SWAP1 DUP2 ADD PUSH1 0x40 MSTORE DUP1 SWAP3 SWAP2 SWAP1 DUP2 DUP2 MSTORE PUSH1 0x20 ADD DUP3 DUP1 SLOAD PUSH2 0x9BF SWAP1 PUSH2 0x1EF9 JUMP JUMPDEST DUP1 ISZERO PUSH2 0xA0C JUMPI DUP1 PUSH1 0x1F LT PUSH2 0x9E1 JUMPI PUSH2 0x100 DUP1 DUP4 SLOAD DIV MUL DUP4 MSTORE SWAP2 PUSH1 0x20 ADD SWAP2 PUSH2 0xA0C JUMP JUMPDEST DUP3 ADD SWAP2 SWAP1 PUSH1 0x0 MSTORE PUSH1 0x20 PUSH1 0x0 KECCAK256 SWAP1 JUMPDEST DUP2 SLOAD DUP2 MSTORE SWAP1 PUSH1 0x1 ADD SWAP1 PUSH1 0x20 ADD DUP1 DUP4 GT PUSH2 0x9EF JUMPI DUP3 SWAP1 SUB PUSH1 0x1F AND DUP3 ADD SWAP2 JUMPDEST POP POP POP POP POP SWAP1 POP SWAP1 JUMP JUMPDEST PUSH1 0x6 PUSH1 0x0 SWAP1 SLOAD SWAP1 PUSH2 0x100 EXP SWAP1 DIV PUSH20 0xFFFFFFFFFFFFFFFFFFFFFFFFFFFFFFFFFFFFFFFF AND DUP2 JUMP JUMPDEST PUSH1 0x0 DUP1 PUSH1 0x0 DUP4 GT PUSH2 0xA82 JUMPI PUSH1 0x40 MLOAD PUSH32 0x8C379A000000000000000000000000000000000000000000000000000000000 DUP2 MSTORE PUSH1 0x4 ADD PUSH2 0xA79 SWAP1 PUSH2 0x1BD6 JUMP JUMPDEST PUSH1 0x40 MLOAD DUP1 SWAP2 SUB SWAP1 REVERT JUMPDEST PUSH1 0x0 DUP1 PUSH2 0xA8D PUSH2 0x519 JUMP JUMPDEST SWAP2 POP SWAP2 POP PUSH2 0xA99 PUSH2 0x64D JUMP JUMPDEST DUP6 DUP3 PUSH2 0xAA5 SWAP2 SWAP1 PUSH2 0x1DE3 JUMP JUMPDEST PUSH2 0xAAF SWAP2 SWAP1 PUSH2 0x1DB2 JUMP JUMPDEST SWAP4 POP PUSH2 0xAB9 PUSH2 0x64D JUMP JUMPDEST DUP6 DUP4 PUSH2 0xAC5 SWAP2 SWAP1 PUSH2 0x1DE3 JUMP JUMPDEST PUSH2 0xACF SWAP2 SWAP1 PUSH2 0x1DB2 JUMP JUMPDEST SWAP3 POP PUSH2 0xADB CALLER DUP7 PUSH2 0x140B JUMP JUMPDEST PUSH1 0x0 CALLER PUSH20 0xFFFFFFFFFFFFFFFFFFFFFFFFFFFFFFFFFFFFFFFF AND DUP6 PUSH1 0x40 MLOAD PUSH2 0xB01 SWAP1 PUSH2 0x1A49 JUMP JUMPDEST PUSH1 0x0 PUSH1 0x40 MLOAD DUP1 DUP4 SUB DUP2 DUP6 DUP8 GAS CALL SWAP3 POP POP POP RETURNDATASIZE DUP1 PUSH1 0x0 DUP2 EQ PUSH2 0xB3E JUMPI PUSH1 0x40 MLOAD SWAP2 POP PUSH1 0x1F NOT PUSH1 0x3F RETURNDATASIZE ADD AND DUP3 ADD PUSH1 0x40 MSTORE RETURNDATASIZE DUP3 MSTORE RETURNDATASIZE PUSH1 0x0 PUSH1 0x20 DUP5 ADD RETURNDATACOPY PUSH2 0xB43 JUMP JUMPDEST PUSH1 0x60 SWAP2 POP JUMPDEST POP POP SWAP1 POP DUP1 PUSH2 0xB87 JUMPI PUSH1 0x40 MLOAD PUSH32 0x8C379A000000000000000000000000000000000000000000000000000000000 DUP2 MSTORE PUSH1 0x4 ADD PUSH2 0xB7E SWAP1 PUSH2 0x1C56 JUMP JUMPDEST PUSH1 0x40 MLOAD DUP1 SWAP2 SUB SWAP1 REVERT JUMPDEST PUSH1 0x5 PUSH1 0x0 SWAP1 SLOAD SWAP1 PUSH2 0x100 EXP SWAP1 DIV PUSH20 0xFFFFFFFFFFFFFFFFFFFFFFFFFFFFFFFFFFFFFFFF AND PUSH20 0xFFFFFFFFFFFFFFFFFFFFFFFFFFFFFFFFFFFFFFFF AND PUSH4 0xA9059CBB CALLER DUP7 PUSH1 0x40 MLOAD DUP4 PUSH4 0xFFFFFFFF AND PUSH1 0xE0 SHL DUP2 MSTORE PUSH1 0x4 ADD PUSH2 0xBE4 SWAP3 SWAP2 SWAP1 PUSH2 0x1AB0 JUMP JUMPDEST PUSH1 0x20 PUSH1 0x40 MLOAD DUP1 DUP4 SUB DUP2 PUSH1 0x0 DUP8 DUP1 EXTCODESIZE ISZERO DUP1 ISZERO PUSH2 0xBFE JUMPI PUSH1 0x0 DUP1 REVERT JUMPDEST POP GAS CALL ISZERO DUP1 ISZERO PUSH2 0xC12 JUMPI RETURNDATASIZE PUSH1 0x0 DUP1 RETURNDATACOPY RETURNDATASIZE PUSH1 0x0 REVERT JUMPDEST POP POP POP POP PUSH1 0x40 MLOAD RETURNDATASIZE PUSH1 0x1F NOT PUSH1 0x1F DUP3 ADD AND DUP3 ADD DUP1 PUSH1 0x40 MSTORE POP DUP2 ADD SWAP1 PUSH2 0xC36 SWAP2 SWAP1 PUSH2 0x1740 JUMP JUMPDEST POP DUP4 DUP6 CALLER PUSH20 0xFFFFFFFFFFFFFFFFFFFFFFFFFFFFFFFFFFFFFFFF AND PUSH32 0xFBF06C058B90CB038A618F8C2ACBF6145F8B3570FD1FA56ABB8F0F3F05B36E8 PUSH1 0x40 MLOAD PUSH1 0x40 MLOAD DUP1 SWAP2 SUB SWAP1 LOG4 POP POP POP SWAP2 POP SWAP2 JUMP JUMPDEST PUSH1 0x5 PUSH1 0x0 SWAP1 SLOAD SWAP1 PUSH2 0x100 EXP SWAP1 DIV PUSH20 0xFFFFFFFFFFFFFFFFFFFFFFFFFFFFFFFFFFFFFFFF AND DUP2 JUMP JUMPDEST PUSH1 0x0 DUP1 PUSH2 0xCB5 PUSH2 0xDCB JUMP JUMPDEST SWAP1 POP PUSH1 0x0 PUSH2 0xCC3 DUP3 DUP7 PUSH2 0xD44 JUMP JUMPDEST SWAP1 POP DUP4 DUP2 LT ISZERO PUSH2 0xD08 JUMPI PUSH1 0x40 MLOAD PUSH32 0x8C379A000000000000000000000000000000000000000000000000000000000 DUP2 MSTORE PUSH1 0x4 ADD PUSH2 0xCFF SWAP1 PUSH2 0x1C96 JUMP JUMPDEST PUSH1 0x40 MLOAD DUP1 SWAP2 SUB SWAP1 REVERT JUMPDEST PUSH2 0xD15 DUP3 DUP7 DUP7 DUP5 SUB PUSH2 0xDD3 JUMP JUMPDEST PUSH1 0x1 SWAP3 POP POP POP SWAP3 SWAP2 POP POP JUMP JUMPDEST PUSH1 0x0 DUP1 PUSH2 0xD2C PUSH2 0xDCB JUMP JUMPDEST SWAP1 POP PUSH2 0xD39 DUP2 DUP6 DUP6 PUSH2 0x102A JUMP JUMPDEST PUSH1 0x1 SWAP2 POP POP SWAP3 SWAP2 POP POP JUMP JUMPDEST PUSH1 0x0 PUSH1 0x1 PUSH1 0x0 DUP5 PUSH20 0xFFFFFFFFFFFFFFFFFFFFFFFFFFFFFFFFFFFFFFFF AND PUSH20 0xFFFFFFFFFFFFFFFFFFFFFFFFFFFFFFFFFFFFFFFF AND DUP2 MSTORE PUSH1 0x20 ADD SWAP1 DUP2 MSTORE PUSH1 0x20 ADD PUSH1 0x0 KECCAK256 PUSH1 0x0 DUP4 PUSH20 0xFFFFFFFFFFFFFFFFFFFFFFFFFFFFFFFFFFFFFFFF AND PUSH20 0xFFFFFFFFFFFFFFFFFFFFFFFFFFFFFFFFFFFFFFFF AND DUP2 MSTORE PUSH1 0x20 ADD SWAP1 DUP2 MSTORE PUSH1 0x20 ADD PUSH1 0x0 KECCAK256 SLOAD SWAP1 POP SWAP3 SWAP2 POP POP JUMP JUMPDEST PUSH1 0x0 CALLER SWAP1 POP SWAP1 JUMP JUMPDEST PUSH1 0x0 PUSH20 0xFFFFFFFFFFFFFFFFFFFFFFFFFFFFFFFFFFFFFFFF AND DUP4 PUSH20 0xFFFFFFFFFFFFFFFFFFFFFFFFFFFFFFFFFFFFFFFF AND EQ ISZERO PUSH2 0xE43 JUMPI PUSH1 0x40 MLOAD PUSH32 0x8C379A000000000000000000000000000000000000000000000000000000000 DUP2 MSTORE PUSH1 0x4 ADD PUSH2 0xE3A SWAP1 PUSH2 0x1C76 JUMP JUMPDEST PUSH1 0x40 MLOAD DUP1 SWAP2 SUB SWAP1 REVERT JUMPDEST PUSH1 0x0 PUSH20 0xFFFFFFFFFFFFFFFFFFFFFFFFFFFFFFFFFFFFFFFF AND DUP3 PUSH20 0xFFFFFFFFFFFFFFFFFFFFFFFFFFFFFFFFFFFFFFFF AND EQ ISZERO PUSH2 0xEB3 JUMPI PUSH1 0x40 MLOAD PUSH32 0x8C379A000000000000000000000000000000000000000000000000000000000 DUP2 MSTORE PUSH1 0x4 ADD PUSH2 0xEAA SWAP1 PUSH2 0x1B56 JUMP JUMPDEST PUSH1 0x40 MLOAD DUP1 SWAP2 SUB SWAP1 REVERT JUMPDEST DUP1 PUSH1 0x1 PUSH1 0x0 DUP6 PUSH20 0xFFFFFFFFFFFFFFFFFFFFFFFFFFFFFFFFFFFFFFFF AND PUSH20 0xFFFFFFFFFFFFFFFFFFFFFFFFFFFFFFFFFFFFFFFF AND DUP2 MSTORE PUSH1 0x20 ADD SWAP1 DUP2 MSTORE PUSH1 0x20 ADD PUSH1 0x0 KECCAK256 PUSH1 0x0 DUP5 PUSH20 0xFFFFFFFFFFFFFFFFFFFFFFFFFFFFFFFFFFFFFFFF AND PUSH20 0xFFFFFFFFFFFFFFFFFFFFFFFFFFFFFFFFFFFFFFFF AND DUP2 MSTORE PUSH1 0x20 ADD SWAP1 DUP2 MSTORE PUSH1 0x20 ADD PUSH1 0x0 KECCAK256 DUP2 SWAP1 SSTORE POP DUP2 PUSH20 0xFFFFFFFFFFFFFFFFFFFFFFFFFFFFFFFFFFFFFFFF AND DUP4 PUSH20 0xFFFFFFFFFFFFFFFFFFFFFFFFFFFFFFFFFFFFFFFF AND PUSH32 0x8C5BE1E5EBEC7D5BD14F71427D1E84F3DD0314C0F7B2291E5B200AC8C7C3B925 DUP4 PUSH1 0x40 MLOAD PUSH2 0xF91 SWAP2 SWAP1 PUSH2 0x1CD6 JUMP JUMPDEST PUSH1 0x40 MLOAD DUP1 SWAP2 SUB SWAP1 LOG3 POP POP POP JUMP JUMPDEST PUSH1 0x0 PUSH2 0xFAA DUP5 DUP5 PUSH2 0xD44 JUMP JUMPDEST SWAP1 POP PUSH32 0xFFFFFFFFFFFFFFFFFFFFFFFFFFFFFFFFFFFFFFFFFFFFFFFFFFFFFFFFFFFFFFFF DUP2 EQ PUSH2 0x1024 JUMPI DUP2 DUP2 LT ISZERO PUSH2 0x1016 JUMPI PUSH1 0x40 MLOAD PUSH32 0x8C379A000000000000000000000000000000000000000000000000000000000 DUP2 MSTORE PUSH1 0x4 ADD PUSH2 0x100D SWAP1 PUSH2 0x1B96 JUMP JUMPDEST PUSH1 0x40 MLOAD DUP1 SWAP2 SUB SWAP1 REVERT JUMPDEST PUSH2 0x1023 DUP5 DUP5 DUP5 DUP5 SUB PUSH2 0xDD3 JUMP JUMPDEST JUMPDEST POP POP POP POP JUMP JUMPDEST PUSH1 0x0 PUSH20 0xFFFFFFFFFFFFFFFFFFFFFFFFFFFFFFFFFFFFFFFF AND DUP4 PUSH20 0xFFFFFFFFFFFFFFFFFFFFFFFFFFFFFFFFFFFFFFFF AND EQ ISZERO PUSH2 0x109A JUMPI PUSH1 0x40 MLOAD PUSH32 0x8C379A000000000000000000000000000000000000000000000000000000000 DUP2 MSTORE PUSH1 0x4 ADD PUSH2 0x1091 SWAP1 PUSH2 0x1C36 JUMP JUMPDEST PUSH1 0x40 MLOAD DUP1 SWAP2 SUB SWAP1 REVERT JUMPDEST PUSH1 0x0 PUSH20 0xFFFFFFFFFFFFFFFFFFFFFFFFFFFFFFFFFFFFFFFF AND DUP3 PUSH20 0xFFFFFFFFFFFFFFFFFFFFFFFFFFFFFFFFFFFFFFFF AND EQ ISZERO PUSH2 0x110A JUMPI PUSH1 0x40 MLOAD PUSH32 0x8C379A000000000000000000000000000000000000000000000000000000000 DUP2 MSTORE PUSH1 0x4 ADD PUSH2 0x1101 SWAP1 PUSH2 0x1B16 JUMP JUMPDEST PUSH1 0x40 MLOAD DUP1 SWAP2 SUB SWAP1 REVERT JUMPDEST PUSH2 0x1115 DUP4 DUP4 DUP4 PUSH2 0x15E2 JUMP JUMPDEST PUSH1 0x0 DUP1 PUSH1 0x0 DUP6 PUSH20 0xFFFFFFFFFFFFFFFFFFFFFFFFFFFFFFFFFFFFFFFF AND PUSH20 0xFFFFFFFFFFFFFFFFFFFFFFFFFFFFFFFFFFFFFFFF AND DUP2 MSTORE PUSH1 0x20 ADD SWAP1 DUP2 MSTORE PUSH1 0x20 ADD PUSH1 0x0 KECCAK256 SLOAD SWAP1 POP DUP2 DUP2 LT ISZERO PUSH2 0x119B JUMPI PUSH1 0x40 MLOAD PUSH32 0x8C379A000000000000000000000000000000000000000000000000000000000 DUP2 MSTORE PUSH1 0x4 ADD PUSH2 0x1192 SWAP1 PUSH2 0x1BB6 JUMP JUMPDEST PUSH1 0x40 MLOAD DUP1 SWAP2 SUB SWAP1 REVERT JUMPDEST DUP2 DUP2 SUB PUSH1 0x0 DUP1 DUP7 PUSH20 0xFFFFFFFFFFFFFFFFFFFFFFFFFFFFFFFFFFFFFFFF AND PUSH20 0xFFFFFFFFFFFFFFFFFFFFFFFFFFFFFFFFFFFFFFFF AND DUP2 MSTORE PUSH1 0x20 ADD SWAP1 DUP2 MSTORE PUSH1 0x20 ADD PUSH1 0x0 KECCAK256 DUP2 SWAP1 SSTORE POP DUP2 PUSH1 0x0 DUP1 DUP6 PUSH20 0xFFFFFFFFFFFFFFFFFFFFFFFFFFFFFFFFFFFFFFFF AND PUSH20 0xFFFFFFFFFFFFFFFFFFFFFFFFFFFFFFFFFFFFFFFF AND DUP2 MSTORE PUSH1 0x20 ADD SWAP1 DUP2 MSTORE PUSH1 0x20 ADD PUSH1 0x0 KECCAK256 PUSH1 0x0 DUP3 DUP3 SLOAD PUSH2 0x122E SWAP2 SWAP1 PUSH2 0x1D5C JUMP JUMPDEST SWAP3 POP POP DUP2 SWAP1 SSTORE POP DUP3 PUSH20 0xFFFFFFFFFFFFFFFFFFFFFFFFFFFFFFFFFFFFFFFF AND DUP5 PUSH20 0xFFFFFFFFFFFFFFFFFFFFFFFFFFFFFFFFFFFFFFFF AND PUSH32 0xDDF252AD1BE2C89B69C2B068FC378DAA952BA7F163C4A11628F55A4DF523B3EF DUP5 PUSH1 0x40 MLOAD PUSH2 0x1292 SWAP2 SWAP1 PUSH2 0x1CD6 JUMP JUMPDEST PUSH1 0x40 MLOAD DUP1 SWAP2 SUB SWAP1 LOG3 PUSH2 0x12A5 DUP5 DUP5 DUP5 PUSH2 0x15E7 JUMP JUMPDEST POP POP POP POP JUMP JUMPDEST PUSH1 0x0 PUSH20 0xFFFFFFFFFFFFFFFFFFFFFFFFFFFFFFFFFFFFFFFF AND DUP3 PUSH20 0xFFFFFFFFFFFFFFFFFFFFFFFFFFFFFFFFFFFFFFFF AND EQ ISZERO PUSH2 0x131B JUMPI PUSH1 0x40 MLOAD PUSH32 0x8C379A000000000000000000000000000000000000000000000000000000000 DUP2 MSTORE PUSH1 0x4 ADD PUSH2 0x1312 SWAP1 PUSH2 0x1CB6 JUMP JUMPDEST PUSH1 0x40 MLOAD DUP1 SWAP2 SUB SWAP1 REVERT JUMPDEST PUSH2 0x1327 PUSH1 0x0 DUP4 DUP4 PUSH2 0x15E2 JUMP JUMPDEST DUP1 PUSH1 0x2 PUSH1 0x0 DUP3 DUP3 SLOAD PUSH2 0x1339 SWAP2 SWAP1 PUSH2 0x1D5C JUMP JUMPDEST SWAP3 POP POP DUP2 SWAP1 SSTORE POP DUP1 PUSH1 0x0 DUP1 DUP5 PUSH20 0xFFFFFFFFFFFFFFFFFFFFFFFFFFFFFFFFFFFFFFFF AND PUSH20 0xFFFFFFFFFFFFFFFFFFFFFFFFFFFFFFFFFFFFFFFF AND DUP2 MSTORE PUSH1 0x20 ADD SWAP1 DUP2 MSTORE PUSH1 0x20 ADD PUSH1 0x0 KECCAK256 PUSH1 0x0 DUP3 DUP3 SLOAD PUSH2 0x138E SWAP2 SWAP1 PUSH2 0x1D5C JUMP JUMPDEST SWAP3 POP POP DUP2 SWAP1 SSTORE POP DUP2 PUSH20 0xFFFFFFFFFFFFFFFFFFFFFFFFFFFFFFFFFFFFFFFF AND PUSH1 0x0 PUSH20 0xFFFFFFFFFFFFFFFFFFFFFFFFFFFFFFFFFFFFFFFF AND PUSH32 0xDDF252AD1BE2C89B69C2B068FC378DAA952BA7F163C4A11628F55A4DF523B3EF DUP4 PUSH1 0x40 MLOAD PUSH2 0x13F3 SWAP2 SWAP1 PUSH2 0x1CD6 JUMP JUMPDEST PUSH1 0x40 MLOAD DUP1 SWAP2 SUB SWAP1 LOG3 PUSH2 0x1407 PUSH1 0x0 DUP4 DUP4 PUSH2 0x15E7 JUMP JUMPDEST POP POP JUMP JUMPDEST PUSH1 0x0 PUSH20 0xFFFFFFFFFFFFFFFFFFFFFFFFFFFFFFFFFFFFFFFF AND DUP3 PUSH20 0xFFFFFFFFFFFFFFFFFFFFFFFFFFFFFFFFFFFFFFFF AND EQ ISZERO PUSH2 0x147B JUMPI PUSH1 0x40 MLOAD PUSH32 0x8C379A000000000000000000000000000000000000000000000000000000000 DUP2 MSTORE PUSH1 0x4 ADD PUSH2 0x1472 SWAP1 PUSH2 0x1BF6 JUMP JUMPDEST PUSH1 0x40 MLOAD DUP1 SWAP2 SUB SWAP1 REVERT JUMPDEST PUSH2 0x1487 DUP3 PUSH1 0x0 DUP4 PUSH2 0x15E2 JUMP JUMPDEST PUSH1 0x0 DUP1 PUSH1 0x0 DUP5 PUSH20 0xFFFFFFFFFFFFFFFFFFFFFFFFFFFFFFFFFFFFFFFF AND PUSH20 0xFFFFFFFFFFFFFFFFFFFFFFFFFFFFFFFFFFFFFFFF AND DUP2 MSTORE PUSH1 0x20 ADD SWAP1 DUP2 MSTORE PUSH1 0x20 ADD PUSH1 0x0 KECCAK256 SLOAD SWAP1 POP DUP2 DUP2 LT ISZERO PUSH2 0x150D JUMPI PUSH1 0x40 MLOAD PUSH32 0x8C379A000000000000000000000000000000000000000000000000000000000 DUP2 MSTORE PUSH1 0x4 ADD PUSH2 0x1504 SWAP1 PUSH2 0x1B36 JUMP JUMPDEST PUSH1 0x40 MLOAD DUP1 SWAP2 SUB SWAP1 REVERT JUMPDEST DUP2 DUP2 SUB PUSH1 0x0 DUP1 DUP6 PUSH20 0xFFFFFFFFFFFFFFFFFFFFFFFFFFFFFFFFFFFFFFFF AND PUSH20 0xFFFFFFFFFFFFFFFFFFFFFFFFFFFFFFFFFFFFFFFF AND DUP2 MSTORE PUSH1 0x20 ADD SWAP1 DUP2 MSTORE PUSH1 0x20 ADD PUSH1 0x0 KECCAK256 DUP2 SWAP1 SSTORE POP DUP2 PUSH1 0x2 PUSH1 0x0 DUP3 DUP3 SLOAD PUSH2 0x1564 SWAP2 SWAP1 PUSH2 0x1E3D JUMP JUMPDEST SWAP3 POP POP DUP2 SWAP1 SSTORE POP PUSH1 0x0 PUSH20 0xFFFFFFFFFFFFFFFFFFFFFFFFFFFFFFFFFFFFFFFF AND DUP4 PUSH20 0xFFFFFFFFFFFFFFFFFFFFFFFFFFFFFFFFFFFFFFFF AND PUSH32 0xDDF252AD1BE2C89B69C2B068FC378DAA952BA7F163C4A11628F55A4DF523B3EF DUP5 PUSH1 0x40 MLOAD PUSH2 0x15C9 SWAP2 SWAP1 PUSH2 0x1CD6 JUMP JUMPDEST PUSH1 0x40 MLOAD DUP1 SWAP2 SUB SWAP1 LOG3 PUSH2 0x15DD DUP4 PUSH1 0x0 DUP5 PUSH2 0x15E7 JUMP JUMPDEST POP POP POP JUMP JUMPDEST POP POP POP JUMP JUMPDEST POP POP POP JUMP JUMPDEST PUSH1 0x0 DUP2 CALLDATALOAD SWAP1 POP PUSH2 0x15FB DUP2 PUSH2 0x23B1 JUMP JUMPDEST SWAP3 SWAP2 POP POP JUMP JUMPDEST PUSH1 0x0 DUP2 MLOAD SWAP1 POP PUSH2 0x1610 DUP2 PUSH2 0x23C8 JUMP JUMPDEST SWAP3 SWAP2 POP POP JUMP JUMPDEST PUSH1 0x0 DUP2 CALLDATALOAD SWAP1 POP PUSH2 0x1625 DUP2 PUSH2 0x23DF JUMP JUMPDEST SWAP3 SWAP2 POP POP JUMP JUMPDEST PUSH1 0x0 DUP2 MLOAD SWAP1 POP PUSH2 0x163A DUP2 PUSH2 0x23DF JUMP JUMPDEST SWAP3 SWAP2 POP POP JUMP JUMPDEST PUSH1 0x0 PUSH1 0x20 DUP3 DUP5 SUB SLT ISZERO PUSH2 0x1656 JUMPI PUSH2 0x1655 PUSH2 0x1FB8 JUMP JUMPDEST JUMPDEST PUSH1 0x0 PUSH2 0x1664 DUP5 DUP3 DUP6 ADD PUSH2 0x15EC JUMP JUMPDEST SWAP2 POP POP SWAP3 SWAP2 POP POP JUMP JUMPDEST PUSH1 0x0 DUP1 PUSH1 0x40 DUP4 DUP6 SUB SLT ISZERO PUSH2 0x1684 JUMPI PUSH2 0x1683 PUSH2 0x1FB8 JUMP JUMPDEST JUMPDEST PUSH1 0x0 PUSH2 0x1692 DUP6 DUP3 DUP7 ADD PUSH2 0x15EC JUMP JUMPDEST SWAP3 POP POP PUSH1 0x20 PUSH2 0x16A3 DUP6 DUP3 DUP7 ADD PUSH2 0x15EC JUMP JUMPDEST SWAP2 POP POP SWAP3 POP SWAP3 SWAP1 POP JUMP JUMPDEST PUSH1 0x0 DUP1 PUSH1 0x0 PUSH1 0x60 DUP5 DUP7 SUB SLT ISZERO PUSH2 0x16C6 JUMPI PUSH2 0x16C5 PUSH2 0x1FB8 JUMP JUMPDEST JUMPDEST PUSH1 0x0 PUSH2 0x16D4 DUP7 DUP3 DUP8 ADD PUSH2 0x15EC JUMP JUMPDEST SWAP4 POP POP PUSH1 0x20 PUSH2 0x16E5 DUP7 DUP3 DUP8 ADD PUSH2 0x15EC JUMP JUMPDEST SWAP3 POP POP PUSH1 0x40 PUSH2 0x16F6 DUP7 DUP3 DUP8 ADD PUSH2 0x1616 JUMP JUMPDEST SWAP2 POP POP SWAP3 POP SWAP3 POP SWAP3 JUMP JUMPDEST PUSH1 0x0 DUP1 PUSH1 0x40 DUP4 DUP6 SUB SLT ISZERO PUSH2 0x1717 JUMPI PUSH2 0x1716 PUSH2 0x1FB8 JUMP JUMPDEST JUMPDEST PUSH1 0x0 PUSH2 0x1725 DUP6 DUP3 DUP7 ADD PUSH2 0x15EC JUMP JUMPDEST SWAP3 POP POP PUSH1 0x20 PUSH2 0x1736 DUP6 DUP3 DUP7 ADD PUSH2 0x1616 JUMP JUMPDEST SWAP2 POP POP SWAP3 POP SWAP3 SWAP1 POP JUMP JUMPDEST PUSH1 0x0 PUSH1 0x20 DUP3 DUP5 SUB SLT ISZERO PUSH2 0x1756 JUMPI PUSH2 0x1755 PUSH2 0x1FB8 JUMP JUMPDEST JUMPDEST PUSH1 0x0 PUSH2 0x1764 DUP5 DUP3 DUP6 ADD PUSH2 0x1601 JUMP JUMPDEST SWAP2 POP POP SWAP3 SWAP2 POP POP JUMP JUMPDEST PUSH1 0x0 PUSH1 0x20 DUP3 DUP5 SUB SLT ISZERO PUSH2 0x1783 JUMPI PUSH2 0x1782 PUSH2 0x1FB8 JUMP JUMPDEST JUMPDEST PUSH1 0x0 PUSH2 0x1791 DUP5 DUP3 DUP6 ADD PUSH2 0x1616 JUMP JUMPDEST SWAP2 POP POP SWAP3 SWAP2 POP POP JUMP JUMPDEST PUSH1 0x0 PUSH1 0x20 DUP3 DUP5 SUB SLT ISZERO PUSH2 0x17B0 JUMPI PUSH2 0x17AF PUSH2 0x1FB8 JUMP JUMPDEST JUMPDEST PUSH1 0x0 PUSH2 0x17BE DUP5 DUP3 DUP6 ADD PUSH2 0x162B JUMP JUMPDEST SWAP2 POP POP SWAP3 SWAP2 POP POP JUMP JUMPDEST PUSH2 0x17D0 DUP2 PUSH2 0x1E71 JUMP JUMPDEST DUP3 MSTORE POP POP JUMP JUMPDEST PUSH2 0x17DF DUP2 PUSH2 0x1E83 JUMP JUMPDEST DUP3 MSTORE POP POP JUMP JUMPDEST PUSH1 0x0 PUSH2 0x17F0 DUP3 PUSH2 0x1D35 JUMP JUMPDEST PUSH2 0x17FA DUP2 DUP6 PUSH2 0x1D4B JUMP JUMPDEST SWAP4 POP PUSH2 0x180A DUP2 DUP6 PUSH1 0x20 DUP7 ADD PUSH2 0x1EC6 JUMP JUMPDEST PUSH2 0x1813 DUP2 PUSH2 0x1FBD JUMP JUMPDEST DUP5 ADD SWAP2 POP POP SWAP3 SWAP2 POP POP JUMP JUMPDEST PUSH1 0x0 PUSH2 0x182B PUSH1 0x23 DUP4 PUSH2 0x1D4B JUMP JUMPDEST SWAP2 POP PUSH2 0x1836 DUP3 PUSH2 0x1FCE JUMP JUMPDEST PUSH1 0x40 DUP3 ADD SWAP1 POP SWAP2 SWAP1 POP JUMP JUMPDEST PUSH1 0x0 PUSH2 0x184E PUSH1 0x22 DUP4 PUSH2 0x1D4B JUMP JUMPDEST SWAP2 POP PUSH2 0x1859 DUP3 PUSH2 0x201D JUMP JUMPDEST PUSH1 0x40 DUP3 ADD SWAP1 POP SWAP2 SWAP1 POP JUMP JUMPDEST PUSH1 0x0 PUSH2 0x1871 PUSH1 0x22 DUP4 PUSH2 0x1D4B JUMP JUMPDEST SWAP2 POP PUSH2 0x187C DUP3 PUSH2 0x206C JUMP JUMPDEST PUSH1 0x40 DUP3 ADD SWAP1 POP SWAP2 SWAP1 POP JUMP JUMPDEST PUSH1 0x0 PUSH2 0x1894 PUSH1 0x29 DUP4 PUSH2 0x1D4B JUMP JUMPDEST SWAP2 POP PUSH2 0x189F DUP3 PUSH2 0x20BB JUMP JUMPDEST PUSH1 0x40 DUP3 ADD SWAP1 POP SWAP2 SWAP1 POP JUMP JUMPDEST PUSH1 0x0 PUSH2 0x18B7 PUSH1 0x1D DUP4 PUSH2 0x1D4B JUMP JUMPDEST SWAP2 POP PUSH2 0x18C2 DUP3 PUSH2 0x210A JUMP JUMPDEST PUSH1 0x20 DUP3 ADD SWAP1 POP SWAP2 SWAP1 POP JUMP JUMPDEST PUSH1 0x0 PUSH2 0x18DA PUSH1 0x26 DUP4 PUSH2 0x1D4B JUMP JUMPDEST SWAP2 POP PUSH2 0x18E5 DUP3 PUSH2 0x2133 JUMP JUMPDEST PUSH1 0x40 DUP3 ADD SWAP1 POP SWAP2 SWAP1 POP JUMP JUMPDEST PUSH1 0x0 PUSH2 0x18FD PUSH1 0x37 DUP4 PUSH2 0x1D4B JUMP JUMPDEST SWAP2 POP PUSH2 0x1908 DUP3 PUSH2 0x2182 JUMP JUMPDEST PUSH1 0x40 DUP3 ADD SWAP1 POP SWAP2 SWAP1 POP JUMP JUMPDEST PUSH1 0x0 PUSH2 0x1920 PUSH1 0x21 DUP4 PUSH2 0x1D4B JUMP JUMPDEST SWAP2 POP PUSH2 0x192B DUP3 PUSH2 0x21D1 JUMP JUMPDEST PUSH1 0x40 DUP3 ADD SWAP1 POP SWAP2 SWAP1 POP JUMP JUMPDEST PUSH1 0x0 PUSH2 0x1943 PUSH1 0x19 DUP4 PUSH2 0x1D4B JUMP JUMPDEST SWAP2 POP PUSH2 0x194E DUP3 PUSH2 0x2220 JUMP JUMPDEST PUSH1 0x20 DUP3 ADD SWAP1 POP SWAP2 SWAP1 POP JUMP JUMPDEST PUSH1 0x0 PUSH2 0x1966 PUSH1 0x25 DUP4 PUSH2 0x1D4B JUMP JUMPDEST SWAP2 POP PUSH2 0x1971 DUP3 PUSH2 0x2249 JUMP JUMPDEST PUSH1 0x40 DUP3 ADD SWAP1 POP SWAP2 SWAP1 POP JUMP JUMPDEST PUSH1 0x0 PUSH2 0x1989 PUSH1 0x25 DUP4 PUSH2 0x1D4B JUMP JUMPDEST SWAP2 POP PUSH2 0x1994 DUP3 PUSH2 0x2298 JUMP JUMPDEST PUSH1 0x40 DUP3 ADD SWAP1 POP SWAP2 SWAP1 POP JUMP JUMPDEST PUSH1 0x0 PUSH2 0x19AC PUSH1 0x0 DUP4 PUSH2 0x1D40 JUMP JUMPDEST SWAP2 POP PUSH2 0x19B7 DUP3 PUSH2 0x22E7 JUMP JUMPDEST PUSH1 0x0 DUP3 ADD SWAP1 POP SWAP2 SWAP1 POP JUMP JUMPDEST PUSH1 0x0 PUSH2 0x19CF PUSH1 0x24 DUP4 PUSH2 0x1D4B JUMP JUMPDEST SWAP2 POP PUSH2 0x19DA DUP3 PUSH2 0x22EA JUMP JUMPDEST PUSH1 0x40 DUP3 ADD SWAP1 POP SWAP2 SWAP1 POP JUMP JUMPDEST PUSH1 0x0 PUSH2 0x19F2 PUSH1 0x25 DUP4 PUSH2 0x1D4B JUMP JUMPDEST SWAP2 POP PUSH2 0x19FD DUP3 PUSH2 0x2339 JUMP JUMPDEST PUSH1 0x40 DUP3 ADD SWAP1 POP SWAP2 SWAP1 POP JUMP JUMPDEST PUSH1 0x0 PUSH2 0x1A15 PUSH1 0x1F DUP4 PUSH2 0x1D4B JUMP JUMPDEST SWAP2 POP PUSH2 0x1A20 DUP3 PUSH2 0x2388 JUMP JUMPDEST PUSH1 0x20 DUP3 ADD SWAP1 POP SWAP2 SWAP1 POP JUMP JUMPDEST PUSH2 0x1A34 DUP2 PUSH2 0x1EAF JUMP JUMPDEST DUP3 MSTORE POP POP JUMP JUMPDEST PUSH2 0x1A43 DUP2 PUSH2 0x1EB9 JUMP JUMPDEST DUP3 MSTORE POP POP JUMP JUMPDEST PUSH1 0x0 PUSH2 0x1A54 DUP3 PUSH2 0x199F JUMP JUMPDEST SWAP2 POP DUP2 SWAP1 POP SWAP2 SWAP1 POP JUMP JUMPDEST PUSH1 0x0 PUSH1 0x20 DUP3 ADD SWAP1 POP PUSH2 0x1A73 PUSH1 0x0 DUP4 ADD DUP5 PUSH2 0x17C7 JUMP JUMPDEST SWAP3 SWAP2 POP POP JUMP JUMPDEST PUSH1 0x0 PUSH1 0x60 DUP3 ADD SWAP1 POP PUSH2 0x1A8E PUSH1 0x0 DUP4 ADD DUP7 PUSH2 0x17C7 JUMP JUMPDEST PUSH2 0x1A9B PUSH1 0x20 DUP4 ADD DUP6 PUSH2 0x17C7 JUMP JUMPDEST PUSH2 0x1AA8 PUSH1 0x40 DUP4 ADD DUP5 PUSH2 0x1A2B JUMP JUMPDEST SWAP5 SWAP4 POP POP POP POP JUMP JUMPDEST PUSH1 0x0 PUSH1 0x40 DUP3 ADD SWAP1 POP PUSH2 0x1AC5 PUSH1 0x0 DUP4 ADD DUP6 PUSH2 0x17C7 JUMP JUMPDEST PUSH2 0x1AD2 PUSH1 0x20 DUP4 ADD DUP5 PUSH2 0x1A2B JUMP JUMPDEST SWAP4 SWAP3 POP POP POP JUMP JUMPDEST PUSH1 0x0 PUSH1 0x20 DUP3 ADD SWAP1 POP PUSH2 0x1AEE PUSH1 0x0 DUP4 ADD DUP5 PUSH2 0x17D6 JUMP JUMPDEST SWAP3 SWAP2 POP POP JUMP JUMPDEST PUSH1 0x0 PUSH1 0x20 DUP3 ADD SWAP1 POP DUP2 DUP2 SUB PUSH1 0x0 DUP4 ADD MSTORE PUSH2 0x1B0E DUP2 DUP5 PUSH2 0x17E5 JUMP JUMPDEST SWAP1 POP SWAP3 SWAP2 POP POP JUMP JUMPDEST PUSH1 0x0 PUSH1 0x20 DUP3 ADD SWAP1 POP DUP2 DUP2 SUB PUSH1 0x0 DUP4 ADD MSTORE PUSH2 0x1B2F DUP2 PUSH2 0x181E JUMP JUMPDEST SWAP1 POP SWAP2 SWAP1 POP JUMP JUMPDEST PUSH1 0x0 PUSH1 0x20 DUP3 ADD SWAP1 POP DUP2 DUP2 SUB PUSH1 0x0 DUP4 ADD MSTORE PUSH2 0x1B4F DUP2 PUSH2 0x1841 JUMP JUMPDEST SWAP1 POP SWAP2 SWAP1 POP JUMP JUMPDEST PUSH1 0x0 PUSH1 0x20 DUP3 ADD SWAP1 POP DUP2 DUP2 SUB PUSH1 0x0 DUP4 ADD MSTORE PUSH2 0x1B6F DUP2 PUSH2 0x1864 JUMP JUMPDEST SWAP1 POP SWAP2 SWAP1 POP JUMP JUMPDEST PUSH1 0x0 PUSH1 0x20 DUP3 ADD SWAP1 POP DUP2 DUP2 SUB PUSH1 0x0 DUP4 ADD MSTORE PUSH2 0x1B8F DUP2 PUSH2 0x1887 JUMP JUMPDEST SWAP1 POP SWAP2 SWAP1 POP JUMP JUMPDEST PUSH1 0x0 PUSH1 0x20 DUP3 ADD SWAP1 POP DUP2 DUP2 SUB PUSH1 0x0 DUP4 ADD MSTORE PUSH2 0x1BAF DUP2 PUSH2 0x18AA JUMP JUMPDEST SWAP1 POP SWAP2 SWAP1 POP JUMP JUMPDEST PUSH1 0x0 PUSH1 0x20 DUP3 ADD SWAP1 POP DUP2 DUP2 SUB PUSH1 0x0 DUP4 ADD MSTORE PUSH2 0x1BCF DUP2 PUSH2 0x18CD JUMP JUMPDEST SWAP1 POP SWAP2 SWAP1 POP JUMP JUMPDEST PUSH1 0x0 PUSH1 0x20 DUP3 ADD SWAP1 POP DUP2 DUP2 SUB PUSH1 0x0 DUP4 ADD MSTORE PUSH2 0x1BEF DUP2 PUSH2 0x18F0 JUMP JUMPDEST SWAP1 POP SWAP2 SWAP1 POP JUMP JUMPDEST PUSH1 0x0 PUSH1 0x20 DUP3 ADD SWAP1 POP DUP2 DUP2 SUB PUSH1 0x0 DUP4 ADD MSTORE PUSH2 0x1C0F DUP2 PUSH2 0x1913 JUMP JUMPDEST SWAP1 POP SWAP2 SWAP1 POP JUMP JUMPDEST PUSH1 0x0 PUSH1 0x20 DUP3 ADD SWAP1 POP DUP2 DUP2 SUB PUSH1 0x0 DUP4 ADD MSTORE PUSH2 0x1C2F DUP2 PUSH2 0x1936 JUMP JUMPDEST SWAP1 POP SWAP2 SWAP1 POP JUMP JUMPDEST PUSH1 0x0 PUSH1 0x20 DUP3 ADD SWAP1 POP DUP2 DUP2 SUB PUSH1 0x0 DUP4 ADD MSTORE PUSH2 0x1C4F DUP2 PUSH2 0x1959 JUMP JUMPDEST SWAP1 POP SWAP2 SWAP1 POP JUMP JUMPDEST PUSH1 0x0 PUSH1 0x20 DUP3 ADD SWAP1 POP DUP2 DUP2 SUB PUSH1 0x0 DUP4 ADD MSTORE PUSH2 0x1C6F DUP2 PUSH2 0x197C JUMP JUMPDEST SWAP1 POP SWAP2 SWAP1 POP JUMP JUMPDEST PUSH1 0x0 PUSH1 0x20 DUP3 ADD SWAP1 POP DUP2 DUP2 SUB PUSH1 0x0 DUP4 ADD MSTORE PUSH2 0x1C8F DUP2 PUSH2 0x19C2 JUMP JUMPDEST SWAP1 POP SWAP2 SWAP1 POP JUMP JUMPDEST PUSH1 0x0 PUSH1 0x20 DUP3 ADD SWAP1 POP DUP2 DUP2 SUB PUSH1 0x0 DUP4 ADD MSTORE PUSH2 0x1CAF DUP2 PUSH2 0x19E5 JUMP JUMPDEST SWAP1 POP SWAP2 SWAP1 POP JUMP JUMPDEST PUSH1 0x0 PUSH1 0x20 DUP3 ADD SWAP1 POP DUP2 DUP2 SUB PUSH1 0x0 DUP4 ADD MSTORE PUSH2 0x1CCF DUP2 PUSH2 0x1A08 JUMP JUMPDEST SWAP1 POP SWAP2 SWAP1 POP JUMP JUMPDEST PUSH1 0x0 PUSH1 0x20 DUP3 ADD SWAP1 POP PUSH2 0x1CEB PUSH1 0x0 DUP4 ADD DUP5 PUSH2 0x1A2B JUMP JUMPDEST SWAP3 SWAP2 POP POP JUMP JUMPDEST PUSH1 0x0 PUSH1 0x40 DUP3 ADD SWAP1 POP PUSH2 0x1D06 PUSH1 0x0 DUP4 ADD DUP6 PUSH2 0x1A2B JUMP JUMPDEST PUSH2 0x1D13 PUSH1 0x20 DUP4 ADD DUP5 PUSH2 0x1A2B JUMP JUMPDEST SWAP4 SWAP3 POP POP POP JUMP JUMPDEST PUSH1 0x0 PUSH1 0x20 DUP3 ADD SWAP1 POP PUSH2 0x1D2F PUSH1 0x0 DUP4 ADD DUP5 PUSH2 0x1A3A JUMP JUMPDEST SWAP3 SWAP2 POP POP JUMP JUMPDEST PUSH1 0x0 DUP2 MLOAD SWAP1 POP SWAP2 SWAP1 POP JUMP JUMPDEST PUSH1 0x0 DUP2 SWAP1 POP SWAP3 SWAP2 POP POP JUMP JUMPDEST PUSH1 0x0 DUP3 DUP3 MSTORE PUSH1 0x20 DUP3 ADD SWAP1 POP SWAP3 SWAP2 POP POP JUMP JUMPDEST PUSH1 0x0 PUSH2 0x1D67 DUP3 PUSH2 0x1EAF JUMP JUMPDEST SWAP2 POP PUSH2 0x1D72 DUP4 PUSH2 0x1EAF JUMP JUMPDEST SWAP3 POP DUP3 PUSH32 0xFFFFFFFFFFFFFFFFFFFFFFFFFFFFFFFFFFFFFFFFFFFFFFFFFFFFFFFFFFFFFFFF SUB DUP3 GT ISZERO PUSH2 0x1DA7 JUMPI PUSH2 0x1DA6 PUSH2 0x1F2B JUMP JUMPDEST JUMPDEST DUP3 DUP3 ADD SWAP1 POP SWAP3 SWAP2 POP POP JUMP JUMPDEST PUSH1 0x0 PUSH2 0x1DBD DUP3 PUSH2 0x1EAF JUMP JUMPDEST SWAP2 POP PUSH2 0x1DC8 DUP4 PUSH2 0x1EAF JUMP JUMPDEST SWAP3 POP DUP3 PUSH2 0x1DD8 JUMPI PUSH2 0x1DD7 PUSH2 0x1F5A JUMP JUMPDEST JUMPDEST DUP3 DUP3 DIV SWAP1 POP SWAP3 SWAP2 POP POP JUMP JUMPDEST PUSH1 0x0 PUSH2 0x1DEE DUP3 PUSH2 0x1EAF JUMP JUMPDEST SWAP2 POP PUSH2 0x1DF9 DUP4 PUSH2 0x1EAF JUMP JUMPDEST SWAP3 POP DUP2 PUSH32 0xFFFFFFFFFFFFFFFFFFFFFFFFFFFFFFFFFFFFFFFFFFFFFFFFFFFFFFFFFFFFFFFF DIV DUP4 GT DUP3 ISZERO ISZERO AND ISZERO PUSH2 0x1E32 JUMPI PUSH2 0x1E31 PUSH2 0x1F2B JUMP JUMPDEST JUMPDEST DUP3 DUP3 MUL SWAP1 POP SWAP3 SWAP2 POP POP JUMP JUMPDEST PUSH1 0x0 PUSH2 0x1E48 DUP3 PUSH2 0x1EAF JUMP JUMPDEST SWAP2 POP PUSH2 0x1E53 DUP4 PUSH2 0x1EAF JUMP JUMPDEST SWAP3 POP DUP3 DUP3 LT ISZERO PUSH2 0x1E66 JUMPI PUSH2 0x1E65 PUSH2 0x1F2B JUMP JUMPDEST JUMPDEST DUP3 DUP3 SUB SWAP1 POP SWAP3 SWAP2 POP POP JUMP JUMPDEST PUSH1 0x0 PUSH2 0x1E7C DUP3 PUSH2 0x1E8F JUMP JUMPDEST SWAP1 POP SWAP2 SWAP1 POP JUMP JUMPDEST PUSH1 0x0 DUP2 ISZERO ISZERO SWAP1 POP SWAP2 SWAP1 POP JUMP JUMPDEST PUSH1 0x0 PUSH20 0xFFFFFFFFFFFFFFFFFFFFFFFFFFFFFFFFFFFFFFFF DUP3 AND SWAP1 POP SWAP2 SWAP1 POP JUMP JUMPDEST PUSH1 0x0 DUP2 SWAP1 POP SWAP2 SWAP1 POP JUMP JUMPDEST PUSH1 0x0 PUSH1 0xFF DUP3 AND SWAP1 POP SWAP2 SWAP1 POP JUMP JUMPDEST PUSH1 0x0 JUMPDEST DUP4 DUP2 LT ISZERO PUSH2 0x1EE4 JUMPI DUP1 DUP3 ADD MLOAD DUP2 DUP5 ADD MSTORE PUSH1 0x20 DUP2 ADD SWAP1 POP PUSH2 0x1EC9 JUMP JUMPDEST DUP4 DUP2 GT ISZERO PUSH2 0x1EF3 JUMPI PUSH1 0x0 DUP5 DUP5 ADD MSTORE JUMPDEST POP POP POP POP JUMP JUMPDEST PUSH1 0x0 PUSH1 0x2 DUP3 DIV SWAP1 POP PUSH1 0x1 DUP3 AND DUP1 PUSH2 0x1F11 JUMPI PUSH1 0x7F DUP3 AND SWAP2 POP JUMPDEST PUSH1 0x20 DUP3 LT DUP2 EQ ISZERO PUSH2 0x1F25 JUMPI PUSH2 0x1F24 PUSH2 0x1F89 JUMP JUMPDEST JUMPDEST POP SWAP2 SWAP1 POP JUMP JUMPDEST PUSH32 0x4E487B7100000000000000000000000000000000000000000000000000000000 PUSH1 0x0 MSTORE PUSH1 0x11 PUSH1 0x4 MSTORE PUSH1 0x24 PUSH1 0x0 REVERT JUMPDEST PUSH32 0x4E487B7100000000000000000000000000000000000000000000000000000000 PUSH1 0x0 MSTORE PUSH1 0x12 PUSH1 0x4 MSTORE PUSH1 0x24 PUSH1 0x0 REVERT JUMPDEST PUSH32 0x4E487B7100000000000000000000000000000000000000000000000000000000 PUSH1 0x0 MSTORE PUSH1 0x22 PUSH1 0x4 MSTORE PUSH1 0x24 PUSH1 0x0 REVERT JUMPDEST PUSH1 0x0 DUP1 REVERT JUMPDEST PUSH1 0x0 PUSH1 0x1F NOT PUSH1 0x1F DUP4 ADD AND SWAP1 POP SWAP2 SWAP1 POP JUMP JUMPDEST PUSH32 0x45524332303A207472616E7366657220746F20746865207A65726F2061646472 PUSH1 0x0 DUP3 ADD MSTORE PUSH32 0x6573730000000000000000000000000000000000000000000000000000000000 PUSH1 0x20 DUP3 ADD MSTORE POP JUMP JUMPDEST PUSH32 0x45524332303A206275726E20616D6F756E7420657863656564732062616C616E PUSH1 0x0 DUP3 ADD MSTORE PUSH32 0x6365000000000000000000000000000000000000000000000000000000000000 PUSH1 0x20 DUP3 ADD MSTORE POP JUMP JUMPDEST PUSH32 0x45524332303A20617070726F766520746F20746865207A65726F206164647265 PUSH1 0x0 DUP3 ADD MSTORE PUSH32 0x7373000000000000000000000000000000000000000000000000000000000000 PUSH1 0x20 DUP3 ADD MSTORE POP JUMP JUMPDEST PUSH32 0x496E73756666696369656E7420696E70757420616D6F756E74206F6620455243 PUSH1 0x0 DUP3 ADD MSTORE PUSH32 0x323020546F6B656E730000000000000000000000000000000000000000000000 PUSH1 0x20 DUP3 ADD MSTORE POP JUMP JUMPDEST PUSH32 0x45524332303A20696E73756666696369656E7420616C6C6F77616E6365000000 PUSH1 0x0 DUP3 ADD MSTORE POP JUMP JUMPDEST PUSH32 0x45524332303A207472616E7366657220616D6F756E7420657863656564732062 PUSH1 0x0 DUP3 ADD MSTORE PUSH32 0x616C616E63650000000000000000000000000000000000000000000000000000 PUSH1 0x20 DUP3 ADD MSTORE POP JUMP JUMPDEST PUSH32 0x506C6561736520696E70757420612076616C696420616D6F756E74206F66204C PUSH1 0x0 DUP3 ADD MSTORE PUSH32 0x5020546F6B656E7320746F206275726E2F72656465656D000000000000000000 PUSH1 0x20 DUP3 ADD MSTORE POP JUMP JUMPDEST PUSH32 0x45524332303A206275726E2066726F6D20746865207A65726F20616464726573 PUSH1 0x0 DUP3 ADD MSTORE PUSH32 0x7300000000000000000000000000000000000000000000000000000000000000 PUSH1 0x20 DUP3 ADD MSTORE POP JUMP JUMPDEST PUSH32 0x45544820616D6F756E742063616E6E6F74206265207A65726F00000000000000 PUSH1 0x0 DUP3 ADD MSTORE POP JUMP JUMPDEST PUSH32 0x45524332303A207472616E736665722066726F6D20746865207A65726F206164 PUSH1 0x0 DUP3 ADD MSTORE PUSH32 0x6472657373000000000000000000000000000000000000000000000000000000 PUSH1 0x20 DUP3 ADD MSTORE POP JUMP JUMPDEST PUSH32 0x5472616E73616374696F6E206F662045746865722077617320756E7375636365 PUSH1 0x0 DUP3 ADD MSTORE PUSH32 0x737366756C000000000000000000000000000000000000000000000000000000 PUSH1 0x20 DUP3 ADD MSTORE POP JUMP JUMPDEST POP JUMP JUMPDEST PUSH32 0x45524332303A20617070726F76652066726F6D20746865207A65726F20616464 PUSH1 0x0 DUP3 ADD MSTORE PUSH32 0x7265737300000000000000000000000000000000000000000000000000000000 PUSH1 0x20 DUP3 ADD MSTORE POP JUMP JUMPDEST PUSH32 0x45524332303A2064656372656173656420616C6C6F77616E63652062656C6F77 PUSH1 0x0 DUP3 ADD MSTORE PUSH32 0x207A65726F000000000000000000000000000000000000000000000000000000 PUSH1 0x20 DUP3 ADD MSTORE POP JUMP JUMPDEST PUSH32 0x45524332303A206D696E7420746F20746865207A65726F206164647265737300 PUSH1 0x0 DUP3 ADD MSTORE POP JUMP JUMPDEST PUSH2 0x23BA DUP2 PUSH2 0x1E71 JUMP JUMPDEST DUP2 EQ PUSH2 0x23C5 JUMPI PUSH1 0x0 DUP1 REVERT JUMPDEST POP JUMP JUMPDEST PUSH2 0x23D1 DUP2 PUSH2 0x1E83 JUMP JUMPDEST DUP2 EQ PUSH2 0x23DC JUMPI PUSH1 0x0 DUP1 REVERT JUMPDEST POP JUMP JUMPDEST PUSH2 0x23E8 DUP2 PUSH2 0x1EAF JUMP JUMPDEST DUP2 EQ PUSH2 0x23F3 JUMPI PUSH1 0x0 DUP1 REVERT JUMPDEST POP JUMP INVALID LOG2 PUSH5 0x6970667358 0x22 SLT KECCAK256 SWAP3 EQ 0xDD 0x25 PUSH10 0x98B882C348874752A571 PUSH15 0x262856682A0D1AD537D6D80206E199 0xDD PUSH5 0x736F6C6343 STOP ADDMOD SMOD STOP CALLER "
				},
				"gasEstimates": {
					"creation": {
						"codeDepositCost": "1852000",
						"executionCost": "infinite",
						"totalCost": "infinite"
					},
					"external": {
						"addLiquidity(uint256)": "infinite",
						"allowance(address,address)": "infinite",
						"approve(address,uint256)": "infinite",
						"balanceOf(address)": "2886",
						"decimals()": "410",
						"decreaseAllowance(address,uint256)": "infinite",
						"factoryAddress()": "2603",
						"getReserves()": "infinite",
						"getTokenAmountForSwap(uint256)": "infinite",
						"increaseAllowance(address,uint256)": "infinite",
						"name()": "infinite",
						"removeLiquidity(uint256)": "infinite",
						"symbol()": "infinite",
						"tokenAddress()": "2558",
						"totalSupply()": "2460",
						"transfer(address,uint256)": "infinite",
						"transferFrom(address,address,uint256)": "infinite"
					},
					"internal": {
						"getOutputAmount(uint256,uint256,uint256)": "infinite"
					}
				},
				"methodIdentifiers": {
					"addLiquidity(uint256)": "51c6590a",
					"allowance(address,address)": "dd62ed3e",
					"approve(address,uint256)": "095ea7b3",
					"balanceOf(address)": "70a08231",
					"decimals()": "313ce567",
					"decreaseAllowance(address,uint256)": "a457c2d7",
					"factoryAddress()": "966dae0e",
					"getReserves()": "0902f1ac",
					"getTokenAmountForSwap(uint256)": "0f8070b4",
					"increaseAllowance(address,uint256)": "39509351",
					"name()": "06fdde03",
					"removeLiquidity(uint256)": "9c8f9f23",
					"symbol()": "95d89b41",
					"tokenAddress()": "9d76ea58",
					"totalSupply()": "18160ddd",
					"transfer(address,uint256)": "a9059cbb",
					"transferFrom(address,address,uint256)": "23b872dd"
				}
			},
			"storageLayout": {
				"storage": [
					{
						"astId": 15,
						"contract": "contracts/Pair.sol:Pair",
						"label": "_balances",
						"offset": 0,
						"slot": "0",
						"type": "t_mapping(t_address,t_uint256)"
					},
					{
						"astId": 21,
						"contract": "contracts/Pair.sol:Pair",
						"label": "_allowances",
						"offset": 0,
						"slot": "1",
						"type": "t_mapping(t_address,t_mapping(t_address,t_uint256))"
					},
					{
						"astId": 23,
						"contract": "contracts/Pair.sol:Pair",
						"label": "_totalSupply",
						"offset": 0,
						"slot": "2",
						"type": "t_uint256"
					},
					{
						"astId": 25,
						"contract": "contracts/Pair.sol:Pair",
						"label": "_name",
						"offset": 0,
						"slot": "3",
						"type": "t_string_storage"
					},
					{
						"astId": 27,
						"contract": "contracts/Pair.sol:Pair",
						"label": "_symbol",
						"offset": 0,
						"slot": "4",
						"type": "t_string_storage"
					},
					{
						"astId": 739,
						"contract": "contracts/Pair.sol:Pair",
						"label": "tokenAddress",
						"offset": 0,
						"slot": "5",
						"type": "t_address"
					},
					{
						"astId": 741,
						"contract": "contracts/Pair.sol:Pair",
						"label": "factoryAddress",
						"offset": 0,
						"slot": "6",
						"type": "t_address"
					}
				],
				"types": {
					"t_address": {
						"encoding": "inplace",
						"label": "address",
						"numberOfBytes": "20"
					},
					"t_mapping(t_address,t_mapping(t_address,t_uint256))": {
						"encoding": "mapping",
						"key": "t_address",
						"label": "mapping(address => mapping(address => uint256))",
						"numberOfBytes": "32",
						"value": "t_mapping(t_address,t_uint256)"
					},
					"t_mapping(t_address,t_uint256)": {
						"encoding": "mapping",
						"key": "t_address",
						"label": "mapping(address => uint256)",
						"numberOfBytes": "32",
						"value": "t_uint256"
					},
					"t_string_storage": {
						"encoding": "bytes",
						"label": "string",
						"numberOfBytes": "32"
					},
					"t_uint256": {
						"encoding": "inplace",
						"label": "uint256",
						"numberOfBytes": "32"
					}
				}
			},
			"userdoc": {
				"kind": "user",
				"methods": {},
				"version": 1
			}
		}
	}
}