{
	"contracts/Pair.sol": {
		"Pair": {
			"abi": [
				{
					"inputs": [
						{
							"internalType": "address",
							"name": "token",
							"type": "address"
						}
					],
					"stateMutability": "nonpayable",
					"type": "constructor"
				},
				{
					"anonymous": false,
					"inputs": [
						{
							"indexed": true,
							"internalType": "address",
							"name": "provider",
							"type": "address"
						},
						{
							"indexed": true,
							"internalType": "uint256",
							"name": "ethAmount",
							"type": "uint256"
						},
						{
							"indexed": true,
							"internalType": "uint256",
							"name": "tokenAmount",
							"type": "uint256"
						}
					],
					"name": "AddLiquidity",
					"type": "event"
				},
				{
					"anonymous": false,
					"inputs": [
						{
							"indexed": true,
							"internalType": "address",
							"name": "owner",
							"type": "address"
						},
						{
							"indexed": true,
							"internalType": "address",
							"name": "spender",
							"type": "address"
						},
						{
							"indexed": false,
							"internalType": "uint256",
							"name": "value",
							"type": "uint256"
						}
					],
					"name": "Approval",
					"type": "event"
				},
				{
					"anonymous": false,
					"inputs": [
						{
							"indexed": true,
							"internalType": "address",
							"name": "provider",
							"type": "address"
						},
						{
							"indexed": true,
							"internalType": "uint256",
							"name": "ethAmount",
							"type": "uint256"
						},
						{
							"indexed": true,
							"internalType": "uint256",
							"name": "tokenAmount",
							"type": "uint256"
						}
					],
					"name": "RemoveLiquidity",
					"type": "event"
				},
				{
					"anonymous": false,
					"inputs": [
						{
							"indexed": true,
							"internalType": "address",
							"name": "buyer",
							"type": "address"
						},
						{
							"indexed": true,
							"internalType": "uint256",
							"name": "tokensGiven",
							"type": "uint256"
						},
						{
							"indexed": false,
							"internalType": "uint256",
							"name": "ethRecieved",
							"type": "uint256"
						}
					],
					"name": "SwapForEth",
					"type": "event"
				},
				{
					"anonymous": false,
					"inputs": [
						{
							"indexed": true,
							"internalType": "address",
							"name": "buyer",
							"type": "address"
						},
						{
							"indexed": true,
							"internalType": "uint256",
							"name": "ethGiven",
							"type": "uint256"
						},
						{
							"indexed": false,
							"internalType": "uint256",
							"name": "tokensRecieved",
							"type": "uint256"
						}
					],
					"name": "SwapForTokens",
					"type": "event"
				},
				{
					"anonymous": false,
					"inputs": [
						{
							"indexed": true,
							"internalType": "address",
							"name": "from",
							"type": "address"
						},
						{
							"indexed": true,
							"internalType": "address",
							"name": "to",
							"type": "address"
						},
						{
							"indexed": false,
							"internalType": "uint256",
							"name": "value",
							"type": "uint256"
						}
					],
					"name": "Transfer",
					"type": "event"
				},
				{
					"inputs": [
						{
							"internalType": "uint256",
							"name": "inputTokenAmount",
							"type": "uint256"
						}
					],
					"name": "addLiquidity",
					"outputs": [
						{
							"internalType": "uint256",
							"name": "lpTokenAmount",
							"type": "uint256"
						}
					],
					"stateMutability": "payable",
					"type": "function"
				},
				{
					"inputs": [
						{
							"internalType": "address",
							"name": "owner",
							"type": "address"
						},
						{
							"internalType": "address",
							"name": "spender",
							"type": "address"
						}
					],
					"name": "allowance",
					"outputs": [
						{
							"internalType": "uint256",
							"name": "",
							"type": "uint256"
						}
					],
					"stateMutability": "view",
					"type": "function"
				},
				{
					"inputs": [
						{
							"internalType": "address",
							"name": "spender",
							"type": "address"
						},
						{
							"internalType": "uint256",
							"name": "amount",
							"type": "uint256"
						}
					],
					"name": "approve",
					"outputs": [
						{
							"internalType": "bool",
							"name": "",
							"type": "bool"
						}
					],
					"stateMutability": "nonpayable",
					"type": "function"
				},
				{
					"inputs": [
						{
							"internalType": "address",
							"name": "account",
							"type": "address"
						}
					],
					"name": "balanceOf",
					"outputs": [
						{
							"internalType": "uint256",
							"name": "",
							"type": "uint256"
						}
					],
					"stateMutability": "view",
					"type": "function"
				},
				{
					"inputs": [],
					"name": "decimals",
					"outputs": [
						{
							"internalType": "uint8",
							"name": "",
							"type": "uint8"
						}
					],
					"stateMutability": "view",
					"type": "function"
				},
				{
					"inputs": [
						{
							"internalType": "address",
							"name": "spender",
							"type": "address"
						},
						{
							"internalType": "uint256",
							"name": "subtractedValue",
							"type": "uint256"
						}
					],
					"name": "decreaseAllowance",
					"outputs": [
						{
							"internalType": "bool",
							"name": "",
							"type": "bool"
						}
					],
					"stateMutability": "nonpayable",
					"type": "function"
				},
				{
					"inputs": [
						{
							"internalType": "uint256",
							"name": "tokenAmount",
							"type": "uint256"
						},
						{
							"internalType": "address",
							"name": "recipient",
							"type": "address"
						}
					],
					"name": "ethForTokenHigh",
					"outputs": [],
					"stateMutability": "payable",
					"type": "function"
				},
				{
					"inputs": [],
					"name": "factoryAddress",
					"outputs": [
						{
							"internalType": "address",
							"name": "",
							"type": "address"
						}
					],
					"stateMutability": "view",
					"type": "function"
				},
				{
					"inputs": [
						{
							"internalType": "uint256",
							"name": "tokenAmount",
							"type": "uint256"
						}
					],
					"name": "getEthAmountForSwap",
					"outputs": [
						{
							"internalType": "uint256",
							"name": "ethAmount",
							"type": "uint256"
						}
					],
					"stateMutability": "view",
					"type": "function"
				},
				{
					"inputs": [],
					"name": "getReserves",
					"outputs": [
						{
							"internalType": "uint256",
							"name": "tokenReserve",
							"type": "uint256"
						},
						{
							"internalType": "uint256",
							"name": "ethReserve",
							"type": "uint256"
						}
					],
					"stateMutability": "view",
					"type": "function"
				},
				{
					"inputs": [
						{
							"internalType": "uint256",
							"name": "ethAmount",
							"type": "uint256"
						}
					],
					"name": "getTokenAmountForSwap",
					"outputs": [
						{
							"internalType": "uint256",
							"name": "tokenAmount",
							"type": "uint256"
						}
					],
					"stateMutability": "view",
					"type": "function"
				},
				{
					"inputs": [
						{
							"internalType": "address",
							"name": "spender",
							"type": "address"
						},
						{
							"internalType": "uint256",
							"name": "addedValue",
							"type": "uint256"
						}
					],
					"name": "increaseAllowance",
					"outputs": [
						{
							"internalType": "bool",
							"name": "",
							"type": "bool"
						}
					],
					"stateMutability": "nonpayable",
					"type": "function"
				},
				{
					"inputs": [],
					"name": "name",
					"outputs": [
						{
							"internalType": "string",
							"name": "",
							"type": "string"
						}
					],
					"stateMutability": "view",
					"type": "function"
				},
				{
					"inputs": [
						{
							"internalType": "uint256",
							"name": "lpTokenAmount",
							"type": "uint256"
						}
					],
					"name": "removeLiquidity",
					"outputs": [
						{
							"internalType": "uint256",
							"name": "ethAmount",
							"type": "uint256"
						},
						{
							"internalType": "uint256",
							"name": "tokenAmount",
							"type": "uint256"
						}
					],
					"stateMutability": "nonpayable",
					"type": "function"
				},
				{
					"inputs": [],
					"name": "symbol",
					"outputs": [
						{
							"internalType": "string",
							"name": "",
							"type": "string"
						}
					],
					"stateMutability": "view",
					"type": "function"
				},
				{
					"inputs": [],
					"name": "tokenAddress",
					"outputs": [
						{
							"internalType": "address",
							"name": "",
							"type": "address"
						}
					],
					"stateMutability": "view",
					"type": "function"
				},
				{
					"inputs": [],
					"name": "totalSupply",
					"outputs": [
						{
							"internalType": "uint256",
							"name": "",
							"type": "uint256"
						}
					],
					"stateMutability": "view",
					"type": "function"
				},
				{
					"inputs": [
						{
							"internalType": "address",
							"name": "to",
							"type": "address"
						},
						{
							"internalType": "uint256",
							"name": "amount",
							"type": "uint256"
						}
					],
					"name": "transfer",
					"outputs": [
						{
							"internalType": "bool",
							"name": "",
							"type": "bool"
						}
					],
					"stateMutability": "nonpayable",
					"type": "function"
				},
				{
					"inputs": [
						{
							"internalType": "address",
							"name": "from",
							"type": "address"
						},
						{
							"internalType": "address",
							"name": "to",
							"type": "address"
						},
						{
							"internalType": "uint256",
							"name": "amount",
							"type": "uint256"
						}
					],
					"name": "transferFrom",
					"outputs": [
						{
							"internalType": "bool",
							"name": "",
							"type": "bool"
						}
					],
					"stateMutability": "nonpayable",
					"type": "function"
				}
			],
			"devdoc": {
				"kind": "dev",
				"methods": {
					"allowance(address,address)": {
						"details": "See {IERC20-allowance}."
					},
					"approve(address,uint256)": {
						"details": "See {IERC20-approve}. NOTE: If `amount` is the maximum `uint256`, the allowance is not updated on `transferFrom`. This is semantically equivalent to an infinite approval. Requirements: - `spender` cannot be the zero address."
					},
					"balanceOf(address)": {
						"details": "See {IERC20-balanceOf}."
					},
					"decimals()": {
						"details": "Returns the number of decimals used to get its user representation. For example, if `decimals` equals `2`, a balance of `505` tokens should be displayed to a user as `5.05` (`505 / 10 ** 2`). Tokens usually opt for a value of 18, imitating the relationship between Ether and Wei. This is the value {ERC20} uses, unless this function is overridden; NOTE: This information is only used for _display_ purposes: it in no way affects any of the arithmetic of the contract, including {IERC20-balanceOf} and {IERC20-transfer}."
					},
					"decreaseAllowance(address,uint256)": {
						"details": "Atomically decreases the allowance granted to `spender` by the caller. This is an alternative to {approve} that can be used as a mitigation for problems described in {IERC20-approve}. Emits an {Approval} event indicating the updated allowance. Requirements: - `spender` cannot be the zero address. - `spender` must have allowance for the caller of at least `subtractedValue`."
					},
					"increaseAllowance(address,uint256)": {
						"details": "Atomically increases the allowance granted to `spender` by the caller. This is an alternative to {approve} that can be used as a mitigation for problems described in {IERC20-approve}. Emits an {Approval} event indicating the updated allowance. Requirements: - `spender` cannot be the zero address."
					},
					"name()": {
						"details": "Returns the name of the token."
					},
					"symbol()": {
						"details": "Returns the symbol of the token, usually a shorter version of the name."
					},
					"totalSupply()": {
						"details": "See {IERC20-totalSupply}."
					},
					"transfer(address,uint256)": {
						"details": "See {IERC20-transfer}. Requirements: - `to` cannot be the zero address. - the caller must have a balance of at least `amount`."
					},
					"transferFrom(address,address,uint256)": {
						"details": "See {IERC20-transferFrom}. Emits an {Approval} event indicating the updated allowance. This is not required by the EIP. See the note at the beginning of {ERC20}. NOTE: Does not update the allowance if the current allowance is the maximum `uint256`. Requirements: - `from` and `to` cannot be the zero address. - `from` must have a balance of at least `amount`. - the caller must have allowance for ``from``'s tokens of at least `amount`."
					}
				},
				"version": 1
			},
			"evm": {
				"assembly": "    /* \"contracts/Pair.sol\":822:5933  contract Pair is ERC20 {\r... */\n  mstore(0x40, 0x80)\n    /* \"contracts/Pair.sol\":1633:1822  constructor(address token) ERC20(\"Swap V1\", \"Swap-V1\"){\r... */\n  callvalue\n  dup1\n  iszero\n  tag_1\n  jumpi\n  0x00\n  dup1\n  revert\ntag_1:\n  pop\n  mload(0x40)\n  sub(codesize, bytecodeSize)\n  dup1\n  bytecodeSize\n  dup4\n  codecopy\n  dup2\n  dup2\n  add\n  0x40\n  mstore\n  dup2\n  add\n  swap1\n  tag_2\n  swap2\n  swap1\n  tag_3\n  jump\t// in\ntag_2:\n    /* \"@openzeppelin/contracts/token/ERC20/ERC20.sol\":1978:2091  constructor(string memory name_, string memory symbol_) {... */\n  mload(0x40)\n  dup1\n  0x40\n  add\n  0x40\n  mstore\n  dup1\n  0x07\n  dup2\n  mstore\n  0x20\n  add\n  0x5377617020563100000000000000000000000000000000000000000000000000\n  dup2\n  mstore\n  pop\n  mload(0x40)\n  dup1\n  0x40\n  add\n  0x40\n  mstore\n  dup1\n  0x07\n  dup2\n  mstore\n  0x20\n  add\n  0x537761702d563100000000000000000000000000000000000000000000000000\n  dup2\n  mstore\n  pop\n    /* \"@openzeppelin/contracts/token/ERC20/ERC20.sol\":2052:2057  name_ */\n  dup2\n    /* \"@openzeppelin/contracts/token/ERC20/ERC20.sol\":2044:2049  _name */\n  0x03\n    /* \"@openzeppelin/contracts/token/ERC20/ERC20.sol\":2044:2057  _name = name_ */\n  swap1\n  dup1\n  mload\n  swap1\n  0x20\n  add\n  swap1\n  tag_7\n  swap3\n  swap2\n  swap1\n  tag_8\n  jump\t// in\ntag_7:\n  pop\n    /* \"@openzeppelin/contracts/token/ERC20/ERC20.sol\":2077:2084  symbol_ */\n  dup1\n    /* \"@openzeppelin/contracts/token/ERC20/ERC20.sol\":2067:2074  _symbol */\n  0x04\n    /* \"@openzeppelin/contracts/token/ERC20/ERC20.sol\":2067:2084  _symbol = symbol_ */\n  swap1\n  dup1\n  mload\n  swap1\n  0x20\n  add\n  swap1\n  tag_9\n  swap3\n  swap2\n  swap1\n  tag_8\n  jump\t// in\ntag_9:\n  pop\n    /* \"@openzeppelin/contracts/token/ERC20/ERC20.sol\":1978:2091  constructor(string memory name_, string memory symbol_) {... */\n  pop\n  pop\n    /* \"contracts/Pair.sol\":1723:1724  0 */\n  0x00\n    /* \"contracts/Pair.sol\":1706:1725  token != address(0) */\n  0xffffffffffffffffffffffffffffffffffffffff\n  and\n    /* \"contracts/Pair.sol\":1706:1711  token */\n  dup2\n    /* \"contracts/Pair.sol\":1706:1725  token != address(0) */\n  0xffffffffffffffffffffffffffffffffffffffff\n  and\n  eq\n  iszero\n    /* \"contracts/Pair.sol\":1698:1745  require(token != address(0), \"Invalid address\") */\n  tag_11\n  jumpi\n  mload(0x40)\n  0x08c379a000000000000000000000000000000000000000000000000000000000\n  dup2\n  mstore\n  0x04\n  add\n  tag_12\n  swap1\n  tag_13\n  jump\t// in\ntag_12:\n  mload(0x40)\n  dup1\n  swap2\n  sub\n  swap1\n  revert\ntag_11:\n    /* \"contracts/Pair.sol\":1771:1776  token */\n  dup1\n    /* \"contracts/Pair.sol\":1756:1768  tokenAddress */\n  0x05\n  0x00\n    /* \"contracts/Pair.sol\":1756:1776  tokenAddress = token */\n  0x0100\n  exp\n  dup2\n  sload\n  dup2\n  0xffffffffffffffffffffffffffffffffffffffff\n  mul\n  not\n  and\n  swap1\n  dup4\n  0xffffffffffffffffffffffffffffffffffffffff\n  and\n  mul\n  or\n  swap1\n  sstore\n  pop\n    /* \"contracts/Pair.sol\":1804:1814  msg.sender */\n  caller\n    /* \"contracts/Pair.sol\":1787:1801  factoryAddress */\n  0x06\n  0x00\n    /* \"contracts/Pair.sol\":1787:1814  factoryAddress = msg.sender */\n  0x0100\n  exp\n  dup2\n  sload\n  dup2\n  0xffffffffffffffffffffffffffffffffffffffff\n  mul\n  not\n  and\n  swap1\n  dup4\n  0xffffffffffffffffffffffffffffffffffffffff\n  and\n  mul\n  or\n  swap1\n  sstore\n  pop\n    /* \"contracts/Pair.sol\":1633:1822  constructor(address token) ERC20(\"Swap V1\", \"Swap-V1\"){\r... */\n  pop\n    /* \"contracts/Pair.sol\":822:5933  contract Pair is ERC20 {\r... */\n  jump(tag_14)\ntag_8:\n  dup3\n  dup1\n  sload\n  tag_15\n  swap1\n  tag_16\n  jump\t// in\ntag_15:\n  swap1\n  0x00\n  mstore\n  keccak256(0x00, 0x20)\n  swap1\n  0x1f\n  add\n  0x20\n  swap1\n  div\n  dup2\n  add\n  swap3\n  dup3\n  tag_18\n  jumpi\n  0x00\n  dup6\n  sstore\n  jump(tag_17)\ntag_18:\n  dup3\n  0x1f\n  lt\n  tag_19\n  jumpi\n  dup1\n  mload\n  not(0xff)\n  and\n  dup4\n  dup1\n  add\n  or\n  dup6\n  sstore\n  jump(tag_17)\ntag_19:\n  dup3\n  dup1\n  add\n  0x01\n  add\n  dup6\n  sstore\n  dup3\n  iszero\n  tag_17\n  jumpi\n  swap2\n  dup3\n  add\ntag_20:\n  dup3\n  dup2\n  gt\n  iszero\n  tag_21\n  jumpi\n  dup3\n  mload\n  dup3\n  sstore\n  swap2\n  0x20\n  add\n  swap2\n  swap1\n  0x01\n  add\n  swap1\n  jump(tag_20)\ntag_21:\ntag_17:\n  pop\n  swap1\n  pop\n  tag_22\n  swap2\n  swap1\n  tag_23\n  jump\t// in\ntag_22:\n  pop\n  swap1\n  jump\t// out\ntag_23:\ntag_24:\n  dup1\n  dup3\n  gt\n  iszero\n  tag_25\n  jumpi\n  0x00\n  dup2\n  0x00\n  swap1\n  sstore\n  pop\n  0x01\n  add\n  jump(tag_24)\ntag_25:\n  pop\n  swap1\n  jump\t// out\n    /* \"#utility.yul\":7:150   */\ntag_27:\n    /* \"#utility.yul\":64:69   */\n  0x00\n    /* \"#utility.yul\":95:101   */\n  dup2\n    /* \"#utility.yul\":89:102   */\n  mload\n    /* \"#utility.yul\":80:102   */\n  swap1\n  pop\n    /* \"#utility.yul\":111:144   */\n  tag_29\n    /* \"#utility.yul\":138:143   */\n  dup2\n    /* \"#utility.yul\":111:144   */\n  tag_30\n  jump\t// in\ntag_29:\n    /* \"#utility.yul\":7:150   */\n  swap3\n  swap2\n  pop\n  pop\n  jump\t// out\n    /* \"#utility.yul\":156:507   */\ntag_3:\n    /* \"#utility.yul\":226:232   */\n  0x00\n    /* \"#utility.yul\":275:277   */\n  0x20\n    /* \"#utility.yul\":263:272   */\n  dup3\n    /* \"#utility.yul\":254:261   */\n  dup5\n    /* \"#utility.yul\":250:273   */\n  sub\n    /* \"#utility.yul\":246:278   */\n  slt\n    /* \"#utility.yul\":243:362   */\n  iszero\n  tag_32\n  jumpi\n    /* \"#utility.yul\":281:360   */\n  tag_33\n  tag_34\n  jump\t// in\ntag_33:\n    /* \"#utility.yul\":243:362   */\ntag_32:\n    /* \"#utility.yul\":401:402   */\n  0x00\n    /* \"#utility.yul\":426:490   */\n  tag_35\n    /* \"#utility.yul\":482:489   */\n  dup5\n    /* \"#utility.yul\":473:479   */\n  dup3\n    /* \"#utility.yul\":462:471   */\n  dup6\n    /* \"#utility.yul\":458:480   */\n  add\n    /* \"#utility.yul\":426:490   */\n  tag_27\n  jump\t// in\ntag_35:\n    /* \"#utility.yul\":416:490   */\n  swap2\n  pop\n    /* \"#utility.yul\":372:500   */\n  pop\n    /* \"#utility.yul\":156:507   */\n  swap3\n  swap2\n  pop\n  pop\n  jump\t// out\n    /* \"#utility.yul\":513:879   */\ntag_36:\n    /* \"#utility.yul\":655:658   */\n  0x00\n    /* \"#utility.yul\":676:743   */\n  tag_38\n    /* \"#utility.yul\":740:742   */\n  0x0f\n    /* \"#utility.yul\":735:738   */\n  dup4\n    /* \"#utility.yul\":676:743   */\n  tag_39\n  jump\t// in\ntag_38:\n    /* \"#utility.yul\":669:743   */\n  swap2\n  pop\n    /* \"#utility.yul\":752:845   */\n  tag_40\n    /* \"#utility.yul\":841:844   */\n  dup3\n    /* \"#utility.yul\":752:845   */\n  tag_41\n  jump\t// in\ntag_40:\n    /* \"#utility.yul\":870:872   */\n  0x20\n    /* \"#utility.yul\":865:868   */\n  dup3\n    /* \"#utility.yul\":861:873   */\n  add\n    /* \"#utility.yul\":854:873   */\n  swap1\n  pop\n    /* \"#utility.yul\":513:879   */\n  swap2\n  swap1\n  pop\n  jump\t// out\n    /* \"#utility.yul\":885:1304   */\ntag_13:\n    /* \"#utility.yul\":1051:1055   */\n  0x00\n    /* \"#utility.yul\":1089:1091   */\n  0x20\n    /* \"#utility.yul\":1078:1087   */\n  dup3\n    /* \"#utility.yul\":1074:1092   */\n  add\n    /* \"#utility.yul\":1066:1092   */\n  swap1\n  pop\n    /* \"#utility.yul\":1138:1147   */\n  dup2\n    /* \"#utility.yul\":1132:1136   */\n  dup2\n    /* \"#utility.yul\":1128:1148   */\n  sub\n    /* \"#utility.yul\":1124:1125   */\n  0x00\n    /* \"#utility.yul\":1113:1122   */\n  dup4\n    /* \"#utility.yul\":1109:1126   */\n  add\n    /* \"#utility.yul\":1102:1149   */\n  mstore\n    /* \"#utility.yul\":1166:1297   */\n  tag_43\n    /* \"#utility.yul\":1292:1296   */\n  dup2\n    /* \"#utility.yul\":1166:1297   */\n  tag_36\n  jump\t// in\ntag_43:\n    /* \"#utility.yul\":1158:1297   */\n  swap1\n  pop\n    /* \"#utility.yul\":885:1304   */\n  swap2\n  swap1\n  pop\n  jump\t// out\n    /* \"#utility.yul\":1391:1560   */\ntag_39:\n    /* \"#utility.yul\":1475:1486   */\n  0x00\n    /* \"#utility.yul\":1509:1515   */\n  dup3\n    /* \"#utility.yul\":1504:1507   */\n  dup3\n    /* \"#utility.yul\":1497:1516   */\n  mstore\n    /* \"#utility.yul\":1549:1553   */\n  0x20\n    /* \"#utility.yul\":1544:1547   */\n  dup3\n    /* \"#utility.yul\":1540:1554   */\n  add\n    /* \"#utility.yul\":1525:1554   */\n  swap1\n  pop\n    /* \"#utility.yul\":1391:1560   */\n  swap3\n  swap2\n  pop\n  pop\n  jump\t// out\n    /* \"#utility.yul\":1566:1662   */\ntag_47:\n    /* \"#utility.yul\":1603:1610   */\n  0x00\n    /* \"#utility.yul\":1632:1656   */\n  tag_49\n    /* \"#utility.yul\":1650:1655   */\n  dup3\n    /* \"#utility.yul\":1632:1656   */\n  tag_50\n  jump\t// in\ntag_49:\n    /* \"#utility.yul\":1621:1656   */\n  swap1\n  pop\n    /* \"#utility.yul\":1566:1662   */\n  swap2\n  swap1\n  pop\n  jump\t// out\n    /* \"#utility.yul\":1668:1794   */\ntag_50:\n    /* \"#utility.yul\":1705:1712   */\n  0x00\n    /* \"#utility.yul\":1745:1787   */\n  0xffffffffffffffffffffffffffffffffffffffff\n    /* \"#utility.yul\":1738:1743   */\n  dup3\n    /* \"#utility.yul\":1734:1788   */\n  and\n    /* \"#utility.yul\":1723:1788   */\n  swap1\n  pop\n    /* \"#utility.yul\":1668:1794   */\n  swap2\n  swap1\n  pop\n  jump\t// out\n    /* \"#utility.yul\":1800:2120   */\ntag_16:\n    /* \"#utility.yul\":1844:1850   */\n  0x00\n    /* \"#utility.yul\":1881:1882   */\n  0x02\n    /* \"#utility.yul\":1875:1879   */\n  dup3\n    /* \"#utility.yul\":1871:1883   */\n  div\n    /* \"#utility.yul\":1861:1883   */\n  swap1\n  pop\n    /* \"#utility.yul\":1928:1929   */\n  0x01\n    /* \"#utility.yul\":1922:1926   */\n  dup3\n    /* \"#utility.yul\":1918:1930   */\n  and\n    /* \"#utility.yul\":1949:1967   */\n  dup1\n    /* \"#utility.yul\":1939:2020   */\n  tag_53\n  jumpi\n    /* \"#utility.yul\":2005:2009   */\n  0x7f\n    /* \"#utility.yul\":1997:2003   */\n  dup3\n    /* \"#utility.yul\":1993:2010   */\n  and\n    /* \"#utility.yul\":1983:2010   */\n  swap2\n  pop\n    /* \"#utility.yul\":1939:2020   */\ntag_53:\n    /* \"#utility.yul\":2067:2069   */\n  0x20\n    /* \"#utility.yul\":2059:2065   */\n  dup3\n    /* \"#utility.yul\":2056:2070   */\n  lt\n    /* \"#utility.yul\":2036:2054   */\n  dup2\n    /* \"#utility.yul\":2033:2071   */\n  eq\n    /* \"#utility.yul\":2030:2114   */\n  iszero\n  tag_54\n  jumpi\n    /* \"#utility.yul\":2086:2104   */\n  tag_55\n  tag_56\n  jump\t// in\ntag_55:\n    /* \"#utility.yul\":2030:2114   */\ntag_54:\n    /* \"#utility.yul\":1851:2120   */\n  pop\n    /* \"#utility.yul\":1800:2120   */\n  swap2\n  swap1\n  pop\n  jump\t// out\n    /* \"#utility.yul\":2126:2306   */\ntag_56:\n    /* \"#utility.yul\":2174:2251   */\n  0x4e487b7100000000000000000000000000000000000000000000000000000000\n    /* \"#utility.yul\":2171:2172   */\n  0x00\n    /* \"#utility.yul\":2164:2252   */\n  mstore\n    /* \"#utility.yul\":2271:2275   */\n  0x22\n    /* \"#utility.yul\":2268:2269   */\n  0x04\n    /* \"#utility.yul\":2261:2276   */\n  mstore\n    /* \"#utility.yul\":2295:2299   */\n  0x24\n    /* \"#utility.yul\":2292:2293   */\n  0x00\n    /* \"#utility.yul\":2285:2300   */\n  revert\n    /* \"#utility.yul\":2435:2552   */\ntag_34:\n    /* \"#utility.yul\":2544:2545   */\n  0x00\n    /* \"#utility.yul\":2541:2542   */\n  dup1\n    /* \"#utility.yul\":2534:2546   */\n  revert\n    /* \"#utility.yul\":2558:2723   */\ntag_41:\n    /* \"#utility.yul\":2698:2715   */\n  0x496e76616c696420616464726573730000000000000000000000000000000000\n    /* \"#utility.yul\":2694:2695   */\n  0x00\n    /* \"#utility.yul\":2686:2692   */\n  dup3\n    /* \"#utility.yul\":2682:2696   */\n  add\n    /* \"#utility.yul\":2675:2716   */\n  mstore\n    /* \"#utility.yul\":2558:2723   */\n  pop\n  jump\t// out\n    /* \"#utility.yul\":2729:2851   */\ntag_30:\n    /* \"#utility.yul\":2802:2826   */\n  tag_63\n    /* \"#utility.yul\":2820:2825   */\n  dup2\n    /* \"#utility.yul\":2802:2826   */\n  tag_47\n  jump\t// in\ntag_63:\n    /* \"#utility.yul\":2795:2800   */\n  dup2\n    /* \"#utility.yul\":2792:2827   */\n  eq\n    /* \"#utility.yul\":2782:2845   */\n  tag_64\n  jumpi\n    /* \"#utility.yul\":2841:2842   */\n  0x00\n    /* \"#utility.yul\":2838:2839   */\n  dup1\n    /* \"#utility.yul\":2831:2843   */\n  revert\n    /* \"#utility.yul\":2782:2845   */\ntag_64:\n    /* \"#utility.yul\":2729:2851   */\n  pop\n  jump\t// out\n    /* \"contracts/Pair.sol\":822:5933  contract Pair is ERC20 {\r... */\ntag_14:\n  dataSize(sub_0)\n  dup1\n  dataOffset(sub_0)\n  0x00\n  codecopy\n  0x00\n  return\nstop\n\nsub_0: assembly {\n        /* \"contracts/Pair.sol\":822:5933  contract Pair is ERC20 {\r... */\n      mstore(0x40, 0x80)\n      jumpi(tag_1, lt(calldatasize, 0x04))\n      shr(0xe0, calldataload(0x00))\n      dup1\n      0x51c6590a\n      gt\n      tag_21\n      jumpi\n      dup1\n      0x9c8f9f23\n      gt\n      tag_22\n      jumpi\n      dup1\n      0x9c8f9f23\n      eq\n      tag_16\n      jumpi\n      dup1\n      0x9d76ea58\n      eq\n      tag_17\n      jumpi\n      dup1\n      0xa457c2d7\n      eq\n      tag_18\n      jumpi\n      dup1\n      0xa9059cbb\n      eq\n      tag_19\n      jumpi\n      dup1\n      0xdd62ed3e\n      eq\n      tag_20\n      jumpi\n      jump(tag_1)\n    tag_22:\n      dup1\n      0x51c6590a\n      eq\n      tag_11\n      jumpi\n      dup1\n      0x6e9e8116\n      eq\n      tag_12\n      jumpi\n      dup1\n      0x70a08231\n      eq\n      tag_13\n      jumpi\n      dup1\n      0x95d89b41\n      eq\n      tag_14\n      jumpi\n      dup1\n      0x966dae0e\n      eq\n      tag_15\n      jumpi\n      jump(tag_1)\n    tag_21:\n      dup1\n      0x18160ddd\n      gt\n      tag_23\n      jumpi\n      dup1\n      0x18160ddd\n      eq\n      tag_6\n      jumpi\n      dup1\n      0x23b872dd\n      eq\n      tag_7\n      jumpi\n      dup1\n      0x2c0c60a4\n      eq\n      tag_8\n      jumpi\n      dup1\n      0x313ce567\n      eq\n      tag_9\n      jumpi\n      dup1\n      0x39509351\n      eq\n      tag_10\n      jumpi\n      jump(tag_1)\n    tag_23:\n      dup1\n      0x06fdde03\n      eq\n      tag_2\n      jumpi\n      dup1\n      0x0902f1ac\n      eq\n      tag_3\n      jumpi\n      dup1\n      0x095ea7b3\n      eq\n      tag_4\n      jumpi\n      dup1\n      0x0f8070b4\n      eq\n      tag_5\n      jumpi\n    tag_1:\n      0x00\n      dup1\n      revert\n        /* \"@openzeppelin/contracts/token/ERC20/ERC20.sol\":2156:2254  function name() public view virtual override returns (string memory) {... */\n    tag_2:\n      callvalue\n      dup1\n      iszero\n      tag_24\n      jumpi\n      0x00\n      dup1\n      revert\n    tag_24:\n      pop\n      tag_25\n      tag_26\n      jump\t// in\n    tag_25:\n      mload(0x40)\n      tag_27\n      swap2\n      swap1\n      tag_28\n      jump\t// in\n    tag_27:\n      mload(0x40)\n      dup1\n      swap2\n      sub\n      swap1\n      return\n        /* \"contracts/Pair.sol\":1830:2040  function getReserves() public view returns (uint256 tokenReserve, uint256 ethReserve) {\r... */\n    tag_3:\n      callvalue\n      dup1\n      iszero\n      tag_29\n      jumpi\n      0x00\n      dup1\n      revert\n    tag_29:\n      pop\n      tag_30\n      tag_31\n      jump\t// in\n    tag_30:\n      mload(0x40)\n      tag_32\n      swap3\n      swap2\n      swap1\n      tag_33\n      jump\t// in\n    tag_32:\n      mload(0x40)\n      dup1\n      swap2\n      sub\n      swap1\n      return\n        /* \"@openzeppelin/contracts/token/ERC20/ERC20.sol\":4433:4630  function approve(address spender, uint256 amount) public virtual override returns (bool) {... */\n    tag_4:\n      callvalue\n      dup1\n      iszero\n      tag_34\n      jumpi\n      0x00\n      dup1\n      revert\n    tag_34:\n      pop\n      tag_35\n      0x04\n      dup1\n      calldatasize\n      sub\n      dup2\n      add\n      swap1\n      tag_36\n      swap2\n      swap1\n      tag_37\n      jump\t// in\n    tag_36:\n      tag_38\n      jump\t// in\n    tag_35:\n      mload(0x40)\n      tag_39\n      swap2\n      swap1\n      tag_40\n      jump\t// in\n    tag_39:\n      mload(0x40)\n      dup1\n      swap2\n      sub\n      swap1\n      return\n        /* \"contracts/Pair.sol\":4534:4891  function getTokenAmountForSwap(uint256 ethAmount) public view returns (uint256 tokenAmount){\r... */\n    tag_5:\n      callvalue\n      dup1\n      iszero\n      tag_41\n      jumpi\n      0x00\n      dup1\n      revert\n    tag_41:\n      pop\n      tag_42\n      0x04\n      dup1\n      calldatasize\n      sub\n      dup2\n      add\n      swap1\n      tag_43\n      swap2\n      swap1\n      tag_44\n      jump\t// in\n    tag_43:\n      tag_45\n      jump\t// in\n    tag_42:\n      mload(0x40)\n      tag_46\n      swap2\n      swap1\n      tag_47\n      jump\t// in\n    tag_46:\n      mload(0x40)\n      dup1\n      swap2\n      sub\n      swap1\n      return\n        /* \"@openzeppelin/contracts/token/ERC20/ERC20.sol\":3244:3350  function totalSupply() public view virtual override returns (uint256) {... */\n    tag_6:\n      callvalue\n      dup1\n      iszero\n      tag_48\n      jumpi\n      0x00\n      dup1\n      revert\n    tag_48:\n      pop\n      tag_49\n      tag_50\n      jump\t// in\n    tag_49:\n      mload(0x40)\n      tag_51\n      swap2\n      swap1\n      tag_47\n      jump\t// in\n    tag_51:\n      mload(0x40)\n      dup1\n      swap2\n      sub\n      swap1\n      return\n        /* \"@openzeppelin/contracts/token/ERC20/ERC20.sol\":5192:5478  function transferFrom(... */\n    tag_7:\n      callvalue\n      dup1\n      iszero\n      tag_52\n      jumpi\n      0x00\n      dup1\n      revert\n    tag_52:\n      pop\n      tag_53\n      0x04\n      dup1\n      calldatasize\n      sub\n      dup2\n      add\n      swap1\n      tag_54\n      swap2\n      swap1\n      tag_55\n      jump\t// in\n    tag_54:\n      tag_56\n      jump\t// in\n    tag_53:\n      mload(0x40)\n      tag_57\n      swap2\n      swap1\n      tag_40\n      jump\t// in\n    tag_57:\n      mload(0x40)\n      dup1\n      swap2\n      sub\n      swap1\n      return\n        /* \"contracts/Pair.sol\":4951:5306  function getEthAmountForSwap(uint256 tokenAmount) public view returns (uint256 ethAmount){\r... */\n    tag_8:\n      callvalue\n      dup1\n      iszero\n      tag_58\n      jumpi\n      0x00\n      dup1\n      revert\n    tag_58:\n      pop\n      tag_59\n      0x04\n      dup1\n      calldatasize\n      sub\n      dup2\n      add\n      swap1\n      tag_60\n      swap2\n      swap1\n      tag_44\n      jump\t// in\n    tag_60:\n      tag_61\n      jump\t// in\n    tag_59:\n      mload(0x40)\n      tag_62\n      swap2\n      swap1\n      tag_47\n      jump\t// in\n    tag_62:\n      mload(0x40)\n      dup1\n      swap2\n      sub\n      swap1\n      return\n        /* \"@openzeppelin/contracts/token/ERC20/ERC20.sol\":3093:3184  function decimals() public view virtual override returns (uint8) {... */\n    tag_9:\n      callvalue\n      dup1\n      iszero\n      tag_63\n      jumpi\n      0x00\n      dup1\n      revert\n    tag_63:\n      pop\n      tag_64\n      tag_65\n      jump\t// in\n    tag_64:\n      mload(0x40)\n      tag_66\n      swap2\n      swap1\n      tag_67\n      jump\t// in\n    tag_66:\n      mload(0x40)\n      dup1\n      swap2\n      sub\n      swap1\n      return\n        /* \"@openzeppelin/contracts/token/ERC20/ERC20.sol\":5873:6107  function increaseAllowance(address spender, uint256 addedValue) public virtual returns (bool) {... */\n    tag_10:\n      callvalue\n      dup1\n      iszero\n      tag_68\n      jumpi\n      0x00\n      dup1\n      revert\n    tag_68:\n      pop\n      tag_69\n      0x04\n      dup1\n      calldatasize\n      sub\n      dup2\n      add\n      swap1\n      tag_70\n      swap2\n      swap1\n      tag_37\n      jump\t// in\n    tag_70:\n      tag_71\n      jump\t// in\n    tag_69:\n      mload(0x40)\n      tag_72\n      swap2\n      swap1\n      tag_40\n      jump\t// in\n    tag_72:\n      mload(0x40)\n      dup1\n      swap2\n      sub\n      swap1\n      return\n        /* \"contracts/Pair.sol\":2048:3380  function addLiquidity(uint256 inputTokenAmount) public payable returns (uint256 lpTokenAmount){\r... */\n    tag_11:\n      tag_73\n      0x04\n      dup1\n      calldatasize\n      sub\n      dup2\n      add\n      swap1\n      tag_74\n      swap2\n      swap1\n      tag_44\n      jump\t// in\n    tag_74:\n      tag_75\n      jump\t// in\n    tag_73:\n      mload(0x40)\n      tag_76\n      swap2\n      swap1\n      tag_47\n      jump\t// in\n    tag_76:\n      mload(0x40)\n      dup1\n      swap2\n      sub\n      swap1\n      return\n        /* \"contracts/Pair.sol\":5831:5928  function ethForTokenHigh(uint256 tokenAmount, address recipient) public payable{\r... */\n    tag_12:\n      tag_77\n      0x04\n      dup1\n      calldatasize\n      sub\n      dup2\n      add\n      swap1\n      tag_78\n      swap2\n      swap1\n      tag_79\n      jump\t// in\n    tag_78:\n      tag_80\n      jump\t// in\n    tag_77:\n      stop\n        /* \"@openzeppelin/contracts/token/ERC20/ERC20.sol\":3408:3533  function balanceOf(address account) public view virtual override returns (uint256) {... */\n    tag_13:\n      callvalue\n      dup1\n      iszero\n      tag_81\n      jumpi\n      0x00\n      dup1\n      revert\n    tag_81:\n      pop\n      tag_82\n      0x04\n      dup1\n      calldatasize\n      sub\n      dup2\n      add\n      swap1\n      tag_83\n      swap2\n      swap1\n      tag_84\n      jump\t// in\n    tag_83:\n      tag_85\n      jump\t// in\n    tag_82:\n      mload(0x40)\n      tag_86\n      swap2\n      swap1\n      tag_47\n      jump\t// in\n    tag_86:\n      mload(0x40)\n      dup1\n      swap2\n      sub\n      swap1\n      return\n        /* \"@openzeppelin/contracts/token/ERC20/ERC20.sol\":2367:2469  function symbol() public view virtual override returns (string memory) {... */\n    tag_14:\n      callvalue\n      dup1\n      iszero\n      tag_87\n      jumpi\n      0x00\n      dup1\n      revert\n    tag_87:\n      pop\n      tag_88\n      tag_89\n      jump\t// in\n    tag_88:\n      mload(0x40)\n      tag_90\n      swap2\n      swap1\n      tag_28\n      jump\t// in\n    tag_90:\n      mload(0x40)\n      dup1\n      swap2\n      sub\n      swap1\n      return\n        /* \"contracts/Pair.sol\":886:915  address public factoryAddress */\n    tag_15:\n      callvalue\n      dup1\n      iszero\n      tag_91\n      jumpi\n      0x00\n      dup1\n      revert\n    tag_91:\n      pop\n      tag_92\n      tag_93\n      jump\t// in\n    tag_92:\n      mload(0x40)\n      tag_94\n      swap2\n      swap1\n      tag_95\n      jump\t// in\n    tag_94:\n      mload(0x40)\n      dup1\n      swap2\n      sub\n      swap1\n      return\n        /* \"contracts/Pair.sol\":3388:4112  function removeLiquidity(uint256 lpTokenAmount) public returns (uint256 ethAmount, uint256 tokenAmount){\r... */\n    tag_16:\n      callvalue\n      dup1\n      iszero\n      tag_96\n      jumpi\n      0x00\n      dup1\n      revert\n    tag_96:\n      pop\n      tag_97\n      0x04\n      dup1\n      calldatasize\n      sub\n      dup2\n      add\n      swap1\n      tag_98\n      swap2\n      swap1\n      tag_44\n      jump\t// in\n    tag_98:\n      tag_99\n      jump\t// in\n    tag_97:\n      mload(0x40)\n      tag_100\n      swap3\n      swap2\n      swap1\n      tag_33\n      jump\t// in\n    tag_100:\n      mload(0x40)\n      dup1\n      swap2\n      sub\n      swap1\n      return\n        /* \"contracts/Pair.sol\":852:879  address public tokenAddress */\n    tag_17:\n      callvalue\n      dup1\n      iszero\n      tag_101\n      jumpi\n      0x00\n      dup1\n      revert\n    tag_101:\n      pop\n      tag_102\n      tag_103\n      jump\t// in\n    tag_102:\n      mload(0x40)\n      tag_104\n      swap2\n      swap1\n      tag_95\n      jump\t// in\n    tag_104:\n      mload(0x40)\n      dup1\n      swap2\n      sub\n      swap1\n      return\n        /* \"@openzeppelin/contracts/token/ERC20/ERC20.sol\":6594:7021  function decreaseAllowance(address spender, uint256 subtractedValue) public virtual returns (bool) {... */\n    tag_18:\n      callvalue\n      dup1\n      iszero\n      tag_105\n      jumpi\n      0x00\n      dup1\n      revert\n    tag_105:\n      pop\n      tag_106\n      0x04\n      dup1\n      calldatasize\n      sub\n      dup2\n      add\n      swap1\n      tag_107\n      swap2\n      swap1\n      tag_37\n      jump\t// in\n    tag_107:\n      tag_108\n      jump\t// in\n    tag_106:\n      mload(0x40)\n      tag_109\n      swap2\n      swap1\n      tag_40\n      jump\t// in\n    tag_109:\n      mload(0x40)\n      dup1\n      swap2\n      sub\n      swap1\n      return\n        /* \"@openzeppelin/contracts/token/ERC20/ERC20.sol\":3729:3918  function transfer(address to, uint256 amount) public virtual override returns (bool) {... */\n    tag_19:\n      callvalue\n      dup1\n      iszero\n      tag_110\n      jumpi\n      0x00\n      dup1\n      revert\n    tag_110:\n      pop\n      tag_111\n      0x04\n      dup1\n      calldatasize\n      sub\n      dup2\n      add\n      swap1\n      tag_112\n      swap2\n      swap1\n      tag_37\n      jump\t// in\n    tag_112:\n      tag_113\n      jump\t// in\n    tag_111:\n      mload(0x40)\n      tag_114\n      swap2\n      swap1\n      tag_40\n      jump\t// in\n    tag_114:\n      mload(0x40)\n      dup1\n      swap2\n      sub\n      swap1\n      return\n        /* \"@openzeppelin/contracts/token/ERC20/ERC20.sol\":3976:4125  function allowance(address owner, address spender) public view virtual override returns (uint256) {... */\n    tag_20:\n      callvalue\n      dup1\n      iszero\n      tag_115\n      jumpi\n      0x00\n      dup1\n      revert\n    tag_115:\n      pop\n      tag_116\n      0x04\n      dup1\n      calldatasize\n      sub\n      dup2\n      add\n      swap1\n      tag_117\n      swap2\n      swap1\n      tag_118\n      jump\t// in\n    tag_117:\n      tag_119\n      jump\t// in\n    tag_116:\n      mload(0x40)\n      tag_120\n      swap2\n      swap1\n      tag_47\n      jump\t// in\n    tag_120:\n      mload(0x40)\n      dup1\n      swap2\n      sub\n      swap1\n      return\n        /* \"@openzeppelin/contracts/token/ERC20/ERC20.sol\":2156:2254  function name() public view virtual override returns (string memory) {... */\n    tag_26:\n        /* \"@openzeppelin/contracts/token/ERC20/ERC20.sol\":2210:2223  string memory */\n      0x60\n        /* \"@openzeppelin/contracts/token/ERC20/ERC20.sol\":2242:2247  _name */\n      0x03\n        /* \"@openzeppelin/contracts/token/ERC20/ERC20.sol\":2235:2247  return _name */\n      dup1\n      sload\n      tag_122\n      swap1\n      tag_123\n      jump\t// in\n    tag_122:\n      dup1\n      0x1f\n      add\n      0x20\n      dup1\n      swap2\n      div\n      mul\n      0x20\n      add\n      mload(0x40)\n      swap1\n      dup2\n      add\n      0x40\n      mstore\n      dup1\n      swap3\n      swap2\n      swap1\n      dup2\n      dup2\n      mstore\n      0x20\n      add\n      dup3\n      dup1\n      sload\n      tag_124\n      swap1\n      tag_123\n      jump\t// in\n    tag_124:\n      dup1\n      iszero\n      tag_125\n      jumpi\n      dup1\n      0x1f\n      lt\n      tag_126\n      jumpi\n      0x0100\n      dup1\n      dup4\n      sload\n      div\n      mul\n      dup4\n      mstore\n      swap2\n      0x20\n      add\n      swap2\n      jump(tag_125)\n    tag_126:\n      dup3\n      add\n      swap2\n      swap1\n      0x00\n      mstore\n      keccak256(0x00, 0x20)\n      swap1\n    tag_127:\n      dup2\n      sload\n      dup2\n      mstore\n      swap1\n      0x01\n      add\n      swap1\n      0x20\n      add\n      dup1\n      dup4\n      gt\n      tag_127\n      jumpi\n      dup3\n      swap1\n      sub\n      0x1f\n      and\n      dup3\n      add\n      swap2\n    tag_125:\n      pop\n      pop\n      pop\n      pop\n      pop\n      swap1\n      pop\n        /* \"@openzeppelin/contracts/token/ERC20/ERC20.sol\":2156:2254  function name() public view virtual override returns (string memory) {... */\n      swap1\n      jump\t// out\n        /* \"contracts/Pair.sol\":1830:2040  function getReserves() public view returns (uint256 tokenReserve, uint256 ethReserve) {\r... */\n    tag_31:\n        /* \"contracts/Pair.sol\":1874:1894  uint256 tokenReserve */\n      0x00\n        /* \"contracts/Pair.sol\":1896:1914  uint256 ethReserve */\n      dup1\n        /* \"contracts/Pair.sol\":1949:1961  tokenAddress */\n      0x05\n      0x00\n      swap1\n      sload\n      swap1\n      0x0100\n      exp\n      swap1\n      div\n      0xffffffffffffffffffffffffffffffffffffffff\n      and\n        /* \"contracts/Pair.sol\":1942:1972  IERC20(tokenAddress).balanceOf */\n      0xffffffffffffffffffffffffffffffffffffffff\n      and\n      0x70a08231\n        /* \"contracts/Pair.sol\":1981:1985  this */\n      address\n        /* \"contracts/Pair.sol\":1942:1987  IERC20(tokenAddress).balanceOf(address(this)) */\n      mload(0x40)\n      dup3\n      0xffffffff\n      and\n      0xe0\n      shl\n      dup2\n      mstore\n      0x04\n      add\n      tag_129\n      swap2\n      swap1\n      tag_95\n      jump\t// in\n    tag_129:\n      0x20\n      mload(0x40)\n      dup1\n      dup4\n      sub\n      dup2\n      dup7\n      dup1\n      extcodesize\n      iszero\n      dup1\n      iszero\n      tag_130\n      jumpi\n      0x00\n      dup1\n      revert\n    tag_130:\n      pop\n      gas\n      staticcall\n      iszero\n      dup1\n      iszero\n      tag_132\n      jumpi\n      returndatasize\n      0x00\n      dup1\n      returndatacopy\n      revert(0x00, returndatasize)\n    tag_132:\n      pop\n      pop\n      pop\n      pop\n      mload(0x40)\n      returndatasize\n      not(0x1f)\n      0x1f\n      dup3\n      add\n      and\n      dup3\n      add\n      dup1\n      0x40\n      mstore\n      pop\n      dup2\n      add\n      swap1\n      tag_133\n      swap2\n      swap1\n      tag_134\n      jump\t// in\n    tag_133:\n        /* \"contracts/Pair.sol\":1927:1987  tokenReserve = IERC20(tokenAddress).balanceOf(address(this)) */\n      swap2\n      pop\n        /* \"contracts/Pair.sol\":2011:2032  address(this).balance */\n      selfbalance\n        /* \"contracts/Pair.sol\":1998:2032  ethReserve = address(this).balance */\n      swap1\n      pop\n        /* \"contracts/Pair.sol\":1830:2040  function getReserves() public view returns (uint256 tokenReserve, uint256 ethReserve) {\r... */\n      swap1\n      swap2\n      jump\t// out\n        /* \"@openzeppelin/contracts/token/ERC20/ERC20.sol\":4433:4630  function approve(address spender, uint256 amount) public virtual override returns (bool) {... */\n    tag_38:\n        /* \"@openzeppelin/contracts/token/ERC20/ERC20.sol\":4516:4520  bool */\n      0x00\n        /* \"@openzeppelin/contracts/token/ERC20/ERC20.sol\":4532:4545  address owner */\n      dup1\n        /* \"@openzeppelin/contracts/token/ERC20/ERC20.sol\":4548:4560  _msgSender() */\n      tag_136\n        /* \"@openzeppelin/contracts/token/ERC20/ERC20.sol\":4548:4558  _msgSender */\n      tag_137\n        /* \"@openzeppelin/contracts/token/ERC20/ERC20.sol\":4548:4560  _msgSender() */\n      jump\t// in\n    tag_136:\n        /* \"@openzeppelin/contracts/token/ERC20/ERC20.sol\":4532:4560  address owner = _msgSender() */\n      swap1\n      pop\n        /* \"@openzeppelin/contracts/token/ERC20/ERC20.sol\":4570:4602  _approve(owner, spender, amount) */\n      tag_138\n        /* \"@openzeppelin/contracts/token/ERC20/ERC20.sol\":4579:4584  owner */\n      dup2\n        /* \"@openzeppelin/contracts/token/ERC20/ERC20.sol\":4586:4593  spender */\n      dup6\n        /* \"@openzeppelin/contracts/token/ERC20/ERC20.sol\":4595:4601  amount */\n      dup6\n        /* \"@openzeppelin/contracts/token/ERC20/ERC20.sol\":4570:4578  _approve */\n      tag_139\n        /* \"@openzeppelin/contracts/token/ERC20/ERC20.sol\":4570:4602  _approve(owner, spender, amount) */\n      jump\t// in\n    tag_138:\n        /* \"@openzeppelin/contracts/token/ERC20/ERC20.sol\":4619:4623  true */\n      0x01\n        /* \"@openzeppelin/contracts/token/ERC20/ERC20.sol\":4612:4623  return true */\n      swap2\n      pop\n      pop\n        /* \"@openzeppelin/contracts/token/ERC20/ERC20.sol\":4433:4630  function approve(address spender, uint256 amount) public virtual override returns (bool) {... */\n      swap3\n      swap2\n      pop\n      pop\n      jump\t// out\n        /* \"contracts/Pair.sol\":4534:4891  function getTokenAmountForSwap(uint256 ethAmount) public view returns (uint256 tokenAmount){\r... */\n    tag_45:\n        /* \"contracts/Pair.sol\":4605:4624  uint256 tokenAmount */\n      0x00\n        /* \"contracts/Pair.sol\":4656:4657  0 */\n      dup1\n        /* \"contracts/Pair.sol\":4644:4653  ethAmount */\n      dup3\n        /* \"contracts/Pair.sol\":4644:4657  ethAmount > 0 */\n      gt\n        /* \"contracts/Pair.sol\":4636:4687  require(ethAmount > 0, \"ETH amount cannot be zero\") */\n      tag_141\n      jumpi\n      mload(0x40)\n      0x08c379a000000000000000000000000000000000000000000000000000000000\n      dup2\n      mstore\n      0x04\n      add\n      tag_142\n      swap1\n      tag_143\n      jump\t// in\n    tag_142:\n      mload(0x40)\n      dup1\n      swap2\n      sub\n      swap1\n      revert\n    tag_141:\n        /* \"contracts/Pair.sol\":4701:4721  uint256 tokenReserve */\n      0x00\n        /* \"contracts/Pair.sol\":4723:4741  uint256 ethReserve */\n      dup1\n        /* \"contracts/Pair.sol\":4745:4758  getReserves() */\n      tag_144\n        /* \"contracts/Pair.sol\":4745:4756  getReserves */\n      tag_31\n        /* \"contracts/Pair.sol\":4745:4758  getReserves() */\n      jump\t// in\n    tag_144:\n        /* \"contracts/Pair.sol\":4700:4758  (uint256 tokenReserve, uint256 ethReserve) = getReserves() */\n      swap2\n      pop\n      swap2\n      pop\n        /* \"contracts/Pair.sol\":4831:4883  getOutputAmount(ethAmount, ethReserve, tokenReserve) */\n      tag_145\n        /* \"contracts/Pair.sol\":4847:4856  ethAmount */\n      dup5\n        /* \"contracts/Pair.sol\":4858:4868  ethReserve */\n      dup3\n        /* \"contracts/Pair.sol\":4870:4882  tokenReserve */\n      dup5\n        /* \"contracts/Pair.sol\":4831:4846  getOutputAmount */\n      tag_146\n        /* \"contracts/Pair.sol\":4831:4883  getOutputAmount(ethAmount, ethReserve, tokenReserve) */\n      jump\t// in\n    tag_145:\n        /* \"contracts/Pair.sol\":4817:4883  tokenAmount = getOutputAmount(ethAmount, ethReserve, tokenReserve) */\n      swap3\n      pop\n        /* \"contracts/Pair.sol\":4625:4891  {\r... */\n      pop\n      pop\n        /* \"contracts/Pair.sol\":4534:4891  function getTokenAmountForSwap(uint256 ethAmount) public view returns (uint256 tokenAmount){\r... */\n      swap2\n      swap1\n      pop\n      jump\t// out\n        /* \"@openzeppelin/contracts/token/ERC20/ERC20.sol\":3244:3350  function totalSupply() public view virtual override returns (uint256) {... */\n    tag_50:\n        /* \"@openzeppelin/contracts/token/ERC20/ERC20.sol\":3305:3312  uint256 */\n      0x00\n        /* \"@openzeppelin/contracts/token/ERC20/ERC20.sol\":3331:3343  _totalSupply */\n      sload(0x02)\n        /* \"@openzeppelin/contracts/token/ERC20/ERC20.sol\":3324:3343  return _totalSupply */\n      swap1\n      pop\n        /* \"@openzeppelin/contracts/token/ERC20/ERC20.sol\":3244:3350  function totalSupply() public view virtual override returns (uint256) {... */\n      swap1\n      jump\t// out\n        /* \"@openzeppelin/contracts/token/ERC20/ERC20.sol\":5192:5478  function transferFrom(... */\n    tag_56:\n        /* \"@openzeppelin/contracts/token/ERC20/ERC20.sol\":5319:5323  bool */\n      0x00\n        /* \"@openzeppelin/contracts/token/ERC20/ERC20.sol\":5335:5350  address spender */\n      dup1\n        /* \"@openzeppelin/contracts/token/ERC20/ERC20.sol\":5353:5365  _msgSender() */\n      tag_149\n        /* \"@openzeppelin/contracts/token/ERC20/ERC20.sol\":5353:5363  _msgSender */\n      tag_137\n        /* \"@openzeppelin/contracts/token/ERC20/ERC20.sol\":5353:5365  _msgSender() */\n      jump\t// in\n    tag_149:\n        /* \"@openzeppelin/contracts/token/ERC20/ERC20.sol\":5335:5365  address spender = _msgSender() */\n      swap1\n      pop\n        /* \"@openzeppelin/contracts/token/ERC20/ERC20.sol\":5375:5413  _spendAllowance(from, spender, amount) */\n      tag_150\n        /* \"@openzeppelin/contracts/token/ERC20/ERC20.sol\":5391:5395  from */\n      dup6\n        /* \"@openzeppelin/contracts/token/ERC20/ERC20.sol\":5397:5404  spender */\n      dup3\n        /* \"@openzeppelin/contracts/token/ERC20/ERC20.sol\":5406:5412  amount */\n      dup6\n        /* \"@openzeppelin/contracts/token/ERC20/ERC20.sol\":5375:5390  _spendAllowance */\n      tag_151\n        /* \"@openzeppelin/contracts/token/ERC20/ERC20.sol\":5375:5413  _spendAllowance(from, spender, amount) */\n      jump\t// in\n    tag_150:\n        /* \"@openzeppelin/contracts/token/ERC20/ERC20.sol\":5423:5450  _transfer(from, to, amount) */\n      tag_152\n        /* \"@openzeppelin/contracts/token/ERC20/ERC20.sol\":5433:5437  from */\n      dup6\n        /* \"@openzeppelin/contracts/token/ERC20/ERC20.sol\":5439:5441  to */\n      dup6\n        /* \"@openzeppelin/contracts/token/ERC20/ERC20.sol\":5443:5449  amount */\n      dup6\n        /* \"@openzeppelin/contracts/token/ERC20/ERC20.sol\":5423:5432  _transfer */\n      tag_153\n        /* \"@openzeppelin/contracts/token/ERC20/ERC20.sol\":5423:5450  _transfer(from, to, amount) */\n      jump\t// in\n    tag_152:\n        /* \"@openzeppelin/contracts/token/ERC20/ERC20.sol\":5467:5471  true */\n      0x01\n        /* \"@openzeppelin/contracts/token/ERC20/ERC20.sol\":5460:5471  return true */\n      swap2\n      pop\n      pop\n        /* \"@openzeppelin/contracts/token/ERC20/ERC20.sol\":5192:5478  function transferFrom(... */\n      swap4\n      swap3\n      pop\n      pop\n      pop\n      jump\t// out\n        /* \"contracts/Pair.sol\":4951:5306  function getEthAmountForSwap(uint256 tokenAmount) public view returns (uint256 ethAmount){\r... */\n    tag_61:\n        /* \"contracts/Pair.sol\":5022:5039  uint256 ethAmount */\n      0x00\n        /* \"contracts/Pair.sol\":5071:5072  0 */\n      dup1\n        /* \"contracts/Pair.sol\":5059:5068  ethAmount */\n      dup2\n        /* \"contracts/Pair.sol\":5059:5072  ethAmount > 0 */\n      gt\n        /* \"contracts/Pair.sol\":5051:5102  require(ethAmount > 0, \"ETH amount cannot be zero\") */\n      tag_155\n      jumpi\n      mload(0x40)\n      0x08c379a000000000000000000000000000000000000000000000000000000000\n      dup2\n      mstore\n      0x04\n      add\n      tag_156\n      swap1\n      tag_143\n      jump\t// in\n    tag_156:\n      mload(0x40)\n      dup1\n      swap2\n      sub\n      swap1\n      revert\n    tag_155:\n        /* \"contracts/Pair.sol\":5116:5136  uint256 tokenReserve */\n      0x00\n        /* \"contracts/Pair.sol\":5138:5156  uint256 ethReserve */\n      dup1\n        /* \"contracts/Pair.sol\":5160:5173  getReserves() */\n      tag_157\n        /* \"contracts/Pair.sol\":5160:5171  getReserves */\n      tag_31\n        /* \"contracts/Pair.sol\":5160:5173  getReserves() */\n      jump\t// in\n    tag_157:\n        /* \"contracts/Pair.sol\":5115:5173  (uint256 tokenReserve, uint256 ethReserve) = getReserves() */\n      swap2\n      pop\n      swap2\n      pop\n        /* \"contracts/Pair.sol\":5244:5298  getOutputAmount(tokenAmount, tokenReserve, ethReserve) */\n      tag_158\n        /* \"contracts/Pair.sol\":5260:5271  tokenAmount */\n      dup5\n        /* \"contracts/Pair.sol\":5273:5285  tokenReserve */\n      dup4\n        /* \"contracts/Pair.sol\":5287:5297  ethReserve */\n      dup4\n        /* \"contracts/Pair.sol\":5244:5259  getOutputAmount */\n      tag_146\n        /* \"contracts/Pair.sol\":5244:5298  getOutputAmount(tokenAmount, tokenReserve, ethReserve) */\n      jump\t// in\n    tag_158:\n        /* \"contracts/Pair.sol\":5232:5298  ethAmount = getOutputAmount(tokenAmount, tokenReserve, ethReserve) */\n      swap3\n      pop\n        /* \"contracts/Pair.sol\":5040:5306  {\r... */\n      pop\n      pop\n        /* \"contracts/Pair.sol\":4951:5306  function getEthAmountForSwap(uint256 tokenAmount) public view returns (uint256 ethAmount){\r... */\n      swap2\n      swap1\n      pop\n      jump\t// out\n        /* \"@openzeppelin/contracts/token/ERC20/ERC20.sol\":3093:3184  function decimals() public view virtual override returns (uint8) {... */\n    tag_65:\n        /* \"@openzeppelin/contracts/token/ERC20/ERC20.sol\":3151:3156  uint8 */\n      0x00\n        /* \"@openzeppelin/contracts/token/ERC20/ERC20.sol\":3175:3177  18 */\n      0x12\n        /* \"@openzeppelin/contracts/token/ERC20/ERC20.sol\":3168:3177  return 18 */\n      swap1\n      pop\n        /* \"@openzeppelin/contracts/token/ERC20/ERC20.sol\":3093:3184  function decimals() public view virtual override returns (uint8) {... */\n      swap1\n      jump\t// out\n        /* \"@openzeppelin/contracts/token/ERC20/ERC20.sol\":5873:6107  function increaseAllowance(address spender, uint256 addedValue) public virtual returns (bool) {... */\n    tag_71:\n        /* \"@openzeppelin/contracts/token/ERC20/ERC20.sol\":5961:5965  bool */\n      0x00\n        /* \"@openzeppelin/contracts/token/ERC20/ERC20.sol\":5977:5990  address owner */\n      dup1\n        /* \"@openzeppelin/contracts/token/ERC20/ERC20.sol\":5993:6005  _msgSender() */\n      tag_161\n        /* \"@openzeppelin/contracts/token/ERC20/ERC20.sol\":5993:6003  _msgSender */\n      tag_137\n        /* \"@openzeppelin/contracts/token/ERC20/ERC20.sol\":5993:6005  _msgSender() */\n      jump\t// in\n    tag_161:\n        /* \"@openzeppelin/contracts/token/ERC20/ERC20.sol\":5977:6005  address owner = _msgSender() */\n      swap1\n      pop\n        /* \"@openzeppelin/contracts/token/ERC20/ERC20.sol\":6015:6079  _approve(owner, spender, allowance(owner, spender) + addedValue) */\n      tag_162\n        /* \"@openzeppelin/contracts/token/ERC20/ERC20.sol\":6024:6029  owner */\n      dup2\n        /* \"@openzeppelin/contracts/token/ERC20/ERC20.sol\":6031:6038  spender */\n      dup6\n        /* \"@openzeppelin/contracts/token/ERC20/ERC20.sol\":6068:6078  addedValue */\n      dup6\n        /* \"@openzeppelin/contracts/token/ERC20/ERC20.sol\":6040:6065  allowance(owner, spender) */\n      tag_163\n        /* \"@openzeppelin/contracts/token/ERC20/ERC20.sol\":6050:6055  owner */\n      dup6\n        /* \"@openzeppelin/contracts/token/ERC20/ERC20.sol\":6057:6064  spender */\n      dup10\n        /* \"@openzeppelin/contracts/token/ERC20/ERC20.sol\":6040:6049  allowance */\n      tag_119\n        /* \"@openzeppelin/contracts/token/ERC20/ERC20.sol\":6040:6065  allowance(owner, spender) */\n      jump\t// in\n    tag_163:\n        /* \"@openzeppelin/contracts/token/ERC20/ERC20.sol\":6040:6078  allowance(owner, spender) + addedValue */\n      tag_164\n      swap2\n      swap1\n      tag_165\n      jump\t// in\n    tag_164:\n        /* \"@openzeppelin/contracts/token/ERC20/ERC20.sol\":6015:6023  _approve */\n      tag_139\n        /* \"@openzeppelin/contracts/token/ERC20/ERC20.sol\":6015:6079  _approve(owner, spender, allowance(owner, spender) + addedValue) */\n      jump\t// in\n    tag_162:\n        /* \"@openzeppelin/contracts/token/ERC20/ERC20.sol\":6096:6100  true */\n      0x01\n        /* \"@openzeppelin/contracts/token/ERC20/ERC20.sol\":6089:6100  return true */\n      swap2\n      pop\n      pop\n        /* \"@openzeppelin/contracts/token/ERC20/ERC20.sol\":5873:6107  function increaseAllowance(address spender, uint256 addedValue) public virtual returns (bool) {... */\n      swap3\n      swap2\n      pop\n      pop\n      jump\t// out\n        /* \"contracts/Pair.sol\":2048:3380  function addLiquidity(uint256 inputTokenAmount) public payable returns (uint256 lpTokenAmount){\r... */\n    tag_75:\n        /* \"contracts/Pair.sol\":2120:2141  uint256 lpTokenAmount */\n      0x00\n        /* \"contracts/Pair.sol\":2154:2174  uint256 tokenReserve */\n      dup1\n        /* \"contracts/Pair.sol\":2176:2194  uint256 ethReserve */\n      0x00\n        /* \"contracts/Pair.sol\":2198:2211  getReserves() */\n      tag_167\n        /* \"contracts/Pair.sol\":2198:2209  getReserves */\n      tag_31\n        /* \"contracts/Pair.sol\":2198:2211  getReserves() */\n      jump\t// in\n    tag_167:\n        /* \"contracts/Pair.sol\":2153:2211  (uint256 tokenReserve, uint256 ethReserve) = getReserves() */\n      swap2\n      pop\n      swap2\n      pop\n        /* \"contracts/Pair.sol\":2440:2441  0 */\n      0x00\n        /* \"contracts/Pair.sol\":2424:2436  tokenReserve */\n      dup3\n        /* \"contracts/Pair.sol\":2424:2441  tokenReserve == 0 */\n      eq\n        /* \"contracts/Pair.sol\":2420:3259  if (tokenReserve == 0) {\r... */\n      iszero\n      tag_168\n      jumpi\n        /* \"contracts/Pair.sol\":2458:2470  IERC20 token */\n      0x00\n        /* \"contracts/Pair.sol\":2480:2492  tokenAddress */\n      0x05\n      0x00\n      swap1\n      sload\n      swap1\n      0x0100\n      exp\n      swap1\n      div\n      0xffffffffffffffffffffffffffffffffffffffff\n      and\n        /* \"contracts/Pair.sol\":2458:2493  IERC20 token = IERC20(tokenAddress) */\n      swap1\n      pop\n        /* \"contracts/Pair.sol\":2508:2513  token */\n      dup1\n        /* \"contracts/Pair.sol\":2508:2526  token.transferFrom */\n      0xffffffffffffffffffffffffffffffffffffffff\n      and\n      0x23b872dd\n        /* \"contracts/Pair.sol\":2527:2537  msg.sender */\n      caller\n        /* \"contracts/Pair.sol\":2547:2551  this */\n      address\n        /* \"contracts/Pair.sol\":2554:2570  inputTokenAmount */\n      dup9\n        /* \"contracts/Pair.sol\":2508:2571  token.transferFrom(msg.sender, address(this), inputTokenAmount) */\n      mload(0x40)\n      dup5\n      0xffffffff\n      and\n      0xe0\n      shl\n      dup2\n      mstore\n      0x04\n      add\n      tag_169\n      swap4\n      swap3\n      swap2\n      swap1\n      tag_170\n      jump\t// in\n    tag_169:\n      0x20\n      mload(0x40)\n      dup1\n      dup4\n      sub\n      dup2\n      0x00\n      dup8\n      dup1\n      extcodesize\n      iszero\n      dup1\n      iszero\n      tag_171\n      jumpi\n      0x00\n      dup1\n      revert\n    tag_171:\n      pop\n      gas\n      call\n      iszero\n      dup1\n      iszero\n      tag_173\n      jumpi\n      returndatasize\n      0x00\n      dup1\n      returndatacopy\n      revert(0x00, returndatasize)\n    tag_173:\n      pop\n      pop\n      pop\n      pop\n      mload(0x40)\n      returndatasize\n      not(0x1f)\n      0x1f\n      dup3\n      add\n      and\n      dup3\n      add\n      dup1\n      0x40\n      mstore\n      pop\n      dup2\n      add\n      swap1\n      tag_174\n      swap2\n      swap1\n      tag_175\n      jump\t// in\n    tag_174:\n      pop\n        /* \"contracts/Pair.sol\":2602:2612  ethReserve */\n      dup2\n        /* \"contracts/Pair.sol\":2586:2612  lpTokenAmount = ethReserve */\n      swap4\n      pop\n        /* \"contracts/Pair.sol\":2443:2624  {\r... */\n      pop\n        /* \"contracts/Pair.sol\":2420:3259  if (tokenReserve == 0) {\r... */\n      jump(tag_176)\n    tag_168:\n        /* \"contracts/Pair.sol\":2702:2711  msg.value */\n      callvalue\n        /* \"contracts/Pair.sol\":2688:2711  ethReserve -= msg.value */\n      dup2\n      tag_177\n      swap2\n      swap1\n      tag_178\n      jump\t// in\n    tag_177:\n      swap1\n      pop\n        /* \"contracts/Pair.sol\":2799:2825  uint256 requiredTokenInput */\n      0x00\n        /* \"contracts/Pair.sol\":2853:2863  ethReserve */\n      dup2\n        /* \"contracts/Pair.sol\":2840:2852  tokenReserve */\n      dup4\n        /* \"contracts/Pair.sol\":2828:2837  msg.value */\n      callvalue\n        /* \"contracts/Pair.sol\":2828:2852  msg.value * tokenReserve */\n      tag_179\n      swap2\n      swap1\n      tag_180\n      jump\t// in\n    tag_179:\n        /* \"contracts/Pair.sol\":2828:2863  msg.value * tokenReserve/ethReserve */\n      tag_181\n      swap2\n      swap1\n      tag_182\n      jump\t// in\n    tag_181:\n        /* \"contracts/Pair.sol\":2799:2863  uint256 requiredTokenInput = msg.value * tokenReserve/ethReserve */\n      swap1\n      pop\n        /* \"contracts/Pair.sol\":2984:3002  requiredTokenInput */\n      dup1\n        /* \"contracts/Pair.sol\":2964:2980  inputTokenAmount */\n      dup6\n        /* \"contracts/Pair.sol\":2964:3002  inputTokenAmount >= requiredTokenInput */\n      lt\n      iszero\n        /* \"contracts/Pair.sol\":2956:3048  require(inputTokenAmount >= requiredTokenInput, \"Insufficient input amount of ERC20 Tokens\") */\n      tag_183\n      jumpi\n      mload(0x40)\n      0x08c379a000000000000000000000000000000000000000000000000000000000\n      dup2\n      mstore\n      0x04\n      add\n      tag_184\n      swap1\n      tag_185\n      jump\t// in\n    tag_184:\n      mload(0x40)\n      dup1\n      swap2\n      sub\n      swap1\n      revert\n    tag_183:\n        /* \"contracts/Pair.sol\":3063:3075  IERC20 token */\n      0x00\n        /* \"contracts/Pair.sol\":3085:3097  tokenAddress */\n      0x05\n      0x00\n      swap1\n      sload\n      swap1\n      0x0100\n      exp\n      swap1\n      div\n      0xffffffffffffffffffffffffffffffffffffffff\n      and\n        /* \"contracts/Pair.sol\":3063:3098  IERC20 token = IERC20(tokenAddress) */\n      swap1\n      pop\n        /* \"contracts/Pair.sol\":3113:3118  token */\n      dup1\n        /* \"contracts/Pair.sol\":3113:3131  token.transferFrom */\n      0xffffffffffffffffffffffffffffffffffffffff\n      and\n      0x23b872dd\n        /* \"contracts/Pair.sol\":3132:3142  msg.sender */\n      caller\n        /* \"contracts/Pair.sol\":3152:3156  this */\n      address\n        /* \"contracts/Pair.sol\":3159:3175  inputTokenAmount */\n      dup10\n        /* \"contracts/Pair.sol\":3113:3176  token.transferFrom(msg.sender, address(this), inputTokenAmount) */\n      mload(0x40)\n      dup5\n      0xffffffff\n      and\n      0xe0\n      shl\n      dup2\n      mstore\n      0x04\n      add\n      tag_186\n      swap4\n      swap3\n      swap2\n      swap1\n      tag_170\n      jump\t// in\n    tag_186:\n      0x20\n      mload(0x40)\n      dup1\n      dup4\n      sub\n      dup2\n      0x00\n      dup8\n      dup1\n      extcodesize\n      iszero\n      dup1\n      iszero\n      tag_187\n      jumpi\n      0x00\n      dup1\n      revert\n    tag_187:\n      pop\n      gas\n      call\n      iszero\n      dup1\n      iszero\n      tag_189\n      jumpi\n      returndatasize\n      0x00\n      dup1\n      returndatacopy\n      revert(0x00, returndatasize)\n    tag_189:\n      pop\n      pop\n      pop\n      pop\n      mload(0x40)\n      returndatasize\n      not(0x1f)\n      0x1f\n      dup3\n      add\n      and\n      dup3\n      add\n      dup1\n      0x40\n      mstore\n      pop\n      dup2\n      add\n      swap1\n      tag_190\n      swap2\n      swap1\n      tag_175\n      jump\t// in\n    tag_190:\n      pop\n        /* \"contracts/Pair.sol\":3237:3247  ethReserve */\n      dup3\n        /* \"contracts/Pair.sol\":3224:3233  msg.value */\n      callvalue\n        /* \"contracts/Pair.sol\":3208:3221  totalSupply() */\n      tag_191\n        /* \"contracts/Pair.sol\":3208:3219  totalSupply */\n      tag_50\n        /* \"contracts/Pair.sol\":3208:3221  totalSupply() */\n      jump\t// in\n    tag_191:\n        /* \"contracts/Pair.sol\":3208:3233  totalSupply() * msg.value */\n      tag_192\n      swap2\n      swap1\n      tag_180\n      jump\t// in\n    tag_192:\n        /* \"contracts/Pair.sol\":3207:3247  (totalSupply() * msg.value) / ethReserve */\n      tag_193\n      swap2\n      swap1\n      tag_182\n      jump\t// in\n    tag_193:\n        /* \"contracts/Pair.sol\":3191:3247  lpTokenAmount = (totalSupply() * msg.value) / ethReserve */\n      swap5\n      pop\n        /* \"contracts/Pair.sol\":2673:3259  {\r... */\n      pop\n      pop\n        /* \"contracts/Pair.sol\":2420:3259  if (tokenReserve == 0) {\r... */\n    tag_176:\n        /* \"contracts/Pair.sol\":3271:3303  _mint(msg.sender, lpTokenAmount) */\n      tag_194\n        /* \"contracts/Pair.sol\":3277:3287  msg.sender */\n      caller\n        /* \"contracts/Pair.sol\":3289:3302  lpTokenAmount */\n      dup5\n        /* \"contracts/Pair.sol\":3271:3276  _mint */\n      tag_195\n        /* \"contracts/Pair.sol\":3271:3303  _mint(msg.sender, lpTokenAmount) */\n      jump\t// in\n    tag_194:\n        /* \"contracts/Pair.sol\":3355:3371  inputTokenAmount */\n      dup4\n        /* \"contracts/Pair.sol\":3344:3353  msg.value */\n      callvalue\n        /* \"contracts/Pair.sol\":3332:3342  msg.sender */\n      caller\n        /* \"contracts/Pair.sol\":3319:3372  AddLiquidity(msg.sender, msg.value, inputTokenAmount) */\n      0xffffffffffffffffffffffffffffffffffffffff\n      and\n      0x06239653922ac7bea6aa2b19dc486b9361821d37712eb796adfd38d81de278ca\n      mload(0x40)\n      mload(0x40)\n      dup1\n      swap2\n      sub\n      swap1\n      log4\n        /* \"contracts/Pair.sol\":2142:3380  {\r... */\n      pop\n      pop\n        /* \"contracts/Pair.sol\":2048:3380  function addLiquidity(uint256 inputTokenAmount) public payable returns (uint256 lpTokenAmount){\r... */\n      swap2\n      swap1\n      pop\n      jump\t// out\n        /* \"contracts/Pair.sol\":5831:5928  function ethForTokenHigh(uint256 tokenAmount, address recipient) public payable{\r... */\n    tag_80:\n      pop\n      pop\n      jump\t// out\n        /* \"@openzeppelin/contracts/token/ERC20/ERC20.sol\":3408:3533  function balanceOf(address account) public view virtual override returns (uint256) {... */\n    tag_85:\n        /* \"@openzeppelin/contracts/token/ERC20/ERC20.sol\":3482:3489  uint256 */\n      0x00\n        /* \"@openzeppelin/contracts/token/ERC20/ERC20.sol\":3508:3517  _balances */\n      dup1\n        /* \"@openzeppelin/contracts/token/ERC20/ERC20.sol\":3508:3526  _balances[account] */\n      0x00\n        /* \"@openzeppelin/contracts/token/ERC20/ERC20.sol\":3518:3525  account */\n      dup4\n        /* \"@openzeppelin/contracts/token/ERC20/ERC20.sol\":3508:3526  _balances[account] */\n      0xffffffffffffffffffffffffffffffffffffffff\n      and\n      0xffffffffffffffffffffffffffffffffffffffff\n      and\n      dup2\n      mstore\n      0x20\n      add\n      swap1\n      dup2\n      mstore\n      0x20\n      add\n      0x00\n      keccak256\n      sload\n        /* \"@openzeppelin/contracts/token/ERC20/ERC20.sol\":3501:3526  return _balances[account] */\n      swap1\n      pop\n        /* \"@openzeppelin/contracts/token/ERC20/ERC20.sol\":3408:3533  function balanceOf(address account) public view virtual override returns (uint256) {... */\n      swap2\n      swap1\n      pop\n      jump\t// out\n        /* \"@openzeppelin/contracts/token/ERC20/ERC20.sol\":2367:2469  function symbol() public view virtual override returns (string memory) {... */\n    tag_89:\n        /* \"@openzeppelin/contracts/token/ERC20/ERC20.sol\":2423:2436  string memory */\n      0x60\n        /* \"@openzeppelin/contracts/token/ERC20/ERC20.sol\":2455:2462  _symbol */\n      0x04\n        /* \"@openzeppelin/contracts/token/ERC20/ERC20.sol\":2448:2462  return _symbol */\n      dup1\n      sload\n      tag_199\n      swap1\n      tag_123\n      jump\t// in\n    tag_199:\n      dup1\n      0x1f\n      add\n      0x20\n      dup1\n      swap2\n      div\n      mul\n      0x20\n      add\n      mload(0x40)\n      swap1\n      dup2\n      add\n      0x40\n      mstore\n      dup1\n      swap3\n      swap2\n      swap1\n      dup2\n      dup2\n      mstore\n      0x20\n      add\n      dup3\n      dup1\n      sload\n      tag_200\n      swap1\n      tag_123\n      jump\t// in\n    tag_200:\n      dup1\n      iszero\n      tag_201\n      jumpi\n      dup1\n      0x1f\n      lt\n      tag_202\n      jumpi\n      0x0100\n      dup1\n      dup4\n      sload\n      div\n      mul\n      dup4\n      mstore\n      swap2\n      0x20\n      add\n      swap2\n      jump(tag_201)\n    tag_202:\n      dup3\n      add\n      swap2\n      swap1\n      0x00\n      mstore\n      keccak256(0x00, 0x20)\n      swap1\n    tag_203:\n      dup2\n      sload\n      dup2\n      mstore\n      swap1\n      0x01\n      add\n      swap1\n      0x20\n      add\n      dup1\n      dup4\n      gt\n      tag_203\n      jumpi\n      dup3\n      swap1\n      sub\n      0x1f\n      and\n      dup3\n      add\n      swap2\n    tag_201:\n      pop\n      pop\n      pop\n      pop\n      pop\n      swap1\n      pop\n        /* \"@openzeppelin/contracts/token/ERC20/ERC20.sol\":2367:2469  function symbol() public view virtual override returns (string memory) {... */\n      swap1\n      jump\t// out\n        /* \"contracts/Pair.sol\":886:915  address public factoryAddress */\n    tag_93:\n      0x06\n      0x00\n      swap1\n      sload\n      swap1\n      0x0100\n      exp\n      swap1\n      div\n      0xffffffffffffffffffffffffffffffffffffffff\n      and\n      dup2\n      jump\t// out\n        /* \"contracts/Pair.sol\":3388:4112  function removeLiquidity(uint256 lpTokenAmount) public returns (uint256 ethAmount, uint256 tokenAmount){\r... */\n    tag_99:\n        /* \"contracts/Pair.sol\":3452:3469  uint256 ethAmount */\n      0x00\n        /* \"contracts/Pair.sol\":3471:3490  uint256 tokenAmount */\n      dup1\n        /* \"contracts/Pair.sol\":3526:3527  0 */\n      0x00\n        /* \"contracts/Pair.sol\":3510:3523  lpTokenAmount */\n      dup4\n        /* \"contracts/Pair.sol\":3510:3527  lpTokenAmount > 0 */\n      gt\n        /* \"contracts/Pair.sol\":3502:3587  require(lpTokenAmount > 0, \"Please input a valid amount of LP Tokens to burn/redeem\") */\n      tag_205\n      jumpi\n      mload(0x40)\n      0x08c379a000000000000000000000000000000000000000000000000000000000\n      dup2\n      mstore\n      0x04\n      add\n      tag_206\n      swap1\n      tag_207\n      jump\t// in\n    tag_206:\n      mload(0x40)\n      dup1\n      swap2\n      sub\n      swap1\n      revert\n    tag_205:\n        /* \"contracts/Pair.sol\":3601:3621  uint256 tokenReserve */\n      0x00\n        /* \"contracts/Pair.sol\":3623:3641  uint256 ethReserve */\n      dup1\n        /* \"contracts/Pair.sol\":3645:3658  getReserves() */\n      tag_208\n        /* \"contracts/Pair.sol\":3645:3656  getReserves */\n      tag_31\n        /* \"contracts/Pair.sol\":3645:3658  getReserves() */\n      jump\t// in\n    tag_208:\n        /* \"contracts/Pair.sol\":3600:3658  (uint256 tokenReserve, uint256 ethReserve) = getReserves() */\n      swap2\n      pop\n      swap2\n      pop\n        /* \"contracts/Pair.sol\":3712:3725  totalSupply() */\n      tag_209\n        /* \"contracts/Pair.sol\":3712:3723  totalSupply */\n      tag_50\n        /* \"contracts/Pair.sol\":3712:3725  totalSupply() */\n      jump\t// in\n    tag_209:\n        /* \"contracts/Pair.sol\":3695:3708  lpTokenAmount */\n      dup6\n        /* \"contracts/Pair.sol\":3682:3692  ethReserve */\n      dup3\n        /* \"contracts/Pair.sol\":3682:3708  ethReserve * lpTokenAmount */\n      tag_210\n      swap2\n      swap1\n      tag_180\n      jump\t// in\n    tag_210:\n        /* \"contracts/Pair.sol\":3681:3725  (ethReserve * lpTokenAmount) / totalSupply() */\n      tag_211\n      swap2\n      swap1\n      tag_182\n      jump\t// in\n    tag_211:\n        /* \"contracts/Pair.sol\":3669:3725  ethAmount = (ethReserve * lpTokenAmount) / totalSupply() */\n      swap4\n      pop\n        /* \"contracts/Pair.sol\":3783:3796  totalSupply() */\n      tag_212\n        /* \"contracts/Pair.sol\":3783:3794  totalSupply */\n      tag_50\n        /* \"contracts/Pair.sol\":3783:3796  totalSupply() */\n      jump\t// in\n    tag_212:\n        /* \"contracts/Pair.sol\":3766:3779  lpTokenAmount */\n      dup6\n        /* \"contracts/Pair.sol\":3751:3763  tokenReserve */\n      dup4\n        /* \"contracts/Pair.sol\":3751:3779  tokenReserve * lpTokenAmount */\n      tag_213\n      swap2\n      swap1\n      tag_180\n      jump\t// in\n    tag_213:\n        /* \"contracts/Pair.sol\":3750:3796  (tokenReserve * lpTokenAmount) / totalSupply() */\n      tag_214\n      swap2\n      swap1\n      tag_182\n      jump\t// in\n    tag_214:\n        /* \"contracts/Pair.sol\":3736:3796  tokenAmount = (tokenReserve * lpTokenAmount) / totalSupply() */\n      swap3\n      pop\n        /* \"contracts/Pair.sol\":3809:3841  _burn(msg.sender, lpTokenAmount) */\n      tag_215\n        /* \"contracts/Pair.sol\":3815:3825  msg.sender */\n      caller\n        /* \"contracts/Pair.sol\":3827:3840  lpTokenAmount */\n      dup7\n        /* \"contracts/Pair.sol\":3809:3814  _burn */\n      tag_216\n        /* \"contracts/Pair.sol\":3809:3841  _burn(msg.sender, lpTokenAmount) */\n      jump\t// in\n    tag_215:\n        /* \"contracts/Pair.sol\":3853:3862  bool sent */\n      0x00\n        /* \"contracts/Pair.sol\":3869:3879  msg.sender */\n      caller\n        /* \"contracts/Pair.sol\":3868:3885  (msg.sender).call */\n      0xffffffffffffffffffffffffffffffffffffffff\n      and\n        /* \"contracts/Pair.sol\":3893:3902  ethAmount */\n      dup6\n        /* \"contracts/Pair.sol\":3868:3907  (msg.sender).call{value: ethAmount}(\"\") */\n      mload(0x40)\n      tag_217\n      swap1\n      tag_218\n      jump\t// in\n    tag_217:\n      0x00\n      mload(0x40)\n      dup1\n      dup4\n      sub\n      dup2\n      dup6\n      dup8\n      gas\n      call\n      swap3\n      pop\n      pop\n      pop\n      returndatasize\n      dup1\n      0x00\n      dup2\n      eq\n      tag_221\n      jumpi\n      mload(0x40)\n      swap2\n      pop\n      and(add(returndatasize, 0x3f), not(0x1f))\n      dup3\n      add\n      0x40\n      mstore\n      returndatasize\n      dup3\n      mstore\n      returndatasize\n      0x00\n      0x20\n      dup5\n      add\n      returndatacopy\n      jump(tag_220)\n    tag_221:\n      0x60\n      swap2\n      pop\n    tag_220:\n      pop\n        /* \"contracts/Pair.sol\":3852:3907  (bool sent, ) = (msg.sender).call{value: ethAmount}(\"\") */\n      pop\n      swap1\n      pop\n        /* \"contracts/Pair.sol\":3926:3930  sent */\n      dup1\n        /* \"contracts/Pair.sol\":3918:3972  require(sent, \"Transaction of Ether was unsuccessful\") */\n      tag_222\n      jumpi\n      mload(0x40)\n      0x08c379a000000000000000000000000000000000000000000000000000000000\n      dup2\n      mstore\n      0x04\n      add\n      tag_223\n      swap1\n      tag_224\n      jump\t// in\n    tag_223:\n      mload(0x40)\n      dup1\n      swap2\n      sub\n      swap1\n      revert\n    tag_222:\n        /* \"contracts/Pair.sol\":3990:4002  tokenAddress */\n      0x05\n      0x00\n      swap1\n      sload\n      swap1\n      0x0100\n      exp\n      swap1\n      div\n      0xffffffffffffffffffffffffffffffffffffffff\n      and\n        /* \"contracts/Pair.sol\":3983:4012  IERC20(tokenAddress).transfer */\n      0xffffffffffffffffffffffffffffffffffffffff\n      and\n      0xa9059cbb\n        /* \"contracts/Pair.sol\":4013:4023  msg.sender */\n      caller\n        /* \"contracts/Pair.sol\":4025:4036  tokenAmount */\n      dup7\n        /* \"contracts/Pair.sol\":3983:4037  IERC20(tokenAddress).transfer(msg.sender, tokenAmount) */\n      mload(0x40)\n      dup4\n      0xffffffff\n      and\n      0xe0\n      shl\n      dup2\n      mstore\n      0x04\n      add\n      tag_225\n      swap3\n      swap2\n      swap1\n      tag_226\n      jump\t// in\n    tag_225:\n      0x20\n      mload(0x40)\n      dup1\n      dup4\n      sub\n      dup2\n      0x00\n      dup8\n      dup1\n      extcodesize\n      iszero\n      dup1\n      iszero\n      tag_227\n      jumpi\n      0x00\n      dup1\n      revert\n    tag_227:\n      pop\n      gas\n      call\n      iszero\n      dup1\n      iszero\n      tag_229\n      jumpi\n      returndatasize\n      0x00\n      dup1\n      returndatacopy\n      revert(0x00, returndatasize)\n    tag_229:\n      pop\n      pop\n      pop\n      pop\n      mload(0x40)\n      returndatasize\n      not(0x1f)\n      0x1f\n      dup3\n      add\n      and\n      dup3\n      add\n      dup1\n      0x40\n      mstore\n      pop\n      dup2\n      add\n      swap1\n      tag_230\n      swap2\n      swap1\n      tag_175\n      jump\t// in\n    tag_230:\n      pop\n        /* \"contracts/Pair.sol\":4092:4103  tokenAmount */\n      dup4\n        /* \"contracts/Pair.sol\":4081:4090  ethAmount */\n      dup6\n        /* \"contracts/Pair.sol\":4069:4079  msg.sender */\n      caller\n        /* \"contracts/Pair.sol\":4053:4104  RemoveLiquidity(msg.sender, ethAmount, tokenAmount) */\n      0xffffffffffffffffffffffffffffffffffffffff\n      and\n      0x0fbf06c058b90cb038a618f8c2acbf6145f8b3570fd1fa56abb8f0f3f05b36e8\n      mload(0x40)\n      mload(0x40)\n      dup1\n      swap2\n      sub\n      swap1\n      log4\n        /* \"contracts/Pair.sol\":3491:4112  {\r... */\n      pop\n      pop\n      pop\n        /* \"contracts/Pair.sol\":3388:4112  function removeLiquidity(uint256 lpTokenAmount) public returns (uint256 ethAmount, uint256 tokenAmount){\r... */\n      swap2\n      pop\n      swap2\n      jump\t// out\n        /* \"contracts/Pair.sol\":852:879  address public tokenAddress */\n    tag_103:\n      0x05\n      0x00\n      swap1\n      sload\n      swap1\n      0x0100\n      exp\n      swap1\n      div\n      0xffffffffffffffffffffffffffffffffffffffff\n      and\n      dup2\n      jump\t// out\n        /* \"@openzeppelin/contracts/token/ERC20/ERC20.sol\":6594:7021  function decreaseAllowance(address spender, uint256 subtractedValue) public virtual returns (bool) {... */\n    tag_108:\n        /* \"@openzeppelin/contracts/token/ERC20/ERC20.sol\":6687:6691  bool */\n      0x00\n        /* \"@openzeppelin/contracts/token/ERC20/ERC20.sol\":6703:6716  address owner */\n      dup1\n        /* \"@openzeppelin/contracts/token/ERC20/ERC20.sol\":6719:6731  _msgSender() */\n      tag_232\n        /* \"@openzeppelin/contracts/token/ERC20/ERC20.sol\":6719:6729  _msgSender */\n      tag_137\n        /* \"@openzeppelin/contracts/token/ERC20/ERC20.sol\":6719:6731  _msgSender() */\n      jump\t// in\n    tag_232:\n        /* \"@openzeppelin/contracts/token/ERC20/ERC20.sol\":6703:6731  address owner = _msgSender() */\n      swap1\n      pop\n        /* \"@openzeppelin/contracts/token/ERC20/ERC20.sol\":6741:6765  uint256 currentAllowance */\n      0x00\n        /* \"@openzeppelin/contracts/token/ERC20/ERC20.sol\":6768:6793  allowance(owner, spender) */\n      tag_233\n        /* \"@openzeppelin/contracts/token/ERC20/ERC20.sol\":6778:6783  owner */\n      dup3\n        /* \"@openzeppelin/contracts/token/ERC20/ERC20.sol\":6785:6792  spender */\n      dup7\n        /* \"@openzeppelin/contracts/token/ERC20/ERC20.sol\":6768:6777  allowance */\n      tag_119\n        /* \"@openzeppelin/contracts/token/ERC20/ERC20.sol\":6768:6793  allowance(owner, spender) */\n      jump\t// in\n    tag_233:\n        /* \"@openzeppelin/contracts/token/ERC20/ERC20.sol\":6741:6793  uint256 currentAllowance = allowance(owner, spender) */\n      swap1\n      pop\n        /* \"@openzeppelin/contracts/token/ERC20/ERC20.sol\":6831:6846  subtractedValue */\n      dup4\n        /* \"@openzeppelin/contracts/token/ERC20/ERC20.sol\":6811:6827  currentAllowance */\n      dup2\n        /* \"@openzeppelin/contracts/token/ERC20/ERC20.sol\":6811:6846  currentAllowance >= subtractedValue */\n      lt\n      iszero\n        /* \"@openzeppelin/contracts/token/ERC20/ERC20.sol\":6803:6888  require(currentAllowance >= subtractedValue, \"ERC20: decreased allowance below zero\") */\n      tag_234\n      jumpi\n      mload(0x40)\n      0x08c379a000000000000000000000000000000000000000000000000000000000\n      dup2\n      mstore\n      0x04\n      add\n      tag_235\n      swap1\n      tag_236\n      jump\t// in\n    tag_235:\n      mload(0x40)\n      dup1\n      swap2\n      sub\n      swap1\n      revert\n    tag_234:\n        /* \"@openzeppelin/contracts/token/ERC20/ERC20.sol\":6922:6982  _approve(owner, spender, currentAllowance - subtractedValue) */\n      tag_237\n        /* \"@openzeppelin/contracts/token/ERC20/ERC20.sol\":6931:6936  owner */\n      dup3\n        /* \"@openzeppelin/contracts/token/ERC20/ERC20.sol\":6938:6945  spender */\n      dup7\n        /* \"@openzeppelin/contracts/token/ERC20/ERC20.sol\":6966:6981  subtractedValue */\n      dup7\n        /* \"@openzeppelin/contracts/token/ERC20/ERC20.sol\":6947:6963  currentAllowance */\n      dup5\n        /* \"@openzeppelin/contracts/token/ERC20/ERC20.sol\":6947:6981  currentAllowance - subtractedValue */\n      sub\n        /* \"@openzeppelin/contracts/token/ERC20/ERC20.sol\":6922:6930  _approve */\n      tag_139\n        /* \"@openzeppelin/contracts/token/ERC20/ERC20.sol\":6922:6982  _approve(owner, spender, currentAllowance - subtractedValue) */\n      jump\t// in\n    tag_237:\n        /* \"@openzeppelin/contracts/token/ERC20/ERC20.sol\":7010:7014  true */\n      0x01\n        /* \"@openzeppelin/contracts/token/ERC20/ERC20.sol\":7003:7014  return true */\n      swap3\n      pop\n      pop\n      pop\n        /* \"@openzeppelin/contracts/token/ERC20/ERC20.sol\":6594:7021  function decreaseAllowance(address spender, uint256 subtractedValue) public virtual returns (bool) {... */\n      swap3\n      swap2\n      pop\n      pop\n      jump\t// out\n        /* \"@openzeppelin/contracts/token/ERC20/ERC20.sol\":3729:3918  function transfer(address to, uint256 amount) public virtual override returns (bool) {... */\n    tag_113:\n        /* \"@openzeppelin/contracts/token/ERC20/ERC20.sol\":3808:3812  bool */\n      0x00\n        /* \"@openzeppelin/contracts/token/ERC20/ERC20.sol\":3824:3837  address owner */\n      dup1\n        /* \"@openzeppelin/contracts/token/ERC20/ERC20.sol\":3840:3852  _msgSender() */\n      tag_239\n        /* \"@openzeppelin/contracts/token/ERC20/ERC20.sol\":3840:3850  _msgSender */\n      tag_137\n        /* \"@openzeppelin/contracts/token/ERC20/ERC20.sol\":3840:3852  _msgSender() */\n      jump\t// in\n    tag_239:\n        /* \"@openzeppelin/contracts/token/ERC20/ERC20.sol\":3824:3852  address owner = _msgSender() */\n      swap1\n      pop\n        /* \"@openzeppelin/contracts/token/ERC20/ERC20.sol\":3862:3890  _transfer(owner, to, amount) */\n      tag_240\n        /* \"@openzeppelin/contracts/token/ERC20/ERC20.sol\":3872:3877  owner */\n      dup2\n        /* \"@openzeppelin/contracts/token/ERC20/ERC20.sol\":3879:3881  to */\n      dup6\n        /* \"@openzeppelin/contracts/token/ERC20/ERC20.sol\":3883:3889  amount */\n      dup6\n        /* \"@openzeppelin/contracts/token/ERC20/ERC20.sol\":3862:3871  _transfer */\n      tag_153\n        /* \"@openzeppelin/contracts/token/ERC20/ERC20.sol\":3862:3890  _transfer(owner, to, amount) */\n      jump\t// in\n    tag_240:\n        /* \"@openzeppelin/contracts/token/ERC20/ERC20.sol\":3907:3911  true */\n      0x01\n        /* \"@openzeppelin/contracts/token/ERC20/ERC20.sol\":3900:3911  return true */\n      swap2\n      pop\n      pop\n        /* \"@openzeppelin/contracts/token/ERC20/ERC20.sol\":3729:3918  function transfer(address to, uint256 amount) public virtual override returns (bool) {... */\n      swap3\n      swap2\n      pop\n      pop\n      jump\t// out\n        /* \"@openzeppelin/contracts/token/ERC20/ERC20.sol\":3976:4125  function allowance(address owner, address spender) public view virtual override returns (uint256) {... */\n    tag_119:\n        /* \"@openzeppelin/contracts/token/ERC20/ERC20.sol\":4065:4072  uint256 */\n      0x00\n        /* \"@openzeppelin/contracts/token/ERC20/ERC20.sol\":4091:4102  _allowances */\n      0x01\n        /* \"@openzeppelin/contracts/token/ERC20/ERC20.sol\":4091:4109  _allowances[owner] */\n      0x00\n        /* \"@openzeppelin/contracts/token/ERC20/ERC20.sol\":4103:4108  owner */\n      dup5\n        /* \"@openzeppelin/contracts/token/ERC20/ERC20.sol\":4091:4109  _allowances[owner] */\n      0xffffffffffffffffffffffffffffffffffffffff\n      and\n      0xffffffffffffffffffffffffffffffffffffffff\n      and\n      dup2\n      mstore\n      0x20\n      add\n      swap1\n      dup2\n      mstore\n      0x20\n      add\n      0x00\n      keccak256\n        /* \"@openzeppelin/contracts/token/ERC20/ERC20.sol\":4091:4118  _allowances[owner][spender] */\n      0x00\n        /* \"@openzeppelin/contracts/token/ERC20/ERC20.sol\":4110:4117  spender */\n      dup4\n        /* \"@openzeppelin/contracts/token/ERC20/ERC20.sol\":4091:4118  _allowances[owner][spender] */\n      0xffffffffffffffffffffffffffffffffffffffff\n      and\n      0xffffffffffffffffffffffffffffffffffffffff\n      and\n      dup2\n      mstore\n      0x20\n      add\n      swap1\n      dup2\n      mstore\n      0x20\n      add\n      0x00\n      keccak256\n      sload\n        /* \"@openzeppelin/contracts/token/ERC20/ERC20.sol\":4084:4118  return _allowances[owner][spender] */\n      swap1\n      pop\n        /* \"@openzeppelin/contracts/token/ERC20/ERC20.sol\":3976:4125  function allowance(address owner, address spender) public view virtual override returns (uint256) {... */\n      swap3\n      swap2\n      pop\n      pop\n      jump\t// out\n        /* \"@openzeppelin/contracts/utils/Context.sol\":640:736  function _msgSender() internal view virtual returns (address) {... */\n    tag_137:\n        /* \"@openzeppelin/contracts/utils/Context.sol\":693:700  address */\n      0x00\n        /* \"@openzeppelin/contracts/utils/Context.sol\":719:729  msg.sender */\n      caller\n        /* \"@openzeppelin/contracts/utils/Context.sol\":712:729  return msg.sender */\n      swap1\n      pop\n        /* \"@openzeppelin/contracts/utils/Context.sol\":640:736  function _msgSender() internal view virtual returns (address) {... */\n      swap1\n      jump\t// out\n        /* \"@openzeppelin/contracts/token/ERC20/ERC20.sol\":10110:10480  function _approve(... */\n    tag_139:\n        /* \"@openzeppelin/contracts/token/ERC20/ERC20.sol\":10258:10259  0 */\n      0x00\n        /* \"@openzeppelin/contracts/token/ERC20/ERC20.sol\":10241:10260  owner != address(0) */\n      0xffffffffffffffffffffffffffffffffffffffff\n      and\n        /* \"@openzeppelin/contracts/token/ERC20/ERC20.sol\":10241:10246  owner */\n      dup4\n        /* \"@openzeppelin/contracts/token/ERC20/ERC20.sol\":10241:10260  owner != address(0) */\n      0xffffffffffffffffffffffffffffffffffffffff\n      and\n      eq\n      iszero\n        /* \"@openzeppelin/contracts/token/ERC20/ERC20.sol\":10233:10301  require(owner != address(0), \"ERC20: approve from the zero address\") */\n      tag_244\n      jumpi\n      mload(0x40)\n      0x08c379a000000000000000000000000000000000000000000000000000000000\n      dup2\n      mstore\n      0x04\n      add\n      tag_245\n      swap1\n      tag_246\n      jump\t// in\n    tag_245:\n      mload(0x40)\n      dup1\n      swap2\n      sub\n      swap1\n      revert\n    tag_244:\n        /* \"@openzeppelin/contracts/token/ERC20/ERC20.sol\":10338:10339  0 */\n      0x00\n        /* \"@openzeppelin/contracts/token/ERC20/ERC20.sol\":10319:10340  spender != address(0) */\n      0xffffffffffffffffffffffffffffffffffffffff\n      and\n        /* \"@openzeppelin/contracts/token/ERC20/ERC20.sol\":10319:10326  spender */\n      dup3\n        /* \"@openzeppelin/contracts/token/ERC20/ERC20.sol\":10319:10340  spender != address(0) */\n      0xffffffffffffffffffffffffffffffffffffffff\n      and\n      eq\n      iszero\n        /* \"@openzeppelin/contracts/token/ERC20/ERC20.sol\":10311:10379  require(spender != address(0), \"ERC20: approve to the zero address\") */\n      tag_247\n      jumpi\n      mload(0x40)\n      0x08c379a000000000000000000000000000000000000000000000000000000000\n      dup2\n      mstore\n      0x04\n      add\n      tag_248\n      swap1\n      tag_249\n      jump\t// in\n    tag_248:\n      mload(0x40)\n      dup1\n      swap2\n      sub\n      swap1\n      revert\n    tag_247:\n        /* \"@openzeppelin/contracts/token/ERC20/ERC20.sol\":10420:10426  amount */\n      dup1\n        /* \"@openzeppelin/contracts/token/ERC20/ERC20.sol\":10390:10401  _allowances */\n      0x01\n        /* \"@openzeppelin/contracts/token/ERC20/ERC20.sol\":10390:10408  _allowances[owner] */\n      0x00\n        /* \"@openzeppelin/contracts/token/ERC20/ERC20.sol\":10402:10407  owner */\n      dup6\n        /* \"@openzeppelin/contracts/token/ERC20/ERC20.sol\":10390:10408  _allowances[owner] */\n      0xffffffffffffffffffffffffffffffffffffffff\n      and\n      0xffffffffffffffffffffffffffffffffffffffff\n      and\n      dup2\n      mstore\n      0x20\n      add\n      swap1\n      dup2\n      mstore\n      0x20\n      add\n      0x00\n      keccak256\n        /* \"@openzeppelin/contracts/token/ERC20/ERC20.sol\":10390:10417  _allowances[owner][spender] */\n      0x00\n        /* \"@openzeppelin/contracts/token/ERC20/ERC20.sol\":10409:10416  spender */\n      dup5\n        /* \"@openzeppelin/contracts/token/ERC20/ERC20.sol\":10390:10417  _allowances[owner][spender] */\n      0xffffffffffffffffffffffffffffffffffffffff\n      and\n      0xffffffffffffffffffffffffffffffffffffffff\n      and\n      dup2\n      mstore\n      0x20\n      add\n      swap1\n      dup2\n      mstore\n      0x20\n      add\n      0x00\n      keccak256\n        /* \"@openzeppelin/contracts/token/ERC20/ERC20.sol\":10390:10426  _allowances[owner][spender] = amount */\n      dup2\n      swap1\n      sstore\n      pop\n        /* \"@openzeppelin/contracts/token/ERC20/ERC20.sol\":10457:10464  spender */\n      dup2\n        /* \"@openzeppelin/contracts/token/ERC20/ERC20.sol\":10441:10473  Approval(owner, spender, amount) */\n      0xffffffffffffffffffffffffffffffffffffffff\n      and\n        /* \"@openzeppelin/contracts/token/ERC20/ERC20.sol\":10450:10455  owner */\n      dup4\n        /* \"@openzeppelin/contracts/token/ERC20/ERC20.sol\":10441:10473  Approval(owner, spender, amount) */\n      0xffffffffffffffffffffffffffffffffffffffff\n      and\n      0x8c5be1e5ebec7d5bd14f71427d1e84f3dd0314c0f7b2291e5b200ac8c7c3b925\n        /* \"@openzeppelin/contracts/token/ERC20/ERC20.sol\":10466:10472  amount */\n      dup4\n        /* \"@openzeppelin/contracts/token/ERC20/ERC20.sol\":10441:10473  Approval(owner, spender, amount) */\n      mload(0x40)\n      tag_250\n      swap2\n      swap1\n      tag_47\n      jump\t// in\n    tag_250:\n      mload(0x40)\n      dup1\n      swap2\n      sub\n      swap1\n      log3\n        /* \"@openzeppelin/contracts/token/ERC20/ERC20.sol\":10110:10480  function _approve(... */\n      pop\n      pop\n      pop\n      jump\t// out\n        /* \"contracts/Pair.sol\":4120:4474  function getOutputAmount(uint256 ipAmount, uint256 ipReserve, uint256 opReserve) private pure returns (uint256 opAmount) {\r... */\n    tag_146:\n        /* \"contracts/Pair.sol\":4223:4239  uint256 opAmount */\n      0x00\n        /* \"contracts/Pair.sol\":4272:4273  0 */\n      dup1\n        /* \"contracts/Pair.sol\":4260:4269  ipReserve */\n      dup4\n        /* \"contracts/Pair.sol\":4260:4273  ipReserve > 0 */\n      gt\n        /* \"contracts/Pair.sol\":4260:4290  ipReserve > 0 && opReserve > 0 */\n      dup1\n      iszero\n      tag_252\n      jumpi\n      pop\n        /* \"contracts/Pair.sol\":4289:4290  0 */\n      0x00\n        /* \"contracts/Pair.sol\":4277:4286  opReserve */\n      dup3\n        /* \"contracts/Pair.sol\":4277:4290  opReserve > 0 */\n      gt\n        /* \"contracts/Pair.sol\":4260:4290  ipReserve > 0 && opReserve > 0 */\n    tag_252:\n        /* \"contracts/Pair.sol\":4252:4316  require(ipReserve > 0 && opReserve > 0, \"There are no reserves\") */\n      tag_253\n      jumpi\n      mload(0x40)\n      0x08c379a000000000000000000000000000000000000000000000000000000000\n      dup2\n      mstore\n      0x04\n      add\n      tag_254\n      swap1\n      tag_255\n      jump\t// in\n    tag_254:\n      mload(0x40)\n      dup1\n      swap2\n      sub\n      swap1\n      revert\n    tag_253:\n        /* \"contracts/Pair.sol\":4327:4350  uint256 ipAmountPlusFee */\n      0x00\n        /* \"contracts/Pair.sol\":1529:1530  0 */\n      dup1\n        /* \"contracts/Pair.sol\":4365:4369  1000 */\n      0x03e8\n        /* \"contracts/Pair.sol\":4365:4377  1000 - txFee */\n      tag_256\n      swap2\n      swap1\n      tag_178\n      jump\t// in\n    tag_256:\n        /* \"contracts/Pair.sol\":4353:4361  ipAmount */\n      dup6\n        /* \"contracts/Pair.sol\":4353:4378  ipAmount * (1000 - txFee) */\n      tag_257\n      swap2\n      swap1\n      tag_180\n      jump\t// in\n    tag_257:\n        /* \"contracts/Pair.sol\":4327:4378  uint256 ipAmountPlusFee = ipAmount * (1000 - txFee) */\n      swap1\n      pop\n        /* \"contracts/Pair.sol\":4450:4465  ipAmountPlusFee */\n      dup1\n        /* \"contracts/Pair.sol\":4438:4447  ipReserve */\n      dup5\n        /* \"contracts/Pair.sol\":4431:4435  1000 */\n      0x03e8\n        /* \"contracts/Pair.sol\":4431:4447  1000 * ipReserve */\n      tag_258\n      swap2\n      swap1\n      tag_180\n      jump\t// in\n    tag_258:\n        /* \"contracts/Pair.sol\":4431:4465  1000 * ipReserve + ipAmountPlusFee */\n      tag_259\n      swap2\n      swap1\n      tag_165\n      jump\t// in\n    tag_259:\n        /* \"contracts/Pair.sol\":4418:4427  opReserve */\n      dup4\n        /* \"contracts/Pair.sol\":4400:4415  ipAmountPlusFee */\n      dup3\n        /* \"contracts/Pair.sol\":4400:4427  ipAmountPlusFee * opReserve */\n      tag_260\n      swap2\n      swap1\n      tag_180\n      jump\t// in\n    tag_260:\n        /* \"contracts/Pair.sol\":4400:4466  ipAmountPlusFee * opReserve / (1000 * ipReserve + ipAmountPlusFee) */\n      tag_261\n      swap2\n      swap1\n      tag_182\n      jump\t// in\n    tag_261:\n        /* \"contracts/Pair.sol\":4389:4466  opAmount = ipAmountPlusFee * opReserve / (1000 * ipReserve + ipAmountPlusFee) */\n      swap2\n      pop\n        /* \"contracts/Pair.sol\":4241:4474  {\r... */\n      pop\n        /* \"contracts/Pair.sol\":4120:4474  function getOutputAmount(uint256 ipAmount, uint256 ipReserve, uint256 opReserve) private pure returns (uint256 opAmount) {\r... */\n      swap4\n      swap3\n      pop\n      pop\n      pop\n      jump\t// out\n        /* \"@openzeppelin/contracts/token/ERC20/ERC20.sol\":10761:11202  function _spendAllowance(... */\n    tag_151:\n        /* \"@openzeppelin/contracts/token/ERC20/ERC20.sol\":10891:10915  uint256 currentAllowance */\n      0x00\n        /* \"@openzeppelin/contracts/token/ERC20/ERC20.sol\":10918:10943  allowance(owner, spender) */\n      tag_263\n        /* \"@openzeppelin/contracts/token/ERC20/ERC20.sol\":10928:10933  owner */\n      dup5\n        /* \"@openzeppelin/contracts/token/ERC20/ERC20.sol\":10935:10942  spender */\n      dup5\n        /* \"@openzeppelin/contracts/token/ERC20/ERC20.sol\":10918:10927  allowance */\n      tag_119\n        /* \"@openzeppelin/contracts/token/ERC20/ERC20.sol\":10918:10943  allowance(owner, spender) */\n      jump\t// in\n    tag_263:\n        /* \"@openzeppelin/contracts/token/ERC20/ERC20.sol\":10891:10943  uint256 currentAllowance = allowance(owner, spender) */\n      swap1\n      pop\n        /* \"@openzeppelin/contracts/token/ERC20/ERC20.sol\":10977:10994  type(uint256).max */\n      0xffffffffffffffffffffffffffffffffffffffffffffffffffffffffffffffff\n        /* \"@openzeppelin/contracts/token/ERC20/ERC20.sol\":10957:10973  currentAllowance */\n      dup2\n        /* \"@openzeppelin/contracts/token/ERC20/ERC20.sol\":10957:10994  currentAllowance != type(uint256).max */\n      eq\n        /* \"@openzeppelin/contracts/token/ERC20/ERC20.sol\":10953:11196  if (currentAllowance != type(uint256).max) {... */\n      tag_264\n      jumpi\n        /* \"@openzeppelin/contracts/token/ERC20/ERC20.sol\":11038:11044  amount */\n      dup2\n        /* \"@openzeppelin/contracts/token/ERC20/ERC20.sol\":11018:11034  currentAllowance */\n      dup2\n        /* \"@openzeppelin/contracts/token/ERC20/ERC20.sol\":11018:11044  currentAllowance >= amount */\n      lt\n      iszero\n        /* \"@openzeppelin/contracts/token/ERC20/ERC20.sol\":11010:11078  require(currentAllowance >= amount, \"ERC20: insufficient allowance\") */\n      tag_265\n      jumpi\n      mload(0x40)\n      0x08c379a000000000000000000000000000000000000000000000000000000000\n      dup2\n      mstore\n      0x04\n      add\n      tag_266\n      swap1\n      tag_267\n      jump\t// in\n    tag_266:\n      mload(0x40)\n      dup1\n      swap2\n      sub\n      swap1\n      revert\n    tag_265:\n        /* \"@openzeppelin/contracts/token/ERC20/ERC20.sol\":11120:11171  _approve(owner, spender, currentAllowance - amount) */\n      tag_268\n        /* \"@openzeppelin/contracts/token/ERC20/ERC20.sol\":11129:11134  owner */\n      dup5\n        /* \"@openzeppelin/contracts/token/ERC20/ERC20.sol\":11136:11143  spender */\n      dup5\n        /* \"@openzeppelin/contracts/token/ERC20/ERC20.sol\":11164:11170  amount */\n      dup5\n        /* \"@openzeppelin/contracts/token/ERC20/ERC20.sol\":11145:11161  currentAllowance */\n      dup5\n        /* \"@openzeppelin/contracts/token/ERC20/ERC20.sol\":11145:11170  currentAllowance - amount */\n      sub\n        /* \"@openzeppelin/contracts/token/ERC20/ERC20.sol\":11120:11128  _approve */\n      tag_139\n        /* \"@openzeppelin/contracts/token/ERC20/ERC20.sol\":11120:11171  _approve(owner, spender, currentAllowance - amount) */\n      jump\t// in\n    tag_268:\n        /* \"@openzeppelin/contracts/token/ERC20/ERC20.sol\":10953:11196  if (currentAllowance != type(uint256).max) {... */\n    tag_264:\n        /* \"@openzeppelin/contracts/token/ERC20/ERC20.sol\":10881:11202  {... */\n      pop\n        /* \"@openzeppelin/contracts/token/ERC20/ERC20.sol\":10761:11202  function _spendAllowance(... */\n      pop\n      pop\n      pop\n      jump\t// out\n        /* \"@openzeppelin/contracts/token/ERC20/ERC20.sol\":7475:8126  function _transfer(... */\n    tag_153:\n        /* \"@openzeppelin/contracts/token/ERC20/ERC20.sol\":7617:7618  0 */\n      0x00\n        /* \"@openzeppelin/contracts/token/ERC20/ERC20.sol\":7601:7619  from != address(0) */\n      0xffffffffffffffffffffffffffffffffffffffff\n      and\n        /* \"@openzeppelin/contracts/token/ERC20/ERC20.sol\":7601:7605  from */\n      dup4\n        /* \"@openzeppelin/contracts/token/ERC20/ERC20.sol\":7601:7619  from != address(0) */\n      0xffffffffffffffffffffffffffffffffffffffff\n      and\n      eq\n      iszero\n        /* \"@openzeppelin/contracts/token/ERC20/ERC20.sol\":7593:7661  require(from != address(0), \"ERC20: transfer from the zero address\") */\n      tag_270\n      jumpi\n      mload(0x40)\n      0x08c379a000000000000000000000000000000000000000000000000000000000\n      dup2\n      mstore\n      0x04\n      add\n      tag_271\n      swap1\n      tag_272\n      jump\t// in\n    tag_271:\n      mload(0x40)\n      dup1\n      swap2\n      sub\n      swap1\n      revert\n    tag_270:\n        /* \"@openzeppelin/contracts/token/ERC20/ERC20.sol\":7693:7694  0 */\n      0x00\n        /* \"@openzeppelin/contracts/token/ERC20/ERC20.sol\":7679:7695  to != address(0) */\n      0xffffffffffffffffffffffffffffffffffffffff\n      and\n        /* \"@openzeppelin/contracts/token/ERC20/ERC20.sol\":7679:7681  to */\n      dup3\n        /* \"@openzeppelin/contracts/token/ERC20/ERC20.sol\":7679:7695  to != address(0) */\n      0xffffffffffffffffffffffffffffffffffffffff\n      and\n      eq\n      iszero\n        /* \"@openzeppelin/contracts/token/ERC20/ERC20.sol\":7671:7735  require(to != address(0), \"ERC20: transfer to the zero address\") */\n      tag_273\n      jumpi\n      mload(0x40)\n      0x08c379a000000000000000000000000000000000000000000000000000000000\n      dup2\n      mstore\n      0x04\n      add\n      tag_274\n      swap1\n      tag_275\n      jump\t// in\n    tag_274:\n      mload(0x40)\n      dup1\n      swap2\n      sub\n      swap1\n      revert\n    tag_273:\n        /* \"@openzeppelin/contracts/token/ERC20/ERC20.sol\":7746:7784  _beforeTokenTransfer(from, to, amount) */\n      tag_276\n        /* \"@openzeppelin/contracts/token/ERC20/ERC20.sol\":7767:7771  from */\n      dup4\n        /* \"@openzeppelin/contracts/token/ERC20/ERC20.sol\":7773:7775  to */\n      dup4\n        /* \"@openzeppelin/contracts/token/ERC20/ERC20.sol\":7777:7783  amount */\n      dup4\n        /* \"@openzeppelin/contracts/token/ERC20/ERC20.sol\":7746:7766  _beforeTokenTransfer */\n      tag_277\n        /* \"@openzeppelin/contracts/token/ERC20/ERC20.sol\":7746:7784  _beforeTokenTransfer(from, to, amount) */\n      jump\t// in\n    tag_276:\n        /* \"@openzeppelin/contracts/token/ERC20/ERC20.sol\":7795:7814  uint256 fromBalance */\n      0x00\n        /* \"@openzeppelin/contracts/token/ERC20/ERC20.sol\":7817:7826  _balances */\n      dup1\n        /* \"@openzeppelin/contracts/token/ERC20/ERC20.sol\":7817:7832  _balances[from] */\n      0x00\n        /* \"@openzeppelin/contracts/token/ERC20/ERC20.sol\":7827:7831  from */\n      dup6\n        /* \"@openzeppelin/contracts/token/ERC20/ERC20.sol\":7817:7832  _balances[from] */\n      0xffffffffffffffffffffffffffffffffffffffff\n      and\n      0xffffffffffffffffffffffffffffffffffffffff\n      and\n      dup2\n      mstore\n      0x20\n      add\n      swap1\n      dup2\n      mstore\n      0x20\n      add\n      0x00\n      keccak256\n      sload\n        /* \"@openzeppelin/contracts/token/ERC20/ERC20.sol\":7795:7832  uint256 fromBalance = _balances[from] */\n      swap1\n      pop\n        /* \"@openzeppelin/contracts/token/ERC20/ERC20.sol\":7865:7871  amount */\n      dup2\n        /* \"@openzeppelin/contracts/token/ERC20/ERC20.sol\":7850:7861  fromBalance */\n      dup2\n        /* \"@openzeppelin/contracts/token/ERC20/ERC20.sol\":7850:7871  fromBalance >= amount */\n      lt\n      iszero\n        /* \"@openzeppelin/contracts/token/ERC20/ERC20.sol\":7842:7914  require(fromBalance >= amount, \"ERC20: transfer amount exceeds balance\") */\n      tag_278\n      jumpi\n      mload(0x40)\n      0x08c379a000000000000000000000000000000000000000000000000000000000\n      dup2\n      mstore\n      0x04\n      add\n      tag_279\n      swap1\n      tag_280\n      jump\t// in\n    tag_279:\n      mload(0x40)\n      dup1\n      swap2\n      sub\n      swap1\n      revert\n    tag_278:\n        /* \"@openzeppelin/contracts/token/ERC20/ERC20.sol\":7980:7986  amount */\n      dup2\n        /* \"@openzeppelin/contracts/token/ERC20/ERC20.sol\":7966:7977  fromBalance */\n      dup2\n        /* \"@openzeppelin/contracts/token/ERC20/ERC20.sol\":7966:7986  fromBalance - amount */\n      sub\n        /* \"@openzeppelin/contracts/token/ERC20/ERC20.sol\":7948:7957  _balances */\n      0x00\n        /* \"@openzeppelin/contracts/token/ERC20/ERC20.sol\":7948:7963  _balances[from] */\n      dup1\n        /* \"@openzeppelin/contracts/token/ERC20/ERC20.sol\":7958:7962  from */\n      dup7\n        /* \"@openzeppelin/contracts/token/ERC20/ERC20.sol\":7948:7963  _balances[from] */\n      0xffffffffffffffffffffffffffffffffffffffff\n      and\n      0xffffffffffffffffffffffffffffffffffffffff\n      and\n      dup2\n      mstore\n      0x20\n      add\n      swap1\n      dup2\n      mstore\n      0x20\n      add\n      0x00\n      keccak256\n        /* \"@openzeppelin/contracts/token/ERC20/ERC20.sol\":7948:7986  _balances[from] = fromBalance - amount */\n      dup2\n      swap1\n      sstore\n      pop\n        /* \"@openzeppelin/contracts/token/ERC20/ERC20.sol\":8023:8029  amount */\n      dup2\n        /* \"@openzeppelin/contracts/token/ERC20/ERC20.sol\":8006:8015  _balances */\n      0x00\n        /* \"@openzeppelin/contracts/token/ERC20/ERC20.sol\":8006:8019  _balances[to] */\n      dup1\n        /* \"@openzeppelin/contracts/token/ERC20/ERC20.sol\":8016:8018  to */\n      dup6\n        /* \"@openzeppelin/contracts/token/ERC20/ERC20.sol\":8006:8019  _balances[to] */\n      0xffffffffffffffffffffffffffffffffffffffff\n      and\n      0xffffffffffffffffffffffffffffffffffffffff\n      and\n      dup2\n      mstore\n      0x20\n      add\n      swap1\n      dup2\n      mstore\n      0x20\n      add\n      0x00\n      keccak256\n      0x00\n        /* \"@openzeppelin/contracts/token/ERC20/ERC20.sol\":8006:8029  _balances[to] += amount */\n      dup3\n      dup3\n      sload\n      tag_281\n      swap2\n      swap1\n      tag_165\n      jump\t// in\n    tag_281:\n      swap3\n      pop\n      pop\n      dup2\n      swap1\n      sstore\n      pop\n        /* \"@openzeppelin/contracts/token/ERC20/ERC20.sol\":8060:8062  to */\n      dup3\n        /* \"@openzeppelin/contracts/token/ERC20/ERC20.sol\":8045:8071  Transfer(from, to, amount) */\n      0xffffffffffffffffffffffffffffffffffffffff\n      and\n        /* \"@openzeppelin/contracts/token/ERC20/ERC20.sol\":8054:8058  from */\n      dup5\n        /* \"@openzeppelin/contracts/token/ERC20/ERC20.sol\":8045:8071  Transfer(from, to, amount) */\n      0xffffffffffffffffffffffffffffffffffffffff\n      and\n      0xddf252ad1be2c89b69c2b068fc378daa952ba7f163c4a11628f55a4df523b3ef\n        /* \"@openzeppelin/contracts/token/ERC20/ERC20.sol\":8064:8070  amount */\n      dup5\n        /* \"@openzeppelin/contracts/token/ERC20/ERC20.sol\":8045:8071  Transfer(from, to, amount) */\n      mload(0x40)\n      tag_282\n      swap2\n      swap1\n      tag_47\n      jump\t// in\n    tag_282:\n      mload(0x40)\n      dup1\n      swap2\n      sub\n      swap1\n      log3\n        /* \"@openzeppelin/contracts/token/ERC20/ERC20.sol\":8082:8119  _afterTokenTransfer(from, to, amount) */\n      tag_283\n        /* \"@openzeppelin/contracts/token/ERC20/ERC20.sol\":8102:8106  from */\n      dup5\n        /* \"@openzeppelin/contracts/token/ERC20/ERC20.sol\":8108:8110  to */\n      dup5\n        /* \"@openzeppelin/contracts/token/ERC20/ERC20.sol\":8112:8118  amount */\n      dup5\n        /* \"@openzeppelin/contracts/token/ERC20/ERC20.sol\":8082:8101  _afterTokenTransfer */\n      tag_284\n        /* \"@openzeppelin/contracts/token/ERC20/ERC20.sol\":8082:8119  _afterTokenTransfer(from, to, amount) */\n      jump\t// in\n    tag_283:\n        /* \"@openzeppelin/contracts/token/ERC20/ERC20.sol\":7583:8126  {... */\n      pop\n        /* \"@openzeppelin/contracts/token/ERC20/ERC20.sol\":7475:8126  function _transfer(... */\n      pop\n      pop\n      pop\n      jump\t// out\n        /* \"@openzeppelin/contracts/token/ERC20/ERC20.sol\":8402:8791  function _mint(address account, uint256 amount) internal virtual {... */\n    tag_195:\n        /* \"@openzeppelin/contracts/token/ERC20/ERC20.sol\":8504:8505  0 */\n      0x00\n        /* \"@openzeppelin/contracts/token/ERC20/ERC20.sol\":8485:8506  account != address(0) */\n      0xffffffffffffffffffffffffffffffffffffffff\n      and\n        /* \"@openzeppelin/contracts/token/ERC20/ERC20.sol\":8485:8492  account */\n      dup3\n        /* \"@openzeppelin/contracts/token/ERC20/ERC20.sol\":8485:8506  account != address(0) */\n      0xffffffffffffffffffffffffffffffffffffffff\n      and\n      eq\n      iszero\n        /* \"@openzeppelin/contracts/token/ERC20/ERC20.sol\":8477:8542  require(account != address(0), \"ERC20: mint to the zero address\") */\n      tag_286\n      jumpi\n      mload(0x40)\n      0x08c379a000000000000000000000000000000000000000000000000000000000\n      dup2\n      mstore\n      0x04\n      add\n      tag_287\n      swap1\n      tag_288\n      jump\t// in\n    tag_287:\n      mload(0x40)\n      dup1\n      swap2\n      sub\n      swap1\n      revert\n    tag_286:\n        /* \"@openzeppelin/contracts/token/ERC20/ERC20.sol\":8553:8602  _beforeTokenTransfer(address(0), account, amount) */\n      tag_289\n        /* \"@openzeppelin/contracts/token/ERC20/ERC20.sol\":8582:8583  0 */\n      0x00\n        /* \"@openzeppelin/contracts/token/ERC20/ERC20.sol\":8586:8593  account */\n      dup4\n        /* \"@openzeppelin/contracts/token/ERC20/ERC20.sol\":8595:8601  amount */\n      dup4\n        /* \"@openzeppelin/contracts/token/ERC20/ERC20.sol\":8553:8573  _beforeTokenTransfer */\n      tag_277\n        /* \"@openzeppelin/contracts/token/ERC20/ERC20.sol\":8553:8602  _beforeTokenTransfer(address(0), account, amount) */\n      jump\t// in\n    tag_289:\n        /* \"@openzeppelin/contracts/token/ERC20/ERC20.sol\":8629:8635  amount */\n      dup1\n        /* \"@openzeppelin/contracts/token/ERC20/ERC20.sol\":8613:8625  _totalSupply */\n      0x02\n      0x00\n        /* \"@openzeppelin/contracts/token/ERC20/ERC20.sol\":8613:8635  _totalSupply += amount */\n      dup3\n      dup3\n      sload\n      tag_290\n      swap2\n      swap1\n      tag_165\n      jump\t// in\n    tag_290:\n      swap3\n      pop\n      pop\n      dup2\n      swap1\n      sstore\n      pop\n        /* \"@openzeppelin/contracts/token/ERC20/ERC20.sol\":8667:8673  amount */\n      dup1\n        /* \"@openzeppelin/contracts/token/ERC20/ERC20.sol\":8645:8654  _balances */\n      0x00\n        /* \"@openzeppelin/contracts/token/ERC20/ERC20.sol\":8645:8663  _balances[account] */\n      dup1\n        /* \"@openzeppelin/contracts/token/ERC20/ERC20.sol\":8655:8662  account */\n      dup5\n        /* \"@openzeppelin/contracts/token/ERC20/ERC20.sol\":8645:8663  _balances[account] */\n      0xffffffffffffffffffffffffffffffffffffffff\n      and\n      0xffffffffffffffffffffffffffffffffffffffff\n      and\n      dup2\n      mstore\n      0x20\n      add\n      swap1\n      dup2\n      mstore\n      0x20\n      add\n      0x00\n      keccak256\n      0x00\n        /* \"@openzeppelin/contracts/token/ERC20/ERC20.sol\":8645:8673  _balances[account] += amount */\n      dup3\n      dup3\n      sload\n      tag_291\n      swap2\n      swap1\n      tag_165\n      jump\t// in\n    tag_291:\n      swap3\n      pop\n      pop\n      dup2\n      swap1\n      sstore\n      pop\n        /* \"@openzeppelin/contracts/token/ERC20/ERC20.sol\":8709:8716  account */\n      dup2\n        /* \"@openzeppelin/contracts/token/ERC20/ERC20.sol\":8688:8725  Transfer(address(0), account, amount) */\n      0xffffffffffffffffffffffffffffffffffffffff\n      and\n        /* \"@openzeppelin/contracts/token/ERC20/ERC20.sol\":8705:8706  0 */\n      0x00\n        /* \"@openzeppelin/contracts/token/ERC20/ERC20.sol\":8688:8725  Transfer(address(0), account, amount) */\n      0xffffffffffffffffffffffffffffffffffffffff\n      and\n      0xddf252ad1be2c89b69c2b068fc378daa952ba7f163c4a11628f55a4df523b3ef\n        /* \"@openzeppelin/contracts/token/ERC20/ERC20.sol\":8718:8724  amount */\n      dup4\n        /* \"@openzeppelin/contracts/token/ERC20/ERC20.sol\":8688:8725  Transfer(address(0), account, amount) */\n      mload(0x40)\n      tag_292\n      swap2\n      swap1\n      tag_47\n      jump\t// in\n    tag_292:\n      mload(0x40)\n      dup1\n      swap2\n      sub\n      swap1\n      log3\n        /* \"@openzeppelin/contracts/token/ERC20/ERC20.sol\":8736:8784  _afterTokenTransfer(address(0), account, amount) */\n      tag_293\n        /* \"@openzeppelin/contracts/token/ERC20/ERC20.sol\":8764:8765  0 */\n      0x00\n        /* \"@openzeppelin/contracts/token/ERC20/ERC20.sol\":8768:8775  account */\n      dup4\n        /* \"@openzeppelin/contracts/token/ERC20/ERC20.sol\":8777:8783  amount */\n      dup4\n        /* \"@openzeppelin/contracts/token/ERC20/ERC20.sol\":8736:8755  _afterTokenTransfer */\n      tag_284\n        /* \"@openzeppelin/contracts/token/ERC20/ERC20.sol\":8736:8784  _afterTokenTransfer(address(0), account, amount) */\n      jump\t// in\n    tag_293:\n        /* \"@openzeppelin/contracts/token/ERC20/ERC20.sol\":8402:8791  function _mint(address account, uint256 amount) internal virtual {... */\n      pop\n      pop\n      jump\t// out\n        /* \"@openzeppelin/contracts/token/ERC20/ERC20.sol\":9111:9687  function _burn(address account, uint256 amount) internal virtual {... */\n    tag_216:\n        /* \"@openzeppelin/contracts/token/ERC20/ERC20.sol\":9213:9214  0 */\n      0x00\n        /* \"@openzeppelin/contracts/token/ERC20/ERC20.sol\":9194:9215  account != address(0) */\n      0xffffffffffffffffffffffffffffffffffffffff\n      and\n        /* \"@openzeppelin/contracts/token/ERC20/ERC20.sol\":9194:9201  account */\n      dup3\n        /* \"@openzeppelin/contracts/token/ERC20/ERC20.sol\":9194:9215  account != address(0) */\n      0xffffffffffffffffffffffffffffffffffffffff\n      and\n      eq\n      iszero\n        /* \"@openzeppelin/contracts/token/ERC20/ERC20.sol\":9186:9253  require(account != address(0), \"ERC20: burn from the zero address\") */\n      tag_295\n      jumpi\n      mload(0x40)\n      0x08c379a000000000000000000000000000000000000000000000000000000000\n      dup2\n      mstore\n      0x04\n      add\n      tag_296\n      swap1\n      tag_297\n      jump\t// in\n    tag_296:\n      mload(0x40)\n      dup1\n      swap2\n      sub\n      swap1\n      revert\n    tag_295:\n        /* \"@openzeppelin/contracts/token/ERC20/ERC20.sol\":9264:9313  _beforeTokenTransfer(account, address(0), amount) */\n      tag_298\n        /* \"@openzeppelin/contracts/token/ERC20/ERC20.sol\":9285:9292  account */\n      dup3\n        /* \"@openzeppelin/contracts/token/ERC20/ERC20.sol\":9302:9303  0 */\n      0x00\n        /* \"@openzeppelin/contracts/token/ERC20/ERC20.sol\":9306:9312  amount */\n      dup4\n        /* \"@openzeppelin/contracts/token/ERC20/ERC20.sol\":9264:9284  _beforeTokenTransfer */\n      tag_277\n        /* \"@openzeppelin/contracts/token/ERC20/ERC20.sol\":9264:9313  _beforeTokenTransfer(account, address(0), amount) */\n      jump\t// in\n    tag_298:\n        /* \"@openzeppelin/contracts/token/ERC20/ERC20.sol\":9324:9346  uint256 accountBalance */\n      0x00\n        /* \"@openzeppelin/contracts/token/ERC20/ERC20.sol\":9349:9358  _balances */\n      dup1\n        /* \"@openzeppelin/contracts/token/ERC20/ERC20.sol\":9349:9367  _balances[account] */\n      0x00\n        /* \"@openzeppelin/contracts/token/ERC20/ERC20.sol\":9359:9366  account */\n      dup5\n        /* \"@openzeppelin/contracts/token/ERC20/ERC20.sol\":9349:9367  _balances[account] */\n      0xffffffffffffffffffffffffffffffffffffffff\n      and\n      0xffffffffffffffffffffffffffffffffffffffff\n      and\n      dup2\n      mstore\n      0x20\n      add\n      swap1\n      dup2\n      mstore\n      0x20\n      add\n      0x00\n      keccak256\n      sload\n        /* \"@openzeppelin/contracts/token/ERC20/ERC20.sol\":9324:9367  uint256 accountBalance = _balances[account] */\n      swap1\n      pop\n        /* \"@openzeppelin/contracts/token/ERC20/ERC20.sol\":9403:9409  amount */\n      dup2\n        /* \"@openzeppelin/contracts/token/ERC20/ERC20.sol\":9385:9399  accountBalance */\n      dup2\n        /* \"@openzeppelin/contracts/token/ERC20/ERC20.sol\":9385:9409  accountBalance >= amount */\n      lt\n      iszero\n        /* \"@openzeppelin/contracts/token/ERC20/ERC20.sol\":9377:9448  require(accountBalance >= amount, \"ERC20: burn amount exceeds balance\") */\n      tag_299\n      jumpi\n      mload(0x40)\n      0x08c379a000000000000000000000000000000000000000000000000000000000\n      dup2\n      mstore\n      0x04\n      add\n      tag_300\n      swap1\n      tag_301\n      jump\t// in\n    tag_300:\n      mload(0x40)\n      dup1\n      swap2\n      sub\n      swap1\n      revert\n    tag_299:\n        /* \"@openzeppelin/contracts/token/ERC20/ERC20.sol\":9520:9526  amount */\n      dup2\n        /* \"@openzeppelin/contracts/token/ERC20/ERC20.sol\":9503:9517  accountBalance */\n      dup2\n        /* \"@openzeppelin/contracts/token/ERC20/ERC20.sol\":9503:9526  accountBalance - amount */\n      sub\n        /* \"@openzeppelin/contracts/token/ERC20/ERC20.sol\":9482:9491  _balances */\n      0x00\n        /* \"@openzeppelin/contracts/token/ERC20/ERC20.sol\":9482:9500  _balances[account] */\n      dup1\n        /* \"@openzeppelin/contracts/token/ERC20/ERC20.sol\":9492:9499  account */\n      dup6\n        /* \"@openzeppelin/contracts/token/ERC20/ERC20.sol\":9482:9500  _balances[account] */\n      0xffffffffffffffffffffffffffffffffffffffff\n      and\n      0xffffffffffffffffffffffffffffffffffffffff\n      and\n      dup2\n      mstore\n      0x20\n      add\n      swap1\n      dup2\n      mstore\n      0x20\n      add\n      0x00\n      keccak256\n        /* \"@openzeppelin/contracts/token/ERC20/ERC20.sol\":9482:9526  _balances[account] = accountBalance - amount */\n      dup2\n      swap1\n      sstore\n      pop\n        /* \"@openzeppelin/contracts/token/ERC20/ERC20.sol\":9562:9568  amount */\n      dup2\n        /* \"@openzeppelin/contracts/token/ERC20/ERC20.sol\":9546:9558  _totalSupply */\n      0x02\n      0x00\n        /* \"@openzeppelin/contracts/token/ERC20/ERC20.sol\":9546:9568  _totalSupply -= amount */\n      dup3\n      dup3\n      sload\n      tag_302\n      swap2\n      swap1\n      tag_178\n      jump\t// in\n    tag_302:\n      swap3\n      pop\n      pop\n      dup2\n      swap1\n      sstore\n      pop\n        /* \"@openzeppelin/contracts/token/ERC20/ERC20.sol\":9610:9611  0 */\n      0x00\n        /* \"@openzeppelin/contracts/token/ERC20/ERC20.sol\":9584:9621  Transfer(account, address(0), amount) */\n      0xffffffffffffffffffffffffffffffffffffffff\n      and\n        /* \"@openzeppelin/contracts/token/ERC20/ERC20.sol\":9593:9600  account */\n      dup4\n        /* \"@openzeppelin/contracts/token/ERC20/ERC20.sol\":9584:9621  Transfer(account, address(0), amount) */\n      0xffffffffffffffffffffffffffffffffffffffff\n      and\n      0xddf252ad1be2c89b69c2b068fc378daa952ba7f163c4a11628f55a4df523b3ef\n        /* \"@openzeppelin/contracts/token/ERC20/ERC20.sol\":9614:9620  amount */\n      dup5\n        /* \"@openzeppelin/contracts/token/ERC20/ERC20.sol\":9584:9621  Transfer(account, address(0), amount) */\n      mload(0x40)\n      tag_303\n      swap2\n      swap1\n      tag_47\n      jump\t// in\n    tag_303:\n      mload(0x40)\n      dup1\n      swap2\n      sub\n      swap1\n      log3\n        /* \"@openzeppelin/contracts/token/ERC20/ERC20.sol\":9632:9680  _afterTokenTransfer(account, address(0), amount) */\n      tag_304\n        /* \"@openzeppelin/contracts/token/ERC20/ERC20.sol\":9652:9659  account */\n      dup4\n        /* \"@openzeppelin/contracts/token/ERC20/ERC20.sol\":9669:9670  0 */\n      0x00\n        /* \"@openzeppelin/contracts/token/ERC20/ERC20.sol\":9673:9679  amount */\n      dup5\n        /* \"@openzeppelin/contracts/token/ERC20/ERC20.sol\":9632:9651  _afterTokenTransfer */\n      tag_284\n        /* \"@openzeppelin/contracts/token/ERC20/ERC20.sol\":9632:9680  _afterTokenTransfer(account, address(0), amount) */\n      jump\t// in\n    tag_304:\n        /* \"@openzeppelin/contracts/token/ERC20/ERC20.sol\":9176:9687  {... */\n      pop\n        /* \"@openzeppelin/contracts/token/ERC20/ERC20.sol\":9111:9687  function _burn(address account, uint256 amount) internal virtual {... */\n      pop\n      pop\n      jump\t// out\n        /* \"@openzeppelin/contracts/token/ERC20/ERC20.sol\":11786:11907  function _beforeTokenTransfer(... */\n    tag_277:\n      pop\n      pop\n      pop\n      jump\t// out\n        /* \"@openzeppelin/contracts/token/ERC20/ERC20.sol\":12495:12615  function _afterTokenTransfer(... */\n    tag_284:\n      pop\n      pop\n      pop\n      jump\t// out\n        /* \"#utility.yul\":7:146   */\n    tag_308:\n        /* \"#utility.yul\":53:58   */\n      0x00\n        /* \"#utility.yul\":91:97   */\n      dup2\n        /* \"#utility.yul\":78:98   */\n      calldataload\n        /* \"#utility.yul\":69:98   */\n      swap1\n      pop\n        /* \"#utility.yul\":107:140   */\n      tag_310\n        /* \"#utility.yul\":134:139   */\n      dup2\n        /* \"#utility.yul\":107:140   */\n      tag_311\n      jump\t// in\n    tag_310:\n        /* \"#utility.yul\":7:146   */\n      swap3\n      swap2\n      pop\n      pop\n      jump\t// out\n        /* \"#utility.yul\":152:289   */\n    tag_312:\n        /* \"#utility.yul\":206:211   */\n      0x00\n        /* \"#utility.yul\":237:243   */\n      dup2\n        /* \"#utility.yul\":231:244   */\n      mload\n        /* \"#utility.yul\":222:244   */\n      swap1\n      pop\n        /* \"#utility.yul\":253:283   */\n      tag_314\n        /* \"#utility.yul\":277:282   */\n      dup2\n        /* \"#utility.yul\":253:283   */\n      tag_315\n      jump\t// in\n    tag_314:\n        /* \"#utility.yul\":152:289   */\n      swap3\n      swap2\n      pop\n      pop\n      jump\t// out\n        /* \"#utility.yul\":295:434   */\n    tag_316:\n        /* \"#utility.yul\":341:346   */\n      0x00\n        /* \"#utility.yul\":379:385   */\n      dup2\n        /* \"#utility.yul\":366:386   */\n      calldataload\n        /* \"#utility.yul\":357:386   */\n      swap1\n      pop\n        /* \"#utility.yul\":395:428   */\n      tag_318\n        /* \"#utility.yul\":422:427   */\n      dup2\n        /* \"#utility.yul\":395:428   */\n      tag_319\n      jump\t// in\n    tag_318:\n        /* \"#utility.yul\":295:434   */\n      swap3\n      swap2\n      pop\n      pop\n      jump\t// out\n        /* \"#utility.yul\":440:583   */\n    tag_320:\n        /* \"#utility.yul\":497:502   */\n      0x00\n        /* \"#utility.yul\":528:534   */\n      dup2\n        /* \"#utility.yul\":522:535   */\n      mload\n        /* \"#utility.yul\":513:535   */\n      swap1\n      pop\n        /* \"#utility.yul\":544:577   */\n      tag_322\n        /* \"#utility.yul\":571:576   */\n      dup2\n        /* \"#utility.yul\":544:577   */\n      tag_319\n      jump\t// in\n    tag_322:\n        /* \"#utility.yul\":440:583   */\n      swap3\n      swap2\n      pop\n      pop\n      jump\t// out\n        /* \"#utility.yul\":589:918   */\n    tag_84:\n        /* \"#utility.yul\":648:654   */\n      0x00\n        /* \"#utility.yul\":697:699   */\n      0x20\n        /* \"#utility.yul\":685:694   */\n      dup3\n        /* \"#utility.yul\":676:683   */\n      dup5\n        /* \"#utility.yul\":672:695   */\n      sub\n        /* \"#utility.yul\":668:700   */\n      slt\n        /* \"#utility.yul\":665:784   */\n      iszero\n      tag_324\n      jumpi\n        /* \"#utility.yul\":703:782   */\n      tag_325\n      tag_326\n      jump\t// in\n    tag_325:\n        /* \"#utility.yul\":665:784   */\n    tag_324:\n        /* \"#utility.yul\":823:824   */\n      0x00\n        /* \"#utility.yul\":848:901   */\n      tag_327\n        /* \"#utility.yul\":893:900   */\n      dup5\n        /* \"#utility.yul\":884:890   */\n      dup3\n        /* \"#utility.yul\":873:882   */\n      dup6\n        /* \"#utility.yul\":869:891   */\n      add\n        /* \"#utility.yul\":848:901   */\n      tag_308\n      jump\t// in\n    tag_327:\n        /* \"#utility.yul\":838:901   */\n      swap2\n      pop\n        /* \"#utility.yul\":794:911   */\n      pop\n        /* \"#utility.yul\":589:918   */\n      swap3\n      swap2\n      pop\n      pop\n      jump\t// out\n        /* \"#utility.yul\":924:1398   */\n    tag_118:\n        /* \"#utility.yul\":992:998   */\n      0x00\n        /* \"#utility.yul\":1000:1006   */\n      dup1\n        /* \"#utility.yul\":1049:1051   */\n      0x40\n        /* \"#utility.yul\":1037:1046   */\n      dup4\n        /* \"#utility.yul\":1028:1035   */\n      dup6\n        /* \"#utility.yul\":1024:1047   */\n      sub\n        /* \"#utility.yul\":1020:1052   */\n      slt\n        /* \"#utility.yul\":1017:1136   */\n      iszero\n      tag_329\n      jumpi\n        /* \"#utility.yul\":1055:1134   */\n      tag_330\n      tag_326\n      jump\t// in\n    tag_330:\n        /* \"#utility.yul\":1017:1136   */\n    tag_329:\n        /* \"#utility.yul\":1175:1176   */\n      0x00\n        /* \"#utility.yul\":1200:1253   */\n      tag_331\n        /* \"#utility.yul\":1245:1252   */\n      dup6\n        /* \"#utility.yul\":1236:1242   */\n      dup3\n        /* \"#utility.yul\":1225:1234   */\n      dup7\n        /* \"#utility.yul\":1221:1243   */\n      add\n        /* \"#utility.yul\":1200:1253   */\n      tag_308\n      jump\t// in\n    tag_331:\n        /* \"#utility.yul\":1190:1253   */\n      swap3\n      pop\n        /* \"#utility.yul\":1146:1263   */\n      pop\n        /* \"#utility.yul\":1302:1304   */\n      0x20\n        /* \"#utility.yul\":1328:1381   */\n      tag_332\n        /* \"#utility.yul\":1373:1380   */\n      dup6\n        /* \"#utility.yul\":1364:1370   */\n      dup3\n        /* \"#utility.yul\":1353:1362   */\n      dup7\n        /* \"#utility.yul\":1349:1371   */\n      add\n        /* \"#utility.yul\":1328:1381   */\n      tag_308\n      jump\t// in\n    tag_332:\n        /* \"#utility.yul\":1318:1381   */\n      swap2\n      pop\n        /* \"#utility.yul\":1273:1391   */\n      pop\n        /* \"#utility.yul\":924:1398   */\n      swap3\n      pop\n      swap3\n      swap1\n      pop\n      jump\t// out\n        /* \"#utility.yul\":1404:2023   */\n    tag_55:\n        /* \"#utility.yul\":1481:1487   */\n      0x00\n        /* \"#utility.yul\":1489:1495   */\n      dup1\n        /* \"#utility.yul\":1497:1503   */\n      0x00\n        /* \"#utility.yul\":1546:1548   */\n      0x60\n        /* \"#utility.yul\":1534:1543   */\n      dup5\n        /* \"#utility.yul\":1525:1532   */\n      dup7\n        /* \"#utility.yul\":1521:1544   */\n      sub\n        /* \"#utility.yul\":1517:1549   */\n      slt\n        /* \"#utility.yul\":1514:1633   */\n      iszero\n      tag_334\n      jumpi\n        /* \"#utility.yul\":1552:1631   */\n      tag_335\n      tag_326\n      jump\t// in\n    tag_335:\n        /* \"#utility.yul\":1514:1633   */\n    tag_334:\n        /* \"#utility.yul\":1672:1673   */\n      0x00\n        /* \"#utility.yul\":1697:1750   */\n      tag_336\n        /* \"#utility.yul\":1742:1749   */\n      dup7\n        /* \"#utility.yul\":1733:1739   */\n      dup3\n        /* \"#utility.yul\":1722:1731   */\n      dup8\n        /* \"#utility.yul\":1718:1740   */\n      add\n        /* \"#utility.yul\":1697:1750   */\n      tag_308\n      jump\t// in\n    tag_336:\n        /* \"#utility.yul\":1687:1750   */\n      swap4\n      pop\n        /* \"#utility.yul\":1643:1760   */\n      pop\n        /* \"#utility.yul\":1799:1801   */\n      0x20\n        /* \"#utility.yul\":1825:1878   */\n      tag_337\n        /* \"#utility.yul\":1870:1877   */\n      dup7\n        /* \"#utility.yul\":1861:1867   */\n      dup3\n        /* \"#utility.yul\":1850:1859   */\n      dup8\n        /* \"#utility.yul\":1846:1868   */\n      add\n        /* \"#utility.yul\":1825:1878   */\n      tag_308\n      jump\t// in\n    tag_337:\n        /* \"#utility.yul\":1815:1878   */\n      swap3\n      pop\n        /* \"#utility.yul\":1770:1888   */\n      pop\n        /* \"#utility.yul\":1927:1929   */\n      0x40\n        /* \"#utility.yul\":1953:2006   */\n      tag_338\n        /* \"#utility.yul\":1998:2005   */\n      dup7\n        /* \"#utility.yul\":1989:1995   */\n      dup3\n        /* \"#utility.yul\":1978:1987   */\n      dup8\n        /* \"#utility.yul\":1974:1996   */\n      add\n        /* \"#utility.yul\":1953:2006   */\n      tag_316\n      jump\t// in\n    tag_338:\n        /* \"#utility.yul\":1943:2006   */\n      swap2\n      pop\n        /* \"#utility.yul\":1898:2016   */\n      pop\n        /* \"#utility.yul\":1404:2023   */\n      swap3\n      pop\n      swap3\n      pop\n      swap3\n      jump\t// out\n        /* \"#utility.yul\":2029:2503   */\n    tag_37:\n        /* \"#utility.yul\":2097:2103   */\n      0x00\n        /* \"#utility.yul\":2105:2111   */\n      dup1\n        /* \"#utility.yul\":2154:2156   */\n      0x40\n        /* \"#utility.yul\":2142:2151   */\n      dup4\n        /* \"#utility.yul\":2133:2140   */\n      dup6\n        /* \"#utility.yul\":2129:2152   */\n      sub\n        /* \"#utility.yul\":2125:2157   */\n      slt\n        /* \"#utility.yul\":2122:2241   */\n      iszero\n      tag_340\n      jumpi\n        /* \"#utility.yul\":2160:2239   */\n      tag_341\n      tag_326\n      jump\t// in\n    tag_341:\n        /* \"#utility.yul\":2122:2241   */\n    tag_340:\n        /* \"#utility.yul\":2280:2281   */\n      0x00\n        /* \"#utility.yul\":2305:2358   */\n      tag_342\n        /* \"#utility.yul\":2350:2357   */\n      dup6\n        /* \"#utility.yul\":2341:2347   */\n      dup3\n        /* \"#utility.yul\":2330:2339   */\n      dup7\n        /* \"#utility.yul\":2326:2348   */\n      add\n        /* \"#utility.yul\":2305:2358   */\n      tag_308\n      jump\t// in\n    tag_342:\n        /* \"#utility.yul\":2295:2358   */\n      swap3\n      pop\n        /* \"#utility.yul\":2251:2368   */\n      pop\n        /* \"#utility.yul\":2407:2409   */\n      0x20\n        /* \"#utility.yul\":2433:2486   */\n      tag_343\n        /* \"#utility.yul\":2478:2485   */\n      dup6\n        /* \"#utility.yul\":2469:2475   */\n      dup3\n        /* \"#utility.yul\":2458:2467   */\n      dup7\n        /* \"#utility.yul\":2454:2476   */\n      add\n        /* \"#utility.yul\":2433:2486   */\n      tag_316\n      jump\t// in\n    tag_343:\n        /* \"#utility.yul\":2423:2486   */\n      swap2\n      pop\n        /* \"#utility.yul\":2378:2496   */\n      pop\n        /* \"#utility.yul\":2029:2503   */\n      swap3\n      pop\n      swap3\n      swap1\n      pop\n      jump\t// out\n        /* \"#utility.yul\":2509:2854   */\n    tag_175:\n        /* \"#utility.yul\":2576:2582   */\n      0x00\n        /* \"#utility.yul\":2625:2627   */\n      0x20\n        /* \"#utility.yul\":2613:2622   */\n      dup3\n        /* \"#utility.yul\":2604:2611   */\n      dup5\n        /* \"#utility.yul\":2600:2623   */\n      sub\n        /* \"#utility.yul\":2596:2628   */\n      slt\n        /* \"#utility.yul\":2593:2712   */\n      iszero\n      tag_345\n      jumpi\n        /* \"#utility.yul\":2631:2710   */\n      tag_346\n      tag_326\n      jump\t// in\n    tag_346:\n        /* \"#utility.yul\":2593:2712   */\n    tag_345:\n        /* \"#utility.yul\":2751:2752   */\n      0x00\n        /* \"#utility.yul\":2776:2837   */\n      tag_347\n        /* \"#utility.yul\":2829:2836   */\n      dup5\n        /* \"#utility.yul\":2820:2826   */\n      dup3\n        /* \"#utility.yul\":2809:2818   */\n      dup6\n        /* \"#utility.yul\":2805:2827   */\n      add\n        /* \"#utility.yul\":2776:2837   */\n      tag_312\n      jump\t// in\n    tag_347:\n        /* \"#utility.yul\":2766:2837   */\n      swap2\n      pop\n        /* \"#utility.yul\":2722:2847   */\n      pop\n        /* \"#utility.yul\":2509:2854   */\n      swap3\n      swap2\n      pop\n      pop\n      jump\t// out\n        /* \"#utility.yul\":2860:3189   */\n    tag_44:\n        /* \"#utility.yul\":2919:2925   */\n      0x00\n        /* \"#utility.yul\":2968:2970   */\n      0x20\n        /* \"#utility.yul\":2956:2965   */\n      dup3\n        /* \"#utility.yul\":2947:2954   */\n      dup5\n        /* \"#utility.yul\":2943:2966   */\n      sub\n        /* \"#utility.yul\":2939:2971   */\n      slt\n        /* \"#utility.yul\":2936:3055   */\n      iszero\n      tag_349\n      jumpi\n        /* \"#utility.yul\":2974:3053   */\n      tag_350\n      tag_326\n      jump\t// in\n    tag_350:\n        /* \"#utility.yul\":2936:3055   */\n    tag_349:\n        /* \"#utility.yul\":3094:3095   */\n      0x00\n        /* \"#utility.yul\":3119:3172   */\n      tag_351\n        /* \"#utility.yul\":3164:3171   */\n      dup5\n        /* \"#utility.yul\":3155:3161   */\n      dup3\n        /* \"#utility.yul\":3144:3153   */\n      dup6\n        /* \"#utility.yul\":3140:3162   */\n      add\n        /* \"#utility.yul\":3119:3172   */\n      tag_316\n      jump\t// in\n    tag_351:\n        /* \"#utility.yul\":3109:3172   */\n      swap2\n      pop\n        /* \"#utility.yul\":3065:3182   */\n      pop\n        /* \"#utility.yul\":2860:3189   */\n      swap3\n      swap2\n      pop\n      pop\n      jump\t// out\n        /* \"#utility.yul\":3195:3546   */\n    tag_134:\n        /* \"#utility.yul\":3265:3271   */\n      0x00\n        /* \"#utility.yul\":3314:3316   */\n      0x20\n        /* \"#utility.yul\":3302:3311   */\n      dup3\n        /* \"#utility.yul\":3293:3300   */\n      dup5\n        /* \"#utility.yul\":3289:3312   */\n      sub\n        /* \"#utility.yul\":3285:3317   */\n      slt\n        /* \"#utility.yul\":3282:3401   */\n      iszero\n      tag_353\n      jumpi\n        /* \"#utility.yul\":3320:3399   */\n      tag_354\n      tag_326\n      jump\t// in\n    tag_354:\n        /* \"#utility.yul\":3282:3401   */\n    tag_353:\n        /* \"#utility.yul\":3440:3441   */\n      0x00\n        /* \"#utility.yul\":3465:3529   */\n      tag_355\n        /* \"#utility.yul\":3521:3528   */\n      dup5\n        /* \"#utility.yul\":3512:3518   */\n      dup3\n        /* \"#utility.yul\":3501:3510   */\n      dup6\n        /* \"#utility.yul\":3497:3519   */\n      add\n        /* \"#utility.yul\":3465:3529   */\n      tag_320\n      jump\t// in\n    tag_355:\n        /* \"#utility.yul\":3455:3529   */\n      swap2\n      pop\n        /* \"#utility.yul\":3411:3539   */\n      pop\n        /* \"#utility.yul\":3195:3546   */\n      swap3\n      swap2\n      pop\n      pop\n      jump\t// out\n        /* \"#utility.yul\":3552:4026   */\n    tag_79:\n        /* \"#utility.yul\":3620:3626   */\n      0x00\n        /* \"#utility.yul\":3628:3634   */\n      dup1\n        /* \"#utility.yul\":3677:3679   */\n      0x40\n        /* \"#utility.yul\":3665:3674   */\n      dup4\n        /* \"#utility.yul\":3656:3663   */\n      dup6\n        /* \"#utility.yul\":3652:3675   */\n      sub\n        /* \"#utility.yul\":3648:3680   */\n      slt\n        /* \"#utility.yul\":3645:3764   */\n      iszero\n      tag_357\n      jumpi\n        /* \"#utility.yul\":3683:3762   */\n      tag_358\n      tag_326\n      jump\t// in\n    tag_358:\n        /* \"#utility.yul\":3645:3764   */\n    tag_357:\n        /* \"#utility.yul\":3803:3804   */\n      0x00\n        /* \"#utility.yul\":3828:3881   */\n      tag_359\n        /* \"#utility.yul\":3873:3880   */\n      dup6\n        /* \"#utility.yul\":3864:3870   */\n      dup3\n        /* \"#utility.yul\":3853:3862   */\n      dup7\n        /* \"#utility.yul\":3849:3871   */\n      add\n        /* \"#utility.yul\":3828:3881   */\n      tag_316\n      jump\t// in\n    tag_359:\n        /* \"#utility.yul\":3818:3881   */\n      swap3\n      pop\n        /* \"#utility.yul\":3774:3891   */\n      pop\n        /* \"#utility.yul\":3930:3932   */\n      0x20\n        /* \"#utility.yul\":3956:4009   */\n      tag_360\n        /* \"#utility.yul\":4001:4008   */\n      dup6\n        /* \"#utility.yul\":3992:3998   */\n      dup3\n        /* \"#utility.yul\":3981:3990   */\n      dup7\n        /* \"#utility.yul\":3977:3999   */\n      add\n        /* \"#utility.yul\":3956:4009   */\n      tag_308\n      jump\t// in\n    tag_360:\n        /* \"#utility.yul\":3946:4009   */\n      swap2\n      pop\n        /* \"#utility.yul\":3901:4019   */\n      pop\n        /* \"#utility.yul\":3552:4026   */\n      swap3\n      pop\n      swap3\n      swap1\n      pop\n      jump\t// out\n        /* \"#utility.yul\":4032:4150   */\n    tag_361:\n        /* \"#utility.yul\":4119:4143   */\n      tag_363\n        /* \"#utility.yul\":4137:4142   */\n      dup2\n        /* \"#utility.yul\":4119:4143   */\n      tag_364\n      jump\t// in\n    tag_363:\n        /* \"#utility.yul\":4114:4117   */\n      dup3\n        /* \"#utility.yul\":4107:4144   */\n      mstore\n        /* \"#utility.yul\":4032:4150   */\n      pop\n      pop\n      jump\t// out\n        /* \"#utility.yul\":4156:4265   */\n    tag_365:\n        /* \"#utility.yul\":4237:4258   */\n      tag_367\n        /* \"#utility.yul\":4252:4257   */\n      dup2\n        /* \"#utility.yul\":4237:4258   */\n      tag_368\n      jump\t// in\n    tag_367:\n        /* \"#utility.yul\":4232:4235   */\n      dup3\n        /* \"#utility.yul\":4225:4259   */\n      mstore\n        /* \"#utility.yul\":4156:4265   */\n      pop\n      pop\n      jump\t// out\n        /* \"#utility.yul\":4271:4635   */\n    tag_369:\n        /* \"#utility.yul\":4359:4362   */\n      0x00\n        /* \"#utility.yul\":4387:4426   */\n      tag_371\n        /* \"#utility.yul\":4420:4425   */\n      dup3\n        /* \"#utility.yul\":4387:4426   */\n      tag_372\n      jump\t// in\n    tag_371:\n        /* \"#utility.yul\":4442:4513   */\n      tag_373\n        /* \"#utility.yul\":4506:4512   */\n      dup2\n        /* \"#utility.yul\":4501:4504   */\n      dup6\n        /* \"#utility.yul\":4442:4513   */\n      tag_374\n      jump\t// in\n    tag_373:\n        /* \"#utility.yul\":4435:4513   */\n      swap4\n      pop\n        /* \"#utility.yul\":4522:4574   */\n      tag_375\n        /* \"#utility.yul\":4567:4573   */\n      dup2\n        /* \"#utility.yul\":4562:4565   */\n      dup6\n        /* \"#utility.yul\":4555:4559   */\n      0x20\n        /* \"#utility.yul\":4548:4553   */\n      dup7\n        /* \"#utility.yul\":4544:4560   */\n      add\n        /* \"#utility.yul\":4522:4574   */\n      tag_376\n      jump\t// in\n    tag_375:\n        /* \"#utility.yul\":4599:4628   */\n      tag_377\n        /* \"#utility.yul\":4621:4627   */\n      dup2\n        /* \"#utility.yul\":4599:4628   */\n      tag_378\n      jump\t// in\n    tag_377:\n        /* \"#utility.yul\":4594:4597   */\n      dup5\n        /* \"#utility.yul\":4590:4629   */\n      add\n        /* \"#utility.yul\":4583:4629   */\n      swap2\n      pop\n        /* \"#utility.yul\":4363:4635   */\n      pop\n        /* \"#utility.yul\":4271:4635   */\n      swap3\n      swap2\n      pop\n      pop\n      jump\t// out\n        /* \"#utility.yul\":4641:5007   */\n    tag_379:\n        /* \"#utility.yul\":4783:4786   */\n      0x00\n        /* \"#utility.yul\":4804:4871   */\n      tag_381\n        /* \"#utility.yul\":4868:4870   */\n      0x23\n        /* \"#utility.yul\":4863:4866   */\n      dup4\n        /* \"#utility.yul\":4804:4871   */\n      tag_374\n      jump\t// in\n    tag_381:\n        /* \"#utility.yul\":4797:4871   */\n      swap2\n      pop\n        /* \"#utility.yul\":4880:4973   */\n      tag_382\n        /* \"#utility.yul\":4969:4972   */\n      dup3\n        /* \"#utility.yul\":4880:4973   */\n      tag_383\n      jump\t// in\n    tag_382:\n        /* \"#utility.yul\":4998:5000   */\n      0x40\n        /* \"#utility.yul\":4993:4996   */\n      dup3\n        /* \"#utility.yul\":4989:5001   */\n      add\n        /* \"#utility.yul\":4982:5001   */\n      swap1\n      pop\n        /* \"#utility.yul\":4641:5007   */\n      swap2\n      swap1\n      pop\n      jump\t// out\n        /* \"#utility.yul\":5013:5379   */\n    tag_384:\n        /* \"#utility.yul\":5155:5158   */\n      0x00\n        /* \"#utility.yul\":5176:5243   */\n      tag_386\n        /* \"#utility.yul\":5240:5242   */\n      0x22\n        /* \"#utility.yul\":5235:5238   */\n      dup4\n        /* \"#utility.yul\":5176:5243   */\n      tag_374\n      jump\t// in\n    tag_386:\n        /* \"#utility.yul\":5169:5243   */\n      swap2\n      pop\n        /* \"#utility.yul\":5252:5345   */\n      tag_387\n        /* \"#utility.yul\":5341:5344   */\n      dup3\n        /* \"#utility.yul\":5252:5345   */\n      tag_388\n      jump\t// in\n    tag_387:\n        /* \"#utility.yul\":5370:5372   */\n      0x40\n        /* \"#utility.yul\":5365:5368   */\n      dup3\n        /* \"#utility.yul\":5361:5373   */\n      add\n        /* \"#utility.yul\":5354:5373   */\n      swap1\n      pop\n        /* \"#utility.yul\":5013:5379   */\n      swap2\n      swap1\n      pop\n      jump\t// out\n        /* \"#utility.yul\":5385:5751   */\n    tag_389:\n        /* \"#utility.yul\":5527:5530   */\n      0x00\n        /* \"#utility.yul\":5548:5615   */\n      tag_391\n        /* \"#utility.yul\":5612:5614   */\n      0x22\n        /* \"#utility.yul\":5607:5610   */\n      dup4\n        /* \"#utility.yul\":5548:5615   */\n      tag_374\n      jump\t// in\n    tag_391:\n        /* \"#utility.yul\":5541:5615   */\n      swap2\n      pop\n        /* \"#utility.yul\":5624:5717   */\n      tag_392\n        /* \"#utility.yul\":5713:5716   */\n      dup3\n        /* \"#utility.yul\":5624:5717   */\n      tag_393\n      jump\t// in\n    tag_392:\n        /* \"#utility.yul\":5742:5744   */\n      0x40\n        /* \"#utility.yul\":5737:5740   */\n      dup3\n        /* \"#utility.yul\":5733:5745   */\n      add\n        /* \"#utility.yul\":5726:5745   */\n      swap1\n      pop\n        /* \"#utility.yul\":5385:5751   */\n      swap2\n      swap1\n      pop\n      jump\t// out\n        /* \"#utility.yul\":5757:6123   */\n    tag_394:\n        /* \"#utility.yul\":5899:5902   */\n      0x00\n        /* \"#utility.yul\":5920:5987   */\n      tag_396\n        /* \"#utility.yul\":5984:5986   */\n      0x29\n        /* \"#utility.yul\":5979:5982   */\n      dup4\n        /* \"#utility.yul\":5920:5987   */\n      tag_374\n      jump\t// in\n    tag_396:\n        /* \"#utility.yul\":5913:5987   */\n      swap2\n      pop\n        /* \"#utility.yul\":5996:6089   */\n      tag_397\n        /* \"#utility.yul\":6085:6088   */\n      dup3\n        /* \"#utility.yul\":5996:6089   */\n      tag_398\n      jump\t// in\n    tag_397:\n        /* \"#utility.yul\":6114:6116   */\n      0x40\n        /* \"#utility.yul\":6109:6112   */\n      dup3\n        /* \"#utility.yul\":6105:6117   */\n      add\n        /* \"#utility.yul\":6098:6117   */\n      swap1\n      pop\n        /* \"#utility.yul\":5757:6123   */\n      swap2\n      swap1\n      pop\n      jump\t// out\n        /* \"#utility.yul\":6129:6495   */\n    tag_399:\n        /* \"#utility.yul\":6271:6274   */\n      0x00\n        /* \"#utility.yul\":6292:6359   */\n      tag_401\n        /* \"#utility.yul\":6356:6358   */\n      0x1d\n        /* \"#utility.yul\":6351:6354   */\n      dup4\n        /* \"#utility.yul\":6292:6359   */\n      tag_374\n      jump\t// in\n    tag_401:\n        /* \"#utility.yul\":6285:6359   */\n      swap2\n      pop\n        /* \"#utility.yul\":6368:6461   */\n      tag_402\n        /* \"#utility.yul\":6457:6460   */\n      dup3\n        /* \"#utility.yul\":6368:6461   */\n      tag_403\n      jump\t// in\n    tag_402:\n        /* \"#utility.yul\":6486:6488   */\n      0x20\n        /* \"#utility.yul\":6481:6484   */\n      dup3\n        /* \"#utility.yul\":6477:6489   */\n      add\n        /* \"#utility.yul\":6470:6489   */\n      swap1\n      pop\n        /* \"#utility.yul\":6129:6495   */\n      swap2\n      swap1\n      pop\n      jump\t// out\n        /* \"#utility.yul\":6501:6867   */\n    tag_404:\n        /* \"#utility.yul\":6643:6646   */\n      0x00\n        /* \"#utility.yul\":6664:6731   */\n      tag_406\n        /* \"#utility.yul\":6728:6730   */\n      0x26\n        /* \"#utility.yul\":6723:6726   */\n      dup4\n        /* \"#utility.yul\":6664:6731   */\n      tag_374\n      jump\t// in\n    tag_406:\n        /* \"#utility.yul\":6657:6731   */\n      swap2\n      pop\n        /* \"#utility.yul\":6740:6833   */\n      tag_407\n        /* \"#utility.yul\":6829:6832   */\n      dup3\n        /* \"#utility.yul\":6740:6833   */\n      tag_408\n      jump\t// in\n    tag_407:\n        /* \"#utility.yul\":6858:6860   */\n      0x40\n        /* \"#utility.yul\":6853:6856   */\n      dup3\n        /* \"#utility.yul\":6849:6861   */\n      add\n        /* \"#utility.yul\":6842:6861   */\n      swap1\n      pop\n        /* \"#utility.yul\":6501:6867   */\n      swap2\n      swap1\n      pop\n      jump\t// out\n        /* \"#utility.yul\":6873:7239   */\n    tag_409:\n        /* \"#utility.yul\":7015:7018   */\n      0x00\n        /* \"#utility.yul\":7036:7103   */\n      tag_411\n        /* \"#utility.yul\":7100:7102   */\n      0x37\n        /* \"#utility.yul\":7095:7098   */\n      dup4\n        /* \"#utility.yul\":7036:7103   */\n      tag_374\n      jump\t// in\n    tag_411:\n        /* \"#utility.yul\":7029:7103   */\n      swap2\n      pop\n        /* \"#utility.yul\":7112:7205   */\n      tag_412\n        /* \"#utility.yul\":7201:7204   */\n      dup3\n        /* \"#utility.yul\":7112:7205   */\n      tag_413\n      jump\t// in\n    tag_412:\n        /* \"#utility.yul\":7230:7232   */\n      0x40\n        /* \"#utility.yul\":7225:7228   */\n      dup3\n        /* \"#utility.yul\":7221:7233   */\n      add\n        /* \"#utility.yul\":7214:7233   */\n      swap1\n      pop\n        /* \"#utility.yul\":6873:7239   */\n      swap2\n      swap1\n      pop\n      jump\t// out\n        /* \"#utility.yul\":7245:7611   */\n    tag_414:\n        /* \"#utility.yul\":7387:7390   */\n      0x00\n        /* \"#utility.yul\":7408:7475   */\n      tag_416\n        /* \"#utility.yul\":7472:7474   */\n      0x21\n        /* \"#utility.yul\":7467:7470   */\n      dup4\n        /* \"#utility.yul\":7408:7475   */\n      tag_374\n      jump\t// in\n    tag_416:\n        /* \"#utility.yul\":7401:7475   */\n      swap2\n      pop\n        /* \"#utility.yul\":7484:7577   */\n      tag_417\n        /* \"#utility.yul\":7573:7576   */\n      dup3\n        /* \"#utility.yul\":7484:7577   */\n      tag_418\n      jump\t// in\n    tag_417:\n        /* \"#utility.yul\":7602:7604   */\n      0x40\n        /* \"#utility.yul\":7597:7600   */\n      dup3\n        /* \"#utility.yul\":7593:7605   */\n      add\n        /* \"#utility.yul\":7586:7605   */\n      swap1\n      pop\n        /* \"#utility.yul\":7245:7611   */\n      swap2\n      swap1\n      pop\n      jump\t// out\n        /* \"#utility.yul\":7617:7983   */\n    tag_419:\n        /* \"#utility.yul\":7759:7762   */\n      0x00\n        /* \"#utility.yul\":7780:7847   */\n      tag_421\n        /* \"#utility.yul\":7844:7846   */\n      0x19\n        /* \"#utility.yul\":7839:7842   */\n      dup4\n        /* \"#utility.yul\":7780:7847   */\n      tag_374\n      jump\t// in\n    tag_421:\n        /* \"#utility.yul\":7773:7847   */\n      swap2\n      pop\n        /* \"#utility.yul\":7856:7949   */\n      tag_422\n        /* \"#utility.yul\":7945:7948   */\n      dup3\n        /* \"#utility.yul\":7856:7949   */\n      tag_423\n      jump\t// in\n    tag_422:\n        /* \"#utility.yul\":7974:7976   */\n      0x20\n        /* \"#utility.yul\":7969:7972   */\n      dup3\n        /* \"#utility.yul\":7965:7977   */\n      add\n        /* \"#utility.yul\":7958:7977   */\n      swap1\n      pop\n        /* \"#utility.yul\":7617:7983   */\n      swap2\n      swap1\n      pop\n      jump\t// out\n        /* \"#utility.yul\":7989:8355   */\n    tag_424:\n        /* \"#utility.yul\":8131:8134   */\n      0x00\n        /* \"#utility.yul\":8152:8219   */\n      tag_426\n        /* \"#utility.yul\":8216:8218   */\n      0x25\n        /* \"#utility.yul\":8211:8214   */\n      dup4\n        /* \"#utility.yul\":8152:8219   */\n      tag_374\n      jump\t// in\n    tag_426:\n        /* \"#utility.yul\":8145:8219   */\n      swap2\n      pop\n        /* \"#utility.yul\":8228:8321   */\n      tag_427\n        /* \"#utility.yul\":8317:8320   */\n      dup3\n        /* \"#utility.yul\":8228:8321   */\n      tag_428\n      jump\t// in\n    tag_427:\n        /* \"#utility.yul\":8346:8348   */\n      0x40\n        /* \"#utility.yul\":8341:8344   */\n      dup3\n        /* \"#utility.yul\":8337:8349   */\n      add\n        /* \"#utility.yul\":8330:8349   */\n      swap1\n      pop\n        /* \"#utility.yul\":7989:8355   */\n      swap2\n      swap1\n      pop\n      jump\t// out\n        /* \"#utility.yul\":8361:8727   */\n    tag_429:\n        /* \"#utility.yul\":8503:8506   */\n      0x00\n        /* \"#utility.yul\":8524:8591   */\n      tag_431\n        /* \"#utility.yul\":8588:8590   */\n      0x25\n        /* \"#utility.yul\":8583:8586   */\n      dup4\n        /* \"#utility.yul\":8524:8591   */\n      tag_374\n      jump\t// in\n    tag_431:\n        /* \"#utility.yul\":8517:8591   */\n      swap2\n      pop\n        /* \"#utility.yul\":8600:8693   */\n      tag_432\n        /* \"#utility.yul\":8689:8692   */\n      dup3\n        /* \"#utility.yul\":8600:8693   */\n      tag_433\n      jump\t// in\n    tag_432:\n        /* \"#utility.yul\":8718:8720   */\n      0x40\n        /* \"#utility.yul\":8713:8716   */\n      dup3\n        /* \"#utility.yul\":8709:8721   */\n      add\n        /* \"#utility.yul\":8702:8721   */\n      swap1\n      pop\n        /* \"#utility.yul\":8361:8727   */\n      swap2\n      swap1\n      pop\n      jump\t// out\n        /* \"#utility.yul\":8733:9131   */\n    tag_434:\n        /* \"#utility.yul\":8892:8895   */\n      0x00\n        /* \"#utility.yul\":8913:8996   */\n      tag_436\n        /* \"#utility.yul\":8994:8995   */\n      0x00\n        /* \"#utility.yul\":8989:8992   */\n      dup4\n        /* \"#utility.yul\":8913:8996   */\n      tag_437\n      jump\t// in\n    tag_436:\n        /* \"#utility.yul\":8906:8996   */\n      swap2\n      pop\n        /* \"#utility.yul\":9005:9098   */\n      tag_438\n        /* \"#utility.yul\":9094:9097   */\n      dup3\n        /* \"#utility.yul\":9005:9098   */\n      tag_439\n      jump\t// in\n    tag_438:\n        /* \"#utility.yul\":9123:9124   */\n      0x00\n        /* \"#utility.yul\":9118:9121   */\n      dup3\n        /* \"#utility.yul\":9114:9125   */\n      add\n        /* \"#utility.yul\":9107:9125   */\n      swap1\n      pop\n        /* \"#utility.yul\":8733:9131   */\n      swap2\n      swap1\n      pop\n      jump\t// out\n        /* \"#utility.yul\":9137:9503   */\n    tag_440:\n        /* \"#utility.yul\":9279:9282   */\n      0x00\n        /* \"#utility.yul\":9300:9367   */\n      tag_442\n        /* \"#utility.yul\":9364:9366   */\n      0x15\n        /* \"#utility.yul\":9359:9362   */\n      dup4\n        /* \"#utility.yul\":9300:9367   */\n      tag_374\n      jump\t// in\n    tag_442:\n        /* \"#utility.yul\":9293:9367   */\n      swap2\n      pop\n        /* \"#utility.yul\":9376:9469   */\n      tag_443\n        /* \"#utility.yul\":9465:9468   */\n      dup3\n        /* \"#utility.yul\":9376:9469   */\n      tag_444\n      jump\t// in\n    tag_443:\n        /* \"#utility.yul\":9494:9496   */\n      0x20\n        /* \"#utility.yul\":9489:9492   */\n      dup3\n        /* \"#utility.yul\":9485:9497   */\n      add\n        /* \"#utility.yul\":9478:9497   */\n      swap1\n      pop\n        /* \"#utility.yul\":9137:9503   */\n      swap2\n      swap1\n      pop\n      jump\t// out\n        /* \"#utility.yul\":9509:9875   */\n    tag_445:\n        /* \"#utility.yul\":9651:9654   */\n      0x00\n        /* \"#utility.yul\":9672:9739   */\n      tag_447\n        /* \"#utility.yul\":9736:9738   */\n      0x24\n        /* \"#utility.yul\":9731:9734   */\n      dup4\n        /* \"#utility.yul\":9672:9739   */\n      tag_374\n      jump\t// in\n    tag_447:\n        /* \"#utility.yul\":9665:9739   */\n      swap2\n      pop\n        /* \"#utility.yul\":9748:9841   */\n      tag_448\n        /* \"#utility.yul\":9837:9840   */\n      dup3\n        /* \"#utility.yul\":9748:9841   */\n      tag_449\n      jump\t// in\n    tag_448:\n        /* \"#utility.yul\":9866:9868   */\n      0x40\n        /* \"#utility.yul\":9861:9864   */\n      dup3\n        /* \"#utility.yul\":9857:9869   */\n      add\n        /* \"#utility.yul\":9850:9869   */\n      swap1\n      pop\n        /* \"#utility.yul\":9509:9875   */\n      swap2\n      swap1\n      pop\n      jump\t// out\n        /* \"#utility.yul\":9881:10247   */\n    tag_450:\n        /* \"#utility.yul\":10023:10026   */\n      0x00\n        /* \"#utility.yul\":10044:10111   */\n      tag_452\n        /* \"#utility.yul\":10108:10110   */\n      0x25\n        /* \"#utility.yul\":10103:10106   */\n      dup4\n        /* \"#utility.yul\":10044:10111   */\n      tag_374\n      jump\t// in\n    tag_452:\n        /* \"#utility.yul\":10037:10111   */\n      swap2\n      pop\n        /* \"#utility.yul\":10120:10213   */\n      tag_453\n        /* \"#utility.yul\":10209:10212   */\n      dup3\n        /* \"#utility.yul\":10120:10213   */\n      tag_454\n      jump\t// in\n    tag_453:\n        /* \"#utility.yul\":10238:10240   */\n      0x40\n        /* \"#utility.yul\":10233:10236   */\n      dup3\n        /* \"#utility.yul\":10229:10241   */\n      add\n        /* \"#utility.yul\":10222:10241   */\n      swap1\n      pop\n        /* \"#utility.yul\":9881:10247   */\n      swap2\n      swap1\n      pop\n      jump\t// out\n        /* \"#utility.yul\":10253:10619   */\n    tag_455:\n        /* \"#utility.yul\":10395:10398   */\n      0x00\n        /* \"#utility.yul\":10416:10483   */\n      tag_457\n        /* \"#utility.yul\":10480:10482   */\n      0x1f\n        /* \"#utility.yul\":10475:10478   */\n      dup4\n        /* \"#utility.yul\":10416:10483   */\n      tag_374\n      jump\t// in\n    tag_457:\n        /* \"#utility.yul\":10409:10483   */\n      swap2\n      pop\n        /* \"#utility.yul\":10492:10585   */\n      tag_458\n        /* \"#utility.yul\":10581:10584   */\n      dup3\n        /* \"#utility.yul\":10492:10585   */\n      tag_459\n      jump\t// in\n    tag_458:\n        /* \"#utility.yul\":10610:10612   */\n      0x20\n        /* \"#utility.yul\":10605:10608   */\n      dup3\n        /* \"#utility.yul\":10601:10613   */\n      add\n        /* \"#utility.yul\":10594:10613   */\n      swap1\n      pop\n        /* \"#utility.yul\":10253:10619   */\n      swap2\n      swap1\n      pop\n      jump\t// out\n        /* \"#utility.yul\":10625:10743   */\n    tag_460:\n        /* \"#utility.yul\":10712:10736   */\n      tag_462\n        /* \"#utility.yul\":10730:10735   */\n      dup2\n        /* \"#utility.yul\":10712:10736   */\n      tag_463\n      jump\t// in\n    tag_462:\n        /* \"#utility.yul\":10707:10710   */\n      dup3\n        /* \"#utility.yul\":10700:10737   */\n      mstore\n        /* \"#utility.yul\":10625:10743   */\n      pop\n      pop\n      jump\t// out\n        /* \"#utility.yul\":10749:10861   */\n    tag_464:\n        /* \"#utility.yul\":10832:10854   */\n      tag_466\n        /* \"#utility.yul\":10848:10853   */\n      dup2\n        /* \"#utility.yul\":10832:10854   */\n      tag_467\n      jump\t// in\n    tag_466:\n        /* \"#utility.yul\":10827:10830   */\n      dup3\n        /* \"#utility.yul\":10820:10855   */\n      mstore\n        /* \"#utility.yul\":10749:10861   */\n      pop\n      pop\n      jump\t// out\n        /* \"#utility.yul\":10867:11246   */\n    tag_218:\n        /* \"#utility.yul\":11051:11054   */\n      0x00\n        /* \"#utility.yul\":11073:11220   */\n      tag_469\n        /* \"#utility.yul\":11216:11219   */\n      dup3\n        /* \"#utility.yul\":11073:11220   */\n      tag_434\n      jump\t// in\n    tag_469:\n        /* \"#utility.yul\":11066:11220   */\n      swap2\n      pop\n        /* \"#utility.yul\":11237:11240   */\n      dup2\n        /* \"#utility.yul\":11230:11240   */\n      swap1\n      pop\n        /* \"#utility.yul\":10867:11246   */\n      swap2\n      swap1\n      pop\n      jump\t// out\n        /* \"#utility.yul\":11252:11474   */\n    tag_95:\n        /* \"#utility.yul\":11345:11349   */\n      0x00\n        /* \"#utility.yul\":11383:11385   */\n      0x20\n        /* \"#utility.yul\":11372:11381   */\n      dup3\n        /* \"#utility.yul\":11368:11386   */\n      add\n        /* \"#utility.yul\":11360:11386   */\n      swap1\n      pop\n        /* \"#utility.yul\":11396:11467   */\n      tag_471\n        /* \"#utility.yul\":11464:11465   */\n      0x00\n        /* \"#utility.yul\":11453:11462   */\n      dup4\n        /* \"#utility.yul\":11449:11466   */\n      add\n        /* \"#utility.yul\":11440:11446   */\n      dup5\n        /* \"#utility.yul\":11396:11467   */\n      tag_361\n      jump\t// in\n    tag_471:\n        /* \"#utility.yul\":11252:11474   */\n      swap3\n      swap2\n      pop\n      pop\n      jump\t// out\n        /* \"#utility.yul\":11480:11922   */\n    tag_170:\n        /* \"#utility.yul\":11629:11633   */\n      0x00\n        /* \"#utility.yul\":11667:11669   */\n      0x60\n        /* \"#utility.yul\":11656:11665   */\n      dup3\n        /* \"#utility.yul\":11652:11670   */\n      add\n        /* \"#utility.yul\":11644:11670   */\n      swap1\n      pop\n        /* \"#utility.yul\":11680:11751   */\n      tag_473\n        /* \"#utility.yul\":11748:11749   */\n      0x00\n        /* \"#utility.yul\":11737:11746   */\n      dup4\n        /* \"#utility.yul\":11733:11750   */\n      add\n        /* \"#utility.yul\":11724:11730   */\n      dup7\n        /* \"#utility.yul\":11680:11751   */\n      tag_361\n      jump\t// in\n    tag_473:\n        /* \"#utility.yul\":11761:11833   */\n      tag_474\n        /* \"#utility.yul\":11829:11831   */\n      0x20\n        /* \"#utility.yul\":11818:11827   */\n      dup4\n        /* \"#utility.yul\":11814:11832   */\n      add\n        /* \"#utility.yul\":11805:11811   */\n      dup6\n        /* \"#utility.yul\":11761:11833   */\n      tag_361\n      jump\t// in\n    tag_474:\n        /* \"#utility.yul\":11843:11915   */\n      tag_475\n        /* \"#utility.yul\":11911:11913   */\n      0x40\n        /* \"#utility.yul\":11900:11909   */\n      dup4\n        /* \"#utility.yul\":11896:11914   */\n      add\n        /* \"#utility.yul\":11887:11893   */\n      dup5\n        /* \"#utility.yul\":11843:11915   */\n      tag_460\n      jump\t// in\n    tag_475:\n        /* \"#utility.yul\":11480:11922   */\n      swap5\n      swap4\n      pop\n      pop\n      pop\n      pop\n      jump\t// out\n        /* \"#utility.yul\":11928:12260   */\n    tag_226:\n        /* \"#utility.yul\":12049:12053   */\n      0x00\n        /* \"#utility.yul\":12087:12089   */\n      0x40\n        /* \"#utility.yul\":12076:12085   */\n      dup3\n        /* \"#utility.yul\":12072:12090   */\n      add\n        /* \"#utility.yul\":12064:12090   */\n      swap1\n      pop\n        /* \"#utility.yul\":12100:12171   */\n      tag_477\n        /* \"#utility.yul\":12168:12169   */\n      0x00\n        /* \"#utility.yul\":12157:12166   */\n      dup4\n        /* \"#utility.yul\":12153:12170   */\n      add\n        /* \"#utility.yul\":12144:12150   */\n      dup6\n        /* \"#utility.yul\":12100:12171   */\n      tag_361\n      jump\t// in\n    tag_477:\n        /* \"#utility.yul\":12181:12253   */\n      tag_478\n        /* \"#utility.yul\":12249:12251   */\n      0x20\n        /* \"#utility.yul\":12238:12247   */\n      dup4\n        /* \"#utility.yul\":12234:12252   */\n      add\n        /* \"#utility.yul\":12225:12231   */\n      dup5\n        /* \"#utility.yul\":12181:12253   */\n      tag_460\n      jump\t// in\n    tag_478:\n        /* \"#utility.yul\":11928:12260   */\n      swap4\n      swap3\n      pop\n      pop\n      pop\n      jump\t// out\n        /* \"#utility.yul\":12266:12476   */\n    tag_40:\n        /* \"#utility.yul\":12353:12357   */\n      0x00\n        /* \"#utility.yul\":12391:12393   */\n      0x20\n        /* \"#utility.yul\":12380:12389   */\n      dup3\n        /* \"#utility.yul\":12376:12394   */\n      add\n        /* \"#utility.yul\":12368:12394   */\n      swap1\n      pop\n        /* \"#utility.yul\":12404:12469   */\n      tag_480\n        /* \"#utility.yul\":12466:12467   */\n      0x00\n        /* \"#utility.yul\":12455:12464   */\n      dup4\n        /* \"#utility.yul\":12451:12468   */\n      add\n        /* \"#utility.yul\":12442:12448   */\n      dup5\n        /* \"#utility.yul\":12404:12469   */\n      tag_365\n      jump\t// in\n    tag_480:\n        /* \"#utility.yul\":12266:12476   */\n      swap3\n      swap2\n      pop\n      pop\n      jump\t// out\n        /* \"#utility.yul\":12482:12795   */\n    tag_28:\n        /* \"#utility.yul\":12595:12599   */\n      0x00\n        /* \"#utility.yul\":12633:12635   */\n      0x20\n        /* \"#utility.yul\":12622:12631   */\n      dup3\n        /* \"#utility.yul\":12618:12636   */\n      add\n        /* \"#utility.yul\":12610:12636   */\n      swap1\n      pop\n        /* \"#utility.yul\":12682:12691   */\n      dup2\n        /* \"#utility.yul\":12676:12680   */\n      dup2\n        /* \"#utility.yul\":12672:12692   */\n      sub\n        /* \"#utility.yul\":12668:12669   */\n      0x00\n        /* \"#utility.yul\":12657:12666   */\n      dup4\n        /* \"#utility.yul\":12653:12670   */\n      add\n        /* \"#utility.yul\":12646:12693   */\n      mstore\n        /* \"#utility.yul\":12710:12788   */\n      tag_482\n        /* \"#utility.yul\":12783:12787   */\n      dup2\n        /* \"#utility.yul\":12774:12780   */\n      dup5\n        /* \"#utility.yul\":12710:12788   */\n      tag_369\n      jump\t// in\n    tag_482:\n        /* \"#utility.yul\":12702:12788   */\n      swap1\n      pop\n        /* \"#utility.yul\":12482:12795   */\n      swap3\n      swap2\n      pop\n      pop\n      jump\t// out\n        /* \"#utility.yul\":12801:13220   */\n    tag_275:\n        /* \"#utility.yul\":12967:12971   */\n      0x00\n        /* \"#utility.yul\":13005:13007   */\n      0x20\n        /* \"#utility.yul\":12994:13003   */\n      dup3\n        /* \"#utility.yul\":12990:13008   */\n      add\n        /* \"#utility.yul\":12982:13008   */\n      swap1\n      pop\n        /* \"#utility.yul\":13054:13063   */\n      dup2\n        /* \"#utility.yul\":13048:13052   */\n      dup2\n        /* \"#utility.yul\":13044:13064   */\n      sub\n        /* \"#utility.yul\":13040:13041   */\n      0x00\n        /* \"#utility.yul\":13029:13038   */\n      dup4\n        /* \"#utility.yul\":13025:13042   */\n      add\n        /* \"#utility.yul\":13018:13065   */\n      mstore\n        /* \"#utility.yul\":13082:13213   */\n      tag_484\n        /* \"#utility.yul\":13208:13212   */\n      dup2\n        /* \"#utility.yul\":13082:13213   */\n      tag_379\n      jump\t// in\n    tag_484:\n        /* \"#utility.yul\":13074:13213   */\n      swap1\n      pop\n        /* \"#utility.yul\":12801:13220   */\n      swap2\n      swap1\n      pop\n      jump\t// out\n        /* \"#utility.yul\":13226:13645   */\n    tag_301:\n        /* \"#utility.yul\":13392:13396   */\n      0x00\n        /* \"#utility.yul\":13430:13432   */\n      0x20\n        /* \"#utility.yul\":13419:13428   */\n      dup3\n        /* \"#utility.yul\":13415:13433   */\n      add\n        /* \"#utility.yul\":13407:13433   */\n      swap1\n      pop\n        /* \"#utility.yul\":13479:13488   */\n      dup2\n        /* \"#utility.yul\":13473:13477   */\n      dup2\n        /* \"#utility.yul\":13469:13489   */\n      sub\n        /* \"#utility.yul\":13465:13466   */\n      0x00\n        /* \"#utility.yul\":13454:13463   */\n      dup4\n        /* \"#utility.yul\":13450:13467   */\n      add\n        /* \"#utility.yul\":13443:13490   */\n      mstore\n        /* \"#utility.yul\":13507:13638   */\n      tag_486\n        /* \"#utility.yul\":13633:13637   */\n      dup2\n        /* \"#utility.yul\":13507:13638   */\n      tag_384\n      jump\t// in\n    tag_486:\n        /* \"#utility.yul\":13499:13638   */\n      swap1\n      pop\n        /* \"#utility.yul\":13226:13645   */\n      swap2\n      swap1\n      pop\n      jump\t// out\n        /* \"#utility.yul\":13651:14070   */\n    tag_249:\n        /* \"#utility.yul\":13817:13821   */\n      0x00\n        /* \"#utility.yul\":13855:13857   */\n      0x20\n        /* \"#utility.yul\":13844:13853   */\n      dup3\n        /* \"#utility.yul\":13840:13858   */\n      add\n        /* \"#utility.yul\":13832:13858   */\n      swap1\n      pop\n        /* \"#utility.yul\":13904:13913   */\n      dup2\n        /* \"#utility.yul\":13898:13902   */\n      dup2\n        /* \"#utility.yul\":13894:13914   */\n      sub\n        /* \"#utility.yul\":13890:13891   */\n      0x00\n        /* \"#utility.yul\":13879:13888   */\n      dup4\n        /* \"#utility.yul\":13875:13892   */\n      add\n        /* \"#utility.yul\":13868:13915   */\n      mstore\n        /* \"#utility.yul\":13932:14063   */\n      tag_488\n        /* \"#utility.yul\":14058:14062   */\n      dup2\n        /* \"#utility.yul\":13932:14063   */\n      tag_389\n      jump\t// in\n    tag_488:\n        /* \"#utility.yul\":13924:14063   */\n      swap1\n      pop\n        /* \"#utility.yul\":13651:14070   */\n      swap2\n      swap1\n      pop\n      jump\t// out\n        /* \"#utility.yul\":14076:14495   */\n    tag_185:\n        /* \"#utility.yul\":14242:14246   */\n      0x00\n        /* \"#utility.yul\":14280:14282   */\n      0x20\n        /* \"#utility.yul\":14269:14278   */\n      dup3\n        /* \"#utility.yul\":14265:14283   */\n      add\n        /* \"#utility.yul\":14257:14283   */\n      swap1\n      pop\n        /* \"#utility.yul\":14329:14338   */\n      dup2\n        /* \"#utility.yul\":14323:14327   */\n      dup2\n        /* \"#utility.yul\":14319:14339   */\n      sub\n        /* \"#utility.yul\":14315:14316   */\n      0x00\n        /* \"#utility.yul\":14304:14313   */\n      dup4\n        /* \"#utility.yul\":14300:14317   */\n      add\n        /* \"#utility.yul\":14293:14340   */\n      mstore\n        /* \"#utility.yul\":14357:14488   */\n      tag_490\n        /* \"#utility.yul\":14483:14487   */\n      dup2\n        /* \"#utility.yul\":14357:14488   */\n      tag_394\n      jump\t// in\n    tag_490:\n        /* \"#utility.yul\":14349:14488   */\n      swap1\n      pop\n        /* \"#utility.yul\":14076:14495   */\n      swap2\n      swap1\n      pop\n      jump\t// out\n        /* \"#utility.yul\":14501:14920   */\n    tag_267:\n        /* \"#utility.yul\":14667:14671   */\n      0x00\n        /* \"#utility.yul\":14705:14707   */\n      0x20\n        /* \"#utility.yul\":14694:14703   */\n      dup3\n        /* \"#utility.yul\":14690:14708   */\n      add\n        /* \"#utility.yul\":14682:14708   */\n      swap1\n      pop\n        /* \"#utility.yul\":14754:14763   */\n      dup2\n        /* \"#utility.yul\":14748:14752   */\n      dup2\n        /* \"#utility.yul\":14744:14764   */\n      sub\n        /* \"#utility.yul\":14740:14741   */\n      0x00\n        /* \"#utility.yul\":14729:14738   */\n      dup4\n        /* \"#utility.yul\":14725:14742   */\n      add\n        /* \"#utility.yul\":14718:14765   */\n      mstore\n        /* \"#utility.yul\":14782:14913   */\n      tag_492\n        /* \"#utility.yul\":14908:14912   */\n      dup2\n        /* \"#utility.yul\":14782:14913   */\n      tag_399\n      jump\t// in\n    tag_492:\n        /* \"#utility.yul\":14774:14913   */\n      swap1\n      pop\n        /* \"#utility.yul\":14501:14920   */\n      swap2\n      swap1\n      pop\n      jump\t// out\n        /* \"#utility.yul\":14926:15345   */\n    tag_280:\n        /* \"#utility.yul\":15092:15096   */\n      0x00\n        /* \"#utility.yul\":15130:15132   */\n      0x20\n        /* \"#utility.yul\":15119:15128   */\n      dup3\n        /* \"#utility.yul\":15115:15133   */\n      add\n        /* \"#utility.yul\":15107:15133   */\n      swap1\n      pop\n        /* \"#utility.yul\":15179:15188   */\n      dup2\n        /* \"#utility.yul\":15173:15177   */\n      dup2\n        /* \"#utility.yul\":15169:15189   */\n      sub\n        /* \"#utility.yul\":15165:15166   */\n      0x00\n        /* \"#utility.yul\":15154:15163   */\n      dup4\n        /* \"#utility.yul\":15150:15167   */\n      add\n        /* \"#utility.yul\":15143:15190   */\n      mstore\n        /* \"#utility.yul\":15207:15338   */\n      tag_494\n        /* \"#utility.yul\":15333:15337   */\n      dup2\n        /* \"#utility.yul\":15207:15338   */\n      tag_404\n      jump\t// in\n    tag_494:\n        /* \"#utility.yul\":15199:15338   */\n      swap1\n      pop\n        /* \"#utility.yul\":14926:15345   */\n      swap2\n      swap1\n      pop\n      jump\t// out\n        /* \"#utility.yul\":15351:15770   */\n    tag_207:\n        /* \"#utility.yul\":15517:15521   */\n      0x00\n        /* \"#utility.yul\":15555:15557   */\n      0x20\n        /* \"#utility.yul\":15544:15553   */\n      dup3\n        /* \"#utility.yul\":15540:15558   */\n      add\n        /* \"#utility.yul\":15532:15558   */\n      swap1\n      pop\n        /* \"#utility.yul\":15604:15613   */\n      dup2\n        /* \"#utility.yul\":15598:15602   */\n      dup2\n        /* \"#utility.yul\":15594:15614   */\n      sub\n        /* \"#utility.yul\":15590:15591   */\n      0x00\n        /* \"#utility.yul\":15579:15588   */\n      dup4\n        /* \"#utility.yul\":15575:15592   */\n      add\n        /* \"#utility.yul\":15568:15615   */\n      mstore\n        /* \"#utility.yul\":15632:15763   */\n      tag_496\n        /* \"#utility.yul\":15758:15762   */\n      dup2\n        /* \"#utility.yul\":15632:15763   */\n      tag_409\n      jump\t// in\n    tag_496:\n        /* \"#utility.yul\":15624:15763   */\n      swap1\n      pop\n        /* \"#utility.yul\":15351:15770   */\n      swap2\n      swap1\n      pop\n      jump\t// out\n        /* \"#utility.yul\":15776:16195   */\n    tag_297:\n        /* \"#utility.yul\":15942:15946   */\n      0x00\n        /* \"#utility.yul\":15980:15982   */\n      0x20\n        /* \"#utility.yul\":15969:15978   */\n      dup3\n        /* \"#utility.yul\":15965:15983   */\n      add\n        /* \"#utility.yul\":15957:15983   */\n      swap1\n      pop\n        /* \"#utility.yul\":16029:16038   */\n      dup2\n        /* \"#utility.yul\":16023:16027   */\n      dup2\n        /* \"#utility.yul\":16019:16039   */\n      sub\n        /* \"#utility.yul\":16015:16016   */\n      0x00\n        /* \"#utility.yul\":16004:16013   */\n      dup4\n        /* \"#utility.yul\":16000:16017   */\n      add\n        /* \"#utility.yul\":15993:16040   */\n      mstore\n        /* \"#utility.yul\":16057:16188   */\n      tag_498\n        /* \"#utility.yul\":16183:16187   */\n      dup2\n        /* \"#utility.yul\":16057:16188   */\n      tag_414\n      jump\t// in\n    tag_498:\n        /* \"#utility.yul\":16049:16188   */\n      swap1\n      pop\n        /* \"#utility.yul\":15776:16195   */\n      swap2\n      swap1\n      pop\n      jump\t// out\n        /* \"#utility.yul\":16201:16620   */\n    tag_143:\n        /* \"#utility.yul\":16367:16371   */\n      0x00\n        /* \"#utility.yul\":16405:16407   */\n      0x20\n        /* \"#utility.yul\":16394:16403   */\n      dup3\n        /* \"#utility.yul\":16390:16408   */\n      add\n        /* \"#utility.yul\":16382:16408   */\n      swap1\n      pop\n        /* \"#utility.yul\":16454:16463   */\n      dup2\n        /* \"#utility.yul\":16448:16452   */\n      dup2\n        /* \"#utility.yul\":16444:16464   */\n      sub\n        /* \"#utility.yul\":16440:16441   */\n      0x00\n        /* \"#utility.yul\":16429:16438   */\n      dup4\n        /* \"#utility.yul\":16425:16442   */\n      add\n        /* \"#utility.yul\":16418:16465   */\n      mstore\n        /* \"#utility.yul\":16482:16613   */\n      tag_500\n        /* \"#utility.yul\":16608:16612   */\n      dup2\n        /* \"#utility.yul\":16482:16613   */\n      tag_419\n      jump\t// in\n    tag_500:\n        /* \"#utility.yul\":16474:16613   */\n      swap1\n      pop\n        /* \"#utility.yul\":16201:16620   */\n      swap2\n      swap1\n      pop\n      jump\t// out\n        /* \"#utility.yul\":16626:17045   */\n    tag_272:\n        /* \"#utility.yul\":16792:16796   */\n      0x00\n        /* \"#utility.yul\":16830:16832   */\n      0x20\n        /* \"#utility.yul\":16819:16828   */\n      dup3\n        /* \"#utility.yul\":16815:16833   */\n      add\n        /* \"#utility.yul\":16807:16833   */\n      swap1\n      pop\n        /* \"#utility.yul\":16879:16888   */\n      dup2\n        /* \"#utility.yul\":16873:16877   */\n      dup2\n        /* \"#utility.yul\":16869:16889   */\n      sub\n        /* \"#utility.yul\":16865:16866   */\n      0x00\n        /* \"#utility.yul\":16854:16863   */\n      dup4\n        /* \"#utility.yul\":16850:16867   */\n      add\n        /* \"#utility.yul\":16843:16890   */\n      mstore\n        /* \"#utility.yul\":16907:17038   */\n      tag_502\n        /* \"#utility.yul\":17033:17037   */\n      dup2\n        /* \"#utility.yul\":16907:17038   */\n      tag_424\n      jump\t// in\n    tag_502:\n        /* \"#utility.yul\":16899:17038   */\n      swap1\n      pop\n        /* \"#utility.yul\":16626:17045   */\n      swap2\n      swap1\n      pop\n      jump\t// out\n        /* \"#utility.yul\":17051:17470   */\n    tag_224:\n        /* \"#utility.yul\":17217:17221   */\n      0x00\n        /* \"#utility.yul\":17255:17257   */\n      0x20\n        /* \"#utility.yul\":17244:17253   */\n      dup3\n        /* \"#utility.yul\":17240:17258   */\n      add\n        /* \"#utility.yul\":17232:17258   */\n      swap1\n      pop\n        /* \"#utility.yul\":17304:17313   */\n      dup2\n        /* \"#utility.yul\":17298:17302   */\n      dup2\n        /* \"#utility.yul\":17294:17314   */\n      sub\n        /* \"#utility.yul\":17290:17291   */\n      0x00\n        /* \"#utility.yul\":17279:17288   */\n      dup4\n        /* \"#utility.yul\":17275:17292   */\n      add\n        /* \"#utility.yul\":17268:17315   */\n      mstore\n        /* \"#utility.yul\":17332:17463   */\n      tag_504\n        /* \"#utility.yul\":17458:17462   */\n      dup2\n        /* \"#utility.yul\":17332:17463   */\n      tag_429\n      jump\t// in\n    tag_504:\n        /* \"#utility.yul\":17324:17463   */\n      swap1\n      pop\n        /* \"#utility.yul\":17051:17470   */\n      swap2\n      swap1\n      pop\n      jump\t// out\n        /* \"#utility.yul\":17476:17895   */\n    tag_255:\n        /* \"#utility.yul\":17642:17646   */\n      0x00\n        /* \"#utility.yul\":17680:17682   */\n      0x20\n        /* \"#utility.yul\":17669:17678   */\n      dup3\n        /* \"#utility.yul\":17665:17683   */\n      add\n        /* \"#utility.yul\":17657:17683   */\n      swap1\n      pop\n        /* \"#utility.yul\":17729:17738   */\n      dup2\n        /* \"#utility.yul\":17723:17727   */\n      dup2\n        /* \"#utility.yul\":17719:17739   */\n      sub\n        /* \"#utility.yul\":17715:17716   */\n      0x00\n        /* \"#utility.yul\":17704:17713   */\n      dup4\n        /* \"#utility.yul\":17700:17717   */\n      add\n        /* \"#utility.yul\":17693:17740   */\n      mstore\n        /* \"#utility.yul\":17757:17888   */\n      tag_506\n        /* \"#utility.yul\":17883:17887   */\n      dup2\n        /* \"#utility.yul\":17757:17888   */\n      tag_440\n      jump\t// in\n    tag_506:\n        /* \"#utility.yul\":17749:17888   */\n      swap1\n      pop\n        /* \"#utility.yul\":17476:17895   */\n      swap2\n      swap1\n      pop\n      jump\t// out\n        /* \"#utility.yul\":17901:18320   */\n    tag_246:\n        /* \"#utility.yul\":18067:18071   */\n      0x00\n        /* \"#utility.yul\":18105:18107   */\n      0x20\n        /* \"#utility.yul\":18094:18103   */\n      dup3\n        /* \"#utility.yul\":18090:18108   */\n      add\n        /* \"#utility.yul\":18082:18108   */\n      swap1\n      pop\n        /* \"#utility.yul\":18154:18163   */\n      dup2\n        /* \"#utility.yul\":18148:18152   */\n      dup2\n        /* \"#utility.yul\":18144:18164   */\n      sub\n        /* \"#utility.yul\":18140:18141   */\n      0x00\n        /* \"#utility.yul\":18129:18138   */\n      dup4\n        /* \"#utility.yul\":18125:18142   */\n      add\n        /* \"#utility.yul\":18118:18165   */\n      mstore\n        /* \"#utility.yul\":18182:18313   */\n      tag_508\n        /* \"#utility.yul\":18308:18312   */\n      dup2\n        /* \"#utility.yul\":18182:18313   */\n      tag_445\n      jump\t// in\n    tag_508:\n        /* \"#utility.yul\":18174:18313   */\n      swap1\n      pop\n        /* \"#utility.yul\":17901:18320   */\n      swap2\n      swap1\n      pop\n      jump\t// out\n        /* \"#utility.yul\":18326:18745   */\n    tag_236:\n        /* \"#utility.yul\":18492:18496   */\n      0x00\n        /* \"#utility.yul\":18530:18532   */\n      0x20\n        /* \"#utility.yul\":18519:18528   */\n      dup3\n        /* \"#utility.yul\":18515:18533   */\n      add\n        /* \"#utility.yul\":18507:18533   */\n      swap1\n      pop\n        /* \"#utility.yul\":18579:18588   */\n      dup2\n        /* \"#utility.yul\":18573:18577   */\n      dup2\n        /* \"#utility.yul\":18569:18589   */\n      sub\n        /* \"#utility.yul\":18565:18566   */\n      0x00\n        /* \"#utility.yul\":18554:18563   */\n      dup4\n        /* \"#utility.yul\":18550:18567   */\n      add\n        /* \"#utility.yul\":18543:18590   */\n      mstore\n        /* \"#utility.yul\":18607:18738   */\n      tag_510\n        /* \"#utility.yul\":18733:18737   */\n      dup2\n        /* \"#utility.yul\":18607:18738   */\n      tag_450\n      jump\t// in\n    tag_510:\n        /* \"#utility.yul\":18599:18738   */\n      swap1\n      pop\n        /* \"#utility.yul\":18326:18745   */\n      swap2\n      swap1\n      pop\n      jump\t// out\n        /* \"#utility.yul\":18751:19170   */\n    tag_288:\n        /* \"#utility.yul\":18917:18921   */\n      0x00\n        /* \"#utility.yul\":18955:18957   */\n      0x20\n        /* \"#utility.yul\":18944:18953   */\n      dup3\n        /* \"#utility.yul\":18940:18958   */\n      add\n        /* \"#utility.yul\":18932:18958   */\n      swap1\n      pop\n        /* \"#utility.yul\":19004:19013   */\n      dup2\n        /* \"#utility.yul\":18998:19002   */\n      dup2\n        /* \"#utility.yul\":18994:19014   */\n      sub\n        /* \"#utility.yul\":18990:18991   */\n      0x00\n        /* \"#utility.yul\":18979:18988   */\n      dup4\n        /* \"#utility.yul\":18975:18992   */\n      add\n        /* \"#utility.yul\":18968:19015   */\n      mstore\n        /* \"#utility.yul\":19032:19163   */\n      tag_512\n        /* \"#utility.yul\":19158:19162   */\n      dup2\n        /* \"#utility.yul\":19032:19163   */\n      tag_455\n      jump\t// in\n    tag_512:\n        /* \"#utility.yul\":19024:19163   */\n      swap1\n      pop\n        /* \"#utility.yul\":18751:19170   */\n      swap2\n      swap1\n      pop\n      jump\t// out\n        /* \"#utility.yul\":19176:19398   */\n    tag_47:\n        /* \"#utility.yul\":19269:19273   */\n      0x00\n        /* \"#utility.yul\":19307:19309   */\n      0x20\n        /* \"#utility.yul\":19296:19305   */\n      dup3\n        /* \"#utility.yul\":19292:19310   */\n      add\n        /* \"#utility.yul\":19284:19310   */\n      swap1\n      pop\n        /* \"#utility.yul\":19320:19391   */\n      tag_514\n        /* \"#utility.yul\":19388:19389   */\n      0x00\n        /* \"#utility.yul\":19377:19386   */\n      dup4\n        /* \"#utility.yul\":19373:19390   */\n      add\n        /* \"#utility.yul\":19364:19370   */\n      dup5\n        /* \"#utility.yul\":19320:19391   */\n      tag_460\n      jump\t// in\n    tag_514:\n        /* \"#utility.yul\":19176:19398   */\n      swap3\n      swap2\n      pop\n      pop\n      jump\t// out\n        /* \"#utility.yul\":19404:19736   */\n    tag_33:\n        /* \"#utility.yul\":19525:19529   */\n      0x00\n        /* \"#utility.yul\":19563:19565   */\n      0x40\n        /* \"#utility.yul\":19552:19561   */\n      dup3\n        /* \"#utility.yul\":19548:19566   */\n      add\n        /* \"#utility.yul\":19540:19566   */\n      swap1\n      pop\n        /* \"#utility.yul\":19576:19647   */\n      tag_516\n        /* \"#utility.yul\":19644:19645   */\n      0x00\n        /* \"#utility.yul\":19633:19642   */\n      dup4\n        /* \"#utility.yul\":19629:19646   */\n      add\n        /* \"#utility.yul\":19620:19626   */\n      dup6\n        /* \"#utility.yul\":19576:19647   */\n      tag_460\n      jump\t// in\n    tag_516:\n        /* \"#utility.yul\":19657:19729   */\n      tag_517\n        /* \"#utility.yul\":19725:19727   */\n      0x20\n        /* \"#utility.yul\":19714:19723   */\n      dup4\n        /* \"#utility.yul\":19710:19728   */\n      add\n        /* \"#utility.yul\":19701:19707   */\n      dup5\n        /* \"#utility.yul\":19657:19729   */\n      tag_460\n      jump\t// in\n    tag_517:\n        /* \"#utility.yul\":19404:19736   */\n      swap4\n      swap3\n      pop\n      pop\n      pop\n      jump\t// out\n        /* \"#utility.yul\":19742:19956   */\n    tag_67:\n        /* \"#utility.yul\":19831:19835   */\n      0x00\n        /* \"#utility.yul\":19869:19871   */\n      0x20\n        /* \"#utility.yul\":19858:19867   */\n      dup3\n        /* \"#utility.yul\":19854:19872   */\n      add\n        /* \"#utility.yul\":19846:19872   */\n      swap1\n      pop\n        /* \"#utility.yul\":19882:19949   */\n      tag_519\n        /* \"#utility.yul\":19946:19947   */\n      0x00\n        /* \"#utility.yul\":19935:19944   */\n      dup4\n        /* \"#utility.yul\":19931:19948   */\n      add\n        /* \"#utility.yul\":19922:19928   */\n      dup5\n        /* \"#utility.yul\":19882:19949   */\n      tag_464\n      jump\t// in\n    tag_519:\n        /* \"#utility.yul\":19742:19956   */\n      swap3\n      swap2\n      pop\n      pop\n      jump\t// out\n        /* \"#utility.yul\":20043:20142   */\n    tag_372:\n        /* \"#utility.yul\":20095:20101   */\n      0x00\n        /* \"#utility.yul\":20129:20134   */\n      dup2\n        /* \"#utility.yul\":20123:20135   */\n      mload\n        /* \"#utility.yul\":20113:20135   */\n      swap1\n      pop\n        /* \"#utility.yul\":20043:20142   */\n      swap2\n      swap1\n      pop\n      jump\t// out\n        /* \"#utility.yul\":20148:20295   */\n    tag_437:\n        /* \"#utility.yul\":20249:20260   */\n      0x00\n        /* \"#utility.yul\":20286:20289   */\n      dup2\n        /* \"#utility.yul\":20271:20289   */\n      swap1\n      pop\n        /* \"#utility.yul\":20148:20295   */\n      swap3\n      swap2\n      pop\n      pop\n      jump\t// out\n        /* \"#utility.yul\":20301:20470   */\n    tag_374:\n        /* \"#utility.yul\":20385:20396   */\n      0x00\n        /* \"#utility.yul\":20419:20425   */\n      dup3\n        /* \"#utility.yul\":20414:20417   */\n      dup3\n        /* \"#utility.yul\":20407:20426   */\n      mstore\n        /* \"#utility.yul\":20459:20463   */\n      0x20\n        /* \"#utility.yul\":20454:20457   */\n      dup3\n        /* \"#utility.yul\":20450:20464   */\n      add\n        /* \"#utility.yul\":20435:20464   */\n      swap1\n      pop\n        /* \"#utility.yul\":20301:20470   */\n      swap3\n      swap2\n      pop\n      pop\n      jump\t// out\n        /* \"#utility.yul\":20476:20781   */\n    tag_165:\n        /* \"#utility.yul\":20516:20519   */\n      0x00\n        /* \"#utility.yul\":20535:20555   */\n      tag_526\n        /* \"#utility.yul\":20553:20554   */\n      dup3\n        /* \"#utility.yul\":20535:20555   */\n      tag_463\n      jump\t// in\n    tag_526:\n        /* \"#utility.yul\":20530:20555   */\n      swap2\n      pop\n        /* \"#utility.yul\":20569:20589   */\n      tag_527\n        /* \"#utility.yul\":20587:20588   */\n      dup4\n        /* \"#utility.yul\":20569:20589   */\n      tag_463\n      jump\t// in\n    tag_527:\n        /* \"#utility.yul\":20564:20589   */\n      swap3\n      pop\n        /* \"#utility.yul\":20723:20724   */\n      dup3\n        /* \"#utility.yul\":20655:20721   */\n      0xffffffffffffffffffffffffffffffffffffffffffffffffffffffffffffffff\n        /* \"#utility.yul\":20651:20725   */\n      sub\n        /* \"#utility.yul\":20648:20649   */\n      dup3\n        /* \"#utility.yul\":20645:20726   */\n      gt\n        /* \"#utility.yul\":20642:20749   */\n      iszero\n      tag_528\n      jumpi\n        /* \"#utility.yul\":20729:20747   */\n      tag_529\n      tag_530\n      jump\t// in\n    tag_529:\n        /* \"#utility.yul\":20642:20749   */\n    tag_528:\n        /* \"#utility.yul\":20773:20774   */\n      dup3\n        /* \"#utility.yul\":20770:20771   */\n      dup3\n        /* \"#utility.yul\":20766:20775   */\n      add\n        /* \"#utility.yul\":20759:20775   */\n      swap1\n      pop\n        /* \"#utility.yul\":20476:20781   */\n      swap3\n      swap2\n      pop\n      pop\n      jump\t// out\n        /* \"#utility.yul\":20787:20972   */\n    tag_182:\n        /* \"#utility.yul\":20827:20828   */\n      0x00\n        /* \"#utility.yul\":20844:20864   */\n      tag_532\n        /* \"#utility.yul\":20862:20863   */\n      dup3\n        /* \"#utility.yul\":20844:20864   */\n      tag_463\n      jump\t// in\n    tag_532:\n        /* \"#utility.yul\":20839:20864   */\n      swap2\n      pop\n        /* \"#utility.yul\":20878:20898   */\n      tag_533\n        /* \"#utility.yul\":20896:20897   */\n      dup4\n        /* \"#utility.yul\":20878:20898   */\n      tag_463\n      jump\t// in\n    tag_533:\n        /* \"#utility.yul\":20873:20898   */\n      swap3\n      pop\n        /* \"#utility.yul\":20917:20918   */\n      dup3\n        /* \"#utility.yul\":20907:20942   */\n      tag_534\n      jumpi\n        /* \"#utility.yul\":20922:20940   */\n      tag_535\n      tag_536\n      jump\t// in\n    tag_535:\n        /* \"#utility.yul\":20907:20942   */\n    tag_534:\n        /* \"#utility.yul\":20964:20965   */\n      dup3\n        /* \"#utility.yul\":20961:20962   */\n      dup3\n        /* \"#utility.yul\":20957:20966   */\n      div\n        /* \"#utility.yul\":20952:20966   */\n      swap1\n      pop\n        /* \"#utility.yul\":20787:20972   */\n      swap3\n      swap2\n      pop\n      pop\n      jump\t// out\n        /* \"#utility.yul\":20978:21326   */\n    tag_180:\n        /* \"#utility.yul\":21018:21025   */\n      0x00\n        /* \"#utility.yul\":21041:21061   */\n      tag_538\n        /* \"#utility.yul\":21059:21060   */\n      dup3\n        /* \"#utility.yul\":21041:21061   */\n      tag_463\n      jump\t// in\n    tag_538:\n        /* \"#utility.yul\":21036:21061   */\n      swap2\n      pop\n        /* \"#utility.yul\":21075:21095   */\n      tag_539\n        /* \"#utility.yul\":21093:21094   */\n      dup4\n        /* \"#utility.yul\":21075:21095   */\n      tag_463\n      jump\t// in\n    tag_539:\n        /* \"#utility.yul\":21070:21095   */\n      swap3\n      pop\n        /* \"#utility.yul\":21263:21264   */\n      dup2\n        /* \"#utility.yul\":21195:21261   */\n      0xffffffffffffffffffffffffffffffffffffffffffffffffffffffffffffffff\n        /* \"#utility.yul\":21191:21265   */\n      div\n        /* \"#utility.yul\":21188:21189   */\n      dup4\n        /* \"#utility.yul\":21185:21266   */\n      gt\n        /* \"#utility.yul\":21180:21181   */\n      dup3\n        /* \"#utility.yul\":21173:21182   */\n      iszero\n        /* \"#utility.yul\":21166:21183   */\n      iszero\n        /* \"#utility.yul\":21162:21267   */\n      and\n        /* \"#utility.yul\":21159:21290   */\n      iszero\n      tag_540\n      jumpi\n        /* \"#utility.yul\":21270:21288   */\n      tag_541\n      tag_530\n      jump\t// in\n    tag_541:\n        /* \"#utility.yul\":21159:21290   */\n    tag_540:\n        /* \"#utility.yul\":21318:21319   */\n      dup3\n        /* \"#utility.yul\":21315:21316   */\n      dup3\n        /* \"#utility.yul\":21311:21320   */\n      mul\n        /* \"#utility.yul\":21300:21320   */\n      swap1\n      pop\n        /* \"#utility.yul\":20978:21326   */\n      swap3\n      swap2\n      pop\n      pop\n      jump\t// out\n        /* \"#utility.yul\":21332:21523   */\n    tag_178:\n        /* \"#utility.yul\":21372:21376   */\n      0x00\n        /* \"#utility.yul\":21392:21412   */\n      tag_543\n        /* \"#utility.yul\":21410:21411   */\n      dup3\n        /* \"#utility.yul\":21392:21412   */\n      tag_463\n      jump\t// in\n    tag_543:\n        /* \"#utility.yul\":21387:21412   */\n      swap2\n      pop\n        /* \"#utility.yul\":21426:21446   */\n      tag_544\n        /* \"#utility.yul\":21444:21445   */\n      dup4\n        /* \"#utility.yul\":21426:21446   */\n      tag_463\n      jump\t// in\n    tag_544:\n        /* \"#utility.yul\":21421:21446   */\n      swap3\n      pop\n        /* \"#utility.yul\":21465:21466   */\n      dup3\n        /* \"#utility.yul\":21462:21463   */\n      dup3\n        /* \"#utility.yul\":21459:21467   */\n      lt\n        /* \"#utility.yul\":21456:21490   */\n      iszero\n      tag_545\n      jumpi\n        /* \"#utility.yul\":21470:21488   */\n      tag_546\n      tag_530\n      jump\t// in\n    tag_546:\n        /* \"#utility.yul\":21456:21490   */\n    tag_545:\n        /* \"#utility.yul\":21515:21516   */\n      dup3\n        /* \"#utility.yul\":21512:21513   */\n      dup3\n        /* \"#utility.yul\":21508:21517   */\n      sub\n        /* \"#utility.yul\":21500:21517   */\n      swap1\n      pop\n        /* \"#utility.yul\":21332:21523   */\n      swap3\n      swap2\n      pop\n      pop\n      jump\t// out\n        /* \"#utility.yul\":21529:21625   */\n    tag_364:\n        /* \"#utility.yul\":21566:21573   */\n      0x00\n        /* \"#utility.yul\":21595:21619   */\n      tag_548\n        /* \"#utility.yul\":21613:21618   */\n      dup3\n        /* \"#utility.yul\":21595:21619   */\n      tag_549\n      jump\t// in\n    tag_548:\n        /* \"#utility.yul\":21584:21619   */\n      swap1\n      pop\n        /* \"#utility.yul\":21529:21625   */\n      swap2\n      swap1\n      pop\n      jump\t// out\n        /* \"#utility.yul\":21631:21721   */\n    tag_368:\n        /* \"#utility.yul\":21665:21672   */\n      0x00\n        /* \"#utility.yul\":21708:21713   */\n      dup2\n        /* \"#utility.yul\":21701:21714   */\n      iszero\n        /* \"#utility.yul\":21694:21715   */\n      iszero\n        /* \"#utility.yul\":21683:21715   */\n      swap1\n      pop\n        /* \"#utility.yul\":21631:21721   */\n      swap2\n      swap1\n      pop\n      jump\t// out\n        /* \"#utility.yul\":21727:21853   */\n    tag_549:\n        /* \"#utility.yul\":21764:21771   */\n      0x00\n        /* \"#utility.yul\":21804:21846   */\n      0xffffffffffffffffffffffffffffffffffffffff\n        /* \"#utility.yul\":21797:21802   */\n      dup3\n        /* \"#utility.yul\":21793:21847   */\n      and\n        /* \"#utility.yul\":21782:21847   */\n      swap1\n      pop\n        /* \"#utility.yul\":21727:21853   */\n      swap2\n      swap1\n      pop\n      jump\t// out\n        /* \"#utility.yul\":21859:21936   */\n    tag_463:\n        /* \"#utility.yul\":21896:21903   */\n      0x00\n        /* \"#utility.yul\":21925:21930   */\n      dup2\n        /* \"#utility.yul\":21914:21930   */\n      swap1\n      pop\n        /* \"#utility.yul\":21859:21936   */\n      swap2\n      swap1\n      pop\n      jump\t// out\n        /* \"#utility.yul\":21942:22028   */\n    tag_467:\n        /* \"#utility.yul\":21977:21984   */\n      0x00\n        /* \"#utility.yul\":22017:22021   */\n      0xff\n        /* \"#utility.yul\":22010:22015   */\n      dup3\n        /* \"#utility.yul\":22006:22022   */\n      and\n        /* \"#utility.yul\":21995:22022   */\n      swap1\n      pop\n        /* \"#utility.yul\":21942:22028   */\n      swap2\n      swap1\n      pop\n      jump\t// out\n        /* \"#utility.yul\":22034:22341   */\n    tag_376:\n        /* \"#utility.yul\":22102:22103   */\n      0x00\n        /* \"#utility.yul\":22112:22225   */\n    tag_555:\n        /* \"#utility.yul\":22126:22132   */\n      dup4\n        /* \"#utility.yul\":22123:22124   */\n      dup2\n        /* \"#utility.yul\":22120:22133   */\n      lt\n        /* \"#utility.yul\":22112:22225   */\n      iszero\n      tag_557\n      jumpi\n        /* \"#utility.yul\":22211:22212   */\n      dup1\n        /* \"#utility.yul\":22206:22209   */\n      dup3\n        /* \"#utility.yul\":22202:22213   */\n      add\n        /* \"#utility.yul\":22196:22214   */\n      mload\n        /* \"#utility.yul\":22192:22193   */\n      dup2\n        /* \"#utility.yul\":22187:22190   */\n      dup5\n        /* \"#utility.yul\":22183:22194   */\n      add\n        /* \"#utility.yul\":22176:22215   */\n      mstore\n        /* \"#utility.yul\":22148:22150   */\n      0x20\n        /* \"#utility.yul\":22145:22146   */\n      dup2\n        /* \"#utility.yul\":22141:22151   */\n      add\n        /* \"#utility.yul\":22136:22151   */\n      swap1\n      pop\n        /* \"#utility.yul\":22112:22225   */\n      jump(tag_555)\n    tag_557:\n        /* \"#utility.yul\":22243:22249   */\n      dup4\n        /* \"#utility.yul\":22240:22241   */\n      dup2\n        /* \"#utility.yul\":22237:22250   */\n      gt\n        /* \"#utility.yul\":22234:22335   */\n      iszero\n      tag_558\n      jumpi\n        /* \"#utility.yul\":22323:22324   */\n      0x00\n        /* \"#utility.yul\":22314:22320   */\n      dup5\n        /* \"#utility.yul\":22309:22312   */\n      dup5\n        /* \"#utility.yul\":22305:22321   */\n      add\n        /* \"#utility.yul\":22298:22325   */\n      mstore\n        /* \"#utility.yul\":22234:22335   */\n    tag_558:\n        /* \"#utility.yul\":22083:22341   */\n      pop\n        /* \"#utility.yul\":22034:22341   */\n      pop\n      pop\n      pop\n      jump\t// out\n        /* \"#utility.yul\":22347:22667   */\n    tag_123:\n        /* \"#utility.yul\":22391:22397   */\n      0x00\n        /* \"#utility.yul\":22428:22429   */\n      0x02\n        /* \"#utility.yul\":22422:22426   */\n      dup3\n        /* \"#utility.yul\":22418:22430   */\n      div\n        /* \"#utility.yul\":22408:22430   */\n      swap1\n      pop\n        /* \"#utility.yul\":22475:22476   */\n      0x01\n        /* \"#utility.yul\":22469:22473   */\n      dup3\n        /* \"#utility.yul\":22465:22477   */\n      and\n        /* \"#utility.yul\":22496:22514   */\n      dup1\n        /* \"#utility.yul\":22486:22567   */\n      tag_560\n      jumpi\n        /* \"#utility.yul\":22552:22556   */\n      0x7f\n        /* \"#utility.yul\":22544:22550   */\n      dup3\n        /* \"#utility.yul\":22540:22557   */\n      and\n        /* \"#utility.yul\":22530:22557   */\n      swap2\n      pop\n        /* \"#utility.yul\":22486:22567   */\n    tag_560:\n        /* \"#utility.yul\":22614:22616   */\n      0x20\n        /* \"#utility.yul\":22606:22612   */\n      dup3\n        /* \"#utility.yul\":22603:22617   */\n      lt\n        /* \"#utility.yul\":22583:22601   */\n      dup2\n        /* \"#utility.yul\":22580:22618   */\n      eq\n        /* \"#utility.yul\":22577:22661   */\n      iszero\n      tag_561\n      jumpi\n        /* \"#utility.yul\":22633:22651   */\n      tag_562\n      tag_563\n      jump\t// in\n    tag_562:\n        /* \"#utility.yul\":22577:22661   */\n    tag_561:\n        /* \"#utility.yul\":22398:22667   */\n      pop\n        /* \"#utility.yul\":22347:22667   */\n      swap2\n      swap1\n      pop\n      jump\t// out\n        /* \"#utility.yul\":22673:22853   */\n    tag_530:\n        /* \"#utility.yul\":22721:22798   */\n      0x4e487b7100000000000000000000000000000000000000000000000000000000\n        /* \"#utility.yul\":22718:22719   */\n      0x00\n        /* \"#utility.yul\":22711:22799   */\n      mstore\n        /* \"#utility.yul\":22818:22822   */\n      0x11\n        /* \"#utility.yul\":22815:22816   */\n      0x04\n        /* \"#utility.yul\":22808:22823   */\n      mstore\n        /* \"#utility.yul\":22842:22846   */\n      0x24\n        /* \"#utility.yul\":22839:22840   */\n      0x00\n        /* \"#utility.yul\":22832:22847   */\n      revert\n        /* \"#utility.yul\":22859:23039   */\n    tag_536:\n        /* \"#utility.yul\":22907:22984   */\n      0x4e487b7100000000000000000000000000000000000000000000000000000000\n        /* \"#utility.yul\":22904:22905   */\n      0x00\n        /* \"#utility.yul\":22897:22985   */\n      mstore\n        /* \"#utility.yul\":23004:23008   */\n      0x12\n        /* \"#utility.yul\":23001:23002   */\n      0x04\n        /* \"#utility.yul\":22994:23009   */\n      mstore\n        /* \"#utility.yul\":23028:23032   */\n      0x24\n        /* \"#utility.yul\":23025:23026   */\n      0x00\n        /* \"#utility.yul\":23018:23033   */\n      revert\n        /* \"#utility.yul\":23045:23225   */\n    tag_563:\n        /* \"#utility.yul\":23093:23170   */\n      0x4e487b7100000000000000000000000000000000000000000000000000000000\n        /* \"#utility.yul\":23090:23091   */\n      0x00\n        /* \"#utility.yul\":23083:23171   */\n      mstore\n        /* \"#utility.yul\":23190:23194   */\n      0x22\n        /* \"#utility.yul\":23187:23188   */\n      0x04\n        /* \"#utility.yul\":23180:23195   */\n      mstore\n        /* \"#utility.yul\":23214:23218   */\n      0x24\n        /* \"#utility.yul\":23211:23212   */\n      0x00\n        /* \"#utility.yul\":23204:23219   */\n      revert\n        /* \"#utility.yul\":23354:23471   */\n    tag_326:\n        /* \"#utility.yul\":23463:23464   */\n      0x00\n        /* \"#utility.yul\":23460:23461   */\n      dup1\n        /* \"#utility.yul\":23453:23465   */\n      revert\n        /* \"#utility.yul\":23477:23579   */\n    tag_378:\n        /* \"#utility.yul\":23518:23524   */\n      0x00\n        /* \"#utility.yul\":23569:23571   */\n      0x1f\n        /* \"#utility.yul\":23565:23572   */\n      not\n        /* \"#utility.yul\":23560:23562   */\n      0x1f\n        /* \"#utility.yul\":23553:23558   */\n      dup4\n        /* \"#utility.yul\":23549:23563   */\n      add\n        /* \"#utility.yul\":23545:23573   */\n      and\n        /* \"#utility.yul\":23535:23573   */\n      swap1\n      pop\n        /* \"#utility.yul\":23477:23579   */\n      swap2\n      swap1\n      pop\n      jump\t// out\n        /* \"#utility.yul\":23585:23807   */\n    tag_383:\n        /* \"#utility.yul\":23725:23759   */\n      0x45524332303a207472616e7366657220746f20746865207a65726f2061646472\n        /* \"#utility.yul\":23721:23722   */\n      0x00\n        /* \"#utility.yul\":23713:23719   */\n      dup3\n        /* \"#utility.yul\":23709:23723   */\n      add\n        /* \"#utility.yul\":23702:23760   */\n      mstore\n        /* \"#utility.yul\":23794:23799   */\n      0x6573730000000000000000000000000000000000000000000000000000000000\n        /* \"#utility.yul\":23789:23791   */\n      0x20\n        /* \"#utility.yul\":23781:23787   */\n      dup3\n        /* \"#utility.yul\":23777:23792   */\n      add\n        /* \"#utility.yul\":23770:23800   */\n      mstore\n        /* \"#utility.yul\":23585:23807   */\n      pop\n      jump\t// out\n        /* \"#utility.yul\":23813:24034   */\n    tag_388:\n        /* \"#utility.yul\":23953:23987   */\n      0x45524332303a206275726e20616d6f756e7420657863656564732062616c616e\n        /* \"#utility.yul\":23949:23950   */\n      0x00\n        /* \"#utility.yul\":23941:23947   */\n      dup3\n        /* \"#utility.yul\":23937:23951   */\n      add\n        /* \"#utility.yul\":23930:23988   */\n      mstore\n        /* \"#utility.yul\":24022:24026   */\n      0x6365000000000000000000000000000000000000000000000000000000000000\n        /* \"#utility.yul\":24017:24019   */\n      0x20\n        /* \"#utility.yul\":24009:24015   */\n      dup3\n        /* \"#utility.yul\":24005:24020   */\n      add\n        /* \"#utility.yul\":23998:24027   */\n      mstore\n        /* \"#utility.yul\":23813:24034   */\n      pop\n      jump\t// out\n        /* \"#utility.yul\":24040:24261   */\n    tag_393:\n        /* \"#utility.yul\":24180:24214   */\n      0x45524332303a20617070726f766520746f20746865207a65726f206164647265\n        /* \"#utility.yul\":24176:24177   */\n      0x00\n        /* \"#utility.yul\":24168:24174   */\n      dup3\n        /* \"#utility.yul\":24164:24178   */\n      add\n        /* \"#utility.yul\":24157:24215   */\n      mstore\n        /* \"#utility.yul\":24249:24253   */\n      0x7373000000000000000000000000000000000000000000000000000000000000\n        /* \"#utility.yul\":24244:24246   */\n      0x20\n        /* \"#utility.yul\":24236:24242   */\n      dup3\n        /* \"#utility.yul\":24232:24247   */\n      add\n        /* \"#utility.yul\":24225:24254   */\n      mstore\n        /* \"#utility.yul\":24040:24261   */\n      pop\n      jump\t// out\n        /* \"#utility.yul\":24267:24495   */\n    tag_398:\n        /* \"#utility.yul\":24407:24441   */\n      0x496e73756666696369656e7420696e70757420616d6f756e74206f6620455243\n        /* \"#utility.yul\":24403:24404   */\n      0x00\n        /* \"#utility.yul\":24395:24401   */\n      dup3\n        /* \"#utility.yul\":24391:24405   */\n      add\n        /* \"#utility.yul\":24384:24442   */\n      mstore\n        /* \"#utility.yul\":24476:24487   */\n      0x323020546f6b656e730000000000000000000000000000000000000000000000\n        /* \"#utility.yul\":24471:24473   */\n      0x20\n        /* \"#utility.yul\":24463:24469   */\n      dup3\n        /* \"#utility.yul\":24459:24474   */\n      add\n        /* \"#utility.yul\":24452:24488   */\n      mstore\n        /* \"#utility.yul\":24267:24495   */\n      pop\n      jump\t// out\n        /* \"#utility.yul\":24501:24680   */\n    tag_403:\n        /* \"#utility.yul\":24641:24672   */\n      0x45524332303a20696e73756666696369656e7420616c6c6f77616e6365000000\n        /* \"#utility.yul\":24637:24638   */\n      0x00\n        /* \"#utility.yul\":24629:24635   */\n      dup3\n        /* \"#utility.yul\":24625:24639   */\n      add\n        /* \"#utility.yul\":24618:24673   */\n      mstore\n        /* \"#utility.yul\":24501:24680   */\n      pop\n      jump\t// out\n        /* \"#utility.yul\":24686:24911   */\n    tag_408:\n        /* \"#utility.yul\":24826:24860   */\n      0x45524332303a207472616e7366657220616d6f756e7420657863656564732062\n        /* \"#utility.yul\":24822:24823   */\n      0x00\n        /* \"#utility.yul\":24814:24820   */\n      dup3\n        /* \"#utility.yul\":24810:24824   */\n      add\n        /* \"#utility.yul\":24803:24861   */\n      mstore\n        /* \"#utility.yul\":24895:24903   */\n      0x616c616e63650000000000000000000000000000000000000000000000000000\n        /* \"#utility.yul\":24890:24892   */\n      0x20\n        /* \"#utility.yul\":24882:24888   */\n      dup3\n        /* \"#utility.yul\":24878:24893   */\n      add\n        /* \"#utility.yul\":24871:24904   */\n      mstore\n        /* \"#utility.yul\":24686:24911   */\n      pop\n      jump\t// out\n        /* \"#utility.yul\":24917:25159   */\n    tag_413:\n        /* \"#utility.yul\":25057:25091   */\n      0x506c6561736520696e70757420612076616c696420616d6f756e74206f66204c\n        /* \"#utility.yul\":25053:25054   */\n      0x00\n        /* \"#utility.yul\":25045:25051   */\n      dup3\n        /* \"#utility.yul\":25041:25055   */\n      add\n        /* \"#utility.yul\":25034:25092   */\n      mstore\n        /* \"#utility.yul\":25126:25151   */\n      0x5020546f6b656e7320746f206275726e2f72656465656d000000000000000000\n        /* \"#utility.yul\":25121:25123   */\n      0x20\n        /* \"#utility.yul\":25113:25119   */\n      dup3\n        /* \"#utility.yul\":25109:25124   */\n      add\n        /* \"#utility.yul\":25102:25152   */\n      mstore\n        /* \"#utility.yul\":24917:25159   */\n      pop\n      jump\t// out\n        /* \"#utility.yul\":25165:25385   */\n    tag_418:\n        /* \"#utility.yul\":25305:25339   */\n      0x45524332303a206275726e2066726f6d20746865207a65726f20616464726573\n        /* \"#utility.yul\":25301:25302   */\n      0x00\n        /* \"#utility.yul\":25293:25299   */\n      dup3\n        /* \"#utility.yul\":25289:25303   */\n      add\n        /* \"#utility.yul\":25282:25340   */\n      mstore\n        /* \"#utility.yul\":25374:25377   */\n      0x7300000000000000000000000000000000000000000000000000000000000000\n        /* \"#utility.yul\":25369:25371   */\n      0x20\n        /* \"#utility.yul\":25361:25367   */\n      dup3\n        /* \"#utility.yul\":25357:25372   */\n      add\n        /* \"#utility.yul\":25350:25378   */\n      mstore\n        /* \"#utility.yul\":25165:25385   */\n      pop\n      jump\t// out\n        /* \"#utility.yul\":25391:25566   */\n    tag_423:\n        /* \"#utility.yul\":25531:25558   */\n      0x45544820616d6f756e742063616e6e6f74206265207a65726f00000000000000\n        /* \"#utility.yul\":25527:25528   */\n      0x00\n        /* \"#utility.yul\":25519:25525   */\n      dup3\n        /* \"#utility.yul\":25515:25529   */\n      add\n        /* \"#utility.yul\":25508:25559   */\n      mstore\n        /* \"#utility.yul\":25391:25566   */\n      pop\n      jump\t// out\n        /* \"#utility.yul\":25572:25796   */\n    tag_428:\n        /* \"#utility.yul\":25712:25746   */\n      0x45524332303a207472616e736665722066726f6d20746865207a65726f206164\n        /* \"#utility.yul\":25708:25709   */\n      0x00\n        /* \"#utility.yul\":25700:25706   */\n      dup3\n        /* \"#utility.yul\":25696:25710   */\n      add\n        /* \"#utility.yul\":25689:25747   */\n      mstore\n        /* \"#utility.yul\":25781:25788   */\n      0x6472657373000000000000000000000000000000000000000000000000000000\n        /* \"#utility.yul\":25776:25778   */\n      0x20\n        /* \"#utility.yul\":25768:25774   */\n      dup3\n        /* \"#utility.yul\":25764:25779   */\n      add\n        /* \"#utility.yul\":25757:25789   */\n      mstore\n        /* \"#utility.yul\":25572:25796   */\n      pop\n      jump\t// out\n        /* \"#utility.yul\":25802:26026   */\n    tag_433:\n        /* \"#utility.yul\":25942:25976   */\n      0x5472616e73616374696f6e206f662045746865722077617320756e7375636365\n        /* \"#utility.yul\":25938:25939   */\n      0x00\n        /* \"#utility.yul\":25930:25936   */\n      dup3\n        /* \"#utility.yul\":25926:25940   */\n      add\n        /* \"#utility.yul\":25919:25977   */\n      mstore\n        /* \"#utility.yul\":26011:26018   */\n      0x737366756c000000000000000000000000000000000000000000000000000000\n        /* \"#utility.yul\":26006:26008   */\n      0x20\n        /* \"#utility.yul\":25998:26004   */\n      dup3\n        /* \"#utility.yul\":25994:26009   */\n      add\n        /* \"#utility.yul\":25987:26019   */\n      mstore\n        /* \"#utility.yul\":25802:26026   */\n      pop\n      jump\t// out\n        /* \"#utility.yul\":26032:26146   */\n    tag_439:\n      pop\n      jump\t// out\n        /* \"#utility.yul\":26152:26323   */\n    tag_444:\n        /* \"#utility.yul\":26292:26315   */\n      0x546865726520617265206e6f2072657365727665730000000000000000000000\n        /* \"#utility.yul\":26288:26289   */\n      0x00\n        /* \"#utility.yul\":26280:26286   */\n      dup3\n        /* \"#utility.yul\":26276:26290   */\n      add\n        /* \"#utility.yul\":26269:26316   */\n      mstore\n        /* \"#utility.yul\":26152:26323   */\n      pop\n      jump\t// out\n        /* \"#utility.yul\":26329:26552   */\n    tag_449:\n        /* \"#utility.yul\":26469:26503   */\n      0x45524332303a20617070726f76652066726f6d20746865207a65726f20616464\n        /* \"#utility.yul\":26465:26466   */\n      0x00\n        /* \"#utility.yul\":26457:26463   */\n      dup3\n        /* \"#utility.yul\":26453:26467   */\n      add\n        /* \"#utility.yul\":26446:26504   */\n      mstore\n        /* \"#utility.yul\":26538:26544   */\n      0x7265737300000000000000000000000000000000000000000000000000000000\n        /* \"#utility.yul\":26533:26535   */\n      0x20\n        /* \"#utility.yul\":26525:26531   */\n      dup3\n        /* \"#utility.yul\":26521:26536   */\n      add\n        /* \"#utility.yul\":26514:26545   */\n      mstore\n        /* \"#utility.yul\":26329:26552   */\n      pop\n      jump\t// out\n        /* \"#utility.yul\":26558:26782   */\n    tag_454:\n        /* \"#utility.yul\":26698:26732   */\n      0x45524332303a2064656372656173656420616c6c6f77616e63652062656c6f77\n        /* \"#utility.yul\":26694:26695   */\n      0x00\n        /* \"#utility.yul\":26686:26692   */\n      dup3\n        /* \"#utility.yul\":26682:26696   */\n      add\n        /* \"#utility.yul\":26675:26733   */\n      mstore\n        /* \"#utility.yul\":26767:26774   */\n      0x207a65726f000000000000000000000000000000000000000000000000000000\n        /* \"#utility.yul\":26762:26764   */\n      0x20\n        /* \"#utility.yul\":26754:26760   */\n      dup3\n        /* \"#utility.yul\":26750:26765   */\n      add\n        /* \"#utility.yul\":26743:26775   */\n      mstore\n        /* \"#utility.yul\":26558:26782   */\n      pop\n      jump\t// out\n        /* \"#utility.yul\":26788:26969   */\n    tag_459:\n        /* \"#utility.yul\":26928:26961   */\n      0x45524332303a206d696e7420746f20746865207a65726f206164647265737300\n        /* \"#utility.yul\":26924:26925   */\n      0x00\n        /* \"#utility.yul\":26916:26922   */\n      dup3\n        /* \"#utility.yul\":26912:26926   */\n      add\n        /* \"#utility.yul\":26905:26962   */\n      mstore\n        /* \"#utility.yul\":26788:26969   */\n      pop\n      jump\t// out\n        /* \"#utility.yul\":26975:27097   */\n    tag_311:\n        /* \"#utility.yul\":27048:27072   */\n      tag_588\n        /* \"#utility.yul\":27066:27071   */\n      dup2\n        /* \"#utility.yul\":27048:27072   */\n      tag_364\n      jump\t// in\n    tag_588:\n        /* \"#utility.yul\":27041:27046   */\n      dup2\n        /* \"#utility.yul\":27038:27073   */\n      eq\n        /* \"#utility.yul\":27028:27091   */\n      tag_589\n      jumpi\n        /* \"#utility.yul\":27087:27088   */\n      0x00\n        /* \"#utility.yul\":27084:27085   */\n      dup1\n        /* \"#utility.yul\":27077:27089   */\n      revert\n        /* \"#utility.yul\":27028:27091   */\n    tag_589:\n        /* \"#utility.yul\":26975:27097   */\n      pop\n      jump\t// out\n        /* \"#utility.yul\":27103:27219   */\n    tag_315:\n        /* \"#utility.yul\":27173:27194   */\n      tag_591\n        /* \"#utility.yul\":27188:27193   */\n      dup2\n        /* \"#utility.yul\":27173:27194   */\n      tag_368\n      jump\t// in\n    tag_591:\n        /* \"#utility.yul\":27166:27171   */\n      dup2\n        /* \"#utility.yul\":27163:27195   */\n      eq\n        /* \"#utility.yul\":27153:27213   */\n      tag_592\n      jumpi\n        /* \"#utility.yul\":27209:27210   */\n      0x00\n        /* \"#utility.yul\":27206:27207   */\n      dup1\n        /* \"#utility.yul\":27199:27211   */\n      revert\n        /* \"#utility.yul\":27153:27213   */\n    tag_592:\n        /* \"#utility.yul\":27103:27219   */\n      pop\n      jump\t// out\n        /* \"#utility.yul\":27225:27347   */\n    tag_319:\n        /* \"#utility.yul\":27298:27322   */\n      tag_594\n        /* \"#utility.yul\":27316:27321   */\n      dup2\n        /* \"#utility.yul\":27298:27322   */\n      tag_463\n      jump\t// in\n    tag_594:\n        /* \"#utility.yul\":27291:27296   */\n      dup2\n        /* \"#utility.yul\":27288:27323   */\n      eq\n        /* \"#utility.yul\":27278:27341   */\n      tag_595\n      jumpi\n        /* \"#utility.yul\":27337:27338   */\n      0x00\n        /* \"#utility.yul\":27334:27335   */\n      dup1\n        /* \"#utility.yul\":27327:27339   */\n      revert\n        /* \"#utility.yul\":27278:27341   */\n    tag_595:\n        /* \"#utility.yul\":27225:27347   */\n      pop\n      jump\t// out\n\n    auxdata: 0xa264697066735822122065f005ad057d42f9fe5d27ef6badf1a9a8faa490d8a2c116a599aef75d01c71d64736f6c63430008070033\n}\n",
				"bytecode": {
					"linkReferences": {},
					"object": "60806040523480156200001157600080fd5b5060405162002a7c38038062002a7c83398181016040528101906200003791906200029a565b6040518060400160405280600781526020017f53776170205631000000000000000000000000000000000000000000000000008152506040518060400160405280600781526020017f537761702d5631000000000000000000000000000000000000000000000000008152508160039080519060200190620000bb929190620001d3565b508060049080519060200190620000d4929190620001d3565b505050600073ffffffffffffffffffffffffffffffffffffffff168173ffffffffffffffffffffffffffffffffffffffff1614156200014a576040517f08c379a00000000000000000000000000000000000000000000000000000000081526004016200014190620002f3565b60405180910390fd5b80600560006101000a81548173ffffffffffffffffffffffffffffffffffffffff021916908373ffffffffffffffffffffffffffffffffffffffff16021790555033600660006101000a81548173ffffffffffffffffffffffffffffffffffffffff021916908373ffffffffffffffffffffffffffffffffffffffff1602179055505062000407565b828054620001e1906200035a565b90600052602060002090601f01602090048101928262000205576000855562000251565b82601f106200022057805160ff191683800117855562000251565b8280016001018555821562000251579182015b828111156200025057825182559160200191906001019062000233565b5b50905062000260919062000264565b5090565b5b808211156200027f57600081600090555060010162000265565b5090565b6000815190506200029481620003ed565b92915050565b600060208284031215620002b357620002b2620003bf565b5b6000620002c38482850162000283565b91505092915050565b6000620002db600f8362000315565b9150620002e882620003c4565b602082019050919050565b600060208201905081810360008301526200030e81620002cc565b9050919050565b600082825260208201905092915050565b600062000333826200033a565b9050919050565b600073ffffffffffffffffffffffffffffffffffffffff82169050919050565b600060028204905060018216806200037357607f821691505b602082108114156200038a576200038962000390565b5b50919050565b7f4e487b7100000000000000000000000000000000000000000000000000000000600052602260045260246000fd5b600080fd5b7f496e76616c696420616464726573730000000000000000000000000000000000600082015250565b620003f88162000326565b81146200040457600080fd5b50565b61266580620004176000396000f3fe6080604052600436106101145760003560e01c806351c6590a116100a05780639c8f9f23116100645780639c8f9f23146103d65780639d76ea5814610414578063a457c2d71461043f578063a9059cbb1461047c578063dd62ed3e146104b957610114565b806351c6590a146102f75780636e9e81161461032757806370a082311461034357806395d89b4114610380578063966dae0e146103ab57610114565b806318160ddd116100e757806318160ddd146101ea57806323b872dd146102155780632c0c60a414610252578063313ce5671461028f57806339509351146102ba57610114565b806306fdde03146101195780630902f1ac14610144578063095ea7b3146101705780630f8070b4146101ad575b600080fd5b34801561012557600080fd5b5061012e6104f6565b60405161013b9190611ce4565b60405180910390f35b34801561015057600080fd5b50610159610588565b604051610167929190611f01565b60405180910390f35b34801561017c57600080fd5b506101976004803603810190610192919061188d565b61063f565b6040516101a49190611cc9565b60405180910390f35b3480156101b957600080fd5b506101d460048036038101906101cf91906118fa565b610662565b6040516101e19190611ee6565b60405180910390f35b3480156101f657600080fd5b506101ff6106c9565b60405161020c9190611ee6565b60405180910390f35b34801561022157600080fd5b5061023c6004803603810190610237919061183a565b6106d3565b6040516102499190611cc9565b60405180910390f35b34801561025e57600080fd5b50610279600480360381019061027491906118fa565b610702565b6040516102869190611ee6565b60405180910390f35b34801561029b57600080fd5b506102a4610769565b6040516102b19190611f2a565b60405180910390f35b3480156102c657600080fd5b506102e160048036038101906102dc919061188d565b610772565b6040516102ee9190611cc9565b60405180910390f35b610311600480360381019061030c91906118fa565b6107a9565b60405161031e9190611ee6565b60405180910390f35b610341600480360381019061033c9190611954565b610a1f565b005b34801561034f57600080fd5b5061036a600480360381019061036591906117cd565b610a23565b6040516103779190611ee6565b60405180910390f35b34801561038c57600080fd5b50610395610a6b565b6040516103a29190611ce4565b60405180910390f35b3480156103b757600080fd5b506103c0610afd565b6040516103cd9190611c4e565b60405180910390f35b3480156103e257600080fd5b506103fd60048036038101906103f891906118fa565b610b23565b60405161040b929190611f01565b60405180910390f35b34801561042057600080fd5b50610429610d6b565b6040516104369190611c4e565b60405180910390f35b34801561044b57600080fd5b506104666004803603810190610461919061188d565b610d91565b6040516104739190611cc9565b60405180910390f35b34801561048857600080fd5b506104a3600480360381019061049e919061188d565b610e08565b6040516104b09190611cc9565b60405180910390f35b3480156104c557600080fd5b506104e060048036038101906104db91906117fa565b610e2b565b6040516104ed9190611ee6565b60405180910390f35b60606003805461050590612109565b80601f016020809104026020016040519081016040528092919081815260200182805461053190612109565b801561057e5780601f106105535761010080835404028352916020019161057e565b820191906000526020600020905b81548152906001019060200180831161056157829003601f168201915b5050505050905090565b600080600560009054906101000a900473ffffffffffffffffffffffffffffffffffffffff1673ffffffffffffffffffffffffffffffffffffffff166370a08231306040518263ffffffff1660e01b81526004016105e69190611c4e565b60206040518083038186803b1580156105fe57600080fd5b505afa158015610612573d6000803e3d6000fd5b505050506040513d601f19601f820116820180604052508101906106369190611927565b91504790509091565b60008061064a610eb2565b9050610657818585610eba565b600191505092915050565b60008082116106a6576040517f08c379a000000000000000000000000000000000000000000000000000000000815260040161069d90611e06565b60405180910390fd5b6000806106b1610588565b915091506106c0848284611085565b92505050919050565b6000600254905090565b6000806106de610eb2565b90506106eb85828561112b565b6106f68585856111b7565b60019150509392505050565b6000808111610746576040517f08c379a000000000000000000000000000000000000000000000000000000000815260040161073d90611e06565b60405180910390fd5b600080610751610588565b91509150610760848383611085565b92505050919050565b60006012905090565b60008061077d610eb2565b905061079e81858561078f8589610e2b565b6107999190611f6c565b610eba565b600191505092915050565b60008060006107b6610588565b915091506000821415610883576000600560009054906101000a900473ffffffffffffffffffffffffffffffffffffffff1690508073ffffffffffffffffffffffffffffffffffffffff166323b872dd3330886040518463ffffffff1660e01b815260040161082793929190611c69565b602060405180830381600087803b15801561084157600080fd5b505af1158015610855573d6000803e3d6000fd5b505050506040513d601f19601f8201168201806040525081019061087991906118cd565b50819350506109c9565b348161088f919061204d565b905060008183346108a09190611ff3565b6108aa9190611fc2565b9050808510156108ef576040517f08c379a00000000000000000000000000000000000000000000000000000000081526004016108e690611d66565b60405180910390fd5b6000600560009054906101000a900473ffffffffffffffffffffffffffffffffffffffff1690508073ffffffffffffffffffffffffffffffffffffffff166323b872dd3330896040518463ffffffff1660e01b815260040161095393929190611c69565b602060405180830381600087803b15801561096d57600080fd5b505af1158015610981573d6000803e3d6000fd5b505050506040513d601f19601f820116820180604052508101906109a591906118cd565b5082346109b06106c9565b6109ba9190611ff3565b6109c49190611fc2565b945050505b6109d33384611438565b83343373ffffffffffffffffffffffffffffffffffffffff167f06239653922ac7bea6aa2b19dc486b9361821d37712eb796adfd38d81de278ca60405160405180910390a45050919050565b5050565b60008060008373ffffffffffffffffffffffffffffffffffffffff1673ffffffffffffffffffffffffffffffffffffffff168152602001908152602001600020549050919050565b606060048054610a7a90612109565b80601f0160208091040260200160405190810160405280929190818152602001828054610aa690612109565b8015610af35780601f10610ac857610100808354040283529160200191610af3565b820191906000526020600020905b815481529060010190602001808311610ad657829003601f168201915b5050505050905090565b600660009054906101000a900473ffffffffffffffffffffffffffffffffffffffff1681565b60008060008311610b69576040517f08c379a0000000000000000000000000000000000000000000000000000000008152600401610b6090611dc6565b60405180910390fd5b600080610b74610588565b91509150610b806106c9565b8582610b8c9190611ff3565b610b969190611fc2565b9350610ba06106c9565b8583610bac9190611ff3565b610bb69190611fc2565b9250610bc23386611598565b60003373ffffffffffffffffffffffffffffffffffffffff1685604051610be890611c39565b60006040518083038185875af1925050503d8060008114610c25576040519150601f19603f3d011682016040523d82523d6000602084013e610c2a565b606091505b5050905080610c6e576040517f08c379a0000000000000000000000000000000000000000000000000000000008152600401610c6590611e46565b60405180910390fd5b600560009054906101000a900473ffffffffffffffffffffffffffffffffffffffff1673ffffffffffffffffffffffffffffffffffffffff1663a9059cbb33866040518363ffffffff1660e01b8152600401610ccb929190611ca0565b602060405180830381600087803b158015610ce557600080fd5b505af1158015610cf9573d6000803e3d6000fd5b505050506040513d601f19601f82011682018060405250810190610d1d91906118cd565b5083853373ffffffffffffffffffffffffffffffffffffffff167f0fbf06c058b90cb038a618f8c2acbf6145f8b3570fd1fa56abb8f0f3f05b36e860405160405180910390a4505050915091565b600560009054906101000a900473ffffffffffffffffffffffffffffffffffffffff1681565b600080610d9c610eb2565b90506000610daa8286610e2b565b905083811015610def576040517f08c379a0000000000000000000000000000000000000000000000000000000008152600401610de690611ea6565b60405180910390fd5b610dfc8286868403610eba565b60019250505092915050565b600080610e13610eb2565b9050610e208185856111b7565b600191505092915050565b6000600160008473ffffffffffffffffffffffffffffffffffffffff1673ffffffffffffffffffffffffffffffffffffffff16815260200190815260200160002060008373ffffffffffffffffffffffffffffffffffffffff1673ffffffffffffffffffffffffffffffffffffffff16815260200190815260200160002054905092915050565b600033905090565b600073ffffffffffffffffffffffffffffffffffffffff168373ffffffffffffffffffffffffffffffffffffffff161415610f2a576040517f08c379a0000000000000000000000000000000000000000000000000000000008152600401610f2190611e86565b60405180910390fd5b600073ffffffffffffffffffffffffffffffffffffffff168273ffffffffffffffffffffffffffffffffffffffff161415610f9a576040517f08c379a0000000000000000000000000000000000000000000000000000000008152600401610f9190611d46565b60405180910390fd5b80600160008573ffffffffffffffffffffffffffffffffffffffff1673ffffffffffffffffffffffffffffffffffffffff16815260200190815260200160002060008473ffffffffffffffffffffffffffffffffffffffff1673ffffffffffffffffffffffffffffffffffffffff168152602001908152602001600020819055508173ffffffffffffffffffffffffffffffffffffffff168373ffffffffffffffffffffffffffffffffffffffff167f8c5be1e5ebec7d5bd14f71427d1e84f3dd0314c0f7b2291e5b200ac8c7c3b925836040516110789190611ee6565b60405180910390a3505050565b600080831180156110965750600082115b6110d5576040517f08c379a00000000000000000000000000000000000000000000000000000000081526004016110cc90611e66565b60405180910390fd5b6000806103e86110e5919061204d565b856110f09190611ff3565b905080846103e86111019190611ff3565b61110b9190611f6c565b83826111179190611ff3565b6111219190611fc2565b9150509392505050565b60006111378484610e2b565b90507fffffffffffffffffffffffffffffffffffffffffffffffffffffffffffffffff81146111b157818110156111a3576040517f08c379a000000000000000000000000000000000000000000000000000000000815260040161119a90611d86565b60405180910390fd5b6111b08484848403610eba565b5b50505050565b600073ffffffffffffffffffffffffffffffffffffffff168373ffffffffffffffffffffffffffffffffffffffff161415611227576040517f08c379a000000000000000000000000000000000000000000000000000000000815260040161121e90611e26565b60405180910390fd5b600073ffffffffffffffffffffffffffffffffffffffff168273ffffffffffffffffffffffffffffffffffffffff161415611297576040517f08c379a000000000000000000000000000000000000000000000000000000000815260040161128e90611d06565b60405180910390fd5b6112a283838361176f565b60008060008573ffffffffffffffffffffffffffffffffffffffff1673ffffffffffffffffffffffffffffffffffffffff16815260200190815260200160002054905081811015611328576040517f08c379a000000000000000000000000000000000000000000000000000000000815260040161131f90611da6565b60405180910390fd5b8181036000808673ffffffffffffffffffffffffffffffffffffffff1673ffffffffffffffffffffffffffffffffffffffff16815260200190815260200160002081905550816000808573ffffffffffffffffffffffffffffffffffffffff1673ffffffffffffffffffffffffffffffffffffffff16815260200190815260200160002060008282546113bb9190611f6c565b925050819055508273ffffffffffffffffffffffffffffffffffffffff168473ffffffffffffffffffffffffffffffffffffffff167fddf252ad1be2c89b69c2b068fc378daa952ba7f163c4a11628f55a4df523b3ef8460405161141f9190611ee6565b60405180910390a3611432848484611774565b50505050565b600073ffffffffffffffffffffffffffffffffffffffff168273ffffffffffffffffffffffffffffffffffffffff1614156114a8576040517f08c379a000000000000000000000000000000000000000000000000000000000815260040161149f90611ec6565b60405180910390fd5b6114b46000838361176f565b80600260008282546114c69190611f6c565b92505081905550806000808473ffffffffffffffffffffffffffffffffffffffff1673ffffffffffffffffffffffffffffffffffffffff168152602001908152602001600020600082825461151b9190611f6c565b925050819055508173ffffffffffffffffffffffffffffffffffffffff16600073ffffffffffffffffffffffffffffffffffffffff167fddf252ad1be2c89b69c2b068fc378daa952ba7f163c4a11628f55a4df523b3ef836040516115809190611ee6565b60405180910390a361159460008383611774565b5050565b600073ffffffffffffffffffffffffffffffffffffffff168273ffffffffffffffffffffffffffffffffffffffff161415611608576040517f08c379a00000000000000000000000000000000000000000000000000000000081526004016115ff90611de6565b60405180910390fd5b6116148260008361176f565b60008060008473ffffffffffffffffffffffffffffffffffffffff1673ffffffffffffffffffffffffffffffffffffffff1681526020019081526020016000205490508181101561169a576040517f08c379a000000000000000000000000000000000000000000000000000000000815260040161169190611d26565b60405180910390fd5b8181036000808573ffffffffffffffffffffffffffffffffffffffff1673ffffffffffffffffffffffffffffffffffffffff1681526020019081526020016000208190555081600260008282546116f1919061204d565b92505081905550600073ffffffffffffffffffffffffffffffffffffffff168373ffffffffffffffffffffffffffffffffffffffff167fddf252ad1be2c89b69c2b068fc378daa952ba7f163c4a11628f55a4df523b3ef846040516117569190611ee6565b60405180910390a361176a83600084611774565b505050565b505050565b505050565b600081359050611788816125ea565b92915050565b60008151905061179d81612601565b92915050565b6000813590506117b281612618565b92915050565b6000815190506117c781612618565b92915050565b6000602082840312156117e3576117e26121c8565b5b60006117f184828501611779565b91505092915050565b60008060408385031215611811576118106121c8565b5b600061181f85828601611779565b925050602061183085828601611779565b9150509250929050565b600080600060608486031215611853576118526121c8565b5b600061186186828701611779565b935050602061187286828701611779565b9250506040611883868287016117a3565b9150509250925092565b600080604083850312156118a4576118a36121c8565b5b60006118b285828601611779565b92505060206118c3858286016117a3565b9150509250929050565b6000602082840312156118e3576118e26121c8565b5b60006118f18482850161178e565b91505092915050565b6000602082840312156119105761190f6121c8565b5b600061191e848285016117a3565b91505092915050565b60006020828403121561193d5761193c6121c8565b5b600061194b848285016117b8565b91505092915050565b6000806040838503121561196b5761196a6121c8565b5b6000611979858286016117a3565b925050602061198a85828601611779565b9150509250929050565b61199d81612081565b82525050565b6119ac81612093565b82525050565b60006119bd82611f45565b6119c78185611f5b565b93506119d78185602086016120d6565b6119e0816121cd565b840191505092915050565b60006119f8602383611f5b565b9150611a03826121de565b604082019050919050565b6000611a1b602283611f5b565b9150611a268261222d565b604082019050919050565b6000611a3e602283611f5b565b9150611a498261227c565b604082019050919050565b6000611a61602983611f5b565b9150611a6c826122cb565b604082019050919050565b6000611a84601d83611f5b565b9150611a8f8261231a565b602082019050919050565b6000611aa7602683611f5b565b9150611ab282612343565b604082019050919050565b6000611aca603783611f5b565b9150611ad582612392565b604082019050919050565b6000611aed602183611f5b565b9150611af8826123e1565b604082019050919050565b6000611b10601983611f5b565b9150611b1b82612430565b602082019050919050565b6000611b33602583611f5b565b9150611b3e82612459565b604082019050919050565b6000611b56602583611f5b565b9150611b61826124a8565b604082019050919050565b6000611b79600083611f50565b9150611b84826124f7565b600082019050919050565b6000611b9c601583611f5b565b9150611ba7826124fa565b602082019050919050565b6000611bbf602483611f5b565b9150611bca82612523565b604082019050919050565b6000611be2602583611f5b565b9150611bed82612572565b604082019050919050565b6000611c05601f83611f5b565b9150611c10826125c1565b602082019050919050565b611c24816120bf565b82525050565b611c33816120c9565b82525050565b6000611c4482611b6c565b9150819050919050565b6000602082019050611c636000830184611994565b92915050565b6000606082019050611c7e6000830186611994565b611c8b6020830185611994565b611c986040830184611c1b565b949350505050565b6000604082019050611cb56000830185611994565b611cc26020830184611c1b565b9392505050565b6000602082019050611cde60008301846119a3565b92915050565b60006020820190508181036000830152611cfe81846119b2565b905092915050565b60006020820190508181036000830152611d1f816119eb565b9050919050565b60006020820190508181036000830152611d3f81611a0e565b9050919050565b60006020820190508181036000830152611d5f81611a31565b9050919050565b60006020820190508181036000830152611d7f81611a54565b9050919050565b60006020820190508181036000830152611d9f81611a77565b9050919050565b60006020820190508181036000830152611dbf81611a9a565b9050919050565b60006020820190508181036000830152611ddf81611abd565b9050919050565b60006020820190508181036000830152611dff81611ae0565b9050919050565b60006020820190508181036000830152611e1f81611b03565b9050919050565b60006020820190508181036000830152611e3f81611b26565b9050919050565b60006020820190508181036000830152611e5f81611b49565b9050919050565b60006020820190508181036000830152611e7f81611b8f565b9050919050565b60006020820190508181036000830152611e9f81611bb2565b9050919050565b60006020820190508181036000830152611ebf81611bd5565b9050919050565b60006020820190508181036000830152611edf81611bf8565b9050919050565b6000602082019050611efb6000830184611c1b565b92915050565b6000604082019050611f166000830185611c1b565b611f236020830184611c1b565b9392505050565b6000602082019050611f3f6000830184611c2a565b92915050565b600081519050919050565b600081905092915050565b600082825260208201905092915050565b6000611f77826120bf565b9150611f82836120bf565b9250827fffffffffffffffffffffffffffffffffffffffffffffffffffffffffffffffff03821115611fb757611fb661213b565b5b828201905092915050565b6000611fcd826120bf565b9150611fd8836120bf565b925082611fe857611fe761216a565b5b828204905092915050565b6000611ffe826120bf565b9150612009836120bf565b9250817fffffffffffffffffffffffffffffffffffffffffffffffffffffffffffffffff04831182151516156120425761204161213b565b5b828202905092915050565b6000612058826120bf565b9150612063836120bf565b9250828210156120765761207561213b565b5b828203905092915050565b600061208c8261209f565b9050919050565b60008115159050919050565b600073ffffffffffffffffffffffffffffffffffffffff82169050919050565b6000819050919050565b600060ff82169050919050565b60005b838110156120f45780820151818401526020810190506120d9565b83811115612103576000848401525b50505050565b6000600282049050600182168061212157607f821691505b6020821081141561213557612134612199565b5b50919050565b7f4e487b7100000000000000000000000000000000000000000000000000000000600052601160045260246000fd5b7f4e487b7100000000000000000000000000000000000000000000000000000000600052601260045260246000fd5b7f4e487b7100000000000000000000000000000000000000000000000000000000600052602260045260246000fd5b600080fd5b6000601f19601f8301169050919050565b7f45524332303a207472616e7366657220746f20746865207a65726f206164647260008201527f6573730000000000000000000000000000000000000000000000000000000000602082015250565b7f45524332303a206275726e20616d6f756e7420657863656564732062616c616e60008201527f6365000000000000000000000000000000000000000000000000000000000000602082015250565b7f45524332303a20617070726f766520746f20746865207a65726f20616464726560008201527f7373000000000000000000000000000000000000000000000000000000000000602082015250565b7f496e73756666696369656e7420696e70757420616d6f756e74206f662045524360008201527f323020546f6b656e730000000000000000000000000000000000000000000000602082015250565b7f45524332303a20696e73756666696369656e7420616c6c6f77616e6365000000600082015250565b7f45524332303a207472616e7366657220616d6f756e742065786365656473206260008201527f616c616e63650000000000000000000000000000000000000000000000000000602082015250565b7f506c6561736520696e70757420612076616c696420616d6f756e74206f66204c60008201527f5020546f6b656e7320746f206275726e2f72656465656d000000000000000000602082015250565b7f45524332303a206275726e2066726f6d20746865207a65726f2061646472657360008201527f7300000000000000000000000000000000000000000000000000000000000000602082015250565b7f45544820616d6f756e742063616e6e6f74206265207a65726f00000000000000600082015250565b7f45524332303a207472616e736665722066726f6d20746865207a65726f20616460008201527f6472657373000000000000000000000000000000000000000000000000000000602082015250565b7f5472616e73616374696f6e206f662045746865722077617320756e737563636560008201527f737366756c000000000000000000000000000000000000000000000000000000602082015250565b50565b7f546865726520617265206e6f2072657365727665730000000000000000000000600082015250565b7f45524332303a20617070726f76652066726f6d20746865207a65726f2061646460008201527f7265737300000000000000000000000000000000000000000000000000000000602082015250565b7f45524332303a2064656372656173656420616c6c6f77616e63652062656c6f7760008201527f207a65726f000000000000000000000000000000000000000000000000000000602082015250565b7f45524332303a206d696e7420746f20746865207a65726f206164647265737300600082015250565b6125f381612081565b81146125fe57600080fd5b50565b61260a81612093565b811461261557600080fd5b50565b612621816120bf565b811461262c57600080fd5b5056fea264697066735822122065f005ad057d42f9fe5d27ef6badf1a9a8faa490d8a2c116a599aef75d01c71d64736f6c63430008070033",
					"opcodes": "PUSH1 0x80 PUSH1 0x40 MSTORE CALLVALUE DUP1 ISZERO PUSH3 0x11 JUMPI PUSH1 0x0 DUP1 REVERT JUMPDEST POP PUSH1 0x40 MLOAD PUSH3 0x2A7C CODESIZE SUB DUP1 PUSH3 0x2A7C DUP4 CODECOPY DUP2 DUP2 ADD PUSH1 0x40 MSTORE DUP2 ADD SWAP1 PUSH3 0x37 SWAP2 SWAP1 PUSH3 0x29A JUMP JUMPDEST PUSH1 0x40 MLOAD DUP1 PUSH1 0x40 ADD PUSH1 0x40 MSTORE DUP1 PUSH1 0x7 DUP2 MSTORE PUSH1 0x20 ADD PUSH32 0x5377617020563100000000000000000000000000000000000000000000000000 DUP2 MSTORE POP PUSH1 0x40 MLOAD DUP1 PUSH1 0x40 ADD PUSH1 0x40 MSTORE DUP1 PUSH1 0x7 DUP2 MSTORE PUSH1 0x20 ADD PUSH32 0x537761702D563100000000000000000000000000000000000000000000000000 DUP2 MSTORE POP DUP2 PUSH1 0x3 SWAP1 DUP1 MLOAD SWAP1 PUSH1 0x20 ADD SWAP1 PUSH3 0xBB SWAP3 SWAP2 SWAP1 PUSH3 0x1D3 JUMP JUMPDEST POP DUP1 PUSH1 0x4 SWAP1 DUP1 MLOAD SWAP1 PUSH1 0x20 ADD SWAP1 PUSH3 0xD4 SWAP3 SWAP2 SWAP1 PUSH3 0x1D3 JUMP JUMPDEST POP POP POP PUSH1 0x0 PUSH20 0xFFFFFFFFFFFFFFFFFFFFFFFFFFFFFFFFFFFFFFFF AND DUP2 PUSH20 0xFFFFFFFFFFFFFFFFFFFFFFFFFFFFFFFFFFFFFFFF AND EQ ISZERO PUSH3 0x14A JUMPI PUSH1 0x40 MLOAD PUSH32 0x8C379A000000000000000000000000000000000000000000000000000000000 DUP2 MSTORE PUSH1 0x4 ADD PUSH3 0x141 SWAP1 PUSH3 0x2F3 JUMP JUMPDEST PUSH1 0x40 MLOAD DUP1 SWAP2 SUB SWAP1 REVERT JUMPDEST DUP1 PUSH1 0x5 PUSH1 0x0 PUSH2 0x100 EXP DUP2 SLOAD DUP2 PUSH20 0xFFFFFFFFFFFFFFFFFFFFFFFFFFFFFFFFFFFFFFFF MUL NOT AND SWAP1 DUP4 PUSH20 0xFFFFFFFFFFFFFFFFFFFFFFFFFFFFFFFFFFFFFFFF AND MUL OR SWAP1 SSTORE POP CALLER PUSH1 0x6 PUSH1 0x0 PUSH2 0x100 EXP DUP2 SLOAD DUP2 PUSH20 0xFFFFFFFFFFFFFFFFFFFFFFFFFFFFFFFFFFFFFFFF MUL NOT AND SWAP1 DUP4 PUSH20 0xFFFFFFFFFFFFFFFFFFFFFFFFFFFFFFFFFFFFFFFF AND MUL OR SWAP1 SSTORE POP POP PUSH3 0x407 JUMP JUMPDEST DUP3 DUP1 SLOAD PUSH3 0x1E1 SWAP1 PUSH3 0x35A JUMP JUMPDEST SWAP1 PUSH1 0x0 MSTORE PUSH1 0x20 PUSH1 0x0 KECCAK256 SWAP1 PUSH1 0x1F ADD PUSH1 0x20 SWAP1 DIV DUP2 ADD SWAP3 DUP3 PUSH3 0x205 JUMPI PUSH1 0x0 DUP6 SSTORE PUSH3 0x251 JUMP JUMPDEST DUP3 PUSH1 0x1F LT PUSH3 0x220 JUMPI DUP1 MLOAD PUSH1 0xFF NOT AND DUP4 DUP1 ADD OR DUP6 SSTORE PUSH3 0x251 JUMP JUMPDEST DUP3 DUP1 ADD PUSH1 0x1 ADD DUP6 SSTORE DUP3 ISZERO PUSH3 0x251 JUMPI SWAP2 DUP3 ADD JUMPDEST DUP3 DUP2 GT ISZERO PUSH3 0x250 JUMPI DUP3 MLOAD DUP3 SSTORE SWAP2 PUSH1 0x20 ADD SWAP2 SWAP1 PUSH1 0x1 ADD SWAP1 PUSH3 0x233 JUMP JUMPDEST JUMPDEST POP SWAP1 POP PUSH3 0x260 SWAP2 SWAP1 PUSH3 0x264 JUMP JUMPDEST POP SWAP1 JUMP JUMPDEST JUMPDEST DUP1 DUP3 GT ISZERO PUSH3 0x27F JUMPI PUSH1 0x0 DUP2 PUSH1 0x0 SWAP1 SSTORE POP PUSH1 0x1 ADD PUSH3 0x265 JUMP JUMPDEST POP SWAP1 JUMP JUMPDEST PUSH1 0x0 DUP2 MLOAD SWAP1 POP PUSH3 0x294 DUP2 PUSH3 0x3ED JUMP JUMPDEST SWAP3 SWAP2 POP POP JUMP JUMPDEST PUSH1 0x0 PUSH1 0x20 DUP3 DUP5 SUB SLT ISZERO PUSH3 0x2B3 JUMPI PUSH3 0x2B2 PUSH3 0x3BF JUMP JUMPDEST JUMPDEST PUSH1 0x0 PUSH3 0x2C3 DUP5 DUP3 DUP6 ADD PUSH3 0x283 JUMP JUMPDEST SWAP2 POP POP SWAP3 SWAP2 POP POP JUMP JUMPDEST PUSH1 0x0 PUSH3 0x2DB PUSH1 0xF DUP4 PUSH3 0x315 JUMP JUMPDEST SWAP2 POP PUSH3 0x2E8 DUP3 PUSH3 0x3C4 JUMP JUMPDEST PUSH1 0x20 DUP3 ADD SWAP1 POP SWAP2 SWAP1 POP JUMP JUMPDEST PUSH1 0x0 PUSH1 0x20 DUP3 ADD SWAP1 POP DUP2 DUP2 SUB PUSH1 0x0 DUP4 ADD MSTORE PUSH3 0x30E DUP2 PUSH3 0x2CC JUMP JUMPDEST SWAP1 POP SWAP2 SWAP1 POP JUMP JUMPDEST PUSH1 0x0 DUP3 DUP3 MSTORE PUSH1 0x20 DUP3 ADD SWAP1 POP SWAP3 SWAP2 POP POP JUMP JUMPDEST PUSH1 0x0 PUSH3 0x333 DUP3 PUSH3 0x33A JUMP JUMPDEST SWAP1 POP SWAP2 SWAP1 POP JUMP JUMPDEST PUSH1 0x0 PUSH20 0xFFFFFFFFFFFFFFFFFFFFFFFFFFFFFFFFFFFFFFFF DUP3 AND SWAP1 POP SWAP2 SWAP1 POP JUMP JUMPDEST PUSH1 0x0 PUSH1 0x2 DUP3 DIV SWAP1 POP PUSH1 0x1 DUP3 AND DUP1 PUSH3 0x373 JUMPI PUSH1 0x7F DUP3 AND SWAP2 POP JUMPDEST PUSH1 0x20 DUP3 LT DUP2 EQ ISZERO PUSH3 0x38A JUMPI PUSH3 0x389 PUSH3 0x390 JUMP JUMPDEST JUMPDEST POP SWAP2 SWAP1 POP JUMP JUMPDEST PUSH32 0x4E487B7100000000000000000000000000000000000000000000000000000000 PUSH1 0x0 MSTORE PUSH1 0x22 PUSH1 0x4 MSTORE PUSH1 0x24 PUSH1 0x0 REVERT JUMPDEST PUSH1 0x0 DUP1 REVERT JUMPDEST PUSH32 0x496E76616C696420616464726573730000000000000000000000000000000000 PUSH1 0x0 DUP3 ADD MSTORE POP JUMP JUMPDEST PUSH3 0x3F8 DUP2 PUSH3 0x326 JUMP JUMPDEST DUP2 EQ PUSH3 0x404 JUMPI PUSH1 0x0 DUP1 REVERT JUMPDEST POP JUMP JUMPDEST PUSH2 0x2665 DUP1 PUSH3 0x417 PUSH1 0x0 CODECOPY PUSH1 0x0 RETURN INVALID PUSH1 0x80 PUSH1 0x40 MSTORE PUSH1 0x4 CALLDATASIZE LT PUSH2 0x114 JUMPI PUSH1 0x0 CALLDATALOAD PUSH1 0xE0 SHR DUP1 PUSH4 0x51C6590A GT PUSH2 0xA0 JUMPI DUP1 PUSH4 0x9C8F9F23 GT PUSH2 0x64 JUMPI DUP1 PUSH4 0x9C8F9F23 EQ PUSH2 0x3D6 JUMPI DUP1 PUSH4 0x9D76EA58 EQ PUSH2 0x414 JUMPI DUP1 PUSH4 0xA457C2D7 EQ PUSH2 0x43F JUMPI DUP1 PUSH4 0xA9059CBB EQ PUSH2 0x47C JUMPI DUP1 PUSH4 0xDD62ED3E EQ PUSH2 0x4B9 JUMPI PUSH2 0x114 JUMP JUMPDEST DUP1 PUSH4 0x51C6590A EQ PUSH2 0x2F7 JUMPI DUP1 PUSH4 0x6E9E8116 EQ PUSH2 0x327 JUMPI DUP1 PUSH4 0x70A08231 EQ PUSH2 0x343 JUMPI DUP1 PUSH4 0x95D89B41 EQ PUSH2 0x380 JUMPI DUP1 PUSH4 0x966DAE0E EQ PUSH2 0x3AB JUMPI PUSH2 0x114 JUMP JUMPDEST DUP1 PUSH4 0x18160DDD GT PUSH2 0xE7 JUMPI DUP1 PUSH4 0x18160DDD EQ PUSH2 0x1EA JUMPI DUP1 PUSH4 0x23B872DD EQ PUSH2 0x215 JUMPI DUP1 PUSH4 0x2C0C60A4 EQ PUSH2 0x252 JUMPI DUP1 PUSH4 0x313CE567 EQ PUSH2 0x28F JUMPI DUP1 PUSH4 0x39509351 EQ PUSH2 0x2BA JUMPI PUSH2 0x114 JUMP JUMPDEST DUP1 PUSH4 0x6FDDE03 EQ PUSH2 0x119 JUMPI DUP1 PUSH4 0x902F1AC EQ PUSH2 0x144 JUMPI DUP1 PUSH4 0x95EA7B3 EQ PUSH2 0x170 JUMPI DUP1 PUSH4 0xF8070B4 EQ PUSH2 0x1AD JUMPI JUMPDEST PUSH1 0x0 DUP1 REVERT JUMPDEST CALLVALUE DUP1 ISZERO PUSH2 0x125 JUMPI PUSH1 0x0 DUP1 REVERT JUMPDEST POP PUSH2 0x12E PUSH2 0x4F6 JUMP JUMPDEST PUSH1 0x40 MLOAD PUSH2 0x13B SWAP2 SWAP1 PUSH2 0x1CE4 JUMP JUMPDEST PUSH1 0x40 MLOAD DUP1 SWAP2 SUB SWAP1 RETURN JUMPDEST CALLVALUE DUP1 ISZERO PUSH2 0x150 JUMPI PUSH1 0x0 DUP1 REVERT JUMPDEST POP PUSH2 0x159 PUSH2 0x588 JUMP JUMPDEST PUSH1 0x40 MLOAD PUSH2 0x167 SWAP3 SWAP2 SWAP1 PUSH2 0x1F01 JUMP JUMPDEST PUSH1 0x40 MLOAD DUP1 SWAP2 SUB SWAP1 RETURN JUMPDEST CALLVALUE DUP1 ISZERO PUSH2 0x17C JUMPI PUSH1 0x0 DUP1 REVERT JUMPDEST POP PUSH2 0x197 PUSH1 0x4 DUP1 CALLDATASIZE SUB DUP2 ADD SWAP1 PUSH2 0x192 SWAP2 SWAP1 PUSH2 0x188D JUMP JUMPDEST PUSH2 0x63F JUMP JUMPDEST PUSH1 0x40 MLOAD PUSH2 0x1A4 SWAP2 SWAP1 PUSH2 0x1CC9 JUMP JUMPDEST PUSH1 0x40 MLOAD DUP1 SWAP2 SUB SWAP1 RETURN JUMPDEST CALLVALUE DUP1 ISZERO PUSH2 0x1B9 JUMPI PUSH1 0x0 DUP1 REVERT JUMPDEST POP PUSH2 0x1D4 PUSH1 0x4 DUP1 CALLDATASIZE SUB DUP2 ADD SWAP1 PUSH2 0x1CF SWAP2 SWAP1 PUSH2 0x18FA JUMP JUMPDEST PUSH2 0x662 JUMP JUMPDEST PUSH1 0x40 MLOAD PUSH2 0x1E1 SWAP2 SWAP1 PUSH2 0x1EE6 JUMP JUMPDEST PUSH1 0x40 MLOAD DUP1 SWAP2 SUB SWAP1 RETURN JUMPDEST CALLVALUE DUP1 ISZERO PUSH2 0x1F6 JUMPI PUSH1 0x0 DUP1 REVERT JUMPDEST POP PUSH2 0x1FF PUSH2 0x6C9 JUMP JUMPDEST PUSH1 0x40 MLOAD PUSH2 0x20C SWAP2 SWAP1 PUSH2 0x1EE6 JUMP JUMPDEST PUSH1 0x40 MLOAD DUP1 SWAP2 SUB SWAP1 RETURN JUMPDEST CALLVALUE DUP1 ISZERO PUSH2 0x221 JUMPI PUSH1 0x0 DUP1 REVERT JUMPDEST POP PUSH2 0x23C PUSH1 0x4 DUP1 CALLDATASIZE SUB DUP2 ADD SWAP1 PUSH2 0x237 SWAP2 SWAP1 PUSH2 0x183A JUMP JUMPDEST PUSH2 0x6D3 JUMP JUMPDEST PUSH1 0x40 MLOAD PUSH2 0x249 SWAP2 SWAP1 PUSH2 0x1CC9 JUMP JUMPDEST PUSH1 0x40 MLOAD DUP1 SWAP2 SUB SWAP1 RETURN JUMPDEST CALLVALUE DUP1 ISZERO PUSH2 0x25E JUMPI PUSH1 0x0 DUP1 REVERT JUMPDEST POP PUSH2 0x279 PUSH1 0x4 DUP1 CALLDATASIZE SUB DUP2 ADD SWAP1 PUSH2 0x274 SWAP2 SWAP1 PUSH2 0x18FA JUMP JUMPDEST PUSH2 0x702 JUMP JUMPDEST PUSH1 0x40 MLOAD PUSH2 0x286 SWAP2 SWAP1 PUSH2 0x1EE6 JUMP JUMPDEST PUSH1 0x40 MLOAD DUP1 SWAP2 SUB SWAP1 RETURN JUMPDEST CALLVALUE DUP1 ISZERO PUSH2 0x29B JUMPI PUSH1 0x0 DUP1 REVERT JUMPDEST POP PUSH2 0x2A4 PUSH2 0x769 JUMP JUMPDEST PUSH1 0x40 MLOAD PUSH2 0x2B1 SWAP2 SWAP1 PUSH2 0x1F2A JUMP JUMPDEST PUSH1 0x40 MLOAD DUP1 SWAP2 SUB SWAP1 RETURN JUMPDEST CALLVALUE DUP1 ISZERO PUSH2 0x2C6 JUMPI PUSH1 0x0 DUP1 REVERT JUMPDEST POP PUSH2 0x2E1 PUSH1 0x4 DUP1 CALLDATASIZE SUB DUP2 ADD SWAP1 PUSH2 0x2DC SWAP2 SWAP1 PUSH2 0x188D JUMP JUMPDEST PUSH2 0x772 JUMP JUMPDEST PUSH1 0x40 MLOAD PUSH2 0x2EE SWAP2 SWAP1 PUSH2 0x1CC9 JUMP JUMPDEST PUSH1 0x40 MLOAD DUP1 SWAP2 SUB SWAP1 RETURN JUMPDEST PUSH2 0x311 PUSH1 0x4 DUP1 CALLDATASIZE SUB DUP2 ADD SWAP1 PUSH2 0x30C SWAP2 SWAP1 PUSH2 0x18FA JUMP JUMPDEST PUSH2 0x7A9 JUMP JUMPDEST PUSH1 0x40 MLOAD PUSH2 0x31E SWAP2 SWAP1 PUSH2 0x1EE6 JUMP JUMPDEST PUSH1 0x40 MLOAD DUP1 SWAP2 SUB SWAP1 RETURN JUMPDEST PUSH2 0x341 PUSH1 0x4 DUP1 CALLDATASIZE SUB DUP2 ADD SWAP1 PUSH2 0x33C SWAP2 SWAP1 PUSH2 0x1954 JUMP JUMPDEST PUSH2 0xA1F JUMP JUMPDEST STOP JUMPDEST CALLVALUE DUP1 ISZERO PUSH2 0x34F JUMPI PUSH1 0x0 DUP1 REVERT JUMPDEST POP PUSH2 0x36A PUSH1 0x4 DUP1 CALLDATASIZE SUB DUP2 ADD SWAP1 PUSH2 0x365 SWAP2 SWAP1 PUSH2 0x17CD JUMP JUMPDEST PUSH2 0xA23 JUMP JUMPDEST PUSH1 0x40 MLOAD PUSH2 0x377 SWAP2 SWAP1 PUSH2 0x1EE6 JUMP JUMPDEST PUSH1 0x40 MLOAD DUP1 SWAP2 SUB SWAP1 RETURN JUMPDEST CALLVALUE DUP1 ISZERO PUSH2 0x38C JUMPI PUSH1 0x0 DUP1 REVERT JUMPDEST POP PUSH2 0x395 PUSH2 0xA6B JUMP JUMPDEST PUSH1 0x40 MLOAD PUSH2 0x3A2 SWAP2 SWAP1 PUSH2 0x1CE4 JUMP JUMPDEST PUSH1 0x40 MLOAD DUP1 SWAP2 SUB SWAP1 RETURN JUMPDEST CALLVALUE DUP1 ISZERO PUSH2 0x3B7 JUMPI PUSH1 0x0 DUP1 REVERT JUMPDEST POP PUSH2 0x3C0 PUSH2 0xAFD JUMP JUMPDEST PUSH1 0x40 MLOAD PUSH2 0x3CD SWAP2 SWAP1 PUSH2 0x1C4E JUMP JUMPDEST PUSH1 0x40 MLOAD DUP1 SWAP2 SUB SWAP1 RETURN JUMPDEST CALLVALUE DUP1 ISZERO PUSH2 0x3E2 JUMPI PUSH1 0x0 DUP1 REVERT JUMPDEST POP PUSH2 0x3FD PUSH1 0x4 DUP1 CALLDATASIZE SUB DUP2 ADD SWAP1 PUSH2 0x3F8 SWAP2 SWAP1 PUSH2 0x18FA JUMP JUMPDEST PUSH2 0xB23 JUMP JUMPDEST PUSH1 0x40 MLOAD PUSH2 0x40B SWAP3 SWAP2 SWAP1 PUSH2 0x1F01 JUMP JUMPDEST PUSH1 0x40 MLOAD DUP1 SWAP2 SUB SWAP1 RETURN JUMPDEST CALLVALUE DUP1 ISZERO PUSH2 0x420 JUMPI PUSH1 0x0 DUP1 REVERT JUMPDEST POP PUSH2 0x429 PUSH2 0xD6B JUMP JUMPDEST PUSH1 0x40 MLOAD PUSH2 0x436 SWAP2 SWAP1 PUSH2 0x1C4E JUMP JUMPDEST PUSH1 0x40 MLOAD DUP1 SWAP2 SUB SWAP1 RETURN JUMPDEST CALLVALUE DUP1 ISZERO PUSH2 0x44B JUMPI PUSH1 0x0 DUP1 REVERT JUMPDEST POP PUSH2 0x466 PUSH1 0x4 DUP1 CALLDATASIZE SUB DUP2 ADD SWAP1 PUSH2 0x461 SWAP2 SWAP1 PUSH2 0x188D JUMP JUMPDEST PUSH2 0xD91 JUMP JUMPDEST PUSH1 0x40 MLOAD PUSH2 0x473 SWAP2 SWAP1 PUSH2 0x1CC9 JUMP JUMPDEST PUSH1 0x40 MLOAD DUP1 SWAP2 SUB SWAP1 RETURN JUMPDEST CALLVALUE DUP1 ISZERO PUSH2 0x488 JUMPI PUSH1 0x0 DUP1 REVERT JUMPDEST POP PUSH2 0x4A3 PUSH1 0x4 DUP1 CALLDATASIZE SUB DUP2 ADD SWAP1 PUSH2 0x49E SWAP2 SWAP1 PUSH2 0x188D JUMP JUMPDEST PUSH2 0xE08 JUMP JUMPDEST PUSH1 0x40 MLOAD PUSH2 0x4B0 SWAP2 SWAP1 PUSH2 0x1CC9 JUMP JUMPDEST PUSH1 0x40 MLOAD DUP1 SWAP2 SUB SWAP1 RETURN JUMPDEST CALLVALUE DUP1 ISZERO PUSH2 0x4C5 JUMPI PUSH1 0x0 DUP1 REVERT JUMPDEST POP PUSH2 0x4E0 PUSH1 0x4 DUP1 CALLDATASIZE SUB DUP2 ADD SWAP1 PUSH2 0x4DB SWAP2 SWAP1 PUSH2 0x17FA JUMP JUMPDEST PUSH2 0xE2B JUMP JUMPDEST PUSH1 0x40 MLOAD PUSH2 0x4ED SWAP2 SWAP1 PUSH2 0x1EE6 JUMP JUMPDEST PUSH1 0x40 MLOAD DUP1 SWAP2 SUB SWAP1 RETURN JUMPDEST PUSH1 0x60 PUSH1 0x3 DUP1 SLOAD PUSH2 0x505 SWAP1 PUSH2 0x2109 JUMP JUMPDEST DUP1 PUSH1 0x1F ADD PUSH1 0x20 DUP1 SWAP2 DIV MUL PUSH1 0x20 ADD PUSH1 0x40 MLOAD SWAP1 DUP2 ADD PUSH1 0x40 MSTORE DUP1 SWAP3 SWAP2 SWAP1 DUP2 DUP2 MSTORE PUSH1 0x20 ADD DUP3 DUP1 SLOAD PUSH2 0x531 SWAP1 PUSH2 0x2109 JUMP JUMPDEST DUP1 ISZERO PUSH2 0x57E JUMPI DUP1 PUSH1 0x1F LT PUSH2 0x553 JUMPI PUSH2 0x100 DUP1 DUP4 SLOAD DIV MUL DUP4 MSTORE SWAP2 PUSH1 0x20 ADD SWAP2 PUSH2 0x57E JUMP JUMPDEST DUP3 ADD SWAP2 SWAP1 PUSH1 0x0 MSTORE PUSH1 0x20 PUSH1 0x0 KECCAK256 SWAP1 JUMPDEST DUP2 SLOAD DUP2 MSTORE SWAP1 PUSH1 0x1 ADD SWAP1 PUSH1 0x20 ADD DUP1 DUP4 GT PUSH2 0x561 JUMPI DUP3 SWAP1 SUB PUSH1 0x1F AND DUP3 ADD SWAP2 JUMPDEST POP POP POP POP POP SWAP1 POP SWAP1 JUMP JUMPDEST PUSH1 0x0 DUP1 PUSH1 0x5 PUSH1 0x0 SWAP1 SLOAD SWAP1 PUSH2 0x100 EXP SWAP1 DIV PUSH20 0xFFFFFFFFFFFFFFFFFFFFFFFFFFFFFFFFFFFFFFFF AND PUSH20 0xFFFFFFFFFFFFFFFFFFFFFFFFFFFFFFFFFFFFFFFF AND PUSH4 0x70A08231 ADDRESS PUSH1 0x40 MLOAD DUP3 PUSH4 0xFFFFFFFF AND PUSH1 0xE0 SHL DUP2 MSTORE PUSH1 0x4 ADD PUSH2 0x5E6 SWAP2 SWAP1 PUSH2 0x1C4E JUMP JUMPDEST PUSH1 0x20 PUSH1 0x40 MLOAD DUP1 DUP4 SUB DUP2 DUP7 DUP1 EXTCODESIZE ISZERO DUP1 ISZERO PUSH2 0x5FE JUMPI PUSH1 0x0 DUP1 REVERT JUMPDEST POP GAS STATICCALL ISZERO DUP1 ISZERO PUSH2 0x612 JUMPI RETURNDATASIZE PUSH1 0x0 DUP1 RETURNDATACOPY RETURNDATASIZE PUSH1 0x0 REVERT JUMPDEST POP POP POP POP PUSH1 0x40 MLOAD RETURNDATASIZE PUSH1 0x1F NOT PUSH1 0x1F DUP3 ADD AND DUP3 ADD DUP1 PUSH1 0x40 MSTORE POP DUP2 ADD SWAP1 PUSH2 0x636 SWAP2 SWAP1 PUSH2 0x1927 JUMP JUMPDEST SWAP2 POP SELFBALANCE SWAP1 POP SWAP1 SWAP2 JUMP JUMPDEST PUSH1 0x0 DUP1 PUSH2 0x64A PUSH2 0xEB2 JUMP JUMPDEST SWAP1 POP PUSH2 0x657 DUP2 DUP6 DUP6 PUSH2 0xEBA JUMP JUMPDEST PUSH1 0x1 SWAP2 POP POP SWAP3 SWAP2 POP POP JUMP JUMPDEST PUSH1 0x0 DUP1 DUP3 GT PUSH2 0x6A6 JUMPI PUSH1 0x40 MLOAD PUSH32 0x8C379A000000000000000000000000000000000000000000000000000000000 DUP2 MSTORE PUSH1 0x4 ADD PUSH2 0x69D SWAP1 PUSH2 0x1E06 JUMP JUMPDEST PUSH1 0x40 MLOAD DUP1 SWAP2 SUB SWAP1 REVERT JUMPDEST PUSH1 0x0 DUP1 PUSH2 0x6B1 PUSH2 0x588 JUMP JUMPDEST SWAP2 POP SWAP2 POP PUSH2 0x6C0 DUP5 DUP3 DUP5 PUSH2 0x1085 JUMP JUMPDEST SWAP3 POP POP POP SWAP2 SWAP1 POP JUMP JUMPDEST PUSH1 0x0 PUSH1 0x2 SLOAD SWAP1 POP SWAP1 JUMP JUMPDEST PUSH1 0x0 DUP1 PUSH2 0x6DE PUSH2 0xEB2 JUMP JUMPDEST SWAP1 POP PUSH2 0x6EB DUP6 DUP3 DUP6 PUSH2 0x112B JUMP JUMPDEST PUSH2 0x6F6 DUP6 DUP6 DUP6 PUSH2 0x11B7 JUMP JUMPDEST PUSH1 0x1 SWAP2 POP POP SWAP4 SWAP3 POP POP POP JUMP JUMPDEST PUSH1 0x0 DUP1 DUP2 GT PUSH2 0x746 JUMPI PUSH1 0x40 MLOAD PUSH32 0x8C379A000000000000000000000000000000000000000000000000000000000 DUP2 MSTORE PUSH1 0x4 ADD PUSH2 0x73D SWAP1 PUSH2 0x1E06 JUMP JUMPDEST PUSH1 0x40 MLOAD DUP1 SWAP2 SUB SWAP1 REVERT JUMPDEST PUSH1 0x0 DUP1 PUSH2 0x751 PUSH2 0x588 JUMP JUMPDEST SWAP2 POP SWAP2 POP PUSH2 0x760 DUP5 DUP4 DUP4 PUSH2 0x1085 JUMP JUMPDEST SWAP3 POP POP POP SWAP2 SWAP1 POP JUMP JUMPDEST PUSH1 0x0 PUSH1 0x12 SWAP1 POP SWAP1 JUMP JUMPDEST PUSH1 0x0 DUP1 PUSH2 0x77D PUSH2 0xEB2 JUMP JUMPDEST SWAP1 POP PUSH2 0x79E DUP2 DUP6 DUP6 PUSH2 0x78F DUP6 DUP10 PUSH2 0xE2B JUMP JUMPDEST PUSH2 0x799 SWAP2 SWAP1 PUSH2 0x1F6C JUMP JUMPDEST PUSH2 0xEBA JUMP JUMPDEST PUSH1 0x1 SWAP2 POP POP SWAP3 SWAP2 POP POP JUMP JUMPDEST PUSH1 0x0 DUP1 PUSH1 0x0 PUSH2 0x7B6 PUSH2 0x588 JUMP JUMPDEST SWAP2 POP SWAP2 POP PUSH1 0x0 DUP3 EQ ISZERO PUSH2 0x883 JUMPI PUSH1 0x0 PUSH1 0x5 PUSH1 0x0 SWAP1 SLOAD SWAP1 PUSH2 0x100 EXP SWAP1 DIV PUSH20 0xFFFFFFFFFFFFFFFFFFFFFFFFFFFFFFFFFFFFFFFF AND SWAP1 POP DUP1 PUSH20 0xFFFFFFFFFFFFFFFFFFFFFFFFFFFFFFFFFFFFFFFF AND PUSH4 0x23B872DD CALLER ADDRESS DUP9 PUSH1 0x40 MLOAD DUP5 PUSH4 0xFFFFFFFF AND PUSH1 0xE0 SHL DUP2 MSTORE PUSH1 0x4 ADD PUSH2 0x827 SWAP4 SWAP3 SWAP2 SWAP1 PUSH2 0x1C69 JUMP JUMPDEST PUSH1 0x20 PUSH1 0x40 MLOAD DUP1 DUP4 SUB DUP2 PUSH1 0x0 DUP8 DUP1 EXTCODESIZE ISZERO DUP1 ISZERO PUSH2 0x841 JUMPI PUSH1 0x0 DUP1 REVERT JUMPDEST POP GAS CALL ISZERO DUP1 ISZERO PUSH2 0x855 JUMPI RETURNDATASIZE PUSH1 0x0 DUP1 RETURNDATACOPY RETURNDATASIZE PUSH1 0x0 REVERT JUMPDEST POP POP POP POP PUSH1 0x40 MLOAD RETURNDATASIZE PUSH1 0x1F NOT PUSH1 0x1F DUP3 ADD AND DUP3 ADD DUP1 PUSH1 0x40 MSTORE POP DUP2 ADD SWAP1 PUSH2 0x879 SWAP2 SWAP1 PUSH2 0x18CD JUMP JUMPDEST POP DUP2 SWAP4 POP POP PUSH2 0x9C9 JUMP JUMPDEST CALLVALUE DUP2 PUSH2 0x88F SWAP2 SWAP1 PUSH2 0x204D JUMP JUMPDEST SWAP1 POP PUSH1 0x0 DUP2 DUP4 CALLVALUE PUSH2 0x8A0 SWAP2 SWAP1 PUSH2 0x1FF3 JUMP JUMPDEST PUSH2 0x8AA SWAP2 SWAP1 PUSH2 0x1FC2 JUMP JUMPDEST SWAP1 POP DUP1 DUP6 LT ISZERO PUSH2 0x8EF JUMPI PUSH1 0x40 MLOAD PUSH32 0x8C379A000000000000000000000000000000000000000000000000000000000 DUP2 MSTORE PUSH1 0x4 ADD PUSH2 0x8E6 SWAP1 PUSH2 0x1D66 JUMP JUMPDEST PUSH1 0x40 MLOAD DUP1 SWAP2 SUB SWAP1 REVERT JUMPDEST PUSH1 0x0 PUSH1 0x5 PUSH1 0x0 SWAP1 SLOAD SWAP1 PUSH2 0x100 EXP SWAP1 DIV PUSH20 0xFFFFFFFFFFFFFFFFFFFFFFFFFFFFFFFFFFFFFFFF AND SWAP1 POP DUP1 PUSH20 0xFFFFFFFFFFFFFFFFFFFFFFFFFFFFFFFFFFFFFFFF AND PUSH4 0x23B872DD CALLER ADDRESS DUP10 PUSH1 0x40 MLOAD DUP5 PUSH4 0xFFFFFFFF AND PUSH1 0xE0 SHL DUP2 MSTORE PUSH1 0x4 ADD PUSH2 0x953 SWAP4 SWAP3 SWAP2 SWAP1 PUSH2 0x1C69 JUMP JUMPDEST PUSH1 0x20 PUSH1 0x40 MLOAD DUP1 DUP4 SUB DUP2 PUSH1 0x0 DUP8 DUP1 EXTCODESIZE ISZERO DUP1 ISZERO PUSH2 0x96D JUMPI PUSH1 0x0 DUP1 REVERT JUMPDEST POP GAS CALL ISZERO DUP1 ISZERO PUSH2 0x981 JUMPI RETURNDATASIZE PUSH1 0x0 DUP1 RETURNDATACOPY RETURNDATASIZE PUSH1 0x0 REVERT JUMPDEST POP POP POP POP PUSH1 0x40 MLOAD RETURNDATASIZE PUSH1 0x1F NOT PUSH1 0x1F DUP3 ADD AND DUP3 ADD DUP1 PUSH1 0x40 MSTORE POP DUP2 ADD SWAP1 PUSH2 0x9A5 SWAP2 SWAP1 PUSH2 0x18CD JUMP JUMPDEST POP DUP3 CALLVALUE PUSH2 0x9B0 PUSH2 0x6C9 JUMP JUMPDEST PUSH2 0x9BA SWAP2 SWAP1 PUSH2 0x1FF3 JUMP JUMPDEST PUSH2 0x9C4 SWAP2 SWAP1 PUSH2 0x1FC2 JUMP JUMPDEST SWAP5 POP POP POP JUMPDEST PUSH2 0x9D3 CALLER DUP5 PUSH2 0x1438 JUMP JUMPDEST DUP4 CALLVALUE CALLER PUSH20 0xFFFFFFFFFFFFFFFFFFFFFFFFFFFFFFFFFFFFFFFF AND PUSH32 0x6239653922AC7BEA6AA2B19DC486B9361821D37712EB796ADFD38D81DE278CA PUSH1 0x40 MLOAD PUSH1 0x40 MLOAD DUP1 SWAP2 SUB SWAP1 LOG4 POP POP SWAP2 SWAP1 POP JUMP JUMPDEST POP POP JUMP JUMPDEST PUSH1 0x0 DUP1 PUSH1 0x0 DUP4 PUSH20 0xFFFFFFFFFFFFFFFFFFFFFFFFFFFFFFFFFFFFFFFF AND PUSH20 0xFFFFFFFFFFFFFFFFFFFFFFFFFFFFFFFFFFFFFFFF AND DUP2 MSTORE PUSH1 0x20 ADD SWAP1 DUP2 MSTORE PUSH1 0x20 ADD PUSH1 0x0 KECCAK256 SLOAD SWAP1 POP SWAP2 SWAP1 POP JUMP JUMPDEST PUSH1 0x60 PUSH1 0x4 DUP1 SLOAD PUSH2 0xA7A SWAP1 PUSH2 0x2109 JUMP JUMPDEST DUP1 PUSH1 0x1F ADD PUSH1 0x20 DUP1 SWAP2 DIV MUL PUSH1 0x20 ADD PUSH1 0x40 MLOAD SWAP1 DUP2 ADD PUSH1 0x40 MSTORE DUP1 SWAP3 SWAP2 SWAP1 DUP2 DUP2 MSTORE PUSH1 0x20 ADD DUP3 DUP1 SLOAD PUSH2 0xAA6 SWAP1 PUSH2 0x2109 JUMP JUMPDEST DUP1 ISZERO PUSH2 0xAF3 JUMPI DUP1 PUSH1 0x1F LT PUSH2 0xAC8 JUMPI PUSH2 0x100 DUP1 DUP4 SLOAD DIV MUL DUP4 MSTORE SWAP2 PUSH1 0x20 ADD SWAP2 PUSH2 0xAF3 JUMP JUMPDEST DUP3 ADD SWAP2 SWAP1 PUSH1 0x0 MSTORE PUSH1 0x20 PUSH1 0x0 KECCAK256 SWAP1 JUMPDEST DUP2 SLOAD DUP2 MSTORE SWAP1 PUSH1 0x1 ADD SWAP1 PUSH1 0x20 ADD DUP1 DUP4 GT PUSH2 0xAD6 JUMPI DUP3 SWAP1 SUB PUSH1 0x1F AND DUP3 ADD SWAP2 JUMPDEST POP POP POP POP POP SWAP1 POP SWAP1 JUMP JUMPDEST PUSH1 0x6 PUSH1 0x0 SWAP1 SLOAD SWAP1 PUSH2 0x100 EXP SWAP1 DIV PUSH20 0xFFFFFFFFFFFFFFFFFFFFFFFFFFFFFFFFFFFFFFFF AND DUP2 JUMP JUMPDEST PUSH1 0x0 DUP1 PUSH1 0x0 DUP4 GT PUSH2 0xB69 JUMPI PUSH1 0x40 MLOAD PUSH32 0x8C379A000000000000000000000000000000000000000000000000000000000 DUP2 MSTORE PUSH1 0x4 ADD PUSH2 0xB60 SWAP1 PUSH2 0x1DC6 JUMP JUMPDEST PUSH1 0x40 MLOAD DUP1 SWAP2 SUB SWAP1 REVERT JUMPDEST PUSH1 0x0 DUP1 PUSH2 0xB74 PUSH2 0x588 JUMP JUMPDEST SWAP2 POP SWAP2 POP PUSH2 0xB80 PUSH2 0x6C9 JUMP JUMPDEST DUP6 DUP3 PUSH2 0xB8C SWAP2 SWAP1 PUSH2 0x1FF3 JUMP JUMPDEST PUSH2 0xB96 SWAP2 SWAP1 PUSH2 0x1FC2 JUMP JUMPDEST SWAP4 POP PUSH2 0xBA0 PUSH2 0x6C9 JUMP JUMPDEST DUP6 DUP4 PUSH2 0xBAC SWAP2 SWAP1 PUSH2 0x1FF3 JUMP JUMPDEST PUSH2 0xBB6 SWAP2 SWAP1 PUSH2 0x1FC2 JUMP JUMPDEST SWAP3 POP PUSH2 0xBC2 CALLER DUP7 PUSH2 0x1598 JUMP JUMPDEST PUSH1 0x0 CALLER PUSH20 0xFFFFFFFFFFFFFFFFFFFFFFFFFFFFFFFFFFFFFFFF AND DUP6 PUSH1 0x40 MLOAD PUSH2 0xBE8 SWAP1 PUSH2 0x1C39 JUMP JUMPDEST PUSH1 0x0 PUSH1 0x40 MLOAD DUP1 DUP4 SUB DUP2 DUP6 DUP8 GAS CALL SWAP3 POP POP POP RETURNDATASIZE DUP1 PUSH1 0x0 DUP2 EQ PUSH2 0xC25 JUMPI PUSH1 0x40 MLOAD SWAP2 POP PUSH1 0x1F NOT PUSH1 0x3F RETURNDATASIZE ADD AND DUP3 ADD PUSH1 0x40 MSTORE RETURNDATASIZE DUP3 MSTORE RETURNDATASIZE PUSH1 0x0 PUSH1 0x20 DUP5 ADD RETURNDATACOPY PUSH2 0xC2A JUMP JUMPDEST PUSH1 0x60 SWAP2 POP JUMPDEST POP POP SWAP1 POP DUP1 PUSH2 0xC6E JUMPI PUSH1 0x40 MLOAD PUSH32 0x8C379A000000000000000000000000000000000000000000000000000000000 DUP2 MSTORE PUSH1 0x4 ADD PUSH2 0xC65 SWAP1 PUSH2 0x1E46 JUMP JUMPDEST PUSH1 0x40 MLOAD DUP1 SWAP2 SUB SWAP1 REVERT JUMPDEST PUSH1 0x5 PUSH1 0x0 SWAP1 SLOAD SWAP1 PUSH2 0x100 EXP SWAP1 DIV PUSH20 0xFFFFFFFFFFFFFFFFFFFFFFFFFFFFFFFFFFFFFFFF AND PUSH20 0xFFFFFFFFFFFFFFFFFFFFFFFFFFFFFFFFFFFFFFFF AND PUSH4 0xA9059CBB CALLER DUP7 PUSH1 0x40 MLOAD DUP4 PUSH4 0xFFFFFFFF AND PUSH1 0xE0 SHL DUP2 MSTORE PUSH1 0x4 ADD PUSH2 0xCCB SWAP3 SWAP2 SWAP1 PUSH2 0x1CA0 JUMP JUMPDEST PUSH1 0x20 PUSH1 0x40 MLOAD DUP1 DUP4 SUB DUP2 PUSH1 0x0 DUP8 DUP1 EXTCODESIZE ISZERO DUP1 ISZERO PUSH2 0xCE5 JUMPI PUSH1 0x0 DUP1 REVERT JUMPDEST POP GAS CALL ISZERO DUP1 ISZERO PUSH2 0xCF9 JUMPI RETURNDATASIZE PUSH1 0x0 DUP1 RETURNDATACOPY RETURNDATASIZE PUSH1 0x0 REVERT JUMPDEST POP POP POP POP PUSH1 0x40 MLOAD RETURNDATASIZE PUSH1 0x1F NOT PUSH1 0x1F DUP3 ADD AND DUP3 ADD DUP1 PUSH1 0x40 MSTORE POP DUP2 ADD SWAP1 PUSH2 0xD1D SWAP2 SWAP1 PUSH2 0x18CD JUMP JUMPDEST POP DUP4 DUP6 CALLER PUSH20 0xFFFFFFFFFFFFFFFFFFFFFFFFFFFFFFFFFFFFFFFF AND PUSH32 0xFBF06C058B90CB038A618F8C2ACBF6145F8B3570FD1FA56ABB8F0F3F05B36E8 PUSH1 0x40 MLOAD PUSH1 0x40 MLOAD DUP1 SWAP2 SUB SWAP1 LOG4 POP POP POP SWAP2 POP SWAP2 JUMP JUMPDEST PUSH1 0x5 PUSH1 0x0 SWAP1 SLOAD SWAP1 PUSH2 0x100 EXP SWAP1 DIV PUSH20 0xFFFFFFFFFFFFFFFFFFFFFFFFFFFFFFFFFFFFFFFF AND DUP2 JUMP JUMPDEST PUSH1 0x0 DUP1 PUSH2 0xD9C PUSH2 0xEB2 JUMP JUMPDEST SWAP1 POP PUSH1 0x0 PUSH2 0xDAA DUP3 DUP7 PUSH2 0xE2B JUMP JUMPDEST SWAP1 POP DUP4 DUP2 LT ISZERO PUSH2 0xDEF JUMPI PUSH1 0x40 MLOAD PUSH32 0x8C379A000000000000000000000000000000000000000000000000000000000 DUP2 MSTORE PUSH1 0x4 ADD PUSH2 0xDE6 SWAP1 PUSH2 0x1EA6 JUMP JUMPDEST PUSH1 0x40 MLOAD DUP1 SWAP2 SUB SWAP1 REVERT JUMPDEST PUSH2 0xDFC DUP3 DUP7 DUP7 DUP5 SUB PUSH2 0xEBA JUMP JUMPDEST PUSH1 0x1 SWAP3 POP POP POP SWAP3 SWAP2 POP POP JUMP JUMPDEST PUSH1 0x0 DUP1 PUSH2 0xE13 PUSH2 0xEB2 JUMP JUMPDEST SWAP1 POP PUSH2 0xE20 DUP2 DUP6 DUP6 PUSH2 0x11B7 JUMP JUMPDEST PUSH1 0x1 SWAP2 POP POP SWAP3 SWAP2 POP POP JUMP JUMPDEST PUSH1 0x0 PUSH1 0x1 PUSH1 0x0 DUP5 PUSH20 0xFFFFFFFFFFFFFFFFFFFFFFFFFFFFFFFFFFFFFFFF AND PUSH20 0xFFFFFFFFFFFFFFFFFFFFFFFFFFFFFFFFFFFFFFFF AND DUP2 MSTORE PUSH1 0x20 ADD SWAP1 DUP2 MSTORE PUSH1 0x20 ADD PUSH1 0x0 KECCAK256 PUSH1 0x0 DUP4 PUSH20 0xFFFFFFFFFFFFFFFFFFFFFFFFFFFFFFFFFFFFFFFF AND PUSH20 0xFFFFFFFFFFFFFFFFFFFFFFFFFFFFFFFFFFFFFFFF AND DUP2 MSTORE PUSH1 0x20 ADD SWAP1 DUP2 MSTORE PUSH1 0x20 ADD PUSH1 0x0 KECCAK256 SLOAD SWAP1 POP SWAP3 SWAP2 POP POP JUMP JUMPDEST PUSH1 0x0 CALLER SWAP1 POP SWAP1 JUMP JUMPDEST PUSH1 0x0 PUSH20 0xFFFFFFFFFFFFFFFFFFFFFFFFFFFFFFFFFFFFFFFF AND DUP4 PUSH20 0xFFFFFFFFFFFFFFFFFFFFFFFFFFFFFFFFFFFFFFFF AND EQ ISZERO PUSH2 0xF2A JUMPI PUSH1 0x40 MLOAD PUSH32 0x8C379A000000000000000000000000000000000000000000000000000000000 DUP2 MSTORE PUSH1 0x4 ADD PUSH2 0xF21 SWAP1 PUSH2 0x1E86 JUMP JUMPDEST PUSH1 0x40 MLOAD DUP1 SWAP2 SUB SWAP1 REVERT JUMPDEST PUSH1 0x0 PUSH20 0xFFFFFFFFFFFFFFFFFFFFFFFFFFFFFFFFFFFFFFFF AND DUP3 PUSH20 0xFFFFFFFFFFFFFFFFFFFFFFFFFFFFFFFFFFFFFFFF AND EQ ISZERO PUSH2 0xF9A JUMPI PUSH1 0x40 MLOAD PUSH32 0x8C379A000000000000000000000000000000000000000000000000000000000 DUP2 MSTORE PUSH1 0x4 ADD PUSH2 0xF91 SWAP1 PUSH2 0x1D46 JUMP JUMPDEST PUSH1 0x40 MLOAD DUP1 SWAP2 SUB SWAP1 REVERT JUMPDEST DUP1 PUSH1 0x1 PUSH1 0x0 DUP6 PUSH20 0xFFFFFFFFFFFFFFFFFFFFFFFFFFFFFFFFFFFFFFFF AND PUSH20 0xFFFFFFFFFFFFFFFFFFFFFFFFFFFFFFFFFFFFFFFF AND DUP2 MSTORE PUSH1 0x20 ADD SWAP1 DUP2 MSTORE PUSH1 0x20 ADD PUSH1 0x0 KECCAK256 PUSH1 0x0 DUP5 PUSH20 0xFFFFFFFFFFFFFFFFFFFFFFFFFFFFFFFFFFFFFFFF AND PUSH20 0xFFFFFFFFFFFFFFFFFFFFFFFFFFFFFFFFFFFFFFFF AND DUP2 MSTORE PUSH1 0x20 ADD SWAP1 DUP2 MSTORE PUSH1 0x20 ADD PUSH1 0x0 KECCAK256 DUP2 SWAP1 SSTORE POP DUP2 PUSH20 0xFFFFFFFFFFFFFFFFFFFFFFFFFFFFFFFFFFFFFFFF AND DUP4 PUSH20 0xFFFFFFFFFFFFFFFFFFFFFFFFFFFFFFFFFFFFFFFF AND PUSH32 0x8C5BE1E5EBEC7D5BD14F71427D1E84F3DD0314C0F7B2291E5B200AC8C7C3B925 DUP4 PUSH1 0x40 MLOAD PUSH2 0x1078 SWAP2 SWAP1 PUSH2 0x1EE6 JUMP JUMPDEST PUSH1 0x40 MLOAD DUP1 SWAP2 SUB SWAP1 LOG3 POP POP POP JUMP JUMPDEST PUSH1 0x0 DUP1 DUP4 GT DUP1 ISZERO PUSH2 0x1096 JUMPI POP PUSH1 0x0 DUP3 GT JUMPDEST PUSH2 0x10D5 JUMPI PUSH1 0x40 MLOAD PUSH32 0x8C379A000000000000000000000000000000000000000000000000000000000 DUP2 MSTORE PUSH1 0x4 ADD PUSH2 0x10CC SWAP1 PUSH2 0x1E66 JUMP JUMPDEST PUSH1 0x40 MLOAD DUP1 SWAP2 SUB SWAP1 REVERT JUMPDEST PUSH1 0x0 DUP1 PUSH2 0x3E8 PUSH2 0x10E5 SWAP2 SWAP1 PUSH2 0x204D JUMP JUMPDEST DUP6 PUSH2 0x10F0 SWAP2 SWAP1 PUSH2 0x1FF3 JUMP JUMPDEST SWAP1 POP DUP1 DUP5 PUSH2 0x3E8 PUSH2 0x1101 SWAP2 SWAP1 PUSH2 0x1FF3 JUMP JUMPDEST PUSH2 0x110B SWAP2 SWAP1 PUSH2 0x1F6C JUMP JUMPDEST DUP4 DUP3 PUSH2 0x1117 SWAP2 SWAP1 PUSH2 0x1FF3 JUMP JUMPDEST PUSH2 0x1121 SWAP2 SWAP1 PUSH2 0x1FC2 JUMP JUMPDEST SWAP2 POP POP SWAP4 SWAP3 POP POP POP JUMP JUMPDEST PUSH1 0x0 PUSH2 0x1137 DUP5 DUP5 PUSH2 0xE2B JUMP JUMPDEST SWAP1 POP PUSH32 0xFFFFFFFFFFFFFFFFFFFFFFFFFFFFFFFFFFFFFFFFFFFFFFFFFFFFFFFFFFFFFFFF DUP2 EQ PUSH2 0x11B1 JUMPI DUP2 DUP2 LT ISZERO PUSH2 0x11A3 JUMPI PUSH1 0x40 MLOAD PUSH32 0x8C379A000000000000000000000000000000000000000000000000000000000 DUP2 MSTORE PUSH1 0x4 ADD PUSH2 0x119A SWAP1 PUSH2 0x1D86 JUMP JUMPDEST PUSH1 0x40 MLOAD DUP1 SWAP2 SUB SWAP1 REVERT JUMPDEST PUSH2 0x11B0 DUP5 DUP5 DUP5 DUP5 SUB PUSH2 0xEBA JUMP JUMPDEST JUMPDEST POP POP POP POP JUMP JUMPDEST PUSH1 0x0 PUSH20 0xFFFFFFFFFFFFFFFFFFFFFFFFFFFFFFFFFFFFFFFF AND DUP4 PUSH20 0xFFFFFFFFFFFFFFFFFFFFFFFFFFFFFFFFFFFFFFFF AND EQ ISZERO PUSH2 0x1227 JUMPI PUSH1 0x40 MLOAD PUSH32 0x8C379A000000000000000000000000000000000000000000000000000000000 DUP2 MSTORE PUSH1 0x4 ADD PUSH2 0x121E SWAP1 PUSH2 0x1E26 JUMP JUMPDEST PUSH1 0x40 MLOAD DUP1 SWAP2 SUB SWAP1 REVERT JUMPDEST PUSH1 0x0 PUSH20 0xFFFFFFFFFFFFFFFFFFFFFFFFFFFFFFFFFFFFFFFF AND DUP3 PUSH20 0xFFFFFFFFFFFFFFFFFFFFFFFFFFFFFFFFFFFFFFFF AND EQ ISZERO PUSH2 0x1297 JUMPI PUSH1 0x40 MLOAD PUSH32 0x8C379A000000000000000000000000000000000000000000000000000000000 DUP2 MSTORE PUSH1 0x4 ADD PUSH2 0x128E SWAP1 PUSH2 0x1D06 JUMP JUMPDEST PUSH1 0x40 MLOAD DUP1 SWAP2 SUB SWAP1 REVERT JUMPDEST PUSH2 0x12A2 DUP4 DUP4 DUP4 PUSH2 0x176F JUMP JUMPDEST PUSH1 0x0 DUP1 PUSH1 0x0 DUP6 PUSH20 0xFFFFFFFFFFFFFFFFFFFFFFFFFFFFFFFFFFFFFFFF AND PUSH20 0xFFFFFFFFFFFFFFFFFFFFFFFFFFFFFFFFFFFFFFFF AND DUP2 MSTORE PUSH1 0x20 ADD SWAP1 DUP2 MSTORE PUSH1 0x20 ADD PUSH1 0x0 KECCAK256 SLOAD SWAP1 POP DUP2 DUP2 LT ISZERO PUSH2 0x1328 JUMPI PUSH1 0x40 MLOAD PUSH32 0x8C379A000000000000000000000000000000000000000000000000000000000 DUP2 MSTORE PUSH1 0x4 ADD PUSH2 0x131F SWAP1 PUSH2 0x1DA6 JUMP JUMPDEST PUSH1 0x40 MLOAD DUP1 SWAP2 SUB SWAP1 REVERT JUMPDEST DUP2 DUP2 SUB PUSH1 0x0 DUP1 DUP7 PUSH20 0xFFFFFFFFFFFFFFFFFFFFFFFFFFFFFFFFFFFFFFFF AND PUSH20 0xFFFFFFFFFFFFFFFFFFFFFFFFFFFFFFFFFFFFFFFF AND DUP2 MSTORE PUSH1 0x20 ADD SWAP1 DUP2 MSTORE PUSH1 0x20 ADD PUSH1 0x0 KECCAK256 DUP2 SWAP1 SSTORE POP DUP2 PUSH1 0x0 DUP1 DUP6 PUSH20 0xFFFFFFFFFFFFFFFFFFFFFFFFFFFFFFFFFFFFFFFF AND PUSH20 0xFFFFFFFFFFFFFFFFFFFFFFFFFFFFFFFFFFFFFFFF AND DUP2 MSTORE PUSH1 0x20 ADD SWAP1 DUP2 MSTORE PUSH1 0x20 ADD PUSH1 0x0 KECCAK256 PUSH1 0x0 DUP3 DUP3 SLOAD PUSH2 0x13BB SWAP2 SWAP1 PUSH2 0x1F6C JUMP JUMPDEST SWAP3 POP POP DUP2 SWAP1 SSTORE POP DUP3 PUSH20 0xFFFFFFFFFFFFFFFFFFFFFFFFFFFFFFFFFFFFFFFF AND DUP5 PUSH20 0xFFFFFFFFFFFFFFFFFFFFFFFFFFFFFFFFFFFFFFFF AND PUSH32 0xDDF252AD1BE2C89B69C2B068FC378DAA952BA7F163C4A11628F55A4DF523B3EF DUP5 PUSH1 0x40 MLOAD PUSH2 0x141F SWAP2 SWAP1 PUSH2 0x1EE6 JUMP JUMPDEST PUSH1 0x40 MLOAD DUP1 SWAP2 SUB SWAP1 LOG3 PUSH2 0x1432 DUP5 DUP5 DUP5 PUSH2 0x1774 JUMP JUMPDEST POP POP POP POP JUMP JUMPDEST PUSH1 0x0 PUSH20 0xFFFFFFFFFFFFFFFFFFFFFFFFFFFFFFFFFFFFFFFF AND DUP3 PUSH20 0xFFFFFFFFFFFFFFFFFFFFFFFFFFFFFFFFFFFFFFFF AND EQ ISZERO PUSH2 0x14A8 JUMPI PUSH1 0x40 MLOAD PUSH32 0x8C379A000000000000000000000000000000000000000000000000000000000 DUP2 MSTORE PUSH1 0x4 ADD PUSH2 0x149F SWAP1 PUSH2 0x1EC6 JUMP JUMPDEST PUSH1 0x40 MLOAD DUP1 SWAP2 SUB SWAP1 REVERT JUMPDEST PUSH2 0x14B4 PUSH1 0x0 DUP4 DUP4 PUSH2 0x176F JUMP JUMPDEST DUP1 PUSH1 0x2 PUSH1 0x0 DUP3 DUP3 SLOAD PUSH2 0x14C6 SWAP2 SWAP1 PUSH2 0x1F6C JUMP JUMPDEST SWAP3 POP POP DUP2 SWAP1 SSTORE POP DUP1 PUSH1 0x0 DUP1 DUP5 PUSH20 0xFFFFFFFFFFFFFFFFFFFFFFFFFFFFFFFFFFFFFFFF AND PUSH20 0xFFFFFFFFFFFFFFFFFFFFFFFFFFFFFFFFFFFFFFFF AND DUP2 MSTORE PUSH1 0x20 ADD SWAP1 DUP2 MSTORE PUSH1 0x20 ADD PUSH1 0x0 KECCAK256 PUSH1 0x0 DUP3 DUP3 SLOAD PUSH2 0x151B SWAP2 SWAP1 PUSH2 0x1F6C JUMP JUMPDEST SWAP3 POP POP DUP2 SWAP1 SSTORE POP DUP2 PUSH20 0xFFFFFFFFFFFFFFFFFFFFFFFFFFFFFFFFFFFFFFFF AND PUSH1 0x0 PUSH20 0xFFFFFFFFFFFFFFFFFFFFFFFFFFFFFFFFFFFFFFFF AND PUSH32 0xDDF252AD1BE2C89B69C2B068FC378DAA952BA7F163C4A11628F55A4DF523B3EF DUP4 PUSH1 0x40 MLOAD PUSH2 0x1580 SWAP2 SWAP1 PUSH2 0x1EE6 JUMP JUMPDEST PUSH1 0x40 MLOAD DUP1 SWAP2 SUB SWAP1 LOG3 PUSH2 0x1594 PUSH1 0x0 DUP4 DUP4 PUSH2 0x1774 JUMP JUMPDEST POP POP JUMP JUMPDEST PUSH1 0x0 PUSH20 0xFFFFFFFFFFFFFFFFFFFFFFFFFFFFFFFFFFFFFFFF AND DUP3 PUSH20 0xFFFFFFFFFFFFFFFFFFFFFFFFFFFFFFFFFFFFFFFF AND EQ ISZERO PUSH2 0x1608 JUMPI PUSH1 0x40 MLOAD PUSH32 0x8C379A000000000000000000000000000000000000000000000000000000000 DUP2 MSTORE PUSH1 0x4 ADD PUSH2 0x15FF SWAP1 PUSH2 0x1DE6 JUMP JUMPDEST PUSH1 0x40 MLOAD DUP1 SWAP2 SUB SWAP1 REVERT JUMPDEST PUSH2 0x1614 DUP3 PUSH1 0x0 DUP4 PUSH2 0x176F JUMP JUMPDEST PUSH1 0x0 DUP1 PUSH1 0x0 DUP5 PUSH20 0xFFFFFFFFFFFFFFFFFFFFFFFFFFFFFFFFFFFFFFFF AND PUSH20 0xFFFFFFFFFFFFFFFFFFFFFFFFFFFFFFFFFFFFFFFF AND DUP2 MSTORE PUSH1 0x20 ADD SWAP1 DUP2 MSTORE PUSH1 0x20 ADD PUSH1 0x0 KECCAK256 SLOAD SWAP1 POP DUP2 DUP2 LT ISZERO PUSH2 0x169A JUMPI PUSH1 0x40 MLOAD PUSH32 0x8C379A000000000000000000000000000000000000000000000000000000000 DUP2 MSTORE PUSH1 0x4 ADD PUSH2 0x1691 SWAP1 PUSH2 0x1D26 JUMP JUMPDEST PUSH1 0x40 MLOAD DUP1 SWAP2 SUB SWAP1 REVERT JUMPDEST DUP2 DUP2 SUB PUSH1 0x0 DUP1 DUP6 PUSH20 0xFFFFFFFFFFFFFFFFFFFFFFFFFFFFFFFFFFFFFFFF AND PUSH20 0xFFFFFFFFFFFFFFFFFFFFFFFFFFFFFFFFFFFFFFFF AND DUP2 MSTORE PUSH1 0x20 ADD SWAP1 DUP2 MSTORE PUSH1 0x20 ADD PUSH1 0x0 KECCAK256 DUP2 SWAP1 SSTORE POP DUP2 PUSH1 0x2 PUSH1 0x0 DUP3 DUP3 SLOAD PUSH2 0x16F1 SWAP2 SWAP1 PUSH2 0x204D JUMP JUMPDEST SWAP3 POP POP DUP2 SWAP1 SSTORE POP PUSH1 0x0 PUSH20 0xFFFFFFFFFFFFFFFFFFFFFFFFFFFFFFFFFFFFFFFF AND DUP4 PUSH20 0xFFFFFFFFFFFFFFFFFFFFFFFFFFFFFFFFFFFFFFFF AND PUSH32 0xDDF252AD1BE2C89B69C2B068FC378DAA952BA7F163C4A11628F55A4DF523B3EF DUP5 PUSH1 0x40 MLOAD PUSH2 0x1756 SWAP2 SWAP1 PUSH2 0x1EE6 JUMP JUMPDEST PUSH1 0x40 MLOAD DUP1 SWAP2 SUB SWAP1 LOG3 PUSH2 0x176A DUP4 PUSH1 0x0 DUP5 PUSH2 0x1774 JUMP JUMPDEST POP POP POP JUMP JUMPDEST POP POP POP JUMP JUMPDEST POP POP POP JUMP JUMPDEST PUSH1 0x0 DUP2 CALLDATALOAD SWAP1 POP PUSH2 0x1788 DUP2 PUSH2 0x25EA JUMP JUMPDEST SWAP3 SWAP2 POP POP JUMP JUMPDEST PUSH1 0x0 DUP2 MLOAD SWAP1 POP PUSH2 0x179D DUP2 PUSH2 0x2601 JUMP JUMPDEST SWAP3 SWAP2 POP POP JUMP JUMPDEST PUSH1 0x0 DUP2 CALLDATALOAD SWAP1 POP PUSH2 0x17B2 DUP2 PUSH2 0x2618 JUMP JUMPDEST SWAP3 SWAP2 POP POP JUMP JUMPDEST PUSH1 0x0 DUP2 MLOAD SWAP1 POP PUSH2 0x17C7 DUP2 PUSH2 0x2618 JUMP JUMPDEST SWAP3 SWAP2 POP POP JUMP JUMPDEST PUSH1 0x0 PUSH1 0x20 DUP3 DUP5 SUB SLT ISZERO PUSH2 0x17E3 JUMPI PUSH2 0x17E2 PUSH2 0x21C8 JUMP JUMPDEST JUMPDEST PUSH1 0x0 PUSH2 0x17F1 DUP5 DUP3 DUP6 ADD PUSH2 0x1779 JUMP JUMPDEST SWAP2 POP POP SWAP3 SWAP2 POP POP JUMP JUMPDEST PUSH1 0x0 DUP1 PUSH1 0x40 DUP4 DUP6 SUB SLT ISZERO PUSH2 0x1811 JUMPI PUSH2 0x1810 PUSH2 0x21C8 JUMP JUMPDEST JUMPDEST PUSH1 0x0 PUSH2 0x181F DUP6 DUP3 DUP7 ADD PUSH2 0x1779 JUMP JUMPDEST SWAP3 POP POP PUSH1 0x20 PUSH2 0x1830 DUP6 DUP3 DUP7 ADD PUSH2 0x1779 JUMP JUMPDEST SWAP2 POP POP SWAP3 POP SWAP3 SWAP1 POP JUMP JUMPDEST PUSH1 0x0 DUP1 PUSH1 0x0 PUSH1 0x60 DUP5 DUP7 SUB SLT ISZERO PUSH2 0x1853 JUMPI PUSH2 0x1852 PUSH2 0x21C8 JUMP JUMPDEST JUMPDEST PUSH1 0x0 PUSH2 0x1861 DUP7 DUP3 DUP8 ADD PUSH2 0x1779 JUMP JUMPDEST SWAP4 POP POP PUSH1 0x20 PUSH2 0x1872 DUP7 DUP3 DUP8 ADD PUSH2 0x1779 JUMP JUMPDEST SWAP3 POP POP PUSH1 0x40 PUSH2 0x1883 DUP7 DUP3 DUP8 ADD PUSH2 0x17A3 JUMP JUMPDEST SWAP2 POP POP SWAP3 POP SWAP3 POP SWAP3 JUMP JUMPDEST PUSH1 0x0 DUP1 PUSH1 0x40 DUP4 DUP6 SUB SLT ISZERO PUSH2 0x18A4 JUMPI PUSH2 0x18A3 PUSH2 0x21C8 JUMP JUMPDEST JUMPDEST PUSH1 0x0 PUSH2 0x18B2 DUP6 DUP3 DUP7 ADD PUSH2 0x1779 JUMP JUMPDEST SWAP3 POP POP PUSH1 0x20 PUSH2 0x18C3 DUP6 DUP3 DUP7 ADD PUSH2 0x17A3 JUMP JUMPDEST SWAP2 POP POP SWAP3 POP SWAP3 SWAP1 POP JUMP JUMPDEST PUSH1 0x0 PUSH1 0x20 DUP3 DUP5 SUB SLT ISZERO PUSH2 0x18E3 JUMPI PUSH2 0x18E2 PUSH2 0x21C8 JUMP JUMPDEST JUMPDEST PUSH1 0x0 PUSH2 0x18F1 DUP5 DUP3 DUP6 ADD PUSH2 0x178E JUMP JUMPDEST SWAP2 POP POP SWAP3 SWAP2 POP POP JUMP JUMPDEST PUSH1 0x0 PUSH1 0x20 DUP3 DUP5 SUB SLT ISZERO PUSH2 0x1910 JUMPI PUSH2 0x190F PUSH2 0x21C8 JUMP JUMPDEST JUMPDEST PUSH1 0x0 PUSH2 0x191E DUP5 DUP3 DUP6 ADD PUSH2 0x17A3 JUMP JUMPDEST SWAP2 POP POP SWAP3 SWAP2 POP POP JUMP JUMPDEST PUSH1 0x0 PUSH1 0x20 DUP3 DUP5 SUB SLT ISZERO PUSH2 0x193D JUMPI PUSH2 0x193C PUSH2 0x21C8 JUMP JUMPDEST JUMPDEST PUSH1 0x0 PUSH2 0x194B DUP5 DUP3 DUP6 ADD PUSH2 0x17B8 JUMP JUMPDEST SWAP2 POP POP SWAP3 SWAP2 POP POP JUMP JUMPDEST PUSH1 0x0 DUP1 PUSH1 0x40 DUP4 DUP6 SUB SLT ISZERO PUSH2 0x196B JUMPI PUSH2 0x196A PUSH2 0x21C8 JUMP JUMPDEST JUMPDEST PUSH1 0x0 PUSH2 0x1979 DUP6 DUP3 DUP7 ADD PUSH2 0x17A3 JUMP JUMPDEST SWAP3 POP POP PUSH1 0x20 PUSH2 0x198A DUP6 DUP3 DUP7 ADD PUSH2 0x1779 JUMP JUMPDEST SWAP2 POP POP SWAP3 POP SWAP3 SWAP1 POP JUMP JUMPDEST PUSH2 0x199D DUP2 PUSH2 0x2081 JUMP JUMPDEST DUP3 MSTORE POP POP JUMP JUMPDEST PUSH2 0x19AC DUP2 PUSH2 0x2093 JUMP JUMPDEST DUP3 MSTORE POP POP JUMP JUMPDEST PUSH1 0x0 PUSH2 0x19BD DUP3 PUSH2 0x1F45 JUMP JUMPDEST PUSH2 0x19C7 DUP2 DUP6 PUSH2 0x1F5B JUMP JUMPDEST SWAP4 POP PUSH2 0x19D7 DUP2 DUP6 PUSH1 0x20 DUP7 ADD PUSH2 0x20D6 JUMP JUMPDEST PUSH2 0x19E0 DUP2 PUSH2 0x21CD JUMP JUMPDEST DUP5 ADD SWAP2 POP POP SWAP3 SWAP2 POP POP JUMP JUMPDEST PUSH1 0x0 PUSH2 0x19F8 PUSH1 0x23 DUP4 PUSH2 0x1F5B JUMP JUMPDEST SWAP2 POP PUSH2 0x1A03 DUP3 PUSH2 0x21DE JUMP JUMPDEST PUSH1 0x40 DUP3 ADD SWAP1 POP SWAP2 SWAP1 POP JUMP JUMPDEST PUSH1 0x0 PUSH2 0x1A1B PUSH1 0x22 DUP4 PUSH2 0x1F5B JUMP JUMPDEST SWAP2 POP PUSH2 0x1A26 DUP3 PUSH2 0x222D JUMP JUMPDEST PUSH1 0x40 DUP3 ADD SWAP1 POP SWAP2 SWAP1 POP JUMP JUMPDEST PUSH1 0x0 PUSH2 0x1A3E PUSH1 0x22 DUP4 PUSH2 0x1F5B JUMP JUMPDEST SWAP2 POP PUSH2 0x1A49 DUP3 PUSH2 0x227C JUMP JUMPDEST PUSH1 0x40 DUP3 ADD SWAP1 POP SWAP2 SWAP1 POP JUMP JUMPDEST PUSH1 0x0 PUSH2 0x1A61 PUSH1 0x29 DUP4 PUSH2 0x1F5B JUMP JUMPDEST SWAP2 POP PUSH2 0x1A6C DUP3 PUSH2 0x22CB JUMP JUMPDEST PUSH1 0x40 DUP3 ADD SWAP1 POP SWAP2 SWAP1 POP JUMP JUMPDEST PUSH1 0x0 PUSH2 0x1A84 PUSH1 0x1D DUP4 PUSH2 0x1F5B JUMP JUMPDEST SWAP2 POP PUSH2 0x1A8F DUP3 PUSH2 0x231A JUMP JUMPDEST PUSH1 0x20 DUP3 ADD SWAP1 POP SWAP2 SWAP1 POP JUMP JUMPDEST PUSH1 0x0 PUSH2 0x1AA7 PUSH1 0x26 DUP4 PUSH2 0x1F5B JUMP JUMPDEST SWAP2 POP PUSH2 0x1AB2 DUP3 PUSH2 0x2343 JUMP JUMPDEST PUSH1 0x40 DUP3 ADD SWAP1 POP SWAP2 SWAP1 POP JUMP JUMPDEST PUSH1 0x0 PUSH2 0x1ACA PUSH1 0x37 DUP4 PUSH2 0x1F5B JUMP JUMPDEST SWAP2 POP PUSH2 0x1AD5 DUP3 PUSH2 0x2392 JUMP JUMPDEST PUSH1 0x40 DUP3 ADD SWAP1 POP SWAP2 SWAP1 POP JUMP JUMPDEST PUSH1 0x0 PUSH2 0x1AED PUSH1 0x21 DUP4 PUSH2 0x1F5B JUMP JUMPDEST SWAP2 POP PUSH2 0x1AF8 DUP3 PUSH2 0x23E1 JUMP JUMPDEST PUSH1 0x40 DUP3 ADD SWAP1 POP SWAP2 SWAP1 POP JUMP JUMPDEST PUSH1 0x0 PUSH2 0x1B10 PUSH1 0x19 DUP4 PUSH2 0x1F5B JUMP JUMPDEST SWAP2 POP PUSH2 0x1B1B DUP3 PUSH2 0x2430 JUMP JUMPDEST PUSH1 0x20 DUP3 ADD SWAP1 POP SWAP2 SWAP1 POP JUMP JUMPDEST PUSH1 0x0 PUSH2 0x1B33 PUSH1 0x25 DUP4 PUSH2 0x1F5B JUMP JUMPDEST SWAP2 POP PUSH2 0x1B3E DUP3 PUSH2 0x2459 JUMP JUMPDEST PUSH1 0x40 DUP3 ADD SWAP1 POP SWAP2 SWAP1 POP JUMP JUMPDEST PUSH1 0x0 PUSH2 0x1B56 PUSH1 0x25 DUP4 PUSH2 0x1F5B JUMP JUMPDEST SWAP2 POP PUSH2 0x1B61 DUP3 PUSH2 0x24A8 JUMP JUMPDEST PUSH1 0x40 DUP3 ADD SWAP1 POP SWAP2 SWAP1 POP JUMP JUMPDEST PUSH1 0x0 PUSH2 0x1B79 PUSH1 0x0 DUP4 PUSH2 0x1F50 JUMP JUMPDEST SWAP2 POP PUSH2 0x1B84 DUP3 PUSH2 0x24F7 JUMP JUMPDEST PUSH1 0x0 DUP3 ADD SWAP1 POP SWAP2 SWAP1 POP JUMP JUMPDEST PUSH1 0x0 PUSH2 0x1B9C PUSH1 0x15 DUP4 PUSH2 0x1F5B JUMP JUMPDEST SWAP2 POP PUSH2 0x1BA7 DUP3 PUSH2 0x24FA JUMP JUMPDEST PUSH1 0x20 DUP3 ADD SWAP1 POP SWAP2 SWAP1 POP JUMP JUMPDEST PUSH1 0x0 PUSH2 0x1BBF PUSH1 0x24 DUP4 PUSH2 0x1F5B JUMP JUMPDEST SWAP2 POP PUSH2 0x1BCA DUP3 PUSH2 0x2523 JUMP JUMPDEST PUSH1 0x40 DUP3 ADD SWAP1 POP SWAP2 SWAP1 POP JUMP JUMPDEST PUSH1 0x0 PUSH2 0x1BE2 PUSH1 0x25 DUP4 PUSH2 0x1F5B JUMP JUMPDEST SWAP2 POP PUSH2 0x1BED DUP3 PUSH2 0x2572 JUMP JUMPDEST PUSH1 0x40 DUP3 ADD SWAP1 POP SWAP2 SWAP1 POP JUMP JUMPDEST PUSH1 0x0 PUSH2 0x1C05 PUSH1 0x1F DUP4 PUSH2 0x1F5B JUMP JUMPDEST SWAP2 POP PUSH2 0x1C10 DUP3 PUSH2 0x25C1 JUMP JUMPDEST PUSH1 0x20 DUP3 ADD SWAP1 POP SWAP2 SWAP1 POP JUMP JUMPDEST PUSH2 0x1C24 DUP2 PUSH2 0x20BF JUMP JUMPDEST DUP3 MSTORE POP POP JUMP JUMPDEST PUSH2 0x1C33 DUP2 PUSH2 0x20C9 JUMP JUMPDEST DUP3 MSTORE POP POP JUMP JUMPDEST PUSH1 0x0 PUSH2 0x1C44 DUP3 PUSH2 0x1B6C JUMP JUMPDEST SWAP2 POP DUP2 SWAP1 POP SWAP2 SWAP1 POP JUMP JUMPDEST PUSH1 0x0 PUSH1 0x20 DUP3 ADD SWAP1 POP PUSH2 0x1C63 PUSH1 0x0 DUP4 ADD DUP5 PUSH2 0x1994 JUMP JUMPDEST SWAP3 SWAP2 POP POP JUMP JUMPDEST PUSH1 0x0 PUSH1 0x60 DUP3 ADD SWAP1 POP PUSH2 0x1C7E PUSH1 0x0 DUP4 ADD DUP7 PUSH2 0x1994 JUMP JUMPDEST PUSH2 0x1C8B PUSH1 0x20 DUP4 ADD DUP6 PUSH2 0x1994 JUMP JUMPDEST PUSH2 0x1C98 PUSH1 0x40 DUP4 ADD DUP5 PUSH2 0x1C1B JUMP JUMPDEST SWAP5 SWAP4 POP POP POP POP JUMP JUMPDEST PUSH1 0x0 PUSH1 0x40 DUP3 ADD SWAP1 POP PUSH2 0x1CB5 PUSH1 0x0 DUP4 ADD DUP6 PUSH2 0x1994 JUMP JUMPDEST PUSH2 0x1CC2 PUSH1 0x20 DUP4 ADD DUP5 PUSH2 0x1C1B JUMP JUMPDEST SWAP4 SWAP3 POP POP POP JUMP JUMPDEST PUSH1 0x0 PUSH1 0x20 DUP3 ADD SWAP1 POP PUSH2 0x1CDE PUSH1 0x0 DUP4 ADD DUP5 PUSH2 0x19A3 JUMP JUMPDEST SWAP3 SWAP2 POP POP JUMP JUMPDEST PUSH1 0x0 PUSH1 0x20 DUP3 ADD SWAP1 POP DUP2 DUP2 SUB PUSH1 0x0 DUP4 ADD MSTORE PUSH2 0x1CFE DUP2 DUP5 PUSH2 0x19B2 JUMP JUMPDEST SWAP1 POP SWAP3 SWAP2 POP POP JUMP JUMPDEST PUSH1 0x0 PUSH1 0x20 DUP3 ADD SWAP1 POP DUP2 DUP2 SUB PUSH1 0x0 DUP4 ADD MSTORE PUSH2 0x1D1F DUP2 PUSH2 0x19EB JUMP JUMPDEST SWAP1 POP SWAP2 SWAP1 POP JUMP JUMPDEST PUSH1 0x0 PUSH1 0x20 DUP3 ADD SWAP1 POP DUP2 DUP2 SUB PUSH1 0x0 DUP4 ADD MSTORE PUSH2 0x1D3F DUP2 PUSH2 0x1A0E JUMP JUMPDEST SWAP1 POP SWAP2 SWAP1 POP JUMP JUMPDEST PUSH1 0x0 PUSH1 0x20 DUP3 ADD SWAP1 POP DUP2 DUP2 SUB PUSH1 0x0 DUP4 ADD MSTORE PUSH2 0x1D5F DUP2 PUSH2 0x1A31 JUMP JUMPDEST SWAP1 POP SWAP2 SWAP1 POP JUMP JUMPDEST PUSH1 0x0 PUSH1 0x20 DUP3 ADD SWAP1 POP DUP2 DUP2 SUB PUSH1 0x0 DUP4 ADD MSTORE PUSH2 0x1D7F DUP2 PUSH2 0x1A54 JUMP JUMPDEST SWAP1 POP SWAP2 SWAP1 POP JUMP JUMPDEST PUSH1 0x0 PUSH1 0x20 DUP3 ADD SWAP1 POP DUP2 DUP2 SUB PUSH1 0x0 DUP4 ADD MSTORE PUSH2 0x1D9F DUP2 PUSH2 0x1A77 JUMP JUMPDEST SWAP1 POP SWAP2 SWAP1 POP JUMP JUMPDEST PUSH1 0x0 PUSH1 0x20 DUP3 ADD SWAP1 POP DUP2 DUP2 SUB PUSH1 0x0 DUP4 ADD MSTORE PUSH2 0x1DBF DUP2 PUSH2 0x1A9A JUMP JUMPDEST SWAP1 POP SWAP2 SWAP1 POP JUMP JUMPDEST PUSH1 0x0 PUSH1 0x20 DUP3 ADD SWAP1 POP DUP2 DUP2 SUB PUSH1 0x0 DUP4 ADD MSTORE PUSH2 0x1DDF DUP2 PUSH2 0x1ABD JUMP JUMPDEST SWAP1 POP SWAP2 SWAP1 POP JUMP JUMPDEST PUSH1 0x0 PUSH1 0x20 DUP3 ADD SWAP1 POP DUP2 DUP2 SUB PUSH1 0x0 DUP4 ADD MSTORE PUSH2 0x1DFF DUP2 PUSH2 0x1AE0 JUMP JUMPDEST SWAP1 POP SWAP2 SWAP1 POP JUMP JUMPDEST PUSH1 0x0 PUSH1 0x20 DUP3 ADD SWAP1 POP DUP2 DUP2 SUB PUSH1 0x0 DUP4 ADD MSTORE PUSH2 0x1E1F DUP2 PUSH2 0x1B03 JUMP JUMPDEST SWAP1 POP SWAP2 SWAP1 POP JUMP JUMPDEST PUSH1 0x0 PUSH1 0x20 DUP3 ADD SWAP1 POP DUP2 DUP2 SUB PUSH1 0x0 DUP4 ADD MSTORE PUSH2 0x1E3F DUP2 PUSH2 0x1B26 JUMP JUMPDEST SWAP1 POP SWAP2 SWAP1 POP JUMP JUMPDEST PUSH1 0x0 PUSH1 0x20 DUP3 ADD SWAP1 POP DUP2 DUP2 SUB PUSH1 0x0 DUP4 ADD MSTORE PUSH2 0x1E5F DUP2 PUSH2 0x1B49 JUMP JUMPDEST SWAP1 POP SWAP2 SWAP1 POP JUMP JUMPDEST PUSH1 0x0 PUSH1 0x20 DUP3 ADD SWAP1 POP DUP2 DUP2 SUB PUSH1 0x0 DUP4 ADD MSTORE PUSH2 0x1E7F DUP2 PUSH2 0x1B8F JUMP JUMPDEST SWAP1 POP SWAP2 SWAP1 POP JUMP JUMPDEST PUSH1 0x0 PUSH1 0x20 DUP3 ADD SWAP1 POP DUP2 DUP2 SUB PUSH1 0x0 DUP4 ADD MSTORE PUSH2 0x1E9F DUP2 PUSH2 0x1BB2 JUMP JUMPDEST SWAP1 POP SWAP2 SWAP1 POP JUMP JUMPDEST PUSH1 0x0 PUSH1 0x20 DUP3 ADD SWAP1 POP DUP2 DUP2 SUB PUSH1 0x0 DUP4 ADD MSTORE PUSH2 0x1EBF DUP2 PUSH2 0x1BD5 JUMP JUMPDEST SWAP1 POP SWAP2 SWAP1 POP JUMP JUMPDEST PUSH1 0x0 PUSH1 0x20 DUP3 ADD SWAP1 POP DUP2 DUP2 SUB PUSH1 0x0 DUP4 ADD MSTORE PUSH2 0x1EDF DUP2 PUSH2 0x1BF8 JUMP JUMPDEST SWAP1 POP SWAP2 SWAP1 POP JUMP JUMPDEST PUSH1 0x0 PUSH1 0x20 DUP3 ADD SWAP1 POP PUSH2 0x1EFB PUSH1 0x0 DUP4 ADD DUP5 PUSH2 0x1C1B JUMP JUMPDEST SWAP3 SWAP2 POP POP JUMP JUMPDEST PUSH1 0x0 PUSH1 0x40 DUP3 ADD SWAP1 POP PUSH2 0x1F16 PUSH1 0x0 DUP4 ADD DUP6 PUSH2 0x1C1B JUMP JUMPDEST PUSH2 0x1F23 PUSH1 0x20 DUP4 ADD DUP5 PUSH2 0x1C1B JUMP JUMPDEST SWAP4 SWAP3 POP POP POP JUMP JUMPDEST PUSH1 0x0 PUSH1 0x20 DUP3 ADD SWAP1 POP PUSH2 0x1F3F PUSH1 0x0 DUP4 ADD DUP5 PUSH2 0x1C2A JUMP JUMPDEST SWAP3 SWAP2 POP POP JUMP JUMPDEST PUSH1 0x0 DUP2 MLOAD SWAP1 POP SWAP2 SWAP1 POP JUMP JUMPDEST PUSH1 0x0 DUP2 SWAP1 POP SWAP3 SWAP2 POP POP JUMP JUMPDEST PUSH1 0x0 DUP3 DUP3 MSTORE PUSH1 0x20 DUP3 ADD SWAP1 POP SWAP3 SWAP2 POP POP JUMP JUMPDEST PUSH1 0x0 PUSH2 0x1F77 DUP3 PUSH2 0x20BF JUMP JUMPDEST SWAP2 POP PUSH2 0x1F82 DUP4 PUSH2 0x20BF JUMP JUMPDEST SWAP3 POP DUP3 PUSH32 0xFFFFFFFFFFFFFFFFFFFFFFFFFFFFFFFFFFFFFFFFFFFFFFFFFFFFFFFFFFFFFFFF SUB DUP3 GT ISZERO PUSH2 0x1FB7 JUMPI PUSH2 0x1FB6 PUSH2 0x213B JUMP JUMPDEST JUMPDEST DUP3 DUP3 ADD SWAP1 POP SWAP3 SWAP2 POP POP JUMP JUMPDEST PUSH1 0x0 PUSH2 0x1FCD DUP3 PUSH2 0x20BF JUMP JUMPDEST SWAP2 POP PUSH2 0x1FD8 DUP4 PUSH2 0x20BF JUMP JUMPDEST SWAP3 POP DUP3 PUSH2 0x1FE8 JUMPI PUSH2 0x1FE7 PUSH2 0x216A JUMP JUMPDEST JUMPDEST DUP3 DUP3 DIV SWAP1 POP SWAP3 SWAP2 POP POP JUMP JUMPDEST PUSH1 0x0 PUSH2 0x1FFE DUP3 PUSH2 0x20BF JUMP JUMPDEST SWAP2 POP PUSH2 0x2009 DUP4 PUSH2 0x20BF JUMP JUMPDEST SWAP3 POP DUP2 PUSH32 0xFFFFFFFFFFFFFFFFFFFFFFFFFFFFFFFFFFFFFFFFFFFFFFFFFFFFFFFFFFFFFFFF DIV DUP4 GT DUP3 ISZERO ISZERO AND ISZERO PUSH2 0x2042 JUMPI PUSH2 0x2041 PUSH2 0x213B JUMP JUMPDEST JUMPDEST DUP3 DUP3 MUL SWAP1 POP SWAP3 SWAP2 POP POP JUMP JUMPDEST PUSH1 0x0 PUSH2 0x2058 DUP3 PUSH2 0x20BF JUMP JUMPDEST SWAP2 POP PUSH2 0x2063 DUP4 PUSH2 0x20BF JUMP JUMPDEST SWAP3 POP DUP3 DUP3 LT ISZERO PUSH2 0x2076 JUMPI PUSH2 0x2075 PUSH2 0x213B JUMP JUMPDEST JUMPDEST DUP3 DUP3 SUB SWAP1 POP SWAP3 SWAP2 POP POP JUMP JUMPDEST PUSH1 0x0 PUSH2 0x208C DUP3 PUSH2 0x209F JUMP JUMPDEST SWAP1 POP SWAP2 SWAP1 POP JUMP JUMPDEST PUSH1 0x0 DUP2 ISZERO ISZERO SWAP1 POP SWAP2 SWAP1 POP JUMP JUMPDEST PUSH1 0x0 PUSH20 0xFFFFFFFFFFFFFFFFFFFFFFFFFFFFFFFFFFFFFFFF DUP3 AND SWAP1 POP SWAP2 SWAP1 POP JUMP JUMPDEST PUSH1 0x0 DUP2 SWAP1 POP SWAP2 SWAP1 POP JUMP JUMPDEST PUSH1 0x0 PUSH1 0xFF DUP3 AND SWAP1 POP SWAP2 SWAP1 POP JUMP JUMPDEST PUSH1 0x0 JUMPDEST DUP4 DUP2 LT ISZERO PUSH2 0x20F4 JUMPI DUP1 DUP3 ADD MLOAD DUP2 DUP5 ADD MSTORE PUSH1 0x20 DUP2 ADD SWAP1 POP PUSH2 0x20D9 JUMP JUMPDEST DUP4 DUP2 GT ISZERO PUSH2 0x2103 JUMPI PUSH1 0x0 DUP5 DUP5 ADD MSTORE JUMPDEST POP POP POP POP JUMP JUMPDEST PUSH1 0x0 PUSH1 0x2 DUP3 DIV SWAP1 POP PUSH1 0x1 DUP3 AND DUP1 PUSH2 0x2121 JUMPI PUSH1 0x7F DUP3 AND SWAP2 POP JUMPDEST PUSH1 0x20 DUP3 LT DUP2 EQ ISZERO PUSH2 0x2135 JUMPI PUSH2 0x2134 PUSH2 0x2199 JUMP JUMPDEST JUMPDEST POP SWAP2 SWAP1 POP JUMP JUMPDEST PUSH32 0x4E487B7100000000000000000000000000000000000000000000000000000000 PUSH1 0x0 MSTORE PUSH1 0x11 PUSH1 0x4 MSTORE PUSH1 0x24 PUSH1 0x0 REVERT JUMPDEST PUSH32 0x4E487B7100000000000000000000000000000000000000000000000000000000 PUSH1 0x0 MSTORE PUSH1 0x12 PUSH1 0x4 MSTORE PUSH1 0x24 PUSH1 0x0 REVERT JUMPDEST PUSH32 0x4E487B7100000000000000000000000000000000000000000000000000000000 PUSH1 0x0 MSTORE PUSH1 0x22 PUSH1 0x4 MSTORE PUSH1 0x24 PUSH1 0x0 REVERT JUMPDEST PUSH1 0x0 DUP1 REVERT JUMPDEST PUSH1 0x0 PUSH1 0x1F NOT PUSH1 0x1F DUP4 ADD AND SWAP1 POP SWAP2 SWAP1 POP JUMP JUMPDEST PUSH32 0x45524332303A207472616E7366657220746F20746865207A65726F2061646472 PUSH1 0x0 DUP3 ADD MSTORE PUSH32 0x6573730000000000000000000000000000000000000000000000000000000000 PUSH1 0x20 DUP3 ADD MSTORE POP JUMP JUMPDEST PUSH32 0x45524332303A206275726E20616D6F756E7420657863656564732062616C616E PUSH1 0x0 DUP3 ADD MSTORE PUSH32 0x6365000000000000000000000000000000000000000000000000000000000000 PUSH1 0x20 DUP3 ADD MSTORE POP JUMP JUMPDEST PUSH32 0x45524332303A20617070726F766520746F20746865207A65726F206164647265 PUSH1 0x0 DUP3 ADD MSTORE PUSH32 0x7373000000000000000000000000000000000000000000000000000000000000 PUSH1 0x20 DUP3 ADD MSTORE POP JUMP JUMPDEST PUSH32 0x496E73756666696369656E7420696E70757420616D6F756E74206F6620455243 PUSH1 0x0 DUP3 ADD MSTORE PUSH32 0x323020546F6B656E730000000000000000000000000000000000000000000000 PUSH1 0x20 DUP3 ADD MSTORE POP JUMP JUMPDEST PUSH32 0x45524332303A20696E73756666696369656E7420616C6C6F77616E6365000000 PUSH1 0x0 DUP3 ADD MSTORE POP JUMP JUMPDEST PUSH32 0x45524332303A207472616E7366657220616D6F756E7420657863656564732062 PUSH1 0x0 DUP3 ADD MSTORE PUSH32 0x616C616E63650000000000000000000000000000000000000000000000000000 PUSH1 0x20 DUP3 ADD MSTORE POP JUMP JUMPDEST PUSH32 0x506C6561736520696E70757420612076616C696420616D6F756E74206F66204C PUSH1 0x0 DUP3 ADD MSTORE PUSH32 0x5020546F6B656E7320746F206275726E2F72656465656D000000000000000000 PUSH1 0x20 DUP3 ADD MSTORE POP JUMP JUMPDEST PUSH32 0x45524332303A206275726E2066726F6D20746865207A65726F20616464726573 PUSH1 0x0 DUP3 ADD MSTORE PUSH32 0x7300000000000000000000000000000000000000000000000000000000000000 PUSH1 0x20 DUP3 ADD MSTORE POP JUMP JUMPDEST PUSH32 0x45544820616D6F756E742063616E6E6F74206265207A65726F00000000000000 PUSH1 0x0 DUP3 ADD MSTORE POP JUMP JUMPDEST PUSH32 0x45524332303A207472616E736665722066726F6D20746865207A65726F206164 PUSH1 0x0 DUP3 ADD MSTORE PUSH32 0x6472657373000000000000000000000000000000000000000000000000000000 PUSH1 0x20 DUP3 ADD MSTORE POP JUMP JUMPDEST PUSH32 0x5472616E73616374696F6E206F662045746865722077617320756E7375636365 PUSH1 0x0 DUP3 ADD MSTORE PUSH32 0x737366756C000000000000000000000000000000000000000000000000000000 PUSH1 0x20 DUP3 ADD MSTORE POP JUMP JUMPDEST POP JUMP JUMPDEST PUSH32 0x546865726520617265206E6F2072657365727665730000000000000000000000 PUSH1 0x0 DUP3 ADD MSTORE POP JUMP JUMPDEST PUSH32 0x45524332303A20617070726F76652066726F6D20746865207A65726F20616464 PUSH1 0x0 DUP3 ADD MSTORE PUSH32 0x7265737300000000000000000000000000000000000000000000000000000000 PUSH1 0x20 DUP3 ADD MSTORE POP JUMP JUMPDEST PUSH32 0x45524332303A2064656372656173656420616C6C6F77616E63652062656C6F77 PUSH1 0x0 DUP3 ADD MSTORE PUSH32 0x207A65726F000000000000000000000000000000000000000000000000000000 PUSH1 0x20 DUP3 ADD MSTORE POP JUMP JUMPDEST PUSH32 0x45524332303A206D696E7420746F20746865207A65726F206164647265737300 PUSH1 0x0 DUP3 ADD MSTORE POP JUMP JUMPDEST PUSH2 0x25F3 DUP2 PUSH2 0x2081 JUMP JUMPDEST DUP2 EQ PUSH2 0x25FE JUMPI PUSH1 0x0 DUP1 REVERT JUMPDEST POP JUMP JUMPDEST PUSH2 0x260A DUP2 PUSH2 0x2093 JUMP JUMPDEST DUP2 EQ PUSH2 0x2615 JUMPI PUSH1 0x0 DUP1 REVERT JUMPDEST POP JUMP JUMPDEST PUSH2 0x2621 DUP2 PUSH2 0x20BF JUMP JUMPDEST DUP2 EQ PUSH2 0x262C JUMPI PUSH1 0x0 DUP1 REVERT JUMPDEST POP JUMP INVALID LOG2 PUSH5 0x6970667358 0x22 SLT KECCAK256 PUSH6 0xF005AD057D42 0xF9 INVALID 0x5D 0x27 0xEF PUSH12 0xADF1A9A8FAA490D8A2C116A5 SWAP10 0xAE 0xF7 0x5D ADD 0xC7 SAR PUSH5 0x736F6C6343 STOP ADDMOD SMOD STOP CALLER "
				},
				"gasEstimates": {
					"creation": {
						"codeDepositCost": "1965800",
						"executionCost": "infinite",
						"totalCost": "infinite"
					},
					"external": {
						"addLiquidity(uint256)": "infinite",
						"allowance(address,address)": "infinite",
						"approve(address,uint256)": "infinite",
						"balanceOf(address)": "2908",
						"decimals()": "432",
						"decreaseAllowance(address,uint256)": "infinite",
						"ethForTokenHigh(uint256,address)": "649",
						"factoryAddress()": "2625",
						"getEthAmountForSwap(uint256)": "786",
						"getReserves()": "infinite",
						"getTokenAmountForSwap(uint256)": "infinite",
						"increaseAllowance(address,uint256)": "infinite",
						"name()": "infinite",
						"removeLiquidity(uint256)": "infinite",
						"symbol()": "infinite",
						"tokenAddress()": "2558",
						"totalSupply()": "2460",
						"transfer(address,uint256)": "infinite",
						"transferFrom(address,address,uint256)": "infinite"
					},
					"internal": {
						"ethForTokenBasic(uint256,address)": "infinite",
						"getOutputAmount(uint256,uint256,uint256)": "infinite"
					}
				},
				"methodIdentifiers": {
					"addLiquidity(uint256)": "51c6590a",
					"allowance(address,address)": "dd62ed3e",
					"approve(address,uint256)": "095ea7b3",
					"balanceOf(address)": "70a08231",
					"decimals()": "313ce567",
					"decreaseAllowance(address,uint256)": "a457c2d7",
					"ethForTokenHigh(uint256,address)": "6e9e8116",
					"factoryAddress()": "966dae0e",
					"getEthAmountForSwap(uint256)": "2c0c60a4",
					"getReserves()": "0902f1ac",
					"getTokenAmountForSwap(uint256)": "0f8070b4",
					"increaseAllowance(address,uint256)": "39509351",
					"name()": "06fdde03",
					"removeLiquidity(uint256)": "9c8f9f23",
					"symbol()": "95d89b41",
					"tokenAddress()": "9d76ea58",
					"totalSupply()": "18160ddd",
					"transfer(address,uint256)": "a9059cbb",
					"transferFrom(address,address,uint256)": "23b872dd"
				}
			},
			"storageLayout": {
				"storage": [
					{
						"astId": 15,
						"contract": "contracts/Pair.sol:Pair",
						"label": "_balances",
						"offset": 0,
						"slot": "0",
						"type": "t_mapping(t_address,t_uint256)"
					},
					{
						"astId": 21,
						"contract": "contracts/Pair.sol:Pair",
						"label": "_allowances",
						"offset": 0,
						"slot": "1",
						"type": "t_mapping(t_address,t_mapping(t_address,t_uint256))"
					},
					{
						"astId": 23,
						"contract": "contracts/Pair.sol:Pair",
						"label": "_totalSupply",
						"offset": 0,
						"slot": "2",
						"type": "t_uint256"
					},
					{
						"astId": 25,
						"contract": "contracts/Pair.sol:Pair",
						"label": "_name",
						"offset": 0,
						"slot": "3",
						"type": "t_string_storage"
					},
					{
						"astId": 27,
						"contract": "contracts/Pair.sol:Pair",
						"label": "_symbol",
						"offset": 0,
						"slot": "4",
						"type": "t_string_storage"
					},
					{
						"astId": 739,
						"contract": "contracts/Pair.sol:Pair",
						"label": "tokenAddress",
						"offset": 0,
						"slot": "5",
						"type": "t_address"
					},
					{
						"astId": 741,
						"contract": "contracts/Pair.sol:Pair",
						"label": "factoryAddress",
						"offset": 0,
						"slot": "6",
						"type": "t_address"
					}
				],
				"types": {
					"t_address": {
						"encoding": "inplace",
						"label": "address",
						"numberOfBytes": "20"
					},
					"t_mapping(t_address,t_mapping(t_address,t_uint256))": {
						"encoding": "mapping",
						"key": "t_address",
						"label": "mapping(address => mapping(address => uint256))",
						"numberOfBytes": "32",
						"value": "t_mapping(t_address,t_uint256)"
					},
					"t_mapping(t_address,t_uint256)": {
						"encoding": "mapping",
						"key": "t_address",
						"label": "mapping(address => uint256)",
						"numberOfBytes": "32",
						"value": "t_uint256"
					},
					"t_string_storage": {
						"encoding": "bytes",
						"label": "string",
						"numberOfBytes": "32"
					},
					"t_uint256": {
						"encoding": "inplace",
						"label": "uint256",
						"numberOfBytes": "32"
					}
				}
			},
			"userdoc": {
				"kind": "user",
				"methods": {},
				"version": 1
			}
		}
	}
}