{
	"contracts/Pair.sol": {
		"Pair": {
			"abi": [
				{
					"inputs": [
						{
							"internalType": "address",
							"name": "token",
							"type": "address"
						}
					],
					"stateMutability": "nonpayable",
					"type": "constructor"
				},
				{
					"anonymous": false,
					"inputs": [
						{
							"indexed": true,
							"internalType": "address",
							"name": "provider",
							"type": "address"
						},
						{
							"indexed": true,
							"internalType": "uint256",
							"name": "ethAmount",
							"type": "uint256"
						},
						{
							"indexed": true,
							"internalType": "uint256",
							"name": "tokenAmount",
							"type": "uint256"
						}
					],
					"name": "AddLiquidity",
					"type": "event"
				},
				{
					"anonymous": false,
					"inputs": [
						{
							"indexed": true,
							"internalType": "address",
							"name": "owner",
							"type": "address"
						},
						{
							"indexed": true,
							"internalType": "address",
							"name": "spender",
							"type": "address"
						},
						{
							"indexed": false,
							"internalType": "uint256",
							"name": "value",
							"type": "uint256"
						}
					],
					"name": "Approval",
					"type": "event"
				},
				{
					"anonymous": false,
					"inputs": [
						{
							"indexed": true,
							"internalType": "address",
							"name": "provider",
							"type": "address"
						},
						{
							"indexed": true,
							"internalType": "uint256",
							"name": "ethAmount",
							"type": "uint256"
						},
						{
							"indexed": true,
							"internalType": "uint256",
							"name": "tokenAmount",
							"type": "uint256"
						}
					],
					"name": "RemoveLiquidity",
					"type": "event"
				},
				{
					"anonymous": false,
					"inputs": [
						{
							"indexed": true,
							"internalType": "address",
							"name": "buyer",
							"type": "address"
						},
						{
							"indexed": true,
							"internalType": "uint256",
							"name": "tokensGiven",
							"type": "uint256"
						},
						{
							"indexed": false,
							"internalType": "uint256",
							"name": "ethRecieved",
							"type": "uint256"
						}
					],
					"name": "SwapForEth",
					"type": "event"
				},
				{
					"anonymous": false,
					"inputs": [
						{
							"indexed": true,
							"internalType": "address",
							"name": "buyer",
							"type": "address"
						},
						{
							"indexed": true,
							"internalType": "uint256",
							"name": "ethGiven",
							"type": "uint256"
						},
						{
							"indexed": false,
							"internalType": "uint256",
							"name": "tokensRecieved",
							"type": "uint256"
						}
					],
					"name": "SwapForTokens",
					"type": "event"
				},
				{
					"anonymous": false,
					"inputs": [
						{
							"indexed": true,
							"internalType": "address",
							"name": "from",
							"type": "address"
						},
						{
							"indexed": true,
							"internalType": "address",
							"name": "to",
							"type": "address"
						},
						{
							"indexed": false,
							"internalType": "uint256",
							"name": "value",
							"type": "uint256"
						}
					],
					"name": "Transfer",
					"type": "event"
				},
				{
					"inputs": [
						{
							"internalType": "uint256",
							"name": "inputTokenAmount",
							"type": "uint256"
						}
					],
					"name": "addLiquidity",
					"outputs": [
						{
							"internalType": "uint256",
							"name": "lpTokenAmount",
							"type": "uint256"
						}
					],
					"stateMutability": "payable",
					"type": "function"
				},
				{
					"inputs": [
						{
							"internalType": "address",
							"name": "owner",
							"type": "address"
						},
						{
							"internalType": "address",
							"name": "spender",
							"type": "address"
						}
					],
					"name": "allowance",
					"outputs": [
						{
							"internalType": "uint256",
							"name": "",
							"type": "uint256"
						}
					],
					"stateMutability": "view",
					"type": "function"
				},
				{
					"inputs": [
						{
							"internalType": "address",
							"name": "spender",
							"type": "address"
						},
						{
							"internalType": "uint256",
							"name": "amount",
							"type": "uint256"
						}
					],
					"name": "approve",
					"outputs": [
						{
							"internalType": "bool",
							"name": "",
							"type": "bool"
						}
					],
					"stateMutability": "nonpayable",
					"type": "function"
				},
				{
					"inputs": [
						{
							"internalType": "address",
							"name": "account",
							"type": "address"
						}
					],
					"name": "balanceOf",
					"outputs": [
						{
							"internalType": "uint256",
							"name": "",
							"type": "uint256"
						}
					],
					"stateMutability": "view",
					"type": "function"
				},
				{
					"inputs": [],
					"name": "decimals",
					"outputs": [
						{
							"internalType": "uint8",
							"name": "",
							"type": "uint8"
						}
					],
					"stateMutability": "view",
					"type": "function"
				},
				{
					"inputs": [
						{
							"internalType": "address",
							"name": "spender",
							"type": "address"
						},
						{
							"internalType": "uint256",
							"name": "subtractedValue",
							"type": "uint256"
						}
					],
					"name": "decreaseAllowance",
					"outputs": [
						{
							"internalType": "bool",
							"name": "",
							"type": "bool"
						}
					],
					"stateMutability": "nonpayable",
					"type": "function"
				},
				{
					"inputs": [
						{
							"internalType": "uint256",
							"name": "tokenAmount",
							"type": "uint256"
						}
					],
					"name": "ethToTokenSwap",
					"outputs": [],
					"stateMutability": "payable",
					"type": "function"
				},
				{
					"inputs": [
						{
							"internalType": "uint256",
							"name": "tokenAmount",
							"type": "uint256"
						},
						{
							"internalType": "address",
							"name": "recipient",
							"type": "address"
						}
					],
					"name": "ethToTokenTransfer",
					"outputs": [],
					"stateMutability": "payable",
					"type": "function"
				},
				{
					"inputs": [],
					"name": "factoryAddress",
					"outputs": [
						{
							"internalType": "address",
							"name": "",
							"type": "address"
						}
					],
					"stateMutability": "view",
					"type": "function"
				},
				{
					"inputs": [
						{
							"internalType": "uint256",
							"name": "tokenAmount",
							"type": "uint256"
						}
					],
					"name": "getEthAmountForSwap",
					"outputs": [
						{
							"internalType": "uint256",
							"name": "ethAmount",
							"type": "uint256"
						}
					],
					"stateMutability": "view",
					"type": "function"
				},
				{
					"inputs": [],
					"name": "getReserves",
					"outputs": [
						{
							"internalType": "uint256",
							"name": "tokenReserve",
							"type": "uint256"
						},
						{
							"internalType": "uint256",
							"name": "ethReserve",
							"type": "uint256"
						}
					],
					"stateMutability": "view",
					"type": "function"
				},
				{
					"inputs": [
						{
							"internalType": "uint256",
							"name": "ethAmount",
							"type": "uint256"
						}
					],
					"name": "getTokenAmountForSwap",
					"outputs": [
						{
							"internalType": "uint256",
							"name": "tokenAmount",
							"type": "uint256"
						}
					],
					"stateMutability": "view",
					"type": "function"
				},
				{
					"inputs": [
						{
							"internalType": "address",
							"name": "spender",
							"type": "address"
						},
						{
							"internalType": "uint256",
							"name": "addedValue",
							"type": "uint256"
						}
					],
					"name": "increaseAllowance",
					"outputs": [
						{
							"internalType": "bool",
							"name": "",
							"type": "bool"
						}
					],
					"stateMutability": "nonpayable",
					"type": "function"
				},
				{
					"inputs": [],
					"name": "name",
					"outputs": [
						{
							"internalType": "string",
							"name": "",
							"type": "string"
						}
					],
					"stateMutability": "view",
					"type": "function"
				},
				{
					"inputs": [
						{
							"internalType": "uint256",
							"name": "lpTokenAmount",
							"type": "uint256"
						}
					],
					"name": "removeLiquidity",
					"outputs": [
						{
							"internalType": "uint256",
							"name": "ethAmount",
							"type": "uint256"
						},
						{
							"internalType": "uint256",
							"name": "tokenAmount",
							"type": "uint256"
						}
					],
					"stateMutability": "nonpayable",
					"type": "function"
				},
				{
					"inputs": [],
					"name": "symbol",
					"outputs": [
						{
							"internalType": "string",
							"name": "",
							"type": "string"
						}
					],
					"stateMutability": "view",
					"type": "function"
				},
				{
					"inputs": [],
					"name": "tokenAddress",
					"outputs": [
						{
							"internalType": "address",
							"name": "",
							"type": "address"
						}
					],
					"stateMutability": "view",
					"type": "function"
				},
				{
					"inputs": [
						{
							"internalType": "uint256",
							"name": "ipTokenAmount",
							"type": "uint256"
						},
						{
							"internalType": "uint256",
							"name": "opEthAmount",
							"type": "uint256"
						}
					],
					"name": "tokenForEthSwap",
					"outputs": [],
					"stateMutability": "nonpayable",
					"type": "function"
				},
				{
					"inputs": [
						{
							"internalType": "uint256",
							"name": "ipTokenAmount",
							"type": "uint256"
						},
						{
							"internalType": "uint256",
							"name": "opTokenAmount",
							"type": "uint256"
						},
						{
							"internalType": "address",
							"name": "opTokenAddress",
							"type": "address"
						}
					],
					"name": "tokenToTokenSwap",
					"outputs": [],
					"stateMutability": "nonpayable",
					"type": "function"
				},
				{
					"inputs": [],
					"name": "totalSupply",
					"outputs": [
						{
							"internalType": "uint256",
							"name": "",
							"type": "uint256"
						}
					],
					"stateMutability": "view",
					"type": "function"
				},
				{
					"inputs": [
						{
							"internalType": "address",
							"name": "to",
							"type": "address"
						},
						{
							"internalType": "uint256",
							"name": "amount",
							"type": "uint256"
						}
					],
					"name": "transfer",
					"outputs": [
						{
							"internalType": "bool",
							"name": "",
							"type": "bool"
						}
					],
					"stateMutability": "nonpayable",
					"type": "function"
				},
				{
					"inputs": [
						{
							"internalType": "address",
							"name": "from",
							"type": "address"
						},
						{
							"internalType": "address",
							"name": "to",
							"type": "address"
						},
						{
							"internalType": "uint256",
							"name": "amount",
							"type": "uint256"
						}
					],
					"name": "transferFrom",
					"outputs": [
						{
							"internalType": "bool",
							"name": "",
							"type": "bool"
						}
					],
					"stateMutability": "nonpayable",
					"type": "function"
				}
			],
			"devdoc": {
				"kind": "dev",
				"methods": {
					"allowance(address,address)": {
						"details": "See {IERC20-allowance}."
					},
					"approve(address,uint256)": {
						"details": "See {IERC20-approve}. NOTE: If `amount` is the maximum `uint256`, the allowance is not updated on `transferFrom`. This is semantically equivalent to an infinite approval. Requirements: - `spender` cannot be the zero address."
					},
					"balanceOf(address)": {
						"details": "See {IERC20-balanceOf}."
					},
					"decimals()": {
						"details": "Returns the number of decimals used to get its user representation. For example, if `decimals` equals `2`, a balance of `505` tokens should be displayed to a user as `5.05` (`505 / 10 ** 2`). Tokens usually opt for a value of 18, imitating the relationship between Ether and Wei. This is the value {ERC20} uses, unless this function is overridden; NOTE: This information is only used for _display_ purposes: it in no way affects any of the arithmetic of the contract, including {IERC20-balanceOf} and {IERC20-transfer}."
					},
					"decreaseAllowance(address,uint256)": {
						"details": "Atomically decreases the allowance granted to `spender` by the caller. This is an alternative to {approve} that can be used as a mitigation for problems described in {IERC20-approve}. Emits an {Approval} event indicating the updated allowance. Requirements: - `spender` cannot be the zero address. - `spender` must have allowance for the caller of at least `subtractedValue`."
					},
					"increaseAllowance(address,uint256)": {
						"details": "Atomically increases the allowance granted to `spender` by the caller. This is an alternative to {approve} that can be used as a mitigation for problems described in {IERC20-approve}. Emits an {Approval} event indicating the updated allowance. Requirements: - `spender` cannot be the zero address."
					},
					"name()": {
						"details": "Returns the name of the token."
					},
					"symbol()": {
						"details": "Returns the symbol of the token, usually a shorter version of the name."
					},
					"totalSupply()": {
						"details": "See {IERC20-totalSupply}."
					},
					"transfer(address,uint256)": {
						"details": "See {IERC20-transfer}. Requirements: - `to` cannot be the zero address. - the caller must have a balance of at least `amount`."
					},
					"transferFrom(address,address,uint256)": {
						"details": "See {IERC20-transferFrom}. Emits an {Approval} event indicating the updated allowance. This is not required by the EIP. See the note at the beginning of {ERC20}. NOTE: Does not update the allowance if the current allowance is the maximum `uint256`. Requirements: - `from` and `to` cannot be the zero address. - `from` must have a balance of at least `amount`. - the caller must have allowance for ``from``'s tokens of at least `amount`."
					}
				},
				"version": 1
			},
			"evm": {
				"assembly": "    /* \"contracts/Pair.sol\":818:8686  contract Pair is ERC20 {... */\n  mstore(0x40, 0x80)\n    /* \"contracts/Pair.sol\":1629:1818  constructor(address token) ERC20(\"Swap V1\", \"Swap-V1\"){... */\n  callvalue\n  dup1\n  iszero\n  tag_1\n  jumpi\n  0x00\n  dup1\n  revert\ntag_1:\n  pop\n  mload(0x40)\n  sub(codesize, bytecodeSize)\n  dup1\n  bytecodeSize\n  dup4\n  codecopy\n  dup2\n  dup2\n  add\n  0x40\n  mstore\n  dup2\n  add\n  swap1\n  tag_2\n  swap2\n  swap1\n  tag_3\n  jump\t// in\ntag_2:\n    /* \"@openzeppelin/contracts/token/ERC20/ERC20.sol\":1978:2091  constructor(string memory name_, string memory symbol_) {... */\n  mload(0x40)\n  dup1\n  0x40\n  add\n  0x40\n  mstore\n  dup1\n  0x07\n  dup2\n  mstore\n  0x20\n  add\n  0x5377617020563100000000000000000000000000000000000000000000000000\n  dup2\n  mstore\n  pop\n  mload(0x40)\n  dup1\n  0x40\n  add\n  0x40\n  mstore\n  dup1\n  0x07\n  dup2\n  mstore\n  0x20\n  add\n  0x537761702d563100000000000000000000000000000000000000000000000000\n  dup2\n  mstore\n  pop\n    /* \"@openzeppelin/contracts/token/ERC20/ERC20.sol\":2052:2057  name_ */\n  dup2\n    /* \"@openzeppelin/contracts/token/ERC20/ERC20.sol\":2044:2049  _name */\n  0x03\n    /* \"@openzeppelin/contracts/token/ERC20/ERC20.sol\":2044:2057  _name = name_ */\n  swap1\n  dup2\n  tag_7\n  swap2\n  swap1\n  tag_8\n  jump\t// in\ntag_7:\n  pop\n    /* \"@openzeppelin/contracts/token/ERC20/ERC20.sol\":2077:2084  symbol_ */\n  dup1\n    /* \"@openzeppelin/contracts/token/ERC20/ERC20.sol\":2067:2074  _symbol */\n  0x04\n    /* \"@openzeppelin/contracts/token/ERC20/ERC20.sol\":2067:2084  _symbol = symbol_ */\n  swap1\n  dup2\n  tag_9\n  swap2\n  swap1\n  tag_8\n  jump\t// in\ntag_9:\n  pop\n    /* \"@openzeppelin/contracts/token/ERC20/ERC20.sol\":1978:2091  constructor(string memory name_, string memory symbol_) {... */\n  pop\n  pop\n    /* \"contracts/Pair.sol\":1719:1720  0 */\n  0x00\n    /* \"contracts/Pair.sol\":1702:1721  token != address(0) */\n  0xffffffffffffffffffffffffffffffffffffffff\n  and\n    /* \"contracts/Pair.sol\":1702:1707  token */\n  dup2\n    /* \"contracts/Pair.sol\":1702:1721  token != address(0) */\n  0xffffffffffffffffffffffffffffffffffffffff\n  and\n  sub\n    /* \"contracts/Pair.sol\":1694:1741  require(token != address(0), \"Invalid address\") */\n  tag_11\n  jumpi\n  mload(0x40)\n  0x08c379a000000000000000000000000000000000000000000000000000000000\n  dup2\n  mstore\n  0x04\n  add\n  tag_12\n  swap1\n  tag_13\n  jump\t// in\ntag_12:\n  mload(0x40)\n  dup1\n  swap2\n  sub\n  swap1\n  revert\ntag_11:\n    /* \"contracts/Pair.sol\":1767:1772  token */\n  dup1\n    /* \"contracts/Pair.sol\":1752:1764  tokenAddress */\n  0x05\n  0x00\n    /* \"contracts/Pair.sol\":1752:1772  tokenAddress = token */\n  0x0100\n  exp\n  dup2\n  sload\n  dup2\n  0xffffffffffffffffffffffffffffffffffffffff\n  mul\n  not\n  and\n  swap1\n  dup4\n  0xffffffffffffffffffffffffffffffffffffffff\n  and\n  mul\n  or\n  swap1\n  sstore\n  pop\n    /* \"contracts/Pair.sol\":1800:1810  msg.sender */\n  caller\n    /* \"contracts/Pair.sol\":1783:1797  factoryAddress */\n  0x06\n  0x00\n    /* \"contracts/Pair.sol\":1783:1810  factoryAddress = msg.sender */\n  0x0100\n  exp\n  dup2\n  sload\n  dup2\n  0xffffffffffffffffffffffffffffffffffffffff\n  mul\n  not\n  and\n  swap1\n  dup4\n  0xffffffffffffffffffffffffffffffffffffffff\n  and\n  mul\n  or\n  swap1\n  sstore\n  pop\n    /* \"contracts/Pair.sol\":1629:1818  constructor(address token) ERC20(\"Swap V1\", \"Swap-V1\"){... */\n  pop\n    /* \"contracts/Pair.sol\":818:8686  contract Pair is ERC20 {... */\n  jump(tag_14)\n    /* \"#utility.yul\":88:205   */\ntag_16:\n    /* \"#utility.yul\":197:198   */\n  0x00\n    /* \"#utility.yul\":194:195   */\n  dup1\n    /* \"#utility.yul\":187:199   */\n  revert\n    /* \"#utility.yul\":334:460   */\ntag_18:\n    /* \"#utility.yul\":371:378   */\n  0x00\n    /* \"#utility.yul\":411:453   */\n  0xffffffffffffffffffffffffffffffffffffffff\n    /* \"#utility.yul\":404:409   */\n  dup3\n    /* \"#utility.yul\":400:454   */\n  and\n    /* \"#utility.yul\":389:454   */\n  swap1\n  pop\n    /* \"#utility.yul\":334:460   */\n  swap2\n  swap1\n  pop\n  jump\t// out\n    /* \"#utility.yul\":466:562   */\ntag_19:\n    /* \"#utility.yul\":503:510   */\n  0x00\n    /* \"#utility.yul\":532:556   */\n  tag_51\n    /* \"#utility.yul\":550:555   */\n  dup3\n    /* \"#utility.yul\":532:556   */\n  tag_18\n  jump\t// in\ntag_51:\n    /* \"#utility.yul\":521:556   */\n  swap1\n  pop\n    /* \"#utility.yul\":466:562   */\n  swap2\n  swap1\n  pop\n  jump\t// out\n    /* \"#utility.yul\":568:690   */\ntag_20:\n    /* \"#utility.yul\":641:665   */\n  tag_53\n    /* \"#utility.yul\":659:664   */\n  dup2\n    /* \"#utility.yul\":641:665   */\n  tag_19\n  jump\t// in\ntag_53:\n    /* \"#utility.yul\":634:639   */\n  dup2\n    /* \"#utility.yul\":631:666   */\n  eq\n    /* \"#utility.yul\":621:684   */\n  tag_54\n  jumpi\n    /* \"#utility.yul\":680:681   */\n  0x00\n    /* \"#utility.yul\":677:678   */\n  dup1\n    /* \"#utility.yul\":670:682   */\n  revert\n    /* \"#utility.yul\":621:684   */\ntag_54:\n    /* \"#utility.yul\":568:690   */\n  pop\n  jump\t// out\n    /* \"#utility.yul\":696:839   */\ntag_21:\n    /* \"#utility.yul\":753:758   */\n  0x00\n    /* \"#utility.yul\":784:790   */\n  dup2\n    /* \"#utility.yul\":778:791   */\n  mload\n    /* \"#utility.yul\":769:791   */\n  swap1\n  pop\n    /* \"#utility.yul\":800:833   */\n  tag_56\n    /* \"#utility.yul\":827:832   */\n  dup2\n    /* \"#utility.yul\":800:833   */\n  tag_20\n  jump\t// in\ntag_56:\n    /* \"#utility.yul\":696:839   */\n  swap3\n  swap2\n  pop\n  pop\n  jump\t// out\n    /* \"#utility.yul\":845:1196   */\ntag_3:\n    /* \"#utility.yul\":915:921   */\n  0x00\n    /* \"#utility.yul\":964:966   */\n  0x20\n    /* \"#utility.yul\":952:961   */\n  dup3\n    /* \"#utility.yul\":943:950   */\n  dup5\n    /* \"#utility.yul\":939:962   */\n  sub\n    /* \"#utility.yul\":935:967   */\n  slt\n    /* \"#utility.yul\":932:1051   */\n  iszero\n  tag_58\n  jumpi\n    /* \"#utility.yul\":970:1049   */\n  tag_59\n  tag_16\n  jump\t// in\ntag_59:\n    /* \"#utility.yul\":932:1051   */\ntag_58:\n    /* \"#utility.yul\":1090:1091   */\n  0x00\n    /* \"#utility.yul\":1115:1179   */\n  tag_60\n    /* \"#utility.yul\":1171:1178   */\n  dup5\n    /* \"#utility.yul\":1162:1168   */\n  dup3\n    /* \"#utility.yul\":1151:1160   */\n  dup6\n    /* \"#utility.yul\":1147:1169   */\n  add\n    /* \"#utility.yul\":1115:1179   */\n  tag_21\n  jump\t// in\ntag_60:\n    /* \"#utility.yul\":1105:1179   */\n  swap2\n  pop\n    /* \"#utility.yul\":1061:1189   */\n  pop\n    /* \"#utility.yul\":845:1196   */\n  swap3\n  swap2\n  pop\n  pop\n  jump\t// out\n    /* \"#utility.yul\":1202:1301   */\ntag_22:\n    /* \"#utility.yul\":1254:1260   */\n  0x00\n    /* \"#utility.yul\":1288:1293   */\n  dup2\n    /* \"#utility.yul\":1282:1294   */\n  mload\n    /* \"#utility.yul\":1272:1294   */\n  swap1\n  pop\n    /* \"#utility.yul\":1202:1301   */\n  swap2\n  swap1\n  pop\n  jump\t// out\n    /* \"#utility.yul\":1307:1487   */\ntag_23:\n    /* \"#utility.yul\":1355:1432   */\n  0x4e487b7100000000000000000000000000000000000000000000000000000000\n    /* \"#utility.yul\":1352:1353   */\n  0x00\n    /* \"#utility.yul\":1345:1433   */\n  mstore\n    /* \"#utility.yul\":1452:1456   */\n  0x41\n    /* \"#utility.yul\":1449:1450   */\n  0x04\n    /* \"#utility.yul\":1442:1457   */\n  mstore\n    /* \"#utility.yul\":1476:1480   */\n  0x24\n    /* \"#utility.yul\":1473:1474   */\n  0x00\n    /* \"#utility.yul\":1466:1481   */\n  revert\n    /* \"#utility.yul\":1493:1673   */\ntag_24:\n    /* \"#utility.yul\":1541:1618   */\n  0x4e487b7100000000000000000000000000000000000000000000000000000000\n    /* \"#utility.yul\":1538:1539   */\n  0x00\n    /* \"#utility.yul\":1531:1619   */\n  mstore\n    /* \"#utility.yul\":1638:1642   */\n  0x22\n    /* \"#utility.yul\":1635:1636   */\n  0x04\n    /* \"#utility.yul\":1628:1643   */\n  mstore\n    /* \"#utility.yul\":1662:1666   */\n  0x24\n    /* \"#utility.yul\":1659:1660   */\n  0x00\n    /* \"#utility.yul\":1652:1667   */\n  revert\n    /* \"#utility.yul\":1679:1999   */\ntag_25:\n    /* \"#utility.yul\":1723:1729   */\n  0x00\n    /* \"#utility.yul\":1760:1761   */\n  0x02\n    /* \"#utility.yul\":1754:1758   */\n  dup3\n    /* \"#utility.yul\":1750:1762   */\n  div\n    /* \"#utility.yul\":1740:1762   */\n  swap1\n  pop\n    /* \"#utility.yul\":1807:1808   */\n  0x01\n    /* \"#utility.yul\":1801:1805   */\n  dup3\n    /* \"#utility.yul\":1797:1809   */\n  and\n    /* \"#utility.yul\":1828:1846   */\n  dup1\n    /* \"#utility.yul\":1818:1899   */\n  tag_65\n  jumpi\n    /* \"#utility.yul\":1884:1888   */\n  0x7f\n    /* \"#utility.yul\":1876:1882   */\n  dup3\n    /* \"#utility.yul\":1872:1889   */\n  and\n    /* \"#utility.yul\":1862:1889   */\n  swap2\n  pop\n    /* \"#utility.yul\":1818:1899   */\ntag_65:\n    /* \"#utility.yul\":1946:1948   */\n  0x20\n    /* \"#utility.yul\":1938:1944   */\n  dup3\n    /* \"#utility.yul\":1935:1949   */\n  lt\n    /* \"#utility.yul\":1915:1933   */\n  dup2\n    /* \"#utility.yul\":1912:1950   */\n  sub\n    /* \"#utility.yul\":1909:1993   */\n  tag_66\n  jumpi\n    /* \"#utility.yul\":1965:1983   */\n  tag_67\n  tag_24\n  jump\t// in\ntag_67:\n    /* \"#utility.yul\":1909:1993   */\ntag_66:\n    /* \"#utility.yul\":1730:1999   */\n  pop\n    /* \"#utility.yul\":1679:1999   */\n  swap2\n  swap1\n  pop\n  jump\t// out\n    /* \"#utility.yul\":2005:2146   */\ntag_26:\n    /* \"#utility.yul\":2054:2058   */\n  0x00\n    /* \"#utility.yul\":2077:2080   */\n  dup2\n    /* \"#utility.yul\":2069:2080   */\n  swap1\n  pop\n    /* \"#utility.yul\":2100:2103   */\n  dup2\n    /* \"#utility.yul\":2097:2098   */\n  0x00\n    /* \"#utility.yul\":2090:2104   */\n  mstore\n    /* \"#utility.yul\":2134:2138   */\n  0x20\n    /* \"#utility.yul\":2131:2132   */\n  0x00\n    /* \"#utility.yul\":2121:2139   */\n  keccak256\n    /* \"#utility.yul\":2113:2139   */\n  swap1\n  pop\n    /* \"#utility.yul\":2005:2146   */\n  swap2\n  swap1\n  pop\n  jump\t// out\n    /* \"#utility.yul\":2152:2245   */\ntag_27:\n    /* \"#utility.yul\":2189:2195   */\n  0x00\n    /* \"#utility.yul\":2236:2238   */\n  0x20\n    /* \"#utility.yul\":2231:2233   */\n  0x1f\n    /* \"#utility.yul\":2224:2229   */\n  dup4\n    /* \"#utility.yul\":2220:2234   */\n  add\n    /* \"#utility.yul\":2216:2239   */\n  div\n    /* \"#utility.yul\":2206:2239   */\n  swap1\n  pop\n    /* \"#utility.yul\":2152:2245   */\n  swap2\n  swap1\n  pop\n  jump\t// out\n    /* \"#utility.yul\":2251:2358   */\ntag_28:\n    /* \"#utility.yul\":2295:2303   */\n  0x00\n    /* \"#utility.yul\":2345:2350   */\n  dup3\n    /* \"#utility.yul\":2339:2343   */\n  dup3\n    /* \"#utility.yul\":2335:2351   */\n  shl\n    /* \"#utility.yul\":2314:2351   */\n  swap1\n  pop\n    /* \"#utility.yul\":2251:2358   */\n  swap3\n  swap2\n  pop\n  pop\n  jump\t// out\n    /* \"#utility.yul\":2364:2757   */\ntag_29:\n    /* \"#utility.yul\":2433:2439   */\n  0x00\n    /* \"#utility.yul\":2483:2484   */\n  0x08\n    /* \"#utility.yul\":2471:2481   */\n  dup4\n    /* \"#utility.yul\":2467:2485   */\n  mul\n    /* \"#utility.yul\":2506:2603   */\n  tag_72\n    /* \"#utility.yul\":2536:2602   */\n  0xffffffffffffffffffffffffffffffffffffffffffffffffffffffffffffffff\n    /* \"#utility.yul\":2525:2534   */\n  dup3\n    /* \"#utility.yul\":2506:2603   */\n  tag_28\n  jump\t// in\ntag_72:\n    /* \"#utility.yul\":2624:2663   */\n  tag_73\n    /* \"#utility.yul\":2654:2662   */\n  dup7\n    /* \"#utility.yul\":2643:2652   */\n  dup4\n    /* \"#utility.yul\":2624:2663   */\n  tag_28\n  jump\t// in\ntag_73:\n    /* \"#utility.yul\":2612:2663   */\n  swap6\n  pop\n    /* \"#utility.yul\":2696:2700   */\n  dup1\n    /* \"#utility.yul\":2692:2701   */\n  not\n    /* \"#utility.yul\":2685:2690   */\n  dup5\n    /* \"#utility.yul\":2681:2702   */\n  and\n    /* \"#utility.yul\":2672:2702   */\n  swap4\n  pop\n    /* \"#utility.yul\":2745:2749   */\n  dup1\n    /* \"#utility.yul\":2735:2743   */\n  dup7\n    /* \"#utility.yul\":2731:2750   */\n  and\n    /* \"#utility.yul\":2724:2729   */\n  dup5\n    /* \"#utility.yul\":2721:2751   */\n  or\n    /* \"#utility.yul\":2711:2751   */\n  swap3\n  pop\n    /* \"#utility.yul\":2440:2757   */\n  pop\n  pop\n    /* \"#utility.yul\":2364:2757   */\n  swap4\n  swap3\n  pop\n  pop\n  pop\n  jump\t// out\n    /* \"#utility.yul\":2763:2840   */\ntag_30:\n    /* \"#utility.yul\":2800:2807   */\n  0x00\n    /* \"#utility.yul\":2829:2834   */\n  dup2\n    /* \"#utility.yul\":2818:2834   */\n  swap1\n  pop\n    /* \"#utility.yul\":2763:2840   */\n  swap2\n  swap1\n  pop\n  jump\t// out\n    /* \"#utility.yul\":2846:2906   */\ntag_31:\n    /* \"#utility.yul\":2874:2877   */\n  0x00\n    /* \"#utility.yul\":2895:2900   */\n  dup2\n    /* \"#utility.yul\":2888:2900   */\n  swap1\n  pop\n    /* \"#utility.yul\":2846:2906   */\n  swap2\n  swap1\n  pop\n  jump\t// out\n    /* \"#utility.yul\":2912:3054   */\ntag_32:\n    /* \"#utility.yul\":2962:2971   */\n  0x00\n    /* \"#utility.yul\":2995:3048   */\n  tag_77\n    /* \"#utility.yul\":3013:3047   */\n  tag_78\n    /* \"#utility.yul\":3022:3046   */\n  tag_79\n    /* \"#utility.yul\":3040:3045   */\n  dup5\n    /* \"#utility.yul\":3022:3046   */\n  tag_30\n  jump\t// in\ntag_79:\n    /* \"#utility.yul\":3013:3047   */\n  tag_31\n  jump\t// in\ntag_78:\n    /* \"#utility.yul\":2995:3048   */\n  tag_30\n  jump\t// in\ntag_77:\n    /* \"#utility.yul\":2982:3048   */\n  swap1\n  pop\n    /* \"#utility.yul\":2912:3054   */\n  swap2\n  swap1\n  pop\n  jump\t// out\n    /* \"#utility.yul\":3060:3135   */\ntag_33:\n    /* \"#utility.yul\":3103:3106   */\n  0x00\n    /* \"#utility.yul\":3124:3129   */\n  dup2\n    /* \"#utility.yul\":3117:3129   */\n  swap1\n  pop\n    /* \"#utility.yul\":3060:3135   */\n  swap2\n  swap1\n  pop\n  jump\t// out\n    /* \"#utility.yul\":3141:3410   */\ntag_34:\n    /* \"#utility.yul\":3251:3290   */\n  tag_82\n    /* \"#utility.yul\":3282:3289   */\n  dup4\n    /* \"#utility.yul\":3251:3290   */\n  tag_32\n  jump\t// in\ntag_82:\n    /* \"#utility.yul\":3312:3403   */\n  tag_83\n    /* \"#utility.yul\":3361:3402   */\n  tag_84\n    /* \"#utility.yul\":3385:3401   */\n  dup3\n    /* \"#utility.yul\":3361:3402   */\n  tag_33\n  jump\t// in\ntag_84:\n    /* \"#utility.yul\":3353:3359   */\n  dup5\n    /* \"#utility.yul\":3346:3350   */\n  dup5\n    /* \"#utility.yul\":3340:3351   */\n  sload\n    /* \"#utility.yul\":3312:3403   */\n  tag_29\n  jump\t// in\ntag_83:\n    /* \"#utility.yul\":3306:3310   */\n  dup3\n    /* \"#utility.yul\":3299:3404   */\n  sstore\n    /* \"#utility.yul\":3217:3410   */\n  pop\n    /* \"#utility.yul\":3141:3410   */\n  pop\n  pop\n  pop\n  jump\t// out\n    /* \"#utility.yul\":3416:3489   */\ntag_35:\n    /* \"#utility.yul\":3461:3464   */\n  0x00\n    /* \"#utility.yul\":3416:3489   */\n  swap1\n  jump\t// out\n    /* \"#utility.yul\":3495:3684   */\ntag_36:\n    /* \"#utility.yul\":3572:3604   */\n  tag_87\n  tag_35\n  jump\t// in\ntag_87:\n    /* \"#utility.yul\":3613:3678   */\n  tag_88\n    /* \"#utility.yul\":3671:3677   */\n  dup2\n    /* \"#utility.yul\":3663:3669   */\n  dup5\n    /* \"#utility.yul\":3657:3661   */\n  dup5\n    /* \"#utility.yul\":3613:3678   */\n  tag_34\n  jump\t// in\ntag_88:\n    /* \"#utility.yul\":3548:3684   */\n  pop\n    /* \"#utility.yul\":3495:3684   */\n  pop\n  pop\n  jump\t// out\n    /* \"#utility.yul\":3690:3876   */\ntag_37:\n    /* \"#utility.yul\":3750:3870   */\ntag_90:\n    /* \"#utility.yul\":3767:3770   */\n  dup2\n    /* \"#utility.yul\":3760:3765   */\n  dup2\n    /* \"#utility.yul\":3757:3771   */\n  lt\n    /* \"#utility.yul\":3750:3870   */\n  iszero\n  tag_92\n  jumpi\n    /* \"#utility.yul\":3821:3860   */\n  tag_93\n    /* \"#utility.yul\":3858:3859   */\n  0x00\n    /* \"#utility.yul\":3851:3856   */\n  dup3\n    /* \"#utility.yul\":3821:3860   */\n  tag_36\n  jump\t// in\ntag_93:\n    /* \"#utility.yul\":3794:3795   */\n  0x01\n    /* \"#utility.yul\":3787:3792   */\n  dup2\n    /* \"#utility.yul\":3783:3796   */\n  add\n    /* \"#utility.yul\":3774:3796   */\n  swap1\n  pop\n    /* \"#utility.yul\":3750:3870   */\n  jump(tag_90)\ntag_92:\n    /* \"#utility.yul\":3690:3876   */\n  pop\n  pop\n  jump\t// out\n    /* \"#utility.yul\":3882:4425   */\ntag_38:\n    /* \"#utility.yul\":3983:3985   */\n  0x1f\n    /* \"#utility.yul\":3978:3981   */\n  dup3\n    /* \"#utility.yul\":3975:3986   */\n  gt\n    /* \"#utility.yul\":3972:4418   */\n  iszero\n  tag_95\n  jumpi\n    /* \"#utility.yul\":4017:4055   */\n  tag_96\n    /* \"#utility.yul\":4049:4054   */\n  dup2\n    /* \"#utility.yul\":4017:4055   */\n  tag_26\n  jump\t// in\ntag_96:\n    /* \"#utility.yul\":4101:4130   */\n  tag_97\n    /* \"#utility.yul\":4119:4129   */\n  dup5\n    /* \"#utility.yul\":4101:4130   */\n  tag_27\n  jump\t// in\ntag_97:\n    /* \"#utility.yul\":4091:4099   */\n  dup2\n    /* \"#utility.yul\":4087:4131   */\n  add\n    /* \"#utility.yul\":4284:4286   */\n  0x20\n    /* \"#utility.yul\":4272:4282   */\n  dup6\n    /* \"#utility.yul\":4269:4287   */\n  lt\n    /* \"#utility.yul\":4266:4315   */\n  iszero\n  tag_98\n  jumpi\n    /* \"#utility.yul\":4305:4313   */\n  dup2\n    /* \"#utility.yul\":4290:4313   */\n  swap1\n  pop\n    /* \"#utility.yul\":4266:4315   */\ntag_98:\n    /* \"#utility.yul\":4328:4408   */\n  tag_99\n    /* \"#utility.yul\":4384:4406   */\n  tag_100\n    /* \"#utility.yul\":4402:4405   */\n  dup6\n    /* \"#utility.yul\":4384:4406   */\n  tag_27\n  jump\t// in\ntag_100:\n    /* \"#utility.yul\":4374:4382   */\n  dup4\n    /* \"#utility.yul\":4370:4407   */\n  add\n    /* \"#utility.yul\":4357:4368   */\n  dup3\n    /* \"#utility.yul\":4328:4408   */\n  tag_37\n  jump\t// in\ntag_99:\n    /* \"#utility.yul\":3987:4418   */\n  pop\n  pop\n    /* \"#utility.yul\":3972:4418   */\ntag_95:\n    /* \"#utility.yul\":3882:4425   */\n  pop\n  pop\n  pop\n  jump\t// out\n    /* \"#utility.yul\":4431:4548   */\ntag_39:\n    /* \"#utility.yul\":4485:4493   */\n  0x00\n    /* \"#utility.yul\":4535:4540   */\n  dup3\n    /* \"#utility.yul\":4529:4533   */\n  dup3\n    /* \"#utility.yul\":4525:4541   */\n  shr\n    /* \"#utility.yul\":4504:4541   */\n  swap1\n  pop\n    /* \"#utility.yul\":4431:4548   */\n  swap3\n  swap2\n  pop\n  pop\n  jump\t// out\n    /* \"#utility.yul\":4554:4723   */\ntag_40:\n    /* \"#utility.yul\":4598:4604   */\n  0x00\n    /* \"#utility.yul\":4631:4682   */\n  tag_103\n    /* \"#utility.yul\":4679:4680   */\n  0x00\n    /* \"#utility.yul\":4675:4681   */\n  not\n    /* \"#utility.yul\":4667:4672   */\n  dup5\n    /* \"#utility.yul\":4664:4665   */\n  0x08\n    /* \"#utility.yul\":4660:4673   */\n  mul\n    /* \"#utility.yul\":4631:4682   */\n  tag_39\n  jump\t// in\ntag_103:\n    /* \"#utility.yul\":4627:4683   */\n  not\n    /* \"#utility.yul\":4712:4716   */\n  dup1\n    /* \"#utility.yul\":4706:4710   */\n  dup4\n    /* \"#utility.yul\":4702:4717   */\n  and\n    /* \"#utility.yul\":4692:4717   */\n  swap2\n  pop\n    /* \"#utility.yul\":4605:4723   */\n  pop\n    /* \"#utility.yul\":4554:4723   */\n  swap3\n  swap2\n  pop\n  pop\n  jump\t// out\n    /* \"#utility.yul\":4728:5023   */\ntag_41:\n    /* \"#utility.yul\":4804:4808   */\n  0x00\n    /* \"#utility.yul\":4950:4979   */\n  tag_105\n    /* \"#utility.yul\":4975:4978   */\n  dup4\n    /* \"#utility.yul\":4969:4973   */\n  dup4\n    /* \"#utility.yul\":4950:4979   */\n  tag_40\n  jump\t// in\ntag_105:\n    /* \"#utility.yul\":4942:4979   */\n  swap2\n  pop\n    /* \"#utility.yul\":5012:5015   */\n  dup3\n    /* \"#utility.yul\":5009:5010   */\n  0x02\n    /* \"#utility.yul\":5005:5016   */\n  mul\n    /* \"#utility.yul\":4999:5003   */\n  dup3\n    /* \"#utility.yul\":4996:5017   */\n  or\n    /* \"#utility.yul\":4988:5017   */\n  swap1\n  pop\n    /* \"#utility.yul\":4728:5023   */\n  swap3\n  swap2\n  pop\n  pop\n  jump\t// out\n    /* \"#utility.yul\":5028:6423   */\ntag_8:\n    /* \"#utility.yul\":5145:5182   */\n  tag_107\n    /* \"#utility.yul\":5178:5181   */\n  dup3\n    /* \"#utility.yul\":5145:5182   */\n  tag_22\n  jump\t// in\ntag_107:\n    /* \"#utility.yul\":5247:5265   */\n  0xffffffffffffffff\n    /* \"#utility.yul\":5239:5245   */\n  dup2\n    /* \"#utility.yul\":5236:5266   */\n  gt\n    /* \"#utility.yul\":5233:5289   */\n  iszero\n  tag_108\n  jumpi\n    /* \"#utility.yul\":5269:5287   */\n  tag_109\n  tag_23\n  jump\t// in\ntag_109:\n    /* \"#utility.yul\":5233:5289   */\ntag_108:\n    /* \"#utility.yul\":5313:5351   */\n  tag_110\n    /* \"#utility.yul\":5345:5349   */\n  dup3\n    /* \"#utility.yul\":5339:5350   */\n  sload\n    /* \"#utility.yul\":5313:5351   */\n  tag_25\n  jump\t// in\ntag_110:\n    /* \"#utility.yul\":5398:5465   */\n  tag_111\n    /* \"#utility.yul\":5458:5464   */\n  dup3\n    /* \"#utility.yul\":5450:5456   */\n  dup3\n    /* \"#utility.yul\":5444:5448   */\n  dup6\n    /* \"#utility.yul\":5398:5465   */\n  tag_38\n  jump\t// in\ntag_111:\n    /* \"#utility.yul\":5492:5493   */\n  0x00\n    /* \"#utility.yul\":5516:5520   */\n  0x20\n    /* \"#utility.yul\":5503:5520   */\n  swap1\n  pop\n    /* \"#utility.yul\":5548:5550   */\n  0x1f\n    /* \"#utility.yul\":5540:5546   */\n  dup4\n    /* \"#utility.yul\":5537:5551   */\n  gt\n    /* \"#utility.yul\":5565:5566   */\n  0x01\n    /* \"#utility.yul\":5560:6178   */\n  dup2\n  eq\n  tag_113\n  jumpi\n    /* \"#utility.yul\":6222:6223   */\n  0x00\n    /* \"#utility.yul\":6239:6245   */\n  dup5\n    /* \"#utility.yul\":6236:6313   */\n  iszero\n  tag_114\n  jumpi\n    /* \"#utility.yul\":6288:6297   */\n  dup3\n    /* \"#utility.yul\":6283:6286   */\n  dup8\n    /* \"#utility.yul\":6279:6298   */\n  add\n    /* \"#utility.yul\":6273:6299   */\n  mload\n    /* \"#utility.yul\":6264:6299   */\n  swap1\n  pop\n    /* \"#utility.yul\":6236:6313   */\ntag_114:\n    /* \"#utility.yul\":6339:6406   */\n  tag_115\n    /* \"#utility.yul\":6399:6405   */\n  dup6\n    /* \"#utility.yul\":6392:6397   */\n  dup3\n    /* \"#utility.yul\":6339:6406   */\n  tag_41\n  jump\t// in\ntag_115:\n    /* \"#utility.yul\":6333:6337   */\n  dup7\n    /* \"#utility.yul\":6326:6407   */\n  sstore\n    /* \"#utility.yul\":6195:6417   */\n  pop\n    /* \"#utility.yul\":5530:6417   */\n  jump(tag_112)\n    /* \"#utility.yul\":5560:6178   */\ntag_113:\n    /* \"#utility.yul\":5612:5616   */\n  0x1f\n    /* \"#utility.yul\":5608:5617   */\n  not\n    /* \"#utility.yul\":5600:5606   */\n  dup5\n    /* \"#utility.yul\":5596:5618   */\n  and\n    /* \"#utility.yul\":5646:5683   */\n  tag_116\n    /* \"#utility.yul\":5678:5682   */\n  dup7\n    /* \"#utility.yul\":5646:5683   */\n  tag_26\n  jump\t// in\ntag_116:\n    /* \"#utility.yul\":5705:5706   */\n  0x00\n    /* \"#utility.yul\":5719:5927   */\ntag_117:\n    /* \"#utility.yul\":5733:5740   */\n  dup3\n    /* \"#utility.yul\":5730:5731   */\n  dup2\n    /* \"#utility.yul\":5727:5741   */\n  lt\n    /* \"#utility.yul\":5719:5927   */\n  iszero\n  tag_119\n  jumpi\n    /* \"#utility.yul\":5812:5821   */\n  dup5\n    /* \"#utility.yul\":5807:5810   */\n  dup10\n    /* \"#utility.yul\":5803:5822   */\n  add\n    /* \"#utility.yul\":5797:5823   */\n  mload\n    /* \"#utility.yul\":5789:5795   */\n  dup3\n    /* \"#utility.yul\":5782:5824   */\n  sstore\n    /* \"#utility.yul\":5863:5864   */\n  0x01\n    /* \"#utility.yul\":5855:5861   */\n  dup3\n    /* \"#utility.yul\":5851:5865   */\n  add\n    /* \"#utility.yul\":5841:5865   */\n  swap2\n  pop\n    /* \"#utility.yul\":5910:5912   */\n  0x20\n    /* \"#utility.yul\":5899:5908   */\n  dup6\n    /* \"#utility.yul\":5895:5913   */\n  add\n    /* \"#utility.yul\":5882:5913   */\n  swap5\n  pop\n    /* \"#utility.yul\":5756:5760   */\n  0x20\n    /* \"#utility.yul\":5753:5754   */\n  dup2\n    /* \"#utility.yul\":5749:5761   */\n  add\n    /* \"#utility.yul\":5744:5761   */\n  swap1\n  pop\n    /* \"#utility.yul\":5719:5927   */\n  jump(tag_117)\ntag_119:\n    /* \"#utility.yul\":5955:5961   */\n  dup7\n    /* \"#utility.yul\":5946:5953   */\n  dup4\n    /* \"#utility.yul\":5943:5962   */\n  lt\n    /* \"#utility.yul\":5940:6119   */\n  iszero\n  tag_120\n  jumpi\n    /* \"#utility.yul\":6013:6022   */\n  dup5\n    /* \"#utility.yul\":6008:6011   */\n  dup10\n    /* \"#utility.yul\":6004:6023   */\n  add\n    /* \"#utility.yul\":5998:6024   */\n  mload\n    /* \"#utility.yul\":6056:6104   */\n  tag_121\n    /* \"#utility.yul\":6098:6102   */\n  0x1f\n    /* \"#utility.yul\":6090:6096   */\n  dup10\n    /* \"#utility.yul\":6086:6103   */\n  and\n    /* \"#utility.yul\":6075:6084   */\n  dup3\n    /* \"#utility.yul\":6056:6104   */\n  tag_40\n  jump\t// in\ntag_121:\n    /* \"#utility.yul\":6048:6054   */\n  dup4\n    /* \"#utility.yul\":6041:6105   */\n  sstore\n    /* \"#utility.yul\":5963:6119   */\n  pop\n    /* \"#utility.yul\":5940:6119   */\ntag_120:\n    /* \"#utility.yul\":6165:6166   */\n  0x01\n    /* \"#utility.yul\":6161:6162   */\n  0x02\n    /* \"#utility.yul\":6153:6159   */\n  dup9\n    /* \"#utility.yul\":6149:6163   */\n  mul\n    /* \"#utility.yul\":6145:6167   */\n  add\n    /* \"#utility.yul\":6139:6143   */\n  dup9\n    /* \"#utility.yul\":6132:6168   */\n  sstore\n    /* \"#utility.yul\":5567:6178   */\n  pop\n  pop\n  pop\n    /* \"#utility.yul\":5530:6417   */\ntag_112:\n  pop\n    /* \"#utility.yul\":5120:6423   */\n  pop\n  pop\n  pop\n    /* \"#utility.yul\":5028:6423   */\n  pop\n  pop\n  jump\t// out\n    /* \"#utility.yul\":6429:6598   */\ntag_42:\n    /* \"#utility.yul\":6513:6524   */\n  0x00\n    /* \"#utility.yul\":6547:6553   */\n  dup3\n    /* \"#utility.yul\":6542:6545   */\n  dup3\n    /* \"#utility.yul\":6535:6554   */\n  mstore\n    /* \"#utility.yul\":6587:6591   */\n  0x20\n    /* \"#utility.yul\":6582:6585   */\n  dup3\n    /* \"#utility.yul\":6578:6592   */\n  add\n    /* \"#utility.yul\":6563:6592   */\n  swap1\n  pop\n    /* \"#utility.yul\":6429:6598   */\n  swap3\n  swap2\n  pop\n  pop\n  jump\t// out\n    /* \"#utility.yul\":6604:6769   */\ntag_43:\n    /* \"#utility.yul\":6744:6761   */\n  0x496e76616c696420616464726573730000000000000000000000000000000000\n    /* \"#utility.yul\":6740:6741   */\n  0x00\n    /* \"#utility.yul\":6732:6738   */\n  dup3\n    /* \"#utility.yul\":6728:6742   */\n  add\n    /* \"#utility.yul\":6721:6762   */\n  mstore\n    /* \"#utility.yul\":6604:6769   */\n  pop\n  jump\t// out\n    /* \"#utility.yul\":6775:7141   */\ntag_44:\n    /* \"#utility.yul\":6917:6920   */\n  0x00\n    /* \"#utility.yul\":6938:7005   */\n  tag_125\n    /* \"#utility.yul\":7002:7004   */\n  0x0f\n    /* \"#utility.yul\":6997:7000   */\n  dup4\n    /* \"#utility.yul\":6938:7005   */\n  tag_42\n  jump\t// in\ntag_125:\n    /* \"#utility.yul\":6931:7005   */\n  swap2\n  pop\n    /* \"#utility.yul\":7014:7107   */\n  tag_126\n    /* \"#utility.yul\":7103:7106   */\n  dup3\n    /* \"#utility.yul\":7014:7107   */\n  tag_43\n  jump\t// in\ntag_126:\n    /* \"#utility.yul\":7132:7134   */\n  0x20\n    /* \"#utility.yul\":7127:7130   */\n  dup3\n    /* \"#utility.yul\":7123:7135   */\n  add\n    /* \"#utility.yul\":7116:7135   */\n  swap1\n  pop\n    /* \"#utility.yul\":6775:7141   */\n  swap2\n  swap1\n  pop\n  jump\t// out\n    /* \"#utility.yul\":7147:7566   */\ntag_13:\n    /* \"#utility.yul\":7313:7317   */\n  0x00\n    /* \"#utility.yul\":7351:7353   */\n  0x20\n    /* \"#utility.yul\":7340:7349   */\n  dup3\n    /* \"#utility.yul\":7336:7354   */\n  add\n    /* \"#utility.yul\":7328:7354   */\n  swap1\n  pop\n    /* \"#utility.yul\":7400:7409   */\n  dup2\n    /* \"#utility.yul\":7394:7398   */\n  dup2\n    /* \"#utility.yul\":7390:7410   */\n  sub\n    /* \"#utility.yul\":7386:7387   */\n  0x00\n    /* \"#utility.yul\":7375:7384   */\n  dup4\n    /* \"#utility.yul\":7371:7388   */\n  add\n    /* \"#utility.yul\":7364:7411   */\n  mstore\n    /* \"#utility.yul\":7428:7559   */\n  tag_128\n    /* \"#utility.yul\":7554:7558   */\n  dup2\n    /* \"#utility.yul\":7428:7559   */\n  tag_44\n  jump\t// in\ntag_128:\n    /* \"#utility.yul\":7420:7559   */\n  swap1\n  pop\n    /* \"#utility.yul\":7147:7566   */\n  swap2\n  swap1\n  pop\n  jump\t// out\n    /* \"contracts/Pair.sol\":818:8686  contract Pair is ERC20 {... */\ntag_14:\n  dataSize(sub_0)\n  dup1\n  dataOffset(sub_0)\n  0x00\n  codecopy\n  0x00\n  return\nstop\n\nsub_0: assembly {\n        /* \"contracts/Pair.sol\":818:8686  contract Pair is ERC20 {... */\n      mstore(0x40, 0x80)\n      jumpi(tag_1, lt(calldatasize, 0x04))\n      shr(0xe0, calldataload(0x00))\n      dup1\n      0x64338a30\n      gt\n      tag_24\n      jumpi\n      dup1\n      0x9d76ea58\n      gt\n      tag_25\n      jumpi\n      dup1\n      0x9d76ea58\n      eq\n      tag_18\n      jumpi\n      dup1\n      0xa457c2d7\n      eq\n      tag_19\n      jumpi\n      dup1\n      0xa9059cbb\n      eq\n      tag_20\n      jumpi\n      dup1\n      0xdd62ed3e\n      eq\n      tag_21\n      jumpi\n      dup1\n      0xf7a7e324\n      eq\n      tag_22\n      jumpi\n      dup1\n      0xf979dcd7\n      eq\n      tag_23\n      jumpi\n      jump(tag_1)\n    tag_25:\n      dup1\n      0x64338a30\n      eq\n      tag_13\n      jumpi\n      dup1\n      0x70a08231\n      eq\n      tag_14\n      jumpi\n      dup1\n      0x95d89b41\n      eq\n      tag_15\n      jumpi\n      dup1\n      0x966dae0e\n      eq\n      tag_16\n      jumpi\n      dup1\n      0x9c8f9f23\n      eq\n      tag_17\n      jumpi\n      jump(tag_1)\n    tag_24:\n      dup1\n      0x23b872dd\n      gt\n      tag_26\n      jumpi\n      dup1\n      0x23b872dd\n      eq\n      tag_7\n      jumpi\n      dup1\n      0x2c0c60a4\n      eq\n      tag_8\n      jumpi\n      dup1\n      0x313ce567\n      eq\n      tag_9\n      jumpi\n      dup1\n      0x389d9a40\n      eq\n      tag_10\n      jumpi\n      dup1\n      0x39509351\n      eq\n      tag_11\n      jumpi\n      dup1\n      0x51c6590a\n      eq\n      tag_12\n      jumpi\n      jump(tag_1)\n    tag_26:\n      dup1\n      0x06fdde03\n      eq\n      tag_2\n      jumpi\n      dup1\n      0x0902f1ac\n      eq\n      tag_3\n      jumpi\n      dup1\n      0x095ea7b3\n      eq\n      tag_4\n      jumpi\n      dup1\n      0x0f8070b4\n      eq\n      tag_5\n      jumpi\n      dup1\n      0x18160ddd\n      eq\n      tag_6\n      jumpi\n    tag_1:\n      0x00\n      dup1\n      revert\n        /* \"@openzeppelin/contracts/token/ERC20/ERC20.sol\":2156:2254  function name() public view virtual override returns (string memory) {... */\n    tag_2:\n      callvalue\n      dup1\n      iszero\n      tag_27\n      jumpi\n      0x00\n      dup1\n      revert\n    tag_27:\n      pop\n      tag_28\n      tag_29\n      jump\t// in\n    tag_28:\n      mload(0x40)\n      tag_30\n      swap2\n      swap1\n      tag_31\n      jump\t// in\n    tag_30:\n      mload(0x40)\n      dup1\n      swap2\n      sub\n      swap1\n      return\n        /* \"contracts/Pair.sol\":1826:2036  function getReserves() public view returns (uint256 tokenReserve, uint256 ethReserve) {... */\n    tag_3:\n      callvalue\n      dup1\n      iszero\n      tag_32\n      jumpi\n      0x00\n      dup1\n      revert\n    tag_32:\n      pop\n      tag_33\n      tag_34\n      jump\t// in\n    tag_33:\n      mload(0x40)\n      tag_35\n      swap3\n      swap2\n      swap1\n      tag_36\n      jump\t// in\n    tag_35:\n      mload(0x40)\n      dup1\n      swap2\n      sub\n      swap1\n      return\n        /* \"@openzeppelin/contracts/token/ERC20/ERC20.sol\":4433:4630  function approve(address spender, uint256 amount) public virtual override returns (bool) {... */\n    tag_4:\n      callvalue\n      dup1\n      iszero\n      tag_37\n      jumpi\n      0x00\n      dup1\n      revert\n    tag_37:\n      pop\n      tag_38\n      0x04\n      dup1\n      calldatasize\n      sub\n      dup2\n      add\n      swap1\n      tag_39\n      swap2\n      swap1\n      tag_40\n      jump\t// in\n    tag_39:\n      tag_41\n      jump\t// in\n    tag_38:\n      mload(0x40)\n      tag_42\n      swap2\n      swap1\n      tag_43\n      jump\t// in\n    tag_42:\n      mload(0x40)\n      dup1\n      swap2\n      sub\n      swap1\n      return\n        /* \"contracts/Pair.sol\":4532:4889  function getTokenAmountForSwap(uint256 ethAmount) public view returns (uint256 tokenAmount){... */\n    tag_5:\n      callvalue\n      dup1\n      iszero\n      tag_44\n      jumpi\n      0x00\n      dup1\n      revert\n    tag_44:\n      pop\n      tag_45\n      0x04\n      dup1\n      calldatasize\n      sub\n      dup2\n      add\n      swap1\n      tag_46\n      swap2\n      swap1\n      tag_47\n      jump\t// in\n    tag_46:\n      tag_48\n      jump\t// in\n    tag_45:\n      mload(0x40)\n      tag_49\n      swap2\n      swap1\n      tag_50\n      jump\t// in\n    tag_49:\n      mload(0x40)\n      dup1\n      swap2\n      sub\n      swap1\n      return\n        /* \"@openzeppelin/contracts/token/ERC20/ERC20.sol\":3244:3350  function totalSupply() public view virtual override returns (uint256) {... */\n    tag_6:\n      callvalue\n      dup1\n      iszero\n      tag_51\n      jumpi\n      0x00\n      dup1\n      revert\n    tag_51:\n      pop\n      tag_52\n      tag_53\n      jump\t// in\n    tag_52:\n      mload(0x40)\n      tag_54\n      swap2\n      swap1\n      tag_50\n      jump\t// in\n    tag_54:\n      mload(0x40)\n      dup1\n      swap2\n      sub\n      swap1\n      return\n        /* \"@openzeppelin/contracts/token/ERC20/ERC20.sol\":5192:5478  function transferFrom(... */\n    tag_7:\n      callvalue\n      dup1\n      iszero\n      tag_55\n      jumpi\n      0x00\n      dup1\n      revert\n    tag_55:\n      pop\n      tag_56\n      0x04\n      dup1\n      calldatasize\n      sub\n      dup2\n      add\n      swap1\n      tag_57\n      swap2\n      swap1\n      tag_58\n      jump\t// in\n    tag_57:\n      tag_59\n      jump\t// in\n    tag_56:\n      mload(0x40)\n      tag_60\n      swap2\n      swap1\n      tag_43\n      jump\t// in\n    tag_60:\n      mload(0x40)\n      dup1\n      swap2\n      sub\n      swap1\n      return\n        /* \"contracts/Pair.sol\":4949:5304  function getEthAmountForSwap(uint256 tokenAmount) public view returns (uint256 ethAmount){... */\n    tag_8:\n      callvalue\n      dup1\n      iszero\n      tag_61\n      jumpi\n      0x00\n      dup1\n      revert\n    tag_61:\n      pop\n      tag_62\n      0x04\n      dup1\n      calldatasize\n      sub\n      dup2\n      add\n      swap1\n      tag_63\n      swap2\n      swap1\n      tag_47\n      jump\t// in\n    tag_63:\n      tag_64\n      jump\t// in\n    tag_62:\n      mload(0x40)\n      tag_65\n      swap2\n      swap1\n      tag_50\n      jump\t// in\n    tag_65:\n      mload(0x40)\n      dup1\n      swap2\n      sub\n      swap1\n      return\n        /* \"@openzeppelin/contracts/token/ERC20/ERC20.sol\":3093:3184  function decimals() public view virtual override returns (uint8) {... */\n    tag_9:\n      callvalue\n      dup1\n      iszero\n      tag_66\n      jumpi\n      0x00\n      dup1\n      revert\n    tag_66:\n      pop\n      tag_67\n      tag_68\n      jump\t// in\n    tag_67:\n      mload(0x40)\n      tag_69\n      swap2\n      swap1\n      tag_70\n      jump\t// in\n    tag_69:\n      mload(0x40)\n      dup1\n      swap2\n      sub\n      swap1\n      return\n        /* \"contracts/Pair.sol\":5959:6100  function ethToTokenTransfer(uint256 tokenAmount, address recipient) public payable{... */\n    tag_10:\n      tag_71\n      0x04\n      dup1\n      calldatasize\n      sub\n      dup2\n      add\n      swap1\n      tag_72\n      swap2\n      swap1\n      tag_73\n      jump\t// in\n    tag_72:\n      tag_74\n      jump\t// in\n    tag_71:\n      stop\n        /* \"@openzeppelin/contracts/token/ERC20/ERC20.sol\":5873:6107  function increaseAllowance(address spender, uint256 addedValue) public virtual returns (bool) {... */\n    tag_11:\n      callvalue\n      dup1\n      iszero\n      tag_75\n      jumpi\n      0x00\n      dup1\n      revert\n    tag_75:\n      pop\n      tag_76\n      0x04\n      dup1\n      calldatasize\n      sub\n      dup2\n      add\n      swap1\n      tag_77\n      swap2\n      swap1\n      tag_40\n      jump\t// in\n    tag_77:\n      tag_78\n      jump\t// in\n    tag_76:\n      mload(0x40)\n      tag_79\n      swap2\n      swap1\n      tag_43\n      jump\t// in\n    tag_79:\n      mload(0x40)\n      dup1\n      swap2\n      sub\n      swap1\n      return\n        /* \"contracts/Pair.sol\":2044:3378  function addLiquidity(uint256 inputTokenAmount ) public payable returns (uint256 lpTokenAmount){... */\n    tag_12:\n      tag_80\n      0x04\n      dup1\n      calldatasize\n      sub\n      dup2\n      add\n      swap1\n      tag_81\n      swap2\n      swap1\n      tag_47\n      jump\t// in\n    tag_81:\n      tag_82\n      jump\t// in\n    tag_80:\n      mload(0x40)\n      tag_83\n      swap2\n      swap1\n      tag_50\n      jump\t// in\n    tag_83:\n      mload(0x40)\n      dup1\n      swap2\n      sub\n      swap1\n      return\n        /* \"contracts/Pair.sol\":6277:6926  function tokenForEthSwap(uint256 ipTokenAmount, uint256 opEthAmount) public {... */\n    tag_13:\n      callvalue\n      dup1\n      iszero\n      tag_84\n      jumpi\n      0x00\n      dup1\n      revert\n    tag_84:\n      pop\n      tag_85\n      0x04\n      dup1\n      calldatasize\n      sub\n      dup2\n      add\n      swap1\n      tag_86\n      swap2\n      swap1\n      tag_87\n      jump\t// in\n    tag_86:\n      tag_88\n      jump\t// in\n    tag_85:\n      stop\n        /* \"@openzeppelin/contracts/token/ERC20/ERC20.sol\":3408:3533  function balanceOf(address account) public view virtual override returns (uint256) {... */\n    tag_14:\n      callvalue\n      dup1\n      iszero\n      tag_89\n      jumpi\n      0x00\n      dup1\n      revert\n    tag_89:\n      pop\n      tag_90\n      0x04\n      dup1\n      calldatasize\n      sub\n      dup2\n      add\n      swap1\n      tag_91\n      swap2\n      swap1\n      tag_92\n      jump\t// in\n    tag_91:\n      tag_93\n      jump\t// in\n    tag_90:\n      mload(0x40)\n      tag_94\n      swap2\n      swap1\n      tag_50\n      jump\t// in\n    tag_94:\n      mload(0x40)\n      dup1\n      swap2\n      sub\n      swap1\n      return\n        /* \"@openzeppelin/contracts/token/ERC20/ERC20.sol\":2367:2469  function symbol() public view virtual override returns (string memory) {... */\n    tag_15:\n      callvalue\n      dup1\n      iszero\n      tag_95\n      jumpi\n      0x00\n      dup1\n      revert\n    tag_95:\n      pop\n      tag_96\n      tag_97\n      jump\t// in\n    tag_96:\n      mload(0x40)\n      tag_98\n      swap2\n      swap1\n      tag_31\n      jump\t// in\n    tag_98:\n      mload(0x40)\n      dup1\n      swap2\n      sub\n      swap1\n      return\n        /* \"contracts/Pair.sol\":882:911  address public factoryAddress */\n    tag_16:\n      callvalue\n      dup1\n      iszero\n      tag_99\n      jumpi\n      0x00\n      dup1\n      revert\n    tag_99:\n      pop\n      tag_100\n      tag_101\n      jump\t// in\n    tag_100:\n      mload(0x40)\n      tag_102\n      swap2\n      swap1\n      tag_103\n      jump\t// in\n    tag_102:\n      mload(0x40)\n      dup1\n      swap2\n      sub\n      swap1\n      return\n        /* \"contracts/Pair.sol\":3386:4110  function removeLiquidity(uint256 lpTokenAmount) public returns (uint256 ethAmount, uint256 tokenAmount){... */\n    tag_17:\n      callvalue\n      dup1\n      iszero\n      tag_104\n      jumpi\n      0x00\n      dup1\n      revert\n    tag_104:\n      pop\n      tag_105\n      0x04\n      dup1\n      calldatasize\n      sub\n      dup2\n      add\n      swap1\n      tag_106\n      swap2\n      swap1\n      tag_47\n      jump\t// in\n    tag_106:\n      tag_107\n      jump\t// in\n    tag_105:\n      mload(0x40)\n      tag_108\n      swap3\n      swap2\n      swap1\n      tag_36\n      jump\t// in\n    tag_108:\n      mload(0x40)\n      dup1\n      swap2\n      sub\n      swap1\n      return\n        /* \"contracts/Pair.sol\":848:875  address public tokenAddress */\n    tag_18:\n      callvalue\n      dup1\n      iszero\n      tag_109\n      jumpi\n      0x00\n      dup1\n      revert\n    tag_109:\n      pop\n      tag_110\n      tag_111\n      jump\t// in\n    tag_110:\n      mload(0x40)\n      tag_112\n      swap2\n      swap1\n      tag_103\n      jump\t// in\n    tag_112:\n      mload(0x40)\n      dup1\n      swap2\n      sub\n      swap1\n      return\n        /* \"@openzeppelin/contracts/token/ERC20/ERC20.sol\":6594:7021  function decreaseAllowance(address spender, uint256 subtractedValue) public virtual returns (bool) {... */\n    tag_19:\n      callvalue\n      dup1\n      iszero\n      tag_113\n      jumpi\n      0x00\n      dup1\n      revert\n    tag_113:\n      pop\n      tag_114\n      0x04\n      dup1\n      calldatasize\n      sub\n      dup2\n      add\n      swap1\n      tag_115\n      swap2\n      swap1\n      tag_40\n      jump\t// in\n    tag_115:\n      tag_116\n      jump\t// in\n    tag_114:\n      mload(0x40)\n      tag_117\n      swap2\n      swap1\n      tag_43\n      jump\t// in\n    tag_117:\n      mload(0x40)\n      dup1\n      swap2\n      sub\n      swap1\n      return\n        /* \"@openzeppelin/contracts/token/ERC20/ERC20.sol\":3729:3918  function transfer(address to, uint256 amount) public virtual override returns (bool) {... */\n    tag_20:\n      callvalue\n      dup1\n      iszero\n      tag_118\n      jumpi\n      0x00\n      dup1\n      revert\n    tag_118:\n      pop\n      tag_119\n      0x04\n      dup1\n      calldatasize\n      sub\n      dup2\n      add\n      swap1\n      tag_120\n      swap2\n      swap1\n      tag_40\n      jump\t// in\n    tag_120:\n      tag_121\n      jump\t// in\n    tag_119:\n      mload(0x40)\n      tag_122\n      swap2\n      swap1\n      tag_43\n      jump\t// in\n    tag_122:\n      mload(0x40)\n      dup1\n      swap2\n      sub\n      swap1\n      return\n        /* \"@openzeppelin/contracts/token/ERC20/ERC20.sol\":3976:4125  function allowance(address owner, address spender) public view virtual override returns (uint256) {... */\n    tag_21:\n      callvalue\n      dup1\n      iszero\n      tag_123\n      jumpi\n      0x00\n      dup1\n      revert\n    tag_123:\n      pop\n      tag_124\n      0x04\n      dup1\n      calldatasize\n      sub\n      dup2\n      add\n      swap1\n      tag_125\n      swap2\n      swap1\n      tag_126\n      jump\t// in\n    tag_125:\n      tag_127\n      jump\t// in\n    tag_124:\n      mload(0x40)\n      tag_128\n      swap2\n      swap1\n      tag_50\n      jump\t// in\n    tag_128:\n      mload(0x40)\n      dup1\n      swap2\n      sub\n      swap1\n      return\n        /* \"contracts/Pair.sol\":7810:8673  function tokenToTokenSwap(uint256 ipTokenAmount, uint256 opTokenAmount, address opTokenAddress... */\n    tag_22:\n      callvalue\n      dup1\n      iszero\n      tag_129\n      jumpi\n      0x00\n      dup1\n      revert\n    tag_129:\n      pop\n      tag_130\n      0x04\n      dup1\n      calldatasize\n      sub\n      dup2\n      add\n      swap1\n      tag_131\n      swap2\n      swap1\n      tag_132\n      jump\t// in\n    tag_131:\n      tag_133\n      jump\t// in\n    tag_130:\n      stop\n        /* \"contracts/Pair.sol\":6141:6261  function ethToTokenSwap(uint256 tokenAmount) public payable {... */\n    tag_23:\n      tag_134\n      0x04\n      dup1\n      calldatasize\n      sub\n      dup2\n      add\n      swap1\n      tag_135\n      swap2\n      swap1\n      tag_47\n      jump\t// in\n    tag_135:\n      tag_136\n      jump\t// in\n    tag_134:\n      stop\n        /* \"@openzeppelin/contracts/token/ERC20/ERC20.sol\":2156:2254  function name() public view virtual override returns (string memory) {... */\n    tag_29:\n        /* \"@openzeppelin/contracts/token/ERC20/ERC20.sol\":2210:2223  string memory */\n      0x60\n        /* \"@openzeppelin/contracts/token/ERC20/ERC20.sol\":2242:2247  _name */\n      0x03\n        /* \"@openzeppelin/contracts/token/ERC20/ERC20.sol\":2235:2247  return _name */\n      dup1\n      sload\n      tag_138\n      swap1\n      tag_139\n      jump\t// in\n    tag_138:\n      dup1\n      0x1f\n      add\n      0x20\n      dup1\n      swap2\n      div\n      mul\n      0x20\n      add\n      mload(0x40)\n      swap1\n      dup2\n      add\n      0x40\n      mstore\n      dup1\n      swap3\n      swap2\n      swap1\n      dup2\n      dup2\n      mstore\n      0x20\n      add\n      dup3\n      dup1\n      sload\n      tag_140\n      swap1\n      tag_139\n      jump\t// in\n    tag_140:\n      dup1\n      iszero\n      tag_141\n      jumpi\n      dup1\n      0x1f\n      lt\n      tag_142\n      jumpi\n      0x0100\n      dup1\n      dup4\n      sload\n      div\n      mul\n      dup4\n      mstore\n      swap2\n      0x20\n      add\n      swap2\n      jump(tag_141)\n    tag_142:\n      dup3\n      add\n      swap2\n      swap1\n      0x00\n      mstore\n      keccak256(0x00, 0x20)\n      swap1\n    tag_143:\n      dup2\n      sload\n      dup2\n      mstore\n      swap1\n      0x01\n      add\n      swap1\n      0x20\n      add\n      dup1\n      dup4\n      gt\n      tag_143\n      jumpi\n      dup3\n      swap1\n      sub\n      0x1f\n      and\n      dup3\n      add\n      swap2\n    tag_141:\n      pop\n      pop\n      pop\n      pop\n      pop\n      swap1\n      pop\n        /* \"@openzeppelin/contracts/token/ERC20/ERC20.sol\":2156:2254  function name() public view virtual override returns (string memory) {... */\n      swap1\n      jump\t// out\n        /* \"contracts/Pair.sol\":1826:2036  function getReserves() public view returns (uint256 tokenReserve, uint256 ethReserve) {... */\n    tag_34:\n        /* \"contracts/Pair.sol\":1870:1890  uint256 tokenReserve */\n      0x00\n        /* \"contracts/Pair.sol\":1892:1910  uint256 ethReserve */\n      dup1\n        /* \"contracts/Pair.sol\":1945:1957  tokenAddress */\n      0x05\n      0x00\n      swap1\n      sload\n      swap1\n      0x0100\n      exp\n      swap1\n      div\n      0xffffffffffffffffffffffffffffffffffffffff\n      and\n        /* \"contracts/Pair.sol\":1938:1968  IERC20(tokenAddress).balanceOf */\n      0xffffffffffffffffffffffffffffffffffffffff\n      and\n      0x70a08231\n        /* \"contracts/Pair.sol\":1977:1981  this */\n      address\n        /* \"contracts/Pair.sol\":1938:1983  IERC20(tokenAddress).balanceOf(address(this)) */\n      mload(0x40)\n      dup3\n      0xffffffff\n      and\n      0xe0\n      shl\n      dup2\n      mstore\n      0x04\n      add\n      tag_145\n      swap2\n      swap1\n      tag_103\n      jump\t// in\n    tag_145:\n      0x20\n      mload(0x40)\n      dup1\n      dup4\n      sub\n      dup2\n      dup7\n      gas\n      staticcall\n      iszero\n      dup1\n      iszero\n      tag_147\n      jumpi\n      returndatasize\n      0x00\n      dup1\n      returndatacopy\n      revert(0x00, returndatasize)\n    tag_147:\n      pop\n      pop\n      pop\n      pop\n      mload(0x40)\n      returndatasize\n      not(0x1f)\n      0x1f\n      dup3\n      add\n      and\n      dup3\n      add\n      dup1\n      0x40\n      mstore\n      pop\n      dup2\n      add\n      swap1\n      tag_148\n      swap2\n      swap1\n      tag_149\n      jump\t// in\n    tag_148:\n        /* \"contracts/Pair.sol\":1923:1983  tokenReserve = IERC20(tokenAddress).balanceOf(address(this)) */\n      swap2\n      pop\n        /* \"contracts/Pair.sol\":2007:2028  address(this).balance */\n      selfbalance\n        /* \"contracts/Pair.sol\":1994:2028  ethReserve = address(this).balance */\n      swap1\n      pop\n        /* \"contracts/Pair.sol\":1826:2036  function getReserves() public view returns (uint256 tokenReserve, uint256 ethReserve) {... */\n      swap1\n      swap2\n      jump\t// out\n        /* \"@openzeppelin/contracts/token/ERC20/ERC20.sol\":4433:4630  function approve(address spender, uint256 amount) public virtual override returns (bool) {... */\n    tag_41:\n        /* \"@openzeppelin/contracts/token/ERC20/ERC20.sol\":4516:4520  bool */\n      0x00\n        /* \"@openzeppelin/contracts/token/ERC20/ERC20.sol\":4532:4545  address owner */\n      dup1\n        /* \"@openzeppelin/contracts/token/ERC20/ERC20.sol\":4548:4560  _msgSender() */\n      tag_151\n        /* \"@openzeppelin/contracts/token/ERC20/ERC20.sol\":4548:4558  _msgSender */\n      tag_152\n        /* \"@openzeppelin/contracts/token/ERC20/ERC20.sol\":4548:4560  _msgSender() */\n      jump\t// in\n    tag_151:\n        /* \"@openzeppelin/contracts/token/ERC20/ERC20.sol\":4532:4560  address owner = _msgSender() */\n      swap1\n      pop\n        /* \"@openzeppelin/contracts/token/ERC20/ERC20.sol\":4570:4602  _approve(owner, spender, amount) */\n      tag_153\n        /* \"@openzeppelin/contracts/token/ERC20/ERC20.sol\":4579:4584  owner */\n      dup2\n        /* \"@openzeppelin/contracts/token/ERC20/ERC20.sol\":4586:4593  spender */\n      dup6\n        /* \"@openzeppelin/contracts/token/ERC20/ERC20.sol\":4595:4601  amount */\n      dup6\n        /* \"@openzeppelin/contracts/token/ERC20/ERC20.sol\":4570:4578  _approve */\n      tag_154\n        /* \"@openzeppelin/contracts/token/ERC20/ERC20.sol\":4570:4602  _approve(owner, spender, amount) */\n      jump\t// in\n    tag_153:\n        /* \"@openzeppelin/contracts/token/ERC20/ERC20.sol\":4619:4623  true */\n      0x01\n        /* \"@openzeppelin/contracts/token/ERC20/ERC20.sol\":4612:4623  return true */\n      swap2\n      pop\n      pop\n        /* \"@openzeppelin/contracts/token/ERC20/ERC20.sol\":4433:4630  function approve(address spender, uint256 amount) public virtual override returns (bool) {... */\n      swap3\n      swap2\n      pop\n      pop\n      jump\t// out\n        /* \"contracts/Pair.sol\":4532:4889  function getTokenAmountForSwap(uint256 ethAmount) public view returns (uint256 tokenAmount){... */\n    tag_48:\n        /* \"contracts/Pair.sol\":4603:4622  uint256 tokenAmount */\n      0x00\n        /* \"contracts/Pair.sol\":4654:4655  0 */\n      dup1\n        /* \"contracts/Pair.sol\":4642:4651  ethAmount */\n      dup3\n        /* \"contracts/Pair.sol\":4642:4655  ethAmount > 0 */\n      gt\n        /* \"contracts/Pair.sol\":4634:4685  require(ethAmount > 0, \"ETH amount cannot be zero\") */\n      tag_156\n      jumpi\n      mload(0x40)\n      0x08c379a000000000000000000000000000000000000000000000000000000000\n      dup2\n      mstore\n      0x04\n      add\n      tag_157\n      swap1\n      tag_158\n      jump\t// in\n    tag_157:\n      mload(0x40)\n      dup1\n      swap2\n      sub\n      swap1\n      revert\n    tag_156:\n        /* \"contracts/Pair.sol\":4699:4719  uint256 tokenReserve */\n      0x00\n        /* \"contracts/Pair.sol\":4721:4739  uint256 ethReserve */\n      dup1\n        /* \"contracts/Pair.sol\":4743:4756  getReserves() */\n      tag_159\n        /* \"contracts/Pair.sol\":4743:4754  getReserves */\n      tag_34\n        /* \"contracts/Pair.sol\":4743:4756  getReserves() */\n      jump\t// in\n    tag_159:\n        /* \"contracts/Pair.sol\":4698:4756  (uint256 tokenReserve, uint256 ethReserve) = getReserves() */\n      swap2\n      pop\n      swap2\n      pop\n        /* \"contracts/Pair.sol\":4829:4881  getOutputAmount(ethAmount, ethReserve, tokenReserve) */\n      tag_160\n        /* \"contracts/Pair.sol\":4845:4854  ethAmount */\n      dup5\n        /* \"contracts/Pair.sol\":4856:4866  ethReserve */\n      dup3\n        /* \"contracts/Pair.sol\":4868:4880  tokenReserve */\n      dup5\n        /* \"contracts/Pair.sol\":4829:4844  getOutputAmount */\n      tag_161\n        /* \"contracts/Pair.sol\":4829:4881  getOutputAmount(ethAmount, ethReserve, tokenReserve) */\n      jump\t// in\n    tag_160:\n        /* \"contracts/Pair.sol\":4815:4881  tokenAmount = getOutputAmount(ethAmount, ethReserve, tokenReserve) */\n      swap3\n      pop\n        /* \"contracts/Pair.sol\":4623:4889  {... */\n      pop\n      pop\n        /* \"contracts/Pair.sol\":4532:4889  function getTokenAmountForSwap(uint256 ethAmount) public view returns (uint256 tokenAmount){... */\n      swap2\n      swap1\n      pop\n      jump\t// out\n        /* \"@openzeppelin/contracts/token/ERC20/ERC20.sol\":3244:3350  function totalSupply() public view virtual override returns (uint256) {... */\n    tag_53:\n        /* \"@openzeppelin/contracts/token/ERC20/ERC20.sol\":3305:3312  uint256 */\n      0x00\n        /* \"@openzeppelin/contracts/token/ERC20/ERC20.sol\":3331:3343  _totalSupply */\n      sload(0x02)\n        /* \"@openzeppelin/contracts/token/ERC20/ERC20.sol\":3324:3343  return _totalSupply */\n      swap1\n      pop\n        /* \"@openzeppelin/contracts/token/ERC20/ERC20.sol\":3244:3350  function totalSupply() public view virtual override returns (uint256) {... */\n      swap1\n      jump\t// out\n        /* \"@openzeppelin/contracts/token/ERC20/ERC20.sol\":5192:5478  function transferFrom(... */\n    tag_59:\n        /* \"@openzeppelin/contracts/token/ERC20/ERC20.sol\":5319:5323  bool */\n      0x00\n        /* \"@openzeppelin/contracts/token/ERC20/ERC20.sol\":5335:5350  address spender */\n      dup1\n        /* \"@openzeppelin/contracts/token/ERC20/ERC20.sol\":5353:5365  _msgSender() */\n      tag_164\n        /* \"@openzeppelin/contracts/token/ERC20/ERC20.sol\":5353:5363  _msgSender */\n      tag_152\n        /* \"@openzeppelin/contracts/token/ERC20/ERC20.sol\":5353:5365  _msgSender() */\n      jump\t// in\n    tag_164:\n        /* \"@openzeppelin/contracts/token/ERC20/ERC20.sol\":5335:5365  address spender = _msgSender() */\n      swap1\n      pop\n        /* \"@openzeppelin/contracts/token/ERC20/ERC20.sol\":5375:5413  _spendAllowance(from, spender, amount) */\n      tag_165\n        /* \"@openzeppelin/contracts/token/ERC20/ERC20.sol\":5391:5395  from */\n      dup6\n        /* \"@openzeppelin/contracts/token/ERC20/ERC20.sol\":5397:5404  spender */\n      dup3\n        /* \"@openzeppelin/contracts/token/ERC20/ERC20.sol\":5406:5412  amount */\n      dup6\n        /* \"@openzeppelin/contracts/token/ERC20/ERC20.sol\":5375:5390  _spendAllowance */\n      tag_166\n        /* \"@openzeppelin/contracts/token/ERC20/ERC20.sol\":5375:5413  _spendAllowance(from, spender, amount) */\n      jump\t// in\n    tag_165:\n        /* \"@openzeppelin/contracts/token/ERC20/ERC20.sol\":5423:5450  _transfer(from, to, amount) */\n      tag_167\n        /* \"@openzeppelin/contracts/token/ERC20/ERC20.sol\":5433:5437  from */\n      dup6\n        /* \"@openzeppelin/contracts/token/ERC20/ERC20.sol\":5439:5441  to */\n      dup6\n        /* \"@openzeppelin/contracts/token/ERC20/ERC20.sol\":5443:5449  amount */\n      dup6\n        /* \"@openzeppelin/contracts/token/ERC20/ERC20.sol\":5423:5432  _transfer */\n      tag_168\n        /* \"@openzeppelin/contracts/token/ERC20/ERC20.sol\":5423:5450  _transfer(from, to, amount) */\n      jump\t// in\n    tag_167:\n        /* \"@openzeppelin/contracts/token/ERC20/ERC20.sol\":5467:5471  true */\n      0x01\n        /* \"@openzeppelin/contracts/token/ERC20/ERC20.sol\":5460:5471  return true */\n      swap2\n      pop\n      pop\n        /* \"@openzeppelin/contracts/token/ERC20/ERC20.sol\":5192:5478  function transferFrom(... */\n      swap4\n      swap3\n      pop\n      pop\n      pop\n      jump\t// out\n        /* \"contracts/Pair.sol\":4949:5304  function getEthAmountForSwap(uint256 tokenAmount) public view returns (uint256 ethAmount){... */\n    tag_64:\n        /* \"contracts/Pair.sol\":5020:5037  uint256 ethAmount */\n      0x00\n        /* \"contracts/Pair.sol\":5069:5070  0 */\n      dup1\n        /* \"contracts/Pair.sol\":5057:5066  ethAmount */\n      dup2\n        /* \"contracts/Pair.sol\":5057:5070  ethAmount > 0 */\n      gt\n        /* \"contracts/Pair.sol\":5049:5100  require(ethAmount > 0, \"ETH amount cannot be zero\") */\n      tag_170\n      jumpi\n      mload(0x40)\n      0x08c379a000000000000000000000000000000000000000000000000000000000\n      dup2\n      mstore\n      0x04\n      add\n      tag_171\n      swap1\n      tag_158\n      jump\t// in\n    tag_171:\n      mload(0x40)\n      dup1\n      swap2\n      sub\n      swap1\n      revert\n    tag_170:\n        /* \"contracts/Pair.sol\":5114:5134  uint256 tokenReserve */\n      0x00\n        /* \"contracts/Pair.sol\":5136:5154  uint256 ethReserve */\n      dup1\n        /* \"contracts/Pair.sol\":5158:5171  getReserves() */\n      tag_172\n        /* \"contracts/Pair.sol\":5158:5169  getReserves */\n      tag_34\n        /* \"contracts/Pair.sol\":5158:5171  getReserves() */\n      jump\t// in\n    tag_172:\n        /* \"contracts/Pair.sol\":5113:5171  (uint256 tokenReserve, uint256 ethReserve) = getReserves() */\n      swap2\n      pop\n      swap2\n      pop\n        /* \"contracts/Pair.sol\":5242:5296  getOutputAmount(tokenAmount, tokenReserve, ethReserve) */\n      tag_173\n        /* \"contracts/Pair.sol\":5258:5269  tokenAmount */\n      dup5\n        /* \"contracts/Pair.sol\":5271:5283  tokenReserve */\n      dup4\n        /* \"contracts/Pair.sol\":5285:5295  ethReserve */\n      dup4\n        /* \"contracts/Pair.sol\":5242:5257  getOutputAmount */\n      tag_161\n        /* \"contracts/Pair.sol\":5242:5296  getOutputAmount(tokenAmount, tokenReserve, ethReserve) */\n      jump\t// in\n    tag_173:\n        /* \"contracts/Pair.sol\":5230:5296  ethAmount = getOutputAmount(tokenAmount, tokenReserve, ethReserve) */\n      swap3\n      pop\n        /* \"contracts/Pair.sol\":5038:5304  {... */\n      pop\n      pop\n        /* \"contracts/Pair.sol\":4949:5304  function getEthAmountForSwap(uint256 tokenAmount) public view returns (uint256 ethAmount){... */\n      swap2\n      swap1\n      pop\n      jump\t// out\n        /* \"@openzeppelin/contracts/token/ERC20/ERC20.sol\":3093:3184  function decimals() public view virtual override returns (uint8) {... */\n    tag_68:\n        /* \"@openzeppelin/contracts/token/ERC20/ERC20.sol\":3151:3156  uint8 */\n      0x00\n        /* \"@openzeppelin/contracts/token/ERC20/ERC20.sol\":3175:3177  18 */\n      0x12\n        /* \"@openzeppelin/contracts/token/ERC20/ERC20.sol\":3168:3177  return 18 */\n      swap1\n      pop\n        /* \"@openzeppelin/contracts/token/ERC20/ERC20.sol\":3093:3184  function decimals() public view virtual override returns (uint8) {... */\n      swap1\n      jump\t// out\n        /* \"contracts/Pair.sol\":5959:6100  function ethToTokenTransfer(uint256 tokenAmount, address recipient) public payable{... */\n    tag_74:\n        /* \"contracts/Pair.sol\":6052:6092  ethForTokenBasic(tokenAmount, recipient) */\n      tag_176\n        /* \"contracts/Pair.sol\":6069:6080  tokenAmount */\n      dup3\n        /* \"contracts/Pair.sol\":6082:6091  recipient */\n      dup3\n        /* \"contracts/Pair.sol\":6052:6068  ethForTokenBasic */\n      tag_177\n        /* \"contracts/Pair.sol\":6052:6092  ethForTokenBasic(tokenAmount, recipient) */\n      jump\t// in\n    tag_176:\n        /* \"contracts/Pair.sol\":5959:6100  function ethToTokenTransfer(uint256 tokenAmount, address recipient) public payable{... */\n      pop\n      pop\n      jump\t// out\n        /* \"@openzeppelin/contracts/token/ERC20/ERC20.sol\":5873:6107  function increaseAllowance(address spender, uint256 addedValue) public virtual returns (bool) {... */\n    tag_78:\n        /* \"@openzeppelin/contracts/token/ERC20/ERC20.sol\":5961:5965  bool */\n      0x00\n        /* \"@openzeppelin/contracts/token/ERC20/ERC20.sol\":5977:5990  address owner */\n      dup1\n        /* \"@openzeppelin/contracts/token/ERC20/ERC20.sol\":5993:6005  _msgSender() */\n      tag_179\n        /* \"@openzeppelin/contracts/token/ERC20/ERC20.sol\":5993:6003  _msgSender */\n      tag_152\n        /* \"@openzeppelin/contracts/token/ERC20/ERC20.sol\":5993:6005  _msgSender() */\n      jump\t// in\n    tag_179:\n        /* \"@openzeppelin/contracts/token/ERC20/ERC20.sol\":5977:6005  address owner = _msgSender() */\n      swap1\n      pop\n        /* \"@openzeppelin/contracts/token/ERC20/ERC20.sol\":6015:6079  _approve(owner, spender, allowance(owner, spender) + addedValue) */\n      tag_180\n        /* \"@openzeppelin/contracts/token/ERC20/ERC20.sol\":6024:6029  owner */\n      dup2\n        /* \"@openzeppelin/contracts/token/ERC20/ERC20.sol\":6031:6038  spender */\n      dup6\n        /* \"@openzeppelin/contracts/token/ERC20/ERC20.sol\":6068:6078  addedValue */\n      dup6\n        /* \"@openzeppelin/contracts/token/ERC20/ERC20.sol\":6040:6065  allowance(owner, spender) */\n      tag_181\n        /* \"@openzeppelin/contracts/token/ERC20/ERC20.sol\":6050:6055  owner */\n      dup6\n        /* \"@openzeppelin/contracts/token/ERC20/ERC20.sol\":6057:6064  spender */\n      dup10\n        /* \"@openzeppelin/contracts/token/ERC20/ERC20.sol\":6040:6049  allowance */\n      tag_127\n        /* \"@openzeppelin/contracts/token/ERC20/ERC20.sol\":6040:6065  allowance(owner, spender) */\n      jump\t// in\n    tag_181:\n        /* \"@openzeppelin/contracts/token/ERC20/ERC20.sol\":6040:6078  allowance(owner, spender) + addedValue */\n      tag_182\n      swap2\n      swap1\n      tag_183\n      jump\t// in\n    tag_182:\n        /* \"@openzeppelin/contracts/token/ERC20/ERC20.sol\":6015:6023  _approve */\n      tag_154\n        /* \"@openzeppelin/contracts/token/ERC20/ERC20.sol\":6015:6079  _approve(owner, spender, allowance(owner, spender) + addedValue) */\n      jump\t// in\n    tag_180:\n        /* \"@openzeppelin/contracts/token/ERC20/ERC20.sol\":6096:6100  true */\n      0x01\n        /* \"@openzeppelin/contracts/token/ERC20/ERC20.sol\":6089:6100  return true */\n      swap2\n      pop\n      pop\n        /* \"@openzeppelin/contracts/token/ERC20/ERC20.sol\":5873:6107  function increaseAllowance(address spender, uint256 addedValue) public virtual returns (bool) {... */\n      swap3\n      swap2\n      pop\n      pop\n      jump\t// out\n        /* \"contracts/Pair.sol\":2044:3378  function addLiquidity(uint256 inputTokenAmount ) public payable returns (uint256 lpTokenAmount){... */\n    tag_82:\n        /* \"contracts/Pair.sol\":2117:2138  uint256 lpTokenAmount */\n      0x00\n        /* \"contracts/Pair.sol\":2151:2171  uint256 tokenReserve */\n      dup1\n        /* \"contracts/Pair.sol\":2173:2191  uint256 ethReserve */\n      0x00\n        /* \"contracts/Pair.sol\":2195:2208  getReserves() */\n      tag_185\n        /* \"contracts/Pair.sol\":2195:2206  getReserves */\n      tag_34\n        /* \"contracts/Pair.sol\":2195:2208  getReserves() */\n      jump\t// in\n    tag_185:\n        /* \"contracts/Pair.sol\":2150:2208  (uint256 tokenReserve, uint256 ethReserve) = getReserves() */\n      swap2\n      pop\n      swap2\n      pop\n        /* \"contracts/Pair.sol\":2437:2438  0 */\n      0x00\n        /* \"contracts/Pair.sol\":2421:2433  tokenReserve */\n      dup3\n        /* \"contracts/Pair.sol\":2421:2438  tokenReserve == 0 */\n      sub\n        /* \"contracts/Pair.sol\":2417:3257  if (tokenReserve == 0) {... */\n      tag_186\n      jumpi\n        /* \"contracts/Pair.sol\":2455:2467  IERC20 token */\n      0x00\n        /* \"contracts/Pair.sol\":2477:2489  tokenAddress */\n      0x05\n      0x00\n      swap1\n      sload\n      swap1\n      0x0100\n      exp\n      swap1\n      div\n      0xffffffffffffffffffffffffffffffffffffffff\n      and\n        /* \"contracts/Pair.sol\":2455:2490  IERC20 token = IERC20(tokenAddress) */\n      swap1\n      pop\n        /* \"contracts/Pair.sol\":2505:2510  token */\n      dup1\n        /* \"contracts/Pair.sol\":2505:2523  token.transferFrom */\n      0xffffffffffffffffffffffffffffffffffffffff\n      and\n      0x23b872dd\n        /* \"contracts/Pair.sol\":2524:2534  msg.sender */\n      caller\n        /* \"contracts/Pair.sol\":2544:2548  this */\n      address\n        /* \"contracts/Pair.sol\":2551:2567  inputTokenAmount */\n      dup9\n        /* \"contracts/Pair.sol\":2505:2568  token.transferFrom(msg.sender, address(this), inputTokenAmount) */\n      mload(0x40)\n      dup5\n      0xffffffff\n      and\n      0xe0\n      shl\n      dup2\n      mstore\n      0x04\n      add\n      tag_187\n      swap4\n      swap3\n      swap2\n      swap1\n      tag_188\n      jump\t// in\n    tag_187:\n      0x20\n      mload(0x40)\n      dup1\n      dup4\n      sub\n      dup2\n      0x00\n      dup8\n      gas\n      call\n      iszero\n      dup1\n      iszero\n      tag_190\n      jumpi\n      returndatasize\n      0x00\n      dup1\n      returndatacopy\n      revert(0x00, returndatasize)\n    tag_190:\n      pop\n      pop\n      pop\n      pop\n      mload(0x40)\n      returndatasize\n      not(0x1f)\n      0x1f\n      dup3\n      add\n      and\n      dup3\n      add\n      dup1\n      0x40\n      mstore\n      pop\n      dup2\n      add\n      swap1\n      tag_191\n      swap2\n      swap1\n      tag_192\n      jump\t// in\n    tag_191:\n      pop\n        /* \"contracts/Pair.sol\":2599:2609  ethReserve */\n      dup2\n        /* \"contracts/Pair.sol\":2583:2609  lpTokenAmount = ethReserve */\n      swap4\n      pop\n        /* \"contracts/Pair.sol\":2440:2622  {... */\n      pop\n        /* \"contracts/Pair.sol\":2417:3257  if (tokenReserve == 0) {... */\n      jump(tag_193)\n    tag_186:\n        /* \"contracts/Pair.sol\":2700:2709  msg.value */\n      callvalue\n        /* \"contracts/Pair.sol\":2686:2709  ethReserve -= msg.value */\n      dup2\n      tag_194\n      swap2\n      swap1\n      tag_195\n      jump\t// in\n    tag_194:\n      swap1\n      pop\n        /* \"contracts/Pair.sol\":2797:2823  uint256 requiredTokenInput */\n      0x00\n        /* \"contracts/Pair.sol\":2851:2861  ethReserve */\n      dup2\n        /* \"contracts/Pair.sol\":2838:2850  tokenReserve */\n      dup4\n        /* \"contracts/Pair.sol\":2826:2835  msg.value */\n      callvalue\n        /* \"contracts/Pair.sol\":2826:2850  msg.value * tokenReserve */\n      tag_196\n      swap2\n      swap1\n      tag_197\n      jump\t// in\n    tag_196:\n        /* \"contracts/Pair.sol\":2826:2861  msg.value * tokenReserve/ethReserve */\n      tag_198\n      swap2\n      swap1\n      tag_199\n      jump\t// in\n    tag_198:\n        /* \"contracts/Pair.sol\":2797:2861  uint256 requiredTokenInput = msg.value * tokenReserve/ethReserve */\n      swap1\n      pop\n        /* \"contracts/Pair.sol\":2982:3000  requiredTokenInput */\n      dup1\n        /* \"contracts/Pair.sol\":2962:2978  inputTokenAmount */\n      dup6\n        /* \"contracts/Pair.sol\":2962:3000  inputTokenAmount >= requiredTokenInput */\n      lt\n      iszero\n        /* \"contracts/Pair.sol\":2954:3046  require(inputTokenAmount >= requiredTokenInput, \"Insufficient input amount of ERC20 Tokens\") */\n      tag_200\n      jumpi\n      mload(0x40)\n      0x08c379a000000000000000000000000000000000000000000000000000000000\n      dup2\n      mstore\n      0x04\n      add\n      tag_201\n      swap1\n      tag_202\n      jump\t// in\n    tag_201:\n      mload(0x40)\n      dup1\n      swap2\n      sub\n      swap1\n      revert\n    tag_200:\n        /* \"contracts/Pair.sol\":3061:3073  IERC20 token */\n      0x00\n        /* \"contracts/Pair.sol\":3083:3095  tokenAddress */\n      0x05\n      0x00\n      swap1\n      sload\n      swap1\n      0x0100\n      exp\n      swap1\n      div\n      0xffffffffffffffffffffffffffffffffffffffff\n      and\n        /* \"contracts/Pair.sol\":3061:3096  IERC20 token = IERC20(tokenAddress) */\n      swap1\n      pop\n        /* \"contracts/Pair.sol\":3111:3116  token */\n      dup1\n        /* \"contracts/Pair.sol\":3111:3129  token.transferFrom */\n      0xffffffffffffffffffffffffffffffffffffffff\n      and\n      0x23b872dd\n        /* \"contracts/Pair.sol\":3130:3140  msg.sender */\n      caller\n        /* \"contracts/Pair.sol\":3150:3154  this */\n      address\n        /* \"contracts/Pair.sol\":3157:3173  inputTokenAmount */\n      dup10\n        /* \"contracts/Pair.sol\":3111:3174  token.transferFrom(msg.sender, address(this), inputTokenAmount) */\n      mload(0x40)\n      dup5\n      0xffffffff\n      and\n      0xe0\n      shl\n      dup2\n      mstore\n      0x04\n      add\n      tag_203\n      swap4\n      swap3\n      swap2\n      swap1\n      tag_188\n      jump\t// in\n    tag_203:\n      0x20\n      mload(0x40)\n      dup1\n      dup4\n      sub\n      dup2\n      0x00\n      dup8\n      gas\n      call\n      iszero\n      dup1\n      iszero\n      tag_205\n      jumpi\n      returndatasize\n      0x00\n      dup1\n      returndatacopy\n      revert(0x00, returndatasize)\n    tag_205:\n      pop\n      pop\n      pop\n      pop\n      mload(0x40)\n      returndatasize\n      not(0x1f)\n      0x1f\n      dup3\n      add\n      and\n      dup3\n      add\n      dup1\n      0x40\n      mstore\n      pop\n      dup2\n      add\n      swap1\n      tag_206\n      swap2\n      swap1\n      tag_192\n      jump\t// in\n    tag_206:\n      pop\n        /* \"contracts/Pair.sol\":3235:3245  ethReserve */\n      dup3\n        /* \"contracts/Pair.sol\":3222:3231  msg.value */\n      callvalue\n        /* \"contracts/Pair.sol\":3206:3219  totalSupply() */\n      tag_207\n        /* \"contracts/Pair.sol\":3206:3217  totalSupply */\n      tag_53\n        /* \"contracts/Pair.sol\":3206:3219  totalSupply() */\n      jump\t// in\n    tag_207:\n        /* \"contracts/Pair.sol\":3206:3231  totalSupply() * msg.value */\n      tag_208\n      swap2\n      swap1\n      tag_197\n      jump\t// in\n    tag_208:\n        /* \"contracts/Pair.sol\":3205:3245  (totalSupply() * msg.value) / ethReserve */\n      tag_209\n      swap2\n      swap1\n      tag_199\n      jump\t// in\n    tag_209:\n        /* \"contracts/Pair.sol\":3189:3245  lpTokenAmount = (totalSupply() * msg.value) / ethReserve */\n      swap5\n      pop\n        /* \"contracts/Pair.sol\":2671:3257  {... */\n      pop\n      pop\n        /* \"contracts/Pair.sol\":2417:3257  if (tokenReserve == 0) {... */\n    tag_193:\n        /* \"contracts/Pair.sol\":3269:3301  _mint(msg.sender, lpTokenAmount) */\n      tag_210\n        /* \"contracts/Pair.sol\":3275:3285  msg.sender */\n      caller\n        /* \"contracts/Pair.sol\":3287:3300  lpTokenAmount */\n      dup5\n        /* \"contracts/Pair.sol\":3269:3274  _mint */\n      tag_211\n        /* \"contracts/Pair.sol\":3269:3301  _mint(msg.sender, lpTokenAmount) */\n      jump\t// in\n    tag_210:\n        /* \"contracts/Pair.sol\":3353:3369  inputTokenAmount */\n      dup4\n        /* \"contracts/Pair.sol\":3342:3351  msg.value */\n      callvalue\n        /* \"contracts/Pair.sol\":3330:3340  msg.sender */\n      caller\n        /* \"contracts/Pair.sol\":3317:3370  AddLiquidity(msg.sender, msg.value, inputTokenAmount) */\n      0xffffffffffffffffffffffffffffffffffffffff\n      and\n      0x06239653922ac7bea6aa2b19dc486b9361821d37712eb796adfd38d81de278ca\n      mload(0x40)\n      mload(0x40)\n      dup1\n      swap2\n      sub\n      swap1\n      log4\n        /* \"contracts/Pair.sol\":2139:3378  {... */\n      pop\n      pop\n        /* \"contracts/Pair.sol\":2044:3378  function addLiquidity(uint256 inputTokenAmount ) public payable returns (uint256 lpTokenAmount){... */\n      swap2\n      swap1\n      pop\n      jump\t// out\n        /* \"contracts/Pair.sol\":6277:6926  function tokenForEthSwap(uint256 ipTokenAmount, uint256 opEthAmount) public {... */\n    tag_88:\n        /* \"contracts/Pair.sol\":6365:6385  uint256 tokenReserve */\n      0x00\n        /* \"contracts/Pair.sol\":6387:6405  uint256 ethReserve */\n      dup1\n        /* \"contracts/Pair.sol\":6409:6422  getReserves() */\n      tag_213\n        /* \"contracts/Pair.sol\":6409:6420  getReserves */\n      tag_34\n        /* \"contracts/Pair.sol\":6409:6422  getReserves() */\n      jump\t// in\n    tag_213:\n        /* \"contracts/Pair.sol\":6364:6422  (uint256 tokenReserve, uint256 ethReserve) = getReserves() */\n      swap2\n      pop\n      swap2\n      pop\n        /* \"contracts/Pair.sol\":6435:6454  uint256 ethRecieved */\n      0x00\n        /* \"contracts/Pair.sol\":6457:6513  getOutputAmount(ipTokenAmount, tokenReserve, ethReserve) */\n      tag_214\n        /* \"contracts/Pair.sol\":6473:6486  ipTokenAmount */\n      dup6\n        /* \"contracts/Pair.sol\":6488:6500  tokenReserve */\n      dup5\n        /* \"contracts/Pair.sol\":6502:6512  ethReserve */\n      dup5\n        /* \"contracts/Pair.sol\":6457:6472  getOutputAmount */\n      tag_161\n        /* \"contracts/Pair.sol\":6457:6513  getOutputAmount(ipTokenAmount, tokenReserve, ethReserve) */\n      jump\t// in\n    tag_214:\n        /* \"contracts/Pair.sol\":6435:6513  uint256 ethRecieved = getOutputAmount(ipTokenAmount, tokenReserve, ethReserve) */\n      swap1\n      pop\n        /* \"contracts/Pair.sol\":6549:6560  opEthAmount */\n      dup4\n        /* \"contracts/Pair.sol\":6534:6545  ethRecieved */\n      dup2\n        /* \"contracts/Pair.sol\":6534:6560  ethRecieved >= opEthAmount */\n      lt\n      iszero\n        /* \"contracts/Pair.sol\":6526:6632  require(ethRecieved >= opEthAmount, \"Amount swapped does not meet your stipulated amount, reverting swap\") */\n      tag_215\n      jumpi\n      mload(0x40)\n      0x08c379a000000000000000000000000000000000000000000000000000000000\n      dup2\n      mstore\n      0x04\n      add\n      tag_216\n      swap1\n      tag_217\n      jump\t// in\n    tag_216:\n      mload(0x40)\n      dup1\n      swap2\n      sub\n      swap1\n      revert\n    tag_215:\n        /* \"contracts/Pair.sol\":6650:6662  tokenAddress */\n      0x05\n      0x00\n      swap1\n      sload\n      swap1\n      0x0100\n      exp\n      swap1\n      div\n      0xffffffffffffffffffffffffffffffffffffffff\n      and\n        /* \"contracts/Pair.sol\":6643:6676  IERC20(tokenAddress).transferFrom */\n      0xffffffffffffffffffffffffffffffffffffffff\n      and\n      0x23b872dd\n        /* \"contracts/Pair.sol\":6677:6687  msg.sender */\n      caller\n        /* \"contracts/Pair.sol\":6697:6701  this */\n      address\n        /* \"contracts/Pair.sol\":6704:6717  ipTokenAmount */\n      dup9\n        /* \"contracts/Pair.sol\":6643:6718  IERC20(tokenAddress).transferFrom(msg.sender, address(this), ipTokenAmount) */\n      mload(0x40)\n      dup5\n      0xffffffff\n      and\n      0xe0\n      shl\n      dup2\n      mstore\n      0x04\n      add\n      tag_218\n      swap4\n      swap3\n      swap2\n      swap1\n      tag_188\n      jump\t// in\n    tag_218:\n      0x20\n      mload(0x40)\n      dup1\n      dup4\n      sub\n      dup2\n      0x00\n      dup8\n      gas\n      call\n      iszero\n      dup1\n      iszero\n      tag_220\n      jumpi\n      returndatasize\n      0x00\n      dup1\n      returndatacopy\n      revert(0x00, returndatasize)\n    tag_220:\n      pop\n      pop\n      pop\n      pop\n      mload(0x40)\n      returndatasize\n      not(0x1f)\n      0x1f\n      dup3\n      add\n      and\n      dup3\n      add\n      dup1\n      0x40\n      mstore\n      pop\n      dup2\n      add\n      swap1\n      tag_221\n      swap2\n      swap1\n      tag_192\n      jump\t// in\n    tag_221:\n      pop\n        /* \"contracts/Pair.sol\":6730:6739  bool sent */\n      0x00\n        /* \"contracts/Pair.sol\":6746:6756  msg.sender */\n      caller\n        /* \"contracts/Pair.sol\":6745:6762  (msg.sender).call */\n      0xffffffffffffffffffffffffffffffffffffffff\n      and\n        /* \"contracts/Pair.sol\":6770:6781  opEthAmount */\n      dup6\n        /* \"contracts/Pair.sol\":6745:6786  (msg.sender).call{value: opEthAmount}(\"\") */\n      mload(0x40)\n      tag_222\n      swap1\n      tag_223\n      jump\t// in\n    tag_222:\n      0x00\n      mload(0x40)\n      dup1\n      dup4\n      sub\n      dup2\n      dup6\n      dup8\n      gas\n      call\n      swap3\n      pop\n      pop\n      pop\n      returndatasize\n      dup1\n      0x00\n      dup2\n      eq\n      tag_226\n      jumpi\n      mload(0x40)\n      swap2\n      pop\n      and(add(returndatasize, 0x3f), not(0x1f))\n      dup3\n      add\n      0x40\n      mstore\n      returndatasize\n      dup3\n      mstore\n      returndatasize\n      0x00\n      0x20\n      dup5\n      add\n      returndatacopy\n      jump(tag_225)\n    tag_226:\n      0x60\n      swap2\n      pop\n    tag_225:\n      pop\n        /* \"contracts/Pair.sol\":6729:6786  (bool sent, ) = (msg.sender).call{value: opEthAmount}(\"\") */\n      pop\n      swap1\n      pop\n        /* \"contracts/Pair.sol\":6805:6809  sent */\n      dup1\n        /* \"contracts/Pair.sol\":6797:6852  require(sent, \"Transaction of ETH to recipient failed\") */\n      tag_227\n      jumpi\n      mload(0x40)\n      0x08c379a000000000000000000000000000000000000000000000000000000000\n      dup2\n      mstore\n      0x04\n      add\n      tag_228\n      swap1\n      tag_229\n      jump\t// in\n    tag_228:\n      mload(0x40)\n      dup1\n      swap2\n      sub\n      swap1\n      revert\n    tag_227:\n        /* \"contracts/Pair.sol\":6891:6904  ipTokenAmount */\n      dup6\n        /* \"contracts/Pair.sol\":6879:6889  msg.sender */\n      caller\n        /* \"contracts/Pair.sol\":6868:6918  SwapForEth(msg.sender, ipTokenAmount, ethRecieved) */\n      0xffffffffffffffffffffffffffffffffffffffff\n      and\n      0xd70caa09595c8288801ca58a02fd0960ef4982b210b2b9bf88bd5344c27cc4e8\n        /* \"contracts/Pair.sol\":6906:6917  ethRecieved */\n      dup5\n        /* \"contracts/Pair.sol\":6868:6918  SwapForEth(msg.sender, ipTokenAmount, ethRecieved) */\n      mload(0x40)\n      tag_230\n      swap2\n      swap1\n      tag_50\n      jump\t// in\n    tag_230:\n      mload(0x40)\n      dup1\n      swap2\n      sub\n      swap1\n      log3\n        /* \"contracts/Pair.sol\":6353:6926  {... */\n      pop\n      pop\n      pop\n      pop\n        /* \"contracts/Pair.sol\":6277:6926  function tokenForEthSwap(uint256 ipTokenAmount, uint256 opEthAmount) public {... */\n      pop\n      pop\n      jump\t// out\n        /* \"@openzeppelin/contracts/token/ERC20/ERC20.sol\":3408:3533  function balanceOf(address account) public view virtual override returns (uint256) {... */\n    tag_93:\n        /* \"@openzeppelin/contracts/token/ERC20/ERC20.sol\":3482:3489  uint256 */\n      0x00\n        /* \"@openzeppelin/contracts/token/ERC20/ERC20.sol\":3508:3517  _balances */\n      dup1\n        /* \"@openzeppelin/contracts/token/ERC20/ERC20.sol\":3508:3526  _balances[account] */\n      0x00\n        /* \"@openzeppelin/contracts/token/ERC20/ERC20.sol\":3518:3525  account */\n      dup4\n        /* \"@openzeppelin/contracts/token/ERC20/ERC20.sol\":3508:3526  _balances[account] */\n      0xffffffffffffffffffffffffffffffffffffffff\n      and\n      0xffffffffffffffffffffffffffffffffffffffff\n      and\n      dup2\n      mstore\n      0x20\n      add\n      swap1\n      dup2\n      mstore\n      0x20\n      add\n      0x00\n      keccak256\n      sload\n        /* \"@openzeppelin/contracts/token/ERC20/ERC20.sol\":3501:3526  return _balances[account] */\n      swap1\n      pop\n        /* \"@openzeppelin/contracts/token/ERC20/ERC20.sol\":3408:3533  function balanceOf(address account) public view virtual override returns (uint256) {... */\n      swap2\n      swap1\n      pop\n      jump\t// out\n        /* \"@openzeppelin/contracts/token/ERC20/ERC20.sol\":2367:2469  function symbol() public view virtual override returns (string memory) {... */\n    tag_97:\n        /* \"@openzeppelin/contracts/token/ERC20/ERC20.sol\":2423:2436  string memory */\n      0x60\n        /* \"@openzeppelin/contracts/token/ERC20/ERC20.sol\":2455:2462  _symbol */\n      0x04\n        /* \"@openzeppelin/contracts/token/ERC20/ERC20.sol\":2448:2462  return _symbol */\n      dup1\n      sload\n      tag_233\n      swap1\n      tag_139\n      jump\t// in\n    tag_233:\n      dup1\n      0x1f\n      add\n      0x20\n      dup1\n      swap2\n      div\n      mul\n      0x20\n      add\n      mload(0x40)\n      swap1\n      dup2\n      add\n      0x40\n      mstore\n      dup1\n      swap3\n      swap2\n      swap1\n      dup2\n      dup2\n      mstore\n      0x20\n      add\n      dup3\n      dup1\n      sload\n      tag_234\n      swap1\n      tag_139\n      jump\t// in\n    tag_234:\n      dup1\n      iszero\n      tag_235\n      jumpi\n      dup1\n      0x1f\n      lt\n      tag_236\n      jumpi\n      0x0100\n      dup1\n      dup4\n      sload\n      div\n      mul\n      dup4\n      mstore\n      swap2\n      0x20\n      add\n      swap2\n      jump(tag_235)\n    tag_236:\n      dup3\n      add\n      swap2\n      swap1\n      0x00\n      mstore\n      keccak256(0x00, 0x20)\n      swap1\n    tag_237:\n      dup2\n      sload\n      dup2\n      mstore\n      swap1\n      0x01\n      add\n      swap1\n      0x20\n      add\n      dup1\n      dup4\n      gt\n      tag_237\n      jumpi\n      dup3\n      swap1\n      sub\n      0x1f\n      and\n      dup3\n      add\n      swap2\n    tag_235:\n      pop\n      pop\n      pop\n      pop\n      pop\n      swap1\n      pop\n        /* \"@openzeppelin/contracts/token/ERC20/ERC20.sol\":2367:2469  function symbol() public view virtual override returns (string memory) {... */\n      swap1\n      jump\t// out\n        /* \"contracts/Pair.sol\":882:911  address public factoryAddress */\n    tag_101:\n      0x06\n      0x00\n      swap1\n      sload\n      swap1\n      0x0100\n      exp\n      swap1\n      div\n      0xffffffffffffffffffffffffffffffffffffffff\n      and\n      dup2\n      jump\t// out\n        /* \"contracts/Pair.sol\":3386:4110  function removeLiquidity(uint256 lpTokenAmount) public returns (uint256 ethAmount, uint256 tokenAmount){... */\n    tag_107:\n        /* \"contracts/Pair.sol\":3450:3467  uint256 ethAmount */\n      0x00\n        /* \"contracts/Pair.sol\":3469:3488  uint256 tokenAmount */\n      dup1\n        /* \"contracts/Pair.sol\":3524:3525  0 */\n      0x00\n        /* \"contracts/Pair.sol\":3508:3521  lpTokenAmount */\n      dup4\n        /* \"contracts/Pair.sol\":3508:3525  lpTokenAmount > 0 */\n      gt\n        /* \"contracts/Pair.sol\":3500:3585  require(lpTokenAmount > 0, \"Please input a valid amount of LP Tokens to burn/redeem\") */\n      tag_239\n      jumpi\n      mload(0x40)\n      0x08c379a000000000000000000000000000000000000000000000000000000000\n      dup2\n      mstore\n      0x04\n      add\n      tag_240\n      swap1\n      tag_241\n      jump\t// in\n    tag_240:\n      mload(0x40)\n      dup1\n      swap2\n      sub\n      swap1\n      revert\n    tag_239:\n        /* \"contracts/Pair.sol\":3599:3619  uint256 tokenReserve */\n      0x00\n        /* \"contracts/Pair.sol\":3621:3639  uint256 ethReserve */\n      dup1\n        /* \"contracts/Pair.sol\":3643:3656  getReserves() */\n      tag_242\n        /* \"contracts/Pair.sol\":3643:3654  getReserves */\n      tag_34\n        /* \"contracts/Pair.sol\":3643:3656  getReserves() */\n      jump\t// in\n    tag_242:\n        /* \"contracts/Pair.sol\":3598:3656  (uint256 tokenReserve, uint256 ethReserve) = getReserves() */\n      swap2\n      pop\n      swap2\n      pop\n        /* \"contracts/Pair.sol\":3710:3723  totalSupply() */\n      tag_243\n        /* \"contracts/Pair.sol\":3710:3721  totalSupply */\n      tag_53\n        /* \"contracts/Pair.sol\":3710:3723  totalSupply() */\n      jump\t// in\n    tag_243:\n        /* \"contracts/Pair.sol\":3693:3706  lpTokenAmount */\n      dup6\n        /* \"contracts/Pair.sol\":3680:3690  ethReserve */\n      dup3\n        /* \"contracts/Pair.sol\":3680:3706  ethReserve * lpTokenAmount */\n      tag_244\n      swap2\n      swap1\n      tag_197\n      jump\t// in\n    tag_244:\n        /* \"contracts/Pair.sol\":3679:3723  (ethReserve * lpTokenAmount) / totalSupply() */\n      tag_245\n      swap2\n      swap1\n      tag_199\n      jump\t// in\n    tag_245:\n        /* \"contracts/Pair.sol\":3667:3723  ethAmount = (ethReserve * lpTokenAmount) / totalSupply() */\n      swap4\n      pop\n        /* \"contracts/Pair.sol\":3781:3794  totalSupply() */\n      tag_246\n        /* \"contracts/Pair.sol\":3781:3792  totalSupply */\n      tag_53\n        /* \"contracts/Pair.sol\":3781:3794  totalSupply() */\n      jump\t// in\n    tag_246:\n        /* \"contracts/Pair.sol\":3764:3777  lpTokenAmount */\n      dup6\n        /* \"contracts/Pair.sol\":3749:3761  tokenReserve */\n      dup4\n        /* \"contracts/Pair.sol\":3749:3777  tokenReserve * lpTokenAmount */\n      tag_247\n      swap2\n      swap1\n      tag_197\n      jump\t// in\n    tag_247:\n        /* \"contracts/Pair.sol\":3748:3794  (tokenReserve * lpTokenAmount) / totalSupply() */\n      tag_248\n      swap2\n      swap1\n      tag_199\n      jump\t// in\n    tag_248:\n        /* \"contracts/Pair.sol\":3734:3794  tokenAmount = (tokenReserve * lpTokenAmount) / totalSupply() */\n      swap3\n      pop\n        /* \"contracts/Pair.sol\":3807:3839  _burn(msg.sender, lpTokenAmount) */\n      tag_249\n        /* \"contracts/Pair.sol\":3813:3823  msg.sender */\n      caller\n        /* \"contracts/Pair.sol\":3825:3838  lpTokenAmount */\n      dup7\n        /* \"contracts/Pair.sol\":3807:3812  _burn */\n      tag_250\n        /* \"contracts/Pair.sol\":3807:3839  _burn(msg.sender, lpTokenAmount) */\n      jump\t// in\n    tag_249:\n        /* \"contracts/Pair.sol\":3851:3860  bool sent */\n      0x00\n        /* \"contracts/Pair.sol\":3867:3877  msg.sender */\n      caller\n        /* \"contracts/Pair.sol\":3866:3883  (msg.sender).call */\n      0xffffffffffffffffffffffffffffffffffffffff\n      and\n        /* \"contracts/Pair.sol\":3891:3900  ethAmount */\n      dup6\n        /* \"contracts/Pair.sol\":3866:3905  (msg.sender).call{value: ethAmount}(\"\") */\n      mload(0x40)\n      tag_251\n      swap1\n      tag_223\n      jump\t// in\n    tag_251:\n      0x00\n      mload(0x40)\n      dup1\n      dup4\n      sub\n      dup2\n      dup6\n      dup8\n      gas\n      call\n      swap3\n      pop\n      pop\n      pop\n      returndatasize\n      dup1\n      0x00\n      dup2\n      eq\n      tag_254\n      jumpi\n      mload(0x40)\n      swap2\n      pop\n      and(add(returndatasize, 0x3f), not(0x1f))\n      dup3\n      add\n      0x40\n      mstore\n      returndatasize\n      dup3\n      mstore\n      returndatasize\n      0x00\n      0x20\n      dup5\n      add\n      returndatacopy\n      jump(tag_253)\n    tag_254:\n      0x60\n      swap2\n      pop\n    tag_253:\n      pop\n        /* \"contracts/Pair.sol\":3850:3905  (bool sent, ) = (msg.sender).call{value: ethAmount}(\"\") */\n      pop\n      swap1\n      pop\n        /* \"contracts/Pair.sol\":3924:3928  sent */\n      dup1\n        /* \"contracts/Pair.sol\":3916:3970  require(sent, \"Transaction of Ether was unsuccessful\") */\n      tag_255\n      jumpi\n      mload(0x40)\n      0x08c379a000000000000000000000000000000000000000000000000000000000\n      dup2\n      mstore\n      0x04\n      add\n      tag_256\n      swap1\n      tag_257\n      jump\t// in\n    tag_256:\n      mload(0x40)\n      dup1\n      swap2\n      sub\n      swap1\n      revert\n    tag_255:\n        /* \"contracts/Pair.sol\":3988:4000  tokenAddress */\n      0x05\n      0x00\n      swap1\n      sload\n      swap1\n      0x0100\n      exp\n      swap1\n      div\n      0xffffffffffffffffffffffffffffffffffffffff\n      and\n        /* \"contracts/Pair.sol\":3981:4010  IERC20(tokenAddress).transfer */\n      0xffffffffffffffffffffffffffffffffffffffff\n      and\n      0xa9059cbb\n        /* \"contracts/Pair.sol\":4011:4021  msg.sender */\n      caller\n        /* \"contracts/Pair.sol\":4023:4034  tokenAmount */\n      dup7\n        /* \"contracts/Pair.sol\":3981:4035  IERC20(tokenAddress).transfer(msg.sender, tokenAmount) */\n      mload(0x40)\n      dup4\n      0xffffffff\n      and\n      0xe0\n      shl\n      dup2\n      mstore\n      0x04\n      add\n      tag_258\n      swap3\n      swap2\n      swap1\n      tag_259\n      jump\t// in\n    tag_258:\n      0x20\n      mload(0x40)\n      dup1\n      dup4\n      sub\n      dup2\n      0x00\n      dup8\n      gas\n      call\n      iszero\n      dup1\n      iszero\n      tag_261\n      jumpi\n      returndatasize\n      0x00\n      dup1\n      returndatacopy\n      revert(0x00, returndatasize)\n    tag_261:\n      pop\n      pop\n      pop\n      pop\n      mload(0x40)\n      returndatasize\n      not(0x1f)\n      0x1f\n      dup3\n      add\n      and\n      dup3\n      add\n      dup1\n      0x40\n      mstore\n      pop\n      dup2\n      add\n      swap1\n      tag_262\n      swap2\n      swap1\n      tag_192\n      jump\t// in\n    tag_262:\n      pop\n        /* \"contracts/Pair.sol\":4090:4101  tokenAmount */\n      dup4\n        /* \"contracts/Pair.sol\":4079:4088  ethAmount */\n      dup6\n        /* \"contracts/Pair.sol\":4067:4077  msg.sender */\n      caller\n        /* \"contracts/Pair.sol\":4051:4102  RemoveLiquidity(msg.sender, ethAmount, tokenAmount) */\n      0xffffffffffffffffffffffffffffffffffffffff\n      and\n      0x0fbf06c058b90cb038a618f8c2acbf6145f8b3570fd1fa56abb8f0f3f05b36e8\n      mload(0x40)\n      mload(0x40)\n      dup1\n      swap2\n      sub\n      swap1\n      log4\n        /* \"contracts/Pair.sol\":3489:4110  {... */\n      pop\n      pop\n      pop\n        /* \"contracts/Pair.sol\":3386:4110  function removeLiquidity(uint256 lpTokenAmount) public returns (uint256 ethAmount, uint256 tokenAmount){... */\n      swap2\n      pop\n      swap2\n      jump\t// out\n        /* \"contracts/Pair.sol\":848:875  address public tokenAddress */\n    tag_111:\n      0x05\n      0x00\n      swap1\n      sload\n      swap1\n      0x0100\n      exp\n      swap1\n      div\n      0xffffffffffffffffffffffffffffffffffffffff\n      and\n      dup2\n      jump\t// out\n        /* \"@openzeppelin/contracts/token/ERC20/ERC20.sol\":6594:7021  function decreaseAllowance(address spender, uint256 subtractedValue) public virtual returns (bool) {... */\n    tag_116:\n        /* \"@openzeppelin/contracts/token/ERC20/ERC20.sol\":6687:6691  bool */\n      0x00\n        /* \"@openzeppelin/contracts/token/ERC20/ERC20.sol\":6703:6716  address owner */\n      dup1\n        /* \"@openzeppelin/contracts/token/ERC20/ERC20.sol\":6719:6731  _msgSender() */\n      tag_264\n        /* \"@openzeppelin/contracts/token/ERC20/ERC20.sol\":6719:6729  _msgSender */\n      tag_152\n        /* \"@openzeppelin/contracts/token/ERC20/ERC20.sol\":6719:6731  _msgSender() */\n      jump\t// in\n    tag_264:\n        /* \"@openzeppelin/contracts/token/ERC20/ERC20.sol\":6703:6731  address owner = _msgSender() */\n      swap1\n      pop\n        /* \"@openzeppelin/contracts/token/ERC20/ERC20.sol\":6741:6765  uint256 currentAllowance */\n      0x00\n        /* \"@openzeppelin/contracts/token/ERC20/ERC20.sol\":6768:6793  allowance(owner, spender) */\n      tag_265\n        /* \"@openzeppelin/contracts/token/ERC20/ERC20.sol\":6778:6783  owner */\n      dup3\n        /* \"@openzeppelin/contracts/token/ERC20/ERC20.sol\":6785:6792  spender */\n      dup7\n        /* \"@openzeppelin/contracts/token/ERC20/ERC20.sol\":6768:6777  allowance */\n      tag_127\n        /* \"@openzeppelin/contracts/token/ERC20/ERC20.sol\":6768:6793  allowance(owner, spender) */\n      jump\t// in\n    tag_265:\n        /* \"@openzeppelin/contracts/token/ERC20/ERC20.sol\":6741:6793  uint256 currentAllowance = allowance(owner, spender) */\n      swap1\n      pop\n        /* \"@openzeppelin/contracts/token/ERC20/ERC20.sol\":6831:6846  subtractedValue */\n      dup4\n        /* \"@openzeppelin/contracts/token/ERC20/ERC20.sol\":6811:6827  currentAllowance */\n      dup2\n        /* \"@openzeppelin/contracts/token/ERC20/ERC20.sol\":6811:6846  currentAllowance >= subtractedValue */\n      lt\n      iszero\n        /* \"@openzeppelin/contracts/token/ERC20/ERC20.sol\":6803:6888  require(currentAllowance >= subtractedValue, \"ERC20: decreased allowance below zero\") */\n      tag_266\n      jumpi\n      mload(0x40)\n      0x08c379a000000000000000000000000000000000000000000000000000000000\n      dup2\n      mstore\n      0x04\n      add\n      tag_267\n      swap1\n      tag_268\n      jump\t// in\n    tag_267:\n      mload(0x40)\n      dup1\n      swap2\n      sub\n      swap1\n      revert\n    tag_266:\n        /* \"@openzeppelin/contracts/token/ERC20/ERC20.sol\":6922:6982  _approve(owner, spender, currentAllowance - subtractedValue) */\n      tag_269\n        /* \"@openzeppelin/contracts/token/ERC20/ERC20.sol\":6931:6936  owner */\n      dup3\n        /* \"@openzeppelin/contracts/token/ERC20/ERC20.sol\":6938:6945  spender */\n      dup7\n        /* \"@openzeppelin/contracts/token/ERC20/ERC20.sol\":6966:6981  subtractedValue */\n      dup7\n        /* \"@openzeppelin/contracts/token/ERC20/ERC20.sol\":6947:6963  currentAllowance */\n      dup5\n        /* \"@openzeppelin/contracts/token/ERC20/ERC20.sol\":6947:6981  currentAllowance - subtractedValue */\n      sub\n        /* \"@openzeppelin/contracts/token/ERC20/ERC20.sol\":6922:6930  _approve */\n      tag_154\n        /* \"@openzeppelin/contracts/token/ERC20/ERC20.sol\":6922:6982  _approve(owner, spender, currentAllowance - subtractedValue) */\n      jump\t// in\n    tag_269:\n        /* \"@openzeppelin/contracts/token/ERC20/ERC20.sol\":7010:7014  true */\n      0x01\n        /* \"@openzeppelin/contracts/token/ERC20/ERC20.sol\":7003:7014  return true */\n      swap3\n      pop\n      pop\n      pop\n        /* \"@openzeppelin/contracts/token/ERC20/ERC20.sol\":6594:7021  function decreaseAllowance(address spender, uint256 subtractedValue) public virtual returns (bool) {... */\n      swap3\n      swap2\n      pop\n      pop\n      jump\t// out\n        /* \"@openzeppelin/contracts/token/ERC20/ERC20.sol\":3729:3918  function transfer(address to, uint256 amount) public virtual override returns (bool) {... */\n    tag_121:\n        /* \"@openzeppelin/contracts/token/ERC20/ERC20.sol\":3808:3812  bool */\n      0x00\n        /* \"@openzeppelin/contracts/token/ERC20/ERC20.sol\":3824:3837  address owner */\n      dup1\n        /* \"@openzeppelin/contracts/token/ERC20/ERC20.sol\":3840:3852  _msgSender() */\n      tag_271\n        /* \"@openzeppelin/contracts/token/ERC20/ERC20.sol\":3840:3850  _msgSender */\n      tag_152\n        /* \"@openzeppelin/contracts/token/ERC20/ERC20.sol\":3840:3852  _msgSender() */\n      jump\t// in\n    tag_271:\n        /* \"@openzeppelin/contracts/token/ERC20/ERC20.sol\":3824:3852  address owner = _msgSender() */\n      swap1\n      pop\n        /* \"@openzeppelin/contracts/token/ERC20/ERC20.sol\":3862:3890  _transfer(owner, to, amount) */\n      tag_272\n        /* \"@openzeppelin/contracts/token/ERC20/ERC20.sol\":3872:3877  owner */\n      dup2\n        /* \"@openzeppelin/contracts/token/ERC20/ERC20.sol\":3879:3881  to */\n      dup6\n        /* \"@openzeppelin/contracts/token/ERC20/ERC20.sol\":3883:3889  amount */\n      dup6\n        /* \"@openzeppelin/contracts/token/ERC20/ERC20.sol\":3862:3871  _transfer */\n      tag_168\n        /* \"@openzeppelin/contracts/token/ERC20/ERC20.sol\":3862:3890  _transfer(owner, to, amount) */\n      jump\t// in\n    tag_272:\n        /* \"@openzeppelin/contracts/token/ERC20/ERC20.sol\":3907:3911  true */\n      0x01\n        /* \"@openzeppelin/contracts/token/ERC20/ERC20.sol\":3900:3911  return true */\n      swap2\n      pop\n      pop\n        /* \"@openzeppelin/contracts/token/ERC20/ERC20.sol\":3729:3918  function transfer(address to, uint256 amount) public virtual override returns (bool) {... */\n      swap3\n      swap2\n      pop\n      pop\n      jump\t// out\n        /* \"@openzeppelin/contracts/token/ERC20/ERC20.sol\":3976:4125  function allowance(address owner, address spender) public view virtual override returns (uint256) {... */\n    tag_127:\n        /* \"@openzeppelin/contracts/token/ERC20/ERC20.sol\":4065:4072  uint256 */\n      0x00\n        /* \"@openzeppelin/contracts/token/ERC20/ERC20.sol\":4091:4102  _allowances */\n      0x01\n        /* \"@openzeppelin/contracts/token/ERC20/ERC20.sol\":4091:4109  _allowances[owner] */\n      0x00\n        /* \"@openzeppelin/contracts/token/ERC20/ERC20.sol\":4103:4108  owner */\n      dup5\n        /* \"@openzeppelin/contracts/token/ERC20/ERC20.sol\":4091:4109  _allowances[owner] */\n      0xffffffffffffffffffffffffffffffffffffffff\n      and\n      0xffffffffffffffffffffffffffffffffffffffff\n      and\n      dup2\n      mstore\n      0x20\n      add\n      swap1\n      dup2\n      mstore\n      0x20\n      add\n      0x00\n      keccak256\n        /* \"@openzeppelin/contracts/token/ERC20/ERC20.sol\":4091:4118  _allowances[owner][spender] */\n      0x00\n        /* \"@openzeppelin/contracts/token/ERC20/ERC20.sol\":4110:4117  spender */\n      dup4\n        /* \"@openzeppelin/contracts/token/ERC20/ERC20.sol\":4091:4118  _allowances[owner][spender] */\n      0xffffffffffffffffffffffffffffffffffffffff\n      and\n      0xffffffffffffffffffffffffffffffffffffffff\n      and\n      dup2\n      mstore\n      0x20\n      add\n      swap1\n      dup2\n      mstore\n      0x20\n      add\n      0x00\n      keccak256\n      sload\n        /* \"@openzeppelin/contracts/token/ERC20/ERC20.sol\":4084:4118  return _allowances[owner][spender] */\n      swap1\n      pop\n        /* \"@openzeppelin/contracts/token/ERC20/ERC20.sol\":3976:4125  function allowance(address owner, address spender) public view virtual override returns (uint256) {... */\n      swap3\n      swap2\n      pop\n      pop\n      jump\t// out\n        /* \"contracts/Pair.sol\":7810:8673  function tokenToTokenSwap(uint256 ipTokenAmount, uint256 opTokenAmount, address opTokenAddress... */\n    tag_133:\n        /* \"contracts/Pair.sol\":7964:7965  0 */\n      0x00\n        /* \"contracts/Pair.sol\":7938:7966  opTokenAddress != address(0) */\n      0xffffffffffffffffffffffffffffffffffffffff\n      and\n        /* \"contracts/Pair.sol\":7938:7952  opTokenAddress */\n      dup2\n        /* \"contracts/Pair.sol\":7938:7966  opTokenAddress != address(0) */\n      0xffffffffffffffffffffffffffffffffffffffff\n      and\n      sub\n        /* \"contracts/Pair.sol\":7930:7995  require(opTokenAddress != address(0), \"Token address is invalid\") */\n      tag_275\n      jumpi\n      mload(0x40)\n      0x08c379a000000000000000000000000000000000000000000000000000000000\n      dup2\n      mstore\n      0x04\n      add\n      tag_276\n      swap1\n      tag_277\n      jump\t// in\n    tag_276:\n      mload(0x40)\n      dup1\n      swap2\n      sub\n      swap1\n      revert\n    tag_275:\n        /* \"contracts/Pair.sol\":8030:8031  0 */\n      0x00\n        /* \"contracts/Pair.sol\":8014:8027  ipTokenAmount */\n      dup4\n        /* \"contracts/Pair.sol\":8014:8031  ipTokenAmount > 0 */\n      gt\n        /* \"contracts/Pair.sol\":8006:8062  require(ipTokenAmount > 0, \"Invalid input token amount\") */\n      tag_278\n      jumpi\n      mload(0x40)\n      0x08c379a000000000000000000000000000000000000000000000000000000000\n      dup2\n      mstore\n      0x04\n      add\n      tag_279\n      swap1\n      tag_280\n      jump\t// in\n    tag_279:\n      mload(0x40)\n      dup1\n      swap2\n      sub\n      swap1\n      revert\n    tag_278:\n        /* \"contracts/Pair.sol\":8073:8102  address targetExchangeAddress */\n      0x00\n        /* \"contracts/Pair.sol\":8114:8128  factoryAddress */\n      0x06\n      0x00\n      swap1\n      sload\n      swap1\n      0x0100\n      exp\n      swap1\n      div\n      0xffffffffffffffffffffffffffffffffffffffff\n      and\n        /* \"contracts/Pair.sol\":8105:8137  IFactory(factoryAddress).getPair */\n      0xffffffffffffffffffffffffffffffffffffffff\n      and\n      0x1a788a02\n        /* \"contracts/Pair.sol\":8138:8152  opTokenAddress */\n      dup4\n        /* \"contracts/Pair.sol\":8105:8153  IFactory(factoryAddress).getPair(opTokenAddress) */\n      mload(0x40)\n      dup3\n      0xffffffff\n      and\n      0xe0\n      shl\n      dup2\n      mstore\n      0x04\n      add\n      tag_281\n      swap2\n      swap1\n      tag_103\n      jump\t// in\n    tag_281:\n      0x20\n      mload(0x40)\n      dup1\n      dup4\n      sub\n      dup2\n      0x00\n      dup8\n      gas\n      call\n      iszero\n      dup1\n      iszero\n      tag_283\n      jumpi\n      returndatasize\n      0x00\n      dup1\n      returndatacopy\n      revert(0x00, returndatasize)\n    tag_283:\n      pop\n      pop\n      pop\n      pop\n      mload(0x40)\n      returndatasize\n      not(0x1f)\n      0x1f\n      dup3\n      add\n      and\n      dup3\n      add\n      dup1\n      0x40\n      mstore\n      pop\n      dup2\n      add\n      swap1\n      tag_284\n      swap2\n      swap1\n      tag_285\n      jump\t// in\n    tag_284:\n        /* \"contracts/Pair.sol\":8073:8153  address targetExchangeAddress = IFactory(factoryAddress).getPair(opTokenAddress) */\n      swap1\n      pop\n        /* \"contracts/Pair.sol\":8219:8223  this */\n      address\n        /* \"contracts/Pair.sol\":8186:8224  targetExchangeAddress != address(this) */\n      0xffffffffffffffffffffffffffffffffffffffff\n      and\n        /* \"contracts/Pair.sol\":8186:8207  targetExchangeAddress */\n      dup2\n        /* \"contracts/Pair.sol\":8186:8224  targetExchangeAddress != address(this) */\n      0xffffffffffffffffffffffffffffffffffffffff\n      and\n      eq\n      iszero\n        /* \"contracts/Pair.sol\":8186:8263  targetExchangeAddress != address(this) && targetExchangeAddress != address(0) */\n      dup1\n      iszero\n      tag_286\n      jumpi\n      pop\n        /* \"contracts/Pair.sol\":8261:8262  0 */\n      0x00\n        /* \"contracts/Pair.sol\":8228:8263  targetExchangeAddress != address(0) */\n      0xffffffffffffffffffffffffffffffffffffffff\n      and\n        /* \"contracts/Pair.sol\":8228:8249  targetExchangeAddress */\n      dup2\n        /* \"contracts/Pair.sol\":8228:8263  targetExchangeAddress != address(0) */\n      0xffffffffffffffffffffffffffffffffffffffff\n      and\n      eq\n      iszero\n        /* \"contracts/Pair.sol\":8186:8263  targetExchangeAddress != address(this) && targetExchangeAddress != address(0) */\n    tag_286:\n        /* \"contracts/Pair.sol\":8164:8317  require(... */\n      tag_287\n      jumpi\n      mload(0x40)\n      0x08c379a000000000000000000000000000000000000000000000000000000000\n      dup2\n      mstore\n      0x04\n      add\n      tag_288\n      swap1\n      tag_289\n      jump\t// in\n    tag_288:\n      mload(0x40)\n      dup1\n      swap2\n      sub\n      swap1\n      revert\n    tag_287:\n        /* \"contracts/Pair.sol\":8331:8351  uint256 tokenReserve */\n      0x00\n        /* \"contracts/Pair.sol\":8353:8371  uint256 ethReserve */\n      dup1\n        /* \"contracts/Pair.sol\":8375:8388  getReserves() */\n      tag_290\n        /* \"contracts/Pair.sol\":8375:8386  getReserves */\n      tag_34\n        /* \"contracts/Pair.sol\":8375:8388  getReserves() */\n      jump\t// in\n    tag_290:\n        /* \"contracts/Pair.sol\":8330:8388  (uint256 tokenReserve, uint256 ethReserve) = getReserves() */\n      swap2\n      pop\n      swap2\n      pop\n        /* \"contracts/Pair.sol\":8399:8416  uint256 ethAmount */\n      0x00\n        /* \"contracts/Pair.sol\":8419:8475  getOutputAmount(ipTokenAmount, tokenReserve, ethReserve) */\n      tag_291\n        /* \"contracts/Pair.sol\":8435:8448  ipTokenAmount */\n      dup8\n        /* \"contracts/Pair.sol\":8450:8462  tokenReserve */\n      dup5\n        /* \"contracts/Pair.sol\":8464:8474  ethReserve */\n      dup5\n        /* \"contracts/Pair.sol\":8419:8434  getOutputAmount */\n      tag_161\n        /* \"contracts/Pair.sol\":8419:8475  getOutputAmount(ipTokenAmount, tokenReserve, ethReserve) */\n      jump\t// in\n    tag_291:\n        /* \"contracts/Pair.sol\":8399:8475  uint256 ethAmount = getOutputAmount(ipTokenAmount, tokenReserve, ethReserve) */\n      swap1\n      pop\n        /* \"contracts/Pair.sol\":8495:8507  tokenAddress */\n      0x05\n      0x00\n      swap1\n      sload\n      swap1\n      0x0100\n      exp\n      swap1\n      div\n      0xffffffffffffffffffffffffffffffffffffffff\n      and\n        /* \"contracts/Pair.sol\":8488:8521  IERC20(tokenAddress).transferFrom */\n      0xffffffffffffffffffffffffffffffffffffffff\n      and\n      0x23b872dd\n        /* \"contracts/Pair.sol\":8522:8532  msg.sender */\n      caller\n        /* \"contracts/Pair.sol\":8542:8546  this */\n      address\n        /* \"contracts/Pair.sol\":8549:8562  ipTokenAmount */\n      dup11\n        /* \"contracts/Pair.sol\":8488:8563  IERC20(tokenAddress).transferFrom(msg.sender, address(this), ipTokenAmount) */\n      mload(0x40)\n      dup5\n      0xffffffff\n      and\n      0xe0\n      shl\n      dup2\n      mstore\n      0x04\n      add\n      tag_292\n      swap4\n      swap3\n      swap2\n      swap1\n      tag_188\n      jump\t// in\n    tag_292:\n      0x20\n      mload(0x40)\n      dup1\n      dup4\n      sub\n      dup2\n      0x00\n      dup8\n      gas\n      call\n      iszero\n      dup1\n      iszero\n      tag_294\n      jumpi\n      returndatasize\n      0x00\n      dup1\n      returndatacopy\n      revert(0x00, returndatasize)\n    tag_294:\n      pop\n      pop\n      pop\n      pop\n      mload(0x40)\n      returndatasize\n      not(0x1f)\n      0x1f\n      dup3\n      add\n      and\n      dup3\n      add\n      dup1\n      0x40\n      mstore\n      pop\n      dup2\n      add\n      swap1\n      tag_295\n      swap2\n      swap1\n      tag_192\n      jump\t// in\n    tag_295:\n      pop\n        /* \"contracts/Pair.sol\":8580:8601  targetExchangeAddress */\n      dup4\n        /* \"contracts/Pair.sol\":8574:8621  IPair(targetExchangeAddress).ethToTokenTransfer */\n      0xffffffffffffffffffffffffffffffffffffffff\n      and\n      0x389d9a40\n        /* \"contracts/Pair.sol\":8629:8638  ethAmount */\n      dup3\n        /* \"contracts/Pair.sol\":8640:8653  opTokenAmount */\n      dup9\n        /* \"contracts/Pair.sol\":8654:8664  msg.sender */\n      caller\n        /* \"contracts/Pair.sol\":8574:8665  IPair(targetExchangeAddress).ethToTokenTransfer{value: ethAmount}(opTokenAmount,msg.sender) */\n      mload(0x40)\n      dup5\n      0xffffffff\n      and\n      0xe0\n      shl\n      dup2\n      mstore\n      0x04\n      add\n      tag_296\n      swap3\n      swap2\n      swap1\n      tag_297\n      jump\t// in\n    tag_296:\n      0x00\n      mload(0x40)\n      dup1\n      dup4\n      sub\n      dup2\n      dup6\n      dup9\n      dup1\n      extcodesize\n      iszero\n      dup1\n      iszero\n      tag_298\n      jumpi\n      0x00\n      dup1\n      revert\n    tag_298:\n      pop\n      gas\n      call\n      iszero\n      dup1\n      iszero\n      tag_300\n      jumpi\n      returndatasize\n      0x00\n      dup1\n      returndatacopy\n      revert(0x00, returndatasize)\n    tag_300:\n      pop\n      pop\n      pop\n      pop\n      pop\n        /* \"contracts/Pair.sol\":7919:8673  {... */\n      pop\n      pop\n      pop\n      pop\n        /* \"contracts/Pair.sol\":7810:8673  function tokenToTokenSwap(uint256 ipTokenAmount, uint256 opTokenAmount, address opTokenAddress... */\n      pop\n      pop\n      pop\n      jump\t// out\n        /* \"contracts/Pair.sol\":6141:6261  function ethToTokenSwap(uint256 tokenAmount) public payable {... */\n    tag_136:\n        /* \"contracts/Pair.sol\":6212:6253  ethForTokenBasic(tokenAmount, msg.sender) */\n      tag_302\n        /* \"contracts/Pair.sol\":6229:6240  tokenAmount */\n      dup2\n        /* \"contracts/Pair.sol\":6242:6252  msg.sender */\n      caller\n        /* \"contracts/Pair.sol\":6212:6228  ethForTokenBasic */\n      tag_177\n        /* \"contracts/Pair.sol\":6212:6253  ethForTokenBasic(tokenAmount, msg.sender) */\n      jump\t// in\n    tag_302:\n        /* \"contracts/Pair.sol\":6141:6261  function ethToTokenSwap(uint256 tokenAmount) public payable {... */\n      pop\n      jump\t// out\n        /* \"@openzeppelin/contracts/utils/Context.sol\":640:736  function _msgSender() internal view virtual returns (address) {... */\n    tag_152:\n        /* \"@openzeppelin/contracts/utils/Context.sol\":693:700  address */\n      0x00\n        /* \"@openzeppelin/contracts/utils/Context.sol\":719:729  msg.sender */\n      caller\n        /* \"@openzeppelin/contracts/utils/Context.sol\":712:729  return msg.sender */\n      swap1\n      pop\n        /* \"@openzeppelin/contracts/utils/Context.sol\":640:736  function _msgSender() internal view virtual returns (address) {... */\n      swap1\n      jump\t// out\n        /* \"@openzeppelin/contracts/token/ERC20/ERC20.sol\":10110:10480  function _approve(... */\n    tag_154:\n        /* \"@openzeppelin/contracts/token/ERC20/ERC20.sol\":10258:10259  0 */\n      0x00\n        /* \"@openzeppelin/contracts/token/ERC20/ERC20.sol\":10241:10260  owner != address(0) */\n      0xffffffffffffffffffffffffffffffffffffffff\n      and\n        /* \"@openzeppelin/contracts/token/ERC20/ERC20.sol\":10241:10246  owner */\n      dup4\n        /* \"@openzeppelin/contracts/token/ERC20/ERC20.sol\":10241:10260  owner != address(0) */\n      0xffffffffffffffffffffffffffffffffffffffff\n      and\n      sub\n        /* \"@openzeppelin/contracts/token/ERC20/ERC20.sol\":10233:10301  require(owner != address(0), \"ERC20: approve from the zero address\") */\n      tag_305\n      jumpi\n      mload(0x40)\n      0x08c379a000000000000000000000000000000000000000000000000000000000\n      dup2\n      mstore\n      0x04\n      add\n      tag_306\n      swap1\n      tag_307\n      jump\t// in\n    tag_306:\n      mload(0x40)\n      dup1\n      swap2\n      sub\n      swap1\n      revert\n    tag_305:\n        /* \"@openzeppelin/contracts/token/ERC20/ERC20.sol\":10338:10339  0 */\n      0x00\n        /* \"@openzeppelin/contracts/token/ERC20/ERC20.sol\":10319:10340  spender != address(0) */\n      0xffffffffffffffffffffffffffffffffffffffff\n      and\n        /* \"@openzeppelin/contracts/token/ERC20/ERC20.sol\":10319:10326  spender */\n      dup3\n        /* \"@openzeppelin/contracts/token/ERC20/ERC20.sol\":10319:10340  spender != address(0) */\n      0xffffffffffffffffffffffffffffffffffffffff\n      and\n      sub\n        /* \"@openzeppelin/contracts/token/ERC20/ERC20.sol\":10311:10379  require(spender != address(0), \"ERC20: approve to the zero address\") */\n      tag_308\n      jumpi\n      mload(0x40)\n      0x08c379a000000000000000000000000000000000000000000000000000000000\n      dup2\n      mstore\n      0x04\n      add\n      tag_309\n      swap1\n      tag_310\n      jump\t// in\n    tag_309:\n      mload(0x40)\n      dup1\n      swap2\n      sub\n      swap1\n      revert\n    tag_308:\n        /* \"@openzeppelin/contracts/token/ERC20/ERC20.sol\":10420:10426  amount */\n      dup1\n        /* \"@openzeppelin/contracts/token/ERC20/ERC20.sol\":10390:10401  _allowances */\n      0x01\n        /* \"@openzeppelin/contracts/token/ERC20/ERC20.sol\":10390:10408  _allowances[owner] */\n      0x00\n        /* \"@openzeppelin/contracts/token/ERC20/ERC20.sol\":10402:10407  owner */\n      dup6\n        /* \"@openzeppelin/contracts/token/ERC20/ERC20.sol\":10390:10408  _allowances[owner] */\n      0xffffffffffffffffffffffffffffffffffffffff\n      and\n      0xffffffffffffffffffffffffffffffffffffffff\n      and\n      dup2\n      mstore\n      0x20\n      add\n      swap1\n      dup2\n      mstore\n      0x20\n      add\n      0x00\n      keccak256\n        /* \"@openzeppelin/contracts/token/ERC20/ERC20.sol\":10390:10417  _allowances[owner][spender] */\n      0x00\n        /* \"@openzeppelin/contracts/token/ERC20/ERC20.sol\":10409:10416  spender */\n      dup5\n        /* \"@openzeppelin/contracts/token/ERC20/ERC20.sol\":10390:10417  _allowances[owner][spender] */\n      0xffffffffffffffffffffffffffffffffffffffff\n      and\n      0xffffffffffffffffffffffffffffffffffffffff\n      and\n      dup2\n      mstore\n      0x20\n      add\n      swap1\n      dup2\n      mstore\n      0x20\n      add\n      0x00\n      keccak256\n        /* \"@openzeppelin/contracts/token/ERC20/ERC20.sol\":10390:10426  _allowances[owner][spender] = amount */\n      dup2\n      swap1\n      sstore\n      pop\n        /* \"@openzeppelin/contracts/token/ERC20/ERC20.sol\":10457:10464  spender */\n      dup2\n        /* \"@openzeppelin/contracts/token/ERC20/ERC20.sol\":10441:10473  Approval(owner, spender, amount) */\n      0xffffffffffffffffffffffffffffffffffffffff\n      and\n        /* \"@openzeppelin/contracts/token/ERC20/ERC20.sol\":10450:10455  owner */\n      dup4\n        /* \"@openzeppelin/contracts/token/ERC20/ERC20.sol\":10441:10473  Approval(owner, spender, amount) */\n      0xffffffffffffffffffffffffffffffffffffffff\n      and\n      0x8c5be1e5ebec7d5bd14f71427d1e84f3dd0314c0f7b2291e5b200ac8c7c3b925\n        /* \"@openzeppelin/contracts/token/ERC20/ERC20.sol\":10466:10472  amount */\n      dup4\n        /* \"@openzeppelin/contracts/token/ERC20/ERC20.sol\":10441:10473  Approval(owner, spender, amount) */\n      mload(0x40)\n      tag_311\n      swap2\n      swap1\n      tag_50\n      jump\t// in\n    tag_311:\n      mload(0x40)\n      dup1\n      swap2\n      sub\n      swap1\n      log3\n        /* \"@openzeppelin/contracts/token/ERC20/ERC20.sol\":10110:10480  function _approve(... */\n      pop\n      pop\n      pop\n      jump\t// out\n        /* \"contracts/Pair.sol\":4118:4472  function getOutputAmount(uint256 ipAmount, uint256 ipReserve, uint256 opReserve) private pure returns (uint256 opAmount) {... */\n    tag_161:\n        /* \"contracts/Pair.sol\":4221:4237  uint256 opAmount */\n      0x00\n        /* \"contracts/Pair.sol\":4270:4271  0 */\n      dup1\n        /* \"contracts/Pair.sol\":4258:4267  ipReserve */\n      dup4\n        /* \"contracts/Pair.sol\":4258:4271  ipReserve > 0 */\n      gt\n        /* \"contracts/Pair.sol\":4258:4288  ipReserve > 0 && opReserve > 0 */\n      dup1\n      iszero\n      tag_313\n      jumpi\n      pop\n        /* \"contracts/Pair.sol\":4287:4288  0 */\n      0x00\n        /* \"contracts/Pair.sol\":4275:4284  opReserve */\n      dup3\n        /* \"contracts/Pair.sol\":4275:4288  opReserve > 0 */\n      gt\n        /* \"contracts/Pair.sol\":4258:4288  ipReserve > 0 && opReserve > 0 */\n    tag_313:\n        /* \"contracts/Pair.sol\":4250:4314  require(ipReserve > 0 && opReserve > 0, \"There are no reserves\") */\n      tag_314\n      jumpi\n      mload(0x40)\n      0x08c379a000000000000000000000000000000000000000000000000000000000\n      dup2\n      mstore\n      0x04\n      add\n      tag_315\n      swap1\n      tag_316\n      jump\t// in\n    tag_315:\n      mload(0x40)\n      dup1\n      swap2\n      sub\n      swap1\n      revert\n    tag_314:\n        /* \"contracts/Pair.sol\":4325:4348  uint256 ipAmountPlusFee */\n      0x00\n        /* \"contracts/Pair.sol\":1525:1526  0 */\n      dup1\n        /* \"contracts/Pair.sol\":4363:4367  1000 */\n      0x03e8\n        /* \"contracts/Pair.sol\":4363:4375  1000 - txFee */\n      tag_317\n      swap2\n      swap1\n      tag_195\n      jump\t// in\n    tag_317:\n        /* \"contracts/Pair.sol\":4351:4359  ipAmount */\n      dup6\n        /* \"contracts/Pair.sol\":4351:4376  ipAmount * (1000 - txFee) */\n      tag_318\n      swap2\n      swap1\n      tag_197\n      jump\t// in\n    tag_318:\n        /* \"contracts/Pair.sol\":4325:4376  uint256 ipAmountPlusFee = ipAmount * (1000 - txFee) */\n      swap1\n      pop\n        /* \"contracts/Pair.sol\":4448:4463  ipAmountPlusFee */\n      dup1\n        /* \"contracts/Pair.sol\":4436:4445  ipReserve */\n      dup5\n        /* \"contracts/Pair.sol\":4429:4433  1000 */\n      0x03e8\n        /* \"contracts/Pair.sol\":4429:4445  1000 * ipReserve */\n      tag_319\n      swap2\n      swap1\n      tag_197\n      jump\t// in\n    tag_319:\n        /* \"contracts/Pair.sol\":4429:4463  1000 * ipReserve + ipAmountPlusFee */\n      tag_320\n      swap2\n      swap1\n      tag_183\n      jump\t// in\n    tag_320:\n        /* \"contracts/Pair.sol\":4416:4425  opReserve */\n      dup4\n        /* \"contracts/Pair.sol\":4398:4413  ipAmountPlusFee */\n      dup3\n        /* \"contracts/Pair.sol\":4398:4425  ipAmountPlusFee * opReserve */\n      tag_321\n      swap2\n      swap1\n      tag_197\n      jump\t// in\n    tag_321:\n        /* \"contracts/Pair.sol\":4398:4464  ipAmountPlusFee * opReserve / (1000 * ipReserve + ipAmountPlusFee) */\n      tag_322\n      swap2\n      swap1\n      tag_199\n      jump\t// in\n    tag_322:\n        /* \"contracts/Pair.sol\":4387:4464  opAmount = ipAmountPlusFee * opReserve / (1000 * ipReserve + ipAmountPlusFee) */\n      swap2\n      pop\n        /* \"contracts/Pair.sol\":4239:4472  {... */\n      pop\n        /* \"contracts/Pair.sol\":4118:4472  function getOutputAmount(uint256 ipAmount, uint256 ipReserve, uint256 opReserve) private pure returns (uint256 opAmount) {... */\n      swap4\n      swap3\n      pop\n      pop\n      pop\n      jump\t// out\n        /* \"@openzeppelin/contracts/token/ERC20/ERC20.sol\":10761:11202  function _spendAllowance(... */\n    tag_166:\n        /* \"@openzeppelin/contracts/token/ERC20/ERC20.sol\":10891:10915  uint256 currentAllowance */\n      0x00\n        /* \"@openzeppelin/contracts/token/ERC20/ERC20.sol\":10918:10943  allowance(owner, spender) */\n      tag_324\n        /* \"@openzeppelin/contracts/token/ERC20/ERC20.sol\":10928:10933  owner */\n      dup5\n        /* \"@openzeppelin/contracts/token/ERC20/ERC20.sol\":10935:10942  spender */\n      dup5\n        /* \"@openzeppelin/contracts/token/ERC20/ERC20.sol\":10918:10927  allowance */\n      tag_127\n        /* \"@openzeppelin/contracts/token/ERC20/ERC20.sol\":10918:10943  allowance(owner, spender) */\n      jump\t// in\n    tag_324:\n        /* \"@openzeppelin/contracts/token/ERC20/ERC20.sol\":10891:10943  uint256 currentAllowance = allowance(owner, spender) */\n      swap1\n      pop\n        /* \"@openzeppelin/contracts/token/ERC20/ERC20.sol\":10977:10994  type(uint256).max */\n      0xffffffffffffffffffffffffffffffffffffffffffffffffffffffffffffffff\n        /* \"@openzeppelin/contracts/token/ERC20/ERC20.sol\":10957:10973  currentAllowance */\n      dup2\n        /* \"@openzeppelin/contracts/token/ERC20/ERC20.sol\":10957:10994  currentAllowance != type(uint256).max */\n      eq\n        /* \"@openzeppelin/contracts/token/ERC20/ERC20.sol\":10953:11196  if (currentAllowance != type(uint256).max) {... */\n      tag_325\n      jumpi\n        /* \"@openzeppelin/contracts/token/ERC20/ERC20.sol\":11038:11044  amount */\n      dup2\n        /* \"@openzeppelin/contracts/token/ERC20/ERC20.sol\":11018:11034  currentAllowance */\n      dup2\n        /* \"@openzeppelin/contracts/token/ERC20/ERC20.sol\":11018:11044  currentAllowance >= amount */\n      lt\n      iszero\n        /* \"@openzeppelin/contracts/token/ERC20/ERC20.sol\":11010:11078  require(currentAllowance >= amount, \"ERC20: insufficient allowance\") */\n      tag_326\n      jumpi\n      mload(0x40)\n      0x08c379a000000000000000000000000000000000000000000000000000000000\n      dup2\n      mstore\n      0x04\n      add\n      tag_327\n      swap1\n      tag_328\n      jump\t// in\n    tag_327:\n      mload(0x40)\n      dup1\n      swap2\n      sub\n      swap1\n      revert\n    tag_326:\n        /* \"@openzeppelin/contracts/token/ERC20/ERC20.sol\":11120:11171  _approve(owner, spender, currentAllowance - amount) */\n      tag_329\n        /* \"@openzeppelin/contracts/token/ERC20/ERC20.sol\":11129:11134  owner */\n      dup5\n        /* \"@openzeppelin/contracts/token/ERC20/ERC20.sol\":11136:11143  spender */\n      dup5\n        /* \"@openzeppelin/contracts/token/ERC20/ERC20.sol\":11164:11170  amount */\n      dup5\n        /* \"@openzeppelin/contracts/token/ERC20/ERC20.sol\":11145:11161  currentAllowance */\n      dup5\n        /* \"@openzeppelin/contracts/token/ERC20/ERC20.sol\":11145:11170  currentAllowance - amount */\n      sub\n        /* \"@openzeppelin/contracts/token/ERC20/ERC20.sol\":11120:11128  _approve */\n      tag_154\n        /* \"@openzeppelin/contracts/token/ERC20/ERC20.sol\":11120:11171  _approve(owner, spender, currentAllowance - amount) */\n      jump\t// in\n    tag_329:\n        /* \"@openzeppelin/contracts/token/ERC20/ERC20.sol\":10953:11196  if (currentAllowance != type(uint256).max) {... */\n    tag_325:\n        /* \"@openzeppelin/contracts/token/ERC20/ERC20.sol\":10881:11202  {... */\n      pop\n        /* \"@openzeppelin/contracts/token/ERC20/ERC20.sol\":10761:11202  function _spendAllowance(... */\n      pop\n      pop\n      pop\n      jump\t// out\n        /* \"@openzeppelin/contracts/token/ERC20/ERC20.sol\":7475:8126  function _transfer(... */\n    tag_168:\n        /* \"@openzeppelin/contracts/token/ERC20/ERC20.sol\":7617:7618  0 */\n      0x00\n        /* \"@openzeppelin/contracts/token/ERC20/ERC20.sol\":7601:7619  from != address(0) */\n      0xffffffffffffffffffffffffffffffffffffffff\n      and\n        /* \"@openzeppelin/contracts/token/ERC20/ERC20.sol\":7601:7605  from */\n      dup4\n        /* \"@openzeppelin/contracts/token/ERC20/ERC20.sol\":7601:7619  from != address(0) */\n      0xffffffffffffffffffffffffffffffffffffffff\n      and\n      sub\n        /* \"@openzeppelin/contracts/token/ERC20/ERC20.sol\":7593:7661  require(from != address(0), \"ERC20: transfer from the zero address\") */\n      tag_331\n      jumpi\n      mload(0x40)\n      0x08c379a000000000000000000000000000000000000000000000000000000000\n      dup2\n      mstore\n      0x04\n      add\n      tag_332\n      swap1\n      tag_333\n      jump\t// in\n    tag_332:\n      mload(0x40)\n      dup1\n      swap2\n      sub\n      swap1\n      revert\n    tag_331:\n        /* \"@openzeppelin/contracts/token/ERC20/ERC20.sol\":7693:7694  0 */\n      0x00\n        /* \"@openzeppelin/contracts/token/ERC20/ERC20.sol\":7679:7695  to != address(0) */\n      0xffffffffffffffffffffffffffffffffffffffff\n      and\n        /* \"@openzeppelin/contracts/token/ERC20/ERC20.sol\":7679:7681  to */\n      dup3\n        /* \"@openzeppelin/contracts/token/ERC20/ERC20.sol\":7679:7695  to != address(0) */\n      0xffffffffffffffffffffffffffffffffffffffff\n      and\n      sub\n        /* \"@openzeppelin/contracts/token/ERC20/ERC20.sol\":7671:7735  require(to != address(0), \"ERC20: transfer to the zero address\") */\n      tag_334\n      jumpi\n      mload(0x40)\n      0x08c379a000000000000000000000000000000000000000000000000000000000\n      dup2\n      mstore\n      0x04\n      add\n      tag_335\n      swap1\n      tag_336\n      jump\t// in\n    tag_335:\n      mload(0x40)\n      dup1\n      swap2\n      sub\n      swap1\n      revert\n    tag_334:\n        /* \"@openzeppelin/contracts/token/ERC20/ERC20.sol\":7746:7784  _beforeTokenTransfer(from, to, amount) */\n      tag_337\n        /* \"@openzeppelin/contracts/token/ERC20/ERC20.sol\":7767:7771  from */\n      dup4\n        /* \"@openzeppelin/contracts/token/ERC20/ERC20.sol\":7773:7775  to */\n      dup4\n        /* \"@openzeppelin/contracts/token/ERC20/ERC20.sol\":7777:7783  amount */\n      dup4\n        /* \"@openzeppelin/contracts/token/ERC20/ERC20.sol\":7746:7766  _beforeTokenTransfer */\n      tag_338\n        /* \"@openzeppelin/contracts/token/ERC20/ERC20.sol\":7746:7784  _beforeTokenTransfer(from, to, amount) */\n      jump\t// in\n    tag_337:\n        /* \"@openzeppelin/contracts/token/ERC20/ERC20.sol\":7795:7814  uint256 fromBalance */\n      0x00\n        /* \"@openzeppelin/contracts/token/ERC20/ERC20.sol\":7817:7826  _balances */\n      dup1\n        /* \"@openzeppelin/contracts/token/ERC20/ERC20.sol\":7817:7832  _balances[from] */\n      0x00\n        /* \"@openzeppelin/contracts/token/ERC20/ERC20.sol\":7827:7831  from */\n      dup6\n        /* \"@openzeppelin/contracts/token/ERC20/ERC20.sol\":7817:7832  _balances[from] */\n      0xffffffffffffffffffffffffffffffffffffffff\n      and\n      0xffffffffffffffffffffffffffffffffffffffff\n      and\n      dup2\n      mstore\n      0x20\n      add\n      swap1\n      dup2\n      mstore\n      0x20\n      add\n      0x00\n      keccak256\n      sload\n        /* \"@openzeppelin/contracts/token/ERC20/ERC20.sol\":7795:7832  uint256 fromBalance = _balances[from] */\n      swap1\n      pop\n        /* \"@openzeppelin/contracts/token/ERC20/ERC20.sol\":7865:7871  amount */\n      dup2\n        /* \"@openzeppelin/contracts/token/ERC20/ERC20.sol\":7850:7861  fromBalance */\n      dup2\n        /* \"@openzeppelin/contracts/token/ERC20/ERC20.sol\":7850:7871  fromBalance >= amount */\n      lt\n      iszero\n        /* \"@openzeppelin/contracts/token/ERC20/ERC20.sol\":7842:7914  require(fromBalance >= amount, \"ERC20: transfer amount exceeds balance\") */\n      tag_339\n      jumpi\n      mload(0x40)\n      0x08c379a000000000000000000000000000000000000000000000000000000000\n      dup2\n      mstore\n      0x04\n      add\n      tag_340\n      swap1\n      tag_341\n      jump\t// in\n    tag_340:\n      mload(0x40)\n      dup1\n      swap2\n      sub\n      swap1\n      revert\n    tag_339:\n        /* \"@openzeppelin/contracts/token/ERC20/ERC20.sol\":7980:7986  amount */\n      dup2\n        /* \"@openzeppelin/contracts/token/ERC20/ERC20.sol\":7966:7977  fromBalance */\n      dup2\n        /* \"@openzeppelin/contracts/token/ERC20/ERC20.sol\":7966:7986  fromBalance - amount */\n      sub\n        /* \"@openzeppelin/contracts/token/ERC20/ERC20.sol\":7948:7957  _balances */\n      0x00\n        /* \"@openzeppelin/contracts/token/ERC20/ERC20.sol\":7948:7963  _balances[from] */\n      dup1\n        /* \"@openzeppelin/contracts/token/ERC20/ERC20.sol\":7958:7962  from */\n      dup7\n        /* \"@openzeppelin/contracts/token/ERC20/ERC20.sol\":7948:7963  _balances[from] */\n      0xffffffffffffffffffffffffffffffffffffffff\n      and\n      0xffffffffffffffffffffffffffffffffffffffff\n      and\n      dup2\n      mstore\n      0x20\n      add\n      swap1\n      dup2\n      mstore\n      0x20\n      add\n      0x00\n      keccak256\n        /* \"@openzeppelin/contracts/token/ERC20/ERC20.sol\":7948:7986  _balances[from] = fromBalance - amount */\n      dup2\n      swap1\n      sstore\n      pop\n        /* \"@openzeppelin/contracts/token/ERC20/ERC20.sol\":8023:8029  amount */\n      dup2\n        /* \"@openzeppelin/contracts/token/ERC20/ERC20.sol\":8006:8015  _balances */\n      0x00\n        /* \"@openzeppelin/contracts/token/ERC20/ERC20.sol\":8006:8019  _balances[to] */\n      dup1\n        /* \"@openzeppelin/contracts/token/ERC20/ERC20.sol\":8016:8018  to */\n      dup6\n        /* \"@openzeppelin/contracts/token/ERC20/ERC20.sol\":8006:8019  _balances[to] */\n      0xffffffffffffffffffffffffffffffffffffffff\n      and\n      0xffffffffffffffffffffffffffffffffffffffff\n      and\n      dup2\n      mstore\n      0x20\n      add\n      swap1\n      dup2\n      mstore\n      0x20\n      add\n      0x00\n      keccak256\n      0x00\n        /* \"@openzeppelin/contracts/token/ERC20/ERC20.sol\":8006:8029  _balances[to] += amount */\n      dup3\n      dup3\n      sload\n      tag_342\n      swap2\n      swap1\n      tag_183\n      jump\t// in\n    tag_342:\n      swap3\n      pop\n      pop\n      dup2\n      swap1\n      sstore\n      pop\n        /* \"@openzeppelin/contracts/token/ERC20/ERC20.sol\":8060:8062  to */\n      dup3\n        /* \"@openzeppelin/contracts/token/ERC20/ERC20.sol\":8045:8071  Transfer(from, to, amount) */\n      0xffffffffffffffffffffffffffffffffffffffff\n      and\n        /* \"@openzeppelin/contracts/token/ERC20/ERC20.sol\":8054:8058  from */\n      dup5\n        /* \"@openzeppelin/contracts/token/ERC20/ERC20.sol\":8045:8071  Transfer(from, to, amount) */\n      0xffffffffffffffffffffffffffffffffffffffff\n      and\n      0xddf252ad1be2c89b69c2b068fc378daa952ba7f163c4a11628f55a4df523b3ef\n        /* \"@openzeppelin/contracts/token/ERC20/ERC20.sol\":8064:8070  amount */\n      dup5\n        /* \"@openzeppelin/contracts/token/ERC20/ERC20.sol\":8045:8071  Transfer(from, to, amount) */\n      mload(0x40)\n      tag_343\n      swap2\n      swap1\n      tag_50\n      jump\t// in\n    tag_343:\n      mload(0x40)\n      dup1\n      swap2\n      sub\n      swap1\n      log3\n        /* \"@openzeppelin/contracts/token/ERC20/ERC20.sol\":8082:8119  _afterTokenTransfer(from, to, amount) */\n      tag_344\n        /* \"@openzeppelin/contracts/token/ERC20/ERC20.sol\":8102:8106  from */\n      dup5\n        /* \"@openzeppelin/contracts/token/ERC20/ERC20.sol\":8108:8110  to */\n      dup5\n        /* \"@openzeppelin/contracts/token/ERC20/ERC20.sol\":8112:8118  amount */\n      dup5\n        /* \"@openzeppelin/contracts/token/ERC20/ERC20.sol\":8082:8101  _afterTokenTransfer */\n      tag_345\n        /* \"@openzeppelin/contracts/token/ERC20/ERC20.sol\":8082:8119  _afterTokenTransfer(from, to, amount) */\n      jump\t// in\n    tag_344:\n        /* \"@openzeppelin/contracts/token/ERC20/ERC20.sol\":7583:8126  {... */\n      pop\n        /* \"@openzeppelin/contracts/token/ERC20/ERC20.sol\":7475:8126  function _transfer(... */\n      pop\n      pop\n      pop\n      jump\t// out\n        /* \"contracts/Pair.sol\":5365:5874  function ethForTokenBasic(uint256 tokenAmount, address recipient) private {... */\n    tag_177:\n        /* \"contracts/Pair.sol\":5451:5471  uint256 tokenReserve */\n      0x00\n        /* \"contracts/Pair.sol\":5473:5491  uint256 ethReserve */\n      dup1\n        /* \"contracts/Pair.sol\":5495:5508  getReserves() */\n      tag_347\n        /* \"contracts/Pair.sol\":5495:5506  getReserves */\n      tag_34\n        /* \"contracts/Pair.sol\":5495:5508  getReserves() */\n      jump\t// in\n    tag_347:\n        /* \"contracts/Pair.sol\":5450:5508  (uint256 tokenReserve, uint256 ethReserve) = getReserves() */\n      swap2\n      pop\n      swap2\n      pop\n        /* \"contracts/Pair.sol\":5519:5541  uint256 tokensRecieved */\n      0x00\n        /* \"contracts/Pair.sol\":5544:5608  getOutputAmount(msg.value, ethReserve - msg.value, tokenReserve) */\n      tag_348\n        /* \"contracts/Pair.sol\":5560:5569  msg.value */\n      callvalue\n        /* \"contracts/Pair.sol\":5584:5593  msg.value */\n      callvalue\n        /* \"contracts/Pair.sol\":5571:5581  ethReserve */\n      dup5\n        /* \"contracts/Pair.sol\":5571:5593  ethReserve - msg.value */\n      tag_349\n      swap2\n      swap1\n      tag_195\n      jump\t// in\n    tag_349:\n        /* \"contracts/Pair.sol\":5595:5607  tokenReserve */\n      dup6\n        /* \"contracts/Pair.sol\":5544:5559  getOutputAmount */\n      tag_161\n        /* \"contracts/Pair.sol\":5544:5608  getOutputAmount(msg.value, ethReserve - msg.value, tokenReserve) */\n      jump\t// in\n    tag_348:\n        /* \"contracts/Pair.sol\":5519:5608  uint256 tokensRecieved = getOutputAmount(msg.value, ethReserve - msg.value, tokenReserve) */\n      swap1\n      pop\n        /* \"contracts/Pair.sol\":5647:5658  tokenAmount */\n      dup5\n        /* \"contracts/Pair.sol\":5629:5643  tokensRecieved */\n      dup2\n        /* \"contracts/Pair.sol\":5629:5658  tokensRecieved >= tokenAmount */\n      lt\n      iszero\n        /* \"contracts/Pair.sol\":5621:5730  require(tokensRecieved >= tokenAmount, \"Amount swapped does not meet your stipulated amount, reverting swap\") */\n      tag_350\n      jumpi\n      mload(0x40)\n      0x08c379a000000000000000000000000000000000000000000000000000000000\n      dup2\n      mstore\n      0x04\n      add\n      tag_351\n      swap1\n      tag_217\n      jump\t// in\n    tag_351:\n      mload(0x40)\n      dup1\n      swap2\n      sub\n      swap1\n      revert\n    tag_350:\n        /* \"contracts/Pair.sol\":5750:5762  tokenAddress */\n      0x05\n      0x00\n      swap1\n      sload\n      swap1\n      0x0100\n      exp\n      swap1\n      div\n      0xffffffffffffffffffffffffffffffffffffffff\n      and\n        /* \"contracts/Pair.sol\":5743:5772  IERC20(tokenAddress).transfer */\n      0xffffffffffffffffffffffffffffffffffffffff\n      and\n      0xa9059cbb\n        /* \"contracts/Pair.sol\":5773:5782  recipient */\n      dup6\n        /* \"contracts/Pair.sol\":5784:5798  tokensRecieved */\n      dup4\n        /* \"contracts/Pair.sol\":5743:5799  IERC20(tokenAddress).transfer(recipient, tokensRecieved) */\n      mload(0x40)\n      dup4\n      0xffffffff\n      and\n      0xe0\n      shl\n      dup2\n      mstore\n      0x04\n      add\n      tag_352\n      swap3\n      swap2\n      swap1\n      tag_259\n      jump\t// in\n    tag_352:\n      0x20\n      mload(0x40)\n      dup1\n      dup4\n      sub\n      dup2\n      0x00\n      dup8\n      gas\n      call\n      iszero\n      dup1\n      iszero\n      tag_354\n      jumpi\n      returndatasize\n      0x00\n      dup1\n      returndatacopy\n      revert(0x00, returndatasize)\n    tag_354:\n      pop\n      pop\n      pop\n      pop\n      mload(0x40)\n      returndatasize\n      not(0x1f)\n      0x1f\n      dup3\n      add\n      and\n      dup3\n      add\n      dup1\n      0x40\n      mstore\n      pop\n      dup2\n      add\n      swap1\n      tag_355\n      swap2\n      swap1\n      tag_192\n      jump\t// in\n    tag_355:\n      pop\n        /* \"contracts/Pair.sol\":5840:5849  msg.value */\n      callvalue\n        /* \"contracts/Pair.sol\":5829:5838  recipient */\n      dup5\n        /* \"contracts/Pair.sol\":5815:5866  SwapForTokens(recipient, msg.value, tokensRecieved) */\n      0xffffffffffffffffffffffffffffffffffffffff\n      and\n      0x2ad51a6b79c1a35468e5cc340ef09004400e337e1d1149aab02294fdb7f8f055\n        /* \"contracts/Pair.sol\":5851:5865  tokensRecieved */\n      dup4\n        /* \"contracts/Pair.sol\":5815:5866  SwapForTokens(recipient, msg.value, tokensRecieved) */\n      mload(0x40)\n      tag_356\n      swap2\n      swap1\n      tag_50\n      jump\t// in\n    tag_356:\n      mload(0x40)\n      dup1\n      swap2\n      sub\n      swap1\n      log3\n        /* \"contracts/Pair.sol\":5439:5874  {... */\n      pop\n      pop\n      pop\n        /* \"contracts/Pair.sol\":5365:5874  function ethForTokenBasic(uint256 tokenAmount, address recipient) private {... */\n      pop\n      pop\n      jump\t// out\n        /* \"@openzeppelin/contracts/token/ERC20/ERC20.sol\":8402:8791  function _mint(address account, uint256 amount) internal virtual {... */\n    tag_211:\n        /* \"@openzeppelin/contracts/token/ERC20/ERC20.sol\":8504:8505  0 */\n      0x00\n        /* \"@openzeppelin/contracts/token/ERC20/ERC20.sol\":8485:8506  account != address(0) */\n      0xffffffffffffffffffffffffffffffffffffffff\n      and\n        /* \"@openzeppelin/contracts/token/ERC20/ERC20.sol\":8485:8492  account */\n      dup3\n        /* \"@openzeppelin/contracts/token/ERC20/ERC20.sol\":8485:8506  account != address(0) */\n      0xffffffffffffffffffffffffffffffffffffffff\n      and\n      sub\n        /* \"@openzeppelin/contracts/token/ERC20/ERC20.sol\":8477:8542  require(account != address(0), \"ERC20: mint to the zero address\") */\n      tag_358\n      jumpi\n      mload(0x40)\n      0x08c379a000000000000000000000000000000000000000000000000000000000\n      dup2\n      mstore\n      0x04\n      add\n      tag_359\n      swap1\n      tag_360\n      jump\t// in\n    tag_359:\n      mload(0x40)\n      dup1\n      swap2\n      sub\n      swap1\n      revert\n    tag_358:\n        /* \"@openzeppelin/contracts/token/ERC20/ERC20.sol\":8553:8602  _beforeTokenTransfer(address(0), account, amount) */\n      tag_361\n        /* \"@openzeppelin/contracts/token/ERC20/ERC20.sol\":8582:8583  0 */\n      0x00\n        /* \"@openzeppelin/contracts/token/ERC20/ERC20.sol\":8586:8593  account */\n      dup4\n        /* \"@openzeppelin/contracts/token/ERC20/ERC20.sol\":8595:8601  amount */\n      dup4\n        /* \"@openzeppelin/contracts/token/ERC20/ERC20.sol\":8553:8573  _beforeTokenTransfer */\n      tag_338\n        /* \"@openzeppelin/contracts/token/ERC20/ERC20.sol\":8553:8602  _beforeTokenTransfer(address(0), account, amount) */\n      jump\t// in\n    tag_361:\n        /* \"@openzeppelin/contracts/token/ERC20/ERC20.sol\":8629:8635  amount */\n      dup1\n        /* \"@openzeppelin/contracts/token/ERC20/ERC20.sol\":8613:8625  _totalSupply */\n      0x02\n      0x00\n        /* \"@openzeppelin/contracts/token/ERC20/ERC20.sol\":8613:8635  _totalSupply += amount */\n      dup3\n      dup3\n      sload\n      tag_362\n      swap2\n      swap1\n      tag_183\n      jump\t// in\n    tag_362:\n      swap3\n      pop\n      pop\n      dup2\n      swap1\n      sstore\n      pop\n        /* \"@openzeppelin/contracts/token/ERC20/ERC20.sol\":8667:8673  amount */\n      dup1\n        /* \"@openzeppelin/contracts/token/ERC20/ERC20.sol\":8645:8654  _balances */\n      0x00\n        /* \"@openzeppelin/contracts/token/ERC20/ERC20.sol\":8645:8663  _balances[account] */\n      dup1\n        /* \"@openzeppelin/contracts/token/ERC20/ERC20.sol\":8655:8662  account */\n      dup5\n        /* \"@openzeppelin/contracts/token/ERC20/ERC20.sol\":8645:8663  _balances[account] */\n      0xffffffffffffffffffffffffffffffffffffffff\n      and\n      0xffffffffffffffffffffffffffffffffffffffff\n      and\n      dup2\n      mstore\n      0x20\n      add\n      swap1\n      dup2\n      mstore\n      0x20\n      add\n      0x00\n      keccak256\n      0x00\n        /* \"@openzeppelin/contracts/token/ERC20/ERC20.sol\":8645:8673  _balances[account] += amount */\n      dup3\n      dup3\n      sload\n      tag_363\n      swap2\n      swap1\n      tag_183\n      jump\t// in\n    tag_363:\n      swap3\n      pop\n      pop\n      dup2\n      swap1\n      sstore\n      pop\n        /* \"@openzeppelin/contracts/token/ERC20/ERC20.sol\":8709:8716  account */\n      dup2\n        /* \"@openzeppelin/contracts/token/ERC20/ERC20.sol\":8688:8725  Transfer(address(0), account, amount) */\n      0xffffffffffffffffffffffffffffffffffffffff\n      and\n        /* \"@openzeppelin/contracts/token/ERC20/ERC20.sol\":8705:8706  0 */\n      0x00\n        /* \"@openzeppelin/contracts/token/ERC20/ERC20.sol\":8688:8725  Transfer(address(0), account, amount) */\n      0xffffffffffffffffffffffffffffffffffffffff\n      and\n      0xddf252ad1be2c89b69c2b068fc378daa952ba7f163c4a11628f55a4df523b3ef\n        /* \"@openzeppelin/contracts/token/ERC20/ERC20.sol\":8718:8724  amount */\n      dup4\n        /* \"@openzeppelin/contracts/token/ERC20/ERC20.sol\":8688:8725  Transfer(address(0), account, amount) */\n      mload(0x40)\n      tag_364\n      swap2\n      swap1\n      tag_50\n      jump\t// in\n    tag_364:\n      mload(0x40)\n      dup1\n      swap2\n      sub\n      swap1\n      log3\n        /* \"@openzeppelin/contracts/token/ERC20/ERC20.sol\":8736:8784  _afterTokenTransfer(address(0), account, amount) */\n      tag_365\n        /* \"@openzeppelin/contracts/token/ERC20/ERC20.sol\":8764:8765  0 */\n      0x00\n        /* \"@openzeppelin/contracts/token/ERC20/ERC20.sol\":8768:8775  account */\n      dup4\n        /* \"@openzeppelin/contracts/token/ERC20/ERC20.sol\":8777:8783  amount */\n      dup4\n        /* \"@openzeppelin/contracts/token/ERC20/ERC20.sol\":8736:8755  _afterTokenTransfer */\n      tag_345\n        /* \"@openzeppelin/contracts/token/ERC20/ERC20.sol\":8736:8784  _afterTokenTransfer(address(0), account, amount) */\n      jump\t// in\n    tag_365:\n        /* \"@openzeppelin/contracts/token/ERC20/ERC20.sol\":8402:8791  function _mint(address account, uint256 amount) internal virtual {... */\n      pop\n      pop\n      jump\t// out\n        /* \"@openzeppelin/contracts/token/ERC20/ERC20.sol\":9111:9687  function _burn(address account, uint256 amount) internal virtual {... */\n    tag_250:\n        /* \"@openzeppelin/contracts/token/ERC20/ERC20.sol\":9213:9214  0 */\n      0x00\n        /* \"@openzeppelin/contracts/token/ERC20/ERC20.sol\":9194:9215  account != address(0) */\n      0xffffffffffffffffffffffffffffffffffffffff\n      and\n        /* \"@openzeppelin/contracts/token/ERC20/ERC20.sol\":9194:9201  account */\n      dup3\n        /* \"@openzeppelin/contracts/token/ERC20/ERC20.sol\":9194:9215  account != address(0) */\n      0xffffffffffffffffffffffffffffffffffffffff\n      and\n      sub\n        /* \"@openzeppelin/contracts/token/ERC20/ERC20.sol\":9186:9253  require(account != address(0), \"ERC20: burn from the zero address\") */\n      tag_367\n      jumpi\n      mload(0x40)\n      0x08c379a000000000000000000000000000000000000000000000000000000000\n      dup2\n      mstore\n      0x04\n      add\n      tag_368\n      swap1\n      tag_369\n      jump\t// in\n    tag_368:\n      mload(0x40)\n      dup1\n      swap2\n      sub\n      swap1\n      revert\n    tag_367:\n        /* \"@openzeppelin/contracts/token/ERC20/ERC20.sol\":9264:9313  _beforeTokenTransfer(account, address(0), amount) */\n      tag_370\n        /* \"@openzeppelin/contracts/token/ERC20/ERC20.sol\":9285:9292  account */\n      dup3\n        /* \"@openzeppelin/contracts/token/ERC20/ERC20.sol\":9302:9303  0 */\n      0x00\n        /* \"@openzeppelin/contracts/token/ERC20/ERC20.sol\":9306:9312  amount */\n      dup4\n        /* \"@openzeppelin/contracts/token/ERC20/ERC20.sol\":9264:9284  _beforeTokenTransfer */\n      tag_338\n        /* \"@openzeppelin/contracts/token/ERC20/ERC20.sol\":9264:9313  _beforeTokenTransfer(account, address(0), amount) */\n      jump\t// in\n    tag_370:\n        /* \"@openzeppelin/contracts/token/ERC20/ERC20.sol\":9324:9346  uint256 accountBalance */\n      0x00\n        /* \"@openzeppelin/contracts/token/ERC20/ERC20.sol\":9349:9358  _balances */\n      dup1\n        /* \"@openzeppelin/contracts/token/ERC20/ERC20.sol\":9349:9367  _balances[account] */\n      0x00\n        /* \"@openzeppelin/contracts/token/ERC20/ERC20.sol\":9359:9366  account */\n      dup5\n        /* \"@openzeppelin/contracts/token/ERC20/ERC20.sol\":9349:9367  _balances[account] */\n      0xffffffffffffffffffffffffffffffffffffffff\n      and\n      0xffffffffffffffffffffffffffffffffffffffff\n      and\n      dup2\n      mstore\n      0x20\n      add\n      swap1\n      dup2\n      mstore\n      0x20\n      add\n      0x00\n      keccak256\n      sload\n        /* \"@openzeppelin/contracts/token/ERC20/ERC20.sol\":9324:9367  uint256 accountBalance = _balances[account] */\n      swap1\n      pop\n        /* \"@openzeppelin/contracts/token/ERC20/ERC20.sol\":9403:9409  amount */\n      dup2\n        /* \"@openzeppelin/contracts/token/ERC20/ERC20.sol\":9385:9399  accountBalance */\n      dup2\n        /* \"@openzeppelin/contracts/token/ERC20/ERC20.sol\":9385:9409  accountBalance >= amount */\n      lt\n      iszero\n        /* \"@openzeppelin/contracts/token/ERC20/ERC20.sol\":9377:9448  require(accountBalance >= amount, \"ERC20: burn amount exceeds balance\") */\n      tag_371\n      jumpi\n      mload(0x40)\n      0x08c379a000000000000000000000000000000000000000000000000000000000\n      dup2\n      mstore\n      0x04\n      add\n      tag_372\n      swap1\n      tag_373\n      jump\t// in\n    tag_372:\n      mload(0x40)\n      dup1\n      swap2\n      sub\n      swap1\n      revert\n    tag_371:\n        /* \"@openzeppelin/contracts/token/ERC20/ERC20.sol\":9520:9526  amount */\n      dup2\n        /* \"@openzeppelin/contracts/token/ERC20/ERC20.sol\":9503:9517  accountBalance */\n      dup2\n        /* \"@openzeppelin/contracts/token/ERC20/ERC20.sol\":9503:9526  accountBalance - amount */\n      sub\n        /* \"@openzeppelin/contracts/token/ERC20/ERC20.sol\":9482:9491  _balances */\n      0x00\n        /* \"@openzeppelin/contracts/token/ERC20/ERC20.sol\":9482:9500  _balances[account] */\n      dup1\n        /* \"@openzeppelin/contracts/token/ERC20/ERC20.sol\":9492:9499  account */\n      dup6\n        /* \"@openzeppelin/contracts/token/ERC20/ERC20.sol\":9482:9500  _balances[account] */\n      0xffffffffffffffffffffffffffffffffffffffff\n      and\n      0xffffffffffffffffffffffffffffffffffffffff\n      and\n      dup2\n      mstore\n      0x20\n      add\n      swap1\n      dup2\n      mstore\n      0x20\n      add\n      0x00\n      keccak256\n        /* \"@openzeppelin/contracts/token/ERC20/ERC20.sol\":9482:9526  _balances[account] = accountBalance - amount */\n      dup2\n      swap1\n      sstore\n      pop\n        /* \"@openzeppelin/contracts/token/ERC20/ERC20.sol\":9562:9568  amount */\n      dup2\n        /* \"@openzeppelin/contracts/token/ERC20/ERC20.sol\":9546:9558  _totalSupply */\n      0x02\n      0x00\n        /* \"@openzeppelin/contracts/token/ERC20/ERC20.sol\":9546:9568  _totalSupply -= amount */\n      dup3\n      dup3\n      sload\n      tag_374\n      swap2\n      swap1\n      tag_195\n      jump\t// in\n    tag_374:\n      swap3\n      pop\n      pop\n      dup2\n      swap1\n      sstore\n      pop\n        /* \"@openzeppelin/contracts/token/ERC20/ERC20.sol\":9610:9611  0 */\n      0x00\n        /* \"@openzeppelin/contracts/token/ERC20/ERC20.sol\":9584:9621  Transfer(account, address(0), amount) */\n      0xffffffffffffffffffffffffffffffffffffffff\n      and\n        /* \"@openzeppelin/contracts/token/ERC20/ERC20.sol\":9593:9600  account */\n      dup4\n        /* \"@openzeppelin/contracts/token/ERC20/ERC20.sol\":9584:9621  Transfer(account, address(0), amount) */\n      0xffffffffffffffffffffffffffffffffffffffff\n      and\n      0xddf252ad1be2c89b69c2b068fc378daa952ba7f163c4a11628f55a4df523b3ef\n        /* \"@openzeppelin/contracts/token/ERC20/ERC20.sol\":9614:9620  amount */\n      dup5\n        /* \"@openzeppelin/contracts/token/ERC20/ERC20.sol\":9584:9621  Transfer(account, address(0), amount) */\n      mload(0x40)\n      tag_375\n      swap2\n      swap1\n      tag_50\n      jump\t// in\n    tag_375:\n      mload(0x40)\n      dup1\n      swap2\n      sub\n      swap1\n      log3\n        /* \"@openzeppelin/contracts/token/ERC20/ERC20.sol\":9632:9680  _afterTokenTransfer(account, address(0), amount) */\n      tag_376\n        /* \"@openzeppelin/contracts/token/ERC20/ERC20.sol\":9652:9659  account */\n      dup4\n        /* \"@openzeppelin/contracts/token/ERC20/ERC20.sol\":9669:9670  0 */\n      0x00\n        /* \"@openzeppelin/contracts/token/ERC20/ERC20.sol\":9673:9679  amount */\n      dup5\n        /* \"@openzeppelin/contracts/token/ERC20/ERC20.sol\":9632:9651  _afterTokenTransfer */\n      tag_345\n        /* \"@openzeppelin/contracts/token/ERC20/ERC20.sol\":9632:9680  _afterTokenTransfer(account, address(0), amount) */\n      jump\t// in\n    tag_376:\n        /* \"@openzeppelin/contracts/token/ERC20/ERC20.sol\":9176:9687  {... */\n      pop\n        /* \"@openzeppelin/contracts/token/ERC20/ERC20.sol\":9111:9687  function _burn(address account, uint256 amount) internal virtual {... */\n      pop\n      pop\n      jump\t// out\n        /* \"@openzeppelin/contracts/token/ERC20/ERC20.sol\":11786:11907  function _beforeTokenTransfer(... */\n    tag_338:\n      pop\n      pop\n      pop\n      jump\t// out\n        /* \"@openzeppelin/contracts/token/ERC20/ERC20.sol\":12495:12615  function _afterTokenTransfer(... */\n    tag_345:\n      pop\n      pop\n      pop\n      jump\t// out\n        /* \"#utility.yul\":7:106   */\n    tag_379:\n        /* \"#utility.yul\":59:65   */\n      0x00\n        /* \"#utility.yul\":93:98   */\n      dup2\n        /* \"#utility.yul\":87:99   */\n      mload\n        /* \"#utility.yul\":77:99   */\n      swap1\n      pop\n        /* \"#utility.yul\":7:106   */\n      swap2\n      swap1\n      pop\n      jump\t// out\n        /* \"#utility.yul\":112:281   */\n    tag_380:\n        /* \"#utility.yul\":196:207   */\n      0x00\n        /* \"#utility.yul\":230:236   */\n      dup3\n        /* \"#utility.yul\":225:228   */\n      dup3\n        /* \"#utility.yul\":218:237   */\n      mstore\n        /* \"#utility.yul\":270:274   */\n      0x20\n        /* \"#utility.yul\":265:268   */\n      dup3\n        /* \"#utility.yul\":261:275   */\n      add\n        /* \"#utility.yul\":246:275   */\n      swap1\n      pop\n        /* \"#utility.yul\":112:281   */\n      swap3\n      swap2\n      pop\n      pop\n      jump\t// out\n        /* \"#utility.yul\":287:533   */\n    tag_381:\n        /* \"#utility.yul\":368:369   */\n      0x00\n        /* \"#utility.yul\":378:491   */\n    tag_454:\n        /* \"#utility.yul\":392:398   */\n      dup4\n        /* \"#utility.yul\":389:390   */\n      dup2\n        /* \"#utility.yul\":386:399   */\n      lt\n        /* \"#utility.yul\":378:491   */\n      iszero\n      tag_456\n      jumpi\n        /* \"#utility.yul\":477:478   */\n      dup1\n        /* \"#utility.yul\":472:475   */\n      dup3\n        /* \"#utility.yul\":468:479   */\n      add\n        /* \"#utility.yul\":462:480   */\n      mload\n        /* \"#utility.yul\":458:459   */\n      dup2\n        /* \"#utility.yul\":453:456   */\n      dup5\n        /* \"#utility.yul\":449:460   */\n      add\n        /* \"#utility.yul\":442:481   */\n      mstore\n        /* \"#utility.yul\":414:416   */\n      0x20\n        /* \"#utility.yul\":411:412   */\n      dup2\n        /* \"#utility.yul\":407:417   */\n      add\n        /* \"#utility.yul\":402:417   */\n      swap1\n      pop\n        /* \"#utility.yul\":378:491   */\n      jump(tag_454)\n    tag_456:\n        /* \"#utility.yul\":525:526   */\n      0x00\n        /* \"#utility.yul\":516:522   */\n      dup5\n        /* \"#utility.yul\":511:514   */\n      dup5\n        /* \"#utility.yul\":507:523   */\n      add\n        /* \"#utility.yul\":500:527   */\n      mstore\n        /* \"#utility.yul\":349:533   */\n      pop\n        /* \"#utility.yul\":287:533   */\n      pop\n      pop\n      pop\n      jump\t// out\n        /* \"#utility.yul\":539:641   */\n    tag_382:\n        /* \"#utility.yul\":580:586   */\n      0x00\n        /* \"#utility.yul\":631:633   */\n      0x1f\n        /* \"#utility.yul\":627:634   */\n      not\n        /* \"#utility.yul\":622:624   */\n      0x1f\n        /* \"#utility.yul\":615:620   */\n      dup4\n        /* \"#utility.yul\":611:625   */\n      add\n        /* \"#utility.yul\":607:635   */\n      and\n        /* \"#utility.yul\":597:635   */\n      swap1\n      pop\n        /* \"#utility.yul\":539:641   */\n      swap2\n      swap1\n      pop\n      jump\t// out\n        /* \"#utility.yul\":647:1024   */\n    tag_383:\n        /* \"#utility.yul\":735:738   */\n      0x00\n        /* \"#utility.yul\":763:802   */\n      tag_459\n        /* \"#utility.yul\":796:801   */\n      dup3\n        /* \"#utility.yul\":763:802   */\n      tag_379\n      jump\t// in\n    tag_459:\n        /* \"#utility.yul\":818:889   */\n      tag_460\n        /* \"#utility.yul\":882:888   */\n      dup2\n        /* \"#utility.yul\":877:880   */\n      dup6\n        /* \"#utility.yul\":818:889   */\n      tag_380\n      jump\t// in\n    tag_460:\n        /* \"#utility.yul\":811:889   */\n      swap4\n      pop\n        /* \"#utility.yul\":898:963   */\n      tag_461\n        /* \"#utility.yul\":956:962   */\n      dup2\n        /* \"#utility.yul\":951:954   */\n      dup6\n        /* \"#utility.yul\":944:948   */\n      0x20\n        /* \"#utility.yul\":937:942   */\n      dup7\n        /* \"#utility.yul\":933:949   */\n      add\n        /* \"#utility.yul\":898:963   */\n      tag_381\n      jump\t// in\n    tag_461:\n        /* \"#utility.yul\":988:1017   */\n      tag_462\n        /* \"#utility.yul\":1010:1016   */\n      dup2\n        /* \"#utility.yul\":988:1017   */\n      tag_382\n      jump\t// in\n    tag_462:\n        /* \"#utility.yul\":983:986   */\n      dup5\n        /* \"#utility.yul\":979:1018   */\n      add\n        /* \"#utility.yul\":972:1018   */\n      swap2\n      pop\n        /* \"#utility.yul\":739:1024   */\n      pop\n        /* \"#utility.yul\":647:1024   */\n      swap3\n      swap2\n      pop\n      pop\n      jump\t// out\n        /* \"#utility.yul\":1030:1343   */\n    tag_31:\n        /* \"#utility.yul\":1143:1147   */\n      0x00\n        /* \"#utility.yul\":1181:1183   */\n      0x20\n        /* \"#utility.yul\":1170:1179   */\n      dup3\n        /* \"#utility.yul\":1166:1184   */\n      add\n        /* \"#utility.yul\":1158:1184   */\n      swap1\n      pop\n        /* \"#utility.yul\":1230:1239   */\n      dup2\n        /* \"#utility.yul\":1224:1228   */\n      dup2\n        /* \"#utility.yul\":1220:1240   */\n      sub\n        /* \"#utility.yul\":1216:1217   */\n      0x00\n        /* \"#utility.yul\":1205:1214   */\n      dup4\n        /* \"#utility.yul\":1201:1218   */\n      add\n        /* \"#utility.yul\":1194:1241   */\n      mstore\n        /* \"#utility.yul\":1258:1336   */\n      tag_464\n        /* \"#utility.yul\":1331:1335   */\n      dup2\n        /* \"#utility.yul\":1322:1328   */\n      dup5\n        /* \"#utility.yul\":1258:1336   */\n      tag_383\n      jump\t// in\n    tag_464:\n        /* \"#utility.yul\":1250:1336   */\n      swap1\n      pop\n        /* \"#utility.yul\":1030:1343   */\n      swap3\n      swap2\n      pop\n      pop\n      jump\t// out\n        /* \"#utility.yul\":1349:1426   */\n    tag_384:\n        /* \"#utility.yul\":1386:1393   */\n      0x00\n        /* \"#utility.yul\":1415:1420   */\n      dup2\n        /* \"#utility.yul\":1404:1420   */\n      swap1\n      pop\n        /* \"#utility.yul\":1349:1426   */\n      swap2\n      swap1\n      pop\n      jump\t// out\n        /* \"#utility.yul\":1432:1550   */\n    tag_385:\n        /* \"#utility.yul\":1519:1543   */\n      tag_467\n        /* \"#utility.yul\":1537:1542   */\n      dup2\n        /* \"#utility.yul\":1519:1543   */\n      tag_384\n      jump\t// in\n    tag_467:\n        /* \"#utility.yul\":1514:1517   */\n      dup3\n        /* \"#utility.yul\":1507:1544   */\n      mstore\n        /* \"#utility.yul\":1432:1550   */\n      pop\n      pop\n      jump\t// out\n        /* \"#utility.yul\":1556:1888   */\n    tag_36:\n        /* \"#utility.yul\":1677:1681   */\n      0x00\n        /* \"#utility.yul\":1715:1717   */\n      0x40\n        /* \"#utility.yul\":1704:1713   */\n      dup3\n        /* \"#utility.yul\":1700:1718   */\n      add\n        /* \"#utility.yul\":1692:1718   */\n      swap1\n      pop\n        /* \"#utility.yul\":1728:1799   */\n      tag_469\n        /* \"#utility.yul\":1796:1797   */\n      0x00\n        /* \"#utility.yul\":1785:1794   */\n      dup4\n        /* \"#utility.yul\":1781:1798   */\n      add\n        /* \"#utility.yul\":1772:1778   */\n      dup6\n        /* \"#utility.yul\":1728:1799   */\n      tag_385\n      jump\t// in\n    tag_469:\n        /* \"#utility.yul\":1809:1881   */\n      tag_470\n        /* \"#utility.yul\":1877:1879   */\n      0x20\n        /* \"#utility.yul\":1866:1875   */\n      dup4\n        /* \"#utility.yul\":1862:1880   */\n      add\n        /* \"#utility.yul\":1853:1859   */\n      dup5\n        /* \"#utility.yul\":1809:1881   */\n      tag_385\n      jump\t// in\n    tag_470:\n        /* \"#utility.yul\":1556:1888   */\n      swap4\n      swap3\n      pop\n      pop\n      pop\n      jump\t// out\n        /* \"#utility.yul\":1975:2092   */\n    tag_387:\n        /* \"#utility.yul\":2084:2085   */\n      0x00\n        /* \"#utility.yul\":2081:2082   */\n      dup1\n        /* \"#utility.yul\":2074:2086   */\n      revert\n        /* \"#utility.yul\":2221:2347   */\n    tag_389:\n        /* \"#utility.yul\":2258:2265   */\n      0x00\n        /* \"#utility.yul\":2298:2340   */\n      0xffffffffffffffffffffffffffffffffffffffff\n        /* \"#utility.yul\":2291:2296   */\n      dup3\n        /* \"#utility.yul\":2287:2341   */\n      and\n        /* \"#utility.yul\":2276:2341   */\n      swap1\n      pop\n        /* \"#utility.yul\":2221:2347   */\n      swap2\n      swap1\n      pop\n      jump\t// out\n        /* \"#utility.yul\":2353:2449   */\n    tag_390:\n        /* \"#utility.yul\":2390:2397   */\n      0x00\n        /* \"#utility.yul\":2419:2443   */\n      tag_476\n        /* \"#utility.yul\":2437:2442   */\n      dup3\n        /* \"#utility.yul\":2419:2443   */\n      tag_389\n      jump\t// in\n    tag_476:\n        /* \"#utility.yul\":2408:2443   */\n      swap1\n      pop\n        /* \"#utility.yul\":2353:2449   */\n      swap2\n      swap1\n      pop\n      jump\t// out\n        /* \"#utility.yul\":2455:2577   */\n    tag_391:\n        /* \"#utility.yul\":2528:2552   */\n      tag_478\n        /* \"#utility.yul\":2546:2551   */\n      dup2\n        /* \"#utility.yul\":2528:2552   */\n      tag_390\n      jump\t// in\n    tag_478:\n        /* \"#utility.yul\":2521:2526   */\n      dup2\n        /* \"#utility.yul\":2518:2553   */\n      eq\n        /* \"#utility.yul\":2508:2571   */\n      tag_479\n      jumpi\n        /* \"#utility.yul\":2567:2568   */\n      0x00\n        /* \"#utility.yul\":2564:2565   */\n      dup1\n        /* \"#utility.yul\":2557:2569   */\n      revert\n        /* \"#utility.yul\":2508:2571   */\n    tag_479:\n        /* \"#utility.yul\":2455:2577   */\n      pop\n      jump\t// out\n        /* \"#utility.yul\":2583:2722   */\n    tag_392:\n        /* \"#utility.yul\":2629:2634   */\n      0x00\n        /* \"#utility.yul\":2667:2673   */\n      dup2\n        /* \"#utility.yul\":2654:2674   */\n      calldataload\n        /* \"#utility.yul\":2645:2674   */\n      swap1\n      pop\n        /* \"#utility.yul\":2683:2716   */\n      tag_481\n        /* \"#utility.yul\":2710:2715   */\n      dup2\n        /* \"#utility.yul\":2683:2716   */\n      tag_391\n      jump\t// in\n    tag_481:\n        /* \"#utility.yul\":2583:2722   */\n      swap3\n      swap2\n      pop\n      pop\n      jump\t// out\n        /* \"#utility.yul\":2728:2850   */\n    tag_393:\n        /* \"#utility.yul\":2801:2825   */\n      tag_483\n        /* \"#utility.yul\":2819:2824   */\n      dup2\n        /* \"#utility.yul\":2801:2825   */\n      tag_384\n      jump\t// in\n    tag_483:\n        /* \"#utility.yul\":2794:2799   */\n      dup2\n        /* \"#utility.yul\":2791:2826   */\n      eq\n        /* \"#utility.yul\":2781:2844   */\n      tag_484\n      jumpi\n        /* \"#utility.yul\":2840:2841   */\n      0x00\n        /* \"#utility.yul\":2837:2838   */\n      dup1\n        /* \"#utility.yul\":2830:2842   */\n      revert\n        /* \"#utility.yul\":2781:2844   */\n    tag_484:\n        /* \"#utility.yul\":2728:2850   */\n      pop\n      jump\t// out\n        /* \"#utility.yul\":2856:2995   */\n    tag_394:\n        /* \"#utility.yul\":2902:2907   */\n      0x00\n        /* \"#utility.yul\":2940:2946   */\n      dup2\n        /* \"#utility.yul\":2927:2947   */\n      calldataload\n        /* \"#utility.yul\":2918:2947   */\n      swap1\n      pop\n        /* \"#utility.yul\":2956:2989   */\n      tag_486\n        /* \"#utility.yul\":2983:2988   */\n      dup2\n        /* \"#utility.yul\":2956:2989   */\n      tag_393\n      jump\t// in\n    tag_486:\n        /* \"#utility.yul\":2856:2995   */\n      swap3\n      swap2\n      pop\n      pop\n      jump\t// out\n        /* \"#utility.yul\":3001:3475   */\n    tag_40:\n        /* \"#utility.yul\":3069:3075   */\n      0x00\n        /* \"#utility.yul\":3077:3083   */\n      dup1\n        /* \"#utility.yul\":3126:3128   */\n      0x40\n        /* \"#utility.yul\":3114:3123   */\n      dup4\n        /* \"#utility.yul\":3105:3112   */\n      dup6\n        /* \"#utility.yul\":3101:3124   */\n      sub\n        /* \"#utility.yul\":3097:3129   */\n      slt\n        /* \"#utility.yul\":3094:3213   */\n      iszero\n      tag_488\n      jumpi\n        /* \"#utility.yul\":3132:3211   */\n      tag_489\n      tag_387\n      jump\t// in\n    tag_489:\n        /* \"#utility.yul\":3094:3213   */\n    tag_488:\n        /* \"#utility.yul\":3252:3253   */\n      0x00\n        /* \"#utility.yul\":3277:3330   */\n      tag_490\n        /* \"#utility.yul\":3322:3329   */\n      dup6\n        /* \"#utility.yul\":3313:3319   */\n      dup3\n        /* \"#utility.yul\":3302:3311   */\n      dup7\n        /* \"#utility.yul\":3298:3320   */\n      add\n        /* \"#utility.yul\":3277:3330   */\n      tag_392\n      jump\t// in\n    tag_490:\n        /* \"#utility.yul\":3267:3330   */\n      swap3\n      pop\n        /* \"#utility.yul\":3223:3340   */\n      pop\n        /* \"#utility.yul\":3379:3381   */\n      0x20\n        /* \"#utility.yul\":3405:3458   */\n      tag_491\n        /* \"#utility.yul\":3450:3457   */\n      dup6\n        /* \"#utility.yul\":3441:3447   */\n      dup3\n        /* \"#utility.yul\":3430:3439   */\n      dup7\n        /* \"#utility.yul\":3426:3448   */\n      add\n        /* \"#utility.yul\":3405:3458   */\n      tag_394\n      jump\t// in\n    tag_491:\n        /* \"#utility.yul\":3395:3458   */\n      swap2\n      pop\n        /* \"#utility.yul\":3350:3468   */\n      pop\n        /* \"#utility.yul\":3001:3475   */\n      swap3\n      pop\n      swap3\n      swap1\n      pop\n      jump\t// out\n        /* \"#utility.yul\":3481:3571   */\n    tag_395:\n        /* \"#utility.yul\":3515:3522   */\n      0x00\n        /* \"#utility.yul\":3558:3563   */\n      dup2\n        /* \"#utility.yul\":3551:3564   */\n      iszero\n        /* \"#utility.yul\":3544:3565   */\n      iszero\n        /* \"#utility.yul\":3533:3565   */\n      swap1\n      pop\n        /* \"#utility.yul\":3481:3571   */\n      swap2\n      swap1\n      pop\n      jump\t// out\n        /* \"#utility.yul\":3577:3686   */\n    tag_396:\n        /* \"#utility.yul\":3658:3679   */\n      tag_494\n        /* \"#utility.yul\":3673:3678   */\n      dup2\n        /* \"#utility.yul\":3658:3679   */\n      tag_395\n      jump\t// in\n    tag_494:\n        /* \"#utility.yul\":3653:3656   */\n      dup3\n        /* \"#utility.yul\":3646:3680   */\n      mstore\n        /* \"#utility.yul\":3577:3686   */\n      pop\n      pop\n      jump\t// out\n        /* \"#utility.yul\":3692:3902   */\n    tag_43:\n        /* \"#utility.yul\":3779:3783   */\n      0x00\n        /* \"#utility.yul\":3817:3819   */\n      0x20\n        /* \"#utility.yul\":3806:3815   */\n      dup3\n        /* \"#utility.yul\":3802:3820   */\n      add\n        /* \"#utility.yul\":3794:3820   */\n      swap1\n      pop\n        /* \"#utility.yul\":3830:3895   */\n      tag_496\n        /* \"#utility.yul\":3892:3893   */\n      0x00\n        /* \"#utility.yul\":3881:3890   */\n      dup4\n        /* \"#utility.yul\":3877:3894   */\n      add\n        /* \"#utility.yul\":3868:3874   */\n      dup5\n        /* \"#utility.yul\":3830:3895   */\n      tag_396\n      jump\t// in\n    tag_496:\n        /* \"#utility.yul\":3692:3902   */\n      swap3\n      swap2\n      pop\n      pop\n      jump\t// out\n        /* \"#utility.yul\":3908:4237   */\n    tag_47:\n        /* \"#utility.yul\":3967:3973   */\n      0x00\n        /* \"#utility.yul\":4016:4018   */\n      0x20\n        /* \"#utility.yul\":4004:4013   */\n      dup3\n        /* \"#utility.yul\":3995:4002   */\n      dup5\n        /* \"#utility.yul\":3991:4014   */\n      sub\n        /* \"#utility.yul\":3987:4019   */\n      slt\n        /* \"#utility.yul\":3984:4103   */\n      iszero\n      tag_498\n      jumpi\n        /* \"#utility.yul\":4022:4101   */\n      tag_499\n      tag_387\n      jump\t// in\n    tag_499:\n        /* \"#utility.yul\":3984:4103   */\n    tag_498:\n        /* \"#utility.yul\":4142:4143   */\n      0x00\n        /* \"#utility.yul\":4167:4220   */\n      tag_500\n        /* \"#utility.yul\":4212:4219   */\n      dup5\n        /* \"#utility.yul\":4203:4209   */\n      dup3\n        /* \"#utility.yul\":4192:4201   */\n      dup6\n        /* \"#utility.yul\":4188:4210   */\n      add\n        /* \"#utility.yul\":4167:4220   */\n      tag_394\n      jump\t// in\n    tag_500:\n        /* \"#utility.yul\":4157:4220   */\n      swap2\n      pop\n        /* \"#utility.yul\":4113:4230   */\n      pop\n        /* \"#utility.yul\":3908:4237   */\n      swap3\n      swap2\n      pop\n      pop\n      jump\t// out\n        /* \"#utility.yul\":4243:4465   */\n    tag_50:\n        /* \"#utility.yul\":4336:4340   */\n      0x00\n        /* \"#utility.yul\":4374:4376   */\n      0x20\n        /* \"#utility.yul\":4363:4372   */\n      dup3\n        /* \"#utility.yul\":4359:4377   */\n      add\n        /* \"#utility.yul\":4351:4377   */\n      swap1\n      pop\n        /* \"#utility.yul\":4387:4458   */\n      tag_502\n        /* \"#utility.yul\":4455:4456   */\n      0x00\n        /* \"#utility.yul\":4444:4453   */\n      dup4\n        /* \"#utility.yul\":4440:4457   */\n      add\n        /* \"#utility.yul\":4431:4437   */\n      dup5\n        /* \"#utility.yul\":4387:4458   */\n      tag_385\n      jump\t// in\n    tag_502:\n        /* \"#utility.yul\":4243:4465   */\n      swap3\n      swap2\n      pop\n      pop\n      jump\t// out\n        /* \"#utility.yul\":4471:5090   */\n    tag_58:\n        /* \"#utility.yul\":4548:4554   */\n      0x00\n        /* \"#utility.yul\":4556:4562   */\n      dup1\n        /* \"#utility.yul\":4564:4570   */\n      0x00\n        /* \"#utility.yul\":4613:4615   */\n      0x60\n        /* \"#utility.yul\":4601:4610   */\n      dup5\n        /* \"#utility.yul\":4592:4599   */\n      dup7\n        /* \"#utility.yul\":4588:4611   */\n      sub\n        /* \"#utility.yul\":4584:4616   */\n      slt\n        /* \"#utility.yul\":4581:4700   */\n      iszero\n      tag_504\n      jumpi\n        /* \"#utility.yul\":4619:4698   */\n      tag_505\n      tag_387\n      jump\t// in\n    tag_505:\n        /* \"#utility.yul\":4581:4700   */\n    tag_504:\n        /* \"#utility.yul\":4739:4740   */\n      0x00\n        /* \"#utility.yul\":4764:4817   */\n      tag_506\n        /* \"#utility.yul\":4809:4816   */\n      dup7\n        /* \"#utility.yul\":4800:4806   */\n      dup3\n        /* \"#utility.yul\":4789:4798   */\n      dup8\n        /* \"#utility.yul\":4785:4807   */\n      add\n        /* \"#utility.yul\":4764:4817   */\n      tag_392\n      jump\t// in\n    tag_506:\n        /* \"#utility.yul\":4754:4817   */\n      swap4\n      pop\n        /* \"#utility.yul\":4710:4827   */\n      pop\n        /* \"#utility.yul\":4866:4868   */\n      0x20\n        /* \"#utility.yul\":4892:4945   */\n      tag_507\n        /* \"#utility.yul\":4937:4944   */\n      dup7\n        /* \"#utility.yul\":4928:4934   */\n      dup3\n        /* \"#utility.yul\":4917:4926   */\n      dup8\n        /* \"#utility.yul\":4913:4935   */\n      add\n        /* \"#utility.yul\":4892:4945   */\n      tag_392\n      jump\t// in\n    tag_507:\n        /* \"#utility.yul\":4882:4945   */\n      swap3\n      pop\n        /* \"#utility.yul\":4837:4955   */\n      pop\n        /* \"#utility.yul\":4994:4996   */\n      0x40\n        /* \"#utility.yul\":5020:5073   */\n      tag_508\n        /* \"#utility.yul\":5065:5072   */\n      dup7\n        /* \"#utility.yul\":5056:5062   */\n      dup3\n        /* \"#utility.yul\":5045:5054   */\n      dup8\n        /* \"#utility.yul\":5041:5063   */\n      add\n        /* \"#utility.yul\":5020:5073   */\n      tag_394\n      jump\t// in\n    tag_508:\n        /* \"#utility.yul\":5010:5073   */\n      swap2\n      pop\n        /* \"#utility.yul\":4965:5083   */\n      pop\n        /* \"#utility.yul\":4471:5090   */\n      swap3\n      pop\n      swap3\n      pop\n      swap3\n      jump\t// out\n        /* \"#utility.yul\":5096:5182   */\n    tag_397:\n        /* \"#utility.yul\":5131:5138   */\n      0x00\n        /* \"#utility.yul\":5171:5175   */\n      0xff\n        /* \"#utility.yul\":5164:5169   */\n      dup3\n        /* \"#utility.yul\":5160:5176   */\n      and\n        /* \"#utility.yul\":5149:5176   */\n      swap1\n      pop\n        /* \"#utility.yul\":5096:5182   */\n      swap2\n      swap1\n      pop\n      jump\t// out\n        /* \"#utility.yul\":5188:5300   */\n    tag_398:\n        /* \"#utility.yul\":5271:5293   */\n      tag_511\n        /* \"#utility.yul\":5287:5292   */\n      dup2\n        /* \"#utility.yul\":5271:5293   */\n      tag_397\n      jump\t// in\n    tag_511:\n        /* \"#utility.yul\":5266:5269   */\n      dup3\n        /* \"#utility.yul\":5259:5294   */\n      mstore\n        /* \"#utility.yul\":5188:5300   */\n      pop\n      pop\n      jump\t// out\n        /* \"#utility.yul\":5306:5520   */\n    tag_70:\n        /* \"#utility.yul\":5395:5399   */\n      0x00\n        /* \"#utility.yul\":5433:5435   */\n      0x20\n        /* \"#utility.yul\":5422:5431   */\n      dup3\n        /* \"#utility.yul\":5418:5436   */\n      add\n        /* \"#utility.yul\":5410:5436   */\n      swap1\n      pop\n        /* \"#utility.yul\":5446:5513   */\n      tag_513\n        /* \"#utility.yul\":5510:5511   */\n      0x00\n        /* \"#utility.yul\":5499:5508   */\n      dup4\n        /* \"#utility.yul\":5495:5512   */\n      add\n        /* \"#utility.yul\":5486:5492   */\n      dup5\n        /* \"#utility.yul\":5446:5513   */\n      tag_398\n      jump\t// in\n    tag_513:\n        /* \"#utility.yul\":5306:5520   */\n      swap3\n      swap2\n      pop\n      pop\n      jump\t// out\n        /* \"#utility.yul\":5526:6000   */\n    tag_73:\n        /* \"#utility.yul\":5594:5600   */\n      0x00\n        /* \"#utility.yul\":5602:5608   */\n      dup1\n        /* \"#utility.yul\":5651:5653   */\n      0x40\n        /* \"#utility.yul\":5639:5648   */\n      dup4\n        /* \"#utility.yul\":5630:5637   */\n      dup6\n        /* \"#utility.yul\":5626:5649   */\n      sub\n        /* \"#utility.yul\":5622:5654   */\n      slt\n        /* \"#utility.yul\":5619:5738   */\n      iszero\n      tag_515\n      jumpi\n        /* \"#utility.yul\":5657:5736   */\n      tag_516\n      tag_387\n      jump\t// in\n    tag_516:\n        /* \"#utility.yul\":5619:5738   */\n    tag_515:\n        /* \"#utility.yul\":5777:5778   */\n      0x00\n        /* \"#utility.yul\":5802:5855   */\n      tag_517\n        /* \"#utility.yul\":5847:5854   */\n      dup6\n        /* \"#utility.yul\":5838:5844   */\n      dup3\n        /* \"#utility.yul\":5827:5836   */\n      dup7\n        /* \"#utility.yul\":5823:5845   */\n      add\n        /* \"#utility.yul\":5802:5855   */\n      tag_394\n      jump\t// in\n    tag_517:\n        /* \"#utility.yul\":5792:5855   */\n      swap3\n      pop\n        /* \"#utility.yul\":5748:5865   */\n      pop\n        /* \"#utility.yul\":5904:5906   */\n      0x20\n        /* \"#utility.yul\":5930:5983   */\n      tag_518\n        /* \"#utility.yul\":5975:5982   */\n      dup6\n        /* \"#utility.yul\":5966:5972   */\n      dup3\n        /* \"#utility.yul\":5955:5964   */\n      dup7\n        /* \"#utility.yul\":5951:5973   */\n      add\n        /* \"#utility.yul\":5930:5983   */\n      tag_392\n      jump\t// in\n    tag_518:\n        /* \"#utility.yul\":5920:5983   */\n      swap2\n      pop\n        /* \"#utility.yul\":5875:5993   */\n      pop\n        /* \"#utility.yul\":5526:6000   */\n      swap3\n      pop\n      swap3\n      swap1\n      pop\n      jump\t// out\n        /* \"#utility.yul\":6006:6480   */\n    tag_87:\n        /* \"#utility.yul\":6074:6080   */\n      0x00\n        /* \"#utility.yul\":6082:6088   */\n      dup1\n        /* \"#utility.yul\":6131:6133   */\n      0x40\n        /* \"#utility.yul\":6119:6128   */\n      dup4\n        /* \"#utility.yul\":6110:6117   */\n      dup6\n        /* \"#utility.yul\":6106:6129   */\n      sub\n        /* \"#utility.yul\":6102:6134   */\n      slt\n        /* \"#utility.yul\":6099:6218   */\n      iszero\n      tag_520\n      jumpi\n        /* \"#utility.yul\":6137:6216   */\n      tag_521\n      tag_387\n      jump\t// in\n    tag_521:\n        /* \"#utility.yul\":6099:6218   */\n    tag_520:\n        /* \"#utility.yul\":6257:6258   */\n      0x00\n        /* \"#utility.yul\":6282:6335   */\n      tag_522\n        /* \"#utility.yul\":6327:6334   */\n      dup6\n        /* \"#utility.yul\":6318:6324   */\n      dup3\n        /* \"#utility.yul\":6307:6316   */\n      dup7\n        /* \"#utility.yul\":6303:6325   */\n      add\n        /* \"#utility.yul\":6282:6335   */\n      tag_394\n      jump\t// in\n    tag_522:\n        /* \"#utility.yul\":6272:6335   */\n      swap3\n      pop\n        /* \"#utility.yul\":6228:6345   */\n      pop\n        /* \"#utility.yul\":6384:6386   */\n      0x20\n        /* \"#utility.yul\":6410:6463   */\n      tag_523\n        /* \"#utility.yul\":6455:6462   */\n      dup6\n        /* \"#utility.yul\":6446:6452   */\n      dup3\n        /* \"#utility.yul\":6435:6444   */\n      dup7\n        /* \"#utility.yul\":6431:6453   */\n      add\n        /* \"#utility.yul\":6410:6463   */\n      tag_394\n      jump\t// in\n    tag_523:\n        /* \"#utility.yul\":6400:6463   */\n      swap2\n      pop\n        /* \"#utility.yul\":6355:6473   */\n      pop\n        /* \"#utility.yul\":6006:6480   */\n      swap3\n      pop\n      swap3\n      swap1\n      pop\n      jump\t// out\n        /* \"#utility.yul\":6486:6815   */\n    tag_92:\n        /* \"#utility.yul\":6545:6551   */\n      0x00\n        /* \"#utility.yul\":6594:6596   */\n      0x20\n        /* \"#utility.yul\":6582:6591   */\n      dup3\n        /* \"#utility.yul\":6573:6580   */\n      dup5\n        /* \"#utility.yul\":6569:6592   */\n      sub\n        /* \"#utility.yul\":6565:6597   */\n      slt\n        /* \"#utility.yul\":6562:6681   */\n      iszero\n      tag_525\n      jumpi\n        /* \"#utility.yul\":6600:6679   */\n      tag_526\n      tag_387\n      jump\t// in\n    tag_526:\n        /* \"#utility.yul\":6562:6681   */\n    tag_525:\n        /* \"#utility.yul\":6720:6721   */\n      0x00\n        /* \"#utility.yul\":6745:6798   */\n      tag_527\n        /* \"#utility.yul\":6790:6797   */\n      dup5\n        /* \"#utility.yul\":6781:6787   */\n      dup3\n        /* \"#utility.yul\":6770:6779   */\n      dup6\n        /* \"#utility.yul\":6766:6788   */\n      add\n        /* \"#utility.yul\":6745:6798   */\n      tag_392\n      jump\t// in\n    tag_527:\n        /* \"#utility.yul\":6735:6798   */\n      swap2\n      pop\n        /* \"#utility.yul\":6691:6808   */\n      pop\n        /* \"#utility.yul\":6486:6815   */\n      swap3\n      swap2\n      pop\n      pop\n      jump\t// out\n        /* \"#utility.yul\":6821:6939   */\n    tag_399:\n        /* \"#utility.yul\":6908:6932   */\n      tag_529\n        /* \"#utility.yul\":6926:6931   */\n      dup2\n        /* \"#utility.yul\":6908:6932   */\n      tag_390\n      jump\t// in\n    tag_529:\n        /* \"#utility.yul\":6903:6906   */\n      dup3\n        /* \"#utility.yul\":6896:6933   */\n      mstore\n        /* \"#utility.yul\":6821:6939   */\n      pop\n      pop\n      jump\t// out\n        /* \"#utility.yul\":6945:7167   */\n    tag_103:\n        /* \"#utility.yul\":7038:7042   */\n      0x00\n        /* \"#utility.yul\":7076:7078   */\n      0x20\n        /* \"#utility.yul\":7065:7074   */\n      dup3\n        /* \"#utility.yul\":7061:7079   */\n      add\n        /* \"#utility.yul\":7053:7079   */\n      swap1\n      pop\n        /* \"#utility.yul\":7089:7160   */\n      tag_531\n        /* \"#utility.yul\":7157:7158   */\n      0x00\n        /* \"#utility.yul\":7146:7155   */\n      dup4\n        /* \"#utility.yul\":7142:7159   */\n      add\n        /* \"#utility.yul\":7133:7139   */\n      dup5\n        /* \"#utility.yul\":7089:7160   */\n      tag_399\n      jump\t// in\n    tag_531:\n        /* \"#utility.yul\":6945:7167   */\n      swap3\n      swap2\n      pop\n      pop\n      jump\t// out\n        /* \"#utility.yul\":7173:7647   */\n    tag_126:\n        /* \"#utility.yul\":7241:7247   */\n      0x00\n        /* \"#utility.yul\":7249:7255   */\n      dup1\n        /* \"#utility.yul\":7298:7300   */\n      0x40\n        /* \"#utility.yul\":7286:7295   */\n      dup4\n        /* \"#utility.yul\":7277:7284   */\n      dup6\n        /* \"#utility.yul\":7273:7296   */\n      sub\n        /* \"#utility.yul\":7269:7301   */\n      slt\n        /* \"#utility.yul\":7266:7385   */\n      iszero\n      tag_533\n      jumpi\n        /* \"#utility.yul\":7304:7383   */\n      tag_534\n      tag_387\n      jump\t// in\n    tag_534:\n        /* \"#utility.yul\":7266:7385   */\n    tag_533:\n        /* \"#utility.yul\":7424:7425   */\n      0x00\n        /* \"#utility.yul\":7449:7502   */\n      tag_535\n        /* \"#utility.yul\":7494:7501   */\n      dup6\n        /* \"#utility.yul\":7485:7491   */\n      dup3\n        /* \"#utility.yul\":7474:7483   */\n      dup7\n        /* \"#utility.yul\":7470:7492   */\n      add\n        /* \"#utility.yul\":7449:7502   */\n      tag_392\n      jump\t// in\n    tag_535:\n        /* \"#utility.yul\":7439:7502   */\n      swap3\n      pop\n        /* \"#utility.yul\":7395:7512   */\n      pop\n        /* \"#utility.yul\":7551:7553   */\n      0x20\n        /* \"#utility.yul\":7577:7630   */\n      tag_536\n        /* \"#utility.yul\":7622:7629   */\n      dup6\n        /* \"#utility.yul\":7613:7619   */\n      dup3\n        /* \"#utility.yul\":7602:7611   */\n      dup7\n        /* \"#utility.yul\":7598:7620   */\n      add\n        /* \"#utility.yul\":7577:7630   */\n      tag_392\n      jump\t// in\n    tag_536:\n        /* \"#utility.yul\":7567:7630   */\n      swap2\n      pop\n        /* \"#utility.yul\":7522:7640   */\n      pop\n        /* \"#utility.yul\":7173:7647   */\n      swap3\n      pop\n      swap3\n      swap1\n      pop\n      jump\t// out\n        /* \"#utility.yul\":7653:8272   */\n    tag_132:\n        /* \"#utility.yul\":7730:7736   */\n      0x00\n        /* \"#utility.yul\":7738:7744   */\n      dup1\n        /* \"#utility.yul\":7746:7752   */\n      0x00\n        /* \"#utility.yul\":7795:7797   */\n      0x60\n        /* \"#utility.yul\":7783:7792   */\n      dup5\n        /* \"#utility.yul\":7774:7781   */\n      dup7\n        /* \"#utility.yul\":7770:7793   */\n      sub\n        /* \"#utility.yul\":7766:7798   */\n      slt\n        /* \"#utility.yul\":7763:7882   */\n      iszero\n      tag_538\n      jumpi\n        /* \"#utility.yul\":7801:7880   */\n      tag_539\n      tag_387\n      jump\t// in\n    tag_539:\n        /* \"#utility.yul\":7763:7882   */\n    tag_538:\n        /* \"#utility.yul\":7921:7922   */\n      0x00\n        /* \"#utility.yul\":7946:7999   */\n      tag_540\n        /* \"#utility.yul\":7991:7998   */\n      dup7\n        /* \"#utility.yul\":7982:7988   */\n      dup3\n        /* \"#utility.yul\":7971:7980   */\n      dup8\n        /* \"#utility.yul\":7967:7989   */\n      add\n        /* \"#utility.yul\":7946:7999   */\n      tag_394\n      jump\t// in\n    tag_540:\n        /* \"#utility.yul\":7936:7999   */\n      swap4\n      pop\n        /* \"#utility.yul\":7892:8009   */\n      pop\n        /* \"#utility.yul\":8048:8050   */\n      0x20\n        /* \"#utility.yul\":8074:8127   */\n      tag_541\n        /* \"#utility.yul\":8119:8126   */\n      dup7\n        /* \"#utility.yul\":8110:8116   */\n      dup3\n        /* \"#utility.yul\":8099:8108   */\n      dup8\n        /* \"#utility.yul\":8095:8117   */\n      add\n        /* \"#utility.yul\":8074:8127   */\n      tag_394\n      jump\t// in\n    tag_541:\n        /* \"#utility.yul\":8064:8127   */\n      swap3\n      pop\n        /* \"#utility.yul\":8019:8137   */\n      pop\n        /* \"#utility.yul\":8176:8178   */\n      0x40\n        /* \"#utility.yul\":8202:8255   */\n      tag_542\n        /* \"#utility.yul\":8247:8254   */\n      dup7\n        /* \"#utility.yul\":8238:8244   */\n      dup3\n        /* \"#utility.yul\":8227:8236   */\n      dup8\n        /* \"#utility.yul\":8223:8245   */\n      add\n        /* \"#utility.yul\":8202:8255   */\n      tag_392\n      jump\t// in\n    tag_542:\n        /* \"#utility.yul\":8192:8255   */\n      swap2\n      pop\n        /* \"#utility.yul\":8147:8265   */\n      pop\n        /* \"#utility.yul\":7653:8272   */\n      swap3\n      pop\n      swap3\n      pop\n      swap3\n      jump\t// out\n        /* \"#utility.yul\":8278:8458   */\n    tag_400:\n        /* \"#utility.yul\":8326:8403   */\n      0x4e487b7100000000000000000000000000000000000000000000000000000000\n        /* \"#utility.yul\":8323:8324   */\n      0x00\n        /* \"#utility.yul\":8316:8404   */\n      mstore\n        /* \"#utility.yul\":8423:8427   */\n      0x22\n        /* \"#utility.yul\":8420:8421   */\n      0x04\n        /* \"#utility.yul\":8413:8428   */\n      mstore\n        /* \"#utility.yul\":8447:8451   */\n      0x24\n        /* \"#utility.yul\":8444:8445   */\n      0x00\n        /* \"#utility.yul\":8437:8452   */\n      revert\n        /* \"#utility.yul\":8464:8784   */\n    tag_139:\n        /* \"#utility.yul\":8508:8514   */\n      0x00\n        /* \"#utility.yul\":8545:8546   */\n      0x02\n        /* \"#utility.yul\":8539:8543   */\n      dup3\n        /* \"#utility.yul\":8535:8547   */\n      div\n        /* \"#utility.yul\":8525:8547   */\n      swap1\n      pop\n        /* \"#utility.yul\":8592:8593   */\n      0x01\n        /* \"#utility.yul\":8586:8590   */\n      dup3\n        /* \"#utility.yul\":8582:8594   */\n      and\n        /* \"#utility.yul\":8613:8631   */\n      dup1\n        /* \"#utility.yul\":8603:8684   */\n      tag_545\n      jumpi\n        /* \"#utility.yul\":8669:8673   */\n      0x7f\n        /* \"#utility.yul\":8661:8667   */\n      dup3\n        /* \"#utility.yul\":8657:8674   */\n      and\n        /* \"#utility.yul\":8647:8674   */\n      swap2\n      pop\n        /* \"#utility.yul\":8603:8684   */\n    tag_545:\n        /* \"#utility.yul\":8731:8733   */\n      0x20\n        /* \"#utility.yul\":8723:8729   */\n      dup3\n        /* \"#utility.yul\":8720:8734   */\n      lt\n        /* \"#utility.yul\":8700:8718   */\n      dup2\n        /* \"#utility.yul\":8697:8735   */\n      sub\n        /* \"#utility.yul\":8694:8778   */\n      tag_546\n      jumpi\n        /* \"#utility.yul\":8750:8768   */\n      tag_547\n      tag_400\n      jump\t// in\n    tag_547:\n        /* \"#utility.yul\":8694:8778   */\n    tag_546:\n        /* \"#utility.yul\":8515:8784   */\n      pop\n        /* \"#utility.yul\":8464:8784   */\n      swap2\n      swap1\n      pop\n      jump\t// out\n        /* \"#utility.yul\":8790:8933   */\n    tag_401:\n        /* \"#utility.yul\":8847:8852   */\n      0x00\n        /* \"#utility.yul\":8878:8884   */\n      dup2\n        /* \"#utility.yul\":8872:8885   */\n      mload\n        /* \"#utility.yul\":8863:8885   */\n      swap1\n      pop\n        /* \"#utility.yul\":8894:8927   */\n      tag_549\n        /* \"#utility.yul\":8921:8926   */\n      dup2\n        /* \"#utility.yul\":8894:8927   */\n      tag_393\n      jump\t// in\n    tag_549:\n        /* \"#utility.yul\":8790:8933   */\n      swap3\n      swap2\n      pop\n      pop\n      jump\t// out\n        /* \"#utility.yul\":8939:9290   */\n    tag_149:\n        /* \"#utility.yul\":9009:9015   */\n      0x00\n        /* \"#utility.yul\":9058:9060   */\n      0x20\n        /* \"#utility.yul\":9046:9055   */\n      dup3\n        /* \"#utility.yul\":9037:9044   */\n      dup5\n        /* \"#utility.yul\":9033:9056   */\n      sub\n        /* \"#utility.yul\":9029:9061   */\n      slt\n        /* \"#utility.yul\":9026:9145   */\n      iszero\n      tag_551\n      jumpi\n        /* \"#utility.yul\":9064:9143   */\n      tag_552\n      tag_387\n      jump\t// in\n    tag_552:\n        /* \"#utility.yul\":9026:9145   */\n    tag_551:\n        /* \"#utility.yul\":9184:9185   */\n      0x00\n        /* \"#utility.yul\":9209:9273   */\n      tag_553\n        /* \"#utility.yul\":9265:9272   */\n      dup5\n        /* \"#utility.yul\":9256:9262   */\n      dup3\n        /* \"#utility.yul\":9245:9254   */\n      dup6\n        /* \"#utility.yul\":9241:9263   */\n      add\n        /* \"#utility.yul\":9209:9273   */\n      tag_401\n      jump\t// in\n    tag_553:\n        /* \"#utility.yul\":9199:9273   */\n      swap2\n      pop\n        /* \"#utility.yul\":9155:9283   */\n      pop\n        /* \"#utility.yul\":8939:9290   */\n      swap3\n      swap2\n      pop\n      pop\n      jump\t// out\n        /* \"#utility.yul\":9296:9471   */\n    tag_402:\n        /* \"#utility.yul\":9436:9463   */\n      0x45544820616d6f756e742063616e6e6f74206265207a65726f00000000000000\n        /* \"#utility.yul\":9432:9433   */\n      0x00\n        /* \"#utility.yul\":9424:9430   */\n      dup3\n        /* \"#utility.yul\":9420:9434   */\n      add\n        /* \"#utility.yul\":9413:9464   */\n      mstore\n        /* \"#utility.yul\":9296:9471   */\n      pop\n      jump\t// out\n        /* \"#utility.yul\":9477:9843   */\n    tag_403:\n        /* \"#utility.yul\":9619:9622   */\n      0x00\n        /* \"#utility.yul\":9640:9707   */\n      tag_556\n        /* \"#utility.yul\":9704:9706   */\n      0x19\n        /* \"#utility.yul\":9699:9702   */\n      dup4\n        /* \"#utility.yul\":9640:9707   */\n      tag_380\n      jump\t// in\n    tag_556:\n        /* \"#utility.yul\":9633:9707   */\n      swap2\n      pop\n        /* \"#utility.yul\":9716:9809   */\n      tag_557\n        /* \"#utility.yul\":9805:9808   */\n      dup3\n        /* \"#utility.yul\":9716:9809   */\n      tag_402\n      jump\t// in\n    tag_557:\n        /* \"#utility.yul\":9834:9836   */\n      0x20\n        /* \"#utility.yul\":9829:9832   */\n      dup3\n        /* \"#utility.yul\":9825:9837   */\n      add\n        /* \"#utility.yul\":9818:9837   */\n      swap1\n      pop\n        /* \"#utility.yul\":9477:9843   */\n      swap2\n      swap1\n      pop\n      jump\t// out\n        /* \"#utility.yul\":9849:10268   */\n    tag_158:\n        /* \"#utility.yul\":10015:10019   */\n      0x00\n        /* \"#utility.yul\":10053:10055   */\n      0x20\n        /* \"#utility.yul\":10042:10051   */\n      dup3\n        /* \"#utility.yul\":10038:10056   */\n      add\n        /* \"#utility.yul\":10030:10056   */\n      swap1\n      pop\n        /* \"#utility.yul\":10102:10111   */\n      dup2\n        /* \"#utility.yul\":10096:10100   */\n      dup2\n        /* \"#utility.yul\":10092:10112   */\n      sub\n        /* \"#utility.yul\":10088:10089   */\n      0x00\n        /* \"#utility.yul\":10077:10086   */\n      dup4\n        /* \"#utility.yul\":10073:10090   */\n      add\n        /* \"#utility.yul\":10066:10113   */\n      mstore\n        /* \"#utility.yul\":10130:10261   */\n      tag_559\n        /* \"#utility.yul\":10256:10260   */\n      dup2\n        /* \"#utility.yul\":10130:10261   */\n      tag_403\n      jump\t// in\n    tag_559:\n        /* \"#utility.yul\":10122:10261   */\n      swap1\n      pop\n        /* \"#utility.yul\":9849:10268   */\n      swap2\n      swap1\n      pop\n      jump\t// out\n        /* \"#utility.yul\":10274:10454   */\n    tag_404:\n        /* \"#utility.yul\":10322:10399   */\n      0x4e487b7100000000000000000000000000000000000000000000000000000000\n        /* \"#utility.yul\":10319:10320   */\n      0x00\n        /* \"#utility.yul\":10312:10400   */\n      mstore\n        /* \"#utility.yul\":10419:10423   */\n      0x11\n        /* \"#utility.yul\":10416:10417   */\n      0x04\n        /* \"#utility.yul\":10409:10424   */\n      mstore\n        /* \"#utility.yul\":10443:10447   */\n      0x24\n        /* \"#utility.yul\":10440:10441   */\n      0x00\n        /* \"#utility.yul\":10433:10448   */\n      revert\n        /* \"#utility.yul\":10460:10651   */\n    tag_183:\n        /* \"#utility.yul\":10500:10503   */\n      0x00\n        /* \"#utility.yul\":10519:10539   */\n      tag_562\n        /* \"#utility.yul\":10537:10538   */\n      dup3\n        /* \"#utility.yul\":10519:10539   */\n      tag_384\n      jump\t// in\n    tag_562:\n        /* \"#utility.yul\":10514:10539   */\n      swap2\n      pop\n        /* \"#utility.yul\":10553:10573   */\n      tag_563\n        /* \"#utility.yul\":10571:10572   */\n      dup4\n        /* \"#utility.yul\":10553:10573   */\n      tag_384\n      jump\t// in\n    tag_563:\n        /* \"#utility.yul\":10548:10573   */\n      swap3\n      pop\n        /* \"#utility.yul\":10596:10597   */\n      dup3\n        /* \"#utility.yul\":10593:10594   */\n      dup3\n        /* \"#utility.yul\":10589:10598   */\n      add\n        /* \"#utility.yul\":10582:10598   */\n      swap1\n      pop\n        /* \"#utility.yul\":10617:10620   */\n      dup1\n        /* \"#utility.yul\":10614:10615   */\n      dup3\n        /* \"#utility.yul\":10611:10621   */\n      gt\n        /* \"#utility.yul\":10608:10644   */\n      iszero\n      tag_564\n      jumpi\n        /* \"#utility.yul\":10624:10642   */\n      tag_565\n      tag_404\n      jump\t// in\n    tag_565:\n        /* \"#utility.yul\":10608:10644   */\n    tag_564:\n        /* \"#utility.yul\":10460:10651   */\n      swap3\n      swap2\n      pop\n      pop\n      jump\t// out\n        /* \"#utility.yul\":10657:11099   */\n    tag_188:\n        /* \"#utility.yul\":10806:10810   */\n      0x00\n        /* \"#utility.yul\":10844:10846   */\n      0x60\n        /* \"#utility.yul\":10833:10842   */\n      dup3\n        /* \"#utility.yul\":10829:10847   */\n      add\n        /* \"#utility.yul\":10821:10847   */\n      swap1\n      pop\n        /* \"#utility.yul\":10857:10928   */\n      tag_567\n        /* \"#utility.yul\":10925:10926   */\n      0x00\n        /* \"#utility.yul\":10914:10923   */\n      dup4\n        /* \"#utility.yul\":10910:10927   */\n      add\n        /* \"#utility.yul\":10901:10907   */\n      dup7\n        /* \"#utility.yul\":10857:10928   */\n      tag_399\n      jump\t// in\n    tag_567:\n        /* \"#utility.yul\":10938:11010   */\n      tag_568\n        /* \"#utility.yul\":11006:11008   */\n      0x20\n        /* \"#utility.yul\":10995:11004   */\n      dup4\n        /* \"#utility.yul\":10991:11009   */\n      add\n        /* \"#utility.yul\":10982:10988   */\n      dup6\n        /* \"#utility.yul\":10938:11010   */\n      tag_399\n      jump\t// in\n    tag_568:\n        /* \"#utility.yul\":11020:11092   */\n      tag_569\n        /* \"#utility.yul\":11088:11090   */\n      0x40\n        /* \"#utility.yul\":11077:11086   */\n      dup4\n        /* \"#utility.yul\":11073:11091   */\n      add\n        /* \"#utility.yul\":11064:11070   */\n      dup5\n        /* \"#utility.yul\":11020:11092   */\n      tag_385\n      jump\t// in\n    tag_569:\n        /* \"#utility.yul\":10657:11099   */\n      swap5\n      swap4\n      pop\n      pop\n      pop\n      pop\n      jump\t// out\n        /* \"#utility.yul\":11105:11221   */\n    tag_405:\n        /* \"#utility.yul\":11175:11196   */\n      tag_571\n        /* \"#utility.yul\":11190:11195   */\n      dup2\n        /* \"#utility.yul\":11175:11196   */\n      tag_395\n      jump\t// in\n    tag_571:\n        /* \"#utility.yul\":11168:11173   */\n      dup2\n        /* \"#utility.yul\":11165:11197   */\n      eq\n        /* \"#utility.yul\":11155:11215   */\n      tag_572\n      jumpi\n        /* \"#utility.yul\":11211:11212   */\n      0x00\n        /* \"#utility.yul\":11208:11209   */\n      dup1\n        /* \"#utility.yul\":11201:11213   */\n      revert\n        /* \"#utility.yul\":11155:11215   */\n    tag_572:\n        /* \"#utility.yul\":11105:11221   */\n      pop\n      jump\t// out\n        /* \"#utility.yul\":11227:11364   */\n    tag_406:\n        /* \"#utility.yul\":11281:11286   */\n      0x00\n        /* \"#utility.yul\":11312:11318   */\n      dup2\n        /* \"#utility.yul\":11306:11319   */\n      mload\n        /* \"#utility.yul\":11297:11319   */\n      swap1\n      pop\n        /* \"#utility.yul\":11328:11358   */\n      tag_574\n        /* \"#utility.yul\":11352:11357   */\n      dup2\n        /* \"#utility.yul\":11328:11358   */\n      tag_405\n      jump\t// in\n    tag_574:\n        /* \"#utility.yul\":11227:11364   */\n      swap3\n      swap2\n      pop\n      pop\n      jump\t// out\n        /* \"#utility.yul\":11370:11715   */\n    tag_192:\n        /* \"#utility.yul\":11437:11443   */\n      0x00\n        /* \"#utility.yul\":11486:11488   */\n      0x20\n        /* \"#utility.yul\":11474:11483   */\n      dup3\n        /* \"#utility.yul\":11465:11472   */\n      dup5\n        /* \"#utility.yul\":11461:11484   */\n      sub\n        /* \"#utility.yul\":11457:11489   */\n      slt\n        /* \"#utility.yul\":11454:11573   */\n      iszero\n      tag_576\n      jumpi\n        /* \"#utility.yul\":11492:11571   */\n      tag_577\n      tag_387\n      jump\t// in\n    tag_577:\n        /* \"#utility.yul\":11454:11573   */\n    tag_576:\n        /* \"#utility.yul\":11612:11613   */\n      0x00\n        /* \"#utility.yul\":11637:11698   */\n      tag_578\n        /* \"#utility.yul\":11690:11697   */\n      dup5\n        /* \"#utility.yul\":11681:11687   */\n      dup3\n        /* \"#utility.yul\":11670:11679   */\n      dup6\n        /* \"#utility.yul\":11666:11688   */\n      add\n        /* \"#utility.yul\":11637:11698   */\n      tag_406\n      jump\t// in\n    tag_578:\n        /* \"#utility.yul\":11627:11698   */\n      swap2\n      pop\n        /* \"#utility.yul\":11583:11708   */\n      pop\n        /* \"#utility.yul\":11370:11715   */\n      swap3\n      swap2\n      pop\n      pop\n      jump\t// out\n        /* \"#utility.yul\":11721:11915   */\n    tag_195:\n        /* \"#utility.yul\":11761:11765   */\n      0x00\n        /* \"#utility.yul\":11781:11801   */\n      tag_580\n        /* \"#utility.yul\":11799:11800   */\n      dup3\n        /* \"#utility.yul\":11781:11801   */\n      tag_384\n      jump\t// in\n    tag_580:\n        /* \"#utility.yul\":11776:11801   */\n      swap2\n      pop\n        /* \"#utility.yul\":11815:11835   */\n      tag_581\n        /* \"#utility.yul\":11833:11834   */\n      dup4\n        /* \"#utility.yul\":11815:11835   */\n      tag_384\n      jump\t// in\n    tag_581:\n        /* \"#utility.yul\":11810:11835   */\n      swap3\n      pop\n        /* \"#utility.yul\":11859:11860   */\n      dup3\n        /* \"#utility.yul\":11856:11857   */\n      dup3\n        /* \"#utility.yul\":11852:11861   */\n      sub\n        /* \"#utility.yul\":11844:11861   */\n      swap1\n      pop\n        /* \"#utility.yul\":11883:11884   */\n      dup2\n        /* \"#utility.yul\":11877:11881   */\n      dup2\n        /* \"#utility.yul\":11874:11885   */\n      gt\n        /* \"#utility.yul\":11871:11908   */\n      iszero\n      tag_582\n      jumpi\n        /* \"#utility.yul\":11888:11906   */\n      tag_583\n      tag_404\n      jump\t// in\n    tag_583:\n        /* \"#utility.yul\":11871:11908   */\n    tag_582:\n        /* \"#utility.yul\":11721:11915   */\n      swap3\n      swap2\n      pop\n      pop\n      jump\t// out\n        /* \"#utility.yul\":11921:12331   */\n    tag_197:\n        /* \"#utility.yul\":11961:11968   */\n      0x00\n        /* \"#utility.yul\":11984:12004   */\n      tag_585\n        /* \"#utility.yul\":12002:12003   */\n      dup3\n        /* \"#utility.yul\":11984:12004   */\n      tag_384\n      jump\t// in\n    tag_585:\n        /* \"#utility.yul\":11979:12004   */\n      swap2\n      pop\n        /* \"#utility.yul\":12018:12038   */\n      tag_586\n        /* \"#utility.yul\":12036:12037   */\n      dup4\n        /* \"#utility.yul\":12018:12038   */\n      tag_384\n      jump\t// in\n    tag_586:\n        /* \"#utility.yul\":12013:12038   */\n      swap3\n      pop\n        /* \"#utility.yul\":12073:12074   */\n      dup3\n        /* \"#utility.yul\":12070:12071   */\n      dup3\n        /* \"#utility.yul\":12066:12075   */\n      mul\n        /* \"#utility.yul\":12095:12125   */\n      tag_587\n        /* \"#utility.yul\":12113:12124   */\n      dup2\n        /* \"#utility.yul\":12095:12125   */\n      tag_384\n      jump\t// in\n    tag_587:\n        /* \"#utility.yul\":12084:12125   */\n      swap2\n      pop\n        /* \"#utility.yul\":12274:12275   */\n      dup3\n        /* \"#utility.yul\":12265:12272   */\n      dup3\n        /* \"#utility.yul\":12261:12276   */\n      div\n        /* \"#utility.yul\":12258:12259   */\n      dup5\n        /* \"#utility.yul\":12255:12277   */\n      eq\n        /* \"#utility.yul\":12235:12236   */\n      dup4\n        /* \"#utility.yul\":12228:12237   */\n      iszero\n        /* \"#utility.yul\":12208:12291   */\n      or\n        /* \"#utility.yul\":12185:12324   */\n      tag_588\n      jumpi\n        /* \"#utility.yul\":12304:12322   */\n      tag_589\n      tag_404\n      jump\t// in\n    tag_589:\n        /* \"#utility.yul\":12185:12324   */\n    tag_588:\n        /* \"#utility.yul\":11969:12331   */\n      pop\n        /* \"#utility.yul\":11921:12331   */\n      swap3\n      swap2\n      pop\n      pop\n      jump\t// out\n        /* \"#utility.yul\":12337:12517   */\n    tag_407:\n        /* \"#utility.yul\":12385:12462   */\n      0x4e487b7100000000000000000000000000000000000000000000000000000000\n        /* \"#utility.yul\":12382:12383   */\n      0x00\n        /* \"#utility.yul\":12375:12463   */\n      mstore\n        /* \"#utility.yul\":12482:12486   */\n      0x12\n        /* \"#utility.yul\":12479:12480   */\n      0x04\n        /* \"#utility.yul\":12472:12487   */\n      mstore\n        /* \"#utility.yul\":12506:12510   */\n      0x24\n        /* \"#utility.yul\":12503:12504   */\n      0x00\n        /* \"#utility.yul\":12496:12511   */\n      revert\n        /* \"#utility.yul\":12523:12708   */\n    tag_199:\n        /* \"#utility.yul\":12563:12564   */\n      0x00\n        /* \"#utility.yul\":12580:12600   */\n      tag_592\n        /* \"#utility.yul\":12598:12599   */\n      dup3\n        /* \"#utility.yul\":12580:12600   */\n      tag_384\n      jump\t// in\n    tag_592:\n        /* \"#utility.yul\":12575:12600   */\n      swap2\n      pop\n        /* \"#utility.yul\":12614:12634   */\n      tag_593\n        /* \"#utility.yul\":12632:12633   */\n      dup4\n        /* \"#utility.yul\":12614:12634   */\n      tag_384\n      jump\t// in\n    tag_593:\n        /* \"#utility.yul\":12609:12634   */\n      swap3\n      pop\n        /* \"#utility.yul\":12653:12654   */\n      dup3\n        /* \"#utility.yul\":12643:12678   */\n      tag_594\n      jumpi\n        /* \"#utility.yul\":12658:12676   */\n      tag_595\n      tag_407\n      jump\t// in\n    tag_595:\n        /* \"#utility.yul\":12643:12678   */\n    tag_594:\n        /* \"#utility.yul\":12700:12701   */\n      dup3\n        /* \"#utility.yul\":12697:12698   */\n      dup3\n        /* \"#utility.yul\":12693:12702   */\n      div\n        /* \"#utility.yul\":12688:12702   */\n      swap1\n      pop\n        /* \"#utility.yul\":12523:12708   */\n      swap3\n      swap2\n      pop\n      pop\n      jump\t// out\n        /* \"#utility.yul\":12714:12942   */\n    tag_408:\n        /* \"#utility.yul\":12854:12888   */\n      0x496e73756666696369656e7420696e70757420616d6f756e74206f6620455243\n        /* \"#utility.yul\":12850:12851   */\n      0x00\n        /* \"#utility.yul\":12842:12848   */\n      dup3\n        /* \"#utility.yul\":12838:12852   */\n      add\n        /* \"#utility.yul\":12831:12889   */\n      mstore\n        /* \"#utility.yul\":12923:12934   */\n      0x323020546f6b656e730000000000000000000000000000000000000000000000\n        /* \"#utility.yul\":12918:12920   */\n      0x20\n        /* \"#utility.yul\":12910:12916   */\n      dup3\n        /* \"#utility.yul\":12906:12921   */\n      add\n        /* \"#utility.yul\":12899:12935   */\n      mstore\n        /* \"#utility.yul\":12714:12942   */\n      pop\n      jump\t// out\n        /* \"#utility.yul\":12948:13314   */\n    tag_409:\n        /* \"#utility.yul\":13090:13093   */\n      0x00\n        /* \"#utility.yul\":13111:13178   */\n      tag_598\n        /* \"#utility.yul\":13175:13177   */\n      0x29\n        /* \"#utility.yul\":13170:13173   */\n      dup4\n        /* \"#utility.yul\":13111:13178   */\n      tag_380\n      jump\t// in\n    tag_598:\n        /* \"#utility.yul\":13104:13178   */\n      swap2\n      pop\n        /* \"#utility.yul\":13187:13280   */\n      tag_599\n        /* \"#utility.yul\":13276:13279   */\n      dup3\n        /* \"#utility.yul\":13187:13280   */\n      tag_408\n      jump\t// in\n    tag_599:\n        /* \"#utility.yul\":13305:13307   */\n      0x40\n        /* \"#utility.yul\":13300:13303   */\n      dup3\n        /* \"#utility.yul\":13296:13308   */\n      add\n        /* \"#utility.yul\":13289:13308   */\n      swap1\n      pop\n        /* \"#utility.yul\":12948:13314   */\n      swap2\n      swap1\n      pop\n      jump\t// out\n        /* \"#utility.yul\":13320:13739   */\n    tag_202:\n        /* \"#utility.yul\":13486:13490   */\n      0x00\n        /* \"#utility.yul\":13524:13526   */\n      0x20\n        /* \"#utility.yul\":13513:13522   */\n      dup3\n        /* \"#utility.yul\":13509:13527   */\n      add\n        /* \"#utility.yul\":13501:13527   */\n      swap1\n      pop\n        /* \"#utility.yul\":13573:13582   */\n      dup2\n        /* \"#utility.yul\":13567:13571   */\n      dup2\n        /* \"#utility.yul\":13563:13583   */\n      sub\n        /* \"#utility.yul\":13559:13560   */\n      0x00\n        /* \"#utility.yul\":13548:13557   */\n      dup4\n        /* \"#utility.yul\":13544:13561   */\n      add\n        /* \"#utility.yul\":13537:13584   */\n      mstore\n        /* \"#utility.yul\":13601:13732   */\n      tag_601\n        /* \"#utility.yul\":13727:13731   */\n      dup2\n        /* \"#utility.yul\":13601:13732   */\n      tag_409\n      jump\t// in\n    tag_601:\n        /* \"#utility.yul\":13593:13732   */\n      swap1\n      pop\n        /* \"#utility.yul\":13320:13739   */\n      swap2\n      swap1\n      pop\n      jump\t// out\n        /* \"#utility.yul\":13745:14036   */\n    tag_410:\n        /* \"#utility.yul\":13885:13919   */\n      0x416d6f756e74207377617070656420646f6573206e6f74206d65657420796f75\n        /* \"#utility.yul\":13881:13882   */\n      0x00\n        /* \"#utility.yul\":13873:13879   */\n      dup3\n        /* \"#utility.yul\":13869:13883   */\n      add\n        /* \"#utility.yul\":13862:13920   */\n      mstore\n        /* \"#utility.yul\":13954:13988   */\n      0x722073746970756c6174656420616d6f756e742c20726576657274696e672073\n        /* \"#utility.yul\":13949:13951   */\n      0x20\n        /* \"#utility.yul\":13941:13947   */\n      dup3\n        /* \"#utility.yul\":13937:13952   */\n      add\n        /* \"#utility.yul\":13930:13989   */\n      mstore\n        /* \"#utility.yul\":14023:14028   */\n      0x7761700000000000000000000000000000000000000000000000000000000000\n        /* \"#utility.yul\":14018:14020   */\n      0x40\n        /* \"#utility.yul\":14010:14016   */\n      dup3\n        /* \"#utility.yul\":14006:14021   */\n      add\n        /* \"#utility.yul\":13999:14029   */\n      mstore\n        /* \"#utility.yul\":13745:14036   */\n      pop\n      jump\t// out\n        /* \"#utility.yul\":14042:14408   */\n    tag_411:\n        /* \"#utility.yul\":14184:14187   */\n      0x00\n        /* \"#utility.yul\":14205:14272   */\n      tag_604\n        /* \"#utility.yul\":14269:14271   */\n      0x43\n        /* \"#utility.yul\":14264:14267   */\n      dup4\n        /* \"#utility.yul\":14205:14272   */\n      tag_380\n      jump\t// in\n    tag_604:\n        /* \"#utility.yul\":14198:14272   */\n      swap2\n      pop\n        /* \"#utility.yul\":14281:14374   */\n      tag_605\n        /* \"#utility.yul\":14370:14373   */\n      dup3\n        /* \"#utility.yul\":14281:14374   */\n      tag_410\n      jump\t// in\n    tag_605:\n        /* \"#utility.yul\":14399:14401   */\n      0x60\n        /* \"#utility.yul\":14394:14397   */\n      dup3\n        /* \"#utility.yul\":14390:14402   */\n      add\n        /* \"#utility.yul\":14383:14402   */\n      swap1\n      pop\n        /* \"#utility.yul\":14042:14408   */\n      swap2\n      swap1\n      pop\n      jump\t// out\n        /* \"#utility.yul\":14414:14833   */\n    tag_217:\n        /* \"#utility.yul\":14580:14584   */\n      0x00\n        /* \"#utility.yul\":14618:14620   */\n      0x20\n        /* \"#utility.yul\":14607:14616   */\n      dup3\n        /* \"#utility.yul\":14603:14621   */\n      add\n        /* \"#utility.yul\":14595:14621   */\n      swap1\n      pop\n        /* \"#utility.yul\":14667:14676   */\n      dup2\n        /* \"#utility.yul\":14661:14665   */\n      dup2\n        /* \"#utility.yul\":14657:14677   */\n      sub\n        /* \"#utility.yul\":14653:14654   */\n      0x00\n        /* \"#utility.yul\":14642:14651   */\n      dup4\n        /* \"#utility.yul\":14638:14655   */\n      add\n        /* \"#utility.yul\":14631:14678   */\n      mstore\n        /* \"#utility.yul\":14695:14826   */\n      tag_607\n        /* \"#utility.yul\":14821:14825   */\n      dup2\n        /* \"#utility.yul\":14695:14826   */\n      tag_411\n      jump\t// in\n    tag_607:\n        /* \"#utility.yul\":14687:14826   */\n      swap1\n      pop\n        /* \"#utility.yul\":14414:14833   */\n      swap2\n      swap1\n      pop\n      jump\t// out\n        /* \"#utility.yul\":14839:14986   */\n    tag_412:\n        /* \"#utility.yul\":14940:14951   */\n      0x00\n        /* \"#utility.yul\":14977:14980   */\n      dup2\n        /* \"#utility.yul\":14962:14980   */\n      swap1\n      pop\n        /* \"#utility.yul\":14839:14986   */\n      swap3\n      swap2\n      pop\n      pop\n      jump\t// out\n        /* \"#utility.yul\":14992:15106   */\n    tag_413:\n      pop\n      jump\t// out\n        /* \"#utility.yul\":15112:15510   */\n    tag_414:\n        /* \"#utility.yul\":15271:15274   */\n      0x00\n        /* \"#utility.yul\":15292:15375   */\n      tag_611\n        /* \"#utility.yul\":15373:15374   */\n      0x00\n        /* \"#utility.yul\":15368:15371   */\n      dup4\n        /* \"#utility.yul\":15292:15375   */\n      tag_412\n      jump\t// in\n    tag_611:\n        /* \"#utility.yul\":15285:15375   */\n      swap2\n      pop\n        /* \"#utility.yul\":15384:15477   */\n      tag_612\n        /* \"#utility.yul\":15473:15476   */\n      dup3\n        /* \"#utility.yul\":15384:15477   */\n      tag_413\n      jump\t// in\n    tag_612:\n        /* \"#utility.yul\":15502:15503   */\n      0x00\n        /* \"#utility.yul\":15497:15500   */\n      dup3\n        /* \"#utility.yul\":15493:15504   */\n      add\n        /* \"#utility.yul\":15486:15504   */\n      swap1\n      pop\n        /* \"#utility.yul\":15112:15510   */\n      swap2\n      swap1\n      pop\n      jump\t// out\n        /* \"#utility.yul\":15516:15895   */\n    tag_223:\n        /* \"#utility.yul\":15700:15703   */\n      0x00\n        /* \"#utility.yul\":15722:15869   */\n      tag_614\n        /* \"#utility.yul\":15865:15868   */\n      dup3\n        /* \"#utility.yul\":15722:15869   */\n      tag_414\n      jump\t// in\n    tag_614:\n        /* \"#utility.yul\":15715:15869   */\n      swap2\n      pop\n        /* \"#utility.yul\":15886:15889   */\n      dup2\n        /* \"#utility.yul\":15879:15889   */\n      swap1\n      pop\n        /* \"#utility.yul\":15516:15895   */\n      swap2\n      swap1\n      pop\n      jump\t// out\n        /* \"#utility.yul\":15901:16126   */\n    tag_415:\n        /* \"#utility.yul\":16041:16075   */\n      0x5472616e73616374696f6e206f662045544820746f20726563697069656e7420\n        /* \"#utility.yul\":16037:16038   */\n      0x00\n        /* \"#utility.yul\":16029:16035   */\n      dup3\n        /* \"#utility.yul\":16025:16039   */\n      add\n        /* \"#utility.yul\":16018:16076   */\n      mstore\n        /* \"#utility.yul\":16110:16118   */\n      0x6661696c65640000000000000000000000000000000000000000000000000000\n        /* \"#utility.yul\":16105:16107   */\n      0x20\n        /* \"#utility.yul\":16097:16103   */\n      dup3\n        /* \"#utility.yul\":16093:16108   */\n      add\n        /* \"#utility.yul\":16086:16119   */\n      mstore\n        /* \"#utility.yul\":15901:16126   */\n      pop\n      jump\t// out\n        /* \"#utility.yul\":16132:16498   */\n    tag_416:\n        /* \"#utility.yul\":16274:16277   */\n      0x00\n        /* \"#utility.yul\":16295:16362   */\n      tag_617\n        /* \"#utility.yul\":16359:16361   */\n      0x26\n        /* \"#utility.yul\":16354:16357   */\n      dup4\n        /* \"#utility.yul\":16295:16362   */\n      tag_380\n      jump\t// in\n    tag_617:\n        /* \"#utility.yul\":16288:16362   */\n      swap2\n      pop\n        /* \"#utility.yul\":16371:16464   */\n      tag_618\n        /* \"#utility.yul\":16460:16463   */\n      dup3\n        /* \"#utility.yul\":16371:16464   */\n      tag_415\n      jump\t// in\n    tag_618:\n        /* \"#utility.yul\":16489:16491   */\n      0x40\n        /* \"#utility.yul\":16484:16487   */\n      dup3\n        /* \"#utility.yul\":16480:16492   */\n      add\n        /* \"#utility.yul\":16473:16492   */\n      swap1\n      pop\n        /* \"#utility.yul\":16132:16498   */\n      swap2\n      swap1\n      pop\n      jump\t// out\n        /* \"#utility.yul\":16504:16923   */\n    tag_229:\n        /* \"#utility.yul\":16670:16674   */\n      0x00\n        /* \"#utility.yul\":16708:16710   */\n      0x20\n        /* \"#utility.yul\":16697:16706   */\n      dup3\n        /* \"#utility.yul\":16693:16711   */\n      add\n        /* \"#utility.yul\":16685:16711   */\n      swap1\n      pop\n        /* \"#utility.yul\":16757:16766   */\n      dup2\n        /* \"#utility.yul\":16751:16755   */\n      dup2\n        /* \"#utility.yul\":16747:16767   */\n      sub\n        /* \"#utility.yul\":16743:16744   */\n      0x00\n        /* \"#utility.yul\":16732:16741   */\n      dup4\n        /* \"#utility.yul\":16728:16745   */\n      add\n        /* \"#utility.yul\":16721:16768   */\n      mstore\n        /* \"#utility.yul\":16785:16916   */\n      tag_620\n        /* \"#utility.yul\":16911:16915   */\n      dup2\n        /* \"#utility.yul\":16785:16916   */\n      tag_416\n      jump\t// in\n    tag_620:\n        /* \"#utility.yul\":16777:16916   */\n      swap1\n      pop\n        /* \"#utility.yul\":16504:16923   */\n      swap2\n      swap1\n      pop\n      jump\t// out\n        /* \"#utility.yul\":16929:17171   */\n    tag_417:\n        /* \"#utility.yul\":17069:17103   */\n      0x506c6561736520696e70757420612076616c696420616d6f756e74206f66204c\n        /* \"#utility.yul\":17065:17066   */\n      0x00\n        /* \"#utility.yul\":17057:17063   */\n      dup3\n        /* \"#utility.yul\":17053:17067   */\n      add\n        /* \"#utility.yul\":17046:17104   */\n      mstore\n        /* \"#utility.yul\":17138:17163   */\n      0x5020546f6b656e7320746f206275726e2f72656465656d000000000000000000\n        /* \"#utility.yul\":17133:17135   */\n      0x20\n        /* \"#utility.yul\":17125:17131   */\n      dup3\n        /* \"#utility.yul\":17121:17136   */\n      add\n        /* \"#utility.yul\":17114:17164   */\n      mstore\n        /* \"#utility.yul\":16929:17171   */\n      pop\n      jump\t// out\n        /* \"#utility.yul\":17177:17543   */\n    tag_418:\n        /* \"#utility.yul\":17319:17322   */\n      0x00\n        /* \"#utility.yul\":17340:17407   */\n      tag_623\n        /* \"#utility.yul\":17404:17406   */\n      0x37\n        /* \"#utility.yul\":17399:17402   */\n      dup4\n        /* \"#utility.yul\":17340:17407   */\n      tag_380\n      jump\t// in\n    tag_623:\n        /* \"#utility.yul\":17333:17407   */\n      swap2\n      pop\n        /* \"#utility.yul\":17416:17509   */\n      tag_624\n        /* \"#utility.yul\":17505:17508   */\n      dup3\n        /* \"#utility.yul\":17416:17509   */\n      tag_417\n      jump\t// in\n    tag_624:\n        /* \"#utility.yul\":17534:17536   */\n      0x40\n        /* \"#utility.yul\":17529:17532   */\n      dup3\n        /* \"#utility.yul\":17525:17537   */\n      add\n        /* \"#utility.yul\":17518:17537   */\n      swap1\n      pop\n        /* \"#utility.yul\":17177:17543   */\n      swap2\n      swap1\n      pop\n      jump\t// out\n        /* \"#utility.yul\":17549:17968   */\n    tag_241:\n        /* \"#utility.yul\":17715:17719   */\n      0x00\n        /* \"#utility.yul\":17753:17755   */\n      0x20\n        /* \"#utility.yul\":17742:17751   */\n      dup3\n        /* \"#utility.yul\":17738:17756   */\n      add\n        /* \"#utility.yul\":17730:17756   */\n      swap1\n      pop\n        /* \"#utility.yul\":17802:17811   */\n      dup2\n        /* \"#utility.yul\":17796:17800   */\n      dup2\n        /* \"#utility.yul\":17792:17812   */\n      sub\n        /* \"#utility.yul\":17788:17789   */\n      0x00\n        /* \"#utility.yul\":17777:17786   */\n      dup4\n        /* \"#utility.yul\":17773:17790   */\n      add\n        /* \"#utility.yul\":17766:17813   */\n      mstore\n        /* \"#utility.yul\":17830:17961   */\n      tag_626\n        /* \"#utility.yul\":17956:17960   */\n      dup2\n        /* \"#utility.yul\":17830:17961   */\n      tag_418\n      jump\t// in\n    tag_626:\n        /* \"#utility.yul\":17822:17961   */\n      swap1\n      pop\n        /* \"#utility.yul\":17549:17968   */\n      swap2\n      swap1\n      pop\n      jump\t// out\n        /* \"#utility.yul\":17974:18198   */\n    tag_419:\n        /* \"#utility.yul\":18114:18148   */\n      0x5472616e73616374696f6e206f662045746865722077617320756e7375636365\n        /* \"#utility.yul\":18110:18111   */\n      0x00\n        /* \"#utility.yul\":18102:18108   */\n      dup3\n        /* \"#utility.yul\":18098:18112   */\n      add\n        /* \"#utility.yul\":18091:18149   */\n      mstore\n        /* \"#utility.yul\":18183:18190   */\n      0x737366756c000000000000000000000000000000000000000000000000000000\n        /* \"#utility.yul\":18178:18180   */\n      0x20\n        /* \"#utility.yul\":18170:18176   */\n      dup3\n        /* \"#utility.yul\":18166:18181   */\n      add\n        /* \"#utility.yul\":18159:18191   */\n      mstore\n        /* \"#utility.yul\":17974:18198   */\n      pop\n      jump\t// out\n        /* \"#utility.yul\":18204:18570   */\n    tag_420:\n        /* \"#utility.yul\":18346:18349   */\n      0x00\n        /* \"#utility.yul\":18367:18434   */\n      tag_629\n        /* \"#utility.yul\":18431:18433   */\n      0x25\n        /* \"#utility.yul\":18426:18429   */\n      dup4\n        /* \"#utility.yul\":18367:18434   */\n      tag_380\n      jump\t// in\n    tag_629:\n        /* \"#utility.yul\":18360:18434   */\n      swap2\n      pop\n        /* \"#utility.yul\":18443:18536   */\n      tag_630\n        /* \"#utility.yul\":18532:18535   */\n      dup3\n        /* \"#utility.yul\":18443:18536   */\n      tag_419\n      jump\t// in\n    tag_630:\n        /* \"#utility.yul\":18561:18563   */\n      0x40\n        /* \"#utility.yul\":18556:18559   */\n      dup3\n        /* \"#utility.yul\":18552:18564   */\n      add\n        /* \"#utility.yul\":18545:18564   */\n      swap1\n      pop\n        /* \"#utility.yul\":18204:18570   */\n      swap2\n      swap1\n      pop\n      jump\t// out\n        /* \"#utility.yul\":18576:18995   */\n    tag_257:\n        /* \"#utility.yul\":18742:18746   */\n      0x00\n        /* \"#utility.yul\":18780:18782   */\n      0x20\n        /* \"#utility.yul\":18769:18778   */\n      dup3\n        /* \"#utility.yul\":18765:18783   */\n      add\n        /* \"#utility.yul\":18757:18783   */\n      swap1\n      pop\n        /* \"#utility.yul\":18829:18838   */\n      dup2\n        /* \"#utility.yul\":18823:18827   */\n      dup2\n        /* \"#utility.yul\":18819:18839   */\n      sub\n        /* \"#utility.yul\":18815:18816   */\n      0x00\n        /* \"#utility.yul\":18804:18813   */\n      dup4\n        /* \"#utility.yul\":18800:18817   */\n      add\n        /* \"#utility.yul\":18793:18840   */\n      mstore\n        /* \"#utility.yul\":18857:18988   */\n      tag_632\n        /* \"#utility.yul\":18983:18987   */\n      dup2\n        /* \"#utility.yul\":18857:18988   */\n      tag_420\n      jump\t// in\n    tag_632:\n        /* \"#utility.yul\":18849:18988   */\n      swap1\n      pop\n        /* \"#utility.yul\":18576:18995   */\n      swap2\n      swap1\n      pop\n      jump\t// out\n        /* \"#utility.yul\":19001:19333   */\n    tag_259:\n        /* \"#utility.yul\":19122:19126   */\n      0x00\n        /* \"#utility.yul\":19160:19162   */\n      0x40\n        /* \"#utility.yul\":19149:19158   */\n      dup3\n        /* \"#utility.yul\":19145:19163   */\n      add\n        /* \"#utility.yul\":19137:19163   */\n      swap1\n      pop\n        /* \"#utility.yul\":19173:19244   */\n      tag_634\n        /* \"#utility.yul\":19241:19242   */\n      0x00\n        /* \"#utility.yul\":19230:19239   */\n      dup4\n        /* \"#utility.yul\":19226:19243   */\n      add\n        /* \"#utility.yul\":19217:19223   */\n      dup6\n        /* \"#utility.yul\":19173:19244   */\n      tag_399\n      jump\t// in\n    tag_634:\n        /* \"#utility.yul\":19254:19326   */\n      tag_635\n        /* \"#utility.yul\":19322:19324   */\n      0x20\n        /* \"#utility.yul\":19311:19320   */\n      dup4\n        /* \"#utility.yul\":19307:19325   */\n      add\n        /* \"#utility.yul\":19298:19304   */\n      dup5\n        /* \"#utility.yul\":19254:19326   */\n      tag_385\n      jump\t// in\n    tag_635:\n        /* \"#utility.yul\":19001:19333   */\n      swap4\n      swap3\n      pop\n      pop\n      pop\n      jump\t// out\n        /* \"#utility.yul\":19339:19563   */\n    tag_421:\n        /* \"#utility.yul\":19479:19513   */\n      0x45524332303a2064656372656173656420616c6c6f77616e63652062656c6f77\n        /* \"#utility.yul\":19475:19476   */\n      0x00\n        /* \"#utility.yul\":19467:19473   */\n      dup3\n        /* \"#utility.yul\":19463:19477   */\n      add\n        /* \"#utility.yul\":19456:19514   */\n      mstore\n        /* \"#utility.yul\":19548:19555   */\n      0x207a65726f000000000000000000000000000000000000000000000000000000\n        /* \"#utility.yul\":19543:19545   */\n      0x20\n        /* \"#utility.yul\":19535:19541   */\n      dup3\n        /* \"#utility.yul\":19531:19546   */\n      add\n        /* \"#utility.yul\":19524:19556   */\n      mstore\n        /* \"#utility.yul\":19339:19563   */\n      pop\n      jump\t// out\n        /* \"#utility.yul\":19569:19935   */\n    tag_422:\n        /* \"#utility.yul\":19711:19714   */\n      0x00\n        /* \"#utility.yul\":19732:19799   */\n      tag_638\n        /* \"#utility.yul\":19796:19798   */\n      0x25\n        /* \"#utility.yul\":19791:19794   */\n      dup4\n        /* \"#utility.yul\":19732:19799   */\n      tag_380\n      jump\t// in\n    tag_638:\n        /* \"#utility.yul\":19725:19799   */\n      swap2\n      pop\n        /* \"#utility.yul\":19808:19901   */\n      tag_639\n        /* \"#utility.yul\":19897:19900   */\n      dup3\n        /* \"#utility.yul\":19808:19901   */\n      tag_421\n      jump\t// in\n    tag_639:\n        /* \"#utility.yul\":19926:19928   */\n      0x40\n        /* \"#utility.yul\":19921:19924   */\n      dup3\n        /* \"#utility.yul\":19917:19929   */\n      add\n        /* \"#utility.yul\":19910:19929   */\n      swap1\n      pop\n        /* \"#utility.yul\":19569:19935   */\n      swap2\n      swap1\n      pop\n      jump\t// out\n        /* \"#utility.yul\":19941:20360   */\n    tag_268:\n        /* \"#utility.yul\":20107:20111   */\n      0x00\n        /* \"#utility.yul\":20145:20147   */\n      0x20\n        /* \"#utility.yul\":20134:20143   */\n      dup3\n        /* \"#utility.yul\":20130:20148   */\n      add\n        /* \"#utility.yul\":20122:20148   */\n      swap1\n      pop\n        /* \"#utility.yul\":20194:20203   */\n      dup2\n        /* \"#utility.yul\":20188:20192   */\n      dup2\n        /* \"#utility.yul\":20184:20204   */\n      sub\n        /* \"#utility.yul\":20180:20181   */\n      0x00\n        /* \"#utility.yul\":20169:20178   */\n      dup4\n        /* \"#utility.yul\":20165:20182   */\n      add\n        /* \"#utility.yul\":20158:20205   */\n      mstore\n        /* \"#utility.yul\":20222:20353   */\n      tag_641\n        /* \"#utility.yul\":20348:20352   */\n      dup2\n        /* \"#utility.yul\":20222:20353   */\n      tag_422\n      jump\t// in\n    tag_641:\n        /* \"#utility.yul\":20214:20353   */\n      swap1\n      pop\n        /* \"#utility.yul\":19941:20360   */\n      swap2\n      swap1\n      pop\n      jump\t// out\n        /* \"#utility.yul\":20366:20540   */\n    tag_423:\n        /* \"#utility.yul\":20506:20532   */\n      0x546f6b656e206164647265737320697320696e76616c69640000000000000000\n        /* \"#utility.yul\":20502:20503   */\n      0x00\n        /* \"#utility.yul\":20494:20500   */\n      dup3\n        /* \"#utility.yul\":20490:20504   */\n      add\n        /* \"#utility.yul\":20483:20533   */\n      mstore\n        /* \"#utility.yul\":20366:20540   */\n      pop\n      jump\t// out\n        /* \"#utility.yul\":20546:20912   */\n    tag_424:\n        /* \"#utility.yul\":20688:20691   */\n      0x00\n        /* \"#utility.yul\":20709:20776   */\n      tag_644\n        /* \"#utility.yul\":20773:20775   */\n      0x18\n        /* \"#utility.yul\":20768:20771   */\n      dup4\n        /* \"#utility.yul\":20709:20776   */\n      tag_380\n      jump\t// in\n    tag_644:\n        /* \"#utility.yul\":20702:20776   */\n      swap2\n      pop\n        /* \"#utility.yul\":20785:20878   */\n      tag_645\n        /* \"#utility.yul\":20874:20877   */\n      dup3\n        /* \"#utility.yul\":20785:20878   */\n      tag_423\n      jump\t// in\n    tag_645:\n        /* \"#utility.yul\":20903:20905   */\n      0x20\n        /* \"#utility.yul\":20898:20901   */\n      dup3\n        /* \"#utility.yul\":20894:20906   */\n      add\n        /* \"#utility.yul\":20887:20906   */\n      swap1\n      pop\n        /* \"#utility.yul\":20546:20912   */\n      swap2\n      swap1\n      pop\n      jump\t// out\n        /* \"#utility.yul\":20918:21337   */\n    tag_277:\n        /* \"#utility.yul\":21084:21088   */\n      0x00\n        /* \"#utility.yul\":21122:21124   */\n      0x20\n        /* \"#utility.yul\":21111:21120   */\n      dup3\n        /* \"#utility.yul\":21107:21125   */\n      add\n        /* \"#utility.yul\":21099:21125   */\n      swap1\n      pop\n        /* \"#utility.yul\":21171:21180   */\n      dup2\n        /* \"#utility.yul\":21165:21169   */\n      dup2\n        /* \"#utility.yul\":21161:21181   */\n      sub\n        /* \"#utility.yul\":21157:21158   */\n      0x00\n        /* \"#utility.yul\":21146:21155   */\n      dup4\n        /* \"#utility.yul\":21142:21159   */\n      add\n        /* \"#utility.yul\":21135:21182   */\n      mstore\n        /* \"#utility.yul\":21199:21330   */\n      tag_647\n        /* \"#utility.yul\":21325:21329   */\n      dup2\n        /* \"#utility.yul\":21199:21330   */\n      tag_424\n      jump\t// in\n    tag_647:\n        /* \"#utility.yul\":21191:21330   */\n      swap1\n      pop\n        /* \"#utility.yul\":20918:21337   */\n      swap2\n      swap1\n      pop\n      jump\t// out\n        /* \"#utility.yul\":21343:21519   */\n    tag_425:\n        /* \"#utility.yul\":21483:21511   */\n      0x496e76616c696420696e70757420746f6b656e20616d6f756e74000000000000\n        /* \"#utility.yul\":21479:21480   */\n      0x00\n        /* \"#utility.yul\":21471:21477   */\n      dup3\n        /* \"#utility.yul\":21467:21481   */\n      add\n        /* \"#utility.yul\":21460:21512   */\n      mstore\n        /* \"#utility.yul\":21343:21519   */\n      pop\n      jump\t// out\n        /* \"#utility.yul\":21525:21891   */\n    tag_426:\n        /* \"#utility.yul\":21667:21670   */\n      0x00\n        /* \"#utility.yul\":21688:21755   */\n      tag_650\n        /* \"#utility.yul\":21752:21754   */\n      0x1a\n        /* \"#utility.yul\":21747:21750   */\n      dup4\n        /* \"#utility.yul\":21688:21755   */\n      tag_380\n      jump\t// in\n    tag_650:\n        /* \"#utility.yul\":21681:21755   */\n      swap2\n      pop\n        /* \"#utility.yul\":21764:21857   */\n      tag_651\n        /* \"#utility.yul\":21853:21856   */\n      dup3\n        /* \"#utility.yul\":21764:21857   */\n      tag_425\n      jump\t// in\n    tag_651:\n        /* \"#utility.yul\":21882:21884   */\n      0x20\n        /* \"#utility.yul\":21877:21880   */\n      dup3\n        /* \"#utility.yul\":21873:21885   */\n      add\n        /* \"#utility.yul\":21866:21885   */\n      swap1\n      pop\n        /* \"#utility.yul\":21525:21891   */\n      swap2\n      swap1\n      pop\n      jump\t// out\n        /* \"#utility.yul\":21897:22316   */\n    tag_280:\n        /* \"#utility.yul\":22063:22067   */\n      0x00\n        /* \"#utility.yul\":22101:22103   */\n      0x20\n        /* \"#utility.yul\":22090:22099   */\n      dup3\n        /* \"#utility.yul\":22086:22104   */\n      add\n        /* \"#utility.yul\":22078:22104   */\n      swap1\n      pop\n        /* \"#utility.yul\":22150:22159   */\n      dup2\n        /* \"#utility.yul\":22144:22148   */\n      dup2\n        /* \"#utility.yul\":22140:22160   */\n      sub\n        /* \"#utility.yul\":22136:22137   */\n      0x00\n        /* \"#utility.yul\":22125:22134   */\n      dup4\n        /* \"#utility.yul\":22121:22138   */\n      add\n        /* \"#utility.yul\":22114:22161   */\n      mstore\n        /* \"#utility.yul\":22178:22309   */\n      tag_653\n        /* \"#utility.yul\":22304:22308   */\n      dup2\n        /* \"#utility.yul\":22178:22309   */\n      tag_426\n      jump\t// in\n    tag_653:\n        /* \"#utility.yul\":22170:22309   */\n      swap1\n      pop\n        /* \"#utility.yul\":21897:22316   */\n      swap2\n      swap1\n      pop\n      jump\t// out\n        /* \"#utility.yul\":22322:22465   */\n    tag_427:\n        /* \"#utility.yul\":22379:22384   */\n      0x00\n        /* \"#utility.yul\":22410:22416   */\n      dup2\n        /* \"#utility.yul\":22404:22417   */\n      mload\n        /* \"#utility.yul\":22395:22417   */\n      swap1\n      pop\n        /* \"#utility.yul\":22426:22459   */\n      tag_655\n        /* \"#utility.yul\":22453:22458   */\n      dup2\n        /* \"#utility.yul\":22426:22459   */\n      tag_391\n      jump\t// in\n    tag_655:\n        /* \"#utility.yul\":22322:22465   */\n      swap3\n      swap2\n      pop\n      pop\n      jump\t// out\n        /* \"#utility.yul\":22471:22822   */\n    tag_285:\n        /* \"#utility.yul\":22541:22547   */\n      0x00\n        /* \"#utility.yul\":22590:22592   */\n      0x20\n        /* \"#utility.yul\":22578:22587   */\n      dup3\n        /* \"#utility.yul\":22569:22576   */\n      dup5\n        /* \"#utility.yul\":22565:22588   */\n      sub\n        /* \"#utility.yul\":22561:22593   */\n      slt\n        /* \"#utility.yul\":22558:22677   */\n      iszero\n      tag_657\n      jumpi\n        /* \"#utility.yul\":22596:22675   */\n      tag_658\n      tag_387\n      jump\t// in\n    tag_658:\n        /* \"#utility.yul\":22558:22677   */\n    tag_657:\n        /* \"#utility.yul\":22716:22717   */\n      0x00\n        /* \"#utility.yul\":22741:22805   */\n      tag_659\n        /* \"#utility.yul\":22797:22804   */\n      dup5\n        /* \"#utility.yul\":22788:22794   */\n      dup3\n        /* \"#utility.yul\":22777:22786   */\n      dup6\n        /* \"#utility.yul\":22773:22795   */\n      add\n        /* \"#utility.yul\":22741:22805   */\n      tag_427\n      jump\t// in\n    tag_659:\n        /* \"#utility.yul\":22731:22805   */\n      swap2\n      pop\n        /* \"#utility.yul\":22687:22815   */\n      pop\n        /* \"#utility.yul\":22471:22822   */\n      swap3\n      swap2\n      pop\n      pop\n      jump\t// out\n        /* \"#utility.yul\":22828:23004   */\n    tag_428:\n        /* \"#utility.yul\":22968:22996   */\n      0x45786368616e67652061646472657373206e6f742076616c6964000000000000\n        /* \"#utility.yul\":22964:22965   */\n      0x00\n        /* \"#utility.yul\":22956:22962   */\n      dup3\n        /* \"#utility.yul\":22952:22966   */\n      add\n        /* \"#utility.yul\":22945:22997   */\n      mstore\n        /* \"#utility.yul\":22828:23004   */\n      pop\n      jump\t// out\n        /* \"#utility.yul\":23010:23376   */\n    tag_429:\n        /* \"#utility.yul\":23152:23155   */\n      0x00\n        /* \"#utility.yul\":23173:23240   */\n      tag_662\n        /* \"#utility.yul\":23237:23239   */\n      0x1a\n        /* \"#utility.yul\":23232:23235   */\n      dup4\n        /* \"#utility.yul\":23173:23240   */\n      tag_380\n      jump\t// in\n    tag_662:\n        /* \"#utility.yul\":23166:23240   */\n      swap2\n      pop\n        /* \"#utility.yul\":23249:23342   */\n      tag_663\n        /* \"#utility.yul\":23338:23341   */\n      dup3\n        /* \"#utility.yul\":23249:23342   */\n      tag_428\n      jump\t// in\n    tag_663:\n        /* \"#utility.yul\":23367:23369   */\n      0x20\n        /* \"#utility.yul\":23362:23365   */\n      dup3\n        /* \"#utility.yul\":23358:23370   */\n      add\n        /* \"#utility.yul\":23351:23370   */\n      swap1\n      pop\n        /* \"#utility.yul\":23010:23376   */\n      swap2\n      swap1\n      pop\n      jump\t// out\n        /* \"#utility.yul\":23382:23801   */\n    tag_289:\n        /* \"#utility.yul\":23548:23552   */\n      0x00\n        /* \"#utility.yul\":23586:23588   */\n      0x20\n        /* \"#utility.yul\":23575:23584   */\n      dup3\n        /* \"#utility.yul\":23571:23589   */\n      add\n        /* \"#utility.yul\":23563:23589   */\n      swap1\n      pop\n        /* \"#utility.yul\":23635:23644   */\n      dup2\n        /* \"#utility.yul\":23629:23633   */\n      dup2\n        /* \"#utility.yul\":23625:23645   */\n      sub\n        /* \"#utility.yul\":23621:23622   */\n      0x00\n        /* \"#utility.yul\":23610:23619   */\n      dup4\n        /* \"#utility.yul\":23606:23623   */\n      add\n        /* \"#utility.yul\":23599:23646   */\n      mstore\n        /* \"#utility.yul\":23663:23794   */\n      tag_665\n        /* \"#utility.yul\":23789:23793   */\n      dup2\n        /* \"#utility.yul\":23663:23794   */\n      tag_429\n      jump\t// in\n    tag_665:\n        /* \"#utility.yul\":23655:23794   */\n      swap1\n      pop\n        /* \"#utility.yul\":23382:23801   */\n      swap2\n      swap1\n      pop\n      jump\t// out\n        /* \"#utility.yul\":23807:24139   */\n    tag_297:\n        /* \"#utility.yul\":23928:23932   */\n      0x00\n        /* \"#utility.yul\":23966:23968   */\n      0x40\n        /* \"#utility.yul\":23955:23964   */\n      dup3\n        /* \"#utility.yul\":23951:23969   */\n      add\n        /* \"#utility.yul\":23943:23969   */\n      swap1\n      pop\n        /* \"#utility.yul\":23979:24050   */\n      tag_667\n        /* \"#utility.yul\":24047:24048   */\n      0x00\n        /* \"#utility.yul\":24036:24045   */\n      dup4\n        /* \"#utility.yul\":24032:24049   */\n      add\n        /* \"#utility.yul\":24023:24029   */\n      dup6\n        /* \"#utility.yul\":23979:24050   */\n      tag_385\n      jump\t// in\n    tag_667:\n        /* \"#utility.yul\":24060:24132   */\n      tag_668\n        /* \"#utility.yul\":24128:24130   */\n      0x20\n        /* \"#utility.yul\":24117:24126   */\n      dup4\n        /* \"#utility.yul\":24113:24131   */\n      add\n        /* \"#utility.yul\":24104:24110   */\n      dup5\n        /* \"#utility.yul\":24060:24132   */\n      tag_399\n      jump\t// in\n    tag_668:\n        /* \"#utility.yul\":23807:24139   */\n      swap4\n      swap3\n      pop\n      pop\n      pop\n      jump\t// out\n        /* \"#utility.yul\":24145:24368   */\n    tag_430:\n        /* \"#utility.yul\":24285:24319   */\n      0x45524332303a20617070726f76652066726f6d20746865207a65726f20616464\n        /* \"#utility.yul\":24281:24282   */\n      0x00\n        /* \"#utility.yul\":24273:24279   */\n      dup3\n        /* \"#utility.yul\":24269:24283   */\n      add\n        /* \"#utility.yul\":24262:24320   */\n      mstore\n        /* \"#utility.yul\":24354:24360   */\n      0x7265737300000000000000000000000000000000000000000000000000000000\n        /* \"#utility.yul\":24349:24351   */\n      0x20\n        /* \"#utility.yul\":24341:24347   */\n      dup3\n        /* \"#utility.yul\":24337:24352   */\n      add\n        /* \"#utility.yul\":24330:24361   */\n      mstore\n        /* \"#utility.yul\":24145:24368   */\n      pop\n      jump\t// out\n        /* \"#utility.yul\":24374:24740   */\n    tag_431:\n        /* \"#utility.yul\":24516:24519   */\n      0x00\n        /* \"#utility.yul\":24537:24604   */\n      tag_671\n        /* \"#utility.yul\":24601:24603   */\n      0x24\n        /* \"#utility.yul\":24596:24599   */\n      dup4\n        /* \"#utility.yul\":24537:24604   */\n      tag_380\n      jump\t// in\n    tag_671:\n        /* \"#utility.yul\":24530:24604   */\n      swap2\n      pop\n        /* \"#utility.yul\":24613:24706   */\n      tag_672\n        /* \"#utility.yul\":24702:24705   */\n      dup3\n        /* \"#utility.yul\":24613:24706   */\n      tag_430\n      jump\t// in\n    tag_672:\n        /* \"#utility.yul\":24731:24733   */\n      0x40\n        /* \"#utility.yul\":24726:24729   */\n      dup3\n        /* \"#utility.yul\":24722:24734   */\n      add\n        /* \"#utility.yul\":24715:24734   */\n      swap1\n      pop\n        /* \"#utility.yul\":24374:24740   */\n      swap2\n      swap1\n      pop\n      jump\t// out\n        /* \"#utility.yul\":24746:25165   */\n    tag_307:\n        /* \"#utility.yul\":24912:24916   */\n      0x00\n        /* \"#utility.yul\":24950:24952   */\n      0x20\n        /* \"#utility.yul\":24939:24948   */\n      dup3\n        /* \"#utility.yul\":24935:24953   */\n      add\n        /* \"#utility.yul\":24927:24953   */\n      swap1\n      pop\n        /* \"#utility.yul\":24999:25008   */\n      dup2\n        /* \"#utility.yul\":24993:24997   */\n      dup2\n        /* \"#utility.yul\":24989:25009   */\n      sub\n        /* \"#utility.yul\":24985:24986   */\n      0x00\n        /* \"#utility.yul\":24974:24983   */\n      dup4\n        /* \"#utility.yul\":24970:24987   */\n      add\n        /* \"#utility.yul\":24963:25010   */\n      mstore\n        /* \"#utility.yul\":25027:25158   */\n      tag_674\n        /* \"#utility.yul\":25153:25157   */\n      dup2\n        /* \"#utility.yul\":25027:25158   */\n      tag_431\n      jump\t// in\n    tag_674:\n        /* \"#utility.yul\":25019:25158   */\n      swap1\n      pop\n        /* \"#utility.yul\":24746:25165   */\n      swap2\n      swap1\n      pop\n      jump\t// out\n        /* \"#utility.yul\":25171:25392   */\n    tag_432:\n        /* \"#utility.yul\":25311:25345   */\n      0x45524332303a20617070726f766520746f20746865207a65726f206164647265\n        /* \"#utility.yul\":25307:25308   */\n      0x00\n        /* \"#utility.yul\":25299:25305   */\n      dup3\n        /* \"#utility.yul\":25295:25309   */\n      add\n        /* \"#utility.yul\":25288:25346   */\n      mstore\n        /* \"#utility.yul\":25380:25384   */\n      0x7373000000000000000000000000000000000000000000000000000000000000\n        /* \"#utility.yul\":25375:25377   */\n      0x20\n        /* \"#utility.yul\":25367:25373   */\n      dup3\n        /* \"#utility.yul\":25363:25378   */\n      add\n        /* \"#utility.yul\":25356:25385   */\n      mstore\n        /* \"#utility.yul\":25171:25392   */\n      pop\n      jump\t// out\n        /* \"#utility.yul\":25398:25764   */\n    tag_433:\n        /* \"#utility.yul\":25540:25543   */\n      0x00\n        /* \"#utility.yul\":25561:25628   */\n      tag_677\n        /* \"#utility.yul\":25625:25627   */\n      0x22\n        /* \"#utility.yul\":25620:25623   */\n      dup4\n        /* \"#utility.yul\":25561:25628   */\n      tag_380\n      jump\t// in\n    tag_677:\n        /* \"#utility.yul\":25554:25628   */\n      swap2\n      pop\n        /* \"#utility.yul\":25637:25730   */\n      tag_678\n        /* \"#utility.yul\":25726:25729   */\n      dup3\n        /* \"#utility.yul\":25637:25730   */\n      tag_432\n      jump\t// in\n    tag_678:\n        /* \"#utility.yul\":25755:25757   */\n      0x40\n        /* \"#utility.yul\":25750:25753   */\n      dup3\n        /* \"#utility.yul\":25746:25758   */\n      add\n        /* \"#utility.yul\":25739:25758   */\n      swap1\n      pop\n        /* \"#utility.yul\":25398:25764   */\n      swap2\n      swap1\n      pop\n      jump\t// out\n        /* \"#utility.yul\":25770:26189   */\n    tag_310:\n        /* \"#utility.yul\":25936:25940   */\n      0x00\n        /* \"#utility.yul\":25974:25976   */\n      0x20\n        /* \"#utility.yul\":25963:25972   */\n      dup3\n        /* \"#utility.yul\":25959:25977   */\n      add\n        /* \"#utility.yul\":25951:25977   */\n      swap1\n      pop\n        /* \"#utility.yul\":26023:26032   */\n      dup2\n        /* \"#utility.yul\":26017:26021   */\n      dup2\n        /* \"#utility.yul\":26013:26033   */\n      sub\n        /* \"#utility.yul\":26009:26010   */\n      0x00\n        /* \"#utility.yul\":25998:26007   */\n      dup4\n        /* \"#utility.yul\":25994:26011   */\n      add\n        /* \"#utility.yul\":25987:26034   */\n      mstore\n        /* \"#utility.yul\":26051:26182   */\n      tag_680\n        /* \"#utility.yul\":26177:26181   */\n      dup2\n        /* \"#utility.yul\":26051:26182   */\n      tag_433\n      jump\t// in\n    tag_680:\n        /* \"#utility.yul\":26043:26182   */\n      swap1\n      pop\n        /* \"#utility.yul\":25770:26189   */\n      swap2\n      swap1\n      pop\n      jump\t// out\n        /* \"#utility.yul\":26195:26366   */\n    tag_434:\n        /* \"#utility.yul\":26335:26358   */\n      0x546865726520617265206e6f2072657365727665730000000000000000000000\n        /* \"#utility.yul\":26331:26332   */\n      0x00\n        /* \"#utility.yul\":26323:26329   */\n      dup3\n        /* \"#utility.yul\":26319:26333   */\n      add\n        /* \"#utility.yul\":26312:26359   */\n      mstore\n        /* \"#utility.yul\":26195:26366   */\n      pop\n      jump\t// out\n        /* \"#utility.yul\":26372:26738   */\n    tag_435:\n        /* \"#utility.yul\":26514:26517   */\n      0x00\n        /* \"#utility.yul\":26535:26602   */\n      tag_683\n        /* \"#utility.yul\":26599:26601   */\n      0x15\n        /* \"#utility.yul\":26594:26597   */\n      dup4\n        /* \"#utility.yul\":26535:26602   */\n      tag_380\n      jump\t// in\n    tag_683:\n        /* \"#utility.yul\":26528:26602   */\n      swap2\n      pop\n        /* \"#utility.yul\":26611:26704   */\n      tag_684\n        /* \"#utility.yul\":26700:26703   */\n      dup3\n        /* \"#utility.yul\":26611:26704   */\n      tag_434\n      jump\t// in\n    tag_684:\n        /* \"#utility.yul\":26729:26731   */\n      0x20\n        /* \"#utility.yul\":26724:26727   */\n      dup3\n        /* \"#utility.yul\":26720:26732   */\n      add\n        /* \"#utility.yul\":26713:26732   */\n      swap1\n      pop\n        /* \"#utility.yul\":26372:26738   */\n      swap2\n      swap1\n      pop\n      jump\t// out\n        /* \"#utility.yul\":26744:27163   */\n    tag_316:\n        /* \"#utility.yul\":26910:26914   */\n      0x00\n        /* \"#utility.yul\":26948:26950   */\n      0x20\n        /* \"#utility.yul\":26937:26946   */\n      dup3\n        /* \"#utility.yul\":26933:26951   */\n      add\n        /* \"#utility.yul\":26925:26951   */\n      swap1\n      pop\n        /* \"#utility.yul\":26997:27006   */\n      dup2\n        /* \"#utility.yul\":26991:26995   */\n      dup2\n        /* \"#utility.yul\":26987:27007   */\n      sub\n        /* \"#utility.yul\":26983:26984   */\n      0x00\n        /* \"#utility.yul\":26972:26981   */\n      dup4\n        /* \"#utility.yul\":26968:26985   */\n      add\n        /* \"#utility.yul\":26961:27008   */\n      mstore\n        /* \"#utility.yul\":27025:27156   */\n      tag_686\n        /* \"#utility.yul\":27151:27155   */\n      dup2\n        /* \"#utility.yul\":27025:27156   */\n      tag_435\n      jump\t// in\n    tag_686:\n        /* \"#utility.yul\":27017:27156   */\n      swap1\n      pop\n        /* \"#utility.yul\":26744:27163   */\n      swap2\n      swap1\n      pop\n      jump\t// out\n        /* \"#utility.yul\":27169:27348   */\n    tag_436:\n        /* \"#utility.yul\":27309:27340   */\n      0x45524332303a20696e73756666696369656e7420616c6c6f77616e6365000000\n        /* \"#utility.yul\":27305:27306   */\n      0x00\n        /* \"#utility.yul\":27297:27303   */\n      dup3\n        /* \"#utility.yul\":27293:27307   */\n      add\n        /* \"#utility.yul\":27286:27341   */\n      mstore\n        /* \"#utility.yul\":27169:27348   */\n      pop\n      jump\t// out\n        /* \"#utility.yul\":27354:27720   */\n    tag_437:\n        /* \"#utility.yul\":27496:27499   */\n      0x00\n        /* \"#utility.yul\":27517:27584   */\n      tag_689\n        /* \"#utility.yul\":27581:27583   */\n      0x1d\n        /* \"#utility.yul\":27576:27579   */\n      dup4\n        /* \"#utility.yul\":27517:27584   */\n      tag_380\n      jump\t// in\n    tag_689:\n        /* \"#utility.yul\":27510:27584   */\n      swap2\n      pop\n        /* \"#utility.yul\":27593:27686   */\n      tag_690\n        /* \"#utility.yul\":27682:27685   */\n      dup3\n        /* \"#utility.yul\":27593:27686   */\n      tag_436\n      jump\t// in\n    tag_690:\n        /* \"#utility.yul\":27711:27713   */\n      0x20\n        /* \"#utility.yul\":27706:27709   */\n      dup3\n        /* \"#utility.yul\":27702:27714   */\n      add\n        /* \"#utility.yul\":27695:27714   */\n      swap1\n      pop\n        /* \"#utility.yul\":27354:27720   */\n      swap2\n      swap1\n      pop\n      jump\t// out\n        /* \"#utility.yul\":27726:28145   */\n    tag_328:\n        /* \"#utility.yul\":27892:27896   */\n      0x00\n        /* \"#utility.yul\":27930:27932   */\n      0x20\n        /* \"#utility.yul\":27919:27928   */\n      dup3\n        /* \"#utility.yul\":27915:27933   */\n      add\n        /* \"#utility.yul\":27907:27933   */\n      swap1\n      pop\n        /* \"#utility.yul\":27979:27988   */\n      dup2\n        /* \"#utility.yul\":27973:27977   */\n      dup2\n        /* \"#utility.yul\":27969:27989   */\n      sub\n        /* \"#utility.yul\":27965:27966   */\n      0x00\n        /* \"#utility.yul\":27954:27963   */\n      dup4\n        /* \"#utility.yul\":27950:27967   */\n      add\n        /* \"#utility.yul\":27943:27990   */\n      mstore\n        /* \"#utility.yul\":28007:28138   */\n      tag_692\n        /* \"#utility.yul\":28133:28137   */\n      dup2\n        /* \"#utility.yul\":28007:28138   */\n      tag_437\n      jump\t// in\n    tag_692:\n        /* \"#utility.yul\":27999:28138   */\n      swap1\n      pop\n        /* \"#utility.yul\":27726:28145   */\n      swap2\n      swap1\n      pop\n      jump\t// out\n        /* \"#utility.yul\":28151:28375   */\n    tag_438:\n        /* \"#utility.yul\":28291:28325   */\n      0x45524332303a207472616e736665722066726f6d20746865207a65726f206164\n        /* \"#utility.yul\":28287:28288   */\n      0x00\n        /* \"#utility.yul\":28279:28285   */\n      dup3\n        /* \"#utility.yul\":28275:28289   */\n      add\n        /* \"#utility.yul\":28268:28326   */\n      mstore\n        /* \"#utility.yul\":28360:28367   */\n      0x6472657373000000000000000000000000000000000000000000000000000000\n        /* \"#utility.yul\":28355:28357   */\n      0x20\n        /* \"#utility.yul\":28347:28353   */\n      dup3\n        /* \"#utility.yul\":28343:28358   */\n      add\n        /* \"#utility.yul\":28336:28368   */\n      mstore\n        /* \"#utility.yul\":28151:28375   */\n      pop\n      jump\t// out\n        /* \"#utility.yul\":28381:28747   */\n    tag_439:\n        /* \"#utility.yul\":28523:28526   */\n      0x00\n        /* \"#utility.yul\":28544:28611   */\n      tag_695\n        /* \"#utility.yul\":28608:28610   */\n      0x25\n        /* \"#utility.yul\":28603:28606   */\n      dup4\n        /* \"#utility.yul\":28544:28611   */\n      tag_380\n      jump\t// in\n    tag_695:\n        /* \"#utility.yul\":28537:28611   */\n      swap2\n      pop\n        /* \"#utility.yul\":28620:28713   */\n      tag_696\n        /* \"#utility.yul\":28709:28712   */\n      dup3\n        /* \"#utility.yul\":28620:28713   */\n      tag_438\n      jump\t// in\n    tag_696:\n        /* \"#utility.yul\":28738:28740   */\n      0x40\n        /* \"#utility.yul\":28733:28736   */\n      dup3\n        /* \"#utility.yul\":28729:28741   */\n      add\n        /* \"#utility.yul\":28722:28741   */\n      swap1\n      pop\n        /* \"#utility.yul\":28381:28747   */\n      swap2\n      swap1\n      pop\n      jump\t// out\n        /* \"#utility.yul\":28753:29172   */\n    tag_333:\n        /* \"#utility.yul\":28919:28923   */\n      0x00\n        /* \"#utility.yul\":28957:28959   */\n      0x20\n        /* \"#utility.yul\":28946:28955   */\n      dup3\n        /* \"#utility.yul\":28942:28960   */\n      add\n        /* \"#utility.yul\":28934:28960   */\n      swap1\n      pop\n        /* \"#utility.yul\":29006:29015   */\n      dup2\n        /* \"#utility.yul\":29000:29004   */\n      dup2\n        /* \"#utility.yul\":28996:29016   */\n      sub\n        /* \"#utility.yul\":28992:28993   */\n      0x00\n        /* \"#utility.yul\":28981:28990   */\n      dup4\n        /* \"#utility.yul\":28977:28994   */\n      add\n        /* \"#utility.yul\":28970:29017   */\n      mstore\n        /* \"#utility.yul\":29034:29165   */\n      tag_698\n        /* \"#utility.yul\":29160:29164   */\n      dup2\n        /* \"#utility.yul\":29034:29165   */\n      tag_439\n      jump\t// in\n    tag_698:\n        /* \"#utility.yul\":29026:29165   */\n      swap1\n      pop\n        /* \"#utility.yul\":28753:29172   */\n      swap2\n      swap1\n      pop\n      jump\t// out\n        /* \"#utility.yul\":29178:29400   */\n    tag_440:\n        /* \"#utility.yul\":29318:29352   */\n      0x45524332303a207472616e7366657220746f20746865207a65726f2061646472\n        /* \"#utility.yul\":29314:29315   */\n      0x00\n        /* \"#utility.yul\":29306:29312   */\n      dup3\n        /* \"#utility.yul\":29302:29316   */\n      add\n        /* \"#utility.yul\":29295:29353   */\n      mstore\n        /* \"#utility.yul\":29387:29392   */\n      0x6573730000000000000000000000000000000000000000000000000000000000\n        /* \"#utility.yul\":29382:29384   */\n      0x20\n        /* \"#utility.yul\":29374:29380   */\n      dup3\n        /* \"#utility.yul\":29370:29385   */\n      add\n        /* \"#utility.yul\":29363:29393   */\n      mstore\n        /* \"#utility.yul\":29178:29400   */\n      pop\n      jump\t// out\n        /* \"#utility.yul\":29406:29772   */\n    tag_441:\n        /* \"#utility.yul\":29548:29551   */\n      0x00\n        /* \"#utility.yul\":29569:29636   */\n      tag_701\n        /* \"#utility.yul\":29633:29635   */\n      0x23\n        /* \"#utility.yul\":29628:29631   */\n      dup4\n        /* \"#utility.yul\":29569:29636   */\n      tag_380\n      jump\t// in\n    tag_701:\n        /* \"#utility.yul\":29562:29636   */\n      swap2\n      pop\n        /* \"#utility.yul\":29645:29738   */\n      tag_702\n        /* \"#utility.yul\":29734:29737   */\n      dup3\n        /* \"#utility.yul\":29645:29738   */\n      tag_440\n      jump\t// in\n    tag_702:\n        /* \"#utility.yul\":29763:29765   */\n      0x40\n        /* \"#utility.yul\":29758:29761   */\n      dup3\n        /* \"#utility.yul\":29754:29766   */\n      add\n        /* \"#utility.yul\":29747:29766   */\n      swap1\n      pop\n        /* \"#utility.yul\":29406:29772   */\n      swap2\n      swap1\n      pop\n      jump\t// out\n        /* \"#utility.yul\":29778:30197   */\n    tag_336:\n        /* \"#utility.yul\":29944:29948   */\n      0x00\n        /* \"#utility.yul\":29982:29984   */\n      0x20\n        /* \"#utility.yul\":29971:29980   */\n      dup3\n        /* \"#utility.yul\":29967:29985   */\n      add\n        /* \"#utility.yul\":29959:29985   */\n      swap1\n      pop\n        /* \"#utility.yul\":30031:30040   */\n      dup2\n        /* \"#utility.yul\":30025:30029   */\n      dup2\n        /* \"#utility.yul\":30021:30041   */\n      sub\n        /* \"#utility.yul\":30017:30018   */\n      0x00\n        /* \"#utility.yul\":30006:30015   */\n      dup4\n        /* \"#utility.yul\":30002:30019   */\n      add\n        /* \"#utility.yul\":29995:30042   */\n      mstore\n        /* \"#utility.yul\":30059:30190   */\n      tag_704\n        /* \"#utility.yul\":30185:30189   */\n      dup2\n        /* \"#utility.yul\":30059:30190   */\n      tag_441\n      jump\t// in\n    tag_704:\n        /* \"#utility.yul\":30051:30190   */\n      swap1\n      pop\n        /* \"#utility.yul\":29778:30197   */\n      swap2\n      swap1\n      pop\n      jump\t// out\n        /* \"#utility.yul\":30203:30428   */\n    tag_442:\n        /* \"#utility.yul\":30343:30377   */\n      0x45524332303a207472616e7366657220616d6f756e7420657863656564732062\n        /* \"#utility.yul\":30339:30340   */\n      0x00\n        /* \"#utility.yul\":30331:30337   */\n      dup3\n        /* \"#utility.yul\":30327:30341   */\n      add\n        /* \"#utility.yul\":30320:30378   */\n      mstore\n        /* \"#utility.yul\":30412:30420   */\n      0x616c616e63650000000000000000000000000000000000000000000000000000\n        /* \"#utility.yul\":30407:30409   */\n      0x20\n        /* \"#utility.yul\":30399:30405   */\n      dup3\n        /* \"#utility.yul\":30395:30410   */\n      add\n        /* \"#utility.yul\":30388:30421   */\n      mstore\n        /* \"#utility.yul\":30203:30428   */\n      pop\n      jump\t// out\n        /* \"#utility.yul\":30434:30800   */\n    tag_443:\n        /* \"#utility.yul\":30576:30579   */\n      0x00\n        /* \"#utility.yul\":30597:30664   */\n      tag_707\n        /* \"#utility.yul\":30661:30663   */\n      0x26\n        /* \"#utility.yul\":30656:30659   */\n      dup4\n        /* \"#utility.yul\":30597:30664   */\n      tag_380\n      jump\t// in\n    tag_707:\n        /* \"#utility.yul\":30590:30664   */\n      swap2\n      pop\n        /* \"#utility.yul\":30673:30766   */\n      tag_708\n        /* \"#utility.yul\":30762:30765   */\n      dup3\n        /* \"#utility.yul\":30673:30766   */\n      tag_442\n      jump\t// in\n    tag_708:\n        /* \"#utility.yul\":30791:30793   */\n      0x40\n        /* \"#utility.yul\":30786:30789   */\n      dup3\n        /* \"#utility.yul\":30782:30794   */\n      add\n        /* \"#utility.yul\":30775:30794   */\n      swap1\n      pop\n        /* \"#utility.yul\":30434:30800   */\n      swap2\n      swap1\n      pop\n      jump\t// out\n        /* \"#utility.yul\":30806:31225   */\n    tag_341:\n        /* \"#utility.yul\":30972:30976   */\n      0x00\n        /* \"#utility.yul\":31010:31012   */\n      0x20\n        /* \"#utility.yul\":30999:31008   */\n      dup3\n        /* \"#utility.yul\":30995:31013   */\n      add\n        /* \"#utility.yul\":30987:31013   */\n      swap1\n      pop\n        /* \"#utility.yul\":31059:31068   */\n      dup2\n        /* \"#utility.yul\":31053:31057   */\n      dup2\n        /* \"#utility.yul\":31049:31069   */\n      sub\n        /* \"#utility.yul\":31045:31046   */\n      0x00\n        /* \"#utility.yul\":31034:31043   */\n      dup4\n        /* \"#utility.yul\":31030:31047   */\n      add\n        /* \"#utility.yul\":31023:31070   */\n      mstore\n        /* \"#utility.yul\":31087:31218   */\n      tag_710\n        /* \"#utility.yul\":31213:31217   */\n      dup2\n        /* \"#utility.yul\":31087:31218   */\n      tag_443\n      jump\t// in\n    tag_710:\n        /* \"#utility.yul\":31079:31218   */\n      swap1\n      pop\n        /* \"#utility.yul\":30806:31225   */\n      swap2\n      swap1\n      pop\n      jump\t// out\n        /* \"#utility.yul\":31231:31412   */\n    tag_444:\n        /* \"#utility.yul\":31371:31404   */\n      0x45524332303a206d696e7420746f20746865207a65726f206164647265737300\n        /* \"#utility.yul\":31367:31368   */\n      0x00\n        /* \"#utility.yul\":31359:31365   */\n      dup3\n        /* \"#utility.yul\":31355:31369   */\n      add\n        /* \"#utility.yul\":31348:31405   */\n      mstore\n        /* \"#utility.yul\":31231:31412   */\n      pop\n      jump\t// out\n        /* \"#utility.yul\":31418:31784   */\n    tag_445:\n        /* \"#utility.yul\":31560:31563   */\n      0x00\n        /* \"#utility.yul\":31581:31648   */\n      tag_713\n        /* \"#utility.yul\":31645:31647   */\n      0x1f\n        /* \"#utility.yul\":31640:31643   */\n      dup4\n        /* \"#utility.yul\":31581:31648   */\n      tag_380\n      jump\t// in\n    tag_713:\n        /* \"#utility.yul\":31574:31648   */\n      swap2\n      pop\n        /* \"#utility.yul\":31657:31750   */\n      tag_714\n        /* \"#utility.yul\":31746:31749   */\n      dup3\n        /* \"#utility.yul\":31657:31750   */\n      tag_444\n      jump\t// in\n    tag_714:\n        /* \"#utility.yul\":31775:31777   */\n      0x20\n        /* \"#utility.yul\":31770:31773   */\n      dup3\n        /* \"#utility.yul\":31766:31778   */\n      add\n        /* \"#utility.yul\":31759:31778   */\n      swap1\n      pop\n        /* \"#utility.yul\":31418:31784   */\n      swap2\n      swap1\n      pop\n      jump\t// out\n        /* \"#utility.yul\":31790:32209   */\n    tag_360:\n        /* \"#utility.yul\":31956:31960   */\n      0x00\n        /* \"#utility.yul\":31994:31996   */\n      0x20\n        /* \"#utility.yul\":31983:31992   */\n      dup3\n        /* \"#utility.yul\":31979:31997   */\n      add\n        /* \"#utility.yul\":31971:31997   */\n      swap1\n      pop\n        /* \"#utility.yul\":32043:32052   */\n      dup2\n        /* \"#utility.yul\":32037:32041   */\n      dup2\n        /* \"#utility.yul\":32033:32053   */\n      sub\n        /* \"#utility.yul\":32029:32030   */\n      0x00\n        /* \"#utility.yul\":32018:32027   */\n      dup4\n        /* \"#utility.yul\":32014:32031   */\n      add\n        /* \"#utility.yul\":32007:32054   */\n      mstore\n        /* \"#utility.yul\":32071:32202   */\n      tag_716\n        /* \"#utility.yul\":32197:32201   */\n      dup2\n        /* \"#utility.yul\":32071:32202   */\n      tag_445\n      jump\t// in\n    tag_716:\n        /* \"#utility.yul\":32063:32202   */\n      swap1\n      pop\n        /* \"#utility.yul\":31790:32209   */\n      swap2\n      swap1\n      pop\n      jump\t// out\n        /* \"#utility.yul\":32215:32435   */\n    tag_446:\n        /* \"#utility.yul\":32355:32389   */\n      0x45524332303a206275726e2066726f6d20746865207a65726f20616464726573\n        /* \"#utility.yul\":32351:32352   */\n      0x00\n        /* \"#utility.yul\":32343:32349   */\n      dup3\n        /* \"#utility.yul\":32339:32353   */\n      add\n        /* \"#utility.yul\":32332:32390   */\n      mstore\n        /* \"#utility.yul\":32424:32427   */\n      0x7300000000000000000000000000000000000000000000000000000000000000\n        /* \"#utility.yul\":32419:32421   */\n      0x20\n        /* \"#utility.yul\":32411:32417   */\n      dup3\n        /* \"#utility.yul\":32407:32422   */\n      add\n        /* \"#utility.yul\":32400:32428   */\n      mstore\n        /* \"#utility.yul\":32215:32435   */\n      pop\n      jump\t// out\n        /* \"#utility.yul\":32441:32807   */\n    tag_447:\n        /* \"#utility.yul\":32583:32586   */\n      0x00\n        /* \"#utility.yul\":32604:32671   */\n      tag_719\n        /* \"#utility.yul\":32668:32670   */\n      0x21\n        /* \"#utility.yul\":32663:32666   */\n      dup4\n        /* \"#utility.yul\":32604:32671   */\n      tag_380\n      jump\t// in\n    tag_719:\n        /* \"#utility.yul\":32597:32671   */\n      swap2\n      pop\n        /* \"#utility.yul\":32680:32773   */\n      tag_720\n        /* \"#utility.yul\":32769:32772   */\n      dup3\n        /* \"#utility.yul\":32680:32773   */\n      tag_446\n      jump\t// in\n    tag_720:\n        /* \"#utility.yul\":32798:32800   */\n      0x40\n        /* \"#utility.yul\":32793:32796   */\n      dup3\n        /* \"#utility.yul\":32789:32801   */\n      add\n        /* \"#utility.yul\":32782:32801   */\n      swap1\n      pop\n        /* \"#utility.yul\":32441:32807   */\n      swap2\n      swap1\n      pop\n      jump\t// out\n        /* \"#utility.yul\":32813:33232   */\n    tag_369:\n        /* \"#utility.yul\":32979:32983   */\n      0x00\n        /* \"#utility.yul\":33017:33019   */\n      0x20\n        /* \"#utility.yul\":33006:33015   */\n      dup3\n        /* \"#utility.yul\":33002:33020   */\n      add\n        /* \"#utility.yul\":32994:33020   */\n      swap1\n      pop\n        /* \"#utility.yul\":33066:33075   */\n      dup2\n        /* \"#utility.yul\":33060:33064   */\n      dup2\n        /* \"#utility.yul\":33056:33076   */\n      sub\n        /* \"#utility.yul\":33052:33053   */\n      0x00\n        /* \"#utility.yul\":33041:33050   */\n      dup4\n        /* \"#utility.yul\":33037:33054   */\n      add\n        /* \"#utility.yul\":33030:33077   */\n      mstore\n        /* \"#utility.yul\":33094:33225   */\n      tag_722\n        /* \"#utility.yul\":33220:33224   */\n      dup2\n        /* \"#utility.yul\":33094:33225   */\n      tag_447\n      jump\t// in\n    tag_722:\n        /* \"#utility.yul\":33086:33225   */\n      swap1\n      pop\n        /* \"#utility.yul\":32813:33232   */\n      swap2\n      swap1\n      pop\n      jump\t// out\n        /* \"#utility.yul\":33238:33459   */\n    tag_448:\n        /* \"#utility.yul\":33378:33412   */\n      0x45524332303a206275726e20616d6f756e7420657863656564732062616c616e\n        /* \"#utility.yul\":33374:33375   */\n      0x00\n        /* \"#utility.yul\":33366:33372   */\n      dup3\n        /* \"#utility.yul\":33362:33376   */\n      add\n        /* \"#utility.yul\":33355:33413   */\n      mstore\n        /* \"#utility.yul\":33447:33451   */\n      0x6365000000000000000000000000000000000000000000000000000000000000\n        /* \"#utility.yul\":33442:33444   */\n      0x20\n        /* \"#utility.yul\":33434:33440   */\n      dup3\n        /* \"#utility.yul\":33430:33445   */\n      add\n        /* \"#utility.yul\":33423:33452   */\n      mstore\n        /* \"#utility.yul\":33238:33459   */\n      pop\n      jump\t// out\n        /* \"#utility.yul\":33465:33831   */\n    tag_449:\n        /* \"#utility.yul\":33607:33610   */\n      0x00\n        /* \"#utility.yul\":33628:33695   */\n      tag_725\n        /* \"#utility.yul\":33692:33694   */\n      0x22\n        /* \"#utility.yul\":33687:33690   */\n      dup4\n        /* \"#utility.yul\":33628:33695   */\n      tag_380\n      jump\t// in\n    tag_725:\n        /* \"#utility.yul\":33621:33695   */\n      swap2\n      pop\n        /* \"#utility.yul\":33704:33797   */\n      tag_726\n        /* \"#utility.yul\":33793:33796   */\n      dup3\n        /* \"#utility.yul\":33704:33797   */\n      tag_448\n      jump\t// in\n    tag_726:\n        /* \"#utility.yul\":33822:33824   */\n      0x40\n        /* \"#utility.yul\":33817:33820   */\n      dup3\n        /* \"#utility.yul\":33813:33825   */\n      add\n        /* \"#utility.yul\":33806:33825   */\n      swap1\n      pop\n        /* \"#utility.yul\":33465:33831   */\n      swap2\n      swap1\n      pop\n      jump\t// out\n        /* \"#utility.yul\":33837:34256   */\n    tag_373:\n        /* \"#utility.yul\":34003:34007   */\n      0x00\n        /* \"#utility.yul\":34041:34043   */\n      0x20\n        /* \"#utility.yul\":34030:34039   */\n      dup3\n        /* \"#utility.yul\":34026:34044   */\n      add\n        /* \"#utility.yul\":34018:34044   */\n      swap1\n      pop\n        /* \"#utility.yul\":34090:34099   */\n      dup2\n        /* \"#utility.yul\":34084:34088   */\n      dup2\n        /* \"#utility.yul\":34080:34100   */\n      sub\n        /* \"#utility.yul\":34076:34077   */\n      0x00\n        /* \"#utility.yul\":34065:34074   */\n      dup4\n        /* \"#utility.yul\":34061:34078   */\n      add\n        /* \"#utility.yul\":34054:34101   */\n      mstore\n        /* \"#utility.yul\":34118:34249   */\n      tag_728\n        /* \"#utility.yul\":34244:34248   */\n      dup2\n        /* \"#utility.yul\":34118:34249   */\n      tag_449\n      jump\t// in\n    tag_728:\n        /* \"#utility.yul\":34110:34249   */\n      swap1\n      pop\n        /* \"#utility.yul\":33837:34256   */\n      swap2\n      swap1\n      pop\n      jump\t// out\n\n    auxdata: 0xa2646970667358221220e4060ea57bde75fdc3d58e0c1a53d1724bbb2a77afb51779bbbcd49a7a62916264736f6c63430008110033\n}\n",
				"bytecode": {
					"linkReferences": {},
					"object": "60806040523480156200001157600080fd5b50604051620037023803806200370283398181016040528101906200003791906200022e565b6040518060400160405280600781526020017f53776170205631000000000000000000000000000000000000000000000000008152506040518060400160405280600781526020017f537761702d5631000000000000000000000000000000000000000000000000008152508160039081620000b49190620004da565b508060049081620000c69190620004da565b505050600073ffffffffffffffffffffffffffffffffffffffff168173ffffffffffffffffffffffffffffffffffffffff16036200013b576040517f08c379a0000000000000000000000000000000000000000000000000000000008152600401620001329062000622565b60405180910390fd5b80600560006101000a81548173ffffffffffffffffffffffffffffffffffffffff021916908373ffffffffffffffffffffffffffffffffffffffff16021790555033600660006101000a81548173ffffffffffffffffffffffffffffffffffffffff021916908373ffffffffffffffffffffffffffffffffffffffff1602179055505062000644565b600080fd5b600073ffffffffffffffffffffffffffffffffffffffff82169050919050565b6000620001f682620001c9565b9050919050565b6200020881620001e9565b81146200021457600080fd5b50565b6000815190506200022881620001fd565b92915050565b600060208284031215620002475762000246620001c4565b5b6000620002578482850162000217565b91505092915050565b600081519050919050565b7f4e487b7100000000000000000000000000000000000000000000000000000000600052604160045260246000fd5b7f4e487b7100000000000000000000000000000000000000000000000000000000600052602260045260246000fd5b60006002820490506001821680620002e257607f821691505b602082108103620002f857620002f76200029a565b5b50919050565b60008190508160005260206000209050919050565b60006020601f8301049050919050565b600082821b905092915050565b600060088302620003627fffffffffffffffffffffffffffffffffffffffffffffffffffffffffffffffff8262000323565b6200036e868362000323565b95508019841693508086168417925050509392505050565b6000819050919050565b6000819050919050565b6000620003bb620003b5620003af8462000386565b62000390565b62000386565b9050919050565b6000819050919050565b620003d7836200039a565b620003ef620003e682620003c2565b84845462000330565b825550505050565b600090565b62000406620003f7565b62000413818484620003cc565b505050565b5b818110156200043b576200042f600082620003fc565b60018101905062000419565b5050565b601f8211156200048a576200045481620002fe565b6200045f8462000313565b810160208510156200046f578190505b620004876200047e8562000313565b83018262000418565b50505b505050565b600082821c905092915050565b6000620004af600019846008026200048f565b1980831691505092915050565b6000620004ca83836200049c565b9150826002028217905092915050565b620004e58262000260565b67ffffffffffffffff8111156200050157620005006200026b565b5b6200050d8254620002c9565b6200051a8282856200043f565b600060209050601f8311600181146200055257600084156200053d578287015190505b620005498582620004bc565b865550620005b9565b601f1984166200056286620002fe565b60005b828110156200058c5784890151825560018201915060208501945060208101905062000565565b86831015620005ac5784890151620005a8601f8916826200049c565b8355505b6001600288020188555050505b505050505050565b600082825260208201905092915050565b7f496e76616c696420616464726573730000000000000000000000000000000000600082015250565b60006200060a600f83620005c1565b91506200061782620005d2565b602082019050919050565b600060208201905081810360008301526200063d81620005fb565b9050919050565b6130ae80620006546000396000f3fe6080604052600436106101355760003560e01c806364338a30116100ab5780639d76ea581161006f5780639d76ea581461045e578063a457c2d714610489578063a9059cbb146104c6578063dd62ed3e14610503578063f7a7e32414610540578063f979dcd71461056957610135565b806364338a301461036457806370a082311461038d57806395d89b41146103ca578063966dae0e146103f55780639c8f9f231461042057610135565b806323b872dd116100fd57806323b872dd146102365780632c0c60a414610273578063313ce567146102b0578063389d9a40146102db57806339509351146102f757806351c6590a1461033457610135565b806306fdde031461013a5780630902f1ac14610165578063095ea7b3146101915780630f8070b4146101ce57806318160ddd1461020b575b600080fd5b34801561014657600080fd5b5061014f610585565b60405161015c9190611f0a565b60405180910390f35b34801561017157600080fd5b5061017a610617565b604051610188929190611f45565b60405180910390f35b34801561019d57600080fd5b506101b860048036038101906101b39190611ffd565b6106bf565b6040516101c59190612058565b60405180910390f35b3480156101da57600080fd5b506101f560048036038101906101f09190612073565b6106e2565b60405161020291906120a0565b60405180910390f35b34801561021757600080fd5b50610220610749565b60405161022d91906120a0565b60405180910390f35b34801561024257600080fd5b5061025d600480360381019061025891906120bb565b610753565b60405161026a9190612058565b60405180910390f35b34801561027f57600080fd5b5061029a60048036038101906102959190612073565b610782565b6040516102a791906120a0565b60405180910390f35b3480156102bc57600080fd5b506102c56107e9565b6040516102d2919061212a565b60405180910390f35b6102f560048036038101906102f09190612145565b6107f2565b005b34801561030357600080fd5b5061031e60048036038101906103199190611ffd565b610800565b60405161032b9190612058565b60405180910390f35b61034e60048036038101906103499190612073565b610837565b60405161035b91906120a0565b60405180910390f35b34801561037057600080fd5b5061038b60048036038101906103869190612185565b610a8e565b005b34801561039957600080fd5b506103b460048036038101906103af91906121c5565b610c95565b6040516103c191906120a0565b60405180910390f35b3480156103d657600080fd5b506103df610cdd565b6040516103ec9190611f0a565b60405180910390f35b34801561040157600080fd5b5061040a610d6f565b6040516104179190612201565b60405180910390f35b34801561042c57600080fd5b5061044760048036038101906104429190612073565b610d95565b604051610455929190611f45565b60405180910390f35b34801561046a57600080fd5b50610473610fce565b6040516104809190612201565b60405180910390f35b34801561049557600080fd5b506104b060048036038101906104ab9190611ffd565b610ff4565b6040516104bd9190612058565b60405180910390f35b3480156104d257600080fd5b506104ed60048036038101906104e89190611ffd565b61106b565b6040516104fa9190612058565b60405180910390f35b34801561050f57600080fd5b5061052a6004803603810190610525919061221c565b61108e565b60405161053791906120a0565b60405180910390f35b34801561054c57600080fd5b506105676004803603810190610562919061225c565b611115565b005b610583600480360381019061057e9190612073565b611449565b005b606060038054610594906122de565b80601f01602080910402602001604051908101604052809291908181526020018280546105c0906122de565b801561060d5780601f106105e25761010080835404028352916020019161060d565b820191906000526020600020905b8154815290600101906020018083116105f057829003601f168201915b5050505050905090565b600080600560009054906101000a900473ffffffffffffffffffffffffffffffffffffffff1673ffffffffffffffffffffffffffffffffffffffff166370a08231306040518263ffffffff1660e01b81526004016106759190612201565b602060405180830381865afa158015610692573d6000803e3d6000fd5b505050506040513d601f19601f820116820180604052508101906106b69190612324565b91504790509091565b6000806106ca611456565b90506106d781858561145e565b600191505092915050565b6000808211610726576040517f08c379a000000000000000000000000000000000000000000000000000000000815260040161071d9061239d565b60405180910390fd5b600080610731610617565b91509150610740848284611627565b92505050919050565b6000600254905090565b60008061075e611456565b905061076b8582856116cd565b610776858585611759565b60019150509392505050565b60008081116107c6576040517f08c379a00000000000000000000000000000000000000000000000000000000081526004016107bd9061239d565b60405180910390fd5b6000806107d1610617565b915091506107e0848383611627565b92505050919050565b60006012905090565b6107fc82826119d8565b5050565b60008061080b611456565b905061082c81858561081d858961108e565b61082791906123ec565b61145e565b600191505092915050565b6000806000610844610617565b9150915060008203610901576000600560009054906101000a900473ffffffffffffffffffffffffffffffffffffffff1690508073ffffffffffffffffffffffffffffffffffffffff166323b872dd3330886040518463ffffffff1660e01b81526004016108b493929190612420565b6020604051808303816000875af11580156108d3573d6000803e3d6000fd5b505050506040513d601f19601f820116820180604052508101906108f79190612483565b5081935050610a38565b348161090d91906124b0565b9050600081833461091e91906124e4565b6109289190612555565b90508085101561096d576040517f08c379a0000000000000000000000000000000000000000000000000000000008152600401610964906125f8565b60405180910390fd5b6000600560009054906101000a900473ffffffffffffffffffffffffffffffffffffffff1690508073ffffffffffffffffffffffffffffffffffffffff166323b872dd3330896040518463ffffffff1660e01b81526004016109d193929190612420565b6020604051808303816000875af11580156109f0573d6000803e3d6000fd5b505050506040513d601f19601f82011682018060405250810190610a149190612483565b508234610a1f610749565b610a2991906124e4565b610a339190612555565b945050505b610a423384611b3b565b83343373ffffffffffffffffffffffffffffffffffffffff167f06239653922ac7bea6aa2b19dc486b9361821d37712eb796adfd38d81de278ca60405160405180910390a45050919050565b600080610a99610617565b915091506000610aaa858484611627565b905083811015610aef576040517f08c379a0000000000000000000000000000000000000000000000000000000008152600401610ae6906126b0565b60405180910390fd5b600560009054906101000a900473ffffffffffffffffffffffffffffffffffffffff1673ffffffffffffffffffffffffffffffffffffffff166323b872dd3330886040518463ffffffff1660e01b8152600401610b4e93929190612420565b6020604051808303816000875af1158015610b6d573d6000803e3d6000fd5b505050506040513d601f19601f82011682018060405250810190610b919190612483565b5060003373ffffffffffffffffffffffffffffffffffffffff1685604051610bb890612701565b60006040518083038185875af1925050503d8060008114610bf5576040519150601f19603f3d011682016040523d82523d6000602084013e610bfa565b606091505b5050905080610c3e576040517f08c379a0000000000000000000000000000000000000000000000000000000008152600401610c3590612788565b60405180910390fd5b853373ffffffffffffffffffffffffffffffffffffffff167fd70caa09595c8288801ca58a02fd0960ef4982b210b2b9bf88bd5344c27cc4e884604051610c8591906120a0565b60405180910390a3505050505050565b60008060008373ffffffffffffffffffffffffffffffffffffffff1673ffffffffffffffffffffffffffffffffffffffff168152602001908152602001600020549050919050565b606060048054610cec906122de565b80601f0160208091040260200160405190810160405280929190818152602001828054610d18906122de565b8015610d655780601f10610d3a57610100808354040283529160200191610d65565b820191906000526020600020905b815481529060010190602001808311610d4857829003601f168201915b5050505050905090565b600660009054906101000a900473ffffffffffffffffffffffffffffffffffffffff1681565b60008060008311610ddb576040517f08c379a0000000000000000000000000000000000000000000000000000000008152600401610dd29061281a565b60405180910390fd5b600080610de6610617565b91509150610df2610749565b8582610dfe91906124e4565b610e089190612555565b9350610e12610749565b8583610e1e91906124e4565b610e289190612555565b9250610e343386611c9a565b60003373ffffffffffffffffffffffffffffffffffffffff1685604051610e5a90612701565b60006040518083038185875af1925050503d8060008114610e97576040519150601f19603f3d011682016040523d82523d6000602084013e610e9c565b606091505b5050905080610ee0576040517f08c379a0000000000000000000000000000000000000000000000000000000008152600401610ed7906128ac565b60405180910390fd5b600560009054906101000a900473ffffffffffffffffffffffffffffffffffffffff1673ffffffffffffffffffffffffffffffffffffffff1663a9059cbb33866040518363ffffffff1660e01b8152600401610f3d9291906128cc565b6020604051808303816000875af1158015610f5c573d6000803e3d6000fd5b505050506040513d601f19601f82011682018060405250810190610f809190612483565b5083853373ffffffffffffffffffffffffffffffffffffffff167f0fbf06c058b90cb038a618f8c2acbf6145f8b3570fd1fa56abb8f0f3f05b36e860405160405180910390a4505050915091565b600560009054906101000a900473ffffffffffffffffffffffffffffffffffffffff1681565b600080610fff611456565b9050600061100d828661108e565b905083811015611052576040517f08c379a000000000000000000000000000000000000000000000000000000000815260040161104990612967565b60405180910390fd5b61105f828686840361145e565b60019250505092915050565b600080611076611456565b9050611083818585611759565b600191505092915050565b6000600160008473ffffffffffffffffffffffffffffffffffffffff1673ffffffffffffffffffffffffffffffffffffffff16815260200190815260200160002060008373ffffffffffffffffffffffffffffffffffffffff1673ffffffffffffffffffffffffffffffffffffffff16815260200190815260200160002054905092915050565b600073ffffffffffffffffffffffffffffffffffffffff168173ffffffffffffffffffffffffffffffffffffffff1603611184576040517f08c379a000000000000000000000000000000000000000000000000000000000815260040161117b906129d3565b60405180910390fd5b600083116111c7576040517f08c379a00000000000000000000000000000000000000000000000000000000081526004016111be90612a3f565b60405180910390fd5b6000600660009054906101000a900473ffffffffffffffffffffffffffffffffffffffff1673ffffffffffffffffffffffffffffffffffffffff16631a788a02836040518263ffffffff1660e01b81526004016112249190612201565b6020604051808303816000875af1158015611243573d6000803e3d6000fd5b505050506040513d601f19601f820116820180604052508101906112679190612a74565b90503073ffffffffffffffffffffffffffffffffffffffff168173ffffffffffffffffffffffffffffffffffffffff16141580156112d25750600073ffffffffffffffffffffffffffffffffffffffff168173ffffffffffffffffffffffffffffffffffffffff1614155b611311576040517f08c379a000000000000000000000000000000000000000000000000000000000815260040161130890612aed565b60405180910390fd5b60008061131c610617565b91509150600061132d878484611627565b9050600560009054906101000a900473ffffffffffffffffffffffffffffffffffffffff1673ffffffffffffffffffffffffffffffffffffffff166323b872dd33308a6040518463ffffffff1660e01b815260040161138e93929190612420565b6020604051808303816000875af11580156113ad573d6000803e3d6000fd5b505050506040513d601f19601f820116820180604052508101906113d19190612483565b508373ffffffffffffffffffffffffffffffffffffffff1663389d9a408288336040518463ffffffff1660e01b815260040161140e929190612b0d565b6000604051808303818588803b15801561142757600080fd5b505af115801561143b573d6000803e3d6000fd5b505050505050505050505050565b61145381336119d8565b50565b600033905090565b600073ffffffffffffffffffffffffffffffffffffffff168373ffffffffffffffffffffffffffffffffffffffff16036114cd576040517f08c379a00000000000000000000000000000000000000000000000000000000081526004016114c490612ba8565b60405180910390fd5b600073ffffffffffffffffffffffffffffffffffffffff168273ffffffffffffffffffffffffffffffffffffffff160361153c576040517f08c379a000000000000000000000000000000000000000000000000000000000815260040161153390612c3a565b60405180910390fd5b80600160008573ffffffffffffffffffffffffffffffffffffffff1673ffffffffffffffffffffffffffffffffffffffff16815260200190815260200160002060008473ffffffffffffffffffffffffffffffffffffffff1673ffffffffffffffffffffffffffffffffffffffff168152602001908152602001600020819055508173ffffffffffffffffffffffffffffffffffffffff168373ffffffffffffffffffffffffffffffffffffffff167f8c5be1e5ebec7d5bd14f71427d1e84f3dd0314c0f7b2291e5b200ac8c7c3b9258360405161161a91906120a0565b60405180910390a3505050565b600080831180156116385750600082115b611677576040517f08c379a000000000000000000000000000000000000000000000000000000000815260040161166e90612ca6565b60405180910390fd5b6000806103e861168791906124b0565b8561169291906124e4565b905080846103e86116a391906124e4565b6116ad91906123ec565b83826116b991906124e4565b6116c39190612555565b9150509392505050565b60006116d9848461108e565b90507fffffffffffffffffffffffffffffffffffffffffffffffffffffffffffffffff81146117535781811015611745576040517f08c379a000000000000000000000000000000000000000000000000000000000815260040161173c90612d12565b60405180910390fd5b611752848484840361145e565b5b50505050565b600073ffffffffffffffffffffffffffffffffffffffff168373ffffffffffffffffffffffffffffffffffffffff16036117c8576040517f08c379a00000000000000000000000000000000000000000000000000000000081526004016117bf90612da4565b60405180910390fd5b600073ffffffffffffffffffffffffffffffffffffffff168273ffffffffffffffffffffffffffffffffffffffff1603611837576040517f08c379a000000000000000000000000000000000000000000000000000000000815260040161182e90612e36565b60405180910390fd5b611842838383611e70565b60008060008573ffffffffffffffffffffffffffffffffffffffff1673ffffffffffffffffffffffffffffffffffffffff168152602001908152602001600020549050818110156118c8576040517f08c379a00000000000000000000000000000000000000000000000000000000081526004016118bf90612ec8565b60405180910390fd5b8181036000808673ffffffffffffffffffffffffffffffffffffffff1673ffffffffffffffffffffffffffffffffffffffff16815260200190815260200160002081905550816000808573ffffffffffffffffffffffffffffffffffffffff1673ffffffffffffffffffffffffffffffffffffffff168152602001908152602001600020600082825461195b91906123ec565b925050819055508273ffffffffffffffffffffffffffffffffffffffff168473ffffffffffffffffffffffffffffffffffffffff167fddf252ad1be2c89b69c2b068fc378daa952ba7f163c4a11628f55a4df523b3ef846040516119bf91906120a0565b60405180910390a36119d2848484611e75565b50505050565b6000806119e3610617565b9150915060006119ff3434846119f991906124b0565b85611627565b905084811015611a44576040517f08c379a0000000000000000000000000000000000000000000000000000000008152600401611a3b906126b0565b60405180910390fd5b600560009054906101000a900473ffffffffffffffffffffffffffffffffffffffff1673ffffffffffffffffffffffffffffffffffffffff1663a9059cbb85836040518363ffffffff1660e01b8152600401611aa19291906128cc565b6020604051808303816000875af1158015611ac0573d6000803e3d6000fd5b505050506040513d601f19601f82011682018060405250810190611ae49190612483565b50348473ffffffffffffffffffffffffffffffffffffffff167f2ad51a6b79c1a35468e5cc340ef09004400e337e1d1149aab02294fdb7f8f05583604051611b2c91906120a0565b60405180910390a35050505050565b600073ffffffffffffffffffffffffffffffffffffffff168273ffffffffffffffffffffffffffffffffffffffff1603611baa576040517f08c379a0000000000000000000000000000000000000000000000000000000008152600401611ba190612f34565b60405180910390fd5b611bb660008383611e70565b8060026000828254611bc891906123ec565b92505081905550806000808473ffffffffffffffffffffffffffffffffffffffff1673ffffffffffffffffffffffffffffffffffffffff1681526020019081526020016000206000828254611c1d91906123ec565b925050819055508173ffffffffffffffffffffffffffffffffffffffff16600073ffffffffffffffffffffffffffffffffffffffff167fddf252ad1be2c89b69c2b068fc378daa952ba7f163c4a11628f55a4df523b3ef83604051611c8291906120a0565b60405180910390a3611c9660008383611e75565b5050565b600073ffffffffffffffffffffffffffffffffffffffff168273ffffffffffffffffffffffffffffffffffffffff1603611d09576040517f08c379a0000000000000000000000000000000000000000000000000000000008152600401611d0090612fc6565b60405180910390fd5b611d1582600083611e70565b60008060008473ffffffffffffffffffffffffffffffffffffffff1673ffffffffffffffffffffffffffffffffffffffff16815260200190815260200160002054905081811015611d9b576040517f08c379a0000000000000000000000000000000000000000000000000000000008152600401611d9290613058565b60405180910390fd5b8181036000808573ffffffffffffffffffffffffffffffffffffffff1673ffffffffffffffffffffffffffffffffffffffff168152602001908152602001600020819055508160026000828254611df291906124b0565b92505081905550600073ffffffffffffffffffffffffffffffffffffffff168373ffffffffffffffffffffffffffffffffffffffff167fddf252ad1be2c89b69c2b068fc378daa952ba7f163c4a11628f55a4df523b3ef84604051611e5791906120a0565b60405180910390a3611e6b83600084611e75565b505050565b505050565b505050565b600081519050919050565b600082825260208201905092915050565b60005b83811015611eb4578082015181840152602081019050611e99565b60008484015250505050565b6000601f19601f8301169050919050565b6000611edc82611e7a565b611ee68185611e85565b9350611ef6818560208601611e96565b611eff81611ec0565b840191505092915050565b60006020820190508181036000830152611f248184611ed1565b905092915050565b6000819050919050565b611f3f81611f2c565b82525050565b6000604082019050611f5a6000830185611f36565b611f676020830184611f36565b9392505050565b600080fd5b600073ffffffffffffffffffffffffffffffffffffffff82169050919050565b6000611f9e82611f73565b9050919050565b611fae81611f93565b8114611fb957600080fd5b50565b600081359050611fcb81611fa5565b92915050565b611fda81611f2c565b8114611fe557600080fd5b50565b600081359050611ff781611fd1565b92915050565b6000806040838503121561201457612013611f6e565b5b600061202285828601611fbc565b925050602061203385828601611fe8565b9150509250929050565b60008115159050919050565b6120528161203d565b82525050565b600060208201905061206d6000830184612049565b92915050565b60006020828403121561208957612088611f6e565b5b600061209784828501611fe8565b91505092915050565b60006020820190506120b56000830184611f36565b92915050565b6000806000606084860312156120d4576120d3611f6e565b5b60006120e286828701611fbc565b93505060206120f386828701611fbc565b925050604061210486828701611fe8565b9150509250925092565b600060ff82169050919050565b6121248161210e565b82525050565b600060208201905061213f600083018461211b565b92915050565b6000806040838503121561215c5761215b611f6e565b5b600061216a85828601611fe8565b925050602061217b85828601611fbc565b9150509250929050565b6000806040838503121561219c5761219b611f6e565b5b60006121aa85828601611fe8565b92505060206121bb85828601611fe8565b9150509250929050565b6000602082840312156121db576121da611f6e565b5b60006121e984828501611fbc565b91505092915050565b6121fb81611f93565b82525050565b600060208201905061221660008301846121f2565b92915050565b6000806040838503121561223357612232611f6e565b5b600061224185828601611fbc565b925050602061225285828601611fbc565b9150509250929050565b60008060006060848603121561227557612274611f6e565b5b600061228386828701611fe8565b935050602061229486828701611fe8565b92505060406122a586828701611fbc565b9150509250925092565b7f4e487b7100000000000000000000000000000000000000000000000000000000600052602260045260246000fd5b600060028204905060018216806122f657607f821691505b602082108103612309576123086122af565b5b50919050565b60008151905061231e81611fd1565b92915050565b60006020828403121561233a57612339611f6e565b5b60006123488482850161230f565b91505092915050565b7f45544820616d6f756e742063616e6e6f74206265207a65726f00000000000000600082015250565b6000612387601983611e85565b915061239282612351565b602082019050919050565b600060208201905081810360008301526123b68161237a565b9050919050565b7f4e487b7100000000000000000000000000000000000000000000000000000000600052601160045260246000fd5b60006123f782611f2c565b915061240283611f2c565b925082820190508082111561241a576124196123bd565b5b92915050565b600060608201905061243560008301866121f2565b61244260208301856121f2565b61244f6040830184611f36565b949350505050565b6124608161203d565b811461246b57600080fd5b50565b60008151905061247d81612457565b92915050565b60006020828403121561249957612498611f6e565b5b60006124a78482850161246e565b91505092915050565b60006124bb82611f2c565b91506124c683611f2c565b92508282039050818111156124de576124dd6123bd565b5b92915050565b60006124ef82611f2c565b91506124fa83611f2c565b925082820261250881611f2c565b9150828204841483151761251f5761251e6123bd565b5b5092915050565b7f4e487b7100000000000000000000000000000000000000000000000000000000600052601260045260246000fd5b600061256082611f2c565b915061256b83611f2c565b92508261257b5761257a612526565b5b828204905092915050565b7f496e73756666696369656e7420696e70757420616d6f756e74206f662045524360008201527f323020546f6b656e730000000000000000000000000000000000000000000000602082015250565b60006125e2602983611e85565b91506125ed82612586565b604082019050919050565b60006020820190508181036000830152612611816125d5565b9050919050565b7f416d6f756e74207377617070656420646f6573206e6f74206d65657420796f7560008201527f722073746970756c6174656420616d6f756e742c20726576657274696e67207360208201527f7761700000000000000000000000000000000000000000000000000000000000604082015250565b600061269a604383611e85565b91506126a582612618565b606082019050919050565b600060208201905081810360008301526126c98161268d565b9050919050565b600081905092915050565b50565b60006126eb6000836126d0565b91506126f6826126db565b600082019050919050565b600061270c826126de565b9150819050919050565b7f5472616e73616374696f6e206f662045544820746f20726563697069656e742060008201527f6661696c65640000000000000000000000000000000000000000000000000000602082015250565b6000612772602683611e85565b915061277d82612716565b604082019050919050565b600060208201905081810360008301526127a181612765565b9050919050565b7f506c6561736520696e70757420612076616c696420616d6f756e74206f66204c60008201527f5020546f6b656e7320746f206275726e2f72656465656d000000000000000000602082015250565b6000612804603783611e85565b915061280f826127a8565b604082019050919050565b60006020820190508181036000830152612833816127f7565b9050919050565b7f5472616e73616374696f6e206f662045746865722077617320756e737563636560008201527f737366756c000000000000000000000000000000000000000000000000000000602082015250565b6000612896602583611e85565b91506128a18261283a565b604082019050919050565b600060208201905081810360008301526128c581612889565b9050919050565b60006040820190506128e160008301856121f2565b6128ee6020830184611f36565b9392505050565b7f45524332303a2064656372656173656420616c6c6f77616e63652062656c6f7760008201527f207a65726f000000000000000000000000000000000000000000000000000000602082015250565b6000612951602583611e85565b915061295c826128f5565b604082019050919050565b6000602082019050818103600083015261298081612944565b9050919050565b7f546f6b656e206164647265737320697320696e76616c69640000000000000000600082015250565b60006129bd601883611e85565b91506129c882612987565b602082019050919050565b600060208201905081810360008301526129ec816129b0565b9050919050565b7f496e76616c696420696e70757420746f6b656e20616d6f756e74000000000000600082015250565b6000612a29601a83611e85565b9150612a34826129f3565b602082019050919050565b60006020820190508181036000830152612a5881612a1c565b9050919050565b600081519050612a6e81611fa5565b92915050565b600060208284031215612a8a57612a89611f6e565b5b6000612a9884828501612a5f565b91505092915050565b7f45786368616e67652061646472657373206e6f742076616c6964000000000000600082015250565b6000612ad7601a83611e85565b9150612ae282612aa1565b602082019050919050565b60006020820190508181036000830152612b0681612aca565b9050919050565b6000604082019050612b226000830185611f36565b612b2f60208301846121f2565b9392505050565b7f45524332303a20617070726f76652066726f6d20746865207a65726f2061646460008201527f7265737300000000000000000000000000000000000000000000000000000000602082015250565b6000612b92602483611e85565b9150612b9d82612b36565b604082019050919050565b60006020820190508181036000830152612bc181612b85565b9050919050565b7f45524332303a20617070726f766520746f20746865207a65726f20616464726560008201527f7373000000000000000000000000000000000000000000000000000000000000602082015250565b6000612c24602283611e85565b9150612c2f82612bc8565b604082019050919050565b60006020820190508181036000830152612c5381612c17565b9050919050565b7f546865726520617265206e6f2072657365727665730000000000000000000000600082015250565b6000612c90601583611e85565b9150612c9b82612c5a565b602082019050919050565b60006020820190508181036000830152612cbf81612c83565b9050919050565b7f45524332303a20696e73756666696369656e7420616c6c6f77616e6365000000600082015250565b6000612cfc601d83611e85565b9150612d0782612cc6565b602082019050919050565b60006020820190508181036000830152612d2b81612cef565b9050919050565b7f45524332303a207472616e736665722066726f6d20746865207a65726f20616460008201527f6472657373000000000000000000000000000000000000000000000000000000602082015250565b6000612d8e602583611e85565b9150612d9982612d32565b604082019050919050565b60006020820190508181036000830152612dbd81612d81565b9050919050565b7f45524332303a207472616e7366657220746f20746865207a65726f206164647260008201527f6573730000000000000000000000000000000000000000000000000000000000602082015250565b6000612e20602383611e85565b9150612e2b82612dc4565b604082019050919050565b60006020820190508181036000830152612e4f81612e13565b9050919050565b7f45524332303a207472616e7366657220616d6f756e742065786365656473206260008201527f616c616e63650000000000000000000000000000000000000000000000000000602082015250565b6000612eb2602683611e85565b9150612ebd82612e56565b604082019050919050565b60006020820190508181036000830152612ee181612ea5565b9050919050565b7f45524332303a206d696e7420746f20746865207a65726f206164647265737300600082015250565b6000612f1e601f83611e85565b9150612f2982612ee8565b602082019050919050565b60006020820190508181036000830152612f4d81612f11565b9050919050565b7f45524332303a206275726e2066726f6d20746865207a65726f2061646472657360008201527f7300000000000000000000000000000000000000000000000000000000000000602082015250565b6000612fb0602183611e85565b9150612fbb82612f54565b604082019050919050565b60006020820190508181036000830152612fdf81612fa3565b9050919050565b7f45524332303a206275726e20616d6f756e7420657863656564732062616c616e60008201527f6365000000000000000000000000000000000000000000000000000000000000602082015250565b6000613042602283611e85565b915061304d82612fe6565b604082019050919050565b6000602082019050818103600083015261307181613035565b905091905056fea2646970667358221220e4060ea57bde75fdc3d58e0c1a53d1724bbb2a77afb51779bbbcd49a7a62916264736f6c63430008110033",
					"opcodes": "PUSH1 0x80 PUSH1 0x40 MSTORE CALLVALUE DUP1 ISZERO PUSH3 0x11 JUMPI PUSH1 0x0 DUP1 REVERT JUMPDEST POP PUSH1 0x40 MLOAD PUSH3 0x3702 CODESIZE SUB DUP1 PUSH3 0x3702 DUP4 CODECOPY DUP2 DUP2 ADD PUSH1 0x40 MSTORE DUP2 ADD SWAP1 PUSH3 0x37 SWAP2 SWAP1 PUSH3 0x22E JUMP JUMPDEST PUSH1 0x40 MLOAD DUP1 PUSH1 0x40 ADD PUSH1 0x40 MSTORE DUP1 PUSH1 0x7 DUP2 MSTORE PUSH1 0x20 ADD PUSH32 0x5377617020563100000000000000000000000000000000000000000000000000 DUP2 MSTORE POP PUSH1 0x40 MLOAD DUP1 PUSH1 0x40 ADD PUSH1 0x40 MSTORE DUP1 PUSH1 0x7 DUP2 MSTORE PUSH1 0x20 ADD PUSH32 0x537761702D563100000000000000000000000000000000000000000000000000 DUP2 MSTORE POP DUP2 PUSH1 0x3 SWAP1 DUP2 PUSH3 0xB4 SWAP2 SWAP1 PUSH3 0x4DA JUMP JUMPDEST POP DUP1 PUSH1 0x4 SWAP1 DUP2 PUSH3 0xC6 SWAP2 SWAP1 PUSH3 0x4DA JUMP JUMPDEST POP POP POP PUSH1 0x0 PUSH20 0xFFFFFFFFFFFFFFFFFFFFFFFFFFFFFFFFFFFFFFFF AND DUP2 PUSH20 0xFFFFFFFFFFFFFFFFFFFFFFFFFFFFFFFFFFFFFFFF AND SUB PUSH3 0x13B JUMPI PUSH1 0x40 MLOAD PUSH32 0x8C379A000000000000000000000000000000000000000000000000000000000 DUP2 MSTORE PUSH1 0x4 ADD PUSH3 0x132 SWAP1 PUSH3 0x622 JUMP JUMPDEST PUSH1 0x40 MLOAD DUP1 SWAP2 SUB SWAP1 REVERT JUMPDEST DUP1 PUSH1 0x5 PUSH1 0x0 PUSH2 0x100 EXP DUP2 SLOAD DUP2 PUSH20 0xFFFFFFFFFFFFFFFFFFFFFFFFFFFFFFFFFFFFFFFF MUL NOT AND SWAP1 DUP4 PUSH20 0xFFFFFFFFFFFFFFFFFFFFFFFFFFFFFFFFFFFFFFFF AND MUL OR SWAP1 SSTORE POP CALLER PUSH1 0x6 PUSH1 0x0 PUSH2 0x100 EXP DUP2 SLOAD DUP2 PUSH20 0xFFFFFFFFFFFFFFFFFFFFFFFFFFFFFFFFFFFFFFFF MUL NOT AND SWAP1 DUP4 PUSH20 0xFFFFFFFFFFFFFFFFFFFFFFFFFFFFFFFFFFFFFFFF AND MUL OR SWAP1 SSTORE POP POP PUSH3 0x644 JUMP JUMPDEST PUSH1 0x0 DUP1 REVERT JUMPDEST PUSH1 0x0 PUSH20 0xFFFFFFFFFFFFFFFFFFFFFFFFFFFFFFFFFFFFFFFF DUP3 AND SWAP1 POP SWAP2 SWAP1 POP JUMP JUMPDEST PUSH1 0x0 PUSH3 0x1F6 DUP3 PUSH3 0x1C9 JUMP JUMPDEST SWAP1 POP SWAP2 SWAP1 POP JUMP JUMPDEST PUSH3 0x208 DUP2 PUSH3 0x1E9 JUMP JUMPDEST DUP2 EQ PUSH3 0x214 JUMPI PUSH1 0x0 DUP1 REVERT JUMPDEST POP JUMP JUMPDEST PUSH1 0x0 DUP2 MLOAD SWAP1 POP PUSH3 0x228 DUP2 PUSH3 0x1FD JUMP JUMPDEST SWAP3 SWAP2 POP POP JUMP JUMPDEST PUSH1 0x0 PUSH1 0x20 DUP3 DUP5 SUB SLT ISZERO PUSH3 0x247 JUMPI PUSH3 0x246 PUSH3 0x1C4 JUMP JUMPDEST JUMPDEST PUSH1 0x0 PUSH3 0x257 DUP5 DUP3 DUP6 ADD PUSH3 0x217 JUMP JUMPDEST SWAP2 POP POP SWAP3 SWAP2 POP POP JUMP JUMPDEST PUSH1 0x0 DUP2 MLOAD SWAP1 POP SWAP2 SWAP1 POP JUMP JUMPDEST PUSH32 0x4E487B7100000000000000000000000000000000000000000000000000000000 PUSH1 0x0 MSTORE PUSH1 0x41 PUSH1 0x4 MSTORE PUSH1 0x24 PUSH1 0x0 REVERT JUMPDEST PUSH32 0x4E487B7100000000000000000000000000000000000000000000000000000000 PUSH1 0x0 MSTORE PUSH1 0x22 PUSH1 0x4 MSTORE PUSH1 0x24 PUSH1 0x0 REVERT JUMPDEST PUSH1 0x0 PUSH1 0x2 DUP3 DIV SWAP1 POP PUSH1 0x1 DUP3 AND DUP1 PUSH3 0x2E2 JUMPI PUSH1 0x7F DUP3 AND SWAP2 POP JUMPDEST PUSH1 0x20 DUP3 LT DUP2 SUB PUSH3 0x2F8 JUMPI PUSH3 0x2F7 PUSH3 0x29A JUMP JUMPDEST JUMPDEST POP SWAP2 SWAP1 POP JUMP JUMPDEST PUSH1 0x0 DUP2 SWAP1 POP DUP2 PUSH1 0x0 MSTORE PUSH1 0x20 PUSH1 0x0 KECCAK256 SWAP1 POP SWAP2 SWAP1 POP JUMP JUMPDEST PUSH1 0x0 PUSH1 0x20 PUSH1 0x1F DUP4 ADD DIV SWAP1 POP SWAP2 SWAP1 POP JUMP JUMPDEST PUSH1 0x0 DUP3 DUP3 SHL SWAP1 POP SWAP3 SWAP2 POP POP JUMP JUMPDEST PUSH1 0x0 PUSH1 0x8 DUP4 MUL PUSH3 0x362 PUSH32 0xFFFFFFFFFFFFFFFFFFFFFFFFFFFFFFFFFFFFFFFFFFFFFFFFFFFFFFFFFFFFFFFF DUP3 PUSH3 0x323 JUMP JUMPDEST PUSH3 0x36E DUP7 DUP4 PUSH3 0x323 JUMP JUMPDEST SWAP6 POP DUP1 NOT DUP5 AND SWAP4 POP DUP1 DUP7 AND DUP5 OR SWAP3 POP POP POP SWAP4 SWAP3 POP POP POP JUMP JUMPDEST PUSH1 0x0 DUP2 SWAP1 POP SWAP2 SWAP1 POP JUMP JUMPDEST PUSH1 0x0 DUP2 SWAP1 POP SWAP2 SWAP1 POP JUMP JUMPDEST PUSH1 0x0 PUSH3 0x3BB PUSH3 0x3B5 PUSH3 0x3AF DUP5 PUSH3 0x386 JUMP JUMPDEST PUSH3 0x390 JUMP JUMPDEST PUSH3 0x386 JUMP JUMPDEST SWAP1 POP SWAP2 SWAP1 POP JUMP JUMPDEST PUSH1 0x0 DUP2 SWAP1 POP SWAP2 SWAP1 POP JUMP JUMPDEST PUSH3 0x3D7 DUP4 PUSH3 0x39A JUMP JUMPDEST PUSH3 0x3EF PUSH3 0x3E6 DUP3 PUSH3 0x3C2 JUMP JUMPDEST DUP5 DUP5 SLOAD PUSH3 0x330 JUMP JUMPDEST DUP3 SSTORE POP POP POP POP JUMP JUMPDEST PUSH1 0x0 SWAP1 JUMP JUMPDEST PUSH3 0x406 PUSH3 0x3F7 JUMP JUMPDEST PUSH3 0x413 DUP2 DUP5 DUP5 PUSH3 0x3CC JUMP JUMPDEST POP POP POP JUMP JUMPDEST JUMPDEST DUP2 DUP2 LT ISZERO PUSH3 0x43B JUMPI PUSH3 0x42F PUSH1 0x0 DUP3 PUSH3 0x3FC JUMP JUMPDEST PUSH1 0x1 DUP2 ADD SWAP1 POP PUSH3 0x419 JUMP JUMPDEST POP POP JUMP JUMPDEST PUSH1 0x1F DUP3 GT ISZERO PUSH3 0x48A JUMPI PUSH3 0x454 DUP2 PUSH3 0x2FE JUMP JUMPDEST PUSH3 0x45F DUP5 PUSH3 0x313 JUMP JUMPDEST DUP2 ADD PUSH1 0x20 DUP6 LT ISZERO PUSH3 0x46F JUMPI DUP2 SWAP1 POP JUMPDEST PUSH3 0x487 PUSH3 0x47E DUP6 PUSH3 0x313 JUMP JUMPDEST DUP4 ADD DUP3 PUSH3 0x418 JUMP JUMPDEST POP POP JUMPDEST POP POP POP JUMP JUMPDEST PUSH1 0x0 DUP3 DUP3 SHR SWAP1 POP SWAP3 SWAP2 POP POP JUMP JUMPDEST PUSH1 0x0 PUSH3 0x4AF PUSH1 0x0 NOT DUP5 PUSH1 0x8 MUL PUSH3 0x48F JUMP JUMPDEST NOT DUP1 DUP4 AND SWAP2 POP POP SWAP3 SWAP2 POP POP JUMP JUMPDEST PUSH1 0x0 PUSH3 0x4CA DUP4 DUP4 PUSH3 0x49C JUMP JUMPDEST SWAP2 POP DUP3 PUSH1 0x2 MUL DUP3 OR SWAP1 POP SWAP3 SWAP2 POP POP JUMP JUMPDEST PUSH3 0x4E5 DUP3 PUSH3 0x260 JUMP JUMPDEST PUSH8 0xFFFFFFFFFFFFFFFF DUP2 GT ISZERO PUSH3 0x501 JUMPI PUSH3 0x500 PUSH3 0x26B JUMP JUMPDEST JUMPDEST PUSH3 0x50D DUP3 SLOAD PUSH3 0x2C9 JUMP JUMPDEST PUSH3 0x51A DUP3 DUP3 DUP6 PUSH3 0x43F JUMP JUMPDEST PUSH1 0x0 PUSH1 0x20 SWAP1 POP PUSH1 0x1F DUP4 GT PUSH1 0x1 DUP2 EQ PUSH3 0x552 JUMPI PUSH1 0x0 DUP5 ISZERO PUSH3 0x53D JUMPI DUP3 DUP8 ADD MLOAD SWAP1 POP JUMPDEST PUSH3 0x549 DUP6 DUP3 PUSH3 0x4BC JUMP JUMPDEST DUP7 SSTORE POP PUSH3 0x5B9 JUMP JUMPDEST PUSH1 0x1F NOT DUP5 AND PUSH3 0x562 DUP7 PUSH3 0x2FE JUMP JUMPDEST PUSH1 0x0 JUMPDEST DUP3 DUP2 LT ISZERO PUSH3 0x58C JUMPI DUP5 DUP10 ADD MLOAD DUP3 SSTORE PUSH1 0x1 DUP3 ADD SWAP2 POP PUSH1 0x20 DUP6 ADD SWAP5 POP PUSH1 0x20 DUP2 ADD SWAP1 POP PUSH3 0x565 JUMP JUMPDEST DUP7 DUP4 LT ISZERO PUSH3 0x5AC JUMPI DUP5 DUP10 ADD MLOAD PUSH3 0x5A8 PUSH1 0x1F DUP10 AND DUP3 PUSH3 0x49C JUMP JUMPDEST DUP4 SSTORE POP JUMPDEST PUSH1 0x1 PUSH1 0x2 DUP9 MUL ADD DUP9 SSTORE POP POP POP JUMPDEST POP POP POP POP POP POP JUMP JUMPDEST PUSH1 0x0 DUP3 DUP3 MSTORE PUSH1 0x20 DUP3 ADD SWAP1 POP SWAP3 SWAP2 POP POP JUMP JUMPDEST PUSH32 0x496E76616C696420616464726573730000000000000000000000000000000000 PUSH1 0x0 DUP3 ADD MSTORE POP JUMP JUMPDEST PUSH1 0x0 PUSH3 0x60A PUSH1 0xF DUP4 PUSH3 0x5C1 JUMP JUMPDEST SWAP2 POP PUSH3 0x617 DUP3 PUSH3 0x5D2 JUMP JUMPDEST PUSH1 0x20 DUP3 ADD SWAP1 POP SWAP2 SWAP1 POP JUMP JUMPDEST PUSH1 0x0 PUSH1 0x20 DUP3 ADD SWAP1 POP DUP2 DUP2 SUB PUSH1 0x0 DUP4 ADD MSTORE PUSH3 0x63D DUP2 PUSH3 0x5FB JUMP JUMPDEST SWAP1 POP SWAP2 SWAP1 POP JUMP JUMPDEST PUSH2 0x30AE DUP1 PUSH3 0x654 PUSH1 0x0 CODECOPY PUSH1 0x0 RETURN INVALID PUSH1 0x80 PUSH1 0x40 MSTORE PUSH1 0x4 CALLDATASIZE LT PUSH2 0x135 JUMPI PUSH1 0x0 CALLDATALOAD PUSH1 0xE0 SHR DUP1 PUSH4 0x64338A30 GT PUSH2 0xAB JUMPI DUP1 PUSH4 0x9D76EA58 GT PUSH2 0x6F JUMPI DUP1 PUSH4 0x9D76EA58 EQ PUSH2 0x45E JUMPI DUP1 PUSH4 0xA457C2D7 EQ PUSH2 0x489 JUMPI DUP1 PUSH4 0xA9059CBB EQ PUSH2 0x4C6 JUMPI DUP1 PUSH4 0xDD62ED3E EQ PUSH2 0x503 JUMPI DUP1 PUSH4 0xF7A7E324 EQ PUSH2 0x540 JUMPI DUP1 PUSH4 0xF979DCD7 EQ PUSH2 0x569 JUMPI PUSH2 0x135 JUMP JUMPDEST DUP1 PUSH4 0x64338A30 EQ PUSH2 0x364 JUMPI DUP1 PUSH4 0x70A08231 EQ PUSH2 0x38D JUMPI DUP1 PUSH4 0x95D89B41 EQ PUSH2 0x3CA JUMPI DUP1 PUSH4 0x966DAE0E EQ PUSH2 0x3F5 JUMPI DUP1 PUSH4 0x9C8F9F23 EQ PUSH2 0x420 JUMPI PUSH2 0x135 JUMP JUMPDEST DUP1 PUSH4 0x23B872DD GT PUSH2 0xFD JUMPI DUP1 PUSH4 0x23B872DD EQ PUSH2 0x236 JUMPI DUP1 PUSH4 0x2C0C60A4 EQ PUSH2 0x273 JUMPI DUP1 PUSH4 0x313CE567 EQ PUSH2 0x2B0 JUMPI DUP1 PUSH4 0x389D9A40 EQ PUSH2 0x2DB JUMPI DUP1 PUSH4 0x39509351 EQ PUSH2 0x2F7 JUMPI DUP1 PUSH4 0x51C6590A EQ PUSH2 0x334 JUMPI PUSH2 0x135 JUMP JUMPDEST DUP1 PUSH4 0x6FDDE03 EQ PUSH2 0x13A JUMPI DUP1 PUSH4 0x902F1AC EQ PUSH2 0x165 JUMPI DUP1 PUSH4 0x95EA7B3 EQ PUSH2 0x191 JUMPI DUP1 PUSH4 0xF8070B4 EQ PUSH2 0x1CE JUMPI DUP1 PUSH4 0x18160DDD EQ PUSH2 0x20B JUMPI JUMPDEST PUSH1 0x0 DUP1 REVERT JUMPDEST CALLVALUE DUP1 ISZERO PUSH2 0x146 JUMPI PUSH1 0x0 DUP1 REVERT JUMPDEST POP PUSH2 0x14F PUSH2 0x585 JUMP JUMPDEST PUSH1 0x40 MLOAD PUSH2 0x15C SWAP2 SWAP1 PUSH2 0x1F0A JUMP JUMPDEST PUSH1 0x40 MLOAD DUP1 SWAP2 SUB SWAP1 RETURN JUMPDEST CALLVALUE DUP1 ISZERO PUSH2 0x171 JUMPI PUSH1 0x0 DUP1 REVERT JUMPDEST POP PUSH2 0x17A PUSH2 0x617 JUMP JUMPDEST PUSH1 0x40 MLOAD PUSH2 0x188 SWAP3 SWAP2 SWAP1 PUSH2 0x1F45 JUMP JUMPDEST PUSH1 0x40 MLOAD DUP1 SWAP2 SUB SWAP1 RETURN JUMPDEST CALLVALUE DUP1 ISZERO PUSH2 0x19D JUMPI PUSH1 0x0 DUP1 REVERT JUMPDEST POP PUSH2 0x1B8 PUSH1 0x4 DUP1 CALLDATASIZE SUB DUP2 ADD SWAP1 PUSH2 0x1B3 SWAP2 SWAP1 PUSH2 0x1FFD JUMP JUMPDEST PUSH2 0x6BF JUMP JUMPDEST PUSH1 0x40 MLOAD PUSH2 0x1C5 SWAP2 SWAP1 PUSH2 0x2058 JUMP JUMPDEST PUSH1 0x40 MLOAD DUP1 SWAP2 SUB SWAP1 RETURN JUMPDEST CALLVALUE DUP1 ISZERO PUSH2 0x1DA JUMPI PUSH1 0x0 DUP1 REVERT JUMPDEST POP PUSH2 0x1F5 PUSH1 0x4 DUP1 CALLDATASIZE SUB DUP2 ADD SWAP1 PUSH2 0x1F0 SWAP2 SWAP1 PUSH2 0x2073 JUMP JUMPDEST PUSH2 0x6E2 JUMP JUMPDEST PUSH1 0x40 MLOAD PUSH2 0x202 SWAP2 SWAP1 PUSH2 0x20A0 JUMP JUMPDEST PUSH1 0x40 MLOAD DUP1 SWAP2 SUB SWAP1 RETURN JUMPDEST CALLVALUE DUP1 ISZERO PUSH2 0x217 JUMPI PUSH1 0x0 DUP1 REVERT JUMPDEST POP PUSH2 0x220 PUSH2 0x749 JUMP JUMPDEST PUSH1 0x40 MLOAD PUSH2 0x22D SWAP2 SWAP1 PUSH2 0x20A0 JUMP JUMPDEST PUSH1 0x40 MLOAD DUP1 SWAP2 SUB SWAP1 RETURN JUMPDEST CALLVALUE DUP1 ISZERO PUSH2 0x242 JUMPI PUSH1 0x0 DUP1 REVERT JUMPDEST POP PUSH2 0x25D PUSH1 0x4 DUP1 CALLDATASIZE SUB DUP2 ADD SWAP1 PUSH2 0x258 SWAP2 SWAP1 PUSH2 0x20BB JUMP JUMPDEST PUSH2 0x753 JUMP JUMPDEST PUSH1 0x40 MLOAD PUSH2 0x26A SWAP2 SWAP1 PUSH2 0x2058 JUMP JUMPDEST PUSH1 0x40 MLOAD DUP1 SWAP2 SUB SWAP1 RETURN JUMPDEST CALLVALUE DUP1 ISZERO PUSH2 0x27F JUMPI PUSH1 0x0 DUP1 REVERT JUMPDEST POP PUSH2 0x29A PUSH1 0x4 DUP1 CALLDATASIZE SUB DUP2 ADD SWAP1 PUSH2 0x295 SWAP2 SWAP1 PUSH2 0x2073 JUMP JUMPDEST PUSH2 0x782 JUMP JUMPDEST PUSH1 0x40 MLOAD PUSH2 0x2A7 SWAP2 SWAP1 PUSH2 0x20A0 JUMP JUMPDEST PUSH1 0x40 MLOAD DUP1 SWAP2 SUB SWAP1 RETURN JUMPDEST CALLVALUE DUP1 ISZERO PUSH2 0x2BC JUMPI PUSH1 0x0 DUP1 REVERT JUMPDEST POP PUSH2 0x2C5 PUSH2 0x7E9 JUMP JUMPDEST PUSH1 0x40 MLOAD PUSH2 0x2D2 SWAP2 SWAP1 PUSH2 0x212A JUMP JUMPDEST PUSH1 0x40 MLOAD DUP1 SWAP2 SUB SWAP1 RETURN JUMPDEST PUSH2 0x2F5 PUSH1 0x4 DUP1 CALLDATASIZE SUB DUP2 ADD SWAP1 PUSH2 0x2F0 SWAP2 SWAP1 PUSH2 0x2145 JUMP JUMPDEST PUSH2 0x7F2 JUMP JUMPDEST STOP JUMPDEST CALLVALUE DUP1 ISZERO PUSH2 0x303 JUMPI PUSH1 0x0 DUP1 REVERT JUMPDEST POP PUSH2 0x31E PUSH1 0x4 DUP1 CALLDATASIZE SUB DUP2 ADD SWAP1 PUSH2 0x319 SWAP2 SWAP1 PUSH2 0x1FFD JUMP JUMPDEST PUSH2 0x800 JUMP JUMPDEST PUSH1 0x40 MLOAD PUSH2 0x32B SWAP2 SWAP1 PUSH2 0x2058 JUMP JUMPDEST PUSH1 0x40 MLOAD DUP1 SWAP2 SUB SWAP1 RETURN JUMPDEST PUSH2 0x34E PUSH1 0x4 DUP1 CALLDATASIZE SUB DUP2 ADD SWAP1 PUSH2 0x349 SWAP2 SWAP1 PUSH2 0x2073 JUMP JUMPDEST PUSH2 0x837 JUMP JUMPDEST PUSH1 0x40 MLOAD PUSH2 0x35B SWAP2 SWAP1 PUSH2 0x20A0 JUMP JUMPDEST PUSH1 0x40 MLOAD DUP1 SWAP2 SUB SWAP1 RETURN JUMPDEST CALLVALUE DUP1 ISZERO PUSH2 0x370 JUMPI PUSH1 0x0 DUP1 REVERT JUMPDEST POP PUSH2 0x38B PUSH1 0x4 DUP1 CALLDATASIZE SUB DUP2 ADD SWAP1 PUSH2 0x386 SWAP2 SWAP1 PUSH2 0x2185 JUMP JUMPDEST PUSH2 0xA8E JUMP JUMPDEST STOP JUMPDEST CALLVALUE DUP1 ISZERO PUSH2 0x399 JUMPI PUSH1 0x0 DUP1 REVERT JUMPDEST POP PUSH2 0x3B4 PUSH1 0x4 DUP1 CALLDATASIZE SUB DUP2 ADD SWAP1 PUSH2 0x3AF SWAP2 SWAP1 PUSH2 0x21C5 JUMP JUMPDEST PUSH2 0xC95 JUMP JUMPDEST PUSH1 0x40 MLOAD PUSH2 0x3C1 SWAP2 SWAP1 PUSH2 0x20A0 JUMP JUMPDEST PUSH1 0x40 MLOAD DUP1 SWAP2 SUB SWAP1 RETURN JUMPDEST CALLVALUE DUP1 ISZERO PUSH2 0x3D6 JUMPI PUSH1 0x0 DUP1 REVERT JUMPDEST POP PUSH2 0x3DF PUSH2 0xCDD JUMP JUMPDEST PUSH1 0x40 MLOAD PUSH2 0x3EC SWAP2 SWAP1 PUSH2 0x1F0A JUMP JUMPDEST PUSH1 0x40 MLOAD DUP1 SWAP2 SUB SWAP1 RETURN JUMPDEST CALLVALUE DUP1 ISZERO PUSH2 0x401 JUMPI PUSH1 0x0 DUP1 REVERT JUMPDEST POP PUSH2 0x40A PUSH2 0xD6F JUMP JUMPDEST PUSH1 0x40 MLOAD PUSH2 0x417 SWAP2 SWAP1 PUSH2 0x2201 JUMP JUMPDEST PUSH1 0x40 MLOAD DUP1 SWAP2 SUB SWAP1 RETURN JUMPDEST CALLVALUE DUP1 ISZERO PUSH2 0x42C JUMPI PUSH1 0x0 DUP1 REVERT JUMPDEST POP PUSH2 0x447 PUSH1 0x4 DUP1 CALLDATASIZE SUB DUP2 ADD SWAP1 PUSH2 0x442 SWAP2 SWAP1 PUSH2 0x2073 JUMP JUMPDEST PUSH2 0xD95 JUMP JUMPDEST PUSH1 0x40 MLOAD PUSH2 0x455 SWAP3 SWAP2 SWAP1 PUSH2 0x1F45 JUMP JUMPDEST PUSH1 0x40 MLOAD DUP1 SWAP2 SUB SWAP1 RETURN JUMPDEST CALLVALUE DUP1 ISZERO PUSH2 0x46A JUMPI PUSH1 0x0 DUP1 REVERT JUMPDEST POP PUSH2 0x473 PUSH2 0xFCE JUMP JUMPDEST PUSH1 0x40 MLOAD PUSH2 0x480 SWAP2 SWAP1 PUSH2 0x2201 JUMP JUMPDEST PUSH1 0x40 MLOAD DUP1 SWAP2 SUB SWAP1 RETURN JUMPDEST CALLVALUE DUP1 ISZERO PUSH2 0x495 JUMPI PUSH1 0x0 DUP1 REVERT JUMPDEST POP PUSH2 0x4B0 PUSH1 0x4 DUP1 CALLDATASIZE SUB DUP2 ADD SWAP1 PUSH2 0x4AB SWAP2 SWAP1 PUSH2 0x1FFD JUMP JUMPDEST PUSH2 0xFF4 JUMP JUMPDEST PUSH1 0x40 MLOAD PUSH2 0x4BD SWAP2 SWAP1 PUSH2 0x2058 JUMP JUMPDEST PUSH1 0x40 MLOAD DUP1 SWAP2 SUB SWAP1 RETURN JUMPDEST CALLVALUE DUP1 ISZERO PUSH2 0x4D2 JUMPI PUSH1 0x0 DUP1 REVERT JUMPDEST POP PUSH2 0x4ED PUSH1 0x4 DUP1 CALLDATASIZE SUB DUP2 ADD SWAP1 PUSH2 0x4E8 SWAP2 SWAP1 PUSH2 0x1FFD JUMP JUMPDEST PUSH2 0x106B JUMP JUMPDEST PUSH1 0x40 MLOAD PUSH2 0x4FA SWAP2 SWAP1 PUSH2 0x2058 JUMP JUMPDEST PUSH1 0x40 MLOAD DUP1 SWAP2 SUB SWAP1 RETURN JUMPDEST CALLVALUE DUP1 ISZERO PUSH2 0x50F JUMPI PUSH1 0x0 DUP1 REVERT JUMPDEST POP PUSH2 0x52A PUSH1 0x4 DUP1 CALLDATASIZE SUB DUP2 ADD SWAP1 PUSH2 0x525 SWAP2 SWAP1 PUSH2 0x221C JUMP JUMPDEST PUSH2 0x108E JUMP JUMPDEST PUSH1 0x40 MLOAD PUSH2 0x537 SWAP2 SWAP1 PUSH2 0x20A0 JUMP JUMPDEST PUSH1 0x40 MLOAD DUP1 SWAP2 SUB SWAP1 RETURN JUMPDEST CALLVALUE DUP1 ISZERO PUSH2 0x54C JUMPI PUSH1 0x0 DUP1 REVERT JUMPDEST POP PUSH2 0x567 PUSH1 0x4 DUP1 CALLDATASIZE SUB DUP2 ADD SWAP1 PUSH2 0x562 SWAP2 SWAP1 PUSH2 0x225C JUMP JUMPDEST PUSH2 0x1115 JUMP JUMPDEST STOP JUMPDEST PUSH2 0x583 PUSH1 0x4 DUP1 CALLDATASIZE SUB DUP2 ADD SWAP1 PUSH2 0x57E SWAP2 SWAP1 PUSH2 0x2073 JUMP JUMPDEST PUSH2 0x1449 JUMP JUMPDEST STOP JUMPDEST PUSH1 0x60 PUSH1 0x3 DUP1 SLOAD PUSH2 0x594 SWAP1 PUSH2 0x22DE JUMP JUMPDEST DUP1 PUSH1 0x1F ADD PUSH1 0x20 DUP1 SWAP2 DIV MUL PUSH1 0x20 ADD PUSH1 0x40 MLOAD SWAP1 DUP2 ADD PUSH1 0x40 MSTORE DUP1 SWAP3 SWAP2 SWAP1 DUP2 DUP2 MSTORE PUSH1 0x20 ADD DUP3 DUP1 SLOAD PUSH2 0x5C0 SWAP1 PUSH2 0x22DE JUMP JUMPDEST DUP1 ISZERO PUSH2 0x60D JUMPI DUP1 PUSH1 0x1F LT PUSH2 0x5E2 JUMPI PUSH2 0x100 DUP1 DUP4 SLOAD DIV MUL DUP4 MSTORE SWAP2 PUSH1 0x20 ADD SWAP2 PUSH2 0x60D JUMP JUMPDEST DUP3 ADD SWAP2 SWAP1 PUSH1 0x0 MSTORE PUSH1 0x20 PUSH1 0x0 KECCAK256 SWAP1 JUMPDEST DUP2 SLOAD DUP2 MSTORE SWAP1 PUSH1 0x1 ADD SWAP1 PUSH1 0x20 ADD DUP1 DUP4 GT PUSH2 0x5F0 JUMPI DUP3 SWAP1 SUB PUSH1 0x1F AND DUP3 ADD SWAP2 JUMPDEST POP POP POP POP POP SWAP1 POP SWAP1 JUMP JUMPDEST PUSH1 0x0 DUP1 PUSH1 0x5 PUSH1 0x0 SWAP1 SLOAD SWAP1 PUSH2 0x100 EXP SWAP1 DIV PUSH20 0xFFFFFFFFFFFFFFFFFFFFFFFFFFFFFFFFFFFFFFFF AND PUSH20 0xFFFFFFFFFFFFFFFFFFFFFFFFFFFFFFFFFFFFFFFF AND PUSH4 0x70A08231 ADDRESS PUSH1 0x40 MLOAD DUP3 PUSH4 0xFFFFFFFF AND PUSH1 0xE0 SHL DUP2 MSTORE PUSH1 0x4 ADD PUSH2 0x675 SWAP2 SWAP1 PUSH2 0x2201 JUMP JUMPDEST PUSH1 0x20 PUSH1 0x40 MLOAD DUP1 DUP4 SUB DUP2 DUP7 GAS STATICCALL ISZERO DUP1 ISZERO PUSH2 0x692 JUMPI RETURNDATASIZE PUSH1 0x0 DUP1 RETURNDATACOPY RETURNDATASIZE PUSH1 0x0 REVERT JUMPDEST POP POP POP POP PUSH1 0x40 MLOAD RETURNDATASIZE PUSH1 0x1F NOT PUSH1 0x1F DUP3 ADD AND DUP3 ADD DUP1 PUSH1 0x40 MSTORE POP DUP2 ADD SWAP1 PUSH2 0x6B6 SWAP2 SWAP1 PUSH2 0x2324 JUMP JUMPDEST SWAP2 POP SELFBALANCE SWAP1 POP SWAP1 SWAP2 JUMP JUMPDEST PUSH1 0x0 DUP1 PUSH2 0x6CA PUSH2 0x1456 JUMP JUMPDEST SWAP1 POP PUSH2 0x6D7 DUP2 DUP6 DUP6 PUSH2 0x145E JUMP JUMPDEST PUSH1 0x1 SWAP2 POP POP SWAP3 SWAP2 POP POP JUMP JUMPDEST PUSH1 0x0 DUP1 DUP3 GT PUSH2 0x726 JUMPI PUSH1 0x40 MLOAD PUSH32 0x8C379A000000000000000000000000000000000000000000000000000000000 DUP2 MSTORE PUSH1 0x4 ADD PUSH2 0x71D SWAP1 PUSH2 0x239D JUMP JUMPDEST PUSH1 0x40 MLOAD DUP1 SWAP2 SUB SWAP1 REVERT JUMPDEST PUSH1 0x0 DUP1 PUSH2 0x731 PUSH2 0x617 JUMP JUMPDEST SWAP2 POP SWAP2 POP PUSH2 0x740 DUP5 DUP3 DUP5 PUSH2 0x1627 JUMP JUMPDEST SWAP3 POP POP POP SWAP2 SWAP1 POP JUMP JUMPDEST PUSH1 0x0 PUSH1 0x2 SLOAD SWAP1 POP SWAP1 JUMP JUMPDEST PUSH1 0x0 DUP1 PUSH2 0x75E PUSH2 0x1456 JUMP JUMPDEST SWAP1 POP PUSH2 0x76B DUP6 DUP3 DUP6 PUSH2 0x16CD JUMP JUMPDEST PUSH2 0x776 DUP6 DUP6 DUP6 PUSH2 0x1759 JUMP JUMPDEST PUSH1 0x1 SWAP2 POP POP SWAP4 SWAP3 POP POP POP JUMP JUMPDEST PUSH1 0x0 DUP1 DUP2 GT PUSH2 0x7C6 JUMPI PUSH1 0x40 MLOAD PUSH32 0x8C379A000000000000000000000000000000000000000000000000000000000 DUP2 MSTORE PUSH1 0x4 ADD PUSH2 0x7BD SWAP1 PUSH2 0x239D JUMP JUMPDEST PUSH1 0x40 MLOAD DUP1 SWAP2 SUB SWAP1 REVERT JUMPDEST PUSH1 0x0 DUP1 PUSH2 0x7D1 PUSH2 0x617 JUMP JUMPDEST SWAP2 POP SWAP2 POP PUSH2 0x7E0 DUP5 DUP4 DUP4 PUSH2 0x1627 JUMP JUMPDEST SWAP3 POP POP POP SWAP2 SWAP1 POP JUMP JUMPDEST PUSH1 0x0 PUSH1 0x12 SWAP1 POP SWAP1 JUMP JUMPDEST PUSH2 0x7FC DUP3 DUP3 PUSH2 0x19D8 JUMP JUMPDEST POP POP JUMP JUMPDEST PUSH1 0x0 DUP1 PUSH2 0x80B PUSH2 0x1456 JUMP JUMPDEST SWAP1 POP PUSH2 0x82C DUP2 DUP6 DUP6 PUSH2 0x81D DUP6 DUP10 PUSH2 0x108E JUMP JUMPDEST PUSH2 0x827 SWAP2 SWAP1 PUSH2 0x23EC JUMP JUMPDEST PUSH2 0x145E JUMP JUMPDEST PUSH1 0x1 SWAP2 POP POP SWAP3 SWAP2 POP POP JUMP JUMPDEST PUSH1 0x0 DUP1 PUSH1 0x0 PUSH2 0x844 PUSH2 0x617 JUMP JUMPDEST SWAP2 POP SWAP2 POP PUSH1 0x0 DUP3 SUB PUSH2 0x901 JUMPI PUSH1 0x0 PUSH1 0x5 PUSH1 0x0 SWAP1 SLOAD SWAP1 PUSH2 0x100 EXP SWAP1 DIV PUSH20 0xFFFFFFFFFFFFFFFFFFFFFFFFFFFFFFFFFFFFFFFF AND SWAP1 POP DUP1 PUSH20 0xFFFFFFFFFFFFFFFFFFFFFFFFFFFFFFFFFFFFFFFF AND PUSH4 0x23B872DD CALLER ADDRESS DUP9 PUSH1 0x40 MLOAD DUP5 PUSH4 0xFFFFFFFF AND PUSH1 0xE0 SHL DUP2 MSTORE PUSH1 0x4 ADD PUSH2 0x8B4 SWAP4 SWAP3 SWAP2 SWAP1 PUSH2 0x2420 JUMP JUMPDEST PUSH1 0x20 PUSH1 0x40 MLOAD DUP1 DUP4 SUB DUP2 PUSH1 0x0 DUP8 GAS CALL ISZERO DUP1 ISZERO PUSH2 0x8D3 JUMPI RETURNDATASIZE PUSH1 0x0 DUP1 RETURNDATACOPY RETURNDATASIZE PUSH1 0x0 REVERT JUMPDEST POP POP POP POP PUSH1 0x40 MLOAD RETURNDATASIZE PUSH1 0x1F NOT PUSH1 0x1F DUP3 ADD AND DUP3 ADD DUP1 PUSH1 0x40 MSTORE POP DUP2 ADD SWAP1 PUSH2 0x8F7 SWAP2 SWAP1 PUSH2 0x2483 JUMP JUMPDEST POP DUP2 SWAP4 POP POP PUSH2 0xA38 JUMP JUMPDEST CALLVALUE DUP2 PUSH2 0x90D SWAP2 SWAP1 PUSH2 0x24B0 JUMP JUMPDEST SWAP1 POP PUSH1 0x0 DUP2 DUP4 CALLVALUE PUSH2 0x91E SWAP2 SWAP1 PUSH2 0x24E4 JUMP JUMPDEST PUSH2 0x928 SWAP2 SWAP1 PUSH2 0x2555 JUMP JUMPDEST SWAP1 POP DUP1 DUP6 LT ISZERO PUSH2 0x96D JUMPI PUSH1 0x40 MLOAD PUSH32 0x8C379A000000000000000000000000000000000000000000000000000000000 DUP2 MSTORE PUSH1 0x4 ADD PUSH2 0x964 SWAP1 PUSH2 0x25F8 JUMP JUMPDEST PUSH1 0x40 MLOAD DUP1 SWAP2 SUB SWAP1 REVERT JUMPDEST PUSH1 0x0 PUSH1 0x5 PUSH1 0x0 SWAP1 SLOAD SWAP1 PUSH2 0x100 EXP SWAP1 DIV PUSH20 0xFFFFFFFFFFFFFFFFFFFFFFFFFFFFFFFFFFFFFFFF AND SWAP1 POP DUP1 PUSH20 0xFFFFFFFFFFFFFFFFFFFFFFFFFFFFFFFFFFFFFFFF AND PUSH4 0x23B872DD CALLER ADDRESS DUP10 PUSH1 0x40 MLOAD DUP5 PUSH4 0xFFFFFFFF AND PUSH1 0xE0 SHL DUP2 MSTORE PUSH1 0x4 ADD PUSH2 0x9D1 SWAP4 SWAP3 SWAP2 SWAP1 PUSH2 0x2420 JUMP JUMPDEST PUSH1 0x20 PUSH1 0x40 MLOAD DUP1 DUP4 SUB DUP2 PUSH1 0x0 DUP8 GAS CALL ISZERO DUP1 ISZERO PUSH2 0x9F0 JUMPI RETURNDATASIZE PUSH1 0x0 DUP1 RETURNDATACOPY RETURNDATASIZE PUSH1 0x0 REVERT JUMPDEST POP POP POP POP PUSH1 0x40 MLOAD RETURNDATASIZE PUSH1 0x1F NOT PUSH1 0x1F DUP3 ADD AND DUP3 ADD DUP1 PUSH1 0x40 MSTORE POP DUP2 ADD SWAP1 PUSH2 0xA14 SWAP2 SWAP1 PUSH2 0x2483 JUMP JUMPDEST POP DUP3 CALLVALUE PUSH2 0xA1F PUSH2 0x749 JUMP JUMPDEST PUSH2 0xA29 SWAP2 SWAP1 PUSH2 0x24E4 JUMP JUMPDEST PUSH2 0xA33 SWAP2 SWAP1 PUSH2 0x2555 JUMP JUMPDEST SWAP5 POP POP POP JUMPDEST PUSH2 0xA42 CALLER DUP5 PUSH2 0x1B3B JUMP JUMPDEST DUP4 CALLVALUE CALLER PUSH20 0xFFFFFFFFFFFFFFFFFFFFFFFFFFFFFFFFFFFFFFFF AND PUSH32 0x6239653922AC7BEA6AA2B19DC486B9361821D37712EB796ADFD38D81DE278CA PUSH1 0x40 MLOAD PUSH1 0x40 MLOAD DUP1 SWAP2 SUB SWAP1 LOG4 POP POP SWAP2 SWAP1 POP JUMP JUMPDEST PUSH1 0x0 DUP1 PUSH2 0xA99 PUSH2 0x617 JUMP JUMPDEST SWAP2 POP SWAP2 POP PUSH1 0x0 PUSH2 0xAAA DUP6 DUP5 DUP5 PUSH2 0x1627 JUMP JUMPDEST SWAP1 POP DUP4 DUP2 LT ISZERO PUSH2 0xAEF JUMPI PUSH1 0x40 MLOAD PUSH32 0x8C379A000000000000000000000000000000000000000000000000000000000 DUP2 MSTORE PUSH1 0x4 ADD PUSH2 0xAE6 SWAP1 PUSH2 0x26B0 JUMP JUMPDEST PUSH1 0x40 MLOAD DUP1 SWAP2 SUB SWAP1 REVERT JUMPDEST PUSH1 0x5 PUSH1 0x0 SWAP1 SLOAD SWAP1 PUSH2 0x100 EXP SWAP1 DIV PUSH20 0xFFFFFFFFFFFFFFFFFFFFFFFFFFFFFFFFFFFFFFFF AND PUSH20 0xFFFFFFFFFFFFFFFFFFFFFFFFFFFFFFFFFFFFFFFF AND PUSH4 0x23B872DD CALLER ADDRESS DUP9 PUSH1 0x40 MLOAD DUP5 PUSH4 0xFFFFFFFF AND PUSH1 0xE0 SHL DUP2 MSTORE PUSH1 0x4 ADD PUSH2 0xB4E SWAP4 SWAP3 SWAP2 SWAP1 PUSH2 0x2420 JUMP JUMPDEST PUSH1 0x20 PUSH1 0x40 MLOAD DUP1 DUP4 SUB DUP2 PUSH1 0x0 DUP8 GAS CALL ISZERO DUP1 ISZERO PUSH2 0xB6D JUMPI RETURNDATASIZE PUSH1 0x0 DUP1 RETURNDATACOPY RETURNDATASIZE PUSH1 0x0 REVERT JUMPDEST POP POP POP POP PUSH1 0x40 MLOAD RETURNDATASIZE PUSH1 0x1F NOT PUSH1 0x1F DUP3 ADD AND DUP3 ADD DUP1 PUSH1 0x40 MSTORE POP DUP2 ADD SWAP1 PUSH2 0xB91 SWAP2 SWAP1 PUSH2 0x2483 JUMP JUMPDEST POP PUSH1 0x0 CALLER PUSH20 0xFFFFFFFFFFFFFFFFFFFFFFFFFFFFFFFFFFFFFFFF AND DUP6 PUSH1 0x40 MLOAD PUSH2 0xBB8 SWAP1 PUSH2 0x2701 JUMP JUMPDEST PUSH1 0x0 PUSH1 0x40 MLOAD DUP1 DUP4 SUB DUP2 DUP6 DUP8 GAS CALL SWAP3 POP POP POP RETURNDATASIZE DUP1 PUSH1 0x0 DUP2 EQ PUSH2 0xBF5 JUMPI PUSH1 0x40 MLOAD SWAP2 POP PUSH1 0x1F NOT PUSH1 0x3F RETURNDATASIZE ADD AND DUP3 ADD PUSH1 0x40 MSTORE RETURNDATASIZE DUP3 MSTORE RETURNDATASIZE PUSH1 0x0 PUSH1 0x20 DUP5 ADD RETURNDATACOPY PUSH2 0xBFA JUMP JUMPDEST PUSH1 0x60 SWAP2 POP JUMPDEST POP POP SWAP1 POP DUP1 PUSH2 0xC3E JUMPI PUSH1 0x40 MLOAD PUSH32 0x8C379A000000000000000000000000000000000000000000000000000000000 DUP2 MSTORE PUSH1 0x4 ADD PUSH2 0xC35 SWAP1 PUSH2 0x2788 JUMP JUMPDEST PUSH1 0x40 MLOAD DUP1 SWAP2 SUB SWAP1 REVERT JUMPDEST DUP6 CALLER PUSH20 0xFFFFFFFFFFFFFFFFFFFFFFFFFFFFFFFFFFFFFFFF AND PUSH32 0xD70CAA09595C8288801CA58A02FD0960EF4982B210B2B9BF88BD5344C27CC4E8 DUP5 PUSH1 0x40 MLOAD PUSH2 0xC85 SWAP2 SWAP1 PUSH2 0x20A0 JUMP JUMPDEST PUSH1 0x40 MLOAD DUP1 SWAP2 SUB SWAP1 LOG3 POP POP POP POP POP POP JUMP JUMPDEST PUSH1 0x0 DUP1 PUSH1 0x0 DUP4 PUSH20 0xFFFFFFFFFFFFFFFFFFFFFFFFFFFFFFFFFFFFFFFF AND PUSH20 0xFFFFFFFFFFFFFFFFFFFFFFFFFFFFFFFFFFFFFFFF AND DUP2 MSTORE PUSH1 0x20 ADD SWAP1 DUP2 MSTORE PUSH1 0x20 ADD PUSH1 0x0 KECCAK256 SLOAD SWAP1 POP SWAP2 SWAP1 POP JUMP JUMPDEST PUSH1 0x60 PUSH1 0x4 DUP1 SLOAD PUSH2 0xCEC SWAP1 PUSH2 0x22DE JUMP JUMPDEST DUP1 PUSH1 0x1F ADD PUSH1 0x20 DUP1 SWAP2 DIV MUL PUSH1 0x20 ADD PUSH1 0x40 MLOAD SWAP1 DUP2 ADD PUSH1 0x40 MSTORE DUP1 SWAP3 SWAP2 SWAP1 DUP2 DUP2 MSTORE PUSH1 0x20 ADD DUP3 DUP1 SLOAD PUSH2 0xD18 SWAP1 PUSH2 0x22DE JUMP JUMPDEST DUP1 ISZERO PUSH2 0xD65 JUMPI DUP1 PUSH1 0x1F LT PUSH2 0xD3A JUMPI PUSH2 0x100 DUP1 DUP4 SLOAD DIV MUL DUP4 MSTORE SWAP2 PUSH1 0x20 ADD SWAP2 PUSH2 0xD65 JUMP JUMPDEST DUP3 ADD SWAP2 SWAP1 PUSH1 0x0 MSTORE PUSH1 0x20 PUSH1 0x0 KECCAK256 SWAP1 JUMPDEST DUP2 SLOAD DUP2 MSTORE SWAP1 PUSH1 0x1 ADD SWAP1 PUSH1 0x20 ADD DUP1 DUP4 GT PUSH2 0xD48 JUMPI DUP3 SWAP1 SUB PUSH1 0x1F AND DUP3 ADD SWAP2 JUMPDEST POP POP POP POP POP SWAP1 POP SWAP1 JUMP JUMPDEST PUSH1 0x6 PUSH1 0x0 SWAP1 SLOAD SWAP1 PUSH2 0x100 EXP SWAP1 DIV PUSH20 0xFFFFFFFFFFFFFFFFFFFFFFFFFFFFFFFFFFFFFFFF AND DUP2 JUMP JUMPDEST PUSH1 0x0 DUP1 PUSH1 0x0 DUP4 GT PUSH2 0xDDB JUMPI PUSH1 0x40 MLOAD PUSH32 0x8C379A000000000000000000000000000000000000000000000000000000000 DUP2 MSTORE PUSH1 0x4 ADD PUSH2 0xDD2 SWAP1 PUSH2 0x281A JUMP JUMPDEST PUSH1 0x40 MLOAD DUP1 SWAP2 SUB SWAP1 REVERT JUMPDEST PUSH1 0x0 DUP1 PUSH2 0xDE6 PUSH2 0x617 JUMP JUMPDEST SWAP2 POP SWAP2 POP PUSH2 0xDF2 PUSH2 0x749 JUMP JUMPDEST DUP6 DUP3 PUSH2 0xDFE SWAP2 SWAP1 PUSH2 0x24E4 JUMP JUMPDEST PUSH2 0xE08 SWAP2 SWAP1 PUSH2 0x2555 JUMP JUMPDEST SWAP4 POP PUSH2 0xE12 PUSH2 0x749 JUMP JUMPDEST DUP6 DUP4 PUSH2 0xE1E SWAP2 SWAP1 PUSH2 0x24E4 JUMP JUMPDEST PUSH2 0xE28 SWAP2 SWAP1 PUSH2 0x2555 JUMP JUMPDEST SWAP3 POP PUSH2 0xE34 CALLER DUP7 PUSH2 0x1C9A JUMP JUMPDEST PUSH1 0x0 CALLER PUSH20 0xFFFFFFFFFFFFFFFFFFFFFFFFFFFFFFFFFFFFFFFF AND DUP6 PUSH1 0x40 MLOAD PUSH2 0xE5A SWAP1 PUSH2 0x2701 JUMP JUMPDEST PUSH1 0x0 PUSH1 0x40 MLOAD DUP1 DUP4 SUB DUP2 DUP6 DUP8 GAS CALL SWAP3 POP POP POP RETURNDATASIZE DUP1 PUSH1 0x0 DUP2 EQ PUSH2 0xE97 JUMPI PUSH1 0x40 MLOAD SWAP2 POP PUSH1 0x1F NOT PUSH1 0x3F RETURNDATASIZE ADD AND DUP3 ADD PUSH1 0x40 MSTORE RETURNDATASIZE DUP3 MSTORE RETURNDATASIZE PUSH1 0x0 PUSH1 0x20 DUP5 ADD RETURNDATACOPY PUSH2 0xE9C JUMP JUMPDEST PUSH1 0x60 SWAP2 POP JUMPDEST POP POP SWAP1 POP DUP1 PUSH2 0xEE0 JUMPI PUSH1 0x40 MLOAD PUSH32 0x8C379A000000000000000000000000000000000000000000000000000000000 DUP2 MSTORE PUSH1 0x4 ADD PUSH2 0xED7 SWAP1 PUSH2 0x28AC JUMP JUMPDEST PUSH1 0x40 MLOAD DUP1 SWAP2 SUB SWAP1 REVERT JUMPDEST PUSH1 0x5 PUSH1 0x0 SWAP1 SLOAD SWAP1 PUSH2 0x100 EXP SWAP1 DIV PUSH20 0xFFFFFFFFFFFFFFFFFFFFFFFFFFFFFFFFFFFFFFFF AND PUSH20 0xFFFFFFFFFFFFFFFFFFFFFFFFFFFFFFFFFFFFFFFF AND PUSH4 0xA9059CBB CALLER DUP7 PUSH1 0x40 MLOAD DUP4 PUSH4 0xFFFFFFFF AND PUSH1 0xE0 SHL DUP2 MSTORE PUSH1 0x4 ADD PUSH2 0xF3D SWAP3 SWAP2 SWAP1 PUSH2 0x28CC JUMP JUMPDEST PUSH1 0x20 PUSH1 0x40 MLOAD DUP1 DUP4 SUB DUP2 PUSH1 0x0 DUP8 GAS CALL ISZERO DUP1 ISZERO PUSH2 0xF5C JUMPI RETURNDATASIZE PUSH1 0x0 DUP1 RETURNDATACOPY RETURNDATASIZE PUSH1 0x0 REVERT JUMPDEST POP POP POP POP PUSH1 0x40 MLOAD RETURNDATASIZE PUSH1 0x1F NOT PUSH1 0x1F DUP3 ADD AND DUP3 ADD DUP1 PUSH1 0x40 MSTORE POP DUP2 ADD SWAP1 PUSH2 0xF80 SWAP2 SWAP1 PUSH2 0x2483 JUMP JUMPDEST POP DUP4 DUP6 CALLER PUSH20 0xFFFFFFFFFFFFFFFFFFFFFFFFFFFFFFFFFFFFFFFF AND PUSH32 0xFBF06C058B90CB038A618F8C2ACBF6145F8B3570FD1FA56ABB8F0F3F05B36E8 PUSH1 0x40 MLOAD PUSH1 0x40 MLOAD DUP1 SWAP2 SUB SWAP1 LOG4 POP POP POP SWAP2 POP SWAP2 JUMP JUMPDEST PUSH1 0x5 PUSH1 0x0 SWAP1 SLOAD SWAP1 PUSH2 0x100 EXP SWAP1 DIV PUSH20 0xFFFFFFFFFFFFFFFFFFFFFFFFFFFFFFFFFFFFFFFF AND DUP2 JUMP JUMPDEST PUSH1 0x0 DUP1 PUSH2 0xFFF PUSH2 0x1456 JUMP JUMPDEST SWAP1 POP PUSH1 0x0 PUSH2 0x100D DUP3 DUP7 PUSH2 0x108E JUMP JUMPDEST SWAP1 POP DUP4 DUP2 LT ISZERO PUSH2 0x1052 JUMPI PUSH1 0x40 MLOAD PUSH32 0x8C379A000000000000000000000000000000000000000000000000000000000 DUP2 MSTORE PUSH1 0x4 ADD PUSH2 0x1049 SWAP1 PUSH2 0x2967 JUMP JUMPDEST PUSH1 0x40 MLOAD DUP1 SWAP2 SUB SWAP1 REVERT JUMPDEST PUSH2 0x105F DUP3 DUP7 DUP7 DUP5 SUB PUSH2 0x145E JUMP JUMPDEST PUSH1 0x1 SWAP3 POP POP POP SWAP3 SWAP2 POP POP JUMP JUMPDEST PUSH1 0x0 DUP1 PUSH2 0x1076 PUSH2 0x1456 JUMP JUMPDEST SWAP1 POP PUSH2 0x1083 DUP2 DUP6 DUP6 PUSH2 0x1759 JUMP JUMPDEST PUSH1 0x1 SWAP2 POP POP SWAP3 SWAP2 POP POP JUMP JUMPDEST PUSH1 0x0 PUSH1 0x1 PUSH1 0x0 DUP5 PUSH20 0xFFFFFFFFFFFFFFFFFFFFFFFFFFFFFFFFFFFFFFFF AND PUSH20 0xFFFFFFFFFFFFFFFFFFFFFFFFFFFFFFFFFFFFFFFF AND DUP2 MSTORE PUSH1 0x20 ADD SWAP1 DUP2 MSTORE PUSH1 0x20 ADD PUSH1 0x0 KECCAK256 PUSH1 0x0 DUP4 PUSH20 0xFFFFFFFFFFFFFFFFFFFFFFFFFFFFFFFFFFFFFFFF AND PUSH20 0xFFFFFFFFFFFFFFFFFFFFFFFFFFFFFFFFFFFFFFFF AND DUP2 MSTORE PUSH1 0x20 ADD SWAP1 DUP2 MSTORE PUSH1 0x20 ADD PUSH1 0x0 KECCAK256 SLOAD SWAP1 POP SWAP3 SWAP2 POP POP JUMP JUMPDEST PUSH1 0x0 PUSH20 0xFFFFFFFFFFFFFFFFFFFFFFFFFFFFFFFFFFFFFFFF AND DUP2 PUSH20 0xFFFFFFFFFFFFFFFFFFFFFFFFFFFFFFFFFFFFFFFF AND SUB PUSH2 0x1184 JUMPI PUSH1 0x40 MLOAD PUSH32 0x8C379A000000000000000000000000000000000000000000000000000000000 DUP2 MSTORE PUSH1 0x4 ADD PUSH2 0x117B SWAP1 PUSH2 0x29D3 JUMP JUMPDEST PUSH1 0x40 MLOAD DUP1 SWAP2 SUB SWAP1 REVERT JUMPDEST PUSH1 0x0 DUP4 GT PUSH2 0x11C7 JUMPI PUSH1 0x40 MLOAD PUSH32 0x8C379A000000000000000000000000000000000000000000000000000000000 DUP2 MSTORE PUSH1 0x4 ADD PUSH2 0x11BE SWAP1 PUSH2 0x2A3F JUMP JUMPDEST PUSH1 0x40 MLOAD DUP1 SWAP2 SUB SWAP1 REVERT JUMPDEST PUSH1 0x0 PUSH1 0x6 PUSH1 0x0 SWAP1 SLOAD SWAP1 PUSH2 0x100 EXP SWAP1 DIV PUSH20 0xFFFFFFFFFFFFFFFFFFFFFFFFFFFFFFFFFFFFFFFF AND PUSH20 0xFFFFFFFFFFFFFFFFFFFFFFFFFFFFFFFFFFFFFFFF AND PUSH4 0x1A788A02 DUP4 PUSH1 0x40 MLOAD DUP3 PUSH4 0xFFFFFFFF AND PUSH1 0xE0 SHL DUP2 MSTORE PUSH1 0x4 ADD PUSH2 0x1224 SWAP2 SWAP1 PUSH2 0x2201 JUMP JUMPDEST PUSH1 0x20 PUSH1 0x40 MLOAD DUP1 DUP4 SUB DUP2 PUSH1 0x0 DUP8 GAS CALL ISZERO DUP1 ISZERO PUSH2 0x1243 JUMPI RETURNDATASIZE PUSH1 0x0 DUP1 RETURNDATACOPY RETURNDATASIZE PUSH1 0x0 REVERT JUMPDEST POP POP POP POP PUSH1 0x40 MLOAD RETURNDATASIZE PUSH1 0x1F NOT PUSH1 0x1F DUP3 ADD AND DUP3 ADD DUP1 PUSH1 0x40 MSTORE POP DUP2 ADD SWAP1 PUSH2 0x1267 SWAP2 SWAP1 PUSH2 0x2A74 JUMP JUMPDEST SWAP1 POP ADDRESS PUSH20 0xFFFFFFFFFFFFFFFFFFFFFFFFFFFFFFFFFFFFFFFF AND DUP2 PUSH20 0xFFFFFFFFFFFFFFFFFFFFFFFFFFFFFFFFFFFFFFFF AND EQ ISZERO DUP1 ISZERO PUSH2 0x12D2 JUMPI POP PUSH1 0x0 PUSH20 0xFFFFFFFFFFFFFFFFFFFFFFFFFFFFFFFFFFFFFFFF AND DUP2 PUSH20 0xFFFFFFFFFFFFFFFFFFFFFFFFFFFFFFFFFFFFFFFF AND EQ ISZERO JUMPDEST PUSH2 0x1311 JUMPI PUSH1 0x40 MLOAD PUSH32 0x8C379A000000000000000000000000000000000000000000000000000000000 DUP2 MSTORE PUSH1 0x4 ADD PUSH2 0x1308 SWAP1 PUSH2 0x2AED JUMP JUMPDEST PUSH1 0x40 MLOAD DUP1 SWAP2 SUB SWAP1 REVERT JUMPDEST PUSH1 0x0 DUP1 PUSH2 0x131C PUSH2 0x617 JUMP JUMPDEST SWAP2 POP SWAP2 POP PUSH1 0x0 PUSH2 0x132D DUP8 DUP5 DUP5 PUSH2 0x1627 JUMP JUMPDEST SWAP1 POP PUSH1 0x5 PUSH1 0x0 SWAP1 SLOAD SWAP1 PUSH2 0x100 EXP SWAP1 DIV PUSH20 0xFFFFFFFFFFFFFFFFFFFFFFFFFFFFFFFFFFFFFFFF AND PUSH20 0xFFFFFFFFFFFFFFFFFFFFFFFFFFFFFFFFFFFFFFFF AND PUSH4 0x23B872DD CALLER ADDRESS DUP11 PUSH1 0x40 MLOAD DUP5 PUSH4 0xFFFFFFFF AND PUSH1 0xE0 SHL DUP2 MSTORE PUSH1 0x4 ADD PUSH2 0x138E SWAP4 SWAP3 SWAP2 SWAP1 PUSH2 0x2420 JUMP JUMPDEST PUSH1 0x20 PUSH1 0x40 MLOAD DUP1 DUP4 SUB DUP2 PUSH1 0x0 DUP8 GAS CALL ISZERO DUP1 ISZERO PUSH2 0x13AD JUMPI RETURNDATASIZE PUSH1 0x0 DUP1 RETURNDATACOPY RETURNDATASIZE PUSH1 0x0 REVERT JUMPDEST POP POP POP POP PUSH1 0x40 MLOAD RETURNDATASIZE PUSH1 0x1F NOT PUSH1 0x1F DUP3 ADD AND DUP3 ADD DUP1 PUSH1 0x40 MSTORE POP DUP2 ADD SWAP1 PUSH2 0x13D1 SWAP2 SWAP1 PUSH2 0x2483 JUMP JUMPDEST POP DUP4 PUSH20 0xFFFFFFFFFFFFFFFFFFFFFFFFFFFFFFFFFFFFFFFF AND PUSH4 0x389D9A40 DUP3 DUP9 CALLER PUSH1 0x40 MLOAD DUP5 PUSH4 0xFFFFFFFF AND PUSH1 0xE0 SHL DUP2 MSTORE PUSH1 0x4 ADD PUSH2 0x140E SWAP3 SWAP2 SWAP1 PUSH2 0x2B0D JUMP JUMPDEST PUSH1 0x0 PUSH1 0x40 MLOAD DUP1 DUP4 SUB DUP2 DUP6 DUP9 DUP1 EXTCODESIZE ISZERO DUP1 ISZERO PUSH2 0x1427 JUMPI PUSH1 0x0 DUP1 REVERT JUMPDEST POP GAS CALL ISZERO DUP1 ISZERO PUSH2 0x143B JUMPI RETURNDATASIZE PUSH1 0x0 DUP1 RETURNDATACOPY RETURNDATASIZE PUSH1 0x0 REVERT JUMPDEST POP POP POP POP POP POP POP POP POP POP POP POP JUMP JUMPDEST PUSH2 0x1453 DUP2 CALLER PUSH2 0x19D8 JUMP JUMPDEST POP JUMP JUMPDEST PUSH1 0x0 CALLER SWAP1 POP SWAP1 JUMP JUMPDEST PUSH1 0x0 PUSH20 0xFFFFFFFFFFFFFFFFFFFFFFFFFFFFFFFFFFFFFFFF AND DUP4 PUSH20 0xFFFFFFFFFFFFFFFFFFFFFFFFFFFFFFFFFFFFFFFF AND SUB PUSH2 0x14CD JUMPI PUSH1 0x40 MLOAD PUSH32 0x8C379A000000000000000000000000000000000000000000000000000000000 DUP2 MSTORE PUSH1 0x4 ADD PUSH2 0x14C4 SWAP1 PUSH2 0x2BA8 JUMP JUMPDEST PUSH1 0x40 MLOAD DUP1 SWAP2 SUB SWAP1 REVERT JUMPDEST PUSH1 0x0 PUSH20 0xFFFFFFFFFFFFFFFFFFFFFFFFFFFFFFFFFFFFFFFF AND DUP3 PUSH20 0xFFFFFFFFFFFFFFFFFFFFFFFFFFFFFFFFFFFFFFFF AND SUB PUSH2 0x153C JUMPI PUSH1 0x40 MLOAD PUSH32 0x8C379A000000000000000000000000000000000000000000000000000000000 DUP2 MSTORE PUSH1 0x4 ADD PUSH2 0x1533 SWAP1 PUSH2 0x2C3A JUMP JUMPDEST PUSH1 0x40 MLOAD DUP1 SWAP2 SUB SWAP1 REVERT JUMPDEST DUP1 PUSH1 0x1 PUSH1 0x0 DUP6 PUSH20 0xFFFFFFFFFFFFFFFFFFFFFFFFFFFFFFFFFFFFFFFF AND PUSH20 0xFFFFFFFFFFFFFFFFFFFFFFFFFFFFFFFFFFFFFFFF AND DUP2 MSTORE PUSH1 0x20 ADD SWAP1 DUP2 MSTORE PUSH1 0x20 ADD PUSH1 0x0 KECCAK256 PUSH1 0x0 DUP5 PUSH20 0xFFFFFFFFFFFFFFFFFFFFFFFFFFFFFFFFFFFFFFFF AND PUSH20 0xFFFFFFFFFFFFFFFFFFFFFFFFFFFFFFFFFFFFFFFF AND DUP2 MSTORE PUSH1 0x20 ADD SWAP1 DUP2 MSTORE PUSH1 0x20 ADD PUSH1 0x0 KECCAK256 DUP2 SWAP1 SSTORE POP DUP2 PUSH20 0xFFFFFFFFFFFFFFFFFFFFFFFFFFFFFFFFFFFFFFFF AND DUP4 PUSH20 0xFFFFFFFFFFFFFFFFFFFFFFFFFFFFFFFFFFFFFFFF AND PUSH32 0x8C5BE1E5EBEC7D5BD14F71427D1E84F3DD0314C0F7B2291E5B200AC8C7C3B925 DUP4 PUSH1 0x40 MLOAD PUSH2 0x161A SWAP2 SWAP1 PUSH2 0x20A0 JUMP JUMPDEST PUSH1 0x40 MLOAD DUP1 SWAP2 SUB SWAP1 LOG3 POP POP POP JUMP JUMPDEST PUSH1 0x0 DUP1 DUP4 GT DUP1 ISZERO PUSH2 0x1638 JUMPI POP PUSH1 0x0 DUP3 GT JUMPDEST PUSH2 0x1677 JUMPI PUSH1 0x40 MLOAD PUSH32 0x8C379A000000000000000000000000000000000000000000000000000000000 DUP2 MSTORE PUSH1 0x4 ADD PUSH2 0x166E SWAP1 PUSH2 0x2CA6 JUMP JUMPDEST PUSH1 0x40 MLOAD DUP1 SWAP2 SUB SWAP1 REVERT JUMPDEST PUSH1 0x0 DUP1 PUSH2 0x3E8 PUSH2 0x1687 SWAP2 SWAP1 PUSH2 0x24B0 JUMP JUMPDEST DUP6 PUSH2 0x1692 SWAP2 SWAP1 PUSH2 0x24E4 JUMP JUMPDEST SWAP1 POP DUP1 DUP5 PUSH2 0x3E8 PUSH2 0x16A3 SWAP2 SWAP1 PUSH2 0x24E4 JUMP JUMPDEST PUSH2 0x16AD SWAP2 SWAP1 PUSH2 0x23EC JUMP JUMPDEST DUP4 DUP3 PUSH2 0x16B9 SWAP2 SWAP1 PUSH2 0x24E4 JUMP JUMPDEST PUSH2 0x16C3 SWAP2 SWAP1 PUSH2 0x2555 JUMP JUMPDEST SWAP2 POP POP SWAP4 SWAP3 POP POP POP JUMP JUMPDEST PUSH1 0x0 PUSH2 0x16D9 DUP5 DUP5 PUSH2 0x108E JUMP JUMPDEST SWAP1 POP PUSH32 0xFFFFFFFFFFFFFFFFFFFFFFFFFFFFFFFFFFFFFFFFFFFFFFFFFFFFFFFFFFFFFFFF DUP2 EQ PUSH2 0x1753 JUMPI DUP2 DUP2 LT ISZERO PUSH2 0x1745 JUMPI PUSH1 0x40 MLOAD PUSH32 0x8C379A000000000000000000000000000000000000000000000000000000000 DUP2 MSTORE PUSH1 0x4 ADD PUSH2 0x173C SWAP1 PUSH2 0x2D12 JUMP JUMPDEST PUSH1 0x40 MLOAD DUP1 SWAP2 SUB SWAP1 REVERT JUMPDEST PUSH2 0x1752 DUP5 DUP5 DUP5 DUP5 SUB PUSH2 0x145E JUMP JUMPDEST JUMPDEST POP POP POP POP JUMP JUMPDEST PUSH1 0x0 PUSH20 0xFFFFFFFFFFFFFFFFFFFFFFFFFFFFFFFFFFFFFFFF AND DUP4 PUSH20 0xFFFFFFFFFFFFFFFFFFFFFFFFFFFFFFFFFFFFFFFF AND SUB PUSH2 0x17C8 JUMPI PUSH1 0x40 MLOAD PUSH32 0x8C379A000000000000000000000000000000000000000000000000000000000 DUP2 MSTORE PUSH1 0x4 ADD PUSH2 0x17BF SWAP1 PUSH2 0x2DA4 JUMP JUMPDEST PUSH1 0x40 MLOAD DUP1 SWAP2 SUB SWAP1 REVERT JUMPDEST PUSH1 0x0 PUSH20 0xFFFFFFFFFFFFFFFFFFFFFFFFFFFFFFFFFFFFFFFF AND DUP3 PUSH20 0xFFFFFFFFFFFFFFFFFFFFFFFFFFFFFFFFFFFFFFFF AND SUB PUSH2 0x1837 JUMPI PUSH1 0x40 MLOAD PUSH32 0x8C379A000000000000000000000000000000000000000000000000000000000 DUP2 MSTORE PUSH1 0x4 ADD PUSH2 0x182E SWAP1 PUSH2 0x2E36 JUMP JUMPDEST PUSH1 0x40 MLOAD DUP1 SWAP2 SUB SWAP1 REVERT JUMPDEST PUSH2 0x1842 DUP4 DUP4 DUP4 PUSH2 0x1E70 JUMP JUMPDEST PUSH1 0x0 DUP1 PUSH1 0x0 DUP6 PUSH20 0xFFFFFFFFFFFFFFFFFFFFFFFFFFFFFFFFFFFFFFFF AND PUSH20 0xFFFFFFFFFFFFFFFFFFFFFFFFFFFFFFFFFFFFFFFF AND DUP2 MSTORE PUSH1 0x20 ADD SWAP1 DUP2 MSTORE PUSH1 0x20 ADD PUSH1 0x0 KECCAK256 SLOAD SWAP1 POP DUP2 DUP2 LT ISZERO PUSH2 0x18C8 JUMPI PUSH1 0x40 MLOAD PUSH32 0x8C379A000000000000000000000000000000000000000000000000000000000 DUP2 MSTORE PUSH1 0x4 ADD PUSH2 0x18BF SWAP1 PUSH2 0x2EC8 JUMP JUMPDEST PUSH1 0x40 MLOAD DUP1 SWAP2 SUB SWAP1 REVERT JUMPDEST DUP2 DUP2 SUB PUSH1 0x0 DUP1 DUP7 PUSH20 0xFFFFFFFFFFFFFFFFFFFFFFFFFFFFFFFFFFFFFFFF AND PUSH20 0xFFFFFFFFFFFFFFFFFFFFFFFFFFFFFFFFFFFFFFFF AND DUP2 MSTORE PUSH1 0x20 ADD SWAP1 DUP2 MSTORE PUSH1 0x20 ADD PUSH1 0x0 KECCAK256 DUP2 SWAP1 SSTORE POP DUP2 PUSH1 0x0 DUP1 DUP6 PUSH20 0xFFFFFFFFFFFFFFFFFFFFFFFFFFFFFFFFFFFFFFFF AND PUSH20 0xFFFFFFFFFFFFFFFFFFFFFFFFFFFFFFFFFFFFFFFF AND DUP2 MSTORE PUSH1 0x20 ADD SWAP1 DUP2 MSTORE PUSH1 0x20 ADD PUSH1 0x0 KECCAK256 PUSH1 0x0 DUP3 DUP3 SLOAD PUSH2 0x195B SWAP2 SWAP1 PUSH2 0x23EC JUMP JUMPDEST SWAP3 POP POP DUP2 SWAP1 SSTORE POP DUP3 PUSH20 0xFFFFFFFFFFFFFFFFFFFFFFFFFFFFFFFFFFFFFFFF AND DUP5 PUSH20 0xFFFFFFFFFFFFFFFFFFFFFFFFFFFFFFFFFFFFFFFF AND PUSH32 0xDDF252AD1BE2C89B69C2B068FC378DAA952BA7F163C4A11628F55A4DF523B3EF DUP5 PUSH1 0x40 MLOAD PUSH2 0x19BF SWAP2 SWAP1 PUSH2 0x20A0 JUMP JUMPDEST PUSH1 0x40 MLOAD DUP1 SWAP2 SUB SWAP1 LOG3 PUSH2 0x19D2 DUP5 DUP5 DUP5 PUSH2 0x1E75 JUMP JUMPDEST POP POP POP POP JUMP JUMPDEST PUSH1 0x0 DUP1 PUSH2 0x19E3 PUSH2 0x617 JUMP JUMPDEST SWAP2 POP SWAP2 POP PUSH1 0x0 PUSH2 0x19FF CALLVALUE CALLVALUE DUP5 PUSH2 0x19F9 SWAP2 SWAP1 PUSH2 0x24B0 JUMP JUMPDEST DUP6 PUSH2 0x1627 JUMP JUMPDEST SWAP1 POP DUP5 DUP2 LT ISZERO PUSH2 0x1A44 JUMPI PUSH1 0x40 MLOAD PUSH32 0x8C379A000000000000000000000000000000000000000000000000000000000 DUP2 MSTORE PUSH1 0x4 ADD PUSH2 0x1A3B SWAP1 PUSH2 0x26B0 JUMP JUMPDEST PUSH1 0x40 MLOAD DUP1 SWAP2 SUB SWAP1 REVERT JUMPDEST PUSH1 0x5 PUSH1 0x0 SWAP1 SLOAD SWAP1 PUSH2 0x100 EXP SWAP1 DIV PUSH20 0xFFFFFFFFFFFFFFFFFFFFFFFFFFFFFFFFFFFFFFFF AND PUSH20 0xFFFFFFFFFFFFFFFFFFFFFFFFFFFFFFFFFFFFFFFF AND PUSH4 0xA9059CBB DUP6 DUP4 PUSH1 0x40 MLOAD DUP4 PUSH4 0xFFFFFFFF AND PUSH1 0xE0 SHL DUP2 MSTORE PUSH1 0x4 ADD PUSH2 0x1AA1 SWAP3 SWAP2 SWAP1 PUSH2 0x28CC JUMP JUMPDEST PUSH1 0x20 PUSH1 0x40 MLOAD DUP1 DUP4 SUB DUP2 PUSH1 0x0 DUP8 GAS CALL ISZERO DUP1 ISZERO PUSH2 0x1AC0 JUMPI RETURNDATASIZE PUSH1 0x0 DUP1 RETURNDATACOPY RETURNDATASIZE PUSH1 0x0 REVERT JUMPDEST POP POP POP POP PUSH1 0x40 MLOAD RETURNDATASIZE PUSH1 0x1F NOT PUSH1 0x1F DUP3 ADD AND DUP3 ADD DUP1 PUSH1 0x40 MSTORE POP DUP2 ADD SWAP1 PUSH2 0x1AE4 SWAP2 SWAP1 PUSH2 0x2483 JUMP JUMPDEST POP CALLVALUE DUP5 PUSH20 0xFFFFFFFFFFFFFFFFFFFFFFFFFFFFFFFFFFFFFFFF AND PUSH32 0x2AD51A6B79C1A35468E5CC340EF09004400E337E1D1149AAB02294FDB7F8F055 DUP4 PUSH1 0x40 MLOAD PUSH2 0x1B2C SWAP2 SWAP1 PUSH2 0x20A0 JUMP JUMPDEST PUSH1 0x40 MLOAD DUP1 SWAP2 SUB SWAP1 LOG3 POP POP POP POP POP JUMP JUMPDEST PUSH1 0x0 PUSH20 0xFFFFFFFFFFFFFFFFFFFFFFFFFFFFFFFFFFFFFFFF AND DUP3 PUSH20 0xFFFFFFFFFFFFFFFFFFFFFFFFFFFFFFFFFFFFFFFF AND SUB PUSH2 0x1BAA JUMPI PUSH1 0x40 MLOAD PUSH32 0x8C379A000000000000000000000000000000000000000000000000000000000 DUP2 MSTORE PUSH1 0x4 ADD PUSH2 0x1BA1 SWAP1 PUSH2 0x2F34 JUMP JUMPDEST PUSH1 0x40 MLOAD DUP1 SWAP2 SUB SWAP1 REVERT JUMPDEST PUSH2 0x1BB6 PUSH1 0x0 DUP4 DUP4 PUSH2 0x1E70 JUMP JUMPDEST DUP1 PUSH1 0x2 PUSH1 0x0 DUP3 DUP3 SLOAD PUSH2 0x1BC8 SWAP2 SWAP1 PUSH2 0x23EC JUMP JUMPDEST SWAP3 POP POP DUP2 SWAP1 SSTORE POP DUP1 PUSH1 0x0 DUP1 DUP5 PUSH20 0xFFFFFFFFFFFFFFFFFFFFFFFFFFFFFFFFFFFFFFFF AND PUSH20 0xFFFFFFFFFFFFFFFFFFFFFFFFFFFFFFFFFFFFFFFF AND DUP2 MSTORE PUSH1 0x20 ADD SWAP1 DUP2 MSTORE PUSH1 0x20 ADD PUSH1 0x0 KECCAK256 PUSH1 0x0 DUP3 DUP3 SLOAD PUSH2 0x1C1D SWAP2 SWAP1 PUSH2 0x23EC JUMP JUMPDEST SWAP3 POP POP DUP2 SWAP1 SSTORE POP DUP2 PUSH20 0xFFFFFFFFFFFFFFFFFFFFFFFFFFFFFFFFFFFFFFFF AND PUSH1 0x0 PUSH20 0xFFFFFFFFFFFFFFFFFFFFFFFFFFFFFFFFFFFFFFFF AND PUSH32 0xDDF252AD1BE2C89B69C2B068FC378DAA952BA7F163C4A11628F55A4DF523B3EF DUP4 PUSH1 0x40 MLOAD PUSH2 0x1C82 SWAP2 SWAP1 PUSH2 0x20A0 JUMP JUMPDEST PUSH1 0x40 MLOAD DUP1 SWAP2 SUB SWAP1 LOG3 PUSH2 0x1C96 PUSH1 0x0 DUP4 DUP4 PUSH2 0x1E75 JUMP JUMPDEST POP POP JUMP JUMPDEST PUSH1 0x0 PUSH20 0xFFFFFFFFFFFFFFFFFFFFFFFFFFFFFFFFFFFFFFFF AND DUP3 PUSH20 0xFFFFFFFFFFFFFFFFFFFFFFFFFFFFFFFFFFFFFFFF AND SUB PUSH2 0x1D09 JUMPI PUSH1 0x40 MLOAD PUSH32 0x8C379A000000000000000000000000000000000000000000000000000000000 DUP2 MSTORE PUSH1 0x4 ADD PUSH2 0x1D00 SWAP1 PUSH2 0x2FC6 JUMP JUMPDEST PUSH1 0x40 MLOAD DUP1 SWAP2 SUB SWAP1 REVERT JUMPDEST PUSH2 0x1D15 DUP3 PUSH1 0x0 DUP4 PUSH2 0x1E70 JUMP JUMPDEST PUSH1 0x0 DUP1 PUSH1 0x0 DUP5 PUSH20 0xFFFFFFFFFFFFFFFFFFFFFFFFFFFFFFFFFFFFFFFF AND PUSH20 0xFFFFFFFFFFFFFFFFFFFFFFFFFFFFFFFFFFFFFFFF AND DUP2 MSTORE PUSH1 0x20 ADD SWAP1 DUP2 MSTORE PUSH1 0x20 ADD PUSH1 0x0 KECCAK256 SLOAD SWAP1 POP DUP2 DUP2 LT ISZERO PUSH2 0x1D9B JUMPI PUSH1 0x40 MLOAD PUSH32 0x8C379A000000000000000000000000000000000000000000000000000000000 DUP2 MSTORE PUSH1 0x4 ADD PUSH2 0x1D92 SWAP1 PUSH2 0x3058 JUMP JUMPDEST PUSH1 0x40 MLOAD DUP1 SWAP2 SUB SWAP1 REVERT JUMPDEST DUP2 DUP2 SUB PUSH1 0x0 DUP1 DUP6 PUSH20 0xFFFFFFFFFFFFFFFFFFFFFFFFFFFFFFFFFFFFFFFF AND PUSH20 0xFFFFFFFFFFFFFFFFFFFFFFFFFFFFFFFFFFFFFFFF AND DUP2 MSTORE PUSH1 0x20 ADD SWAP1 DUP2 MSTORE PUSH1 0x20 ADD PUSH1 0x0 KECCAK256 DUP2 SWAP1 SSTORE POP DUP2 PUSH1 0x2 PUSH1 0x0 DUP3 DUP3 SLOAD PUSH2 0x1DF2 SWAP2 SWAP1 PUSH2 0x24B0 JUMP JUMPDEST SWAP3 POP POP DUP2 SWAP1 SSTORE POP PUSH1 0x0 PUSH20 0xFFFFFFFFFFFFFFFFFFFFFFFFFFFFFFFFFFFFFFFF AND DUP4 PUSH20 0xFFFFFFFFFFFFFFFFFFFFFFFFFFFFFFFFFFFFFFFF AND PUSH32 0xDDF252AD1BE2C89B69C2B068FC378DAA952BA7F163C4A11628F55A4DF523B3EF DUP5 PUSH1 0x40 MLOAD PUSH2 0x1E57 SWAP2 SWAP1 PUSH2 0x20A0 JUMP JUMPDEST PUSH1 0x40 MLOAD DUP1 SWAP2 SUB SWAP1 LOG3 PUSH2 0x1E6B DUP4 PUSH1 0x0 DUP5 PUSH2 0x1E75 JUMP JUMPDEST POP POP POP JUMP JUMPDEST POP POP POP JUMP JUMPDEST POP POP POP JUMP JUMPDEST PUSH1 0x0 DUP2 MLOAD SWAP1 POP SWAP2 SWAP1 POP JUMP JUMPDEST PUSH1 0x0 DUP3 DUP3 MSTORE PUSH1 0x20 DUP3 ADD SWAP1 POP SWAP3 SWAP2 POP POP JUMP JUMPDEST PUSH1 0x0 JUMPDEST DUP4 DUP2 LT ISZERO PUSH2 0x1EB4 JUMPI DUP1 DUP3 ADD MLOAD DUP2 DUP5 ADD MSTORE PUSH1 0x20 DUP2 ADD SWAP1 POP PUSH2 0x1E99 JUMP JUMPDEST PUSH1 0x0 DUP5 DUP5 ADD MSTORE POP POP POP POP JUMP JUMPDEST PUSH1 0x0 PUSH1 0x1F NOT PUSH1 0x1F DUP4 ADD AND SWAP1 POP SWAP2 SWAP1 POP JUMP JUMPDEST PUSH1 0x0 PUSH2 0x1EDC DUP3 PUSH2 0x1E7A JUMP JUMPDEST PUSH2 0x1EE6 DUP2 DUP6 PUSH2 0x1E85 JUMP JUMPDEST SWAP4 POP PUSH2 0x1EF6 DUP2 DUP6 PUSH1 0x20 DUP7 ADD PUSH2 0x1E96 JUMP JUMPDEST PUSH2 0x1EFF DUP2 PUSH2 0x1EC0 JUMP JUMPDEST DUP5 ADD SWAP2 POP POP SWAP3 SWAP2 POP POP JUMP JUMPDEST PUSH1 0x0 PUSH1 0x20 DUP3 ADD SWAP1 POP DUP2 DUP2 SUB PUSH1 0x0 DUP4 ADD MSTORE PUSH2 0x1F24 DUP2 DUP5 PUSH2 0x1ED1 JUMP JUMPDEST SWAP1 POP SWAP3 SWAP2 POP POP JUMP JUMPDEST PUSH1 0x0 DUP2 SWAP1 POP SWAP2 SWAP1 POP JUMP JUMPDEST PUSH2 0x1F3F DUP2 PUSH2 0x1F2C JUMP JUMPDEST DUP3 MSTORE POP POP JUMP JUMPDEST PUSH1 0x0 PUSH1 0x40 DUP3 ADD SWAP1 POP PUSH2 0x1F5A PUSH1 0x0 DUP4 ADD DUP6 PUSH2 0x1F36 JUMP JUMPDEST PUSH2 0x1F67 PUSH1 0x20 DUP4 ADD DUP5 PUSH2 0x1F36 JUMP JUMPDEST SWAP4 SWAP3 POP POP POP JUMP JUMPDEST PUSH1 0x0 DUP1 REVERT JUMPDEST PUSH1 0x0 PUSH20 0xFFFFFFFFFFFFFFFFFFFFFFFFFFFFFFFFFFFFFFFF DUP3 AND SWAP1 POP SWAP2 SWAP1 POP JUMP JUMPDEST PUSH1 0x0 PUSH2 0x1F9E DUP3 PUSH2 0x1F73 JUMP JUMPDEST SWAP1 POP SWAP2 SWAP1 POP JUMP JUMPDEST PUSH2 0x1FAE DUP2 PUSH2 0x1F93 JUMP JUMPDEST DUP2 EQ PUSH2 0x1FB9 JUMPI PUSH1 0x0 DUP1 REVERT JUMPDEST POP JUMP JUMPDEST PUSH1 0x0 DUP2 CALLDATALOAD SWAP1 POP PUSH2 0x1FCB DUP2 PUSH2 0x1FA5 JUMP JUMPDEST SWAP3 SWAP2 POP POP JUMP JUMPDEST PUSH2 0x1FDA DUP2 PUSH2 0x1F2C JUMP JUMPDEST DUP2 EQ PUSH2 0x1FE5 JUMPI PUSH1 0x0 DUP1 REVERT JUMPDEST POP JUMP JUMPDEST PUSH1 0x0 DUP2 CALLDATALOAD SWAP1 POP PUSH2 0x1FF7 DUP2 PUSH2 0x1FD1 JUMP JUMPDEST SWAP3 SWAP2 POP POP JUMP JUMPDEST PUSH1 0x0 DUP1 PUSH1 0x40 DUP4 DUP6 SUB SLT ISZERO PUSH2 0x2014 JUMPI PUSH2 0x2013 PUSH2 0x1F6E JUMP JUMPDEST JUMPDEST PUSH1 0x0 PUSH2 0x2022 DUP6 DUP3 DUP7 ADD PUSH2 0x1FBC JUMP JUMPDEST SWAP3 POP POP PUSH1 0x20 PUSH2 0x2033 DUP6 DUP3 DUP7 ADD PUSH2 0x1FE8 JUMP JUMPDEST SWAP2 POP POP SWAP3 POP SWAP3 SWAP1 POP JUMP JUMPDEST PUSH1 0x0 DUP2 ISZERO ISZERO SWAP1 POP SWAP2 SWAP1 POP JUMP JUMPDEST PUSH2 0x2052 DUP2 PUSH2 0x203D JUMP JUMPDEST DUP3 MSTORE POP POP JUMP JUMPDEST PUSH1 0x0 PUSH1 0x20 DUP3 ADD SWAP1 POP PUSH2 0x206D PUSH1 0x0 DUP4 ADD DUP5 PUSH2 0x2049 JUMP JUMPDEST SWAP3 SWAP2 POP POP JUMP JUMPDEST PUSH1 0x0 PUSH1 0x20 DUP3 DUP5 SUB SLT ISZERO PUSH2 0x2089 JUMPI PUSH2 0x2088 PUSH2 0x1F6E JUMP JUMPDEST JUMPDEST PUSH1 0x0 PUSH2 0x2097 DUP5 DUP3 DUP6 ADD PUSH2 0x1FE8 JUMP JUMPDEST SWAP2 POP POP SWAP3 SWAP2 POP POP JUMP JUMPDEST PUSH1 0x0 PUSH1 0x20 DUP3 ADD SWAP1 POP PUSH2 0x20B5 PUSH1 0x0 DUP4 ADD DUP5 PUSH2 0x1F36 JUMP JUMPDEST SWAP3 SWAP2 POP POP JUMP JUMPDEST PUSH1 0x0 DUP1 PUSH1 0x0 PUSH1 0x60 DUP5 DUP7 SUB SLT ISZERO PUSH2 0x20D4 JUMPI PUSH2 0x20D3 PUSH2 0x1F6E JUMP JUMPDEST JUMPDEST PUSH1 0x0 PUSH2 0x20E2 DUP7 DUP3 DUP8 ADD PUSH2 0x1FBC JUMP JUMPDEST SWAP4 POP POP PUSH1 0x20 PUSH2 0x20F3 DUP7 DUP3 DUP8 ADD PUSH2 0x1FBC JUMP JUMPDEST SWAP3 POP POP PUSH1 0x40 PUSH2 0x2104 DUP7 DUP3 DUP8 ADD PUSH2 0x1FE8 JUMP JUMPDEST SWAP2 POP POP SWAP3 POP SWAP3 POP SWAP3 JUMP JUMPDEST PUSH1 0x0 PUSH1 0xFF DUP3 AND SWAP1 POP SWAP2 SWAP1 POP JUMP JUMPDEST PUSH2 0x2124 DUP2 PUSH2 0x210E JUMP JUMPDEST DUP3 MSTORE POP POP JUMP JUMPDEST PUSH1 0x0 PUSH1 0x20 DUP3 ADD SWAP1 POP PUSH2 0x213F PUSH1 0x0 DUP4 ADD DUP5 PUSH2 0x211B JUMP JUMPDEST SWAP3 SWAP2 POP POP JUMP JUMPDEST PUSH1 0x0 DUP1 PUSH1 0x40 DUP4 DUP6 SUB SLT ISZERO PUSH2 0x215C JUMPI PUSH2 0x215B PUSH2 0x1F6E JUMP JUMPDEST JUMPDEST PUSH1 0x0 PUSH2 0x216A DUP6 DUP3 DUP7 ADD PUSH2 0x1FE8 JUMP JUMPDEST SWAP3 POP POP PUSH1 0x20 PUSH2 0x217B DUP6 DUP3 DUP7 ADD PUSH2 0x1FBC JUMP JUMPDEST SWAP2 POP POP SWAP3 POP SWAP3 SWAP1 POP JUMP JUMPDEST PUSH1 0x0 DUP1 PUSH1 0x40 DUP4 DUP6 SUB SLT ISZERO PUSH2 0x219C JUMPI PUSH2 0x219B PUSH2 0x1F6E JUMP JUMPDEST JUMPDEST PUSH1 0x0 PUSH2 0x21AA DUP6 DUP3 DUP7 ADD PUSH2 0x1FE8 JUMP JUMPDEST SWAP3 POP POP PUSH1 0x20 PUSH2 0x21BB DUP6 DUP3 DUP7 ADD PUSH2 0x1FE8 JUMP JUMPDEST SWAP2 POP POP SWAP3 POP SWAP3 SWAP1 POP JUMP JUMPDEST PUSH1 0x0 PUSH1 0x20 DUP3 DUP5 SUB SLT ISZERO PUSH2 0x21DB JUMPI PUSH2 0x21DA PUSH2 0x1F6E JUMP JUMPDEST JUMPDEST PUSH1 0x0 PUSH2 0x21E9 DUP5 DUP3 DUP6 ADD PUSH2 0x1FBC JUMP JUMPDEST SWAP2 POP POP SWAP3 SWAP2 POP POP JUMP JUMPDEST PUSH2 0x21FB DUP2 PUSH2 0x1F93 JUMP JUMPDEST DUP3 MSTORE POP POP JUMP JUMPDEST PUSH1 0x0 PUSH1 0x20 DUP3 ADD SWAP1 POP PUSH2 0x2216 PUSH1 0x0 DUP4 ADD DUP5 PUSH2 0x21F2 JUMP JUMPDEST SWAP3 SWAP2 POP POP JUMP JUMPDEST PUSH1 0x0 DUP1 PUSH1 0x40 DUP4 DUP6 SUB SLT ISZERO PUSH2 0x2233 JUMPI PUSH2 0x2232 PUSH2 0x1F6E JUMP JUMPDEST JUMPDEST PUSH1 0x0 PUSH2 0x2241 DUP6 DUP3 DUP7 ADD PUSH2 0x1FBC JUMP JUMPDEST SWAP3 POP POP PUSH1 0x20 PUSH2 0x2252 DUP6 DUP3 DUP7 ADD PUSH2 0x1FBC JUMP JUMPDEST SWAP2 POP POP SWAP3 POP SWAP3 SWAP1 POP JUMP JUMPDEST PUSH1 0x0 DUP1 PUSH1 0x0 PUSH1 0x60 DUP5 DUP7 SUB SLT ISZERO PUSH2 0x2275 JUMPI PUSH2 0x2274 PUSH2 0x1F6E JUMP JUMPDEST JUMPDEST PUSH1 0x0 PUSH2 0x2283 DUP7 DUP3 DUP8 ADD PUSH2 0x1FE8 JUMP JUMPDEST SWAP4 POP POP PUSH1 0x20 PUSH2 0x2294 DUP7 DUP3 DUP8 ADD PUSH2 0x1FE8 JUMP JUMPDEST SWAP3 POP POP PUSH1 0x40 PUSH2 0x22A5 DUP7 DUP3 DUP8 ADD PUSH2 0x1FBC JUMP JUMPDEST SWAP2 POP POP SWAP3 POP SWAP3 POP SWAP3 JUMP JUMPDEST PUSH32 0x4E487B7100000000000000000000000000000000000000000000000000000000 PUSH1 0x0 MSTORE PUSH1 0x22 PUSH1 0x4 MSTORE PUSH1 0x24 PUSH1 0x0 REVERT JUMPDEST PUSH1 0x0 PUSH1 0x2 DUP3 DIV SWAP1 POP PUSH1 0x1 DUP3 AND DUP1 PUSH2 0x22F6 JUMPI PUSH1 0x7F DUP3 AND SWAP2 POP JUMPDEST PUSH1 0x20 DUP3 LT DUP2 SUB PUSH2 0x2309 JUMPI PUSH2 0x2308 PUSH2 0x22AF JUMP JUMPDEST JUMPDEST POP SWAP2 SWAP1 POP JUMP JUMPDEST PUSH1 0x0 DUP2 MLOAD SWAP1 POP PUSH2 0x231E DUP2 PUSH2 0x1FD1 JUMP JUMPDEST SWAP3 SWAP2 POP POP JUMP JUMPDEST PUSH1 0x0 PUSH1 0x20 DUP3 DUP5 SUB SLT ISZERO PUSH2 0x233A JUMPI PUSH2 0x2339 PUSH2 0x1F6E JUMP JUMPDEST JUMPDEST PUSH1 0x0 PUSH2 0x2348 DUP5 DUP3 DUP6 ADD PUSH2 0x230F JUMP JUMPDEST SWAP2 POP POP SWAP3 SWAP2 POP POP JUMP JUMPDEST PUSH32 0x45544820616D6F756E742063616E6E6F74206265207A65726F00000000000000 PUSH1 0x0 DUP3 ADD MSTORE POP JUMP JUMPDEST PUSH1 0x0 PUSH2 0x2387 PUSH1 0x19 DUP4 PUSH2 0x1E85 JUMP JUMPDEST SWAP2 POP PUSH2 0x2392 DUP3 PUSH2 0x2351 JUMP JUMPDEST PUSH1 0x20 DUP3 ADD SWAP1 POP SWAP2 SWAP1 POP JUMP JUMPDEST PUSH1 0x0 PUSH1 0x20 DUP3 ADD SWAP1 POP DUP2 DUP2 SUB PUSH1 0x0 DUP4 ADD MSTORE PUSH2 0x23B6 DUP2 PUSH2 0x237A JUMP JUMPDEST SWAP1 POP SWAP2 SWAP1 POP JUMP JUMPDEST PUSH32 0x4E487B7100000000000000000000000000000000000000000000000000000000 PUSH1 0x0 MSTORE PUSH1 0x11 PUSH1 0x4 MSTORE PUSH1 0x24 PUSH1 0x0 REVERT JUMPDEST PUSH1 0x0 PUSH2 0x23F7 DUP3 PUSH2 0x1F2C JUMP JUMPDEST SWAP2 POP PUSH2 0x2402 DUP4 PUSH2 0x1F2C JUMP JUMPDEST SWAP3 POP DUP3 DUP3 ADD SWAP1 POP DUP1 DUP3 GT ISZERO PUSH2 0x241A JUMPI PUSH2 0x2419 PUSH2 0x23BD JUMP JUMPDEST JUMPDEST SWAP3 SWAP2 POP POP JUMP JUMPDEST PUSH1 0x0 PUSH1 0x60 DUP3 ADD SWAP1 POP PUSH2 0x2435 PUSH1 0x0 DUP4 ADD DUP7 PUSH2 0x21F2 JUMP JUMPDEST PUSH2 0x2442 PUSH1 0x20 DUP4 ADD DUP6 PUSH2 0x21F2 JUMP JUMPDEST PUSH2 0x244F PUSH1 0x40 DUP4 ADD DUP5 PUSH2 0x1F36 JUMP JUMPDEST SWAP5 SWAP4 POP POP POP POP JUMP JUMPDEST PUSH2 0x2460 DUP2 PUSH2 0x203D JUMP JUMPDEST DUP2 EQ PUSH2 0x246B JUMPI PUSH1 0x0 DUP1 REVERT JUMPDEST POP JUMP JUMPDEST PUSH1 0x0 DUP2 MLOAD SWAP1 POP PUSH2 0x247D DUP2 PUSH2 0x2457 JUMP JUMPDEST SWAP3 SWAP2 POP POP JUMP JUMPDEST PUSH1 0x0 PUSH1 0x20 DUP3 DUP5 SUB SLT ISZERO PUSH2 0x2499 JUMPI PUSH2 0x2498 PUSH2 0x1F6E JUMP JUMPDEST JUMPDEST PUSH1 0x0 PUSH2 0x24A7 DUP5 DUP3 DUP6 ADD PUSH2 0x246E JUMP JUMPDEST SWAP2 POP POP SWAP3 SWAP2 POP POP JUMP JUMPDEST PUSH1 0x0 PUSH2 0x24BB DUP3 PUSH2 0x1F2C JUMP JUMPDEST SWAP2 POP PUSH2 0x24C6 DUP4 PUSH2 0x1F2C JUMP JUMPDEST SWAP3 POP DUP3 DUP3 SUB SWAP1 POP DUP2 DUP2 GT ISZERO PUSH2 0x24DE JUMPI PUSH2 0x24DD PUSH2 0x23BD JUMP JUMPDEST JUMPDEST SWAP3 SWAP2 POP POP JUMP JUMPDEST PUSH1 0x0 PUSH2 0x24EF DUP3 PUSH2 0x1F2C JUMP JUMPDEST SWAP2 POP PUSH2 0x24FA DUP4 PUSH2 0x1F2C JUMP JUMPDEST SWAP3 POP DUP3 DUP3 MUL PUSH2 0x2508 DUP2 PUSH2 0x1F2C JUMP JUMPDEST SWAP2 POP DUP3 DUP3 DIV DUP5 EQ DUP4 ISZERO OR PUSH2 0x251F JUMPI PUSH2 0x251E PUSH2 0x23BD JUMP JUMPDEST JUMPDEST POP SWAP3 SWAP2 POP POP JUMP JUMPDEST PUSH32 0x4E487B7100000000000000000000000000000000000000000000000000000000 PUSH1 0x0 MSTORE PUSH1 0x12 PUSH1 0x4 MSTORE PUSH1 0x24 PUSH1 0x0 REVERT JUMPDEST PUSH1 0x0 PUSH2 0x2560 DUP3 PUSH2 0x1F2C JUMP JUMPDEST SWAP2 POP PUSH2 0x256B DUP4 PUSH2 0x1F2C JUMP JUMPDEST SWAP3 POP DUP3 PUSH2 0x257B JUMPI PUSH2 0x257A PUSH2 0x2526 JUMP JUMPDEST JUMPDEST DUP3 DUP3 DIV SWAP1 POP SWAP3 SWAP2 POP POP JUMP JUMPDEST PUSH32 0x496E73756666696369656E7420696E70757420616D6F756E74206F6620455243 PUSH1 0x0 DUP3 ADD MSTORE PUSH32 0x323020546F6B656E730000000000000000000000000000000000000000000000 PUSH1 0x20 DUP3 ADD MSTORE POP JUMP JUMPDEST PUSH1 0x0 PUSH2 0x25E2 PUSH1 0x29 DUP4 PUSH2 0x1E85 JUMP JUMPDEST SWAP2 POP PUSH2 0x25ED DUP3 PUSH2 0x2586 JUMP JUMPDEST PUSH1 0x40 DUP3 ADD SWAP1 POP SWAP2 SWAP1 POP JUMP JUMPDEST PUSH1 0x0 PUSH1 0x20 DUP3 ADD SWAP1 POP DUP2 DUP2 SUB PUSH1 0x0 DUP4 ADD MSTORE PUSH2 0x2611 DUP2 PUSH2 0x25D5 JUMP JUMPDEST SWAP1 POP SWAP2 SWAP1 POP JUMP JUMPDEST PUSH32 0x416D6F756E74207377617070656420646F6573206E6F74206D65657420796F75 PUSH1 0x0 DUP3 ADD MSTORE PUSH32 0x722073746970756C6174656420616D6F756E742C20726576657274696E672073 PUSH1 0x20 DUP3 ADD MSTORE PUSH32 0x7761700000000000000000000000000000000000000000000000000000000000 PUSH1 0x40 DUP3 ADD MSTORE POP JUMP JUMPDEST PUSH1 0x0 PUSH2 0x269A PUSH1 0x43 DUP4 PUSH2 0x1E85 JUMP JUMPDEST SWAP2 POP PUSH2 0x26A5 DUP3 PUSH2 0x2618 JUMP JUMPDEST PUSH1 0x60 DUP3 ADD SWAP1 POP SWAP2 SWAP1 POP JUMP JUMPDEST PUSH1 0x0 PUSH1 0x20 DUP3 ADD SWAP1 POP DUP2 DUP2 SUB PUSH1 0x0 DUP4 ADD MSTORE PUSH2 0x26C9 DUP2 PUSH2 0x268D JUMP JUMPDEST SWAP1 POP SWAP2 SWAP1 POP JUMP JUMPDEST PUSH1 0x0 DUP2 SWAP1 POP SWAP3 SWAP2 POP POP JUMP JUMPDEST POP JUMP JUMPDEST PUSH1 0x0 PUSH2 0x26EB PUSH1 0x0 DUP4 PUSH2 0x26D0 JUMP JUMPDEST SWAP2 POP PUSH2 0x26F6 DUP3 PUSH2 0x26DB JUMP JUMPDEST PUSH1 0x0 DUP3 ADD SWAP1 POP SWAP2 SWAP1 POP JUMP JUMPDEST PUSH1 0x0 PUSH2 0x270C DUP3 PUSH2 0x26DE JUMP JUMPDEST SWAP2 POP DUP2 SWAP1 POP SWAP2 SWAP1 POP JUMP JUMPDEST PUSH32 0x5472616E73616374696F6E206F662045544820746F20726563697069656E7420 PUSH1 0x0 DUP3 ADD MSTORE PUSH32 0x6661696C65640000000000000000000000000000000000000000000000000000 PUSH1 0x20 DUP3 ADD MSTORE POP JUMP JUMPDEST PUSH1 0x0 PUSH2 0x2772 PUSH1 0x26 DUP4 PUSH2 0x1E85 JUMP JUMPDEST SWAP2 POP PUSH2 0x277D DUP3 PUSH2 0x2716 JUMP JUMPDEST PUSH1 0x40 DUP3 ADD SWAP1 POP SWAP2 SWAP1 POP JUMP JUMPDEST PUSH1 0x0 PUSH1 0x20 DUP3 ADD SWAP1 POP DUP2 DUP2 SUB PUSH1 0x0 DUP4 ADD MSTORE PUSH2 0x27A1 DUP2 PUSH2 0x2765 JUMP JUMPDEST SWAP1 POP SWAP2 SWAP1 POP JUMP JUMPDEST PUSH32 0x506C6561736520696E70757420612076616C696420616D6F756E74206F66204C PUSH1 0x0 DUP3 ADD MSTORE PUSH32 0x5020546F6B656E7320746F206275726E2F72656465656D000000000000000000 PUSH1 0x20 DUP3 ADD MSTORE POP JUMP JUMPDEST PUSH1 0x0 PUSH2 0x2804 PUSH1 0x37 DUP4 PUSH2 0x1E85 JUMP JUMPDEST SWAP2 POP PUSH2 0x280F DUP3 PUSH2 0x27A8 JUMP JUMPDEST PUSH1 0x40 DUP3 ADD SWAP1 POP SWAP2 SWAP1 POP JUMP JUMPDEST PUSH1 0x0 PUSH1 0x20 DUP3 ADD SWAP1 POP DUP2 DUP2 SUB PUSH1 0x0 DUP4 ADD MSTORE PUSH2 0x2833 DUP2 PUSH2 0x27F7 JUMP JUMPDEST SWAP1 POP SWAP2 SWAP1 POP JUMP JUMPDEST PUSH32 0x5472616E73616374696F6E206F662045746865722077617320756E7375636365 PUSH1 0x0 DUP3 ADD MSTORE PUSH32 0x737366756C000000000000000000000000000000000000000000000000000000 PUSH1 0x20 DUP3 ADD MSTORE POP JUMP JUMPDEST PUSH1 0x0 PUSH2 0x2896 PUSH1 0x25 DUP4 PUSH2 0x1E85 JUMP JUMPDEST SWAP2 POP PUSH2 0x28A1 DUP3 PUSH2 0x283A JUMP JUMPDEST PUSH1 0x40 DUP3 ADD SWAP1 POP SWAP2 SWAP1 POP JUMP JUMPDEST PUSH1 0x0 PUSH1 0x20 DUP3 ADD SWAP1 POP DUP2 DUP2 SUB PUSH1 0x0 DUP4 ADD MSTORE PUSH2 0x28C5 DUP2 PUSH2 0x2889 JUMP JUMPDEST SWAP1 POP SWAP2 SWAP1 POP JUMP JUMPDEST PUSH1 0x0 PUSH1 0x40 DUP3 ADD SWAP1 POP PUSH2 0x28E1 PUSH1 0x0 DUP4 ADD DUP6 PUSH2 0x21F2 JUMP JUMPDEST PUSH2 0x28EE PUSH1 0x20 DUP4 ADD DUP5 PUSH2 0x1F36 JUMP JUMPDEST SWAP4 SWAP3 POP POP POP JUMP JUMPDEST PUSH32 0x45524332303A2064656372656173656420616C6C6F77616E63652062656C6F77 PUSH1 0x0 DUP3 ADD MSTORE PUSH32 0x207A65726F000000000000000000000000000000000000000000000000000000 PUSH1 0x20 DUP3 ADD MSTORE POP JUMP JUMPDEST PUSH1 0x0 PUSH2 0x2951 PUSH1 0x25 DUP4 PUSH2 0x1E85 JUMP JUMPDEST SWAP2 POP PUSH2 0x295C DUP3 PUSH2 0x28F5 JUMP JUMPDEST PUSH1 0x40 DUP3 ADD SWAP1 POP SWAP2 SWAP1 POP JUMP JUMPDEST PUSH1 0x0 PUSH1 0x20 DUP3 ADD SWAP1 POP DUP2 DUP2 SUB PUSH1 0x0 DUP4 ADD MSTORE PUSH2 0x2980 DUP2 PUSH2 0x2944 JUMP JUMPDEST SWAP1 POP SWAP2 SWAP1 POP JUMP JUMPDEST PUSH32 0x546F6B656E206164647265737320697320696E76616C69640000000000000000 PUSH1 0x0 DUP3 ADD MSTORE POP JUMP JUMPDEST PUSH1 0x0 PUSH2 0x29BD PUSH1 0x18 DUP4 PUSH2 0x1E85 JUMP JUMPDEST SWAP2 POP PUSH2 0x29C8 DUP3 PUSH2 0x2987 JUMP JUMPDEST PUSH1 0x20 DUP3 ADD SWAP1 POP SWAP2 SWAP1 POP JUMP JUMPDEST PUSH1 0x0 PUSH1 0x20 DUP3 ADD SWAP1 POP DUP2 DUP2 SUB PUSH1 0x0 DUP4 ADD MSTORE PUSH2 0x29EC DUP2 PUSH2 0x29B0 JUMP JUMPDEST SWAP1 POP SWAP2 SWAP1 POP JUMP JUMPDEST PUSH32 0x496E76616C696420696E70757420746F6B656E20616D6F756E74000000000000 PUSH1 0x0 DUP3 ADD MSTORE POP JUMP JUMPDEST PUSH1 0x0 PUSH2 0x2A29 PUSH1 0x1A DUP4 PUSH2 0x1E85 JUMP JUMPDEST SWAP2 POP PUSH2 0x2A34 DUP3 PUSH2 0x29F3 JUMP JUMPDEST PUSH1 0x20 DUP3 ADD SWAP1 POP SWAP2 SWAP1 POP JUMP JUMPDEST PUSH1 0x0 PUSH1 0x20 DUP3 ADD SWAP1 POP DUP2 DUP2 SUB PUSH1 0x0 DUP4 ADD MSTORE PUSH2 0x2A58 DUP2 PUSH2 0x2A1C JUMP JUMPDEST SWAP1 POP SWAP2 SWAP1 POP JUMP JUMPDEST PUSH1 0x0 DUP2 MLOAD SWAP1 POP PUSH2 0x2A6E DUP2 PUSH2 0x1FA5 JUMP JUMPDEST SWAP3 SWAP2 POP POP JUMP JUMPDEST PUSH1 0x0 PUSH1 0x20 DUP3 DUP5 SUB SLT ISZERO PUSH2 0x2A8A JUMPI PUSH2 0x2A89 PUSH2 0x1F6E JUMP JUMPDEST JUMPDEST PUSH1 0x0 PUSH2 0x2A98 DUP5 DUP3 DUP6 ADD PUSH2 0x2A5F JUMP JUMPDEST SWAP2 POP POP SWAP3 SWAP2 POP POP JUMP JUMPDEST PUSH32 0x45786368616E67652061646472657373206E6F742076616C6964000000000000 PUSH1 0x0 DUP3 ADD MSTORE POP JUMP JUMPDEST PUSH1 0x0 PUSH2 0x2AD7 PUSH1 0x1A DUP4 PUSH2 0x1E85 JUMP JUMPDEST SWAP2 POP PUSH2 0x2AE2 DUP3 PUSH2 0x2AA1 JUMP JUMPDEST PUSH1 0x20 DUP3 ADD SWAP1 POP SWAP2 SWAP1 POP JUMP JUMPDEST PUSH1 0x0 PUSH1 0x20 DUP3 ADD SWAP1 POP DUP2 DUP2 SUB PUSH1 0x0 DUP4 ADD MSTORE PUSH2 0x2B06 DUP2 PUSH2 0x2ACA JUMP JUMPDEST SWAP1 POP SWAP2 SWAP1 POP JUMP JUMPDEST PUSH1 0x0 PUSH1 0x40 DUP3 ADD SWAP1 POP PUSH2 0x2B22 PUSH1 0x0 DUP4 ADD DUP6 PUSH2 0x1F36 JUMP JUMPDEST PUSH2 0x2B2F PUSH1 0x20 DUP4 ADD DUP5 PUSH2 0x21F2 JUMP JUMPDEST SWAP4 SWAP3 POP POP POP JUMP JUMPDEST PUSH32 0x45524332303A20617070726F76652066726F6D20746865207A65726F20616464 PUSH1 0x0 DUP3 ADD MSTORE PUSH32 0x7265737300000000000000000000000000000000000000000000000000000000 PUSH1 0x20 DUP3 ADD MSTORE POP JUMP JUMPDEST PUSH1 0x0 PUSH2 0x2B92 PUSH1 0x24 DUP4 PUSH2 0x1E85 JUMP JUMPDEST SWAP2 POP PUSH2 0x2B9D DUP3 PUSH2 0x2B36 JUMP JUMPDEST PUSH1 0x40 DUP3 ADD SWAP1 POP SWAP2 SWAP1 POP JUMP JUMPDEST PUSH1 0x0 PUSH1 0x20 DUP3 ADD SWAP1 POP DUP2 DUP2 SUB PUSH1 0x0 DUP4 ADD MSTORE PUSH2 0x2BC1 DUP2 PUSH2 0x2B85 JUMP JUMPDEST SWAP1 POP SWAP2 SWAP1 POP JUMP JUMPDEST PUSH32 0x45524332303A20617070726F766520746F20746865207A65726F206164647265 PUSH1 0x0 DUP3 ADD MSTORE PUSH32 0x7373000000000000000000000000000000000000000000000000000000000000 PUSH1 0x20 DUP3 ADD MSTORE POP JUMP JUMPDEST PUSH1 0x0 PUSH2 0x2C24 PUSH1 0x22 DUP4 PUSH2 0x1E85 JUMP JUMPDEST SWAP2 POP PUSH2 0x2C2F DUP3 PUSH2 0x2BC8 JUMP JUMPDEST PUSH1 0x40 DUP3 ADD SWAP1 POP SWAP2 SWAP1 POP JUMP JUMPDEST PUSH1 0x0 PUSH1 0x20 DUP3 ADD SWAP1 POP DUP2 DUP2 SUB PUSH1 0x0 DUP4 ADD MSTORE PUSH2 0x2C53 DUP2 PUSH2 0x2C17 JUMP JUMPDEST SWAP1 POP SWAP2 SWAP1 POP JUMP JUMPDEST PUSH32 0x546865726520617265206E6F2072657365727665730000000000000000000000 PUSH1 0x0 DUP3 ADD MSTORE POP JUMP JUMPDEST PUSH1 0x0 PUSH2 0x2C90 PUSH1 0x15 DUP4 PUSH2 0x1E85 JUMP JUMPDEST SWAP2 POP PUSH2 0x2C9B DUP3 PUSH2 0x2C5A JUMP JUMPDEST PUSH1 0x20 DUP3 ADD SWAP1 POP SWAP2 SWAP1 POP JUMP JUMPDEST PUSH1 0x0 PUSH1 0x20 DUP3 ADD SWAP1 POP DUP2 DUP2 SUB PUSH1 0x0 DUP4 ADD MSTORE PUSH2 0x2CBF DUP2 PUSH2 0x2C83 JUMP JUMPDEST SWAP1 POP SWAP2 SWAP1 POP JUMP JUMPDEST PUSH32 0x45524332303A20696E73756666696369656E7420616C6C6F77616E6365000000 PUSH1 0x0 DUP3 ADD MSTORE POP JUMP JUMPDEST PUSH1 0x0 PUSH2 0x2CFC PUSH1 0x1D DUP4 PUSH2 0x1E85 JUMP JUMPDEST SWAP2 POP PUSH2 0x2D07 DUP3 PUSH2 0x2CC6 JUMP JUMPDEST PUSH1 0x20 DUP3 ADD SWAP1 POP SWAP2 SWAP1 POP JUMP JUMPDEST PUSH1 0x0 PUSH1 0x20 DUP3 ADD SWAP1 POP DUP2 DUP2 SUB PUSH1 0x0 DUP4 ADD MSTORE PUSH2 0x2D2B DUP2 PUSH2 0x2CEF JUMP JUMPDEST SWAP1 POP SWAP2 SWAP1 POP JUMP JUMPDEST PUSH32 0x45524332303A207472616E736665722066726F6D20746865207A65726F206164 PUSH1 0x0 DUP3 ADD MSTORE PUSH32 0x6472657373000000000000000000000000000000000000000000000000000000 PUSH1 0x20 DUP3 ADD MSTORE POP JUMP JUMPDEST PUSH1 0x0 PUSH2 0x2D8E PUSH1 0x25 DUP4 PUSH2 0x1E85 JUMP JUMPDEST SWAP2 POP PUSH2 0x2D99 DUP3 PUSH2 0x2D32 JUMP JUMPDEST PUSH1 0x40 DUP3 ADD SWAP1 POP SWAP2 SWAP1 POP JUMP JUMPDEST PUSH1 0x0 PUSH1 0x20 DUP3 ADD SWAP1 POP DUP2 DUP2 SUB PUSH1 0x0 DUP4 ADD MSTORE PUSH2 0x2DBD DUP2 PUSH2 0x2D81 JUMP JUMPDEST SWAP1 POP SWAP2 SWAP1 POP JUMP JUMPDEST PUSH32 0x45524332303A207472616E7366657220746F20746865207A65726F2061646472 PUSH1 0x0 DUP3 ADD MSTORE PUSH32 0x6573730000000000000000000000000000000000000000000000000000000000 PUSH1 0x20 DUP3 ADD MSTORE POP JUMP JUMPDEST PUSH1 0x0 PUSH2 0x2E20 PUSH1 0x23 DUP4 PUSH2 0x1E85 JUMP JUMPDEST SWAP2 POP PUSH2 0x2E2B DUP3 PUSH2 0x2DC4 JUMP JUMPDEST PUSH1 0x40 DUP3 ADD SWAP1 POP SWAP2 SWAP1 POP JUMP JUMPDEST PUSH1 0x0 PUSH1 0x20 DUP3 ADD SWAP1 POP DUP2 DUP2 SUB PUSH1 0x0 DUP4 ADD MSTORE PUSH2 0x2E4F DUP2 PUSH2 0x2E13 JUMP JUMPDEST SWAP1 POP SWAP2 SWAP1 POP JUMP JUMPDEST PUSH32 0x45524332303A207472616E7366657220616D6F756E7420657863656564732062 PUSH1 0x0 DUP3 ADD MSTORE PUSH32 0x616C616E63650000000000000000000000000000000000000000000000000000 PUSH1 0x20 DUP3 ADD MSTORE POP JUMP JUMPDEST PUSH1 0x0 PUSH2 0x2EB2 PUSH1 0x26 DUP4 PUSH2 0x1E85 JUMP JUMPDEST SWAP2 POP PUSH2 0x2EBD DUP3 PUSH2 0x2E56 JUMP JUMPDEST PUSH1 0x40 DUP3 ADD SWAP1 POP SWAP2 SWAP1 POP JUMP JUMPDEST PUSH1 0x0 PUSH1 0x20 DUP3 ADD SWAP1 POP DUP2 DUP2 SUB PUSH1 0x0 DUP4 ADD MSTORE PUSH2 0x2EE1 DUP2 PUSH2 0x2EA5 JUMP JUMPDEST SWAP1 POP SWAP2 SWAP1 POP JUMP JUMPDEST PUSH32 0x45524332303A206D696E7420746F20746865207A65726F206164647265737300 PUSH1 0x0 DUP3 ADD MSTORE POP JUMP JUMPDEST PUSH1 0x0 PUSH2 0x2F1E PUSH1 0x1F DUP4 PUSH2 0x1E85 JUMP JUMPDEST SWAP2 POP PUSH2 0x2F29 DUP3 PUSH2 0x2EE8 JUMP JUMPDEST PUSH1 0x20 DUP3 ADD SWAP1 POP SWAP2 SWAP1 POP JUMP JUMPDEST PUSH1 0x0 PUSH1 0x20 DUP3 ADD SWAP1 POP DUP2 DUP2 SUB PUSH1 0x0 DUP4 ADD MSTORE PUSH2 0x2F4D DUP2 PUSH2 0x2F11 JUMP JUMPDEST SWAP1 POP SWAP2 SWAP1 POP JUMP JUMPDEST PUSH32 0x45524332303A206275726E2066726F6D20746865207A65726F20616464726573 PUSH1 0x0 DUP3 ADD MSTORE PUSH32 0x7300000000000000000000000000000000000000000000000000000000000000 PUSH1 0x20 DUP3 ADD MSTORE POP JUMP JUMPDEST PUSH1 0x0 PUSH2 0x2FB0 PUSH1 0x21 DUP4 PUSH2 0x1E85 JUMP JUMPDEST SWAP2 POP PUSH2 0x2FBB DUP3 PUSH2 0x2F54 JUMP JUMPDEST PUSH1 0x40 DUP3 ADD SWAP1 POP SWAP2 SWAP1 POP JUMP JUMPDEST PUSH1 0x0 PUSH1 0x20 DUP3 ADD SWAP1 POP DUP2 DUP2 SUB PUSH1 0x0 DUP4 ADD MSTORE PUSH2 0x2FDF DUP2 PUSH2 0x2FA3 JUMP JUMPDEST SWAP1 POP SWAP2 SWAP1 POP JUMP JUMPDEST PUSH32 0x45524332303A206275726E20616D6F756E7420657863656564732062616C616E PUSH1 0x0 DUP3 ADD MSTORE PUSH32 0x6365000000000000000000000000000000000000000000000000000000000000 PUSH1 0x20 DUP3 ADD MSTORE POP JUMP JUMPDEST PUSH1 0x0 PUSH2 0x3042 PUSH1 0x22 DUP4 PUSH2 0x1E85 JUMP JUMPDEST SWAP2 POP PUSH2 0x304D DUP3 PUSH2 0x2FE6 JUMP JUMPDEST PUSH1 0x40 DUP3 ADD SWAP1 POP SWAP2 SWAP1 POP JUMP JUMPDEST PUSH1 0x0 PUSH1 0x20 DUP3 ADD SWAP1 POP DUP2 DUP2 SUB PUSH1 0x0 DUP4 ADD MSTORE PUSH2 0x3071 DUP2 PUSH2 0x3035 JUMP JUMPDEST SWAP1 POP SWAP2 SWAP1 POP JUMP INVALID LOG2 PUSH5 0x6970667358 0x22 SLT KECCAK256 0xE4 MOD 0xE 0xA5 PUSH28 0xDE75FDC3D58E0C1A53D1724BBB2A77AFB51779BBBCD49A7A62916264 PUSH20 0x6F6C634300081100330000000000000000000000 "
				},
				"gasEstimates": {
					"creation": {
						"codeDepositCost": "2492400",
						"executionCost": "infinite",
						"totalCost": "infinite"
					},
					"external": {
						"addLiquidity(uint256)": "infinite",
						"allowance(address,address)": "infinite",
						"approve(address,uint256)": "infinite",
						"balanceOf(address)": "2886",
						"decimals()": "410",
						"decreaseAllowance(address,uint256)": "infinite",
						"ethToTokenSwap(uint256)": "infinite",
						"ethToTokenTransfer(uint256,address)": "infinite",
						"factoryAddress()": "2603",
						"getEthAmountForSwap(uint256)": "764",
						"getReserves()": "infinite",
						"getTokenAmountForSwap(uint256)": "infinite",
						"increaseAllowance(address,uint256)": "infinite",
						"name()": "infinite",
						"removeLiquidity(uint256)": "infinite",
						"symbol()": "infinite",
						"tokenAddress()": "2536",
						"tokenForEthSwap(uint256,uint256)": "infinite",
						"tokenToTokenSwap(uint256,uint256,address)": "infinite",
						"totalSupply()": "2549",
						"transfer(address,uint256)": "infinite",
						"transferFrom(address,address,uint256)": "infinite"
					},
					"internal": {
						"ethForTokenBasic(uint256,address)": "infinite",
						"getOutputAmount(uint256,uint256,uint256)": "infinite"
					}
				},
				"methodIdentifiers": {
					"addLiquidity(uint256)": "51c6590a",
					"allowance(address,address)": "dd62ed3e",
					"approve(address,uint256)": "095ea7b3",
					"balanceOf(address)": "70a08231",
					"decimals()": "313ce567",
					"decreaseAllowance(address,uint256)": "a457c2d7",
					"ethToTokenSwap(uint256)": "f979dcd7",
					"ethToTokenTransfer(uint256,address)": "389d9a40",
					"factoryAddress()": "966dae0e",
					"getEthAmountForSwap(uint256)": "2c0c60a4",
					"getReserves()": "0902f1ac",
					"getTokenAmountForSwap(uint256)": "0f8070b4",
					"increaseAllowance(address,uint256)": "39509351",
					"name()": "06fdde03",
					"removeLiquidity(uint256)": "9c8f9f23",
					"symbol()": "95d89b41",
					"tokenAddress()": "9d76ea58",
					"tokenForEthSwap(uint256,uint256)": "64338a30",
					"tokenToTokenSwap(uint256,uint256,address)": "f7a7e324",
					"totalSupply()": "18160ddd",
					"transfer(address,uint256)": "a9059cbb",
					"transferFrom(address,address,uint256)": "23b872dd"
				}
			},
			"storageLayout": {
				"storage": [
					{
						"astId": 15,
						"contract": "contracts/Pair.sol:Pair",
						"label": "_balances",
						"offset": 0,
						"slot": "0",
						"type": "t_mapping(t_address,t_uint256)"
					},
					{
						"astId": 21,
						"contract": "contracts/Pair.sol:Pair",
						"label": "_allowances",
						"offset": 0,
						"slot": "1",
						"type": "t_mapping(t_address,t_mapping(t_address,t_uint256))"
					},
					{
						"astId": 23,
						"contract": "contracts/Pair.sol:Pair",
						"label": "_totalSupply",
						"offset": 0,
						"slot": "2",
						"type": "t_uint256"
					},
					{
						"astId": 25,
						"contract": "contracts/Pair.sol:Pair",
						"label": "_name",
						"offset": 0,
						"slot": "3",
						"type": "t_string_storage"
					},
					{
						"astId": 27,
						"contract": "contracts/Pair.sol:Pair",
						"label": "_symbol",
						"offset": 0,
						"slot": "4",
						"type": "t_string_storage"
					},
					{
						"astId": 739,
						"contract": "contracts/Pair.sol:Pair",
						"label": "tokenAddress",
						"offset": 0,
						"slot": "5",
						"type": "t_address"
					},
					{
						"astId": 741,
						"contract": "contracts/Pair.sol:Pair",
						"label": "factoryAddress",
						"offset": 0,
						"slot": "6",
						"type": "t_address"
					}
				],
				"types": {
					"t_address": {
						"encoding": "inplace",
						"label": "address",
						"numberOfBytes": "20"
					},
					"t_mapping(t_address,t_mapping(t_address,t_uint256))": {
						"encoding": "mapping",
						"key": "t_address",
						"label": "mapping(address => mapping(address => uint256))",
						"numberOfBytes": "32",
						"value": "t_mapping(t_address,t_uint256)"
					},
					"t_mapping(t_address,t_uint256)": {
						"encoding": "mapping",
						"key": "t_address",
						"label": "mapping(address => uint256)",
						"numberOfBytes": "32",
						"value": "t_uint256"
					},
					"t_string_storage": {
						"encoding": "bytes",
						"label": "string",
						"numberOfBytes": "32"
					},
					"t_uint256": {
						"encoding": "inplace",
						"label": "uint256",
						"numberOfBytes": "32"
					}
				}
			},
			"userdoc": {
				"kind": "user",
				"methods": {},
				"version": 1
			}
		}
	}
}