{
	"contracts/Pair.sol": {
		"Pair": {
			"abi": [
				{
					"inputs": [
						{
							"internalType": "address",
							"name": "token",
							"type": "address"
						}
					],
					"stateMutability": "nonpayable",
					"type": "constructor"
				},
				{
					"anonymous": false,
					"inputs": [
						{
							"indexed": true,
							"internalType": "address",
							"name": "provider",
							"type": "address"
						},
						{
							"indexed": true,
							"internalType": "uint256",
							"name": "ethAmount",
							"type": "uint256"
						},
						{
							"indexed": true,
							"internalType": "uint256",
							"name": "tokenAmount",
							"type": "uint256"
						}
					],
					"name": "AddLiquidity",
					"type": "event"
				},
				{
					"anonymous": false,
					"inputs": [
						{
							"indexed": true,
							"internalType": "address",
							"name": "owner",
							"type": "address"
						},
						{
							"indexed": true,
							"internalType": "address",
							"name": "spender",
							"type": "address"
						},
						{
							"indexed": false,
							"internalType": "uint256",
							"name": "value",
							"type": "uint256"
						}
					],
					"name": "Approval",
					"type": "event"
				},
				{
					"anonymous": false,
					"inputs": [
						{
							"indexed": true,
							"internalType": "address",
							"name": "provider",
							"type": "address"
						},
						{
							"indexed": true,
							"internalType": "uint256",
							"name": "ethAmount",
							"type": "uint256"
						},
						{
							"indexed": true,
							"internalType": "uint256",
							"name": "tokenAmount",
							"type": "uint256"
						}
					],
					"name": "RemoveLiquidity",
					"type": "event"
				},
				{
					"anonymous": false,
					"inputs": [
						{
							"indexed": true,
							"internalType": "address",
							"name": "buyer",
							"type": "address"
						},
						{
							"indexed": true,
							"internalType": "uint256",
							"name": "tokensGiven",
							"type": "uint256"
						},
						{
							"indexed": false,
							"internalType": "uint256",
							"name": "ethRecieved",
							"type": "uint256"
						}
					],
					"name": "SwapForEth",
					"type": "event"
				},
				{
					"anonymous": false,
					"inputs": [
						{
							"indexed": true,
							"internalType": "address",
							"name": "buyer",
							"type": "address"
						},
						{
							"indexed": true,
							"internalType": "uint256",
							"name": "ethGiven",
							"type": "uint256"
						},
						{
							"indexed": false,
							"internalType": "uint256",
							"name": "tokensRecieved",
							"type": "uint256"
						}
					],
					"name": "SwapForTokens",
					"type": "event"
				},
				{
					"anonymous": false,
					"inputs": [
						{
							"indexed": true,
							"internalType": "address",
							"name": "from",
							"type": "address"
						},
						{
							"indexed": true,
							"internalType": "address",
							"name": "to",
							"type": "address"
						},
						{
							"indexed": false,
							"internalType": "uint256",
							"name": "value",
							"type": "uint256"
						}
					],
					"name": "Transfer",
					"type": "event"
				},
				{
					"inputs": [
						{
							"internalType": "uint256",
							"name": "inputTokenAmount",
							"type": "uint256"
						}
					],
					"name": "addLiquidity",
					"outputs": [
						{
							"internalType": "uint256",
							"name": "lpTokenAmount",
							"type": "uint256"
						}
					],
					"stateMutability": "payable",
					"type": "function"
				},
				{
					"inputs": [
						{
							"internalType": "address",
							"name": "owner",
							"type": "address"
						},
						{
							"internalType": "address",
							"name": "spender",
							"type": "address"
						}
					],
					"name": "allowance",
					"outputs": [
						{
							"internalType": "uint256",
							"name": "",
							"type": "uint256"
						}
					],
					"stateMutability": "view",
					"type": "function"
				},
				{
					"inputs": [
						{
							"internalType": "address",
							"name": "spender",
							"type": "address"
						},
						{
							"internalType": "uint256",
							"name": "amount",
							"type": "uint256"
						}
					],
					"name": "approve",
					"outputs": [
						{
							"internalType": "bool",
							"name": "",
							"type": "bool"
						}
					],
					"stateMutability": "nonpayable",
					"type": "function"
				},
				{
					"inputs": [
						{
							"internalType": "address",
							"name": "account",
							"type": "address"
						}
					],
					"name": "balanceOf",
					"outputs": [
						{
							"internalType": "uint256",
							"name": "",
							"type": "uint256"
						}
					],
					"stateMutability": "view",
					"type": "function"
				},
				{
					"inputs": [],
					"name": "decimals",
					"outputs": [
						{
							"internalType": "uint8",
							"name": "",
							"type": "uint8"
						}
					],
					"stateMutability": "view",
					"type": "function"
				},
				{
					"inputs": [
						{
							"internalType": "address",
							"name": "spender",
							"type": "address"
						},
						{
							"internalType": "uint256",
							"name": "subtractedValue",
							"type": "uint256"
						}
					],
					"name": "decreaseAllowance",
					"outputs": [
						{
							"internalType": "bool",
							"name": "",
							"type": "bool"
						}
					],
					"stateMutability": "nonpayable",
					"type": "function"
				},
				{
					"inputs": [
						{
							"internalType": "uint256",
							"name": "tokenAmount",
							"type": "uint256"
						}
					],
					"name": "ethToTokenSwap",
					"outputs": [],
					"stateMutability": "payable",
					"type": "function"
				},
				{
					"inputs": [
						{
							"internalType": "uint256",
							"name": "tokenAmount",
							"type": "uint256"
						},
						{
							"internalType": "address",
							"name": "recipient",
							"type": "address"
						}
					],
					"name": "ethToTokenTransfer",
					"outputs": [],
					"stateMutability": "payable",
					"type": "function"
				},
				{
					"inputs": [],
					"name": "factoryAddress",
					"outputs": [
						{
							"internalType": "address",
							"name": "",
							"type": "address"
						}
					],
					"stateMutability": "view",
					"type": "function"
				},
				{
					"inputs": [
						{
							"internalType": "uint256",
							"name": "tokenAmount",
							"type": "uint256"
						}
					],
					"name": "getEthAmountForSwap",
					"outputs": [
						{
							"internalType": "uint256",
							"name": "ethAmount",
							"type": "uint256"
						}
					],
					"stateMutability": "view",
					"type": "function"
				},
				{
					"inputs": [],
					"name": "getReserves",
					"outputs": [
						{
							"internalType": "uint256",
							"name": "tokenReserve",
							"type": "uint256"
						},
						{
							"internalType": "uint256",
							"name": "ethReserve",
							"type": "uint256"
						}
					],
					"stateMutability": "view",
					"type": "function"
				},
				{
					"inputs": [
						{
							"internalType": "uint256",
							"name": "ethAmount",
							"type": "uint256"
						}
					],
					"name": "getTokenAmountForSwap",
					"outputs": [
						{
							"internalType": "uint256",
							"name": "tokenAmount",
							"type": "uint256"
						}
					],
					"stateMutability": "view",
					"type": "function"
				},
				{
					"inputs": [
						{
							"internalType": "address",
							"name": "spender",
							"type": "address"
						},
						{
							"internalType": "uint256",
							"name": "addedValue",
							"type": "uint256"
						}
					],
					"name": "increaseAllowance",
					"outputs": [
						{
							"internalType": "bool",
							"name": "",
							"type": "bool"
						}
					],
					"stateMutability": "nonpayable",
					"type": "function"
				},
				{
					"inputs": [],
					"name": "name",
					"outputs": [
						{
							"internalType": "string",
							"name": "",
							"type": "string"
						}
					],
					"stateMutability": "view",
					"type": "function"
				},
				{
					"inputs": [
						{
							"internalType": "uint256",
							"name": "lpTokenAmount",
							"type": "uint256"
						}
					],
					"name": "removeLiquidity",
					"outputs": [
						{
							"internalType": "uint256",
							"name": "ethAmount",
							"type": "uint256"
						},
						{
							"internalType": "uint256",
							"name": "tokenAmount",
							"type": "uint256"
						}
					],
					"stateMutability": "nonpayable",
					"type": "function"
				},
				{
					"inputs": [],
					"name": "symbol",
					"outputs": [
						{
							"internalType": "string",
							"name": "",
							"type": "string"
						}
					],
					"stateMutability": "view",
					"type": "function"
				},
				{
					"inputs": [],
					"name": "tokenAddress",
					"outputs": [
						{
							"internalType": "address",
							"name": "",
							"type": "address"
						}
					],
					"stateMutability": "view",
					"type": "function"
				},
				{
					"inputs": [
						{
							"internalType": "uint256",
							"name": "ipTokenAmount",
							"type": "uint256"
						},
						{
							"internalType": "uint256",
							"name": "opEthAmount",
							"type": "uint256"
						}
					],
					"name": "tokenForEthSwap",
					"outputs": [],
					"stateMutability": "nonpayable",
					"type": "function"
				},
				{
					"inputs": [
						{
							"internalType": "uint256",
							"name": "tokenAmount",
							"type": "uint256"
						},
						{
							"internalType": "uint256",
							"name": "opTokenAmount",
							"type": "uint256"
						},
						{
							"internalType": "address",
							"name": "opTokenAddress",
							"type": "address"
						}
					],
					"name": "tokenToTokenSwap",
					"outputs": [],
					"stateMutability": "nonpayable",
					"type": "function"
				},
				{
					"inputs": [],
					"name": "totalSupply",
					"outputs": [
						{
							"internalType": "uint256",
							"name": "",
							"type": "uint256"
						}
					],
					"stateMutability": "view",
					"type": "function"
				},
				{
					"inputs": [
						{
							"internalType": "address",
							"name": "to",
							"type": "address"
						},
						{
							"internalType": "uint256",
							"name": "amount",
							"type": "uint256"
						}
					],
					"name": "transfer",
					"outputs": [
						{
							"internalType": "bool",
							"name": "",
							"type": "bool"
						}
					],
					"stateMutability": "nonpayable",
					"type": "function"
				},
				{
					"inputs": [
						{
							"internalType": "address",
							"name": "from",
							"type": "address"
						},
						{
							"internalType": "address",
							"name": "to",
							"type": "address"
						},
						{
							"internalType": "uint256",
							"name": "amount",
							"type": "uint256"
						}
					],
					"name": "transferFrom",
					"outputs": [
						{
							"internalType": "bool",
							"name": "",
							"type": "bool"
						}
					],
					"stateMutability": "nonpayable",
					"type": "function"
				}
			],
			"devdoc": {
				"kind": "dev",
				"methods": {
					"allowance(address,address)": {
						"details": "See {IERC20-allowance}."
					},
					"approve(address,uint256)": {
						"details": "See {IERC20-approve}. NOTE: If `amount` is the maximum `uint256`, the allowance is not updated on `transferFrom`. This is semantically equivalent to an infinite approval. Requirements: - `spender` cannot be the zero address."
					},
					"balanceOf(address)": {
						"details": "See {IERC20-balanceOf}."
					},
					"decimals()": {
						"details": "Returns the number of decimals used to get its user representation. For example, if `decimals` equals `2`, a balance of `505` tokens should be displayed to a user as `5.05` (`505 / 10 ** 2`). Tokens usually opt for a value of 18, imitating the relationship between Ether and Wei. This is the value {ERC20} uses, unless this function is overridden; NOTE: This information is only used for _display_ purposes: it in no way affects any of the arithmetic of the contract, including {IERC20-balanceOf} and {IERC20-transfer}."
					},
					"decreaseAllowance(address,uint256)": {
						"details": "Atomically decreases the allowance granted to `spender` by the caller. This is an alternative to {approve} that can be used as a mitigation for problems described in {IERC20-approve}. Emits an {Approval} event indicating the updated allowance. Requirements: - `spender` cannot be the zero address. - `spender` must have allowance for the caller of at least `subtractedValue`."
					},
					"increaseAllowance(address,uint256)": {
						"details": "Atomically increases the allowance granted to `spender` by the caller. This is an alternative to {approve} that can be used as a mitigation for problems described in {IERC20-approve}. Emits an {Approval} event indicating the updated allowance. Requirements: - `spender` cannot be the zero address."
					},
					"name()": {
						"details": "Returns the name of the token."
					},
					"symbol()": {
						"details": "Returns the symbol of the token, usually a shorter version of the name."
					},
					"totalSupply()": {
						"details": "See {IERC20-totalSupply}."
					},
					"transfer(address,uint256)": {
						"details": "See {IERC20-transfer}. Requirements: - `to` cannot be the zero address. - the caller must have a balance of at least `amount`."
					},
					"transferFrom(address,address,uint256)": {
						"details": "See {IERC20-transferFrom}. Emits an {Approval} event indicating the updated allowance. This is not required by the EIP. See the note at the beginning of {ERC20}. NOTE: Does not update the allowance if the current allowance is the maximum `uint256`. Requirements: - `from` and `to` cannot be the zero address. - `from` must have a balance of at least `amount`. - the caller must have allowance for ``from``'s tokens of at least `amount`."
					}
				},
				"version": 1
			},
			"evm": {
				"assembly": "    /* \"contracts/Pair.sol\":818:8719  contract Pair is ERC20 {\r... */\n  mstore(0x40, 0x80)\n    /* \"contracts/Pair.sol\":1629:1818  constructor(address token) ERC20(\"Swap V1\", \"Swap-V1\"){\r... */\n  callvalue\n  dup1\n  iszero\n  tag_1\n  jumpi\n  0x00\n  dup1\n  revert\ntag_1:\n  pop\n  mload(0x40)\n  sub(codesize, bytecodeSize)\n  dup1\n  bytecodeSize\n  dup4\n  codecopy\n  dup2\n  dup2\n  add\n  0x40\n  mstore\n  dup2\n  add\n  swap1\n  tag_2\n  swap2\n  swap1\n  tag_3\n  jump\t// in\ntag_2:\n    /* \"@openzeppelin/contracts/token/ERC20/ERC20.sol\":1978:2091  constructor(string memory name_, string memory symbol_) {... */\n  mload(0x40)\n  dup1\n  0x40\n  add\n  0x40\n  mstore\n  dup1\n  0x07\n  dup2\n  mstore\n  0x20\n  add\n  0x5377617020563100000000000000000000000000000000000000000000000000\n  dup2\n  mstore\n  pop\n  mload(0x40)\n  dup1\n  0x40\n  add\n  0x40\n  mstore\n  dup1\n  0x07\n  dup2\n  mstore\n  0x20\n  add\n  0x537761702d563100000000000000000000000000000000000000000000000000\n  dup2\n  mstore\n  pop\n    /* \"@openzeppelin/contracts/token/ERC20/ERC20.sol\":2052:2057  name_ */\n  dup2\n    /* \"@openzeppelin/contracts/token/ERC20/ERC20.sol\":2044:2049  _name */\n  0x03\n    /* \"@openzeppelin/contracts/token/ERC20/ERC20.sol\":2044:2057  _name = name_ */\n  swap1\n  dup1\n  mload\n  swap1\n  0x20\n  add\n  swap1\n  tag_7\n  swap3\n  swap2\n  swap1\n  tag_8\n  jump\t// in\ntag_7:\n  pop\n    /* \"@openzeppelin/contracts/token/ERC20/ERC20.sol\":2077:2084  symbol_ */\n  dup1\n    /* \"@openzeppelin/contracts/token/ERC20/ERC20.sol\":2067:2074  _symbol */\n  0x04\n    /* \"@openzeppelin/contracts/token/ERC20/ERC20.sol\":2067:2084  _symbol = symbol_ */\n  swap1\n  dup1\n  mload\n  swap1\n  0x20\n  add\n  swap1\n  tag_9\n  swap3\n  swap2\n  swap1\n  tag_8\n  jump\t// in\ntag_9:\n  pop\n    /* \"@openzeppelin/contracts/token/ERC20/ERC20.sol\":1978:2091  constructor(string memory name_, string memory symbol_) {... */\n  pop\n  pop\n    /* \"contracts/Pair.sol\":1719:1720  0 */\n  0x00\n    /* \"contracts/Pair.sol\":1702:1721  token != address(0) */\n  0xffffffffffffffffffffffffffffffffffffffff\n  and\n    /* \"contracts/Pair.sol\":1702:1707  token */\n  dup2\n    /* \"contracts/Pair.sol\":1702:1721  token != address(0) */\n  0xffffffffffffffffffffffffffffffffffffffff\n  and\n  eq\n  iszero\n    /* \"contracts/Pair.sol\":1694:1741  require(token != address(0), \"Invalid address\") */\n  tag_11\n  jumpi\n  mload(0x40)\n  0x08c379a000000000000000000000000000000000000000000000000000000000\n  dup2\n  mstore\n  0x04\n  add\n  tag_12\n  swap1\n  tag_13\n  jump\t// in\ntag_12:\n  mload(0x40)\n  dup1\n  swap2\n  sub\n  swap1\n  revert\ntag_11:\n    /* \"contracts/Pair.sol\":1767:1772  token */\n  dup1\n    /* \"contracts/Pair.sol\":1752:1764  tokenAddress */\n  0x05\n  0x00\n    /* \"contracts/Pair.sol\":1752:1772  tokenAddress = token */\n  0x0100\n  exp\n  dup2\n  sload\n  dup2\n  0xffffffffffffffffffffffffffffffffffffffff\n  mul\n  not\n  and\n  swap1\n  dup4\n  0xffffffffffffffffffffffffffffffffffffffff\n  and\n  mul\n  or\n  swap1\n  sstore\n  pop\n    /* \"contracts/Pair.sol\":1800:1810  msg.sender */\n  caller\n    /* \"contracts/Pair.sol\":1783:1797  factoryAddress */\n  0x06\n  0x00\n    /* \"contracts/Pair.sol\":1783:1810  factoryAddress = msg.sender */\n  0x0100\n  exp\n  dup2\n  sload\n  dup2\n  0xffffffffffffffffffffffffffffffffffffffff\n  mul\n  not\n  and\n  swap1\n  dup4\n  0xffffffffffffffffffffffffffffffffffffffff\n  and\n  mul\n  or\n  swap1\n  sstore\n  pop\n    /* \"contracts/Pair.sol\":1629:1818  constructor(address token) ERC20(\"Swap V1\", \"Swap-V1\"){\r... */\n  pop\n    /* \"contracts/Pair.sol\":818:8719  contract Pair is ERC20 {\r... */\n  jump(tag_14)\ntag_8:\n  dup3\n  dup1\n  sload\n  tag_15\n  swap1\n  tag_16\n  jump\t// in\ntag_15:\n  swap1\n  0x00\n  mstore\n  keccak256(0x00, 0x20)\n  swap1\n  0x1f\n  add\n  0x20\n  swap1\n  div\n  dup2\n  add\n  swap3\n  dup3\n  tag_18\n  jumpi\n  0x00\n  dup6\n  sstore\n  jump(tag_17)\ntag_18:\n  dup3\n  0x1f\n  lt\n  tag_19\n  jumpi\n  dup1\n  mload\n  not(0xff)\n  and\n  dup4\n  dup1\n  add\n  or\n  dup6\n  sstore\n  jump(tag_17)\ntag_19:\n  dup3\n  dup1\n  add\n  0x01\n  add\n  dup6\n  sstore\n  dup3\n  iszero\n  tag_17\n  jumpi\n  swap2\n  dup3\n  add\ntag_20:\n  dup3\n  dup2\n  gt\n  iszero\n  tag_21\n  jumpi\n  dup3\n  mload\n  dup3\n  sstore\n  swap2\n  0x20\n  add\n  swap2\n  swap1\n  0x01\n  add\n  swap1\n  jump(tag_20)\ntag_21:\ntag_17:\n  pop\n  swap1\n  pop\n  tag_22\n  swap2\n  swap1\n  tag_23\n  jump\t// in\ntag_22:\n  pop\n  swap1\n  jump\t// out\ntag_23:\ntag_24:\n  dup1\n  dup3\n  gt\n  iszero\n  tag_25\n  jumpi\n  0x00\n  dup2\n  0x00\n  swap1\n  sstore\n  pop\n  0x01\n  add\n  jump(tag_24)\ntag_25:\n  pop\n  swap1\n  jump\t// out\n    /* \"#utility.yul\":7:150   */\ntag_27:\n    /* \"#utility.yul\":64:69   */\n  0x00\n    /* \"#utility.yul\":95:101   */\n  dup2\n    /* \"#utility.yul\":89:102   */\n  mload\n    /* \"#utility.yul\":80:102   */\n  swap1\n  pop\n    /* \"#utility.yul\":111:144   */\n  tag_29\n    /* \"#utility.yul\":138:143   */\n  dup2\n    /* \"#utility.yul\":111:144   */\n  tag_30\n  jump\t// in\ntag_29:\n    /* \"#utility.yul\":7:150   */\n  swap3\n  swap2\n  pop\n  pop\n  jump\t// out\n    /* \"#utility.yul\":156:507   */\ntag_3:\n    /* \"#utility.yul\":226:232   */\n  0x00\n    /* \"#utility.yul\":275:277   */\n  0x20\n    /* \"#utility.yul\":263:272   */\n  dup3\n    /* \"#utility.yul\":254:261   */\n  dup5\n    /* \"#utility.yul\":250:273   */\n  sub\n    /* \"#utility.yul\":246:278   */\n  slt\n    /* \"#utility.yul\":243:362   */\n  iszero\n  tag_32\n  jumpi\n    /* \"#utility.yul\":281:360   */\n  tag_33\n  tag_34\n  jump\t// in\ntag_33:\n    /* \"#utility.yul\":243:362   */\ntag_32:\n    /* \"#utility.yul\":401:402   */\n  0x00\n    /* \"#utility.yul\":426:490   */\n  tag_35\n    /* \"#utility.yul\":482:489   */\n  dup5\n    /* \"#utility.yul\":473:479   */\n  dup3\n    /* \"#utility.yul\":462:471   */\n  dup6\n    /* \"#utility.yul\":458:480   */\n  add\n    /* \"#utility.yul\":426:490   */\n  tag_27\n  jump\t// in\ntag_35:\n    /* \"#utility.yul\":416:490   */\n  swap2\n  pop\n    /* \"#utility.yul\":372:500   */\n  pop\n    /* \"#utility.yul\":156:507   */\n  swap3\n  swap2\n  pop\n  pop\n  jump\t// out\n    /* \"#utility.yul\":513:879   */\ntag_36:\n    /* \"#utility.yul\":655:658   */\n  0x00\n    /* \"#utility.yul\":676:743   */\n  tag_38\n    /* \"#utility.yul\":740:742   */\n  0x0f\n    /* \"#utility.yul\":735:738   */\n  dup4\n    /* \"#utility.yul\":676:743   */\n  tag_39\n  jump\t// in\ntag_38:\n    /* \"#utility.yul\":669:743   */\n  swap2\n  pop\n    /* \"#utility.yul\":752:845   */\n  tag_40\n    /* \"#utility.yul\":841:844   */\n  dup3\n    /* \"#utility.yul\":752:845   */\n  tag_41\n  jump\t// in\ntag_40:\n    /* \"#utility.yul\":870:872   */\n  0x20\n    /* \"#utility.yul\":865:868   */\n  dup3\n    /* \"#utility.yul\":861:873   */\n  add\n    /* \"#utility.yul\":854:873   */\n  swap1\n  pop\n    /* \"#utility.yul\":513:879   */\n  swap2\n  swap1\n  pop\n  jump\t// out\n    /* \"#utility.yul\":885:1304   */\ntag_13:\n    /* \"#utility.yul\":1051:1055   */\n  0x00\n    /* \"#utility.yul\":1089:1091   */\n  0x20\n    /* \"#utility.yul\":1078:1087   */\n  dup3\n    /* \"#utility.yul\":1074:1092   */\n  add\n    /* \"#utility.yul\":1066:1092   */\n  swap1\n  pop\n    /* \"#utility.yul\":1138:1147   */\n  dup2\n    /* \"#utility.yul\":1132:1136   */\n  dup2\n    /* \"#utility.yul\":1128:1148   */\n  sub\n    /* \"#utility.yul\":1124:1125   */\n  0x00\n    /* \"#utility.yul\":1113:1122   */\n  dup4\n    /* \"#utility.yul\":1109:1126   */\n  add\n    /* \"#utility.yul\":1102:1149   */\n  mstore\n    /* \"#utility.yul\":1166:1297   */\n  tag_43\n    /* \"#utility.yul\":1292:1296   */\n  dup2\n    /* \"#utility.yul\":1166:1297   */\n  tag_36\n  jump\t// in\ntag_43:\n    /* \"#utility.yul\":1158:1297   */\n  swap1\n  pop\n    /* \"#utility.yul\":885:1304   */\n  swap2\n  swap1\n  pop\n  jump\t// out\n    /* \"#utility.yul\":1391:1560   */\ntag_39:\n    /* \"#utility.yul\":1475:1486   */\n  0x00\n    /* \"#utility.yul\":1509:1515   */\n  dup3\n    /* \"#utility.yul\":1504:1507   */\n  dup3\n    /* \"#utility.yul\":1497:1516   */\n  mstore\n    /* \"#utility.yul\":1549:1553   */\n  0x20\n    /* \"#utility.yul\":1544:1547   */\n  dup3\n    /* \"#utility.yul\":1540:1554   */\n  add\n    /* \"#utility.yul\":1525:1554   */\n  swap1\n  pop\n    /* \"#utility.yul\":1391:1560   */\n  swap3\n  swap2\n  pop\n  pop\n  jump\t// out\n    /* \"#utility.yul\":1566:1662   */\ntag_47:\n    /* \"#utility.yul\":1603:1610   */\n  0x00\n    /* \"#utility.yul\":1632:1656   */\n  tag_49\n    /* \"#utility.yul\":1650:1655   */\n  dup3\n    /* \"#utility.yul\":1632:1656   */\n  tag_50\n  jump\t// in\ntag_49:\n    /* \"#utility.yul\":1621:1656   */\n  swap1\n  pop\n    /* \"#utility.yul\":1566:1662   */\n  swap2\n  swap1\n  pop\n  jump\t// out\n    /* \"#utility.yul\":1668:1794   */\ntag_50:\n    /* \"#utility.yul\":1705:1712   */\n  0x00\n    /* \"#utility.yul\":1745:1787   */\n  0xffffffffffffffffffffffffffffffffffffffff\n    /* \"#utility.yul\":1738:1743   */\n  dup3\n    /* \"#utility.yul\":1734:1788   */\n  and\n    /* \"#utility.yul\":1723:1788   */\n  swap1\n  pop\n    /* \"#utility.yul\":1668:1794   */\n  swap2\n  swap1\n  pop\n  jump\t// out\n    /* \"#utility.yul\":1800:2120   */\ntag_16:\n    /* \"#utility.yul\":1844:1850   */\n  0x00\n    /* \"#utility.yul\":1881:1882   */\n  0x02\n    /* \"#utility.yul\":1875:1879   */\n  dup3\n    /* \"#utility.yul\":1871:1883   */\n  div\n    /* \"#utility.yul\":1861:1883   */\n  swap1\n  pop\n    /* \"#utility.yul\":1928:1929   */\n  0x01\n    /* \"#utility.yul\":1922:1926   */\n  dup3\n    /* \"#utility.yul\":1918:1930   */\n  and\n    /* \"#utility.yul\":1949:1967   */\n  dup1\n    /* \"#utility.yul\":1939:2020   */\n  tag_53\n  jumpi\n    /* \"#utility.yul\":2005:2009   */\n  0x7f\n    /* \"#utility.yul\":1997:2003   */\n  dup3\n    /* \"#utility.yul\":1993:2010   */\n  and\n    /* \"#utility.yul\":1983:2010   */\n  swap2\n  pop\n    /* \"#utility.yul\":1939:2020   */\ntag_53:\n    /* \"#utility.yul\":2067:2069   */\n  0x20\n    /* \"#utility.yul\":2059:2065   */\n  dup3\n    /* \"#utility.yul\":2056:2070   */\n  lt\n    /* \"#utility.yul\":2036:2054   */\n  dup2\n    /* \"#utility.yul\":2033:2071   */\n  eq\n    /* \"#utility.yul\":2030:2114   */\n  iszero\n  tag_54\n  jumpi\n    /* \"#utility.yul\":2086:2104   */\n  tag_55\n  tag_56\n  jump\t// in\ntag_55:\n    /* \"#utility.yul\":2030:2114   */\ntag_54:\n    /* \"#utility.yul\":1851:2120   */\n  pop\n    /* \"#utility.yul\":1800:2120   */\n  swap2\n  swap1\n  pop\n  jump\t// out\n    /* \"#utility.yul\":2126:2306   */\ntag_56:\n    /* \"#utility.yul\":2174:2251   */\n  0x4e487b7100000000000000000000000000000000000000000000000000000000\n    /* \"#utility.yul\":2171:2172   */\n  0x00\n    /* \"#utility.yul\":2164:2252   */\n  mstore\n    /* \"#utility.yul\":2271:2275   */\n  0x22\n    /* \"#utility.yul\":2268:2269   */\n  0x04\n    /* \"#utility.yul\":2261:2276   */\n  mstore\n    /* \"#utility.yul\":2295:2299   */\n  0x24\n    /* \"#utility.yul\":2292:2293   */\n  0x00\n    /* \"#utility.yul\":2285:2300   */\n  revert\n    /* \"#utility.yul\":2435:2552   */\ntag_34:\n    /* \"#utility.yul\":2544:2545   */\n  0x00\n    /* \"#utility.yul\":2541:2542   */\n  dup1\n    /* \"#utility.yul\":2534:2546   */\n  revert\n    /* \"#utility.yul\":2558:2723   */\ntag_41:\n    /* \"#utility.yul\":2698:2715   */\n  0x496e76616c696420616464726573730000000000000000000000000000000000\n    /* \"#utility.yul\":2694:2695   */\n  0x00\n    /* \"#utility.yul\":2686:2692   */\n  dup3\n    /* \"#utility.yul\":2682:2696   */\n  add\n    /* \"#utility.yul\":2675:2716   */\n  mstore\n    /* \"#utility.yul\":2558:2723   */\n  pop\n  jump\t// out\n    /* \"#utility.yul\":2729:2851   */\ntag_30:\n    /* \"#utility.yul\":2802:2826   */\n  tag_63\n    /* \"#utility.yul\":2820:2825   */\n  dup2\n    /* \"#utility.yul\":2802:2826   */\n  tag_47\n  jump\t// in\ntag_63:\n    /* \"#utility.yul\":2795:2800   */\n  dup2\n    /* \"#utility.yul\":2792:2827   */\n  eq\n    /* \"#utility.yul\":2782:2845   */\n  tag_64\n  jumpi\n    /* \"#utility.yul\":2841:2842   */\n  0x00\n    /* \"#utility.yul\":2838:2839   */\n  dup1\n    /* \"#utility.yul\":2831:2843   */\n  revert\n    /* \"#utility.yul\":2782:2845   */\ntag_64:\n    /* \"#utility.yul\":2729:2851   */\n  pop\n  jump\t// out\n    /* \"contracts/Pair.sol\":818:8719  contract Pair is ERC20 {\r... */\ntag_14:\n  dataSize(sub_0)\n  dup1\n  dataOffset(sub_0)\n  0x00\n  codecopy\n  0x00\n  return\nstop\n\nsub_0: assembly {\n        /* \"contracts/Pair.sol\":818:8719  contract Pair is ERC20 {\r... */\n      mstore(0x40, 0x80)\n      jumpi(tag_1, lt(calldatasize, 0x04))\n      shr(0xe0, calldataload(0x00))\n      dup1\n      0x64338a30\n      gt\n      tag_24\n      jumpi\n      dup1\n      0x9d76ea58\n      gt\n      tag_25\n      jumpi\n      dup1\n      0x9d76ea58\n      eq\n      tag_18\n      jumpi\n      dup1\n      0xa457c2d7\n      eq\n      tag_19\n      jumpi\n      dup1\n      0xa9059cbb\n      eq\n      tag_20\n      jumpi\n      dup1\n      0xdd62ed3e\n      eq\n      tag_21\n      jumpi\n      dup1\n      0xf7a7e324\n      eq\n      tag_22\n      jumpi\n      dup1\n      0xf979dcd7\n      eq\n      tag_23\n      jumpi\n      jump(tag_1)\n    tag_25:\n      dup1\n      0x64338a30\n      eq\n      tag_13\n      jumpi\n      dup1\n      0x70a08231\n      eq\n      tag_14\n      jumpi\n      dup1\n      0x95d89b41\n      eq\n      tag_15\n      jumpi\n      dup1\n      0x966dae0e\n      eq\n      tag_16\n      jumpi\n      dup1\n      0x9c8f9f23\n      eq\n      tag_17\n      jumpi\n      jump(tag_1)\n    tag_24:\n      dup1\n      0x23b872dd\n      gt\n      tag_26\n      jumpi\n      dup1\n      0x23b872dd\n      eq\n      tag_7\n      jumpi\n      dup1\n      0x2c0c60a4\n      eq\n      tag_8\n      jumpi\n      dup1\n      0x313ce567\n      eq\n      tag_9\n      jumpi\n      dup1\n      0x389d9a40\n      eq\n      tag_10\n      jumpi\n      dup1\n      0x39509351\n      eq\n      tag_11\n      jumpi\n      dup1\n      0x51c6590a\n      eq\n      tag_12\n      jumpi\n      jump(tag_1)\n    tag_26:\n      dup1\n      0x06fdde03\n      eq\n      tag_2\n      jumpi\n      dup1\n      0x0902f1ac\n      eq\n      tag_3\n      jumpi\n      dup1\n      0x095ea7b3\n      eq\n      tag_4\n      jumpi\n      dup1\n      0x0f8070b4\n      eq\n      tag_5\n      jumpi\n      dup1\n      0x18160ddd\n      eq\n      tag_6\n      jumpi\n    tag_1:\n      0x00\n      dup1\n      revert\n        /* \"@openzeppelin/contracts/token/ERC20/ERC20.sol\":2156:2254  function name() public view virtual override returns (string memory) {... */\n    tag_2:\n      callvalue\n      dup1\n      iszero\n      tag_27\n      jumpi\n      0x00\n      dup1\n      revert\n    tag_27:\n      pop\n      tag_28\n      tag_29\n      jump\t// in\n    tag_28:\n      mload(0x40)\n      tag_30\n      swap2\n      swap1\n      tag_31\n      jump\t// in\n    tag_30:\n      mload(0x40)\n      dup1\n      swap2\n      sub\n      swap1\n      return\n        /* \"contracts/Pair.sol\":1826:2036  function getReserves() public view returns (uint256 tokenReserve, uint256 ethReserve) {\r... */\n    tag_3:\n      callvalue\n      dup1\n      iszero\n      tag_32\n      jumpi\n      0x00\n      dup1\n      revert\n    tag_32:\n      pop\n      tag_33\n      tag_34\n      jump\t// in\n    tag_33:\n      mload(0x40)\n      tag_35\n      swap3\n      swap2\n      swap1\n      tag_36\n      jump\t// in\n    tag_35:\n      mload(0x40)\n      dup1\n      swap2\n      sub\n      swap1\n      return\n        /* \"@openzeppelin/contracts/token/ERC20/ERC20.sol\":4433:4630  function approve(address spender, uint256 amount) public virtual override returns (bool) {... */\n    tag_4:\n      callvalue\n      dup1\n      iszero\n      tag_37\n      jumpi\n      0x00\n      dup1\n      revert\n    tag_37:\n      pop\n      tag_38\n      0x04\n      dup1\n      calldatasize\n      sub\n      dup2\n      add\n      swap1\n      tag_39\n      swap2\n      swap1\n      tag_40\n      jump\t// in\n    tag_39:\n      tag_41\n      jump\t// in\n    tag_38:\n      mload(0x40)\n      tag_42\n      swap2\n      swap1\n      tag_43\n      jump\t// in\n    tag_42:\n      mload(0x40)\n      dup1\n      swap2\n      sub\n      swap1\n      return\n        /* \"contracts/Pair.sol\":4532:4889  function getTokenAmountForSwap(uint256 ethAmount) public view returns (uint256 tokenAmount){\r... */\n    tag_5:\n      callvalue\n      dup1\n      iszero\n      tag_44\n      jumpi\n      0x00\n      dup1\n      revert\n    tag_44:\n      pop\n      tag_45\n      0x04\n      dup1\n      calldatasize\n      sub\n      dup2\n      add\n      swap1\n      tag_46\n      swap2\n      swap1\n      tag_47\n      jump\t// in\n    tag_46:\n      tag_48\n      jump\t// in\n    tag_45:\n      mload(0x40)\n      tag_49\n      swap2\n      swap1\n      tag_50\n      jump\t// in\n    tag_49:\n      mload(0x40)\n      dup1\n      swap2\n      sub\n      swap1\n      return\n        /* \"@openzeppelin/contracts/token/ERC20/ERC20.sol\":3244:3350  function totalSupply() public view virtual override returns (uint256) {... */\n    tag_6:\n      callvalue\n      dup1\n      iszero\n      tag_51\n      jumpi\n      0x00\n      dup1\n      revert\n    tag_51:\n      pop\n      tag_52\n      tag_53\n      jump\t// in\n    tag_52:\n      mload(0x40)\n      tag_54\n      swap2\n      swap1\n      tag_50\n      jump\t// in\n    tag_54:\n      mload(0x40)\n      dup1\n      swap2\n      sub\n      swap1\n      return\n        /* \"@openzeppelin/contracts/token/ERC20/ERC20.sol\":5192:5478  function transferFrom(... */\n    tag_7:\n      callvalue\n      dup1\n      iszero\n      tag_55\n      jumpi\n      0x00\n      dup1\n      revert\n    tag_55:\n      pop\n      tag_56\n      0x04\n      dup1\n      calldatasize\n      sub\n      dup2\n      add\n      swap1\n      tag_57\n      swap2\n      swap1\n      tag_58\n      jump\t// in\n    tag_57:\n      tag_59\n      jump\t// in\n    tag_56:\n      mload(0x40)\n      tag_60\n      swap2\n      swap1\n      tag_43\n      jump\t// in\n    tag_60:\n      mload(0x40)\n      dup1\n      swap2\n      sub\n      swap1\n      return\n        /* \"contracts/Pair.sol\":4949:5304  function getEthAmountForSwap(uint256 tokenAmount) public view returns (uint256 ethAmount){\r... */\n    tag_8:\n      callvalue\n      dup1\n      iszero\n      tag_61\n      jumpi\n      0x00\n      dup1\n      revert\n    tag_61:\n      pop\n      tag_62\n      0x04\n      dup1\n      calldatasize\n      sub\n      dup2\n      add\n      swap1\n      tag_63\n      swap2\n      swap1\n      tag_47\n      jump\t// in\n    tag_63:\n      tag_64\n      jump\t// in\n    tag_62:\n      mload(0x40)\n      tag_65\n      swap2\n      swap1\n      tag_50\n      jump\t// in\n    tag_65:\n      mload(0x40)\n      dup1\n      swap2\n      sub\n      swap1\n      return\n        /* \"@openzeppelin/contracts/token/ERC20/ERC20.sol\":3093:3184  function decimals() public view virtual override returns (uint8) {... */\n    tag_9:\n      callvalue\n      dup1\n      iszero\n      tag_66\n      jumpi\n      0x00\n      dup1\n      revert\n    tag_66:\n      pop\n      tag_67\n      tag_68\n      jump\t// in\n    tag_67:\n      mload(0x40)\n      tag_69\n      swap2\n      swap1\n      tag_70\n      jump\t// in\n    tag_69:\n      mload(0x40)\n      dup1\n      swap2\n      sub\n      swap1\n      return\n        /* \"contracts/Pair.sol\":5959:6100  function ethToTokenTransfer(uint256 tokenAmount, address recipient) public payable{\r... */\n    tag_10:\n      tag_71\n      0x04\n      dup1\n      calldatasize\n      sub\n      dup2\n      add\n      swap1\n      tag_72\n      swap2\n      swap1\n      tag_73\n      jump\t// in\n    tag_72:\n      tag_74\n      jump\t// in\n    tag_71:\n      stop\n        /* \"@openzeppelin/contracts/token/ERC20/ERC20.sol\":5873:6107  function increaseAllowance(address spender, uint256 addedValue) public virtual returns (bool) {... */\n    tag_11:\n      callvalue\n      dup1\n      iszero\n      tag_75\n      jumpi\n      0x00\n      dup1\n      revert\n    tag_75:\n      pop\n      tag_76\n      0x04\n      dup1\n      calldatasize\n      sub\n      dup2\n      add\n      swap1\n      tag_77\n      swap2\n      swap1\n      tag_40\n      jump\t// in\n    tag_77:\n      tag_78\n      jump\t// in\n    tag_76:\n      mload(0x40)\n      tag_79\n      swap2\n      swap1\n      tag_43\n      jump\t// in\n    tag_79:\n      mload(0x40)\n      dup1\n      swap2\n      sub\n      swap1\n      return\n        /* \"contracts/Pair.sol\":2044:3378  function addLiquidity(uint256 inputTokenAmount ) public payable returns (uint256 lpTokenAmount){\r... */\n    tag_12:\n      tag_80\n      0x04\n      dup1\n      calldatasize\n      sub\n      dup2\n      add\n      swap1\n      tag_81\n      swap2\n      swap1\n      tag_47\n      jump\t// in\n    tag_81:\n      tag_82\n      jump\t// in\n    tag_80:\n      mload(0x40)\n      tag_83\n      swap2\n      swap1\n      tag_50\n      jump\t// in\n    tag_83:\n      mload(0x40)\n      dup1\n      swap2\n      sub\n      swap1\n      return\n        /* \"contracts/Pair.sol\":6277:6926  function tokenForEthSwap(uint256 ipTokenAmount, uint256 opEthAmount) public {\r... */\n    tag_13:\n      callvalue\n      dup1\n      iszero\n      tag_84\n      jumpi\n      0x00\n      dup1\n      revert\n    tag_84:\n      pop\n      tag_85\n      0x04\n      dup1\n      calldatasize\n      sub\n      dup2\n      add\n      swap1\n      tag_86\n      swap2\n      swap1\n      tag_87\n      jump\t// in\n    tag_86:\n      tag_88\n      jump\t// in\n    tag_85:\n      stop\n        /* \"@openzeppelin/contracts/token/ERC20/ERC20.sol\":3408:3533  function balanceOf(address account) public view virtual override returns (uint256) {... */\n    tag_14:\n      callvalue\n      dup1\n      iszero\n      tag_89\n      jumpi\n      0x00\n      dup1\n      revert\n    tag_89:\n      pop\n      tag_90\n      0x04\n      dup1\n      calldatasize\n      sub\n      dup2\n      add\n      swap1\n      tag_91\n      swap2\n      swap1\n      tag_92\n      jump\t// in\n    tag_91:\n      tag_93\n      jump\t// in\n    tag_90:\n      mload(0x40)\n      tag_94\n      swap2\n      swap1\n      tag_50\n      jump\t// in\n    tag_94:\n      mload(0x40)\n      dup1\n      swap2\n      sub\n      swap1\n      return\n        /* \"@openzeppelin/contracts/token/ERC20/ERC20.sol\":2367:2469  function symbol() public view virtual override returns (string memory) {... */\n    tag_15:\n      callvalue\n      dup1\n      iszero\n      tag_95\n      jumpi\n      0x00\n      dup1\n      revert\n    tag_95:\n      pop\n      tag_96\n      tag_97\n      jump\t// in\n    tag_96:\n      mload(0x40)\n      tag_98\n      swap2\n      swap1\n      tag_31\n      jump\t// in\n    tag_98:\n      mload(0x40)\n      dup1\n      swap2\n      sub\n      swap1\n      return\n        /* \"contracts/Pair.sol\":882:911  address public factoryAddress */\n    tag_16:\n      callvalue\n      dup1\n      iszero\n      tag_99\n      jumpi\n      0x00\n      dup1\n      revert\n    tag_99:\n      pop\n      tag_100\n      tag_101\n      jump\t// in\n    tag_100:\n      mload(0x40)\n      tag_102\n      swap2\n      swap1\n      tag_103\n      jump\t// in\n    tag_102:\n      mload(0x40)\n      dup1\n      swap2\n      sub\n      swap1\n      return\n        /* \"contracts/Pair.sol\":3386:4110  function removeLiquidity(uint256 lpTokenAmount) public returns (uint256 ethAmount, uint256 tokenAmount){\r... */\n    tag_17:\n      callvalue\n      dup1\n      iszero\n      tag_104\n      jumpi\n      0x00\n      dup1\n      revert\n    tag_104:\n      pop\n      tag_105\n      0x04\n      dup1\n      calldatasize\n      sub\n      dup2\n      add\n      swap1\n      tag_106\n      swap2\n      swap1\n      tag_47\n      jump\t// in\n    tag_106:\n      tag_107\n      jump\t// in\n    tag_105:\n      mload(0x40)\n      tag_108\n      swap3\n      swap2\n      swap1\n      tag_36\n      jump\t// in\n    tag_108:\n      mload(0x40)\n      dup1\n      swap2\n      sub\n      swap1\n      return\n        /* \"contracts/Pair.sol\":848:875  address public tokenAddress */\n    tag_18:\n      callvalue\n      dup1\n      iszero\n      tag_109\n      jumpi\n      0x00\n      dup1\n      revert\n    tag_109:\n      pop\n      tag_110\n      tag_111\n      jump\t// in\n    tag_110:\n      mload(0x40)\n      tag_112\n      swap2\n      swap1\n      tag_103\n      jump\t// in\n    tag_112:\n      mload(0x40)\n      dup1\n      swap2\n      sub\n      swap1\n      return\n        /* \"@openzeppelin/contracts/token/ERC20/ERC20.sol\":6594:7021  function decreaseAllowance(address spender, uint256 subtractedValue) public virtual returns (bool) {... */\n    tag_19:\n      callvalue\n      dup1\n      iszero\n      tag_113\n      jumpi\n      0x00\n      dup1\n      revert\n    tag_113:\n      pop\n      tag_114\n      0x04\n      dup1\n      calldatasize\n      sub\n      dup2\n      add\n      swap1\n      tag_115\n      swap2\n      swap1\n      tag_40\n      jump\t// in\n    tag_115:\n      tag_116\n      jump\t// in\n    tag_114:\n      mload(0x40)\n      tag_117\n      swap2\n      swap1\n      tag_43\n      jump\t// in\n    tag_117:\n      mload(0x40)\n      dup1\n      swap2\n      sub\n      swap1\n      return\n        /* \"@openzeppelin/contracts/token/ERC20/ERC20.sol\":3729:3918  function transfer(address to, uint256 amount) public virtual override returns (bool) {... */\n    tag_20:\n      callvalue\n      dup1\n      iszero\n      tag_118\n      jumpi\n      0x00\n      dup1\n      revert\n    tag_118:\n      pop\n      tag_119\n      0x04\n      dup1\n      calldatasize\n      sub\n      dup2\n      add\n      swap1\n      tag_120\n      swap2\n      swap1\n      tag_40\n      jump\t// in\n    tag_120:\n      tag_121\n      jump\t// in\n    tag_119:\n      mload(0x40)\n      tag_122\n      swap2\n      swap1\n      tag_43\n      jump\t// in\n    tag_122:\n      mload(0x40)\n      dup1\n      swap2\n      sub\n      swap1\n      return\n        /* \"@openzeppelin/contracts/token/ERC20/ERC20.sol\":3976:4125  function allowance(address owner, address spender) public view virtual override returns (uint256) {... */\n    tag_21:\n      callvalue\n      dup1\n      iszero\n      tag_123\n      jumpi\n      0x00\n      dup1\n      revert\n    tag_123:\n      pop\n      tag_124\n      0x04\n      dup1\n      calldatasize\n      sub\n      dup2\n      add\n      swap1\n      tag_125\n      swap2\n      swap1\n      tag_126\n      jump\t// in\n    tag_125:\n      tag_127\n      jump\t// in\n    tag_124:\n      mload(0x40)\n      tag_128\n      swap2\n      swap1\n      tag_50\n      jump\t// in\n    tag_128:\n      mload(0x40)\n      dup1\n      swap2\n      sub\n      swap1\n      return\n        /* \"contracts/Pair.sol\":7810:8706  function tokenToTokenSwap(uint256 tokenAmount, uint256 opTokenAmount, address opTokenAddress\r... */\n    tag_22:\n      callvalue\n      dup1\n      iszero\n      tag_129\n      jumpi\n      0x00\n      dup1\n      revert\n    tag_129:\n      pop\n      tag_130\n      0x04\n      dup1\n      calldatasize\n      sub\n      dup2\n      add\n      swap1\n      tag_131\n      swap2\n      swap1\n      tag_132\n      jump\t// in\n    tag_131:\n      tag_133\n      jump\t// in\n    tag_130:\n      stop\n        /* \"contracts/Pair.sol\":6141:6261  function ethToTokenSwap(uint256 tokenAmount) public payable {\r... */\n    tag_23:\n      tag_134\n      0x04\n      dup1\n      calldatasize\n      sub\n      dup2\n      add\n      swap1\n      tag_135\n      swap2\n      swap1\n      tag_47\n      jump\t// in\n    tag_135:\n      tag_136\n      jump\t// in\n    tag_134:\n      stop\n        /* \"@openzeppelin/contracts/token/ERC20/ERC20.sol\":2156:2254  function name() public view virtual override returns (string memory) {... */\n    tag_29:\n        /* \"@openzeppelin/contracts/token/ERC20/ERC20.sol\":2210:2223  string memory */\n      0x60\n        /* \"@openzeppelin/contracts/token/ERC20/ERC20.sol\":2242:2247  _name */\n      0x03\n        /* \"@openzeppelin/contracts/token/ERC20/ERC20.sol\":2235:2247  return _name */\n      dup1\n      sload\n      tag_138\n      swap1\n      tag_139\n      jump\t// in\n    tag_138:\n      dup1\n      0x1f\n      add\n      0x20\n      dup1\n      swap2\n      div\n      mul\n      0x20\n      add\n      mload(0x40)\n      swap1\n      dup2\n      add\n      0x40\n      mstore\n      dup1\n      swap3\n      swap2\n      swap1\n      dup2\n      dup2\n      mstore\n      0x20\n      add\n      dup3\n      dup1\n      sload\n      tag_140\n      swap1\n      tag_139\n      jump\t// in\n    tag_140:\n      dup1\n      iszero\n      tag_141\n      jumpi\n      dup1\n      0x1f\n      lt\n      tag_142\n      jumpi\n      0x0100\n      dup1\n      dup4\n      sload\n      div\n      mul\n      dup4\n      mstore\n      swap2\n      0x20\n      add\n      swap2\n      jump(tag_141)\n    tag_142:\n      dup3\n      add\n      swap2\n      swap1\n      0x00\n      mstore\n      keccak256(0x00, 0x20)\n      swap1\n    tag_143:\n      dup2\n      sload\n      dup2\n      mstore\n      swap1\n      0x01\n      add\n      swap1\n      0x20\n      add\n      dup1\n      dup4\n      gt\n      tag_143\n      jumpi\n      dup3\n      swap1\n      sub\n      0x1f\n      and\n      dup3\n      add\n      swap2\n    tag_141:\n      pop\n      pop\n      pop\n      pop\n      pop\n      swap1\n      pop\n        /* \"@openzeppelin/contracts/token/ERC20/ERC20.sol\":2156:2254  function name() public view virtual override returns (string memory) {... */\n      swap1\n      jump\t// out\n        /* \"contracts/Pair.sol\":1826:2036  function getReserves() public view returns (uint256 tokenReserve, uint256 ethReserve) {\r... */\n    tag_34:\n        /* \"contracts/Pair.sol\":1870:1890  uint256 tokenReserve */\n      0x00\n        /* \"contracts/Pair.sol\":1892:1910  uint256 ethReserve */\n      dup1\n        /* \"contracts/Pair.sol\":1945:1957  tokenAddress */\n      0x05\n      0x00\n      swap1\n      sload\n      swap1\n      0x0100\n      exp\n      swap1\n      div\n      0xffffffffffffffffffffffffffffffffffffffff\n      and\n        /* \"contracts/Pair.sol\":1938:1968  IERC20(tokenAddress).balanceOf */\n      0xffffffffffffffffffffffffffffffffffffffff\n      and\n      0x70a08231\n        /* \"contracts/Pair.sol\":1977:1981  this */\n      address\n        /* \"contracts/Pair.sol\":1938:1983  IERC20(tokenAddress).balanceOf(address(this)) */\n      mload(0x40)\n      dup3\n      0xffffffff\n      and\n      0xe0\n      shl\n      dup2\n      mstore\n      0x04\n      add\n      tag_145\n      swap2\n      swap1\n      tag_103\n      jump\t// in\n    tag_145:\n      0x20\n      mload(0x40)\n      dup1\n      dup4\n      sub\n      dup2\n      dup7\n      dup1\n      extcodesize\n      iszero\n      dup1\n      iszero\n      tag_146\n      jumpi\n      0x00\n      dup1\n      revert\n    tag_146:\n      pop\n      gas\n      staticcall\n      iszero\n      dup1\n      iszero\n      tag_148\n      jumpi\n      returndatasize\n      0x00\n      dup1\n      returndatacopy\n      revert(0x00, returndatasize)\n    tag_148:\n      pop\n      pop\n      pop\n      pop\n      mload(0x40)\n      returndatasize\n      not(0x1f)\n      0x1f\n      dup3\n      add\n      and\n      dup3\n      add\n      dup1\n      0x40\n      mstore\n      pop\n      dup2\n      add\n      swap1\n      tag_149\n      swap2\n      swap1\n      tag_150\n      jump\t// in\n    tag_149:\n        /* \"contracts/Pair.sol\":1923:1983  tokenReserve = IERC20(tokenAddress).balanceOf(address(this)) */\n      swap2\n      pop\n        /* \"contracts/Pair.sol\":2007:2028  address(this).balance */\n      selfbalance\n        /* \"contracts/Pair.sol\":1994:2028  ethReserve = address(this).balance */\n      swap1\n      pop\n        /* \"contracts/Pair.sol\":1826:2036  function getReserves() public view returns (uint256 tokenReserve, uint256 ethReserve) {\r... */\n      swap1\n      swap2\n      jump\t// out\n        /* \"@openzeppelin/contracts/token/ERC20/ERC20.sol\":4433:4630  function approve(address spender, uint256 amount) public virtual override returns (bool) {... */\n    tag_41:\n        /* \"@openzeppelin/contracts/token/ERC20/ERC20.sol\":4516:4520  bool */\n      0x00\n        /* \"@openzeppelin/contracts/token/ERC20/ERC20.sol\":4532:4545  address owner */\n      dup1\n        /* \"@openzeppelin/contracts/token/ERC20/ERC20.sol\":4548:4560  _msgSender() */\n      tag_152\n        /* \"@openzeppelin/contracts/token/ERC20/ERC20.sol\":4548:4558  _msgSender */\n      tag_153\n        /* \"@openzeppelin/contracts/token/ERC20/ERC20.sol\":4548:4560  _msgSender() */\n      jump\t// in\n    tag_152:\n        /* \"@openzeppelin/contracts/token/ERC20/ERC20.sol\":4532:4560  address owner = _msgSender() */\n      swap1\n      pop\n        /* \"@openzeppelin/contracts/token/ERC20/ERC20.sol\":4570:4602  _approve(owner, spender, amount) */\n      tag_154\n        /* \"@openzeppelin/contracts/token/ERC20/ERC20.sol\":4579:4584  owner */\n      dup2\n        /* \"@openzeppelin/contracts/token/ERC20/ERC20.sol\":4586:4593  spender */\n      dup6\n        /* \"@openzeppelin/contracts/token/ERC20/ERC20.sol\":4595:4601  amount */\n      dup6\n        /* \"@openzeppelin/contracts/token/ERC20/ERC20.sol\":4570:4578  _approve */\n      tag_155\n        /* \"@openzeppelin/contracts/token/ERC20/ERC20.sol\":4570:4602  _approve(owner, spender, amount) */\n      jump\t// in\n    tag_154:\n        /* \"@openzeppelin/contracts/token/ERC20/ERC20.sol\":4619:4623  true */\n      0x01\n        /* \"@openzeppelin/contracts/token/ERC20/ERC20.sol\":4612:4623  return true */\n      swap2\n      pop\n      pop\n        /* \"@openzeppelin/contracts/token/ERC20/ERC20.sol\":4433:4630  function approve(address spender, uint256 amount) public virtual override returns (bool) {... */\n      swap3\n      swap2\n      pop\n      pop\n      jump\t// out\n        /* \"contracts/Pair.sol\":4532:4889  function getTokenAmountForSwap(uint256 ethAmount) public view returns (uint256 tokenAmount){\r... */\n    tag_48:\n        /* \"contracts/Pair.sol\":4603:4622  uint256 tokenAmount */\n      0x00\n        /* \"contracts/Pair.sol\":4654:4655  0 */\n      dup1\n        /* \"contracts/Pair.sol\":4642:4651  ethAmount */\n      dup3\n        /* \"contracts/Pair.sol\":4642:4655  ethAmount > 0 */\n      gt\n        /* \"contracts/Pair.sol\":4634:4685  require(ethAmount > 0, \"ETH amount cannot be zero\") */\n      tag_157\n      jumpi\n      mload(0x40)\n      0x08c379a000000000000000000000000000000000000000000000000000000000\n      dup2\n      mstore\n      0x04\n      add\n      tag_158\n      swap1\n      tag_159\n      jump\t// in\n    tag_158:\n      mload(0x40)\n      dup1\n      swap2\n      sub\n      swap1\n      revert\n    tag_157:\n        /* \"contracts/Pair.sol\":4699:4719  uint256 tokenReserve */\n      0x00\n        /* \"contracts/Pair.sol\":4721:4739  uint256 ethReserve */\n      dup1\n        /* \"contracts/Pair.sol\":4743:4756  getReserves() */\n      tag_160\n        /* \"contracts/Pair.sol\":4743:4754  getReserves */\n      tag_34\n        /* \"contracts/Pair.sol\":4743:4756  getReserves() */\n      jump\t// in\n    tag_160:\n        /* \"contracts/Pair.sol\":4698:4756  (uint256 tokenReserve, uint256 ethReserve) = getReserves() */\n      swap2\n      pop\n      swap2\n      pop\n        /* \"contracts/Pair.sol\":4829:4881  getOutputAmount(ethAmount, ethReserve, tokenReserve) */\n      tag_161\n        /* \"contracts/Pair.sol\":4845:4854  ethAmount */\n      dup5\n        /* \"contracts/Pair.sol\":4856:4866  ethReserve */\n      dup3\n        /* \"contracts/Pair.sol\":4868:4880  tokenReserve */\n      dup5\n        /* \"contracts/Pair.sol\":4829:4844  getOutputAmount */\n      tag_162\n        /* \"contracts/Pair.sol\":4829:4881  getOutputAmount(ethAmount, ethReserve, tokenReserve) */\n      jump\t// in\n    tag_161:\n        /* \"contracts/Pair.sol\":4815:4881  tokenAmount = getOutputAmount(ethAmount, ethReserve, tokenReserve) */\n      swap3\n      pop\n        /* \"contracts/Pair.sol\":4623:4889  {\r... */\n      pop\n      pop\n        /* \"contracts/Pair.sol\":4532:4889  function getTokenAmountForSwap(uint256 ethAmount) public view returns (uint256 tokenAmount){\r... */\n      swap2\n      swap1\n      pop\n      jump\t// out\n        /* \"@openzeppelin/contracts/token/ERC20/ERC20.sol\":3244:3350  function totalSupply() public view virtual override returns (uint256) {... */\n    tag_53:\n        /* \"@openzeppelin/contracts/token/ERC20/ERC20.sol\":3305:3312  uint256 */\n      0x00\n        /* \"@openzeppelin/contracts/token/ERC20/ERC20.sol\":3331:3343  _totalSupply */\n      sload(0x02)\n        /* \"@openzeppelin/contracts/token/ERC20/ERC20.sol\":3324:3343  return _totalSupply */\n      swap1\n      pop\n        /* \"@openzeppelin/contracts/token/ERC20/ERC20.sol\":3244:3350  function totalSupply() public view virtual override returns (uint256) {... */\n      swap1\n      jump\t// out\n        /* \"@openzeppelin/contracts/token/ERC20/ERC20.sol\":5192:5478  function transferFrom(... */\n    tag_59:\n        /* \"@openzeppelin/contracts/token/ERC20/ERC20.sol\":5319:5323  bool */\n      0x00\n        /* \"@openzeppelin/contracts/token/ERC20/ERC20.sol\":5335:5350  address spender */\n      dup1\n        /* \"@openzeppelin/contracts/token/ERC20/ERC20.sol\":5353:5365  _msgSender() */\n      tag_165\n        /* \"@openzeppelin/contracts/token/ERC20/ERC20.sol\":5353:5363  _msgSender */\n      tag_153\n        /* \"@openzeppelin/contracts/token/ERC20/ERC20.sol\":5353:5365  _msgSender() */\n      jump\t// in\n    tag_165:\n        /* \"@openzeppelin/contracts/token/ERC20/ERC20.sol\":5335:5365  address spender = _msgSender() */\n      swap1\n      pop\n        /* \"@openzeppelin/contracts/token/ERC20/ERC20.sol\":5375:5413  _spendAllowance(from, spender, amount) */\n      tag_166\n        /* \"@openzeppelin/contracts/token/ERC20/ERC20.sol\":5391:5395  from */\n      dup6\n        /* \"@openzeppelin/contracts/token/ERC20/ERC20.sol\":5397:5404  spender */\n      dup3\n        /* \"@openzeppelin/contracts/token/ERC20/ERC20.sol\":5406:5412  amount */\n      dup6\n        /* \"@openzeppelin/contracts/token/ERC20/ERC20.sol\":5375:5390  _spendAllowance */\n      tag_167\n        /* \"@openzeppelin/contracts/token/ERC20/ERC20.sol\":5375:5413  _spendAllowance(from, spender, amount) */\n      jump\t// in\n    tag_166:\n        /* \"@openzeppelin/contracts/token/ERC20/ERC20.sol\":5423:5450  _transfer(from, to, amount) */\n      tag_168\n        /* \"@openzeppelin/contracts/token/ERC20/ERC20.sol\":5433:5437  from */\n      dup6\n        /* \"@openzeppelin/contracts/token/ERC20/ERC20.sol\":5439:5441  to */\n      dup6\n        /* \"@openzeppelin/contracts/token/ERC20/ERC20.sol\":5443:5449  amount */\n      dup6\n        /* \"@openzeppelin/contracts/token/ERC20/ERC20.sol\":5423:5432  _transfer */\n      tag_169\n        /* \"@openzeppelin/contracts/token/ERC20/ERC20.sol\":5423:5450  _transfer(from, to, amount) */\n      jump\t// in\n    tag_168:\n        /* \"@openzeppelin/contracts/token/ERC20/ERC20.sol\":5467:5471  true */\n      0x01\n        /* \"@openzeppelin/contracts/token/ERC20/ERC20.sol\":5460:5471  return true */\n      swap2\n      pop\n      pop\n        /* \"@openzeppelin/contracts/token/ERC20/ERC20.sol\":5192:5478  function transferFrom(... */\n      swap4\n      swap3\n      pop\n      pop\n      pop\n      jump\t// out\n        /* \"contracts/Pair.sol\":4949:5304  function getEthAmountForSwap(uint256 tokenAmount) public view returns (uint256 ethAmount){\r... */\n    tag_64:\n        /* \"contracts/Pair.sol\":5020:5037  uint256 ethAmount */\n      0x00\n        /* \"contracts/Pair.sol\":5069:5070  0 */\n      dup1\n        /* \"contracts/Pair.sol\":5057:5066  ethAmount */\n      dup2\n        /* \"contracts/Pair.sol\":5057:5070  ethAmount > 0 */\n      gt\n        /* \"contracts/Pair.sol\":5049:5100  require(ethAmount > 0, \"ETH amount cannot be zero\") */\n      tag_171\n      jumpi\n      mload(0x40)\n      0x08c379a000000000000000000000000000000000000000000000000000000000\n      dup2\n      mstore\n      0x04\n      add\n      tag_172\n      swap1\n      tag_159\n      jump\t// in\n    tag_172:\n      mload(0x40)\n      dup1\n      swap2\n      sub\n      swap1\n      revert\n    tag_171:\n        /* \"contracts/Pair.sol\":5114:5134  uint256 tokenReserve */\n      0x00\n        /* \"contracts/Pair.sol\":5136:5154  uint256 ethReserve */\n      dup1\n        /* \"contracts/Pair.sol\":5158:5171  getReserves() */\n      tag_173\n        /* \"contracts/Pair.sol\":5158:5169  getReserves */\n      tag_34\n        /* \"contracts/Pair.sol\":5158:5171  getReserves() */\n      jump\t// in\n    tag_173:\n        /* \"contracts/Pair.sol\":5113:5171  (uint256 tokenReserve, uint256 ethReserve) = getReserves() */\n      swap2\n      pop\n      swap2\n      pop\n        /* \"contracts/Pair.sol\":5242:5296  getOutputAmount(tokenAmount, tokenReserve, ethReserve) */\n      tag_174\n        /* \"contracts/Pair.sol\":5258:5269  tokenAmount */\n      dup5\n        /* \"contracts/Pair.sol\":5271:5283  tokenReserve */\n      dup4\n        /* \"contracts/Pair.sol\":5285:5295  ethReserve */\n      dup4\n        /* \"contracts/Pair.sol\":5242:5257  getOutputAmount */\n      tag_162\n        /* \"contracts/Pair.sol\":5242:5296  getOutputAmount(tokenAmount, tokenReserve, ethReserve) */\n      jump\t// in\n    tag_174:\n        /* \"contracts/Pair.sol\":5230:5296  ethAmount = getOutputAmount(tokenAmount, tokenReserve, ethReserve) */\n      swap3\n      pop\n        /* \"contracts/Pair.sol\":5038:5304  {\r... */\n      pop\n      pop\n        /* \"contracts/Pair.sol\":4949:5304  function getEthAmountForSwap(uint256 tokenAmount) public view returns (uint256 ethAmount){\r... */\n      swap2\n      swap1\n      pop\n      jump\t// out\n        /* \"@openzeppelin/contracts/token/ERC20/ERC20.sol\":3093:3184  function decimals() public view virtual override returns (uint8) {... */\n    tag_68:\n        /* \"@openzeppelin/contracts/token/ERC20/ERC20.sol\":3151:3156  uint8 */\n      0x00\n        /* \"@openzeppelin/contracts/token/ERC20/ERC20.sol\":3175:3177  18 */\n      0x12\n        /* \"@openzeppelin/contracts/token/ERC20/ERC20.sol\":3168:3177  return 18 */\n      swap1\n      pop\n        /* \"@openzeppelin/contracts/token/ERC20/ERC20.sol\":3093:3184  function decimals() public view virtual override returns (uint8) {... */\n      swap1\n      jump\t// out\n        /* \"contracts/Pair.sol\":5959:6100  function ethToTokenTransfer(uint256 tokenAmount, address recipient) public payable{\r... */\n    tag_74:\n        /* \"contracts/Pair.sol\":6052:6092  ethForTokenBasic(tokenAmount, recipient) */\n      tag_177\n        /* \"contracts/Pair.sol\":6069:6080  tokenAmount */\n      dup3\n        /* \"contracts/Pair.sol\":6082:6091  recipient */\n      dup3\n        /* \"contracts/Pair.sol\":6052:6068  ethForTokenBasic */\n      tag_178\n        /* \"contracts/Pair.sol\":6052:6092  ethForTokenBasic(tokenAmount, recipient) */\n      jump\t// in\n    tag_177:\n        /* \"contracts/Pair.sol\":5959:6100  function ethToTokenTransfer(uint256 tokenAmount, address recipient) public payable{\r... */\n      pop\n      pop\n      jump\t// out\n        /* \"@openzeppelin/contracts/token/ERC20/ERC20.sol\":5873:6107  function increaseAllowance(address spender, uint256 addedValue) public virtual returns (bool) {... */\n    tag_78:\n        /* \"@openzeppelin/contracts/token/ERC20/ERC20.sol\":5961:5965  bool */\n      0x00\n        /* \"@openzeppelin/contracts/token/ERC20/ERC20.sol\":5977:5990  address owner */\n      dup1\n        /* \"@openzeppelin/contracts/token/ERC20/ERC20.sol\":5993:6005  _msgSender() */\n      tag_180\n        /* \"@openzeppelin/contracts/token/ERC20/ERC20.sol\":5993:6003  _msgSender */\n      tag_153\n        /* \"@openzeppelin/contracts/token/ERC20/ERC20.sol\":5993:6005  _msgSender() */\n      jump\t// in\n    tag_180:\n        /* \"@openzeppelin/contracts/token/ERC20/ERC20.sol\":5977:6005  address owner = _msgSender() */\n      swap1\n      pop\n        /* \"@openzeppelin/contracts/token/ERC20/ERC20.sol\":6015:6079  _approve(owner, spender, allowance(owner, spender) + addedValue) */\n      tag_181\n        /* \"@openzeppelin/contracts/token/ERC20/ERC20.sol\":6024:6029  owner */\n      dup2\n        /* \"@openzeppelin/contracts/token/ERC20/ERC20.sol\":6031:6038  spender */\n      dup6\n        /* \"@openzeppelin/contracts/token/ERC20/ERC20.sol\":6068:6078  addedValue */\n      dup6\n        /* \"@openzeppelin/contracts/token/ERC20/ERC20.sol\":6040:6065  allowance(owner, spender) */\n      tag_182\n        /* \"@openzeppelin/contracts/token/ERC20/ERC20.sol\":6050:6055  owner */\n      dup6\n        /* \"@openzeppelin/contracts/token/ERC20/ERC20.sol\":6057:6064  spender */\n      dup10\n        /* \"@openzeppelin/contracts/token/ERC20/ERC20.sol\":6040:6049  allowance */\n      tag_127\n        /* \"@openzeppelin/contracts/token/ERC20/ERC20.sol\":6040:6065  allowance(owner, spender) */\n      jump\t// in\n    tag_182:\n        /* \"@openzeppelin/contracts/token/ERC20/ERC20.sol\":6040:6078  allowance(owner, spender) + addedValue */\n      tag_183\n      swap2\n      swap1\n      tag_184\n      jump\t// in\n    tag_183:\n        /* \"@openzeppelin/contracts/token/ERC20/ERC20.sol\":6015:6023  _approve */\n      tag_155\n        /* \"@openzeppelin/contracts/token/ERC20/ERC20.sol\":6015:6079  _approve(owner, spender, allowance(owner, spender) + addedValue) */\n      jump\t// in\n    tag_181:\n        /* \"@openzeppelin/contracts/token/ERC20/ERC20.sol\":6096:6100  true */\n      0x01\n        /* \"@openzeppelin/contracts/token/ERC20/ERC20.sol\":6089:6100  return true */\n      swap2\n      pop\n      pop\n        /* \"@openzeppelin/contracts/token/ERC20/ERC20.sol\":5873:6107  function increaseAllowance(address spender, uint256 addedValue) public virtual returns (bool) {... */\n      swap3\n      swap2\n      pop\n      pop\n      jump\t// out\n        /* \"contracts/Pair.sol\":2044:3378  function addLiquidity(uint256 inputTokenAmount ) public payable returns (uint256 lpTokenAmount){\r... */\n    tag_82:\n        /* \"contracts/Pair.sol\":2117:2138  uint256 lpTokenAmount */\n      0x00\n        /* \"contracts/Pair.sol\":2151:2171  uint256 tokenReserve */\n      dup1\n        /* \"contracts/Pair.sol\":2173:2191  uint256 ethReserve */\n      0x00\n        /* \"contracts/Pair.sol\":2195:2208  getReserves() */\n      tag_186\n        /* \"contracts/Pair.sol\":2195:2206  getReserves */\n      tag_34\n        /* \"contracts/Pair.sol\":2195:2208  getReserves() */\n      jump\t// in\n    tag_186:\n        /* \"contracts/Pair.sol\":2150:2208  (uint256 tokenReserve, uint256 ethReserve) = getReserves() */\n      swap2\n      pop\n      swap2\n      pop\n        /* \"contracts/Pair.sol\":2437:2438  0 */\n      0x00\n        /* \"contracts/Pair.sol\":2421:2433  tokenReserve */\n      dup3\n        /* \"contracts/Pair.sol\":2421:2438  tokenReserve == 0 */\n      eq\n        /* \"contracts/Pair.sol\":2417:3257  if (tokenReserve == 0) {\r... */\n      iszero\n      tag_187\n      jumpi\n        /* \"contracts/Pair.sol\":2455:2467  IERC20 token */\n      0x00\n        /* \"contracts/Pair.sol\":2477:2489  tokenAddress */\n      0x05\n      0x00\n      swap1\n      sload\n      swap1\n      0x0100\n      exp\n      swap1\n      div\n      0xffffffffffffffffffffffffffffffffffffffff\n      and\n        /* \"contracts/Pair.sol\":2455:2490  IERC20 token = IERC20(tokenAddress) */\n      swap1\n      pop\n        /* \"contracts/Pair.sol\":2505:2510  token */\n      dup1\n        /* \"contracts/Pair.sol\":2505:2523  token.transferFrom */\n      0xffffffffffffffffffffffffffffffffffffffff\n      and\n      0x23b872dd\n        /* \"contracts/Pair.sol\":2524:2534  msg.sender */\n      caller\n        /* \"contracts/Pair.sol\":2544:2548  this */\n      address\n        /* \"contracts/Pair.sol\":2551:2567  inputTokenAmount */\n      dup9\n        /* \"contracts/Pair.sol\":2505:2568  token.transferFrom(msg.sender, address(this), inputTokenAmount) */\n      mload(0x40)\n      dup5\n      0xffffffff\n      and\n      0xe0\n      shl\n      dup2\n      mstore\n      0x04\n      add\n      tag_188\n      swap4\n      swap3\n      swap2\n      swap1\n      tag_189\n      jump\t// in\n    tag_188:\n      0x20\n      mload(0x40)\n      dup1\n      dup4\n      sub\n      dup2\n      0x00\n      dup8\n      dup1\n      extcodesize\n      iszero\n      dup1\n      iszero\n      tag_190\n      jumpi\n      0x00\n      dup1\n      revert\n    tag_190:\n      pop\n      gas\n      call\n      iszero\n      dup1\n      iszero\n      tag_192\n      jumpi\n      returndatasize\n      0x00\n      dup1\n      returndatacopy\n      revert(0x00, returndatasize)\n    tag_192:\n      pop\n      pop\n      pop\n      pop\n      mload(0x40)\n      returndatasize\n      not(0x1f)\n      0x1f\n      dup3\n      add\n      and\n      dup3\n      add\n      dup1\n      0x40\n      mstore\n      pop\n      dup2\n      add\n      swap1\n      tag_193\n      swap2\n      swap1\n      tag_194\n      jump\t// in\n    tag_193:\n      pop\n        /* \"contracts/Pair.sol\":2599:2609  ethReserve */\n      dup2\n        /* \"contracts/Pair.sol\":2583:2609  lpTokenAmount = ethReserve */\n      swap4\n      pop\n        /* \"contracts/Pair.sol\":2440:2622  {\r... */\n      pop\n        /* \"contracts/Pair.sol\":2417:3257  if (tokenReserve == 0) {\r... */\n      jump(tag_195)\n    tag_187:\n        /* \"contracts/Pair.sol\":2700:2709  msg.value */\n      callvalue\n        /* \"contracts/Pair.sol\":2686:2709  ethReserve -= msg.value */\n      dup2\n      tag_196\n      swap2\n      swap1\n      tag_197\n      jump\t// in\n    tag_196:\n      swap1\n      pop\n        /* \"contracts/Pair.sol\":2797:2823  uint256 requiredTokenInput */\n      0x00\n        /* \"contracts/Pair.sol\":2851:2861  ethReserve */\n      dup2\n        /* \"contracts/Pair.sol\":2838:2850  tokenReserve */\n      dup4\n        /* \"contracts/Pair.sol\":2826:2835  msg.value */\n      callvalue\n        /* \"contracts/Pair.sol\":2826:2850  msg.value * tokenReserve */\n      tag_198\n      swap2\n      swap1\n      tag_199\n      jump\t// in\n    tag_198:\n        /* \"contracts/Pair.sol\":2826:2861  msg.value * tokenReserve/ethReserve */\n      tag_200\n      swap2\n      swap1\n      tag_201\n      jump\t// in\n    tag_200:\n        /* \"contracts/Pair.sol\":2797:2861  uint256 requiredTokenInput = msg.value * tokenReserve/ethReserve */\n      swap1\n      pop\n        /* \"contracts/Pair.sol\":2982:3000  requiredTokenInput */\n      dup1\n        /* \"contracts/Pair.sol\":2962:2978  inputTokenAmount */\n      dup6\n        /* \"contracts/Pair.sol\":2962:3000  inputTokenAmount >= requiredTokenInput */\n      lt\n      iszero\n        /* \"contracts/Pair.sol\":2954:3046  require(inputTokenAmount >= requiredTokenInput, \"Insufficient input amount of ERC20 Tokens\") */\n      tag_202\n      jumpi\n      mload(0x40)\n      0x08c379a000000000000000000000000000000000000000000000000000000000\n      dup2\n      mstore\n      0x04\n      add\n      tag_203\n      swap1\n      tag_204\n      jump\t// in\n    tag_203:\n      mload(0x40)\n      dup1\n      swap2\n      sub\n      swap1\n      revert\n    tag_202:\n        /* \"contracts/Pair.sol\":3061:3073  IERC20 token */\n      0x00\n        /* \"contracts/Pair.sol\":3083:3095  tokenAddress */\n      0x05\n      0x00\n      swap1\n      sload\n      swap1\n      0x0100\n      exp\n      swap1\n      div\n      0xffffffffffffffffffffffffffffffffffffffff\n      and\n        /* \"contracts/Pair.sol\":3061:3096  IERC20 token = IERC20(tokenAddress) */\n      swap1\n      pop\n        /* \"contracts/Pair.sol\":3111:3116  token */\n      dup1\n        /* \"contracts/Pair.sol\":3111:3129  token.transferFrom */\n      0xffffffffffffffffffffffffffffffffffffffff\n      and\n      0x23b872dd\n        /* \"contracts/Pair.sol\":3130:3140  msg.sender */\n      caller\n        /* \"contracts/Pair.sol\":3150:3154  this */\n      address\n        /* \"contracts/Pair.sol\":3157:3173  inputTokenAmount */\n      dup10\n        /* \"contracts/Pair.sol\":3111:3174  token.transferFrom(msg.sender, address(this), inputTokenAmount) */\n      mload(0x40)\n      dup5\n      0xffffffff\n      and\n      0xe0\n      shl\n      dup2\n      mstore\n      0x04\n      add\n      tag_205\n      swap4\n      swap3\n      swap2\n      swap1\n      tag_189\n      jump\t// in\n    tag_205:\n      0x20\n      mload(0x40)\n      dup1\n      dup4\n      sub\n      dup2\n      0x00\n      dup8\n      dup1\n      extcodesize\n      iszero\n      dup1\n      iszero\n      tag_206\n      jumpi\n      0x00\n      dup1\n      revert\n    tag_206:\n      pop\n      gas\n      call\n      iszero\n      dup1\n      iszero\n      tag_208\n      jumpi\n      returndatasize\n      0x00\n      dup1\n      returndatacopy\n      revert(0x00, returndatasize)\n    tag_208:\n      pop\n      pop\n      pop\n      pop\n      mload(0x40)\n      returndatasize\n      not(0x1f)\n      0x1f\n      dup3\n      add\n      and\n      dup3\n      add\n      dup1\n      0x40\n      mstore\n      pop\n      dup2\n      add\n      swap1\n      tag_209\n      swap2\n      swap1\n      tag_194\n      jump\t// in\n    tag_209:\n      pop\n        /* \"contracts/Pair.sol\":3235:3245  ethReserve */\n      dup3\n        /* \"contracts/Pair.sol\":3222:3231  msg.value */\n      callvalue\n        /* \"contracts/Pair.sol\":3206:3219  totalSupply() */\n      tag_210\n        /* \"contracts/Pair.sol\":3206:3217  totalSupply */\n      tag_53\n        /* \"contracts/Pair.sol\":3206:3219  totalSupply() */\n      jump\t// in\n    tag_210:\n        /* \"contracts/Pair.sol\":3206:3231  totalSupply() * msg.value */\n      tag_211\n      swap2\n      swap1\n      tag_199\n      jump\t// in\n    tag_211:\n        /* \"contracts/Pair.sol\":3205:3245  (totalSupply() * msg.value) / ethReserve */\n      tag_212\n      swap2\n      swap1\n      tag_201\n      jump\t// in\n    tag_212:\n        /* \"contracts/Pair.sol\":3189:3245  lpTokenAmount = (totalSupply() * msg.value) / ethReserve */\n      swap5\n      pop\n        /* \"contracts/Pair.sol\":2671:3257  {\r... */\n      pop\n      pop\n        /* \"contracts/Pair.sol\":2417:3257  if (tokenReserve == 0) {\r... */\n    tag_195:\n        /* \"contracts/Pair.sol\":3269:3301  _mint(msg.sender, lpTokenAmount) */\n      tag_213\n        /* \"contracts/Pair.sol\":3275:3285  msg.sender */\n      caller\n        /* \"contracts/Pair.sol\":3287:3300  lpTokenAmount */\n      dup5\n        /* \"contracts/Pair.sol\":3269:3274  _mint */\n      tag_214\n        /* \"contracts/Pair.sol\":3269:3301  _mint(msg.sender, lpTokenAmount) */\n      jump\t// in\n    tag_213:\n        /* \"contracts/Pair.sol\":3353:3369  inputTokenAmount */\n      dup4\n        /* \"contracts/Pair.sol\":3342:3351  msg.value */\n      callvalue\n        /* \"contracts/Pair.sol\":3330:3340  msg.sender */\n      caller\n        /* \"contracts/Pair.sol\":3317:3370  AddLiquidity(msg.sender, msg.value, inputTokenAmount) */\n      0xffffffffffffffffffffffffffffffffffffffff\n      and\n      0x06239653922ac7bea6aa2b19dc486b9361821d37712eb796adfd38d81de278ca\n      mload(0x40)\n      mload(0x40)\n      dup1\n      swap2\n      sub\n      swap1\n      log4\n        /* \"contracts/Pair.sol\":2139:3378  {\r... */\n      pop\n      pop\n        /* \"contracts/Pair.sol\":2044:3378  function addLiquidity(uint256 inputTokenAmount ) public payable returns (uint256 lpTokenAmount){\r... */\n      swap2\n      swap1\n      pop\n      jump\t// out\n        /* \"contracts/Pair.sol\":6277:6926  function tokenForEthSwap(uint256 ipTokenAmount, uint256 opEthAmount) public {\r... */\n    tag_88:\n        /* \"contracts/Pair.sol\":6365:6385  uint256 tokenReserve */\n      0x00\n        /* \"contracts/Pair.sol\":6387:6405  uint256 ethReserve */\n      dup1\n        /* \"contracts/Pair.sol\":6409:6422  getReserves() */\n      tag_216\n        /* \"contracts/Pair.sol\":6409:6420  getReserves */\n      tag_34\n        /* \"contracts/Pair.sol\":6409:6422  getReserves() */\n      jump\t// in\n    tag_216:\n        /* \"contracts/Pair.sol\":6364:6422  (uint256 tokenReserve, uint256 ethReserve) = getReserves() */\n      swap2\n      pop\n      swap2\n      pop\n        /* \"contracts/Pair.sol\":6435:6454  uint256 ethRecieved */\n      0x00\n        /* \"contracts/Pair.sol\":6457:6513  getOutputAmount(ipTokenAmount, tokenReserve, ethReserve) */\n      tag_217\n        /* \"contracts/Pair.sol\":6473:6486  ipTokenAmount */\n      dup6\n        /* \"contracts/Pair.sol\":6488:6500  tokenReserve */\n      dup5\n        /* \"contracts/Pair.sol\":6502:6512  ethReserve */\n      dup5\n        /* \"contracts/Pair.sol\":6457:6472  getOutputAmount */\n      tag_162\n        /* \"contracts/Pair.sol\":6457:6513  getOutputAmount(ipTokenAmount, tokenReserve, ethReserve) */\n      jump\t// in\n    tag_217:\n        /* \"contracts/Pair.sol\":6435:6513  uint256 ethRecieved = getOutputAmount(ipTokenAmount, tokenReserve, ethReserve) */\n      swap1\n      pop\n        /* \"contracts/Pair.sol\":6549:6560  opEthAmount */\n      dup4\n        /* \"contracts/Pair.sol\":6534:6545  ethRecieved */\n      dup2\n        /* \"contracts/Pair.sol\":6534:6560  ethRecieved >= opEthAmount */\n      lt\n      iszero\n        /* \"contracts/Pair.sol\":6526:6632  require(ethRecieved >= opEthAmount, \"Amount swapped does not meet your stipulated amount, reverting swap\") */\n      tag_218\n      jumpi\n      mload(0x40)\n      0x08c379a000000000000000000000000000000000000000000000000000000000\n      dup2\n      mstore\n      0x04\n      add\n      tag_219\n      swap1\n      tag_220\n      jump\t// in\n    tag_219:\n      mload(0x40)\n      dup1\n      swap2\n      sub\n      swap1\n      revert\n    tag_218:\n        /* \"contracts/Pair.sol\":6650:6662  tokenAddress */\n      0x05\n      0x00\n      swap1\n      sload\n      swap1\n      0x0100\n      exp\n      swap1\n      div\n      0xffffffffffffffffffffffffffffffffffffffff\n      and\n        /* \"contracts/Pair.sol\":6643:6676  IERC20(tokenAddress).transferFrom */\n      0xffffffffffffffffffffffffffffffffffffffff\n      and\n      0x23b872dd\n        /* \"contracts/Pair.sol\":6677:6687  msg.sender */\n      caller\n        /* \"contracts/Pair.sol\":6697:6701  this */\n      address\n        /* \"contracts/Pair.sol\":6704:6717  ipTokenAmount */\n      dup9\n        /* \"contracts/Pair.sol\":6643:6718  IERC20(tokenAddress).transferFrom(msg.sender, address(this), ipTokenAmount) */\n      mload(0x40)\n      dup5\n      0xffffffff\n      and\n      0xe0\n      shl\n      dup2\n      mstore\n      0x04\n      add\n      tag_221\n      swap4\n      swap3\n      swap2\n      swap1\n      tag_189\n      jump\t// in\n    tag_221:\n      0x20\n      mload(0x40)\n      dup1\n      dup4\n      sub\n      dup2\n      0x00\n      dup8\n      dup1\n      extcodesize\n      iszero\n      dup1\n      iszero\n      tag_222\n      jumpi\n      0x00\n      dup1\n      revert\n    tag_222:\n      pop\n      gas\n      call\n      iszero\n      dup1\n      iszero\n      tag_224\n      jumpi\n      returndatasize\n      0x00\n      dup1\n      returndatacopy\n      revert(0x00, returndatasize)\n    tag_224:\n      pop\n      pop\n      pop\n      pop\n      mload(0x40)\n      returndatasize\n      not(0x1f)\n      0x1f\n      dup3\n      add\n      and\n      dup3\n      add\n      dup1\n      0x40\n      mstore\n      pop\n      dup2\n      add\n      swap1\n      tag_225\n      swap2\n      swap1\n      tag_194\n      jump\t// in\n    tag_225:\n      pop\n        /* \"contracts/Pair.sol\":6730:6739  bool sent */\n      0x00\n        /* \"contracts/Pair.sol\":6746:6756  msg.sender */\n      caller\n        /* \"contracts/Pair.sol\":6745:6762  (msg.sender).call */\n      0xffffffffffffffffffffffffffffffffffffffff\n      and\n        /* \"contracts/Pair.sol\":6770:6781  opEthAmount */\n      dup6\n        /* \"contracts/Pair.sol\":6745:6786  (msg.sender).call{value: opEthAmount}(\"\") */\n      mload(0x40)\n      tag_226\n      swap1\n      tag_227\n      jump\t// in\n    tag_226:\n      0x00\n      mload(0x40)\n      dup1\n      dup4\n      sub\n      dup2\n      dup6\n      dup8\n      gas\n      call\n      swap3\n      pop\n      pop\n      pop\n      returndatasize\n      dup1\n      0x00\n      dup2\n      eq\n      tag_230\n      jumpi\n      mload(0x40)\n      swap2\n      pop\n      and(add(returndatasize, 0x3f), not(0x1f))\n      dup3\n      add\n      0x40\n      mstore\n      returndatasize\n      dup3\n      mstore\n      returndatasize\n      0x00\n      0x20\n      dup5\n      add\n      returndatacopy\n      jump(tag_229)\n    tag_230:\n      0x60\n      swap2\n      pop\n    tag_229:\n      pop\n        /* \"contracts/Pair.sol\":6729:6786  (bool sent, ) = (msg.sender).call{value: opEthAmount}(\"\") */\n      pop\n      swap1\n      pop\n        /* \"contracts/Pair.sol\":6805:6809  sent */\n      dup1\n        /* \"contracts/Pair.sol\":6797:6852  require(sent, \"Transaction of ETH to recipient failed\") */\n      tag_231\n      jumpi\n      mload(0x40)\n      0x08c379a000000000000000000000000000000000000000000000000000000000\n      dup2\n      mstore\n      0x04\n      add\n      tag_232\n      swap1\n      tag_233\n      jump\t// in\n    tag_232:\n      mload(0x40)\n      dup1\n      swap2\n      sub\n      swap1\n      revert\n    tag_231:\n        /* \"contracts/Pair.sol\":6891:6904  ipTokenAmount */\n      dup6\n        /* \"contracts/Pair.sol\":6879:6889  msg.sender */\n      caller\n        /* \"contracts/Pair.sol\":6868:6918  SwapForEth(msg.sender, ipTokenAmount, ethRecieved) */\n      0xffffffffffffffffffffffffffffffffffffffff\n      and\n      0xd70caa09595c8288801ca58a02fd0960ef4982b210b2b9bf88bd5344c27cc4e8\n        /* \"contracts/Pair.sol\":6906:6917  ethRecieved */\n      dup5\n        /* \"contracts/Pair.sol\":6868:6918  SwapForEth(msg.sender, ipTokenAmount, ethRecieved) */\n      mload(0x40)\n      tag_234\n      swap2\n      swap1\n      tag_50\n      jump\t// in\n    tag_234:\n      mload(0x40)\n      dup1\n      swap2\n      sub\n      swap1\n      log3\n        /* \"contracts/Pair.sol\":6353:6926  {\r... */\n      pop\n      pop\n      pop\n      pop\n        /* \"contracts/Pair.sol\":6277:6926  function tokenForEthSwap(uint256 ipTokenAmount, uint256 opEthAmount) public {\r... */\n      pop\n      pop\n      jump\t// out\n        /* \"@openzeppelin/contracts/token/ERC20/ERC20.sol\":3408:3533  function balanceOf(address account) public view virtual override returns (uint256) {... */\n    tag_93:\n        /* \"@openzeppelin/contracts/token/ERC20/ERC20.sol\":3482:3489  uint256 */\n      0x00\n        /* \"@openzeppelin/contracts/token/ERC20/ERC20.sol\":3508:3517  _balances */\n      dup1\n        /* \"@openzeppelin/contracts/token/ERC20/ERC20.sol\":3508:3526  _balances[account] */\n      0x00\n        /* \"@openzeppelin/contracts/token/ERC20/ERC20.sol\":3518:3525  account */\n      dup4\n        /* \"@openzeppelin/contracts/token/ERC20/ERC20.sol\":3508:3526  _balances[account] */\n      0xffffffffffffffffffffffffffffffffffffffff\n      and\n      0xffffffffffffffffffffffffffffffffffffffff\n      and\n      dup2\n      mstore\n      0x20\n      add\n      swap1\n      dup2\n      mstore\n      0x20\n      add\n      0x00\n      keccak256\n      sload\n        /* \"@openzeppelin/contracts/token/ERC20/ERC20.sol\":3501:3526  return _balances[account] */\n      swap1\n      pop\n        /* \"@openzeppelin/contracts/token/ERC20/ERC20.sol\":3408:3533  function balanceOf(address account) public view virtual override returns (uint256) {... */\n      swap2\n      swap1\n      pop\n      jump\t// out\n        /* \"@openzeppelin/contracts/token/ERC20/ERC20.sol\":2367:2469  function symbol() public view virtual override returns (string memory) {... */\n    tag_97:\n        /* \"@openzeppelin/contracts/token/ERC20/ERC20.sol\":2423:2436  string memory */\n      0x60\n        /* \"@openzeppelin/contracts/token/ERC20/ERC20.sol\":2455:2462  _symbol */\n      0x04\n        /* \"@openzeppelin/contracts/token/ERC20/ERC20.sol\":2448:2462  return _symbol */\n      dup1\n      sload\n      tag_237\n      swap1\n      tag_139\n      jump\t// in\n    tag_237:\n      dup1\n      0x1f\n      add\n      0x20\n      dup1\n      swap2\n      div\n      mul\n      0x20\n      add\n      mload(0x40)\n      swap1\n      dup2\n      add\n      0x40\n      mstore\n      dup1\n      swap3\n      swap2\n      swap1\n      dup2\n      dup2\n      mstore\n      0x20\n      add\n      dup3\n      dup1\n      sload\n      tag_238\n      swap1\n      tag_139\n      jump\t// in\n    tag_238:\n      dup1\n      iszero\n      tag_239\n      jumpi\n      dup1\n      0x1f\n      lt\n      tag_240\n      jumpi\n      0x0100\n      dup1\n      dup4\n      sload\n      div\n      mul\n      dup4\n      mstore\n      swap2\n      0x20\n      add\n      swap2\n      jump(tag_239)\n    tag_240:\n      dup3\n      add\n      swap2\n      swap1\n      0x00\n      mstore\n      keccak256(0x00, 0x20)\n      swap1\n    tag_241:\n      dup2\n      sload\n      dup2\n      mstore\n      swap1\n      0x01\n      add\n      swap1\n      0x20\n      add\n      dup1\n      dup4\n      gt\n      tag_241\n      jumpi\n      dup3\n      swap1\n      sub\n      0x1f\n      and\n      dup3\n      add\n      swap2\n    tag_239:\n      pop\n      pop\n      pop\n      pop\n      pop\n      swap1\n      pop\n        /* \"@openzeppelin/contracts/token/ERC20/ERC20.sol\":2367:2469  function symbol() public view virtual override returns (string memory) {... */\n      swap1\n      jump\t// out\n        /* \"contracts/Pair.sol\":882:911  address public factoryAddress */\n    tag_101:\n      0x06\n      0x00\n      swap1\n      sload\n      swap1\n      0x0100\n      exp\n      swap1\n      div\n      0xffffffffffffffffffffffffffffffffffffffff\n      and\n      dup2\n      jump\t// out\n        /* \"contracts/Pair.sol\":3386:4110  function removeLiquidity(uint256 lpTokenAmount) public returns (uint256 ethAmount, uint256 tokenAmount){\r... */\n    tag_107:\n        /* \"contracts/Pair.sol\":3450:3467  uint256 ethAmount */\n      0x00\n        /* \"contracts/Pair.sol\":3469:3488  uint256 tokenAmount */\n      dup1\n        /* \"contracts/Pair.sol\":3524:3525  0 */\n      0x00\n        /* \"contracts/Pair.sol\":3508:3521  lpTokenAmount */\n      dup4\n        /* \"contracts/Pair.sol\":3508:3525  lpTokenAmount > 0 */\n      gt\n        /* \"contracts/Pair.sol\":3500:3585  require(lpTokenAmount > 0, \"Please input a valid amount of LP Tokens to burn/redeem\") */\n      tag_243\n      jumpi\n      mload(0x40)\n      0x08c379a000000000000000000000000000000000000000000000000000000000\n      dup2\n      mstore\n      0x04\n      add\n      tag_244\n      swap1\n      tag_245\n      jump\t// in\n    tag_244:\n      mload(0x40)\n      dup1\n      swap2\n      sub\n      swap1\n      revert\n    tag_243:\n        /* \"contracts/Pair.sol\":3599:3619  uint256 tokenReserve */\n      0x00\n        /* \"contracts/Pair.sol\":3621:3639  uint256 ethReserve */\n      dup1\n        /* \"contracts/Pair.sol\":3643:3656  getReserves() */\n      tag_246\n        /* \"contracts/Pair.sol\":3643:3654  getReserves */\n      tag_34\n        /* \"contracts/Pair.sol\":3643:3656  getReserves() */\n      jump\t// in\n    tag_246:\n        /* \"contracts/Pair.sol\":3598:3656  (uint256 tokenReserve, uint256 ethReserve) = getReserves() */\n      swap2\n      pop\n      swap2\n      pop\n        /* \"contracts/Pair.sol\":3710:3723  totalSupply() */\n      tag_247\n        /* \"contracts/Pair.sol\":3710:3721  totalSupply */\n      tag_53\n        /* \"contracts/Pair.sol\":3710:3723  totalSupply() */\n      jump\t// in\n    tag_247:\n        /* \"contracts/Pair.sol\":3693:3706  lpTokenAmount */\n      dup6\n        /* \"contracts/Pair.sol\":3680:3690  ethReserve */\n      dup3\n        /* \"contracts/Pair.sol\":3680:3706  ethReserve * lpTokenAmount */\n      tag_248\n      swap2\n      swap1\n      tag_199\n      jump\t// in\n    tag_248:\n        /* \"contracts/Pair.sol\":3679:3723  (ethReserve * lpTokenAmount) / totalSupply() */\n      tag_249\n      swap2\n      swap1\n      tag_201\n      jump\t// in\n    tag_249:\n        /* \"contracts/Pair.sol\":3667:3723  ethAmount = (ethReserve * lpTokenAmount) / totalSupply() */\n      swap4\n      pop\n        /* \"contracts/Pair.sol\":3781:3794  totalSupply() */\n      tag_250\n        /* \"contracts/Pair.sol\":3781:3792  totalSupply */\n      tag_53\n        /* \"contracts/Pair.sol\":3781:3794  totalSupply() */\n      jump\t// in\n    tag_250:\n        /* \"contracts/Pair.sol\":3764:3777  lpTokenAmount */\n      dup6\n        /* \"contracts/Pair.sol\":3749:3761  tokenReserve */\n      dup4\n        /* \"contracts/Pair.sol\":3749:3777  tokenReserve * lpTokenAmount */\n      tag_251\n      swap2\n      swap1\n      tag_199\n      jump\t// in\n    tag_251:\n        /* \"contracts/Pair.sol\":3748:3794  (tokenReserve * lpTokenAmount) / totalSupply() */\n      tag_252\n      swap2\n      swap1\n      tag_201\n      jump\t// in\n    tag_252:\n        /* \"contracts/Pair.sol\":3734:3794  tokenAmount = (tokenReserve * lpTokenAmount) / totalSupply() */\n      swap3\n      pop\n        /* \"contracts/Pair.sol\":3807:3839  _burn(msg.sender, lpTokenAmount) */\n      tag_253\n        /* \"contracts/Pair.sol\":3813:3823  msg.sender */\n      caller\n        /* \"contracts/Pair.sol\":3825:3838  lpTokenAmount */\n      dup7\n        /* \"contracts/Pair.sol\":3807:3812  _burn */\n      tag_254\n        /* \"contracts/Pair.sol\":3807:3839  _burn(msg.sender, lpTokenAmount) */\n      jump\t// in\n    tag_253:\n        /* \"contracts/Pair.sol\":3851:3860  bool sent */\n      0x00\n        /* \"contracts/Pair.sol\":3867:3877  msg.sender */\n      caller\n        /* \"contracts/Pair.sol\":3866:3883  (msg.sender).call */\n      0xffffffffffffffffffffffffffffffffffffffff\n      and\n        /* \"contracts/Pair.sol\":3891:3900  ethAmount */\n      dup6\n        /* \"contracts/Pair.sol\":3866:3905  (msg.sender).call{value: ethAmount}(\"\") */\n      mload(0x40)\n      tag_255\n      swap1\n      tag_227\n      jump\t// in\n    tag_255:\n      0x00\n      mload(0x40)\n      dup1\n      dup4\n      sub\n      dup2\n      dup6\n      dup8\n      gas\n      call\n      swap3\n      pop\n      pop\n      pop\n      returndatasize\n      dup1\n      0x00\n      dup2\n      eq\n      tag_258\n      jumpi\n      mload(0x40)\n      swap2\n      pop\n      and(add(returndatasize, 0x3f), not(0x1f))\n      dup3\n      add\n      0x40\n      mstore\n      returndatasize\n      dup3\n      mstore\n      returndatasize\n      0x00\n      0x20\n      dup5\n      add\n      returndatacopy\n      jump(tag_257)\n    tag_258:\n      0x60\n      swap2\n      pop\n    tag_257:\n      pop\n        /* \"contracts/Pair.sol\":3850:3905  (bool sent, ) = (msg.sender).call{value: ethAmount}(\"\") */\n      pop\n      swap1\n      pop\n        /* \"contracts/Pair.sol\":3924:3928  sent */\n      dup1\n        /* \"contracts/Pair.sol\":3916:3970  require(sent, \"Transaction of Ether was unsuccessful\") */\n      tag_259\n      jumpi\n      mload(0x40)\n      0x08c379a000000000000000000000000000000000000000000000000000000000\n      dup2\n      mstore\n      0x04\n      add\n      tag_260\n      swap1\n      tag_261\n      jump\t// in\n    tag_260:\n      mload(0x40)\n      dup1\n      swap2\n      sub\n      swap1\n      revert\n    tag_259:\n        /* \"contracts/Pair.sol\":3988:4000  tokenAddress */\n      0x05\n      0x00\n      swap1\n      sload\n      swap1\n      0x0100\n      exp\n      swap1\n      div\n      0xffffffffffffffffffffffffffffffffffffffff\n      and\n        /* \"contracts/Pair.sol\":3981:4010  IERC20(tokenAddress).transfer */\n      0xffffffffffffffffffffffffffffffffffffffff\n      and\n      0xa9059cbb\n        /* \"contracts/Pair.sol\":4011:4021  msg.sender */\n      caller\n        /* \"contracts/Pair.sol\":4023:4034  tokenAmount */\n      dup7\n        /* \"contracts/Pair.sol\":3981:4035  IERC20(tokenAddress).transfer(msg.sender, tokenAmount) */\n      mload(0x40)\n      dup4\n      0xffffffff\n      and\n      0xe0\n      shl\n      dup2\n      mstore\n      0x04\n      add\n      tag_262\n      swap3\n      swap2\n      swap1\n      tag_263\n      jump\t// in\n    tag_262:\n      0x20\n      mload(0x40)\n      dup1\n      dup4\n      sub\n      dup2\n      0x00\n      dup8\n      dup1\n      extcodesize\n      iszero\n      dup1\n      iszero\n      tag_264\n      jumpi\n      0x00\n      dup1\n      revert\n    tag_264:\n      pop\n      gas\n      call\n      iszero\n      dup1\n      iszero\n      tag_266\n      jumpi\n      returndatasize\n      0x00\n      dup1\n      returndatacopy\n      revert(0x00, returndatasize)\n    tag_266:\n      pop\n      pop\n      pop\n      pop\n      mload(0x40)\n      returndatasize\n      not(0x1f)\n      0x1f\n      dup3\n      add\n      and\n      dup3\n      add\n      dup1\n      0x40\n      mstore\n      pop\n      dup2\n      add\n      swap1\n      tag_267\n      swap2\n      swap1\n      tag_194\n      jump\t// in\n    tag_267:\n      pop\n        /* \"contracts/Pair.sol\":4090:4101  tokenAmount */\n      dup4\n        /* \"contracts/Pair.sol\":4079:4088  ethAmount */\n      dup6\n        /* \"contracts/Pair.sol\":4067:4077  msg.sender */\n      caller\n        /* \"contracts/Pair.sol\":4051:4102  RemoveLiquidity(msg.sender, ethAmount, tokenAmount) */\n      0xffffffffffffffffffffffffffffffffffffffff\n      and\n      0x0fbf06c058b90cb038a618f8c2acbf6145f8b3570fd1fa56abb8f0f3f05b36e8\n      mload(0x40)\n      mload(0x40)\n      dup1\n      swap2\n      sub\n      swap1\n      log4\n        /* \"contracts/Pair.sol\":3489:4110  {\r... */\n      pop\n      pop\n      pop\n        /* \"contracts/Pair.sol\":3386:4110  function removeLiquidity(uint256 lpTokenAmount) public returns (uint256 ethAmount, uint256 tokenAmount){\r... */\n      swap2\n      pop\n      swap2\n      jump\t// out\n        /* \"contracts/Pair.sol\":848:875  address public tokenAddress */\n    tag_111:\n      0x05\n      0x00\n      swap1\n      sload\n      swap1\n      0x0100\n      exp\n      swap1\n      div\n      0xffffffffffffffffffffffffffffffffffffffff\n      and\n      dup2\n      jump\t// out\n        /* \"@openzeppelin/contracts/token/ERC20/ERC20.sol\":6594:7021  function decreaseAllowance(address spender, uint256 subtractedValue) public virtual returns (bool) {... */\n    tag_116:\n        /* \"@openzeppelin/contracts/token/ERC20/ERC20.sol\":6687:6691  bool */\n      0x00\n        /* \"@openzeppelin/contracts/token/ERC20/ERC20.sol\":6703:6716  address owner */\n      dup1\n        /* \"@openzeppelin/contracts/token/ERC20/ERC20.sol\":6719:6731  _msgSender() */\n      tag_269\n        /* \"@openzeppelin/contracts/token/ERC20/ERC20.sol\":6719:6729  _msgSender */\n      tag_153\n        /* \"@openzeppelin/contracts/token/ERC20/ERC20.sol\":6719:6731  _msgSender() */\n      jump\t// in\n    tag_269:\n        /* \"@openzeppelin/contracts/token/ERC20/ERC20.sol\":6703:6731  address owner = _msgSender() */\n      swap1\n      pop\n        /* \"@openzeppelin/contracts/token/ERC20/ERC20.sol\":6741:6765  uint256 currentAllowance */\n      0x00\n        /* \"@openzeppelin/contracts/token/ERC20/ERC20.sol\":6768:6793  allowance(owner, spender) */\n      tag_270\n        /* \"@openzeppelin/contracts/token/ERC20/ERC20.sol\":6778:6783  owner */\n      dup3\n        /* \"@openzeppelin/contracts/token/ERC20/ERC20.sol\":6785:6792  spender */\n      dup7\n        /* \"@openzeppelin/contracts/token/ERC20/ERC20.sol\":6768:6777  allowance */\n      tag_127\n        /* \"@openzeppelin/contracts/token/ERC20/ERC20.sol\":6768:6793  allowance(owner, spender) */\n      jump\t// in\n    tag_270:\n        /* \"@openzeppelin/contracts/token/ERC20/ERC20.sol\":6741:6793  uint256 currentAllowance = allowance(owner, spender) */\n      swap1\n      pop\n        /* \"@openzeppelin/contracts/token/ERC20/ERC20.sol\":6831:6846  subtractedValue */\n      dup4\n        /* \"@openzeppelin/contracts/token/ERC20/ERC20.sol\":6811:6827  currentAllowance */\n      dup2\n        /* \"@openzeppelin/contracts/token/ERC20/ERC20.sol\":6811:6846  currentAllowance >= subtractedValue */\n      lt\n      iszero\n        /* \"@openzeppelin/contracts/token/ERC20/ERC20.sol\":6803:6888  require(currentAllowance >= subtractedValue, \"ERC20: decreased allowance below zero\") */\n      tag_271\n      jumpi\n      mload(0x40)\n      0x08c379a000000000000000000000000000000000000000000000000000000000\n      dup2\n      mstore\n      0x04\n      add\n      tag_272\n      swap1\n      tag_273\n      jump\t// in\n    tag_272:\n      mload(0x40)\n      dup1\n      swap2\n      sub\n      swap1\n      revert\n    tag_271:\n        /* \"@openzeppelin/contracts/token/ERC20/ERC20.sol\":6922:6982  _approve(owner, spender, currentAllowance - subtractedValue) */\n      tag_274\n        /* \"@openzeppelin/contracts/token/ERC20/ERC20.sol\":6931:6936  owner */\n      dup3\n        /* \"@openzeppelin/contracts/token/ERC20/ERC20.sol\":6938:6945  spender */\n      dup7\n        /* \"@openzeppelin/contracts/token/ERC20/ERC20.sol\":6966:6981  subtractedValue */\n      dup7\n        /* \"@openzeppelin/contracts/token/ERC20/ERC20.sol\":6947:6963  currentAllowance */\n      dup5\n        /* \"@openzeppelin/contracts/token/ERC20/ERC20.sol\":6947:6981  currentAllowance - subtractedValue */\n      sub\n        /* \"@openzeppelin/contracts/token/ERC20/ERC20.sol\":6922:6930  _approve */\n      tag_155\n        /* \"@openzeppelin/contracts/token/ERC20/ERC20.sol\":6922:6982  _approve(owner, spender, currentAllowance - subtractedValue) */\n      jump\t// in\n    tag_274:\n        /* \"@openzeppelin/contracts/token/ERC20/ERC20.sol\":7010:7014  true */\n      0x01\n        /* \"@openzeppelin/contracts/token/ERC20/ERC20.sol\":7003:7014  return true */\n      swap3\n      pop\n      pop\n      pop\n        /* \"@openzeppelin/contracts/token/ERC20/ERC20.sol\":6594:7021  function decreaseAllowance(address spender, uint256 subtractedValue) public virtual returns (bool) {... */\n      swap3\n      swap2\n      pop\n      pop\n      jump\t// out\n        /* \"@openzeppelin/contracts/token/ERC20/ERC20.sol\":3729:3918  function transfer(address to, uint256 amount) public virtual override returns (bool) {... */\n    tag_121:\n        /* \"@openzeppelin/contracts/token/ERC20/ERC20.sol\":3808:3812  bool */\n      0x00\n        /* \"@openzeppelin/contracts/token/ERC20/ERC20.sol\":3824:3837  address owner */\n      dup1\n        /* \"@openzeppelin/contracts/token/ERC20/ERC20.sol\":3840:3852  _msgSender() */\n      tag_276\n        /* \"@openzeppelin/contracts/token/ERC20/ERC20.sol\":3840:3850  _msgSender */\n      tag_153\n        /* \"@openzeppelin/contracts/token/ERC20/ERC20.sol\":3840:3852  _msgSender() */\n      jump\t// in\n    tag_276:\n        /* \"@openzeppelin/contracts/token/ERC20/ERC20.sol\":3824:3852  address owner = _msgSender() */\n      swap1\n      pop\n        /* \"@openzeppelin/contracts/token/ERC20/ERC20.sol\":3862:3890  _transfer(owner, to, amount) */\n      tag_277\n        /* \"@openzeppelin/contracts/token/ERC20/ERC20.sol\":3872:3877  owner */\n      dup2\n        /* \"@openzeppelin/contracts/token/ERC20/ERC20.sol\":3879:3881  to */\n      dup6\n        /* \"@openzeppelin/contracts/token/ERC20/ERC20.sol\":3883:3889  amount */\n      dup6\n        /* \"@openzeppelin/contracts/token/ERC20/ERC20.sol\":3862:3871  _transfer */\n      tag_169\n        /* \"@openzeppelin/contracts/token/ERC20/ERC20.sol\":3862:3890  _transfer(owner, to, amount) */\n      jump\t// in\n    tag_277:\n        /* \"@openzeppelin/contracts/token/ERC20/ERC20.sol\":3907:3911  true */\n      0x01\n        /* \"@openzeppelin/contracts/token/ERC20/ERC20.sol\":3900:3911  return true */\n      swap2\n      pop\n      pop\n        /* \"@openzeppelin/contracts/token/ERC20/ERC20.sol\":3729:3918  function transfer(address to, uint256 amount) public virtual override returns (bool) {... */\n      swap3\n      swap2\n      pop\n      pop\n      jump\t// out\n        /* \"@openzeppelin/contracts/token/ERC20/ERC20.sol\":3976:4125  function allowance(address owner, address spender) public view virtual override returns (uint256) {... */\n    tag_127:\n        /* \"@openzeppelin/contracts/token/ERC20/ERC20.sol\":4065:4072  uint256 */\n      0x00\n        /* \"@openzeppelin/contracts/token/ERC20/ERC20.sol\":4091:4102  _allowances */\n      0x01\n        /* \"@openzeppelin/contracts/token/ERC20/ERC20.sol\":4091:4109  _allowances[owner] */\n      0x00\n        /* \"@openzeppelin/contracts/token/ERC20/ERC20.sol\":4103:4108  owner */\n      dup5\n        /* \"@openzeppelin/contracts/token/ERC20/ERC20.sol\":4091:4109  _allowances[owner] */\n      0xffffffffffffffffffffffffffffffffffffffff\n      and\n      0xffffffffffffffffffffffffffffffffffffffff\n      and\n      dup2\n      mstore\n      0x20\n      add\n      swap1\n      dup2\n      mstore\n      0x20\n      add\n      0x00\n      keccak256\n        /* \"@openzeppelin/contracts/token/ERC20/ERC20.sol\":4091:4118  _allowances[owner][spender] */\n      0x00\n        /* \"@openzeppelin/contracts/token/ERC20/ERC20.sol\":4110:4117  spender */\n      dup4\n        /* \"@openzeppelin/contracts/token/ERC20/ERC20.sol\":4091:4118  _allowances[owner][spender] */\n      0xffffffffffffffffffffffffffffffffffffffff\n      and\n      0xffffffffffffffffffffffffffffffffffffffff\n      and\n      dup2\n      mstore\n      0x20\n      add\n      swap1\n      dup2\n      mstore\n      0x20\n      add\n      0x00\n      keccak256\n      sload\n        /* \"@openzeppelin/contracts/token/ERC20/ERC20.sol\":4084:4118  return _allowances[owner][spender] */\n      swap1\n      pop\n        /* \"@openzeppelin/contracts/token/ERC20/ERC20.sol\":3976:4125  function allowance(address owner, address spender) public view virtual override returns (uint256) {... */\n      swap3\n      swap2\n      pop\n      pop\n      jump\t// out\n        /* \"contracts/Pair.sol\":7810:8706  function tokenToTokenSwap(uint256 tokenAmount, uint256 opTokenAmount, address opTokenAddress\r... */\n    tag_133:\n        /* \"contracts/Pair.sol\":7962:7963  0 */\n      0x00\n        /* \"contracts/Pair.sol\":7936:7964  opTokenAddress != address(0) */\n      0xffffffffffffffffffffffffffffffffffffffff\n      and\n        /* \"contracts/Pair.sol\":7936:7950  opTokenAddress */\n      dup2\n        /* \"contracts/Pair.sol\":7936:7964  opTokenAddress != address(0) */\n      0xffffffffffffffffffffffffffffffffffffffff\n      and\n      eq\n      iszero\n        /* \"contracts/Pair.sol\":7928:7992  require(opTokenAddress != address(0), \"Token address not valid\") */\n      tag_280\n      jumpi\n      mload(0x40)\n      0x08c379a000000000000000000000000000000000000000000000000000000000\n      dup2\n      mstore\n      0x04\n      add\n      tag_281\n      swap1\n      tag_282\n      jump\t// in\n    tag_281:\n      mload(0x40)\n      dup1\n      swap2\n      sub\n      swap1\n      revert\n    tag_280:\n        /* \"contracts/Pair.sol\":8025:8026  0 */\n      0x00\n        /* \"contracts/Pair.sol\":8011:8022  tokenAmount */\n      dup4\n        /* \"contracts/Pair.sol\":8011:8026  tokenAmount > 0 */\n      gt\n        /* \"contracts/Pair.sol\":8003:8057  require(tokenAmount > 0, \"Invalid input token amount\") */\n      tag_283\n      jumpi\n      mload(0x40)\n      0x08c379a000000000000000000000000000000000000000000000000000000000\n      dup2\n      mstore\n      0x04\n      add\n      tag_284\n      swap1\n      tag_285\n      jump\t// in\n    tag_284:\n      mload(0x40)\n      dup1\n      swap2\n      sub\n      swap1\n      revert\n    tag_283:\n        /* \"contracts/Pair.sol\":8068:8097  address targetExchangeAddress */\n      0x00\n        /* \"contracts/Pair.sol\":8109:8123  factoryAddress */\n      0x06\n      0x00\n      swap1\n      sload\n      swap1\n      0x0100\n      exp\n      swap1\n      div\n      0xffffffffffffffffffffffffffffffffffffffff\n      and\n        /* \"contracts/Pair.sol\":8100:8132  IFactory(factoryAddress).getPair */\n      0xffffffffffffffffffffffffffffffffffffffff\n      and\n      0x1a788a02\n        /* \"contracts/Pair.sol\":8133:8147  opTokenAddress */\n      dup4\n        /* \"contracts/Pair.sol\":8100:8148  IFactory(factoryAddress).getPair(opTokenAddress) */\n      mload(0x40)\n      dup3\n      0xffffffff\n      and\n      0xe0\n      shl\n      dup2\n      mstore\n      0x04\n      add\n      tag_286\n      swap2\n      swap1\n      tag_103\n      jump\t// in\n    tag_286:\n      0x20\n      mload(0x40)\n      dup1\n      dup4\n      sub\n      dup2\n      0x00\n      dup8\n      dup1\n      extcodesize\n      iszero\n      dup1\n      iszero\n      tag_287\n      jumpi\n      0x00\n      dup1\n      revert\n    tag_287:\n      pop\n      gas\n      call\n      iszero\n      dup1\n      iszero\n      tag_289\n      jumpi\n      returndatasize\n      0x00\n      dup1\n      returndatacopy\n      revert(0x00, returndatasize)\n    tag_289:\n      pop\n      pop\n      pop\n      pop\n      mload(0x40)\n      returndatasize\n      not(0x1f)\n      0x1f\n      dup3\n      add\n      and\n      dup3\n      add\n      dup1\n      0x40\n      mstore\n      pop\n      dup2\n      add\n      swap1\n      tag_290\n      swap2\n      swap1\n      tag_291\n      jump\t// in\n    tag_290:\n        /* \"contracts/Pair.sol\":8068:8148  address targetExchangeAddress = IFactory(factoryAddress).getPair(opTokenAddress) */\n      swap1\n      pop\n        /* \"contracts/Pair.sol\":8214:8218  this */\n      address\n        /* \"contracts/Pair.sol\":8181:8219  targetExchangeAddress != address(this) */\n      0xffffffffffffffffffffffffffffffffffffffff\n      and\n        /* \"contracts/Pair.sol\":8181:8202  targetExchangeAddress */\n      dup2\n        /* \"contracts/Pair.sol\":8181:8219  targetExchangeAddress != address(this) */\n      0xffffffffffffffffffffffffffffffffffffffff\n      and\n      eq\n      iszero\n        /* \"contracts/Pair.sol\":8181:8258  targetExchangeAddress != address(this) && targetExchangeAddress != address(0) */\n      dup1\n      iszero\n      tag_292\n      jumpi\n      pop\n        /* \"contracts/Pair.sol\":8256:8257  0 */\n      0x00\n        /* \"contracts/Pair.sol\":8223:8258  targetExchangeAddress != address(0) */\n      0xffffffffffffffffffffffffffffffffffffffff\n      and\n        /* \"contracts/Pair.sol\":8223:8244  targetExchangeAddress */\n      dup2\n        /* \"contracts/Pair.sol\":8223:8258  targetExchangeAddress != address(0) */\n      0xffffffffffffffffffffffffffffffffffffffff\n      and\n      eq\n      iszero\n        /* \"contracts/Pair.sol\":8181:8258  targetExchangeAddress != address(this) && targetExchangeAddress != address(0) */\n    tag_292:\n        /* \"contracts/Pair.sol\":8159:8312  require(\r... */\n      tag_293\n      jumpi\n      mload(0x40)\n      0x08c379a000000000000000000000000000000000000000000000000000000000\n      dup2\n      mstore\n      0x04\n      add\n      tag_294\n      swap1\n      tag_295\n      jump\t// in\n    tag_294:\n      mload(0x40)\n      dup1\n      swap2\n      sub\n      swap1\n      revert\n    tag_293:\n        /* \"contracts/Pair.sol\":8328:8348  uint256 tokenReserve */\n      0x00\n        /* \"contracts/Pair.sol\":8350:8368  uint256 ethReserve */\n      dup1\n        /* \"contracts/Pair.sol\":8372:8385  getReserves() */\n      tag_296\n        /* \"contracts/Pair.sol\":8372:8383  getReserves */\n      tag_34\n        /* \"contracts/Pair.sol\":8372:8385  getReserves() */\n      jump\t// in\n    tag_296:\n        /* \"contracts/Pair.sol\":8327:8385  (uint256 tokenReserve, uint256 ethReserve) = getReserves() */\n      swap2\n      pop\n      swap2\n      pop\n        /* \"contracts/Pair.sol\":8396:8413  uint256 ethAmount */\n      0x00\n        /* \"contracts/Pair.sol\":8416:8470  getOutputAmount(tokenAmount, tokenReserve, ethReserve) */\n      tag_297\n        /* \"contracts/Pair.sol\":8432:8443  tokenAmount */\n      dup8\n        /* \"contracts/Pair.sol\":8445:8457  tokenReserve */\n      dup5\n        /* \"contracts/Pair.sol\":8459:8469  ethReserve */\n      dup5\n        /* \"contracts/Pair.sol\":8416:8431  getOutputAmount */\n      tag_162\n        /* \"contracts/Pair.sol\":8416:8470  getOutputAmount(tokenAmount, tokenReserve, ethReserve) */\n      jump\t// in\n    tag_297:\n        /* \"contracts/Pair.sol\":8396:8470  uint256 ethAmount = getOutputAmount(tokenAmount, tokenReserve, ethReserve) */\n      swap1\n      pop\n        /* \"contracts/Pair.sol\":8490:8502  tokenAddress */\n      0x05\n      0x00\n      swap1\n      sload\n      swap1\n      0x0100\n      exp\n      swap1\n      div\n      0xffffffffffffffffffffffffffffffffffffffff\n      and\n        /* \"contracts/Pair.sol\":8483:8516  IERC20(tokenAddress).transferFrom */\n      0xffffffffffffffffffffffffffffffffffffffff\n      and\n      0x23b872dd\n        /* \"contracts/Pair.sol\":8517:8527  msg.sender */\n      caller\n        /* \"contracts/Pair.sol\":8537:8541  this */\n      address\n        /* \"contracts/Pair.sol\":8544:8555  tokenAmount */\n      dup11\n        /* \"contracts/Pair.sol\":8483:8556  IERC20(tokenAddress).transferFrom(msg.sender, address(this), tokenAmount) */\n      mload(0x40)\n      dup5\n      0xffffffff\n      and\n      0xe0\n      shl\n      dup2\n      mstore\n      0x04\n      add\n      tag_298\n      swap4\n      swap3\n      swap2\n      swap1\n      tag_189\n      jump\t// in\n    tag_298:\n      0x20\n      mload(0x40)\n      dup1\n      dup4\n      sub\n      dup2\n      0x00\n      dup8\n      dup1\n      extcodesize\n      iszero\n      dup1\n      iszero\n      tag_299\n      jumpi\n      0x00\n      dup1\n      revert\n    tag_299:\n      pop\n      gas\n      call\n      iszero\n      dup1\n      iszero\n      tag_301\n      jumpi\n      returndatasize\n      0x00\n      dup1\n      returndatacopy\n      revert(0x00, returndatasize)\n    tag_301:\n      pop\n      pop\n      pop\n      pop\n      mload(0x40)\n      returndatasize\n      not(0x1f)\n      0x1f\n      dup3\n      add\n      and\n      dup3\n      add\n      dup1\n      0x40\n      mstore\n      pop\n      dup2\n      add\n      swap1\n      tag_302\n      swap2\n      swap1\n      tag_194\n      jump\t// in\n    tag_302:\n      pop\n        /* \"contracts/Pair.sol\":8575:8596  targetExchangeAddress */\n      dup4\n        /* \"contracts/Pair.sol\":8569:8616  IPair(targetExchangeAddress).ethToTokenTransfer */\n      0xffffffffffffffffffffffffffffffffffffffff\n      and\n      0x389d9a40\n        /* \"contracts/Pair.sol\":8624:8633  ethAmount */\n      dup3\n        /* \"contracts/Pair.sol\":8649:8662  opTokenAmount */\n      dup9\n        /* \"contracts/Pair.sol\":8677:8687  msg.sender */\n      caller\n        /* \"contracts/Pair.sol\":8569:8698  IPair(targetExchangeAddress).ethToTokenTransfer{value: ethAmount}(\r... */\n      mload(0x40)\n      dup5\n      0xffffffff\n      and\n      0xe0\n      shl\n      dup2\n      mstore\n      0x04\n      add\n      tag_303\n      swap3\n      swap2\n      swap1\n      tag_304\n      jump\t// in\n    tag_303:\n      0x00\n      mload(0x40)\n      dup1\n      dup4\n      sub\n      dup2\n      dup6\n      dup9\n      dup1\n      extcodesize\n      iszero\n      dup1\n      iszero\n      tag_305\n      jumpi\n      0x00\n      dup1\n      revert\n    tag_305:\n      pop\n      gas\n      call\n      iszero\n      dup1\n      iszero\n      tag_307\n      jumpi\n      returndatasize\n      0x00\n      dup1\n      returndatacopy\n      revert(0x00, returndatasize)\n    tag_307:\n      pop\n      pop\n      pop\n      pop\n      pop\n        /* \"contracts/Pair.sol\":7917:8706  {\r... */\n      pop\n      pop\n      pop\n      pop\n        /* \"contracts/Pair.sol\":7810:8706  function tokenToTokenSwap(uint256 tokenAmount, uint256 opTokenAmount, address opTokenAddress\r... */\n      pop\n      pop\n      pop\n      jump\t// out\n        /* \"contracts/Pair.sol\":6141:6261  function ethToTokenSwap(uint256 tokenAmount) public payable {\r... */\n    tag_136:\n        /* \"contracts/Pair.sol\":6212:6253  ethForTokenBasic(tokenAmount, msg.sender) */\n      tag_309\n        /* \"contracts/Pair.sol\":6229:6240  tokenAmount */\n      dup2\n        /* \"contracts/Pair.sol\":6242:6252  msg.sender */\n      caller\n        /* \"contracts/Pair.sol\":6212:6228  ethForTokenBasic */\n      tag_178\n        /* \"contracts/Pair.sol\":6212:6253  ethForTokenBasic(tokenAmount, msg.sender) */\n      jump\t// in\n    tag_309:\n        /* \"contracts/Pair.sol\":6141:6261  function ethToTokenSwap(uint256 tokenAmount) public payable {\r... */\n      pop\n      jump\t// out\n        /* \"@openzeppelin/contracts/utils/Context.sol\":640:736  function _msgSender() internal view virtual returns (address) {... */\n    tag_153:\n        /* \"@openzeppelin/contracts/utils/Context.sol\":693:700  address */\n      0x00\n        /* \"@openzeppelin/contracts/utils/Context.sol\":719:729  msg.sender */\n      caller\n        /* \"@openzeppelin/contracts/utils/Context.sol\":712:729  return msg.sender */\n      swap1\n      pop\n        /* \"@openzeppelin/contracts/utils/Context.sol\":640:736  function _msgSender() internal view virtual returns (address) {... */\n      swap1\n      jump\t// out\n        /* \"@openzeppelin/contracts/token/ERC20/ERC20.sol\":10110:10480  function _approve(... */\n    tag_155:\n        /* \"@openzeppelin/contracts/token/ERC20/ERC20.sol\":10258:10259  0 */\n      0x00\n        /* \"@openzeppelin/contracts/token/ERC20/ERC20.sol\":10241:10260  owner != address(0) */\n      0xffffffffffffffffffffffffffffffffffffffff\n      and\n        /* \"@openzeppelin/contracts/token/ERC20/ERC20.sol\":10241:10246  owner */\n      dup4\n        /* \"@openzeppelin/contracts/token/ERC20/ERC20.sol\":10241:10260  owner != address(0) */\n      0xffffffffffffffffffffffffffffffffffffffff\n      and\n      eq\n      iszero\n        /* \"@openzeppelin/contracts/token/ERC20/ERC20.sol\":10233:10301  require(owner != address(0), \"ERC20: approve from the zero address\") */\n      tag_312\n      jumpi\n      mload(0x40)\n      0x08c379a000000000000000000000000000000000000000000000000000000000\n      dup2\n      mstore\n      0x04\n      add\n      tag_313\n      swap1\n      tag_314\n      jump\t// in\n    tag_313:\n      mload(0x40)\n      dup1\n      swap2\n      sub\n      swap1\n      revert\n    tag_312:\n        /* \"@openzeppelin/contracts/token/ERC20/ERC20.sol\":10338:10339  0 */\n      0x00\n        /* \"@openzeppelin/contracts/token/ERC20/ERC20.sol\":10319:10340  spender != address(0) */\n      0xffffffffffffffffffffffffffffffffffffffff\n      and\n        /* \"@openzeppelin/contracts/token/ERC20/ERC20.sol\":10319:10326  spender */\n      dup3\n        /* \"@openzeppelin/contracts/token/ERC20/ERC20.sol\":10319:10340  spender != address(0) */\n      0xffffffffffffffffffffffffffffffffffffffff\n      and\n      eq\n      iszero\n        /* \"@openzeppelin/contracts/token/ERC20/ERC20.sol\":10311:10379  require(spender != address(0), \"ERC20: approve to the zero address\") */\n      tag_315\n      jumpi\n      mload(0x40)\n      0x08c379a000000000000000000000000000000000000000000000000000000000\n      dup2\n      mstore\n      0x04\n      add\n      tag_316\n      swap1\n      tag_317\n      jump\t// in\n    tag_316:\n      mload(0x40)\n      dup1\n      swap2\n      sub\n      swap1\n      revert\n    tag_315:\n        /* \"@openzeppelin/contracts/token/ERC20/ERC20.sol\":10420:10426  amount */\n      dup1\n        /* \"@openzeppelin/contracts/token/ERC20/ERC20.sol\":10390:10401  _allowances */\n      0x01\n        /* \"@openzeppelin/contracts/token/ERC20/ERC20.sol\":10390:10408  _allowances[owner] */\n      0x00\n        /* \"@openzeppelin/contracts/token/ERC20/ERC20.sol\":10402:10407  owner */\n      dup6\n        /* \"@openzeppelin/contracts/token/ERC20/ERC20.sol\":10390:10408  _allowances[owner] */\n      0xffffffffffffffffffffffffffffffffffffffff\n      and\n      0xffffffffffffffffffffffffffffffffffffffff\n      and\n      dup2\n      mstore\n      0x20\n      add\n      swap1\n      dup2\n      mstore\n      0x20\n      add\n      0x00\n      keccak256\n        /* \"@openzeppelin/contracts/token/ERC20/ERC20.sol\":10390:10417  _allowances[owner][spender] */\n      0x00\n        /* \"@openzeppelin/contracts/token/ERC20/ERC20.sol\":10409:10416  spender */\n      dup5\n        /* \"@openzeppelin/contracts/token/ERC20/ERC20.sol\":10390:10417  _allowances[owner][spender] */\n      0xffffffffffffffffffffffffffffffffffffffff\n      and\n      0xffffffffffffffffffffffffffffffffffffffff\n      and\n      dup2\n      mstore\n      0x20\n      add\n      swap1\n      dup2\n      mstore\n      0x20\n      add\n      0x00\n      keccak256\n        /* \"@openzeppelin/contracts/token/ERC20/ERC20.sol\":10390:10426  _allowances[owner][spender] = amount */\n      dup2\n      swap1\n      sstore\n      pop\n        /* \"@openzeppelin/contracts/token/ERC20/ERC20.sol\":10457:10464  spender */\n      dup2\n        /* \"@openzeppelin/contracts/token/ERC20/ERC20.sol\":10441:10473  Approval(owner, spender, amount) */\n      0xffffffffffffffffffffffffffffffffffffffff\n      and\n        /* \"@openzeppelin/contracts/token/ERC20/ERC20.sol\":10450:10455  owner */\n      dup4\n        /* \"@openzeppelin/contracts/token/ERC20/ERC20.sol\":10441:10473  Approval(owner, spender, amount) */\n      0xffffffffffffffffffffffffffffffffffffffff\n      and\n      0x8c5be1e5ebec7d5bd14f71427d1e84f3dd0314c0f7b2291e5b200ac8c7c3b925\n        /* \"@openzeppelin/contracts/token/ERC20/ERC20.sol\":10466:10472  amount */\n      dup4\n        /* \"@openzeppelin/contracts/token/ERC20/ERC20.sol\":10441:10473  Approval(owner, spender, amount) */\n      mload(0x40)\n      tag_318\n      swap2\n      swap1\n      tag_50\n      jump\t// in\n    tag_318:\n      mload(0x40)\n      dup1\n      swap2\n      sub\n      swap1\n      log3\n        /* \"@openzeppelin/contracts/token/ERC20/ERC20.sol\":10110:10480  function _approve(... */\n      pop\n      pop\n      pop\n      jump\t// out\n        /* \"contracts/Pair.sol\":4118:4472  function getOutputAmount(uint256 ipAmount, uint256 ipReserve, uint256 opReserve) private pure returns (uint256 opAmount) {\r... */\n    tag_162:\n        /* \"contracts/Pair.sol\":4221:4237  uint256 opAmount */\n      0x00\n        /* \"contracts/Pair.sol\":4270:4271  0 */\n      dup1\n        /* \"contracts/Pair.sol\":4258:4267  ipReserve */\n      dup4\n        /* \"contracts/Pair.sol\":4258:4271  ipReserve > 0 */\n      gt\n        /* \"contracts/Pair.sol\":4258:4288  ipReserve > 0 && opReserve > 0 */\n      dup1\n      iszero\n      tag_320\n      jumpi\n      pop\n        /* \"contracts/Pair.sol\":4287:4288  0 */\n      0x00\n        /* \"contracts/Pair.sol\":4275:4284  opReserve */\n      dup3\n        /* \"contracts/Pair.sol\":4275:4288  opReserve > 0 */\n      gt\n        /* \"contracts/Pair.sol\":4258:4288  ipReserve > 0 && opReserve > 0 */\n    tag_320:\n        /* \"contracts/Pair.sol\":4250:4314  require(ipReserve > 0 && opReserve > 0, \"There are no reserves\") */\n      tag_321\n      jumpi\n      mload(0x40)\n      0x08c379a000000000000000000000000000000000000000000000000000000000\n      dup2\n      mstore\n      0x04\n      add\n      tag_322\n      swap1\n      tag_323\n      jump\t// in\n    tag_322:\n      mload(0x40)\n      dup1\n      swap2\n      sub\n      swap1\n      revert\n    tag_321:\n        /* \"contracts/Pair.sol\":4325:4348  uint256 ipAmountPlusFee */\n      0x00\n        /* \"contracts/Pair.sol\":1525:1526  0 */\n      dup1\n        /* \"contracts/Pair.sol\":4363:4367  1000 */\n      0x03e8\n        /* \"contracts/Pair.sol\":4363:4375  1000 - txFee */\n      tag_324\n      swap2\n      swap1\n      tag_197\n      jump\t// in\n    tag_324:\n        /* \"contracts/Pair.sol\":4351:4359  ipAmount */\n      dup6\n        /* \"contracts/Pair.sol\":4351:4376  ipAmount * (1000 - txFee) */\n      tag_325\n      swap2\n      swap1\n      tag_199\n      jump\t// in\n    tag_325:\n        /* \"contracts/Pair.sol\":4325:4376  uint256 ipAmountPlusFee = ipAmount * (1000 - txFee) */\n      swap1\n      pop\n        /* \"contracts/Pair.sol\":4448:4463  ipAmountPlusFee */\n      dup1\n        /* \"contracts/Pair.sol\":4436:4445  ipReserve */\n      dup5\n        /* \"contracts/Pair.sol\":4429:4433  1000 */\n      0x03e8\n        /* \"contracts/Pair.sol\":4429:4445  1000 * ipReserve */\n      tag_326\n      swap2\n      swap1\n      tag_199\n      jump\t// in\n    tag_326:\n        /* \"contracts/Pair.sol\":4429:4463  1000 * ipReserve + ipAmountPlusFee */\n      tag_327\n      swap2\n      swap1\n      tag_184\n      jump\t// in\n    tag_327:\n        /* \"contracts/Pair.sol\":4416:4425  opReserve */\n      dup4\n        /* \"contracts/Pair.sol\":4398:4413  ipAmountPlusFee */\n      dup3\n        /* \"contracts/Pair.sol\":4398:4425  ipAmountPlusFee * opReserve */\n      tag_328\n      swap2\n      swap1\n      tag_199\n      jump\t// in\n    tag_328:\n        /* \"contracts/Pair.sol\":4398:4464  ipAmountPlusFee * opReserve / (1000 * ipReserve + ipAmountPlusFee) */\n      tag_329\n      swap2\n      swap1\n      tag_201\n      jump\t// in\n    tag_329:\n        /* \"contracts/Pair.sol\":4387:4464  opAmount = ipAmountPlusFee * opReserve / (1000 * ipReserve + ipAmountPlusFee) */\n      swap2\n      pop\n        /* \"contracts/Pair.sol\":4239:4472  {\r... */\n      pop\n        /* \"contracts/Pair.sol\":4118:4472  function getOutputAmount(uint256 ipAmount, uint256 ipReserve, uint256 opReserve) private pure returns (uint256 opAmount) {\r... */\n      swap4\n      swap3\n      pop\n      pop\n      pop\n      jump\t// out\n        /* \"@openzeppelin/contracts/token/ERC20/ERC20.sol\":10761:11202  function _spendAllowance(... */\n    tag_167:\n        /* \"@openzeppelin/contracts/token/ERC20/ERC20.sol\":10891:10915  uint256 currentAllowance */\n      0x00\n        /* \"@openzeppelin/contracts/token/ERC20/ERC20.sol\":10918:10943  allowance(owner, spender) */\n      tag_331\n        /* \"@openzeppelin/contracts/token/ERC20/ERC20.sol\":10928:10933  owner */\n      dup5\n        /* \"@openzeppelin/contracts/token/ERC20/ERC20.sol\":10935:10942  spender */\n      dup5\n        /* \"@openzeppelin/contracts/token/ERC20/ERC20.sol\":10918:10927  allowance */\n      tag_127\n        /* \"@openzeppelin/contracts/token/ERC20/ERC20.sol\":10918:10943  allowance(owner, spender) */\n      jump\t// in\n    tag_331:\n        /* \"@openzeppelin/contracts/token/ERC20/ERC20.sol\":10891:10943  uint256 currentAllowance = allowance(owner, spender) */\n      swap1\n      pop\n        /* \"@openzeppelin/contracts/token/ERC20/ERC20.sol\":10977:10994  type(uint256).max */\n      0xffffffffffffffffffffffffffffffffffffffffffffffffffffffffffffffff\n        /* \"@openzeppelin/contracts/token/ERC20/ERC20.sol\":10957:10973  currentAllowance */\n      dup2\n        /* \"@openzeppelin/contracts/token/ERC20/ERC20.sol\":10957:10994  currentAllowance != type(uint256).max */\n      eq\n        /* \"@openzeppelin/contracts/token/ERC20/ERC20.sol\":10953:11196  if (currentAllowance != type(uint256).max) {... */\n      tag_332\n      jumpi\n        /* \"@openzeppelin/contracts/token/ERC20/ERC20.sol\":11038:11044  amount */\n      dup2\n        /* \"@openzeppelin/contracts/token/ERC20/ERC20.sol\":11018:11034  currentAllowance */\n      dup2\n        /* \"@openzeppelin/contracts/token/ERC20/ERC20.sol\":11018:11044  currentAllowance >= amount */\n      lt\n      iszero\n        /* \"@openzeppelin/contracts/token/ERC20/ERC20.sol\":11010:11078  require(currentAllowance >= amount, \"ERC20: insufficient allowance\") */\n      tag_333\n      jumpi\n      mload(0x40)\n      0x08c379a000000000000000000000000000000000000000000000000000000000\n      dup2\n      mstore\n      0x04\n      add\n      tag_334\n      swap1\n      tag_335\n      jump\t// in\n    tag_334:\n      mload(0x40)\n      dup1\n      swap2\n      sub\n      swap1\n      revert\n    tag_333:\n        /* \"@openzeppelin/contracts/token/ERC20/ERC20.sol\":11120:11171  _approve(owner, spender, currentAllowance - amount) */\n      tag_336\n        /* \"@openzeppelin/contracts/token/ERC20/ERC20.sol\":11129:11134  owner */\n      dup5\n        /* \"@openzeppelin/contracts/token/ERC20/ERC20.sol\":11136:11143  spender */\n      dup5\n        /* \"@openzeppelin/contracts/token/ERC20/ERC20.sol\":11164:11170  amount */\n      dup5\n        /* \"@openzeppelin/contracts/token/ERC20/ERC20.sol\":11145:11161  currentAllowance */\n      dup5\n        /* \"@openzeppelin/contracts/token/ERC20/ERC20.sol\":11145:11170  currentAllowance - amount */\n      sub\n        /* \"@openzeppelin/contracts/token/ERC20/ERC20.sol\":11120:11128  _approve */\n      tag_155\n        /* \"@openzeppelin/contracts/token/ERC20/ERC20.sol\":11120:11171  _approve(owner, spender, currentAllowance - amount) */\n      jump\t// in\n    tag_336:\n        /* \"@openzeppelin/contracts/token/ERC20/ERC20.sol\":10953:11196  if (currentAllowance != type(uint256).max) {... */\n    tag_332:\n        /* \"@openzeppelin/contracts/token/ERC20/ERC20.sol\":10881:11202  {... */\n      pop\n        /* \"@openzeppelin/contracts/token/ERC20/ERC20.sol\":10761:11202  function _spendAllowance(... */\n      pop\n      pop\n      pop\n      jump\t// out\n        /* \"@openzeppelin/contracts/token/ERC20/ERC20.sol\":7475:8126  function _transfer(... */\n    tag_169:\n        /* \"@openzeppelin/contracts/token/ERC20/ERC20.sol\":7617:7618  0 */\n      0x00\n        /* \"@openzeppelin/contracts/token/ERC20/ERC20.sol\":7601:7619  from != address(0) */\n      0xffffffffffffffffffffffffffffffffffffffff\n      and\n        /* \"@openzeppelin/contracts/token/ERC20/ERC20.sol\":7601:7605  from */\n      dup4\n        /* \"@openzeppelin/contracts/token/ERC20/ERC20.sol\":7601:7619  from != address(0) */\n      0xffffffffffffffffffffffffffffffffffffffff\n      and\n      eq\n      iszero\n        /* \"@openzeppelin/contracts/token/ERC20/ERC20.sol\":7593:7661  require(from != address(0), \"ERC20: transfer from the zero address\") */\n      tag_338\n      jumpi\n      mload(0x40)\n      0x08c379a000000000000000000000000000000000000000000000000000000000\n      dup2\n      mstore\n      0x04\n      add\n      tag_339\n      swap1\n      tag_340\n      jump\t// in\n    tag_339:\n      mload(0x40)\n      dup1\n      swap2\n      sub\n      swap1\n      revert\n    tag_338:\n        /* \"@openzeppelin/contracts/token/ERC20/ERC20.sol\":7693:7694  0 */\n      0x00\n        /* \"@openzeppelin/contracts/token/ERC20/ERC20.sol\":7679:7695  to != address(0) */\n      0xffffffffffffffffffffffffffffffffffffffff\n      and\n        /* \"@openzeppelin/contracts/token/ERC20/ERC20.sol\":7679:7681  to */\n      dup3\n        /* \"@openzeppelin/contracts/token/ERC20/ERC20.sol\":7679:7695  to != address(0) */\n      0xffffffffffffffffffffffffffffffffffffffff\n      and\n      eq\n      iszero\n        /* \"@openzeppelin/contracts/token/ERC20/ERC20.sol\":7671:7735  require(to != address(0), \"ERC20: transfer to the zero address\") */\n      tag_341\n      jumpi\n      mload(0x40)\n      0x08c379a000000000000000000000000000000000000000000000000000000000\n      dup2\n      mstore\n      0x04\n      add\n      tag_342\n      swap1\n      tag_343\n      jump\t// in\n    tag_342:\n      mload(0x40)\n      dup1\n      swap2\n      sub\n      swap1\n      revert\n    tag_341:\n        /* \"@openzeppelin/contracts/token/ERC20/ERC20.sol\":7746:7784  _beforeTokenTransfer(from, to, amount) */\n      tag_344\n        /* \"@openzeppelin/contracts/token/ERC20/ERC20.sol\":7767:7771  from */\n      dup4\n        /* \"@openzeppelin/contracts/token/ERC20/ERC20.sol\":7773:7775  to */\n      dup4\n        /* \"@openzeppelin/contracts/token/ERC20/ERC20.sol\":7777:7783  amount */\n      dup4\n        /* \"@openzeppelin/contracts/token/ERC20/ERC20.sol\":7746:7766  _beforeTokenTransfer */\n      tag_345\n        /* \"@openzeppelin/contracts/token/ERC20/ERC20.sol\":7746:7784  _beforeTokenTransfer(from, to, amount) */\n      jump\t// in\n    tag_344:\n        /* \"@openzeppelin/contracts/token/ERC20/ERC20.sol\":7795:7814  uint256 fromBalance */\n      0x00\n        /* \"@openzeppelin/contracts/token/ERC20/ERC20.sol\":7817:7826  _balances */\n      dup1\n        /* \"@openzeppelin/contracts/token/ERC20/ERC20.sol\":7817:7832  _balances[from] */\n      0x00\n        /* \"@openzeppelin/contracts/token/ERC20/ERC20.sol\":7827:7831  from */\n      dup6\n        /* \"@openzeppelin/contracts/token/ERC20/ERC20.sol\":7817:7832  _balances[from] */\n      0xffffffffffffffffffffffffffffffffffffffff\n      and\n      0xffffffffffffffffffffffffffffffffffffffff\n      and\n      dup2\n      mstore\n      0x20\n      add\n      swap1\n      dup2\n      mstore\n      0x20\n      add\n      0x00\n      keccak256\n      sload\n        /* \"@openzeppelin/contracts/token/ERC20/ERC20.sol\":7795:7832  uint256 fromBalance = _balances[from] */\n      swap1\n      pop\n        /* \"@openzeppelin/contracts/token/ERC20/ERC20.sol\":7865:7871  amount */\n      dup2\n        /* \"@openzeppelin/contracts/token/ERC20/ERC20.sol\":7850:7861  fromBalance */\n      dup2\n        /* \"@openzeppelin/contracts/token/ERC20/ERC20.sol\":7850:7871  fromBalance >= amount */\n      lt\n      iszero\n        /* \"@openzeppelin/contracts/token/ERC20/ERC20.sol\":7842:7914  require(fromBalance >= amount, \"ERC20: transfer amount exceeds balance\") */\n      tag_346\n      jumpi\n      mload(0x40)\n      0x08c379a000000000000000000000000000000000000000000000000000000000\n      dup2\n      mstore\n      0x04\n      add\n      tag_347\n      swap1\n      tag_348\n      jump\t// in\n    tag_347:\n      mload(0x40)\n      dup1\n      swap2\n      sub\n      swap1\n      revert\n    tag_346:\n        /* \"@openzeppelin/contracts/token/ERC20/ERC20.sol\":7980:7986  amount */\n      dup2\n        /* \"@openzeppelin/contracts/token/ERC20/ERC20.sol\":7966:7977  fromBalance */\n      dup2\n        /* \"@openzeppelin/contracts/token/ERC20/ERC20.sol\":7966:7986  fromBalance - amount */\n      sub\n        /* \"@openzeppelin/contracts/token/ERC20/ERC20.sol\":7948:7957  _balances */\n      0x00\n        /* \"@openzeppelin/contracts/token/ERC20/ERC20.sol\":7948:7963  _balances[from] */\n      dup1\n        /* \"@openzeppelin/contracts/token/ERC20/ERC20.sol\":7958:7962  from */\n      dup7\n        /* \"@openzeppelin/contracts/token/ERC20/ERC20.sol\":7948:7963  _balances[from] */\n      0xffffffffffffffffffffffffffffffffffffffff\n      and\n      0xffffffffffffffffffffffffffffffffffffffff\n      and\n      dup2\n      mstore\n      0x20\n      add\n      swap1\n      dup2\n      mstore\n      0x20\n      add\n      0x00\n      keccak256\n        /* \"@openzeppelin/contracts/token/ERC20/ERC20.sol\":7948:7986  _balances[from] = fromBalance - amount */\n      dup2\n      swap1\n      sstore\n      pop\n        /* \"@openzeppelin/contracts/token/ERC20/ERC20.sol\":8023:8029  amount */\n      dup2\n        /* \"@openzeppelin/contracts/token/ERC20/ERC20.sol\":8006:8015  _balances */\n      0x00\n        /* \"@openzeppelin/contracts/token/ERC20/ERC20.sol\":8006:8019  _balances[to] */\n      dup1\n        /* \"@openzeppelin/contracts/token/ERC20/ERC20.sol\":8016:8018  to */\n      dup6\n        /* \"@openzeppelin/contracts/token/ERC20/ERC20.sol\":8006:8019  _balances[to] */\n      0xffffffffffffffffffffffffffffffffffffffff\n      and\n      0xffffffffffffffffffffffffffffffffffffffff\n      and\n      dup2\n      mstore\n      0x20\n      add\n      swap1\n      dup2\n      mstore\n      0x20\n      add\n      0x00\n      keccak256\n      0x00\n        /* \"@openzeppelin/contracts/token/ERC20/ERC20.sol\":8006:8029  _balances[to] += amount */\n      dup3\n      dup3\n      sload\n      tag_349\n      swap2\n      swap1\n      tag_184\n      jump\t// in\n    tag_349:\n      swap3\n      pop\n      pop\n      dup2\n      swap1\n      sstore\n      pop\n        /* \"@openzeppelin/contracts/token/ERC20/ERC20.sol\":8060:8062  to */\n      dup3\n        /* \"@openzeppelin/contracts/token/ERC20/ERC20.sol\":8045:8071  Transfer(from, to, amount) */\n      0xffffffffffffffffffffffffffffffffffffffff\n      and\n        /* \"@openzeppelin/contracts/token/ERC20/ERC20.sol\":8054:8058  from */\n      dup5\n        /* \"@openzeppelin/contracts/token/ERC20/ERC20.sol\":8045:8071  Transfer(from, to, amount) */\n      0xffffffffffffffffffffffffffffffffffffffff\n      and\n      0xddf252ad1be2c89b69c2b068fc378daa952ba7f163c4a11628f55a4df523b3ef\n        /* \"@openzeppelin/contracts/token/ERC20/ERC20.sol\":8064:8070  amount */\n      dup5\n        /* \"@openzeppelin/contracts/token/ERC20/ERC20.sol\":8045:8071  Transfer(from, to, amount) */\n      mload(0x40)\n      tag_350\n      swap2\n      swap1\n      tag_50\n      jump\t// in\n    tag_350:\n      mload(0x40)\n      dup1\n      swap2\n      sub\n      swap1\n      log3\n        /* \"@openzeppelin/contracts/token/ERC20/ERC20.sol\":8082:8119  _afterTokenTransfer(from, to, amount) */\n      tag_351\n        /* \"@openzeppelin/contracts/token/ERC20/ERC20.sol\":8102:8106  from */\n      dup5\n        /* \"@openzeppelin/contracts/token/ERC20/ERC20.sol\":8108:8110  to */\n      dup5\n        /* \"@openzeppelin/contracts/token/ERC20/ERC20.sol\":8112:8118  amount */\n      dup5\n        /* \"@openzeppelin/contracts/token/ERC20/ERC20.sol\":8082:8101  _afterTokenTransfer */\n      tag_352\n        /* \"@openzeppelin/contracts/token/ERC20/ERC20.sol\":8082:8119  _afterTokenTransfer(from, to, amount) */\n      jump\t// in\n    tag_351:\n        /* \"@openzeppelin/contracts/token/ERC20/ERC20.sol\":7583:8126  {... */\n      pop\n        /* \"@openzeppelin/contracts/token/ERC20/ERC20.sol\":7475:8126  function _transfer(... */\n      pop\n      pop\n      pop\n      jump\t// out\n        /* \"contracts/Pair.sol\":5365:5874  function ethForTokenBasic(uint256 tokenAmount, address recipient) private {\r... */\n    tag_178:\n        /* \"contracts/Pair.sol\":5451:5471  uint256 tokenReserve */\n      0x00\n        /* \"contracts/Pair.sol\":5473:5491  uint256 ethReserve */\n      dup1\n        /* \"contracts/Pair.sol\":5495:5508  getReserves() */\n      tag_354\n        /* \"contracts/Pair.sol\":5495:5506  getReserves */\n      tag_34\n        /* \"contracts/Pair.sol\":5495:5508  getReserves() */\n      jump\t// in\n    tag_354:\n        /* \"contracts/Pair.sol\":5450:5508  (uint256 tokenReserve, uint256 ethReserve) = getReserves() */\n      swap2\n      pop\n      swap2\n      pop\n        /* \"contracts/Pair.sol\":5519:5541  uint256 tokensRecieved */\n      0x00\n        /* \"contracts/Pair.sol\":5544:5608  getOutputAmount(msg.value, ethReserve - msg.value, tokenReserve) */\n      tag_355\n        /* \"contracts/Pair.sol\":5560:5569  msg.value */\n      callvalue\n        /* \"contracts/Pair.sol\":5584:5593  msg.value */\n      callvalue\n        /* \"contracts/Pair.sol\":5571:5581  ethReserve */\n      dup5\n        /* \"contracts/Pair.sol\":5571:5593  ethReserve - msg.value */\n      tag_356\n      swap2\n      swap1\n      tag_197\n      jump\t// in\n    tag_356:\n        /* \"contracts/Pair.sol\":5595:5607  tokenReserve */\n      dup6\n        /* \"contracts/Pair.sol\":5544:5559  getOutputAmount */\n      tag_162\n        /* \"contracts/Pair.sol\":5544:5608  getOutputAmount(msg.value, ethReserve - msg.value, tokenReserve) */\n      jump\t// in\n    tag_355:\n        /* \"contracts/Pair.sol\":5519:5608  uint256 tokensRecieved = getOutputAmount(msg.value, ethReserve - msg.value, tokenReserve) */\n      swap1\n      pop\n        /* \"contracts/Pair.sol\":5647:5658  tokenAmount */\n      dup5\n        /* \"contracts/Pair.sol\":5629:5643  tokensRecieved */\n      dup2\n        /* \"contracts/Pair.sol\":5629:5658  tokensRecieved >= tokenAmount */\n      lt\n      iszero\n        /* \"contracts/Pair.sol\":5621:5730  require(tokensRecieved >= tokenAmount, \"Amount swapped does not meet your stipulated amount, reverting swap\") */\n      tag_357\n      jumpi\n      mload(0x40)\n      0x08c379a000000000000000000000000000000000000000000000000000000000\n      dup2\n      mstore\n      0x04\n      add\n      tag_358\n      swap1\n      tag_220\n      jump\t// in\n    tag_358:\n      mload(0x40)\n      dup1\n      swap2\n      sub\n      swap1\n      revert\n    tag_357:\n        /* \"contracts/Pair.sol\":5750:5762  tokenAddress */\n      0x05\n      0x00\n      swap1\n      sload\n      swap1\n      0x0100\n      exp\n      swap1\n      div\n      0xffffffffffffffffffffffffffffffffffffffff\n      and\n        /* \"contracts/Pair.sol\":5743:5772  IERC20(tokenAddress).transfer */\n      0xffffffffffffffffffffffffffffffffffffffff\n      and\n      0xa9059cbb\n        /* \"contracts/Pair.sol\":5773:5782  recipient */\n      dup6\n        /* \"contracts/Pair.sol\":5784:5798  tokensRecieved */\n      dup4\n        /* \"contracts/Pair.sol\":5743:5799  IERC20(tokenAddress).transfer(recipient, tokensRecieved) */\n      mload(0x40)\n      dup4\n      0xffffffff\n      and\n      0xe0\n      shl\n      dup2\n      mstore\n      0x04\n      add\n      tag_359\n      swap3\n      swap2\n      swap1\n      tag_263\n      jump\t// in\n    tag_359:\n      0x20\n      mload(0x40)\n      dup1\n      dup4\n      sub\n      dup2\n      0x00\n      dup8\n      dup1\n      extcodesize\n      iszero\n      dup1\n      iszero\n      tag_360\n      jumpi\n      0x00\n      dup1\n      revert\n    tag_360:\n      pop\n      gas\n      call\n      iszero\n      dup1\n      iszero\n      tag_362\n      jumpi\n      returndatasize\n      0x00\n      dup1\n      returndatacopy\n      revert(0x00, returndatasize)\n    tag_362:\n      pop\n      pop\n      pop\n      pop\n      mload(0x40)\n      returndatasize\n      not(0x1f)\n      0x1f\n      dup3\n      add\n      and\n      dup3\n      add\n      dup1\n      0x40\n      mstore\n      pop\n      dup2\n      add\n      swap1\n      tag_363\n      swap2\n      swap1\n      tag_194\n      jump\t// in\n    tag_363:\n      pop\n        /* \"contracts/Pair.sol\":5840:5849  msg.value */\n      callvalue\n        /* \"contracts/Pair.sol\":5829:5838  recipient */\n      dup5\n        /* \"contracts/Pair.sol\":5815:5866  SwapForTokens(recipient, msg.value, tokensRecieved) */\n      0xffffffffffffffffffffffffffffffffffffffff\n      and\n      0x2ad51a6b79c1a35468e5cc340ef09004400e337e1d1149aab02294fdb7f8f055\n        /* \"contracts/Pair.sol\":5851:5865  tokensRecieved */\n      dup4\n        /* \"contracts/Pair.sol\":5815:5866  SwapForTokens(recipient, msg.value, tokensRecieved) */\n      mload(0x40)\n      tag_364\n      swap2\n      swap1\n      tag_50\n      jump\t// in\n    tag_364:\n      mload(0x40)\n      dup1\n      swap2\n      sub\n      swap1\n      log3\n        /* \"contracts/Pair.sol\":5439:5874  {\r... */\n      pop\n      pop\n      pop\n        /* \"contracts/Pair.sol\":5365:5874  function ethForTokenBasic(uint256 tokenAmount, address recipient) private {\r... */\n      pop\n      pop\n      jump\t// out\n        /* \"@openzeppelin/contracts/token/ERC20/ERC20.sol\":8402:8791  function _mint(address account, uint256 amount) internal virtual {... */\n    tag_214:\n        /* \"@openzeppelin/contracts/token/ERC20/ERC20.sol\":8504:8505  0 */\n      0x00\n        /* \"@openzeppelin/contracts/token/ERC20/ERC20.sol\":8485:8506  account != address(0) */\n      0xffffffffffffffffffffffffffffffffffffffff\n      and\n        /* \"@openzeppelin/contracts/token/ERC20/ERC20.sol\":8485:8492  account */\n      dup3\n        /* \"@openzeppelin/contracts/token/ERC20/ERC20.sol\":8485:8506  account != address(0) */\n      0xffffffffffffffffffffffffffffffffffffffff\n      and\n      eq\n      iszero\n        /* \"@openzeppelin/contracts/token/ERC20/ERC20.sol\":8477:8542  require(account != address(0), \"ERC20: mint to the zero address\") */\n      tag_366\n      jumpi\n      mload(0x40)\n      0x08c379a000000000000000000000000000000000000000000000000000000000\n      dup2\n      mstore\n      0x04\n      add\n      tag_367\n      swap1\n      tag_368\n      jump\t// in\n    tag_367:\n      mload(0x40)\n      dup1\n      swap2\n      sub\n      swap1\n      revert\n    tag_366:\n        /* \"@openzeppelin/contracts/token/ERC20/ERC20.sol\":8553:8602  _beforeTokenTransfer(address(0), account, amount) */\n      tag_369\n        /* \"@openzeppelin/contracts/token/ERC20/ERC20.sol\":8582:8583  0 */\n      0x00\n        /* \"@openzeppelin/contracts/token/ERC20/ERC20.sol\":8586:8593  account */\n      dup4\n        /* \"@openzeppelin/contracts/token/ERC20/ERC20.sol\":8595:8601  amount */\n      dup4\n        /* \"@openzeppelin/contracts/token/ERC20/ERC20.sol\":8553:8573  _beforeTokenTransfer */\n      tag_345\n        /* \"@openzeppelin/contracts/token/ERC20/ERC20.sol\":8553:8602  _beforeTokenTransfer(address(0), account, amount) */\n      jump\t// in\n    tag_369:\n        /* \"@openzeppelin/contracts/token/ERC20/ERC20.sol\":8629:8635  amount */\n      dup1\n        /* \"@openzeppelin/contracts/token/ERC20/ERC20.sol\":8613:8625  _totalSupply */\n      0x02\n      0x00\n        /* \"@openzeppelin/contracts/token/ERC20/ERC20.sol\":8613:8635  _totalSupply += amount */\n      dup3\n      dup3\n      sload\n      tag_370\n      swap2\n      swap1\n      tag_184\n      jump\t// in\n    tag_370:\n      swap3\n      pop\n      pop\n      dup2\n      swap1\n      sstore\n      pop\n        /* \"@openzeppelin/contracts/token/ERC20/ERC20.sol\":8667:8673  amount */\n      dup1\n        /* \"@openzeppelin/contracts/token/ERC20/ERC20.sol\":8645:8654  _balances */\n      0x00\n        /* \"@openzeppelin/contracts/token/ERC20/ERC20.sol\":8645:8663  _balances[account] */\n      dup1\n        /* \"@openzeppelin/contracts/token/ERC20/ERC20.sol\":8655:8662  account */\n      dup5\n        /* \"@openzeppelin/contracts/token/ERC20/ERC20.sol\":8645:8663  _balances[account] */\n      0xffffffffffffffffffffffffffffffffffffffff\n      and\n      0xffffffffffffffffffffffffffffffffffffffff\n      and\n      dup2\n      mstore\n      0x20\n      add\n      swap1\n      dup2\n      mstore\n      0x20\n      add\n      0x00\n      keccak256\n      0x00\n        /* \"@openzeppelin/contracts/token/ERC20/ERC20.sol\":8645:8673  _balances[account] += amount */\n      dup3\n      dup3\n      sload\n      tag_371\n      swap2\n      swap1\n      tag_184\n      jump\t// in\n    tag_371:\n      swap3\n      pop\n      pop\n      dup2\n      swap1\n      sstore\n      pop\n        /* \"@openzeppelin/contracts/token/ERC20/ERC20.sol\":8709:8716  account */\n      dup2\n        /* \"@openzeppelin/contracts/token/ERC20/ERC20.sol\":8688:8725  Transfer(address(0), account, amount) */\n      0xffffffffffffffffffffffffffffffffffffffff\n      and\n        /* \"@openzeppelin/contracts/token/ERC20/ERC20.sol\":8705:8706  0 */\n      0x00\n        /* \"@openzeppelin/contracts/token/ERC20/ERC20.sol\":8688:8725  Transfer(address(0), account, amount) */\n      0xffffffffffffffffffffffffffffffffffffffff\n      and\n      0xddf252ad1be2c89b69c2b068fc378daa952ba7f163c4a11628f55a4df523b3ef\n        /* \"@openzeppelin/contracts/token/ERC20/ERC20.sol\":8718:8724  amount */\n      dup4\n        /* \"@openzeppelin/contracts/token/ERC20/ERC20.sol\":8688:8725  Transfer(address(0), account, amount) */\n      mload(0x40)\n      tag_372\n      swap2\n      swap1\n      tag_50\n      jump\t// in\n    tag_372:\n      mload(0x40)\n      dup1\n      swap2\n      sub\n      swap1\n      log3\n        /* \"@openzeppelin/contracts/token/ERC20/ERC20.sol\":8736:8784  _afterTokenTransfer(address(0), account, amount) */\n      tag_373\n        /* \"@openzeppelin/contracts/token/ERC20/ERC20.sol\":8764:8765  0 */\n      0x00\n        /* \"@openzeppelin/contracts/token/ERC20/ERC20.sol\":8768:8775  account */\n      dup4\n        /* \"@openzeppelin/contracts/token/ERC20/ERC20.sol\":8777:8783  amount */\n      dup4\n        /* \"@openzeppelin/contracts/token/ERC20/ERC20.sol\":8736:8755  _afterTokenTransfer */\n      tag_352\n        /* \"@openzeppelin/contracts/token/ERC20/ERC20.sol\":8736:8784  _afterTokenTransfer(address(0), account, amount) */\n      jump\t// in\n    tag_373:\n        /* \"@openzeppelin/contracts/token/ERC20/ERC20.sol\":8402:8791  function _mint(address account, uint256 amount) internal virtual {... */\n      pop\n      pop\n      jump\t// out\n        /* \"@openzeppelin/contracts/token/ERC20/ERC20.sol\":9111:9687  function _burn(address account, uint256 amount) internal virtual {... */\n    tag_254:\n        /* \"@openzeppelin/contracts/token/ERC20/ERC20.sol\":9213:9214  0 */\n      0x00\n        /* \"@openzeppelin/contracts/token/ERC20/ERC20.sol\":9194:9215  account != address(0) */\n      0xffffffffffffffffffffffffffffffffffffffff\n      and\n        /* \"@openzeppelin/contracts/token/ERC20/ERC20.sol\":9194:9201  account */\n      dup3\n        /* \"@openzeppelin/contracts/token/ERC20/ERC20.sol\":9194:9215  account != address(0) */\n      0xffffffffffffffffffffffffffffffffffffffff\n      and\n      eq\n      iszero\n        /* \"@openzeppelin/contracts/token/ERC20/ERC20.sol\":9186:9253  require(account != address(0), \"ERC20: burn from the zero address\") */\n      tag_375\n      jumpi\n      mload(0x40)\n      0x08c379a000000000000000000000000000000000000000000000000000000000\n      dup2\n      mstore\n      0x04\n      add\n      tag_376\n      swap1\n      tag_377\n      jump\t// in\n    tag_376:\n      mload(0x40)\n      dup1\n      swap2\n      sub\n      swap1\n      revert\n    tag_375:\n        /* \"@openzeppelin/contracts/token/ERC20/ERC20.sol\":9264:9313  _beforeTokenTransfer(account, address(0), amount) */\n      tag_378\n        /* \"@openzeppelin/contracts/token/ERC20/ERC20.sol\":9285:9292  account */\n      dup3\n        /* \"@openzeppelin/contracts/token/ERC20/ERC20.sol\":9302:9303  0 */\n      0x00\n        /* \"@openzeppelin/contracts/token/ERC20/ERC20.sol\":9306:9312  amount */\n      dup4\n        /* \"@openzeppelin/contracts/token/ERC20/ERC20.sol\":9264:9284  _beforeTokenTransfer */\n      tag_345\n        /* \"@openzeppelin/contracts/token/ERC20/ERC20.sol\":9264:9313  _beforeTokenTransfer(account, address(0), amount) */\n      jump\t// in\n    tag_378:\n        /* \"@openzeppelin/contracts/token/ERC20/ERC20.sol\":9324:9346  uint256 accountBalance */\n      0x00\n        /* \"@openzeppelin/contracts/token/ERC20/ERC20.sol\":9349:9358  _balances */\n      dup1\n        /* \"@openzeppelin/contracts/token/ERC20/ERC20.sol\":9349:9367  _balances[account] */\n      0x00\n        /* \"@openzeppelin/contracts/token/ERC20/ERC20.sol\":9359:9366  account */\n      dup5\n        /* \"@openzeppelin/contracts/token/ERC20/ERC20.sol\":9349:9367  _balances[account] */\n      0xffffffffffffffffffffffffffffffffffffffff\n      and\n      0xffffffffffffffffffffffffffffffffffffffff\n      and\n      dup2\n      mstore\n      0x20\n      add\n      swap1\n      dup2\n      mstore\n      0x20\n      add\n      0x00\n      keccak256\n      sload\n        /* \"@openzeppelin/contracts/token/ERC20/ERC20.sol\":9324:9367  uint256 accountBalance = _balances[account] */\n      swap1\n      pop\n        /* \"@openzeppelin/contracts/token/ERC20/ERC20.sol\":9403:9409  amount */\n      dup2\n        /* \"@openzeppelin/contracts/token/ERC20/ERC20.sol\":9385:9399  accountBalance */\n      dup2\n        /* \"@openzeppelin/contracts/token/ERC20/ERC20.sol\":9385:9409  accountBalance >= amount */\n      lt\n      iszero\n        /* \"@openzeppelin/contracts/token/ERC20/ERC20.sol\":9377:9448  require(accountBalance >= amount, \"ERC20: burn amount exceeds balance\") */\n      tag_379\n      jumpi\n      mload(0x40)\n      0x08c379a000000000000000000000000000000000000000000000000000000000\n      dup2\n      mstore\n      0x04\n      add\n      tag_380\n      swap1\n      tag_381\n      jump\t// in\n    tag_380:\n      mload(0x40)\n      dup1\n      swap2\n      sub\n      swap1\n      revert\n    tag_379:\n        /* \"@openzeppelin/contracts/token/ERC20/ERC20.sol\":9520:9526  amount */\n      dup2\n        /* \"@openzeppelin/contracts/token/ERC20/ERC20.sol\":9503:9517  accountBalance */\n      dup2\n        /* \"@openzeppelin/contracts/token/ERC20/ERC20.sol\":9503:9526  accountBalance - amount */\n      sub\n        /* \"@openzeppelin/contracts/token/ERC20/ERC20.sol\":9482:9491  _balances */\n      0x00\n        /* \"@openzeppelin/contracts/token/ERC20/ERC20.sol\":9482:9500  _balances[account] */\n      dup1\n        /* \"@openzeppelin/contracts/token/ERC20/ERC20.sol\":9492:9499  account */\n      dup6\n        /* \"@openzeppelin/contracts/token/ERC20/ERC20.sol\":9482:9500  _balances[account] */\n      0xffffffffffffffffffffffffffffffffffffffff\n      and\n      0xffffffffffffffffffffffffffffffffffffffff\n      and\n      dup2\n      mstore\n      0x20\n      add\n      swap1\n      dup2\n      mstore\n      0x20\n      add\n      0x00\n      keccak256\n        /* \"@openzeppelin/contracts/token/ERC20/ERC20.sol\":9482:9526  _balances[account] = accountBalance - amount */\n      dup2\n      swap1\n      sstore\n      pop\n        /* \"@openzeppelin/contracts/token/ERC20/ERC20.sol\":9562:9568  amount */\n      dup2\n        /* \"@openzeppelin/contracts/token/ERC20/ERC20.sol\":9546:9558  _totalSupply */\n      0x02\n      0x00\n        /* \"@openzeppelin/contracts/token/ERC20/ERC20.sol\":9546:9568  _totalSupply -= amount */\n      dup3\n      dup3\n      sload\n      tag_382\n      swap2\n      swap1\n      tag_197\n      jump\t// in\n    tag_382:\n      swap3\n      pop\n      pop\n      dup2\n      swap1\n      sstore\n      pop\n        /* \"@openzeppelin/contracts/token/ERC20/ERC20.sol\":9610:9611  0 */\n      0x00\n        /* \"@openzeppelin/contracts/token/ERC20/ERC20.sol\":9584:9621  Transfer(account, address(0), amount) */\n      0xffffffffffffffffffffffffffffffffffffffff\n      and\n        /* \"@openzeppelin/contracts/token/ERC20/ERC20.sol\":9593:9600  account */\n      dup4\n        /* \"@openzeppelin/contracts/token/ERC20/ERC20.sol\":9584:9621  Transfer(account, address(0), amount) */\n      0xffffffffffffffffffffffffffffffffffffffff\n      and\n      0xddf252ad1be2c89b69c2b068fc378daa952ba7f163c4a11628f55a4df523b3ef\n        /* \"@openzeppelin/contracts/token/ERC20/ERC20.sol\":9614:9620  amount */\n      dup5\n        /* \"@openzeppelin/contracts/token/ERC20/ERC20.sol\":9584:9621  Transfer(account, address(0), amount) */\n      mload(0x40)\n      tag_383\n      swap2\n      swap1\n      tag_50\n      jump\t// in\n    tag_383:\n      mload(0x40)\n      dup1\n      swap2\n      sub\n      swap1\n      log3\n        /* \"@openzeppelin/contracts/token/ERC20/ERC20.sol\":9632:9680  _afterTokenTransfer(account, address(0), amount) */\n      tag_384\n        /* \"@openzeppelin/contracts/token/ERC20/ERC20.sol\":9652:9659  account */\n      dup4\n        /* \"@openzeppelin/contracts/token/ERC20/ERC20.sol\":9669:9670  0 */\n      0x00\n        /* \"@openzeppelin/contracts/token/ERC20/ERC20.sol\":9673:9679  amount */\n      dup5\n        /* \"@openzeppelin/contracts/token/ERC20/ERC20.sol\":9632:9651  _afterTokenTransfer */\n      tag_352\n        /* \"@openzeppelin/contracts/token/ERC20/ERC20.sol\":9632:9680  _afterTokenTransfer(account, address(0), amount) */\n      jump\t// in\n    tag_384:\n        /* \"@openzeppelin/contracts/token/ERC20/ERC20.sol\":9176:9687  {... */\n      pop\n        /* \"@openzeppelin/contracts/token/ERC20/ERC20.sol\":9111:9687  function _burn(address account, uint256 amount) internal virtual {... */\n      pop\n      pop\n      jump\t// out\n        /* \"@openzeppelin/contracts/token/ERC20/ERC20.sol\":11786:11907  function _beforeTokenTransfer(... */\n    tag_345:\n      pop\n      pop\n      pop\n      jump\t// out\n        /* \"@openzeppelin/contracts/token/ERC20/ERC20.sol\":12495:12615  function _afterTokenTransfer(... */\n    tag_352:\n      pop\n      pop\n      pop\n      jump\t// out\n        /* \"#utility.yul\":7:146   */\n    tag_388:\n        /* \"#utility.yul\":53:58   */\n      0x00\n        /* \"#utility.yul\":91:97   */\n      dup2\n        /* \"#utility.yul\":78:98   */\n      calldataload\n        /* \"#utility.yul\":69:98   */\n      swap1\n      pop\n        /* \"#utility.yul\":107:140   */\n      tag_390\n        /* \"#utility.yul\":134:139   */\n      dup2\n        /* \"#utility.yul\":107:140   */\n      tag_391\n      jump\t// in\n    tag_390:\n        /* \"#utility.yul\":7:146   */\n      swap3\n      swap2\n      pop\n      pop\n      jump\t// out\n        /* \"#utility.yul\":152:295   */\n    tag_392:\n        /* \"#utility.yul\":209:214   */\n      0x00\n        /* \"#utility.yul\":240:246   */\n      dup2\n        /* \"#utility.yul\":234:247   */\n      mload\n        /* \"#utility.yul\":225:247   */\n      swap1\n      pop\n        /* \"#utility.yul\":256:289   */\n      tag_394\n        /* \"#utility.yul\":283:288   */\n      dup2\n        /* \"#utility.yul\":256:289   */\n      tag_391\n      jump\t// in\n    tag_394:\n        /* \"#utility.yul\":152:295   */\n      swap3\n      swap2\n      pop\n      pop\n      jump\t// out\n        /* \"#utility.yul\":301:438   */\n    tag_395:\n        /* \"#utility.yul\":355:360   */\n      0x00\n        /* \"#utility.yul\":386:392   */\n      dup2\n        /* \"#utility.yul\":380:393   */\n      mload\n        /* \"#utility.yul\":371:393   */\n      swap1\n      pop\n        /* \"#utility.yul\":402:432   */\n      tag_397\n        /* \"#utility.yul\":426:431   */\n      dup2\n        /* \"#utility.yul\":402:432   */\n      tag_398\n      jump\t// in\n    tag_397:\n        /* \"#utility.yul\":301:438   */\n      swap3\n      swap2\n      pop\n      pop\n      jump\t// out\n        /* \"#utility.yul\":444:583   */\n    tag_399:\n        /* \"#utility.yul\":490:495   */\n      0x00\n        /* \"#utility.yul\":528:534   */\n      dup2\n        /* \"#utility.yul\":515:535   */\n      calldataload\n        /* \"#utility.yul\":506:535   */\n      swap1\n      pop\n        /* \"#utility.yul\":544:577   */\n      tag_401\n        /* \"#utility.yul\":571:576   */\n      dup2\n        /* \"#utility.yul\":544:577   */\n      tag_402\n      jump\t// in\n    tag_401:\n        /* \"#utility.yul\":444:583   */\n      swap3\n      swap2\n      pop\n      pop\n      jump\t// out\n        /* \"#utility.yul\":589:732   */\n    tag_403:\n        /* \"#utility.yul\":646:651   */\n      0x00\n        /* \"#utility.yul\":677:683   */\n      dup2\n        /* \"#utility.yul\":671:684   */\n      mload\n        /* \"#utility.yul\":662:684   */\n      swap1\n      pop\n        /* \"#utility.yul\":693:726   */\n      tag_405\n        /* \"#utility.yul\":720:725   */\n      dup2\n        /* \"#utility.yul\":693:726   */\n      tag_402\n      jump\t// in\n    tag_405:\n        /* \"#utility.yul\":589:732   */\n      swap3\n      swap2\n      pop\n      pop\n      jump\t// out\n        /* \"#utility.yul\":738:1067   */\n    tag_92:\n        /* \"#utility.yul\":797:803   */\n      0x00\n        /* \"#utility.yul\":846:848   */\n      0x20\n        /* \"#utility.yul\":834:843   */\n      dup3\n        /* \"#utility.yul\":825:832   */\n      dup5\n        /* \"#utility.yul\":821:844   */\n      sub\n        /* \"#utility.yul\":817:849   */\n      slt\n        /* \"#utility.yul\":814:933   */\n      iszero\n      tag_407\n      jumpi\n        /* \"#utility.yul\":852:931   */\n      tag_408\n      tag_409\n      jump\t// in\n    tag_408:\n        /* \"#utility.yul\":814:933   */\n    tag_407:\n        /* \"#utility.yul\":972:973   */\n      0x00\n        /* \"#utility.yul\":997:1050   */\n      tag_410\n        /* \"#utility.yul\":1042:1049   */\n      dup5\n        /* \"#utility.yul\":1033:1039   */\n      dup3\n        /* \"#utility.yul\":1022:1031   */\n      dup6\n        /* \"#utility.yul\":1018:1040   */\n      add\n        /* \"#utility.yul\":997:1050   */\n      tag_388\n      jump\t// in\n    tag_410:\n        /* \"#utility.yul\":987:1050   */\n      swap2\n      pop\n        /* \"#utility.yul\":943:1060   */\n      pop\n        /* \"#utility.yul\":738:1067   */\n      swap3\n      swap2\n      pop\n      pop\n      jump\t// out\n        /* \"#utility.yul\":1073:1424   */\n    tag_291:\n        /* \"#utility.yul\":1143:1149   */\n      0x00\n        /* \"#utility.yul\":1192:1194   */\n      0x20\n        /* \"#utility.yul\":1180:1189   */\n      dup3\n        /* \"#utility.yul\":1171:1178   */\n      dup5\n        /* \"#utility.yul\":1167:1190   */\n      sub\n        /* \"#utility.yul\":1163:1195   */\n      slt\n        /* \"#utility.yul\":1160:1279   */\n      iszero\n      tag_412\n      jumpi\n        /* \"#utility.yul\":1198:1277   */\n      tag_413\n      tag_409\n      jump\t// in\n    tag_413:\n        /* \"#utility.yul\":1160:1279   */\n    tag_412:\n        /* \"#utility.yul\":1318:1319   */\n      0x00\n        /* \"#utility.yul\":1343:1407   */\n      tag_414\n        /* \"#utility.yul\":1399:1406   */\n      dup5\n        /* \"#utility.yul\":1390:1396   */\n      dup3\n        /* \"#utility.yul\":1379:1388   */\n      dup6\n        /* \"#utility.yul\":1375:1397   */\n      add\n        /* \"#utility.yul\":1343:1407   */\n      tag_392\n      jump\t// in\n    tag_414:\n        /* \"#utility.yul\":1333:1407   */\n      swap2\n      pop\n        /* \"#utility.yul\":1289:1417   */\n      pop\n        /* \"#utility.yul\":1073:1424   */\n      swap3\n      swap2\n      pop\n      pop\n      jump\t// out\n        /* \"#utility.yul\":1430:1904   */\n    tag_126:\n        /* \"#utility.yul\":1498:1504   */\n      0x00\n        /* \"#utility.yul\":1506:1512   */\n      dup1\n        /* \"#utility.yul\":1555:1557   */\n      0x40\n        /* \"#utility.yul\":1543:1552   */\n      dup4\n        /* \"#utility.yul\":1534:1541   */\n      dup6\n        /* \"#utility.yul\":1530:1553   */\n      sub\n        /* \"#utility.yul\":1526:1558   */\n      slt\n        /* \"#utility.yul\":1523:1642   */\n      iszero\n      tag_416\n      jumpi\n        /* \"#utility.yul\":1561:1640   */\n      tag_417\n      tag_409\n      jump\t// in\n    tag_417:\n        /* \"#utility.yul\":1523:1642   */\n    tag_416:\n        /* \"#utility.yul\":1681:1682   */\n      0x00\n        /* \"#utility.yul\":1706:1759   */\n      tag_418\n        /* \"#utility.yul\":1751:1758   */\n      dup6\n        /* \"#utility.yul\":1742:1748   */\n      dup3\n        /* \"#utility.yul\":1731:1740   */\n      dup7\n        /* \"#utility.yul\":1727:1749   */\n      add\n        /* \"#utility.yul\":1706:1759   */\n      tag_388\n      jump\t// in\n    tag_418:\n        /* \"#utility.yul\":1696:1759   */\n      swap3\n      pop\n        /* \"#utility.yul\":1652:1769   */\n      pop\n        /* \"#utility.yul\":1808:1810   */\n      0x20\n        /* \"#utility.yul\":1834:1887   */\n      tag_419\n        /* \"#utility.yul\":1879:1886   */\n      dup6\n        /* \"#utility.yul\":1870:1876   */\n      dup3\n        /* \"#utility.yul\":1859:1868   */\n      dup7\n        /* \"#utility.yul\":1855:1877   */\n      add\n        /* \"#utility.yul\":1834:1887   */\n      tag_388\n      jump\t// in\n    tag_419:\n        /* \"#utility.yul\":1824:1887   */\n      swap2\n      pop\n        /* \"#utility.yul\":1779:1897   */\n      pop\n        /* \"#utility.yul\":1430:1904   */\n      swap3\n      pop\n      swap3\n      swap1\n      pop\n      jump\t// out\n        /* \"#utility.yul\":1910:2529   */\n    tag_58:\n        /* \"#utility.yul\":1987:1993   */\n      0x00\n        /* \"#utility.yul\":1995:2001   */\n      dup1\n        /* \"#utility.yul\":2003:2009   */\n      0x00\n        /* \"#utility.yul\":2052:2054   */\n      0x60\n        /* \"#utility.yul\":2040:2049   */\n      dup5\n        /* \"#utility.yul\":2031:2038   */\n      dup7\n        /* \"#utility.yul\":2027:2050   */\n      sub\n        /* \"#utility.yul\":2023:2055   */\n      slt\n        /* \"#utility.yul\":2020:2139   */\n      iszero\n      tag_421\n      jumpi\n        /* \"#utility.yul\":2058:2137   */\n      tag_422\n      tag_409\n      jump\t// in\n    tag_422:\n        /* \"#utility.yul\":2020:2139   */\n    tag_421:\n        /* \"#utility.yul\":2178:2179   */\n      0x00\n        /* \"#utility.yul\":2203:2256   */\n      tag_423\n        /* \"#utility.yul\":2248:2255   */\n      dup7\n        /* \"#utility.yul\":2239:2245   */\n      dup3\n        /* \"#utility.yul\":2228:2237   */\n      dup8\n        /* \"#utility.yul\":2224:2246   */\n      add\n        /* \"#utility.yul\":2203:2256   */\n      tag_388\n      jump\t// in\n    tag_423:\n        /* \"#utility.yul\":2193:2256   */\n      swap4\n      pop\n        /* \"#utility.yul\":2149:2266   */\n      pop\n        /* \"#utility.yul\":2305:2307   */\n      0x20\n        /* \"#utility.yul\":2331:2384   */\n      tag_424\n        /* \"#utility.yul\":2376:2383   */\n      dup7\n        /* \"#utility.yul\":2367:2373   */\n      dup3\n        /* \"#utility.yul\":2356:2365   */\n      dup8\n        /* \"#utility.yul\":2352:2374   */\n      add\n        /* \"#utility.yul\":2331:2384   */\n      tag_388\n      jump\t// in\n    tag_424:\n        /* \"#utility.yul\":2321:2384   */\n      swap3\n      pop\n        /* \"#utility.yul\":2276:2394   */\n      pop\n        /* \"#utility.yul\":2433:2435   */\n      0x40\n        /* \"#utility.yul\":2459:2512   */\n      tag_425\n        /* \"#utility.yul\":2504:2511   */\n      dup7\n        /* \"#utility.yul\":2495:2501   */\n      dup3\n        /* \"#utility.yul\":2484:2493   */\n      dup8\n        /* \"#utility.yul\":2480:2502   */\n      add\n        /* \"#utility.yul\":2459:2512   */\n      tag_399\n      jump\t// in\n    tag_425:\n        /* \"#utility.yul\":2449:2512   */\n      swap2\n      pop\n        /* \"#utility.yul\":2404:2522   */\n      pop\n        /* \"#utility.yul\":1910:2529   */\n      swap3\n      pop\n      swap3\n      pop\n      swap3\n      jump\t// out\n        /* \"#utility.yul\":2535:3009   */\n    tag_40:\n        /* \"#utility.yul\":2603:2609   */\n      0x00\n        /* \"#utility.yul\":2611:2617   */\n      dup1\n        /* \"#utility.yul\":2660:2662   */\n      0x40\n        /* \"#utility.yul\":2648:2657   */\n      dup4\n        /* \"#utility.yul\":2639:2646   */\n      dup6\n        /* \"#utility.yul\":2635:2658   */\n      sub\n        /* \"#utility.yul\":2631:2663   */\n      slt\n        /* \"#utility.yul\":2628:2747   */\n      iszero\n      tag_427\n      jumpi\n        /* \"#utility.yul\":2666:2745   */\n      tag_428\n      tag_409\n      jump\t// in\n    tag_428:\n        /* \"#utility.yul\":2628:2747   */\n    tag_427:\n        /* \"#utility.yul\":2786:2787   */\n      0x00\n        /* \"#utility.yul\":2811:2864   */\n      tag_429\n        /* \"#utility.yul\":2856:2863   */\n      dup6\n        /* \"#utility.yul\":2847:2853   */\n      dup3\n        /* \"#utility.yul\":2836:2845   */\n      dup7\n        /* \"#utility.yul\":2832:2854   */\n      add\n        /* \"#utility.yul\":2811:2864   */\n      tag_388\n      jump\t// in\n    tag_429:\n        /* \"#utility.yul\":2801:2864   */\n      swap3\n      pop\n        /* \"#utility.yul\":2757:2874   */\n      pop\n        /* \"#utility.yul\":2913:2915   */\n      0x20\n        /* \"#utility.yul\":2939:2992   */\n      tag_430\n        /* \"#utility.yul\":2984:2991   */\n      dup6\n        /* \"#utility.yul\":2975:2981   */\n      dup3\n        /* \"#utility.yul\":2964:2973   */\n      dup7\n        /* \"#utility.yul\":2960:2982   */\n      add\n        /* \"#utility.yul\":2939:2992   */\n      tag_399\n      jump\t// in\n    tag_430:\n        /* \"#utility.yul\":2929:2992   */\n      swap2\n      pop\n        /* \"#utility.yul\":2884:3002   */\n      pop\n        /* \"#utility.yul\":2535:3009   */\n      swap3\n      pop\n      swap3\n      swap1\n      pop\n      jump\t// out\n        /* \"#utility.yul\":3015:3360   */\n    tag_194:\n        /* \"#utility.yul\":3082:3088   */\n      0x00\n        /* \"#utility.yul\":3131:3133   */\n      0x20\n        /* \"#utility.yul\":3119:3128   */\n      dup3\n        /* \"#utility.yul\":3110:3117   */\n      dup5\n        /* \"#utility.yul\":3106:3129   */\n      sub\n        /* \"#utility.yul\":3102:3134   */\n      slt\n        /* \"#utility.yul\":3099:3218   */\n      iszero\n      tag_432\n      jumpi\n        /* \"#utility.yul\":3137:3216   */\n      tag_433\n      tag_409\n      jump\t// in\n    tag_433:\n        /* \"#utility.yul\":3099:3218   */\n    tag_432:\n        /* \"#utility.yul\":3257:3258   */\n      0x00\n        /* \"#utility.yul\":3282:3343   */\n      tag_434\n        /* \"#utility.yul\":3335:3342   */\n      dup5\n        /* \"#utility.yul\":3326:3332   */\n      dup3\n        /* \"#utility.yul\":3315:3324   */\n      dup6\n        /* \"#utility.yul\":3311:3333   */\n      add\n        /* \"#utility.yul\":3282:3343   */\n      tag_395\n      jump\t// in\n    tag_434:\n        /* \"#utility.yul\":3272:3343   */\n      swap2\n      pop\n        /* \"#utility.yul\":3228:3353   */\n      pop\n        /* \"#utility.yul\":3015:3360   */\n      swap3\n      swap2\n      pop\n      pop\n      jump\t// out\n        /* \"#utility.yul\":3366:3695   */\n    tag_47:\n        /* \"#utility.yul\":3425:3431   */\n      0x00\n        /* \"#utility.yul\":3474:3476   */\n      0x20\n        /* \"#utility.yul\":3462:3471   */\n      dup3\n        /* \"#utility.yul\":3453:3460   */\n      dup5\n        /* \"#utility.yul\":3449:3472   */\n      sub\n        /* \"#utility.yul\":3445:3477   */\n      slt\n        /* \"#utility.yul\":3442:3561   */\n      iszero\n      tag_436\n      jumpi\n        /* \"#utility.yul\":3480:3559   */\n      tag_437\n      tag_409\n      jump\t// in\n    tag_437:\n        /* \"#utility.yul\":3442:3561   */\n    tag_436:\n        /* \"#utility.yul\":3600:3601   */\n      0x00\n        /* \"#utility.yul\":3625:3678   */\n      tag_438\n        /* \"#utility.yul\":3670:3677   */\n      dup5\n        /* \"#utility.yul\":3661:3667   */\n      dup3\n        /* \"#utility.yul\":3650:3659   */\n      dup6\n        /* \"#utility.yul\":3646:3668   */\n      add\n        /* \"#utility.yul\":3625:3678   */\n      tag_399\n      jump\t// in\n    tag_438:\n        /* \"#utility.yul\":3615:3678   */\n      swap2\n      pop\n        /* \"#utility.yul\":3571:3688   */\n      pop\n        /* \"#utility.yul\":3366:3695   */\n      swap3\n      swap2\n      pop\n      pop\n      jump\t// out\n        /* \"#utility.yul\":3701:4052   */\n    tag_150:\n        /* \"#utility.yul\":3771:3777   */\n      0x00\n        /* \"#utility.yul\":3820:3822   */\n      0x20\n        /* \"#utility.yul\":3808:3817   */\n      dup3\n        /* \"#utility.yul\":3799:3806   */\n      dup5\n        /* \"#utility.yul\":3795:3818   */\n      sub\n        /* \"#utility.yul\":3791:3823   */\n      slt\n        /* \"#utility.yul\":3788:3907   */\n      iszero\n      tag_440\n      jumpi\n        /* \"#utility.yul\":3826:3905   */\n      tag_441\n      tag_409\n      jump\t// in\n    tag_441:\n        /* \"#utility.yul\":3788:3907   */\n    tag_440:\n        /* \"#utility.yul\":3946:3947   */\n      0x00\n        /* \"#utility.yul\":3971:4035   */\n      tag_442\n        /* \"#utility.yul\":4027:4034   */\n      dup5\n        /* \"#utility.yul\":4018:4024   */\n      dup3\n        /* \"#utility.yul\":4007:4016   */\n      dup6\n        /* \"#utility.yul\":4003:4025   */\n      add\n        /* \"#utility.yul\":3971:4035   */\n      tag_403\n      jump\t// in\n    tag_442:\n        /* \"#utility.yul\":3961:4035   */\n      swap2\n      pop\n        /* \"#utility.yul\":3917:4045   */\n      pop\n        /* \"#utility.yul\":3701:4052   */\n      swap3\n      swap2\n      pop\n      pop\n      jump\t// out\n        /* \"#utility.yul\":4058:4532   */\n    tag_73:\n        /* \"#utility.yul\":4126:4132   */\n      0x00\n        /* \"#utility.yul\":4134:4140   */\n      dup1\n        /* \"#utility.yul\":4183:4185   */\n      0x40\n        /* \"#utility.yul\":4171:4180   */\n      dup4\n        /* \"#utility.yul\":4162:4169   */\n      dup6\n        /* \"#utility.yul\":4158:4181   */\n      sub\n        /* \"#utility.yul\":4154:4186   */\n      slt\n        /* \"#utility.yul\":4151:4270   */\n      iszero\n      tag_444\n      jumpi\n        /* \"#utility.yul\":4189:4268   */\n      tag_445\n      tag_409\n      jump\t// in\n    tag_445:\n        /* \"#utility.yul\":4151:4270   */\n    tag_444:\n        /* \"#utility.yul\":4309:4310   */\n      0x00\n        /* \"#utility.yul\":4334:4387   */\n      tag_446\n        /* \"#utility.yul\":4379:4386   */\n      dup6\n        /* \"#utility.yul\":4370:4376   */\n      dup3\n        /* \"#utility.yul\":4359:4368   */\n      dup7\n        /* \"#utility.yul\":4355:4377   */\n      add\n        /* \"#utility.yul\":4334:4387   */\n      tag_399\n      jump\t// in\n    tag_446:\n        /* \"#utility.yul\":4324:4387   */\n      swap3\n      pop\n        /* \"#utility.yul\":4280:4397   */\n      pop\n        /* \"#utility.yul\":4436:4438   */\n      0x20\n        /* \"#utility.yul\":4462:4515   */\n      tag_447\n        /* \"#utility.yul\":4507:4514   */\n      dup6\n        /* \"#utility.yul\":4498:4504   */\n      dup3\n        /* \"#utility.yul\":4487:4496   */\n      dup7\n        /* \"#utility.yul\":4483:4505   */\n      add\n        /* \"#utility.yul\":4462:4515   */\n      tag_388\n      jump\t// in\n    tag_447:\n        /* \"#utility.yul\":4452:4515   */\n      swap2\n      pop\n        /* \"#utility.yul\":4407:4525   */\n      pop\n        /* \"#utility.yul\":4058:4532   */\n      swap3\n      pop\n      swap3\n      swap1\n      pop\n      jump\t// out\n        /* \"#utility.yul\":4538:5012   */\n    tag_87:\n        /* \"#utility.yul\":4606:4612   */\n      0x00\n        /* \"#utility.yul\":4614:4620   */\n      dup1\n        /* \"#utility.yul\":4663:4665   */\n      0x40\n        /* \"#utility.yul\":4651:4660   */\n      dup4\n        /* \"#utility.yul\":4642:4649   */\n      dup6\n        /* \"#utility.yul\":4638:4661   */\n      sub\n        /* \"#utility.yul\":4634:4666   */\n      slt\n        /* \"#utility.yul\":4631:4750   */\n      iszero\n      tag_449\n      jumpi\n        /* \"#utility.yul\":4669:4748   */\n      tag_450\n      tag_409\n      jump\t// in\n    tag_450:\n        /* \"#utility.yul\":4631:4750   */\n    tag_449:\n        /* \"#utility.yul\":4789:4790   */\n      0x00\n        /* \"#utility.yul\":4814:4867   */\n      tag_451\n        /* \"#utility.yul\":4859:4866   */\n      dup6\n        /* \"#utility.yul\":4850:4856   */\n      dup3\n        /* \"#utility.yul\":4839:4848   */\n      dup7\n        /* \"#utility.yul\":4835:4857   */\n      add\n        /* \"#utility.yul\":4814:4867   */\n      tag_399\n      jump\t// in\n    tag_451:\n        /* \"#utility.yul\":4804:4867   */\n      swap3\n      pop\n        /* \"#utility.yul\":4760:4877   */\n      pop\n        /* \"#utility.yul\":4916:4918   */\n      0x20\n        /* \"#utility.yul\":4942:4995   */\n      tag_452\n        /* \"#utility.yul\":4987:4994   */\n      dup6\n        /* \"#utility.yul\":4978:4984   */\n      dup3\n        /* \"#utility.yul\":4967:4976   */\n      dup7\n        /* \"#utility.yul\":4963:4985   */\n      add\n        /* \"#utility.yul\":4942:4995   */\n      tag_399\n      jump\t// in\n    tag_452:\n        /* \"#utility.yul\":4932:4995   */\n      swap2\n      pop\n        /* \"#utility.yul\":4887:5005   */\n      pop\n        /* \"#utility.yul\":4538:5012   */\n      swap3\n      pop\n      swap3\n      swap1\n      pop\n      jump\t// out\n        /* \"#utility.yul\":5018:5637   */\n    tag_132:\n        /* \"#utility.yul\":5095:5101   */\n      0x00\n        /* \"#utility.yul\":5103:5109   */\n      dup1\n        /* \"#utility.yul\":5111:5117   */\n      0x00\n        /* \"#utility.yul\":5160:5162   */\n      0x60\n        /* \"#utility.yul\":5148:5157   */\n      dup5\n        /* \"#utility.yul\":5139:5146   */\n      dup7\n        /* \"#utility.yul\":5135:5158   */\n      sub\n        /* \"#utility.yul\":5131:5163   */\n      slt\n        /* \"#utility.yul\":5128:5247   */\n      iszero\n      tag_454\n      jumpi\n        /* \"#utility.yul\":5166:5245   */\n      tag_455\n      tag_409\n      jump\t// in\n    tag_455:\n        /* \"#utility.yul\":5128:5247   */\n    tag_454:\n        /* \"#utility.yul\":5286:5287   */\n      0x00\n        /* \"#utility.yul\":5311:5364   */\n      tag_456\n        /* \"#utility.yul\":5356:5363   */\n      dup7\n        /* \"#utility.yul\":5347:5353   */\n      dup3\n        /* \"#utility.yul\":5336:5345   */\n      dup8\n        /* \"#utility.yul\":5332:5354   */\n      add\n        /* \"#utility.yul\":5311:5364   */\n      tag_399\n      jump\t// in\n    tag_456:\n        /* \"#utility.yul\":5301:5364   */\n      swap4\n      pop\n        /* \"#utility.yul\":5257:5374   */\n      pop\n        /* \"#utility.yul\":5413:5415   */\n      0x20\n        /* \"#utility.yul\":5439:5492   */\n      tag_457\n        /* \"#utility.yul\":5484:5491   */\n      dup7\n        /* \"#utility.yul\":5475:5481   */\n      dup3\n        /* \"#utility.yul\":5464:5473   */\n      dup8\n        /* \"#utility.yul\":5460:5482   */\n      add\n        /* \"#utility.yul\":5439:5492   */\n      tag_399\n      jump\t// in\n    tag_457:\n        /* \"#utility.yul\":5429:5492   */\n      swap3\n      pop\n        /* \"#utility.yul\":5384:5502   */\n      pop\n        /* \"#utility.yul\":5541:5543   */\n      0x40\n        /* \"#utility.yul\":5567:5620   */\n      tag_458\n        /* \"#utility.yul\":5612:5619   */\n      dup7\n        /* \"#utility.yul\":5603:5609   */\n      dup3\n        /* \"#utility.yul\":5592:5601   */\n      dup8\n        /* \"#utility.yul\":5588:5610   */\n      add\n        /* \"#utility.yul\":5567:5620   */\n      tag_388\n      jump\t// in\n    tag_458:\n        /* \"#utility.yul\":5557:5620   */\n      swap2\n      pop\n        /* \"#utility.yul\":5512:5630   */\n      pop\n        /* \"#utility.yul\":5018:5637   */\n      swap3\n      pop\n      swap3\n      pop\n      swap3\n      jump\t// out\n        /* \"#utility.yul\":5643:5761   */\n    tag_459:\n        /* \"#utility.yul\":5730:5754   */\n      tag_461\n        /* \"#utility.yul\":5748:5753   */\n      dup2\n        /* \"#utility.yul\":5730:5754   */\n      tag_462\n      jump\t// in\n    tag_461:\n        /* \"#utility.yul\":5725:5728   */\n      dup3\n        /* \"#utility.yul\":5718:5755   */\n      mstore\n        /* \"#utility.yul\":5643:5761   */\n      pop\n      pop\n      jump\t// out\n        /* \"#utility.yul\":5767:5876   */\n    tag_463:\n        /* \"#utility.yul\":5848:5869   */\n      tag_465\n        /* \"#utility.yul\":5863:5868   */\n      dup2\n        /* \"#utility.yul\":5848:5869   */\n      tag_466\n      jump\t// in\n    tag_465:\n        /* \"#utility.yul\":5843:5846   */\n      dup3\n        /* \"#utility.yul\":5836:5870   */\n      mstore\n        /* \"#utility.yul\":5767:5876   */\n      pop\n      pop\n      jump\t// out\n        /* \"#utility.yul\":5882:6246   */\n    tag_467:\n        /* \"#utility.yul\":5970:5973   */\n      0x00\n        /* \"#utility.yul\":5998:6037   */\n      tag_469\n        /* \"#utility.yul\":6031:6036   */\n      dup3\n        /* \"#utility.yul\":5998:6037   */\n      tag_470\n      jump\t// in\n    tag_469:\n        /* \"#utility.yul\":6053:6124   */\n      tag_471\n        /* \"#utility.yul\":6117:6123   */\n      dup2\n        /* \"#utility.yul\":6112:6115   */\n      dup6\n        /* \"#utility.yul\":6053:6124   */\n      tag_472\n      jump\t// in\n    tag_471:\n        /* \"#utility.yul\":6046:6124   */\n      swap4\n      pop\n        /* \"#utility.yul\":6133:6185   */\n      tag_473\n        /* \"#utility.yul\":6178:6184   */\n      dup2\n        /* \"#utility.yul\":6173:6176   */\n      dup6\n        /* \"#utility.yul\":6166:6170   */\n      0x20\n        /* \"#utility.yul\":6159:6164   */\n      dup7\n        /* \"#utility.yul\":6155:6171   */\n      add\n        /* \"#utility.yul\":6133:6185   */\n      tag_474\n      jump\t// in\n    tag_473:\n        /* \"#utility.yul\":6210:6239   */\n      tag_475\n        /* \"#utility.yul\":6232:6238   */\n      dup2\n        /* \"#utility.yul\":6210:6239   */\n      tag_476\n      jump\t// in\n    tag_475:\n        /* \"#utility.yul\":6205:6208   */\n      dup5\n        /* \"#utility.yul\":6201:6240   */\n      add\n        /* \"#utility.yul\":6194:6240   */\n      swap2\n      pop\n        /* \"#utility.yul\":5974:6246   */\n      pop\n        /* \"#utility.yul\":5882:6246   */\n      swap3\n      swap2\n      pop\n      pop\n      jump\t// out\n        /* \"#utility.yul\":6252:6618   */\n    tag_477:\n        /* \"#utility.yul\":6394:6397   */\n      0x00\n        /* \"#utility.yul\":6415:6482   */\n      tag_479\n        /* \"#utility.yul\":6479:6481   */\n      0x23\n        /* \"#utility.yul\":6474:6477   */\n      dup4\n        /* \"#utility.yul\":6415:6482   */\n      tag_472\n      jump\t// in\n    tag_479:\n        /* \"#utility.yul\":6408:6482   */\n      swap2\n      pop\n        /* \"#utility.yul\":6491:6584   */\n      tag_480\n        /* \"#utility.yul\":6580:6583   */\n      dup3\n        /* \"#utility.yul\":6491:6584   */\n      tag_481\n      jump\t// in\n    tag_480:\n        /* \"#utility.yul\":6609:6611   */\n      0x40\n        /* \"#utility.yul\":6604:6607   */\n      dup3\n        /* \"#utility.yul\":6600:6612   */\n      add\n        /* \"#utility.yul\":6593:6612   */\n      swap1\n      pop\n        /* \"#utility.yul\":6252:6618   */\n      swap2\n      swap1\n      pop\n      jump\t// out\n        /* \"#utility.yul\":6624:6990   */\n    tag_482:\n        /* \"#utility.yul\":6766:6769   */\n      0x00\n        /* \"#utility.yul\":6787:6854   */\n      tag_484\n        /* \"#utility.yul\":6851:6853   */\n      0x22\n        /* \"#utility.yul\":6846:6849   */\n      dup4\n        /* \"#utility.yul\":6787:6854   */\n      tag_472\n      jump\t// in\n    tag_484:\n        /* \"#utility.yul\":6780:6854   */\n      swap2\n      pop\n        /* \"#utility.yul\":6863:6956   */\n      tag_485\n        /* \"#utility.yul\":6952:6955   */\n      dup3\n        /* \"#utility.yul\":6863:6956   */\n      tag_486\n      jump\t// in\n    tag_485:\n        /* \"#utility.yul\":6981:6983   */\n      0x40\n        /* \"#utility.yul\":6976:6979   */\n      dup3\n        /* \"#utility.yul\":6972:6984   */\n      add\n        /* \"#utility.yul\":6965:6984   */\n      swap1\n      pop\n        /* \"#utility.yul\":6624:6990   */\n      swap2\n      swap1\n      pop\n      jump\t// out\n        /* \"#utility.yul\":6996:7362   */\n    tag_487:\n        /* \"#utility.yul\":7138:7141   */\n      0x00\n        /* \"#utility.yul\":7159:7226   */\n      tag_489\n        /* \"#utility.yul\":7223:7225   */\n      0x22\n        /* \"#utility.yul\":7218:7221   */\n      dup4\n        /* \"#utility.yul\":7159:7226   */\n      tag_472\n      jump\t// in\n    tag_489:\n        /* \"#utility.yul\":7152:7226   */\n      swap2\n      pop\n        /* \"#utility.yul\":7235:7328   */\n      tag_490\n        /* \"#utility.yul\":7324:7327   */\n      dup3\n        /* \"#utility.yul\":7235:7328   */\n      tag_491\n      jump\t// in\n    tag_490:\n        /* \"#utility.yul\":7353:7355   */\n      0x40\n        /* \"#utility.yul\":7348:7351   */\n      dup3\n        /* \"#utility.yul\":7344:7356   */\n      add\n        /* \"#utility.yul\":7337:7356   */\n      swap1\n      pop\n        /* \"#utility.yul\":6996:7362   */\n      swap2\n      swap1\n      pop\n      jump\t// out\n        /* \"#utility.yul\":7368:7734   */\n    tag_492:\n        /* \"#utility.yul\":7510:7513   */\n      0x00\n        /* \"#utility.yul\":7531:7598   */\n      tag_494\n        /* \"#utility.yul\":7595:7597   */\n      0x29\n        /* \"#utility.yul\":7590:7593   */\n      dup4\n        /* \"#utility.yul\":7531:7598   */\n      tag_472\n      jump\t// in\n    tag_494:\n        /* \"#utility.yul\":7524:7598   */\n      swap2\n      pop\n        /* \"#utility.yul\":7607:7700   */\n      tag_495\n        /* \"#utility.yul\":7696:7699   */\n      dup3\n        /* \"#utility.yul\":7607:7700   */\n      tag_496\n      jump\t// in\n    tag_495:\n        /* \"#utility.yul\":7725:7727   */\n      0x40\n        /* \"#utility.yul\":7720:7723   */\n      dup3\n        /* \"#utility.yul\":7716:7728   */\n      add\n        /* \"#utility.yul\":7709:7728   */\n      swap1\n      pop\n        /* \"#utility.yul\":7368:7734   */\n      swap2\n      swap1\n      pop\n      jump\t// out\n        /* \"#utility.yul\":7740:8106   */\n    tag_497:\n        /* \"#utility.yul\":7882:7885   */\n      0x00\n        /* \"#utility.yul\":7903:7970   */\n      tag_499\n        /* \"#utility.yul\":7967:7969   */\n      0x1d\n        /* \"#utility.yul\":7962:7965   */\n      dup4\n        /* \"#utility.yul\":7903:7970   */\n      tag_472\n      jump\t// in\n    tag_499:\n        /* \"#utility.yul\":7896:7970   */\n      swap2\n      pop\n        /* \"#utility.yul\":7979:8072   */\n      tag_500\n        /* \"#utility.yul\":8068:8071   */\n      dup3\n        /* \"#utility.yul\":7979:8072   */\n      tag_501\n      jump\t// in\n    tag_500:\n        /* \"#utility.yul\":8097:8099   */\n      0x20\n        /* \"#utility.yul\":8092:8095   */\n      dup3\n        /* \"#utility.yul\":8088:8100   */\n      add\n        /* \"#utility.yul\":8081:8100   */\n      swap1\n      pop\n        /* \"#utility.yul\":7740:8106   */\n      swap2\n      swap1\n      pop\n      jump\t// out\n        /* \"#utility.yul\":8112:8478   */\n    tag_502:\n        /* \"#utility.yul\":8254:8257   */\n      0x00\n        /* \"#utility.yul\":8275:8342   */\n      tag_504\n        /* \"#utility.yul\":8339:8341   */\n      0x26\n        /* \"#utility.yul\":8334:8337   */\n      dup4\n        /* \"#utility.yul\":8275:8342   */\n      tag_472\n      jump\t// in\n    tag_504:\n        /* \"#utility.yul\":8268:8342   */\n      swap2\n      pop\n        /* \"#utility.yul\":8351:8444   */\n      tag_505\n        /* \"#utility.yul\":8440:8443   */\n      dup3\n        /* \"#utility.yul\":8351:8444   */\n      tag_506\n      jump\t// in\n    tag_505:\n        /* \"#utility.yul\":8469:8471   */\n      0x40\n        /* \"#utility.yul\":8464:8467   */\n      dup3\n        /* \"#utility.yul\":8460:8472   */\n      add\n        /* \"#utility.yul\":8453:8472   */\n      swap1\n      pop\n        /* \"#utility.yul\":8112:8478   */\n      swap2\n      swap1\n      pop\n      jump\t// out\n        /* \"#utility.yul\":8484:8850   */\n    tag_507:\n        /* \"#utility.yul\":8626:8629   */\n      0x00\n        /* \"#utility.yul\":8647:8714   */\n      tag_509\n        /* \"#utility.yul\":8711:8713   */\n      0x26\n        /* \"#utility.yul\":8706:8709   */\n      dup4\n        /* \"#utility.yul\":8647:8714   */\n      tag_472\n      jump\t// in\n    tag_509:\n        /* \"#utility.yul\":8640:8714   */\n      swap2\n      pop\n        /* \"#utility.yul\":8723:8816   */\n      tag_510\n        /* \"#utility.yul\":8812:8815   */\n      dup3\n        /* \"#utility.yul\":8723:8816   */\n      tag_511\n      jump\t// in\n    tag_510:\n        /* \"#utility.yul\":8841:8843   */\n      0x40\n        /* \"#utility.yul\":8836:8839   */\n      dup3\n        /* \"#utility.yul\":8832:8844   */\n      add\n        /* \"#utility.yul\":8825:8844   */\n      swap1\n      pop\n        /* \"#utility.yul\":8484:8850   */\n      swap2\n      swap1\n      pop\n      jump\t// out\n        /* \"#utility.yul\":8856:9222   */\n    tag_512:\n        /* \"#utility.yul\":8998:9001   */\n      0x00\n        /* \"#utility.yul\":9019:9086   */\n      tag_514\n        /* \"#utility.yul\":9083:9085   */\n      0x1a\n        /* \"#utility.yul\":9078:9081   */\n      dup4\n        /* \"#utility.yul\":9019:9086   */\n      tag_472\n      jump\t// in\n    tag_514:\n        /* \"#utility.yul\":9012:9086   */\n      swap2\n      pop\n        /* \"#utility.yul\":9095:9188   */\n      tag_515\n        /* \"#utility.yul\":9184:9187   */\n      dup3\n        /* \"#utility.yul\":9095:9188   */\n      tag_516\n      jump\t// in\n    tag_515:\n        /* \"#utility.yul\":9213:9215   */\n      0x20\n        /* \"#utility.yul\":9208:9211   */\n      dup3\n        /* \"#utility.yul\":9204:9216   */\n      add\n        /* \"#utility.yul\":9197:9216   */\n      swap1\n      pop\n        /* \"#utility.yul\":8856:9222   */\n      swap2\n      swap1\n      pop\n      jump\t// out\n        /* \"#utility.yul\":9228:9594   */\n    tag_517:\n        /* \"#utility.yul\":9370:9373   */\n      0x00\n        /* \"#utility.yul\":9391:9458   */\n      tag_519\n        /* \"#utility.yul\":9455:9457   */\n      0x17\n        /* \"#utility.yul\":9450:9453   */\n      dup4\n        /* \"#utility.yul\":9391:9458   */\n      tag_472\n      jump\t// in\n    tag_519:\n        /* \"#utility.yul\":9384:9458   */\n      swap2\n      pop\n        /* \"#utility.yul\":9467:9560   */\n      tag_520\n        /* \"#utility.yul\":9556:9559   */\n      dup3\n        /* \"#utility.yul\":9467:9560   */\n      tag_521\n      jump\t// in\n    tag_520:\n        /* \"#utility.yul\":9585:9587   */\n      0x20\n        /* \"#utility.yul\":9580:9583   */\n      dup3\n        /* \"#utility.yul\":9576:9588   */\n      add\n        /* \"#utility.yul\":9569:9588   */\n      swap1\n      pop\n        /* \"#utility.yul\":9228:9594   */\n      swap2\n      swap1\n      pop\n      jump\t// out\n        /* \"#utility.yul\":9600:9966   */\n    tag_522:\n        /* \"#utility.yul\":9742:9745   */\n      0x00\n        /* \"#utility.yul\":9763:9830   */\n      tag_524\n        /* \"#utility.yul\":9827:9829   */\n      0x43\n        /* \"#utility.yul\":9822:9825   */\n      dup4\n        /* \"#utility.yul\":9763:9830   */\n      tag_472\n      jump\t// in\n    tag_524:\n        /* \"#utility.yul\":9756:9830   */\n      swap2\n      pop\n        /* \"#utility.yul\":9839:9932   */\n      tag_525\n        /* \"#utility.yul\":9928:9931   */\n      dup3\n        /* \"#utility.yul\":9839:9932   */\n      tag_526\n      jump\t// in\n    tag_525:\n        /* \"#utility.yul\":9957:9959   */\n      0x60\n        /* \"#utility.yul\":9952:9955   */\n      dup3\n        /* \"#utility.yul\":9948:9960   */\n      add\n        /* \"#utility.yul\":9941:9960   */\n      swap1\n      pop\n        /* \"#utility.yul\":9600:9966   */\n      swap2\n      swap1\n      pop\n      jump\t// out\n        /* \"#utility.yul\":9972:10338   */\n    tag_527:\n        /* \"#utility.yul\":10114:10117   */\n      0x00\n        /* \"#utility.yul\":10135:10202   */\n      tag_529\n        /* \"#utility.yul\":10199:10201   */\n      0x1a\n        /* \"#utility.yul\":10194:10197   */\n      dup4\n        /* \"#utility.yul\":10135:10202   */\n      tag_472\n      jump\t// in\n    tag_529:\n        /* \"#utility.yul\":10128:10202   */\n      swap2\n      pop\n        /* \"#utility.yul\":10211:10304   */\n      tag_530\n        /* \"#utility.yul\":10300:10303   */\n      dup3\n        /* \"#utility.yul\":10211:10304   */\n      tag_531\n      jump\t// in\n    tag_530:\n        /* \"#utility.yul\":10329:10331   */\n      0x20\n        /* \"#utility.yul\":10324:10327   */\n      dup3\n        /* \"#utility.yul\":10320:10332   */\n      add\n        /* \"#utility.yul\":10313:10332   */\n      swap1\n      pop\n        /* \"#utility.yul\":9972:10338   */\n      swap2\n      swap1\n      pop\n      jump\t// out\n        /* \"#utility.yul\":10344:10710   */\n    tag_532:\n        /* \"#utility.yul\":10486:10489   */\n      0x00\n        /* \"#utility.yul\":10507:10574   */\n      tag_534\n        /* \"#utility.yul\":10571:10573   */\n      0x37\n        /* \"#utility.yul\":10566:10569   */\n      dup4\n        /* \"#utility.yul\":10507:10574   */\n      tag_472\n      jump\t// in\n    tag_534:\n        /* \"#utility.yul\":10500:10574   */\n      swap2\n      pop\n        /* \"#utility.yul\":10583:10676   */\n      tag_535\n        /* \"#utility.yul\":10672:10675   */\n      dup3\n        /* \"#utility.yul\":10583:10676   */\n      tag_536\n      jump\t// in\n    tag_535:\n        /* \"#utility.yul\":10701:10703   */\n      0x40\n        /* \"#utility.yul\":10696:10699   */\n      dup3\n        /* \"#utility.yul\":10692:10704   */\n      add\n        /* \"#utility.yul\":10685:10704   */\n      swap1\n      pop\n        /* \"#utility.yul\":10344:10710   */\n      swap2\n      swap1\n      pop\n      jump\t// out\n        /* \"#utility.yul\":10716:11082   */\n    tag_537:\n        /* \"#utility.yul\":10858:10861   */\n      0x00\n        /* \"#utility.yul\":10879:10946   */\n      tag_539\n        /* \"#utility.yul\":10943:10945   */\n      0x21\n        /* \"#utility.yul\":10938:10941   */\n      dup4\n        /* \"#utility.yul\":10879:10946   */\n      tag_472\n      jump\t// in\n    tag_539:\n        /* \"#utility.yul\":10872:10946   */\n      swap2\n      pop\n        /* \"#utility.yul\":10955:11048   */\n      tag_540\n        /* \"#utility.yul\":11044:11047   */\n      dup3\n        /* \"#utility.yul\":10955:11048   */\n      tag_541\n      jump\t// in\n    tag_540:\n        /* \"#utility.yul\":11073:11075   */\n      0x40\n        /* \"#utility.yul\":11068:11071   */\n      dup3\n        /* \"#utility.yul\":11064:11076   */\n      add\n        /* \"#utility.yul\":11057:11076   */\n      swap1\n      pop\n        /* \"#utility.yul\":10716:11082   */\n      swap2\n      swap1\n      pop\n      jump\t// out\n        /* \"#utility.yul\":11088:11454   */\n    tag_542:\n        /* \"#utility.yul\":11230:11233   */\n      0x00\n        /* \"#utility.yul\":11251:11318   */\n      tag_544\n        /* \"#utility.yul\":11315:11317   */\n      0x19\n        /* \"#utility.yul\":11310:11313   */\n      dup4\n        /* \"#utility.yul\":11251:11318   */\n      tag_472\n      jump\t// in\n    tag_544:\n        /* \"#utility.yul\":11244:11318   */\n      swap2\n      pop\n        /* \"#utility.yul\":11327:11420   */\n      tag_545\n        /* \"#utility.yul\":11416:11419   */\n      dup3\n        /* \"#utility.yul\":11327:11420   */\n      tag_546\n      jump\t// in\n    tag_545:\n        /* \"#utility.yul\":11445:11447   */\n      0x20\n        /* \"#utility.yul\":11440:11443   */\n      dup3\n        /* \"#utility.yul\":11436:11448   */\n      add\n        /* \"#utility.yul\":11429:11448   */\n      swap1\n      pop\n        /* \"#utility.yul\":11088:11454   */\n      swap2\n      swap1\n      pop\n      jump\t// out\n        /* \"#utility.yul\":11460:11826   */\n    tag_547:\n        /* \"#utility.yul\":11602:11605   */\n      0x00\n        /* \"#utility.yul\":11623:11690   */\n      tag_549\n        /* \"#utility.yul\":11687:11689   */\n      0x25\n        /* \"#utility.yul\":11682:11685   */\n      dup4\n        /* \"#utility.yul\":11623:11690   */\n      tag_472\n      jump\t// in\n    tag_549:\n        /* \"#utility.yul\":11616:11690   */\n      swap2\n      pop\n        /* \"#utility.yul\":11699:11792   */\n      tag_550\n        /* \"#utility.yul\":11788:11791   */\n      dup3\n        /* \"#utility.yul\":11699:11792   */\n      tag_551\n      jump\t// in\n    tag_550:\n        /* \"#utility.yul\":11817:11819   */\n      0x40\n        /* \"#utility.yul\":11812:11815   */\n      dup3\n        /* \"#utility.yul\":11808:11820   */\n      add\n        /* \"#utility.yul\":11801:11820   */\n      swap1\n      pop\n        /* \"#utility.yul\":11460:11826   */\n      swap2\n      swap1\n      pop\n      jump\t// out\n        /* \"#utility.yul\":11832:12198   */\n    tag_552:\n        /* \"#utility.yul\":11974:11977   */\n      0x00\n        /* \"#utility.yul\":11995:12062   */\n      tag_554\n        /* \"#utility.yul\":12059:12061   */\n      0x25\n        /* \"#utility.yul\":12054:12057   */\n      dup4\n        /* \"#utility.yul\":11995:12062   */\n      tag_472\n      jump\t// in\n    tag_554:\n        /* \"#utility.yul\":11988:12062   */\n      swap2\n      pop\n        /* \"#utility.yul\":12071:12164   */\n      tag_555\n        /* \"#utility.yul\":12160:12163   */\n      dup3\n        /* \"#utility.yul\":12071:12164   */\n      tag_556\n      jump\t// in\n    tag_555:\n        /* \"#utility.yul\":12189:12191   */\n      0x40\n        /* \"#utility.yul\":12184:12187   */\n      dup3\n        /* \"#utility.yul\":12180:12192   */\n      add\n        /* \"#utility.yul\":12173:12192   */\n      swap1\n      pop\n        /* \"#utility.yul\":11832:12198   */\n      swap2\n      swap1\n      pop\n      jump\t// out\n        /* \"#utility.yul\":12204:12602   */\n    tag_557:\n        /* \"#utility.yul\":12363:12366   */\n      0x00\n        /* \"#utility.yul\":12384:12467   */\n      tag_559\n        /* \"#utility.yul\":12465:12466   */\n      0x00\n        /* \"#utility.yul\":12460:12463   */\n      dup4\n        /* \"#utility.yul\":12384:12467   */\n      tag_560\n      jump\t// in\n    tag_559:\n        /* \"#utility.yul\":12377:12467   */\n      swap2\n      pop\n        /* \"#utility.yul\":12476:12569   */\n      tag_561\n        /* \"#utility.yul\":12565:12568   */\n      dup3\n        /* \"#utility.yul\":12476:12569   */\n      tag_562\n      jump\t// in\n    tag_561:\n        /* \"#utility.yul\":12594:12595   */\n      0x00\n        /* \"#utility.yul\":12589:12592   */\n      dup3\n        /* \"#utility.yul\":12585:12596   */\n      add\n        /* \"#utility.yul\":12578:12596   */\n      swap1\n      pop\n        /* \"#utility.yul\":12204:12602   */\n      swap2\n      swap1\n      pop\n      jump\t// out\n        /* \"#utility.yul\":12608:12974   */\n    tag_563:\n        /* \"#utility.yul\":12750:12753   */\n      0x00\n        /* \"#utility.yul\":12771:12838   */\n      tag_565\n        /* \"#utility.yul\":12835:12837   */\n      0x15\n        /* \"#utility.yul\":12830:12833   */\n      dup4\n        /* \"#utility.yul\":12771:12838   */\n      tag_472\n      jump\t// in\n    tag_565:\n        /* \"#utility.yul\":12764:12838   */\n      swap2\n      pop\n        /* \"#utility.yul\":12847:12940   */\n      tag_566\n        /* \"#utility.yul\":12936:12939   */\n      dup3\n        /* \"#utility.yul\":12847:12940   */\n      tag_567\n      jump\t// in\n    tag_566:\n        /* \"#utility.yul\":12965:12967   */\n      0x20\n        /* \"#utility.yul\":12960:12963   */\n      dup3\n        /* \"#utility.yul\":12956:12968   */\n      add\n        /* \"#utility.yul\":12949:12968   */\n      swap1\n      pop\n        /* \"#utility.yul\":12608:12974   */\n      swap2\n      swap1\n      pop\n      jump\t// out\n        /* \"#utility.yul\":12980:13346   */\n    tag_568:\n        /* \"#utility.yul\":13122:13125   */\n      0x00\n        /* \"#utility.yul\":13143:13210   */\n      tag_570\n        /* \"#utility.yul\":13207:13209   */\n      0x24\n        /* \"#utility.yul\":13202:13205   */\n      dup4\n        /* \"#utility.yul\":13143:13210   */\n      tag_472\n      jump\t// in\n    tag_570:\n        /* \"#utility.yul\":13136:13210   */\n      swap2\n      pop\n        /* \"#utility.yul\":13219:13312   */\n      tag_571\n        /* \"#utility.yul\":13308:13311   */\n      dup3\n        /* \"#utility.yul\":13219:13312   */\n      tag_572\n      jump\t// in\n    tag_571:\n        /* \"#utility.yul\":13337:13339   */\n      0x40\n        /* \"#utility.yul\":13332:13335   */\n      dup3\n        /* \"#utility.yul\":13328:13340   */\n      add\n        /* \"#utility.yul\":13321:13340   */\n      swap1\n      pop\n        /* \"#utility.yul\":12980:13346   */\n      swap2\n      swap1\n      pop\n      jump\t// out\n        /* \"#utility.yul\":13352:13718   */\n    tag_573:\n        /* \"#utility.yul\":13494:13497   */\n      0x00\n        /* \"#utility.yul\":13515:13582   */\n      tag_575\n        /* \"#utility.yul\":13579:13581   */\n      0x25\n        /* \"#utility.yul\":13574:13577   */\n      dup4\n        /* \"#utility.yul\":13515:13582   */\n      tag_472\n      jump\t// in\n    tag_575:\n        /* \"#utility.yul\":13508:13582   */\n      swap2\n      pop\n        /* \"#utility.yul\":13591:13684   */\n      tag_576\n        /* \"#utility.yul\":13680:13683   */\n      dup3\n        /* \"#utility.yul\":13591:13684   */\n      tag_577\n      jump\t// in\n    tag_576:\n        /* \"#utility.yul\":13709:13711   */\n      0x40\n        /* \"#utility.yul\":13704:13707   */\n      dup3\n        /* \"#utility.yul\":13700:13712   */\n      add\n        /* \"#utility.yul\":13693:13712   */\n      swap1\n      pop\n        /* \"#utility.yul\":13352:13718   */\n      swap2\n      swap1\n      pop\n      jump\t// out\n        /* \"#utility.yul\":13724:14090   */\n    tag_578:\n        /* \"#utility.yul\":13866:13869   */\n      0x00\n        /* \"#utility.yul\":13887:13954   */\n      tag_580\n        /* \"#utility.yul\":13951:13953   */\n      0x1f\n        /* \"#utility.yul\":13946:13949   */\n      dup4\n        /* \"#utility.yul\":13887:13954   */\n      tag_472\n      jump\t// in\n    tag_580:\n        /* \"#utility.yul\":13880:13954   */\n      swap2\n      pop\n        /* \"#utility.yul\":13963:14056   */\n      tag_581\n        /* \"#utility.yul\":14052:14055   */\n      dup3\n        /* \"#utility.yul\":13963:14056   */\n      tag_582\n      jump\t// in\n    tag_581:\n        /* \"#utility.yul\":14081:14083   */\n      0x20\n        /* \"#utility.yul\":14076:14079   */\n      dup3\n        /* \"#utility.yul\":14072:14084   */\n      add\n        /* \"#utility.yul\":14065:14084   */\n      swap1\n      pop\n        /* \"#utility.yul\":13724:14090   */\n      swap2\n      swap1\n      pop\n      jump\t// out\n        /* \"#utility.yul\":14096:14214   */\n    tag_583:\n        /* \"#utility.yul\":14183:14207   */\n      tag_585\n        /* \"#utility.yul\":14201:14206   */\n      dup2\n        /* \"#utility.yul\":14183:14207   */\n      tag_586\n      jump\t// in\n    tag_585:\n        /* \"#utility.yul\":14178:14181   */\n      dup3\n        /* \"#utility.yul\":14171:14208   */\n      mstore\n        /* \"#utility.yul\":14096:14214   */\n      pop\n      pop\n      jump\t// out\n        /* \"#utility.yul\":14220:14332   */\n    tag_587:\n        /* \"#utility.yul\":14303:14325   */\n      tag_589\n        /* \"#utility.yul\":14319:14324   */\n      dup2\n        /* \"#utility.yul\":14303:14325   */\n      tag_590\n      jump\t// in\n    tag_589:\n        /* \"#utility.yul\":14298:14301   */\n      dup3\n        /* \"#utility.yul\":14291:14326   */\n      mstore\n        /* \"#utility.yul\":14220:14332   */\n      pop\n      pop\n      jump\t// out\n        /* \"#utility.yul\":14338:14717   */\n    tag_227:\n        /* \"#utility.yul\":14522:14525   */\n      0x00\n        /* \"#utility.yul\":14544:14691   */\n      tag_592\n        /* \"#utility.yul\":14687:14690   */\n      dup3\n        /* \"#utility.yul\":14544:14691   */\n      tag_557\n      jump\t// in\n    tag_592:\n        /* \"#utility.yul\":14537:14691   */\n      swap2\n      pop\n        /* \"#utility.yul\":14708:14711   */\n      dup2\n        /* \"#utility.yul\":14701:14711   */\n      swap1\n      pop\n        /* \"#utility.yul\":14338:14717   */\n      swap2\n      swap1\n      pop\n      jump\t// out\n        /* \"#utility.yul\":14723:14945   */\n    tag_103:\n        /* \"#utility.yul\":14816:14820   */\n      0x00\n        /* \"#utility.yul\":14854:14856   */\n      0x20\n        /* \"#utility.yul\":14843:14852   */\n      dup3\n        /* \"#utility.yul\":14839:14857   */\n      add\n        /* \"#utility.yul\":14831:14857   */\n      swap1\n      pop\n        /* \"#utility.yul\":14867:14938   */\n      tag_594\n        /* \"#utility.yul\":14935:14936   */\n      0x00\n        /* \"#utility.yul\":14924:14933   */\n      dup4\n        /* \"#utility.yul\":14920:14937   */\n      add\n        /* \"#utility.yul\":14911:14917   */\n      dup5\n        /* \"#utility.yul\":14867:14938   */\n      tag_459\n      jump\t// in\n    tag_594:\n        /* \"#utility.yul\":14723:14945   */\n      swap3\n      swap2\n      pop\n      pop\n      jump\t// out\n        /* \"#utility.yul\":14951:15393   */\n    tag_189:\n        /* \"#utility.yul\":15100:15104   */\n      0x00\n        /* \"#utility.yul\":15138:15140   */\n      0x60\n        /* \"#utility.yul\":15127:15136   */\n      dup3\n        /* \"#utility.yul\":15123:15141   */\n      add\n        /* \"#utility.yul\":15115:15141   */\n      swap1\n      pop\n        /* \"#utility.yul\":15151:15222   */\n      tag_596\n        /* \"#utility.yul\":15219:15220   */\n      0x00\n        /* \"#utility.yul\":15208:15217   */\n      dup4\n        /* \"#utility.yul\":15204:15221   */\n      add\n        /* \"#utility.yul\":15195:15201   */\n      dup7\n        /* \"#utility.yul\":15151:15222   */\n      tag_459\n      jump\t// in\n    tag_596:\n        /* \"#utility.yul\":15232:15304   */\n      tag_597\n        /* \"#utility.yul\":15300:15302   */\n      0x20\n        /* \"#utility.yul\":15289:15298   */\n      dup4\n        /* \"#utility.yul\":15285:15303   */\n      add\n        /* \"#utility.yul\":15276:15282   */\n      dup6\n        /* \"#utility.yul\":15232:15304   */\n      tag_459\n      jump\t// in\n    tag_597:\n        /* \"#utility.yul\":15314:15386   */\n      tag_598\n        /* \"#utility.yul\":15382:15384   */\n      0x40\n        /* \"#utility.yul\":15371:15380   */\n      dup4\n        /* \"#utility.yul\":15367:15385   */\n      add\n        /* \"#utility.yul\":15358:15364   */\n      dup5\n        /* \"#utility.yul\":15314:15386   */\n      tag_583\n      jump\t// in\n    tag_598:\n        /* \"#utility.yul\":14951:15393   */\n      swap5\n      swap4\n      pop\n      pop\n      pop\n      pop\n      jump\t// out\n        /* \"#utility.yul\":15399:15731   */\n    tag_263:\n        /* \"#utility.yul\":15520:15524   */\n      0x00\n        /* \"#utility.yul\":15558:15560   */\n      0x40\n        /* \"#utility.yul\":15547:15556   */\n      dup3\n        /* \"#utility.yul\":15543:15561   */\n      add\n        /* \"#utility.yul\":15535:15561   */\n      swap1\n      pop\n        /* \"#utility.yul\":15571:15642   */\n      tag_600\n        /* \"#utility.yul\":15639:15640   */\n      0x00\n        /* \"#utility.yul\":15628:15637   */\n      dup4\n        /* \"#utility.yul\":15624:15641   */\n      add\n        /* \"#utility.yul\":15615:15621   */\n      dup6\n        /* \"#utility.yul\":15571:15642   */\n      tag_459\n      jump\t// in\n    tag_600:\n        /* \"#utility.yul\":15652:15724   */\n      tag_601\n        /* \"#utility.yul\":15720:15722   */\n      0x20\n        /* \"#utility.yul\":15709:15718   */\n      dup4\n        /* \"#utility.yul\":15705:15723   */\n      add\n        /* \"#utility.yul\":15696:15702   */\n      dup5\n        /* \"#utility.yul\":15652:15724   */\n      tag_583\n      jump\t// in\n    tag_601:\n        /* \"#utility.yul\":15399:15731   */\n      swap4\n      swap3\n      pop\n      pop\n      pop\n      jump\t// out\n        /* \"#utility.yul\":15737:15947   */\n    tag_43:\n        /* \"#utility.yul\":15824:15828   */\n      0x00\n        /* \"#utility.yul\":15862:15864   */\n      0x20\n        /* \"#utility.yul\":15851:15860   */\n      dup3\n        /* \"#utility.yul\":15847:15865   */\n      add\n        /* \"#utility.yul\":15839:15865   */\n      swap1\n      pop\n        /* \"#utility.yul\":15875:15940   */\n      tag_603\n        /* \"#utility.yul\":15937:15938   */\n      0x00\n        /* \"#utility.yul\":15926:15935   */\n      dup4\n        /* \"#utility.yul\":15922:15939   */\n      add\n        /* \"#utility.yul\":15913:15919   */\n      dup5\n        /* \"#utility.yul\":15875:15940   */\n      tag_463\n      jump\t// in\n    tag_603:\n        /* \"#utility.yul\":15737:15947   */\n      swap3\n      swap2\n      pop\n      pop\n      jump\t// out\n        /* \"#utility.yul\":15953:16266   */\n    tag_31:\n        /* \"#utility.yul\":16066:16070   */\n      0x00\n        /* \"#utility.yul\":16104:16106   */\n      0x20\n        /* \"#utility.yul\":16093:16102   */\n      dup3\n        /* \"#utility.yul\":16089:16107   */\n      add\n        /* \"#utility.yul\":16081:16107   */\n      swap1\n      pop\n        /* \"#utility.yul\":16153:16162   */\n      dup2\n        /* \"#utility.yul\":16147:16151   */\n      dup2\n        /* \"#utility.yul\":16143:16163   */\n      sub\n        /* \"#utility.yul\":16139:16140   */\n      0x00\n        /* \"#utility.yul\":16128:16137   */\n      dup4\n        /* \"#utility.yul\":16124:16141   */\n      add\n        /* \"#utility.yul\":16117:16164   */\n      mstore\n        /* \"#utility.yul\":16181:16259   */\n      tag_605\n        /* \"#utility.yul\":16254:16258   */\n      dup2\n        /* \"#utility.yul\":16245:16251   */\n      dup5\n        /* \"#utility.yul\":16181:16259   */\n      tag_467\n      jump\t// in\n    tag_605:\n        /* \"#utility.yul\":16173:16259   */\n      swap1\n      pop\n        /* \"#utility.yul\":15953:16266   */\n      swap3\n      swap2\n      pop\n      pop\n      jump\t// out\n        /* \"#utility.yul\":16272:16691   */\n    tag_343:\n        /* \"#utility.yul\":16438:16442   */\n      0x00\n        /* \"#utility.yul\":16476:16478   */\n      0x20\n        /* \"#utility.yul\":16465:16474   */\n      dup3\n        /* \"#utility.yul\":16461:16479   */\n      add\n        /* \"#utility.yul\":16453:16479   */\n      swap1\n      pop\n        /* \"#utility.yul\":16525:16534   */\n      dup2\n        /* \"#utility.yul\":16519:16523   */\n      dup2\n        /* \"#utility.yul\":16515:16535   */\n      sub\n        /* \"#utility.yul\":16511:16512   */\n      0x00\n        /* \"#utility.yul\":16500:16509   */\n      dup4\n        /* \"#utility.yul\":16496:16513   */\n      add\n        /* \"#utility.yul\":16489:16536   */\n      mstore\n        /* \"#utility.yul\":16553:16684   */\n      tag_607\n        /* \"#utility.yul\":16679:16683   */\n      dup2\n        /* \"#utility.yul\":16553:16684   */\n      tag_477\n      jump\t// in\n    tag_607:\n        /* \"#utility.yul\":16545:16684   */\n      swap1\n      pop\n        /* \"#utility.yul\":16272:16691   */\n      swap2\n      swap1\n      pop\n      jump\t// out\n        /* \"#utility.yul\":16697:17116   */\n    tag_381:\n        /* \"#utility.yul\":16863:16867   */\n      0x00\n        /* \"#utility.yul\":16901:16903   */\n      0x20\n        /* \"#utility.yul\":16890:16899   */\n      dup3\n        /* \"#utility.yul\":16886:16904   */\n      add\n        /* \"#utility.yul\":16878:16904   */\n      swap1\n      pop\n        /* \"#utility.yul\":16950:16959   */\n      dup2\n        /* \"#utility.yul\":16944:16948   */\n      dup2\n        /* \"#utility.yul\":16940:16960   */\n      sub\n        /* \"#utility.yul\":16936:16937   */\n      0x00\n        /* \"#utility.yul\":16925:16934   */\n      dup4\n        /* \"#utility.yul\":16921:16938   */\n      add\n        /* \"#utility.yul\":16914:16961   */\n      mstore\n        /* \"#utility.yul\":16978:17109   */\n      tag_609\n        /* \"#utility.yul\":17104:17108   */\n      dup2\n        /* \"#utility.yul\":16978:17109   */\n      tag_482\n      jump\t// in\n    tag_609:\n        /* \"#utility.yul\":16970:17109   */\n      swap1\n      pop\n        /* \"#utility.yul\":16697:17116   */\n      swap2\n      swap1\n      pop\n      jump\t// out\n        /* \"#utility.yul\":17122:17541   */\n    tag_317:\n        /* \"#utility.yul\":17288:17292   */\n      0x00\n        /* \"#utility.yul\":17326:17328   */\n      0x20\n        /* \"#utility.yul\":17315:17324   */\n      dup3\n        /* \"#utility.yul\":17311:17329   */\n      add\n        /* \"#utility.yul\":17303:17329   */\n      swap1\n      pop\n        /* \"#utility.yul\":17375:17384   */\n      dup2\n        /* \"#utility.yul\":17369:17373   */\n      dup2\n        /* \"#utility.yul\":17365:17385   */\n      sub\n        /* \"#utility.yul\":17361:17362   */\n      0x00\n        /* \"#utility.yul\":17350:17359   */\n      dup4\n        /* \"#utility.yul\":17346:17363   */\n      add\n        /* \"#utility.yul\":17339:17386   */\n      mstore\n        /* \"#utility.yul\":17403:17534   */\n      tag_611\n        /* \"#utility.yul\":17529:17533   */\n      dup2\n        /* \"#utility.yul\":17403:17534   */\n      tag_487\n      jump\t// in\n    tag_611:\n        /* \"#utility.yul\":17395:17534   */\n      swap1\n      pop\n        /* \"#utility.yul\":17122:17541   */\n      swap2\n      swap1\n      pop\n      jump\t// out\n        /* \"#utility.yul\":17547:17966   */\n    tag_204:\n        /* \"#utility.yul\":17713:17717   */\n      0x00\n        /* \"#utility.yul\":17751:17753   */\n      0x20\n        /* \"#utility.yul\":17740:17749   */\n      dup3\n        /* \"#utility.yul\":17736:17754   */\n      add\n        /* \"#utility.yul\":17728:17754   */\n      swap1\n      pop\n        /* \"#utility.yul\":17800:17809   */\n      dup2\n        /* \"#utility.yul\":17794:17798   */\n      dup2\n        /* \"#utility.yul\":17790:17810   */\n      sub\n        /* \"#utility.yul\":17786:17787   */\n      0x00\n        /* \"#utility.yul\":17775:17784   */\n      dup4\n        /* \"#utility.yul\":17771:17788   */\n      add\n        /* \"#utility.yul\":17764:17811   */\n      mstore\n        /* \"#utility.yul\":17828:17959   */\n      tag_613\n        /* \"#utility.yul\":17954:17958   */\n      dup2\n        /* \"#utility.yul\":17828:17959   */\n      tag_492\n      jump\t// in\n    tag_613:\n        /* \"#utility.yul\":17820:17959   */\n      swap1\n      pop\n        /* \"#utility.yul\":17547:17966   */\n      swap2\n      swap1\n      pop\n      jump\t// out\n        /* \"#utility.yul\":17972:18391   */\n    tag_335:\n        /* \"#utility.yul\":18138:18142   */\n      0x00\n        /* \"#utility.yul\":18176:18178   */\n      0x20\n        /* \"#utility.yul\":18165:18174   */\n      dup3\n        /* \"#utility.yul\":18161:18179   */\n      add\n        /* \"#utility.yul\":18153:18179   */\n      swap1\n      pop\n        /* \"#utility.yul\":18225:18234   */\n      dup2\n        /* \"#utility.yul\":18219:18223   */\n      dup2\n        /* \"#utility.yul\":18215:18235   */\n      sub\n        /* \"#utility.yul\":18211:18212   */\n      0x00\n        /* \"#utility.yul\":18200:18209   */\n      dup4\n        /* \"#utility.yul\":18196:18213   */\n      add\n        /* \"#utility.yul\":18189:18236   */\n      mstore\n        /* \"#utility.yul\":18253:18384   */\n      tag_615\n        /* \"#utility.yul\":18379:18383   */\n      dup2\n        /* \"#utility.yul\":18253:18384   */\n      tag_497\n      jump\t// in\n    tag_615:\n        /* \"#utility.yul\":18245:18384   */\n      swap1\n      pop\n        /* \"#utility.yul\":17972:18391   */\n      swap2\n      swap1\n      pop\n      jump\t// out\n        /* \"#utility.yul\":18397:18816   */\n    tag_348:\n        /* \"#utility.yul\":18563:18567   */\n      0x00\n        /* \"#utility.yul\":18601:18603   */\n      0x20\n        /* \"#utility.yul\":18590:18599   */\n      dup3\n        /* \"#utility.yul\":18586:18604   */\n      add\n        /* \"#utility.yul\":18578:18604   */\n      swap1\n      pop\n        /* \"#utility.yul\":18650:18659   */\n      dup2\n        /* \"#utility.yul\":18644:18648   */\n      dup2\n        /* \"#utility.yul\":18640:18660   */\n      sub\n        /* \"#utility.yul\":18636:18637   */\n      0x00\n        /* \"#utility.yul\":18625:18634   */\n      dup4\n        /* \"#utility.yul\":18621:18638   */\n      add\n        /* \"#utility.yul\":18614:18661   */\n      mstore\n        /* \"#utility.yul\":18678:18809   */\n      tag_617\n        /* \"#utility.yul\":18804:18808   */\n      dup2\n        /* \"#utility.yul\":18678:18809   */\n      tag_502\n      jump\t// in\n    tag_617:\n        /* \"#utility.yul\":18670:18809   */\n      swap1\n      pop\n        /* \"#utility.yul\":18397:18816   */\n      swap2\n      swap1\n      pop\n      jump\t// out\n        /* \"#utility.yul\":18822:19241   */\n    tag_233:\n        /* \"#utility.yul\":18988:18992   */\n      0x00\n        /* \"#utility.yul\":19026:19028   */\n      0x20\n        /* \"#utility.yul\":19015:19024   */\n      dup3\n        /* \"#utility.yul\":19011:19029   */\n      add\n        /* \"#utility.yul\":19003:19029   */\n      swap1\n      pop\n        /* \"#utility.yul\":19075:19084   */\n      dup2\n        /* \"#utility.yul\":19069:19073   */\n      dup2\n        /* \"#utility.yul\":19065:19085   */\n      sub\n        /* \"#utility.yul\":19061:19062   */\n      0x00\n        /* \"#utility.yul\":19050:19059   */\n      dup4\n        /* \"#utility.yul\":19046:19063   */\n      add\n        /* \"#utility.yul\":19039:19086   */\n      mstore\n        /* \"#utility.yul\":19103:19234   */\n      tag_619\n        /* \"#utility.yul\":19229:19233   */\n      dup2\n        /* \"#utility.yul\":19103:19234   */\n      tag_507\n      jump\t// in\n    tag_619:\n        /* \"#utility.yul\":19095:19234   */\n      swap1\n      pop\n        /* \"#utility.yul\":18822:19241   */\n      swap2\n      swap1\n      pop\n      jump\t// out\n        /* \"#utility.yul\":19247:19666   */\n    tag_285:\n        /* \"#utility.yul\":19413:19417   */\n      0x00\n        /* \"#utility.yul\":19451:19453   */\n      0x20\n        /* \"#utility.yul\":19440:19449   */\n      dup3\n        /* \"#utility.yul\":19436:19454   */\n      add\n        /* \"#utility.yul\":19428:19454   */\n      swap1\n      pop\n        /* \"#utility.yul\":19500:19509   */\n      dup2\n        /* \"#utility.yul\":19494:19498   */\n      dup2\n        /* \"#utility.yul\":19490:19510   */\n      sub\n        /* \"#utility.yul\":19486:19487   */\n      0x00\n        /* \"#utility.yul\":19475:19484   */\n      dup4\n        /* \"#utility.yul\":19471:19488   */\n      add\n        /* \"#utility.yul\":19464:19511   */\n      mstore\n        /* \"#utility.yul\":19528:19659   */\n      tag_621\n        /* \"#utility.yul\":19654:19658   */\n      dup2\n        /* \"#utility.yul\":19528:19659   */\n      tag_512\n      jump\t// in\n    tag_621:\n        /* \"#utility.yul\":19520:19659   */\n      swap1\n      pop\n        /* \"#utility.yul\":19247:19666   */\n      swap2\n      swap1\n      pop\n      jump\t// out\n        /* \"#utility.yul\":19672:20091   */\n    tag_282:\n        /* \"#utility.yul\":19838:19842   */\n      0x00\n        /* \"#utility.yul\":19876:19878   */\n      0x20\n        /* \"#utility.yul\":19865:19874   */\n      dup3\n        /* \"#utility.yul\":19861:19879   */\n      add\n        /* \"#utility.yul\":19853:19879   */\n      swap1\n      pop\n        /* \"#utility.yul\":19925:19934   */\n      dup2\n        /* \"#utility.yul\":19919:19923   */\n      dup2\n        /* \"#utility.yul\":19915:19935   */\n      sub\n        /* \"#utility.yul\":19911:19912   */\n      0x00\n        /* \"#utility.yul\":19900:19909   */\n      dup4\n        /* \"#utility.yul\":19896:19913   */\n      add\n        /* \"#utility.yul\":19889:19936   */\n      mstore\n        /* \"#utility.yul\":19953:20084   */\n      tag_623\n        /* \"#utility.yul\":20079:20083   */\n      dup2\n        /* \"#utility.yul\":19953:20084   */\n      tag_517\n      jump\t// in\n    tag_623:\n        /* \"#utility.yul\":19945:20084   */\n      swap1\n      pop\n        /* \"#utility.yul\":19672:20091   */\n      swap2\n      swap1\n      pop\n      jump\t// out\n        /* \"#utility.yul\":20097:20516   */\n    tag_220:\n        /* \"#utility.yul\":20263:20267   */\n      0x00\n        /* \"#utility.yul\":20301:20303   */\n      0x20\n        /* \"#utility.yul\":20290:20299   */\n      dup3\n        /* \"#utility.yul\":20286:20304   */\n      add\n        /* \"#utility.yul\":20278:20304   */\n      swap1\n      pop\n        /* \"#utility.yul\":20350:20359   */\n      dup2\n        /* \"#utility.yul\":20344:20348   */\n      dup2\n        /* \"#utility.yul\":20340:20360   */\n      sub\n        /* \"#utility.yul\":20336:20337   */\n      0x00\n        /* \"#utility.yul\":20325:20334   */\n      dup4\n        /* \"#utility.yul\":20321:20338   */\n      add\n        /* \"#utility.yul\":20314:20361   */\n      mstore\n        /* \"#utility.yul\":20378:20509   */\n      tag_625\n        /* \"#utility.yul\":20504:20508   */\n      dup2\n        /* \"#utility.yul\":20378:20509   */\n      tag_522\n      jump\t// in\n    tag_625:\n        /* \"#utility.yul\":20370:20509   */\n      swap1\n      pop\n        /* \"#utility.yul\":20097:20516   */\n      swap2\n      swap1\n      pop\n      jump\t// out\n        /* \"#utility.yul\":20522:20941   */\n    tag_295:\n        /* \"#utility.yul\":20688:20692   */\n      0x00\n        /* \"#utility.yul\":20726:20728   */\n      0x20\n        /* \"#utility.yul\":20715:20724   */\n      dup3\n        /* \"#utility.yul\":20711:20729   */\n      add\n        /* \"#utility.yul\":20703:20729   */\n      swap1\n      pop\n        /* \"#utility.yul\":20775:20784   */\n      dup2\n        /* \"#utility.yul\":20769:20773   */\n      dup2\n        /* \"#utility.yul\":20765:20785   */\n      sub\n        /* \"#utility.yul\":20761:20762   */\n      0x00\n        /* \"#utility.yul\":20750:20759   */\n      dup4\n        /* \"#utility.yul\":20746:20763   */\n      add\n        /* \"#utility.yul\":20739:20786   */\n      mstore\n        /* \"#utility.yul\":20803:20934   */\n      tag_627\n        /* \"#utility.yul\":20929:20933   */\n      dup2\n        /* \"#utility.yul\":20803:20934   */\n      tag_527\n      jump\t// in\n    tag_627:\n        /* \"#utility.yul\":20795:20934   */\n      swap1\n      pop\n        /* \"#utility.yul\":20522:20941   */\n      swap2\n      swap1\n      pop\n      jump\t// out\n        /* \"#utility.yul\":20947:21366   */\n    tag_245:\n        /* \"#utility.yul\":21113:21117   */\n      0x00\n        /* \"#utility.yul\":21151:21153   */\n      0x20\n        /* \"#utility.yul\":21140:21149   */\n      dup3\n        /* \"#utility.yul\":21136:21154   */\n      add\n        /* \"#utility.yul\":21128:21154   */\n      swap1\n      pop\n        /* \"#utility.yul\":21200:21209   */\n      dup2\n        /* \"#utility.yul\":21194:21198   */\n      dup2\n        /* \"#utility.yul\":21190:21210   */\n      sub\n        /* \"#utility.yul\":21186:21187   */\n      0x00\n        /* \"#utility.yul\":21175:21184   */\n      dup4\n        /* \"#utility.yul\":21171:21188   */\n      add\n        /* \"#utility.yul\":21164:21211   */\n      mstore\n        /* \"#utility.yul\":21228:21359   */\n      tag_629\n        /* \"#utility.yul\":21354:21358   */\n      dup2\n        /* \"#utility.yul\":21228:21359   */\n      tag_532\n      jump\t// in\n    tag_629:\n        /* \"#utility.yul\":21220:21359   */\n      swap1\n      pop\n        /* \"#utility.yul\":20947:21366   */\n      swap2\n      swap1\n      pop\n      jump\t// out\n        /* \"#utility.yul\":21372:21791   */\n    tag_377:\n        /* \"#utility.yul\":21538:21542   */\n      0x00\n        /* \"#utility.yul\":21576:21578   */\n      0x20\n        /* \"#utility.yul\":21565:21574   */\n      dup3\n        /* \"#utility.yul\":21561:21579   */\n      add\n        /* \"#utility.yul\":21553:21579   */\n      swap1\n      pop\n        /* \"#utility.yul\":21625:21634   */\n      dup2\n        /* \"#utility.yul\":21619:21623   */\n      dup2\n        /* \"#utility.yul\":21615:21635   */\n      sub\n        /* \"#utility.yul\":21611:21612   */\n      0x00\n        /* \"#utility.yul\":21600:21609   */\n      dup4\n        /* \"#utility.yul\":21596:21613   */\n      add\n        /* \"#utility.yul\":21589:21636   */\n      mstore\n        /* \"#utility.yul\":21653:21784   */\n      tag_631\n        /* \"#utility.yul\":21779:21783   */\n      dup2\n        /* \"#utility.yul\":21653:21784   */\n      tag_537\n      jump\t// in\n    tag_631:\n        /* \"#utility.yul\":21645:21784   */\n      swap1\n      pop\n        /* \"#utility.yul\":21372:21791   */\n      swap2\n      swap1\n      pop\n      jump\t// out\n        /* \"#utility.yul\":21797:22216   */\n    tag_159:\n        /* \"#utility.yul\":21963:21967   */\n      0x00\n        /* \"#utility.yul\":22001:22003   */\n      0x20\n        /* \"#utility.yul\":21990:21999   */\n      dup3\n        /* \"#utility.yul\":21986:22004   */\n      add\n        /* \"#utility.yul\":21978:22004   */\n      swap1\n      pop\n        /* \"#utility.yul\":22050:22059   */\n      dup2\n        /* \"#utility.yul\":22044:22048   */\n      dup2\n        /* \"#utility.yul\":22040:22060   */\n      sub\n        /* \"#utility.yul\":22036:22037   */\n      0x00\n        /* \"#utility.yul\":22025:22034   */\n      dup4\n        /* \"#utility.yul\":22021:22038   */\n      add\n        /* \"#utility.yul\":22014:22061   */\n      mstore\n        /* \"#utility.yul\":22078:22209   */\n      tag_633\n        /* \"#utility.yul\":22204:22208   */\n      dup2\n        /* \"#utility.yul\":22078:22209   */\n      tag_542\n      jump\t// in\n    tag_633:\n        /* \"#utility.yul\":22070:22209   */\n      swap1\n      pop\n        /* \"#utility.yul\":21797:22216   */\n      swap2\n      swap1\n      pop\n      jump\t// out\n        /* \"#utility.yul\":22222:22641   */\n    tag_340:\n        /* \"#utility.yul\":22388:22392   */\n      0x00\n        /* \"#utility.yul\":22426:22428   */\n      0x20\n        /* \"#utility.yul\":22415:22424   */\n      dup3\n        /* \"#utility.yul\":22411:22429   */\n      add\n        /* \"#utility.yul\":22403:22429   */\n      swap1\n      pop\n        /* \"#utility.yul\":22475:22484   */\n      dup2\n        /* \"#utility.yul\":22469:22473   */\n      dup2\n        /* \"#utility.yul\":22465:22485   */\n      sub\n        /* \"#utility.yul\":22461:22462   */\n      0x00\n        /* \"#utility.yul\":22450:22459   */\n      dup4\n        /* \"#utility.yul\":22446:22463   */\n      add\n        /* \"#utility.yul\":22439:22486   */\n      mstore\n        /* \"#utility.yul\":22503:22634   */\n      tag_635\n        /* \"#utility.yul\":22629:22633   */\n      dup2\n        /* \"#utility.yul\":22503:22634   */\n      tag_547\n      jump\t// in\n    tag_635:\n        /* \"#utility.yul\":22495:22634   */\n      swap1\n      pop\n        /* \"#utility.yul\":22222:22641   */\n      swap2\n      swap1\n      pop\n      jump\t// out\n        /* \"#utility.yul\":22647:23066   */\n    tag_261:\n        /* \"#utility.yul\":22813:22817   */\n      0x00\n        /* \"#utility.yul\":22851:22853   */\n      0x20\n        /* \"#utility.yul\":22840:22849   */\n      dup3\n        /* \"#utility.yul\":22836:22854   */\n      add\n        /* \"#utility.yul\":22828:22854   */\n      swap1\n      pop\n        /* \"#utility.yul\":22900:22909   */\n      dup2\n        /* \"#utility.yul\":22894:22898   */\n      dup2\n        /* \"#utility.yul\":22890:22910   */\n      sub\n        /* \"#utility.yul\":22886:22887   */\n      0x00\n        /* \"#utility.yul\":22875:22884   */\n      dup4\n        /* \"#utility.yul\":22871:22888   */\n      add\n        /* \"#utility.yul\":22864:22911   */\n      mstore\n        /* \"#utility.yul\":22928:23059   */\n      tag_637\n        /* \"#utility.yul\":23054:23058   */\n      dup2\n        /* \"#utility.yul\":22928:23059   */\n      tag_552\n      jump\t// in\n    tag_637:\n        /* \"#utility.yul\":22920:23059   */\n      swap1\n      pop\n        /* \"#utility.yul\":22647:23066   */\n      swap2\n      swap1\n      pop\n      jump\t// out\n        /* \"#utility.yul\":23072:23491   */\n    tag_323:\n        /* \"#utility.yul\":23238:23242   */\n      0x00\n        /* \"#utility.yul\":23276:23278   */\n      0x20\n        /* \"#utility.yul\":23265:23274   */\n      dup3\n        /* \"#utility.yul\":23261:23279   */\n      add\n        /* \"#utility.yul\":23253:23279   */\n      swap1\n      pop\n        /* \"#utility.yul\":23325:23334   */\n      dup2\n        /* \"#utility.yul\":23319:23323   */\n      dup2\n        /* \"#utility.yul\":23315:23335   */\n      sub\n        /* \"#utility.yul\":23311:23312   */\n      0x00\n        /* \"#utility.yul\":23300:23309   */\n      dup4\n        /* \"#utility.yul\":23296:23313   */\n      add\n        /* \"#utility.yul\":23289:23336   */\n      mstore\n        /* \"#utility.yul\":23353:23484   */\n      tag_639\n        /* \"#utility.yul\":23479:23483   */\n      dup2\n        /* \"#utility.yul\":23353:23484   */\n      tag_563\n      jump\t// in\n    tag_639:\n        /* \"#utility.yul\":23345:23484   */\n      swap1\n      pop\n        /* \"#utility.yul\":23072:23491   */\n      swap2\n      swap1\n      pop\n      jump\t// out\n        /* \"#utility.yul\":23497:23916   */\n    tag_314:\n        /* \"#utility.yul\":23663:23667   */\n      0x00\n        /* \"#utility.yul\":23701:23703   */\n      0x20\n        /* \"#utility.yul\":23690:23699   */\n      dup3\n        /* \"#utility.yul\":23686:23704   */\n      add\n        /* \"#utility.yul\":23678:23704   */\n      swap1\n      pop\n        /* \"#utility.yul\":23750:23759   */\n      dup2\n        /* \"#utility.yul\":23744:23748   */\n      dup2\n        /* \"#utility.yul\":23740:23760   */\n      sub\n        /* \"#utility.yul\":23736:23737   */\n      0x00\n        /* \"#utility.yul\":23725:23734   */\n      dup4\n        /* \"#utility.yul\":23721:23738   */\n      add\n        /* \"#utility.yul\":23714:23761   */\n      mstore\n        /* \"#utility.yul\":23778:23909   */\n      tag_641\n        /* \"#utility.yul\":23904:23908   */\n      dup2\n        /* \"#utility.yul\":23778:23909   */\n      tag_568\n      jump\t// in\n    tag_641:\n        /* \"#utility.yul\":23770:23909   */\n      swap1\n      pop\n        /* \"#utility.yul\":23497:23916   */\n      swap2\n      swap1\n      pop\n      jump\t// out\n        /* \"#utility.yul\":23922:24341   */\n    tag_273:\n        /* \"#utility.yul\":24088:24092   */\n      0x00\n        /* \"#utility.yul\":24126:24128   */\n      0x20\n        /* \"#utility.yul\":24115:24124   */\n      dup3\n        /* \"#utility.yul\":24111:24129   */\n      add\n        /* \"#utility.yul\":24103:24129   */\n      swap1\n      pop\n        /* \"#utility.yul\":24175:24184   */\n      dup2\n        /* \"#utility.yul\":24169:24173   */\n      dup2\n        /* \"#utility.yul\":24165:24185   */\n      sub\n        /* \"#utility.yul\":24161:24162   */\n      0x00\n        /* \"#utility.yul\":24150:24159   */\n      dup4\n        /* \"#utility.yul\":24146:24163   */\n      add\n        /* \"#utility.yul\":24139:24186   */\n      mstore\n        /* \"#utility.yul\":24203:24334   */\n      tag_643\n        /* \"#utility.yul\":24329:24333   */\n      dup2\n        /* \"#utility.yul\":24203:24334   */\n      tag_573\n      jump\t// in\n    tag_643:\n        /* \"#utility.yul\":24195:24334   */\n      swap1\n      pop\n        /* \"#utility.yul\":23922:24341   */\n      swap2\n      swap1\n      pop\n      jump\t// out\n        /* \"#utility.yul\":24347:24766   */\n    tag_368:\n        /* \"#utility.yul\":24513:24517   */\n      0x00\n        /* \"#utility.yul\":24551:24553   */\n      0x20\n        /* \"#utility.yul\":24540:24549   */\n      dup3\n        /* \"#utility.yul\":24536:24554   */\n      add\n        /* \"#utility.yul\":24528:24554   */\n      swap1\n      pop\n        /* \"#utility.yul\":24600:24609   */\n      dup2\n        /* \"#utility.yul\":24594:24598   */\n      dup2\n        /* \"#utility.yul\":24590:24610   */\n      sub\n        /* \"#utility.yul\":24586:24587   */\n      0x00\n        /* \"#utility.yul\":24575:24584   */\n      dup4\n        /* \"#utility.yul\":24571:24588   */\n      add\n        /* \"#utility.yul\":24564:24611   */\n      mstore\n        /* \"#utility.yul\":24628:24759   */\n      tag_645\n        /* \"#utility.yul\":24754:24758   */\n      dup2\n        /* \"#utility.yul\":24628:24759   */\n      tag_578\n      jump\t// in\n    tag_645:\n        /* \"#utility.yul\":24620:24759   */\n      swap1\n      pop\n        /* \"#utility.yul\":24347:24766   */\n      swap2\n      swap1\n      pop\n      jump\t// out\n        /* \"#utility.yul\":24772:24994   */\n    tag_50:\n        /* \"#utility.yul\":24865:24869   */\n      0x00\n        /* \"#utility.yul\":24903:24905   */\n      0x20\n        /* \"#utility.yul\":24892:24901   */\n      dup3\n        /* \"#utility.yul\":24888:24906   */\n      add\n        /* \"#utility.yul\":24880:24906   */\n      swap1\n      pop\n        /* \"#utility.yul\":24916:24987   */\n      tag_647\n        /* \"#utility.yul\":24984:24985   */\n      0x00\n        /* \"#utility.yul\":24973:24982   */\n      dup4\n        /* \"#utility.yul\":24969:24986   */\n      add\n        /* \"#utility.yul\":24960:24966   */\n      dup5\n        /* \"#utility.yul\":24916:24987   */\n      tag_583\n      jump\t// in\n    tag_647:\n        /* \"#utility.yul\":24772:24994   */\n      swap3\n      swap2\n      pop\n      pop\n      jump\t// out\n        /* \"#utility.yul\":25000:25332   */\n    tag_304:\n        /* \"#utility.yul\":25121:25125   */\n      0x00\n        /* \"#utility.yul\":25159:25161   */\n      0x40\n        /* \"#utility.yul\":25148:25157   */\n      dup3\n        /* \"#utility.yul\":25144:25162   */\n      add\n        /* \"#utility.yul\":25136:25162   */\n      swap1\n      pop\n        /* \"#utility.yul\":25172:25243   */\n      tag_649\n        /* \"#utility.yul\":25240:25241   */\n      0x00\n        /* \"#utility.yul\":25229:25238   */\n      dup4\n        /* \"#utility.yul\":25225:25242   */\n      add\n        /* \"#utility.yul\":25216:25222   */\n      dup6\n        /* \"#utility.yul\":25172:25243   */\n      tag_583\n      jump\t// in\n    tag_649:\n        /* \"#utility.yul\":25253:25325   */\n      tag_650\n        /* \"#utility.yul\":25321:25323   */\n      0x20\n        /* \"#utility.yul\":25310:25319   */\n      dup4\n        /* \"#utility.yul\":25306:25324   */\n      add\n        /* \"#utility.yul\":25297:25303   */\n      dup5\n        /* \"#utility.yul\":25253:25325   */\n      tag_459\n      jump\t// in\n    tag_650:\n        /* \"#utility.yul\":25000:25332   */\n      swap4\n      swap3\n      pop\n      pop\n      pop\n      jump\t// out\n        /* \"#utility.yul\":25338:25670   */\n    tag_36:\n        /* \"#utility.yul\":25459:25463   */\n      0x00\n        /* \"#utility.yul\":25497:25499   */\n      0x40\n        /* \"#utility.yul\":25486:25495   */\n      dup3\n        /* \"#utility.yul\":25482:25500   */\n      add\n        /* \"#utility.yul\":25474:25500   */\n      swap1\n      pop\n        /* \"#utility.yul\":25510:25581   */\n      tag_652\n        /* \"#utility.yul\":25578:25579   */\n      0x00\n        /* \"#utility.yul\":25567:25576   */\n      dup4\n        /* \"#utility.yul\":25563:25580   */\n      add\n        /* \"#utility.yul\":25554:25560   */\n      dup6\n        /* \"#utility.yul\":25510:25581   */\n      tag_583\n      jump\t// in\n    tag_652:\n        /* \"#utility.yul\":25591:25663   */\n      tag_653\n        /* \"#utility.yul\":25659:25661   */\n      0x20\n        /* \"#utility.yul\":25648:25657   */\n      dup4\n        /* \"#utility.yul\":25644:25662   */\n      add\n        /* \"#utility.yul\":25635:25641   */\n      dup5\n        /* \"#utility.yul\":25591:25663   */\n      tag_583\n      jump\t// in\n    tag_653:\n        /* \"#utility.yul\":25338:25670   */\n      swap4\n      swap3\n      pop\n      pop\n      pop\n      jump\t// out\n        /* \"#utility.yul\":25676:25890   */\n    tag_70:\n        /* \"#utility.yul\":25765:25769   */\n      0x00\n        /* \"#utility.yul\":25803:25805   */\n      0x20\n        /* \"#utility.yul\":25792:25801   */\n      dup3\n        /* \"#utility.yul\":25788:25806   */\n      add\n        /* \"#utility.yul\":25780:25806   */\n      swap1\n      pop\n        /* \"#utility.yul\":25816:25883   */\n      tag_655\n        /* \"#utility.yul\":25880:25881   */\n      0x00\n        /* \"#utility.yul\":25869:25878   */\n      dup4\n        /* \"#utility.yul\":25865:25882   */\n      add\n        /* \"#utility.yul\":25856:25862   */\n      dup5\n        /* \"#utility.yul\":25816:25883   */\n      tag_587\n      jump\t// in\n    tag_655:\n        /* \"#utility.yul\":25676:25890   */\n      swap3\n      swap2\n      pop\n      pop\n      jump\t// out\n        /* \"#utility.yul\":25977:26076   */\n    tag_470:\n        /* \"#utility.yul\":26029:26035   */\n      0x00\n        /* \"#utility.yul\":26063:26068   */\n      dup2\n        /* \"#utility.yul\":26057:26069   */\n      mload\n        /* \"#utility.yul\":26047:26069   */\n      swap1\n      pop\n        /* \"#utility.yul\":25977:26076   */\n      swap2\n      swap1\n      pop\n      jump\t// out\n        /* \"#utility.yul\":26082:26229   */\n    tag_560:\n        /* \"#utility.yul\":26183:26194   */\n      0x00\n        /* \"#utility.yul\":26220:26223   */\n      dup2\n        /* \"#utility.yul\":26205:26223   */\n      swap1\n      pop\n        /* \"#utility.yul\":26082:26229   */\n      swap3\n      swap2\n      pop\n      pop\n      jump\t// out\n        /* \"#utility.yul\":26235:26404   */\n    tag_472:\n        /* \"#utility.yul\":26319:26330   */\n      0x00\n        /* \"#utility.yul\":26353:26359   */\n      dup3\n        /* \"#utility.yul\":26348:26351   */\n      dup3\n        /* \"#utility.yul\":26341:26360   */\n      mstore\n        /* \"#utility.yul\":26393:26397   */\n      0x20\n        /* \"#utility.yul\":26388:26391   */\n      dup3\n        /* \"#utility.yul\":26384:26398   */\n      add\n        /* \"#utility.yul\":26369:26398   */\n      swap1\n      pop\n        /* \"#utility.yul\":26235:26404   */\n      swap3\n      swap2\n      pop\n      pop\n      jump\t// out\n        /* \"#utility.yul\":26410:26715   */\n    tag_184:\n        /* \"#utility.yul\":26450:26453   */\n      0x00\n        /* \"#utility.yul\":26469:26489   */\n      tag_662\n        /* \"#utility.yul\":26487:26488   */\n      dup3\n        /* \"#utility.yul\":26469:26489   */\n      tag_586\n      jump\t// in\n    tag_662:\n        /* \"#utility.yul\":26464:26489   */\n      swap2\n      pop\n        /* \"#utility.yul\":26503:26523   */\n      tag_663\n        /* \"#utility.yul\":26521:26522   */\n      dup4\n        /* \"#utility.yul\":26503:26523   */\n      tag_586\n      jump\t// in\n    tag_663:\n        /* \"#utility.yul\":26498:26523   */\n      swap3\n      pop\n        /* \"#utility.yul\":26657:26658   */\n      dup3\n        /* \"#utility.yul\":26589:26655   */\n      0xffffffffffffffffffffffffffffffffffffffffffffffffffffffffffffffff\n        /* \"#utility.yul\":26585:26659   */\n      sub\n        /* \"#utility.yul\":26582:26583   */\n      dup3\n        /* \"#utility.yul\":26579:26660   */\n      gt\n        /* \"#utility.yul\":26576:26683   */\n      iszero\n      tag_664\n      jumpi\n        /* \"#utility.yul\":26663:26681   */\n      tag_665\n      tag_666\n      jump\t// in\n    tag_665:\n        /* \"#utility.yul\":26576:26683   */\n    tag_664:\n        /* \"#utility.yul\":26707:26708   */\n      dup3\n        /* \"#utility.yul\":26704:26705   */\n      dup3\n        /* \"#utility.yul\":26700:26709   */\n      add\n        /* \"#utility.yul\":26693:26709   */\n      swap1\n      pop\n        /* \"#utility.yul\":26410:26715   */\n      swap3\n      swap2\n      pop\n      pop\n      jump\t// out\n        /* \"#utility.yul\":26721:26906   */\n    tag_201:\n        /* \"#utility.yul\":26761:26762   */\n      0x00\n        /* \"#utility.yul\":26778:26798   */\n      tag_668\n        /* \"#utility.yul\":26796:26797   */\n      dup3\n        /* \"#utility.yul\":26778:26798   */\n      tag_586\n      jump\t// in\n    tag_668:\n        /* \"#utility.yul\":26773:26798   */\n      swap2\n      pop\n        /* \"#utility.yul\":26812:26832   */\n      tag_669\n        /* \"#utility.yul\":26830:26831   */\n      dup4\n        /* \"#utility.yul\":26812:26832   */\n      tag_586\n      jump\t// in\n    tag_669:\n        /* \"#utility.yul\":26807:26832   */\n      swap3\n      pop\n        /* \"#utility.yul\":26851:26852   */\n      dup3\n        /* \"#utility.yul\":26841:26876   */\n      tag_670\n      jumpi\n        /* \"#utility.yul\":26856:26874   */\n      tag_671\n      tag_672\n      jump\t// in\n    tag_671:\n        /* \"#utility.yul\":26841:26876   */\n    tag_670:\n        /* \"#utility.yul\":26898:26899   */\n      dup3\n        /* \"#utility.yul\":26895:26896   */\n      dup3\n        /* \"#utility.yul\":26891:26900   */\n      div\n        /* \"#utility.yul\":26886:26900   */\n      swap1\n      pop\n        /* \"#utility.yul\":26721:26906   */\n      swap3\n      swap2\n      pop\n      pop\n      jump\t// out\n        /* \"#utility.yul\":26912:27260   */\n    tag_199:\n        /* \"#utility.yul\":26952:26959   */\n      0x00\n        /* \"#utility.yul\":26975:26995   */\n      tag_674\n        /* \"#utility.yul\":26993:26994   */\n      dup3\n        /* \"#utility.yul\":26975:26995   */\n      tag_586\n      jump\t// in\n    tag_674:\n        /* \"#utility.yul\":26970:26995   */\n      swap2\n      pop\n        /* \"#utility.yul\":27009:27029   */\n      tag_675\n        /* \"#utility.yul\":27027:27028   */\n      dup4\n        /* \"#utility.yul\":27009:27029   */\n      tag_586\n      jump\t// in\n    tag_675:\n        /* \"#utility.yul\":27004:27029   */\n      swap3\n      pop\n        /* \"#utility.yul\":27197:27198   */\n      dup2\n        /* \"#utility.yul\":27129:27195   */\n      0xffffffffffffffffffffffffffffffffffffffffffffffffffffffffffffffff\n        /* \"#utility.yul\":27125:27199   */\n      div\n        /* \"#utility.yul\":27122:27123   */\n      dup4\n        /* \"#utility.yul\":27119:27200   */\n      gt\n        /* \"#utility.yul\":27114:27115   */\n      dup3\n        /* \"#utility.yul\":27107:27116   */\n      iszero\n        /* \"#utility.yul\":27100:27117   */\n      iszero\n        /* \"#utility.yul\":27096:27201   */\n      and\n        /* \"#utility.yul\":27093:27224   */\n      iszero\n      tag_676\n      jumpi\n        /* \"#utility.yul\":27204:27222   */\n      tag_677\n      tag_666\n      jump\t// in\n    tag_677:\n        /* \"#utility.yul\":27093:27224   */\n    tag_676:\n        /* \"#utility.yul\":27252:27253   */\n      dup3\n        /* \"#utility.yul\":27249:27250   */\n      dup3\n        /* \"#utility.yul\":27245:27254   */\n      mul\n        /* \"#utility.yul\":27234:27254   */\n      swap1\n      pop\n        /* \"#utility.yul\":26912:27260   */\n      swap3\n      swap2\n      pop\n      pop\n      jump\t// out\n        /* \"#utility.yul\":27266:27457   */\n    tag_197:\n        /* \"#utility.yul\":27306:27310   */\n      0x00\n        /* \"#utility.yul\":27326:27346   */\n      tag_679\n        /* \"#utility.yul\":27344:27345   */\n      dup3\n        /* \"#utility.yul\":27326:27346   */\n      tag_586\n      jump\t// in\n    tag_679:\n        /* \"#utility.yul\":27321:27346   */\n      swap2\n      pop\n        /* \"#utility.yul\":27360:27380   */\n      tag_680\n        /* \"#utility.yul\":27378:27379   */\n      dup4\n        /* \"#utility.yul\":27360:27380   */\n      tag_586\n      jump\t// in\n    tag_680:\n        /* \"#utility.yul\":27355:27380   */\n      swap3\n      pop\n        /* \"#utility.yul\":27399:27400   */\n      dup3\n        /* \"#utility.yul\":27396:27397   */\n      dup3\n        /* \"#utility.yul\":27393:27401   */\n      lt\n        /* \"#utility.yul\":27390:27424   */\n      iszero\n      tag_681\n      jumpi\n        /* \"#utility.yul\":27404:27422   */\n      tag_682\n      tag_666\n      jump\t// in\n    tag_682:\n        /* \"#utility.yul\":27390:27424   */\n    tag_681:\n        /* \"#utility.yul\":27449:27450   */\n      dup3\n        /* \"#utility.yul\":27446:27447   */\n      dup3\n        /* \"#utility.yul\":27442:27451   */\n      sub\n        /* \"#utility.yul\":27434:27451   */\n      swap1\n      pop\n        /* \"#utility.yul\":27266:27457   */\n      swap3\n      swap2\n      pop\n      pop\n      jump\t// out\n        /* \"#utility.yul\":27463:27559   */\n    tag_462:\n        /* \"#utility.yul\":27500:27507   */\n      0x00\n        /* \"#utility.yul\":27529:27553   */\n      tag_684\n        /* \"#utility.yul\":27547:27552   */\n      dup3\n        /* \"#utility.yul\":27529:27553   */\n      tag_685\n      jump\t// in\n    tag_684:\n        /* \"#utility.yul\":27518:27553   */\n      swap1\n      pop\n        /* \"#utility.yul\":27463:27559   */\n      swap2\n      swap1\n      pop\n      jump\t// out\n        /* \"#utility.yul\":27565:27655   */\n    tag_466:\n        /* \"#utility.yul\":27599:27606   */\n      0x00\n        /* \"#utility.yul\":27642:27647   */\n      dup2\n        /* \"#utility.yul\":27635:27648   */\n      iszero\n        /* \"#utility.yul\":27628:27649   */\n      iszero\n        /* \"#utility.yul\":27617:27649   */\n      swap1\n      pop\n        /* \"#utility.yul\":27565:27655   */\n      swap2\n      swap1\n      pop\n      jump\t// out\n        /* \"#utility.yul\":27661:27787   */\n    tag_685:\n        /* \"#utility.yul\":27698:27705   */\n      0x00\n        /* \"#utility.yul\":27738:27780   */\n      0xffffffffffffffffffffffffffffffffffffffff\n        /* \"#utility.yul\":27731:27736   */\n      dup3\n        /* \"#utility.yul\":27727:27781   */\n      and\n        /* \"#utility.yul\":27716:27781   */\n      swap1\n      pop\n        /* \"#utility.yul\":27661:27787   */\n      swap2\n      swap1\n      pop\n      jump\t// out\n        /* \"#utility.yul\":27793:27870   */\n    tag_586:\n        /* \"#utility.yul\":27830:27837   */\n      0x00\n        /* \"#utility.yul\":27859:27864   */\n      dup2\n        /* \"#utility.yul\":27848:27864   */\n      swap1\n      pop\n        /* \"#utility.yul\":27793:27870   */\n      swap2\n      swap1\n      pop\n      jump\t// out\n        /* \"#utility.yul\":27876:27962   */\n    tag_590:\n        /* \"#utility.yul\":27911:27918   */\n      0x00\n        /* \"#utility.yul\":27951:27955   */\n      0xff\n        /* \"#utility.yul\":27944:27949   */\n      dup3\n        /* \"#utility.yul\":27940:27956   */\n      and\n        /* \"#utility.yul\":27929:27956   */\n      swap1\n      pop\n        /* \"#utility.yul\":27876:27962   */\n      swap2\n      swap1\n      pop\n      jump\t// out\n        /* \"#utility.yul\":27968:28275   */\n    tag_474:\n        /* \"#utility.yul\":28036:28037   */\n      0x00\n        /* \"#utility.yul\":28046:28159   */\n    tag_691:\n        /* \"#utility.yul\":28060:28066   */\n      dup4\n        /* \"#utility.yul\":28057:28058   */\n      dup2\n        /* \"#utility.yul\":28054:28067   */\n      lt\n        /* \"#utility.yul\":28046:28159   */\n      iszero\n      tag_693\n      jumpi\n        /* \"#utility.yul\":28145:28146   */\n      dup1\n        /* \"#utility.yul\":28140:28143   */\n      dup3\n        /* \"#utility.yul\":28136:28147   */\n      add\n        /* \"#utility.yul\":28130:28148   */\n      mload\n        /* \"#utility.yul\":28126:28127   */\n      dup2\n        /* \"#utility.yul\":28121:28124   */\n      dup5\n        /* \"#utility.yul\":28117:28128   */\n      add\n        /* \"#utility.yul\":28110:28149   */\n      mstore\n        /* \"#utility.yul\":28082:28084   */\n      0x20\n        /* \"#utility.yul\":28079:28080   */\n      dup2\n        /* \"#utility.yul\":28075:28085   */\n      add\n        /* \"#utility.yul\":28070:28085   */\n      swap1\n      pop\n        /* \"#utility.yul\":28046:28159   */\n      jump(tag_691)\n    tag_693:\n        /* \"#utility.yul\":28177:28183   */\n      dup4\n        /* \"#utility.yul\":28174:28175   */\n      dup2\n        /* \"#utility.yul\":28171:28184   */\n      gt\n        /* \"#utility.yul\":28168:28269   */\n      iszero\n      tag_694\n      jumpi\n        /* \"#utility.yul\":28257:28258   */\n      0x00\n        /* \"#utility.yul\":28248:28254   */\n      dup5\n        /* \"#utility.yul\":28243:28246   */\n      dup5\n        /* \"#utility.yul\":28239:28255   */\n      add\n        /* \"#utility.yul\":28232:28259   */\n      mstore\n        /* \"#utility.yul\":28168:28269   */\n    tag_694:\n        /* \"#utility.yul\":28017:28275   */\n      pop\n        /* \"#utility.yul\":27968:28275   */\n      pop\n      pop\n      pop\n      jump\t// out\n        /* \"#utility.yul\":28281:28601   */\n    tag_139:\n        /* \"#utility.yul\":28325:28331   */\n      0x00\n        /* \"#utility.yul\":28362:28363   */\n      0x02\n        /* \"#utility.yul\":28356:28360   */\n      dup3\n        /* \"#utility.yul\":28352:28364   */\n      div\n        /* \"#utility.yul\":28342:28364   */\n      swap1\n      pop\n        /* \"#utility.yul\":28409:28410   */\n      0x01\n        /* \"#utility.yul\":28403:28407   */\n      dup3\n        /* \"#utility.yul\":28399:28411   */\n      and\n        /* \"#utility.yul\":28430:28448   */\n      dup1\n        /* \"#utility.yul\":28420:28501   */\n      tag_696\n      jumpi\n        /* \"#utility.yul\":28486:28490   */\n      0x7f\n        /* \"#utility.yul\":28478:28484   */\n      dup3\n        /* \"#utility.yul\":28474:28491   */\n      and\n        /* \"#utility.yul\":28464:28491   */\n      swap2\n      pop\n        /* \"#utility.yul\":28420:28501   */\n    tag_696:\n        /* \"#utility.yul\":28548:28550   */\n      0x20\n        /* \"#utility.yul\":28540:28546   */\n      dup3\n        /* \"#utility.yul\":28537:28551   */\n      lt\n        /* \"#utility.yul\":28517:28535   */\n      dup2\n        /* \"#utility.yul\":28514:28552   */\n      eq\n        /* \"#utility.yul\":28511:28595   */\n      iszero\n      tag_697\n      jumpi\n        /* \"#utility.yul\":28567:28585   */\n      tag_698\n      tag_699\n      jump\t// in\n    tag_698:\n        /* \"#utility.yul\":28511:28595   */\n    tag_697:\n        /* \"#utility.yul\":28332:28601   */\n      pop\n        /* \"#utility.yul\":28281:28601   */\n      swap2\n      swap1\n      pop\n      jump\t// out\n        /* \"#utility.yul\":28607:28787   */\n    tag_666:\n        /* \"#utility.yul\":28655:28732   */\n      0x4e487b7100000000000000000000000000000000000000000000000000000000\n        /* \"#utility.yul\":28652:28653   */\n      0x00\n        /* \"#utility.yul\":28645:28733   */\n      mstore\n        /* \"#utility.yul\":28752:28756   */\n      0x11\n        /* \"#utility.yul\":28749:28750   */\n      0x04\n        /* \"#utility.yul\":28742:28757   */\n      mstore\n        /* \"#utility.yul\":28776:28780   */\n      0x24\n        /* \"#utility.yul\":28773:28774   */\n      0x00\n        /* \"#utility.yul\":28766:28781   */\n      revert\n        /* \"#utility.yul\":28793:28973   */\n    tag_672:\n        /* \"#utility.yul\":28841:28918   */\n      0x4e487b7100000000000000000000000000000000000000000000000000000000\n        /* \"#utility.yul\":28838:28839   */\n      0x00\n        /* \"#utility.yul\":28831:28919   */\n      mstore\n        /* \"#utility.yul\":28938:28942   */\n      0x12\n        /* \"#utility.yul\":28935:28936   */\n      0x04\n        /* \"#utility.yul\":28928:28943   */\n      mstore\n        /* \"#utility.yul\":28962:28966   */\n      0x24\n        /* \"#utility.yul\":28959:28960   */\n      0x00\n        /* \"#utility.yul\":28952:28967   */\n      revert\n        /* \"#utility.yul\":28979:29159   */\n    tag_699:\n        /* \"#utility.yul\":29027:29104   */\n      0x4e487b7100000000000000000000000000000000000000000000000000000000\n        /* \"#utility.yul\":29024:29025   */\n      0x00\n        /* \"#utility.yul\":29017:29105   */\n      mstore\n        /* \"#utility.yul\":29124:29128   */\n      0x22\n        /* \"#utility.yul\":29121:29122   */\n      0x04\n        /* \"#utility.yul\":29114:29129   */\n      mstore\n        /* \"#utility.yul\":29148:29152   */\n      0x24\n        /* \"#utility.yul\":29145:29146   */\n      0x00\n        /* \"#utility.yul\":29138:29153   */\n      revert\n        /* \"#utility.yul\":29288:29405   */\n    tag_409:\n        /* \"#utility.yul\":29397:29398   */\n      0x00\n        /* \"#utility.yul\":29394:29395   */\n      dup1\n        /* \"#utility.yul\":29387:29399   */\n      revert\n        /* \"#utility.yul\":29411:29513   */\n    tag_476:\n        /* \"#utility.yul\":29452:29458   */\n      0x00\n        /* \"#utility.yul\":29503:29505   */\n      0x1f\n        /* \"#utility.yul\":29499:29506   */\n      not\n        /* \"#utility.yul\":29494:29496   */\n      0x1f\n        /* \"#utility.yul\":29487:29492   */\n      dup4\n        /* \"#utility.yul\":29483:29497   */\n      add\n        /* \"#utility.yul\":29479:29507   */\n      and\n        /* \"#utility.yul\":29469:29507   */\n      swap1\n      pop\n        /* \"#utility.yul\":29411:29513   */\n      swap2\n      swap1\n      pop\n      jump\t// out\n        /* \"#utility.yul\":29519:29741   */\n    tag_481:\n        /* \"#utility.yul\":29659:29693   */\n      0x45524332303a207472616e7366657220746f20746865207a65726f2061646472\n        /* \"#utility.yul\":29655:29656   */\n      0x00\n        /* \"#utility.yul\":29647:29653   */\n      dup3\n        /* \"#utility.yul\":29643:29657   */\n      add\n        /* \"#utility.yul\":29636:29694   */\n      mstore\n        /* \"#utility.yul\":29728:29733   */\n      0x6573730000000000000000000000000000000000000000000000000000000000\n        /* \"#utility.yul\":29723:29725   */\n      0x20\n        /* \"#utility.yul\":29715:29721   */\n      dup3\n        /* \"#utility.yul\":29711:29726   */\n      add\n        /* \"#utility.yul\":29704:29734   */\n      mstore\n        /* \"#utility.yul\":29519:29741   */\n      pop\n      jump\t// out\n        /* \"#utility.yul\":29747:29968   */\n    tag_486:\n        /* \"#utility.yul\":29887:29921   */\n      0x45524332303a206275726e20616d6f756e7420657863656564732062616c616e\n        /* \"#utility.yul\":29883:29884   */\n      0x00\n        /* \"#utility.yul\":29875:29881   */\n      dup3\n        /* \"#utility.yul\":29871:29885   */\n      add\n        /* \"#utility.yul\":29864:29922   */\n      mstore\n        /* \"#utility.yul\":29956:29960   */\n      0x6365000000000000000000000000000000000000000000000000000000000000\n        /* \"#utility.yul\":29951:29953   */\n      0x20\n        /* \"#utility.yul\":29943:29949   */\n      dup3\n        /* \"#utility.yul\":29939:29954   */\n      add\n        /* \"#utility.yul\":29932:29961   */\n      mstore\n        /* \"#utility.yul\":29747:29968   */\n      pop\n      jump\t// out\n        /* \"#utility.yul\":29974:30195   */\n    tag_491:\n        /* \"#utility.yul\":30114:30148   */\n      0x45524332303a20617070726f766520746f20746865207a65726f206164647265\n        /* \"#utility.yul\":30110:30111   */\n      0x00\n        /* \"#utility.yul\":30102:30108   */\n      dup3\n        /* \"#utility.yul\":30098:30112   */\n      add\n        /* \"#utility.yul\":30091:30149   */\n      mstore\n        /* \"#utility.yul\":30183:30187   */\n      0x7373000000000000000000000000000000000000000000000000000000000000\n        /* \"#utility.yul\":30178:30180   */\n      0x20\n        /* \"#utility.yul\":30170:30176   */\n      dup3\n        /* \"#utility.yul\":30166:30181   */\n      add\n        /* \"#utility.yul\":30159:30188   */\n      mstore\n        /* \"#utility.yul\":29974:30195   */\n      pop\n      jump\t// out\n        /* \"#utility.yul\":30201:30429   */\n    tag_496:\n        /* \"#utility.yul\":30341:30375   */\n      0x496e73756666696369656e7420696e70757420616d6f756e74206f6620455243\n        /* \"#utility.yul\":30337:30338   */\n      0x00\n        /* \"#utility.yul\":30329:30335   */\n      dup3\n        /* \"#utility.yul\":30325:30339   */\n      add\n        /* \"#utility.yul\":30318:30376   */\n      mstore\n        /* \"#utility.yul\":30410:30421   */\n      0x323020546f6b656e730000000000000000000000000000000000000000000000\n        /* \"#utility.yul\":30405:30407   */\n      0x20\n        /* \"#utility.yul\":30397:30403   */\n      dup3\n        /* \"#utility.yul\":30393:30408   */\n      add\n        /* \"#utility.yul\":30386:30422   */\n      mstore\n        /* \"#utility.yul\":30201:30429   */\n      pop\n      jump\t// out\n        /* \"#utility.yul\":30435:30614   */\n    tag_501:\n        /* \"#utility.yul\":30575:30606   */\n      0x45524332303a20696e73756666696369656e7420616c6c6f77616e6365000000\n        /* \"#utility.yul\":30571:30572   */\n      0x00\n        /* \"#utility.yul\":30563:30569   */\n      dup3\n        /* \"#utility.yul\":30559:30573   */\n      add\n        /* \"#utility.yul\":30552:30607   */\n      mstore\n        /* \"#utility.yul\":30435:30614   */\n      pop\n      jump\t// out\n        /* \"#utility.yul\":30620:30845   */\n    tag_506:\n        /* \"#utility.yul\":30760:30794   */\n      0x45524332303a207472616e7366657220616d6f756e7420657863656564732062\n        /* \"#utility.yul\":30756:30757   */\n      0x00\n        /* \"#utility.yul\":30748:30754   */\n      dup3\n        /* \"#utility.yul\":30744:30758   */\n      add\n        /* \"#utility.yul\":30737:30795   */\n      mstore\n        /* \"#utility.yul\":30829:30837   */\n      0x616c616e63650000000000000000000000000000000000000000000000000000\n        /* \"#utility.yul\":30824:30826   */\n      0x20\n        /* \"#utility.yul\":30816:30822   */\n      dup3\n        /* \"#utility.yul\":30812:30827   */\n      add\n        /* \"#utility.yul\":30805:30838   */\n      mstore\n        /* \"#utility.yul\":30620:30845   */\n      pop\n      jump\t// out\n        /* \"#utility.yul\":30851:31076   */\n    tag_511:\n        /* \"#utility.yul\":30991:31025   */\n      0x5472616e73616374696f6e206f662045544820746f20726563697069656e7420\n        /* \"#utility.yul\":30987:30988   */\n      0x00\n        /* \"#utility.yul\":30979:30985   */\n      dup3\n        /* \"#utility.yul\":30975:30989   */\n      add\n        /* \"#utility.yul\":30968:31026   */\n      mstore\n        /* \"#utility.yul\":31060:31068   */\n      0x6661696c65640000000000000000000000000000000000000000000000000000\n        /* \"#utility.yul\":31055:31057   */\n      0x20\n        /* \"#utility.yul\":31047:31053   */\n      dup3\n        /* \"#utility.yul\":31043:31058   */\n      add\n        /* \"#utility.yul\":31036:31069   */\n      mstore\n        /* \"#utility.yul\":30851:31076   */\n      pop\n      jump\t// out\n        /* \"#utility.yul\":31082:31258   */\n    tag_516:\n        /* \"#utility.yul\":31222:31250   */\n      0x496e76616c696420696e70757420746f6b656e20616d6f756e74000000000000\n        /* \"#utility.yul\":31218:31219   */\n      0x00\n        /* \"#utility.yul\":31210:31216   */\n      dup3\n        /* \"#utility.yul\":31206:31220   */\n      add\n        /* \"#utility.yul\":31199:31251   */\n      mstore\n        /* \"#utility.yul\":31082:31258   */\n      pop\n      jump\t// out\n        /* \"#utility.yul\":31264:31437   */\n    tag_521:\n        /* \"#utility.yul\":31404:31429   */\n      0x546f6b656e2061646472657373206e6f742076616c6964000000000000000000\n        /* \"#utility.yul\":31400:31401   */\n      0x00\n        /* \"#utility.yul\":31392:31398   */\n      dup3\n        /* \"#utility.yul\":31388:31402   */\n      add\n        /* \"#utility.yul\":31381:31430   */\n      mstore\n        /* \"#utility.yul\":31264:31437   */\n      pop\n      jump\t// out\n        /* \"#utility.yul\":31443:31734   */\n    tag_526:\n        /* \"#utility.yul\":31583:31617   */\n      0x416d6f756e74207377617070656420646f6573206e6f74206d65657420796f75\n        /* \"#utility.yul\":31579:31580   */\n      0x00\n        /* \"#utility.yul\":31571:31577   */\n      dup3\n        /* \"#utility.yul\":31567:31581   */\n      add\n        /* \"#utility.yul\":31560:31618   */\n      mstore\n        /* \"#utility.yul\":31652:31686   */\n      0x722073746970756c6174656420616d6f756e742c20726576657274696e672073\n        /* \"#utility.yul\":31647:31649   */\n      0x20\n        /* \"#utility.yul\":31639:31645   */\n      dup3\n        /* \"#utility.yul\":31635:31650   */\n      add\n        /* \"#utility.yul\":31628:31687   */\n      mstore\n        /* \"#utility.yul\":31721:31726   */\n      0x7761700000000000000000000000000000000000000000000000000000000000\n        /* \"#utility.yul\":31716:31718   */\n      0x40\n        /* \"#utility.yul\":31708:31714   */\n      dup3\n        /* \"#utility.yul\":31704:31719   */\n      add\n        /* \"#utility.yul\":31697:31727   */\n      mstore\n        /* \"#utility.yul\":31443:31734   */\n      pop\n      jump\t// out\n        /* \"#utility.yul\":31740:31916   */\n    tag_531:\n        /* \"#utility.yul\":31880:31908   */\n      0x45786368616e67652061646472657373206e6f742076616c6964000000000000\n        /* \"#utility.yul\":31876:31877   */\n      0x00\n        /* \"#utility.yul\":31868:31874   */\n      dup3\n        /* \"#utility.yul\":31864:31878   */\n      add\n        /* \"#utility.yul\":31857:31909   */\n      mstore\n        /* \"#utility.yul\":31740:31916   */\n      pop\n      jump\t// out\n        /* \"#utility.yul\":31922:32164   */\n    tag_536:\n        /* \"#utility.yul\":32062:32096   */\n      0x506c6561736520696e70757420612076616c696420616d6f756e74206f66204c\n        /* \"#utility.yul\":32058:32059   */\n      0x00\n        /* \"#utility.yul\":32050:32056   */\n      dup3\n        /* \"#utility.yul\":32046:32060   */\n      add\n        /* \"#utility.yul\":32039:32097   */\n      mstore\n        /* \"#utility.yul\":32131:32156   */\n      0x5020546f6b656e7320746f206275726e2f72656465656d000000000000000000\n        /* \"#utility.yul\":32126:32128   */\n      0x20\n        /* \"#utility.yul\":32118:32124   */\n      dup3\n        /* \"#utility.yul\":32114:32129   */\n      add\n        /* \"#utility.yul\":32107:32157   */\n      mstore\n        /* \"#utility.yul\":31922:32164   */\n      pop\n      jump\t// out\n        /* \"#utility.yul\":32170:32390   */\n    tag_541:\n        /* \"#utility.yul\":32310:32344   */\n      0x45524332303a206275726e2066726f6d20746865207a65726f20616464726573\n        /* \"#utility.yul\":32306:32307   */\n      0x00\n        /* \"#utility.yul\":32298:32304   */\n      dup3\n        /* \"#utility.yul\":32294:32308   */\n      add\n        /* \"#utility.yul\":32287:32345   */\n      mstore\n        /* \"#utility.yul\":32379:32382   */\n      0x7300000000000000000000000000000000000000000000000000000000000000\n        /* \"#utility.yul\":32374:32376   */\n      0x20\n        /* \"#utility.yul\":32366:32372   */\n      dup3\n        /* \"#utility.yul\":32362:32377   */\n      add\n        /* \"#utility.yul\":32355:32383   */\n      mstore\n        /* \"#utility.yul\":32170:32390   */\n      pop\n      jump\t// out\n        /* \"#utility.yul\":32396:32571   */\n    tag_546:\n        /* \"#utility.yul\":32536:32563   */\n      0x45544820616d6f756e742063616e6e6f74206265207a65726f00000000000000\n        /* \"#utility.yul\":32532:32533   */\n      0x00\n        /* \"#utility.yul\":32524:32530   */\n      dup3\n        /* \"#utility.yul\":32520:32534   */\n      add\n        /* \"#utility.yul\":32513:32564   */\n      mstore\n        /* \"#utility.yul\":32396:32571   */\n      pop\n      jump\t// out\n        /* \"#utility.yul\":32577:32801   */\n    tag_551:\n        /* \"#utility.yul\":32717:32751   */\n      0x45524332303a207472616e736665722066726f6d20746865207a65726f206164\n        /* \"#utility.yul\":32713:32714   */\n      0x00\n        /* \"#utility.yul\":32705:32711   */\n      dup3\n        /* \"#utility.yul\":32701:32715   */\n      add\n        /* \"#utility.yul\":32694:32752   */\n      mstore\n        /* \"#utility.yul\":32786:32793   */\n      0x6472657373000000000000000000000000000000000000000000000000000000\n        /* \"#utility.yul\":32781:32783   */\n      0x20\n        /* \"#utility.yul\":32773:32779   */\n      dup3\n        /* \"#utility.yul\":32769:32784   */\n      add\n        /* \"#utility.yul\":32762:32794   */\n      mstore\n        /* \"#utility.yul\":32577:32801   */\n      pop\n      jump\t// out\n        /* \"#utility.yul\":32807:33031   */\n    tag_556:\n        /* \"#utility.yul\":32947:32981   */\n      0x5472616e73616374696f6e206f662045746865722077617320756e7375636365\n        /* \"#utility.yul\":32943:32944   */\n      0x00\n        /* \"#utility.yul\":32935:32941   */\n      dup3\n        /* \"#utility.yul\":32931:32945   */\n      add\n        /* \"#utility.yul\":32924:32982   */\n      mstore\n        /* \"#utility.yul\":33016:33023   */\n      0x737366756c000000000000000000000000000000000000000000000000000000\n        /* \"#utility.yul\":33011:33013   */\n      0x20\n        /* \"#utility.yul\":33003:33009   */\n      dup3\n        /* \"#utility.yul\":32999:33014   */\n      add\n        /* \"#utility.yul\":32992:33024   */\n      mstore\n        /* \"#utility.yul\":32807:33031   */\n      pop\n      jump\t// out\n        /* \"#utility.yul\":33037:33151   */\n    tag_562:\n      pop\n      jump\t// out\n        /* \"#utility.yul\":33157:33328   */\n    tag_567:\n        /* \"#utility.yul\":33297:33320   */\n      0x546865726520617265206e6f2072657365727665730000000000000000000000\n        /* \"#utility.yul\":33293:33294   */\n      0x00\n        /* \"#utility.yul\":33285:33291   */\n      dup3\n        /* \"#utility.yul\":33281:33295   */\n      add\n        /* \"#utility.yul\":33274:33321   */\n      mstore\n        /* \"#utility.yul\":33157:33328   */\n      pop\n      jump\t// out\n        /* \"#utility.yul\":33334:33557   */\n    tag_572:\n        /* \"#utility.yul\":33474:33508   */\n      0x45524332303a20617070726f76652066726f6d20746865207a65726f20616464\n        /* \"#utility.yul\":33470:33471   */\n      0x00\n        /* \"#utility.yul\":33462:33468   */\n      dup3\n        /* \"#utility.yul\":33458:33472   */\n      add\n        /* \"#utility.yul\":33451:33509   */\n      mstore\n        /* \"#utility.yul\":33543:33549   */\n      0x7265737300000000000000000000000000000000000000000000000000000000\n        /* \"#utility.yul\":33538:33540   */\n      0x20\n        /* \"#utility.yul\":33530:33536   */\n      dup3\n        /* \"#utility.yul\":33526:33541   */\n      add\n        /* \"#utility.yul\":33519:33550   */\n      mstore\n        /* \"#utility.yul\":33334:33557   */\n      pop\n      jump\t// out\n        /* \"#utility.yul\":33563:33787   */\n    tag_577:\n        /* \"#utility.yul\":33703:33737   */\n      0x45524332303a2064656372656173656420616c6c6f77616e63652062656c6f77\n        /* \"#utility.yul\":33699:33700   */\n      0x00\n        /* \"#utility.yul\":33691:33697   */\n      dup3\n        /* \"#utility.yul\":33687:33701   */\n      add\n        /* \"#utility.yul\":33680:33738   */\n      mstore\n        /* \"#utility.yul\":33772:33779   */\n      0x207a65726f000000000000000000000000000000000000000000000000000000\n        /* \"#utility.yul\":33767:33769   */\n      0x20\n        /* \"#utility.yul\":33759:33765   */\n      dup3\n        /* \"#utility.yul\":33755:33770   */\n      add\n        /* \"#utility.yul\":33748:33780   */\n      mstore\n        /* \"#utility.yul\":33563:33787   */\n      pop\n      jump\t// out\n        /* \"#utility.yul\":33793:33974   */\n    tag_582:\n        /* \"#utility.yul\":33933:33966   */\n      0x45524332303a206d696e7420746f20746865207a65726f206164647265737300\n        /* \"#utility.yul\":33929:33930   */\n      0x00\n        /* \"#utility.yul\":33921:33927   */\n      dup3\n        /* \"#utility.yul\":33917:33931   */\n      add\n        /* \"#utility.yul\":33910:33967   */\n      mstore\n        /* \"#utility.yul\":33793:33974   */\n      pop\n      jump\t// out\n        /* \"#utility.yul\":33980:34102   */\n    tag_391:\n        /* \"#utility.yul\":34053:34077   */\n      tag_729\n        /* \"#utility.yul\":34071:34076   */\n      dup2\n        /* \"#utility.yul\":34053:34077   */\n      tag_462\n      jump\t// in\n    tag_729:\n        /* \"#utility.yul\":34046:34051   */\n      dup2\n        /* \"#utility.yul\":34043:34078   */\n      eq\n        /* \"#utility.yul\":34033:34096   */\n      tag_730\n      jumpi\n        /* \"#utility.yul\":34092:34093   */\n      0x00\n        /* \"#utility.yul\":34089:34090   */\n      dup1\n        /* \"#utility.yul\":34082:34094   */\n      revert\n        /* \"#utility.yul\":34033:34096   */\n    tag_730:\n        /* \"#utility.yul\":33980:34102   */\n      pop\n      jump\t// out\n        /* \"#utility.yul\":34108:34224   */\n    tag_398:\n        /* \"#utility.yul\":34178:34199   */\n      tag_732\n        /* \"#utility.yul\":34193:34198   */\n      dup2\n        /* \"#utility.yul\":34178:34199   */\n      tag_466\n      jump\t// in\n    tag_732:\n        /* \"#utility.yul\":34171:34176   */\n      dup2\n        /* \"#utility.yul\":34168:34200   */\n      eq\n        /* \"#utility.yul\":34158:34218   */\n      tag_733\n      jumpi\n        /* \"#utility.yul\":34214:34215   */\n      0x00\n        /* \"#utility.yul\":34211:34212   */\n      dup1\n        /* \"#utility.yul\":34204:34216   */\n      revert\n        /* \"#utility.yul\":34158:34218   */\n    tag_733:\n        /* \"#utility.yul\":34108:34224   */\n      pop\n      jump\t// out\n        /* \"#utility.yul\":34230:34352   */\n    tag_402:\n        /* \"#utility.yul\":34303:34327   */\n      tag_735\n        /* \"#utility.yul\":34321:34326   */\n      dup2\n        /* \"#utility.yul\":34303:34327   */\n      tag_586\n      jump\t// in\n    tag_735:\n        /* \"#utility.yul\":34296:34301   */\n      dup2\n        /* \"#utility.yul\":34293:34328   */\n      eq\n        /* \"#utility.yul\":34283:34346   */\n      tag_736\n      jumpi\n        /* \"#utility.yul\":34342:34343   */\n      0x00\n        /* \"#utility.yul\":34339:34340   */\n      dup1\n        /* \"#utility.yul\":34332:34344   */\n      revert\n        /* \"#utility.yul\":34283:34346   */\n    tag_736:\n        /* \"#utility.yul\":34230:34352   */\n      pop\n      jump\t// out\n\n    auxdata: 0xa2646970667358221220878fe8ee12e9dd5b6b7f9a30cf1d2abc294b8ec34722112a787f57427799803d64736f6c63430008070033\n}\n",
				"bytecode": {
					"linkReferences": {},
					"object": "60806040523480156200001157600080fd5b50604051620035893803806200358983398181016040528101906200003791906200029a565b6040518060400160405280600781526020017f53776170205631000000000000000000000000000000000000000000000000008152506040518060400160405280600781526020017f537761702d5631000000000000000000000000000000000000000000000000008152508160039080519060200190620000bb929190620001d3565b508060049080519060200190620000d4929190620001d3565b505050600073ffffffffffffffffffffffffffffffffffffffff168173ffffffffffffffffffffffffffffffffffffffff1614156200014a576040517f08c379a00000000000000000000000000000000000000000000000000000000081526004016200014190620002f3565b60405180910390fd5b80600560006101000a81548173ffffffffffffffffffffffffffffffffffffffff021916908373ffffffffffffffffffffffffffffffffffffffff16021790555033600660006101000a81548173ffffffffffffffffffffffffffffffffffffffff021916908373ffffffffffffffffffffffffffffffffffffffff1602179055505062000407565b828054620001e1906200035a565b90600052602060002090601f01602090048101928262000205576000855562000251565b82601f106200022057805160ff191683800117855562000251565b8280016001018555821562000251579182015b828111156200025057825182559160200191906001019062000233565b5b50905062000260919062000264565b5090565b5b808211156200027f57600081600090555060010162000265565b5090565b6000815190506200029481620003ed565b92915050565b600060208284031215620002b357620002b2620003bf565b5b6000620002c38482850162000283565b91505092915050565b6000620002db600f8362000315565b9150620002e882620003c4565b602082019050919050565b600060208201905081810360008301526200030e81620002cc565b9050919050565b600082825260208201905092915050565b600062000333826200033a565b9050919050565b600073ffffffffffffffffffffffffffffffffffffffff82169050919050565b600060028204905060018216806200037357607f821691505b602082108114156200038a576200038962000390565b5b50919050565b7f4e487b7100000000000000000000000000000000000000000000000000000000600052602260045260246000fd5b600080fd5b7f496e76616c696420616464726573730000000000000000000000000000000000600082015250565b620003f88162000326565b81146200040457600080fd5b50565b61317280620004176000396000f3fe6080604052600436106101355760003560e01c806364338a30116100ab5780639d76ea581161006f5780639d76ea581461045e578063a457c2d714610489578063a9059cbb146104c6578063dd62ed3e14610503578063f7a7e32414610540578063f979dcd71461056957610135565b806364338a301461036457806370a082311461038d57806395d89b41146103ca578063966dae0e146103f55780639c8f9f231461042057610135565b806323b872dd116100fd57806323b872dd146102365780632c0c60a414610273578063313ce567146102b0578063389d9a40146102db57806339509351146102f757806351c6590a1461033457610135565b806306fdde031461013a5780630902f1ac14610165578063095ea7b3146101915780630f8070b4146101ce57806318160ddd1461020b575b600080fd5b34801561014657600080fd5b5061014f610585565b60405161015c91906125e9565b60405180910390f35b34801561017157600080fd5b5061017a610617565b6040516101889291906128cf565b60405180910390f35b34801561019d57600080fd5b506101b860048036038101906101b39190612050565b6106ce565b6040516101c591906125ce565b60405180910390f35b3480156101da57600080fd5b506101f560048036038101906101f091906120bd565b6106f1565b604051610202919061288b565b60405180910390f35b34801561021757600080fd5b50610220610758565b60405161022d919061288b565b60405180910390f35b34801561024257600080fd5b5061025d60048036038101906102589190611ffd565b610762565b60405161026a91906125ce565b60405180910390f35b34801561027f57600080fd5b5061029a600480360381019061029591906120bd565b610791565b6040516102a7919061288b565b60405180910390f35b3480156102bc57600080fd5b506102c56107f8565b6040516102d291906128f8565b60405180910390f35b6102f560048036038101906102f09190612117565b610801565b005b34801561030357600080fd5b5061031e60048036038101906103199190612050565b61080f565b60405161032b91906125ce565b60405180910390f35b61034e600480360381019061034991906120bd565b610846565b60405161035b919061288b565b60405180910390f35b34801561037057600080fd5b5061038b60048036038101906103869190612157565b610abc565b005b34801561039957600080fd5b506103b460048036038101906103af9190611f63565b610cd2565b6040516103c1919061288b565b60405180910390f35b3480156103d657600080fd5b506103df610d1a565b6040516103ec91906125e9565b60405180910390f35b34801561040157600080fd5b5061040a610dac565b6040516104179190612553565b60405180910390f35b34801561042c57600080fd5b50610447600480360381019061044291906120bd565b610dd2565b6040516104559291906128cf565b60405180910390f35b34801561046a57600080fd5b5061047361101a565b6040516104809190612553565b60405180910390f35b34801561049557600080fd5b506104b060048036038101906104ab9190612050565b611040565b6040516104bd91906125ce565b60405180910390f35b3480156104d257600080fd5b506104ed60048036038101906104e89190612050565b6110b7565b6040516104fa91906125ce565b60405180910390f35b34801561050f57600080fd5b5061052a60048036038101906105259190611fbd565b6110da565b604051610537919061288b565b60405180910390f35b34801561054c57600080fd5b5061056760048036038101906105629190612197565b611161565b005b610583600480360381019061057e91906120bd565b6114b4565b005b60606003805461059490612ad7565b80601f01602080910402602001604051908101604052809291908181526020018280546105c090612ad7565b801561060d5780601f106105e25761010080835404028352916020019161060d565b820191906000526020600020905b8154815290600101906020018083116105f057829003601f168201915b5050505050905090565b600080600560009054906101000a900473ffffffffffffffffffffffffffffffffffffffff1673ffffffffffffffffffffffffffffffffffffffff166370a08231306040518263ffffffff1660e01b81526004016106759190612553565b60206040518083038186803b15801561068d57600080fd5b505afa1580156106a1573d6000803e3d6000fd5b505050506040513d601f19601f820116820180604052508101906106c591906120ea565b91504790509091565b6000806106d96114c1565b90506106e68185856114c9565b600191505092915050565b6000808211610735576040517f08c379a000000000000000000000000000000000000000000000000000000000815260040161072c906127ab565b60405180910390fd5b600080610740610617565b9150915061074f848284611694565b92505050919050565b6000600254905090565b60008061076d6114c1565b905061077a85828561173a565b6107858585856117c6565b60019150509392505050565b60008081116107d5576040517f08c379a00000000000000000000000000000000000000000000000000000000081526004016107cc906127ab565b60405180910390fd5b6000806107e0610617565b915091506107ef848383611694565b92505050919050565b60006012905090565b61080b8282611a47565b5050565b60008061081a6114c1565b905061083b81858561082c85896110da565b610836919061293a565b6114c9565b600191505092915050565b6000806000610853610617565b915091506000821415610920576000600560009054906101000a900473ffffffffffffffffffffffffffffffffffffffff1690508073ffffffffffffffffffffffffffffffffffffffff166323b872dd3330886040518463ffffffff1660e01b81526004016108c49392919061256e565b602060405180830381600087803b1580156108de57600080fd5b505af11580156108f2573d6000803e3d6000fd5b505050506040513d601f19601f820116820180604052508101906109169190612090565b5081935050610a66565b348161092c9190612a1b565b9050600081833461093d91906129c1565b6109479190612990565b90508085101561098c576040517f08c379a00000000000000000000000000000000000000000000000000000000081526004016109839061266b565b60405180910390fd5b6000600560009054906101000a900473ffffffffffffffffffffffffffffffffffffffff1690508073ffffffffffffffffffffffffffffffffffffffff166323b872dd3330896040518463ffffffff1660e01b81526004016109f09392919061256e565b602060405180830381600087803b158015610a0a57600080fd5b505af1158015610a1e573d6000803e3d6000fd5b505050506040513d601f19601f82011682018060405250810190610a429190612090565b508234610a4d610758565b610a5791906129c1565b610a619190612990565b945050505b610a703384611bb9565b83343373ffffffffffffffffffffffffffffffffffffffff167f06239653922ac7bea6aa2b19dc486b9361821d37712eb796adfd38d81de278ca60405160405180910390a45050919050565b600080610ac7610617565b915091506000610ad8858484611694565b905083811015610b1d576040517f08c379a0000000000000000000000000000000000000000000000000000000008152600401610b149061272b565b60405180910390fd5b600560009054906101000a900473ffffffffffffffffffffffffffffffffffffffff1673ffffffffffffffffffffffffffffffffffffffff166323b872dd3330886040518463ffffffff1660e01b8152600401610b7c9392919061256e565b602060405180830381600087803b158015610b9657600080fd5b505af1158015610baa573d6000803e3d6000fd5b505050506040513d601f19601f82011682018060405250810190610bce9190612090565b5060003373ffffffffffffffffffffffffffffffffffffffff1685604051610bf59061253e565b60006040518083038185875af1925050503d8060008114610c32576040519150601f19603f3d011682016040523d82523d6000602084013e610c37565b606091505b5050905080610c7b576040517f08c379a0000000000000000000000000000000000000000000000000000000008152600401610c72906126cb565b60405180910390fd5b853373ffffffffffffffffffffffffffffffffffffffff167fd70caa09595c8288801ca58a02fd0960ef4982b210b2b9bf88bd5344c27cc4e884604051610cc2919061288b565b60405180910390a3505050505050565b60008060008373ffffffffffffffffffffffffffffffffffffffff1673ffffffffffffffffffffffffffffffffffffffff168152602001908152602001600020549050919050565b606060048054610d2990612ad7565b80601f0160208091040260200160405190810160405280929190818152602001828054610d5590612ad7565b8015610da25780601f10610d7757610100808354040283529160200191610da2565b820191906000526020600020905b815481529060010190602001808311610d8557829003601f168201915b5050505050905090565b600660009054906101000a900473ffffffffffffffffffffffffffffffffffffffff1681565b60008060008311610e18576040517f08c379a0000000000000000000000000000000000000000000000000000000008152600401610e0f9061276b565b60405180910390fd5b600080610e23610617565b91509150610e2f610758565b8582610e3b91906129c1565b610e459190612990565b9350610e4f610758565b8583610e5b91906129c1565b610e659190612990565b9250610e713386611d19565b60003373ffffffffffffffffffffffffffffffffffffffff1685604051610e979061253e565b60006040518083038185875af1925050503d8060008114610ed4576040519150601f19603f3d011682016040523d82523d6000602084013e610ed9565b606091505b5050905080610f1d576040517f08c379a0000000000000000000000000000000000000000000000000000000008152600401610f14906127eb565b60405180910390fd5b600560009054906101000a900473ffffffffffffffffffffffffffffffffffffffff1673ffffffffffffffffffffffffffffffffffffffff1663a9059cbb33866040518363ffffffff1660e01b8152600401610f7a9291906125a5565b602060405180830381600087803b158015610f9457600080fd5b505af1158015610fa8573d6000803e3d6000fd5b505050506040513d601f19601f82011682018060405250810190610fcc9190612090565b5083853373ffffffffffffffffffffffffffffffffffffffff167f0fbf06c058b90cb038a618f8c2acbf6145f8b3570fd1fa56abb8f0f3f05b36e860405160405180910390a4505050915091565b600560009054906101000a900473ffffffffffffffffffffffffffffffffffffffff1681565b60008061104b6114c1565b9050600061105982866110da565b90508381101561109e576040517f08c379a00000000000000000000000000000000000000000000000000000000081526004016110959061284b565b60405180910390fd5b6110ab82868684036114c9565b60019250505092915050565b6000806110c26114c1565b90506110cf8185856117c6565b600191505092915050565b6000600160008473ffffffffffffffffffffffffffffffffffffffff1673ffffffffffffffffffffffffffffffffffffffff16815260200190815260200160002060008373ffffffffffffffffffffffffffffffffffffffff1673ffffffffffffffffffffffffffffffffffffffff16815260200190815260200160002054905092915050565b600073ffffffffffffffffffffffffffffffffffffffff168173ffffffffffffffffffffffffffffffffffffffff1614156111d1576040517f08c379a00000000000000000000000000000000000000000000000000000000081526004016111c89061270b565b60405180910390fd5b60008311611214576040517f08c379a000000000000000000000000000000000000000000000000000000000815260040161120b906126eb565b60405180910390fd5b6000600660009054906101000a900473ffffffffffffffffffffffffffffffffffffffff1673ffffffffffffffffffffffffffffffffffffffff16631a788a02836040518263ffffffff1660e01b81526004016112719190612553565b602060405180830381600087803b15801561128b57600080fd5b505af115801561129f573d6000803e3d6000fd5b505050506040513d601f19601f820116820180604052508101906112c39190611f90565b90503073ffffffffffffffffffffffffffffffffffffffff168173ffffffffffffffffffffffffffffffffffffffff161415801561132e5750600073ffffffffffffffffffffffffffffffffffffffff168173ffffffffffffffffffffffffffffffffffffffff1614155b61136d576040517f08c379a00000000000000000000000000000000000000000000000000000000081526004016113649061274b565b60405180910390fd5b600080611378610617565b915091506000611389878484611694565b9050600560009054906101000a900473ffffffffffffffffffffffffffffffffffffffff1673ffffffffffffffffffffffffffffffffffffffff166323b872dd33308a6040518463ffffffff1660e01b81526004016113ea9392919061256e565b602060405180830381600087803b15801561140457600080fd5b505af1158015611418573d6000803e3d6000fd5b505050506040513d601f19601f8201168201806040525081019061143c9190612090565b508373ffffffffffffffffffffffffffffffffffffffff1663389d9a408288336040518463ffffffff1660e01b81526004016114799291906128a6565b6000604051808303818588803b15801561149257600080fd5b505af11580156114a6573d6000803e3d6000fd5b505050505050505050505050565b6114be8133611a47565b50565b600033905090565b600073ffffffffffffffffffffffffffffffffffffffff168373ffffffffffffffffffffffffffffffffffffffff161415611539576040517f08c379a00000000000000000000000000000000000000000000000000000000081526004016115309061282b565b60405180910390fd5b600073ffffffffffffffffffffffffffffffffffffffff168273ffffffffffffffffffffffffffffffffffffffff1614156115a9576040517f08c379a00000000000000000000000000000000000000000000000000000000081526004016115a09061264b565b60405180910390fd5b80600160008573ffffffffffffffffffffffffffffffffffffffff1673ffffffffffffffffffffffffffffffffffffffff16815260200190815260200160002060008473ffffffffffffffffffffffffffffffffffffffff1673ffffffffffffffffffffffffffffffffffffffff168152602001908152602001600020819055508173ffffffffffffffffffffffffffffffffffffffff168373ffffffffffffffffffffffffffffffffffffffff167f8c5be1e5ebec7d5bd14f71427d1e84f3dd0314c0f7b2291e5b200ac8c7c3b92583604051611687919061288b565b60405180910390a3505050565b600080831180156116a55750600082115b6116e4576040517f08c379a00000000000000000000000000000000000000000000000000000000081526004016116db9061280b565b60405180910390fd5b6000806103e86116f49190612a1b565b856116ff91906129c1565b905080846103e861171091906129c1565b61171a919061293a565b838261172691906129c1565b6117309190612990565b9150509392505050565b600061174684846110da565b90507fffffffffffffffffffffffffffffffffffffffffffffffffffffffffffffffff81146117c057818110156117b2576040517f08c379a00000000000000000000000000000000000000000000000000000000081526004016117a99061268b565b60405180910390fd5b6117bf84848484036114c9565b5b50505050565b600073ffffffffffffffffffffffffffffffffffffffff168373ffffffffffffffffffffffffffffffffffffffff161415611836576040517f08c379a000000000000000000000000000000000000000000000000000000000815260040161182d906127cb565b60405180910390fd5b600073ffffffffffffffffffffffffffffffffffffffff168273ffffffffffffffffffffffffffffffffffffffff1614156118a6576040517f08c379a000000000000000000000000000000000000000000000000000000000815260040161189d9061260b565b60405180910390fd5b6118b1838383611ef0565b60008060008573ffffffffffffffffffffffffffffffffffffffff1673ffffffffffffffffffffffffffffffffffffffff16815260200190815260200160002054905081811015611937576040517f08c379a000000000000000000000000000000000000000000000000000000000815260040161192e906126ab565b60405180910390fd5b8181036000808673ffffffffffffffffffffffffffffffffffffffff1673ffffffffffffffffffffffffffffffffffffffff16815260200190815260200160002081905550816000808573ffffffffffffffffffffffffffffffffffffffff1673ffffffffffffffffffffffffffffffffffffffff16815260200190815260200160002060008282546119ca919061293a565b925050819055508273ffffffffffffffffffffffffffffffffffffffff168473ffffffffffffffffffffffffffffffffffffffff167fddf252ad1be2c89b69c2b068fc378daa952ba7f163c4a11628f55a4df523b3ef84604051611a2e919061288b565b60405180910390a3611a41848484611ef5565b50505050565b600080611a52610617565b915091506000611a6e343484611a689190612a1b565b85611694565b905084811015611ab3576040517f08c379a0000000000000000000000000000000000000000000000000000000008152600401611aaa9061272b565b60405180910390fd5b600560009054906101000a900473ffffffffffffffffffffffffffffffffffffffff1673ffffffffffffffffffffffffffffffffffffffff1663a9059cbb85836040518363ffffffff1660e01b8152600401611b109291906125a5565b602060405180830381600087803b158015611b2a57600080fd5b505af1158015611b3e573d6000803e3d6000fd5b505050506040513d601f19601f82011682018060405250810190611b629190612090565b50348473ffffffffffffffffffffffffffffffffffffffff167f2ad51a6b79c1a35468e5cc340ef09004400e337e1d1149aab02294fdb7f8f05583604051611baa919061288b565b60405180910390a35050505050565b600073ffffffffffffffffffffffffffffffffffffffff168273ffffffffffffffffffffffffffffffffffffffff161415611c29576040517f08c379a0000000000000000000000000000000000000000000000000000000008152600401611c209061286b565b60405180910390fd5b611c3560008383611ef0565b8060026000828254611c47919061293a565b92505081905550806000808473ffffffffffffffffffffffffffffffffffffffff1673ffffffffffffffffffffffffffffffffffffffff1681526020019081526020016000206000828254611c9c919061293a565b925050819055508173ffffffffffffffffffffffffffffffffffffffff16600073ffffffffffffffffffffffffffffffffffffffff167fddf252ad1be2c89b69c2b068fc378daa952ba7f163c4a11628f55a4df523b3ef83604051611d01919061288b565b60405180910390a3611d1560008383611ef5565b5050565b600073ffffffffffffffffffffffffffffffffffffffff168273ffffffffffffffffffffffffffffffffffffffff161415611d89576040517f08c379a0000000000000000000000000000000000000000000000000000000008152600401611d809061278b565b60405180910390fd5b611d9582600083611ef0565b60008060008473ffffffffffffffffffffffffffffffffffffffff1673ffffffffffffffffffffffffffffffffffffffff16815260200190815260200160002054905081811015611e1b576040517f08c379a0000000000000000000000000000000000000000000000000000000008152600401611e129061262b565b60405180910390fd5b8181036000808573ffffffffffffffffffffffffffffffffffffffff1673ffffffffffffffffffffffffffffffffffffffff168152602001908152602001600020819055508160026000828254611e729190612a1b565b92505081905550600073ffffffffffffffffffffffffffffffffffffffff168373ffffffffffffffffffffffffffffffffffffffff167fddf252ad1be2c89b69c2b068fc378daa952ba7f163c4a11628f55a4df523b3ef84604051611ed7919061288b565b60405180910390a3611eeb83600084611ef5565b505050565b505050565b505050565b600081359050611f09816130f7565b92915050565b600081519050611f1e816130f7565b92915050565b600081519050611f338161310e565b92915050565b600081359050611f4881613125565b92915050565b600081519050611f5d81613125565b92915050565b600060208284031215611f7957611f78612b96565b5b6000611f8784828501611efa565b91505092915050565b600060208284031215611fa657611fa5612b96565b5b6000611fb484828501611f0f565b91505092915050565b60008060408385031215611fd457611fd3612b96565b5b6000611fe285828601611efa565b9250506020611ff385828601611efa565b9150509250929050565b60008060006060848603121561201657612015612b96565b5b600061202486828701611efa565b935050602061203586828701611efa565b925050604061204686828701611f39565b9150509250925092565b6000806040838503121561206757612066612b96565b5b600061207585828601611efa565b925050602061208685828601611f39565b9150509250929050565b6000602082840312156120a6576120a5612b96565b5b60006120b484828501611f24565b91505092915050565b6000602082840312156120d3576120d2612b96565b5b60006120e184828501611f39565b91505092915050565b600060208284031215612100576120ff612b96565b5b600061210e84828501611f4e565b91505092915050565b6000806040838503121561212e5761212d612b96565b5b600061213c85828601611f39565b925050602061214d85828601611efa565b9150509250929050565b6000806040838503121561216e5761216d612b96565b5b600061217c85828601611f39565b925050602061218d85828601611f39565b9150509250929050565b6000806000606084860312156121b0576121af612b96565b5b60006121be86828701611f39565b93505060206121cf86828701611f39565b92505060406121e086828701611efa565b9150509250925092565b6121f381612a4f565b82525050565b61220281612a61565b82525050565b600061221382612913565b61221d8185612929565b935061222d818560208601612aa4565b61223681612b9b565b840191505092915050565b600061224e602383612929565b915061225982612bac565b604082019050919050565b6000612271602283612929565b915061227c82612bfb565b604082019050919050565b6000612294602283612929565b915061229f82612c4a565b604082019050919050565b60006122b7602983612929565b91506122c282612c99565b604082019050919050565b60006122da601d83612929565b91506122e582612ce8565b602082019050919050565b60006122fd602683612929565b915061230882612d11565b604082019050919050565b6000612320602683612929565b915061232b82612d60565b604082019050919050565b6000612343601a83612929565b915061234e82612daf565b602082019050919050565b6000612366601783612929565b915061237182612dd8565b602082019050919050565b6000612389604383612929565b915061239482612e01565b606082019050919050565b60006123ac601a83612929565b91506123b782612e76565b602082019050919050565b60006123cf603783612929565b91506123da82612e9f565b604082019050919050565b60006123f2602183612929565b91506123fd82612eee565b604082019050919050565b6000612415601983612929565b915061242082612f3d565b602082019050919050565b6000612438602583612929565b915061244382612f66565b604082019050919050565b600061245b602583612929565b915061246682612fb5565b604082019050919050565b600061247e60008361291e565b915061248982613004565b600082019050919050565b60006124a1601583612929565b91506124ac82613007565b602082019050919050565b60006124c4602483612929565b91506124cf82613030565b604082019050919050565b60006124e7602583612929565b91506124f28261307f565b604082019050919050565b600061250a601f83612929565b9150612515826130ce565b602082019050919050565b61252981612a8d565b82525050565b61253881612a97565b82525050565b600061254982612471565b9150819050919050565b600060208201905061256860008301846121ea565b92915050565b600060608201905061258360008301866121ea565b61259060208301856121ea565b61259d6040830184612520565b949350505050565b60006040820190506125ba60008301856121ea565b6125c76020830184612520565b9392505050565b60006020820190506125e360008301846121f9565b92915050565b600060208201905081810360008301526126038184612208565b905092915050565b6000602082019050818103600083015261262481612241565b9050919050565b6000602082019050818103600083015261264481612264565b9050919050565b6000602082019050818103600083015261266481612287565b9050919050565b60006020820190508181036000830152612684816122aa565b9050919050565b600060208201905081810360008301526126a4816122cd565b9050919050565b600060208201905081810360008301526126c4816122f0565b9050919050565b600060208201905081810360008301526126e481612313565b9050919050565b6000602082019050818103600083015261270481612336565b9050919050565b6000602082019050818103600083015261272481612359565b9050919050565b600060208201905081810360008301526127448161237c565b9050919050565b600060208201905081810360008301526127648161239f565b9050919050565b60006020820190508181036000830152612784816123c2565b9050919050565b600060208201905081810360008301526127a4816123e5565b9050919050565b600060208201905081810360008301526127c481612408565b9050919050565b600060208201905081810360008301526127e48161242b565b9050919050565b600060208201905081810360008301526128048161244e565b9050919050565b6000602082019050818103600083015261282481612494565b9050919050565b60006020820190508181036000830152612844816124b7565b9050919050565b60006020820190508181036000830152612864816124da565b9050919050565b60006020820190508181036000830152612884816124fd565b9050919050565b60006020820190506128a06000830184612520565b92915050565b60006040820190506128bb6000830185612520565b6128c860208301846121ea565b9392505050565b60006040820190506128e46000830185612520565b6128f16020830184612520565b9392505050565b600060208201905061290d600083018461252f565b92915050565b600081519050919050565b600081905092915050565b600082825260208201905092915050565b600061294582612a8d565b915061295083612a8d565b9250827fffffffffffffffffffffffffffffffffffffffffffffffffffffffffffffffff0382111561298557612984612b09565b5b828201905092915050565b600061299b82612a8d565b91506129a683612a8d565b9250826129b6576129b5612b38565b5b828204905092915050565b60006129cc82612a8d565b91506129d783612a8d565b9250817fffffffffffffffffffffffffffffffffffffffffffffffffffffffffffffffff0483118215151615612a1057612a0f612b09565b5b828202905092915050565b6000612a2682612a8d565b9150612a3183612a8d565b925082821015612a4457612a43612b09565b5b828203905092915050565b6000612a5a82612a6d565b9050919050565b60008115159050919050565b600073ffffffffffffffffffffffffffffffffffffffff82169050919050565b6000819050919050565b600060ff82169050919050565b60005b83811015612ac2578082015181840152602081019050612aa7565b83811115612ad1576000848401525b50505050565b60006002820490506001821680612aef57607f821691505b60208210811415612b0357612b02612b67565b5b50919050565b7f4e487b7100000000000000000000000000000000000000000000000000000000600052601160045260246000fd5b7f4e487b7100000000000000000000000000000000000000000000000000000000600052601260045260246000fd5b7f4e487b7100000000000000000000000000000000000000000000000000000000600052602260045260246000fd5b600080fd5b6000601f19601f8301169050919050565b7f45524332303a207472616e7366657220746f20746865207a65726f206164647260008201527f6573730000000000000000000000000000000000000000000000000000000000602082015250565b7f45524332303a206275726e20616d6f756e7420657863656564732062616c616e60008201527f6365000000000000000000000000000000000000000000000000000000000000602082015250565b7f45524332303a20617070726f766520746f20746865207a65726f20616464726560008201527f7373000000000000000000000000000000000000000000000000000000000000602082015250565b7f496e73756666696369656e7420696e70757420616d6f756e74206f662045524360008201527f323020546f6b656e730000000000000000000000000000000000000000000000602082015250565b7f45524332303a20696e73756666696369656e7420616c6c6f77616e6365000000600082015250565b7f45524332303a207472616e7366657220616d6f756e742065786365656473206260008201527f616c616e63650000000000000000000000000000000000000000000000000000602082015250565b7f5472616e73616374696f6e206f662045544820746f20726563697069656e742060008201527f6661696c65640000000000000000000000000000000000000000000000000000602082015250565b7f496e76616c696420696e70757420746f6b656e20616d6f756e74000000000000600082015250565b7f546f6b656e2061646472657373206e6f742076616c6964000000000000000000600082015250565b7f416d6f756e74207377617070656420646f6573206e6f74206d65657420796f7560008201527f722073746970756c6174656420616d6f756e742c20726576657274696e67207360208201527f7761700000000000000000000000000000000000000000000000000000000000604082015250565b7f45786368616e67652061646472657373206e6f742076616c6964000000000000600082015250565b7f506c6561736520696e70757420612076616c696420616d6f756e74206f66204c60008201527f5020546f6b656e7320746f206275726e2f72656465656d000000000000000000602082015250565b7f45524332303a206275726e2066726f6d20746865207a65726f2061646472657360008201527f7300000000000000000000000000000000000000000000000000000000000000602082015250565b7f45544820616d6f756e742063616e6e6f74206265207a65726f00000000000000600082015250565b7f45524332303a207472616e736665722066726f6d20746865207a65726f20616460008201527f6472657373000000000000000000000000000000000000000000000000000000602082015250565b7f5472616e73616374696f6e206f662045746865722077617320756e737563636560008201527f737366756c000000000000000000000000000000000000000000000000000000602082015250565b50565b7f546865726520617265206e6f2072657365727665730000000000000000000000600082015250565b7f45524332303a20617070726f76652066726f6d20746865207a65726f2061646460008201527f7265737300000000000000000000000000000000000000000000000000000000602082015250565b7f45524332303a2064656372656173656420616c6c6f77616e63652062656c6f7760008201527f207a65726f000000000000000000000000000000000000000000000000000000602082015250565b7f45524332303a206d696e7420746f20746865207a65726f206164647265737300600082015250565b61310081612a4f565b811461310b57600080fd5b50565b61311781612a61565b811461312257600080fd5b50565b61312e81612a8d565b811461313957600080fd5b5056fea2646970667358221220878fe8ee12e9dd5b6b7f9a30cf1d2abc294b8ec34722112a787f57427799803d64736f6c63430008070033",
					"opcodes": "PUSH1 0x80 PUSH1 0x40 MSTORE CALLVALUE DUP1 ISZERO PUSH3 0x11 JUMPI PUSH1 0x0 DUP1 REVERT JUMPDEST POP PUSH1 0x40 MLOAD PUSH3 0x3589 CODESIZE SUB DUP1 PUSH3 0x3589 DUP4 CODECOPY DUP2 DUP2 ADD PUSH1 0x40 MSTORE DUP2 ADD SWAP1 PUSH3 0x37 SWAP2 SWAP1 PUSH3 0x29A JUMP JUMPDEST PUSH1 0x40 MLOAD DUP1 PUSH1 0x40 ADD PUSH1 0x40 MSTORE DUP1 PUSH1 0x7 DUP2 MSTORE PUSH1 0x20 ADD PUSH32 0x5377617020563100000000000000000000000000000000000000000000000000 DUP2 MSTORE POP PUSH1 0x40 MLOAD DUP1 PUSH1 0x40 ADD PUSH1 0x40 MSTORE DUP1 PUSH1 0x7 DUP2 MSTORE PUSH1 0x20 ADD PUSH32 0x537761702D563100000000000000000000000000000000000000000000000000 DUP2 MSTORE POP DUP2 PUSH1 0x3 SWAP1 DUP1 MLOAD SWAP1 PUSH1 0x20 ADD SWAP1 PUSH3 0xBB SWAP3 SWAP2 SWAP1 PUSH3 0x1D3 JUMP JUMPDEST POP DUP1 PUSH1 0x4 SWAP1 DUP1 MLOAD SWAP1 PUSH1 0x20 ADD SWAP1 PUSH3 0xD4 SWAP3 SWAP2 SWAP1 PUSH3 0x1D3 JUMP JUMPDEST POP POP POP PUSH1 0x0 PUSH20 0xFFFFFFFFFFFFFFFFFFFFFFFFFFFFFFFFFFFFFFFF AND DUP2 PUSH20 0xFFFFFFFFFFFFFFFFFFFFFFFFFFFFFFFFFFFFFFFF AND EQ ISZERO PUSH3 0x14A JUMPI PUSH1 0x40 MLOAD PUSH32 0x8C379A000000000000000000000000000000000000000000000000000000000 DUP2 MSTORE PUSH1 0x4 ADD PUSH3 0x141 SWAP1 PUSH3 0x2F3 JUMP JUMPDEST PUSH1 0x40 MLOAD DUP1 SWAP2 SUB SWAP1 REVERT JUMPDEST DUP1 PUSH1 0x5 PUSH1 0x0 PUSH2 0x100 EXP DUP2 SLOAD DUP2 PUSH20 0xFFFFFFFFFFFFFFFFFFFFFFFFFFFFFFFFFFFFFFFF MUL NOT AND SWAP1 DUP4 PUSH20 0xFFFFFFFFFFFFFFFFFFFFFFFFFFFFFFFFFFFFFFFF AND MUL OR SWAP1 SSTORE POP CALLER PUSH1 0x6 PUSH1 0x0 PUSH2 0x100 EXP DUP2 SLOAD DUP2 PUSH20 0xFFFFFFFFFFFFFFFFFFFFFFFFFFFFFFFFFFFFFFFF MUL NOT AND SWAP1 DUP4 PUSH20 0xFFFFFFFFFFFFFFFFFFFFFFFFFFFFFFFFFFFFFFFF AND MUL OR SWAP1 SSTORE POP POP PUSH3 0x407 JUMP JUMPDEST DUP3 DUP1 SLOAD PUSH3 0x1E1 SWAP1 PUSH3 0x35A JUMP JUMPDEST SWAP1 PUSH1 0x0 MSTORE PUSH1 0x20 PUSH1 0x0 KECCAK256 SWAP1 PUSH1 0x1F ADD PUSH1 0x20 SWAP1 DIV DUP2 ADD SWAP3 DUP3 PUSH3 0x205 JUMPI PUSH1 0x0 DUP6 SSTORE PUSH3 0x251 JUMP JUMPDEST DUP3 PUSH1 0x1F LT PUSH3 0x220 JUMPI DUP1 MLOAD PUSH1 0xFF NOT AND DUP4 DUP1 ADD OR DUP6 SSTORE PUSH3 0x251 JUMP JUMPDEST DUP3 DUP1 ADD PUSH1 0x1 ADD DUP6 SSTORE DUP3 ISZERO PUSH3 0x251 JUMPI SWAP2 DUP3 ADD JUMPDEST DUP3 DUP2 GT ISZERO PUSH3 0x250 JUMPI DUP3 MLOAD DUP3 SSTORE SWAP2 PUSH1 0x20 ADD SWAP2 SWAP1 PUSH1 0x1 ADD SWAP1 PUSH3 0x233 JUMP JUMPDEST JUMPDEST POP SWAP1 POP PUSH3 0x260 SWAP2 SWAP1 PUSH3 0x264 JUMP JUMPDEST POP SWAP1 JUMP JUMPDEST JUMPDEST DUP1 DUP3 GT ISZERO PUSH3 0x27F JUMPI PUSH1 0x0 DUP2 PUSH1 0x0 SWAP1 SSTORE POP PUSH1 0x1 ADD PUSH3 0x265 JUMP JUMPDEST POP SWAP1 JUMP JUMPDEST PUSH1 0x0 DUP2 MLOAD SWAP1 POP PUSH3 0x294 DUP2 PUSH3 0x3ED JUMP JUMPDEST SWAP3 SWAP2 POP POP JUMP JUMPDEST PUSH1 0x0 PUSH1 0x20 DUP3 DUP5 SUB SLT ISZERO PUSH3 0x2B3 JUMPI PUSH3 0x2B2 PUSH3 0x3BF JUMP JUMPDEST JUMPDEST PUSH1 0x0 PUSH3 0x2C3 DUP5 DUP3 DUP6 ADD PUSH3 0x283 JUMP JUMPDEST SWAP2 POP POP SWAP3 SWAP2 POP POP JUMP JUMPDEST PUSH1 0x0 PUSH3 0x2DB PUSH1 0xF DUP4 PUSH3 0x315 JUMP JUMPDEST SWAP2 POP PUSH3 0x2E8 DUP3 PUSH3 0x3C4 JUMP JUMPDEST PUSH1 0x20 DUP3 ADD SWAP1 POP SWAP2 SWAP1 POP JUMP JUMPDEST PUSH1 0x0 PUSH1 0x20 DUP3 ADD SWAP1 POP DUP2 DUP2 SUB PUSH1 0x0 DUP4 ADD MSTORE PUSH3 0x30E DUP2 PUSH3 0x2CC JUMP JUMPDEST SWAP1 POP SWAP2 SWAP1 POP JUMP JUMPDEST PUSH1 0x0 DUP3 DUP3 MSTORE PUSH1 0x20 DUP3 ADD SWAP1 POP SWAP3 SWAP2 POP POP JUMP JUMPDEST PUSH1 0x0 PUSH3 0x333 DUP3 PUSH3 0x33A JUMP JUMPDEST SWAP1 POP SWAP2 SWAP1 POP JUMP JUMPDEST PUSH1 0x0 PUSH20 0xFFFFFFFFFFFFFFFFFFFFFFFFFFFFFFFFFFFFFFFF DUP3 AND SWAP1 POP SWAP2 SWAP1 POP JUMP JUMPDEST PUSH1 0x0 PUSH1 0x2 DUP3 DIV SWAP1 POP PUSH1 0x1 DUP3 AND DUP1 PUSH3 0x373 JUMPI PUSH1 0x7F DUP3 AND SWAP2 POP JUMPDEST PUSH1 0x20 DUP3 LT DUP2 EQ ISZERO PUSH3 0x38A JUMPI PUSH3 0x389 PUSH3 0x390 JUMP JUMPDEST JUMPDEST POP SWAP2 SWAP1 POP JUMP JUMPDEST PUSH32 0x4E487B7100000000000000000000000000000000000000000000000000000000 PUSH1 0x0 MSTORE PUSH1 0x22 PUSH1 0x4 MSTORE PUSH1 0x24 PUSH1 0x0 REVERT JUMPDEST PUSH1 0x0 DUP1 REVERT JUMPDEST PUSH32 0x496E76616C696420616464726573730000000000000000000000000000000000 PUSH1 0x0 DUP3 ADD MSTORE POP JUMP JUMPDEST PUSH3 0x3F8 DUP2 PUSH3 0x326 JUMP JUMPDEST DUP2 EQ PUSH3 0x404 JUMPI PUSH1 0x0 DUP1 REVERT JUMPDEST POP JUMP JUMPDEST PUSH2 0x3172 DUP1 PUSH3 0x417 PUSH1 0x0 CODECOPY PUSH1 0x0 RETURN INVALID PUSH1 0x80 PUSH1 0x40 MSTORE PUSH1 0x4 CALLDATASIZE LT PUSH2 0x135 JUMPI PUSH1 0x0 CALLDATALOAD PUSH1 0xE0 SHR DUP1 PUSH4 0x64338A30 GT PUSH2 0xAB JUMPI DUP1 PUSH4 0x9D76EA58 GT PUSH2 0x6F JUMPI DUP1 PUSH4 0x9D76EA58 EQ PUSH2 0x45E JUMPI DUP1 PUSH4 0xA457C2D7 EQ PUSH2 0x489 JUMPI DUP1 PUSH4 0xA9059CBB EQ PUSH2 0x4C6 JUMPI DUP1 PUSH4 0xDD62ED3E EQ PUSH2 0x503 JUMPI DUP1 PUSH4 0xF7A7E324 EQ PUSH2 0x540 JUMPI DUP1 PUSH4 0xF979DCD7 EQ PUSH2 0x569 JUMPI PUSH2 0x135 JUMP JUMPDEST DUP1 PUSH4 0x64338A30 EQ PUSH2 0x364 JUMPI DUP1 PUSH4 0x70A08231 EQ PUSH2 0x38D JUMPI DUP1 PUSH4 0x95D89B41 EQ PUSH2 0x3CA JUMPI DUP1 PUSH4 0x966DAE0E EQ PUSH2 0x3F5 JUMPI DUP1 PUSH4 0x9C8F9F23 EQ PUSH2 0x420 JUMPI PUSH2 0x135 JUMP JUMPDEST DUP1 PUSH4 0x23B872DD GT PUSH2 0xFD JUMPI DUP1 PUSH4 0x23B872DD EQ PUSH2 0x236 JUMPI DUP1 PUSH4 0x2C0C60A4 EQ PUSH2 0x273 JUMPI DUP1 PUSH4 0x313CE567 EQ PUSH2 0x2B0 JUMPI DUP1 PUSH4 0x389D9A40 EQ PUSH2 0x2DB JUMPI DUP1 PUSH4 0x39509351 EQ PUSH2 0x2F7 JUMPI DUP1 PUSH4 0x51C6590A EQ PUSH2 0x334 JUMPI PUSH2 0x135 JUMP JUMPDEST DUP1 PUSH4 0x6FDDE03 EQ PUSH2 0x13A JUMPI DUP1 PUSH4 0x902F1AC EQ PUSH2 0x165 JUMPI DUP1 PUSH4 0x95EA7B3 EQ PUSH2 0x191 JUMPI DUP1 PUSH4 0xF8070B4 EQ PUSH2 0x1CE JUMPI DUP1 PUSH4 0x18160DDD EQ PUSH2 0x20B JUMPI JUMPDEST PUSH1 0x0 DUP1 REVERT JUMPDEST CALLVALUE DUP1 ISZERO PUSH2 0x146 JUMPI PUSH1 0x0 DUP1 REVERT JUMPDEST POP PUSH2 0x14F PUSH2 0x585 JUMP JUMPDEST PUSH1 0x40 MLOAD PUSH2 0x15C SWAP2 SWAP1 PUSH2 0x25E9 JUMP JUMPDEST PUSH1 0x40 MLOAD DUP1 SWAP2 SUB SWAP1 RETURN JUMPDEST CALLVALUE DUP1 ISZERO PUSH2 0x171 JUMPI PUSH1 0x0 DUP1 REVERT JUMPDEST POP PUSH2 0x17A PUSH2 0x617 JUMP JUMPDEST PUSH1 0x40 MLOAD PUSH2 0x188 SWAP3 SWAP2 SWAP1 PUSH2 0x28CF JUMP JUMPDEST PUSH1 0x40 MLOAD DUP1 SWAP2 SUB SWAP1 RETURN JUMPDEST CALLVALUE DUP1 ISZERO PUSH2 0x19D JUMPI PUSH1 0x0 DUP1 REVERT JUMPDEST POP PUSH2 0x1B8 PUSH1 0x4 DUP1 CALLDATASIZE SUB DUP2 ADD SWAP1 PUSH2 0x1B3 SWAP2 SWAP1 PUSH2 0x2050 JUMP JUMPDEST PUSH2 0x6CE JUMP JUMPDEST PUSH1 0x40 MLOAD PUSH2 0x1C5 SWAP2 SWAP1 PUSH2 0x25CE JUMP JUMPDEST PUSH1 0x40 MLOAD DUP1 SWAP2 SUB SWAP1 RETURN JUMPDEST CALLVALUE DUP1 ISZERO PUSH2 0x1DA JUMPI PUSH1 0x0 DUP1 REVERT JUMPDEST POP PUSH2 0x1F5 PUSH1 0x4 DUP1 CALLDATASIZE SUB DUP2 ADD SWAP1 PUSH2 0x1F0 SWAP2 SWAP1 PUSH2 0x20BD JUMP JUMPDEST PUSH2 0x6F1 JUMP JUMPDEST PUSH1 0x40 MLOAD PUSH2 0x202 SWAP2 SWAP1 PUSH2 0x288B JUMP JUMPDEST PUSH1 0x40 MLOAD DUP1 SWAP2 SUB SWAP1 RETURN JUMPDEST CALLVALUE DUP1 ISZERO PUSH2 0x217 JUMPI PUSH1 0x0 DUP1 REVERT JUMPDEST POP PUSH2 0x220 PUSH2 0x758 JUMP JUMPDEST PUSH1 0x40 MLOAD PUSH2 0x22D SWAP2 SWAP1 PUSH2 0x288B JUMP JUMPDEST PUSH1 0x40 MLOAD DUP1 SWAP2 SUB SWAP1 RETURN JUMPDEST CALLVALUE DUP1 ISZERO PUSH2 0x242 JUMPI PUSH1 0x0 DUP1 REVERT JUMPDEST POP PUSH2 0x25D PUSH1 0x4 DUP1 CALLDATASIZE SUB DUP2 ADD SWAP1 PUSH2 0x258 SWAP2 SWAP1 PUSH2 0x1FFD JUMP JUMPDEST PUSH2 0x762 JUMP JUMPDEST PUSH1 0x40 MLOAD PUSH2 0x26A SWAP2 SWAP1 PUSH2 0x25CE JUMP JUMPDEST PUSH1 0x40 MLOAD DUP1 SWAP2 SUB SWAP1 RETURN JUMPDEST CALLVALUE DUP1 ISZERO PUSH2 0x27F JUMPI PUSH1 0x0 DUP1 REVERT JUMPDEST POP PUSH2 0x29A PUSH1 0x4 DUP1 CALLDATASIZE SUB DUP2 ADD SWAP1 PUSH2 0x295 SWAP2 SWAP1 PUSH2 0x20BD JUMP JUMPDEST PUSH2 0x791 JUMP JUMPDEST PUSH1 0x40 MLOAD PUSH2 0x2A7 SWAP2 SWAP1 PUSH2 0x288B JUMP JUMPDEST PUSH1 0x40 MLOAD DUP1 SWAP2 SUB SWAP1 RETURN JUMPDEST CALLVALUE DUP1 ISZERO PUSH2 0x2BC JUMPI PUSH1 0x0 DUP1 REVERT JUMPDEST POP PUSH2 0x2C5 PUSH2 0x7F8 JUMP JUMPDEST PUSH1 0x40 MLOAD PUSH2 0x2D2 SWAP2 SWAP1 PUSH2 0x28F8 JUMP JUMPDEST PUSH1 0x40 MLOAD DUP1 SWAP2 SUB SWAP1 RETURN JUMPDEST PUSH2 0x2F5 PUSH1 0x4 DUP1 CALLDATASIZE SUB DUP2 ADD SWAP1 PUSH2 0x2F0 SWAP2 SWAP1 PUSH2 0x2117 JUMP JUMPDEST PUSH2 0x801 JUMP JUMPDEST STOP JUMPDEST CALLVALUE DUP1 ISZERO PUSH2 0x303 JUMPI PUSH1 0x0 DUP1 REVERT JUMPDEST POP PUSH2 0x31E PUSH1 0x4 DUP1 CALLDATASIZE SUB DUP2 ADD SWAP1 PUSH2 0x319 SWAP2 SWAP1 PUSH2 0x2050 JUMP JUMPDEST PUSH2 0x80F JUMP JUMPDEST PUSH1 0x40 MLOAD PUSH2 0x32B SWAP2 SWAP1 PUSH2 0x25CE JUMP JUMPDEST PUSH1 0x40 MLOAD DUP1 SWAP2 SUB SWAP1 RETURN JUMPDEST PUSH2 0x34E PUSH1 0x4 DUP1 CALLDATASIZE SUB DUP2 ADD SWAP1 PUSH2 0x349 SWAP2 SWAP1 PUSH2 0x20BD JUMP JUMPDEST PUSH2 0x846 JUMP JUMPDEST PUSH1 0x40 MLOAD PUSH2 0x35B SWAP2 SWAP1 PUSH2 0x288B JUMP JUMPDEST PUSH1 0x40 MLOAD DUP1 SWAP2 SUB SWAP1 RETURN JUMPDEST CALLVALUE DUP1 ISZERO PUSH2 0x370 JUMPI PUSH1 0x0 DUP1 REVERT JUMPDEST POP PUSH2 0x38B PUSH1 0x4 DUP1 CALLDATASIZE SUB DUP2 ADD SWAP1 PUSH2 0x386 SWAP2 SWAP1 PUSH2 0x2157 JUMP JUMPDEST PUSH2 0xABC JUMP JUMPDEST STOP JUMPDEST CALLVALUE DUP1 ISZERO PUSH2 0x399 JUMPI PUSH1 0x0 DUP1 REVERT JUMPDEST POP PUSH2 0x3B4 PUSH1 0x4 DUP1 CALLDATASIZE SUB DUP2 ADD SWAP1 PUSH2 0x3AF SWAP2 SWAP1 PUSH2 0x1F63 JUMP JUMPDEST PUSH2 0xCD2 JUMP JUMPDEST PUSH1 0x40 MLOAD PUSH2 0x3C1 SWAP2 SWAP1 PUSH2 0x288B JUMP JUMPDEST PUSH1 0x40 MLOAD DUP1 SWAP2 SUB SWAP1 RETURN JUMPDEST CALLVALUE DUP1 ISZERO PUSH2 0x3D6 JUMPI PUSH1 0x0 DUP1 REVERT JUMPDEST POP PUSH2 0x3DF PUSH2 0xD1A JUMP JUMPDEST PUSH1 0x40 MLOAD PUSH2 0x3EC SWAP2 SWAP1 PUSH2 0x25E9 JUMP JUMPDEST PUSH1 0x40 MLOAD DUP1 SWAP2 SUB SWAP1 RETURN JUMPDEST CALLVALUE DUP1 ISZERO PUSH2 0x401 JUMPI PUSH1 0x0 DUP1 REVERT JUMPDEST POP PUSH2 0x40A PUSH2 0xDAC JUMP JUMPDEST PUSH1 0x40 MLOAD PUSH2 0x417 SWAP2 SWAP1 PUSH2 0x2553 JUMP JUMPDEST PUSH1 0x40 MLOAD DUP1 SWAP2 SUB SWAP1 RETURN JUMPDEST CALLVALUE DUP1 ISZERO PUSH2 0x42C JUMPI PUSH1 0x0 DUP1 REVERT JUMPDEST POP PUSH2 0x447 PUSH1 0x4 DUP1 CALLDATASIZE SUB DUP2 ADD SWAP1 PUSH2 0x442 SWAP2 SWAP1 PUSH2 0x20BD JUMP JUMPDEST PUSH2 0xDD2 JUMP JUMPDEST PUSH1 0x40 MLOAD PUSH2 0x455 SWAP3 SWAP2 SWAP1 PUSH2 0x28CF JUMP JUMPDEST PUSH1 0x40 MLOAD DUP1 SWAP2 SUB SWAP1 RETURN JUMPDEST CALLVALUE DUP1 ISZERO PUSH2 0x46A JUMPI PUSH1 0x0 DUP1 REVERT JUMPDEST POP PUSH2 0x473 PUSH2 0x101A JUMP JUMPDEST PUSH1 0x40 MLOAD PUSH2 0x480 SWAP2 SWAP1 PUSH2 0x2553 JUMP JUMPDEST PUSH1 0x40 MLOAD DUP1 SWAP2 SUB SWAP1 RETURN JUMPDEST CALLVALUE DUP1 ISZERO PUSH2 0x495 JUMPI PUSH1 0x0 DUP1 REVERT JUMPDEST POP PUSH2 0x4B0 PUSH1 0x4 DUP1 CALLDATASIZE SUB DUP2 ADD SWAP1 PUSH2 0x4AB SWAP2 SWAP1 PUSH2 0x2050 JUMP JUMPDEST PUSH2 0x1040 JUMP JUMPDEST PUSH1 0x40 MLOAD PUSH2 0x4BD SWAP2 SWAP1 PUSH2 0x25CE JUMP JUMPDEST PUSH1 0x40 MLOAD DUP1 SWAP2 SUB SWAP1 RETURN JUMPDEST CALLVALUE DUP1 ISZERO PUSH2 0x4D2 JUMPI PUSH1 0x0 DUP1 REVERT JUMPDEST POP PUSH2 0x4ED PUSH1 0x4 DUP1 CALLDATASIZE SUB DUP2 ADD SWAP1 PUSH2 0x4E8 SWAP2 SWAP1 PUSH2 0x2050 JUMP JUMPDEST PUSH2 0x10B7 JUMP JUMPDEST PUSH1 0x40 MLOAD PUSH2 0x4FA SWAP2 SWAP1 PUSH2 0x25CE JUMP JUMPDEST PUSH1 0x40 MLOAD DUP1 SWAP2 SUB SWAP1 RETURN JUMPDEST CALLVALUE DUP1 ISZERO PUSH2 0x50F JUMPI PUSH1 0x0 DUP1 REVERT JUMPDEST POP PUSH2 0x52A PUSH1 0x4 DUP1 CALLDATASIZE SUB DUP2 ADD SWAP1 PUSH2 0x525 SWAP2 SWAP1 PUSH2 0x1FBD JUMP JUMPDEST PUSH2 0x10DA JUMP JUMPDEST PUSH1 0x40 MLOAD PUSH2 0x537 SWAP2 SWAP1 PUSH2 0x288B JUMP JUMPDEST PUSH1 0x40 MLOAD DUP1 SWAP2 SUB SWAP1 RETURN JUMPDEST CALLVALUE DUP1 ISZERO PUSH2 0x54C JUMPI PUSH1 0x0 DUP1 REVERT JUMPDEST POP PUSH2 0x567 PUSH1 0x4 DUP1 CALLDATASIZE SUB DUP2 ADD SWAP1 PUSH2 0x562 SWAP2 SWAP1 PUSH2 0x2197 JUMP JUMPDEST PUSH2 0x1161 JUMP JUMPDEST STOP JUMPDEST PUSH2 0x583 PUSH1 0x4 DUP1 CALLDATASIZE SUB DUP2 ADD SWAP1 PUSH2 0x57E SWAP2 SWAP1 PUSH2 0x20BD JUMP JUMPDEST PUSH2 0x14B4 JUMP JUMPDEST STOP JUMPDEST PUSH1 0x60 PUSH1 0x3 DUP1 SLOAD PUSH2 0x594 SWAP1 PUSH2 0x2AD7 JUMP JUMPDEST DUP1 PUSH1 0x1F ADD PUSH1 0x20 DUP1 SWAP2 DIV MUL PUSH1 0x20 ADD PUSH1 0x40 MLOAD SWAP1 DUP2 ADD PUSH1 0x40 MSTORE DUP1 SWAP3 SWAP2 SWAP1 DUP2 DUP2 MSTORE PUSH1 0x20 ADD DUP3 DUP1 SLOAD PUSH2 0x5C0 SWAP1 PUSH2 0x2AD7 JUMP JUMPDEST DUP1 ISZERO PUSH2 0x60D JUMPI DUP1 PUSH1 0x1F LT PUSH2 0x5E2 JUMPI PUSH2 0x100 DUP1 DUP4 SLOAD DIV MUL DUP4 MSTORE SWAP2 PUSH1 0x20 ADD SWAP2 PUSH2 0x60D JUMP JUMPDEST DUP3 ADD SWAP2 SWAP1 PUSH1 0x0 MSTORE PUSH1 0x20 PUSH1 0x0 KECCAK256 SWAP1 JUMPDEST DUP2 SLOAD DUP2 MSTORE SWAP1 PUSH1 0x1 ADD SWAP1 PUSH1 0x20 ADD DUP1 DUP4 GT PUSH2 0x5F0 JUMPI DUP3 SWAP1 SUB PUSH1 0x1F AND DUP3 ADD SWAP2 JUMPDEST POP POP POP POP POP SWAP1 POP SWAP1 JUMP JUMPDEST PUSH1 0x0 DUP1 PUSH1 0x5 PUSH1 0x0 SWAP1 SLOAD SWAP1 PUSH2 0x100 EXP SWAP1 DIV PUSH20 0xFFFFFFFFFFFFFFFFFFFFFFFFFFFFFFFFFFFFFFFF AND PUSH20 0xFFFFFFFFFFFFFFFFFFFFFFFFFFFFFFFFFFFFFFFF AND PUSH4 0x70A08231 ADDRESS PUSH1 0x40 MLOAD DUP3 PUSH4 0xFFFFFFFF AND PUSH1 0xE0 SHL DUP2 MSTORE PUSH1 0x4 ADD PUSH2 0x675 SWAP2 SWAP1 PUSH2 0x2553 JUMP JUMPDEST PUSH1 0x20 PUSH1 0x40 MLOAD DUP1 DUP4 SUB DUP2 DUP7 DUP1 EXTCODESIZE ISZERO DUP1 ISZERO PUSH2 0x68D JUMPI PUSH1 0x0 DUP1 REVERT JUMPDEST POP GAS STATICCALL ISZERO DUP1 ISZERO PUSH2 0x6A1 JUMPI RETURNDATASIZE PUSH1 0x0 DUP1 RETURNDATACOPY RETURNDATASIZE PUSH1 0x0 REVERT JUMPDEST POP POP POP POP PUSH1 0x40 MLOAD RETURNDATASIZE PUSH1 0x1F NOT PUSH1 0x1F DUP3 ADD AND DUP3 ADD DUP1 PUSH1 0x40 MSTORE POP DUP2 ADD SWAP1 PUSH2 0x6C5 SWAP2 SWAP1 PUSH2 0x20EA JUMP JUMPDEST SWAP2 POP SELFBALANCE SWAP1 POP SWAP1 SWAP2 JUMP JUMPDEST PUSH1 0x0 DUP1 PUSH2 0x6D9 PUSH2 0x14C1 JUMP JUMPDEST SWAP1 POP PUSH2 0x6E6 DUP2 DUP6 DUP6 PUSH2 0x14C9 JUMP JUMPDEST PUSH1 0x1 SWAP2 POP POP SWAP3 SWAP2 POP POP JUMP JUMPDEST PUSH1 0x0 DUP1 DUP3 GT PUSH2 0x735 JUMPI PUSH1 0x40 MLOAD PUSH32 0x8C379A000000000000000000000000000000000000000000000000000000000 DUP2 MSTORE PUSH1 0x4 ADD PUSH2 0x72C SWAP1 PUSH2 0x27AB JUMP JUMPDEST PUSH1 0x40 MLOAD DUP1 SWAP2 SUB SWAP1 REVERT JUMPDEST PUSH1 0x0 DUP1 PUSH2 0x740 PUSH2 0x617 JUMP JUMPDEST SWAP2 POP SWAP2 POP PUSH2 0x74F DUP5 DUP3 DUP5 PUSH2 0x1694 JUMP JUMPDEST SWAP3 POP POP POP SWAP2 SWAP1 POP JUMP JUMPDEST PUSH1 0x0 PUSH1 0x2 SLOAD SWAP1 POP SWAP1 JUMP JUMPDEST PUSH1 0x0 DUP1 PUSH2 0x76D PUSH2 0x14C1 JUMP JUMPDEST SWAP1 POP PUSH2 0x77A DUP6 DUP3 DUP6 PUSH2 0x173A JUMP JUMPDEST PUSH2 0x785 DUP6 DUP6 DUP6 PUSH2 0x17C6 JUMP JUMPDEST PUSH1 0x1 SWAP2 POP POP SWAP4 SWAP3 POP POP POP JUMP JUMPDEST PUSH1 0x0 DUP1 DUP2 GT PUSH2 0x7D5 JUMPI PUSH1 0x40 MLOAD PUSH32 0x8C379A000000000000000000000000000000000000000000000000000000000 DUP2 MSTORE PUSH1 0x4 ADD PUSH2 0x7CC SWAP1 PUSH2 0x27AB JUMP JUMPDEST PUSH1 0x40 MLOAD DUP1 SWAP2 SUB SWAP1 REVERT JUMPDEST PUSH1 0x0 DUP1 PUSH2 0x7E0 PUSH2 0x617 JUMP JUMPDEST SWAP2 POP SWAP2 POP PUSH2 0x7EF DUP5 DUP4 DUP4 PUSH2 0x1694 JUMP JUMPDEST SWAP3 POP POP POP SWAP2 SWAP1 POP JUMP JUMPDEST PUSH1 0x0 PUSH1 0x12 SWAP1 POP SWAP1 JUMP JUMPDEST PUSH2 0x80B DUP3 DUP3 PUSH2 0x1A47 JUMP JUMPDEST POP POP JUMP JUMPDEST PUSH1 0x0 DUP1 PUSH2 0x81A PUSH2 0x14C1 JUMP JUMPDEST SWAP1 POP PUSH2 0x83B DUP2 DUP6 DUP6 PUSH2 0x82C DUP6 DUP10 PUSH2 0x10DA JUMP JUMPDEST PUSH2 0x836 SWAP2 SWAP1 PUSH2 0x293A JUMP JUMPDEST PUSH2 0x14C9 JUMP JUMPDEST PUSH1 0x1 SWAP2 POP POP SWAP3 SWAP2 POP POP JUMP JUMPDEST PUSH1 0x0 DUP1 PUSH1 0x0 PUSH2 0x853 PUSH2 0x617 JUMP JUMPDEST SWAP2 POP SWAP2 POP PUSH1 0x0 DUP3 EQ ISZERO PUSH2 0x920 JUMPI PUSH1 0x0 PUSH1 0x5 PUSH1 0x0 SWAP1 SLOAD SWAP1 PUSH2 0x100 EXP SWAP1 DIV PUSH20 0xFFFFFFFFFFFFFFFFFFFFFFFFFFFFFFFFFFFFFFFF AND SWAP1 POP DUP1 PUSH20 0xFFFFFFFFFFFFFFFFFFFFFFFFFFFFFFFFFFFFFFFF AND PUSH4 0x23B872DD CALLER ADDRESS DUP9 PUSH1 0x40 MLOAD DUP5 PUSH4 0xFFFFFFFF AND PUSH1 0xE0 SHL DUP2 MSTORE PUSH1 0x4 ADD PUSH2 0x8C4 SWAP4 SWAP3 SWAP2 SWAP1 PUSH2 0x256E JUMP JUMPDEST PUSH1 0x20 PUSH1 0x40 MLOAD DUP1 DUP4 SUB DUP2 PUSH1 0x0 DUP8 DUP1 EXTCODESIZE ISZERO DUP1 ISZERO PUSH2 0x8DE JUMPI PUSH1 0x0 DUP1 REVERT JUMPDEST POP GAS CALL ISZERO DUP1 ISZERO PUSH2 0x8F2 JUMPI RETURNDATASIZE PUSH1 0x0 DUP1 RETURNDATACOPY RETURNDATASIZE PUSH1 0x0 REVERT JUMPDEST POP POP POP POP PUSH1 0x40 MLOAD RETURNDATASIZE PUSH1 0x1F NOT PUSH1 0x1F DUP3 ADD AND DUP3 ADD DUP1 PUSH1 0x40 MSTORE POP DUP2 ADD SWAP1 PUSH2 0x916 SWAP2 SWAP1 PUSH2 0x2090 JUMP JUMPDEST POP DUP2 SWAP4 POP POP PUSH2 0xA66 JUMP JUMPDEST CALLVALUE DUP2 PUSH2 0x92C SWAP2 SWAP1 PUSH2 0x2A1B JUMP JUMPDEST SWAP1 POP PUSH1 0x0 DUP2 DUP4 CALLVALUE PUSH2 0x93D SWAP2 SWAP1 PUSH2 0x29C1 JUMP JUMPDEST PUSH2 0x947 SWAP2 SWAP1 PUSH2 0x2990 JUMP JUMPDEST SWAP1 POP DUP1 DUP6 LT ISZERO PUSH2 0x98C JUMPI PUSH1 0x40 MLOAD PUSH32 0x8C379A000000000000000000000000000000000000000000000000000000000 DUP2 MSTORE PUSH1 0x4 ADD PUSH2 0x983 SWAP1 PUSH2 0x266B JUMP JUMPDEST PUSH1 0x40 MLOAD DUP1 SWAP2 SUB SWAP1 REVERT JUMPDEST PUSH1 0x0 PUSH1 0x5 PUSH1 0x0 SWAP1 SLOAD SWAP1 PUSH2 0x100 EXP SWAP1 DIV PUSH20 0xFFFFFFFFFFFFFFFFFFFFFFFFFFFFFFFFFFFFFFFF AND SWAP1 POP DUP1 PUSH20 0xFFFFFFFFFFFFFFFFFFFFFFFFFFFFFFFFFFFFFFFF AND PUSH4 0x23B872DD CALLER ADDRESS DUP10 PUSH1 0x40 MLOAD DUP5 PUSH4 0xFFFFFFFF AND PUSH1 0xE0 SHL DUP2 MSTORE PUSH1 0x4 ADD PUSH2 0x9F0 SWAP4 SWAP3 SWAP2 SWAP1 PUSH2 0x256E JUMP JUMPDEST PUSH1 0x20 PUSH1 0x40 MLOAD DUP1 DUP4 SUB DUP2 PUSH1 0x0 DUP8 DUP1 EXTCODESIZE ISZERO DUP1 ISZERO PUSH2 0xA0A JUMPI PUSH1 0x0 DUP1 REVERT JUMPDEST POP GAS CALL ISZERO DUP1 ISZERO PUSH2 0xA1E JUMPI RETURNDATASIZE PUSH1 0x0 DUP1 RETURNDATACOPY RETURNDATASIZE PUSH1 0x0 REVERT JUMPDEST POP POP POP POP PUSH1 0x40 MLOAD RETURNDATASIZE PUSH1 0x1F NOT PUSH1 0x1F DUP3 ADD AND DUP3 ADD DUP1 PUSH1 0x40 MSTORE POP DUP2 ADD SWAP1 PUSH2 0xA42 SWAP2 SWAP1 PUSH2 0x2090 JUMP JUMPDEST POP DUP3 CALLVALUE PUSH2 0xA4D PUSH2 0x758 JUMP JUMPDEST PUSH2 0xA57 SWAP2 SWAP1 PUSH2 0x29C1 JUMP JUMPDEST PUSH2 0xA61 SWAP2 SWAP1 PUSH2 0x2990 JUMP JUMPDEST SWAP5 POP POP POP JUMPDEST PUSH2 0xA70 CALLER DUP5 PUSH2 0x1BB9 JUMP JUMPDEST DUP4 CALLVALUE CALLER PUSH20 0xFFFFFFFFFFFFFFFFFFFFFFFFFFFFFFFFFFFFFFFF AND PUSH32 0x6239653922AC7BEA6AA2B19DC486B9361821D37712EB796ADFD38D81DE278CA PUSH1 0x40 MLOAD PUSH1 0x40 MLOAD DUP1 SWAP2 SUB SWAP1 LOG4 POP POP SWAP2 SWAP1 POP JUMP JUMPDEST PUSH1 0x0 DUP1 PUSH2 0xAC7 PUSH2 0x617 JUMP JUMPDEST SWAP2 POP SWAP2 POP PUSH1 0x0 PUSH2 0xAD8 DUP6 DUP5 DUP5 PUSH2 0x1694 JUMP JUMPDEST SWAP1 POP DUP4 DUP2 LT ISZERO PUSH2 0xB1D JUMPI PUSH1 0x40 MLOAD PUSH32 0x8C379A000000000000000000000000000000000000000000000000000000000 DUP2 MSTORE PUSH1 0x4 ADD PUSH2 0xB14 SWAP1 PUSH2 0x272B JUMP JUMPDEST PUSH1 0x40 MLOAD DUP1 SWAP2 SUB SWAP1 REVERT JUMPDEST PUSH1 0x5 PUSH1 0x0 SWAP1 SLOAD SWAP1 PUSH2 0x100 EXP SWAP1 DIV PUSH20 0xFFFFFFFFFFFFFFFFFFFFFFFFFFFFFFFFFFFFFFFF AND PUSH20 0xFFFFFFFFFFFFFFFFFFFFFFFFFFFFFFFFFFFFFFFF AND PUSH4 0x23B872DD CALLER ADDRESS DUP9 PUSH1 0x40 MLOAD DUP5 PUSH4 0xFFFFFFFF AND PUSH1 0xE0 SHL DUP2 MSTORE PUSH1 0x4 ADD PUSH2 0xB7C SWAP4 SWAP3 SWAP2 SWAP1 PUSH2 0x256E JUMP JUMPDEST PUSH1 0x20 PUSH1 0x40 MLOAD DUP1 DUP4 SUB DUP2 PUSH1 0x0 DUP8 DUP1 EXTCODESIZE ISZERO DUP1 ISZERO PUSH2 0xB96 JUMPI PUSH1 0x0 DUP1 REVERT JUMPDEST POP GAS CALL ISZERO DUP1 ISZERO PUSH2 0xBAA JUMPI RETURNDATASIZE PUSH1 0x0 DUP1 RETURNDATACOPY RETURNDATASIZE PUSH1 0x0 REVERT JUMPDEST POP POP POP POP PUSH1 0x40 MLOAD RETURNDATASIZE PUSH1 0x1F NOT PUSH1 0x1F DUP3 ADD AND DUP3 ADD DUP1 PUSH1 0x40 MSTORE POP DUP2 ADD SWAP1 PUSH2 0xBCE SWAP2 SWAP1 PUSH2 0x2090 JUMP JUMPDEST POP PUSH1 0x0 CALLER PUSH20 0xFFFFFFFFFFFFFFFFFFFFFFFFFFFFFFFFFFFFFFFF AND DUP6 PUSH1 0x40 MLOAD PUSH2 0xBF5 SWAP1 PUSH2 0x253E JUMP JUMPDEST PUSH1 0x0 PUSH1 0x40 MLOAD DUP1 DUP4 SUB DUP2 DUP6 DUP8 GAS CALL SWAP3 POP POP POP RETURNDATASIZE DUP1 PUSH1 0x0 DUP2 EQ PUSH2 0xC32 JUMPI PUSH1 0x40 MLOAD SWAP2 POP PUSH1 0x1F NOT PUSH1 0x3F RETURNDATASIZE ADD AND DUP3 ADD PUSH1 0x40 MSTORE RETURNDATASIZE DUP3 MSTORE RETURNDATASIZE PUSH1 0x0 PUSH1 0x20 DUP5 ADD RETURNDATACOPY PUSH2 0xC37 JUMP JUMPDEST PUSH1 0x60 SWAP2 POP JUMPDEST POP POP SWAP1 POP DUP1 PUSH2 0xC7B JUMPI PUSH1 0x40 MLOAD PUSH32 0x8C379A000000000000000000000000000000000000000000000000000000000 DUP2 MSTORE PUSH1 0x4 ADD PUSH2 0xC72 SWAP1 PUSH2 0x26CB JUMP JUMPDEST PUSH1 0x40 MLOAD DUP1 SWAP2 SUB SWAP1 REVERT JUMPDEST DUP6 CALLER PUSH20 0xFFFFFFFFFFFFFFFFFFFFFFFFFFFFFFFFFFFFFFFF AND PUSH32 0xD70CAA09595C8288801CA58A02FD0960EF4982B210B2B9BF88BD5344C27CC4E8 DUP5 PUSH1 0x40 MLOAD PUSH2 0xCC2 SWAP2 SWAP1 PUSH2 0x288B JUMP JUMPDEST PUSH1 0x40 MLOAD DUP1 SWAP2 SUB SWAP1 LOG3 POP POP POP POP POP POP JUMP JUMPDEST PUSH1 0x0 DUP1 PUSH1 0x0 DUP4 PUSH20 0xFFFFFFFFFFFFFFFFFFFFFFFFFFFFFFFFFFFFFFFF AND PUSH20 0xFFFFFFFFFFFFFFFFFFFFFFFFFFFFFFFFFFFFFFFF AND DUP2 MSTORE PUSH1 0x20 ADD SWAP1 DUP2 MSTORE PUSH1 0x20 ADD PUSH1 0x0 KECCAK256 SLOAD SWAP1 POP SWAP2 SWAP1 POP JUMP JUMPDEST PUSH1 0x60 PUSH1 0x4 DUP1 SLOAD PUSH2 0xD29 SWAP1 PUSH2 0x2AD7 JUMP JUMPDEST DUP1 PUSH1 0x1F ADD PUSH1 0x20 DUP1 SWAP2 DIV MUL PUSH1 0x20 ADD PUSH1 0x40 MLOAD SWAP1 DUP2 ADD PUSH1 0x40 MSTORE DUP1 SWAP3 SWAP2 SWAP1 DUP2 DUP2 MSTORE PUSH1 0x20 ADD DUP3 DUP1 SLOAD PUSH2 0xD55 SWAP1 PUSH2 0x2AD7 JUMP JUMPDEST DUP1 ISZERO PUSH2 0xDA2 JUMPI DUP1 PUSH1 0x1F LT PUSH2 0xD77 JUMPI PUSH2 0x100 DUP1 DUP4 SLOAD DIV MUL DUP4 MSTORE SWAP2 PUSH1 0x20 ADD SWAP2 PUSH2 0xDA2 JUMP JUMPDEST DUP3 ADD SWAP2 SWAP1 PUSH1 0x0 MSTORE PUSH1 0x20 PUSH1 0x0 KECCAK256 SWAP1 JUMPDEST DUP2 SLOAD DUP2 MSTORE SWAP1 PUSH1 0x1 ADD SWAP1 PUSH1 0x20 ADD DUP1 DUP4 GT PUSH2 0xD85 JUMPI DUP3 SWAP1 SUB PUSH1 0x1F AND DUP3 ADD SWAP2 JUMPDEST POP POP POP POP POP SWAP1 POP SWAP1 JUMP JUMPDEST PUSH1 0x6 PUSH1 0x0 SWAP1 SLOAD SWAP1 PUSH2 0x100 EXP SWAP1 DIV PUSH20 0xFFFFFFFFFFFFFFFFFFFFFFFFFFFFFFFFFFFFFFFF AND DUP2 JUMP JUMPDEST PUSH1 0x0 DUP1 PUSH1 0x0 DUP4 GT PUSH2 0xE18 JUMPI PUSH1 0x40 MLOAD PUSH32 0x8C379A000000000000000000000000000000000000000000000000000000000 DUP2 MSTORE PUSH1 0x4 ADD PUSH2 0xE0F SWAP1 PUSH2 0x276B JUMP JUMPDEST PUSH1 0x40 MLOAD DUP1 SWAP2 SUB SWAP1 REVERT JUMPDEST PUSH1 0x0 DUP1 PUSH2 0xE23 PUSH2 0x617 JUMP JUMPDEST SWAP2 POP SWAP2 POP PUSH2 0xE2F PUSH2 0x758 JUMP JUMPDEST DUP6 DUP3 PUSH2 0xE3B SWAP2 SWAP1 PUSH2 0x29C1 JUMP JUMPDEST PUSH2 0xE45 SWAP2 SWAP1 PUSH2 0x2990 JUMP JUMPDEST SWAP4 POP PUSH2 0xE4F PUSH2 0x758 JUMP JUMPDEST DUP6 DUP4 PUSH2 0xE5B SWAP2 SWAP1 PUSH2 0x29C1 JUMP JUMPDEST PUSH2 0xE65 SWAP2 SWAP1 PUSH2 0x2990 JUMP JUMPDEST SWAP3 POP PUSH2 0xE71 CALLER DUP7 PUSH2 0x1D19 JUMP JUMPDEST PUSH1 0x0 CALLER PUSH20 0xFFFFFFFFFFFFFFFFFFFFFFFFFFFFFFFFFFFFFFFF AND DUP6 PUSH1 0x40 MLOAD PUSH2 0xE97 SWAP1 PUSH2 0x253E JUMP JUMPDEST PUSH1 0x0 PUSH1 0x40 MLOAD DUP1 DUP4 SUB DUP2 DUP6 DUP8 GAS CALL SWAP3 POP POP POP RETURNDATASIZE DUP1 PUSH1 0x0 DUP2 EQ PUSH2 0xED4 JUMPI PUSH1 0x40 MLOAD SWAP2 POP PUSH1 0x1F NOT PUSH1 0x3F RETURNDATASIZE ADD AND DUP3 ADD PUSH1 0x40 MSTORE RETURNDATASIZE DUP3 MSTORE RETURNDATASIZE PUSH1 0x0 PUSH1 0x20 DUP5 ADD RETURNDATACOPY PUSH2 0xED9 JUMP JUMPDEST PUSH1 0x60 SWAP2 POP JUMPDEST POP POP SWAP1 POP DUP1 PUSH2 0xF1D JUMPI PUSH1 0x40 MLOAD PUSH32 0x8C379A000000000000000000000000000000000000000000000000000000000 DUP2 MSTORE PUSH1 0x4 ADD PUSH2 0xF14 SWAP1 PUSH2 0x27EB JUMP JUMPDEST PUSH1 0x40 MLOAD DUP1 SWAP2 SUB SWAP1 REVERT JUMPDEST PUSH1 0x5 PUSH1 0x0 SWAP1 SLOAD SWAP1 PUSH2 0x100 EXP SWAP1 DIV PUSH20 0xFFFFFFFFFFFFFFFFFFFFFFFFFFFFFFFFFFFFFFFF AND PUSH20 0xFFFFFFFFFFFFFFFFFFFFFFFFFFFFFFFFFFFFFFFF AND PUSH4 0xA9059CBB CALLER DUP7 PUSH1 0x40 MLOAD DUP4 PUSH4 0xFFFFFFFF AND PUSH1 0xE0 SHL DUP2 MSTORE PUSH1 0x4 ADD PUSH2 0xF7A SWAP3 SWAP2 SWAP1 PUSH2 0x25A5 JUMP JUMPDEST PUSH1 0x20 PUSH1 0x40 MLOAD DUP1 DUP4 SUB DUP2 PUSH1 0x0 DUP8 DUP1 EXTCODESIZE ISZERO DUP1 ISZERO PUSH2 0xF94 JUMPI PUSH1 0x0 DUP1 REVERT JUMPDEST POP GAS CALL ISZERO DUP1 ISZERO PUSH2 0xFA8 JUMPI RETURNDATASIZE PUSH1 0x0 DUP1 RETURNDATACOPY RETURNDATASIZE PUSH1 0x0 REVERT JUMPDEST POP POP POP POP PUSH1 0x40 MLOAD RETURNDATASIZE PUSH1 0x1F NOT PUSH1 0x1F DUP3 ADD AND DUP3 ADD DUP1 PUSH1 0x40 MSTORE POP DUP2 ADD SWAP1 PUSH2 0xFCC SWAP2 SWAP1 PUSH2 0x2090 JUMP JUMPDEST POP DUP4 DUP6 CALLER PUSH20 0xFFFFFFFFFFFFFFFFFFFFFFFFFFFFFFFFFFFFFFFF AND PUSH32 0xFBF06C058B90CB038A618F8C2ACBF6145F8B3570FD1FA56ABB8F0F3F05B36E8 PUSH1 0x40 MLOAD PUSH1 0x40 MLOAD DUP1 SWAP2 SUB SWAP1 LOG4 POP POP POP SWAP2 POP SWAP2 JUMP JUMPDEST PUSH1 0x5 PUSH1 0x0 SWAP1 SLOAD SWAP1 PUSH2 0x100 EXP SWAP1 DIV PUSH20 0xFFFFFFFFFFFFFFFFFFFFFFFFFFFFFFFFFFFFFFFF AND DUP2 JUMP JUMPDEST PUSH1 0x0 DUP1 PUSH2 0x104B PUSH2 0x14C1 JUMP JUMPDEST SWAP1 POP PUSH1 0x0 PUSH2 0x1059 DUP3 DUP7 PUSH2 0x10DA JUMP JUMPDEST SWAP1 POP DUP4 DUP2 LT ISZERO PUSH2 0x109E JUMPI PUSH1 0x40 MLOAD PUSH32 0x8C379A000000000000000000000000000000000000000000000000000000000 DUP2 MSTORE PUSH1 0x4 ADD PUSH2 0x1095 SWAP1 PUSH2 0x284B JUMP JUMPDEST PUSH1 0x40 MLOAD DUP1 SWAP2 SUB SWAP1 REVERT JUMPDEST PUSH2 0x10AB DUP3 DUP7 DUP7 DUP5 SUB PUSH2 0x14C9 JUMP JUMPDEST PUSH1 0x1 SWAP3 POP POP POP SWAP3 SWAP2 POP POP JUMP JUMPDEST PUSH1 0x0 DUP1 PUSH2 0x10C2 PUSH2 0x14C1 JUMP JUMPDEST SWAP1 POP PUSH2 0x10CF DUP2 DUP6 DUP6 PUSH2 0x17C6 JUMP JUMPDEST PUSH1 0x1 SWAP2 POP POP SWAP3 SWAP2 POP POP JUMP JUMPDEST PUSH1 0x0 PUSH1 0x1 PUSH1 0x0 DUP5 PUSH20 0xFFFFFFFFFFFFFFFFFFFFFFFFFFFFFFFFFFFFFFFF AND PUSH20 0xFFFFFFFFFFFFFFFFFFFFFFFFFFFFFFFFFFFFFFFF AND DUP2 MSTORE PUSH1 0x20 ADD SWAP1 DUP2 MSTORE PUSH1 0x20 ADD PUSH1 0x0 KECCAK256 PUSH1 0x0 DUP4 PUSH20 0xFFFFFFFFFFFFFFFFFFFFFFFFFFFFFFFFFFFFFFFF AND PUSH20 0xFFFFFFFFFFFFFFFFFFFFFFFFFFFFFFFFFFFFFFFF AND DUP2 MSTORE PUSH1 0x20 ADD SWAP1 DUP2 MSTORE PUSH1 0x20 ADD PUSH1 0x0 KECCAK256 SLOAD SWAP1 POP SWAP3 SWAP2 POP POP JUMP JUMPDEST PUSH1 0x0 PUSH20 0xFFFFFFFFFFFFFFFFFFFFFFFFFFFFFFFFFFFFFFFF AND DUP2 PUSH20 0xFFFFFFFFFFFFFFFFFFFFFFFFFFFFFFFFFFFFFFFF AND EQ ISZERO PUSH2 0x11D1 JUMPI PUSH1 0x40 MLOAD PUSH32 0x8C379A000000000000000000000000000000000000000000000000000000000 DUP2 MSTORE PUSH1 0x4 ADD PUSH2 0x11C8 SWAP1 PUSH2 0x270B JUMP JUMPDEST PUSH1 0x40 MLOAD DUP1 SWAP2 SUB SWAP1 REVERT JUMPDEST PUSH1 0x0 DUP4 GT PUSH2 0x1214 JUMPI PUSH1 0x40 MLOAD PUSH32 0x8C379A000000000000000000000000000000000000000000000000000000000 DUP2 MSTORE PUSH1 0x4 ADD PUSH2 0x120B SWAP1 PUSH2 0x26EB JUMP JUMPDEST PUSH1 0x40 MLOAD DUP1 SWAP2 SUB SWAP1 REVERT JUMPDEST PUSH1 0x0 PUSH1 0x6 PUSH1 0x0 SWAP1 SLOAD SWAP1 PUSH2 0x100 EXP SWAP1 DIV PUSH20 0xFFFFFFFFFFFFFFFFFFFFFFFFFFFFFFFFFFFFFFFF AND PUSH20 0xFFFFFFFFFFFFFFFFFFFFFFFFFFFFFFFFFFFFFFFF AND PUSH4 0x1A788A02 DUP4 PUSH1 0x40 MLOAD DUP3 PUSH4 0xFFFFFFFF AND PUSH1 0xE0 SHL DUP2 MSTORE PUSH1 0x4 ADD PUSH2 0x1271 SWAP2 SWAP1 PUSH2 0x2553 JUMP JUMPDEST PUSH1 0x20 PUSH1 0x40 MLOAD DUP1 DUP4 SUB DUP2 PUSH1 0x0 DUP8 DUP1 EXTCODESIZE ISZERO DUP1 ISZERO PUSH2 0x128B JUMPI PUSH1 0x0 DUP1 REVERT JUMPDEST POP GAS CALL ISZERO DUP1 ISZERO PUSH2 0x129F JUMPI RETURNDATASIZE PUSH1 0x0 DUP1 RETURNDATACOPY RETURNDATASIZE PUSH1 0x0 REVERT JUMPDEST POP POP POP POP PUSH1 0x40 MLOAD RETURNDATASIZE PUSH1 0x1F NOT PUSH1 0x1F DUP3 ADD AND DUP3 ADD DUP1 PUSH1 0x40 MSTORE POP DUP2 ADD SWAP1 PUSH2 0x12C3 SWAP2 SWAP1 PUSH2 0x1F90 JUMP JUMPDEST SWAP1 POP ADDRESS PUSH20 0xFFFFFFFFFFFFFFFFFFFFFFFFFFFFFFFFFFFFFFFF AND DUP2 PUSH20 0xFFFFFFFFFFFFFFFFFFFFFFFFFFFFFFFFFFFFFFFF AND EQ ISZERO DUP1 ISZERO PUSH2 0x132E JUMPI POP PUSH1 0x0 PUSH20 0xFFFFFFFFFFFFFFFFFFFFFFFFFFFFFFFFFFFFFFFF AND DUP2 PUSH20 0xFFFFFFFFFFFFFFFFFFFFFFFFFFFFFFFFFFFFFFFF AND EQ ISZERO JUMPDEST PUSH2 0x136D JUMPI PUSH1 0x40 MLOAD PUSH32 0x8C379A000000000000000000000000000000000000000000000000000000000 DUP2 MSTORE PUSH1 0x4 ADD PUSH2 0x1364 SWAP1 PUSH2 0x274B JUMP JUMPDEST PUSH1 0x40 MLOAD DUP1 SWAP2 SUB SWAP1 REVERT JUMPDEST PUSH1 0x0 DUP1 PUSH2 0x1378 PUSH2 0x617 JUMP JUMPDEST SWAP2 POP SWAP2 POP PUSH1 0x0 PUSH2 0x1389 DUP8 DUP5 DUP5 PUSH2 0x1694 JUMP JUMPDEST SWAP1 POP PUSH1 0x5 PUSH1 0x0 SWAP1 SLOAD SWAP1 PUSH2 0x100 EXP SWAP1 DIV PUSH20 0xFFFFFFFFFFFFFFFFFFFFFFFFFFFFFFFFFFFFFFFF AND PUSH20 0xFFFFFFFFFFFFFFFFFFFFFFFFFFFFFFFFFFFFFFFF AND PUSH4 0x23B872DD CALLER ADDRESS DUP11 PUSH1 0x40 MLOAD DUP5 PUSH4 0xFFFFFFFF AND PUSH1 0xE0 SHL DUP2 MSTORE PUSH1 0x4 ADD PUSH2 0x13EA SWAP4 SWAP3 SWAP2 SWAP1 PUSH2 0x256E JUMP JUMPDEST PUSH1 0x20 PUSH1 0x40 MLOAD DUP1 DUP4 SUB DUP2 PUSH1 0x0 DUP8 DUP1 EXTCODESIZE ISZERO DUP1 ISZERO PUSH2 0x1404 JUMPI PUSH1 0x0 DUP1 REVERT JUMPDEST POP GAS CALL ISZERO DUP1 ISZERO PUSH2 0x1418 JUMPI RETURNDATASIZE PUSH1 0x0 DUP1 RETURNDATACOPY RETURNDATASIZE PUSH1 0x0 REVERT JUMPDEST POP POP POP POP PUSH1 0x40 MLOAD RETURNDATASIZE PUSH1 0x1F NOT PUSH1 0x1F DUP3 ADD AND DUP3 ADD DUP1 PUSH1 0x40 MSTORE POP DUP2 ADD SWAP1 PUSH2 0x143C SWAP2 SWAP1 PUSH2 0x2090 JUMP JUMPDEST POP DUP4 PUSH20 0xFFFFFFFFFFFFFFFFFFFFFFFFFFFFFFFFFFFFFFFF AND PUSH4 0x389D9A40 DUP3 DUP9 CALLER PUSH1 0x40 MLOAD DUP5 PUSH4 0xFFFFFFFF AND PUSH1 0xE0 SHL DUP2 MSTORE PUSH1 0x4 ADD PUSH2 0x1479 SWAP3 SWAP2 SWAP1 PUSH2 0x28A6 JUMP JUMPDEST PUSH1 0x0 PUSH1 0x40 MLOAD DUP1 DUP4 SUB DUP2 DUP6 DUP9 DUP1 EXTCODESIZE ISZERO DUP1 ISZERO PUSH2 0x1492 JUMPI PUSH1 0x0 DUP1 REVERT JUMPDEST POP GAS CALL ISZERO DUP1 ISZERO PUSH2 0x14A6 JUMPI RETURNDATASIZE PUSH1 0x0 DUP1 RETURNDATACOPY RETURNDATASIZE PUSH1 0x0 REVERT JUMPDEST POP POP POP POP POP POP POP POP POP POP POP POP JUMP JUMPDEST PUSH2 0x14BE DUP2 CALLER PUSH2 0x1A47 JUMP JUMPDEST POP JUMP JUMPDEST PUSH1 0x0 CALLER SWAP1 POP SWAP1 JUMP JUMPDEST PUSH1 0x0 PUSH20 0xFFFFFFFFFFFFFFFFFFFFFFFFFFFFFFFFFFFFFFFF AND DUP4 PUSH20 0xFFFFFFFFFFFFFFFFFFFFFFFFFFFFFFFFFFFFFFFF AND EQ ISZERO PUSH2 0x1539 JUMPI PUSH1 0x40 MLOAD PUSH32 0x8C379A000000000000000000000000000000000000000000000000000000000 DUP2 MSTORE PUSH1 0x4 ADD PUSH2 0x1530 SWAP1 PUSH2 0x282B JUMP JUMPDEST PUSH1 0x40 MLOAD DUP1 SWAP2 SUB SWAP1 REVERT JUMPDEST PUSH1 0x0 PUSH20 0xFFFFFFFFFFFFFFFFFFFFFFFFFFFFFFFFFFFFFFFF AND DUP3 PUSH20 0xFFFFFFFFFFFFFFFFFFFFFFFFFFFFFFFFFFFFFFFF AND EQ ISZERO PUSH2 0x15A9 JUMPI PUSH1 0x40 MLOAD PUSH32 0x8C379A000000000000000000000000000000000000000000000000000000000 DUP2 MSTORE PUSH1 0x4 ADD PUSH2 0x15A0 SWAP1 PUSH2 0x264B JUMP JUMPDEST PUSH1 0x40 MLOAD DUP1 SWAP2 SUB SWAP1 REVERT JUMPDEST DUP1 PUSH1 0x1 PUSH1 0x0 DUP6 PUSH20 0xFFFFFFFFFFFFFFFFFFFFFFFFFFFFFFFFFFFFFFFF AND PUSH20 0xFFFFFFFFFFFFFFFFFFFFFFFFFFFFFFFFFFFFFFFF AND DUP2 MSTORE PUSH1 0x20 ADD SWAP1 DUP2 MSTORE PUSH1 0x20 ADD PUSH1 0x0 KECCAK256 PUSH1 0x0 DUP5 PUSH20 0xFFFFFFFFFFFFFFFFFFFFFFFFFFFFFFFFFFFFFFFF AND PUSH20 0xFFFFFFFFFFFFFFFFFFFFFFFFFFFFFFFFFFFFFFFF AND DUP2 MSTORE PUSH1 0x20 ADD SWAP1 DUP2 MSTORE PUSH1 0x20 ADD PUSH1 0x0 KECCAK256 DUP2 SWAP1 SSTORE POP DUP2 PUSH20 0xFFFFFFFFFFFFFFFFFFFFFFFFFFFFFFFFFFFFFFFF AND DUP4 PUSH20 0xFFFFFFFFFFFFFFFFFFFFFFFFFFFFFFFFFFFFFFFF AND PUSH32 0x8C5BE1E5EBEC7D5BD14F71427D1E84F3DD0314C0F7B2291E5B200AC8C7C3B925 DUP4 PUSH1 0x40 MLOAD PUSH2 0x1687 SWAP2 SWAP1 PUSH2 0x288B JUMP JUMPDEST PUSH1 0x40 MLOAD DUP1 SWAP2 SUB SWAP1 LOG3 POP POP POP JUMP JUMPDEST PUSH1 0x0 DUP1 DUP4 GT DUP1 ISZERO PUSH2 0x16A5 JUMPI POP PUSH1 0x0 DUP3 GT JUMPDEST PUSH2 0x16E4 JUMPI PUSH1 0x40 MLOAD PUSH32 0x8C379A000000000000000000000000000000000000000000000000000000000 DUP2 MSTORE PUSH1 0x4 ADD PUSH2 0x16DB SWAP1 PUSH2 0x280B JUMP JUMPDEST PUSH1 0x40 MLOAD DUP1 SWAP2 SUB SWAP1 REVERT JUMPDEST PUSH1 0x0 DUP1 PUSH2 0x3E8 PUSH2 0x16F4 SWAP2 SWAP1 PUSH2 0x2A1B JUMP JUMPDEST DUP6 PUSH2 0x16FF SWAP2 SWAP1 PUSH2 0x29C1 JUMP JUMPDEST SWAP1 POP DUP1 DUP5 PUSH2 0x3E8 PUSH2 0x1710 SWAP2 SWAP1 PUSH2 0x29C1 JUMP JUMPDEST PUSH2 0x171A SWAP2 SWAP1 PUSH2 0x293A JUMP JUMPDEST DUP4 DUP3 PUSH2 0x1726 SWAP2 SWAP1 PUSH2 0x29C1 JUMP JUMPDEST PUSH2 0x1730 SWAP2 SWAP1 PUSH2 0x2990 JUMP JUMPDEST SWAP2 POP POP SWAP4 SWAP3 POP POP POP JUMP JUMPDEST PUSH1 0x0 PUSH2 0x1746 DUP5 DUP5 PUSH2 0x10DA JUMP JUMPDEST SWAP1 POP PUSH32 0xFFFFFFFFFFFFFFFFFFFFFFFFFFFFFFFFFFFFFFFFFFFFFFFFFFFFFFFFFFFFFFFF DUP2 EQ PUSH2 0x17C0 JUMPI DUP2 DUP2 LT ISZERO PUSH2 0x17B2 JUMPI PUSH1 0x40 MLOAD PUSH32 0x8C379A000000000000000000000000000000000000000000000000000000000 DUP2 MSTORE PUSH1 0x4 ADD PUSH2 0x17A9 SWAP1 PUSH2 0x268B JUMP JUMPDEST PUSH1 0x40 MLOAD DUP1 SWAP2 SUB SWAP1 REVERT JUMPDEST PUSH2 0x17BF DUP5 DUP5 DUP5 DUP5 SUB PUSH2 0x14C9 JUMP JUMPDEST JUMPDEST POP POP POP POP JUMP JUMPDEST PUSH1 0x0 PUSH20 0xFFFFFFFFFFFFFFFFFFFFFFFFFFFFFFFFFFFFFFFF AND DUP4 PUSH20 0xFFFFFFFFFFFFFFFFFFFFFFFFFFFFFFFFFFFFFFFF AND EQ ISZERO PUSH2 0x1836 JUMPI PUSH1 0x40 MLOAD PUSH32 0x8C379A000000000000000000000000000000000000000000000000000000000 DUP2 MSTORE PUSH1 0x4 ADD PUSH2 0x182D SWAP1 PUSH2 0x27CB JUMP JUMPDEST PUSH1 0x40 MLOAD DUP1 SWAP2 SUB SWAP1 REVERT JUMPDEST PUSH1 0x0 PUSH20 0xFFFFFFFFFFFFFFFFFFFFFFFFFFFFFFFFFFFFFFFF AND DUP3 PUSH20 0xFFFFFFFFFFFFFFFFFFFFFFFFFFFFFFFFFFFFFFFF AND EQ ISZERO PUSH2 0x18A6 JUMPI PUSH1 0x40 MLOAD PUSH32 0x8C379A000000000000000000000000000000000000000000000000000000000 DUP2 MSTORE PUSH1 0x4 ADD PUSH2 0x189D SWAP1 PUSH2 0x260B JUMP JUMPDEST PUSH1 0x40 MLOAD DUP1 SWAP2 SUB SWAP1 REVERT JUMPDEST PUSH2 0x18B1 DUP4 DUP4 DUP4 PUSH2 0x1EF0 JUMP JUMPDEST PUSH1 0x0 DUP1 PUSH1 0x0 DUP6 PUSH20 0xFFFFFFFFFFFFFFFFFFFFFFFFFFFFFFFFFFFFFFFF AND PUSH20 0xFFFFFFFFFFFFFFFFFFFFFFFFFFFFFFFFFFFFFFFF AND DUP2 MSTORE PUSH1 0x20 ADD SWAP1 DUP2 MSTORE PUSH1 0x20 ADD PUSH1 0x0 KECCAK256 SLOAD SWAP1 POP DUP2 DUP2 LT ISZERO PUSH2 0x1937 JUMPI PUSH1 0x40 MLOAD PUSH32 0x8C379A000000000000000000000000000000000000000000000000000000000 DUP2 MSTORE PUSH1 0x4 ADD PUSH2 0x192E SWAP1 PUSH2 0x26AB JUMP JUMPDEST PUSH1 0x40 MLOAD DUP1 SWAP2 SUB SWAP1 REVERT JUMPDEST DUP2 DUP2 SUB PUSH1 0x0 DUP1 DUP7 PUSH20 0xFFFFFFFFFFFFFFFFFFFFFFFFFFFFFFFFFFFFFFFF AND PUSH20 0xFFFFFFFFFFFFFFFFFFFFFFFFFFFFFFFFFFFFFFFF AND DUP2 MSTORE PUSH1 0x20 ADD SWAP1 DUP2 MSTORE PUSH1 0x20 ADD PUSH1 0x0 KECCAK256 DUP2 SWAP1 SSTORE POP DUP2 PUSH1 0x0 DUP1 DUP6 PUSH20 0xFFFFFFFFFFFFFFFFFFFFFFFFFFFFFFFFFFFFFFFF AND PUSH20 0xFFFFFFFFFFFFFFFFFFFFFFFFFFFFFFFFFFFFFFFF AND DUP2 MSTORE PUSH1 0x20 ADD SWAP1 DUP2 MSTORE PUSH1 0x20 ADD PUSH1 0x0 KECCAK256 PUSH1 0x0 DUP3 DUP3 SLOAD PUSH2 0x19CA SWAP2 SWAP1 PUSH2 0x293A JUMP JUMPDEST SWAP3 POP POP DUP2 SWAP1 SSTORE POP DUP3 PUSH20 0xFFFFFFFFFFFFFFFFFFFFFFFFFFFFFFFFFFFFFFFF AND DUP5 PUSH20 0xFFFFFFFFFFFFFFFFFFFFFFFFFFFFFFFFFFFFFFFF AND PUSH32 0xDDF252AD1BE2C89B69C2B068FC378DAA952BA7F163C4A11628F55A4DF523B3EF DUP5 PUSH1 0x40 MLOAD PUSH2 0x1A2E SWAP2 SWAP1 PUSH2 0x288B JUMP JUMPDEST PUSH1 0x40 MLOAD DUP1 SWAP2 SUB SWAP1 LOG3 PUSH2 0x1A41 DUP5 DUP5 DUP5 PUSH2 0x1EF5 JUMP JUMPDEST POP POP POP POP JUMP JUMPDEST PUSH1 0x0 DUP1 PUSH2 0x1A52 PUSH2 0x617 JUMP JUMPDEST SWAP2 POP SWAP2 POP PUSH1 0x0 PUSH2 0x1A6E CALLVALUE CALLVALUE DUP5 PUSH2 0x1A68 SWAP2 SWAP1 PUSH2 0x2A1B JUMP JUMPDEST DUP6 PUSH2 0x1694 JUMP JUMPDEST SWAP1 POP DUP5 DUP2 LT ISZERO PUSH2 0x1AB3 JUMPI PUSH1 0x40 MLOAD PUSH32 0x8C379A000000000000000000000000000000000000000000000000000000000 DUP2 MSTORE PUSH1 0x4 ADD PUSH2 0x1AAA SWAP1 PUSH2 0x272B JUMP JUMPDEST PUSH1 0x40 MLOAD DUP1 SWAP2 SUB SWAP1 REVERT JUMPDEST PUSH1 0x5 PUSH1 0x0 SWAP1 SLOAD SWAP1 PUSH2 0x100 EXP SWAP1 DIV PUSH20 0xFFFFFFFFFFFFFFFFFFFFFFFFFFFFFFFFFFFFFFFF AND PUSH20 0xFFFFFFFFFFFFFFFFFFFFFFFFFFFFFFFFFFFFFFFF AND PUSH4 0xA9059CBB DUP6 DUP4 PUSH1 0x40 MLOAD DUP4 PUSH4 0xFFFFFFFF AND PUSH1 0xE0 SHL DUP2 MSTORE PUSH1 0x4 ADD PUSH2 0x1B10 SWAP3 SWAP2 SWAP1 PUSH2 0x25A5 JUMP JUMPDEST PUSH1 0x20 PUSH1 0x40 MLOAD DUP1 DUP4 SUB DUP2 PUSH1 0x0 DUP8 DUP1 EXTCODESIZE ISZERO DUP1 ISZERO PUSH2 0x1B2A JUMPI PUSH1 0x0 DUP1 REVERT JUMPDEST POP GAS CALL ISZERO DUP1 ISZERO PUSH2 0x1B3E JUMPI RETURNDATASIZE PUSH1 0x0 DUP1 RETURNDATACOPY RETURNDATASIZE PUSH1 0x0 REVERT JUMPDEST POP POP POP POP PUSH1 0x40 MLOAD RETURNDATASIZE PUSH1 0x1F NOT PUSH1 0x1F DUP3 ADD AND DUP3 ADD DUP1 PUSH1 0x40 MSTORE POP DUP2 ADD SWAP1 PUSH2 0x1B62 SWAP2 SWAP1 PUSH2 0x2090 JUMP JUMPDEST POP CALLVALUE DUP5 PUSH20 0xFFFFFFFFFFFFFFFFFFFFFFFFFFFFFFFFFFFFFFFF AND PUSH32 0x2AD51A6B79C1A35468E5CC340EF09004400E337E1D1149AAB02294FDB7F8F055 DUP4 PUSH1 0x40 MLOAD PUSH2 0x1BAA SWAP2 SWAP1 PUSH2 0x288B JUMP JUMPDEST PUSH1 0x40 MLOAD DUP1 SWAP2 SUB SWAP1 LOG3 POP POP POP POP POP JUMP JUMPDEST PUSH1 0x0 PUSH20 0xFFFFFFFFFFFFFFFFFFFFFFFFFFFFFFFFFFFFFFFF AND DUP3 PUSH20 0xFFFFFFFFFFFFFFFFFFFFFFFFFFFFFFFFFFFFFFFF AND EQ ISZERO PUSH2 0x1C29 JUMPI PUSH1 0x40 MLOAD PUSH32 0x8C379A000000000000000000000000000000000000000000000000000000000 DUP2 MSTORE PUSH1 0x4 ADD PUSH2 0x1C20 SWAP1 PUSH2 0x286B JUMP JUMPDEST PUSH1 0x40 MLOAD DUP1 SWAP2 SUB SWAP1 REVERT JUMPDEST PUSH2 0x1C35 PUSH1 0x0 DUP4 DUP4 PUSH2 0x1EF0 JUMP JUMPDEST DUP1 PUSH1 0x2 PUSH1 0x0 DUP3 DUP3 SLOAD PUSH2 0x1C47 SWAP2 SWAP1 PUSH2 0x293A JUMP JUMPDEST SWAP3 POP POP DUP2 SWAP1 SSTORE POP DUP1 PUSH1 0x0 DUP1 DUP5 PUSH20 0xFFFFFFFFFFFFFFFFFFFFFFFFFFFFFFFFFFFFFFFF AND PUSH20 0xFFFFFFFFFFFFFFFFFFFFFFFFFFFFFFFFFFFFFFFF AND DUP2 MSTORE PUSH1 0x20 ADD SWAP1 DUP2 MSTORE PUSH1 0x20 ADD PUSH1 0x0 KECCAK256 PUSH1 0x0 DUP3 DUP3 SLOAD PUSH2 0x1C9C SWAP2 SWAP1 PUSH2 0x293A JUMP JUMPDEST SWAP3 POP POP DUP2 SWAP1 SSTORE POP DUP2 PUSH20 0xFFFFFFFFFFFFFFFFFFFFFFFFFFFFFFFFFFFFFFFF AND PUSH1 0x0 PUSH20 0xFFFFFFFFFFFFFFFFFFFFFFFFFFFFFFFFFFFFFFFF AND PUSH32 0xDDF252AD1BE2C89B69C2B068FC378DAA952BA7F163C4A11628F55A4DF523B3EF DUP4 PUSH1 0x40 MLOAD PUSH2 0x1D01 SWAP2 SWAP1 PUSH2 0x288B JUMP JUMPDEST PUSH1 0x40 MLOAD DUP1 SWAP2 SUB SWAP1 LOG3 PUSH2 0x1D15 PUSH1 0x0 DUP4 DUP4 PUSH2 0x1EF5 JUMP JUMPDEST POP POP JUMP JUMPDEST PUSH1 0x0 PUSH20 0xFFFFFFFFFFFFFFFFFFFFFFFFFFFFFFFFFFFFFFFF AND DUP3 PUSH20 0xFFFFFFFFFFFFFFFFFFFFFFFFFFFFFFFFFFFFFFFF AND EQ ISZERO PUSH2 0x1D89 JUMPI PUSH1 0x40 MLOAD PUSH32 0x8C379A000000000000000000000000000000000000000000000000000000000 DUP2 MSTORE PUSH1 0x4 ADD PUSH2 0x1D80 SWAP1 PUSH2 0x278B JUMP JUMPDEST PUSH1 0x40 MLOAD DUP1 SWAP2 SUB SWAP1 REVERT JUMPDEST PUSH2 0x1D95 DUP3 PUSH1 0x0 DUP4 PUSH2 0x1EF0 JUMP JUMPDEST PUSH1 0x0 DUP1 PUSH1 0x0 DUP5 PUSH20 0xFFFFFFFFFFFFFFFFFFFFFFFFFFFFFFFFFFFFFFFF AND PUSH20 0xFFFFFFFFFFFFFFFFFFFFFFFFFFFFFFFFFFFFFFFF AND DUP2 MSTORE PUSH1 0x20 ADD SWAP1 DUP2 MSTORE PUSH1 0x20 ADD PUSH1 0x0 KECCAK256 SLOAD SWAP1 POP DUP2 DUP2 LT ISZERO PUSH2 0x1E1B JUMPI PUSH1 0x40 MLOAD PUSH32 0x8C379A000000000000000000000000000000000000000000000000000000000 DUP2 MSTORE PUSH1 0x4 ADD PUSH2 0x1E12 SWAP1 PUSH2 0x262B JUMP JUMPDEST PUSH1 0x40 MLOAD DUP1 SWAP2 SUB SWAP1 REVERT JUMPDEST DUP2 DUP2 SUB PUSH1 0x0 DUP1 DUP6 PUSH20 0xFFFFFFFFFFFFFFFFFFFFFFFFFFFFFFFFFFFFFFFF AND PUSH20 0xFFFFFFFFFFFFFFFFFFFFFFFFFFFFFFFFFFFFFFFF AND DUP2 MSTORE PUSH1 0x20 ADD SWAP1 DUP2 MSTORE PUSH1 0x20 ADD PUSH1 0x0 KECCAK256 DUP2 SWAP1 SSTORE POP DUP2 PUSH1 0x2 PUSH1 0x0 DUP3 DUP3 SLOAD PUSH2 0x1E72 SWAP2 SWAP1 PUSH2 0x2A1B JUMP JUMPDEST SWAP3 POP POP DUP2 SWAP1 SSTORE POP PUSH1 0x0 PUSH20 0xFFFFFFFFFFFFFFFFFFFFFFFFFFFFFFFFFFFFFFFF AND DUP4 PUSH20 0xFFFFFFFFFFFFFFFFFFFFFFFFFFFFFFFFFFFFFFFF AND PUSH32 0xDDF252AD1BE2C89B69C2B068FC378DAA952BA7F163C4A11628F55A4DF523B3EF DUP5 PUSH1 0x40 MLOAD PUSH2 0x1ED7 SWAP2 SWAP1 PUSH2 0x288B JUMP JUMPDEST PUSH1 0x40 MLOAD DUP1 SWAP2 SUB SWAP1 LOG3 PUSH2 0x1EEB DUP4 PUSH1 0x0 DUP5 PUSH2 0x1EF5 JUMP JUMPDEST POP POP POP JUMP JUMPDEST POP POP POP JUMP JUMPDEST POP POP POP JUMP JUMPDEST PUSH1 0x0 DUP2 CALLDATALOAD SWAP1 POP PUSH2 0x1F09 DUP2 PUSH2 0x30F7 JUMP JUMPDEST SWAP3 SWAP2 POP POP JUMP JUMPDEST PUSH1 0x0 DUP2 MLOAD SWAP1 POP PUSH2 0x1F1E DUP2 PUSH2 0x30F7 JUMP JUMPDEST SWAP3 SWAP2 POP POP JUMP JUMPDEST PUSH1 0x0 DUP2 MLOAD SWAP1 POP PUSH2 0x1F33 DUP2 PUSH2 0x310E JUMP JUMPDEST SWAP3 SWAP2 POP POP JUMP JUMPDEST PUSH1 0x0 DUP2 CALLDATALOAD SWAP1 POP PUSH2 0x1F48 DUP2 PUSH2 0x3125 JUMP JUMPDEST SWAP3 SWAP2 POP POP JUMP JUMPDEST PUSH1 0x0 DUP2 MLOAD SWAP1 POP PUSH2 0x1F5D DUP2 PUSH2 0x3125 JUMP JUMPDEST SWAP3 SWAP2 POP POP JUMP JUMPDEST PUSH1 0x0 PUSH1 0x20 DUP3 DUP5 SUB SLT ISZERO PUSH2 0x1F79 JUMPI PUSH2 0x1F78 PUSH2 0x2B96 JUMP JUMPDEST JUMPDEST PUSH1 0x0 PUSH2 0x1F87 DUP5 DUP3 DUP6 ADD PUSH2 0x1EFA JUMP JUMPDEST SWAP2 POP POP SWAP3 SWAP2 POP POP JUMP JUMPDEST PUSH1 0x0 PUSH1 0x20 DUP3 DUP5 SUB SLT ISZERO PUSH2 0x1FA6 JUMPI PUSH2 0x1FA5 PUSH2 0x2B96 JUMP JUMPDEST JUMPDEST PUSH1 0x0 PUSH2 0x1FB4 DUP5 DUP3 DUP6 ADD PUSH2 0x1F0F JUMP JUMPDEST SWAP2 POP POP SWAP3 SWAP2 POP POP JUMP JUMPDEST PUSH1 0x0 DUP1 PUSH1 0x40 DUP4 DUP6 SUB SLT ISZERO PUSH2 0x1FD4 JUMPI PUSH2 0x1FD3 PUSH2 0x2B96 JUMP JUMPDEST JUMPDEST PUSH1 0x0 PUSH2 0x1FE2 DUP6 DUP3 DUP7 ADD PUSH2 0x1EFA JUMP JUMPDEST SWAP3 POP POP PUSH1 0x20 PUSH2 0x1FF3 DUP6 DUP3 DUP7 ADD PUSH2 0x1EFA JUMP JUMPDEST SWAP2 POP POP SWAP3 POP SWAP3 SWAP1 POP JUMP JUMPDEST PUSH1 0x0 DUP1 PUSH1 0x0 PUSH1 0x60 DUP5 DUP7 SUB SLT ISZERO PUSH2 0x2016 JUMPI PUSH2 0x2015 PUSH2 0x2B96 JUMP JUMPDEST JUMPDEST PUSH1 0x0 PUSH2 0x2024 DUP7 DUP3 DUP8 ADD PUSH2 0x1EFA JUMP JUMPDEST SWAP4 POP POP PUSH1 0x20 PUSH2 0x2035 DUP7 DUP3 DUP8 ADD PUSH2 0x1EFA JUMP JUMPDEST SWAP3 POP POP PUSH1 0x40 PUSH2 0x2046 DUP7 DUP3 DUP8 ADD PUSH2 0x1F39 JUMP JUMPDEST SWAP2 POP POP SWAP3 POP SWAP3 POP SWAP3 JUMP JUMPDEST PUSH1 0x0 DUP1 PUSH1 0x40 DUP4 DUP6 SUB SLT ISZERO PUSH2 0x2067 JUMPI PUSH2 0x2066 PUSH2 0x2B96 JUMP JUMPDEST JUMPDEST PUSH1 0x0 PUSH2 0x2075 DUP6 DUP3 DUP7 ADD PUSH2 0x1EFA JUMP JUMPDEST SWAP3 POP POP PUSH1 0x20 PUSH2 0x2086 DUP6 DUP3 DUP7 ADD PUSH2 0x1F39 JUMP JUMPDEST SWAP2 POP POP SWAP3 POP SWAP3 SWAP1 POP JUMP JUMPDEST PUSH1 0x0 PUSH1 0x20 DUP3 DUP5 SUB SLT ISZERO PUSH2 0x20A6 JUMPI PUSH2 0x20A5 PUSH2 0x2B96 JUMP JUMPDEST JUMPDEST PUSH1 0x0 PUSH2 0x20B4 DUP5 DUP3 DUP6 ADD PUSH2 0x1F24 JUMP JUMPDEST SWAP2 POP POP SWAP3 SWAP2 POP POP JUMP JUMPDEST PUSH1 0x0 PUSH1 0x20 DUP3 DUP5 SUB SLT ISZERO PUSH2 0x20D3 JUMPI PUSH2 0x20D2 PUSH2 0x2B96 JUMP JUMPDEST JUMPDEST PUSH1 0x0 PUSH2 0x20E1 DUP5 DUP3 DUP6 ADD PUSH2 0x1F39 JUMP JUMPDEST SWAP2 POP POP SWAP3 SWAP2 POP POP JUMP JUMPDEST PUSH1 0x0 PUSH1 0x20 DUP3 DUP5 SUB SLT ISZERO PUSH2 0x2100 JUMPI PUSH2 0x20FF PUSH2 0x2B96 JUMP JUMPDEST JUMPDEST PUSH1 0x0 PUSH2 0x210E DUP5 DUP3 DUP6 ADD PUSH2 0x1F4E JUMP JUMPDEST SWAP2 POP POP SWAP3 SWAP2 POP POP JUMP JUMPDEST PUSH1 0x0 DUP1 PUSH1 0x40 DUP4 DUP6 SUB SLT ISZERO PUSH2 0x212E JUMPI PUSH2 0x212D PUSH2 0x2B96 JUMP JUMPDEST JUMPDEST PUSH1 0x0 PUSH2 0x213C DUP6 DUP3 DUP7 ADD PUSH2 0x1F39 JUMP JUMPDEST SWAP3 POP POP PUSH1 0x20 PUSH2 0x214D DUP6 DUP3 DUP7 ADD PUSH2 0x1EFA JUMP JUMPDEST SWAP2 POP POP SWAP3 POP SWAP3 SWAP1 POP JUMP JUMPDEST PUSH1 0x0 DUP1 PUSH1 0x40 DUP4 DUP6 SUB SLT ISZERO PUSH2 0x216E JUMPI PUSH2 0x216D PUSH2 0x2B96 JUMP JUMPDEST JUMPDEST PUSH1 0x0 PUSH2 0x217C DUP6 DUP3 DUP7 ADD PUSH2 0x1F39 JUMP JUMPDEST SWAP3 POP POP PUSH1 0x20 PUSH2 0x218D DUP6 DUP3 DUP7 ADD PUSH2 0x1F39 JUMP JUMPDEST SWAP2 POP POP SWAP3 POP SWAP3 SWAP1 POP JUMP JUMPDEST PUSH1 0x0 DUP1 PUSH1 0x0 PUSH1 0x60 DUP5 DUP7 SUB SLT ISZERO PUSH2 0x21B0 JUMPI PUSH2 0x21AF PUSH2 0x2B96 JUMP JUMPDEST JUMPDEST PUSH1 0x0 PUSH2 0x21BE DUP7 DUP3 DUP8 ADD PUSH2 0x1F39 JUMP JUMPDEST SWAP4 POP POP PUSH1 0x20 PUSH2 0x21CF DUP7 DUP3 DUP8 ADD PUSH2 0x1F39 JUMP JUMPDEST SWAP3 POP POP PUSH1 0x40 PUSH2 0x21E0 DUP7 DUP3 DUP8 ADD PUSH2 0x1EFA JUMP JUMPDEST SWAP2 POP POP SWAP3 POP SWAP3 POP SWAP3 JUMP JUMPDEST PUSH2 0x21F3 DUP2 PUSH2 0x2A4F JUMP JUMPDEST DUP3 MSTORE POP POP JUMP JUMPDEST PUSH2 0x2202 DUP2 PUSH2 0x2A61 JUMP JUMPDEST DUP3 MSTORE POP POP JUMP JUMPDEST PUSH1 0x0 PUSH2 0x2213 DUP3 PUSH2 0x2913 JUMP JUMPDEST PUSH2 0x221D DUP2 DUP6 PUSH2 0x2929 JUMP JUMPDEST SWAP4 POP PUSH2 0x222D DUP2 DUP6 PUSH1 0x20 DUP7 ADD PUSH2 0x2AA4 JUMP JUMPDEST PUSH2 0x2236 DUP2 PUSH2 0x2B9B JUMP JUMPDEST DUP5 ADD SWAP2 POP POP SWAP3 SWAP2 POP POP JUMP JUMPDEST PUSH1 0x0 PUSH2 0x224E PUSH1 0x23 DUP4 PUSH2 0x2929 JUMP JUMPDEST SWAP2 POP PUSH2 0x2259 DUP3 PUSH2 0x2BAC JUMP JUMPDEST PUSH1 0x40 DUP3 ADD SWAP1 POP SWAP2 SWAP1 POP JUMP JUMPDEST PUSH1 0x0 PUSH2 0x2271 PUSH1 0x22 DUP4 PUSH2 0x2929 JUMP JUMPDEST SWAP2 POP PUSH2 0x227C DUP3 PUSH2 0x2BFB JUMP JUMPDEST PUSH1 0x40 DUP3 ADD SWAP1 POP SWAP2 SWAP1 POP JUMP JUMPDEST PUSH1 0x0 PUSH2 0x2294 PUSH1 0x22 DUP4 PUSH2 0x2929 JUMP JUMPDEST SWAP2 POP PUSH2 0x229F DUP3 PUSH2 0x2C4A JUMP JUMPDEST PUSH1 0x40 DUP3 ADD SWAP1 POP SWAP2 SWAP1 POP JUMP JUMPDEST PUSH1 0x0 PUSH2 0x22B7 PUSH1 0x29 DUP4 PUSH2 0x2929 JUMP JUMPDEST SWAP2 POP PUSH2 0x22C2 DUP3 PUSH2 0x2C99 JUMP JUMPDEST PUSH1 0x40 DUP3 ADD SWAP1 POP SWAP2 SWAP1 POP JUMP JUMPDEST PUSH1 0x0 PUSH2 0x22DA PUSH1 0x1D DUP4 PUSH2 0x2929 JUMP JUMPDEST SWAP2 POP PUSH2 0x22E5 DUP3 PUSH2 0x2CE8 JUMP JUMPDEST PUSH1 0x20 DUP3 ADD SWAP1 POP SWAP2 SWAP1 POP JUMP JUMPDEST PUSH1 0x0 PUSH2 0x22FD PUSH1 0x26 DUP4 PUSH2 0x2929 JUMP JUMPDEST SWAP2 POP PUSH2 0x2308 DUP3 PUSH2 0x2D11 JUMP JUMPDEST PUSH1 0x40 DUP3 ADD SWAP1 POP SWAP2 SWAP1 POP JUMP JUMPDEST PUSH1 0x0 PUSH2 0x2320 PUSH1 0x26 DUP4 PUSH2 0x2929 JUMP JUMPDEST SWAP2 POP PUSH2 0x232B DUP3 PUSH2 0x2D60 JUMP JUMPDEST PUSH1 0x40 DUP3 ADD SWAP1 POP SWAP2 SWAP1 POP JUMP JUMPDEST PUSH1 0x0 PUSH2 0x2343 PUSH1 0x1A DUP4 PUSH2 0x2929 JUMP JUMPDEST SWAP2 POP PUSH2 0x234E DUP3 PUSH2 0x2DAF JUMP JUMPDEST PUSH1 0x20 DUP3 ADD SWAP1 POP SWAP2 SWAP1 POP JUMP JUMPDEST PUSH1 0x0 PUSH2 0x2366 PUSH1 0x17 DUP4 PUSH2 0x2929 JUMP JUMPDEST SWAP2 POP PUSH2 0x2371 DUP3 PUSH2 0x2DD8 JUMP JUMPDEST PUSH1 0x20 DUP3 ADD SWAP1 POP SWAP2 SWAP1 POP JUMP JUMPDEST PUSH1 0x0 PUSH2 0x2389 PUSH1 0x43 DUP4 PUSH2 0x2929 JUMP JUMPDEST SWAP2 POP PUSH2 0x2394 DUP3 PUSH2 0x2E01 JUMP JUMPDEST PUSH1 0x60 DUP3 ADD SWAP1 POP SWAP2 SWAP1 POP JUMP JUMPDEST PUSH1 0x0 PUSH2 0x23AC PUSH1 0x1A DUP4 PUSH2 0x2929 JUMP JUMPDEST SWAP2 POP PUSH2 0x23B7 DUP3 PUSH2 0x2E76 JUMP JUMPDEST PUSH1 0x20 DUP3 ADD SWAP1 POP SWAP2 SWAP1 POP JUMP JUMPDEST PUSH1 0x0 PUSH2 0x23CF PUSH1 0x37 DUP4 PUSH2 0x2929 JUMP JUMPDEST SWAP2 POP PUSH2 0x23DA DUP3 PUSH2 0x2E9F JUMP JUMPDEST PUSH1 0x40 DUP3 ADD SWAP1 POP SWAP2 SWAP1 POP JUMP JUMPDEST PUSH1 0x0 PUSH2 0x23F2 PUSH1 0x21 DUP4 PUSH2 0x2929 JUMP JUMPDEST SWAP2 POP PUSH2 0x23FD DUP3 PUSH2 0x2EEE JUMP JUMPDEST PUSH1 0x40 DUP3 ADD SWAP1 POP SWAP2 SWAP1 POP JUMP JUMPDEST PUSH1 0x0 PUSH2 0x2415 PUSH1 0x19 DUP4 PUSH2 0x2929 JUMP JUMPDEST SWAP2 POP PUSH2 0x2420 DUP3 PUSH2 0x2F3D JUMP JUMPDEST PUSH1 0x20 DUP3 ADD SWAP1 POP SWAP2 SWAP1 POP JUMP JUMPDEST PUSH1 0x0 PUSH2 0x2438 PUSH1 0x25 DUP4 PUSH2 0x2929 JUMP JUMPDEST SWAP2 POP PUSH2 0x2443 DUP3 PUSH2 0x2F66 JUMP JUMPDEST PUSH1 0x40 DUP3 ADD SWAP1 POP SWAP2 SWAP1 POP JUMP JUMPDEST PUSH1 0x0 PUSH2 0x245B PUSH1 0x25 DUP4 PUSH2 0x2929 JUMP JUMPDEST SWAP2 POP PUSH2 0x2466 DUP3 PUSH2 0x2FB5 JUMP JUMPDEST PUSH1 0x40 DUP3 ADD SWAP1 POP SWAP2 SWAP1 POP JUMP JUMPDEST PUSH1 0x0 PUSH2 0x247E PUSH1 0x0 DUP4 PUSH2 0x291E JUMP JUMPDEST SWAP2 POP PUSH2 0x2489 DUP3 PUSH2 0x3004 JUMP JUMPDEST PUSH1 0x0 DUP3 ADD SWAP1 POP SWAP2 SWAP1 POP JUMP JUMPDEST PUSH1 0x0 PUSH2 0x24A1 PUSH1 0x15 DUP4 PUSH2 0x2929 JUMP JUMPDEST SWAP2 POP PUSH2 0x24AC DUP3 PUSH2 0x3007 JUMP JUMPDEST PUSH1 0x20 DUP3 ADD SWAP1 POP SWAP2 SWAP1 POP JUMP JUMPDEST PUSH1 0x0 PUSH2 0x24C4 PUSH1 0x24 DUP4 PUSH2 0x2929 JUMP JUMPDEST SWAP2 POP PUSH2 0x24CF DUP3 PUSH2 0x3030 JUMP JUMPDEST PUSH1 0x40 DUP3 ADD SWAP1 POP SWAP2 SWAP1 POP JUMP JUMPDEST PUSH1 0x0 PUSH2 0x24E7 PUSH1 0x25 DUP4 PUSH2 0x2929 JUMP JUMPDEST SWAP2 POP PUSH2 0x24F2 DUP3 PUSH2 0x307F JUMP JUMPDEST PUSH1 0x40 DUP3 ADD SWAP1 POP SWAP2 SWAP1 POP JUMP JUMPDEST PUSH1 0x0 PUSH2 0x250A PUSH1 0x1F DUP4 PUSH2 0x2929 JUMP JUMPDEST SWAP2 POP PUSH2 0x2515 DUP3 PUSH2 0x30CE JUMP JUMPDEST PUSH1 0x20 DUP3 ADD SWAP1 POP SWAP2 SWAP1 POP JUMP JUMPDEST PUSH2 0x2529 DUP2 PUSH2 0x2A8D JUMP JUMPDEST DUP3 MSTORE POP POP JUMP JUMPDEST PUSH2 0x2538 DUP2 PUSH2 0x2A97 JUMP JUMPDEST DUP3 MSTORE POP POP JUMP JUMPDEST PUSH1 0x0 PUSH2 0x2549 DUP3 PUSH2 0x2471 JUMP JUMPDEST SWAP2 POP DUP2 SWAP1 POP SWAP2 SWAP1 POP JUMP JUMPDEST PUSH1 0x0 PUSH1 0x20 DUP3 ADD SWAP1 POP PUSH2 0x2568 PUSH1 0x0 DUP4 ADD DUP5 PUSH2 0x21EA JUMP JUMPDEST SWAP3 SWAP2 POP POP JUMP JUMPDEST PUSH1 0x0 PUSH1 0x60 DUP3 ADD SWAP1 POP PUSH2 0x2583 PUSH1 0x0 DUP4 ADD DUP7 PUSH2 0x21EA JUMP JUMPDEST PUSH2 0x2590 PUSH1 0x20 DUP4 ADD DUP6 PUSH2 0x21EA JUMP JUMPDEST PUSH2 0x259D PUSH1 0x40 DUP4 ADD DUP5 PUSH2 0x2520 JUMP JUMPDEST SWAP5 SWAP4 POP POP POP POP JUMP JUMPDEST PUSH1 0x0 PUSH1 0x40 DUP3 ADD SWAP1 POP PUSH2 0x25BA PUSH1 0x0 DUP4 ADD DUP6 PUSH2 0x21EA JUMP JUMPDEST PUSH2 0x25C7 PUSH1 0x20 DUP4 ADD DUP5 PUSH2 0x2520 JUMP JUMPDEST SWAP4 SWAP3 POP POP POP JUMP JUMPDEST PUSH1 0x0 PUSH1 0x20 DUP3 ADD SWAP1 POP PUSH2 0x25E3 PUSH1 0x0 DUP4 ADD DUP5 PUSH2 0x21F9 JUMP JUMPDEST SWAP3 SWAP2 POP POP JUMP JUMPDEST PUSH1 0x0 PUSH1 0x20 DUP3 ADD SWAP1 POP DUP2 DUP2 SUB PUSH1 0x0 DUP4 ADD MSTORE PUSH2 0x2603 DUP2 DUP5 PUSH2 0x2208 JUMP JUMPDEST SWAP1 POP SWAP3 SWAP2 POP POP JUMP JUMPDEST PUSH1 0x0 PUSH1 0x20 DUP3 ADD SWAP1 POP DUP2 DUP2 SUB PUSH1 0x0 DUP4 ADD MSTORE PUSH2 0x2624 DUP2 PUSH2 0x2241 JUMP JUMPDEST SWAP1 POP SWAP2 SWAP1 POP JUMP JUMPDEST PUSH1 0x0 PUSH1 0x20 DUP3 ADD SWAP1 POP DUP2 DUP2 SUB PUSH1 0x0 DUP4 ADD MSTORE PUSH2 0x2644 DUP2 PUSH2 0x2264 JUMP JUMPDEST SWAP1 POP SWAP2 SWAP1 POP JUMP JUMPDEST PUSH1 0x0 PUSH1 0x20 DUP3 ADD SWAP1 POP DUP2 DUP2 SUB PUSH1 0x0 DUP4 ADD MSTORE PUSH2 0x2664 DUP2 PUSH2 0x2287 JUMP JUMPDEST SWAP1 POP SWAP2 SWAP1 POP JUMP JUMPDEST PUSH1 0x0 PUSH1 0x20 DUP3 ADD SWAP1 POP DUP2 DUP2 SUB PUSH1 0x0 DUP4 ADD MSTORE PUSH2 0x2684 DUP2 PUSH2 0x22AA JUMP JUMPDEST SWAP1 POP SWAP2 SWAP1 POP JUMP JUMPDEST PUSH1 0x0 PUSH1 0x20 DUP3 ADD SWAP1 POP DUP2 DUP2 SUB PUSH1 0x0 DUP4 ADD MSTORE PUSH2 0x26A4 DUP2 PUSH2 0x22CD JUMP JUMPDEST SWAP1 POP SWAP2 SWAP1 POP JUMP JUMPDEST PUSH1 0x0 PUSH1 0x20 DUP3 ADD SWAP1 POP DUP2 DUP2 SUB PUSH1 0x0 DUP4 ADD MSTORE PUSH2 0x26C4 DUP2 PUSH2 0x22F0 JUMP JUMPDEST SWAP1 POP SWAP2 SWAP1 POP JUMP JUMPDEST PUSH1 0x0 PUSH1 0x20 DUP3 ADD SWAP1 POP DUP2 DUP2 SUB PUSH1 0x0 DUP4 ADD MSTORE PUSH2 0x26E4 DUP2 PUSH2 0x2313 JUMP JUMPDEST SWAP1 POP SWAP2 SWAP1 POP JUMP JUMPDEST PUSH1 0x0 PUSH1 0x20 DUP3 ADD SWAP1 POP DUP2 DUP2 SUB PUSH1 0x0 DUP4 ADD MSTORE PUSH2 0x2704 DUP2 PUSH2 0x2336 JUMP JUMPDEST SWAP1 POP SWAP2 SWAP1 POP JUMP JUMPDEST PUSH1 0x0 PUSH1 0x20 DUP3 ADD SWAP1 POP DUP2 DUP2 SUB PUSH1 0x0 DUP4 ADD MSTORE PUSH2 0x2724 DUP2 PUSH2 0x2359 JUMP JUMPDEST SWAP1 POP SWAP2 SWAP1 POP JUMP JUMPDEST PUSH1 0x0 PUSH1 0x20 DUP3 ADD SWAP1 POP DUP2 DUP2 SUB PUSH1 0x0 DUP4 ADD MSTORE PUSH2 0x2744 DUP2 PUSH2 0x237C JUMP JUMPDEST SWAP1 POP SWAP2 SWAP1 POP JUMP JUMPDEST PUSH1 0x0 PUSH1 0x20 DUP3 ADD SWAP1 POP DUP2 DUP2 SUB PUSH1 0x0 DUP4 ADD MSTORE PUSH2 0x2764 DUP2 PUSH2 0x239F JUMP JUMPDEST SWAP1 POP SWAP2 SWAP1 POP JUMP JUMPDEST PUSH1 0x0 PUSH1 0x20 DUP3 ADD SWAP1 POP DUP2 DUP2 SUB PUSH1 0x0 DUP4 ADD MSTORE PUSH2 0x2784 DUP2 PUSH2 0x23C2 JUMP JUMPDEST SWAP1 POP SWAP2 SWAP1 POP JUMP JUMPDEST PUSH1 0x0 PUSH1 0x20 DUP3 ADD SWAP1 POP DUP2 DUP2 SUB PUSH1 0x0 DUP4 ADD MSTORE PUSH2 0x27A4 DUP2 PUSH2 0x23E5 JUMP JUMPDEST SWAP1 POP SWAP2 SWAP1 POP JUMP JUMPDEST PUSH1 0x0 PUSH1 0x20 DUP3 ADD SWAP1 POP DUP2 DUP2 SUB PUSH1 0x0 DUP4 ADD MSTORE PUSH2 0x27C4 DUP2 PUSH2 0x2408 JUMP JUMPDEST SWAP1 POP SWAP2 SWAP1 POP JUMP JUMPDEST PUSH1 0x0 PUSH1 0x20 DUP3 ADD SWAP1 POP DUP2 DUP2 SUB PUSH1 0x0 DUP4 ADD MSTORE PUSH2 0x27E4 DUP2 PUSH2 0x242B JUMP JUMPDEST SWAP1 POP SWAP2 SWAP1 POP JUMP JUMPDEST PUSH1 0x0 PUSH1 0x20 DUP3 ADD SWAP1 POP DUP2 DUP2 SUB PUSH1 0x0 DUP4 ADD MSTORE PUSH2 0x2804 DUP2 PUSH2 0x244E JUMP JUMPDEST SWAP1 POP SWAP2 SWAP1 POP JUMP JUMPDEST PUSH1 0x0 PUSH1 0x20 DUP3 ADD SWAP1 POP DUP2 DUP2 SUB PUSH1 0x0 DUP4 ADD MSTORE PUSH2 0x2824 DUP2 PUSH2 0x2494 JUMP JUMPDEST SWAP1 POP SWAP2 SWAP1 POP JUMP JUMPDEST PUSH1 0x0 PUSH1 0x20 DUP3 ADD SWAP1 POP DUP2 DUP2 SUB PUSH1 0x0 DUP4 ADD MSTORE PUSH2 0x2844 DUP2 PUSH2 0x24B7 JUMP JUMPDEST SWAP1 POP SWAP2 SWAP1 POP JUMP JUMPDEST PUSH1 0x0 PUSH1 0x20 DUP3 ADD SWAP1 POP DUP2 DUP2 SUB PUSH1 0x0 DUP4 ADD MSTORE PUSH2 0x2864 DUP2 PUSH2 0x24DA JUMP JUMPDEST SWAP1 POP SWAP2 SWAP1 POP JUMP JUMPDEST PUSH1 0x0 PUSH1 0x20 DUP3 ADD SWAP1 POP DUP2 DUP2 SUB PUSH1 0x0 DUP4 ADD MSTORE PUSH2 0x2884 DUP2 PUSH2 0x24FD JUMP JUMPDEST SWAP1 POP SWAP2 SWAP1 POP JUMP JUMPDEST PUSH1 0x0 PUSH1 0x20 DUP3 ADD SWAP1 POP PUSH2 0x28A0 PUSH1 0x0 DUP4 ADD DUP5 PUSH2 0x2520 JUMP JUMPDEST SWAP3 SWAP2 POP POP JUMP JUMPDEST PUSH1 0x0 PUSH1 0x40 DUP3 ADD SWAP1 POP PUSH2 0x28BB PUSH1 0x0 DUP4 ADD DUP6 PUSH2 0x2520 JUMP JUMPDEST PUSH2 0x28C8 PUSH1 0x20 DUP4 ADD DUP5 PUSH2 0x21EA JUMP JUMPDEST SWAP4 SWAP3 POP POP POP JUMP JUMPDEST PUSH1 0x0 PUSH1 0x40 DUP3 ADD SWAP1 POP PUSH2 0x28E4 PUSH1 0x0 DUP4 ADD DUP6 PUSH2 0x2520 JUMP JUMPDEST PUSH2 0x28F1 PUSH1 0x20 DUP4 ADD DUP5 PUSH2 0x2520 JUMP JUMPDEST SWAP4 SWAP3 POP POP POP JUMP JUMPDEST PUSH1 0x0 PUSH1 0x20 DUP3 ADD SWAP1 POP PUSH2 0x290D PUSH1 0x0 DUP4 ADD DUP5 PUSH2 0x252F JUMP JUMPDEST SWAP3 SWAP2 POP POP JUMP JUMPDEST PUSH1 0x0 DUP2 MLOAD SWAP1 POP SWAP2 SWAP1 POP JUMP JUMPDEST PUSH1 0x0 DUP2 SWAP1 POP SWAP3 SWAP2 POP POP JUMP JUMPDEST PUSH1 0x0 DUP3 DUP3 MSTORE PUSH1 0x20 DUP3 ADD SWAP1 POP SWAP3 SWAP2 POP POP JUMP JUMPDEST PUSH1 0x0 PUSH2 0x2945 DUP3 PUSH2 0x2A8D JUMP JUMPDEST SWAP2 POP PUSH2 0x2950 DUP4 PUSH2 0x2A8D JUMP JUMPDEST SWAP3 POP DUP3 PUSH32 0xFFFFFFFFFFFFFFFFFFFFFFFFFFFFFFFFFFFFFFFFFFFFFFFFFFFFFFFFFFFFFFFF SUB DUP3 GT ISZERO PUSH2 0x2985 JUMPI PUSH2 0x2984 PUSH2 0x2B09 JUMP JUMPDEST JUMPDEST DUP3 DUP3 ADD SWAP1 POP SWAP3 SWAP2 POP POP JUMP JUMPDEST PUSH1 0x0 PUSH2 0x299B DUP3 PUSH2 0x2A8D JUMP JUMPDEST SWAP2 POP PUSH2 0x29A6 DUP4 PUSH2 0x2A8D JUMP JUMPDEST SWAP3 POP DUP3 PUSH2 0x29B6 JUMPI PUSH2 0x29B5 PUSH2 0x2B38 JUMP JUMPDEST JUMPDEST DUP3 DUP3 DIV SWAP1 POP SWAP3 SWAP2 POP POP JUMP JUMPDEST PUSH1 0x0 PUSH2 0x29CC DUP3 PUSH2 0x2A8D JUMP JUMPDEST SWAP2 POP PUSH2 0x29D7 DUP4 PUSH2 0x2A8D JUMP JUMPDEST SWAP3 POP DUP2 PUSH32 0xFFFFFFFFFFFFFFFFFFFFFFFFFFFFFFFFFFFFFFFFFFFFFFFFFFFFFFFFFFFFFFFF DIV DUP4 GT DUP3 ISZERO ISZERO AND ISZERO PUSH2 0x2A10 JUMPI PUSH2 0x2A0F PUSH2 0x2B09 JUMP JUMPDEST JUMPDEST DUP3 DUP3 MUL SWAP1 POP SWAP3 SWAP2 POP POP JUMP JUMPDEST PUSH1 0x0 PUSH2 0x2A26 DUP3 PUSH2 0x2A8D JUMP JUMPDEST SWAP2 POP PUSH2 0x2A31 DUP4 PUSH2 0x2A8D JUMP JUMPDEST SWAP3 POP DUP3 DUP3 LT ISZERO PUSH2 0x2A44 JUMPI PUSH2 0x2A43 PUSH2 0x2B09 JUMP JUMPDEST JUMPDEST DUP3 DUP3 SUB SWAP1 POP SWAP3 SWAP2 POP POP JUMP JUMPDEST PUSH1 0x0 PUSH2 0x2A5A DUP3 PUSH2 0x2A6D JUMP JUMPDEST SWAP1 POP SWAP2 SWAP1 POP JUMP JUMPDEST PUSH1 0x0 DUP2 ISZERO ISZERO SWAP1 POP SWAP2 SWAP1 POP JUMP JUMPDEST PUSH1 0x0 PUSH20 0xFFFFFFFFFFFFFFFFFFFFFFFFFFFFFFFFFFFFFFFF DUP3 AND SWAP1 POP SWAP2 SWAP1 POP JUMP JUMPDEST PUSH1 0x0 DUP2 SWAP1 POP SWAP2 SWAP1 POP JUMP JUMPDEST PUSH1 0x0 PUSH1 0xFF DUP3 AND SWAP1 POP SWAP2 SWAP1 POP JUMP JUMPDEST PUSH1 0x0 JUMPDEST DUP4 DUP2 LT ISZERO PUSH2 0x2AC2 JUMPI DUP1 DUP3 ADD MLOAD DUP2 DUP5 ADD MSTORE PUSH1 0x20 DUP2 ADD SWAP1 POP PUSH2 0x2AA7 JUMP JUMPDEST DUP4 DUP2 GT ISZERO PUSH2 0x2AD1 JUMPI PUSH1 0x0 DUP5 DUP5 ADD MSTORE JUMPDEST POP POP POP POP JUMP JUMPDEST PUSH1 0x0 PUSH1 0x2 DUP3 DIV SWAP1 POP PUSH1 0x1 DUP3 AND DUP1 PUSH2 0x2AEF JUMPI PUSH1 0x7F DUP3 AND SWAP2 POP JUMPDEST PUSH1 0x20 DUP3 LT DUP2 EQ ISZERO PUSH2 0x2B03 JUMPI PUSH2 0x2B02 PUSH2 0x2B67 JUMP JUMPDEST JUMPDEST POP SWAP2 SWAP1 POP JUMP JUMPDEST PUSH32 0x4E487B7100000000000000000000000000000000000000000000000000000000 PUSH1 0x0 MSTORE PUSH1 0x11 PUSH1 0x4 MSTORE PUSH1 0x24 PUSH1 0x0 REVERT JUMPDEST PUSH32 0x4E487B7100000000000000000000000000000000000000000000000000000000 PUSH1 0x0 MSTORE PUSH1 0x12 PUSH1 0x4 MSTORE PUSH1 0x24 PUSH1 0x0 REVERT JUMPDEST PUSH32 0x4E487B7100000000000000000000000000000000000000000000000000000000 PUSH1 0x0 MSTORE PUSH1 0x22 PUSH1 0x4 MSTORE PUSH1 0x24 PUSH1 0x0 REVERT JUMPDEST PUSH1 0x0 DUP1 REVERT JUMPDEST PUSH1 0x0 PUSH1 0x1F NOT PUSH1 0x1F DUP4 ADD AND SWAP1 POP SWAP2 SWAP1 POP JUMP JUMPDEST PUSH32 0x45524332303A207472616E7366657220746F20746865207A65726F2061646472 PUSH1 0x0 DUP3 ADD MSTORE PUSH32 0x6573730000000000000000000000000000000000000000000000000000000000 PUSH1 0x20 DUP3 ADD MSTORE POP JUMP JUMPDEST PUSH32 0x45524332303A206275726E20616D6F756E7420657863656564732062616C616E PUSH1 0x0 DUP3 ADD MSTORE PUSH32 0x6365000000000000000000000000000000000000000000000000000000000000 PUSH1 0x20 DUP3 ADD MSTORE POP JUMP JUMPDEST PUSH32 0x45524332303A20617070726F766520746F20746865207A65726F206164647265 PUSH1 0x0 DUP3 ADD MSTORE PUSH32 0x7373000000000000000000000000000000000000000000000000000000000000 PUSH1 0x20 DUP3 ADD MSTORE POP JUMP JUMPDEST PUSH32 0x496E73756666696369656E7420696E70757420616D6F756E74206F6620455243 PUSH1 0x0 DUP3 ADD MSTORE PUSH32 0x323020546F6B656E730000000000000000000000000000000000000000000000 PUSH1 0x20 DUP3 ADD MSTORE POP JUMP JUMPDEST PUSH32 0x45524332303A20696E73756666696369656E7420616C6C6F77616E6365000000 PUSH1 0x0 DUP3 ADD MSTORE POP JUMP JUMPDEST PUSH32 0x45524332303A207472616E7366657220616D6F756E7420657863656564732062 PUSH1 0x0 DUP3 ADD MSTORE PUSH32 0x616C616E63650000000000000000000000000000000000000000000000000000 PUSH1 0x20 DUP3 ADD MSTORE POP JUMP JUMPDEST PUSH32 0x5472616E73616374696F6E206F662045544820746F20726563697069656E7420 PUSH1 0x0 DUP3 ADD MSTORE PUSH32 0x6661696C65640000000000000000000000000000000000000000000000000000 PUSH1 0x20 DUP3 ADD MSTORE POP JUMP JUMPDEST PUSH32 0x496E76616C696420696E70757420746F6B656E20616D6F756E74000000000000 PUSH1 0x0 DUP3 ADD MSTORE POP JUMP JUMPDEST PUSH32 0x546F6B656E2061646472657373206E6F742076616C6964000000000000000000 PUSH1 0x0 DUP3 ADD MSTORE POP JUMP JUMPDEST PUSH32 0x416D6F756E74207377617070656420646F6573206E6F74206D65657420796F75 PUSH1 0x0 DUP3 ADD MSTORE PUSH32 0x722073746970756C6174656420616D6F756E742C20726576657274696E672073 PUSH1 0x20 DUP3 ADD MSTORE PUSH32 0x7761700000000000000000000000000000000000000000000000000000000000 PUSH1 0x40 DUP3 ADD MSTORE POP JUMP JUMPDEST PUSH32 0x45786368616E67652061646472657373206E6F742076616C6964000000000000 PUSH1 0x0 DUP3 ADD MSTORE POP JUMP JUMPDEST PUSH32 0x506C6561736520696E70757420612076616C696420616D6F756E74206F66204C PUSH1 0x0 DUP3 ADD MSTORE PUSH32 0x5020546F6B656E7320746F206275726E2F72656465656D000000000000000000 PUSH1 0x20 DUP3 ADD MSTORE POP JUMP JUMPDEST PUSH32 0x45524332303A206275726E2066726F6D20746865207A65726F20616464726573 PUSH1 0x0 DUP3 ADD MSTORE PUSH32 0x7300000000000000000000000000000000000000000000000000000000000000 PUSH1 0x20 DUP3 ADD MSTORE POP JUMP JUMPDEST PUSH32 0x45544820616D6F756E742063616E6E6F74206265207A65726F00000000000000 PUSH1 0x0 DUP3 ADD MSTORE POP JUMP JUMPDEST PUSH32 0x45524332303A207472616E736665722066726F6D20746865207A65726F206164 PUSH1 0x0 DUP3 ADD MSTORE PUSH32 0x6472657373000000000000000000000000000000000000000000000000000000 PUSH1 0x20 DUP3 ADD MSTORE POP JUMP JUMPDEST PUSH32 0x5472616E73616374696F6E206F662045746865722077617320756E7375636365 PUSH1 0x0 DUP3 ADD MSTORE PUSH32 0x737366756C000000000000000000000000000000000000000000000000000000 PUSH1 0x20 DUP3 ADD MSTORE POP JUMP JUMPDEST POP JUMP JUMPDEST PUSH32 0x546865726520617265206E6F2072657365727665730000000000000000000000 PUSH1 0x0 DUP3 ADD MSTORE POP JUMP JUMPDEST PUSH32 0x45524332303A20617070726F76652066726F6D20746865207A65726F20616464 PUSH1 0x0 DUP3 ADD MSTORE PUSH32 0x7265737300000000000000000000000000000000000000000000000000000000 PUSH1 0x20 DUP3 ADD MSTORE POP JUMP JUMPDEST PUSH32 0x45524332303A2064656372656173656420616C6C6F77616E63652062656C6F77 PUSH1 0x0 DUP3 ADD MSTORE PUSH32 0x207A65726F000000000000000000000000000000000000000000000000000000 PUSH1 0x20 DUP3 ADD MSTORE POP JUMP JUMPDEST PUSH32 0x45524332303A206D696E7420746F20746865207A65726F206164647265737300 PUSH1 0x0 DUP3 ADD MSTORE POP JUMP JUMPDEST PUSH2 0x3100 DUP2 PUSH2 0x2A4F JUMP JUMPDEST DUP2 EQ PUSH2 0x310B JUMPI PUSH1 0x0 DUP1 REVERT JUMPDEST POP JUMP JUMPDEST PUSH2 0x3117 DUP2 PUSH2 0x2A61 JUMP JUMPDEST DUP2 EQ PUSH2 0x3122 JUMPI PUSH1 0x0 DUP1 REVERT JUMPDEST POP JUMP JUMPDEST PUSH2 0x312E DUP2 PUSH2 0x2A8D JUMP JUMPDEST DUP2 EQ PUSH2 0x3139 JUMPI PUSH1 0x0 DUP1 REVERT JUMPDEST POP JUMP INVALID LOG2 PUSH5 0x6970667358 0x22 SLT KECCAK256 DUP8 DUP16 0xE8 0xEE SLT 0xE9 0xDD JUMPDEST PUSH12 0x7F9A30CF1D2ABC294B8EC347 0x22 GT 0x2A PUSH25 0x7F57427799803D64736F6C6343000807003300000000000000 "
				},
				"gasEstimates": {
					"creation": {
						"codeDepositCost": "2531600",
						"executionCost": "infinite",
						"totalCost": "infinite"
					},
					"external": {
						"addLiquidity(uint256)": "infinite",
						"allowance(address,address)": "infinite",
						"approve(address,uint256)": "infinite",
						"balanceOf(address)": "2886",
						"decimals()": "410",
						"decreaseAllowance(address,uint256)": "infinite",
						"ethToTokenSwap(uint256)": "infinite",
						"ethToTokenTransfer(uint256,address)": "infinite",
						"factoryAddress()": "2603",
						"getEthAmountForSwap(uint256)": "764",
						"getReserves()": "infinite",
						"getTokenAmountForSwap(uint256)": "infinite",
						"increaseAllowance(address,uint256)": "infinite",
						"name()": "infinite",
						"removeLiquidity(uint256)": "infinite",
						"symbol()": "infinite",
						"tokenAddress()": "2536",
						"tokenForEthSwap(uint256,uint256)": "infinite",
						"tokenToTokenSwap(uint256,uint256,address)": "infinite",
						"totalSupply()": "2549",
						"transfer(address,uint256)": "infinite",
						"transferFrom(address,address,uint256)": "infinite"
					},
					"internal": {
						"ethForTokenBasic(uint256,address)": "infinite",
						"getOutputAmount(uint256,uint256,uint256)": "infinite"
					}
				},
				"methodIdentifiers": {
					"addLiquidity(uint256)": "51c6590a",
					"allowance(address,address)": "dd62ed3e",
					"approve(address,uint256)": "095ea7b3",
					"balanceOf(address)": "70a08231",
					"decimals()": "313ce567",
					"decreaseAllowance(address,uint256)": "a457c2d7",
					"ethToTokenSwap(uint256)": "f979dcd7",
					"ethToTokenTransfer(uint256,address)": "389d9a40",
					"factoryAddress()": "966dae0e",
					"getEthAmountForSwap(uint256)": "2c0c60a4",
					"getReserves()": "0902f1ac",
					"getTokenAmountForSwap(uint256)": "0f8070b4",
					"increaseAllowance(address,uint256)": "39509351",
					"name()": "06fdde03",
					"removeLiquidity(uint256)": "9c8f9f23",
					"symbol()": "95d89b41",
					"tokenAddress()": "9d76ea58",
					"tokenForEthSwap(uint256,uint256)": "64338a30",
					"tokenToTokenSwap(uint256,uint256,address)": "f7a7e324",
					"totalSupply()": "18160ddd",
					"transfer(address,uint256)": "a9059cbb",
					"transferFrom(address,address,uint256)": "23b872dd"
				}
			},
			"storageLayout": {
				"storage": [
					{
						"astId": 15,
						"contract": "contracts/Pair.sol:Pair",
						"label": "_balances",
						"offset": 0,
						"slot": "0",
						"type": "t_mapping(t_address,t_uint256)"
					},
					{
						"astId": 21,
						"contract": "contracts/Pair.sol:Pair",
						"label": "_allowances",
						"offset": 0,
						"slot": "1",
						"type": "t_mapping(t_address,t_mapping(t_address,t_uint256))"
					},
					{
						"astId": 23,
						"contract": "contracts/Pair.sol:Pair",
						"label": "_totalSupply",
						"offset": 0,
						"slot": "2",
						"type": "t_uint256"
					},
					{
						"astId": 25,
						"contract": "contracts/Pair.sol:Pair",
						"label": "_name",
						"offset": 0,
						"slot": "3",
						"type": "t_string_storage"
					},
					{
						"astId": 27,
						"contract": "contracts/Pair.sol:Pair",
						"label": "_symbol",
						"offset": 0,
						"slot": "4",
						"type": "t_string_storage"
					},
					{
						"astId": 739,
						"contract": "contracts/Pair.sol:Pair",
						"label": "tokenAddress",
						"offset": 0,
						"slot": "5",
						"type": "t_address"
					},
					{
						"astId": 741,
						"contract": "contracts/Pair.sol:Pair",
						"label": "factoryAddress",
						"offset": 0,
						"slot": "6",
						"type": "t_address"
					}
				],
				"types": {
					"t_address": {
						"encoding": "inplace",
						"label": "address",
						"numberOfBytes": "20"
					},
					"t_mapping(t_address,t_mapping(t_address,t_uint256))": {
						"encoding": "mapping",
						"key": "t_address",
						"label": "mapping(address => mapping(address => uint256))",
						"numberOfBytes": "32",
						"value": "t_mapping(t_address,t_uint256)"
					},
					"t_mapping(t_address,t_uint256)": {
						"encoding": "mapping",
						"key": "t_address",
						"label": "mapping(address => uint256)",
						"numberOfBytes": "32",
						"value": "t_uint256"
					},
					"t_string_storage": {
						"encoding": "bytes",
						"label": "string",
						"numberOfBytes": "32"
					},
					"t_uint256": {
						"encoding": "inplace",
						"label": "uint256",
						"numberOfBytes": "32"
					}
				}
			},
			"userdoc": {
				"kind": "user",
				"methods": {},
				"version": 1
			}
		}
	}
}