{
	"contracts/Pair.sol": {
		"Pair": {
			"abi": [
				{
					"inputs": [
						{
							"internalType": "address",
							"name": "token",
							"type": "address"
						}
					],
					"stateMutability": "nonpayable",
					"type": "constructor"
				},
				{
					"anonymous": false,
					"inputs": [
						{
							"indexed": true,
							"internalType": "address",
							"name": "provider",
							"type": "address"
						},
						{
							"indexed": true,
							"internalType": "uint256",
							"name": "ethAmount",
							"type": "uint256"
						},
						{
							"indexed": true,
							"internalType": "uint256",
							"name": "tokenAmount",
							"type": "uint256"
						}
					],
					"name": "AddLiquidity",
					"type": "event"
				},
				{
					"anonymous": false,
					"inputs": [
						{
							"indexed": true,
							"internalType": "address",
							"name": "owner",
							"type": "address"
						},
						{
							"indexed": true,
							"internalType": "address",
							"name": "spender",
							"type": "address"
						},
						{
							"indexed": false,
							"internalType": "uint256",
							"name": "value",
							"type": "uint256"
						}
					],
					"name": "Approval",
					"type": "event"
				},
				{
					"anonymous": false,
					"inputs": [
						{
							"indexed": true,
							"internalType": "address",
							"name": "provider",
							"type": "address"
						},
						{
							"indexed": true,
							"internalType": "uint256",
							"name": "ethAmount",
							"type": "uint256"
						},
						{
							"indexed": true,
							"internalType": "uint256",
							"name": "tokenAmount",
							"type": "uint256"
						}
					],
					"name": "RemoveLiquidity",
					"type": "event"
				},
				{
					"anonymous": false,
					"inputs": [
						{
							"indexed": true,
							"internalType": "address",
							"name": "buyer",
							"type": "address"
						},
						{
							"indexed": true,
							"internalType": "uint256",
							"name": "tokensGiven",
							"type": "uint256"
						},
						{
							"indexed": false,
							"internalType": "uint256",
							"name": "ethRecieved",
							"type": "uint256"
						}
					],
					"name": "SwapForEth",
					"type": "event"
				},
				{
					"anonymous": false,
					"inputs": [
						{
							"indexed": true,
							"internalType": "address",
							"name": "buyer",
							"type": "address"
						},
						{
							"indexed": true,
							"internalType": "uint256",
							"name": "ethGiven",
							"type": "uint256"
						},
						{
							"indexed": false,
							"internalType": "uint256",
							"name": "tokensRecieved",
							"type": "uint256"
						}
					],
					"name": "SwapForTokens",
					"type": "event"
				},
				{
					"anonymous": false,
					"inputs": [
						{
							"indexed": true,
							"internalType": "address",
							"name": "from",
							"type": "address"
						},
						{
							"indexed": true,
							"internalType": "address",
							"name": "to",
							"type": "address"
						},
						{
							"indexed": false,
							"internalType": "uint256",
							"name": "value",
							"type": "uint256"
						}
					],
					"name": "Transfer",
					"type": "event"
				},
				{
					"inputs": [
						{
							"internalType": "uint256",
							"name": "inputTokenAmount",
							"type": "uint256"
						}
					],
					"name": "addLiquidity",
					"outputs": [
						{
							"internalType": "uint256",
							"name": "lpTokenAmount",
							"type": "uint256"
						}
					],
					"stateMutability": "payable",
					"type": "function"
				},
				{
					"inputs": [
						{
							"internalType": "address",
							"name": "owner",
							"type": "address"
						},
						{
							"internalType": "address",
							"name": "spender",
							"type": "address"
						}
					],
					"name": "allowance",
					"outputs": [
						{
							"internalType": "uint256",
							"name": "",
							"type": "uint256"
						}
					],
					"stateMutability": "view",
					"type": "function"
				},
				{
					"inputs": [
						{
							"internalType": "address",
							"name": "spender",
							"type": "address"
						},
						{
							"internalType": "uint256",
							"name": "amount",
							"type": "uint256"
						}
					],
					"name": "approve",
					"outputs": [
						{
							"internalType": "bool",
							"name": "",
							"type": "bool"
						}
					],
					"stateMutability": "nonpayable",
					"type": "function"
				},
				{
					"inputs": [
						{
							"internalType": "address",
							"name": "account",
							"type": "address"
						}
					],
					"name": "balanceOf",
					"outputs": [
						{
							"internalType": "uint256",
							"name": "",
							"type": "uint256"
						}
					],
					"stateMutability": "view",
					"type": "function"
				},
				{
					"inputs": [],
					"name": "decimals",
					"outputs": [
						{
							"internalType": "uint8",
							"name": "",
							"type": "uint8"
						}
					],
					"stateMutability": "view",
					"type": "function"
				},
				{
					"inputs": [
						{
							"internalType": "address",
							"name": "spender",
							"type": "address"
						},
						{
							"internalType": "uint256",
							"name": "subtractedValue",
							"type": "uint256"
						}
					],
					"name": "decreaseAllowance",
					"outputs": [
						{
							"internalType": "bool",
							"name": "",
							"type": "bool"
						}
					],
					"stateMutability": "nonpayable",
					"type": "function"
				},
				{
					"inputs": [],
					"name": "factoryAddress",
					"outputs": [
						{
							"internalType": "address",
							"name": "",
							"type": "address"
						}
					],
					"stateMutability": "view",
					"type": "function"
				},
				{
					"inputs": [
						{
							"internalType": "uint256",
							"name": "tokenAmount",
							"type": "uint256"
						}
					],
					"name": "getEthAmountForSwap",
					"outputs": [
						{
							"internalType": "uint256",
							"name": "ethAmount",
							"type": "uint256"
						}
					],
					"stateMutability": "view",
					"type": "function"
				},
				{
					"inputs": [],
					"name": "getReserves",
					"outputs": [
						{
							"internalType": "uint256",
							"name": "tokenReserve",
							"type": "uint256"
						},
						{
							"internalType": "uint256",
							"name": "ethReserve",
							"type": "uint256"
						}
					],
					"stateMutability": "view",
					"type": "function"
				},
				{
					"inputs": [
						{
							"internalType": "uint256",
							"name": "ethAmount",
							"type": "uint256"
						}
					],
					"name": "getTokenAmountForSwap",
					"outputs": [
						{
							"internalType": "uint256",
							"name": "tokenAmount",
							"type": "uint256"
						}
					],
					"stateMutability": "view",
					"type": "function"
				},
				{
					"inputs": [
						{
							"internalType": "address",
							"name": "spender",
							"type": "address"
						},
						{
							"internalType": "uint256",
							"name": "addedValue",
							"type": "uint256"
						}
					],
					"name": "increaseAllowance",
					"outputs": [
						{
							"internalType": "bool",
							"name": "",
							"type": "bool"
						}
					],
					"stateMutability": "nonpayable",
					"type": "function"
				},
				{
					"inputs": [],
					"name": "name",
					"outputs": [
						{
							"internalType": "string",
							"name": "",
							"type": "string"
						}
					],
					"stateMutability": "view",
					"type": "function"
				},
				{
					"inputs": [
						{
							"internalType": "uint256",
							"name": "lpTokenAmount",
							"type": "uint256"
						}
					],
					"name": "removeLiquidity",
					"outputs": [
						{
							"internalType": "uint256",
							"name": "ethAmount",
							"type": "uint256"
						},
						{
							"internalType": "uint256",
							"name": "tokenAmount",
							"type": "uint256"
						}
					],
					"stateMutability": "nonpayable",
					"type": "function"
				},
				{
					"inputs": [],
					"name": "symbol",
					"outputs": [
						{
							"internalType": "string",
							"name": "",
							"type": "string"
						}
					],
					"stateMutability": "view",
					"type": "function"
				},
				{
					"inputs": [],
					"name": "tokenAddress",
					"outputs": [
						{
							"internalType": "address",
							"name": "",
							"type": "address"
						}
					],
					"stateMutability": "view",
					"type": "function"
				},
				{
					"inputs": [],
					"name": "totalSupply",
					"outputs": [
						{
							"internalType": "uint256",
							"name": "",
							"type": "uint256"
						}
					],
					"stateMutability": "view",
					"type": "function"
				},
				{
					"inputs": [
						{
							"internalType": "address",
							"name": "to",
							"type": "address"
						},
						{
							"internalType": "uint256",
							"name": "amount",
							"type": "uint256"
						}
					],
					"name": "transfer",
					"outputs": [
						{
							"internalType": "bool",
							"name": "",
							"type": "bool"
						}
					],
					"stateMutability": "nonpayable",
					"type": "function"
				},
				{
					"inputs": [
						{
							"internalType": "address",
							"name": "from",
							"type": "address"
						},
						{
							"internalType": "address",
							"name": "to",
							"type": "address"
						},
						{
							"internalType": "uint256",
							"name": "amount",
							"type": "uint256"
						}
					],
					"name": "transferFrom",
					"outputs": [
						{
							"internalType": "bool",
							"name": "",
							"type": "bool"
						}
					],
					"stateMutability": "nonpayable",
					"type": "function"
				}
			],
			"devdoc": {
				"kind": "dev",
				"methods": {
					"allowance(address,address)": {
						"details": "See {IERC20-allowance}."
					},
					"approve(address,uint256)": {
						"details": "See {IERC20-approve}. NOTE: If `amount` is the maximum `uint256`, the allowance is not updated on `transferFrom`. This is semantically equivalent to an infinite approval. Requirements: - `spender` cannot be the zero address."
					},
					"balanceOf(address)": {
						"details": "See {IERC20-balanceOf}."
					},
					"decimals()": {
						"details": "Returns the number of decimals used to get its user representation. For example, if `decimals` equals `2`, a balance of `505` tokens should be displayed to a user as `5.05` (`505 / 10 ** 2`). Tokens usually opt for a value of 18, imitating the relationship between Ether and Wei. This is the value {ERC20} uses, unless this function is overridden; NOTE: This information is only used for _display_ purposes: it in no way affects any of the arithmetic of the contract, including {IERC20-balanceOf} and {IERC20-transfer}."
					},
					"decreaseAllowance(address,uint256)": {
						"details": "Atomically decreases the allowance granted to `spender` by the caller. This is an alternative to {approve} that can be used as a mitigation for problems described in {IERC20-approve}. Emits an {Approval} event indicating the updated allowance. Requirements: - `spender` cannot be the zero address. - `spender` must have allowance for the caller of at least `subtractedValue`."
					},
					"increaseAllowance(address,uint256)": {
						"details": "Atomically increases the allowance granted to `spender` by the caller. This is an alternative to {approve} that can be used as a mitigation for problems described in {IERC20-approve}. Emits an {Approval} event indicating the updated allowance. Requirements: - `spender` cannot be the zero address."
					},
					"name()": {
						"details": "Returns the name of the token."
					},
					"symbol()": {
						"details": "Returns the symbol of the token, usually a shorter version of the name."
					},
					"totalSupply()": {
						"details": "See {IERC20-totalSupply}."
					},
					"transfer(address,uint256)": {
						"details": "See {IERC20-transfer}. Requirements: - `to` cannot be the zero address. - the caller must have a balance of at least `amount`."
					},
					"transferFrom(address,address,uint256)": {
						"details": "See {IERC20-transferFrom}. Emits an {Approval} event indicating the updated allowance. This is not required by the EIP. See the note at the beginning of {ERC20}. NOTE: Does not update the allowance if the current allowance is the maximum `uint256`. Requirements: - `from` and `to` cannot be the zero address. - `from` must have a balance of at least `amount`. - the caller must have allowance for ``from``'s tokens of at least `amount`."
					}
				},
				"version": 1
			},
			"evm": {
				"assembly": "    /* \"contracts/Pair.sol\":822:5410  contract Pair is ERC20 {\r... */\n  mstore(0x40, 0x80)\n    /* \"contracts/Pair.sol\":1633:1822  constructor(address token) ERC20(\"Swap V1\", \"Swap-V1\"){\r... */\n  callvalue\n  dup1\n  iszero\n  tag_1\n  jumpi\n  0x00\n  dup1\n  revert\ntag_1:\n  pop\n  mload(0x40)\n  sub(codesize, bytecodeSize)\n  dup1\n  bytecodeSize\n  dup4\n  codecopy\n  dup2\n  dup2\n  add\n  0x40\n  mstore\n  dup2\n  add\n  swap1\n  tag_2\n  swap2\n  swap1\n  tag_3\n  jump\t// in\ntag_2:\n    /* \"@openzeppelin/contracts/token/ERC20/ERC20.sol\":1978:2091  constructor(string memory name_, string memory symbol_) {... */\n  mload(0x40)\n  dup1\n  0x40\n  add\n  0x40\n  mstore\n  dup1\n  0x07\n  dup2\n  mstore\n  0x20\n  add\n  0x5377617020563100000000000000000000000000000000000000000000000000\n  dup2\n  mstore\n  pop\n  mload(0x40)\n  dup1\n  0x40\n  add\n  0x40\n  mstore\n  dup1\n  0x07\n  dup2\n  mstore\n  0x20\n  add\n  0x537761702d563100000000000000000000000000000000000000000000000000\n  dup2\n  mstore\n  pop\n    /* \"@openzeppelin/contracts/token/ERC20/ERC20.sol\":2052:2057  name_ */\n  dup2\n    /* \"@openzeppelin/contracts/token/ERC20/ERC20.sol\":2044:2049  _name */\n  0x03\n    /* \"@openzeppelin/contracts/token/ERC20/ERC20.sol\":2044:2057  _name = name_ */\n  swap1\n  dup1\n  mload\n  swap1\n  0x20\n  add\n  swap1\n  tag_7\n  swap3\n  swap2\n  swap1\n  tag_8\n  jump\t// in\ntag_7:\n  pop\n    /* \"@openzeppelin/contracts/token/ERC20/ERC20.sol\":2077:2084  symbol_ */\n  dup1\n    /* \"@openzeppelin/contracts/token/ERC20/ERC20.sol\":2067:2074  _symbol */\n  0x04\n    /* \"@openzeppelin/contracts/token/ERC20/ERC20.sol\":2067:2084  _symbol = symbol_ */\n  swap1\n  dup1\n  mload\n  swap1\n  0x20\n  add\n  swap1\n  tag_9\n  swap3\n  swap2\n  swap1\n  tag_8\n  jump\t// in\ntag_9:\n  pop\n    /* \"@openzeppelin/contracts/token/ERC20/ERC20.sol\":1978:2091  constructor(string memory name_, string memory symbol_) {... */\n  pop\n  pop\n    /* \"contracts/Pair.sol\":1723:1724  0 */\n  0x00\n    /* \"contracts/Pair.sol\":1706:1725  token != address(0) */\n  0xffffffffffffffffffffffffffffffffffffffff\n  and\n    /* \"contracts/Pair.sol\":1706:1711  token */\n  dup2\n    /* \"contracts/Pair.sol\":1706:1725  token != address(0) */\n  0xffffffffffffffffffffffffffffffffffffffff\n  and\n  eq\n  iszero\n    /* \"contracts/Pair.sol\":1698:1745  require(token != address(0), \"Invalid address\") */\n  tag_11\n  jumpi\n  mload(0x40)\n  0x08c379a000000000000000000000000000000000000000000000000000000000\n  dup2\n  mstore\n  0x04\n  add\n  tag_12\n  swap1\n  tag_13\n  jump\t// in\ntag_12:\n  mload(0x40)\n  dup1\n  swap2\n  sub\n  swap1\n  revert\ntag_11:\n    /* \"contracts/Pair.sol\":1771:1776  token */\n  dup1\n    /* \"contracts/Pair.sol\":1756:1768  tokenAddress */\n  0x05\n  0x00\n    /* \"contracts/Pair.sol\":1756:1776  tokenAddress = token */\n  0x0100\n  exp\n  dup2\n  sload\n  dup2\n  0xffffffffffffffffffffffffffffffffffffffff\n  mul\n  not\n  and\n  swap1\n  dup4\n  0xffffffffffffffffffffffffffffffffffffffff\n  and\n  mul\n  or\n  swap1\n  sstore\n  pop\n    /* \"contracts/Pair.sol\":1804:1814  msg.sender */\n  caller\n    /* \"contracts/Pair.sol\":1787:1801  factoryAddress */\n  0x06\n  0x00\n    /* \"contracts/Pair.sol\":1787:1814  factoryAddress = msg.sender */\n  0x0100\n  exp\n  dup2\n  sload\n  dup2\n  0xffffffffffffffffffffffffffffffffffffffff\n  mul\n  not\n  and\n  swap1\n  dup4\n  0xffffffffffffffffffffffffffffffffffffffff\n  and\n  mul\n  or\n  swap1\n  sstore\n  pop\n    /* \"contracts/Pair.sol\":1633:1822  constructor(address token) ERC20(\"Swap V1\", \"Swap-V1\"){\r... */\n  pop\n    /* \"contracts/Pair.sol\":822:5410  contract Pair is ERC20 {\r... */\n  jump(tag_14)\ntag_8:\n  dup3\n  dup1\n  sload\n  tag_15\n  swap1\n  tag_16\n  jump\t// in\ntag_15:\n  swap1\n  0x00\n  mstore\n  keccak256(0x00, 0x20)\n  swap1\n  0x1f\n  add\n  0x20\n  swap1\n  div\n  dup2\n  add\n  swap3\n  dup3\n  tag_18\n  jumpi\n  0x00\n  dup6\n  sstore\n  jump(tag_17)\ntag_18:\n  dup3\n  0x1f\n  lt\n  tag_19\n  jumpi\n  dup1\n  mload\n  not(0xff)\n  and\n  dup4\n  dup1\n  add\n  or\n  dup6\n  sstore\n  jump(tag_17)\ntag_19:\n  dup3\n  dup1\n  add\n  0x01\n  add\n  dup6\n  sstore\n  dup3\n  iszero\n  tag_17\n  jumpi\n  swap2\n  dup3\n  add\ntag_20:\n  dup3\n  dup2\n  gt\n  iszero\n  tag_21\n  jumpi\n  dup3\n  mload\n  dup3\n  sstore\n  swap2\n  0x20\n  add\n  swap2\n  swap1\n  0x01\n  add\n  swap1\n  jump(tag_20)\ntag_21:\ntag_17:\n  pop\n  swap1\n  pop\n  tag_22\n  swap2\n  swap1\n  tag_23\n  jump\t// in\ntag_22:\n  pop\n  swap1\n  jump\t// out\ntag_23:\ntag_24:\n  dup1\n  dup3\n  gt\n  iszero\n  tag_25\n  jumpi\n  0x00\n  dup2\n  0x00\n  swap1\n  sstore\n  pop\n  0x01\n  add\n  jump(tag_24)\ntag_25:\n  pop\n  swap1\n  jump\t// out\n    /* \"#utility.yul\":7:150   */\ntag_27:\n    /* \"#utility.yul\":64:69   */\n  0x00\n    /* \"#utility.yul\":95:101   */\n  dup2\n    /* \"#utility.yul\":89:102   */\n  mload\n    /* \"#utility.yul\":80:102   */\n  swap1\n  pop\n    /* \"#utility.yul\":111:144   */\n  tag_29\n    /* \"#utility.yul\":138:143   */\n  dup2\n    /* \"#utility.yul\":111:144   */\n  tag_30\n  jump\t// in\ntag_29:\n    /* \"#utility.yul\":7:150   */\n  swap3\n  swap2\n  pop\n  pop\n  jump\t// out\n    /* \"#utility.yul\":156:507   */\ntag_3:\n    /* \"#utility.yul\":226:232   */\n  0x00\n    /* \"#utility.yul\":275:277   */\n  0x20\n    /* \"#utility.yul\":263:272   */\n  dup3\n    /* \"#utility.yul\":254:261   */\n  dup5\n    /* \"#utility.yul\":250:273   */\n  sub\n    /* \"#utility.yul\":246:278   */\n  slt\n    /* \"#utility.yul\":243:362   */\n  iszero\n  tag_32\n  jumpi\n    /* \"#utility.yul\":281:360   */\n  tag_33\n  tag_34\n  jump\t// in\ntag_33:\n    /* \"#utility.yul\":243:362   */\ntag_32:\n    /* \"#utility.yul\":401:402   */\n  0x00\n    /* \"#utility.yul\":426:490   */\n  tag_35\n    /* \"#utility.yul\":482:489   */\n  dup5\n    /* \"#utility.yul\":473:479   */\n  dup3\n    /* \"#utility.yul\":462:471   */\n  dup6\n    /* \"#utility.yul\":458:480   */\n  add\n    /* \"#utility.yul\":426:490   */\n  tag_27\n  jump\t// in\ntag_35:\n    /* \"#utility.yul\":416:490   */\n  swap2\n  pop\n    /* \"#utility.yul\":372:500   */\n  pop\n    /* \"#utility.yul\":156:507   */\n  swap3\n  swap2\n  pop\n  pop\n  jump\t// out\n    /* \"#utility.yul\":513:879   */\ntag_36:\n    /* \"#utility.yul\":655:658   */\n  0x00\n    /* \"#utility.yul\":676:743   */\n  tag_38\n    /* \"#utility.yul\":740:742   */\n  0x0f\n    /* \"#utility.yul\":735:738   */\n  dup4\n    /* \"#utility.yul\":676:743   */\n  tag_39\n  jump\t// in\ntag_38:\n    /* \"#utility.yul\":669:743   */\n  swap2\n  pop\n    /* \"#utility.yul\":752:845   */\n  tag_40\n    /* \"#utility.yul\":841:844   */\n  dup3\n    /* \"#utility.yul\":752:845   */\n  tag_41\n  jump\t// in\ntag_40:\n    /* \"#utility.yul\":870:872   */\n  0x20\n    /* \"#utility.yul\":865:868   */\n  dup3\n    /* \"#utility.yul\":861:873   */\n  add\n    /* \"#utility.yul\":854:873   */\n  swap1\n  pop\n    /* \"#utility.yul\":513:879   */\n  swap2\n  swap1\n  pop\n  jump\t// out\n    /* \"#utility.yul\":885:1304   */\ntag_13:\n    /* \"#utility.yul\":1051:1055   */\n  0x00\n    /* \"#utility.yul\":1089:1091   */\n  0x20\n    /* \"#utility.yul\":1078:1087   */\n  dup3\n    /* \"#utility.yul\":1074:1092   */\n  add\n    /* \"#utility.yul\":1066:1092   */\n  swap1\n  pop\n    /* \"#utility.yul\":1138:1147   */\n  dup2\n    /* \"#utility.yul\":1132:1136   */\n  dup2\n    /* \"#utility.yul\":1128:1148   */\n  sub\n    /* \"#utility.yul\":1124:1125   */\n  0x00\n    /* \"#utility.yul\":1113:1122   */\n  dup4\n    /* \"#utility.yul\":1109:1126   */\n  add\n    /* \"#utility.yul\":1102:1149   */\n  mstore\n    /* \"#utility.yul\":1166:1297   */\n  tag_43\n    /* \"#utility.yul\":1292:1296   */\n  dup2\n    /* \"#utility.yul\":1166:1297   */\n  tag_36\n  jump\t// in\ntag_43:\n    /* \"#utility.yul\":1158:1297   */\n  swap1\n  pop\n    /* \"#utility.yul\":885:1304   */\n  swap2\n  swap1\n  pop\n  jump\t// out\n    /* \"#utility.yul\":1391:1560   */\ntag_39:\n    /* \"#utility.yul\":1475:1486   */\n  0x00\n    /* \"#utility.yul\":1509:1515   */\n  dup3\n    /* \"#utility.yul\":1504:1507   */\n  dup3\n    /* \"#utility.yul\":1497:1516   */\n  mstore\n    /* \"#utility.yul\":1549:1553   */\n  0x20\n    /* \"#utility.yul\":1544:1547   */\n  dup3\n    /* \"#utility.yul\":1540:1554   */\n  add\n    /* \"#utility.yul\":1525:1554   */\n  swap1\n  pop\n    /* \"#utility.yul\":1391:1560   */\n  swap3\n  swap2\n  pop\n  pop\n  jump\t// out\n    /* \"#utility.yul\":1566:1662   */\ntag_47:\n    /* \"#utility.yul\":1603:1610   */\n  0x00\n    /* \"#utility.yul\":1632:1656   */\n  tag_49\n    /* \"#utility.yul\":1650:1655   */\n  dup3\n    /* \"#utility.yul\":1632:1656   */\n  tag_50\n  jump\t// in\ntag_49:\n    /* \"#utility.yul\":1621:1656   */\n  swap1\n  pop\n    /* \"#utility.yul\":1566:1662   */\n  swap2\n  swap1\n  pop\n  jump\t// out\n    /* \"#utility.yul\":1668:1794   */\ntag_50:\n    /* \"#utility.yul\":1705:1712   */\n  0x00\n    /* \"#utility.yul\":1745:1787   */\n  0xffffffffffffffffffffffffffffffffffffffff\n    /* \"#utility.yul\":1738:1743   */\n  dup3\n    /* \"#utility.yul\":1734:1788   */\n  and\n    /* \"#utility.yul\":1723:1788   */\n  swap1\n  pop\n    /* \"#utility.yul\":1668:1794   */\n  swap2\n  swap1\n  pop\n  jump\t// out\n    /* \"#utility.yul\":1800:2120   */\ntag_16:\n    /* \"#utility.yul\":1844:1850   */\n  0x00\n    /* \"#utility.yul\":1881:1882   */\n  0x02\n    /* \"#utility.yul\":1875:1879   */\n  dup3\n    /* \"#utility.yul\":1871:1883   */\n  div\n    /* \"#utility.yul\":1861:1883   */\n  swap1\n  pop\n    /* \"#utility.yul\":1928:1929   */\n  0x01\n    /* \"#utility.yul\":1922:1926   */\n  dup3\n    /* \"#utility.yul\":1918:1930   */\n  and\n    /* \"#utility.yul\":1949:1967   */\n  dup1\n    /* \"#utility.yul\":1939:2020   */\n  tag_53\n  jumpi\n    /* \"#utility.yul\":2005:2009   */\n  0x7f\n    /* \"#utility.yul\":1997:2003   */\n  dup3\n    /* \"#utility.yul\":1993:2010   */\n  and\n    /* \"#utility.yul\":1983:2010   */\n  swap2\n  pop\n    /* \"#utility.yul\":1939:2020   */\ntag_53:\n    /* \"#utility.yul\":2067:2069   */\n  0x20\n    /* \"#utility.yul\":2059:2065   */\n  dup3\n    /* \"#utility.yul\":2056:2070   */\n  lt\n    /* \"#utility.yul\":2036:2054   */\n  dup2\n    /* \"#utility.yul\":2033:2071   */\n  eq\n    /* \"#utility.yul\":2030:2114   */\n  iszero\n  tag_54\n  jumpi\n    /* \"#utility.yul\":2086:2104   */\n  tag_55\n  tag_56\n  jump\t// in\ntag_55:\n    /* \"#utility.yul\":2030:2114   */\ntag_54:\n    /* \"#utility.yul\":1851:2120   */\n  pop\n    /* \"#utility.yul\":1800:2120   */\n  swap2\n  swap1\n  pop\n  jump\t// out\n    /* \"#utility.yul\":2126:2306   */\ntag_56:\n    /* \"#utility.yul\":2174:2251   */\n  0x4e487b7100000000000000000000000000000000000000000000000000000000\n    /* \"#utility.yul\":2171:2172   */\n  0x00\n    /* \"#utility.yul\":2164:2252   */\n  mstore\n    /* \"#utility.yul\":2271:2275   */\n  0x22\n    /* \"#utility.yul\":2268:2269   */\n  0x04\n    /* \"#utility.yul\":2261:2276   */\n  mstore\n    /* \"#utility.yul\":2295:2299   */\n  0x24\n    /* \"#utility.yul\":2292:2293   */\n  0x00\n    /* \"#utility.yul\":2285:2300   */\n  revert\n    /* \"#utility.yul\":2435:2552   */\ntag_34:\n    /* \"#utility.yul\":2544:2545   */\n  0x00\n    /* \"#utility.yul\":2541:2542   */\n  dup1\n    /* \"#utility.yul\":2534:2546   */\n  revert\n    /* \"#utility.yul\":2558:2723   */\ntag_41:\n    /* \"#utility.yul\":2698:2715   */\n  0x496e76616c696420616464726573730000000000000000000000000000000000\n    /* \"#utility.yul\":2694:2695   */\n  0x00\n    /* \"#utility.yul\":2686:2692   */\n  dup3\n    /* \"#utility.yul\":2682:2696   */\n  add\n    /* \"#utility.yul\":2675:2716   */\n  mstore\n    /* \"#utility.yul\":2558:2723   */\n  pop\n  jump\t// out\n    /* \"#utility.yul\":2729:2851   */\ntag_30:\n    /* \"#utility.yul\":2802:2826   */\n  tag_63\n    /* \"#utility.yul\":2820:2825   */\n  dup2\n    /* \"#utility.yul\":2802:2826   */\n  tag_47\n  jump\t// in\ntag_63:\n    /* \"#utility.yul\":2795:2800   */\n  dup2\n    /* \"#utility.yul\":2792:2827   */\n  eq\n    /* \"#utility.yul\":2782:2845   */\n  tag_64\n  jumpi\n    /* \"#utility.yul\":2841:2842   */\n  0x00\n    /* \"#utility.yul\":2838:2839   */\n  dup1\n    /* \"#utility.yul\":2831:2843   */\n  revert\n    /* \"#utility.yul\":2782:2845   */\ntag_64:\n    /* \"#utility.yul\":2729:2851   */\n  pop\n  jump\t// out\n    /* \"contracts/Pair.sol\":822:5410  contract Pair is ERC20 {\r... */\ntag_14:\n  dataSize(sub_0)\n  dup1\n  dataOffset(sub_0)\n  0x00\n  codecopy\n  0x00\n  return\nstop\n\nsub_0: assembly {\n        /* \"contracts/Pair.sol\":822:5410  contract Pair is ERC20 {\r... */\n      mstore(0x40, 0x80)\n      jumpi(tag_1, lt(calldatasize, 0x04))\n      shr(0xe0, calldataload(0x00))\n      dup1\n      0x51c6590a\n      gt\n      tag_20\n      jumpi\n      dup1\n      0x9c8f9f23\n      gt\n      tag_21\n      jumpi\n      dup1\n      0x9c8f9f23\n      eq\n      tag_15\n      jumpi\n      dup1\n      0x9d76ea58\n      eq\n      tag_16\n      jumpi\n      dup1\n      0xa457c2d7\n      eq\n      tag_17\n      jumpi\n      dup1\n      0xa9059cbb\n      eq\n      tag_18\n      jumpi\n      dup1\n      0xdd62ed3e\n      eq\n      tag_19\n      jumpi\n      jump(tag_1)\n    tag_21:\n      dup1\n      0x51c6590a\n      eq\n      tag_11\n      jumpi\n      dup1\n      0x70a08231\n      eq\n      tag_12\n      jumpi\n      dup1\n      0x95d89b41\n      eq\n      tag_13\n      jumpi\n      dup1\n      0x966dae0e\n      eq\n      tag_14\n      jumpi\n      jump(tag_1)\n    tag_20:\n      dup1\n      0x18160ddd\n      gt\n      tag_22\n      jumpi\n      dup1\n      0x18160ddd\n      eq\n      tag_6\n      jumpi\n      dup1\n      0x23b872dd\n      eq\n      tag_7\n      jumpi\n      dup1\n      0x2c0c60a4\n      eq\n      tag_8\n      jumpi\n      dup1\n      0x313ce567\n      eq\n      tag_9\n      jumpi\n      dup1\n      0x39509351\n      eq\n      tag_10\n      jumpi\n      jump(tag_1)\n    tag_22:\n      dup1\n      0x06fdde03\n      eq\n      tag_2\n      jumpi\n      dup1\n      0x0902f1ac\n      eq\n      tag_3\n      jumpi\n      dup1\n      0x095ea7b3\n      eq\n      tag_4\n      jumpi\n      dup1\n      0x0f8070b4\n      eq\n      tag_5\n      jumpi\n    tag_1:\n      0x00\n      dup1\n      revert\n        /* \"@openzeppelin/contracts/token/ERC20/ERC20.sol\":2156:2254  function name() public view virtual override returns (string memory) {... */\n    tag_2:\n      callvalue\n      dup1\n      iszero\n      tag_23\n      jumpi\n      0x00\n      dup1\n      revert\n    tag_23:\n      pop\n      tag_24\n      tag_25\n      jump\t// in\n    tag_24:\n      mload(0x40)\n      tag_26\n      swap2\n      swap1\n      tag_27\n      jump\t// in\n    tag_26:\n      mload(0x40)\n      dup1\n      swap2\n      sub\n      swap1\n      return\n        /* \"contracts/Pair.sol\":1830:2040  function getReserves() public view returns (uint256 tokenReserve, uint256 ethReserve) {\r... */\n    tag_3:\n      callvalue\n      dup1\n      iszero\n      tag_28\n      jumpi\n      0x00\n      dup1\n      revert\n    tag_28:\n      pop\n      tag_29\n      tag_30\n      jump\t// in\n    tag_29:\n      mload(0x40)\n      tag_31\n      swap3\n      swap2\n      swap1\n      tag_32\n      jump\t// in\n    tag_31:\n      mload(0x40)\n      dup1\n      swap2\n      sub\n      swap1\n      return\n        /* \"@openzeppelin/contracts/token/ERC20/ERC20.sol\":4433:4630  function approve(address spender, uint256 amount) public virtual override returns (bool) {... */\n    tag_4:\n      callvalue\n      dup1\n      iszero\n      tag_33\n      jumpi\n      0x00\n      dup1\n      revert\n    tag_33:\n      pop\n      tag_34\n      0x04\n      dup1\n      calldatasize\n      sub\n      dup2\n      add\n      swap1\n      tag_35\n      swap2\n      swap1\n      tag_36\n      jump\t// in\n    tag_35:\n      tag_37\n      jump\t// in\n    tag_34:\n      mload(0x40)\n      tag_38\n      swap2\n      swap1\n      tag_39\n      jump\t// in\n    tag_38:\n      mload(0x40)\n      dup1\n      swap2\n      sub\n      swap1\n      return\n        /* \"contracts/Pair.sol\":4534:4891  function getTokenAmountForSwap(uint256 ethAmount) public view returns (uint256 tokenAmount){\r... */\n    tag_5:\n      callvalue\n      dup1\n      iszero\n      tag_40\n      jumpi\n      0x00\n      dup1\n      revert\n    tag_40:\n      pop\n      tag_41\n      0x04\n      dup1\n      calldatasize\n      sub\n      dup2\n      add\n      swap1\n      tag_42\n      swap2\n      swap1\n      tag_43\n      jump\t// in\n    tag_42:\n      tag_44\n      jump\t// in\n    tag_41:\n      mload(0x40)\n      tag_45\n      swap2\n      swap1\n      tag_46\n      jump\t// in\n    tag_45:\n      mload(0x40)\n      dup1\n      swap2\n      sub\n      swap1\n      return\n        /* \"@openzeppelin/contracts/token/ERC20/ERC20.sol\":3244:3350  function totalSupply() public view virtual override returns (uint256) {... */\n    tag_6:\n      callvalue\n      dup1\n      iszero\n      tag_47\n      jumpi\n      0x00\n      dup1\n      revert\n    tag_47:\n      pop\n      tag_48\n      tag_49\n      jump\t// in\n    tag_48:\n      mload(0x40)\n      tag_50\n      swap2\n      swap1\n      tag_46\n      jump\t// in\n    tag_50:\n      mload(0x40)\n      dup1\n      swap2\n      sub\n      swap1\n      return\n        /* \"@openzeppelin/contracts/token/ERC20/ERC20.sol\":5192:5478  function transferFrom(... */\n    tag_7:\n      callvalue\n      dup1\n      iszero\n      tag_51\n      jumpi\n      0x00\n      dup1\n      revert\n    tag_51:\n      pop\n      tag_52\n      0x04\n      dup1\n      calldatasize\n      sub\n      dup2\n      add\n      swap1\n      tag_53\n      swap2\n      swap1\n      tag_54\n      jump\t// in\n    tag_53:\n      tag_55\n      jump\t// in\n    tag_52:\n      mload(0x40)\n      tag_56\n      swap2\n      swap1\n      tag_39\n      jump\t// in\n    tag_56:\n      mload(0x40)\n      dup1\n      swap2\n      sub\n      swap1\n      return\n        /* \"contracts/Pair.sol\":4951:5306  function getEthAmountForSwap(uint256 tokenAmount) public view returns (uint256 ethAmount){\r... */\n    tag_8:\n      callvalue\n      dup1\n      iszero\n      tag_57\n      jumpi\n      0x00\n      dup1\n      revert\n    tag_57:\n      pop\n      tag_58\n      0x04\n      dup1\n      calldatasize\n      sub\n      dup2\n      add\n      swap1\n      tag_59\n      swap2\n      swap1\n      tag_43\n      jump\t// in\n    tag_59:\n      tag_60\n      jump\t// in\n    tag_58:\n      mload(0x40)\n      tag_61\n      swap2\n      swap1\n      tag_46\n      jump\t// in\n    tag_61:\n      mload(0x40)\n      dup1\n      swap2\n      sub\n      swap1\n      return\n        /* \"@openzeppelin/contracts/token/ERC20/ERC20.sol\":3093:3184  function decimals() public view virtual override returns (uint8) {... */\n    tag_9:\n      callvalue\n      dup1\n      iszero\n      tag_62\n      jumpi\n      0x00\n      dup1\n      revert\n    tag_62:\n      pop\n      tag_63\n      tag_64\n      jump\t// in\n    tag_63:\n      mload(0x40)\n      tag_65\n      swap2\n      swap1\n      tag_66\n      jump\t// in\n    tag_65:\n      mload(0x40)\n      dup1\n      swap2\n      sub\n      swap1\n      return\n        /* \"@openzeppelin/contracts/token/ERC20/ERC20.sol\":5873:6107  function increaseAllowance(address spender, uint256 addedValue) public virtual returns (bool) {... */\n    tag_10:\n      callvalue\n      dup1\n      iszero\n      tag_67\n      jumpi\n      0x00\n      dup1\n      revert\n    tag_67:\n      pop\n      tag_68\n      0x04\n      dup1\n      calldatasize\n      sub\n      dup2\n      add\n      swap1\n      tag_69\n      swap2\n      swap1\n      tag_36\n      jump\t// in\n    tag_69:\n      tag_70\n      jump\t// in\n    tag_68:\n      mload(0x40)\n      tag_71\n      swap2\n      swap1\n      tag_39\n      jump\t// in\n    tag_71:\n      mload(0x40)\n      dup1\n      swap2\n      sub\n      swap1\n      return\n        /* \"contracts/Pair.sol\":2048:3380  function addLiquidity(uint256 inputTokenAmount) public payable returns (uint256 lpTokenAmount){\r... */\n    tag_11:\n      tag_72\n      0x04\n      dup1\n      calldatasize\n      sub\n      dup2\n      add\n      swap1\n      tag_73\n      swap2\n      swap1\n      tag_43\n      jump\t// in\n    tag_73:\n      tag_74\n      jump\t// in\n    tag_72:\n      mload(0x40)\n      tag_75\n      swap2\n      swap1\n      tag_46\n      jump\t// in\n    tag_75:\n      mload(0x40)\n      dup1\n      swap2\n      sub\n      swap1\n      return\n        /* \"@openzeppelin/contracts/token/ERC20/ERC20.sol\":3408:3533  function balanceOf(address account) public view virtual override returns (uint256) {... */\n    tag_12:\n      callvalue\n      dup1\n      iszero\n      tag_76\n      jumpi\n      0x00\n      dup1\n      revert\n    tag_76:\n      pop\n      tag_77\n      0x04\n      dup1\n      calldatasize\n      sub\n      dup2\n      add\n      swap1\n      tag_78\n      swap2\n      swap1\n      tag_79\n      jump\t// in\n    tag_78:\n      tag_80\n      jump\t// in\n    tag_77:\n      mload(0x40)\n      tag_81\n      swap2\n      swap1\n      tag_46\n      jump\t// in\n    tag_81:\n      mload(0x40)\n      dup1\n      swap2\n      sub\n      swap1\n      return\n        /* \"@openzeppelin/contracts/token/ERC20/ERC20.sol\":2367:2469  function symbol() public view virtual override returns (string memory) {... */\n    tag_13:\n      callvalue\n      dup1\n      iszero\n      tag_82\n      jumpi\n      0x00\n      dup1\n      revert\n    tag_82:\n      pop\n      tag_83\n      tag_84\n      jump\t// in\n    tag_83:\n      mload(0x40)\n      tag_85\n      swap2\n      swap1\n      tag_27\n      jump\t// in\n    tag_85:\n      mload(0x40)\n      dup1\n      swap2\n      sub\n      swap1\n      return\n        /* \"contracts/Pair.sol\":886:915  address public factoryAddress */\n    tag_14:\n      callvalue\n      dup1\n      iszero\n      tag_86\n      jumpi\n      0x00\n      dup1\n      revert\n    tag_86:\n      pop\n      tag_87\n      tag_88\n      jump\t// in\n    tag_87:\n      mload(0x40)\n      tag_89\n      swap2\n      swap1\n      tag_90\n      jump\t// in\n    tag_89:\n      mload(0x40)\n      dup1\n      swap2\n      sub\n      swap1\n      return\n        /* \"contracts/Pair.sol\":3388:4112  function removeLiquidity(uint256 lpTokenAmount) public returns (uint256 ethAmount, uint256 tokenAmount){\r... */\n    tag_15:\n      callvalue\n      dup1\n      iszero\n      tag_91\n      jumpi\n      0x00\n      dup1\n      revert\n    tag_91:\n      pop\n      tag_92\n      0x04\n      dup1\n      calldatasize\n      sub\n      dup2\n      add\n      swap1\n      tag_93\n      swap2\n      swap1\n      tag_43\n      jump\t// in\n    tag_93:\n      tag_94\n      jump\t// in\n    tag_92:\n      mload(0x40)\n      tag_95\n      swap3\n      swap2\n      swap1\n      tag_32\n      jump\t// in\n    tag_95:\n      mload(0x40)\n      dup1\n      swap2\n      sub\n      swap1\n      return\n        /* \"contracts/Pair.sol\":852:879  address public tokenAddress */\n    tag_16:\n      callvalue\n      dup1\n      iszero\n      tag_96\n      jumpi\n      0x00\n      dup1\n      revert\n    tag_96:\n      pop\n      tag_97\n      tag_98\n      jump\t// in\n    tag_97:\n      mload(0x40)\n      tag_99\n      swap2\n      swap1\n      tag_90\n      jump\t// in\n    tag_99:\n      mload(0x40)\n      dup1\n      swap2\n      sub\n      swap1\n      return\n        /* \"@openzeppelin/contracts/token/ERC20/ERC20.sol\":6594:7021  function decreaseAllowance(address spender, uint256 subtractedValue) public virtual returns (bool) {... */\n    tag_17:\n      callvalue\n      dup1\n      iszero\n      tag_100\n      jumpi\n      0x00\n      dup1\n      revert\n    tag_100:\n      pop\n      tag_101\n      0x04\n      dup1\n      calldatasize\n      sub\n      dup2\n      add\n      swap1\n      tag_102\n      swap2\n      swap1\n      tag_36\n      jump\t// in\n    tag_102:\n      tag_103\n      jump\t// in\n    tag_101:\n      mload(0x40)\n      tag_104\n      swap2\n      swap1\n      tag_39\n      jump\t// in\n    tag_104:\n      mload(0x40)\n      dup1\n      swap2\n      sub\n      swap1\n      return\n        /* \"@openzeppelin/contracts/token/ERC20/ERC20.sol\":3729:3918  function transfer(address to, uint256 amount) public virtual override returns (bool) {... */\n    tag_18:\n      callvalue\n      dup1\n      iszero\n      tag_105\n      jumpi\n      0x00\n      dup1\n      revert\n    tag_105:\n      pop\n      tag_106\n      0x04\n      dup1\n      calldatasize\n      sub\n      dup2\n      add\n      swap1\n      tag_107\n      swap2\n      swap1\n      tag_36\n      jump\t// in\n    tag_107:\n      tag_108\n      jump\t// in\n    tag_106:\n      mload(0x40)\n      tag_109\n      swap2\n      swap1\n      tag_39\n      jump\t// in\n    tag_109:\n      mload(0x40)\n      dup1\n      swap2\n      sub\n      swap1\n      return\n        /* \"@openzeppelin/contracts/token/ERC20/ERC20.sol\":3976:4125  function allowance(address owner, address spender) public view virtual override returns (uint256) {... */\n    tag_19:\n      callvalue\n      dup1\n      iszero\n      tag_110\n      jumpi\n      0x00\n      dup1\n      revert\n    tag_110:\n      pop\n      tag_111\n      0x04\n      dup1\n      calldatasize\n      sub\n      dup2\n      add\n      swap1\n      tag_112\n      swap2\n      swap1\n      tag_113\n      jump\t// in\n    tag_112:\n      tag_114\n      jump\t// in\n    tag_111:\n      mload(0x40)\n      tag_115\n      swap2\n      swap1\n      tag_46\n      jump\t// in\n    tag_115:\n      mload(0x40)\n      dup1\n      swap2\n      sub\n      swap1\n      return\n        /* \"@openzeppelin/contracts/token/ERC20/ERC20.sol\":2156:2254  function name() public view virtual override returns (string memory) {... */\n    tag_25:\n        /* \"@openzeppelin/contracts/token/ERC20/ERC20.sol\":2210:2223  string memory */\n      0x60\n        /* \"@openzeppelin/contracts/token/ERC20/ERC20.sol\":2242:2247  _name */\n      0x03\n        /* \"@openzeppelin/contracts/token/ERC20/ERC20.sol\":2235:2247  return _name */\n      dup1\n      sload\n      tag_117\n      swap1\n      tag_118\n      jump\t// in\n    tag_117:\n      dup1\n      0x1f\n      add\n      0x20\n      dup1\n      swap2\n      div\n      mul\n      0x20\n      add\n      mload(0x40)\n      swap1\n      dup2\n      add\n      0x40\n      mstore\n      dup1\n      swap3\n      swap2\n      swap1\n      dup2\n      dup2\n      mstore\n      0x20\n      add\n      dup3\n      dup1\n      sload\n      tag_119\n      swap1\n      tag_118\n      jump\t// in\n    tag_119:\n      dup1\n      iszero\n      tag_120\n      jumpi\n      dup1\n      0x1f\n      lt\n      tag_121\n      jumpi\n      0x0100\n      dup1\n      dup4\n      sload\n      div\n      mul\n      dup4\n      mstore\n      swap2\n      0x20\n      add\n      swap2\n      jump(tag_120)\n    tag_121:\n      dup3\n      add\n      swap2\n      swap1\n      0x00\n      mstore\n      keccak256(0x00, 0x20)\n      swap1\n    tag_122:\n      dup2\n      sload\n      dup2\n      mstore\n      swap1\n      0x01\n      add\n      swap1\n      0x20\n      add\n      dup1\n      dup4\n      gt\n      tag_122\n      jumpi\n      dup3\n      swap1\n      sub\n      0x1f\n      and\n      dup3\n      add\n      swap2\n    tag_120:\n      pop\n      pop\n      pop\n      pop\n      pop\n      swap1\n      pop\n        /* \"@openzeppelin/contracts/token/ERC20/ERC20.sol\":2156:2254  function name() public view virtual override returns (string memory) {... */\n      swap1\n      jump\t// out\n        /* \"contracts/Pair.sol\":1830:2040  function getReserves() public view returns (uint256 tokenReserve, uint256 ethReserve) {\r... */\n    tag_30:\n        /* \"contracts/Pair.sol\":1874:1894  uint256 tokenReserve */\n      0x00\n        /* \"contracts/Pair.sol\":1896:1914  uint256 ethReserve */\n      dup1\n        /* \"contracts/Pair.sol\":1949:1961  tokenAddress */\n      0x05\n      0x00\n      swap1\n      sload\n      swap1\n      0x0100\n      exp\n      swap1\n      div\n      0xffffffffffffffffffffffffffffffffffffffff\n      and\n        /* \"contracts/Pair.sol\":1942:1972  IERC20(tokenAddress).balanceOf */\n      0xffffffffffffffffffffffffffffffffffffffff\n      and\n      0x70a08231\n        /* \"contracts/Pair.sol\":1981:1985  this */\n      address\n        /* \"contracts/Pair.sol\":1942:1987  IERC20(tokenAddress).balanceOf(address(this)) */\n      mload(0x40)\n      dup3\n      0xffffffff\n      and\n      0xe0\n      shl\n      dup2\n      mstore\n      0x04\n      add\n      tag_124\n      swap2\n      swap1\n      tag_90\n      jump\t// in\n    tag_124:\n      0x20\n      mload(0x40)\n      dup1\n      dup4\n      sub\n      dup2\n      dup7\n      dup1\n      extcodesize\n      iszero\n      dup1\n      iszero\n      tag_125\n      jumpi\n      0x00\n      dup1\n      revert\n    tag_125:\n      pop\n      gas\n      staticcall\n      iszero\n      dup1\n      iszero\n      tag_127\n      jumpi\n      returndatasize\n      0x00\n      dup1\n      returndatacopy\n      revert(0x00, returndatasize)\n    tag_127:\n      pop\n      pop\n      pop\n      pop\n      mload(0x40)\n      returndatasize\n      not(0x1f)\n      0x1f\n      dup3\n      add\n      and\n      dup3\n      add\n      dup1\n      0x40\n      mstore\n      pop\n      dup2\n      add\n      swap1\n      tag_128\n      swap2\n      swap1\n      tag_129\n      jump\t// in\n    tag_128:\n        /* \"contracts/Pair.sol\":1927:1987  tokenReserve = IERC20(tokenAddress).balanceOf(address(this)) */\n      swap2\n      pop\n        /* \"contracts/Pair.sol\":2011:2032  address(this).balance */\n      selfbalance\n        /* \"contracts/Pair.sol\":1998:2032  ethReserve = address(this).balance */\n      swap1\n      pop\n        /* \"contracts/Pair.sol\":1830:2040  function getReserves() public view returns (uint256 tokenReserve, uint256 ethReserve) {\r... */\n      swap1\n      swap2\n      jump\t// out\n        /* \"@openzeppelin/contracts/token/ERC20/ERC20.sol\":4433:4630  function approve(address spender, uint256 amount) public virtual override returns (bool) {... */\n    tag_37:\n        /* \"@openzeppelin/contracts/token/ERC20/ERC20.sol\":4516:4520  bool */\n      0x00\n        /* \"@openzeppelin/contracts/token/ERC20/ERC20.sol\":4532:4545  address owner */\n      dup1\n        /* \"@openzeppelin/contracts/token/ERC20/ERC20.sol\":4548:4560  _msgSender() */\n      tag_131\n        /* \"@openzeppelin/contracts/token/ERC20/ERC20.sol\":4548:4558  _msgSender */\n      tag_132\n        /* \"@openzeppelin/contracts/token/ERC20/ERC20.sol\":4548:4560  _msgSender() */\n      jump\t// in\n    tag_131:\n        /* \"@openzeppelin/contracts/token/ERC20/ERC20.sol\":4532:4560  address owner = _msgSender() */\n      swap1\n      pop\n        /* \"@openzeppelin/contracts/token/ERC20/ERC20.sol\":4570:4602  _approve(owner, spender, amount) */\n      tag_133\n        /* \"@openzeppelin/contracts/token/ERC20/ERC20.sol\":4579:4584  owner */\n      dup2\n        /* \"@openzeppelin/contracts/token/ERC20/ERC20.sol\":4586:4593  spender */\n      dup6\n        /* \"@openzeppelin/contracts/token/ERC20/ERC20.sol\":4595:4601  amount */\n      dup6\n        /* \"@openzeppelin/contracts/token/ERC20/ERC20.sol\":4570:4578  _approve */\n      tag_134\n        /* \"@openzeppelin/contracts/token/ERC20/ERC20.sol\":4570:4602  _approve(owner, spender, amount) */\n      jump\t// in\n    tag_133:\n        /* \"@openzeppelin/contracts/token/ERC20/ERC20.sol\":4619:4623  true */\n      0x01\n        /* \"@openzeppelin/contracts/token/ERC20/ERC20.sol\":4612:4623  return true */\n      swap2\n      pop\n      pop\n        /* \"@openzeppelin/contracts/token/ERC20/ERC20.sol\":4433:4630  function approve(address spender, uint256 amount) public virtual override returns (bool) {... */\n      swap3\n      swap2\n      pop\n      pop\n      jump\t// out\n        /* \"contracts/Pair.sol\":4534:4891  function getTokenAmountForSwap(uint256 ethAmount) public view returns (uint256 tokenAmount){\r... */\n    tag_44:\n        /* \"contracts/Pair.sol\":4605:4624  uint256 tokenAmount */\n      0x00\n        /* \"contracts/Pair.sol\":4656:4657  0 */\n      dup1\n        /* \"contracts/Pair.sol\":4644:4653  ethAmount */\n      dup3\n        /* \"contracts/Pair.sol\":4644:4657  ethAmount > 0 */\n      gt\n        /* \"contracts/Pair.sol\":4636:4687  require(ethAmount > 0, \"ETH amount cannot be zero\") */\n      tag_136\n      jumpi\n      mload(0x40)\n      0x08c379a000000000000000000000000000000000000000000000000000000000\n      dup2\n      mstore\n      0x04\n      add\n      tag_137\n      swap1\n      tag_138\n      jump\t// in\n    tag_137:\n      mload(0x40)\n      dup1\n      swap2\n      sub\n      swap1\n      revert\n    tag_136:\n        /* \"contracts/Pair.sol\":4701:4721  uint256 tokenReserve */\n      0x00\n        /* \"contracts/Pair.sol\":4723:4741  uint256 ethReserve */\n      dup1\n        /* \"contracts/Pair.sol\":4745:4758  getReserves() */\n      tag_139\n        /* \"contracts/Pair.sol\":4745:4756  getReserves */\n      tag_30\n        /* \"contracts/Pair.sol\":4745:4758  getReserves() */\n      jump\t// in\n    tag_139:\n        /* \"contracts/Pair.sol\":4700:4758  (uint256 tokenReserve, uint256 ethReserve) = getReserves() */\n      swap2\n      pop\n      swap2\n      pop\n        /* \"contracts/Pair.sol\":4831:4883  getOutputAmount(ethAmount, ethReserve, tokenReserve) */\n      tag_140\n        /* \"contracts/Pair.sol\":4847:4856  ethAmount */\n      dup5\n        /* \"contracts/Pair.sol\":4858:4868  ethReserve */\n      dup3\n        /* \"contracts/Pair.sol\":4870:4882  tokenReserve */\n      dup5\n        /* \"contracts/Pair.sol\":4831:4846  getOutputAmount */\n      tag_141\n        /* \"contracts/Pair.sol\":4831:4883  getOutputAmount(ethAmount, ethReserve, tokenReserve) */\n      jump\t// in\n    tag_140:\n        /* \"contracts/Pair.sol\":4817:4883  tokenAmount = getOutputAmount(ethAmount, ethReserve, tokenReserve) */\n      swap3\n      pop\n        /* \"contracts/Pair.sol\":4625:4891  {\r... */\n      pop\n      pop\n        /* \"contracts/Pair.sol\":4534:4891  function getTokenAmountForSwap(uint256 ethAmount) public view returns (uint256 tokenAmount){\r... */\n      swap2\n      swap1\n      pop\n      jump\t// out\n        /* \"@openzeppelin/contracts/token/ERC20/ERC20.sol\":3244:3350  function totalSupply() public view virtual override returns (uint256) {... */\n    tag_49:\n        /* \"@openzeppelin/contracts/token/ERC20/ERC20.sol\":3305:3312  uint256 */\n      0x00\n        /* \"@openzeppelin/contracts/token/ERC20/ERC20.sol\":3331:3343  _totalSupply */\n      sload(0x02)\n        /* \"@openzeppelin/contracts/token/ERC20/ERC20.sol\":3324:3343  return _totalSupply */\n      swap1\n      pop\n        /* \"@openzeppelin/contracts/token/ERC20/ERC20.sol\":3244:3350  function totalSupply() public view virtual override returns (uint256) {... */\n      swap1\n      jump\t// out\n        /* \"@openzeppelin/contracts/token/ERC20/ERC20.sol\":5192:5478  function transferFrom(... */\n    tag_55:\n        /* \"@openzeppelin/contracts/token/ERC20/ERC20.sol\":5319:5323  bool */\n      0x00\n        /* \"@openzeppelin/contracts/token/ERC20/ERC20.sol\":5335:5350  address spender */\n      dup1\n        /* \"@openzeppelin/contracts/token/ERC20/ERC20.sol\":5353:5365  _msgSender() */\n      tag_144\n        /* \"@openzeppelin/contracts/token/ERC20/ERC20.sol\":5353:5363  _msgSender */\n      tag_132\n        /* \"@openzeppelin/contracts/token/ERC20/ERC20.sol\":5353:5365  _msgSender() */\n      jump\t// in\n    tag_144:\n        /* \"@openzeppelin/contracts/token/ERC20/ERC20.sol\":5335:5365  address spender = _msgSender() */\n      swap1\n      pop\n        /* \"@openzeppelin/contracts/token/ERC20/ERC20.sol\":5375:5413  _spendAllowance(from, spender, amount) */\n      tag_145\n        /* \"@openzeppelin/contracts/token/ERC20/ERC20.sol\":5391:5395  from */\n      dup6\n        /* \"@openzeppelin/contracts/token/ERC20/ERC20.sol\":5397:5404  spender */\n      dup3\n        /* \"@openzeppelin/contracts/token/ERC20/ERC20.sol\":5406:5412  amount */\n      dup6\n        /* \"@openzeppelin/contracts/token/ERC20/ERC20.sol\":5375:5390  _spendAllowance */\n      tag_146\n        /* \"@openzeppelin/contracts/token/ERC20/ERC20.sol\":5375:5413  _spendAllowance(from, spender, amount) */\n      jump\t// in\n    tag_145:\n        /* \"@openzeppelin/contracts/token/ERC20/ERC20.sol\":5423:5450  _transfer(from, to, amount) */\n      tag_147\n        /* \"@openzeppelin/contracts/token/ERC20/ERC20.sol\":5433:5437  from */\n      dup6\n        /* \"@openzeppelin/contracts/token/ERC20/ERC20.sol\":5439:5441  to */\n      dup6\n        /* \"@openzeppelin/contracts/token/ERC20/ERC20.sol\":5443:5449  amount */\n      dup6\n        /* \"@openzeppelin/contracts/token/ERC20/ERC20.sol\":5423:5432  _transfer */\n      tag_148\n        /* \"@openzeppelin/contracts/token/ERC20/ERC20.sol\":5423:5450  _transfer(from, to, amount) */\n      jump\t// in\n    tag_147:\n        /* \"@openzeppelin/contracts/token/ERC20/ERC20.sol\":5467:5471  true */\n      0x01\n        /* \"@openzeppelin/contracts/token/ERC20/ERC20.sol\":5460:5471  return true */\n      swap2\n      pop\n      pop\n        /* \"@openzeppelin/contracts/token/ERC20/ERC20.sol\":5192:5478  function transferFrom(... */\n      swap4\n      swap3\n      pop\n      pop\n      pop\n      jump\t// out\n        /* \"contracts/Pair.sol\":4951:5306  function getEthAmountForSwap(uint256 tokenAmount) public view returns (uint256 ethAmount){\r... */\n    tag_60:\n        /* \"contracts/Pair.sol\":5022:5039  uint256 ethAmount */\n      0x00\n        /* \"contracts/Pair.sol\":5071:5072  0 */\n      dup1\n        /* \"contracts/Pair.sol\":5059:5068  ethAmount */\n      dup2\n        /* \"contracts/Pair.sol\":5059:5072  ethAmount > 0 */\n      gt\n        /* \"contracts/Pair.sol\":5051:5102  require(ethAmount > 0, \"ETH amount cannot be zero\") */\n      tag_150\n      jumpi\n      mload(0x40)\n      0x08c379a000000000000000000000000000000000000000000000000000000000\n      dup2\n      mstore\n      0x04\n      add\n      tag_151\n      swap1\n      tag_138\n      jump\t// in\n    tag_151:\n      mload(0x40)\n      dup1\n      swap2\n      sub\n      swap1\n      revert\n    tag_150:\n        /* \"contracts/Pair.sol\":5116:5136  uint256 tokenReserve */\n      0x00\n        /* \"contracts/Pair.sol\":5138:5156  uint256 ethReserve */\n      dup1\n        /* \"contracts/Pair.sol\":5160:5173  getReserves() */\n      tag_152\n        /* \"contracts/Pair.sol\":5160:5171  getReserves */\n      tag_30\n        /* \"contracts/Pair.sol\":5160:5173  getReserves() */\n      jump\t// in\n    tag_152:\n        /* \"contracts/Pair.sol\":5115:5173  (uint256 tokenReserve, uint256 ethReserve) = getReserves() */\n      swap2\n      pop\n      swap2\n      pop\n        /* \"contracts/Pair.sol\":5244:5298  getOutputAmount(tokenAmount, tokenReserve, ethReserve) */\n      tag_153\n        /* \"contracts/Pair.sol\":5260:5271  tokenAmount */\n      dup5\n        /* \"contracts/Pair.sol\":5273:5285  tokenReserve */\n      dup4\n        /* \"contracts/Pair.sol\":5287:5297  ethReserve */\n      dup4\n        /* \"contracts/Pair.sol\":5244:5259  getOutputAmount */\n      tag_141\n        /* \"contracts/Pair.sol\":5244:5298  getOutputAmount(tokenAmount, tokenReserve, ethReserve) */\n      jump\t// in\n    tag_153:\n        /* \"contracts/Pair.sol\":5232:5298  ethAmount = getOutputAmount(tokenAmount, tokenReserve, ethReserve) */\n      swap3\n      pop\n        /* \"contracts/Pair.sol\":5040:5306  {\r... */\n      pop\n      pop\n        /* \"contracts/Pair.sol\":4951:5306  function getEthAmountForSwap(uint256 tokenAmount) public view returns (uint256 ethAmount){\r... */\n      swap2\n      swap1\n      pop\n      jump\t// out\n        /* \"@openzeppelin/contracts/token/ERC20/ERC20.sol\":3093:3184  function decimals() public view virtual override returns (uint8) {... */\n    tag_64:\n        /* \"@openzeppelin/contracts/token/ERC20/ERC20.sol\":3151:3156  uint8 */\n      0x00\n        /* \"@openzeppelin/contracts/token/ERC20/ERC20.sol\":3175:3177  18 */\n      0x12\n        /* \"@openzeppelin/contracts/token/ERC20/ERC20.sol\":3168:3177  return 18 */\n      swap1\n      pop\n        /* \"@openzeppelin/contracts/token/ERC20/ERC20.sol\":3093:3184  function decimals() public view virtual override returns (uint8) {... */\n      swap1\n      jump\t// out\n        /* \"@openzeppelin/contracts/token/ERC20/ERC20.sol\":5873:6107  function increaseAllowance(address spender, uint256 addedValue) public virtual returns (bool) {... */\n    tag_70:\n        /* \"@openzeppelin/contracts/token/ERC20/ERC20.sol\":5961:5965  bool */\n      0x00\n        /* \"@openzeppelin/contracts/token/ERC20/ERC20.sol\":5977:5990  address owner */\n      dup1\n        /* \"@openzeppelin/contracts/token/ERC20/ERC20.sol\":5993:6005  _msgSender() */\n      tag_156\n        /* \"@openzeppelin/contracts/token/ERC20/ERC20.sol\":5993:6003  _msgSender */\n      tag_132\n        /* \"@openzeppelin/contracts/token/ERC20/ERC20.sol\":5993:6005  _msgSender() */\n      jump\t// in\n    tag_156:\n        /* \"@openzeppelin/contracts/token/ERC20/ERC20.sol\":5977:6005  address owner = _msgSender() */\n      swap1\n      pop\n        /* \"@openzeppelin/contracts/token/ERC20/ERC20.sol\":6015:6079  _approve(owner, spender, allowance(owner, spender) + addedValue) */\n      tag_157\n        /* \"@openzeppelin/contracts/token/ERC20/ERC20.sol\":6024:6029  owner */\n      dup2\n        /* \"@openzeppelin/contracts/token/ERC20/ERC20.sol\":6031:6038  spender */\n      dup6\n        /* \"@openzeppelin/contracts/token/ERC20/ERC20.sol\":6068:6078  addedValue */\n      dup6\n        /* \"@openzeppelin/contracts/token/ERC20/ERC20.sol\":6040:6065  allowance(owner, spender) */\n      tag_158\n        /* \"@openzeppelin/contracts/token/ERC20/ERC20.sol\":6050:6055  owner */\n      dup6\n        /* \"@openzeppelin/contracts/token/ERC20/ERC20.sol\":6057:6064  spender */\n      dup10\n        /* \"@openzeppelin/contracts/token/ERC20/ERC20.sol\":6040:6049  allowance */\n      tag_114\n        /* \"@openzeppelin/contracts/token/ERC20/ERC20.sol\":6040:6065  allowance(owner, spender) */\n      jump\t// in\n    tag_158:\n        /* \"@openzeppelin/contracts/token/ERC20/ERC20.sol\":6040:6078  allowance(owner, spender) + addedValue */\n      tag_159\n      swap2\n      swap1\n      tag_160\n      jump\t// in\n    tag_159:\n        /* \"@openzeppelin/contracts/token/ERC20/ERC20.sol\":6015:6023  _approve */\n      tag_134\n        /* \"@openzeppelin/contracts/token/ERC20/ERC20.sol\":6015:6079  _approve(owner, spender, allowance(owner, spender) + addedValue) */\n      jump\t// in\n    tag_157:\n        /* \"@openzeppelin/contracts/token/ERC20/ERC20.sol\":6096:6100  true */\n      0x01\n        /* \"@openzeppelin/contracts/token/ERC20/ERC20.sol\":6089:6100  return true */\n      swap2\n      pop\n      pop\n        /* \"@openzeppelin/contracts/token/ERC20/ERC20.sol\":5873:6107  function increaseAllowance(address spender, uint256 addedValue) public virtual returns (bool) {... */\n      swap3\n      swap2\n      pop\n      pop\n      jump\t// out\n        /* \"contracts/Pair.sol\":2048:3380  function addLiquidity(uint256 inputTokenAmount) public payable returns (uint256 lpTokenAmount){\r... */\n    tag_74:\n        /* \"contracts/Pair.sol\":2120:2141  uint256 lpTokenAmount */\n      0x00\n        /* \"contracts/Pair.sol\":2154:2174  uint256 tokenReserve */\n      dup1\n        /* \"contracts/Pair.sol\":2176:2194  uint256 ethReserve */\n      0x00\n        /* \"contracts/Pair.sol\":2198:2211  getReserves() */\n      tag_162\n        /* \"contracts/Pair.sol\":2198:2209  getReserves */\n      tag_30\n        /* \"contracts/Pair.sol\":2198:2211  getReserves() */\n      jump\t// in\n    tag_162:\n        /* \"contracts/Pair.sol\":2153:2211  (uint256 tokenReserve, uint256 ethReserve) = getReserves() */\n      swap2\n      pop\n      swap2\n      pop\n        /* \"contracts/Pair.sol\":2440:2441  0 */\n      0x00\n        /* \"contracts/Pair.sol\":2424:2436  tokenReserve */\n      dup3\n        /* \"contracts/Pair.sol\":2424:2441  tokenReserve == 0 */\n      eq\n        /* \"contracts/Pair.sol\":2420:3259  if (tokenReserve == 0) {\r... */\n      iszero\n      tag_163\n      jumpi\n        /* \"contracts/Pair.sol\":2458:2470  IERC20 token */\n      0x00\n        /* \"contracts/Pair.sol\":2480:2492  tokenAddress */\n      0x05\n      0x00\n      swap1\n      sload\n      swap1\n      0x0100\n      exp\n      swap1\n      div\n      0xffffffffffffffffffffffffffffffffffffffff\n      and\n        /* \"contracts/Pair.sol\":2458:2493  IERC20 token = IERC20(tokenAddress) */\n      swap1\n      pop\n        /* \"contracts/Pair.sol\":2508:2513  token */\n      dup1\n        /* \"contracts/Pair.sol\":2508:2526  token.transferFrom */\n      0xffffffffffffffffffffffffffffffffffffffff\n      and\n      0x23b872dd\n        /* \"contracts/Pair.sol\":2527:2537  msg.sender */\n      caller\n        /* \"contracts/Pair.sol\":2547:2551  this */\n      address\n        /* \"contracts/Pair.sol\":2554:2570  inputTokenAmount */\n      dup9\n        /* \"contracts/Pair.sol\":2508:2571  token.transferFrom(msg.sender, address(this), inputTokenAmount) */\n      mload(0x40)\n      dup5\n      0xffffffff\n      and\n      0xe0\n      shl\n      dup2\n      mstore\n      0x04\n      add\n      tag_164\n      swap4\n      swap3\n      swap2\n      swap1\n      tag_165\n      jump\t// in\n    tag_164:\n      0x20\n      mload(0x40)\n      dup1\n      dup4\n      sub\n      dup2\n      0x00\n      dup8\n      dup1\n      extcodesize\n      iszero\n      dup1\n      iszero\n      tag_166\n      jumpi\n      0x00\n      dup1\n      revert\n    tag_166:\n      pop\n      gas\n      call\n      iszero\n      dup1\n      iszero\n      tag_168\n      jumpi\n      returndatasize\n      0x00\n      dup1\n      returndatacopy\n      revert(0x00, returndatasize)\n    tag_168:\n      pop\n      pop\n      pop\n      pop\n      mload(0x40)\n      returndatasize\n      not(0x1f)\n      0x1f\n      dup3\n      add\n      and\n      dup3\n      add\n      dup1\n      0x40\n      mstore\n      pop\n      dup2\n      add\n      swap1\n      tag_169\n      swap2\n      swap1\n      tag_170\n      jump\t// in\n    tag_169:\n      pop\n        /* \"contracts/Pair.sol\":2602:2612  ethReserve */\n      dup2\n        /* \"contracts/Pair.sol\":2586:2612  lpTokenAmount = ethReserve */\n      swap4\n      pop\n        /* \"contracts/Pair.sol\":2443:2624  {\r... */\n      pop\n        /* \"contracts/Pair.sol\":2420:3259  if (tokenReserve == 0) {\r... */\n      jump(tag_171)\n    tag_163:\n        /* \"contracts/Pair.sol\":2702:2711  msg.value */\n      callvalue\n        /* \"contracts/Pair.sol\":2688:2711  ethReserve -= msg.value */\n      dup2\n      tag_172\n      swap2\n      swap1\n      tag_173\n      jump\t// in\n    tag_172:\n      swap1\n      pop\n        /* \"contracts/Pair.sol\":2799:2825  uint256 requiredTokenInput */\n      0x00\n        /* \"contracts/Pair.sol\":2853:2863  ethReserve */\n      dup2\n        /* \"contracts/Pair.sol\":2840:2852  tokenReserve */\n      dup4\n        /* \"contracts/Pair.sol\":2828:2837  msg.value */\n      callvalue\n        /* \"contracts/Pair.sol\":2828:2852  msg.value * tokenReserve */\n      tag_174\n      swap2\n      swap1\n      tag_175\n      jump\t// in\n    tag_174:\n        /* \"contracts/Pair.sol\":2828:2863  msg.value * tokenReserve/ethReserve */\n      tag_176\n      swap2\n      swap1\n      tag_177\n      jump\t// in\n    tag_176:\n        /* \"contracts/Pair.sol\":2799:2863  uint256 requiredTokenInput = msg.value * tokenReserve/ethReserve */\n      swap1\n      pop\n        /* \"contracts/Pair.sol\":2984:3002  requiredTokenInput */\n      dup1\n        /* \"contracts/Pair.sol\":2964:2980  inputTokenAmount */\n      dup6\n        /* \"contracts/Pair.sol\":2964:3002  inputTokenAmount >= requiredTokenInput */\n      lt\n      iszero\n        /* \"contracts/Pair.sol\":2956:3048  require(inputTokenAmount >= requiredTokenInput, \"Insufficient input amount of ERC20 Tokens\") */\n      tag_178\n      jumpi\n      mload(0x40)\n      0x08c379a000000000000000000000000000000000000000000000000000000000\n      dup2\n      mstore\n      0x04\n      add\n      tag_179\n      swap1\n      tag_180\n      jump\t// in\n    tag_179:\n      mload(0x40)\n      dup1\n      swap2\n      sub\n      swap1\n      revert\n    tag_178:\n        /* \"contracts/Pair.sol\":3063:3075  IERC20 token */\n      0x00\n        /* \"contracts/Pair.sol\":3085:3097  tokenAddress */\n      0x05\n      0x00\n      swap1\n      sload\n      swap1\n      0x0100\n      exp\n      swap1\n      div\n      0xffffffffffffffffffffffffffffffffffffffff\n      and\n        /* \"contracts/Pair.sol\":3063:3098  IERC20 token = IERC20(tokenAddress) */\n      swap1\n      pop\n        /* \"contracts/Pair.sol\":3113:3118  token */\n      dup1\n        /* \"contracts/Pair.sol\":3113:3131  token.transferFrom */\n      0xffffffffffffffffffffffffffffffffffffffff\n      and\n      0x23b872dd\n        /* \"contracts/Pair.sol\":3132:3142  msg.sender */\n      caller\n        /* \"contracts/Pair.sol\":3152:3156  this */\n      address\n        /* \"contracts/Pair.sol\":3159:3175  inputTokenAmount */\n      dup10\n        /* \"contracts/Pair.sol\":3113:3176  token.transferFrom(msg.sender, address(this), inputTokenAmount) */\n      mload(0x40)\n      dup5\n      0xffffffff\n      and\n      0xe0\n      shl\n      dup2\n      mstore\n      0x04\n      add\n      tag_181\n      swap4\n      swap3\n      swap2\n      swap1\n      tag_165\n      jump\t// in\n    tag_181:\n      0x20\n      mload(0x40)\n      dup1\n      dup4\n      sub\n      dup2\n      0x00\n      dup8\n      dup1\n      extcodesize\n      iszero\n      dup1\n      iszero\n      tag_182\n      jumpi\n      0x00\n      dup1\n      revert\n    tag_182:\n      pop\n      gas\n      call\n      iszero\n      dup1\n      iszero\n      tag_184\n      jumpi\n      returndatasize\n      0x00\n      dup1\n      returndatacopy\n      revert(0x00, returndatasize)\n    tag_184:\n      pop\n      pop\n      pop\n      pop\n      mload(0x40)\n      returndatasize\n      not(0x1f)\n      0x1f\n      dup3\n      add\n      and\n      dup3\n      add\n      dup1\n      0x40\n      mstore\n      pop\n      dup2\n      add\n      swap1\n      tag_185\n      swap2\n      swap1\n      tag_170\n      jump\t// in\n    tag_185:\n      pop\n        /* \"contracts/Pair.sol\":3237:3247  ethReserve */\n      dup3\n        /* \"contracts/Pair.sol\":3224:3233  msg.value */\n      callvalue\n        /* \"contracts/Pair.sol\":3208:3221  totalSupply() */\n      tag_186\n        /* \"contracts/Pair.sol\":3208:3219  totalSupply */\n      tag_49\n        /* \"contracts/Pair.sol\":3208:3221  totalSupply() */\n      jump\t// in\n    tag_186:\n        /* \"contracts/Pair.sol\":3208:3233  totalSupply() * msg.value */\n      tag_187\n      swap2\n      swap1\n      tag_175\n      jump\t// in\n    tag_187:\n        /* \"contracts/Pair.sol\":3207:3247  (totalSupply() * msg.value) / ethReserve */\n      tag_188\n      swap2\n      swap1\n      tag_177\n      jump\t// in\n    tag_188:\n        /* \"contracts/Pair.sol\":3191:3247  lpTokenAmount = (totalSupply() * msg.value) / ethReserve */\n      swap5\n      pop\n        /* \"contracts/Pair.sol\":2673:3259  {\r... */\n      pop\n      pop\n        /* \"contracts/Pair.sol\":2420:3259  if (tokenReserve == 0) {\r... */\n    tag_171:\n        /* \"contracts/Pair.sol\":3271:3303  _mint(msg.sender, lpTokenAmount) */\n      tag_189\n        /* \"contracts/Pair.sol\":3277:3287  msg.sender */\n      caller\n        /* \"contracts/Pair.sol\":3289:3302  lpTokenAmount */\n      dup5\n        /* \"contracts/Pair.sol\":3271:3276  _mint */\n      tag_190\n        /* \"contracts/Pair.sol\":3271:3303  _mint(msg.sender, lpTokenAmount) */\n      jump\t// in\n    tag_189:\n        /* \"contracts/Pair.sol\":3355:3371  inputTokenAmount */\n      dup4\n        /* \"contracts/Pair.sol\":3344:3353  msg.value */\n      callvalue\n        /* \"contracts/Pair.sol\":3332:3342  msg.sender */\n      caller\n        /* \"contracts/Pair.sol\":3319:3372  AddLiquidity(msg.sender, msg.value, inputTokenAmount) */\n      0xffffffffffffffffffffffffffffffffffffffff\n      and\n      0x06239653922ac7bea6aa2b19dc486b9361821d37712eb796adfd38d81de278ca\n      mload(0x40)\n      mload(0x40)\n      dup1\n      swap2\n      sub\n      swap1\n      log4\n        /* \"contracts/Pair.sol\":2142:3380  {\r... */\n      pop\n      pop\n        /* \"contracts/Pair.sol\":2048:3380  function addLiquidity(uint256 inputTokenAmount) public payable returns (uint256 lpTokenAmount){\r... */\n      swap2\n      swap1\n      pop\n      jump\t// out\n        /* \"@openzeppelin/contracts/token/ERC20/ERC20.sol\":3408:3533  function balanceOf(address account) public view virtual override returns (uint256) {... */\n    tag_80:\n        /* \"@openzeppelin/contracts/token/ERC20/ERC20.sol\":3482:3489  uint256 */\n      0x00\n        /* \"@openzeppelin/contracts/token/ERC20/ERC20.sol\":3508:3517  _balances */\n      dup1\n        /* \"@openzeppelin/contracts/token/ERC20/ERC20.sol\":3508:3526  _balances[account] */\n      0x00\n        /* \"@openzeppelin/contracts/token/ERC20/ERC20.sol\":3518:3525  account */\n      dup4\n        /* \"@openzeppelin/contracts/token/ERC20/ERC20.sol\":3508:3526  _balances[account] */\n      0xffffffffffffffffffffffffffffffffffffffff\n      and\n      0xffffffffffffffffffffffffffffffffffffffff\n      and\n      dup2\n      mstore\n      0x20\n      add\n      swap1\n      dup2\n      mstore\n      0x20\n      add\n      0x00\n      keccak256\n      sload\n        /* \"@openzeppelin/contracts/token/ERC20/ERC20.sol\":3501:3526  return _balances[account] */\n      swap1\n      pop\n        /* \"@openzeppelin/contracts/token/ERC20/ERC20.sol\":3408:3533  function balanceOf(address account) public view virtual override returns (uint256) {... */\n      swap2\n      swap1\n      pop\n      jump\t// out\n        /* \"@openzeppelin/contracts/token/ERC20/ERC20.sol\":2367:2469  function symbol() public view virtual override returns (string memory) {... */\n    tag_84:\n        /* \"@openzeppelin/contracts/token/ERC20/ERC20.sol\":2423:2436  string memory */\n      0x60\n        /* \"@openzeppelin/contracts/token/ERC20/ERC20.sol\":2455:2462  _symbol */\n      0x04\n        /* \"@openzeppelin/contracts/token/ERC20/ERC20.sol\":2448:2462  return _symbol */\n      dup1\n      sload\n      tag_193\n      swap1\n      tag_118\n      jump\t// in\n    tag_193:\n      dup1\n      0x1f\n      add\n      0x20\n      dup1\n      swap2\n      div\n      mul\n      0x20\n      add\n      mload(0x40)\n      swap1\n      dup2\n      add\n      0x40\n      mstore\n      dup1\n      swap3\n      swap2\n      swap1\n      dup2\n      dup2\n      mstore\n      0x20\n      add\n      dup3\n      dup1\n      sload\n      tag_194\n      swap1\n      tag_118\n      jump\t// in\n    tag_194:\n      dup1\n      iszero\n      tag_195\n      jumpi\n      dup1\n      0x1f\n      lt\n      tag_196\n      jumpi\n      0x0100\n      dup1\n      dup4\n      sload\n      div\n      mul\n      dup4\n      mstore\n      swap2\n      0x20\n      add\n      swap2\n      jump(tag_195)\n    tag_196:\n      dup3\n      add\n      swap2\n      swap1\n      0x00\n      mstore\n      keccak256(0x00, 0x20)\n      swap1\n    tag_197:\n      dup2\n      sload\n      dup2\n      mstore\n      swap1\n      0x01\n      add\n      swap1\n      0x20\n      add\n      dup1\n      dup4\n      gt\n      tag_197\n      jumpi\n      dup3\n      swap1\n      sub\n      0x1f\n      and\n      dup3\n      add\n      swap2\n    tag_195:\n      pop\n      pop\n      pop\n      pop\n      pop\n      swap1\n      pop\n        /* \"@openzeppelin/contracts/token/ERC20/ERC20.sol\":2367:2469  function symbol() public view virtual override returns (string memory) {... */\n      swap1\n      jump\t// out\n        /* \"contracts/Pair.sol\":886:915  address public factoryAddress */\n    tag_88:\n      0x06\n      0x00\n      swap1\n      sload\n      swap1\n      0x0100\n      exp\n      swap1\n      div\n      0xffffffffffffffffffffffffffffffffffffffff\n      and\n      dup2\n      jump\t// out\n        /* \"contracts/Pair.sol\":3388:4112  function removeLiquidity(uint256 lpTokenAmount) public returns (uint256 ethAmount, uint256 tokenAmount){\r... */\n    tag_94:\n        /* \"contracts/Pair.sol\":3452:3469  uint256 ethAmount */\n      0x00\n        /* \"contracts/Pair.sol\":3471:3490  uint256 tokenAmount */\n      dup1\n        /* \"contracts/Pair.sol\":3526:3527  0 */\n      0x00\n        /* \"contracts/Pair.sol\":3510:3523  lpTokenAmount */\n      dup4\n        /* \"contracts/Pair.sol\":3510:3527  lpTokenAmount > 0 */\n      gt\n        /* \"contracts/Pair.sol\":3502:3587  require(lpTokenAmount > 0, \"Please input a valid amount of LP Tokens to burn/redeem\") */\n      tag_199\n      jumpi\n      mload(0x40)\n      0x08c379a000000000000000000000000000000000000000000000000000000000\n      dup2\n      mstore\n      0x04\n      add\n      tag_200\n      swap1\n      tag_201\n      jump\t// in\n    tag_200:\n      mload(0x40)\n      dup1\n      swap2\n      sub\n      swap1\n      revert\n    tag_199:\n        /* \"contracts/Pair.sol\":3601:3621  uint256 tokenReserve */\n      0x00\n        /* \"contracts/Pair.sol\":3623:3641  uint256 ethReserve */\n      dup1\n        /* \"contracts/Pair.sol\":3645:3658  getReserves() */\n      tag_202\n        /* \"contracts/Pair.sol\":3645:3656  getReserves */\n      tag_30\n        /* \"contracts/Pair.sol\":3645:3658  getReserves() */\n      jump\t// in\n    tag_202:\n        /* \"contracts/Pair.sol\":3600:3658  (uint256 tokenReserve, uint256 ethReserve) = getReserves() */\n      swap2\n      pop\n      swap2\n      pop\n        /* \"contracts/Pair.sol\":3712:3725  totalSupply() */\n      tag_203\n        /* \"contracts/Pair.sol\":3712:3723  totalSupply */\n      tag_49\n        /* \"contracts/Pair.sol\":3712:3725  totalSupply() */\n      jump\t// in\n    tag_203:\n        /* \"contracts/Pair.sol\":3695:3708  lpTokenAmount */\n      dup6\n        /* \"contracts/Pair.sol\":3682:3692  ethReserve */\n      dup3\n        /* \"contracts/Pair.sol\":3682:3708  ethReserve * lpTokenAmount */\n      tag_204\n      swap2\n      swap1\n      tag_175\n      jump\t// in\n    tag_204:\n        /* \"contracts/Pair.sol\":3681:3725  (ethReserve * lpTokenAmount) / totalSupply() */\n      tag_205\n      swap2\n      swap1\n      tag_177\n      jump\t// in\n    tag_205:\n        /* \"contracts/Pair.sol\":3669:3725  ethAmount = (ethReserve * lpTokenAmount) / totalSupply() */\n      swap4\n      pop\n        /* \"contracts/Pair.sol\":3783:3796  totalSupply() */\n      tag_206\n        /* \"contracts/Pair.sol\":3783:3794  totalSupply */\n      tag_49\n        /* \"contracts/Pair.sol\":3783:3796  totalSupply() */\n      jump\t// in\n    tag_206:\n        /* \"contracts/Pair.sol\":3766:3779  lpTokenAmount */\n      dup6\n        /* \"contracts/Pair.sol\":3751:3763  tokenReserve */\n      dup4\n        /* \"contracts/Pair.sol\":3751:3779  tokenReserve * lpTokenAmount */\n      tag_207\n      swap2\n      swap1\n      tag_175\n      jump\t// in\n    tag_207:\n        /* \"contracts/Pair.sol\":3750:3796  (tokenReserve * lpTokenAmount) / totalSupply() */\n      tag_208\n      swap2\n      swap1\n      tag_177\n      jump\t// in\n    tag_208:\n        /* \"contracts/Pair.sol\":3736:3796  tokenAmount = (tokenReserve * lpTokenAmount) / totalSupply() */\n      swap3\n      pop\n        /* \"contracts/Pair.sol\":3809:3841  _burn(msg.sender, lpTokenAmount) */\n      tag_209\n        /* \"contracts/Pair.sol\":3815:3825  msg.sender */\n      caller\n        /* \"contracts/Pair.sol\":3827:3840  lpTokenAmount */\n      dup7\n        /* \"contracts/Pair.sol\":3809:3814  _burn */\n      tag_210\n        /* \"contracts/Pair.sol\":3809:3841  _burn(msg.sender, lpTokenAmount) */\n      jump\t// in\n    tag_209:\n        /* \"contracts/Pair.sol\":3853:3862  bool sent */\n      0x00\n        /* \"contracts/Pair.sol\":3869:3879  msg.sender */\n      caller\n        /* \"contracts/Pair.sol\":3868:3885  (msg.sender).call */\n      0xffffffffffffffffffffffffffffffffffffffff\n      and\n        /* \"contracts/Pair.sol\":3893:3902  ethAmount */\n      dup6\n        /* \"contracts/Pair.sol\":3868:3907  (msg.sender).call{value: ethAmount}(\"\") */\n      mload(0x40)\n      tag_211\n      swap1\n      tag_212\n      jump\t// in\n    tag_211:\n      0x00\n      mload(0x40)\n      dup1\n      dup4\n      sub\n      dup2\n      dup6\n      dup8\n      gas\n      call\n      swap3\n      pop\n      pop\n      pop\n      returndatasize\n      dup1\n      0x00\n      dup2\n      eq\n      tag_215\n      jumpi\n      mload(0x40)\n      swap2\n      pop\n      and(add(returndatasize, 0x3f), not(0x1f))\n      dup3\n      add\n      0x40\n      mstore\n      returndatasize\n      dup3\n      mstore\n      returndatasize\n      0x00\n      0x20\n      dup5\n      add\n      returndatacopy\n      jump(tag_214)\n    tag_215:\n      0x60\n      swap2\n      pop\n    tag_214:\n      pop\n        /* \"contracts/Pair.sol\":3852:3907  (bool sent, ) = (msg.sender).call{value: ethAmount}(\"\") */\n      pop\n      swap1\n      pop\n        /* \"contracts/Pair.sol\":3926:3930  sent */\n      dup1\n        /* \"contracts/Pair.sol\":3918:3972  require(sent, \"Transaction of Ether was unsuccessful\") */\n      tag_216\n      jumpi\n      mload(0x40)\n      0x08c379a000000000000000000000000000000000000000000000000000000000\n      dup2\n      mstore\n      0x04\n      add\n      tag_217\n      swap1\n      tag_218\n      jump\t// in\n    tag_217:\n      mload(0x40)\n      dup1\n      swap2\n      sub\n      swap1\n      revert\n    tag_216:\n        /* \"contracts/Pair.sol\":3990:4002  tokenAddress */\n      0x05\n      0x00\n      swap1\n      sload\n      swap1\n      0x0100\n      exp\n      swap1\n      div\n      0xffffffffffffffffffffffffffffffffffffffff\n      and\n        /* \"contracts/Pair.sol\":3983:4012  IERC20(tokenAddress).transfer */\n      0xffffffffffffffffffffffffffffffffffffffff\n      and\n      0xa9059cbb\n        /* \"contracts/Pair.sol\":4013:4023  msg.sender */\n      caller\n        /* \"contracts/Pair.sol\":4025:4036  tokenAmount */\n      dup7\n        /* \"contracts/Pair.sol\":3983:4037  IERC20(tokenAddress).transfer(msg.sender, tokenAmount) */\n      mload(0x40)\n      dup4\n      0xffffffff\n      and\n      0xe0\n      shl\n      dup2\n      mstore\n      0x04\n      add\n      tag_219\n      swap3\n      swap2\n      swap1\n      tag_220\n      jump\t// in\n    tag_219:\n      0x20\n      mload(0x40)\n      dup1\n      dup4\n      sub\n      dup2\n      0x00\n      dup8\n      dup1\n      extcodesize\n      iszero\n      dup1\n      iszero\n      tag_221\n      jumpi\n      0x00\n      dup1\n      revert\n    tag_221:\n      pop\n      gas\n      call\n      iszero\n      dup1\n      iszero\n      tag_223\n      jumpi\n      returndatasize\n      0x00\n      dup1\n      returndatacopy\n      revert(0x00, returndatasize)\n    tag_223:\n      pop\n      pop\n      pop\n      pop\n      mload(0x40)\n      returndatasize\n      not(0x1f)\n      0x1f\n      dup3\n      add\n      and\n      dup3\n      add\n      dup1\n      0x40\n      mstore\n      pop\n      dup2\n      add\n      swap1\n      tag_224\n      swap2\n      swap1\n      tag_170\n      jump\t// in\n    tag_224:\n      pop\n        /* \"contracts/Pair.sol\":4092:4103  tokenAmount */\n      dup4\n        /* \"contracts/Pair.sol\":4081:4090  ethAmount */\n      dup6\n        /* \"contracts/Pair.sol\":4069:4079  msg.sender */\n      caller\n        /* \"contracts/Pair.sol\":4053:4104  RemoveLiquidity(msg.sender, ethAmount, tokenAmount) */\n      0xffffffffffffffffffffffffffffffffffffffff\n      and\n      0x0fbf06c058b90cb038a618f8c2acbf6145f8b3570fd1fa56abb8f0f3f05b36e8\n      mload(0x40)\n      mload(0x40)\n      dup1\n      swap2\n      sub\n      swap1\n      log4\n        /* \"contracts/Pair.sol\":3491:4112  {\r... */\n      pop\n      pop\n      pop\n        /* \"contracts/Pair.sol\":3388:4112  function removeLiquidity(uint256 lpTokenAmount) public returns (uint256 ethAmount, uint256 tokenAmount){\r... */\n      swap2\n      pop\n      swap2\n      jump\t// out\n        /* \"contracts/Pair.sol\":852:879  address public tokenAddress */\n    tag_98:\n      0x05\n      0x00\n      swap1\n      sload\n      swap1\n      0x0100\n      exp\n      swap1\n      div\n      0xffffffffffffffffffffffffffffffffffffffff\n      and\n      dup2\n      jump\t// out\n        /* \"@openzeppelin/contracts/token/ERC20/ERC20.sol\":6594:7021  function decreaseAllowance(address spender, uint256 subtractedValue) public virtual returns (bool) {... */\n    tag_103:\n        /* \"@openzeppelin/contracts/token/ERC20/ERC20.sol\":6687:6691  bool */\n      0x00\n        /* \"@openzeppelin/contracts/token/ERC20/ERC20.sol\":6703:6716  address owner */\n      dup1\n        /* \"@openzeppelin/contracts/token/ERC20/ERC20.sol\":6719:6731  _msgSender() */\n      tag_226\n        /* \"@openzeppelin/contracts/token/ERC20/ERC20.sol\":6719:6729  _msgSender */\n      tag_132\n        /* \"@openzeppelin/contracts/token/ERC20/ERC20.sol\":6719:6731  _msgSender() */\n      jump\t// in\n    tag_226:\n        /* \"@openzeppelin/contracts/token/ERC20/ERC20.sol\":6703:6731  address owner = _msgSender() */\n      swap1\n      pop\n        /* \"@openzeppelin/contracts/token/ERC20/ERC20.sol\":6741:6765  uint256 currentAllowance */\n      0x00\n        /* \"@openzeppelin/contracts/token/ERC20/ERC20.sol\":6768:6793  allowance(owner, spender) */\n      tag_227\n        /* \"@openzeppelin/contracts/token/ERC20/ERC20.sol\":6778:6783  owner */\n      dup3\n        /* \"@openzeppelin/contracts/token/ERC20/ERC20.sol\":6785:6792  spender */\n      dup7\n        /* \"@openzeppelin/contracts/token/ERC20/ERC20.sol\":6768:6777  allowance */\n      tag_114\n        /* \"@openzeppelin/contracts/token/ERC20/ERC20.sol\":6768:6793  allowance(owner, spender) */\n      jump\t// in\n    tag_227:\n        /* \"@openzeppelin/contracts/token/ERC20/ERC20.sol\":6741:6793  uint256 currentAllowance = allowance(owner, spender) */\n      swap1\n      pop\n        /* \"@openzeppelin/contracts/token/ERC20/ERC20.sol\":6831:6846  subtractedValue */\n      dup4\n        /* \"@openzeppelin/contracts/token/ERC20/ERC20.sol\":6811:6827  currentAllowance */\n      dup2\n        /* \"@openzeppelin/contracts/token/ERC20/ERC20.sol\":6811:6846  currentAllowance >= subtractedValue */\n      lt\n      iszero\n        /* \"@openzeppelin/contracts/token/ERC20/ERC20.sol\":6803:6888  require(currentAllowance >= subtractedValue, \"ERC20: decreased allowance below zero\") */\n      tag_228\n      jumpi\n      mload(0x40)\n      0x08c379a000000000000000000000000000000000000000000000000000000000\n      dup2\n      mstore\n      0x04\n      add\n      tag_229\n      swap1\n      tag_230\n      jump\t// in\n    tag_229:\n      mload(0x40)\n      dup1\n      swap2\n      sub\n      swap1\n      revert\n    tag_228:\n        /* \"@openzeppelin/contracts/token/ERC20/ERC20.sol\":6922:6982  _approve(owner, spender, currentAllowance - subtractedValue) */\n      tag_231\n        /* \"@openzeppelin/contracts/token/ERC20/ERC20.sol\":6931:6936  owner */\n      dup3\n        /* \"@openzeppelin/contracts/token/ERC20/ERC20.sol\":6938:6945  spender */\n      dup7\n        /* \"@openzeppelin/contracts/token/ERC20/ERC20.sol\":6966:6981  subtractedValue */\n      dup7\n        /* \"@openzeppelin/contracts/token/ERC20/ERC20.sol\":6947:6963  currentAllowance */\n      dup5\n        /* \"@openzeppelin/contracts/token/ERC20/ERC20.sol\":6947:6981  currentAllowance - subtractedValue */\n      sub\n        /* \"@openzeppelin/contracts/token/ERC20/ERC20.sol\":6922:6930  _approve */\n      tag_134\n        /* \"@openzeppelin/contracts/token/ERC20/ERC20.sol\":6922:6982  _approve(owner, spender, currentAllowance - subtractedValue) */\n      jump\t// in\n    tag_231:\n        /* \"@openzeppelin/contracts/token/ERC20/ERC20.sol\":7010:7014  true */\n      0x01\n        /* \"@openzeppelin/contracts/token/ERC20/ERC20.sol\":7003:7014  return true */\n      swap3\n      pop\n      pop\n      pop\n        /* \"@openzeppelin/contracts/token/ERC20/ERC20.sol\":6594:7021  function decreaseAllowance(address spender, uint256 subtractedValue) public virtual returns (bool) {... */\n      swap3\n      swap2\n      pop\n      pop\n      jump\t// out\n        /* \"@openzeppelin/contracts/token/ERC20/ERC20.sol\":3729:3918  function transfer(address to, uint256 amount) public virtual override returns (bool) {... */\n    tag_108:\n        /* \"@openzeppelin/contracts/token/ERC20/ERC20.sol\":3808:3812  bool */\n      0x00\n        /* \"@openzeppelin/contracts/token/ERC20/ERC20.sol\":3824:3837  address owner */\n      dup1\n        /* \"@openzeppelin/contracts/token/ERC20/ERC20.sol\":3840:3852  _msgSender() */\n      tag_233\n        /* \"@openzeppelin/contracts/token/ERC20/ERC20.sol\":3840:3850  _msgSender */\n      tag_132\n        /* \"@openzeppelin/contracts/token/ERC20/ERC20.sol\":3840:3852  _msgSender() */\n      jump\t// in\n    tag_233:\n        /* \"@openzeppelin/contracts/token/ERC20/ERC20.sol\":3824:3852  address owner = _msgSender() */\n      swap1\n      pop\n        /* \"@openzeppelin/contracts/token/ERC20/ERC20.sol\":3862:3890  _transfer(owner, to, amount) */\n      tag_234\n        /* \"@openzeppelin/contracts/token/ERC20/ERC20.sol\":3872:3877  owner */\n      dup2\n        /* \"@openzeppelin/contracts/token/ERC20/ERC20.sol\":3879:3881  to */\n      dup6\n        /* \"@openzeppelin/contracts/token/ERC20/ERC20.sol\":3883:3889  amount */\n      dup6\n        /* \"@openzeppelin/contracts/token/ERC20/ERC20.sol\":3862:3871  _transfer */\n      tag_148\n        /* \"@openzeppelin/contracts/token/ERC20/ERC20.sol\":3862:3890  _transfer(owner, to, amount) */\n      jump\t// in\n    tag_234:\n        /* \"@openzeppelin/contracts/token/ERC20/ERC20.sol\":3907:3911  true */\n      0x01\n        /* \"@openzeppelin/contracts/token/ERC20/ERC20.sol\":3900:3911  return true */\n      swap2\n      pop\n      pop\n        /* \"@openzeppelin/contracts/token/ERC20/ERC20.sol\":3729:3918  function transfer(address to, uint256 amount) public virtual override returns (bool) {... */\n      swap3\n      swap2\n      pop\n      pop\n      jump\t// out\n        /* \"@openzeppelin/contracts/token/ERC20/ERC20.sol\":3976:4125  function allowance(address owner, address spender) public view virtual override returns (uint256) {... */\n    tag_114:\n        /* \"@openzeppelin/contracts/token/ERC20/ERC20.sol\":4065:4072  uint256 */\n      0x00\n        /* \"@openzeppelin/contracts/token/ERC20/ERC20.sol\":4091:4102  _allowances */\n      0x01\n        /* \"@openzeppelin/contracts/token/ERC20/ERC20.sol\":4091:4109  _allowances[owner] */\n      0x00\n        /* \"@openzeppelin/contracts/token/ERC20/ERC20.sol\":4103:4108  owner */\n      dup5\n        /* \"@openzeppelin/contracts/token/ERC20/ERC20.sol\":4091:4109  _allowances[owner] */\n      0xffffffffffffffffffffffffffffffffffffffff\n      and\n      0xffffffffffffffffffffffffffffffffffffffff\n      and\n      dup2\n      mstore\n      0x20\n      add\n      swap1\n      dup2\n      mstore\n      0x20\n      add\n      0x00\n      keccak256\n        /* \"@openzeppelin/contracts/token/ERC20/ERC20.sol\":4091:4118  _allowances[owner][spender] */\n      0x00\n        /* \"@openzeppelin/contracts/token/ERC20/ERC20.sol\":4110:4117  spender */\n      dup4\n        /* \"@openzeppelin/contracts/token/ERC20/ERC20.sol\":4091:4118  _allowances[owner][spender] */\n      0xffffffffffffffffffffffffffffffffffffffff\n      and\n      0xffffffffffffffffffffffffffffffffffffffff\n      and\n      dup2\n      mstore\n      0x20\n      add\n      swap1\n      dup2\n      mstore\n      0x20\n      add\n      0x00\n      keccak256\n      sload\n        /* \"@openzeppelin/contracts/token/ERC20/ERC20.sol\":4084:4118  return _allowances[owner][spender] */\n      swap1\n      pop\n        /* \"@openzeppelin/contracts/token/ERC20/ERC20.sol\":3976:4125  function allowance(address owner, address spender) public view virtual override returns (uint256) {... */\n      swap3\n      swap2\n      pop\n      pop\n      jump\t// out\n        /* \"@openzeppelin/contracts/utils/Context.sol\":640:736  function _msgSender() internal view virtual returns (address) {... */\n    tag_132:\n        /* \"@openzeppelin/contracts/utils/Context.sol\":693:700  address */\n      0x00\n        /* \"@openzeppelin/contracts/utils/Context.sol\":719:729  msg.sender */\n      caller\n        /* \"@openzeppelin/contracts/utils/Context.sol\":712:729  return msg.sender */\n      swap1\n      pop\n        /* \"@openzeppelin/contracts/utils/Context.sol\":640:736  function _msgSender() internal view virtual returns (address) {... */\n      swap1\n      jump\t// out\n        /* \"@openzeppelin/contracts/token/ERC20/ERC20.sol\":10110:10480  function _approve(... */\n    tag_134:\n        /* \"@openzeppelin/contracts/token/ERC20/ERC20.sol\":10258:10259  0 */\n      0x00\n        /* \"@openzeppelin/contracts/token/ERC20/ERC20.sol\":10241:10260  owner != address(0) */\n      0xffffffffffffffffffffffffffffffffffffffff\n      and\n        /* \"@openzeppelin/contracts/token/ERC20/ERC20.sol\":10241:10246  owner */\n      dup4\n        /* \"@openzeppelin/contracts/token/ERC20/ERC20.sol\":10241:10260  owner != address(0) */\n      0xffffffffffffffffffffffffffffffffffffffff\n      and\n      eq\n      iszero\n        /* \"@openzeppelin/contracts/token/ERC20/ERC20.sol\":10233:10301  require(owner != address(0), \"ERC20: approve from the zero address\") */\n      tag_238\n      jumpi\n      mload(0x40)\n      0x08c379a000000000000000000000000000000000000000000000000000000000\n      dup2\n      mstore\n      0x04\n      add\n      tag_239\n      swap1\n      tag_240\n      jump\t// in\n    tag_239:\n      mload(0x40)\n      dup1\n      swap2\n      sub\n      swap1\n      revert\n    tag_238:\n        /* \"@openzeppelin/contracts/token/ERC20/ERC20.sol\":10338:10339  0 */\n      0x00\n        /* \"@openzeppelin/contracts/token/ERC20/ERC20.sol\":10319:10340  spender != address(0) */\n      0xffffffffffffffffffffffffffffffffffffffff\n      and\n        /* \"@openzeppelin/contracts/token/ERC20/ERC20.sol\":10319:10326  spender */\n      dup3\n        /* \"@openzeppelin/contracts/token/ERC20/ERC20.sol\":10319:10340  spender != address(0) */\n      0xffffffffffffffffffffffffffffffffffffffff\n      and\n      eq\n      iszero\n        /* \"@openzeppelin/contracts/token/ERC20/ERC20.sol\":10311:10379  require(spender != address(0), \"ERC20: approve to the zero address\") */\n      tag_241\n      jumpi\n      mload(0x40)\n      0x08c379a000000000000000000000000000000000000000000000000000000000\n      dup2\n      mstore\n      0x04\n      add\n      tag_242\n      swap1\n      tag_243\n      jump\t// in\n    tag_242:\n      mload(0x40)\n      dup1\n      swap2\n      sub\n      swap1\n      revert\n    tag_241:\n        /* \"@openzeppelin/contracts/token/ERC20/ERC20.sol\":10420:10426  amount */\n      dup1\n        /* \"@openzeppelin/contracts/token/ERC20/ERC20.sol\":10390:10401  _allowances */\n      0x01\n        /* \"@openzeppelin/contracts/token/ERC20/ERC20.sol\":10390:10408  _allowances[owner] */\n      0x00\n        /* \"@openzeppelin/contracts/token/ERC20/ERC20.sol\":10402:10407  owner */\n      dup6\n        /* \"@openzeppelin/contracts/token/ERC20/ERC20.sol\":10390:10408  _allowances[owner] */\n      0xffffffffffffffffffffffffffffffffffffffff\n      and\n      0xffffffffffffffffffffffffffffffffffffffff\n      and\n      dup2\n      mstore\n      0x20\n      add\n      swap1\n      dup2\n      mstore\n      0x20\n      add\n      0x00\n      keccak256\n        /* \"@openzeppelin/contracts/token/ERC20/ERC20.sol\":10390:10417  _allowances[owner][spender] */\n      0x00\n        /* \"@openzeppelin/contracts/token/ERC20/ERC20.sol\":10409:10416  spender */\n      dup5\n        /* \"@openzeppelin/contracts/token/ERC20/ERC20.sol\":10390:10417  _allowances[owner][spender] */\n      0xffffffffffffffffffffffffffffffffffffffff\n      and\n      0xffffffffffffffffffffffffffffffffffffffff\n      and\n      dup2\n      mstore\n      0x20\n      add\n      swap1\n      dup2\n      mstore\n      0x20\n      add\n      0x00\n      keccak256\n        /* \"@openzeppelin/contracts/token/ERC20/ERC20.sol\":10390:10426  _allowances[owner][spender] = amount */\n      dup2\n      swap1\n      sstore\n      pop\n        /* \"@openzeppelin/contracts/token/ERC20/ERC20.sol\":10457:10464  spender */\n      dup2\n        /* \"@openzeppelin/contracts/token/ERC20/ERC20.sol\":10441:10473  Approval(owner, spender, amount) */\n      0xffffffffffffffffffffffffffffffffffffffff\n      and\n        /* \"@openzeppelin/contracts/token/ERC20/ERC20.sol\":10450:10455  owner */\n      dup4\n        /* \"@openzeppelin/contracts/token/ERC20/ERC20.sol\":10441:10473  Approval(owner, spender, amount) */\n      0xffffffffffffffffffffffffffffffffffffffff\n      and\n      0x8c5be1e5ebec7d5bd14f71427d1e84f3dd0314c0f7b2291e5b200ac8c7c3b925\n        /* \"@openzeppelin/contracts/token/ERC20/ERC20.sol\":10466:10472  amount */\n      dup4\n        /* \"@openzeppelin/contracts/token/ERC20/ERC20.sol\":10441:10473  Approval(owner, spender, amount) */\n      mload(0x40)\n      tag_244\n      swap2\n      swap1\n      tag_46\n      jump\t// in\n    tag_244:\n      mload(0x40)\n      dup1\n      swap2\n      sub\n      swap1\n      log3\n        /* \"@openzeppelin/contracts/token/ERC20/ERC20.sol\":10110:10480  function _approve(... */\n      pop\n      pop\n      pop\n      jump\t// out\n        /* \"contracts/Pair.sol\":4120:4474  function getOutputAmount(uint256 ipAmount, uint256 ipReserve, uint256 opReserve) private pure returns (uint256 opAmount) {\r... */\n    tag_141:\n        /* \"contracts/Pair.sol\":4223:4239  uint256 opAmount */\n      0x00\n        /* \"contracts/Pair.sol\":4272:4273  0 */\n      dup1\n        /* \"contracts/Pair.sol\":4260:4269  ipReserve */\n      dup4\n        /* \"contracts/Pair.sol\":4260:4273  ipReserve > 0 */\n      gt\n        /* \"contracts/Pair.sol\":4260:4290  ipReserve > 0 && opReserve > 0 */\n      dup1\n      iszero\n      tag_246\n      jumpi\n      pop\n        /* \"contracts/Pair.sol\":4289:4290  0 */\n      0x00\n        /* \"contracts/Pair.sol\":4277:4286  opReserve */\n      dup3\n        /* \"contracts/Pair.sol\":4277:4290  opReserve > 0 */\n      gt\n        /* \"contracts/Pair.sol\":4260:4290  ipReserve > 0 && opReserve > 0 */\n    tag_246:\n        /* \"contracts/Pair.sol\":4252:4316  require(ipReserve > 0 && opReserve > 0, \"There are no reserves\") */\n      tag_247\n      jumpi\n      mload(0x40)\n      0x08c379a000000000000000000000000000000000000000000000000000000000\n      dup2\n      mstore\n      0x04\n      add\n      tag_248\n      swap1\n      tag_249\n      jump\t// in\n    tag_248:\n      mload(0x40)\n      dup1\n      swap2\n      sub\n      swap1\n      revert\n    tag_247:\n        /* \"contracts/Pair.sol\":4327:4350  uint256 ipAmountPlusFee */\n      0x00\n        /* \"contracts/Pair.sol\":1529:1530  0 */\n      dup1\n        /* \"contracts/Pair.sol\":4365:4369  1000 */\n      0x03e8\n        /* \"contracts/Pair.sol\":4365:4377  1000 - txFee */\n      tag_250\n      swap2\n      swap1\n      tag_173\n      jump\t// in\n    tag_250:\n        /* \"contracts/Pair.sol\":4353:4361  ipAmount */\n      dup6\n        /* \"contracts/Pair.sol\":4353:4378  ipAmount * (1000 - txFee) */\n      tag_251\n      swap2\n      swap1\n      tag_175\n      jump\t// in\n    tag_251:\n        /* \"contracts/Pair.sol\":4327:4378  uint256 ipAmountPlusFee = ipAmount * (1000 - txFee) */\n      swap1\n      pop\n        /* \"contracts/Pair.sol\":4450:4465  ipAmountPlusFee */\n      dup1\n        /* \"contracts/Pair.sol\":4438:4447  ipReserve */\n      dup5\n        /* \"contracts/Pair.sol\":4431:4435  1000 */\n      0x03e8\n        /* \"contracts/Pair.sol\":4431:4447  1000 * ipReserve */\n      tag_252\n      swap2\n      swap1\n      tag_175\n      jump\t// in\n    tag_252:\n        /* \"contracts/Pair.sol\":4431:4465  1000 * ipReserve + ipAmountPlusFee */\n      tag_253\n      swap2\n      swap1\n      tag_160\n      jump\t// in\n    tag_253:\n        /* \"contracts/Pair.sol\":4418:4427  opReserve */\n      dup4\n        /* \"contracts/Pair.sol\":4400:4415  ipAmountPlusFee */\n      dup3\n        /* \"contracts/Pair.sol\":4400:4427  ipAmountPlusFee * opReserve */\n      tag_254\n      swap2\n      swap1\n      tag_175\n      jump\t// in\n    tag_254:\n        /* \"contracts/Pair.sol\":4400:4466  ipAmountPlusFee * opReserve / (1000 * ipReserve + ipAmountPlusFee) */\n      tag_255\n      swap2\n      swap1\n      tag_177\n      jump\t// in\n    tag_255:\n        /* \"contracts/Pair.sol\":4389:4466  opAmount = ipAmountPlusFee * opReserve / (1000 * ipReserve + ipAmountPlusFee) */\n      swap2\n      pop\n        /* \"contracts/Pair.sol\":4241:4474  {\r... */\n      pop\n        /* \"contracts/Pair.sol\":4120:4474  function getOutputAmount(uint256 ipAmount, uint256 ipReserve, uint256 opReserve) private pure returns (uint256 opAmount) {\r... */\n      swap4\n      swap3\n      pop\n      pop\n      pop\n      jump\t// out\n        /* \"@openzeppelin/contracts/token/ERC20/ERC20.sol\":10761:11202  function _spendAllowance(... */\n    tag_146:\n        /* \"@openzeppelin/contracts/token/ERC20/ERC20.sol\":10891:10915  uint256 currentAllowance */\n      0x00\n        /* \"@openzeppelin/contracts/token/ERC20/ERC20.sol\":10918:10943  allowance(owner, spender) */\n      tag_257\n        /* \"@openzeppelin/contracts/token/ERC20/ERC20.sol\":10928:10933  owner */\n      dup5\n        /* \"@openzeppelin/contracts/token/ERC20/ERC20.sol\":10935:10942  spender */\n      dup5\n        /* \"@openzeppelin/contracts/token/ERC20/ERC20.sol\":10918:10927  allowance */\n      tag_114\n        /* \"@openzeppelin/contracts/token/ERC20/ERC20.sol\":10918:10943  allowance(owner, spender) */\n      jump\t// in\n    tag_257:\n        /* \"@openzeppelin/contracts/token/ERC20/ERC20.sol\":10891:10943  uint256 currentAllowance = allowance(owner, spender) */\n      swap1\n      pop\n        /* \"@openzeppelin/contracts/token/ERC20/ERC20.sol\":10977:10994  type(uint256).max */\n      0xffffffffffffffffffffffffffffffffffffffffffffffffffffffffffffffff\n        /* \"@openzeppelin/contracts/token/ERC20/ERC20.sol\":10957:10973  currentAllowance */\n      dup2\n        /* \"@openzeppelin/contracts/token/ERC20/ERC20.sol\":10957:10994  currentAllowance != type(uint256).max */\n      eq\n        /* \"@openzeppelin/contracts/token/ERC20/ERC20.sol\":10953:11196  if (currentAllowance != type(uint256).max) {... */\n      tag_258\n      jumpi\n        /* \"@openzeppelin/contracts/token/ERC20/ERC20.sol\":11038:11044  amount */\n      dup2\n        /* \"@openzeppelin/contracts/token/ERC20/ERC20.sol\":11018:11034  currentAllowance */\n      dup2\n        /* \"@openzeppelin/contracts/token/ERC20/ERC20.sol\":11018:11044  currentAllowance >= amount */\n      lt\n      iszero\n        /* \"@openzeppelin/contracts/token/ERC20/ERC20.sol\":11010:11078  require(currentAllowance >= amount, \"ERC20: insufficient allowance\") */\n      tag_259\n      jumpi\n      mload(0x40)\n      0x08c379a000000000000000000000000000000000000000000000000000000000\n      dup2\n      mstore\n      0x04\n      add\n      tag_260\n      swap1\n      tag_261\n      jump\t// in\n    tag_260:\n      mload(0x40)\n      dup1\n      swap2\n      sub\n      swap1\n      revert\n    tag_259:\n        /* \"@openzeppelin/contracts/token/ERC20/ERC20.sol\":11120:11171  _approve(owner, spender, currentAllowance - amount) */\n      tag_262\n        /* \"@openzeppelin/contracts/token/ERC20/ERC20.sol\":11129:11134  owner */\n      dup5\n        /* \"@openzeppelin/contracts/token/ERC20/ERC20.sol\":11136:11143  spender */\n      dup5\n        /* \"@openzeppelin/contracts/token/ERC20/ERC20.sol\":11164:11170  amount */\n      dup5\n        /* \"@openzeppelin/contracts/token/ERC20/ERC20.sol\":11145:11161  currentAllowance */\n      dup5\n        /* \"@openzeppelin/contracts/token/ERC20/ERC20.sol\":11145:11170  currentAllowance - amount */\n      sub\n        /* \"@openzeppelin/contracts/token/ERC20/ERC20.sol\":11120:11128  _approve */\n      tag_134\n        /* \"@openzeppelin/contracts/token/ERC20/ERC20.sol\":11120:11171  _approve(owner, spender, currentAllowance - amount) */\n      jump\t// in\n    tag_262:\n        /* \"@openzeppelin/contracts/token/ERC20/ERC20.sol\":10953:11196  if (currentAllowance != type(uint256).max) {... */\n    tag_258:\n        /* \"@openzeppelin/contracts/token/ERC20/ERC20.sol\":10881:11202  {... */\n      pop\n        /* \"@openzeppelin/contracts/token/ERC20/ERC20.sol\":10761:11202  function _spendAllowance(... */\n      pop\n      pop\n      pop\n      jump\t// out\n        /* \"@openzeppelin/contracts/token/ERC20/ERC20.sol\":7475:8126  function _transfer(... */\n    tag_148:\n        /* \"@openzeppelin/contracts/token/ERC20/ERC20.sol\":7617:7618  0 */\n      0x00\n        /* \"@openzeppelin/contracts/token/ERC20/ERC20.sol\":7601:7619  from != address(0) */\n      0xffffffffffffffffffffffffffffffffffffffff\n      and\n        /* \"@openzeppelin/contracts/token/ERC20/ERC20.sol\":7601:7605  from */\n      dup4\n        /* \"@openzeppelin/contracts/token/ERC20/ERC20.sol\":7601:7619  from != address(0) */\n      0xffffffffffffffffffffffffffffffffffffffff\n      and\n      eq\n      iszero\n        /* \"@openzeppelin/contracts/token/ERC20/ERC20.sol\":7593:7661  require(from != address(0), \"ERC20: transfer from the zero address\") */\n      tag_264\n      jumpi\n      mload(0x40)\n      0x08c379a000000000000000000000000000000000000000000000000000000000\n      dup2\n      mstore\n      0x04\n      add\n      tag_265\n      swap1\n      tag_266\n      jump\t// in\n    tag_265:\n      mload(0x40)\n      dup1\n      swap2\n      sub\n      swap1\n      revert\n    tag_264:\n        /* \"@openzeppelin/contracts/token/ERC20/ERC20.sol\":7693:7694  0 */\n      0x00\n        /* \"@openzeppelin/contracts/token/ERC20/ERC20.sol\":7679:7695  to != address(0) */\n      0xffffffffffffffffffffffffffffffffffffffff\n      and\n        /* \"@openzeppelin/contracts/token/ERC20/ERC20.sol\":7679:7681  to */\n      dup3\n        /* \"@openzeppelin/contracts/token/ERC20/ERC20.sol\":7679:7695  to != address(0) */\n      0xffffffffffffffffffffffffffffffffffffffff\n      and\n      eq\n      iszero\n        /* \"@openzeppelin/contracts/token/ERC20/ERC20.sol\":7671:7735  require(to != address(0), \"ERC20: transfer to the zero address\") */\n      tag_267\n      jumpi\n      mload(0x40)\n      0x08c379a000000000000000000000000000000000000000000000000000000000\n      dup2\n      mstore\n      0x04\n      add\n      tag_268\n      swap1\n      tag_269\n      jump\t// in\n    tag_268:\n      mload(0x40)\n      dup1\n      swap2\n      sub\n      swap1\n      revert\n    tag_267:\n        /* \"@openzeppelin/contracts/token/ERC20/ERC20.sol\":7746:7784  _beforeTokenTransfer(from, to, amount) */\n      tag_270\n        /* \"@openzeppelin/contracts/token/ERC20/ERC20.sol\":7767:7771  from */\n      dup4\n        /* \"@openzeppelin/contracts/token/ERC20/ERC20.sol\":7773:7775  to */\n      dup4\n        /* \"@openzeppelin/contracts/token/ERC20/ERC20.sol\":7777:7783  amount */\n      dup4\n        /* \"@openzeppelin/contracts/token/ERC20/ERC20.sol\":7746:7766  _beforeTokenTransfer */\n      tag_271\n        /* \"@openzeppelin/contracts/token/ERC20/ERC20.sol\":7746:7784  _beforeTokenTransfer(from, to, amount) */\n      jump\t// in\n    tag_270:\n        /* \"@openzeppelin/contracts/token/ERC20/ERC20.sol\":7795:7814  uint256 fromBalance */\n      0x00\n        /* \"@openzeppelin/contracts/token/ERC20/ERC20.sol\":7817:7826  _balances */\n      dup1\n        /* \"@openzeppelin/contracts/token/ERC20/ERC20.sol\":7817:7832  _balances[from] */\n      0x00\n        /* \"@openzeppelin/contracts/token/ERC20/ERC20.sol\":7827:7831  from */\n      dup6\n        /* \"@openzeppelin/contracts/token/ERC20/ERC20.sol\":7817:7832  _balances[from] */\n      0xffffffffffffffffffffffffffffffffffffffff\n      and\n      0xffffffffffffffffffffffffffffffffffffffff\n      and\n      dup2\n      mstore\n      0x20\n      add\n      swap1\n      dup2\n      mstore\n      0x20\n      add\n      0x00\n      keccak256\n      sload\n        /* \"@openzeppelin/contracts/token/ERC20/ERC20.sol\":7795:7832  uint256 fromBalance = _balances[from] */\n      swap1\n      pop\n        /* \"@openzeppelin/contracts/token/ERC20/ERC20.sol\":7865:7871  amount */\n      dup2\n        /* \"@openzeppelin/contracts/token/ERC20/ERC20.sol\":7850:7861  fromBalance */\n      dup2\n        /* \"@openzeppelin/contracts/token/ERC20/ERC20.sol\":7850:7871  fromBalance >= amount */\n      lt\n      iszero\n        /* \"@openzeppelin/contracts/token/ERC20/ERC20.sol\":7842:7914  require(fromBalance >= amount, \"ERC20: transfer amount exceeds balance\") */\n      tag_272\n      jumpi\n      mload(0x40)\n      0x08c379a000000000000000000000000000000000000000000000000000000000\n      dup2\n      mstore\n      0x04\n      add\n      tag_273\n      swap1\n      tag_274\n      jump\t// in\n    tag_273:\n      mload(0x40)\n      dup1\n      swap2\n      sub\n      swap1\n      revert\n    tag_272:\n        /* \"@openzeppelin/contracts/token/ERC20/ERC20.sol\":7980:7986  amount */\n      dup2\n        /* \"@openzeppelin/contracts/token/ERC20/ERC20.sol\":7966:7977  fromBalance */\n      dup2\n        /* \"@openzeppelin/contracts/token/ERC20/ERC20.sol\":7966:7986  fromBalance - amount */\n      sub\n        /* \"@openzeppelin/contracts/token/ERC20/ERC20.sol\":7948:7957  _balances */\n      0x00\n        /* \"@openzeppelin/contracts/token/ERC20/ERC20.sol\":7948:7963  _balances[from] */\n      dup1\n        /* \"@openzeppelin/contracts/token/ERC20/ERC20.sol\":7958:7962  from */\n      dup7\n        /* \"@openzeppelin/contracts/token/ERC20/ERC20.sol\":7948:7963  _balances[from] */\n      0xffffffffffffffffffffffffffffffffffffffff\n      and\n      0xffffffffffffffffffffffffffffffffffffffff\n      and\n      dup2\n      mstore\n      0x20\n      add\n      swap1\n      dup2\n      mstore\n      0x20\n      add\n      0x00\n      keccak256\n        /* \"@openzeppelin/contracts/token/ERC20/ERC20.sol\":7948:7986  _balances[from] = fromBalance - amount */\n      dup2\n      swap1\n      sstore\n      pop\n        /* \"@openzeppelin/contracts/token/ERC20/ERC20.sol\":8023:8029  amount */\n      dup2\n        /* \"@openzeppelin/contracts/token/ERC20/ERC20.sol\":8006:8015  _balances */\n      0x00\n        /* \"@openzeppelin/contracts/token/ERC20/ERC20.sol\":8006:8019  _balances[to] */\n      dup1\n        /* \"@openzeppelin/contracts/token/ERC20/ERC20.sol\":8016:8018  to */\n      dup6\n        /* \"@openzeppelin/contracts/token/ERC20/ERC20.sol\":8006:8019  _balances[to] */\n      0xffffffffffffffffffffffffffffffffffffffff\n      and\n      0xffffffffffffffffffffffffffffffffffffffff\n      and\n      dup2\n      mstore\n      0x20\n      add\n      swap1\n      dup2\n      mstore\n      0x20\n      add\n      0x00\n      keccak256\n      0x00\n        /* \"@openzeppelin/contracts/token/ERC20/ERC20.sol\":8006:8029  _balances[to] += amount */\n      dup3\n      dup3\n      sload\n      tag_275\n      swap2\n      swap1\n      tag_160\n      jump\t// in\n    tag_275:\n      swap3\n      pop\n      pop\n      dup2\n      swap1\n      sstore\n      pop\n        /* \"@openzeppelin/contracts/token/ERC20/ERC20.sol\":8060:8062  to */\n      dup3\n        /* \"@openzeppelin/contracts/token/ERC20/ERC20.sol\":8045:8071  Transfer(from, to, amount) */\n      0xffffffffffffffffffffffffffffffffffffffff\n      and\n        /* \"@openzeppelin/contracts/token/ERC20/ERC20.sol\":8054:8058  from */\n      dup5\n        /* \"@openzeppelin/contracts/token/ERC20/ERC20.sol\":8045:8071  Transfer(from, to, amount) */\n      0xffffffffffffffffffffffffffffffffffffffff\n      and\n      0xddf252ad1be2c89b69c2b068fc378daa952ba7f163c4a11628f55a4df523b3ef\n        /* \"@openzeppelin/contracts/token/ERC20/ERC20.sol\":8064:8070  amount */\n      dup5\n        /* \"@openzeppelin/contracts/token/ERC20/ERC20.sol\":8045:8071  Transfer(from, to, amount) */\n      mload(0x40)\n      tag_276\n      swap2\n      swap1\n      tag_46\n      jump\t// in\n    tag_276:\n      mload(0x40)\n      dup1\n      swap2\n      sub\n      swap1\n      log3\n        /* \"@openzeppelin/contracts/token/ERC20/ERC20.sol\":8082:8119  _afterTokenTransfer(from, to, amount) */\n      tag_277\n        /* \"@openzeppelin/contracts/token/ERC20/ERC20.sol\":8102:8106  from */\n      dup5\n        /* \"@openzeppelin/contracts/token/ERC20/ERC20.sol\":8108:8110  to */\n      dup5\n        /* \"@openzeppelin/contracts/token/ERC20/ERC20.sol\":8112:8118  amount */\n      dup5\n        /* \"@openzeppelin/contracts/token/ERC20/ERC20.sol\":8082:8101  _afterTokenTransfer */\n      tag_278\n        /* \"@openzeppelin/contracts/token/ERC20/ERC20.sol\":8082:8119  _afterTokenTransfer(from, to, amount) */\n      jump\t// in\n    tag_277:\n        /* \"@openzeppelin/contracts/token/ERC20/ERC20.sol\":7583:8126  {... */\n      pop\n        /* \"@openzeppelin/contracts/token/ERC20/ERC20.sol\":7475:8126  function _transfer(... */\n      pop\n      pop\n      pop\n      jump\t// out\n        /* \"@openzeppelin/contracts/token/ERC20/ERC20.sol\":8402:8791  function _mint(address account, uint256 amount) internal virtual {... */\n    tag_190:\n        /* \"@openzeppelin/contracts/token/ERC20/ERC20.sol\":8504:8505  0 */\n      0x00\n        /* \"@openzeppelin/contracts/token/ERC20/ERC20.sol\":8485:8506  account != address(0) */\n      0xffffffffffffffffffffffffffffffffffffffff\n      and\n        /* \"@openzeppelin/contracts/token/ERC20/ERC20.sol\":8485:8492  account */\n      dup3\n        /* \"@openzeppelin/contracts/token/ERC20/ERC20.sol\":8485:8506  account != address(0) */\n      0xffffffffffffffffffffffffffffffffffffffff\n      and\n      eq\n      iszero\n        /* \"@openzeppelin/contracts/token/ERC20/ERC20.sol\":8477:8542  require(account != address(0), \"ERC20: mint to the zero address\") */\n      tag_280\n      jumpi\n      mload(0x40)\n      0x08c379a000000000000000000000000000000000000000000000000000000000\n      dup2\n      mstore\n      0x04\n      add\n      tag_281\n      swap1\n      tag_282\n      jump\t// in\n    tag_281:\n      mload(0x40)\n      dup1\n      swap2\n      sub\n      swap1\n      revert\n    tag_280:\n        /* \"@openzeppelin/contracts/token/ERC20/ERC20.sol\":8553:8602  _beforeTokenTransfer(address(0), account, amount) */\n      tag_283\n        /* \"@openzeppelin/contracts/token/ERC20/ERC20.sol\":8582:8583  0 */\n      0x00\n        /* \"@openzeppelin/contracts/token/ERC20/ERC20.sol\":8586:8593  account */\n      dup4\n        /* \"@openzeppelin/contracts/token/ERC20/ERC20.sol\":8595:8601  amount */\n      dup4\n        /* \"@openzeppelin/contracts/token/ERC20/ERC20.sol\":8553:8573  _beforeTokenTransfer */\n      tag_271\n        /* \"@openzeppelin/contracts/token/ERC20/ERC20.sol\":8553:8602  _beforeTokenTransfer(address(0), account, amount) */\n      jump\t// in\n    tag_283:\n        /* \"@openzeppelin/contracts/token/ERC20/ERC20.sol\":8629:8635  amount */\n      dup1\n        /* \"@openzeppelin/contracts/token/ERC20/ERC20.sol\":8613:8625  _totalSupply */\n      0x02\n      0x00\n        /* \"@openzeppelin/contracts/token/ERC20/ERC20.sol\":8613:8635  _totalSupply += amount */\n      dup3\n      dup3\n      sload\n      tag_284\n      swap2\n      swap1\n      tag_160\n      jump\t// in\n    tag_284:\n      swap3\n      pop\n      pop\n      dup2\n      swap1\n      sstore\n      pop\n        /* \"@openzeppelin/contracts/token/ERC20/ERC20.sol\":8667:8673  amount */\n      dup1\n        /* \"@openzeppelin/contracts/token/ERC20/ERC20.sol\":8645:8654  _balances */\n      0x00\n        /* \"@openzeppelin/contracts/token/ERC20/ERC20.sol\":8645:8663  _balances[account] */\n      dup1\n        /* \"@openzeppelin/contracts/token/ERC20/ERC20.sol\":8655:8662  account */\n      dup5\n        /* \"@openzeppelin/contracts/token/ERC20/ERC20.sol\":8645:8663  _balances[account] */\n      0xffffffffffffffffffffffffffffffffffffffff\n      and\n      0xffffffffffffffffffffffffffffffffffffffff\n      and\n      dup2\n      mstore\n      0x20\n      add\n      swap1\n      dup2\n      mstore\n      0x20\n      add\n      0x00\n      keccak256\n      0x00\n        /* \"@openzeppelin/contracts/token/ERC20/ERC20.sol\":8645:8673  _balances[account] += amount */\n      dup3\n      dup3\n      sload\n      tag_285\n      swap2\n      swap1\n      tag_160\n      jump\t// in\n    tag_285:\n      swap3\n      pop\n      pop\n      dup2\n      swap1\n      sstore\n      pop\n        /* \"@openzeppelin/contracts/token/ERC20/ERC20.sol\":8709:8716  account */\n      dup2\n        /* \"@openzeppelin/contracts/token/ERC20/ERC20.sol\":8688:8725  Transfer(address(0), account, amount) */\n      0xffffffffffffffffffffffffffffffffffffffff\n      and\n        /* \"@openzeppelin/contracts/token/ERC20/ERC20.sol\":8705:8706  0 */\n      0x00\n        /* \"@openzeppelin/contracts/token/ERC20/ERC20.sol\":8688:8725  Transfer(address(0), account, amount) */\n      0xffffffffffffffffffffffffffffffffffffffff\n      and\n      0xddf252ad1be2c89b69c2b068fc378daa952ba7f163c4a11628f55a4df523b3ef\n        /* \"@openzeppelin/contracts/token/ERC20/ERC20.sol\":8718:8724  amount */\n      dup4\n        /* \"@openzeppelin/contracts/token/ERC20/ERC20.sol\":8688:8725  Transfer(address(0), account, amount) */\n      mload(0x40)\n      tag_286\n      swap2\n      swap1\n      tag_46\n      jump\t// in\n    tag_286:\n      mload(0x40)\n      dup1\n      swap2\n      sub\n      swap1\n      log3\n        /* \"@openzeppelin/contracts/token/ERC20/ERC20.sol\":8736:8784  _afterTokenTransfer(address(0), account, amount) */\n      tag_287\n        /* \"@openzeppelin/contracts/token/ERC20/ERC20.sol\":8764:8765  0 */\n      0x00\n        /* \"@openzeppelin/contracts/token/ERC20/ERC20.sol\":8768:8775  account */\n      dup4\n        /* \"@openzeppelin/contracts/token/ERC20/ERC20.sol\":8777:8783  amount */\n      dup4\n        /* \"@openzeppelin/contracts/token/ERC20/ERC20.sol\":8736:8755  _afterTokenTransfer */\n      tag_278\n        /* \"@openzeppelin/contracts/token/ERC20/ERC20.sol\":8736:8784  _afterTokenTransfer(address(0), account, amount) */\n      jump\t// in\n    tag_287:\n        /* \"@openzeppelin/contracts/token/ERC20/ERC20.sol\":8402:8791  function _mint(address account, uint256 amount) internal virtual {... */\n      pop\n      pop\n      jump\t// out\n        /* \"@openzeppelin/contracts/token/ERC20/ERC20.sol\":9111:9687  function _burn(address account, uint256 amount) internal virtual {... */\n    tag_210:\n        /* \"@openzeppelin/contracts/token/ERC20/ERC20.sol\":9213:9214  0 */\n      0x00\n        /* \"@openzeppelin/contracts/token/ERC20/ERC20.sol\":9194:9215  account != address(0) */\n      0xffffffffffffffffffffffffffffffffffffffff\n      and\n        /* \"@openzeppelin/contracts/token/ERC20/ERC20.sol\":9194:9201  account */\n      dup3\n        /* \"@openzeppelin/contracts/token/ERC20/ERC20.sol\":9194:9215  account != address(0) */\n      0xffffffffffffffffffffffffffffffffffffffff\n      and\n      eq\n      iszero\n        /* \"@openzeppelin/contracts/token/ERC20/ERC20.sol\":9186:9253  require(account != address(0), \"ERC20: burn from the zero address\") */\n      tag_289\n      jumpi\n      mload(0x40)\n      0x08c379a000000000000000000000000000000000000000000000000000000000\n      dup2\n      mstore\n      0x04\n      add\n      tag_290\n      swap1\n      tag_291\n      jump\t// in\n    tag_290:\n      mload(0x40)\n      dup1\n      swap2\n      sub\n      swap1\n      revert\n    tag_289:\n        /* \"@openzeppelin/contracts/token/ERC20/ERC20.sol\":9264:9313  _beforeTokenTransfer(account, address(0), amount) */\n      tag_292\n        /* \"@openzeppelin/contracts/token/ERC20/ERC20.sol\":9285:9292  account */\n      dup3\n        /* \"@openzeppelin/contracts/token/ERC20/ERC20.sol\":9302:9303  0 */\n      0x00\n        /* \"@openzeppelin/contracts/token/ERC20/ERC20.sol\":9306:9312  amount */\n      dup4\n        /* \"@openzeppelin/contracts/token/ERC20/ERC20.sol\":9264:9284  _beforeTokenTransfer */\n      tag_271\n        /* \"@openzeppelin/contracts/token/ERC20/ERC20.sol\":9264:9313  _beforeTokenTransfer(account, address(0), amount) */\n      jump\t// in\n    tag_292:\n        /* \"@openzeppelin/contracts/token/ERC20/ERC20.sol\":9324:9346  uint256 accountBalance */\n      0x00\n        /* \"@openzeppelin/contracts/token/ERC20/ERC20.sol\":9349:9358  _balances */\n      dup1\n        /* \"@openzeppelin/contracts/token/ERC20/ERC20.sol\":9349:9367  _balances[account] */\n      0x00\n        /* \"@openzeppelin/contracts/token/ERC20/ERC20.sol\":9359:9366  account */\n      dup5\n        /* \"@openzeppelin/contracts/token/ERC20/ERC20.sol\":9349:9367  _balances[account] */\n      0xffffffffffffffffffffffffffffffffffffffff\n      and\n      0xffffffffffffffffffffffffffffffffffffffff\n      and\n      dup2\n      mstore\n      0x20\n      add\n      swap1\n      dup2\n      mstore\n      0x20\n      add\n      0x00\n      keccak256\n      sload\n        /* \"@openzeppelin/contracts/token/ERC20/ERC20.sol\":9324:9367  uint256 accountBalance = _balances[account] */\n      swap1\n      pop\n        /* \"@openzeppelin/contracts/token/ERC20/ERC20.sol\":9403:9409  amount */\n      dup2\n        /* \"@openzeppelin/contracts/token/ERC20/ERC20.sol\":9385:9399  accountBalance */\n      dup2\n        /* \"@openzeppelin/contracts/token/ERC20/ERC20.sol\":9385:9409  accountBalance >= amount */\n      lt\n      iszero\n        /* \"@openzeppelin/contracts/token/ERC20/ERC20.sol\":9377:9448  require(accountBalance >= amount, \"ERC20: burn amount exceeds balance\") */\n      tag_293\n      jumpi\n      mload(0x40)\n      0x08c379a000000000000000000000000000000000000000000000000000000000\n      dup2\n      mstore\n      0x04\n      add\n      tag_294\n      swap1\n      tag_295\n      jump\t// in\n    tag_294:\n      mload(0x40)\n      dup1\n      swap2\n      sub\n      swap1\n      revert\n    tag_293:\n        /* \"@openzeppelin/contracts/token/ERC20/ERC20.sol\":9520:9526  amount */\n      dup2\n        /* \"@openzeppelin/contracts/token/ERC20/ERC20.sol\":9503:9517  accountBalance */\n      dup2\n        /* \"@openzeppelin/contracts/token/ERC20/ERC20.sol\":9503:9526  accountBalance - amount */\n      sub\n        /* \"@openzeppelin/contracts/token/ERC20/ERC20.sol\":9482:9491  _balances */\n      0x00\n        /* \"@openzeppelin/contracts/token/ERC20/ERC20.sol\":9482:9500  _balances[account] */\n      dup1\n        /* \"@openzeppelin/contracts/token/ERC20/ERC20.sol\":9492:9499  account */\n      dup6\n        /* \"@openzeppelin/contracts/token/ERC20/ERC20.sol\":9482:9500  _balances[account] */\n      0xffffffffffffffffffffffffffffffffffffffff\n      and\n      0xffffffffffffffffffffffffffffffffffffffff\n      and\n      dup2\n      mstore\n      0x20\n      add\n      swap1\n      dup2\n      mstore\n      0x20\n      add\n      0x00\n      keccak256\n        /* \"@openzeppelin/contracts/token/ERC20/ERC20.sol\":9482:9526  _balances[account] = accountBalance - amount */\n      dup2\n      swap1\n      sstore\n      pop\n        /* \"@openzeppelin/contracts/token/ERC20/ERC20.sol\":9562:9568  amount */\n      dup2\n        /* \"@openzeppelin/contracts/token/ERC20/ERC20.sol\":9546:9558  _totalSupply */\n      0x02\n      0x00\n        /* \"@openzeppelin/contracts/token/ERC20/ERC20.sol\":9546:9568  _totalSupply -= amount */\n      dup3\n      dup3\n      sload\n      tag_296\n      swap2\n      swap1\n      tag_173\n      jump\t// in\n    tag_296:\n      swap3\n      pop\n      pop\n      dup2\n      swap1\n      sstore\n      pop\n        /* \"@openzeppelin/contracts/token/ERC20/ERC20.sol\":9610:9611  0 */\n      0x00\n        /* \"@openzeppelin/contracts/token/ERC20/ERC20.sol\":9584:9621  Transfer(account, address(0), amount) */\n      0xffffffffffffffffffffffffffffffffffffffff\n      and\n        /* \"@openzeppelin/contracts/token/ERC20/ERC20.sol\":9593:9600  account */\n      dup4\n        /* \"@openzeppelin/contracts/token/ERC20/ERC20.sol\":9584:9621  Transfer(account, address(0), amount) */\n      0xffffffffffffffffffffffffffffffffffffffff\n      and\n      0xddf252ad1be2c89b69c2b068fc378daa952ba7f163c4a11628f55a4df523b3ef\n        /* \"@openzeppelin/contracts/token/ERC20/ERC20.sol\":9614:9620  amount */\n      dup5\n        /* \"@openzeppelin/contracts/token/ERC20/ERC20.sol\":9584:9621  Transfer(account, address(0), amount) */\n      mload(0x40)\n      tag_297\n      swap2\n      swap1\n      tag_46\n      jump\t// in\n    tag_297:\n      mload(0x40)\n      dup1\n      swap2\n      sub\n      swap1\n      log3\n        /* \"@openzeppelin/contracts/token/ERC20/ERC20.sol\":9632:9680  _afterTokenTransfer(account, address(0), amount) */\n      tag_298\n        /* \"@openzeppelin/contracts/token/ERC20/ERC20.sol\":9652:9659  account */\n      dup4\n        /* \"@openzeppelin/contracts/token/ERC20/ERC20.sol\":9669:9670  0 */\n      0x00\n        /* \"@openzeppelin/contracts/token/ERC20/ERC20.sol\":9673:9679  amount */\n      dup5\n        /* \"@openzeppelin/contracts/token/ERC20/ERC20.sol\":9632:9651  _afterTokenTransfer */\n      tag_278\n        /* \"@openzeppelin/contracts/token/ERC20/ERC20.sol\":9632:9680  _afterTokenTransfer(account, address(0), amount) */\n      jump\t// in\n    tag_298:\n        /* \"@openzeppelin/contracts/token/ERC20/ERC20.sol\":9176:9687  {... */\n      pop\n        /* \"@openzeppelin/contracts/token/ERC20/ERC20.sol\":9111:9687  function _burn(address account, uint256 amount) internal virtual {... */\n      pop\n      pop\n      jump\t// out\n        /* \"@openzeppelin/contracts/token/ERC20/ERC20.sol\":11786:11907  function _beforeTokenTransfer(... */\n    tag_271:\n      pop\n      pop\n      pop\n      jump\t// out\n        /* \"@openzeppelin/contracts/token/ERC20/ERC20.sol\":12495:12615  function _afterTokenTransfer(... */\n    tag_278:\n      pop\n      pop\n      pop\n      jump\t// out\n        /* \"#utility.yul\":7:146   */\n    tag_302:\n        /* \"#utility.yul\":53:58   */\n      0x00\n        /* \"#utility.yul\":91:97   */\n      dup2\n        /* \"#utility.yul\":78:98   */\n      calldataload\n        /* \"#utility.yul\":69:98   */\n      swap1\n      pop\n        /* \"#utility.yul\":107:140   */\n      tag_304\n        /* \"#utility.yul\":134:139   */\n      dup2\n        /* \"#utility.yul\":107:140   */\n      tag_305\n      jump\t// in\n    tag_304:\n        /* \"#utility.yul\":7:146   */\n      swap3\n      swap2\n      pop\n      pop\n      jump\t// out\n        /* \"#utility.yul\":152:289   */\n    tag_306:\n        /* \"#utility.yul\":206:211   */\n      0x00\n        /* \"#utility.yul\":237:243   */\n      dup2\n        /* \"#utility.yul\":231:244   */\n      mload\n        /* \"#utility.yul\":222:244   */\n      swap1\n      pop\n        /* \"#utility.yul\":253:283   */\n      tag_308\n        /* \"#utility.yul\":277:282   */\n      dup2\n        /* \"#utility.yul\":253:283   */\n      tag_309\n      jump\t// in\n    tag_308:\n        /* \"#utility.yul\":152:289   */\n      swap3\n      swap2\n      pop\n      pop\n      jump\t// out\n        /* \"#utility.yul\":295:434   */\n    tag_310:\n        /* \"#utility.yul\":341:346   */\n      0x00\n        /* \"#utility.yul\":379:385   */\n      dup2\n        /* \"#utility.yul\":366:386   */\n      calldataload\n        /* \"#utility.yul\":357:386   */\n      swap1\n      pop\n        /* \"#utility.yul\":395:428   */\n      tag_312\n        /* \"#utility.yul\":422:427   */\n      dup2\n        /* \"#utility.yul\":395:428   */\n      tag_313\n      jump\t// in\n    tag_312:\n        /* \"#utility.yul\":295:434   */\n      swap3\n      swap2\n      pop\n      pop\n      jump\t// out\n        /* \"#utility.yul\":440:583   */\n    tag_314:\n        /* \"#utility.yul\":497:502   */\n      0x00\n        /* \"#utility.yul\":528:534   */\n      dup2\n        /* \"#utility.yul\":522:535   */\n      mload\n        /* \"#utility.yul\":513:535   */\n      swap1\n      pop\n        /* \"#utility.yul\":544:577   */\n      tag_316\n        /* \"#utility.yul\":571:576   */\n      dup2\n        /* \"#utility.yul\":544:577   */\n      tag_313\n      jump\t// in\n    tag_316:\n        /* \"#utility.yul\":440:583   */\n      swap3\n      swap2\n      pop\n      pop\n      jump\t// out\n        /* \"#utility.yul\":589:918   */\n    tag_79:\n        /* \"#utility.yul\":648:654   */\n      0x00\n        /* \"#utility.yul\":697:699   */\n      0x20\n        /* \"#utility.yul\":685:694   */\n      dup3\n        /* \"#utility.yul\":676:683   */\n      dup5\n        /* \"#utility.yul\":672:695   */\n      sub\n        /* \"#utility.yul\":668:700   */\n      slt\n        /* \"#utility.yul\":665:784   */\n      iszero\n      tag_318\n      jumpi\n        /* \"#utility.yul\":703:782   */\n      tag_319\n      tag_320\n      jump\t// in\n    tag_319:\n        /* \"#utility.yul\":665:784   */\n    tag_318:\n        /* \"#utility.yul\":823:824   */\n      0x00\n        /* \"#utility.yul\":848:901   */\n      tag_321\n        /* \"#utility.yul\":893:900   */\n      dup5\n        /* \"#utility.yul\":884:890   */\n      dup3\n        /* \"#utility.yul\":873:882   */\n      dup6\n        /* \"#utility.yul\":869:891   */\n      add\n        /* \"#utility.yul\":848:901   */\n      tag_302\n      jump\t// in\n    tag_321:\n        /* \"#utility.yul\":838:901   */\n      swap2\n      pop\n        /* \"#utility.yul\":794:911   */\n      pop\n        /* \"#utility.yul\":589:918   */\n      swap3\n      swap2\n      pop\n      pop\n      jump\t// out\n        /* \"#utility.yul\":924:1398   */\n    tag_113:\n        /* \"#utility.yul\":992:998   */\n      0x00\n        /* \"#utility.yul\":1000:1006   */\n      dup1\n        /* \"#utility.yul\":1049:1051   */\n      0x40\n        /* \"#utility.yul\":1037:1046   */\n      dup4\n        /* \"#utility.yul\":1028:1035   */\n      dup6\n        /* \"#utility.yul\":1024:1047   */\n      sub\n        /* \"#utility.yul\":1020:1052   */\n      slt\n        /* \"#utility.yul\":1017:1136   */\n      iszero\n      tag_323\n      jumpi\n        /* \"#utility.yul\":1055:1134   */\n      tag_324\n      tag_320\n      jump\t// in\n    tag_324:\n        /* \"#utility.yul\":1017:1136   */\n    tag_323:\n        /* \"#utility.yul\":1175:1176   */\n      0x00\n        /* \"#utility.yul\":1200:1253   */\n      tag_325\n        /* \"#utility.yul\":1245:1252   */\n      dup6\n        /* \"#utility.yul\":1236:1242   */\n      dup3\n        /* \"#utility.yul\":1225:1234   */\n      dup7\n        /* \"#utility.yul\":1221:1243   */\n      add\n        /* \"#utility.yul\":1200:1253   */\n      tag_302\n      jump\t// in\n    tag_325:\n        /* \"#utility.yul\":1190:1253   */\n      swap3\n      pop\n        /* \"#utility.yul\":1146:1263   */\n      pop\n        /* \"#utility.yul\":1302:1304   */\n      0x20\n        /* \"#utility.yul\":1328:1381   */\n      tag_326\n        /* \"#utility.yul\":1373:1380   */\n      dup6\n        /* \"#utility.yul\":1364:1370   */\n      dup3\n        /* \"#utility.yul\":1353:1362   */\n      dup7\n        /* \"#utility.yul\":1349:1371   */\n      add\n        /* \"#utility.yul\":1328:1381   */\n      tag_302\n      jump\t// in\n    tag_326:\n        /* \"#utility.yul\":1318:1381   */\n      swap2\n      pop\n        /* \"#utility.yul\":1273:1391   */\n      pop\n        /* \"#utility.yul\":924:1398   */\n      swap3\n      pop\n      swap3\n      swap1\n      pop\n      jump\t// out\n        /* \"#utility.yul\":1404:2023   */\n    tag_54:\n        /* \"#utility.yul\":1481:1487   */\n      0x00\n        /* \"#utility.yul\":1489:1495   */\n      dup1\n        /* \"#utility.yul\":1497:1503   */\n      0x00\n        /* \"#utility.yul\":1546:1548   */\n      0x60\n        /* \"#utility.yul\":1534:1543   */\n      dup5\n        /* \"#utility.yul\":1525:1532   */\n      dup7\n        /* \"#utility.yul\":1521:1544   */\n      sub\n        /* \"#utility.yul\":1517:1549   */\n      slt\n        /* \"#utility.yul\":1514:1633   */\n      iszero\n      tag_328\n      jumpi\n        /* \"#utility.yul\":1552:1631   */\n      tag_329\n      tag_320\n      jump\t// in\n    tag_329:\n        /* \"#utility.yul\":1514:1633   */\n    tag_328:\n        /* \"#utility.yul\":1672:1673   */\n      0x00\n        /* \"#utility.yul\":1697:1750   */\n      tag_330\n        /* \"#utility.yul\":1742:1749   */\n      dup7\n        /* \"#utility.yul\":1733:1739   */\n      dup3\n        /* \"#utility.yul\":1722:1731   */\n      dup8\n        /* \"#utility.yul\":1718:1740   */\n      add\n        /* \"#utility.yul\":1697:1750   */\n      tag_302\n      jump\t// in\n    tag_330:\n        /* \"#utility.yul\":1687:1750   */\n      swap4\n      pop\n        /* \"#utility.yul\":1643:1760   */\n      pop\n        /* \"#utility.yul\":1799:1801   */\n      0x20\n        /* \"#utility.yul\":1825:1878   */\n      tag_331\n        /* \"#utility.yul\":1870:1877   */\n      dup7\n        /* \"#utility.yul\":1861:1867   */\n      dup3\n        /* \"#utility.yul\":1850:1859   */\n      dup8\n        /* \"#utility.yul\":1846:1868   */\n      add\n        /* \"#utility.yul\":1825:1878   */\n      tag_302\n      jump\t// in\n    tag_331:\n        /* \"#utility.yul\":1815:1878   */\n      swap3\n      pop\n        /* \"#utility.yul\":1770:1888   */\n      pop\n        /* \"#utility.yul\":1927:1929   */\n      0x40\n        /* \"#utility.yul\":1953:2006   */\n      tag_332\n        /* \"#utility.yul\":1998:2005   */\n      dup7\n        /* \"#utility.yul\":1989:1995   */\n      dup3\n        /* \"#utility.yul\":1978:1987   */\n      dup8\n        /* \"#utility.yul\":1974:1996   */\n      add\n        /* \"#utility.yul\":1953:2006   */\n      tag_310\n      jump\t// in\n    tag_332:\n        /* \"#utility.yul\":1943:2006   */\n      swap2\n      pop\n        /* \"#utility.yul\":1898:2016   */\n      pop\n        /* \"#utility.yul\":1404:2023   */\n      swap3\n      pop\n      swap3\n      pop\n      swap3\n      jump\t// out\n        /* \"#utility.yul\":2029:2503   */\n    tag_36:\n        /* \"#utility.yul\":2097:2103   */\n      0x00\n        /* \"#utility.yul\":2105:2111   */\n      dup1\n        /* \"#utility.yul\":2154:2156   */\n      0x40\n        /* \"#utility.yul\":2142:2151   */\n      dup4\n        /* \"#utility.yul\":2133:2140   */\n      dup6\n        /* \"#utility.yul\":2129:2152   */\n      sub\n        /* \"#utility.yul\":2125:2157   */\n      slt\n        /* \"#utility.yul\":2122:2241   */\n      iszero\n      tag_334\n      jumpi\n        /* \"#utility.yul\":2160:2239   */\n      tag_335\n      tag_320\n      jump\t// in\n    tag_335:\n        /* \"#utility.yul\":2122:2241   */\n    tag_334:\n        /* \"#utility.yul\":2280:2281   */\n      0x00\n        /* \"#utility.yul\":2305:2358   */\n      tag_336\n        /* \"#utility.yul\":2350:2357   */\n      dup6\n        /* \"#utility.yul\":2341:2347   */\n      dup3\n        /* \"#utility.yul\":2330:2339   */\n      dup7\n        /* \"#utility.yul\":2326:2348   */\n      add\n        /* \"#utility.yul\":2305:2358   */\n      tag_302\n      jump\t// in\n    tag_336:\n        /* \"#utility.yul\":2295:2358   */\n      swap3\n      pop\n        /* \"#utility.yul\":2251:2368   */\n      pop\n        /* \"#utility.yul\":2407:2409   */\n      0x20\n        /* \"#utility.yul\":2433:2486   */\n      tag_337\n        /* \"#utility.yul\":2478:2485   */\n      dup6\n        /* \"#utility.yul\":2469:2475   */\n      dup3\n        /* \"#utility.yul\":2458:2467   */\n      dup7\n        /* \"#utility.yul\":2454:2476   */\n      add\n        /* \"#utility.yul\":2433:2486   */\n      tag_310\n      jump\t// in\n    tag_337:\n        /* \"#utility.yul\":2423:2486   */\n      swap2\n      pop\n        /* \"#utility.yul\":2378:2496   */\n      pop\n        /* \"#utility.yul\":2029:2503   */\n      swap3\n      pop\n      swap3\n      swap1\n      pop\n      jump\t// out\n        /* \"#utility.yul\":2509:2854   */\n    tag_170:\n        /* \"#utility.yul\":2576:2582   */\n      0x00\n        /* \"#utility.yul\":2625:2627   */\n      0x20\n        /* \"#utility.yul\":2613:2622   */\n      dup3\n        /* \"#utility.yul\":2604:2611   */\n      dup5\n        /* \"#utility.yul\":2600:2623   */\n      sub\n        /* \"#utility.yul\":2596:2628   */\n      slt\n        /* \"#utility.yul\":2593:2712   */\n      iszero\n      tag_339\n      jumpi\n        /* \"#utility.yul\":2631:2710   */\n      tag_340\n      tag_320\n      jump\t// in\n    tag_340:\n        /* \"#utility.yul\":2593:2712   */\n    tag_339:\n        /* \"#utility.yul\":2751:2752   */\n      0x00\n        /* \"#utility.yul\":2776:2837   */\n      tag_341\n        /* \"#utility.yul\":2829:2836   */\n      dup5\n        /* \"#utility.yul\":2820:2826   */\n      dup3\n        /* \"#utility.yul\":2809:2818   */\n      dup6\n        /* \"#utility.yul\":2805:2827   */\n      add\n        /* \"#utility.yul\":2776:2837   */\n      tag_306\n      jump\t// in\n    tag_341:\n        /* \"#utility.yul\":2766:2837   */\n      swap2\n      pop\n        /* \"#utility.yul\":2722:2847   */\n      pop\n        /* \"#utility.yul\":2509:2854   */\n      swap3\n      swap2\n      pop\n      pop\n      jump\t// out\n        /* \"#utility.yul\":2860:3189   */\n    tag_43:\n        /* \"#utility.yul\":2919:2925   */\n      0x00\n        /* \"#utility.yul\":2968:2970   */\n      0x20\n        /* \"#utility.yul\":2956:2965   */\n      dup3\n        /* \"#utility.yul\":2947:2954   */\n      dup5\n        /* \"#utility.yul\":2943:2966   */\n      sub\n        /* \"#utility.yul\":2939:2971   */\n      slt\n        /* \"#utility.yul\":2936:3055   */\n      iszero\n      tag_343\n      jumpi\n        /* \"#utility.yul\":2974:3053   */\n      tag_344\n      tag_320\n      jump\t// in\n    tag_344:\n        /* \"#utility.yul\":2936:3055   */\n    tag_343:\n        /* \"#utility.yul\":3094:3095   */\n      0x00\n        /* \"#utility.yul\":3119:3172   */\n      tag_345\n        /* \"#utility.yul\":3164:3171   */\n      dup5\n        /* \"#utility.yul\":3155:3161   */\n      dup3\n        /* \"#utility.yul\":3144:3153   */\n      dup6\n        /* \"#utility.yul\":3140:3162   */\n      add\n        /* \"#utility.yul\":3119:3172   */\n      tag_310\n      jump\t// in\n    tag_345:\n        /* \"#utility.yul\":3109:3172   */\n      swap2\n      pop\n        /* \"#utility.yul\":3065:3182   */\n      pop\n        /* \"#utility.yul\":2860:3189   */\n      swap3\n      swap2\n      pop\n      pop\n      jump\t// out\n        /* \"#utility.yul\":3195:3546   */\n    tag_129:\n        /* \"#utility.yul\":3265:3271   */\n      0x00\n        /* \"#utility.yul\":3314:3316   */\n      0x20\n        /* \"#utility.yul\":3302:3311   */\n      dup3\n        /* \"#utility.yul\":3293:3300   */\n      dup5\n        /* \"#utility.yul\":3289:3312   */\n      sub\n        /* \"#utility.yul\":3285:3317   */\n      slt\n        /* \"#utility.yul\":3282:3401   */\n      iszero\n      tag_347\n      jumpi\n        /* \"#utility.yul\":3320:3399   */\n      tag_348\n      tag_320\n      jump\t// in\n    tag_348:\n        /* \"#utility.yul\":3282:3401   */\n    tag_347:\n        /* \"#utility.yul\":3440:3441   */\n      0x00\n        /* \"#utility.yul\":3465:3529   */\n      tag_349\n        /* \"#utility.yul\":3521:3528   */\n      dup5\n        /* \"#utility.yul\":3512:3518   */\n      dup3\n        /* \"#utility.yul\":3501:3510   */\n      dup6\n        /* \"#utility.yul\":3497:3519   */\n      add\n        /* \"#utility.yul\":3465:3529   */\n      tag_314\n      jump\t// in\n    tag_349:\n        /* \"#utility.yul\":3455:3529   */\n      swap2\n      pop\n        /* \"#utility.yul\":3411:3539   */\n      pop\n        /* \"#utility.yul\":3195:3546   */\n      swap3\n      swap2\n      pop\n      pop\n      jump\t// out\n        /* \"#utility.yul\":3552:3670   */\n    tag_350:\n        /* \"#utility.yul\":3639:3663   */\n      tag_352\n        /* \"#utility.yul\":3657:3662   */\n      dup2\n        /* \"#utility.yul\":3639:3663   */\n      tag_353\n      jump\t// in\n    tag_352:\n        /* \"#utility.yul\":3634:3637   */\n      dup3\n        /* \"#utility.yul\":3627:3664   */\n      mstore\n        /* \"#utility.yul\":3552:3670   */\n      pop\n      pop\n      jump\t// out\n        /* \"#utility.yul\":3676:3785   */\n    tag_354:\n        /* \"#utility.yul\":3757:3778   */\n      tag_356\n        /* \"#utility.yul\":3772:3777   */\n      dup2\n        /* \"#utility.yul\":3757:3778   */\n      tag_357\n      jump\t// in\n    tag_356:\n        /* \"#utility.yul\":3752:3755   */\n      dup3\n        /* \"#utility.yul\":3745:3779   */\n      mstore\n        /* \"#utility.yul\":3676:3785   */\n      pop\n      pop\n      jump\t// out\n        /* \"#utility.yul\":3791:4155   */\n    tag_358:\n        /* \"#utility.yul\":3879:3882   */\n      0x00\n        /* \"#utility.yul\":3907:3946   */\n      tag_360\n        /* \"#utility.yul\":3940:3945   */\n      dup3\n        /* \"#utility.yul\":3907:3946   */\n      tag_361\n      jump\t// in\n    tag_360:\n        /* \"#utility.yul\":3962:4033   */\n      tag_362\n        /* \"#utility.yul\":4026:4032   */\n      dup2\n        /* \"#utility.yul\":4021:4024   */\n      dup6\n        /* \"#utility.yul\":3962:4033   */\n      tag_363\n      jump\t// in\n    tag_362:\n        /* \"#utility.yul\":3955:4033   */\n      swap4\n      pop\n        /* \"#utility.yul\":4042:4094   */\n      tag_364\n        /* \"#utility.yul\":4087:4093   */\n      dup2\n        /* \"#utility.yul\":4082:4085   */\n      dup6\n        /* \"#utility.yul\":4075:4079   */\n      0x20\n        /* \"#utility.yul\":4068:4073   */\n      dup7\n        /* \"#utility.yul\":4064:4080   */\n      add\n        /* \"#utility.yul\":4042:4094   */\n      tag_365\n      jump\t// in\n    tag_364:\n        /* \"#utility.yul\":4119:4148   */\n      tag_366\n        /* \"#utility.yul\":4141:4147   */\n      dup2\n        /* \"#utility.yul\":4119:4148   */\n      tag_367\n      jump\t// in\n    tag_366:\n        /* \"#utility.yul\":4114:4117   */\n      dup5\n        /* \"#utility.yul\":4110:4149   */\n      add\n        /* \"#utility.yul\":4103:4149   */\n      swap2\n      pop\n        /* \"#utility.yul\":3883:4155   */\n      pop\n        /* \"#utility.yul\":3791:4155   */\n      swap3\n      swap2\n      pop\n      pop\n      jump\t// out\n        /* \"#utility.yul\":4161:4527   */\n    tag_368:\n        /* \"#utility.yul\":4303:4306   */\n      0x00\n        /* \"#utility.yul\":4324:4391   */\n      tag_370\n        /* \"#utility.yul\":4388:4390   */\n      0x23\n        /* \"#utility.yul\":4383:4386   */\n      dup4\n        /* \"#utility.yul\":4324:4391   */\n      tag_363\n      jump\t// in\n    tag_370:\n        /* \"#utility.yul\":4317:4391   */\n      swap2\n      pop\n        /* \"#utility.yul\":4400:4493   */\n      tag_371\n        /* \"#utility.yul\":4489:4492   */\n      dup3\n        /* \"#utility.yul\":4400:4493   */\n      tag_372\n      jump\t// in\n    tag_371:\n        /* \"#utility.yul\":4518:4520   */\n      0x40\n        /* \"#utility.yul\":4513:4516   */\n      dup3\n        /* \"#utility.yul\":4509:4521   */\n      add\n        /* \"#utility.yul\":4502:4521   */\n      swap1\n      pop\n        /* \"#utility.yul\":4161:4527   */\n      swap2\n      swap1\n      pop\n      jump\t// out\n        /* \"#utility.yul\":4533:4899   */\n    tag_373:\n        /* \"#utility.yul\":4675:4678   */\n      0x00\n        /* \"#utility.yul\":4696:4763   */\n      tag_375\n        /* \"#utility.yul\":4760:4762   */\n      0x22\n        /* \"#utility.yul\":4755:4758   */\n      dup4\n        /* \"#utility.yul\":4696:4763   */\n      tag_363\n      jump\t// in\n    tag_375:\n        /* \"#utility.yul\":4689:4763   */\n      swap2\n      pop\n        /* \"#utility.yul\":4772:4865   */\n      tag_376\n        /* \"#utility.yul\":4861:4864   */\n      dup3\n        /* \"#utility.yul\":4772:4865   */\n      tag_377\n      jump\t// in\n    tag_376:\n        /* \"#utility.yul\":4890:4892   */\n      0x40\n        /* \"#utility.yul\":4885:4888   */\n      dup3\n        /* \"#utility.yul\":4881:4893   */\n      add\n        /* \"#utility.yul\":4874:4893   */\n      swap1\n      pop\n        /* \"#utility.yul\":4533:4899   */\n      swap2\n      swap1\n      pop\n      jump\t// out\n        /* \"#utility.yul\":4905:5271   */\n    tag_378:\n        /* \"#utility.yul\":5047:5050   */\n      0x00\n        /* \"#utility.yul\":5068:5135   */\n      tag_380\n        /* \"#utility.yul\":5132:5134   */\n      0x22\n        /* \"#utility.yul\":5127:5130   */\n      dup4\n        /* \"#utility.yul\":5068:5135   */\n      tag_363\n      jump\t// in\n    tag_380:\n        /* \"#utility.yul\":5061:5135   */\n      swap2\n      pop\n        /* \"#utility.yul\":5144:5237   */\n      tag_381\n        /* \"#utility.yul\":5233:5236   */\n      dup3\n        /* \"#utility.yul\":5144:5237   */\n      tag_382\n      jump\t// in\n    tag_381:\n        /* \"#utility.yul\":5262:5264   */\n      0x40\n        /* \"#utility.yul\":5257:5260   */\n      dup3\n        /* \"#utility.yul\":5253:5265   */\n      add\n        /* \"#utility.yul\":5246:5265   */\n      swap1\n      pop\n        /* \"#utility.yul\":4905:5271   */\n      swap2\n      swap1\n      pop\n      jump\t// out\n        /* \"#utility.yul\":5277:5643   */\n    tag_383:\n        /* \"#utility.yul\":5419:5422   */\n      0x00\n        /* \"#utility.yul\":5440:5507   */\n      tag_385\n        /* \"#utility.yul\":5504:5506   */\n      0x29\n        /* \"#utility.yul\":5499:5502   */\n      dup4\n        /* \"#utility.yul\":5440:5507   */\n      tag_363\n      jump\t// in\n    tag_385:\n        /* \"#utility.yul\":5433:5507   */\n      swap2\n      pop\n        /* \"#utility.yul\":5516:5609   */\n      tag_386\n        /* \"#utility.yul\":5605:5608   */\n      dup3\n        /* \"#utility.yul\":5516:5609   */\n      tag_387\n      jump\t// in\n    tag_386:\n        /* \"#utility.yul\":5634:5636   */\n      0x40\n        /* \"#utility.yul\":5629:5632   */\n      dup3\n        /* \"#utility.yul\":5625:5637   */\n      add\n        /* \"#utility.yul\":5618:5637   */\n      swap1\n      pop\n        /* \"#utility.yul\":5277:5643   */\n      swap2\n      swap1\n      pop\n      jump\t// out\n        /* \"#utility.yul\":5649:6015   */\n    tag_388:\n        /* \"#utility.yul\":5791:5794   */\n      0x00\n        /* \"#utility.yul\":5812:5879   */\n      tag_390\n        /* \"#utility.yul\":5876:5878   */\n      0x1d\n        /* \"#utility.yul\":5871:5874   */\n      dup4\n        /* \"#utility.yul\":5812:5879   */\n      tag_363\n      jump\t// in\n    tag_390:\n        /* \"#utility.yul\":5805:5879   */\n      swap2\n      pop\n        /* \"#utility.yul\":5888:5981   */\n      tag_391\n        /* \"#utility.yul\":5977:5980   */\n      dup3\n        /* \"#utility.yul\":5888:5981   */\n      tag_392\n      jump\t// in\n    tag_391:\n        /* \"#utility.yul\":6006:6008   */\n      0x20\n        /* \"#utility.yul\":6001:6004   */\n      dup3\n        /* \"#utility.yul\":5997:6009   */\n      add\n        /* \"#utility.yul\":5990:6009   */\n      swap1\n      pop\n        /* \"#utility.yul\":5649:6015   */\n      swap2\n      swap1\n      pop\n      jump\t// out\n        /* \"#utility.yul\":6021:6387   */\n    tag_393:\n        /* \"#utility.yul\":6163:6166   */\n      0x00\n        /* \"#utility.yul\":6184:6251   */\n      tag_395\n        /* \"#utility.yul\":6248:6250   */\n      0x26\n        /* \"#utility.yul\":6243:6246   */\n      dup4\n        /* \"#utility.yul\":6184:6251   */\n      tag_363\n      jump\t// in\n    tag_395:\n        /* \"#utility.yul\":6177:6251   */\n      swap2\n      pop\n        /* \"#utility.yul\":6260:6353   */\n      tag_396\n        /* \"#utility.yul\":6349:6352   */\n      dup3\n        /* \"#utility.yul\":6260:6353   */\n      tag_397\n      jump\t// in\n    tag_396:\n        /* \"#utility.yul\":6378:6380   */\n      0x40\n        /* \"#utility.yul\":6373:6376   */\n      dup3\n        /* \"#utility.yul\":6369:6381   */\n      add\n        /* \"#utility.yul\":6362:6381   */\n      swap1\n      pop\n        /* \"#utility.yul\":6021:6387   */\n      swap2\n      swap1\n      pop\n      jump\t// out\n        /* \"#utility.yul\":6393:6759   */\n    tag_398:\n        /* \"#utility.yul\":6535:6538   */\n      0x00\n        /* \"#utility.yul\":6556:6623   */\n      tag_400\n        /* \"#utility.yul\":6620:6622   */\n      0x37\n        /* \"#utility.yul\":6615:6618   */\n      dup4\n        /* \"#utility.yul\":6556:6623   */\n      tag_363\n      jump\t// in\n    tag_400:\n        /* \"#utility.yul\":6549:6623   */\n      swap2\n      pop\n        /* \"#utility.yul\":6632:6725   */\n      tag_401\n        /* \"#utility.yul\":6721:6724   */\n      dup3\n        /* \"#utility.yul\":6632:6725   */\n      tag_402\n      jump\t// in\n    tag_401:\n        /* \"#utility.yul\":6750:6752   */\n      0x40\n        /* \"#utility.yul\":6745:6748   */\n      dup3\n        /* \"#utility.yul\":6741:6753   */\n      add\n        /* \"#utility.yul\":6734:6753   */\n      swap1\n      pop\n        /* \"#utility.yul\":6393:6759   */\n      swap2\n      swap1\n      pop\n      jump\t// out\n        /* \"#utility.yul\":6765:7131   */\n    tag_403:\n        /* \"#utility.yul\":6907:6910   */\n      0x00\n        /* \"#utility.yul\":6928:6995   */\n      tag_405\n        /* \"#utility.yul\":6992:6994   */\n      0x21\n        /* \"#utility.yul\":6987:6990   */\n      dup4\n        /* \"#utility.yul\":6928:6995   */\n      tag_363\n      jump\t// in\n    tag_405:\n        /* \"#utility.yul\":6921:6995   */\n      swap2\n      pop\n        /* \"#utility.yul\":7004:7097   */\n      tag_406\n        /* \"#utility.yul\":7093:7096   */\n      dup3\n        /* \"#utility.yul\":7004:7097   */\n      tag_407\n      jump\t// in\n    tag_406:\n        /* \"#utility.yul\":7122:7124   */\n      0x40\n        /* \"#utility.yul\":7117:7120   */\n      dup3\n        /* \"#utility.yul\":7113:7125   */\n      add\n        /* \"#utility.yul\":7106:7125   */\n      swap1\n      pop\n        /* \"#utility.yul\":6765:7131   */\n      swap2\n      swap1\n      pop\n      jump\t// out\n        /* \"#utility.yul\":7137:7503   */\n    tag_408:\n        /* \"#utility.yul\":7279:7282   */\n      0x00\n        /* \"#utility.yul\":7300:7367   */\n      tag_410\n        /* \"#utility.yul\":7364:7366   */\n      0x19\n        /* \"#utility.yul\":7359:7362   */\n      dup4\n        /* \"#utility.yul\":7300:7367   */\n      tag_363\n      jump\t// in\n    tag_410:\n        /* \"#utility.yul\":7293:7367   */\n      swap2\n      pop\n        /* \"#utility.yul\":7376:7469   */\n      tag_411\n        /* \"#utility.yul\":7465:7468   */\n      dup3\n        /* \"#utility.yul\":7376:7469   */\n      tag_412\n      jump\t// in\n    tag_411:\n        /* \"#utility.yul\":7494:7496   */\n      0x20\n        /* \"#utility.yul\":7489:7492   */\n      dup3\n        /* \"#utility.yul\":7485:7497   */\n      add\n        /* \"#utility.yul\":7478:7497   */\n      swap1\n      pop\n        /* \"#utility.yul\":7137:7503   */\n      swap2\n      swap1\n      pop\n      jump\t// out\n        /* \"#utility.yul\":7509:7875   */\n    tag_413:\n        /* \"#utility.yul\":7651:7654   */\n      0x00\n        /* \"#utility.yul\":7672:7739   */\n      tag_415\n        /* \"#utility.yul\":7736:7738   */\n      0x25\n        /* \"#utility.yul\":7731:7734   */\n      dup4\n        /* \"#utility.yul\":7672:7739   */\n      tag_363\n      jump\t// in\n    tag_415:\n        /* \"#utility.yul\":7665:7739   */\n      swap2\n      pop\n        /* \"#utility.yul\":7748:7841   */\n      tag_416\n        /* \"#utility.yul\":7837:7840   */\n      dup3\n        /* \"#utility.yul\":7748:7841   */\n      tag_417\n      jump\t// in\n    tag_416:\n        /* \"#utility.yul\":7866:7868   */\n      0x40\n        /* \"#utility.yul\":7861:7864   */\n      dup3\n        /* \"#utility.yul\":7857:7869   */\n      add\n        /* \"#utility.yul\":7850:7869   */\n      swap1\n      pop\n        /* \"#utility.yul\":7509:7875   */\n      swap2\n      swap1\n      pop\n      jump\t// out\n        /* \"#utility.yul\":7881:8247   */\n    tag_418:\n        /* \"#utility.yul\":8023:8026   */\n      0x00\n        /* \"#utility.yul\":8044:8111   */\n      tag_420\n        /* \"#utility.yul\":8108:8110   */\n      0x25\n        /* \"#utility.yul\":8103:8106   */\n      dup4\n        /* \"#utility.yul\":8044:8111   */\n      tag_363\n      jump\t// in\n    tag_420:\n        /* \"#utility.yul\":8037:8111   */\n      swap2\n      pop\n        /* \"#utility.yul\":8120:8213   */\n      tag_421\n        /* \"#utility.yul\":8209:8212   */\n      dup3\n        /* \"#utility.yul\":8120:8213   */\n      tag_422\n      jump\t// in\n    tag_421:\n        /* \"#utility.yul\":8238:8240   */\n      0x40\n        /* \"#utility.yul\":8233:8236   */\n      dup3\n        /* \"#utility.yul\":8229:8241   */\n      add\n        /* \"#utility.yul\":8222:8241   */\n      swap1\n      pop\n        /* \"#utility.yul\":7881:8247   */\n      swap2\n      swap1\n      pop\n      jump\t// out\n        /* \"#utility.yul\":8253:8651   */\n    tag_423:\n        /* \"#utility.yul\":8412:8415   */\n      0x00\n        /* \"#utility.yul\":8433:8516   */\n      tag_425\n        /* \"#utility.yul\":8514:8515   */\n      0x00\n        /* \"#utility.yul\":8509:8512   */\n      dup4\n        /* \"#utility.yul\":8433:8516   */\n      tag_426\n      jump\t// in\n    tag_425:\n        /* \"#utility.yul\":8426:8516   */\n      swap2\n      pop\n        /* \"#utility.yul\":8525:8618   */\n      tag_427\n        /* \"#utility.yul\":8614:8617   */\n      dup3\n        /* \"#utility.yul\":8525:8618   */\n      tag_428\n      jump\t// in\n    tag_427:\n        /* \"#utility.yul\":8643:8644   */\n      0x00\n        /* \"#utility.yul\":8638:8641   */\n      dup3\n        /* \"#utility.yul\":8634:8645   */\n      add\n        /* \"#utility.yul\":8627:8645   */\n      swap1\n      pop\n        /* \"#utility.yul\":8253:8651   */\n      swap2\n      swap1\n      pop\n      jump\t// out\n        /* \"#utility.yul\":8657:9023   */\n    tag_429:\n        /* \"#utility.yul\":8799:8802   */\n      0x00\n        /* \"#utility.yul\":8820:8887   */\n      tag_431\n        /* \"#utility.yul\":8884:8886   */\n      0x15\n        /* \"#utility.yul\":8879:8882   */\n      dup4\n        /* \"#utility.yul\":8820:8887   */\n      tag_363\n      jump\t// in\n    tag_431:\n        /* \"#utility.yul\":8813:8887   */\n      swap2\n      pop\n        /* \"#utility.yul\":8896:8989   */\n      tag_432\n        /* \"#utility.yul\":8985:8988   */\n      dup3\n        /* \"#utility.yul\":8896:8989   */\n      tag_433\n      jump\t// in\n    tag_432:\n        /* \"#utility.yul\":9014:9016   */\n      0x20\n        /* \"#utility.yul\":9009:9012   */\n      dup3\n        /* \"#utility.yul\":9005:9017   */\n      add\n        /* \"#utility.yul\":8998:9017   */\n      swap1\n      pop\n        /* \"#utility.yul\":8657:9023   */\n      swap2\n      swap1\n      pop\n      jump\t// out\n        /* \"#utility.yul\":9029:9395   */\n    tag_434:\n        /* \"#utility.yul\":9171:9174   */\n      0x00\n        /* \"#utility.yul\":9192:9259   */\n      tag_436\n        /* \"#utility.yul\":9256:9258   */\n      0x24\n        /* \"#utility.yul\":9251:9254   */\n      dup4\n        /* \"#utility.yul\":9192:9259   */\n      tag_363\n      jump\t// in\n    tag_436:\n        /* \"#utility.yul\":9185:9259   */\n      swap2\n      pop\n        /* \"#utility.yul\":9268:9361   */\n      tag_437\n        /* \"#utility.yul\":9357:9360   */\n      dup3\n        /* \"#utility.yul\":9268:9361   */\n      tag_438\n      jump\t// in\n    tag_437:\n        /* \"#utility.yul\":9386:9388   */\n      0x40\n        /* \"#utility.yul\":9381:9384   */\n      dup3\n        /* \"#utility.yul\":9377:9389   */\n      add\n        /* \"#utility.yul\":9370:9389   */\n      swap1\n      pop\n        /* \"#utility.yul\":9029:9395   */\n      swap2\n      swap1\n      pop\n      jump\t// out\n        /* \"#utility.yul\":9401:9767   */\n    tag_439:\n        /* \"#utility.yul\":9543:9546   */\n      0x00\n        /* \"#utility.yul\":9564:9631   */\n      tag_441\n        /* \"#utility.yul\":9628:9630   */\n      0x25\n        /* \"#utility.yul\":9623:9626   */\n      dup4\n        /* \"#utility.yul\":9564:9631   */\n      tag_363\n      jump\t// in\n    tag_441:\n        /* \"#utility.yul\":9557:9631   */\n      swap2\n      pop\n        /* \"#utility.yul\":9640:9733   */\n      tag_442\n        /* \"#utility.yul\":9729:9732   */\n      dup3\n        /* \"#utility.yul\":9640:9733   */\n      tag_443\n      jump\t// in\n    tag_442:\n        /* \"#utility.yul\":9758:9760   */\n      0x40\n        /* \"#utility.yul\":9753:9756   */\n      dup3\n        /* \"#utility.yul\":9749:9761   */\n      add\n        /* \"#utility.yul\":9742:9761   */\n      swap1\n      pop\n        /* \"#utility.yul\":9401:9767   */\n      swap2\n      swap1\n      pop\n      jump\t// out\n        /* \"#utility.yul\":9773:10139   */\n    tag_444:\n        /* \"#utility.yul\":9915:9918   */\n      0x00\n        /* \"#utility.yul\":9936:10003   */\n      tag_446\n        /* \"#utility.yul\":10000:10002   */\n      0x1f\n        /* \"#utility.yul\":9995:9998   */\n      dup4\n        /* \"#utility.yul\":9936:10003   */\n      tag_363\n      jump\t// in\n    tag_446:\n        /* \"#utility.yul\":9929:10003   */\n      swap2\n      pop\n        /* \"#utility.yul\":10012:10105   */\n      tag_447\n        /* \"#utility.yul\":10101:10104   */\n      dup3\n        /* \"#utility.yul\":10012:10105   */\n      tag_448\n      jump\t// in\n    tag_447:\n        /* \"#utility.yul\":10130:10132   */\n      0x20\n        /* \"#utility.yul\":10125:10128   */\n      dup3\n        /* \"#utility.yul\":10121:10133   */\n      add\n        /* \"#utility.yul\":10114:10133   */\n      swap1\n      pop\n        /* \"#utility.yul\":9773:10139   */\n      swap2\n      swap1\n      pop\n      jump\t// out\n        /* \"#utility.yul\":10145:10263   */\n    tag_449:\n        /* \"#utility.yul\":10232:10256   */\n      tag_451\n        /* \"#utility.yul\":10250:10255   */\n      dup2\n        /* \"#utility.yul\":10232:10256   */\n      tag_452\n      jump\t// in\n    tag_451:\n        /* \"#utility.yul\":10227:10230   */\n      dup3\n        /* \"#utility.yul\":10220:10257   */\n      mstore\n        /* \"#utility.yul\":10145:10263   */\n      pop\n      pop\n      jump\t// out\n        /* \"#utility.yul\":10269:10381   */\n    tag_453:\n        /* \"#utility.yul\":10352:10374   */\n      tag_455\n        /* \"#utility.yul\":10368:10373   */\n      dup2\n        /* \"#utility.yul\":10352:10374   */\n      tag_456\n      jump\t// in\n    tag_455:\n        /* \"#utility.yul\":10347:10350   */\n      dup3\n        /* \"#utility.yul\":10340:10375   */\n      mstore\n        /* \"#utility.yul\":10269:10381   */\n      pop\n      pop\n      jump\t// out\n        /* \"#utility.yul\":10387:10766   */\n    tag_212:\n        /* \"#utility.yul\":10571:10574   */\n      0x00\n        /* \"#utility.yul\":10593:10740   */\n      tag_458\n        /* \"#utility.yul\":10736:10739   */\n      dup3\n        /* \"#utility.yul\":10593:10740   */\n      tag_423\n      jump\t// in\n    tag_458:\n        /* \"#utility.yul\":10586:10740   */\n      swap2\n      pop\n        /* \"#utility.yul\":10757:10760   */\n      dup2\n        /* \"#utility.yul\":10750:10760   */\n      swap1\n      pop\n        /* \"#utility.yul\":10387:10766   */\n      swap2\n      swap1\n      pop\n      jump\t// out\n        /* \"#utility.yul\":10772:10994   */\n    tag_90:\n        /* \"#utility.yul\":10865:10869   */\n      0x00\n        /* \"#utility.yul\":10903:10905   */\n      0x20\n        /* \"#utility.yul\":10892:10901   */\n      dup3\n        /* \"#utility.yul\":10888:10906   */\n      add\n        /* \"#utility.yul\":10880:10906   */\n      swap1\n      pop\n        /* \"#utility.yul\":10916:10987   */\n      tag_460\n        /* \"#utility.yul\":10984:10985   */\n      0x00\n        /* \"#utility.yul\":10973:10982   */\n      dup4\n        /* \"#utility.yul\":10969:10986   */\n      add\n        /* \"#utility.yul\":10960:10966   */\n      dup5\n        /* \"#utility.yul\":10916:10987   */\n      tag_350\n      jump\t// in\n    tag_460:\n        /* \"#utility.yul\":10772:10994   */\n      swap3\n      swap2\n      pop\n      pop\n      jump\t// out\n        /* \"#utility.yul\":11000:11442   */\n    tag_165:\n        /* \"#utility.yul\":11149:11153   */\n      0x00\n        /* \"#utility.yul\":11187:11189   */\n      0x60\n        /* \"#utility.yul\":11176:11185   */\n      dup3\n        /* \"#utility.yul\":11172:11190   */\n      add\n        /* \"#utility.yul\":11164:11190   */\n      swap1\n      pop\n        /* \"#utility.yul\":11200:11271   */\n      tag_462\n        /* \"#utility.yul\":11268:11269   */\n      0x00\n        /* \"#utility.yul\":11257:11266   */\n      dup4\n        /* \"#utility.yul\":11253:11270   */\n      add\n        /* \"#utility.yul\":11244:11250   */\n      dup7\n        /* \"#utility.yul\":11200:11271   */\n      tag_350\n      jump\t// in\n    tag_462:\n        /* \"#utility.yul\":11281:11353   */\n      tag_463\n        /* \"#utility.yul\":11349:11351   */\n      0x20\n        /* \"#utility.yul\":11338:11347   */\n      dup4\n        /* \"#utility.yul\":11334:11352   */\n      add\n        /* \"#utility.yul\":11325:11331   */\n      dup6\n        /* \"#utility.yul\":11281:11353   */\n      tag_350\n      jump\t// in\n    tag_463:\n        /* \"#utility.yul\":11363:11435   */\n      tag_464\n        /* \"#utility.yul\":11431:11433   */\n      0x40\n        /* \"#utility.yul\":11420:11429   */\n      dup4\n        /* \"#utility.yul\":11416:11434   */\n      add\n        /* \"#utility.yul\":11407:11413   */\n      dup5\n        /* \"#utility.yul\":11363:11435   */\n      tag_449\n      jump\t// in\n    tag_464:\n        /* \"#utility.yul\":11000:11442   */\n      swap5\n      swap4\n      pop\n      pop\n      pop\n      pop\n      jump\t// out\n        /* \"#utility.yul\":11448:11780   */\n    tag_220:\n        /* \"#utility.yul\":11569:11573   */\n      0x00\n        /* \"#utility.yul\":11607:11609   */\n      0x40\n        /* \"#utility.yul\":11596:11605   */\n      dup3\n        /* \"#utility.yul\":11592:11610   */\n      add\n        /* \"#utility.yul\":11584:11610   */\n      swap1\n      pop\n        /* \"#utility.yul\":11620:11691   */\n      tag_466\n        /* \"#utility.yul\":11688:11689   */\n      0x00\n        /* \"#utility.yul\":11677:11686   */\n      dup4\n        /* \"#utility.yul\":11673:11690   */\n      add\n        /* \"#utility.yul\":11664:11670   */\n      dup6\n        /* \"#utility.yul\":11620:11691   */\n      tag_350\n      jump\t// in\n    tag_466:\n        /* \"#utility.yul\":11701:11773   */\n      tag_467\n        /* \"#utility.yul\":11769:11771   */\n      0x20\n        /* \"#utility.yul\":11758:11767   */\n      dup4\n        /* \"#utility.yul\":11754:11772   */\n      add\n        /* \"#utility.yul\":11745:11751   */\n      dup5\n        /* \"#utility.yul\":11701:11773   */\n      tag_449\n      jump\t// in\n    tag_467:\n        /* \"#utility.yul\":11448:11780   */\n      swap4\n      swap3\n      pop\n      pop\n      pop\n      jump\t// out\n        /* \"#utility.yul\":11786:11996   */\n    tag_39:\n        /* \"#utility.yul\":11873:11877   */\n      0x00\n        /* \"#utility.yul\":11911:11913   */\n      0x20\n        /* \"#utility.yul\":11900:11909   */\n      dup3\n        /* \"#utility.yul\":11896:11914   */\n      add\n        /* \"#utility.yul\":11888:11914   */\n      swap1\n      pop\n        /* \"#utility.yul\":11924:11989   */\n      tag_469\n        /* \"#utility.yul\":11986:11987   */\n      0x00\n        /* \"#utility.yul\":11975:11984   */\n      dup4\n        /* \"#utility.yul\":11971:11988   */\n      add\n        /* \"#utility.yul\":11962:11968   */\n      dup5\n        /* \"#utility.yul\":11924:11989   */\n      tag_354\n      jump\t// in\n    tag_469:\n        /* \"#utility.yul\":11786:11996   */\n      swap3\n      swap2\n      pop\n      pop\n      jump\t// out\n        /* \"#utility.yul\":12002:12315   */\n    tag_27:\n        /* \"#utility.yul\":12115:12119   */\n      0x00\n        /* \"#utility.yul\":12153:12155   */\n      0x20\n        /* \"#utility.yul\":12142:12151   */\n      dup3\n        /* \"#utility.yul\":12138:12156   */\n      add\n        /* \"#utility.yul\":12130:12156   */\n      swap1\n      pop\n        /* \"#utility.yul\":12202:12211   */\n      dup2\n        /* \"#utility.yul\":12196:12200   */\n      dup2\n        /* \"#utility.yul\":12192:12212   */\n      sub\n        /* \"#utility.yul\":12188:12189   */\n      0x00\n        /* \"#utility.yul\":12177:12186   */\n      dup4\n        /* \"#utility.yul\":12173:12190   */\n      add\n        /* \"#utility.yul\":12166:12213   */\n      mstore\n        /* \"#utility.yul\":12230:12308   */\n      tag_471\n        /* \"#utility.yul\":12303:12307   */\n      dup2\n        /* \"#utility.yul\":12294:12300   */\n      dup5\n        /* \"#utility.yul\":12230:12308   */\n      tag_358\n      jump\t// in\n    tag_471:\n        /* \"#utility.yul\":12222:12308   */\n      swap1\n      pop\n        /* \"#utility.yul\":12002:12315   */\n      swap3\n      swap2\n      pop\n      pop\n      jump\t// out\n        /* \"#utility.yul\":12321:12740   */\n    tag_269:\n        /* \"#utility.yul\":12487:12491   */\n      0x00\n        /* \"#utility.yul\":12525:12527   */\n      0x20\n        /* \"#utility.yul\":12514:12523   */\n      dup3\n        /* \"#utility.yul\":12510:12528   */\n      add\n        /* \"#utility.yul\":12502:12528   */\n      swap1\n      pop\n        /* \"#utility.yul\":12574:12583   */\n      dup2\n        /* \"#utility.yul\":12568:12572   */\n      dup2\n        /* \"#utility.yul\":12564:12584   */\n      sub\n        /* \"#utility.yul\":12560:12561   */\n      0x00\n        /* \"#utility.yul\":12549:12558   */\n      dup4\n        /* \"#utility.yul\":12545:12562   */\n      add\n        /* \"#utility.yul\":12538:12585   */\n      mstore\n        /* \"#utility.yul\":12602:12733   */\n      tag_473\n        /* \"#utility.yul\":12728:12732   */\n      dup2\n        /* \"#utility.yul\":12602:12733   */\n      tag_368\n      jump\t// in\n    tag_473:\n        /* \"#utility.yul\":12594:12733   */\n      swap1\n      pop\n        /* \"#utility.yul\":12321:12740   */\n      swap2\n      swap1\n      pop\n      jump\t// out\n        /* \"#utility.yul\":12746:13165   */\n    tag_295:\n        /* \"#utility.yul\":12912:12916   */\n      0x00\n        /* \"#utility.yul\":12950:12952   */\n      0x20\n        /* \"#utility.yul\":12939:12948   */\n      dup3\n        /* \"#utility.yul\":12935:12953   */\n      add\n        /* \"#utility.yul\":12927:12953   */\n      swap1\n      pop\n        /* \"#utility.yul\":12999:13008   */\n      dup2\n        /* \"#utility.yul\":12993:12997   */\n      dup2\n        /* \"#utility.yul\":12989:13009   */\n      sub\n        /* \"#utility.yul\":12985:12986   */\n      0x00\n        /* \"#utility.yul\":12974:12983   */\n      dup4\n        /* \"#utility.yul\":12970:12987   */\n      add\n        /* \"#utility.yul\":12963:13010   */\n      mstore\n        /* \"#utility.yul\":13027:13158   */\n      tag_475\n        /* \"#utility.yul\":13153:13157   */\n      dup2\n        /* \"#utility.yul\":13027:13158   */\n      tag_373\n      jump\t// in\n    tag_475:\n        /* \"#utility.yul\":13019:13158   */\n      swap1\n      pop\n        /* \"#utility.yul\":12746:13165   */\n      swap2\n      swap1\n      pop\n      jump\t// out\n        /* \"#utility.yul\":13171:13590   */\n    tag_243:\n        /* \"#utility.yul\":13337:13341   */\n      0x00\n        /* \"#utility.yul\":13375:13377   */\n      0x20\n        /* \"#utility.yul\":13364:13373   */\n      dup3\n        /* \"#utility.yul\":13360:13378   */\n      add\n        /* \"#utility.yul\":13352:13378   */\n      swap1\n      pop\n        /* \"#utility.yul\":13424:13433   */\n      dup2\n        /* \"#utility.yul\":13418:13422   */\n      dup2\n        /* \"#utility.yul\":13414:13434   */\n      sub\n        /* \"#utility.yul\":13410:13411   */\n      0x00\n        /* \"#utility.yul\":13399:13408   */\n      dup4\n        /* \"#utility.yul\":13395:13412   */\n      add\n        /* \"#utility.yul\":13388:13435   */\n      mstore\n        /* \"#utility.yul\":13452:13583   */\n      tag_477\n        /* \"#utility.yul\":13578:13582   */\n      dup2\n        /* \"#utility.yul\":13452:13583   */\n      tag_378\n      jump\t// in\n    tag_477:\n        /* \"#utility.yul\":13444:13583   */\n      swap1\n      pop\n        /* \"#utility.yul\":13171:13590   */\n      swap2\n      swap1\n      pop\n      jump\t// out\n        /* \"#utility.yul\":13596:14015   */\n    tag_180:\n        /* \"#utility.yul\":13762:13766   */\n      0x00\n        /* \"#utility.yul\":13800:13802   */\n      0x20\n        /* \"#utility.yul\":13789:13798   */\n      dup3\n        /* \"#utility.yul\":13785:13803   */\n      add\n        /* \"#utility.yul\":13777:13803   */\n      swap1\n      pop\n        /* \"#utility.yul\":13849:13858   */\n      dup2\n        /* \"#utility.yul\":13843:13847   */\n      dup2\n        /* \"#utility.yul\":13839:13859   */\n      sub\n        /* \"#utility.yul\":13835:13836   */\n      0x00\n        /* \"#utility.yul\":13824:13833   */\n      dup4\n        /* \"#utility.yul\":13820:13837   */\n      add\n        /* \"#utility.yul\":13813:13860   */\n      mstore\n        /* \"#utility.yul\":13877:14008   */\n      tag_479\n        /* \"#utility.yul\":14003:14007   */\n      dup2\n        /* \"#utility.yul\":13877:14008   */\n      tag_383\n      jump\t// in\n    tag_479:\n        /* \"#utility.yul\":13869:14008   */\n      swap1\n      pop\n        /* \"#utility.yul\":13596:14015   */\n      swap2\n      swap1\n      pop\n      jump\t// out\n        /* \"#utility.yul\":14021:14440   */\n    tag_261:\n        /* \"#utility.yul\":14187:14191   */\n      0x00\n        /* \"#utility.yul\":14225:14227   */\n      0x20\n        /* \"#utility.yul\":14214:14223   */\n      dup3\n        /* \"#utility.yul\":14210:14228   */\n      add\n        /* \"#utility.yul\":14202:14228   */\n      swap1\n      pop\n        /* \"#utility.yul\":14274:14283   */\n      dup2\n        /* \"#utility.yul\":14268:14272   */\n      dup2\n        /* \"#utility.yul\":14264:14284   */\n      sub\n        /* \"#utility.yul\":14260:14261   */\n      0x00\n        /* \"#utility.yul\":14249:14258   */\n      dup4\n        /* \"#utility.yul\":14245:14262   */\n      add\n        /* \"#utility.yul\":14238:14285   */\n      mstore\n        /* \"#utility.yul\":14302:14433   */\n      tag_481\n        /* \"#utility.yul\":14428:14432   */\n      dup2\n        /* \"#utility.yul\":14302:14433   */\n      tag_388\n      jump\t// in\n    tag_481:\n        /* \"#utility.yul\":14294:14433   */\n      swap1\n      pop\n        /* \"#utility.yul\":14021:14440   */\n      swap2\n      swap1\n      pop\n      jump\t// out\n        /* \"#utility.yul\":14446:14865   */\n    tag_274:\n        /* \"#utility.yul\":14612:14616   */\n      0x00\n        /* \"#utility.yul\":14650:14652   */\n      0x20\n        /* \"#utility.yul\":14639:14648   */\n      dup3\n        /* \"#utility.yul\":14635:14653   */\n      add\n        /* \"#utility.yul\":14627:14653   */\n      swap1\n      pop\n        /* \"#utility.yul\":14699:14708   */\n      dup2\n        /* \"#utility.yul\":14693:14697   */\n      dup2\n        /* \"#utility.yul\":14689:14709   */\n      sub\n        /* \"#utility.yul\":14685:14686   */\n      0x00\n        /* \"#utility.yul\":14674:14683   */\n      dup4\n        /* \"#utility.yul\":14670:14687   */\n      add\n        /* \"#utility.yul\":14663:14710   */\n      mstore\n        /* \"#utility.yul\":14727:14858   */\n      tag_483\n        /* \"#utility.yul\":14853:14857   */\n      dup2\n        /* \"#utility.yul\":14727:14858   */\n      tag_393\n      jump\t// in\n    tag_483:\n        /* \"#utility.yul\":14719:14858   */\n      swap1\n      pop\n        /* \"#utility.yul\":14446:14865   */\n      swap2\n      swap1\n      pop\n      jump\t// out\n        /* \"#utility.yul\":14871:15290   */\n    tag_201:\n        /* \"#utility.yul\":15037:15041   */\n      0x00\n        /* \"#utility.yul\":15075:15077   */\n      0x20\n        /* \"#utility.yul\":15064:15073   */\n      dup3\n        /* \"#utility.yul\":15060:15078   */\n      add\n        /* \"#utility.yul\":15052:15078   */\n      swap1\n      pop\n        /* \"#utility.yul\":15124:15133   */\n      dup2\n        /* \"#utility.yul\":15118:15122   */\n      dup2\n        /* \"#utility.yul\":15114:15134   */\n      sub\n        /* \"#utility.yul\":15110:15111   */\n      0x00\n        /* \"#utility.yul\":15099:15108   */\n      dup4\n        /* \"#utility.yul\":15095:15112   */\n      add\n        /* \"#utility.yul\":15088:15135   */\n      mstore\n        /* \"#utility.yul\":15152:15283   */\n      tag_485\n        /* \"#utility.yul\":15278:15282   */\n      dup2\n        /* \"#utility.yul\":15152:15283   */\n      tag_398\n      jump\t// in\n    tag_485:\n        /* \"#utility.yul\":15144:15283   */\n      swap1\n      pop\n        /* \"#utility.yul\":14871:15290   */\n      swap2\n      swap1\n      pop\n      jump\t// out\n        /* \"#utility.yul\":15296:15715   */\n    tag_291:\n        /* \"#utility.yul\":15462:15466   */\n      0x00\n        /* \"#utility.yul\":15500:15502   */\n      0x20\n        /* \"#utility.yul\":15489:15498   */\n      dup3\n        /* \"#utility.yul\":15485:15503   */\n      add\n        /* \"#utility.yul\":15477:15503   */\n      swap1\n      pop\n        /* \"#utility.yul\":15549:15558   */\n      dup2\n        /* \"#utility.yul\":15543:15547   */\n      dup2\n        /* \"#utility.yul\":15539:15559   */\n      sub\n        /* \"#utility.yul\":15535:15536   */\n      0x00\n        /* \"#utility.yul\":15524:15533   */\n      dup4\n        /* \"#utility.yul\":15520:15537   */\n      add\n        /* \"#utility.yul\":15513:15560   */\n      mstore\n        /* \"#utility.yul\":15577:15708   */\n      tag_487\n        /* \"#utility.yul\":15703:15707   */\n      dup2\n        /* \"#utility.yul\":15577:15708   */\n      tag_403\n      jump\t// in\n    tag_487:\n        /* \"#utility.yul\":15569:15708   */\n      swap1\n      pop\n        /* \"#utility.yul\":15296:15715   */\n      swap2\n      swap1\n      pop\n      jump\t// out\n        /* \"#utility.yul\":15721:16140   */\n    tag_138:\n        /* \"#utility.yul\":15887:15891   */\n      0x00\n        /* \"#utility.yul\":15925:15927   */\n      0x20\n        /* \"#utility.yul\":15914:15923   */\n      dup3\n        /* \"#utility.yul\":15910:15928   */\n      add\n        /* \"#utility.yul\":15902:15928   */\n      swap1\n      pop\n        /* \"#utility.yul\":15974:15983   */\n      dup2\n        /* \"#utility.yul\":15968:15972   */\n      dup2\n        /* \"#utility.yul\":15964:15984   */\n      sub\n        /* \"#utility.yul\":15960:15961   */\n      0x00\n        /* \"#utility.yul\":15949:15958   */\n      dup4\n        /* \"#utility.yul\":15945:15962   */\n      add\n        /* \"#utility.yul\":15938:15985   */\n      mstore\n        /* \"#utility.yul\":16002:16133   */\n      tag_489\n        /* \"#utility.yul\":16128:16132   */\n      dup2\n        /* \"#utility.yul\":16002:16133   */\n      tag_408\n      jump\t// in\n    tag_489:\n        /* \"#utility.yul\":15994:16133   */\n      swap1\n      pop\n        /* \"#utility.yul\":15721:16140   */\n      swap2\n      swap1\n      pop\n      jump\t// out\n        /* \"#utility.yul\":16146:16565   */\n    tag_266:\n        /* \"#utility.yul\":16312:16316   */\n      0x00\n        /* \"#utility.yul\":16350:16352   */\n      0x20\n        /* \"#utility.yul\":16339:16348   */\n      dup3\n        /* \"#utility.yul\":16335:16353   */\n      add\n        /* \"#utility.yul\":16327:16353   */\n      swap1\n      pop\n        /* \"#utility.yul\":16399:16408   */\n      dup2\n        /* \"#utility.yul\":16393:16397   */\n      dup2\n        /* \"#utility.yul\":16389:16409   */\n      sub\n        /* \"#utility.yul\":16385:16386   */\n      0x00\n        /* \"#utility.yul\":16374:16383   */\n      dup4\n        /* \"#utility.yul\":16370:16387   */\n      add\n        /* \"#utility.yul\":16363:16410   */\n      mstore\n        /* \"#utility.yul\":16427:16558   */\n      tag_491\n        /* \"#utility.yul\":16553:16557   */\n      dup2\n        /* \"#utility.yul\":16427:16558   */\n      tag_413\n      jump\t// in\n    tag_491:\n        /* \"#utility.yul\":16419:16558   */\n      swap1\n      pop\n        /* \"#utility.yul\":16146:16565   */\n      swap2\n      swap1\n      pop\n      jump\t// out\n        /* \"#utility.yul\":16571:16990   */\n    tag_218:\n        /* \"#utility.yul\":16737:16741   */\n      0x00\n        /* \"#utility.yul\":16775:16777   */\n      0x20\n        /* \"#utility.yul\":16764:16773   */\n      dup3\n        /* \"#utility.yul\":16760:16778   */\n      add\n        /* \"#utility.yul\":16752:16778   */\n      swap1\n      pop\n        /* \"#utility.yul\":16824:16833   */\n      dup2\n        /* \"#utility.yul\":16818:16822   */\n      dup2\n        /* \"#utility.yul\":16814:16834   */\n      sub\n        /* \"#utility.yul\":16810:16811   */\n      0x00\n        /* \"#utility.yul\":16799:16808   */\n      dup4\n        /* \"#utility.yul\":16795:16812   */\n      add\n        /* \"#utility.yul\":16788:16835   */\n      mstore\n        /* \"#utility.yul\":16852:16983   */\n      tag_493\n        /* \"#utility.yul\":16978:16982   */\n      dup2\n        /* \"#utility.yul\":16852:16983   */\n      tag_418\n      jump\t// in\n    tag_493:\n        /* \"#utility.yul\":16844:16983   */\n      swap1\n      pop\n        /* \"#utility.yul\":16571:16990   */\n      swap2\n      swap1\n      pop\n      jump\t// out\n        /* \"#utility.yul\":16996:17415   */\n    tag_249:\n        /* \"#utility.yul\":17162:17166   */\n      0x00\n        /* \"#utility.yul\":17200:17202   */\n      0x20\n        /* \"#utility.yul\":17189:17198   */\n      dup3\n        /* \"#utility.yul\":17185:17203   */\n      add\n        /* \"#utility.yul\":17177:17203   */\n      swap1\n      pop\n        /* \"#utility.yul\":17249:17258   */\n      dup2\n        /* \"#utility.yul\":17243:17247   */\n      dup2\n        /* \"#utility.yul\":17239:17259   */\n      sub\n        /* \"#utility.yul\":17235:17236   */\n      0x00\n        /* \"#utility.yul\":17224:17233   */\n      dup4\n        /* \"#utility.yul\":17220:17237   */\n      add\n        /* \"#utility.yul\":17213:17260   */\n      mstore\n        /* \"#utility.yul\":17277:17408   */\n      tag_495\n        /* \"#utility.yul\":17403:17407   */\n      dup2\n        /* \"#utility.yul\":17277:17408   */\n      tag_429\n      jump\t// in\n    tag_495:\n        /* \"#utility.yul\":17269:17408   */\n      swap1\n      pop\n        /* \"#utility.yul\":16996:17415   */\n      swap2\n      swap1\n      pop\n      jump\t// out\n        /* \"#utility.yul\":17421:17840   */\n    tag_240:\n        /* \"#utility.yul\":17587:17591   */\n      0x00\n        /* \"#utility.yul\":17625:17627   */\n      0x20\n        /* \"#utility.yul\":17614:17623   */\n      dup3\n        /* \"#utility.yul\":17610:17628   */\n      add\n        /* \"#utility.yul\":17602:17628   */\n      swap1\n      pop\n        /* \"#utility.yul\":17674:17683   */\n      dup2\n        /* \"#utility.yul\":17668:17672   */\n      dup2\n        /* \"#utility.yul\":17664:17684   */\n      sub\n        /* \"#utility.yul\":17660:17661   */\n      0x00\n        /* \"#utility.yul\":17649:17658   */\n      dup4\n        /* \"#utility.yul\":17645:17662   */\n      add\n        /* \"#utility.yul\":17638:17685   */\n      mstore\n        /* \"#utility.yul\":17702:17833   */\n      tag_497\n        /* \"#utility.yul\":17828:17832   */\n      dup2\n        /* \"#utility.yul\":17702:17833   */\n      tag_434\n      jump\t// in\n    tag_497:\n        /* \"#utility.yul\":17694:17833   */\n      swap1\n      pop\n        /* \"#utility.yul\":17421:17840   */\n      swap2\n      swap1\n      pop\n      jump\t// out\n        /* \"#utility.yul\":17846:18265   */\n    tag_230:\n        /* \"#utility.yul\":18012:18016   */\n      0x00\n        /* \"#utility.yul\":18050:18052   */\n      0x20\n        /* \"#utility.yul\":18039:18048   */\n      dup3\n        /* \"#utility.yul\":18035:18053   */\n      add\n        /* \"#utility.yul\":18027:18053   */\n      swap1\n      pop\n        /* \"#utility.yul\":18099:18108   */\n      dup2\n        /* \"#utility.yul\":18093:18097   */\n      dup2\n        /* \"#utility.yul\":18089:18109   */\n      sub\n        /* \"#utility.yul\":18085:18086   */\n      0x00\n        /* \"#utility.yul\":18074:18083   */\n      dup4\n        /* \"#utility.yul\":18070:18087   */\n      add\n        /* \"#utility.yul\":18063:18110   */\n      mstore\n        /* \"#utility.yul\":18127:18258   */\n      tag_499\n        /* \"#utility.yul\":18253:18257   */\n      dup2\n        /* \"#utility.yul\":18127:18258   */\n      tag_439\n      jump\t// in\n    tag_499:\n        /* \"#utility.yul\":18119:18258   */\n      swap1\n      pop\n        /* \"#utility.yul\":17846:18265   */\n      swap2\n      swap1\n      pop\n      jump\t// out\n        /* \"#utility.yul\":18271:18690   */\n    tag_282:\n        /* \"#utility.yul\":18437:18441   */\n      0x00\n        /* \"#utility.yul\":18475:18477   */\n      0x20\n        /* \"#utility.yul\":18464:18473   */\n      dup3\n        /* \"#utility.yul\":18460:18478   */\n      add\n        /* \"#utility.yul\":18452:18478   */\n      swap1\n      pop\n        /* \"#utility.yul\":18524:18533   */\n      dup2\n        /* \"#utility.yul\":18518:18522   */\n      dup2\n        /* \"#utility.yul\":18514:18534   */\n      sub\n        /* \"#utility.yul\":18510:18511   */\n      0x00\n        /* \"#utility.yul\":18499:18508   */\n      dup4\n        /* \"#utility.yul\":18495:18512   */\n      add\n        /* \"#utility.yul\":18488:18535   */\n      mstore\n        /* \"#utility.yul\":18552:18683   */\n      tag_501\n        /* \"#utility.yul\":18678:18682   */\n      dup2\n        /* \"#utility.yul\":18552:18683   */\n      tag_444\n      jump\t// in\n    tag_501:\n        /* \"#utility.yul\":18544:18683   */\n      swap1\n      pop\n        /* \"#utility.yul\":18271:18690   */\n      swap2\n      swap1\n      pop\n      jump\t// out\n        /* \"#utility.yul\":18696:18918   */\n    tag_46:\n        /* \"#utility.yul\":18789:18793   */\n      0x00\n        /* \"#utility.yul\":18827:18829   */\n      0x20\n        /* \"#utility.yul\":18816:18825   */\n      dup3\n        /* \"#utility.yul\":18812:18830   */\n      add\n        /* \"#utility.yul\":18804:18830   */\n      swap1\n      pop\n        /* \"#utility.yul\":18840:18911   */\n      tag_503\n        /* \"#utility.yul\":18908:18909   */\n      0x00\n        /* \"#utility.yul\":18897:18906   */\n      dup4\n        /* \"#utility.yul\":18893:18910   */\n      add\n        /* \"#utility.yul\":18884:18890   */\n      dup5\n        /* \"#utility.yul\":18840:18911   */\n      tag_449\n      jump\t// in\n    tag_503:\n        /* \"#utility.yul\":18696:18918   */\n      swap3\n      swap2\n      pop\n      pop\n      jump\t// out\n        /* \"#utility.yul\":18924:19256   */\n    tag_32:\n        /* \"#utility.yul\":19045:19049   */\n      0x00\n        /* \"#utility.yul\":19083:19085   */\n      0x40\n        /* \"#utility.yul\":19072:19081   */\n      dup3\n        /* \"#utility.yul\":19068:19086   */\n      add\n        /* \"#utility.yul\":19060:19086   */\n      swap1\n      pop\n        /* \"#utility.yul\":19096:19167   */\n      tag_505\n        /* \"#utility.yul\":19164:19165   */\n      0x00\n        /* \"#utility.yul\":19153:19162   */\n      dup4\n        /* \"#utility.yul\":19149:19166   */\n      add\n        /* \"#utility.yul\":19140:19146   */\n      dup6\n        /* \"#utility.yul\":19096:19167   */\n      tag_449\n      jump\t// in\n    tag_505:\n        /* \"#utility.yul\":19177:19249   */\n      tag_506\n        /* \"#utility.yul\":19245:19247   */\n      0x20\n        /* \"#utility.yul\":19234:19243   */\n      dup4\n        /* \"#utility.yul\":19230:19248   */\n      add\n        /* \"#utility.yul\":19221:19227   */\n      dup5\n        /* \"#utility.yul\":19177:19249   */\n      tag_449\n      jump\t// in\n    tag_506:\n        /* \"#utility.yul\":18924:19256   */\n      swap4\n      swap3\n      pop\n      pop\n      pop\n      jump\t// out\n        /* \"#utility.yul\":19262:19476   */\n    tag_66:\n        /* \"#utility.yul\":19351:19355   */\n      0x00\n        /* \"#utility.yul\":19389:19391   */\n      0x20\n        /* \"#utility.yul\":19378:19387   */\n      dup3\n        /* \"#utility.yul\":19374:19392   */\n      add\n        /* \"#utility.yul\":19366:19392   */\n      swap1\n      pop\n        /* \"#utility.yul\":19402:19469   */\n      tag_508\n        /* \"#utility.yul\":19466:19467   */\n      0x00\n        /* \"#utility.yul\":19455:19464   */\n      dup4\n        /* \"#utility.yul\":19451:19468   */\n      add\n        /* \"#utility.yul\":19442:19448   */\n      dup5\n        /* \"#utility.yul\":19402:19469   */\n      tag_453\n      jump\t// in\n    tag_508:\n        /* \"#utility.yul\":19262:19476   */\n      swap3\n      swap2\n      pop\n      pop\n      jump\t// out\n        /* \"#utility.yul\":19563:19662   */\n    tag_361:\n        /* \"#utility.yul\":19615:19621   */\n      0x00\n        /* \"#utility.yul\":19649:19654   */\n      dup2\n        /* \"#utility.yul\":19643:19655   */\n      mload\n        /* \"#utility.yul\":19633:19655   */\n      swap1\n      pop\n        /* \"#utility.yul\":19563:19662   */\n      swap2\n      swap1\n      pop\n      jump\t// out\n        /* \"#utility.yul\":19668:19815   */\n    tag_426:\n        /* \"#utility.yul\":19769:19780   */\n      0x00\n        /* \"#utility.yul\":19806:19809   */\n      dup2\n        /* \"#utility.yul\":19791:19809   */\n      swap1\n      pop\n        /* \"#utility.yul\":19668:19815   */\n      swap3\n      swap2\n      pop\n      pop\n      jump\t// out\n        /* \"#utility.yul\":19821:19990   */\n    tag_363:\n        /* \"#utility.yul\":19905:19916   */\n      0x00\n        /* \"#utility.yul\":19939:19945   */\n      dup3\n        /* \"#utility.yul\":19934:19937   */\n      dup3\n        /* \"#utility.yul\":19927:19946   */\n      mstore\n        /* \"#utility.yul\":19979:19983   */\n      0x20\n        /* \"#utility.yul\":19974:19977   */\n      dup3\n        /* \"#utility.yul\":19970:19984   */\n      add\n        /* \"#utility.yul\":19955:19984   */\n      swap1\n      pop\n        /* \"#utility.yul\":19821:19990   */\n      swap3\n      swap2\n      pop\n      pop\n      jump\t// out\n        /* \"#utility.yul\":19996:20301   */\n    tag_160:\n        /* \"#utility.yul\":20036:20039   */\n      0x00\n        /* \"#utility.yul\":20055:20075   */\n      tag_515\n        /* \"#utility.yul\":20073:20074   */\n      dup3\n        /* \"#utility.yul\":20055:20075   */\n      tag_452\n      jump\t// in\n    tag_515:\n        /* \"#utility.yul\":20050:20075   */\n      swap2\n      pop\n        /* \"#utility.yul\":20089:20109   */\n      tag_516\n        /* \"#utility.yul\":20107:20108   */\n      dup4\n        /* \"#utility.yul\":20089:20109   */\n      tag_452\n      jump\t// in\n    tag_516:\n        /* \"#utility.yul\":20084:20109   */\n      swap3\n      pop\n        /* \"#utility.yul\":20243:20244   */\n      dup3\n        /* \"#utility.yul\":20175:20241   */\n      0xffffffffffffffffffffffffffffffffffffffffffffffffffffffffffffffff\n        /* \"#utility.yul\":20171:20245   */\n      sub\n        /* \"#utility.yul\":20168:20169   */\n      dup3\n        /* \"#utility.yul\":20165:20246   */\n      gt\n        /* \"#utility.yul\":20162:20269   */\n      iszero\n      tag_517\n      jumpi\n        /* \"#utility.yul\":20249:20267   */\n      tag_518\n      tag_519\n      jump\t// in\n    tag_518:\n        /* \"#utility.yul\":20162:20269   */\n    tag_517:\n        /* \"#utility.yul\":20293:20294   */\n      dup3\n        /* \"#utility.yul\":20290:20291   */\n      dup3\n        /* \"#utility.yul\":20286:20295   */\n      add\n        /* \"#utility.yul\":20279:20295   */\n      swap1\n      pop\n        /* \"#utility.yul\":19996:20301   */\n      swap3\n      swap2\n      pop\n      pop\n      jump\t// out\n        /* \"#utility.yul\":20307:20492   */\n    tag_177:\n        /* \"#utility.yul\":20347:20348   */\n      0x00\n        /* \"#utility.yul\":20364:20384   */\n      tag_521\n        /* \"#utility.yul\":20382:20383   */\n      dup3\n        /* \"#utility.yul\":20364:20384   */\n      tag_452\n      jump\t// in\n    tag_521:\n        /* \"#utility.yul\":20359:20384   */\n      swap2\n      pop\n        /* \"#utility.yul\":20398:20418   */\n      tag_522\n        /* \"#utility.yul\":20416:20417   */\n      dup4\n        /* \"#utility.yul\":20398:20418   */\n      tag_452\n      jump\t// in\n    tag_522:\n        /* \"#utility.yul\":20393:20418   */\n      swap3\n      pop\n        /* \"#utility.yul\":20437:20438   */\n      dup3\n        /* \"#utility.yul\":20427:20462   */\n      tag_523\n      jumpi\n        /* \"#utility.yul\":20442:20460   */\n      tag_524\n      tag_525\n      jump\t// in\n    tag_524:\n        /* \"#utility.yul\":20427:20462   */\n    tag_523:\n        /* \"#utility.yul\":20484:20485   */\n      dup3\n        /* \"#utility.yul\":20481:20482   */\n      dup3\n        /* \"#utility.yul\":20477:20486   */\n      div\n        /* \"#utility.yul\":20472:20486   */\n      swap1\n      pop\n        /* \"#utility.yul\":20307:20492   */\n      swap3\n      swap2\n      pop\n      pop\n      jump\t// out\n        /* \"#utility.yul\":20498:20846   */\n    tag_175:\n        /* \"#utility.yul\":20538:20545   */\n      0x00\n        /* \"#utility.yul\":20561:20581   */\n      tag_527\n        /* \"#utility.yul\":20579:20580   */\n      dup3\n        /* \"#utility.yul\":20561:20581   */\n      tag_452\n      jump\t// in\n    tag_527:\n        /* \"#utility.yul\":20556:20581   */\n      swap2\n      pop\n        /* \"#utility.yul\":20595:20615   */\n      tag_528\n        /* \"#utility.yul\":20613:20614   */\n      dup4\n        /* \"#utility.yul\":20595:20615   */\n      tag_452\n      jump\t// in\n    tag_528:\n        /* \"#utility.yul\":20590:20615   */\n      swap3\n      pop\n        /* \"#utility.yul\":20783:20784   */\n      dup2\n        /* \"#utility.yul\":20715:20781   */\n      0xffffffffffffffffffffffffffffffffffffffffffffffffffffffffffffffff\n        /* \"#utility.yul\":20711:20785   */\n      div\n        /* \"#utility.yul\":20708:20709   */\n      dup4\n        /* \"#utility.yul\":20705:20786   */\n      gt\n        /* \"#utility.yul\":20700:20701   */\n      dup3\n        /* \"#utility.yul\":20693:20702   */\n      iszero\n        /* \"#utility.yul\":20686:20703   */\n      iszero\n        /* \"#utility.yul\":20682:20787   */\n      and\n        /* \"#utility.yul\":20679:20810   */\n      iszero\n      tag_529\n      jumpi\n        /* \"#utility.yul\":20790:20808   */\n      tag_530\n      tag_519\n      jump\t// in\n    tag_530:\n        /* \"#utility.yul\":20679:20810   */\n    tag_529:\n        /* \"#utility.yul\":20838:20839   */\n      dup3\n        /* \"#utility.yul\":20835:20836   */\n      dup3\n        /* \"#utility.yul\":20831:20840   */\n      mul\n        /* \"#utility.yul\":20820:20840   */\n      swap1\n      pop\n        /* \"#utility.yul\":20498:20846   */\n      swap3\n      swap2\n      pop\n      pop\n      jump\t// out\n        /* \"#utility.yul\":20852:21043   */\n    tag_173:\n        /* \"#utility.yul\":20892:20896   */\n      0x00\n        /* \"#utility.yul\":20912:20932   */\n      tag_532\n        /* \"#utility.yul\":20930:20931   */\n      dup3\n        /* \"#utility.yul\":20912:20932   */\n      tag_452\n      jump\t// in\n    tag_532:\n        /* \"#utility.yul\":20907:20932   */\n      swap2\n      pop\n        /* \"#utility.yul\":20946:20966   */\n      tag_533\n        /* \"#utility.yul\":20964:20965   */\n      dup4\n        /* \"#utility.yul\":20946:20966   */\n      tag_452\n      jump\t// in\n    tag_533:\n        /* \"#utility.yul\":20941:20966   */\n      swap3\n      pop\n        /* \"#utility.yul\":20985:20986   */\n      dup3\n        /* \"#utility.yul\":20982:20983   */\n      dup3\n        /* \"#utility.yul\":20979:20987   */\n      lt\n        /* \"#utility.yul\":20976:21010   */\n      iszero\n      tag_534\n      jumpi\n        /* \"#utility.yul\":20990:21008   */\n      tag_535\n      tag_519\n      jump\t// in\n    tag_535:\n        /* \"#utility.yul\":20976:21010   */\n    tag_534:\n        /* \"#utility.yul\":21035:21036   */\n      dup3\n        /* \"#utility.yul\":21032:21033   */\n      dup3\n        /* \"#utility.yul\":21028:21037   */\n      sub\n        /* \"#utility.yul\":21020:21037   */\n      swap1\n      pop\n        /* \"#utility.yul\":20852:21043   */\n      swap3\n      swap2\n      pop\n      pop\n      jump\t// out\n        /* \"#utility.yul\":21049:21145   */\n    tag_353:\n        /* \"#utility.yul\":21086:21093   */\n      0x00\n        /* \"#utility.yul\":21115:21139   */\n      tag_537\n        /* \"#utility.yul\":21133:21138   */\n      dup3\n        /* \"#utility.yul\":21115:21139   */\n      tag_538\n      jump\t// in\n    tag_537:\n        /* \"#utility.yul\":21104:21139   */\n      swap1\n      pop\n        /* \"#utility.yul\":21049:21145   */\n      swap2\n      swap1\n      pop\n      jump\t// out\n        /* \"#utility.yul\":21151:21241   */\n    tag_357:\n        /* \"#utility.yul\":21185:21192   */\n      0x00\n        /* \"#utility.yul\":21228:21233   */\n      dup2\n        /* \"#utility.yul\":21221:21234   */\n      iszero\n        /* \"#utility.yul\":21214:21235   */\n      iszero\n        /* \"#utility.yul\":21203:21235   */\n      swap1\n      pop\n        /* \"#utility.yul\":21151:21241   */\n      swap2\n      swap1\n      pop\n      jump\t// out\n        /* \"#utility.yul\":21247:21373   */\n    tag_538:\n        /* \"#utility.yul\":21284:21291   */\n      0x00\n        /* \"#utility.yul\":21324:21366   */\n      0xffffffffffffffffffffffffffffffffffffffff\n        /* \"#utility.yul\":21317:21322   */\n      dup3\n        /* \"#utility.yul\":21313:21367   */\n      and\n        /* \"#utility.yul\":21302:21367   */\n      swap1\n      pop\n        /* \"#utility.yul\":21247:21373   */\n      swap2\n      swap1\n      pop\n      jump\t// out\n        /* \"#utility.yul\":21379:21456   */\n    tag_452:\n        /* \"#utility.yul\":21416:21423   */\n      0x00\n        /* \"#utility.yul\":21445:21450   */\n      dup2\n        /* \"#utility.yul\":21434:21450   */\n      swap1\n      pop\n        /* \"#utility.yul\":21379:21456   */\n      swap2\n      swap1\n      pop\n      jump\t// out\n        /* \"#utility.yul\":21462:21548   */\n    tag_456:\n        /* \"#utility.yul\":21497:21504   */\n      0x00\n        /* \"#utility.yul\":21537:21541   */\n      0xff\n        /* \"#utility.yul\":21530:21535   */\n      dup3\n        /* \"#utility.yul\":21526:21542   */\n      and\n        /* \"#utility.yul\":21515:21542   */\n      swap1\n      pop\n        /* \"#utility.yul\":21462:21548   */\n      swap2\n      swap1\n      pop\n      jump\t// out\n        /* \"#utility.yul\":21554:21861   */\n    tag_365:\n        /* \"#utility.yul\":21622:21623   */\n      0x00\n        /* \"#utility.yul\":21632:21745   */\n    tag_544:\n        /* \"#utility.yul\":21646:21652   */\n      dup4\n        /* \"#utility.yul\":21643:21644   */\n      dup2\n        /* \"#utility.yul\":21640:21653   */\n      lt\n        /* \"#utility.yul\":21632:21745   */\n      iszero\n      tag_546\n      jumpi\n        /* \"#utility.yul\":21731:21732   */\n      dup1\n        /* \"#utility.yul\":21726:21729   */\n      dup3\n        /* \"#utility.yul\":21722:21733   */\n      add\n        /* \"#utility.yul\":21716:21734   */\n      mload\n        /* \"#utility.yul\":21712:21713   */\n      dup2\n        /* \"#utility.yul\":21707:21710   */\n      dup5\n        /* \"#utility.yul\":21703:21714   */\n      add\n        /* \"#utility.yul\":21696:21735   */\n      mstore\n        /* \"#utility.yul\":21668:21670   */\n      0x20\n        /* \"#utility.yul\":21665:21666   */\n      dup2\n        /* \"#utility.yul\":21661:21671   */\n      add\n        /* \"#utility.yul\":21656:21671   */\n      swap1\n      pop\n        /* \"#utility.yul\":21632:21745   */\n      jump(tag_544)\n    tag_546:\n        /* \"#utility.yul\":21763:21769   */\n      dup4\n        /* \"#utility.yul\":21760:21761   */\n      dup2\n        /* \"#utility.yul\":21757:21770   */\n      gt\n        /* \"#utility.yul\":21754:21855   */\n      iszero\n      tag_547\n      jumpi\n        /* \"#utility.yul\":21843:21844   */\n      0x00\n        /* \"#utility.yul\":21834:21840   */\n      dup5\n        /* \"#utility.yul\":21829:21832   */\n      dup5\n        /* \"#utility.yul\":21825:21841   */\n      add\n        /* \"#utility.yul\":21818:21845   */\n      mstore\n        /* \"#utility.yul\":21754:21855   */\n    tag_547:\n        /* \"#utility.yul\":21603:21861   */\n      pop\n        /* \"#utility.yul\":21554:21861   */\n      pop\n      pop\n      pop\n      jump\t// out\n        /* \"#utility.yul\":21867:22187   */\n    tag_118:\n        /* \"#utility.yul\":21911:21917   */\n      0x00\n        /* \"#utility.yul\":21948:21949   */\n      0x02\n        /* \"#utility.yul\":21942:21946   */\n      dup3\n        /* \"#utility.yul\":21938:21950   */\n      div\n        /* \"#utility.yul\":21928:21950   */\n      swap1\n      pop\n        /* \"#utility.yul\":21995:21996   */\n      0x01\n        /* \"#utility.yul\":21989:21993   */\n      dup3\n        /* \"#utility.yul\":21985:21997   */\n      and\n        /* \"#utility.yul\":22016:22034   */\n      dup1\n        /* \"#utility.yul\":22006:22087   */\n      tag_549\n      jumpi\n        /* \"#utility.yul\":22072:22076   */\n      0x7f\n        /* \"#utility.yul\":22064:22070   */\n      dup3\n        /* \"#utility.yul\":22060:22077   */\n      and\n        /* \"#utility.yul\":22050:22077   */\n      swap2\n      pop\n        /* \"#utility.yul\":22006:22087   */\n    tag_549:\n        /* \"#utility.yul\":22134:22136   */\n      0x20\n        /* \"#utility.yul\":22126:22132   */\n      dup3\n        /* \"#utility.yul\":22123:22137   */\n      lt\n        /* \"#utility.yul\":22103:22121   */\n      dup2\n        /* \"#utility.yul\":22100:22138   */\n      eq\n        /* \"#utility.yul\":22097:22181   */\n      iszero\n      tag_550\n      jumpi\n        /* \"#utility.yul\":22153:22171   */\n      tag_551\n      tag_552\n      jump\t// in\n    tag_551:\n        /* \"#utility.yul\":22097:22181   */\n    tag_550:\n        /* \"#utility.yul\":21918:22187   */\n      pop\n        /* \"#utility.yul\":21867:22187   */\n      swap2\n      swap1\n      pop\n      jump\t// out\n        /* \"#utility.yul\":22193:22373   */\n    tag_519:\n        /* \"#utility.yul\":22241:22318   */\n      0x4e487b7100000000000000000000000000000000000000000000000000000000\n        /* \"#utility.yul\":22238:22239   */\n      0x00\n        /* \"#utility.yul\":22231:22319   */\n      mstore\n        /* \"#utility.yul\":22338:22342   */\n      0x11\n        /* \"#utility.yul\":22335:22336   */\n      0x04\n        /* \"#utility.yul\":22328:22343   */\n      mstore\n        /* \"#utility.yul\":22362:22366   */\n      0x24\n        /* \"#utility.yul\":22359:22360   */\n      0x00\n        /* \"#utility.yul\":22352:22367   */\n      revert\n        /* \"#utility.yul\":22379:22559   */\n    tag_525:\n        /* \"#utility.yul\":22427:22504   */\n      0x4e487b7100000000000000000000000000000000000000000000000000000000\n        /* \"#utility.yul\":22424:22425   */\n      0x00\n        /* \"#utility.yul\":22417:22505   */\n      mstore\n        /* \"#utility.yul\":22524:22528   */\n      0x12\n        /* \"#utility.yul\":22521:22522   */\n      0x04\n        /* \"#utility.yul\":22514:22529   */\n      mstore\n        /* \"#utility.yul\":22548:22552   */\n      0x24\n        /* \"#utility.yul\":22545:22546   */\n      0x00\n        /* \"#utility.yul\":22538:22553   */\n      revert\n        /* \"#utility.yul\":22565:22745   */\n    tag_552:\n        /* \"#utility.yul\":22613:22690   */\n      0x4e487b7100000000000000000000000000000000000000000000000000000000\n        /* \"#utility.yul\":22610:22611   */\n      0x00\n        /* \"#utility.yul\":22603:22691   */\n      mstore\n        /* \"#utility.yul\":22710:22714   */\n      0x22\n        /* \"#utility.yul\":22707:22708   */\n      0x04\n        /* \"#utility.yul\":22700:22715   */\n      mstore\n        /* \"#utility.yul\":22734:22738   */\n      0x24\n        /* \"#utility.yul\":22731:22732   */\n      0x00\n        /* \"#utility.yul\":22724:22739   */\n      revert\n        /* \"#utility.yul\":22874:22991   */\n    tag_320:\n        /* \"#utility.yul\":22983:22984   */\n      0x00\n        /* \"#utility.yul\":22980:22981   */\n      dup1\n        /* \"#utility.yul\":22973:22985   */\n      revert\n        /* \"#utility.yul\":22997:23099   */\n    tag_367:\n        /* \"#utility.yul\":23038:23044   */\n      0x00\n        /* \"#utility.yul\":23089:23091   */\n      0x1f\n        /* \"#utility.yul\":23085:23092   */\n      not\n        /* \"#utility.yul\":23080:23082   */\n      0x1f\n        /* \"#utility.yul\":23073:23078   */\n      dup4\n        /* \"#utility.yul\":23069:23083   */\n      add\n        /* \"#utility.yul\":23065:23093   */\n      and\n        /* \"#utility.yul\":23055:23093   */\n      swap1\n      pop\n        /* \"#utility.yul\":22997:23099   */\n      swap2\n      swap1\n      pop\n      jump\t// out\n        /* \"#utility.yul\":23105:23327   */\n    tag_372:\n        /* \"#utility.yul\":23245:23279   */\n      0x45524332303a207472616e7366657220746f20746865207a65726f2061646472\n        /* \"#utility.yul\":23241:23242   */\n      0x00\n        /* \"#utility.yul\":23233:23239   */\n      dup3\n        /* \"#utility.yul\":23229:23243   */\n      add\n        /* \"#utility.yul\":23222:23280   */\n      mstore\n        /* \"#utility.yul\":23314:23319   */\n      0x6573730000000000000000000000000000000000000000000000000000000000\n        /* \"#utility.yul\":23309:23311   */\n      0x20\n        /* \"#utility.yul\":23301:23307   */\n      dup3\n        /* \"#utility.yul\":23297:23312   */\n      add\n        /* \"#utility.yul\":23290:23320   */\n      mstore\n        /* \"#utility.yul\":23105:23327   */\n      pop\n      jump\t// out\n        /* \"#utility.yul\":23333:23554   */\n    tag_377:\n        /* \"#utility.yul\":23473:23507   */\n      0x45524332303a206275726e20616d6f756e7420657863656564732062616c616e\n        /* \"#utility.yul\":23469:23470   */\n      0x00\n        /* \"#utility.yul\":23461:23467   */\n      dup3\n        /* \"#utility.yul\":23457:23471   */\n      add\n        /* \"#utility.yul\":23450:23508   */\n      mstore\n        /* \"#utility.yul\":23542:23546   */\n      0x6365000000000000000000000000000000000000000000000000000000000000\n        /* \"#utility.yul\":23537:23539   */\n      0x20\n        /* \"#utility.yul\":23529:23535   */\n      dup3\n        /* \"#utility.yul\":23525:23540   */\n      add\n        /* \"#utility.yul\":23518:23547   */\n      mstore\n        /* \"#utility.yul\":23333:23554   */\n      pop\n      jump\t// out\n        /* \"#utility.yul\":23560:23781   */\n    tag_382:\n        /* \"#utility.yul\":23700:23734   */\n      0x45524332303a20617070726f766520746f20746865207a65726f206164647265\n        /* \"#utility.yul\":23696:23697   */\n      0x00\n        /* \"#utility.yul\":23688:23694   */\n      dup3\n        /* \"#utility.yul\":23684:23698   */\n      add\n        /* \"#utility.yul\":23677:23735   */\n      mstore\n        /* \"#utility.yul\":23769:23773   */\n      0x7373000000000000000000000000000000000000000000000000000000000000\n        /* \"#utility.yul\":23764:23766   */\n      0x20\n        /* \"#utility.yul\":23756:23762   */\n      dup3\n        /* \"#utility.yul\":23752:23767   */\n      add\n        /* \"#utility.yul\":23745:23774   */\n      mstore\n        /* \"#utility.yul\":23560:23781   */\n      pop\n      jump\t// out\n        /* \"#utility.yul\":23787:24015   */\n    tag_387:\n        /* \"#utility.yul\":23927:23961   */\n      0x496e73756666696369656e7420696e70757420616d6f756e74206f6620455243\n        /* \"#utility.yul\":23923:23924   */\n      0x00\n        /* \"#utility.yul\":23915:23921   */\n      dup3\n        /* \"#utility.yul\":23911:23925   */\n      add\n        /* \"#utility.yul\":23904:23962   */\n      mstore\n        /* \"#utility.yul\":23996:24007   */\n      0x323020546f6b656e730000000000000000000000000000000000000000000000\n        /* \"#utility.yul\":23991:23993   */\n      0x20\n        /* \"#utility.yul\":23983:23989   */\n      dup3\n        /* \"#utility.yul\":23979:23994   */\n      add\n        /* \"#utility.yul\":23972:24008   */\n      mstore\n        /* \"#utility.yul\":23787:24015   */\n      pop\n      jump\t// out\n        /* \"#utility.yul\":24021:24200   */\n    tag_392:\n        /* \"#utility.yul\":24161:24192   */\n      0x45524332303a20696e73756666696369656e7420616c6c6f77616e6365000000\n        /* \"#utility.yul\":24157:24158   */\n      0x00\n        /* \"#utility.yul\":24149:24155   */\n      dup3\n        /* \"#utility.yul\":24145:24159   */\n      add\n        /* \"#utility.yul\":24138:24193   */\n      mstore\n        /* \"#utility.yul\":24021:24200   */\n      pop\n      jump\t// out\n        /* \"#utility.yul\":24206:24431   */\n    tag_397:\n        /* \"#utility.yul\":24346:24380   */\n      0x45524332303a207472616e7366657220616d6f756e7420657863656564732062\n        /* \"#utility.yul\":24342:24343   */\n      0x00\n        /* \"#utility.yul\":24334:24340   */\n      dup3\n        /* \"#utility.yul\":24330:24344   */\n      add\n        /* \"#utility.yul\":24323:24381   */\n      mstore\n        /* \"#utility.yul\":24415:24423   */\n      0x616c616e63650000000000000000000000000000000000000000000000000000\n        /* \"#utility.yul\":24410:24412   */\n      0x20\n        /* \"#utility.yul\":24402:24408   */\n      dup3\n        /* \"#utility.yul\":24398:24413   */\n      add\n        /* \"#utility.yul\":24391:24424   */\n      mstore\n        /* \"#utility.yul\":24206:24431   */\n      pop\n      jump\t// out\n        /* \"#utility.yul\":24437:24679   */\n    tag_402:\n        /* \"#utility.yul\":24577:24611   */\n      0x506c6561736520696e70757420612076616c696420616d6f756e74206f66204c\n        /* \"#utility.yul\":24573:24574   */\n      0x00\n        /* \"#utility.yul\":24565:24571   */\n      dup3\n        /* \"#utility.yul\":24561:24575   */\n      add\n        /* \"#utility.yul\":24554:24612   */\n      mstore\n        /* \"#utility.yul\":24646:24671   */\n      0x5020546f6b656e7320746f206275726e2f72656465656d000000000000000000\n        /* \"#utility.yul\":24641:24643   */\n      0x20\n        /* \"#utility.yul\":24633:24639   */\n      dup3\n        /* \"#utility.yul\":24629:24644   */\n      add\n        /* \"#utility.yul\":24622:24672   */\n      mstore\n        /* \"#utility.yul\":24437:24679   */\n      pop\n      jump\t// out\n        /* \"#utility.yul\":24685:24905   */\n    tag_407:\n        /* \"#utility.yul\":24825:24859   */\n      0x45524332303a206275726e2066726f6d20746865207a65726f20616464726573\n        /* \"#utility.yul\":24821:24822   */\n      0x00\n        /* \"#utility.yul\":24813:24819   */\n      dup3\n        /* \"#utility.yul\":24809:24823   */\n      add\n        /* \"#utility.yul\":24802:24860   */\n      mstore\n        /* \"#utility.yul\":24894:24897   */\n      0x7300000000000000000000000000000000000000000000000000000000000000\n        /* \"#utility.yul\":24889:24891   */\n      0x20\n        /* \"#utility.yul\":24881:24887   */\n      dup3\n        /* \"#utility.yul\":24877:24892   */\n      add\n        /* \"#utility.yul\":24870:24898   */\n      mstore\n        /* \"#utility.yul\":24685:24905   */\n      pop\n      jump\t// out\n        /* \"#utility.yul\":24911:25086   */\n    tag_412:\n        /* \"#utility.yul\":25051:25078   */\n      0x45544820616d6f756e742063616e6e6f74206265207a65726f00000000000000\n        /* \"#utility.yul\":25047:25048   */\n      0x00\n        /* \"#utility.yul\":25039:25045   */\n      dup3\n        /* \"#utility.yul\":25035:25049   */\n      add\n        /* \"#utility.yul\":25028:25079   */\n      mstore\n        /* \"#utility.yul\":24911:25086   */\n      pop\n      jump\t// out\n        /* \"#utility.yul\":25092:25316   */\n    tag_417:\n        /* \"#utility.yul\":25232:25266   */\n      0x45524332303a207472616e736665722066726f6d20746865207a65726f206164\n        /* \"#utility.yul\":25228:25229   */\n      0x00\n        /* \"#utility.yul\":25220:25226   */\n      dup3\n        /* \"#utility.yul\":25216:25230   */\n      add\n        /* \"#utility.yul\":25209:25267   */\n      mstore\n        /* \"#utility.yul\":25301:25308   */\n      0x6472657373000000000000000000000000000000000000000000000000000000\n        /* \"#utility.yul\":25296:25298   */\n      0x20\n        /* \"#utility.yul\":25288:25294   */\n      dup3\n        /* \"#utility.yul\":25284:25299   */\n      add\n        /* \"#utility.yul\":25277:25309   */\n      mstore\n        /* \"#utility.yul\":25092:25316   */\n      pop\n      jump\t// out\n        /* \"#utility.yul\":25322:25546   */\n    tag_422:\n        /* \"#utility.yul\":25462:25496   */\n      0x5472616e73616374696f6e206f662045746865722077617320756e7375636365\n        /* \"#utility.yul\":25458:25459   */\n      0x00\n        /* \"#utility.yul\":25450:25456   */\n      dup3\n        /* \"#utility.yul\":25446:25460   */\n      add\n        /* \"#utility.yul\":25439:25497   */\n      mstore\n        /* \"#utility.yul\":25531:25538   */\n      0x737366756c000000000000000000000000000000000000000000000000000000\n        /* \"#utility.yul\":25526:25528   */\n      0x20\n        /* \"#utility.yul\":25518:25524   */\n      dup3\n        /* \"#utility.yul\":25514:25529   */\n      add\n        /* \"#utility.yul\":25507:25539   */\n      mstore\n        /* \"#utility.yul\":25322:25546   */\n      pop\n      jump\t// out\n        /* \"#utility.yul\":25552:25666   */\n    tag_428:\n      pop\n      jump\t// out\n        /* \"#utility.yul\":25672:25843   */\n    tag_433:\n        /* \"#utility.yul\":25812:25835   */\n      0x546865726520617265206e6f2072657365727665730000000000000000000000\n        /* \"#utility.yul\":25808:25809   */\n      0x00\n        /* \"#utility.yul\":25800:25806   */\n      dup3\n        /* \"#utility.yul\":25796:25810   */\n      add\n        /* \"#utility.yul\":25789:25836   */\n      mstore\n        /* \"#utility.yul\":25672:25843   */\n      pop\n      jump\t// out\n        /* \"#utility.yul\":25849:26072   */\n    tag_438:\n        /* \"#utility.yul\":25989:26023   */\n      0x45524332303a20617070726f76652066726f6d20746865207a65726f20616464\n        /* \"#utility.yul\":25985:25986   */\n      0x00\n        /* \"#utility.yul\":25977:25983   */\n      dup3\n        /* \"#utility.yul\":25973:25987   */\n      add\n        /* \"#utility.yul\":25966:26024   */\n      mstore\n        /* \"#utility.yul\":26058:26064   */\n      0x7265737300000000000000000000000000000000000000000000000000000000\n        /* \"#utility.yul\":26053:26055   */\n      0x20\n        /* \"#utility.yul\":26045:26051   */\n      dup3\n        /* \"#utility.yul\":26041:26056   */\n      add\n        /* \"#utility.yul\":26034:26065   */\n      mstore\n        /* \"#utility.yul\":25849:26072   */\n      pop\n      jump\t// out\n        /* \"#utility.yul\":26078:26302   */\n    tag_443:\n        /* \"#utility.yul\":26218:26252   */\n      0x45524332303a2064656372656173656420616c6c6f77616e63652062656c6f77\n        /* \"#utility.yul\":26214:26215   */\n      0x00\n        /* \"#utility.yul\":26206:26212   */\n      dup3\n        /* \"#utility.yul\":26202:26216   */\n      add\n        /* \"#utility.yul\":26195:26253   */\n      mstore\n        /* \"#utility.yul\":26287:26294   */\n      0x207a65726f000000000000000000000000000000000000000000000000000000\n        /* \"#utility.yul\":26282:26284   */\n      0x20\n        /* \"#utility.yul\":26274:26280   */\n      dup3\n        /* \"#utility.yul\":26270:26285   */\n      add\n        /* \"#utility.yul\":26263:26295   */\n      mstore\n        /* \"#utility.yul\":26078:26302   */\n      pop\n      jump\t// out\n        /* \"#utility.yul\":26308:26489   */\n    tag_448:\n        /* \"#utility.yul\":26448:26481   */\n      0x45524332303a206d696e7420746f20746865207a65726f206164647265737300\n        /* \"#utility.yul\":26444:26445   */\n      0x00\n        /* \"#utility.yul\":26436:26442   */\n      dup3\n        /* \"#utility.yul\":26432:26446   */\n      add\n        /* \"#utility.yul\":26425:26482   */\n      mstore\n        /* \"#utility.yul\":26308:26489   */\n      pop\n      jump\t// out\n        /* \"#utility.yul\":26495:26617   */\n    tag_305:\n        /* \"#utility.yul\":26568:26592   */\n      tag_577\n        /* \"#utility.yul\":26586:26591   */\n      dup2\n        /* \"#utility.yul\":26568:26592   */\n      tag_353\n      jump\t// in\n    tag_577:\n        /* \"#utility.yul\":26561:26566   */\n      dup2\n        /* \"#utility.yul\":26558:26593   */\n      eq\n        /* \"#utility.yul\":26548:26611   */\n      tag_578\n      jumpi\n        /* \"#utility.yul\":26607:26608   */\n      0x00\n        /* \"#utility.yul\":26604:26605   */\n      dup1\n        /* \"#utility.yul\":26597:26609   */\n      revert\n        /* \"#utility.yul\":26548:26611   */\n    tag_578:\n        /* \"#utility.yul\":26495:26617   */\n      pop\n      jump\t// out\n        /* \"#utility.yul\":26623:26739   */\n    tag_309:\n        /* \"#utility.yul\":26693:26714   */\n      tag_580\n        /* \"#utility.yul\":26708:26713   */\n      dup2\n        /* \"#utility.yul\":26693:26714   */\n      tag_357\n      jump\t// in\n    tag_580:\n        /* \"#utility.yul\":26686:26691   */\n      dup2\n        /* \"#utility.yul\":26683:26715   */\n      eq\n        /* \"#utility.yul\":26673:26733   */\n      tag_581\n      jumpi\n        /* \"#utility.yul\":26729:26730   */\n      0x00\n        /* \"#utility.yul\":26726:26727   */\n      dup1\n        /* \"#utility.yul\":26719:26731   */\n      revert\n        /* \"#utility.yul\":26673:26733   */\n    tag_581:\n        /* \"#utility.yul\":26623:26739   */\n      pop\n      jump\t// out\n        /* \"#utility.yul\":26745:26867   */\n    tag_313:\n        /* \"#utility.yul\":26818:26842   */\n      tag_583\n        /* \"#utility.yul\":26836:26841   */\n      dup2\n        /* \"#utility.yul\":26818:26842   */\n      tag_452\n      jump\t// in\n    tag_583:\n        /* \"#utility.yul\":26811:26816   */\n      dup2\n        /* \"#utility.yul\":26808:26843   */\n      eq\n        /* \"#utility.yul\":26798:26861   */\n      tag_584\n      jumpi\n        /* \"#utility.yul\":26857:26858   */\n      0x00\n        /* \"#utility.yul\":26854:26855   */\n      dup1\n        /* \"#utility.yul\":26847:26859   */\n      revert\n        /* \"#utility.yul\":26798:26861   */\n    tag_584:\n        /* \"#utility.yul\":26745:26867   */\n      pop\n      jump\t// out\n\n    auxdata: 0xa264697066735822122001932b22dd16a62a93272fdf875865923d33562a1e4fae3cfb77b19bffcb2d6a64736f6c63430008070033\n}\n",
				"bytecode": {
					"linkReferences": {},
					"object": "60806040523480156200001157600080fd5b5060405162002a1138038062002a1183398181016040528101906200003791906200029a565b6040518060400160405280600781526020017f53776170205631000000000000000000000000000000000000000000000000008152506040518060400160405280600781526020017f537761702d5631000000000000000000000000000000000000000000000000008152508160039080519060200190620000bb929190620001d3565b508060049080519060200190620000d4929190620001d3565b505050600073ffffffffffffffffffffffffffffffffffffffff168173ffffffffffffffffffffffffffffffffffffffff1614156200014a576040517f08c379a00000000000000000000000000000000000000000000000000000000081526004016200014190620002f3565b60405180910390fd5b80600560006101000a81548173ffffffffffffffffffffffffffffffffffffffff021916908373ffffffffffffffffffffffffffffffffffffffff16021790555033600660006101000a81548173ffffffffffffffffffffffffffffffffffffffff021916908373ffffffffffffffffffffffffffffffffffffffff1602179055505062000407565b828054620001e1906200035a565b90600052602060002090601f01602090048101928262000205576000855562000251565b82601f106200022057805160ff191683800117855562000251565b8280016001018555821562000251579182015b828111156200025057825182559160200191906001019062000233565b5b50905062000260919062000264565b5090565b5b808211156200027f57600081600090555060010162000265565b5090565b6000815190506200029481620003ed565b92915050565b600060208284031215620002b357620002b2620003bf565b5b6000620002c38482850162000283565b91505092915050565b6000620002db600f8362000315565b9150620002e882620003c4565b602082019050919050565b600060208201905081810360008301526200030e81620002cc565b9050919050565b600082825260208201905092915050565b600062000333826200033a565b9050919050565b600073ffffffffffffffffffffffffffffffffffffffff82169050919050565b600060028204905060018216806200037357607f821691505b602082108114156200038a576200038962000390565b5b50919050565b7f4e487b7100000000000000000000000000000000000000000000000000000000600052602260045260246000fd5b600080fd5b7f496e76616c696420616464726573730000000000000000000000000000000000600082015250565b620003f88162000326565b81146200040457600080fd5b50565b6125fa80620004176000396000f3fe6080604052600436106101095760003560e01c806351c6590a116100955780639c8f9f23116100645780639c8f9f23146103af5780639d76ea58146103ed578063a457c2d714610418578063a9059cbb14610455578063dd62ed3e1461049257610109565b806351c6590a146102ec57806370a082311461031c57806395d89b4114610359578063966dae0e1461038457610109565b806318160ddd116100dc57806318160ddd146101df57806323b872dd1461020a5780632c0c60a414610247578063313ce5671461028457806339509351146102af57610109565b806306fdde031461010e5780630902f1ac14610139578063095ea7b3146101655780630f8070b4146101a2575b600080fd5b34801561011a57600080fd5b506101236104cf565b6040516101309190611c79565b60405180910390f35b34801561014557600080fd5b5061014e610561565b60405161015c929190611e96565b60405180910390f35b34801561017157600080fd5b5061018c60048036038101906101879190611862565b610618565b6040516101999190611c5e565b60405180910390f35b3480156101ae57600080fd5b506101c960048036038101906101c491906118cf565b61063b565b6040516101d69190611e7b565b60405180910390f35b3480156101eb57600080fd5b506101f46106a2565b6040516102019190611e7b565b60405180910390f35b34801561021657600080fd5b50610231600480360381019061022c919061180f565b6106ac565b60405161023e9190611c5e565b60405180910390f35b34801561025357600080fd5b5061026e600480360381019061026991906118cf565b6106db565b60405161027b9190611e7b565b60405180910390f35b34801561029057600080fd5b50610299610742565b6040516102a69190611ebf565b60405180910390f35b3480156102bb57600080fd5b506102d660048036038101906102d19190611862565b61074b565b6040516102e39190611c5e565b60405180910390f35b610306600480360381019061030191906118cf565b610782565b6040516103139190611e7b565b60405180910390f35b34801561032857600080fd5b50610343600480360381019061033e91906117a2565b6109f8565b6040516103509190611e7b565b60405180910390f35b34801561036557600080fd5b5061036e610a40565b60405161037b9190611c79565b60405180910390f35b34801561039057600080fd5b50610399610ad2565b6040516103a69190611be3565b60405180910390f35b3480156103bb57600080fd5b506103d660048036038101906103d191906118cf565b610af8565b6040516103e4929190611e96565b60405180910390f35b3480156103f957600080fd5b50610402610d40565b60405161040f9190611be3565b60405180910390f35b34801561042457600080fd5b5061043f600480360381019061043a9190611862565b610d66565b60405161044c9190611c5e565b60405180910390f35b34801561046157600080fd5b5061047c60048036038101906104779190611862565b610ddd565b6040516104899190611c5e565b60405180910390f35b34801561049e57600080fd5b506104b960048036038101906104b491906117cf565b610e00565b6040516104c69190611e7b565b60405180910390f35b6060600380546104de9061209e565b80601f016020809104026020016040519081016040528092919081815260200182805461050a9061209e565b80156105575780601f1061052c57610100808354040283529160200191610557565b820191906000526020600020905b81548152906001019060200180831161053a57829003601f168201915b5050505050905090565b600080600560009054906101000a900473ffffffffffffffffffffffffffffffffffffffff1673ffffffffffffffffffffffffffffffffffffffff166370a08231306040518263ffffffff1660e01b81526004016105bf9190611be3565b60206040518083038186803b1580156105d757600080fd5b505afa1580156105eb573d6000803e3d6000fd5b505050506040513d601f19601f8201168201806040525081019061060f91906118fc565b91504790509091565b600080610623610e87565b9050610630818585610e8f565b600191505092915050565b600080821161067f576040517f08c379a000000000000000000000000000000000000000000000000000000000815260040161067690611d9b565b60405180910390fd5b60008061068a610561565b9150915061069984828461105a565b92505050919050565b6000600254905090565b6000806106b7610e87565b90506106c4858285611100565b6106cf85858561118c565b60019150509392505050565b600080811161071f576040517f08c379a000000000000000000000000000000000000000000000000000000000815260040161071690611d9b565b60405180910390fd5b60008061072a610561565b9150915061073984838361105a565b92505050919050565b60006012905090565b600080610756610e87565b90506107778185856107688589610e00565b6107729190611f01565b610e8f565b600191505092915050565b600080600061078f610561565b91509150600082141561085c576000600560009054906101000a900473ffffffffffffffffffffffffffffffffffffffff1690508073ffffffffffffffffffffffffffffffffffffffff166323b872dd3330886040518463ffffffff1660e01b815260040161080093929190611bfe565b602060405180830381600087803b15801561081a57600080fd5b505af115801561082e573d6000803e3d6000fd5b505050506040513d601f19601f8201168201806040525081019061085291906118a2565b50819350506109a2565b34816108689190611fe2565b905060008183346108799190611f88565b6108839190611f57565b9050808510156108c8576040517f08c379a00000000000000000000000000000000000000000000000000000000081526004016108bf90611cfb565b60405180910390fd5b6000600560009054906101000a900473ffffffffffffffffffffffffffffffffffffffff1690508073ffffffffffffffffffffffffffffffffffffffff166323b872dd3330896040518463ffffffff1660e01b815260040161092c93929190611bfe565b602060405180830381600087803b15801561094657600080fd5b505af115801561095a573d6000803e3d6000fd5b505050506040513d601f19601f8201168201806040525081019061097e91906118a2565b5082346109896106a2565b6109939190611f88565b61099d9190611f57565b945050505b6109ac338461140d565b83343373ffffffffffffffffffffffffffffffffffffffff167f06239653922ac7bea6aa2b19dc486b9361821d37712eb796adfd38d81de278ca60405160405180910390a45050919050565b60008060008373ffffffffffffffffffffffffffffffffffffffff1673ffffffffffffffffffffffffffffffffffffffff168152602001908152602001600020549050919050565b606060048054610a4f9061209e565b80601f0160208091040260200160405190810160405280929190818152602001828054610a7b9061209e565b8015610ac85780601f10610a9d57610100808354040283529160200191610ac8565b820191906000526020600020905b815481529060010190602001808311610aab57829003601f168201915b5050505050905090565b600660009054906101000a900473ffffffffffffffffffffffffffffffffffffffff1681565b60008060008311610b3e576040517f08c379a0000000000000000000000000000000000000000000000000000000008152600401610b3590611d5b565b60405180910390fd5b600080610b49610561565b91509150610b556106a2565b8582610b619190611f88565b610b6b9190611f57565b9350610b756106a2565b8583610b819190611f88565b610b8b9190611f57565b9250610b97338661156d565b60003373ffffffffffffffffffffffffffffffffffffffff1685604051610bbd90611bce565b60006040518083038185875af1925050503d8060008114610bfa576040519150601f19603f3d011682016040523d82523d6000602084013e610bff565b606091505b5050905080610c43576040517f08c379a0000000000000000000000000000000000000000000000000000000008152600401610c3a90611ddb565b60405180910390fd5b600560009054906101000a900473ffffffffffffffffffffffffffffffffffffffff1673ffffffffffffffffffffffffffffffffffffffff1663a9059cbb33866040518363ffffffff1660e01b8152600401610ca0929190611c35565b602060405180830381600087803b158015610cba57600080fd5b505af1158015610cce573d6000803e3d6000fd5b505050506040513d601f19601f82011682018060405250810190610cf291906118a2565b5083853373ffffffffffffffffffffffffffffffffffffffff167f0fbf06c058b90cb038a618f8c2acbf6145f8b3570fd1fa56abb8f0f3f05b36e860405160405180910390a4505050915091565b600560009054906101000a900473ffffffffffffffffffffffffffffffffffffffff1681565b600080610d71610e87565b90506000610d7f8286610e00565b905083811015610dc4576040517f08c379a0000000000000000000000000000000000000000000000000000000008152600401610dbb90611e3b565b60405180910390fd5b610dd18286868403610e8f565b60019250505092915050565b600080610de8610e87565b9050610df581858561118c565b600191505092915050565b6000600160008473ffffffffffffffffffffffffffffffffffffffff1673ffffffffffffffffffffffffffffffffffffffff16815260200190815260200160002060008373ffffffffffffffffffffffffffffffffffffffff1673ffffffffffffffffffffffffffffffffffffffff16815260200190815260200160002054905092915050565b600033905090565b600073ffffffffffffffffffffffffffffffffffffffff168373ffffffffffffffffffffffffffffffffffffffff161415610eff576040517f08c379a0000000000000000000000000000000000000000000000000000000008152600401610ef690611e1b565b60405180910390fd5b600073ffffffffffffffffffffffffffffffffffffffff168273ffffffffffffffffffffffffffffffffffffffff161415610f6f576040517f08c379a0000000000000000000000000000000000000000000000000000000008152600401610f6690611cdb565b60405180910390fd5b80600160008573ffffffffffffffffffffffffffffffffffffffff1673ffffffffffffffffffffffffffffffffffffffff16815260200190815260200160002060008473ffffffffffffffffffffffffffffffffffffffff1673ffffffffffffffffffffffffffffffffffffffff168152602001908152602001600020819055508173ffffffffffffffffffffffffffffffffffffffff168373ffffffffffffffffffffffffffffffffffffffff167f8c5be1e5ebec7d5bd14f71427d1e84f3dd0314c0f7b2291e5b200ac8c7c3b9258360405161104d9190611e7b565b60405180910390a3505050565b6000808311801561106b5750600082115b6110aa576040517f08c379a00000000000000000000000000000000000000000000000000000000081526004016110a190611dfb565b60405180910390fd5b6000806103e86110ba9190611fe2565b856110c59190611f88565b905080846103e86110d69190611f88565b6110e09190611f01565b83826110ec9190611f88565b6110f69190611f57565b9150509392505050565b600061110c8484610e00565b90507fffffffffffffffffffffffffffffffffffffffffffffffffffffffffffffffff81146111865781811015611178576040517f08c379a000000000000000000000000000000000000000000000000000000000815260040161116f90611d1b565b60405180910390fd5b6111858484848403610e8f565b5b50505050565b600073ffffffffffffffffffffffffffffffffffffffff168373ffffffffffffffffffffffffffffffffffffffff1614156111fc576040517f08c379a00000000000000000000000000000000000000000000000000000000081526004016111f390611dbb565b60405180910390fd5b600073ffffffffffffffffffffffffffffffffffffffff168273ffffffffffffffffffffffffffffffffffffffff16141561126c576040517f08c379a000000000000000000000000000000000000000000000000000000000815260040161126390611c9b565b60405180910390fd5b611277838383611744565b60008060008573ffffffffffffffffffffffffffffffffffffffff1673ffffffffffffffffffffffffffffffffffffffff168152602001908152602001600020549050818110156112fd576040517f08c379a00000000000000000000000000000000000000000000000000000000081526004016112f490611d3b565b60405180910390fd5b8181036000808673ffffffffffffffffffffffffffffffffffffffff1673ffffffffffffffffffffffffffffffffffffffff16815260200190815260200160002081905550816000808573ffffffffffffffffffffffffffffffffffffffff1673ffffffffffffffffffffffffffffffffffffffff16815260200190815260200160002060008282546113909190611f01565b925050819055508273ffffffffffffffffffffffffffffffffffffffff168473ffffffffffffffffffffffffffffffffffffffff167fddf252ad1be2c89b69c2b068fc378daa952ba7f163c4a11628f55a4df523b3ef846040516113f49190611e7b565b60405180910390a3611407848484611749565b50505050565b600073ffffffffffffffffffffffffffffffffffffffff168273ffffffffffffffffffffffffffffffffffffffff16141561147d576040517f08c379a000000000000000000000000000000000000000000000000000000000815260040161147490611e5b565b60405180910390fd5b61148960008383611744565b806002600082825461149b9190611f01565b92505081905550806000808473ffffffffffffffffffffffffffffffffffffffff1673ffffffffffffffffffffffffffffffffffffffff16815260200190815260200160002060008282546114f09190611f01565b925050819055508173ffffffffffffffffffffffffffffffffffffffff16600073ffffffffffffffffffffffffffffffffffffffff167fddf252ad1be2c89b69c2b068fc378daa952ba7f163c4a11628f55a4df523b3ef836040516115559190611e7b565b60405180910390a361156960008383611749565b5050565b600073ffffffffffffffffffffffffffffffffffffffff168273ffffffffffffffffffffffffffffffffffffffff1614156115dd576040517f08c379a00000000000000000000000000000000000000000000000000000000081526004016115d490611d7b565b60405180910390fd5b6115e982600083611744565b60008060008473ffffffffffffffffffffffffffffffffffffffff1673ffffffffffffffffffffffffffffffffffffffff1681526020019081526020016000205490508181101561166f576040517f08c379a000000000000000000000000000000000000000000000000000000000815260040161166690611cbb565b60405180910390fd5b8181036000808573ffffffffffffffffffffffffffffffffffffffff1673ffffffffffffffffffffffffffffffffffffffff1681526020019081526020016000208190555081600260008282546116c69190611fe2565b92505081905550600073ffffffffffffffffffffffffffffffffffffffff168373ffffffffffffffffffffffffffffffffffffffff167fddf252ad1be2c89b69c2b068fc378daa952ba7f163c4a11628f55a4df523b3ef8460405161172b9190611e7b565b60405180910390a361173f83600084611749565b505050565b505050565b505050565b60008135905061175d8161257f565b92915050565b60008151905061177281612596565b92915050565b600081359050611787816125ad565b92915050565b60008151905061179c816125ad565b92915050565b6000602082840312156117b8576117b761215d565b5b60006117c68482850161174e565b91505092915050565b600080604083850312156117e6576117e561215d565b5b60006117f48582860161174e565b92505060206118058582860161174e565b9150509250929050565b6000806000606084860312156118285761182761215d565b5b60006118368682870161174e565b93505060206118478682870161174e565b925050604061185886828701611778565b9150509250925092565b600080604083850312156118795761187861215d565b5b60006118878582860161174e565b925050602061189885828601611778565b9150509250929050565b6000602082840312156118b8576118b761215d565b5b60006118c684828501611763565b91505092915050565b6000602082840312156118e5576118e461215d565b5b60006118f384828501611778565b91505092915050565b6000602082840312156119125761191161215d565b5b60006119208482850161178d565b91505092915050565b61193281612016565b82525050565b61194181612028565b82525050565b600061195282611eda565b61195c8185611ef0565b935061196c81856020860161206b565b61197581612162565b840191505092915050565b600061198d602383611ef0565b915061199882612173565b604082019050919050565b60006119b0602283611ef0565b91506119bb826121c2565b604082019050919050565b60006119d3602283611ef0565b91506119de82612211565b604082019050919050565b60006119f6602983611ef0565b9150611a0182612260565b604082019050919050565b6000611a19601d83611ef0565b9150611a24826122af565b602082019050919050565b6000611a3c602683611ef0565b9150611a47826122d8565b604082019050919050565b6000611a5f603783611ef0565b9150611a6a82612327565b604082019050919050565b6000611a82602183611ef0565b9150611a8d82612376565b604082019050919050565b6000611aa5601983611ef0565b9150611ab0826123c5565b602082019050919050565b6000611ac8602583611ef0565b9150611ad3826123ee565b604082019050919050565b6000611aeb602583611ef0565b9150611af68261243d565b604082019050919050565b6000611b0e600083611ee5565b9150611b198261248c565b600082019050919050565b6000611b31601583611ef0565b9150611b3c8261248f565b602082019050919050565b6000611b54602483611ef0565b9150611b5f826124b8565b604082019050919050565b6000611b77602583611ef0565b9150611b8282612507565b604082019050919050565b6000611b9a601f83611ef0565b9150611ba582612556565b602082019050919050565b611bb981612054565b82525050565b611bc88161205e565b82525050565b6000611bd982611b01565b9150819050919050565b6000602082019050611bf86000830184611929565b92915050565b6000606082019050611c136000830186611929565b611c206020830185611929565b611c2d6040830184611bb0565b949350505050565b6000604082019050611c4a6000830185611929565b611c576020830184611bb0565b9392505050565b6000602082019050611c736000830184611938565b92915050565b60006020820190508181036000830152611c938184611947565b905092915050565b60006020820190508181036000830152611cb481611980565b9050919050565b60006020820190508181036000830152611cd4816119a3565b9050919050565b60006020820190508181036000830152611cf4816119c6565b9050919050565b60006020820190508181036000830152611d14816119e9565b9050919050565b60006020820190508181036000830152611d3481611a0c565b9050919050565b60006020820190508181036000830152611d5481611a2f565b9050919050565b60006020820190508181036000830152611d7481611a52565b9050919050565b60006020820190508181036000830152611d9481611a75565b9050919050565b60006020820190508181036000830152611db481611a98565b9050919050565b60006020820190508181036000830152611dd481611abb565b9050919050565b60006020820190508181036000830152611df481611ade565b9050919050565b60006020820190508181036000830152611e1481611b24565b9050919050565b60006020820190508181036000830152611e3481611b47565b9050919050565b60006020820190508181036000830152611e5481611b6a565b9050919050565b60006020820190508181036000830152611e7481611b8d565b9050919050565b6000602082019050611e906000830184611bb0565b92915050565b6000604082019050611eab6000830185611bb0565b611eb86020830184611bb0565b9392505050565b6000602082019050611ed46000830184611bbf565b92915050565b600081519050919050565b600081905092915050565b600082825260208201905092915050565b6000611f0c82612054565b9150611f1783612054565b9250827fffffffffffffffffffffffffffffffffffffffffffffffffffffffffffffffff03821115611f4c57611f4b6120d0565b5b828201905092915050565b6000611f6282612054565b9150611f6d83612054565b925082611f7d57611f7c6120ff565b5b828204905092915050565b6000611f9382612054565b9150611f9e83612054565b9250817fffffffffffffffffffffffffffffffffffffffffffffffffffffffffffffffff0483118215151615611fd757611fd66120d0565b5b828202905092915050565b6000611fed82612054565b9150611ff883612054565b92508282101561200b5761200a6120d0565b5b828203905092915050565b600061202182612034565b9050919050565b60008115159050919050565b600073ffffffffffffffffffffffffffffffffffffffff82169050919050565b6000819050919050565b600060ff82169050919050565b60005b8381101561208957808201518184015260208101905061206e565b83811115612098576000848401525b50505050565b600060028204905060018216806120b657607f821691505b602082108114156120ca576120c961212e565b5b50919050565b7f4e487b7100000000000000000000000000000000000000000000000000000000600052601160045260246000fd5b7f4e487b7100000000000000000000000000000000000000000000000000000000600052601260045260246000fd5b7f4e487b7100000000000000000000000000000000000000000000000000000000600052602260045260246000fd5b600080fd5b6000601f19601f8301169050919050565b7f45524332303a207472616e7366657220746f20746865207a65726f206164647260008201527f6573730000000000000000000000000000000000000000000000000000000000602082015250565b7f45524332303a206275726e20616d6f756e7420657863656564732062616c616e60008201527f6365000000000000000000000000000000000000000000000000000000000000602082015250565b7f45524332303a20617070726f766520746f20746865207a65726f20616464726560008201527f7373000000000000000000000000000000000000000000000000000000000000602082015250565b7f496e73756666696369656e7420696e70757420616d6f756e74206f662045524360008201527f323020546f6b656e730000000000000000000000000000000000000000000000602082015250565b7f45524332303a20696e73756666696369656e7420616c6c6f77616e6365000000600082015250565b7f45524332303a207472616e7366657220616d6f756e742065786365656473206260008201527f616c616e63650000000000000000000000000000000000000000000000000000602082015250565b7f506c6561736520696e70757420612076616c696420616d6f756e74206f66204c60008201527f5020546f6b656e7320746f206275726e2f72656465656d000000000000000000602082015250565b7f45524332303a206275726e2066726f6d20746865207a65726f2061646472657360008201527f7300000000000000000000000000000000000000000000000000000000000000602082015250565b7f45544820616d6f756e742063616e6e6f74206265207a65726f00000000000000600082015250565b7f45524332303a207472616e736665722066726f6d20746865207a65726f20616460008201527f6472657373000000000000000000000000000000000000000000000000000000602082015250565b7f5472616e73616374696f6e206f662045746865722077617320756e737563636560008201527f737366756c000000000000000000000000000000000000000000000000000000602082015250565b50565b7f546865726520617265206e6f2072657365727665730000000000000000000000600082015250565b7f45524332303a20617070726f76652066726f6d20746865207a65726f2061646460008201527f7265737300000000000000000000000000000000000000000000000000000000602082015250565b7f45524332303a2064656372656173656420616c6c6f77616e63652062656c6f7760008201527f207a65726f000000000000000000000000000000000000000000000000000000602082015250565b7f45524332303a206d696e7420746f20746865207a65726f206164647265737300600082015250565b61258881612016565b811461259357600080fd5b50565b61259f81612028565b81146125aa57600080fd5b50565b6125b681612054565b81146125c157600080fd5b5056fea264697066735822122001932b22dd16a62a93272fdf875865923d33562a1e4fae3cfb77b19bffcb2d6a64736f6c63430008070033",
					"opcodes": "PUSH1 0x80 PUSH1 0x40 MSTORE CALLVALUE DUP1 ISZERO PUSH3 0x11 JUMPI PUSH1 0x0 DUP1 REVERT JUMPDEST POP PUSH1 0x40 MLOAD PUSH3 0x2A11 CODESIZE SUB DUP1 PUSH3 0x2A11 DUP4 CODECOPY DUP2 DUP2 ADD PUSH1 0x40 MSTORE DUP2 ADD SWAP1 PUSH3 0x37 SWAP2 SWAP1 PUSH3 0x29A JUMP JUMPDEST PUSH1 0x40 MLOAD DUP1 PUSH1 0x40 ADD PUSH1 0x40 MSTORE DUP1 PUSH1 0x7 DUP2 MSTORE PUSH1 0x20 ADD PUSH32 0x5377617020563100000000000000000000000000000000000000000000000000 DUP2 MSTORE POP PUSH1 0x40 MLOAD DUP1 PUSH1 0x40 ADD PUSH1 0x40 MSTORE DUP1 PUSH1 0x7 DUP2 MSTORE PUSH1 0x20 ADD PUSH32 0x537761702D563100000000000000000000000000000000000000000000000000 DUP2 MSTORE POP DUP2 PUSH1 0x3 SWAP1 DUP1 MLOAD SWAP1 PUSH1 0x20 ADD SWAP1 PUSH3 0xBB SWAP3 SWAP2 SWAP1 PUSH3 0x1D3 JUMP JUMPDEST POP DUP1 PUSH1 0x4 SWAP1 DUP1 MLOAD SWAP1 PUSH1 0x20 ADD SWAP1 PUSH3 0xD4 SWAP3 SWAP2 SWAP1 PUSH3 0x1D3 JUMP JUMPDEST POP POP POP PUSH1 0x0 PUSH20 0xFFFFFFFFFFFFFFFFFFFFFFFFFFFFFFFFFFFFFFFF AND DUP2 PUSH20 0xFFFFFFFFFFFFFFFFFFFFFFFFFFFFFFFFFFFFFFFF AND EQ ISZERO PUSH3 0x14A JUMPI PUSH1 0x40 MLOAD PUSH32 0x8C379A000000000000000000000000000000000000000000000000000000000 DUP2 MSTORE PUSH1 0x4 ADD PUSH3 0x141 SWAP1 PUSH3 0x2F3 JUMP JUMPDEST PUSH1 0x40 MLOAD DUP1 SWAP2 SUB SWAP1 REVERT JUMPDEST DUP1 PUSH1 0x5 PUSH1 0x0 PUSH2 0x100 EXP DUP2 SLOAD DUP2 PUSH20 0xFFFFFFFFFFFFFFFFFFFFFFFFFFFFFFFFFFFFFFFF MUL NOT AND SWAP1 DUP4 PUSH20 0xFFFFFFFFFFFFFFFFFFFFFFFFFFFFFFFFFFFFFFFF AND MUL OR SWAP1 SSTORE POP CALLER PUSH1 0x6 PUSH1 0x0 PUSH2 0x100 EXP DUP2 SLOAD DUP2 PUSH20 0xFFFFFFFFFFFFFFFFFFFFFFFFFFFFFFFFFFFFFFFF MUL NOT AND SWAP1 DUP4 PUSH20 0xFFFFFFFFFFFFFFFFFFFFFFFFFFFFFFFFFFFFFFFF AND MUL OR SWAP1 SSTORE POP POP PUSH3 0x407 JUMP JUMPDEST DUP3 DUP1 SLOAD PUSH3 0x1E1 SWAP1 PUSH3 0x35A JUMP JUMPDEST SWAP1 PUSH1 0x0 MSTORE PUSH1 0x20 PUSH1 0x0 KECCAK256 SWAP1 PUSH1 0x1F ADD PUSH1 0x20 SWAP1 DIV DUP2 ADD SWAP3 DUP3 PUSH3 0x205 JUMPI PUSH1 0x0 DUP6 SSTORE PUSH3 0x251 JUMP JUMPDEST DUP3 PUSH1 0x1F LT PUSH3 0x220 JUMPI DUP1 MLOAD PUSH1 0xFF NOT AND DUP4 DUP1 ADD OR DUP6 SSTORE PUSH3 0x251 JUMP JUMPDEST DUP3 DUP1 ADD PUSH1 0x1 ADD DUP6 SSTORE DUP3 ISZERO PUSH3 0x251 JUMPI SWAP2 DUP3 ADD JUMPDEST DUP3 DUP2 GT ISZERO PUSH3 0x250 JUMPI DUP3 MLOAD DUP3 SSTORE SWAP2 PUSH1 0x20 ADD SWAP2 SWAP1 PUSH1 0x1 ADD SWAP1 PUSH3 0x233 JUMP JUMPDEST JUMPDEST POP SWAP1 POP PUSH3 0x260 SWAP2 SWAP1 PUSH3 0x264 JUMP JUMPDEST POP SWAP1 JUMP JUMPDEST JUMPDEST DUP1 DUP3 GT ISZERO PUSH3 0x27F JUMPI PUSH1 0x0 DUP2 PUSH1 0x0 SWAP1 SSTORE POP PUSH1 0x1 ADD PUSH3 0x265 JUMP JUMPDEST POP SWAP1 JUMP JUMPDEST PUSH1 0x0 DUP2 MLOAD SWAP1 POP PUSH3 0x294 DUP2 PUSH3 0x3ED JUMP JUMPDEST SWAP3 SWAP2 POP POP JUMP JUMPDEST PUSH1 0x0 PUSH1 0x20 DUP3 DUP5 SUB SLT ISZERO PUSH3 0x2B3 JUMPI PUSH3 0x2B2 PUSH3 0x3BF JUMP JUMPDEST JUMPDEST PUSH1 0x0 PUSH3 0x2C3 DUP5 DUP3 DUP6 ADD PUSH3 0x283 JUMP JUMPDEST SWAP2 POP POP SWAP3 SWAP2 POP POP JUMP JUMPDEST PUSH1 0x0 PUSH3 0x2DB PUSH1 0xF DUP4 PUSH3 0x315 JUMP JUMPDEST SWAP2 POP PUSH3 0x2E8 DUP3 PUSH3 0x3C4 JUMP JUMPDEST PUSH1 0x20 DUP3 ADD SWAP1 POP SWAP2 SWAP1 POP JUMP JUMPDEST PUSH1 0x0 PUSH1 0x20 DUP3 ADD SWAP1 POP DUP2 DUP2 SUB PUSH1 0x0 DUP4 ADD MSTORE PUSH3 0x30E DUP2 PUSH3 0x2CC JUMP JUMPDEST SWAP1 POP SWAP2 SWAP1 POP JUMP JUMPDEST PUSH1 0x0 DUP3 DUP3 MSTORE PUSH1 0x20 DUP3 ADD SWAP1 POP SWAP3 SWAP2 POP POP JUMP JUMPDEST PUSH1 0x0 PUSH3 0x333 DUP3 PUSH3 0x33A JUMP JUMPDEST SWAP1 POP SWAP2 SWAP1 POP JUMP JUMPDEST PUSH1 0x0 PUSH20 0xFFFFFFFFFFFFFFFFFFFFFFFFFFFFFFFFFFFFFFFF DUP3 AND SWAP1 POP SWAP2 SWAP1 POP JUMP JUMPDEST PUSH1 0x0 PUSH1 0x2 DUP3 DIV SWAP1 POP PUSH1 0x1 DUP3 AND DUP1 PUSH3 0x373 JUMPI PUSH1 0x7F DUP3 AND SWAP2 POP JUMPDEST PUSH1 0x20 DUP3 LT DUP2 EQ ISZERO PUSH3 0x38A JUMPI PUSH3 0x389 PUSH3 0x390 JUMP JUMPDEST JUMPDEST POP SWAP2 SWAP1 POP JUMP JUMPDEST PUSH32 0x4E487B7100000000000000000000000000000000000000000000000000000000 PUSH1 0x0 MSTORE PUSH1 0x22 PUSH1 0x4 MSTORE PUSH1 0x24 PUSH1 0x0 REVERT JUMPDEST PUSH1 0x0 DUP1 REVERT JUMPDEST PUSH32 0x496E76616C696420616464726573730000000000000000000000000000000000 PUSH1 0x0 DUP3 ADD MSTORE POP JUMP JUMPDEST PUSH3 0x3F8 DUP2 PUSH3 0x326 JUMP JUMPDEST DUP2 EQ PUSH3 0x404 JUMPI PUSH1 0x0 DUP1 REVERT JUMPDEST POP JUMP JUMPDEST PUSH2 0x25FA DUP1 PUSH3 0x417 PUSH1 0x0 CODECOPY PUSH1 0x0 RETURN INVALID PUSH1 0x80 PUSH1 0x40 MSTORE PUSH1 0x4 CALLDATASIZE LT PUSH2 0x109 JUMPI PUSH1 0x0 CALLDATALOAD PUSH1 0xE0 SHR DUP1 PUSH4 0x51C6590A GT PUSH2 0x95 JUMPI DUP1 PUSH4 0x9C8F9F23 GT PUSH2 0x64 JUMPI DUP1 PUSH4 0x9C8F9F23 EQ PUSH2 0x3AF JUMPI DUP1 PUSH4 0x9D76EA58 EQ PUSH2 0x3ED JUMPI DUP1 PUSH4 0xA457C2D7 EQ PUSH2 0x418 JUMPI DUP1 PUSH4 0xA9059CBB EQ PUSH2 0x455 JUMPI DUP1 PUSH4 0xDD62ED3E EQ PUSH2 0x492 JUMPI PUSH2 0x109 JUMP JUMPDEST DUP1 PUSH4 0x51C6590A EQ PUSH2 0x2EC JUMPI DUP1 PUSH4 0x70A08231 EQ PUSH2 0x31C JUMPI DUP1 PUSH4 0x95D89B41 EQ PUSH2 0x359 JUMPI DUP1 PUSH4 0x966DAE0E EQ PUSH2 0x384 JUMPI PUSH2 0x109 JUMP JUMPDEST DUP1 PUSH4 0x18160DDD GT PUSH2 0xDC JUMPI DUP1 PUSH4 0x18160DDD EQ PUSH2 0x1DF JUMPI DUP1 PUSH4 0x23B872DD EQ PUSH2 0x20A JUMPI DUP1 PUSH4 0x2C0C60A4 EQ PUSH2 0x247 JUMPI DUP1 PUSH4 0x313CE567 EQ PUSH2 0x284 JUMPI DUP1 PUSH4 0x39509351 EQ PUSH2 0x2AF JUMPI PUSH2 0x109 JUMP JUMPDEST DUP1 PUSH4 0x6FDDE03 EQ PUSH2 0x10E JUMPI DUP1 PUSH4 0x902F1AC EQ PUSH2 0x139 JUMPI DUP1 PUSH4 0x95EA7B3 EQ PUSH2 0x165 JUMPI DUP1 PUSH4 0xF8070B4 EQ PUSH2 0x1A2 JUMPI JUMPDEST PUSH1 0x0 DUP1 REVERT JUMPDEST CALLVALUE DUP1 ISZERO PUSH2 0x11A JUMPI PUSH1 0x0 DUP1 REVERT JUMPDEST POP PUSH2 0x123 PUSH2 0x4CF JUMP JUMPDEST PUSH1 0x40 MLOAD PUSH2 0x130 SWAP2 SWAP1 PUSH2 0x1C79 JUMP JUMPDEST PUSH1 0x40 MLOAD DUP1 SWAP2 SUB SWAP1 RETURN JUMPDEST CALLVALUE DUP1 ISZERO PUSH2 0x145 JUMPI PUSH1 0x0 DUP1 REVERT JUMPDEST POP PUSH2 0x14E PUSH2 0x561 JUMP JUMPDEST PUSH1 0x40 MLOAD PUSH2 0x15C SWAP3 SWAP2 SWAP1 PUSH2 0x1E96 JUMP JUMPDEST PUSH1 0x40 MLOAD DUP1 SWAP2 SUB SWAP1 RETURN JUMPDEST CALLVALUE DUP1 ISZERO PUSH2 0x171 JUMPI PUSH1 0x0 DUP1 REVERT JUMPDEST POP PUSH2 0x18C PUSH1 0x4 DUP1 CALLDATASIZE SUB DUP2 ADD SWAP1 PUSH2 0x187 SWAP2 SWAP1 PUSH2 0x1862 JUMP JUMPDEST PUSH2 0x618 JUMP JUMPDEST PUSH1 0x40 MLOAD PUSH2 0x199 SWAP2 SWAP1 PUSH2 0x1C5E JUMP JUMPDEST PUSH1 0x40 MLOAD DUP1 SWAP2 SUB SWAP1 RETURN JUMPDEST CALLVALUE DUP1 ISZERO PUSH2 0x1AE JUMPI PUSH1 0x0 DUP1 REVERT JUMPDEST POP PUSH2 0x1C9 PUSH1 0x4 DUP1 CALLDATASIZE SUB DUP2 ADD SWAP1 PUSH2 0x1C4 SWAP2 SWAP1 PUSH2 0x18CF JUMP JUMPDEST PUSH2 0x63B JUMP JUMPDEST PUSH1 0x40 MLOAD PUSH2 0x1D6 SWAP2 SWAP1 PUSH2 0x1E7B JUMP JUMPDEST PUSH1 0x40 MLOAD DUP1 SWAP2 SUB SWAP1 RETURN JUMPDEST CALLVALUE DUP1 ISZERO PUSH2 0x1EB JUMPI PUSH1 0x0 DUP1 REVERT JUMPDEST POP PUSH2 0x1F4 PUSH2 0x6A2 JUMP JUMPDEST PUSH1 0x40 MLOAD PUSH2 0x201 SWAP2 SWAP1 PUSH2 0x1E7B JUMP JUMPDEST PUSH1 0x40 MLOAD DUP1 SWAP2 SUB SWAP1 RETURN JUMPDEST CALLVALUE DUP1 ISZERO PUSH2 0x216 JUMPI PUSH1 0x0 DUP1 REVERT JUMPDEST POP PUSH2 0x231 PUSH1 0x4 DUP1 CALLDATASIZE SUB DUP2 ADD SWAP1 PUSH2 0x22C SWAP2 SWAP1 PUSH2 0x180F JUMP JUMPDEST PUSH2 0x6AC JUMP JUMPDEST PUSH1 0x40 MLOAD PUSH2 0x23E SWAP2 SWAP1 PUSH2 0x1C5E JUMP JUMPDEST PUSH1 0x40 MLOAD DUP1 SWAP2 SUB SWAP1 RETURN JUMPDEST CALLVALUE DUP1 ISZERO PUSH2 0x253 JUMPI PUSH1 0x0 DUP1 REVERT JUMPDEST POP PUSH2 0x26E PUSH1 0x4 DUP1 CALLDATASIZE SUB DUP2 ADD SWAP1 PUSH2 0x269 SWAP2 SWAP1 PUSH2 0x18CF JUMP JUMPDEST PUSH2 0x6DB JUMP JUMPDEST PUSH1 0x40 MLOAD PUSH2 0x27B SWAP2 SWAP1 PUSH2 0x1E7B JUMP JUMPDEST PUSH1 0x40 MLOAD DUP1 SWAP2 SUB SWAP1 RETURN JUMPDEST CALLVALUE DUP1 ISZERO PUSH2 0x290 JUMPI PUSH1 0x0 DUP1 REVERT JUMPDEST POP PUSH2 0x299 PUSH2 0x742 JUMP JUMPDEST PUSH1 0x40 MLOAD PUSH2 0x2A6 SWAP2 SWAP1 PUSH2 0x1EBF JUMP JUMPDEST PUSH1 0x40 MLOAD DUP1 SWAP2 SUB SWAP1 RETURN JUMPDEST CALLVALUE DUP1 ISZERO PUSH2 0x2BB JUMPI PUSH1 0x0 DUP1 REVERT JUMPDEST POP PUSH2 0x2D6 PUSH1 0x4 DUP1 CALLDATASIZE SUB DUP2 ADD SWAP1 PUSH2 0x2D1 SWAP2 SWAP1 PUSH2 0x1862 JUMP JUMPDEST PUSH2 0x74B JUMP JUMPDEST PUSH1 0x40 MLOAD PUSH2 0x2E3 SWAP2 SWAP1 PUSH2 0x1C5E JUMP JUMPDEST PUSH1 0x40 MLOAD DUP1 SWAP2 SUB SWAP1 RETURN JUMPDEST PUSH2 0x306 PUSH1 0x4 DUP1 CALLDATASIZE SUB DUP2 ADD SWAP1 PUSH2 0x301 SWAP2 SWAP1 PUSH2 0x18CF JUMP JUMPDEST PUSH2 0x782 JUMP JUMPDEST PUSH1 0x40 MLOAD PUSH2 0x313 SWAP2 SWAP1 PUSH2 0x1E7B JUMP JUMPDEST PUSH1 0x40 MLOAD DUP1 SWAP2 SUB SWAP1 RETURN JUMPDEST CALLVALUE DUP1 ISZERO PUSH2 0x328 JUMPI PUSH1 0x0 DUP1 REVERT JUMPDEST POP PUSH2 0x343 PUSH1 0x4 DUP1 CALLDATASIZE SUB DUP2 ADD SWAP1 PUSH2 0x33E SWAP2 SWAP1 PUSH2 0x17A2 JUMP JUMPDEST PUSH2 0x9F8 JUMP JUMPDEST PUSH1 0x40 MLOAD PUSH2 0x350 SWAP2 SWAP1 PUSH2 0x1E7B JUMP JUMPDEST PUSH1 0x40 MLOAD DUP1 SWAP2 SUB SWAP1 RETURN JUMPDEST CALLVALUE DUP1 ISZERO PUSH2 0x365 JUMPI PUSH1 0x0 DUP1 REVERT JUMPDEST POP PUSH2 0x36E PUSH2 0xA40 JUMP JUMPDEST PUSH1 0x40 MLOAD PUSH2 0x37B SWAP2 SWAP1 PUSH2 0x1C79 JUMP JUMPDEST PUSH1 0x40 MLOAD DUP1 SWAP2 SUB SWAP1 RETURN JUMPDEST CALLVALUE DUP1 ISZERO PUSH2 0x390 JUMPI PUSH1 0x0 DUP1 REVERT JUMPDEST POP PUSH2 0x399 PUSH2 0xAD2 JUMP JUMPDEST PUSH1 0x40 MLOAD PUSH2 0x3A6 SWAP2 SWAP1 PUSH2 0x1BE3 JUMP JUMPDEST PUSH1 0x40 MLOAD DUP1 SWAP2 SUB SWAP1 RETURN JUMPDEST CALLVALUE DUP1 ISZERO PUSH2 0x3BB JUMPI PUSH1 0x0 DUP1 REVERT JUMPDEST POP PUSH2 0x3D6 PUSH1 0x4 DUP1 CALLDATASIZE SUB DUP2 ADD SWAP1 PUSH2 0x3D1 SWAP2 SWAP1 PUSH2 0x18CF JUMP JUMPDEST PUSH2 0xAF8 JUMP JUMPDEST PUSH1 0x40 MLOAD PUSH2 0x3E4 SWAP3 SWAP2 SWAP1 PUSH2 0x1E96 JUMP JUMPDEST PUSH1 0x40 MLOAD DUP1 SWAP2 SUB SWAP1 RETURN JUMPDEST CALLVALUE DUP1 ISZERO PUSH2 0x3F9 JUMPI PUSH1 0x0 DUP1 REVERT JUMPDEST POP PUSH2 0x402 PUSH2 0xD40 JUMP JUMPDEST PUSH1 0x40 MLOAD PUSH2 0x40F SWAP2 SWAP1 PUSH2 0x1BE3 JUMP JUMPDEST PUSH1 0x40 MLOAD DUP1 SWAP2 SUB SWAP1 RETURN JUMPDEST CALLVALUE DUP1 ISZERO PUSH2 0x424 JUMPI PUSH1 0x0 DUP1 REVERT JUMPDEST POP PUSH2 0x43F PUSH1 0x4 DUP1 CALLDATASIZE SUB DUP2 ADD SWAP1 PUSH2 0x43A SWAP2 SWAP1 PUSH2 0x1862 JUMP JUMPDEST PUSH2 0xD66 JUMP JUMPDEST PUSH1 0x40 MLOAD PUSH2 0x44C SWAP2 SWAP1 PUSH2 0x1C5E JUMP JUMPDEST PUSH1 0x40 MLOAD DUP1 SWAP2 SUB SWAP1 RETURN JUMPDEST CALLVALUE DUP1 ISZERO PUSH2 0x461 JUMPI PUSH1 0x0 DUP1 REVERT JUMPDEST POP PUSH2 0x47C PUSH1 0x4 DUP1 CALLDATASIZE SUB DUP2 ADD SWAP1 PUSH2 0x477 SWAP2 SWAP1 PUSH2 0x1862 JUMP JUMPDEST PUSH2 0xDDD JUMP JUMPDEST PUSH1 0x40 MLOAD PUSH2 0x489 SWAP2 SWAP1 PUSH2 0x1C5E JUMP JUMPDEST PUSH1 0x40 MLOAD DUP1 SWAP2 SUB SWAP1 RETURN JUMPDEST CALLVALUE DUP1 ISZERO PUSH2 0x49E JUMPI PUSH1 0x0 DUP1 REVERT JUMPDEST POP PUSH2 0x4B9 PUSH1 0x4 DUP1 CALLDATASIZE SUB DUP2 ADD SWAP1 PUSH2 0x4B4 SWAP2 SWAP1 PUSH2 0x17CF JUMP JUMPDEST PUSH2 0xE00 JUMP JUMPDEST PUSH1 0x40 MLOAD PUSH2 0x4C6 SWAP2 SWAP1 PUSH2 0x1E7B JUMP JUMPDEST PUSH1 0x40 MLOAD DUP1 SWAP2 SUB SWAP1 RETURN JUMPDEST PUSH1 0x60 PUSH1 0x3 DUP1 SLOAD PUSH2 0x4DE SWAP1 PUSH2 0x209E JUMP JUMPDEST DUP1 PUSH1 0x1F ADD PUSH1 0x20 DUP1 SWAP2 DIV MUL PUSH1 0x20 ADD PUSH1 0x40 MLOAD SWAP1 DUP2 ADD PUSH1 0x40 MSTORE DUP1 SWAP3 SWAP2 SWAP1 DUP2 DUP2 MSTORE PUSH1 0x20 ADD DUP3 DUP1 SLOAD PUSH2 0x50A SWAP1 PUSH2 0x209E JUMP JUMPDEST DUP1 ISZERO PUSH2 0x557 JUMPI DUP1 PUSH1 0x1F LT PUSH2 0x52C JUMPI PUSH2 0x100 DUP1 DUP4 SLOAD DIV MUL DUP4 MSTORE SWAP2 PUSH1 0x20 ADD SWAP2 PUSH2 0x557 JUMP JUMPDEST DUP3 ADD SWAP2 SWAP1 PUSH1 0x0 MSTORE PUSH1 0x20 PUSH1 0x0 KECCAK256 SWAP1 JUMPDEST DUP2 SLOAD DUP2 MSTORE SWAP1 PUSH1 0x1 ADD SWAP1 PUSH1 0x20 ADD DUP1 DUP4 GT PUSH2 0x53A JUMPI DUP3 SWAP1 SUB PUSH1 0x1F AND DUP3 ADD SWAP2 JUMPDEST POP POP POP POP POP SWAP1 POP SWAP1 JUMP JUMPDEST PUSH1 0x0 DUP1 PUSH1 0x5 PUSH1 0x0 SWAP1 SLOAD SWAP1 PUSH2 0x100 EXP SWAP1 DIV PUSH20 0xFFFFFFFFFFFFFFFFFFFFFFFFFFFFFFFFFFFFFFFF AND PUSH20 0xFFFFFFFFFFFFFFFFFFFFFFFFFFFFFFFFFFFFFFFF AND PUSH4 0x70A08231 ADDRESS PUSH1 0x40 MLOAD DUP3 PUSH4 0xFFFFFFFF AND PUSH1 0xE0 SHL DUP2 MSTORE PUSH1 0x4 ADD PUSH2 0x5BF SWAP2 SWAP1 PUSH2 0x1BE3 JUMP JUMPDEST PUSH1 0x20 PUSH1 0x40 MLOAD DUP1 DUP4 SUB DUP2 DUP7 DUP1 EXTCODESIZE ISZERO DUP1 ISZERO PUSH2 0x5D7 JUMPI PUSH1 0x0 DUP1 REVERT JUMPDEST POP GAS STATICCALL ISZERO DUP1 ISZERO PUSH2 0x5EB JUMPI RETURNDATASIZE PUSH1 0x0 DUP1 RETURNDATACOPY RETURNDATASIZE PUSH1 0x0 REVERT JUMPDEST POP POP POP POP PUSH1 0x40 MLOAD RETURNDATASIZE PUSH1 0x1F NOT PUSH1 0x1F DUP3 ADD AND DUP3 ADD DUP1 PUSH1 0x40 MSTORE POP DUP2 ADD SWAP1 PUSH2 0x60F SWAP2 SWAP1 PUSH2 0x18FC JUMP JUMPDEST SWAP2 POP SELFBALANCE SWAP1 POP SWAP1 SWAP2 JUMP JUMPDEST PUSH1 0x0 DUP1 PUSH2 0x623 PUSH2 0xE87 JUMP JUMPDEST SWAP1 POP PUSH2 0x630 DUP2 DUP6 DUP6 PUSH2 0xE8F JUMP JUMPDEST PUSH1 0x1 SWAP2 POP POP SWAP3 SWAP2 POP POP JUMP JUMPDEST PUSH1 0x0 DUP1 DUP3 GT PUSH2 0x67F JUMPI PUSH1 0x40 MLOAD PUSH32 0x8C379A000000000000000000000000000000000000000000000000000000000 DUP2 MSTORE PUSH1 0x4 ADD PUSH2 0x676 SWAP1 PUSH2 0x1D9B JUMP JUMPDEST PUSH1 0x40 MLOAD DUP1 SWAP2 SUB SWAP1 REVERT JUMPDEST PUSH1 0x0 DUP1 PUSH2 0x68A PUSH2 0x561 JUMP JUMPDEST SWAP2 POP SWAP2 POP PUSH2 0x699 DUP5 DUP3 DUP5 PUSH2 0x105A JUMP JUMPDEST SWAP3 POP POP POP SWAP2 SWAP1 POP JUMP JUMPDEST PUSH1 0x0 PUSH1 0x2 SLOAD SWAP1 POP SWAP1 JUMP JUMPDEST PUSH1 0x0 DUP1 PUSH2 0x6B7 PUSH2 0xE87 JUMP JUMPDEST SWAP1 POP PUSH2 0x6C4 DUP6 DUP3 DUP6 PUSH2 0x1100 JUMP JUMPDEST PUSH2 0x6CF DUP6 DUP6 DUP6 PUSH2 0x118C JUMP JUMPDEST PUSH1 0x1 SWAP2 POP POP SWAP4 SWAP3 POP POP POP JUMP JUMPDEST PUSH1 0x0 DUP1 DUP2 GT PUSH2 0x71F JUMPI PUSH1 0x40 MLOAD PUSH32 0x8C379A000000000000000000000000000000000000000000000000000000000 DUP2 MSTORE PUSH1 0x4 ADD PUSH2 0x716 SWAP1 PUSH2 0x1D9B JUMP JUMPDEST PUSH1 0x40 MLOAD DUP1 SWAP2 SUB SWAP1 REVERT JUMPDEST PUSH1 0x0 DUP1 PUSH2 0x72A PUSH2 0x561 JUMP JUMPDEST SWAP2 POP SWAP2 POP PUSH2 0x739 DUP5 DUP4 DUP4 PUSH2 0x105A JUMP JUMPDEST SWAP3 POP POP POP SWAP2 SWAP1 POP JUMP JUMPDEST PUSH1 0x0 PUSH1 0x12 SWAP1 POP SWAP1 JUMP JUMPDEST PUSH1 0x0 DUP1 PUSH2 0x756 PUSH2 0xE87 JUMP JUMPDEST SWAP1 POP PUSH2 0x777 DUP2 DUP6 DUP6 PUSH2 0x768 DUP6 DUP10 PUSH2 0xE00 JUMP JUMPDEST PUSH2 0x772 SWAP2 SWAP1 PUSH2 0x1F01 JUMP JUMPDEST PUSH2 0xE8F JUMP JUMPDEST PUSH1 0x1 SWAP2 POP POP SWAP3 SWAP2 POP POP JUMP JUMPDEST PUSH1 0x0 DUP1 PUSH1 0x0 PUSH2 0x78F PUSH2 0x561 JUMP JUMPDEST SWAP2 POP SWAP2 POP PUSH1 0x0 DUP3 EQ ISZERO PUSH2 0x85C JUMPI PUSH1 0x0 PUSH1 0x5 PUSH1 0x0 SWAP1 SLOAD SWAP1 PUSH2 0x100 EXP SWAP1 DIV PUSH20 0xFFFFFFFFFFFFFFFFFFFFFFFFFFFFFFFFFFFFFFFF AND SWAP1 POP DUP1 PUSH20 0xFFFFFFFFFFFFFFFFFFFFFFFFFFFFFFFFFFFFFFFF AND PUSH4 0x23B872DD CALLER ADDRESS DUP9 PUSH1 0x40 MLOAD DUP5 PUSH4 0xFFFFFFFF AND PUSH1 0xE0 SHL DUP2 MSTORE PUSH1 0x4 ADD PUSH2 0x800 SWAP4 SWAP3 SWAP2 SWAP1 PUSH2 0x1BFE JUMP JUMPDEST PUSH1 0x20 PUSH1 0x40 MLOAD DUP1 DUP4 SUB DUP2 PUSH1 0x0 DUP8 DUP1 EXTCODESIZE ISZERO DUP1 ISZERO PUSH2 0x81A JUMPI PUSH1 0x0 DUP1 REVERT JUMPDEST POP GAS CALL ISZERO DUP1 ISZERO PUSH2 0x82E JUMPI RETURNDATASIZE PUSH1 0x0 DUP1 RETURNDATACOPY RETURNDATASIZE PUSH1 0x0 REVERT JUMPDEST POP POP POP POP PUSH1 0x40 MLOAD RETURNDATASIZE PUSH1 0x1F NOT PUSH1 0x1F DUP3 ADD AND DUP3 ADD DUP1 PUSH1 0x40 MSTORE POP DUP2 ADD SWAP1 PUSH2 0x852 SWAP2 SWAP1 PUSH2 0x18A2 JUMP JUMPDEST POP DUP2 SWAP4 POP POP PUSH2 0x9A2 JUMP JUMPDEST CALLVALUE DUP2 PUSH2 0x868 SWAP2 SWAP1 PUSH2 0x1FE2 JUMP JUMPDEST SWAP1 POP PUSH1 0x0 DUP2 DUP4 CALLVALUE PUSH2 0x879 SWAP2 SWAP1 PUSH2 0x1F88 JUMP JUMPDEST PUSH2 0x883 SWAP2 SWAP1 PUSH2 0x1F57 JUMP JUMPDEST SWAP1 POP DUP1 DUP6 LT ISZERO PUSH2 0x8C8 JUMPI PUSH1 0x40 MLOAD PUSH32 0x8C379A000000000000000000000000000000000000000000000000000000000 DUP2 MSTORE PUSH1 0x4 ADD PUSH2 0x8BF SWAP1 PUSH2 0x1CFB JUMP JUMPDEST PUSH1 0x40 MLOAD DUP1 SWAP2 SUB SWAP1 REVERT JUMPDEST PUSH1 0x0 PUSH1 0x5 PUSH1 0x0 SWAP1 SLOAD SWAP1 PUSH2 0x100 EXP SWAP1 DIV PUSH20 0xFFFFFFFFFFFFFFFFFFFFFFFFFFFFFFFFFFFFFFFF AND SWAP1 POP DUP1 PUSH20 0xFFFFFFFFFFFFFFFFFFFFFFFFFFFFFFFFFFFFFFFF AND PUSH4 0x23B872DD CALLER ADDRESS DUP10 PUSH1 0x40 MLOAD DUP5 PUSH4 0xFFFFFFFF AND PUSH1 0xE0 SHL DUP2 MSTORE PUSH1 0x4 ADD PUSH2 0x92C SWAP4 SWAP3 SWAP2 SWAP1 PUSH2 0x1BFE JUMP JUMPDEST PUSH1 0x20 PUSH1 0x40 MLOAD DUP1 DUP4 SUB DUP2 PUSH1 0x0 DUP8 DUP1 EXTCODESIZE ISZERO DUP1 ISZERO PUSH2 0x946 JUMPI PUSH1 0x0 DUP1 REVERT JUMPDEST POP GAS CALL ISZERO DUP1 ISZERO PUSH2 0x95A JUMPI RETURNDATASIZE PUSH1 0x0 DUP1 RETURNDATACOPY RETURNDATASIZE PUSH1 0x0 REVERT JUMPDEST POP POP POP POP PUSH1 0x40 MLOAD RETURNDATASIZE PUSH1 0x1F NOT PUSH1 0x1F DUP3 ADD AND DUP3 ADD DUP1 PUSH1 0x40 MSTORE POP DUP2 ADD SWAP1 PUSH2 0x97E SWAP2 SWAP1 PUSH2 0x18A2 JUMP JUMPDEST POP DUP3 CALLVALUE PUSH2 0x989 PUSH2 0x6A2 JUMP JUMPDEST PUSH2 0x993 SWAP2 SWAP1 PUSH2 0x1F88 JUMP JUMPDEST PUSH2 0x99D SWAP2 SWAP1 PUSH2 0x1F57 JUMP JUMPDEST SWAP5 POP POP POP JUMPDEST PUSH2 0x9AC CALLER DUP5 PUSH2 0x140D JUMP JUMPDEST DUP4 CALLVALUE CALLER PUSH20 0xFFFFFFFFFFFFFFFFFFFFFFFFFFFFFFFFFFFFFFFF AND PUSH32 0x6239653922AC7BEA6AA2B19DC486B9361821D37712EB796ADFD38D81DE278CA PUSH1 0x40 MLOAD PUSH1 0x40 MLOAD DUP1 SWAP2 SUB SWAP1 LOG4 POP POP SWAP2 SWAP1 POP JUMP JUMPDEST PUSH1 0x0 DUP1 PUSH1 0x0 DUP4 PUSH20 0xFFFFFFFFFFFFFFFFFFFFFFFFFFFFFFFFFFFFFFFF AND PUSH20 0xFFFFFFFFFFFFFFFFFFFFFFFFFFFFFFFFFFFFFFFF AND DUP2 MSTORE PUSH1 0x20 ADD SWAP1 DUP2 MSTORE PUSH1 0x20 ADD PUSH1 0x0 KECCAK256 SLOAD SWAP1 POP SWAP2 SWAP1 POP JUMP JUMPDEST PUSH1 0x60 PUSH1 0x4 DUP1 SLOAD PUSH2 0xA4F SWAP1 PUSH2 0x209E JUMP JUMPDEST DUP1 PUSH1 0x1F ADD PUSH1 0x20 DUP1 SWAP2 DIV MUL PUSH1 0x20 ADD PUSH1 0x40 MLOAD SWAP1 DUP2 ADD PUSH1 0x40 MSTORE DUP1 SWAP3 SWAP2 SWAP1 DUP2 DUP2 MSTORE PUSH1 0x20 ADD DUP3 DUP1 SLOAD PUSH2 0xA7B SWAP1 PUSH2 0x209E JUMP JUMPDEST DUP1 ISZERO PUSH2 0xAC8 JUMPI DUP1 PUSH1 0x1F LT PUSH2 0xA9D JUMPI PUSH2 0x100 DUP1 DUP4 SLOAD DIV MUL DUP4 MSTORE SWAP2 PUSH1 0x20 ADD SWAP2 PUSH2 0xAC8 JUMP JUMPDEST DUP3 ADD SWAP2 SWAP1 PUSH1 0x0 MSTORE PUSH1 0x20 PUSH1 0x0 KECCAK256 SWAP1 JUMPDEST DUP2 SLOAD DUP2 MSTORE SWAP1 PUSH1 0x1 ADD SWAP1 PUSH1 0x20 ADD DUP1 DUP4 GT PUSH2 0xAAB JUMPI DUP3 SWAP1 SUB PUSH1 0x1F AND DUP3 ADD SWAP2 JUMPDEST POP POP POP POP POP SWAP1 POP SWAP1 JUMP JUMPDEST PUSH1 0x6 PUSH1 0x0 SWAP1 SLOAD SWAP1 PUSH2 0x100 EXP SWAP1 DIV PUSH20 0xFFFFFFFFFFFFFFFFFFFFFFFFFFFFFFFFFFFFFFFF AND DUP2 JUMP JUMPDEST PUSH1 0x0 DUP1 PUSH1 0x0 DUP4 GT PUSH2 0xB3E JUMPI PUSH1 0x40 MLOAD PUSH32 0x8C379A000000000000000000000000000000000000000000000000000000000 DUP2 MSTORE PUSH1 0x4 ADD PUSH2 0xB35 SWAP1 PUSH2 0x1D5B JUMP JUMPDEST PUSH1 0x40 MLOAD DUP1 SWAP2 SUB SWAP1 REVERT JUMPDEST PUSH1 0x0 DUP1 PUSH2 0xB49 PUSH2 0x561 JUMP JUMPDEST SWAP2 POP SWAP2 POP PUSH2 0xB55 PUSH2 0x6A2 JUMP JUMPDEST DUP6 DUP3 PUSH2 0xB61 SWAP2 SWAP1 PUSH2 0x1F88 JUMP JUMPDEST PUSH2 0xB6B SWAP2 SWAP1 PUSH2 0x1F57 JUMP JUMPDEST SWAP4 POP PUSH2 0xB75 PUSH2 0x6A2 JUMP JUMPDEST DUP6 DUP4 PUSH2 0xB81 SWAP2 SWAP1 PUSH2 0x1F88 JUMP JUMPDEST PUSH2 0xB8B SWAP2 SWAP1 PUSH2 0x1F57 JUMP JUMPDEST SWAP3 POP PUSH2 0xB97 CALLER DUP7 PUSH2 0x156D JUMP JUMPDEST PUSH1 0x0 CALLER PUSH20 0xFFFFFFFFFFFFFFFFFFFFFFFFFFFFFFFFFFFFFFFF AND DUP6 PUSH1 0x40 MLOAD PUSH2 0xBBD SWAP1 PUSH2 0x1BCE JUMP JUMPDEST PUSH1 0x0 PUSH1 0x40 MLOAD DUP1 DUP4 SUB DUP2 DUP6 DUP8 GAS CALL SWAP3 POP POP POP RETURNDATASIZE DUP1 PUSH1 0x0 DUP2 EQ PUSH2 0xBFA JUMPI PUSH1 0x40 MLOAD SWAP2 POP PUSH1 0x1F NOT PUSH1 0x3F RETURNDATASIZE ADD AND DUP3 ADD PUSH1 0x40 MSTORE RETURNDATASIZE DUP3 MSTORE RETURNDATASIZE PUSH1 0x0 PUSH1 0x20 DUP5 ADD RETURNDATACOPY PUSH2 0xBFF JUMP JUMPDEST PUSH1 0x60 SWAP2 POP JUMPDEST POP POP SWAP1 POP DUP1 PUSH2 0xC43 JUMPI PUSH1 0x40 MLOAD PUSH32 0x8C379A000000000000000000000000000000000000000000000000000000000 DUP2 MSTORE PUSH1 0x4 ADD PUSH2 0xC3A SWAP1 PUSH2 0x1DDB JUMP JUMPDEST PUSH1 0x40 MLOAD DUP1 SWAP2 SUB SWAP1 REVERT JUMPDEST PUSH1 0x5 PUSH1 0x0 SWAP1 SLOAD SWAP1 PUSH2 0x100 EXP SWAP1 DIV PUSH20 0xFFFFFFFFFFFFFFFFFFFFFFFFFFFFFFFFFFFFFFFF AND PUSH20 0xFFFFFFFFFFFFFFFFFFFFFFFFFFFFFFFFFFFFFFFF AND PUSH4 0xA9059CBB CALLER DUP7 PUSH1 0x40 MLOAD DUP4 PUSH4 0xFFFFFFFF AND PUSH1 0xE0 SHL DUP2 MSTORE PUSH1 0x4 ADD PUSH2 0xCA0 SWAP3 SWAP2 SWAP1 PUSH2 0x1C35 JUMP JUMPDEST PUSH1 0x20 PUSH1 0x40 MLOAD DUP1 DUP4 SUB DUP2 PUSH1 0x0 DUP8 DUP1 EXTCODESIZE ISZERO DUP1 ISZERO PUSH2 0xCBA JUMPI PUSH1 0x0 DUP1 REVERT JUMPDEST POP GAS CALL ISZERO DUP1 ISZERO PUSH2 0xCCE JUMPI RETURNDATASIZE PUSH1 0x0 DUP1 RETURNDATACOPY RETURNDATASIZE PUSH1 0x0 REVERT JUMPDEST POP POP POP POP PUSH1 0x40 MLOAD RETURNDATASIZE PUSH1 0x1F NOT PUSH1 0x1F DUP3 ADD AND DUP3 ADD DUP1 PUSH1 0x40 MSTORE POP DUP2 ADD SWAP1 PUSH2 0xCF2 SWAP2 SWAP1 PUSH2 0x18A2 JUMP JUMPDEST POP DUP4 DUP6 CALLER PUSH20 0xFFFFFFFFFFFFFFFFFFFFFFFFFFFFFFFFFFFFFFFF AND PUSH32 0xFBF06C058B90CB038A618F8C2ACBF6145F8B3570FD1FA56ABB8F0F3F05B36E8 PUSH1 0x40 MLOAD PUSH1 0x40 MLOAD DUP1 SWAP2 SUB SWAP1 LOG4 POP POP POP SWAP2 POP SWAP2 JUMP JUMPDEST PUSH1 0x5 PUSH1 0x0 SWAP1 SLOAD SWAP1 PUSH2 0x100 EXP SWAP1 DIV PUSH20 0xFFFFFFFFFFFFFFFFFFFFFFFFFFFFFFFFFFFFFFFF AND DUP2 JUMP JUMPDEST PUSH1 0x0 DUP1 PUSH2 0xD71 PUSH2 0xE87 JUMP JUMPDEST SWAP1 POP PUSH1 0x0 PUSH2 0xD7F DUP3 DUP7 PUSH2 0xE00 JUMP JUMPDEST SWAP1 POP DUP4 DUP2 LT ISZERO PUSH2 0xDC4 JUMPI PUSH1 0x40 MLOAD PUSH32 0x8C379A000000000000000000000000000000000000000000000000000000000 DUP2 MSTORE PUSH1 0x4 ADD PUSH2 0xDBB SWAP1 PUSH2 0x1E3B JUMP JUMPDEST PUSH1 0x40 MLOAD DUP1 SWAP2 SUB SWAP1 REVERT JUMPDEST PUSH2 0xDD1 DUP3 DUP7 DUP7 DUP5 SUB PUSH2 0xE8F JUMP JUMPDEST PUSH1 0x1 SWAP3 POP POP POP SWAP3 SWAP2 POP POP JUMP JUMPDEST PUSH1 0x0 DUP1 PUSH2 0xDE8 PUSH2 0xE87 JUMP JUMPDEST SWAP1 POP PUSH2 0xDF5 DUP2 DUP6 DUP6 PUSH2 0x118C JUMP JUMPDEST PUSH1 0x1 SWAP2 POP POP SWAP3 SWAP2 POP POP JUMP JUMPDEST PUSH1 0x0 PUSH1 0x1 PUSH1 0x0 DUP5 PUSH20 0xFFFFFFFFFFFFFFFFFFFFFFFFFFFFFFFFFFFFFFFF AND PUSH20 0xFFFFFFFFFFFFFFFFFFFFFFFFFFFFFFFFFFFFFFFF AND DUP2 MSTORE PUSH1 0x20 ADD SWAP1 DUP2 MSTORE PUSH1 0x20 ADD PUSH1 0x0 KECCAK256 PUSH1 0x0 DUP4 PUSH20 0xFFFFFFFFFFFFFFFFFFFFFFFFFFFFFFFFFFFFFFFF AND PUSH20 0xFFFFFFFFFFFFFFFFFFFFFFFFFFFFFFFFFFFFFFFF AND DUP2 MSTORE PUSH1 0x20 ADD SWAP1 DUP2 MSTORE PUSH1 0x20 ADD PUSH1 0x0 KECCAK256 SLOAD SWAP1 POP SWAP3 SWAP2 POP POP JUMP JUMPDEST PUSH1 0x0 CALLER SWAP1 POP SWAP1 JUMP JUMPDEST PUSH1 0x0 PUSH20 0xFFFFFFFFFFFFFFFFFFFFFFFFFFFFFFFFFFFFFFFF AND DUP4 PUSH20 0xFFFFFFFFFFFFFFFFFFFFFFFFFFFFFFFFFFFFFFFF AND EQ ISZERO PUSH2 0xEFF JUMPI PUSH1 0x40 MLOAD PUSH32 0x8C379A000000000000000000000000000000000000000000000000000000000 DUP2 MSTORE PUSH1 0x4 ADD PUSH2 0xEF6 SWAP1 PUSH2 0x1E1B JUMP JUMPDEST PUSH1 0x40 MLOAD DUP1 SWAP2 SUB SWAP1 REVERT JUMPDEST PUSH1 0x0 PUSH20 0xFFFFFFFFFFFFFFFFFFFFFFFFFFFFFFFFFFFFFFFF AND DUP3 PUSH20 0xFFFFFFFFFFFFFFFFFFFFFFFFFFFFFFFFFFFFFFFF AND EQ ISZERO PUSH2 0xF6F JUMPI PUSH1 0x40 MLOAD PUSH32 0x8C379A000000000000000000000000000000000000000000000000000000000 DUP2 MSTORE PUSH1 0x4 ADD PUSH2 0xF66 SWAP1 PUSH2 0x1CDB JUMP JUMPDEST PUSH1 0x40 MLOAD DUP1 SWAP2 SUB SWAP1 REVERT JUMPDEST DUP1 PUSH1 0x1 PUSH1 0x0 DUP6 PUSH20 0xFFFFFFFFFFFFFFFFFFFFFFFFFFFFFFFFFFFFFFFF AND PUSH20 0xFFFFFFFFFFFFFFFFFFFFFFFFFFFFFFFFFFFFFFFF AND DUP2 MSTORE PUSH1 0x20 ADD SWAP1 DUP2 MSTORE PUSH1 0x20 ADD PUSH1 0x0 KECCAK256 PUSH1 0x0 DUP5 PUSH20 0xFFFFFFFFFFFFFFFFFFFFFFFFFFFFFFFFFFFFFFFF AND PUSH20 0xFFFFFFFFFFFFFFFFFFFFFFFFFFFFFFFFFFFFFFFF AND DUP2 MSTORE PUSH1 0x20 ADD SWAP1 DUP2 MSTORE PUSH1 0x20 ADD PUSH1 0x0 KECCAK256 DUP2 SWAP1 SSTORE POP DUP2 PUSH20 0xFFFFFFFFFFFFFFFFFFFFFFFFFFFFFFFFFFFFFFFF AND DUP4 PUSH20 0xFFFFFFFFFFFFFFFFFFFFFFFFFFFFFFFFFFFFFFFF AND PUSH32 0x8C5BE1E5EBEC7D5BD14F71427D1E84F3DD0314C0F7B2291E5B200AC8C7C3B925 DUP4 PUSH1 0x40 MLOAD PUSH2 0x104D SWAP2 SWAP1 PUSH2 0x1E7B JUMP JUMPDEST PUSH1 0x40 MLOAD DUP1 SWAP2 SUB SWAP1 LOG3 POP POP POP JUMP JUMPDEST PUSH1 0x0 DUP1 DUP4 GT DUP1 ISZERO PUSH2 0x106B JUMPI POP PUSH1 0x0 DUP3 GT JUMPDEST PUSH2 0x10AA JUMPI PUSH1 0x40 MLOAD PUSH32 0x8C379A000000000000000000000000000000000000000000000000000000000 DUP2 MSTORE PUSH1 0x4 ADD PUSH2 0x10A1 SWAP1 PUSH2 0x1DFB JUMP JUMPDEST PUSH1 0x40 MLOAD DUP1 SWAP2 SUB SWAP1 REVERT JUMPDEST PUSH1 0x0 DUP1 PUSH2 0x3E8 PUSH2 0x10BA SWAP2 SWAP1 PUSH2 0x1FE2 JUMP JUMPDEST DUP6 PUSH2 0x10C5 SWAP2 SWAP1 PUSH2 0x1F88 JUMP JUMPDEST SWAP1 POP DUP1 DUP5 PUSH2 0x3E8 PUSH2 0x10D6 SWAP2 SWAP1 PUSH2 0x1F88 JUMP JUMPDEST PUSH2 0x10E0 SWAP2 SWAP1 PUSH2 0x1F01 JUMP JUMPDEST DUP4 DUP3 PUSH2 0x10EC SWAP2 SWAP1 PUSH2 0x1F88 JUMP JUMPDEST PUSH2 0x10F6 SWAP2 SWAP1 PUSH2 0x1F57 JUMP JUMPDEST SWAP2 POP POP SWAP4 SWAP3 POP POP POP JUMP JUMPDEST PUSH1 0x0 PUSH2 0x110C DUP5 DUP5 PUSH2 0xE00 JUMP JUMPDEST SWAP1 POP PUSH32 0xFFFFFFFFFFFFFFFFFFFFFFFFFFFFFFFFFFFFFFFFFFFFFFFFFFFFFFFFFFFFFFFF DUP2 EQ PUSH2 0x1186 JUMPI DUP2 DUP2 LT ISZERO PUSH2 0x1178 JUMPI PUSH1 0x40 MLOAD PUSH32 0x8C379A000000000000000000000000000000000000000000000000000000000 DUP2 MSTORE PUSH1 0x4 ADD PUSH2 0x116F SWAP1 PUSH2 0x1D1B JUMP JUMPDEST PUSH1 0x40 MLOAD DUP1 SWAP2 SUB SWAP1 REVERT JUMPDEST PUSH2 0x1185 DUP5 DUP5 DUP5 DUP5 SUB PUSH2 0xE8F JUMP JUMPDEST JUMPDEST POP POP POP POP JUMP JUMPDEST PUSH1 0x0 PUSH20 0xFFFFFFFFFFFFFFFFFFFFFFFFFFFFFFFFFFFFFFFF AND DUP4 PUSH20 0xFFFFFFFFFFFFFFFFFFFFFFFFFFFFFFFFFFFFFFFF AND EQ ISZERO PUSH2 0x11FC JUMPI PUSH1 0x40 MLOAD PUSH32 0x8C379A000000000000000000000000000000000000000000000000000000000 DUP2 MSTORE PUSH1 0x4 ADD PUSH2 0x11F3 SWAP1 PUSH2 0x1DBB JUMP JUMPDEST PUSH1 0x40 MLOAD DUP1 SWAP2 SUB SWAP1 REVERT JUMPDEST PUSH1 0x0 PUSH20 0xFFFFFFFFFFFFFFFFFFFFFFFFFFFFFFFFFFFFFFFF AND DUP3 PUSH20 0xFFFFFFFFFFFFFFFFFFFFFFFFFFFFFFFFFFFFFFFF AND EQ ISZERO PUSH2 0x126C JUMPI PUSH1 0x40 MLOAD PUSH32 0x8C379A000000000000000000000000000000000000000000000000000000000 DUP2 MSTORE PUSH1 0x4 ADD PUSH2 0x1263 SWAP1 PUSH2 0x1C9B JUMP JUMPDEST PUSH1 0x40 MLOAD DUP1 SWAP2 SUB SWAP1 REVERT JUMPDEST PUSH2 0x1277 DUP4 DUP4 DUP4 PUSH2 0x1744 JUMP JUMPDEST PUSH1 0x0 DUP1 PUSH1 0x0 DUP6 PUSH20 0xFFFFFFFFFFFFFFFFFFFFFFFFFFFFFFFFFFFFFFFF AND PUSH20 0xFFFFFFFFFFFFFFFFFFFFFFFFFFFFFFFFFFFFFFFF AND DUP2 MSTORE PUSH1 0x20 ADD SWAP1 DUP2 MSTORE PUSH1 0x20 ADD PUSH1 0x0 KECCAK256 SLOAD SWAP1 POP DUP2 DUP2 LT ISZERO PUSH2 0x12FD JUMPI PUSH1 0x40 MLOAD PUSH32 0x8C379A000000000000000000000000000000000000000000000000000000000 DUP2 MSTORE PUSH1 0x4 ADD PUSH2 0x12F4 SWAP1 PUSH2 0x1D3B JUMP JUMPDEST PUSH1 0x40 MLOAD DUP1 SWAP2 SUB SWAP1 REVERT JUMPDEST DUP2 DUP2 SUB PUSH1 0x0 DUP1 DUP7 PUSH20 0xFFFFFFFFFFFFFFFFFFFFFFFFFFFFFFFFFFFFFFFF AND PUSH20 0xFFFFFFFFFFFFFFFFFFFFFFFFFFFFFFFFFFFFFFFF AND DUP2 MSTORE PUSH1 0x20 ADD SWAP1 DUP2 MSTORE PUSH1 0x20 ADD PUSH1 0x0 KECCAK256 DUP2 SWAP1 SSTORE POP DUP2 PUSH1 0x0 DUP1 DUP6 PUSH20 0xFFFFFFFFFFFFFFFFFFFFFFFFFFFFFFFFFFFFFFFF AND PUSH20 0xFFFFFFFFFFFFFFFFFFFFFFFFFFFFFFFFFFFFFFFF AND DUP2 MSTORE PUSH1 0x20 ADD SWAP1 DUP2 MSTORE PUSH1 0x20 ADD PUSH1 0x0 KECCAK256 PUSH1 0x0 DUP3 DUP3 SLOAD PUSH2 0x1390 SWAP2 SWAP1 PUSH2 0x1F01 JUMP JUMPDEST SWAP3 POP POP DUP2 SWAP1 SSTORE POP DUP3 PUSH20 0xFFFFFFFFFFFFFFFFFFFFFFFFFFFFFFFFFFFFFFFF AND DUP5 PUSH20 0xFFFFFFFFFFFFFFFFFFFFFFFFFFFFFFFFFFFFFFFF AND PUSH32 0xDDF252AD1BE2C89B69C2B068FC378DAA952BA7F163C4A11628F55A4DF523B3EF DUP5 PUSH1 0x40 MLOAD PUSH2 0x13F4 SWAP2 SWAP1 PUSH2 0x1E7B JUMP JUMPDEST PUSH1 0x40 MLOAD DUP1 SWAP2 SUB SWAP1 LOG3 PUSH2 0x1407 DUP5 DUP5 DUP5 PUSH2 0x1749 JUMP JUMPDEST POP POP POP POP JUMP JUMPDEST PUSH1 0x0 PUSH20 0xFFFFFFFFFFFFFFFFFFFFFFFFFFFFFFFFFFFFFFFF AND DUP3 PUSH20 0xFFFFFFFFFFFFFFFFFFFFFFFFFFFFFFFFFFFFFFFF AND EQ ISZERO PUSH2 0x147D JUMPI PUSH1 0x40 MLOAD PUSH32 0x8C379A000000000000000000000000000000000000000000000000000000000 DUP2 MSTORE PUSH1 0x4 ADD PUSH2 0x1474 SWAP1 PUSH2 0x1E5B JUMP JUMPDEST PUSH1 0x40 MLOAD DUP1 SWAP2 SUB SWAP1 REVERT JUMPDEST PUSH2 0x1489 PUSH1 0x0 DUP4 DUP4 PUSH2 0x1744 JUMP JUMPDEST DUP1 PUSH1 0x2 PUSH1 0x0 DUP3 DUP3 SLOAD PUSH2 0x149B SWAP2 SWAP1 PUSH2 0x1F01 JUMP JUMPDEST SWAP3 POP POP DUP2 SWAP1 SSTORE POP DUP1 PUSH1 0x0 DUP1 DUP5 PUSH20 0xFFFFFFFFFFFFFFFFFFFFFFFFFFFFFFFFFFFFFFFF AND PUSH20 0xFFFFFFFFFFFFFFFFFFFFFFFFFFFFFFFFFFFFFFFF AND DUP2 MSTORE PUSH1 0x20 ADD SWAP1 DUP2 MSTORE PUSH1 0x20 ADD PUSH1 0x0 KECCAK256 PUSH1 0x0 DUP3 DUP3 SLOAD PUSH2 0x14F0 SWAP2 SWAP1 PUSH2 0x1F01 JUMP JUMPDEST SWAP3 POP POP DUP2 SWAP1 SSTORE POP DUP2 PUSH20 0xFFFFFFFFFFFFFFFFFFFFFFFFFFFFFFFFFFFFFFFF AND PUSH1 0x0 PUSH20 0xFFFFFFFFFFFFFFFFFFFFFFFFFFFFFFFFFFFFFFFF AND PUSH32 0xDDF252AD1BE2C89B69C2B068FC378DAA952BA7F163C4A11628F55A4DF523B3EF DUP4 PUSH1 0x40 MLOAD PUSH2 0x1555 SWAP2 SWAP1 PUSH2 0x1E7B JUMP JUMPDEST PUSH1 0x40 MLOAD DUP1 SWAP2 SUB SWAP1 LOG3 PUSH2 0x1569 PUSH1 0x0 DUP4 DUP4 PUSH2 0x1749 JUMP JUMPDEST POP POP JUMP JUMPDEST PUSH1 0x0 PUSH20 0xFFFFFFFFFFFFFFFFFFFFFFFFFFFFFFFFFFFFFFFF AND DUP3 PUSH20 0xFFFFFFFFFFFFFFFFFFFFFFFFFFFFFFFFFFFFFFFF AND EQ ISZERO PUSH2 0x15DD JUMPI PUSH1 0x40 MLOAD PUSH32 0x8C379A000000000000000000000000000000000000000000000000000000000 DUP2 MSTORE PUSH1 0x4 ADD PUSH2 0x15D4 SWAP1 PUSH2 0x1D7B JUMP JUMPDEST PUSH1 0x40 MLOAD DUP1 SWAP2 SUB SWAP1 REVERT JUMPDEST PUSH2 0x15E9 DUP3 PUSH1 0x0 DUP4 PUSH2 0x1744 JUMP JUMPDEST PUSH1 0x0 DUP1 PUSH1 0x0 DUP5 PUSH20 0xFFFFFFFFFFFFFFFFFFFFFFFFFFFFFFFFFFFFFFFF AND PUSH20 0xFFFFFFFFFFFFFFFFFFFFFFFFFFFFFFFFFFFFFFFF AND DUP2 MSTORE PUSH1 0x20 ADD SWAP1 DUP2 MSTORE PUSH1 0x20 ADD PUSH1 0x0 KECCAK256 SLOAD SWAP1 POP DUP2 DUP2 LT ISZERO PUSH2 0x166F JUMPI PUSH1 0x40 MLOAD PUSH32 0x8C379A000000000000000000000000000000000000000000000000000000000 DUP2 MSTORE PUSH1 0x4 ADD PUSH2 0x1666 SWAP1 PUSH2 0x1CBB JUMP JUMPDEST PUSH1 0x40 MLOAD DUP1 SWAP2 SUB SWAP1 REVERT JUMPDEST DUP2 DUP2 SUB PUSH1 0x0 DUP1 DUP6 PUSH20 0xFFFFFFFFFFFFFFFFFFFFFFFFFFFFFFFFFFFFFFFF AND PUSH20 0xFFFFFFFFFFFFFFFFFFFFFFFFFFFFFFFFFFFFFFFF AND DUP2 MSTORE PUSH1 0x20 ADD SWAP1 DUP2 MSTORE PUSH1 0x20 ADD PUSH1 0x0 KECCAK256 DUP2 SWAP1 SSTORE POP DUP2 PUSH1 0x2 PUSH1 0x0 DUP3 DUP3 SLOAD PUSH2 0x16C6 SWAP2 SWAP1 PUSH2 0x1FE2 JUMP JUMPDEST SWAP3 POP POP DUP2 SWAP1 SSTORE POP PUSH1 0x0 PUSH20 0xFFFFFFFFFFFFFFFFFFFFFFFFFFFFFFFFFFFFFFFF AND DUP4 PUSH20 0xFFFFFFFFFFFFFFFFFFFFFFFFFFFFFFFFFFFFFFFF AND PUSH32 0xDDF252AD1BE2C89B69C2B068FC378DAA952BA7F163C4A11628F55A4DF523B3EF DUP5 PUSH1 0x40 MLOAD PUSH2 0x172B SWAP2 SWAP1 PUSH2 0x1E7B JUMP JUMPDEST PUSH1 0x40 MLOAD DUP1 SWAP2 SUB SWAP1 LOG3 PUSH2 0x173F DUP4 PUSH1 0x0 DUP5 PUSH2 0x1749 JUMP JUMPDEST POP POP POP JUMP JUMPDEST POP POP POP JUMP JUMPDEST POP POP POP JUMP JUMPDEST PUSH1 0x0 DUP2 CALLDATALOAD SWAP1 POP PUSH2 0x175D DUP2 PUSH2 0x257F JUMP JUMPDEST SWAP3 SWAP2 POP POP JUMP JUMPDEST PUSH1 0x0 DUP2 MLOAD SWAP1 POP PUSH2 0x1772 DUP2 PUSH2 0x2596 JUMP JUMPDEST SWAP3 SWAP2 POP POP JUMP JUMPDEST PUSH1 0x0 DUP2 CALLDATALOAD SWAP1 POP PUSH2 0x1787 DUP2 PUSH2 0x25AD JUMP JUMPDEST SWAP3 SWAP2 POP POP JUMP JUMPDEST PUSH1 0x0 DUP2 MLOAD SWAP1 POP PUSH2 0x179C DUP2 PUSH2 0x25AD JUMP JUMPDEST SWAP3 SWAP2 POP POP JUMP JUMPDEST PUSH1 0x0 PUSH1 0x20 DUP3 DUP5 SUB SLT ISZERO PUSH2 0x17B8 JUMPI PUSH2 0x17B7 PUSH2 0x215D JUMP JUMPDEST JUMPDEST PUSH1 0x0 PUSH2 0x17C6 DUP5 DUP3 DUP6 ADD PUSH2 0x174E JUMP JUMPDEST SWAP2 POP POP SWAP3 SWAP2 POP POP JUMP JUMPDEST PUSH1 0x0 DUP1 PUSH1 0x40 DUP4 DUP6 SUB SLT ISZERO PUSH2 0x17E6 JUMPI PUSH2 0x17E5 PUSH2 0x215D JUMP JUMPDEST JUMPDEST PUSH1 0x0 PUSH2 0x17F4 DUP6 DUP3 DUP7 ADD PUSH2 0x174E JUMP JUMPDEST SWAP3 POP POP PUSH1 0x20 PUSH2 0x1805 DUP6 DUP3 DUP7 ADD PUSH2 0x174E JUMP JUMPDEST SWAP2 POP POP SWAP3 POP SWAP3 SWAP1 POP JUMP JUMPDEST PUSH1 0x0 DUP1 PUSH1 0x0 PUSH1 0x60 DUP5 DUP7 SUB SLT ISZERO PUSH2 0x1828 JUMPI PUSH2 0x1827 PUSH2 0x215D JUMP JUMPDEST JUMPDEST PUSH1 0x0 PUSH2 0x1836 DUP7 DUP3 DUP8 ADD PUSH2 0x174E JUMP JUMPDEST SWAP4 POP POP PUSH1 0x20 PUSH2 0x1847 DUP7 DUP3 DUP8 ADD PUSH2 0x174E JUMP JUMPDEST SWAP3 POP POP PUSH1 0x40 PUSH2 0x1858 DUP7 DUP3 DUP8 ADD PUSH2 0x1778 JUMP JUMPDEST SWAP2 POP POP SWAP3 POP SWAP3 POP SWAP3 JUMP JUMPDEST PUSH1 0x0 DUP1 PUSH1 0x40 DUP4 DUP6 SUB SLT ISZERO PUSH2 0x1879 JUMPI PUSH2 0x1878 PUSH2 0x215D JUMP JUMPDEST JUMPDEST PUSH1 0x0 PUSH2 0x1887 DUP6 DUP3 DUP7 ADD PUSH2 0x174E JUMP JUMPDEST SWAP3 POP POP PUSH1 0x20 PUSH2 0x1898 DUP6 DUP3 DUP7 ADD PUSH2 0x1778 JUMP JUMPDEST SWAP2 POP POP SWAP3 POP SWAP3 SWAP1 POP JUMP JUMPDEST PUSH1 0x0 PUSH1 0x20 DUP3 DUP5 SUB SLT ISZERO PUSH2 0x18B8 JUMPI PUSH2 0x18B7 PUSH2 0x215D JUMP JUMPDEST JUMPDEST PUSH1 0x0 PUSH2 0x18C6 DUP5 DUP3 DUP6 ADD PUSH2 0x1763 JUMP JUMPDEST SWAP2 POP POP SWAP3 SWAP2 POP POP JUMP JUMPDEST PUSH1 0x0 PUSH1 0x20 DUP3 DUP5 SUB SLT ISZERO PUSH2 0x18E5 JUMPI PUSH2 0x18E4 PUSH2 0x215D JUMP JUMPDEST JUMPDEST PUSH1 0x0 PUSH2 0x18F3 DUP5 DUP3 DUP6 ADD PUSH2 0x1778 JUMP JUMPDEST SWAP2 POP POP SWAP3 SWAP2 POP POP JUMP JUMPDEST PUSH1 0x0 PUSH1 0x20 DUP3 DUP5 SUB SLT ISZERO PUSH2 0x1912 JUMPI PUSH2 0x1911 PUSH2 0x215D JUMP JUMPDEST JUMPDEST PUSH1 0x0 PUSH2 0x1920 DUP5 DUP3 DUP6 ADD PUSH2 0x178D JUMP JUMPDEST SWAP2 POP POP SWAP3 SWAP2 POP POP JUMP JUMPDEST PUSH2 0x1932 DUP2 PUSH2 0x2016 JUMP JUMPDEST DUP3 MSTORE POP POP JUMP JUMPDEST PUSH2 0x1941 DUP2 PUSH2 0x2028 JUMP JUMPDEST DUP3 MSTORE POP POP JUMP JUMPDEST PUSH1 0x0 PUSH2 0x1952 DUP3 PUSH2 0x1EDA JUMP JUMPDEST PUSH2 0x195C DUP2 DUP6 PUSH2 0x1EF0 JUMP JUMPDEST SWAP4 POP PUSH2 0x196C DUP2 DUP6 PUSH1 0x20 DUP7 ADD PUSH2 0x206B JUMP JUMPDEST PUSH2 0x1975 DUP2 PUSH2 0x2162 JUMP JUMPDEST DUP5 ADD SWAP2 POP POP SWAP3 SWAP2 POP POP JUMP JUMPDEST PUSH1 0x0 PUSH2 0x198D PUSH1 0x23 DUP4 PUSH2 0x1EF0 JUMP JUMPDEST SWAP2 POP PUSH2 0x1998 DUP3 PUSH2 0x2173 JUMP JUMPDEST PUSH1 0x40 DUP3 ADD SWAP1 POP SWAP2 SWAP1 POP JUMP JUMPDEST PUSH1 0x0 PUSH2 0x19B0 PUSH1 0x22 DUP4 PUSH2 0x1EF0 JUMP JUMPDEST SWAP2 POP PUSH2 0x19BB DUP3 PUSH2 0x21C2 JUMP JUMPDEST PUSH1 0x40 DUP3 ADD SWAP1 POP SWAP2 SWAP1 POP JUMP JUMPDEST PUSH1 0x0 PUSH2 0x19D3 PUSH1 0x22 DUP4 PUSH2 0x1EF0 JUMP JUMPDEST SWAP2 POP PUSH2 0x19DE DUP3 PUSH2 0x2211 JUMP JUMPDEST PUSH1 0x40 DUP3 ADD SWAP1 POP SWAP2 SWAP1 POP JUMP JUMPDEST PUSH1 0x0 PUSH2 0x19F6 PUSH1 0x29 DUP4 PUSH2 0x1EF0 JUMP JUMPDEST SWAP2 POP PUSH2 0x1A01 DUP3 PUSH2 0x2260 JUMP JUMPDEST PUSH1 0x40 DUP3 ADD SWAP1 POP SWAP2 SWAP1 POP JUMP JUMPDEST PUSH1 0x0 PUSH2 0x1A19 PUSH1 0x1D DUP4 PUSH2 0x1EF0 JUMP JUMPDEST SWAP2 POP PUSH2 0x1A24 DUP3 PUSH2 0x22AF JUMP JUMPDEST PUSH1 0x20 DUP3 ADD SWAP1 POP SWAP2 SWAP1 POP JUMP JUMPDEST PUSH1 0x0 PUSH2 0x1A3C PUSH1 0x26 DUP4 PUSH2 0x1EF0 JUMP JUMPDEST SWAP2 POP PUSH2 0x1A47 DUP3 PUSH2 0x22D8 JUMP JUMPDEST PUSH1 0x40 DUP3 ADD SWAP1 POP SWAP2 SWAP1 POP JUMP JUMPDEST PUSH1 0x0 PUSH2 0x1A5F PUSH1 0x37 DUP4 PUSH2 0x1EF0 JUMP JUMPDEST SWAP2 POP PUSH2 0x1A6A DUP3 PUSH2 0x2327 JUMP JUMPDEST PUSH1 0x40 DUP3 ADD SWAP1 POP SWAP2 SWAP1 POP JUMP JUMPDEST PUSH1 0x0 PUSH2 0x1A82 PUSH1 0x21 DUP4 PUSH2 0x1EF0 JUMP JUMPDEST SWAP2 POP PUSH2 0x1A8D DUP3 PUSH2 0x2376 JUMP JUMPDEST PUSH1 0x40 DUP3 ADD SWAP1 POP SWAP2 SWAP1 POP JUMP JUMPDEST PUSH1 0x0 PUSH2 0x1AA5 PUSH1 0x19 DUP4 PUSH2 0x1EF0 JUMP JUMPDEST SWAP2 POP PUSH2 0x1AB0 DUP3 PUSH2 0x23C5 JUMP JUMPDEST PUSH1 0x20 DUP3 ADD SWAP1 POP SWAP2 SWAP1 POP JUMP JUMPDEST PUSH1 0x0 PUSH2 0x1AC8 PUSH1 0x25 DUP4 PUSH2 0x1EF0 JUMP JUMPDEST SWAP2 POP PUSH2 0x1AD3 DUP3 PUSH2 0x23EE JUMP JUMPDEST PUSH1 0x40 DUP3 ADD SWAP1 POP SWAP2 SWAP1 POP JUMP JUMPDEST PUSH1 0x0 PUSH2 0x1AEB PUSH1 0x25 DUP4 PUSH2 0x1EF0 JUMP JUMPDEST SWAP2 POP PUSH2 0x1AF6 DUP3 PUSH2 0x243D JUMP JUMPDEST PUSH1 0x40 DUP3 ADD SWAP1 POP SWAP2 SWAP1 POP JUMP JUMPDEST PUSH1 0x0 PUSH2 0x1B0E PUSH1 0x0 DUP4 PUSH2 0x1EE5 JUMP JUMPDEST SWAP2 POP PUSH2 0x1B19 DUP3 PUSH2 0x248C JUMP JUMPDEST PUSH1 0x0 DUP3 ADD SWAP1 POP SWAP2 SWAP1 POP JUMP JUMPDEST PUSH1 0x0 PUSH2 0x1B31 PUSH1 0x15 DUP4 PUSH2 0x1EF0 JUMP JUMPDEST SWAP2 POP PUSH2 0x1B3C DUP3 PUSH2 0x248F JUMP JUMPDEST PUSH1 0x20 DUP3 ADD SWAP1 POP SWAP2 SWAP1 POP JUMP JUMPDEST PUSH1 0x0 PUSH2 0x1B54 PUSH1 0x24 DUP4 PUSH2 0x1EF0 JUMP JUMPDEST SWAP2 POP PUSH2 0x1B5F DUP3 PUSH2 0x24B8 JUMP JUMPDEST PUSH1 0x40 DUP3 ADD SWAP1 POP SWAP2 SWAP1 POP JUMP JUMPDEST PUSH1 0x0 PUSH2 0x1B77 PUSH1 0x25 DUP4 PUSH2 0x1EF0 JUMP JUMPDEST SWAP2 POP PUSH2 0x1B82 DUP3 PUSH2 0x2507 JUMP JUMPDEST PUSH1 0x40 DUP3 ADD SWAP1 POP SWAP2 SWAP1 POP JUMP JUMPDEST PUSH1 0x0 PUSH2 0x1B9A PUSH1 0x1F DUP4 PUSH2 0x1EF0 JUMP JUMPDEST SWAP2 POP PUSH2 0x1BA5 DUP3 PUSH2 0x2556 JUMP JUMPDEST PUSH1 0x20 DUP3 ADD SWAP1 POP SWAP2 SWAP1 POP JUMP JUMPDEST PUSH2 0x1BB9 DUP2 PUSH2 0x2054 JUMP JUMPDEST DUP3 MSTORE POP POP JUMP JUMPDEST PUSH2 0x1BC8 DUP2 PUSH2 0x205E JUMP JUMPDEST DUP3 MSTORE POP POP JUMP JUMPDEST PUSH1 0x0 PUSH2 0x1BD9 DUP3 PUSH2 0x1B01 JUMP JUMPDEST SWAP2 POP DUP2 SWAP1 POP SWAP2 SWAP1 POP JUMP JUMPDEST PUSH1 0x0 PUSH1 0x20 DUP3 ADD SWAP1 POP PUSH2 0x1BF8 PUSH1 0x0 DUP4 ADD DUP5 PUSH2 0x1929 JUMP JUMPDEST SWAP3 SWAP2 POP POP JUMP JUMPDEST PUSH1 0x0 PUSH1 0x60 DUP3 ADD SWAP1 POP PUSH2 0x1C13 PUSH1 0x0 DUP4 ADD DUP7 PUSH2 0x1929 JUMP JUMPDEST PUSH2 0x1C20 PUSH1 0x20 DUP4 ADD DUP6 PUSH2 0x1929 JUMP JUMPDEST PUSH2 0x1C2D PUSH1 0x40 DUP4 ADD DUP5 PUSH2 0x1BB0 JUMP JUMPDEST SWAP5 SWAP4 POP POP POP POP JUMP JUMPDEST PUSH1 0x0 PUSH1 0x40 DUP3 ADD SWAP1 POP PUSH2 0x1C4A PUSH1 0x0 DUP4 ADD DUP6 PUSH2 0x1929 JUMP JUMPDEST PUSH2 0x1C57 PUSH1 0x20 DUP4 ADD DUP5 PUSH2 0x1BB0 JUMP JUMPDEST SWAP4 SWAP3 POP POP POP JUMP JUMPDEST PUSH1 0x0 PUSH1 0x20 DUP3 ADD SWAP1 POP PUSH2 0x1C73 PUSH1 0x0 DUP4 ADD DUP5 PUSH2 0x1938 JUMP JUMPDEST SWAP3 SWAP2 POP POP JUMP JUMPDEST PUSH1 0x0 PUSH1 0x20 DUP3 ADD SWAP1 POP DUP2 DUP2 SUB PUSH1 0x0 DUP4 ADD MSTORE PUSH2 0x1C93 DUP2 DUP5 PUSH2 0x1947 JUMP JUMPDEST SWAP1 POP SWAP3 SWAP2 POP POP JUMP JUMPDEST PUSH1 0x0 PUSH1 0x20 DUP3 ADD SWAP1 POP DUP2 DUP2 SUB PUSH1 0x0 DUP4 ADD MSTORE PUSH2 0x1CB4 DUP2 PUSH2 0x1980 JUMP JUMPDEST SWAP1 POP SWAP2 SWAP1 POP JUMP JUMPDEST PUSH1 0x0 PUSH1 0x20 DUP3 ADD SWAP1 POP DUP2 DUP2 SUB PUSH1 0x0 DUP4 ADD MSTORE PUSH2 0x1CD4 DUP2 PUSH2 0x19A3 JUMP JUMPDEST SWAP1 POP SWAP2 SWAP1 POP JUMP JUMPDEST PUSH1 0x0 PUSH1 0x20 DUP3 ADD SWAP1 POP DUP2 DUP2 SUB PUSH1 0x0 DUP4 ADD MSTORE PUSH2 0x1CF4 DUP2 PUSH2 0x19C6 JUMP JUMPDEST SWAP1 POP SWAP2 SWAP1 POP JUMP JUMPDEST PUSH1 0x0 PUSH1 0x20 DUP3 ADD SWAP1 POP DUP2 DUP2 SUB PUSH1 0x0 DUP4 ADD MSTORE PUSH2 0x1D14 DUP2 PUSH2 0x19E9 JUMP JUMPDEST SWAP1 POP SWAP2 SWAP1 POP JUMP JUMPDEST PUSH1 0x0 PUSH1 0x20 DUP3 ADD SWAP1 POP DUP2 DUP2 SUB PUSH1 0x0 DUP4 ADD MSTORE PUSH2 0x1D34 DUP2 PUSH2 0x1A0C JUMP JUMPDEST SWAP1 POP SWAP2 SWAP1 POP JUMP JUMPDEST PUSH1 0x0 PUSH1 0x20 DUP3 ADD SWAP1 POP DUP2 DUP2 SUB PUSH1 0x0 DUP4 ADD MSTORE PUSH2 0x1D54 DUP2 PUSH2 0x1A2F JUMP JUMPDEST SWAP1 POP SWAP2 SWAP1 POP JUMP JUMPDEST PUSH1 0x0 PUSH1 0x20 DUP3 ADD SWAP1 POP DUP2 DUP2 SUB PUSH1 0x0 DUP4 ADD MSTORE PUSH2 0x1D74 DUP2 PUSH2 0x1A52 JUMP JUMPDEST SWAP1 POP SWAP2 SWAP1 POP JUMP JUMPDEST PUSH1 0x0 PUSH1 0x20 DUP3 ADD SWAP1 POP DUP2 DUP2 SUB PUSH1 0x0 DUP4 ADD MSTORE PUSH2 0x1D94 DUP2 PUSH2 0x1A75 JUMP JUMPDEST SWAP1 POP SWAP2 SWAP1 POP JUMP JUMPDEST PUSH1 0x0 PUSH1 0x20 DUP3 ADD SWAP1 POP DUP2 DUP2 SUB PUSH1 0x0 DUP4 ADD MSTORE PUSH2 0x1DB4 DUP2 PUSH2 0x1A98 JUMP JUMPDEST SWAP1 POP SWAP2 SWAP1 POP JUMP JUMPDEST PUSH1 0x0 PUSH1 0x20 DUP3 ADD SWAP1 POP DUP2 DUP2 SUB PUSH1 0x0 DUP4 ADD MSTORE PUSH2 0x1DD4 DUP2 PUSH2 0x1ABB JUMP JUMPDEST SWAP1 POP SWAP2 SWAP1 POP JUMP JUMPDEST PUSH1 0x0 PUSH1 0x20 DUP3 ADD SWAP1 POP DUP2 DUP2 SUB PUSH1 0x0 DUP4 ADD MSTORE PUSH2 0x1DF4 DUP2 PUSH2 0x1ADE JUMP JUMPDEST SWAP1 POP SWAP2 SWAP1 POP JUMP JUMPDEST PUSH1 0x0 PUSH1 0x20 DUP3 ADD SWAP1 POP DUP2 DUP2 SUB PUSH1 0x0 DUP4 ADD MSTORE PUSH2 0x1E14 DUP2 PUSH2 0x1B24 JUMP JUMPDEST SWAP1 POP SWAP2 SWAP1 POP JUMP JUMPDEST PUSH1 0x0 PUSH1 0x20 DUP3 ADD SWAP1 POP DUP2 DUP2 SUB PUSH1 0x0 DUP4 ADD MSTORE PUSH2 0x1E34 DUP2 PUSH2 0x1B47 JUMP JUMPDEST SWAP1 POP SWAP2 SWAP1 POP JUMP JUMPDEST PUSH1 0x0 PUSH1 0x20 DUP3 ADD SWAP1 POP DUP2 DUP2 SUB PUSH1 0x0 DUP4 ADD MSTORE PUSH2 0x1E54 DUP2 PUSH2 0x1B6A JUMP JUMPDEST SWAP1 POP SWAP2 SWAP1 POP JUMP JUMPDEST PUSH1 0x0 PUSH1 0x20 DUP3 ADD SWAP1 POP DUP2 DUP2 SUB PUSH1 0x0 DUP4 ADD MSTORE PUSH2 0x1E74 DUP2 PUSH2 0x1B8D JUMP JUMPDEST SWAP1 POP SWAP2 SWAP1 POP JUMP JUMPDEST PUSH1 0x0 PUSH1 0x20 DUP3 ADD SWAP1 POP PUSH2 0x1E90 PUSH1 0x0 DUP4 ADD DUP5 PUSH2 0x1BB0 JUMP JUMPDEST SWAP3 SWAP2 POP POP JUMP JUMPDEST PUSH1 0x0 PUSH1 0x40 DUP3 ADD SWAP1 POP PUSH2 0x1EAB PUSH1 0x0 DUP4 ADD DUP6 PUSH2 0x1BB0 JUMP JUMPDEST PUSH2 0x1EB8 PUSH1 0x20 DUP4 ADD DUP5 PUSH2 0x1BB0 JUMP JUMPDEST SWAP4 SWAP3 POP POP POP JUMP JUMPDEST PUSH1 0x0 PUSH1 0x20 DUP3 ADD SWAP1 POP PUSH2 0x1ED4 PUSH1 0x0 DUP4 ADD DUP5 PUSH2 0x1BBF JUMP JUMPDEST SWAP3 SWAP2 POP POP JUMP JUMPDEST PUSH1 0x0 DUP2 MLOAD SWAP1 POP SWAP2 SWAP1 POP JUMP JUMPDEST PUSH1 0x0 DUP2 SWAP1 POP SWAP3 SWAP2 POP POP JUMP JUMPDEST PUSH1 0x0 DUP3 DUP3 MSTORE PUSH1 0x20 DUP3 ADD SWAP1 POP SWAP3 SWAP2 POP POP JUMP JUMPDEST PUSH1 0x0 PUSH2 0x1F0C DUP3 PUSH2 0x2054 JUMP JUMPDEST SWAP2 POP PUSH2 0x1F17 DUP4 PUSH2 0x2054 JUMP JUMPDEST SWAP3 POP DUP3 PUSH32 0xFFFFFFFFFFFFFFFFFFFFFFFFFFFFFFFFFFFFFFFFFFFFFFFFFFFFFFFFFFFFFFFF SUB DUP3 GT ISZERO PUSH2 0x1F4C JUMPI PUSH2 0x1F4B PUSH2 0x20D0 JUMP JUMPDEST JUMPDEST DUP3 DUP3 ADD SWAP1 POP SWAP3 SWAP2 POP POP JUMP JUMPDEST PUSH1 0x0 PUSH2 0x1F62 DUP3 PUSH2 0x2054 JUMP JUMPDEST SWAP2 POP PUSH2 0x1F6D DUP4 PUSH2 0x2054 JUMP JUMPDEST SWAP3 POP DUP3 PUSH2 0x1F7D JUMPI PUSH2 0x1F7C PUSH2 0x20FF JUMP JUMPDEST JUMPDEST DUP3 DUP3 DIV SWAP1 POP SWAP3 SWAP2 POP POP JUMP JUMPDEST PUSH1 0x0 PUSH2 0x1F93 DUP3 PUSH2 0x2054 JUMP JUMPDEST SWAP2 POP PUSH2 0x1F9E DUP4 PUSH2 0x2054 JUMP JUMPDEST SWAP3 POP DUP2 PUSH32 0xFFFFFFFFFFFFFFFFFFFFFFFFFFFFFFFFFFFFFFFFFFFFFFFFFFFFFFFFFFFFFFFF DIV DUP4 GT DUP3 ISZERO ISZERO AND ISZERO PUSH2 0x1FD7 JUMPI PUSH2 0x1FD6 PUSH2 0x20D0 JUMP JUMPDEST JUMPDEST DUP3 DUP3 MUL SWAP1 POP SWAP3 SWAP2 POP POP JUMP JUMPDEST PUSH1 0x0 PUSH2 0x1FED DUP3 PUSH2 0x2054 JUMP JUMPDEST SWAP2 POP PUSH2 0x1FF8 DUP4 PUSH2 0x2054 JUMP JUMPDEST SWAP3 POP DUP3 DUP3 LT ISZERO PUSH2 0x200B JUMPI PUSH2 0x200A PUSH2 0x20D0 JUMP JUMPDEST JUMPDEST DUP3 DUP3 SUB SWAP1 POP SWAP3 SWAP2 POP POP JUMP JUMPDEST PUSH1 0x0 PUSH2 0x2021 DUP3 PUSH2 0x2034 JUMP JUMPDEST SWAP1 POP SWAP2 SWAP1 POP JUMP JUMPDEST PUSH1 0x0 DUP2 ISZERO ISZERO SWAP1 POP SWAP2 SWAP1 POP JUMP JUMPDEST PUSH1 0x0 PUSH20 0xFFFFFFFFFFFFFFFFFFFFFFFFFFFFFFFFFFFFFFFF DUP3 AND SWAP1 POP SWAP2 SWAP1 POP JUMP JUMPDEST PUSH1 0x0 DUP2 SWAP1 POP SWAP2 SWAP1 POP JUMP JUMPDEST PUSH1 0x0 PUSH1 0xFF DUP3 AND SWAP1 POP SWAP2 SWAP1 POP JUMP JUMPDEST PUSH1 0x0 JUMPDEST DUP4 DUP2 LT ISZERO PUSH2 0x2089 JUMPI DUP1 DUP3 ADD MLOAD DUP2 DUP5 ADD MSTORE PUSH1 0x20 DUP2 ADD SWAP1 POP PUSH2 0x206E JUMP JUMPDEST DUP4 DUP2 GT ISZERO PUSH2 0x2098 JUMPI PUSH1 0x0 DUP5 DUP5 ADD MSTORE JUMPDEST POP POP POP POP JUMP JUMPDEST PUSH1 0x0 PUSH1 0x2 DUP3 DIV SWAP1 POP PUSH1 0x1 DUP3 AND DUP1 PUSH2 0x20B6 JUMPI PUSH1 0x7F DUP3 AND SWAP2 POP JUMPDEST PUSH1 0x20 DUP3 LT DUP2 EQ ISZERO PUSH2 0x20CA JUMPI PUSH2 0x20C9 PUSH2 0x212E JUMP JUMPDEST JUMPDEST POP SWAP2 SWAP1 POP JUMP JUMPDEST PUSH32 0x4E487B7100000000000000000000000000000000000000000000000000000000 PUSH1 0x0 MSTORE PUSH1 0x11 PUSH1 0x4 MSTORE PUSH1 0x24 PUSH1 0x0 REVERT JUMPDEST PUSH32 0x4E487B7100000000000000000000000000000000000000000000000000000000 PUSH1 0x0 MSTORE PUSH1 0x12 PUSH1 0x4 MSTORE PUSH1 0x24 PUSH1 0x0 REVERT JUMPDEST PUSH32 0x4E487B7100000000000000000000000000000000000000000000000000000000 PUSH1 0x0 MSTORE PUSH1 0x22 PUSH1 0x4 MSTORE PUSH1 0x24 PUSH1 0x0 REVERT JUMPDEST PUSH1 0x0 DUP1 REVERT JUMPDEST PUSH1 0x0 PUSH1 0x1F NOT PUSH1 0x1F DUP4 ADD AND SWAP1 POP SWAP2 SWAP1 POP JUMP JUMPDEST PUSH32 0x45524332303A207472616E7366657220746F20746865207A65726F2061646472 PUSH1 0x0 DUP3 ADD MSTORE PUSH32 0x6573730000000000000000000000000000000000000000000000000000000000 PUSH1 0x20 DUP3 ADD MSTORE POP JUMP JUMPDEST PUSH32 0x45524332303A206275726E20616D6F756E7420657863656564732062616C616E PUSH1 0x0 DUP3 ADD MSTORE PUSH32 0x6365000000000000000000000000000000000000000000000000000000000000 PUSH1 0x20 DUP3 ADD MSTORE POP JUMP JUMPDEST PUSH32 0x45524332303A20617070726F766520746F20746865207A65726F206164647265 PUSH1 0x0 DUP3 ADD MSTORE PUSH32 0x7373000000000000000000000000000000000000000000000000000000000000 PUSH1 0x20 DUP3 ADD MSTORE POP JUMP JUMPDEST PUSH32 0x496E73756666696369656E7420696E70757420616D6F756E74206F6620455243 PUSH1 0x0 DUP3 ADD MSTORE PUSH32 0x323020546F6B656E730000000000000000000000000000000000000000000000 PUSH1 0x20 DUP3 ADD MSTORE POP JUMP JUMPDEST PUSH32 0x45524332303A20696E73756666696369656E7420616C6C6F77616E6365000000 PUSH1 0x0 DUP3 ADD MSTORE POP JUMP JUMPDEST PUSH32 0x45524332303A207472616E7366657220616D6F756E7420657863656564732062 PUSH1 0x0 DUP3 ADD MSTORE PUSH32 0x616C616E63650000000000000000000000000000000000000000000000000000 PUSH1 0x20 DUP3 ADD MSTORE POP JUMP JUMPDEST PUSH32 0x506C6561736520696E70757420612076616C696420616D6F756E74206F66204C PUSH1 0x0 DUP3 ADD MSTORE PUSH32 0x5020546F6B656E7320746F206275726E2F72656465656D000000000000000000 PUSH1 0x20 DUP3 ADD MSTORE POP JUMP JUMPDEST PUSH32 0x45524332303A206275726E2066726F6D20746865207A65726F20616464726573 PUSH1 0x0 DUP3 ADD MSTORE PUSH32 0x7300000000000000000000000000000000000000000000000000000000000000 PUSH1 0x20 DUP3 ADD MSTORE POP JUMP JUMPDEST PUSH32 0x45544820616D6F756E742063616E6E6F74206265207A65726F00000000000000 PUSH1 0x0 DUP3 ADD MSTORE POP JUMP JUMPDEST PUSH32 0x45524332303A207472616E736665722066726F6D20746865207A65726F206164 PUSH1 0x0 DUP3 ADD MSTORE PUSH32 0x6472657373000000000000000000000000000000000000000000000000000000 PUSH1 0x20 DUP3 ADD MSTORE POP JUMP JUMPDEST PUSH32 0x5472616E73616374696F6E206F662045746865722077617320756E7375636365 PUSH1 0x0 DUP3 ADD MSTORE PUSH32 0x737366756C000000000000000000000000000000000000000000000000000000 PUSH1 0x20 DUP3 ADD MSTORE POP JUMP JUMPDEST POP JUMP JUMPDEST PUSH32 0x546865726520617265206E6F2072657365727665730000000000000000000000 PUSH1 0x0 DUP3 ADD MSTORE POP JUMP JUMPDEST PUSH32 0x45524332303A20617070726F76652066726F6D20746865207A65726F20616464 PUSH1 0x0 DUP3 ADD MSTORE PUSH32 0x7265737300000000000000000000000000000000000000000000000000000000 PUSH1 0x20 DUP3 ADD MSTORE POP JUMP JUMPDEST PUSH32 0x45524332303A2064656372656173656420616C6C6F77616E63652062656C6F77 PUSH1 0x0 DUP3 ADD MSTORE PUSH32 0x207A65726F000000000000000000000000000000000000000000000000000000 PUSH1 0x20 DUP3 ADD MSTORE POP JUMP JUMPDEST PUSH32 0x45524332303A206D696E7420746F20746865207A65726F206164647265737300 PUSH1 0x0 DUP3 ADD MSTORE POP JUMP JUMPDEST PUSH2 0x2588 DUP2 PUSH2 0x2016 JUMP JUMPDEST DUP2 EQ PUSH2 0x2593 JUMPI PUSH1 0x0 DUP1 REVERT JUMPDEST POP JUMP JUMPDEST PUSH2 0x259F DUP2 PUSH2 0x2028 JUMP JUMPDEST DUP2 EQ PUSH2 0x25AA JUMPI PUSH1 0x0 DUP1 REVERT JUMPDEST POP JUMP JUMPDEST PUSH2 0x25B6 DUP2 PUSH2 0x2054 JUMP JUMPDEST DUP2 EQ PUSH2 0x25C1 JUMPI PUSH1 0x0 DUP1 REVERT JUMPDEST POP JUMP INVALID LOG2 PUSH5 0x6970667358 0x22 SLT KECCAK256 ADD SWAP4 0x2B 0x22 0xDD AND 0xA6 0x2A SWAP4 0x27 0x2F 0xDF DUP8 PC PUSH6 0x923D33562A1E 0x4F 0xAE EXTCODECOPY 0xFB PUSH24 0xB19BFFCB2D6A64736F6C6343000807003300000000000000 "
				},
				"gasEstimates": {
					"creation": {
						"codeDepositCost": "1944400",
						"executionCost": "infinite",
						"totalCost": "infinite"
					},
					"external": {
						"addLiquidity(uint256)": "infinite",
						"allowance(address,address)": "infinite",
						"approve(address,uint256)": "infinite",
						"balanceOf(address)": "2886",
						"decimals()": "432",
						"decreaseAllowance(address,uint256)": "infinite",
						"factoryAddress()": "2603",
						"getEthAmountForSwap(uint256)": "786",
						"getReserves()": "infinite",
						"getTokenAmountForSwap(uint256)": "infinite",
						"increaseAllowance(address,uint256)": "infinite",
						"name()": "infinite",
						"removeLiquidity(uint256)": "infinite",
						"symbol()": "infinite",
						"tokenAddress()": "2558",
						"totalSupply()": "2460",
						"transfer(address,uint256)": "infinite",
						"transferFrom(address,address,uint256)": "infinite"
					},
					"internal": {
						"ethForTokenSwap(uint256,address)": "infinite",
						"getOutputAmount(uint256,uint256,uint256)": "infinite"
					}
				},
				"methodIdentifiers": {
					"addLiquidity(uint256)": "51c6590a",
					"allowance(address,address)": "dd62ed3e",
					"approve(address,uint256)": "095ea7b3",
					"balanceOf(address)": "70a08231",
					"decimals()": "313ce567",
					"decreaseAllowance(address,uint256)": "a457c2d7",
					"factoryAddress()": "966dae0e",
					"getEthAmountForSwap(uint256)": "2c0c60a4",
					"getReserves()": "0902f1ac",
					"getTokenAmountForSwap(uint256)": "0f8070b4",
					"increaseAllowance(address,uint256)": "39509351",
					"name()": "06fdde03",
					"removeLiquidity(uint256)": "9c8f9f23",
					"symbol()": "95d89b41",
					"tokenAddress()": "9d76ea58",
					"totalSupply()": "18160ddd",
					"transfer(address,uint256)": "a9059cbb",
					"transferFrom(address,address,uint256)": "23b872dd"
				}
			},
			"storageLayout": {
				"storage": [
					{
						"astId": 15,
						"contract": "contracts/Pair.sol:Pair",
						"label": "_balances",
						"offset": 0,
						"slot": "0",
						"type": "t_mapping(t_address,t_uint256)"
					},
					{
						"astId": 21,
						"contract": "contracts/Pair.sol:Pair",
						"label": "_allowances",
						"offset": 0,
						"slot": "1",
						"type": "t_mapping(t_address,t_mapping(t_address,t_uint256))"
					},
					{
						"astId": 23,
						"contract": "contracts/Pair.sol:Pair",
						"label": "_totalSupply",
						"offset": 0,
						"slot": "2",
						"type": "t_uint256"
					},
					{
						"astId": 25,
						"contract": "contracts/Pair.sol:Pair",
						"label": "_name",
						"offset": 0,
						"slot": "3",
						"type": "t_string_storage"
					},
					{
						"astId": 27,
						"contract": "contracts/Pair.sol:Pair",
						"label": "_symbol",
						"offset": 0,
						"slot": "4",
						"type": "t_string_storage"
					},
					{
						"astId": 739,
						"contract": "contracts/Pair.sol:Pair",
						"label": "tokenAddress",
						"offset": 0,
						"slot": "5",
						"type": "t_address"
					},
					{
						"astId": 741,
						"contract": "contracts/Pair.sol:Pair",
						"label": "factoryAddress",
						"offset": 0,
						"slot": "6",
						"type": "t_address"
					}
				],
				"types": {
					"t_address": {
						"encoding": "inplace",
						"label": "address",
						"numberOfBytes": "20"
					},
					"t_mapping(t_address,t_mapping(t_address,t_uint256))": {
						"encoding": "mapping",
						"key": "t_address",
						"label": "mapping(address => mapping(address => uint256))",
						"numberOfBytes": "32",
						"value": "t_mapping(t_address,t_uint256)"
					},
					"t_mapping(t_address,t_uint256)": {
						"encoding": "mapping",
						"key": "t_address",
						"label": "mapping(address => uint256)",
						"numberOfBytes": "32",
						"value": "t_uint256"
					},
					"t_string_storage": {
						"encoding": "bytes",
						"label": "string",
						"numberOfBytes": "32"
					},
					"t_uint256": {
						"encoding": "inplace",
						"label": "uint256",
						"numberOfBytes": "32"
					}
				}
			},
			"userdoc": {
				"kind": "user",
				"methods": {},
				"version": 1
			}
		}
	}
}