{
	"contracts/EelSwap.sol": {
		"EelSwap": {
			"abi": [
				{
					"inputs": [
						{
							"internalType": "address",
							"name": "",
							"type": "address"
						},
						{
							"internalType": "address",
							"name": "",
							"type": "address"
						}
					],
					"name": "allowance",
					"outputs": [
						{
							"internalType": "uint256",
							"name": "",
							"type": "uint256"
						}
					],
					"stateMutability": "view",
					"type": "function"
				},
				{
					"inputs": [
						{
							"internalType": "address",
							"name": "",
							"type": "address"
						}
					],
					"name": "balanceOf",
					"outputs": [
						{
							"internalType": "uint256",
							"name": "",
							"type": "uint256"
						}
					],
					"stateMutability": "view",
					"type": "function"
				},
				{
					"inputs": [],
					"name": "decimals",
					"outputs": [
						{
							"internalType": "uint8",
							"name": "",
							"type": "uint8"
						}
					],
					"stateMutability": "view",
					"type": "function"
				},
				{
					"inputs": [],
					"name": "name",
					"outputs": [
						{
							"internalType": "string",
							"name": "",
							"type": "string"
						}
					],
					"stateMutability": "view",
					"type": "function"
				},
				{
					"inputs": [],
					"name": "symbol",
					"outputs": [
						{
							"internalType": "string",
							"name": "",
							"type": "string"
						}
					],
					"stateMutability": "view",
					"type": "function"
				},
				{
					"inputs": [],
					"name": "totalSupply",
					"outputs": [
						{
							"internalType": "uint256",
							"name": "",
							"type": "uint256"
						}
					],
					"stateMutability": "view",
					"type": "function"
				}
			],
			"devdoc": {
				"kind": "dev",
				"methods": {},
				"version": 1
			},
			"evm": {
				"assembly": "    /* \"contracts/EelSwap.sol\":90:430  contract EelSwap {\r... */\n  mstore(0x40, 0x80)\n  callvalue\n  dup1\n  iszero\n  tag_1\n  jumpi\n  0x00\n  dup1\n  revert\ntag_1:\n  pop\n  dataSize(sub_0)\n  dup1\n  dataOffset(sub_0)\n  0x00\n  codecopy\n  0x00\n  return\nstop\n\nsub_0: assembly {\n        /* \"contracts/EelSwap.sol\":90:430  contract EelSwap {\r... */\n      mstore(0x40, 0x80)\n      callvalue\n      dup1\n      iszero\n      tag_1\n      jumpi\n      0x00\n      dup1\n      revert\n    tag_1:\n      pop\n      jumpi(tag_2, lt(calldatasize, 0x04))\n      shr(0xe0, calldataload(0x00))\n      dup1\n      0x06fdde03\n      eq\n      tag_3\n      jumpi\n      dup1\n      0x18160ddd\n      eq\n      tag_4\n      jumpi\n      dup1\n      0x313ce567\n      eq\n      tag_5\n      jumpi\n      dup1\n      0x70a08231\n      eq\n      tag_6\n      jumpi\n      dup1\n      0x95d89b41\n      eq\n      tag_7\n      jumpi\n      dup1\n      0xdd62ed3e\n      eq\n      tag_8\n      jumpi\n    tag_2:\n      0x00\n      dup1\n      revert\n        /* \"contracts/EelSwap.sol\":146:188  string public constant name = 'Eelswap V2' */\n    tag_3:\n      tag_9\n      tag_10\n      jump\t// in\n    tag_9:\n      mload(0x40)\n      tag_11\n      swap2\n      swap1\n      tag_12\n      jump\t// in\n    tag_11:\n      mload(0x40)\n      dup1\n      swap2\n      sub\n      swap1\n      return\n        /* \"contracts/EelSwap.sol\":284:307  uint public totalSupply */\n    tag_4:\n      tag_13\n      tag_14\n      jump\t// in\n    tag_13:\n      mload(0x40)\n      tag_15\n      swap2\n      swap1\n      tag_16\n      jump\t// in\n    tag_15:\n      mload(0x40)\n      dup1\n      swap2\n      sub\n      swap1\n      return\n        /* \"contracts/EelSwap.sol\":242:277  uint8 public constant decimals = 18 */\n    tag_5:\n      tag_17\n      tag_18\n      jump\t// in\n    tag_17:\n      mload(0x40)\n      tag_19\n      swap2\n      swap1\n      tag_20\n      jump\t// in\n    tag_19:\n      mload(0x40)\n      dup1\n      swap2\n      sub\n      swap1\n      return\n        /* \"contracts/EelSwap.sol\":316:357  mapping(address => uint) public balanceOf */\n    tag_6:\n      tag_21\n      0x04\n      dup1\n      calldatasize\n      sub\n      dup2\n      add\n      swap1\n      tag_22\n      swap2\n      swap1\n      tag_23\n      jump\t// in\n    tag_22:\n      tag_24\n      jump\t// in\n    tag_21:\n      mload(0x40)\n      tag_25\n      swap2\n      swap1\n      tag_16\n      jump\t// in\n    tag_25:\n      mload(0x40)\n      dup1\n      swap2\n      sub\n      swap1\n      return\n        /* \"contracts/EelSwap.sol\":195:235  string public constant symbol = 'EEL-V2' */\n    tag_7:\n      tag_26\n      tag_27\n      jump\t// in\n    tag_26:\n      mload(0x40)\n      tag_28\n      swap2\n      swap1\n      tag_12\n      jump\t// in\n    tag_28:\n      mload(0x40)\n      dup1\n      swap2\n      sub\n      swap1\n      return\n        /* \"contracts/EelSwap.sol\":364:424  mapping(address => mapping(address => uint))public allowance */\n    tag_8:\n      tag_29\n      0x04\n      dup1\n      calldatasize\n      sub\n      dup2\n      add\n      swap1\n      tag_30\n      swap2\n      swap1\n      tag_31\n      jump\t// in\n    tag_30:\n      tag_32\n      jump\t// in\n    tag_29:\n      mload(0x40)\n      tag_33\n      swap2\n      swap1\n      tag_16\n      jump\t// in\n    tag_33:\n      mload(0x40)\n      dup1\n      swap2\n      sub\n      swap1\n      return\n        /* \"contracts/EelSwap.sol\":146:188  string public constant name = 'Eelswap V2' */\n    tag_10:\n      mload(0x40)\n      dup1\n      0x40\n      add\n      0x40\n      mstore\n      dup1\n      0x0a\n      dup2\n      mstore\n      0x20\n      add\n      0x45656c7377617020563200000000000000000000000000000000000000000000\n      dup2\n      mstore\n      pop\n      dup2\n      jump\t// out\n        /* \"contracts/EelSwap.sol\":284:307  uint public totalSupply */\n    tag_14:\n      sload(0x00)\n      dup2\n      jump\t// out\n        /* \"contracts/EelSwap.sol\":242:277  uint8 public constant decimals = 18 */\n    tag_18:\n        /* \"contracts/EelSwap.sol\":275:277  18 */\n      0x12\n        /* \"contracts/EelSwap.sol\":242:277  uint8 public constant decimals = 18 */\n      dup2\n      jump\t// out\n        /* \"contracts/EelSwap.sol\":316:357  mapping(address => uint) public balanceOf */\n    tag_24:\n      mstore(0x20, 0x01)\n      dup1\n      0x00\n      mstore\n      keccak256(0x00, 0x40)\n      0x00\n      swap2\n      pop\n      swap1\n      pop\n      sload\n      dup2\n      jump\t// out\n        /* \"contracts/EelSwap.sol\":195:235  string public constant symbol = 'EEL-V2' */\n    tag_27:\n      mload(0x40)\n      dup1\n      0x40\n      add\n      0x40\n      mstore\n      dup1\n      0x06\n      dup2\n      mstore\n      0x20\n      add\n      0x45454c2d56320000000000000000000000000000000000000000000000000000\n      dup2\n      mstore\n      pop\n      dup2\n      jump\t// out\n        /* \"contracts/EelSwap.sol\":364:424  mapping(address => mapping(address => uint))public allowance */\n    tag_32:\n      mstore(0x20, 0x02)\n      dup2\n      0x00\n      mstore\n      mstore(0x20, keccak256(0x00, 0x40))\n      dup1\n      0x00\n      mstore\n      keccak256(0x00, 0x40)\n      0x00\n      swap2\n      pop\n      swap2\n      pop\n      pop\n      sload\n      dup2\n      jump\t// out\n        /* \"#utility.yul\":7:146   */\n    tag_35:\n        /* \"#utility.yul\":53:58   */\n      0x00\n        /* \"#utility.yul\":91:97   */\n      dup2\n        /* \"#utility.yul\":78:98   */\n      calldataload\n        /* \"#utility.yul\":69:98   */\n      swap1\n      pop\n        /* \"#utility.yul\":107:140   */\n      tag_37\n        /* \"#utility.yul\":134:139   */\n      dup2\n        /* \"#utility.yul\":107:140   */\n      tag_38\n      jump\t// in\n    tag_37:\n        /* \"#utility.yul\":7:146   */\n      swap3\n      swap2\n      pop\n      pop\n      jump\t// out\n        /* \"#utility.yul\":152:481   */\n    tag_23:\n        /* \"#utility.yul\":211:217   */\n      0x00\n        /* \"#utility.yul\":260:262   */\n      0x20\n        /* \"#utility.yul\":248:257   */\n      dup3\n        /* \"#utility.yul\":239:246   */\n      dup5\n        /* \"#utility.yul\":235:258   */\n      sub\n        /* \"#utility.yul\":231:263   */\n      slt\n        /* \"#utility.yul\":228:347   */\n      iszero\n      tag_40\n      jumpi\n        /* \"#utility.yul\":266:345   */\n      tag_41\n      tag_42\n      jump\t// in\n    tag_41:\n        /* \"#utility.yul\":228:347   */\n    tag_40:\n        /* \"#utility.yul\":386:387   */\n      0x00\n        /* \"#utility.yul\":411:464   */\n      tag_43\n        /* \"#utility.yul\":456:463   */\n      dup5\n        /* \"#utility.yul\":447:453   */\n      dup3\n        /* \"#utility.yul\":436:445   */\n      dup6\n        /* \"#utility.yul\":432:454   */\n      add\n        /* \"#utility.yul\":411:464   */\n      tag_35\n      jump\t// in\n    tag_43:\n        /* \"#utility.yul\":401:464   */\n      swap2\n      pop\n        /* \"#utility.yul\":357:474   */\n      pop\n        /* \"#utility.yul\":152:481   */\n      swap3\n      swap2\n      pop\n      pop\n      jump\t// out\n        /* \"#utility.yul\":487:961   */\n    tag_31:\n        /* \"#utility.yul\":555:561   */\n      0x00\n        /* \"#utility.yul\":563:569   */\n      dup1\n        /* \"#utility.yul\":612:614   */\n      0x40\n        /* \"#utility.yul\":600:609   */\n      dup4\n        /* \"#utility.yul\":591:598   */\n      dup6\n        /* \"#utility.yul\":587:610   */\n      sub\n        /* \"#utility.yul\":583:615   */\n      slt\n        /* \"#utility.yul\":580:699   */\n      iszero\n      tag_45\n      jumpi\n        /* \"#utility.yul\":618:697   */\n      tag_46\n      tag_42\n      jump\t// in\n    tag_46:\n        /* \"#utility.yul\":580:699   */\n    tag_45:\n        /* \"#utility.yul\":738:739   */\n      0x00\n        /* \"#utility.yul\":763:816   */\n      tag_47\n        /* \"#utility.yul\":808:815   */\n      dup6\n        /* \"#utility.yul\":799:805   */\n      dup3\n        /* \"#utility.yul\":788:797   */\n      dup7\n        /* \"#utility.yul\":784:806   */\n      add\n        /* \"#utility.yul\":763:816   */\n      tag_35\n      jump\t// in\n    tag_47:\n        /* \"#utility.yul\":753:816   */\n      swap3\n      pop\n        /* \"#utility.yul\":709:826   */\n      pop\n        /* \"#utility.yul\":865:867   */\n      0x20\n        /* \"#utility.yul\":891:944   */\n      tag_48\n        /* \"#utility.yul\":936:943   */\n      dup6\n        /* \"#utility.yul\":927:933   */\n      dup3\n        /* \"#utility.yul\":916:925   */\n      dup7\n        /* \"#utility.yul\":912:934   */\n      add\n        /* \"#utility.yul\":891:944   */\n      tag_35\n      jump\t// in\n    tag_48:\n        /* \"#utility.yul\":881:944   */\n      swap2\n      pop\n        /* \"#utility.yul\":836:954   */\n      pop\n        /* \"#utility.yul\":487:961   */\n      swap3\n      pop\n      swap3\n      swap1\n      pop\n      jump\t// out\n        /* \"#utility.yul\":967:1331   */\n    tag_49:\n        /* \"#utility.yul\":1055:1058   */\n      0x00\n        /* \"#utility.yul\":1083:1122   */\n      tag_51\n        /* \"#utility.yul\":1116:1121   */\n      dup3\n        /* \"#utility.yul\":1083:1122   */\n      tag_52\n      jump\t// in\n    tag_51:\n        /* \"#utility.yul\":1138:1209   */\n      tag_53\n        /* \"#utility.yul\":1202:1208   */\n      dup2\n        /* \"#utility.yul\":1197:1200   */\n      dup6\n        /* \"#utility.yul\":1138:1209   */\n      tag_54\n      jump\t// in\n    tag_53:\n        /* \"#utility.yul\":1131:1209   */\n      swap4\n      pop\n        /* \"#utility.yul\":1218:1270   */\n      tag_55\n        /* \"#utility.yul\":1263:1269   */\n      dup2\n        /* \"#utility.yul\":1258:1261   */\n      dup6\n        /* \"#utility.yul\":1251:1255   */\n      0x20\n        /* \"#utility.yul\":1244:1249   */\n      dup7\n        /* \"#utility.yul\":1240:1256   */\n      add\n        /* \"#utility.yul\":1218:1270   */\n      tag_56\n      jump\t// in\n    tag_55:\n        /* \"#utility.yul\":1295:1324   */\n      tag_57\n        /* \"#utility.yul\":1317:1323   */\n      dup2\n        /* \"#utility.yul\":1295:1324   */\n      tag_58\n      jump\t// in\n    tag_57:\n        /* \"#utility.yul\":1290:1293   */\n      dup5\n        /* \"#utility.yul\":1286:1325   */\n      add\n        /* \"#utility.yul\":1279:1325   */\n      swap2\n      pop\n        /* \"#utility.yul\":1059:1331   */\n      pop\n        /* \"#utility.yul\":967:1331   */\n      swap3\n      swap2\n      pop\n      pop\n      jump\t// out\n        /* \"#utility.yul\":1337:1455   */\n    tag_59:\n        /* \"#utility.yul\":1424:1448   */\n      tag_61\n        /* \"#utility.yul\":1442:1447   */\n      dup2\n        /* \"#utility.yul\":1424:1448   */\n      tag_62\n      jump\t// in\n    tag_61:\n        /* \"#utility.yul\":1419:1422   */\n      dup3\n        /* \"#utility.yul\":1412:1449   */\n      mstore\n        /* \"#utility.yul\":1337:1455   */\n      pop\n      pop\n      jump\t// out\n        /* \"#utility.yul\":1461:1573   */\n    tag_63:\n        /* \"#utility.yul\":1544:1566   */\n      tag_65\n        /* \"#utility.yul\":1560:1565   */\n      dup2\n        /* \"#utility.yul\":1544:1566   */\n      tag_66\n      jump\t// in\n    tag_65:\n        /* \"#utility.yul\":1539:1542   */\n      dup3\n        /* \"#utility.yul\":1532:1567   */\n      mstore\n        /* \"#utility.yul\":1461:1573   */\n      pop\n      pop\n      jump\t// out\n        /* \"#utility.yul\":1579:1892   */\n    tag_12:\n        /* \"#utility.yul\":1692:1696   */\n      0x00\n        /* \"#utility.yul\":1730:1732   */\n      0x20\n        /* \"#utility.yul\":1719:1728   */\n      dup3\n        /* \"#utility.yul\":1715:1733   */\n      add\n        /* \"#utility.yul\":1707:1733   */\n      swap1\n      pop\n        /* \"#utility.yul\":1779:1788   */\n      dup2\n        /* \"#utility.yul\":1773:1777   */\n      dup2\n        /* \"#utility.yul\":1769:1789   */\n      sub\n        /* \"#utility.yul\":1765:1766   */\n      0x00\n        /* \"#utility.yul\":1754:1763   */\n      dup4\n        /* \"#utility.yul\":1750:1767   */\n      add\n        /* \"#utility.yul\":1743:1790   */\n      mstore\n        /* \"#utility.yul\":1807:1885   */\n      tag_68\n        /* \"#utility.yul\":1880:1884   */\n      dup2\n        /* \"#utility.yul\":1871:1877   */\n      dup5\n        /* \"#utility.yul\":1807:1885   */\n      tag_49\n      jump\t// in\n    tag_68:\n        /* \"#utility.yul\":1799:1885   */\n      swap1\n      pop\n        /* \"#utility.yul\":1579:1892   */\n      swap3\n      swap2\n      pop\n      pop\n      jump\t// out\n        /* \"#utility.yul\":1898:2120   */\n    tag_16:\n        /* \"#utility.yul\":1991:1995   */\n      0x00\n        /* \"#utility.yul\":2029:2031   */\n      0x20\n        /* \"#utility.yul\":2018:2027   */\n      dup3\n        /* \"#utility.yul\":2014:2032   */\n      add\n        /* \"#utility.yul\":2006:2032   */\n      swap1\n      pop\n        /* \"#utility.yul\":2042:2113   */\n      tag_70\n        /* \"#utility.yul\":2110:2111   */\n      0x00\n        /* \"#utility.yul\":2099:2108   */\n      dup4\n        /* \"#utility.yul\":2095:2112   */\n      add\n        /* \"#utility.yul\":2086:2092   */\n      dup5\n        /* \"#utility.yul\":2042:2113   */\n      tag_59\n      jump\t// in\n    tag_70:\n        /* \"#utility.yul\":1898:2120   */\n      swap3\n      swap2\n      pop\n      pop\n      jump\t// out\n        /* \"#utility.yul\":2126:2340   */\n    tag_20:\n        /* \"#utility.yul\":2215:2219   */\n      0x00\n        /* \"#utility.yul\":2253:2255   */\n      0x20\n        /* \"#utility.yul\":2242:2251   */\n      dup3\n        /* \"#utility.yul\":2238:2256   */\n      add\n        /* \"#utility.yul\":2230:2256   */\n      swap1\n      pop\n        /* \"#utility.yul\":2266:2333   */\n      tag_72\n        /* \"#utility.yul\":2330:2331   */\n      0x00\n        /* \"#utility.yul\":2319:2328   */\n      dup4\n        /* \"#utility.yul\":2315:2332   */\n      add\n        /* \"#utility.yul\":2306:2312   */\n      dup5\n        /* \"#utility.yul\":2266:2333   */\n      tag_63\n      jump\t// in\n    tag_72:\n        /* \"#utility.yul\":2126:2340   */\n      swap3\n      swap2\n      pop\n      pop\n      jump\t// out\n        /* \"#utility.yul\":2427:2526   */\n    tag_52:\n        /* \"#utility.yul\":2479:2485   */\n      0x00\n        /* \"#utility.yul\":2513:2518   */\n      dup2\n        /* \"#utility.yul\":2507:2519   */\n      mload\n        /* \"#utility.yul\":2497:2519   */\n      swap1\n      pop\n        /* \"#utility.yul\":2427:2526   */\n      swap2\n      swap1\n      pop\n      jump\t// out\n        /* \"#utility.yul\":2532:2701   */\n    tag_54:\n        /* \"#utility.yul\":2616:2627   */\n      0x00\n        /* \"#utility.yul\":2650:2656   */\n      dup3\n        /* \"#utility.yul\":2645:2648   */\n      dup3\n        /* \"#utility.yul\":2638:2657   */\n      mstore\n        /* \"#utility.yul\":2690:2694   */\n      0x20\n        /* \"#utility.yul\":2685:2688   */\n      dup3\n        /* \"#utility.yul\":2681:2695   */\n      add\n        /* \"#utility.yul\":2666:2695   */\n      swap1\n      pop\n        /* \"#utility.yul\":2532:2701   */\n      swap3\n      swap2\n      pop\n      pop\n      jump\t// out\n        /* \"#utility.yul\":2707:2803   */\n    tag_77:\n        /* \"#utility.yul\":2744:2751   */\n      0x00\n        /* \"#utility.yul\":2773:2797   */\n      tag_79\n        /* \"#utility.yul\":2791:2796   */\n      dup3\n        /* \"#utility.yul\":2773:2797   */\n      tag_80\n      jump\t// in\n    tag_79:\n        /* \"#utility.yul\":2762:2797   */\n      swap1\n      pop\n        /* \"#utility.yul\":2707:2803   */\n      swap2\n      swap1\n      pop\n      jump\t// out\n        /* \"#utility.yul\":2809:2935   */\n    tag_80:\n        /* \"#utility.yul\":2846:2853   */\n      0x00\n        /* \"#utility.yul\":2886:2928   */\n      0xffffffffffffffffffffffffffffffffffffffff\n        /* \"#utility.yul\":2879:2884   */\n      dup3\n        /* \"#utility.yul\":2875:2929   */\n      and\n        /* \"#utility.yul\":2864:2929   */\n      swap1\n      pop\n        /* \"#utility.yul\":2809:2935   */\n      swap2\n      swap1\n      pop\n      jump\t// out\n        /* \"#utility.yul\":2941:3018   */\n    tag_62:\n        /* \"#utility.yul\":2978:2985   */\n      0x00\n        /* \"#utility.yul\":3007:3012   */\n      dup2\n        /* \"#utility.yul\":2996:3012   */\n      swap1\n      pop\n        /* \"#utility.yul\":2941:3018   */\n      swap2\n      swap1\n      pop\n      jump\t// out\n        /* \"#utility.yul\":3024:3110   */\n    tag_66:\n        /* \"#utility.yul\":3059:3066   */\n      0x00\n        /* \"#utility.yul\":3099:3103   */\n      0xff\n        /* \"#utility.yul\":3092:3097   */\n      dup3\n        /* \"#utility.yul\":3088:3104   */\n      and\n        /* \"#utility.yul\":3077:3104   */\n      swap1\n      pop\n        /* \"#utility.yul\":3024:3110   */\n      swap2\n      swap1\n      pop\n      jump\t// out\n        /* \"#utility.yul\":3116:3423   */\n    tag_56:\n        /* \"#utility.yul\":3184:3185   */\n      0x00\n        /* \"#utility.yul\":3194:3307   */\n    tag_85:\n        /* \"#utility.yul\":3208:3214   */\n      dup4\n        /* \"#utility.yul\":3205:3206   */\n      dup2\n        /* \"#utility.yul\":3202:3215   */\n      lt\n        /* \"#utility.yul\":3194:3307   */\n      iszero\n      tag_87\n      jumpi\n        /* \"#utility.yul\":3293:3294   */\n      dup1\n        /* \"#utility.yul\":3288:3291   */\n      dup3\n        /* \"#utility.yul\":3284:3295   */\n      add\n        /* \"#utility.yul\":3278:3296   */\n      mload\n        /* \"#utility.yul\":3274:3275   */\n      dup2\n        /* \"#utility.yul\":3269:3272   */\n      dup5\n        /* \"#utility.yul\":3265:3276   */\n      add\n        /* \"#utility.yul\":3258:3297   */\n      mstore\n        /* \"#utility.yul\":3230:3232   */\n      0x20\n        /* \"#utility.yul\":3227:3228   */\n      dup2\n        /* \"#utility.yul\":3223:3233   */\n      add\n        /* \"#utility.yul\":3218:3233   */\n      swap1\n      pop\n        /* \"#utility.yul\":3194:3307   */\n      jump(tag_85)\n    tag_87:\n        /* \"#utility.yul\":3325:3331   */\n      dup4\n        /* \"#utility.yul\":3322:3323   */\n      dup2\n        /* \"#utility.yul\":3319:3332   */\n      gt\n        /* \"#utility.yul\":3316:3417   */\n      iszero\n      tag_88\n      jumpi\n        /* \"#utility.yul\":3405:3406   */\n      0x00\n        /* \"#utility.yul\":3396:3402   */\n      dup5\n        /* \"#utility.yul\":3391:3394   */\n      dup5\n        /* \"#utility.yul\":3387:3403   */\n      add\n        /* \"#utility.yul\":3380:3407   */\n      mstore\n        /* \"#utility.yul\":3316:3417   */\n    tag_88:\n        /* \"#utility.yul\":3165:3423   */\n      pop\n        /* \"#utility.yul\":3116:3423   */\n      pop\n      pop\n      pop\n      jump\t// out\n        /* \"#utility.yul\":3552:3669   */\n    tag_42:\n        /* \"#utility.yul\":3661:3662   */\n      0x00\n        /* \"#utility.yul\":3658:3659   */\n      dup1\n        /* \"#utility.yul\":3651:3663   */\n      revert\n        /* \"#utility.yul\":3675:3777   */\n    tag_58:\n        /* \"#utility.yul\":3716:3722   */\n      0x00\n        /* \"#utility.yul\":3767:3769   */\n      0x1f\n        /* \"#utility.yul\":3763:3770   */\n      not\n        /* \"#utility.yul\":3758:3760   */\n      0x1f\n        /* \"#utility.yul\":3751:3756   */\n      dup4\n        /* \"#utility.yul\":3747:3761   */\n      add\n        /* \"#utility.yul\":3743:3771   */\n      and\n        /* \"#utility.yul\":3733:3771   */\n      swap1\n      pop\n        /* \"#utility.yul\":3675:3777   */\n      swap2\n      swap1\n      pop\n      jump\t// out\n        /* \"#utility.yul\":3783:3905   */\n    tag_38:\n        /* \"#utility.yul\":3856:3880   */\n      tag_94\n        /* \"#utility.yul\":3874:3879   */\n      dup2\n        /* \"#utility.yul\":3856:3880   */\n      tag_77\n      jump\t// in\n    tag_94:\n        /* \"#utility.yul\":3849:3854   */\n      dup2\n        /* \"#utility.yul\":3846:3881   */\n      eq\n        /* \"#utility.yul\":3836:3899   */\n      tag_95\n      jumpi\n        /* \"#utility.yul\":3895:3896   */\n      0x00\n        /* \"#utility.yul\":3892:3893   */\n      dup1\n        /* \"#utility.yul\":3885:3897   */\n      revert\n        /* \"#utility.yul\":3836:3899   */\n    tag_95:\n        /* \"#utility.yul\":3783:3905   */\n      pop\n      jump\t// out\n\n    auxdata: 0xa2646970667358221220b668dd4dc30a354cb4cc5a2e9a022f3d5237abf4d4503e6678e39eb5b5dcd6c464736f6c63430008070033\n}\n",
				"bytecode": {
					"linkReferences": {},
					"object": "608060405234801561001057600080fd5b50610425806100206000396000f3fe608060405234801561001057600080fd5b50600436106100625760003560e01c806306fdde031461006757806318160ddd14610085578063313ce567146100a357806370a08231146100c157806395d89b41146100f1578063dd62ed3e1461010f575b600080fd5b61006f61013f565b60405161007c91906102d2565b60405180910390f35b61008d610178565b60405161009a91906102f4565b60405180910390f35b6100ab61017e565b6040516100b8919061030f565b60405180910390f35b6100db60048036038101906100d6919061020e565b610183565b6040516100e891906102f4565b60405180910390f35b6100f961019b565b60405161010691906102d2565b60405180910390f35b6101296004803603810190610124919061023b565b6101d4565b60405161013691906102f4565b60405180910390f35b6040518060400160405280600a81526020017f45656c737761702056320000000000000000000000000000000000000000000081525081565b60005481565b601281565b60016020528060005260406000206000915090505481565b6040518060400160405280600681526020017f45454c2d5632000000000000000000000000000000000000000000000000000081525081565b6002602052816000526040600020602052806000526040600020600091509150505481565b600081359050610208816103d8565b92915050565b600060208284031215610224576102236103c2565b5b6000610232848285016101f9565b91505092915050565b60008060408385031215610252576102516103c2565b5b6000610260858286016101f9565b9250506020610271858286016101f9565b9150509250929050565b60006102868261032a565b6102908185610335565b93506102a081856020860161038f565b6102a9816103c7565b840191505092915050565b6102bd81610378565b82525050565b6102cc81610382565b82525050565b600060208201905081810360008301526102ec818461027b565b905092915050565b600060208201905061030960008301846102b4565b92915050565b600060208201905061032460008301846102c3565b92915050565b600081519050919050565b600082825260208201905092915050565b600061035182610358565b9050919050565b600073ffffffffffffffffffffffffffffffffffffffff82169050919050565b6000819050919050565b600060ff82169050919050565b60005b838110156103ad578082015181840152602081019050610392565b838111156103bc576000848401525b50505050565b600080fd5b6000601f19601f8301169050919050565b6103e181610346565b81146103ec57600080fd5b5056fea2646970667358221220b668dd4dc30a354cb4cc5a2e9a022f3d5237abf4d4503e6678e39eb5b5dcd6c464736f6c63430008070033",
					"opcodes": "PUSH1 0x80 PUSH1 0x40 MSTORE CALLVALUE DUP1 ISZERO PUSH2 0x10 JUMPI PUSH1 0x0 DUP1 REVERT JUMPDEST POP PUSH2 0x425 DUP1 PUSH2 0x20 PUSH1 0x0 CODECOPY PUSH1 0x0 RETURN INVALID PUSH1 0x80 PUSH1 0x40 MSTORE CALLVALUE DUP1 ISZERO PUSH2 0x10 JUMPI PUSH1 0x0 DUP1 REVERT JUMPDEST POP PUSH1 0x4 CALLDATASIZE LT PUSH2 0x62 JUMPI PUSH1 0x0 CALLDATALOAD PUSH1 0xE0 SHR DUP1 PUSH4 0x6FDDE03 EQ PUSH2 0x67 JUMPI DUP1 PUSH4 0x18160DDD EQ PUSH2 0x85 JUMPI DUP1 PUSH4 0x313CE567 EQ PUSH2 0xA3 JUMPI DUP1 PUSH4 0x70A08231 EQ PUSH2 0xC1 JUMPI DUP1 PUSH4 0x95D89B41 EQ PUSH2 0xF1 JUMPI DUP1 PUSH4 0xDD62ED3E EQ PUSH2 0x10F JUMPI JUMPDEST PUSH1 0x0 DUP1 REVERT JUMPDEST PUSH2 0x6F PUSH2 0x13F JUMP JUMPDEST PUSH1 0x40 MLOAD PUSH2 0x7C SWAP2 SWAP1 PUSH2 0x2D2 JUMP JUMPDEST PUSH1 0x40 MLOAD DUP1 SWAP2 SUB SWAP1 RETURN JUMPDEST PUSH2 0x8D PUSH2 0x178 JUMP JUMPDEST PUSH1 0x40 MLOAD PUSH2 0x9A SWAP2 SWAP1 PUSH2 0x2F4 JUMP JUMPDEST PUSH1 0x40 MLOAD DUP1 SWAP2 SUB SWAP1 RETURN JUMPDEST PUSH2 0xAB PUSH2 0x17E JUMP JUMPDEST PUSH1 0x40 MLOAD PUSH2 0xB8 SWAP2 SWAP1 PUSH2 0x30F JUMP JUMPDEST PUSH1 0x40 MLOAD DUP1 SWAP2 SUB SWAP1 RETURN JUMPDEST PUSH2 0xDB PUSH1 0x4 DUP1 CALLDATASIZE SUB DUP2 ADD SWAP1 PUSH2 0xD6 SWAP2 SWAP1 PUSH2 0x20E JUMP JUMPDEST PUSH2 0x183 JUMP JUMPDEST PUSH1 0x40 MLOAD PUSH2 0xE8 SWAP2 SWAP1 PUSH2 0x2F4 JUMP JUMPDEST PUSH1 0x40 MLOAD DUP1 SWAP2 SUB SWAP1 RETURN JUMPDEST PUSH2 0xF9 PUSH2 0x19B JUMP JUMPDEST PUSH1 0x40 MLOAD PUSH2 0x106 SWAP2 SWAP1 PUSH2 0x2D2 JUMP JUMPDEST PUSH1 0x40 MLOAD DUP1 SWAP2 SUB SWAP1 RETURN JUMPDEST PUSH2 0x129 PUSH1 0x4 DUP1 CALLDATASIZE SUB DUP2 ADD SWAP1 PUSH2 0x124 SWAP2 SWAP1 PUSH2 0x23B JUMP JUMPDEST PUSH2 0x1D4 JUMP JUMPDEST PUSH1 0x40 MLOAD PUSH2 0x136 SWAP2 SWAP1 PUSH2 0x2F4 JUMP JUMPDEST PUSH1 0x40 MLOAD DUP1 SWAP2 SUB SWAP1 RETURN JUMPDEST PUSH1 0x40 MLOAD DUP1 PUSH1 0x40 ADD PUSH1 0x40 MSTORE DUP1 PUSH1 0xA DUP2 MSTORE PUSH1 0x20 ADD PUSH32 0x45656C7377617020563200000000000000000000000000000000000000000000 DUP2 MSTORE POP DUP2 JUMP JUMPDEST PUSH1 0x0 SLOAD DUP2 JUMP JUMPDEST PUSH1 0x12 DUP2 JUMP JUMPDEST PUSH1 0x1 PUSH1 0x20 MSTORE DUP1 PUSH1 0x0 MSTORE PUSH1 0x40 PUSH1 0x0 KECCAK256 PUSH1 0x0 SWAP2 POP SWAP1 POP SLOAD DUP2 JUMP JUMPDEST PUSH1 0x40 MLOAD DUP1 PUSH1 0x40 ADD PUSH1 0x40 MSTORE DUP1 PUSH1 0x6 DUP2 MSTORE PUSH1 0x20 ADD PUSH32 0x45454C2D56320000000000000000000000000000000000000000000000000000 DUP2 MSTORE POP DUP2 JUMP JUMPDEST PUSH1 0x2 PUSH1 0x20 MSTORE DUP2 PUSH1 0x0 MSTORE PUSH1 0x40 PUSH1 0x0 KECCAK256 PUSH1 0x20 MSTORE DUP1 PUSH1 0x0 MSTORE PUSH1 0x40 PUSH1 0x0 KECCAK256 PUSH1 0x0 SWAP2 POP SWAP2 POP POP SLOAD DUP2 JUMP JUMPDEST PUSH1 0x0 DUP2 CALLDATALOAD SWAP1 POP PUSH2 0x208 DUP2 PUSH2 0x3D8 JUMP JUMPDEST SWAP3 SWAP2 POP POP JUMP JUMPDEST PUSH1 0x0 PUSH1 0x20 DUP3 DUP5 SUB SLT ISZERO PUSH2 0x224 JUMPI PUSH2 0x223 PUSH2 0x3C2 JUMP JUMPDEST JUMPDEST PUSH1 0x0 PUSH2 0x232 DUP5 DUP3 DUP6 ADD PUSH2 0x1F9 JUMP JUMPDEST SWAP2 POP POP SWAP3 SWAP2 POP POP JUMP JUMPDEST PUSH1 0x0 DUP1 PUSH1 0x40 DUP4 DUP6 SUB SLT ISZERO PUSH2 0x252 JUMPI PUSH2 0x251 PUSH2 0x3C2 JUMP JUMPDEST JUMPDEST PUSH1 0x0 PUSH2 0x260 DUP6 DUP3 DUP7 ADD PUSH2 0x1F9 JUMP JUMPDEST SWAP3 POP POP PUSH1 0x20 PUSH2 0x271 DUP6 DUP3 DUP7 ADD PUSH2 0x1F9 JUMP JUMPDEST SWAP2 POP POP SWAP3 POP SWAP3 SWAP1 POP JUMP JUMPDEST PUSH1 0x0 PUSH2 0x286 DUP3 PUSH2 0x32A JUMP JUMPDEST PUSH2 0x290 DUP2 DUP6 PUSH2 0x335 JUMP JUMPDEST SWAP4 POP PUSH2 0x2A0 DUP2 DUP6 PUSH1 0x20 DUP7 ADD PUSH2 0x38F JUMP JUMPDEST PUSH2 0x2A9 DUP2 PUSH2 0x3C7 JUMP JUMPDEST DUP5 ADD SWAP2 POP POP SWAP3 SWAP2 POP POP JUMP JUMPDEST PUSH2 0x2BD DUP2 PUSH2 0x378 JUMP JUMPDEST DUP3 MSTORE POP POP JUMP JUMPDEST PUSH2 0x2CC DUP2 PUSH2 0x382 JUMP JUMPDEST DUP3 MSTORE POP POP JUMP JUMPDEST PUSH1 0x0 PUSH1 0x20 DUP3 ADD SWAP1 POP DUP2 DUP2 SUB PUSH1 0x0 DUP4 ADD MSTORE PUSH2 0x2EC DUP2 DUP5 PUSH2 0x27B JUMP JUMPDEST SWAP1 POP SWAP3 SWAP2 POP POP JUMP JUMPDEST PUSH1 0x0 PUSH1 0x20 DUP3 ADD SWAP1 POP PUSH2 0x309 PUSH1 0x0 DUP4 ADD DUP5 PUSH2 0x2B4 JUMP JUMPDEST SWAP3 SWAP2 POP POP JUMP JUMPDEST PUSH1 0x0 PUSH1 0x20 DUP3 ADD SWAP1 POP PUSH2 0x324 PUSH1 0x0 DUP4 ADD DUP5 PUSH2 0x2C3 JUMP JUMPDEST SWAP3 SWAP2 POP POP JUMP JUMPDEST PUSH1 0x0 DUP2 MLOAD SWAP1 POP SWAP2 SWAP1 POP JUMP JUMPDEST PUSH1 0x0 DUP3 DUP3 MSTORE PUSH1 0x20 DUP3 ADD SWAP1 POP SWAP3 SWAP2 POP POP JUMP JUMPDEST PUSH1 0x0 PUSH2 0x351 DUP3 PUSH2 0x358 JUMP JUMPDEST SWAP1 POP SWAP2 SWAP1 POP JUMP JUMPDEST PUSH1 0x0 PUSH20 0xFFFFFFFFFFFFFFFFFFFFFFFFFFFFFFFFFFFFFFFF DUP3 AND SWAP1 POP SWAP2 SWAP1 POP JUMP JUMPDEST PUSH1 0x0 DUP2 SWAP1 POP SWAP2 SWAP1 POP JUMP JUMPDEST PUSH1 0x0 PUSH1 0xFF DUP3 AND SWAP1 POP SWAP2 SWAP1 POP JUMP JUMPDEST PUSH1 0x0 JUMPDEST DUP4 DUP2 LT ISZERO PUSH2 0x3AD JUMPI DUP1 DUP3 ADD MLOAD DUP2 DUP5 ADD MSTORE PUSH1 0x20 DUP2 ADD SWAP1 POP PUSH2 0x392 JUMP JUMPDEST DUP4 DUP2 GT ISZERO PUSH2 0x3BC JUMPI PUSH1 0x0 DUP5 DUP5 ADD MSTORE JUMPDEST POP POP POP POP JUMP JUMPDEST PUSH1 0x0 DUP1 REVERT JUMPDEST PUSH1 0x0 PUSH1 0x1F NOT PUSH1 0x1F DUP4 ADD AND SWAP1 POP SWAP2 SWAP1 POP JUMP JUMPDEST PUSH2 0x3E1 DUP2 PUSH2 0x346 JUMP JUMPDEST DUP2 EQ PUSH2 0x3EC JUMPI PUSH1 0x0 DUP1 REVERT JUMPDEST POP JUMP INVALID LOG2 PUSH5 0x6970667358 0x22 SLT KECCAK256 0xB6 PUSH9 0xDD4DC30A354CB4CC5A 0x2E SWAP11 MUL 0x2F RETURNDATASIZE MSTORE CALLDATACOPY 0xAB DELEGATECALL 0xD4 POP RETURNDATACOPY PUSH7 0x78E39EB5B5DCD6 0xC4 PUSH5 0x736F6C6343 STOP ADDMOD SMOD STOP CALLER "
				},
				"gasEstimates": {
					"creation": {
						"codeDepositCost": "212200",
						"executionCost": "257",
						"totalCost": "212457"
					},
					"external": {
						"allowance(address,address)": "infinite",
						"balanceOf(address)": "2858",
						"decimals()": "357",
						"name()": "infinite",
						"symbol()": "infinite",
						"totalSupply()": "2429"
					}
				},
				"methodIdentifiers": {
					"allowance(address,address)": "dd62ed3e",
					"balanceOf(address)": "70a08231",
					"decimals()": "313ce567",
					"name()": "06fdde03",
					"symbol()": "95d89b41",
					"totalSupply()": "18160ddd"
				}
			},
			"storageLayout": {
				"storage": [
					{
						"astId": 328,
						"contract": "contracts/EelSwap.sol:EelSwap",
						"label": "totalSupply",
						"offset": 0,
						"slot": "0",
						"type": "t_uint256"
					},
					{
						"astId": 332,
						"contract": "contracts/EelSwap.sol:EelSwap",
						"label": "balanceOf",
						"offset": 0,
						"slot": "1",
						"type": "t_mapping(t_address,t_uint256)"
					},
					{
						"astId": 338,
						"contract": "contracts/EelSwap.sol:EelSwap",
						"label": "allowance",
						"offset": 0,
						"slot": "2",
						"type": "t_mapping(t_address,t_mapping(t_address,t_uint256))"
					}
				],
				"types": {
					"t_address": {
						"encoding": "inplace",
						"label": "address",
						"numberOfBytes": "20"
					},
					"t_mapping(t_address,t_mapping(t_address,t_uint256))": {
						"encoding": "mapping",
						"key": "t_address",
						"label": "mapping(address => mapping(address => uint256))",
						"numberOfBytes": "32",
						"value": "t_mapping(t_address,t_uint256)"
					},
					"t_mapping(t_address,t_uint256)": {
						"encoding": "mapping",
						"key": "t_address",
						"label": "mapping(address => uint256)",
						"numberOfBytes": "32",
						"value": "t_uint256"
					},
					"t_uint256": {
						"encoding": "inplace",
						"label": "uint256",
						"numberOfBytes": "32"
					}
				}
			},
			"userdoc": {
				"kind": "user",
				"methods": {},
				"version": 1
			}
		}
	}
}