{
	"contracts/Pair.sol": {
		"Pair": {
			"abi": [
				{
					"inputs": [
						{
							"internalType": "address",
							"name": "token",
							"type": "address"
						}
					],
					"stateMutability": "nonpayable",
					"type": "constructor"
				},
				{
					"anonymous": false,
					"inputs": [
						{
							"indexed": true,
							"internalType": "address",
							"name": "provider",
							"type": "address"
						},
						{
							"indexed": true,
							"internalType": "uint256",
							"name": "ethAmount",
							"type": "uint256"
						},
						{
							"indexed": true,
							"internalType": "uint256",
							"name": "tokenAmount",
							"type": "uint256"
						}
					],
					"name": "AddLiquidity",
					"type": "event"
				},
				{
					"anonymous": false,
					"inputs": [
						{
							"indexed": true,
							"internalType": "address",
							"name": "owner",
							"type": "address"
						},
						{
							"indexed": true,
							"internalType": "address",
							"name": "spender",
							"type": "address"
						},
						{
							"indexed": false,
							"internalType": "uint256",
							"name": "value",
							"type": "uint256"
						}
					],
					"name": "Approval",
					"type": "event"
				},
				{
					"anonymous": false,
					"inputs": [
						{
							"indexed": true,
							"internalType": "address",
							"name": "provider",
							"type": "address"
						},
						{
							"indexed": true,
							"internalType": "uint256",
							"name": "ethAmount",
							"type": "uint256"
						},
						{
							"indexed": true,
							"internalType": "uint256",
							"name": "tokenAmount",
							"type": "uint256"
						}
					],
					"name": "RemoveLiquidity",
					"type": "event"
				},
				{
					"anonymous": false,
					"inputs": [
						{
							"indexed": true,
							"internalType": "address",
							"name": "buyer",
							"type": "address"
						},
						{
							"indexed": true,
							"internalType": "uint256",
							"name": "tokensGiven",
							"type": "uint256"
						},
						{
							"indexed": false,
							"internalType": "uint256",
							"name": "ethRecieved",
							"type": "uint256"
						}
					],
					"name": "SwapForEth",
					"type": "event"
				},
				{
					"anonymous": false,
					"inputs": [
						{
							"indexed": true,
							"internalType": "address",
							"name": "buyer",
							"type": "address"
						},
						{
							"indexed": true,
							"internalType": "uint256",
							"name": "ethGiven",
							"type": "uint256"
						},
						{
							"indexed": false,
							"internalType": "uint256",
							"name": "tokensRecieved",
							"type": "uint256"
						}
					],
					"name": "SwapForTokens",
					"type": "event"
				},
				{
					"anonymous": false,
					"inputs": [
						{
							"indexed": true,
							"internalType": "address",
							"name": "from",
							"type": "address"
						},
						{
							"indexed": true,
							"internalType": "address",
							"name": "to",
							"type": "address"
						},
						{
							"indexed": false,
							"internalType": "uint256",
							"name": "value",
							"type": "uint256"
						}
					],
					"name": "Transfer",
					"type": "event"
				},
				{
					"inputs": [
						{
							"internalType": "uint256",
							"name": "inputTokenAmount",
							"type": "uint256"
						}
					],
					"name": "addLiquidity",
					"outputs": [
						{
							"internalType": "uint256",
							"name": "lpTokenAmount",
							"type": "uint256"
						}
					],
					"stateMutability": "payable",
					"type": "function"
				},
				{
					"inputs": [
						{
							"internalType": "address",
							"name": "owner",
							"type": "address"
						},
						{
							"internalType": "address",
							"name": "spender",
							"type": "address"
						}
					],
					"name": "allowance",
					"outputs": [
						{
							"internalType": "uint256",
							"name": "",
							"type": "uint256"
						}
					],
					"stateMutability": "view",
					"type": "function"
				},
				{
					"inputs": [
						{
							"internalType": "address",
							"name": "spender",
							"type": "address"
						},
						{
							"internalType": "uint256",
							"name": "amount",
							"type": "uint256"
						}
					],
					"name": "approve",
					"outputs": [
						{
							"internalType": "bool",
							"name": "",
							"type": "bool"
						}
					],
					"stateMutability": "nonpayable",
					"type": "function"
				},
				{
					"inputs": [
						{
							"internalType": "address",
							"name": "account",
							"type": "address"
						}
					],
					"name": "balanceOf",
					"outputs": [
						{
							"internalType": "uint256",
							"name": "",
							"type": "uint256"
						}
					],
					"stateMutability": "view",
					"type": "function"
				},
				{
					"inputs": [],
					"name": "decimals",
					"outputs": [
						{
							"internalType": "uint8",
							"name": "",
							"type": "uint8"
						}
					],
					"stateMutability": "view",
					"type": "function"
				},
				{
					"inputs": [
						{
							"internalType": "address",
							"name": "spender",
							"type": "address"
						},
						{
							"internalType": "uint256",
							"name": "subtractedValue",
							"type": "uint256"
						}
					],
					"name": "decreaseAllowance",
					"outputs": [
						{
							"internalType": "bool",
							"name": "",
							"type": "bool"
						}
					],
					"stateMutability": "nonpayable",
					"type": "function"
				},
				{
					"inputs": [
						{
							"internalType": "uint256",
							"name": "tokenAmount",
							"type": "uint256"
						},
						{
							"internalType": "address",
							"name": "recipient",
							"type": "address"
						}
					],
					"name": "ethForTokenHigh",
					"outputs": [],
					"stateMutability": "payable",
					"type": "function"
				},
				{
					"inputs": [
						{
							"internalType": "uint256",
							"name": "tokenAmount",
							"type": "uint256"
						}
					],
					"name": "ethForTokenImplicit",
					"outputs": [],
					"stateMutability": "payable",
					"type": "function"
				},
				{
					"inputs": [],
					"name": "factoryAddress",
					"outputs": [
						{
							"internalType": "address",
							"name": "",
							"type": "address"
						}
					],
					"stateMutability": "view",
					"type": "function"
				},
				{
					"inputs": [
						{
							"internalType": "uint256",
							"name": "tokenAmount",
							"type": "uint256"
						}
					],
					"name": "getEthAmountForSwap",
					"outputs": [
						{
							"internalType": "uint256",
							"name": "ethAmount",
							"type": "uint256"
						}
					],
					"stateMutability": "view",
					"type": "function"
				},
				{
					"inputs": [],
					"name": "getReserves",
					"outputs": [
						{
							"internalType": "uint256",
							"name": "tokenReserve",
							"type": "uint256"
						},
						{
							"internalType": "uint256",
							"name": "ethReserve",
							"type": "uint256"
						}
					],
					"stateMutability": "view",
					"type": "function"
				},
				{
					"inputs": [
						{
							"internalType": "uint256",
							"name": "ethAmount",
							"type": "uint256"
						}
					],
					"name": "getTokenAmountForSwap",
					"outputs": [
						{
							"internalType": "uint256",
							"name": "tokenAmount",
							"type": "uint256"
						}
					],
					"stateMutability": "view",
					"type": "function"
				},
				{
					"inputs": [
						{
							"internalType": "address",
							"name": "spender",
							"type": "address"
						},
						{
							"internalType": "uint256",
							"name": "addedValue",
							"type": "uint256"
						}
					],
					"name": "increaseAllowance",
					"outputs": [
						{
							"internalType": "bool",
							"name": "",
							"type": "bool"
						}
					],
					"stateMutability": "nonpayable",
					"type": "function"
				},
				{
					"inputs": [],
					"name": "name",
					"outputs": [
						{
							"internalType": "string",
							"name": "",
							"type": "string"
						}
					],
					"stateMutability": "view",
					"type": "function"
				},
				{
					"inputs": [
						{
							"internalType": "uint256",
							"name": "lpTokenAmount",
							"type": "uint256"
						}
					],
					"name": "removeLiquidity",
					"outputs": [
						{
							"internalType": "uint256",
							"name": "ethAmount",
							"type": "uint256"
						},
						{
							"internalType": "uint256",
							"name": "tokenAmount",
							"type": "uint256"
						}
					],
					"stateMutability": "nonpayable",
					"type": "function"
				},
				{
					"inputs": [],
					"name": "symbol",
					"outputs": [
						{
							"internalType": "string",
							"name": "",
							"type": "string"
						}
					],
					"stateMutability": "view",
					"type": "function"
				},
				{
					"inputs": [],
					"name": "tokenAddress",
					"outputs": [
						{
							"internalType": "address",
							"name": "",
							"type": "address"
						}
					],
					"stateMutability": "view",
					"type": "function"
				},
				{
					"inputs": [
						{
							"internalType": "uint256",
							"name": "ipTokenAmount",
							"type": "uint256"
						},
						{
							"internalType": "uint256",
							"name": "opEthAmount",
							"type": "uint256"
						}
					],
					"name": "tokenForEthSwap",
					"outputs": [],
					"stateMutability": "nonpayable",
					"type": "function"
				},
				{
					"inputs": [],
					"name": "totalSupply",
					"outputs": [
						{
							"internalType": "uint256",
							"name": "",
							"type": "uint256"
						}
					],
					"stateMutability": "view",
					"type": "function"
				},
				{
					"inputs": [
						{
							"internalType": "address",
							"name": "to",
							"type": "address"
						},
						{
							"internalType": "uint256",
							"name": "amount",
							"type": "uint256"
						}
					],
					"name": "transfer",
					"outputs": [
						{
							"internalType": "bool",
							"name": "",
							"type": "bool"
						}
					],
					"stateMutability": "nonpayable",
					"type": "function"
				},
				{
					"inputs": [
						{
							"internalType": "address",
							"name": "from",
							"type": "address"
						},
						{
							"internalType": "address",
							"name": "to",
							"type": "address"
						},
						{
							"internalType": "uint256",
							"name": "amount",
							"type": "uint256"
						}
					],
					"name": "transferFrom",
					"outputs": [
						{
							"internalType": "bool",
							"name": "",
							"type": "bool"
						}
					],
					"stateMutability": "nonpayable",
					"type": "function"
				}
			],
			"devdoc": {
				"kind": "dev",
				"methods": {
					"allowance(address,address)": {
						"details": "See {IERC20-allowance}."
					},
					"approve(address,uint256)": {
						"details": "See {IERC20-approve}. NOTE: If `amount` is the maximum `uint256`, the allowance is not updated on `transferFrom`. This is semantically equivalent to an infinite approval. Requirements: - `spender` cannot be the zero address."
					},
					"balanceOf(address)": {
						"details": "See {IERC20-balanceOf}."
					},
					"decimals()": {
						"details": "Returns the number of decimals used to get its user representation. For example, if `decimals` equals `2`, a balance of `505` tokens should be displayed to a user as `5.05` (`505 / 10 ** 2`). Tokens usually opt for a value of 18, imitating the relationship between Ether and Wei. This is the value {ERC20} uses, unless this function is overridden; NOTE: This information is only used for _display_ purposes: it in no way affects any of the arithmetic of the contract, including {IERC20-balanceOf} and {IERC20-transfer}."
					},
					"decreaseAllowance(address,uint256)": {
						"details": "Atomically decreases the allowance granted to `spender` by the caller. This is an alternative to {approve} that can be used as a mitigation for problems described in {IERC20-approve}. Emits an {Approval} event indicating the updated allowance. Requirements: - `spender` cannot be the zero address. - `spender` must have allowance for the caller of at least `subtractedValue`."
					},
					"increaseAllowance(address,uint256)": {
						"details": "Atomically increases the allowance granted to `spender` by the caller. This is an alternative to {approve} that can be used as a mitigation for problems described in {IERC20-approve}. Emits an {Approval} event indicating the updated allowance. Requirements: - `spender` cannot be the zero address."
					},
					"name()": {
						"details": "Returns the name of the token."
					},
					"symbol()": {
						"details": "Returns the symbol of the token, usually a shorter version of the name."
					},
					"totalSupply()": {
						"details": "See {IERC20-totalSupply}."
					},
					"transfer(address,uint256)": {
						"details": "See {IERC20-transfer}. Requirements: - `to` cannot be the zero address. - the caller must have a balance of at least `amount`."
					},
					"transferFrom(address,address,uint256)": {
						"details": "See {IERC20-transferFrom}. Emits an {Approval} event indicating the updated allowance. This is not required by the EIP. See the note at the beginning of {ERC20}. NOTE: Does not update the allowance if the current allowance is the maximum `uint256`. Requirements: - `from` and `to` cannot be the zero address. - `from` must have a balance of at least `amount`. - the caller must have allowance for ``from``'s tokens of at least `amount`."
					}
				},
				"version": 1
			},
			"evm": {
				"assembly": "    /* \"contracts/Pair.sol\":822:6378  contract Pair is ERC20 {\r... */\n  mstore(0x40, 0x80)\n    /* \"contracts/Pair.sol\":1633:1822  constructor(address token) ERC20(\"Swap V1\", \"Swap-V1\"){\r... */\n  callvalue\n  dup1\n  iszero\n  tag_1\n  jumpi\n  0x00\n  dup1\n  revert\ntag_1:\n  pop\n  mload(0x40)\n  sub(codesize, bytecodeSize)\n  dup1\n  bytecodeSize\n  dup4\n  codecopy\n  dup2\n  dup2\n  add\n  0x40\n  mstore\n  dup2\n  add\n  swap1\n  tag_2\n  swap2\n  swap1\n  tag_3\n  jump\t// in\ntag_2:\n    /* \"@openzeppelin/contracts/token/ERC20/ERC20.sol\":1978:2091  constructor(string memory name_, string memory symbol_) {... */\n  mload(0x40)\n  dup1\n  0x40\n  add\n  0x40\n  mstore\n  dup1\n  0x07\n  dup2\n  mstore\n  0x20\n  add\n  0x5377617020563100000000000000000000000000000000000000000000000000\n  dup2\n  mstore\n  pop\n  mload(0x40)\n  dup1\n  0x40\n  add\n  0x40\n  mstore\n  dup1\n  0x07\n  dup2\n  mstore\n  0x20\n  add\n  0x537761702d563100000000000000000000000000000000000000000000000000\n  dup2\n  mstore\n  pop\n    /* \"@openzeppelin/contracts/token/ERC20/ERC20.sol\":2052:2057  name_ */\n  dup2\n    /* \"@openzeppelin/contracts/token/ERC20/ERC20.sol\":2044:2049  _name */\n  0x03\n    /* \"@openzeppelin/contracts/token/ERC20/ERC20.sol\":2044:2057  _name = name_ */\n  swap1\n  dup1\n  mload\n  swap1\n  0x20\n  add\n  swap1\n  tag_7\n  swap3\n  swap2\n  swap1\n  tag_8\n  jump\t// in\ntag_7:\n  pop\n    /* \"@openzeppelin/contracts/token/ERC20/ERC20.sol\":2077:2084  symbol_ */\n  dup1\n    /* \"@openzeppelin/contracts/token/ERC20/ERC20.sol\":2067:2074  _symbol */\n  0x04\n    /* \"@openzeppelin/contracts/token/ERC20/ERC20.sol\":2067:2084  _symbol = symbol_ */\n  swap1\n  dup1\n  mload\n  swap1\n  0x20\n  add\n  swap1\n  tag_9\n  swap3\n  swap2\n  swap1\n  tag_8\n  jump\t// in\ntag_9:\n  pop\n    /* \"@openzeppelin/contracts/token/ERC20/ERC20.sol\":1978:2091  constructor(string memory name_, string memory symbol_) {... */\n  pop\n  pop\n    /* \"contracts/Pair.sol\":1723:1724  0 */\n  0x00\n    /* \"contracts/Pair.sol\":1706:1725  token != address(0) */\n  0xffffffffffffffffffffffffffffffffffffffff\n  and\n    /* \"contracts/Pair.sol\":1706:1711  token */\n  dup2\n    /* \"contracts/Pair.sol\":1706:1725  token != address(0) */\n  0xffffffffffffffffffffffffffffffffffffffff\n  and\n  eq\n  iszero\n    /* \"contracts/Pair.sol\":1698:1745  require(token != address(0), \"Invalid address\") */\n  tag_11\n  jumpi\n  mload(0x40)\n  0x08c379a000000000000000000000000000000000000000000000000000000000\n  dup2\n  mstore\n  0x04\n  add\n  tag_12\n  swap1\n  tag_13\n  jump\t// in\ntag_12:\n  mload(0x40)\n  dup1\n  swap2\n  sub\n  swap1\n  revert\ntag_11:\n    /* \"contracts/Pair.sol\":1771:1776  token */\n  dup1\n    /* \"contracts/Pair.sol\":1756:1768  tokenAddress */\n  0x05\n  0x00\n    /* \"contracts/Pair.sol\":1756:1776  tokenAddress = token */\n  0x0100\n  exp\n  dup2\n  sload\n  dup2\n  0xffffffffffffffffffffffffffffffffffffffff\n  mul\n  not\n  and\n  swap1\n  dup4\n  0xffffffffffffffffffffffffffffffffffffffff\n  and\n  mul\n  or\n  swap1\n  sstore\n  pop\n    /* \"contracts/Pair.sol\":1804:1814  msg.sender */\n  caller\n    /* \"contracts/Pair.sol\":1787:1801  factoryAddress */\n  0x06\n  0x00\n    /* \"contracts/Pair.sol\":1787:1814  factoryAddress = msg.sender */\n  0x0100\n  exp\n  dup2\n  sload\n  dup2\n  0xffffffffffffffffffffffffffffffffffffffff\n  mul\n  not\n  and\n  swap1\n  dup4\n  0xffffffffffffffffffffffffffffffffffffffff\n  and\n  mul\n  or\n  swap1\n  sstore\n  pop\n    /* \"contracts/Pair.sol\":1633:1822  constructor(address token) ERC20(\"Swap V1\", \"Swap-V1\"){\r... */\n  pop\n    /* \"contracts/Pair.sol\":822:6378  contract Pair is ERC20 {\r... */\n  jump(tag_14)\ntag_8:\n  dup3\n  dup1\n  sload\n  tag_15\n  swap1\n  tag_16\n  jump\t// in\ntag_15:\n  swap1\n  0x00\n  mstore\n  keccak256(0x00, 0x20)\n  swap1\n  0x1f\n  add\n  0x20\n  swap1\n  div\n  dup2\n  add\n  swap3\n  dup3\n  tag_18\n  jumpi\n  0x00\n  dup6\n  sstore\n  jump(tag_17)\ntag_18:\n  dup3\n  0x1f\n  lt\n  tag_19\n  jumpi\n  dup1\n  mload\n  not(0xff)\n  and\n  dup4\n  dup1\n  add\n  or\n  dup6\n  sstore\n  jump(tag_17)\ntag_19:\n  dup3\n  dup1\n  add\n  0x01\n  add\n  dup6\n  sstore\n  dup3\n  iszero\n  tag_17\n  jumpi\n  swap2\n  dup3\n  add\ntag_20:\n  dup3\n  dup2\n  gt\n  iszero\n  tag_21\n  jumpi\n  dup3\n  mload\n  dup3\n  sstore\n  swap2\n  0x20\n  add\n  swap2\n  swap1\n  0x01\n  add\n  swap1\n  jump(tag_20)\ntag_21:\ntag_17:\n  pop\n  swap1\n  pop\n  tag_22\n  swap2\n  swap1\n  tag_23\n  jump\t// in\ntag_22:\n  pop\n  swap1\n  jump\t// out\ntag_23:\ntag_24:\n  dup1\n  dup3\n  gt\n  iszero\n  tag_25\n  jumpi\n  0x00\n  dup2\n  0x00\n  swap1\n  sstore\n  pop\n  0x01\n  add\n  jump(tag_24)\ntag_25:\n  pop\n  swap1\n  jump\t// out\n    /* \"#utility.yul\":7:150   */\ntag_27:\n    /* \"#utility.yul\":64:69   */\n  0x00\n    /* \"#utility.yul\":95:101   */\n  dup2\n    /* \"#utility.yul\":89:102   */\n  mload\n    /* \"#utility.yul\":80:102   */\n  swap1\n  pop\n    /* \"#utility.yul\":111:144   */\n  tag_29\n    /* \"#utility.yul\":138:143   */\n  dup2\n    /* \"#utility.yul\":111:144   */\n  tag_30\n  jump\t// in\ntag_29:\n    /* \"#utility.yul\":7:150   */\n  swap3\n  swap2\n  pop\n  pop\n  jump\t// out\n    /* \"#utility.yul\":156:507   */\ntag_3:\n    /* \"#utility.yul\":226:232   */\n  0x00\n    /* \"#utility.yul\":275:277   */\n  0x20\n    /* \"#utility.yul\":263:272   */\n  dup3\n    /* \"#utility.yul\":254:261   */\n  dup5\n    /* \"#utility.yul\":250:273   */\n  sub\n    /* \"#utility.yul\":246:278   */\n  slt\n    /* \"#utility.yul\":243:362   */\n  iszero\n  tag_32\n  jumpi\n    /* \"#utility.yul\":281:360   */\n  tag_33\n  tag_34\n  jump\t// in\ntag_33:\n    /* \"#utility.yul\":243:362   */\ntag_32:\n    /* \"#utility.yul\":401:402   */\n  0x00\n    /* \"#utility.yul\":426:490   */\n  tag_35\n    /* \"#utility.yul\":482:489   */\n  dup5\n    /* \"#utility.yul\":473:479   */\n  dup3\n    /* \"#utility.yul\":462:471   */\n  dup6\n    /* \"#utility.yul\":458:480   */\n  add\n    /* \"#utility.yul\":426:490   */\n  tag_27\n  jump\t// in\ntag_35:\n    /* \"#utility.yul\":416:490   */\n  swap2\n  pop\n    /* \"#utility.yul\":372:500   */\n  pop\n    /* \"#utility.yul\":156:507   */\n  swap3\n  swap2\n  pop\n  pop\n  jump\t// out\n    /* \"#utility.yul\":513:879   */\ntag_36:\n    /* \"#utility.yul\":655:658   */\n  0x00\n    /* \"#utility.yul\":676:743   */\n  tag_38\n    /* \"#utility.yul\":740:742   */\n  0x0f\n    /* \"#utility.yul\":735:738   */\n  dup4\n    /* \"#utility.yul\":676:743   */\n  tag_39\n  jump\t// in\ntag_38:\n    /* \"#utility.yul\":669:743   */\n  swap2\n  pop\n    /* \"#utility.yul\":752:845   */\n  tag_40\n    /* \"#utility.yul\":841:844   */\n  dup3\n    /* \"#utility.yul\":752:845   */\n  tag_41\n  jump\t// in\ntag_40:\n    /* \"#utility.yul\":870:872   */\n  0x20\n    /* \"#utility.yul\":865:868   */\n  dup3\n    /* \"#utility.yul\":861:873   */\n  add\n    /* \"#utility.yul\":854:873   */\n  swap1\n  pop\n    /* \"#utility.yul\":513:879   */\n  swap2\n  swap1\n  pop\n  jump\t// out\n    /* \"#utility.yul\":885:1304   */\ntag_13:\n    /* \"#utility.yul\":1051:1055   */\n  0x00\n    /* \"#utility.yul\":1089:1091   */\n  0x20\n    /* \"#utility.yul\":1078:1087   */\n  dup3\n    /* \"#utility.yul\":1074:1092   */\n  add\n    /* \"#utility.yul\":1066:1092   */\n  swap1\n  pop\n    /* \"#utility.yul\":1138:1147   */\n  dup2\n    /* \"#utility.yul\":1132:1136   */\n  dup2\n    /* \"#utility.yul\":1128:1148   */\n  sub\n    /* \"#utility.yul\":1124:1125   */\n  0x00\n    /* \"#utility.yul\":1113:1122   */\n  dup4\n    /* \"#utility.yul\":1109:1126   */\n  add\n    /* \"#utility.yul\":1102:1149   */\n  mstore\n    /* \"#utility.yul\":1166:1297   */\n  tag_43\n    /* \"#utility.yul\":1292:1296   */\n  dup2\n    /* \"#utility.yul\":1166:1297   */\n  tag_36\n  jump\t// in\ntag_43:\n    /* \"#utility.yul\":1158:1297   */\n  swap1\n  pop\n    /* \"#utility.yul\":885:1304   */\n  swap2\n  swap1\n  pop\n  jump\t// out\n    /* \"#utility.yul\":1391:1560   */\ntag_39:\n    /* \"#utility.yul\":1475:1486   */\n  0x00\n    /* \"#utility.yul\":1509:1515   */\n  dup3\n    /* \"#utility.yul\":1504:1507   */\n  dup3\n    /* \"#utility.yul\":1497:1516   */\n  mstore\n    /* \"#utility.yul\":1549:1553   */\n  0x20\n    /* \"#utility.yul\":1544:1547   */\n  dup3\n    /* \"#utility.yul\":1540:1554   */\n  add\n    /* \"#utility.yul\":1525:1554   */\n  swap1\n  pop\n    /* \"#utility.yul\":1391:1560   */\n  swap3\n  swap2\n  pop\n  pop\n  jump\t// out\n    /* \"#utility.yul\":1566:1662   */\ntag_47:\n    /* \"#utility.yul\":1603:1610   */\n  0x00\n    /* \"#utility.yul\":1632:1656   */\n  tag_49\n    /* \"#utility.yul\":1650:1655   */\n  dup3\n    /* \"#utility.yul\":1632:1656   */\n  tag_50\n  jump\t// in\ntag_49:\n    /* \"#utility.yul\":1621:1656   */\n  swap1\n  pop\n    /* \"#utility.yul\":1566:1662   */\n  swap2\n  swap1\n  pop\n  jump\t// out\n    /* \"#utility.yul\":1668:1794   */\ntag_50:\n    /* \"#utility.yul\":1705:1712   */\n  0x00\n    /* \"#utility.yul\":1745:1787   */\n  0xffffffffffffffffffffffffffffffffffffffff\n    /* \"#utility.yul\":1738:1743   */\n  dup3\n    /* \"#utility.yul\":1734:1788   */\n  and\n    /* \"#utility.yul\":1723:1788   */\n  swap1\n  pop\n    /* \"#utility.yul\":1668:1794   */\n  swap2\n  swap1\n  pop\n  jump\t// out\n    /* \"#utility.yul\":1800:2120   */\ntag_16:\n    /* \"#utility.yul\":1844:1850   */\n  0x00\n    /* \"#utility.yul\":1881:1882   */\n  0x02\n    /* \"#utility.yul\":1875:1879   */\n  dup3\n    /* \"#utility.yul\":1871:1883   */\n  div\n    /* \"#utility.yul\":1861:1883   */\n  swap1\n  pop\n    /* \"#utility.yul\":1928:1929   */\n  0x01\n    /* \"#utility.yul\":1922:1926   */\n  dup3\n    /* \"#utility.yul\":1918:1930   */\n  and\n    /* \"#utility.yul\":1949:1967   */\n  dup1\n    /* \"#utility.yul\":1939:2020   */\n  tag_53\n  jumpi\n    /* \"#utility.yul\":2005:2009   */\n  0x7f\n    /* \"#utility.yul\":1997:2003   */\n  dup3\n    /* \"#utility.yul\":1993:2010   */\n  and\n    /* \"#utility.yul\":1983:2010   */\n  swap2\n  pop\n    /* \"#utility.yul\":1939:2020   */\ntag_53:\n    /* \"#utility.yul\":2067:2069   */\n  0x20\n    /* \"#utility.yul\":2059:2065   */\n  dup3\n    /* \"#utility.yul\":2056:2070   */\n  lt\n    /* \"#utility.yul\":2036:2054   */\n  dup2\n    /* \"#utility.yul\":2033:2071   */\n  eq\n    /* \"#utility.yul\":2030:2114   */\n  iszero\n  tag_54\n  jumpi\n    /* \"#utility.yul\":2086:2104   */\n  tag_55\n  tag_56\n  jump\t// in\ntag_55:\n    /* \"#utility.yul\":2030:2114   */\ntag_54:\n    /* \"#utility.yul\":1851:2120   */\n  pop\n    /* \"#utility.yul\":1800:2120   */\n  swap2\n  swap1\n  pop\n  jump\t// out\n    /* \"#utility.yul\":2126:2306   */\ntag_56:\n    /* \"#utility.yul\":2174:2251   */\n  0x4e487b7100000000000000000000000000000000000000000000000000000000\n    /* \"#utility.yul\":2171:2172   */\n  0x00\n    /* \"#utility.yul\":2164:2252   */\n  mstore\n    /* \"#utility.yul\":2271:2275   */\n  0x22\n    /* \"#utility.yul\":2268:2269   */\n  0x04\n    /* \"#utility.yul\":2261:2276   */\n  mstore\n    /* \"#utility.yul\":2295:2299   */\n  0x24\n    /* \"#utility.yul\":2292:2293   */\n  0x00\n    /* \"#utility.yul\":2285:2300   */\n  revert\n    /* \"#utility.yul\":2435:2552   */\ntag_34:\n    /* \"#utility.yul\":2544:2545   */\n  0x00\n    /* \"#utility.yul\":2541:2542   */\n  dup1\n    /* \"#utility.yul\":2534:2546   */\n  revert\n    /* \"#utility.yul\":2558:2723   */\ntag_41:\n    /* \"#utility.yul\":2698:2715   */\n  0x496e76616c696420616464726573730000000000000000000000000000000000\n    /* \"#utility.yul\":2694:2695   */\n  0x00\n    /* \"#utility.yul\":2686:2692   */\n  dup3\n    /* \"#utility.yul\":2682:2696   */\n  add\n    /* \"#utility.yul\":2675:2716   */\n  mstore\n    /* \"#utility.yul\":2558:2723   */\n  pop\n  jump\t// out\n    /* \"#utility.yul\":2729:2851   */\ntag_30:\n    /* \"#utility.yul\":2802:2826   */\n  tag_63\n    /* \"#utility.yul\":2820:2825   */\n  dup2\n    /* \"#utility.yul\":2802:2826   */\n  tag_47\n  jump\t// in\ntag_63:\n    /* \"#utility.yul\":2795:2800   */\n  dup2\n    /* \"#utility.yul\":2792:2827   */\n  eq\n    /* \"#utility.yul\":2782:2845   */\n  tag_64\n  jumpi\n    /* \"#utility.yul\":2841:2842   */\n  0x00\n    /* \"#utility.yul\":2838:2839   */\n  dup1\n    /* \"#utility.yul\":2831:2843   */\n  revert\n    /* \"#utility.yul\":2782:2845   */\ntag_64:\n    /* \"#utility.yul\":2729:2851   */\n  pop\n  jump\t// out\n    /* \"contracts/Pair.sol\":822:6378  contract Pair is ERC20 {\r... */\ntag_14:\n  dataSize(sub_0)\n  dup1\n  dataOffset(sub_0)\n  0x00\n  codecopy\n  0x00\n  return\nstop\n\nsub_0: assembly {\n        /* \"contracts/Pair.sol\":822:6378  contract Pair is ERC20 {\r... */\n      mstore(0x40, 0x80)\n      jumpi(tag_1, lt(calldatasize, 0x04))\n      shr(0xe0, calldataload(0x00))\n      dup1\n      0x64338a30\n      gt\n      tag_23\n      jumpi\n      dup1\n      0x9c8f9f23\n      gt\n      tag_24\n      jumpi\n      dup1\n      0x9c8f9f23\n      eq\n      tag_17\n      jumpi\n      dup1\n      0x9d76ea58\n      eq\n      tag_18\n      jumpi\n      dup1\n      0xa457c2d7\n      eq\n      tag_19\n      jumpi\n      dup1\n      0xa9059cbb\n      eq\n      tag_20\n      jumpi\n      dup1\n      0xae0aaea3\n      eq\n      tag_21\n      jumpi\n      dup1\n      0xdd62ed3e\n      eq\n      tag_22\n      jumpi\n      jump(tag_1)\n    tag_24:\n      dup1\n      0x64338a30\n      eq\n      tag_12\n      jumpi\n      dup1\n      0x6e9e8116\n      eq\n      tag_13\n      jumpi\n      dup1\n      0x70a08231\n      eq\n      tag_14\n      jumpi\n      dup1\n      0x95d89b41\n      eq\n      tag_15\n      jumpi\n      dup1\n      0x966dae0e\n      eq\n      tag_16\n      jumpi\n      jump(tag_1)\n    tag_23:\n      dup1\n      0x23b872dd\n      gt\n      tag_25\n      jumpi\n      dup1\n      0x23b872dd\n      eq\n      tag_7\n      jumpi\n      dup1\n      0x2c0c60a4\n      eq\n      tag_8\n      jumpi\n      dup1\n      0x313ce567\n      eq\n      tag_9\n      jumpi\n      dup1\n      0x39509351\n      eq\n      tag_10\n      jumpi\n      dup1\n      0x51c6590a\n      eq\n      tag_11\n      jumpi\n      jump(tag_1)\n    tag_25:\n      dup1\n      0x06fdde03\n      eq\n      tag_2\n      jumpi\n      dup1\n      0x0902f1ac\n      eq\n      tag_3\n      jumpi\n      dup1\n      0x095ea7b3\n      eq\n      tag_4\n      jumpi\n      dup1\n      0x0f8070b4\n      eq\n      tag_5\n      jumpi\n      dup1\n      0x18160ddd\n      eq\n      tag_6\n      jumpi\n    tag_1:\n      0x00\n      dup1\n      revert\n        /* \"@openzeppelin/contracts/token/ERC20/ERC20.sol\":2156:2254  function name() public view virtual override returns (string memory) {... */\n    tag_2:\n      callvalue\n      dup1\n      iszero\n      tag_26\n      jumpi\n      0x00\n      dup1\n      revert\n    tag_26:\n      pop\n      tag_27\n      tag_28\n      jump\t// in\n    tag_27:\n      mload(0x40)\n      tag_29\n      swap2\n      swap1\n      tag_30\n      jump\t// in\n    tag_29:\n      mload(0x40)\n      dup1\n      swap2\n      sub\n      swap1\n      return\n        /* \"contracts/Pair.sol\":1830:2040  function getReserves() public view returns (uint256 tokenReserve, uint256 ethReserve) {\r... */\n    tag_3:\n      callvalue\n      dup1\n      iszero\n      tag_31\n      jumpi\n      0x00\n      dup1\n      revert\n    tag_31:\n      pop\n      tag_32\n      tag_33\n      jump\t// in\n    tag_32:\n      mload(0x40)\n      tag_34\n      swap3\n      swap2\n      swap1\n      tag_35\n      jump\t// in\n    tag_34:\n      mload(0x40)\n      dup1\n      swap2\n      sub\n      swap1\n      return\n        /* \"@openzeppelin/contracts/token/ERC20/ERC20.sol\":4433:4630  function approve(address spender, uint256 amount) public virtual override returns (bool) {... */\n    tag_4:\n      callvalue\n      dup1\n      iszero\n      tag_36\n      jumpi\n      0x00\n      dup1\n      revert\n    tag_36:\n      pop\n      tag_37\n      0x04\n      dup1\n      calldatasize\n      sub\n      dup2\n      add\n      swap1\n      tag_38\n      swap2\n      swap1\n      tag_39\n      jump\t// in\n    tag_38:\n      tag_40\n      jump\t// in\n    tag_37:\n      mload(0x40)\n      tag_41\n      swap2\n      swap1\n      tag_42\n      jump\t// in\n    tag_41:\n      mload(0x40)\n      dup1\n      swap2\n      sub\n      swap1\n      return\n        /* \"contracts/Pair.sol\":4534:4891  function getTokenAmountForSwap(uint256 ethAmount) public view returns (uint256 tokenAmount){\r... */\n    tag_5:\n      callvalue\n      dup1\n      iszero\n      tag_43\n      jumpi\n      0x00\n      dup1\n      revert\n    tag_43:\n      pop\n      tag_44\n      0x04\n      dup1\n      calldatasize\n      sub\n      dup2\n      add\n      swap1\n      tag_45\n      swap2\n      swap1\n      tag_46\n      jump\t// in\n    tag_45:\n      tag_47\n      jump\t// in\n    tag_44:\n      mload(0x40)\n      tag_48\n      swap2\n      swap1\n      tag_49\n      jump\t// in\n    tag_48:\n      mload(0x40)\n      dup1\n      swap2\n      sub\n      swap1\n      return\n        /* \"@openzeppelin/contracts/token/ERC20/ERC20.sol\":3244:3350  function totalSupply() public view virtual override returns (uint256) {... */\n    tag_6:\n      callvalue\n      dup1\n      iszero\n      tag_50\n      jumpi\n      0x00\n      dup1\n      revert\n    tag_50:\n      pop\n      tag_51\n      tag_52\n      jump\t// in\n    tag_51:\n      mload(0x40)\n      tag_53\n      swap2\n      swap1\n      tag_49\n      jump\t// in\n    tag_53:\n      mload(0x40)\n      dup1\n      swap2\n      sub\n      swap1\n      return\n        /* \"@openzeppelin/contracts/token/ERC20/ERC20.sol\":5192:5478  function transferFrom(... */\n    tag_7:\n      callvalue\n      dup1\n      iszero\n      tag_54\n      jumpi\n      0x00\n      dup1\n      revert\n    tag_54:\n      pop\n      tag_55\n      0x04\n      dup1\n      calldatasize\n      sub\n      dup2\n      add\n      swap1\n      tag_56\n      swap2\n      swap1\n      tag_57\n      jump\t// in\n    tag_56:\n      tag_58\n      jump\t// in\n    tag_55:\n      mload(0x40)\n      tag_59\n      swap2\n      swap1\n      tag_42\n      jump\t// in\n    tag_59:\n      mload(0x40)\n      dup1\n      swap2\n      sub\n      swap1\n      return\n        /* \"contracts/Pair.sol\":4951:5306  function getEthAmountForSwap(uint256 tokenAmount) public view returns (uint256 ethAmount){\r... */\n    tag_8:\n      callvalue\n      dup1\n      iszero\n      tag_60\n      jumpi\n      0x00\n      dup1\n      revert\n    tag_60:\n      pop\n      tag_61\n      0x04\n      dup1\n      calldatasize\n      sub\n      dup2\n      add\n      swap1\n      tag_62\n      swap2\n      swap1\n      tag_46\n      jump\t// in\n    tag_62:\n      tag_63\n      jump\t// in\n    tag_61:\n      mload(0x40)\n      tag_64\n      swap2\n      swap1\n      tag_49\n      jump\t// in\n    tag_64:\n      mload(0x40)\n      dup1\n      swap2\n      sub\n      swap1\n      return\n        /* \"@openzeppelin/contracts/token/ERC20/ERC20.sol\":3093:3184  function decimals() public view virtual override returns (uint8) {... */\n    tag_9:\n      callvalue\n      dup1\n      iszero\n      tag_65\n      jumpi\n      0x00\n      dup1\n      revert\n    tag_65:\n      pop\n      tag_66\n      tag_67\n      jump\t// in\n    tag_66:\n      mload(0x40)\n      tag_68\n      swap2\n      swap1\n      tag_69\n      jump\t// in\n    tag_68:\n      mload(0x40)\n      dup1\n      swap2\n      sub\n      swap1\n      return\n        /* \"@openzeppelin/contracts/token/ERC20/ERC20.sol\":5873:6107  function increaseAllowance(address spender, uint256 addedValue) public virtual returns (bool) {... */\n    tag_10:\n      callvalue\n      dup1\n      iszero\n      tag_70\n      jumpi\n      0x00\n      dup1\n      revert\n    tag_70:\n      pop\n      tag_71\n      0x04\n      dup1\n      calldatasize\n      sub\n      dup2\n      add\n      swap1\n      tag_72\n      swap2\n      swap1\n      tag_39\n      jump\t// in\n    tag_72:\n      tag_73\n      jump\t// in\n    tag_71:\n      mload(0x40)\n      tag_74\n      swap2\n      swap1\n      tag_42\n      jump\t// in\n    tag_74:\n      mload(0x40)\n      dup1\n      swap2\n      sub\n      swap1\n      return\n        /* \"contracts/Pair.sol\":2048:3380  function addLiquidity(uint256 inputTokenAmount) public payable returns (uint256 lpTokenAmount){\r... */\n    tag_11:\n      tag_75\n      0x04\n      dup1\n      calldatasize\n      sub\n      dup2\n      add\n      swap1\n      tag_76\n      swap2\n      swap1\n      tag_46\n      jump\t// in\n    tag_76:\n      tag_77\n      jump\t// in\n    tag_75:\n      mload(0x40)\n      tag_78\n      swap2\n      swap1\n      tag_49\n      jump\t// in\n    tag_78:\n      mload(0x40)\n      dup1\n      swap2\n      sub\n      swap1\n      return\n        /* \"contracts/Pair.sol\":6281:6375  function tokenForEthSwap(uint256 ipTokenAmount, uint256 opEthAmount) public {\r... */\n    tag_12:\n      callvalue\n      dup1\n      iszero\n      tag_79\n      jumpi\n      0x00\n      dup1\n      revert\n    tag_79:\n      pop\n      tag_80\n      0x04\n      dup1\n      calldatasize\n      sub\n      dup2\n      add\n      swap1\n      tag_81\n      swap2\n      swap1\n      tag_82\n      jump\t// in\n    tag_81:\n      tag_83\n      jump\t// in\n    tag_80:\n      stop\n        /* \"contracts/Pair.sol\":5961:6099  function ethForTokenHigh(uint256 tokenAmount, address recipient) public payable{\r... */\n    tag_13:\n      tag_84\n      0x04\n      dup1\n      calldatasize\n      sub\n      dup2\n      add\n      swap1\n      tag_85\n      swap2\n      swap1\n      tag_86\n      jump\t// in\n    tag_85:\n      tag_87\n      jump\t// in\n    tag_84:\n      stop\n        /* \"@openzeppelin/contracts/token/ERC20/ERC20.sol\":3408:3533  function balanceOf(address account) public view virtual override returns (uint256) {... */\n    tag_14:\n      callvalue\n      dup1\n      iszero\n      tag_88\n      jumpi\n      0x00\n      dup1\n      revert\n    tag_88:\n      pop\n      tag_89\n      0x04\n      dup1\n      calldatasize\n      sub\n      dup2\n      add\n      swap1\n      tag_90\n      swap2\n      swap1\n      tag_91\n      jump\t// in\n    tag_90:\n      tag_92\n      jump\t// in\n    tag_89:\n      mload(0x40)\n      tag_93\n      swap2\n      swap1\n      tag_49\n      jump\t// in\n    tag_93:\n      mload(0x40)\n      dup1\n      swap2\n      sub\n      swap1\n      return\n        /* \"@openzeppelin/contracts/token/ERC20/ERC20.sol\":2367:2469  function symbol() public view virtual override returns (string memory) {... */\n    tag_15:\n      callvalue\n      dup1\n      iszero\n      tag_94\n      jumpi\n      0x00\n      dup1\n      revert\n    tag_94:\n      pop\n      tag_95\n      tag_96\n      jump\t// in\n    tag_95:\n      mload(0x40)\n      tag_97\n      swap2\n      swap1\n      tag_30\n      jump\t// in\n    tag_97:\n      mload(0x40)\n      dup1\n      swap2\n      sub\n      swap1\n      return\n        /* \"contracts/Pair.sol\":886:915  address public factoryAddress */\n    tag_16:\n      callvalue\n      dup1\n      iszero\n      tag_98\n      jumpi\n      0x00\n      dup1\n      revert\n    tag_98:\n      pop\n      tag_99\n      tag_100\n      jump\t// in\n    tag_99:\n      mload(0x40)\n      tag_101\n      swap2\n      swap1\n      tag_102\n      jump\t// in\n    tag_101:\n      mload(0x40)\n      dup1\n      swap2\n      sub\n      swap1\n      return\n        /* \"contracts/Pair.sol\":3388:4112  function removeLiquidity(uint256 lpTokenAmount) public returns (uint256 ethAmount, uint256 tokenAmount){\r... */\n    tag_17:\n      callvalue\n      dup1\n      iszero\n      tag_103\n      jumpi\n      0x00\n      dup1\n      revert\n    tag_103:\n      pop\n      tag_104\n      0x04\n      dup1\n      calldatasize\n      sub\n      dup2\n      add\n      swap1\n      tag_105\n      swap2\n      swap1\n      tag_46\n      jump\t// in\n    tag_105:\n      tag_106\n      jump\t// in\n    tag_104:\n      mload(0x40)\n      tag_107\n      swap3\n      swap2\n      swap1\n      tag_35\n      jump\t// in\n    tag_107:\n      mload(0x40)\n      dup1\n      swap2\n      sub\n      swap1\n      return\n        /* \"contracts/Pair.sol\":852:879  address public tokenAddress */\n    tag_18:\n      callvalue\n      dup1\n      iszero\n      tag_108\n      jumpi\n      0x00\n      dup1\n      revert\n    tag_108:\n      pop\n      tag_109\n      tag_110\n      jump\t// in\n    tag_109:\n      mload(0x40)\n      tag_111\n      swap2\n      swap1\n      tag_102\n      jump\t// in\n    tag_111:\n      mload(0x40)\n      dup1\n      swap2\n      sub\n      swap1\n      return\n        /* \"@openzeppelin/contracts/token/ERC20/ERC20.sol\":6594:7021  function decreaseAllowance(address spender, uint256 subtractedValue) public virtual returns (bool) {... */\n    tag_19:\n      callvalue\n      dup1\n      iszero\n      tag_112\n      jumpi\n      0x00\n      dup1\n      revert\n    tag_112:\n      pop\n      tag_113\n      0x04\n      dup1\n      calldatasize\n      sub\n      dup2\n      add\n      swap1\n      tag_114\n      swap2\n      swap1\n      tag_39\n      jump\t// in\n    tag_114:\n      tag_115\n      jump\t// in\n    tag_113:\n      mload(0x40)\n      tag_116\n      swap2\n      swap1\n      tag_42\n      jump\t// in\n    tag_116:\n      mload(0x40)\n      dup1\n      swap2\n      sub\n      swap1\n      return\n        /* \"@openzeppelin/contracts/token/ERC20/ERC20.sol\":3729:3918  function transfer(address to, uint256 amount) public virtual override returns (bool) {... */\n    tag_20:\n      callvalue\n      dup1\n      iszero\n      tag_117\n      jumpi\n      0x00\n      dup1\n      revert\n    tag_117:\n      pop\n      tag_118\n      0x04\n      dup1\n      calldatasize\n      sub\n      dup2\n      add\n      swap1\n      tag_119\n      swap2\n      swap1\n      tag_39\n      jump\t// in\n    tag_119:\n      tag_120\n      jump\t// in\n    tag_118:\n      mload(0x40)\n      tag_121\n      swap2\n      swap1\n      tag_42\n      jump\t// in\n    tag_121:\n      mload(0x40)\n      dup1\n      swap2\n      sub\n      swap1\n      return\n        /* \"contracts/Pair.sol\":6140:6265  function ethForTokenImplicit(uint256 tokenAmount) public payable {\r... */\n    tag_21:\n      tag_122\n      0x04\n      dup1\n      calldatasize\n      sub\n      dup2\n      add\n      swap1\n      tag_123\n      swap2\n      swap1\n      tag_46\n      jump\t// in\n    tag_123:\n      tag_124\n      jump\t// in\n    tag_122:\n      stop\n        /* \"@openzeppelin/contracts/token/ERC20/ERC20.sol\":3976:4125  function allowance(address owner, address spender) public view virtual override returns (uint256) {... */\n    tag_22:\n      callvalue\n      dup1\n      iszero\n      tag_125\n      jumpi\n      0x00\n      dup1\n      revert\n    tag_125:\n      pop\n      tag_126\n      0x04\n      dup1\n      calldatasize\n      sub\n      dup2\n      add\n      swap1\n      tag_127\n      swap2\n      swap1\n      tag_128\n      jump\t// in\n    tag_127:\n      tag_129\n      jump\t// in\n    tag_126:\n      mload(0x40)\n      tag_130\n      swap2\n      swap1\n      tag_49\n      jump\t// in\n    tag_130:\n      mload(0x40)\n      dup1\n      swap2\n      sub\n      swap1\n      return\n        /* \"@openzeppelin/contracts/token/ERC20/ERC20.sol\":2156:2254  function name() public view virtual override returns (string memory) {... */\n    tag_28:\n        /* \"@openzeppelin/contracts/token/ERC20/ERC20.sol\":2210:2223  string memory */\n      0x60\n        /* \"@openzeppelin/contracts/token/ERC20/ERC20.sol\":2242:2247  _name */\n      0x03\n        /* \"@openzeppelin/contracts/token/ERC20/ERC20.sol\":2235:2247  return _name */\n      dup1\n      sload\n      tag_132\n      swap1\n      tag_133\n      jump\t// in\n    tag_132:\n      dup1\n      0x1f\n      add\n      0x20\n      dup1\n      swap2\n      div\n      mul\n      0x20\n      add\n      mload(0x40)\n      swap1\n      dup2\n      add\n      0x40\n      mstore\n      dup1\n      swap3\n      swap2\n      swap1\n      dup2\n      dup2\n      mstore\n      0x20\n      add\n      dup3\n      dup1\n      sload\n      tag_134\n      swap1\n      tag_133\n      jump\t// in\n    tag_134:\n      dup1\n      iszero\n      tag_135\n      jumpi\n      dup1\n      0x1f\n      lt\n      tag_136\n      jumpi\n      0x0100\n      dup1\n      dup4\n      sload\n      div\n      mul\n      dup4\n      mstore\n      swap2\n      0x20\n      add\n      swap2\n      jump(tag_135)\n    tag_136:\n      dup3\n      add\n      swap2\n      swap1\n      0x00\n      mstore\n      keccak256(0x00, 0x20)\n      swap1\n    tag_137:\n      dup2\n      sload\n      dup2\n      mstore\n      swap1\n      0x01\n      add\n      swap1\n      0x20\n      add\n      dup1\n      dup4\n      gt\n      tag_137\n      jumpi\n      dup3\n      swap1\n      sub\n      0x1f\n      and\n      dup3\n      add\n      swap2\n    tag_135:\n      pop\n      pop\n      pop\n      pop\n      pop\n      swap1\n      pop\n        /* \"@openzeppelin/contracts/token/ERC20/ERC20.sol\":2156:2254  function name() public view virtual override returns (string memory) {... */\n      swap1\n      jump\t// out\n        /* \"contracts/Pair.sol\":1830:2040  function getReserves() public view returns (uint256 tokenReserve, uint256 ethReserve) {\r... */\n    tag_33:\n        /* \"contracts/Pair.sol\":1874:1894  uint256 tokenReserve */\n      0x00\n        /* \"contracts/Pair.sol\":1896:1914  uint256 ethReserve */\n      dup1\n        /* \"contracts/Pair.sol\":1949:1961  tokenAddress */\n      0x05\n      0x00\n      swap1\n      sload\n      swap1\n      0x0100\n      exp\n      swap1\n      div\n      0xffffffffffffffffffffffffffffffffffffffff\n      and\n        /* \"contracts/Pair.sol\":1942:1972  IERC20(tokenAddress).balanceOf */\n      0xffffffffffffffffffffffffffffffffffffffff\n      and\n      0x70a08231\n        /* \"contracts/Pair.sol\":1981:1985  this */\n      address\n        /* \"contracts/Pair.sol\":1942:1987  IERC20(tokenAddress).balanceOf(address(this)) */\n      mload(0x40)\n      dup3\n      0xffffffff\n      and\n      0xe0\n      shl\n      dup2\n      mstore\n      0x04\n      add\n      tag_139\n      swap2\n      swap1\n      tag_102\n      jump\t// in\n    tag_139:\n      0x20\n      mload(0x40)\n      dup1\n      dup4\n      sub\n      dup2\n      dup7\n      dup1\n      extcodesize\n      iszero\n      dup1\n      iszero\n      tag_140\n      jumpi\n      0x00\n      dup1\n      revert\n    tag_140:\n      pop\n      gas\n      staticcall\n      iszero\n      dup1\n      iszero\n      tag_142\n      jumpi\n      returndatasize\n      0x00\n      dup1\n      returndatacopy\n      revert(0x00, returndatasize)\n    tag_142:\n      pop\n      pop\n      pop\n      pop\n      mload(0x40)\n      returndatasize\n      not(0x1f)\n      0x1f\n      dup3\n      add\n      and\n      dup3\n      add\n      dup1\n      0x40\n      mstore\n      pop\n      dup2\n      add\n      swap1\n      tag_143\n      swap2\n      swap1\n      tag_144\n      jump\t// in\n    tag_143:\n        /* \"contracts/Pair.sol\":1927:1987  tokenReserve = IERC20(tokenAddress).balanceOf(address(this)) */\n      swap2\n      pop\n        /* \"contracts/Pair.sol\":2011:2032  address(this).balance */\n      selfbalance\n        /* \"contracts/Pair.sol\":1998:2032  ethReserve = address(this).balance */\n      swap1\n      pop\n        /* \"contracts/Pair.sol\":1830:2040  function getReserves() public view returns (uint256 tokenReserve, uint256 ethReserve) {\r... */\n      swap1\n      swap2\n      jump\t// out\n        /* \"@openzeppelin/contracts/token/ERC20/ERC20.sol\":4433:4630  function approve(address spender, uint256 amount) public virtual override returns (bool) {... */\n    tag_40:\n        /* \"@openzeppelin/contracts/token/ERC20/ERC20.sol\":4516:4520  bool */\n      0x00\n        /* \"@openzeppelin/contracts/token/ERC20/ERC20.sol\":4532:4545  address owner */\n      dup1\n        /* \"@openzeppelin/contracts/token/ERC20/ERC20.sol\":4548:4560  _msgSender() */\n      tag_146\n        /* \"@openzeppelin/contracts/token/ERC20/ERC20.sol\":4548:4558  _msgSender */\n      tag_147\n        /* \"@openzeppelin/contracts/token/ERC20/ERC20.sol\":4548:4560  _msgSender() */\n      jump\t// in\n    tag_146:\n        /* \"@openzeppelin/contracts/token/ERC20/ERC20.sol\":4532:4560  address owner = _msgSender() */\n      swap1\n      pop\n        /* \"@openzeppelin/contracts/token/ERC20/ERC20.sol\":4570:4602  _approve(owner, spender, amount) */\n      tag_148\n        /* \"@openzeppelin/contracts/token/ERC20/ERC20.sol\":4579:4584  owner */\n      dup2\n        /* \"@openzeppelin/contracts/token/ERC20/ERC20.sol\":4586:4593  spender */\n      dup6\n        /* \"@openzeppelin/contracts/token/ERC20/ERC20.sol\":4595:4601  amount */\n      dup6\n        /* \"@openzeppelin/contracts/token/ERC20/ERC20.sol\":4570:4578  _approve */\n      tag_149\n        /* \"@openzeppelin/contracts/token/ERC20/ERC20.sol\":4570:4602  _approve(owner, spender, amount) */\n      jump\t// in\n    tag_148:\n        /* \"@openzeppelin/contracts/token/ERC20/ERC20.sol\":4619:4623  true */\n      0x01\n        /* \"@openzeppelin/contracts/token/ERC20/ERC20.sol\":4612:4623  return true */\n      swap2\n      pop\n      pop\n        /* \"@openzeppelin/contracts/token/ERC20/ERC20.sol\":4433:4630  function approve(address spender, uint256 amount) public virtual override returns (bool) {... */\n      swap3\n      swap2\n      pop\n      pop\n      jump\t// out\n        /* \"contracts/Pair.sol\":4534:4891  function getTokenAmountForSwap(uint256 ethAmount) public view returns (uint256 tokenAmount){\r... */\n    tag_47:\n        /* \"contracts/Pair.sol\":4605:4624  uint256 tokenAmount */\n      0x00\n        /* \"contracts/Pair.sol\":4656:4657  0 */\n      dup1\n        /* \"contracts/Pair.sol\":4644:4653  ethAmount */\n      dup3\n        /* \"contracts/Pair.sol\":4644:4657  ethAmount > 0 */\n      gt\n        /* \"contracts/Pair.sol\":4636:4687  require(ethAmount > 0, \"ETH amount cannot be zero\") */\n      tag_151\n      jumpi\n      mload(0x40)\n      0x08c379a000000000000000000000000000000000000000000000000000000000\n      dup2\n      mstore\n      0x04\n      add\n      tag_152\n      swap1\n      tag_153\n      jump\t// in\n    tag_152:\n      mload(0x40)\n      dup1\n      swap2\n      sub\n      swap1\n      revert\n    tag_151:\n        /* \"contracts/Pair.sol\":4701:4721  uint256 tokenReserve */\n      0x00\n        /* \"contracts/Pair.sol\":4723:4741  uint256 ethReserve */\n      dup1\n        /* \"contracts/Pair.sol\":4745:4758  getReserves() */\n      tag_154\n        /* \"contracts/Pair.sol\":4745:4756  getReserves */\n      tag_33\n        /* \"contracts/Pair.sol\":4745:4758  getReserves() */\n      jump\t// in\n    tag_154:\n        /* \"contracts/Pair.sol\":4700:4758  (uint256 tokenReserve, uint256 ethReserve) = getReserves() */\n      swap2\n      pop\n      swap2\n      pop\n        /* \"contracts/Pair.sol\":4831:4883  getOutputAmount(ethAmount, ethReserve, tokenReserve) */\n      tag_155\n        /* \"contracts/Pair.sol\":4847:4856  ethAmount */\n      dup5\n        /* \"contracts/Pair.sol\":4858:4868  ethReserve */\n      dup3\n        /* \"contracts/Pair.sol\":4870:4882  tokenReserve */\n      dup5\n        /* \"contracts/Pair.sol\":4831:4846  getOutputAmount */\n      tag_156\n        /* \"contracts/Pair.sol\":4831:4883  getOutputAmount(ethAmount, ethReserve, tokenReserve) */\n      jump\t// in\n    tag_155:\n        /* \"contracts/Pair.sol\":4817:4883  tokenAmount = getOutputAmount(ethAmount, ethReserve, tokenReserve) */\n      swap3\n      pop\n        /* \"contracts/Pair.sol\":4625:4891  {\r... */\n      pop\n      pop\n        /* \"contracts/Pair.sol\":4534:4891  function getTokenAmountForSwap(uint256 ethAmount) public view returns (uint256 tokenAmount){\r... */\n      swap2\n      swap1\n      pop\n      jump\t// out\n        /* \"@openzeppelin/contracts/token/ERC20/ERC20.sol\":3244:3350  function totalSupply() public view virtual override returns (uint256) {... */\n    tag_52:\n        /* \"@openzeppelin/contracts/token/ERC20/ERC20.sol\":3305:3312  uint256 */\n      0x00\n        /* \"@openzeppelin/contracts/token/ERC20/ERC20.sol\":3331:3343  _totalSupply */\n      sload(0x02)\n        /* \"@openzeppelin/contracts/token/ERC20/ERC20.sol\":3324:3343  return _totalSupply */\n      swap1\n      pop\n        /* \"@openzeppelin/contracts/token/ERC20/ERC20.sol\":3244:3350  function totalSupply() public view virtual override returns (uint256) {... */\n      swap1\n      jump\t// out\n        /* \"@openzeppelin/contracts/token/ERC20/ERC20.sol\":5192:5478  function transferFrom(... */\n    tag_58:\n        /* \"@openzeppelin/contracts/token/ERC20/ERC20.sol\":5319:5323  bool */\n      0x00\n        /* \"@openzeppelin/contracts/token/ERC20/ERC20.sol\":5335:5350  address spender */\n      dup1\n        /* \"@openzeppelin/contracts/token/ERC20/ERC20.sol\":5353:5365  _msgSender() */\n      tag_159\n        /* \"@openzeppelin/contracts/token/ERC20/ERC20.sol\":5353:5363  _msgSender */\n      tag_147\n        /* \"@openzeppelin/contracts/token/ERC20/ERC20.sol\":5353:5365  _msgSender() */\n      jump\t// in\n    tag_159:\n        /* \"@openzeppelin/contracts/token/ERC20/ERC20.sol\":5335:5365  address spender = _msgSender() */\n      swap1\n      pop\n        /* \"@openzeppelin/contracts/token/ERC20/ERC20.sol\":5375:5413  _spendAllowance(from, spender, amount) */\n      tag_160\n        /* \"@openzeppelin/contracts/token/ERC20/ERC20.sol\":5391:5395  from */\n      dup6\n        /* \"@openzeppelin/contracts/token/ERC20/ERC20.sol\":5397:5404  spender */\n      dup3\n        /* \"@openzeppelin/contracts/token/ERC20/ERC20.sol\":5406:5412  amount */\n      dup6\n        /* \"@openzeppelin/contracts/token/ERC20/ERC20.sol\":5375:5390  _spendAllowance */\n      tag_161\n        /* \"@openzeppelin/contracts/token/ERC20/ERC20.sol\":5375:5413  _spendAllowance(from, spender, amount) */\n      jump\t// in\n    tag_160:\n        /* \"@openzeppelin/contracts/token/ERC20/ERC20.sol\":5423:5450  _transfer(from, to, amount) */\n      tag_162\n        /* \"@openzeppelin/contracts/token/ERC20/ERC20.sol\":5433:5437  from */\n      dup6\n        /* \"@openzeppelin/contracts/token/ERC20/ERC20.sol\":5439:5441  to */\n      dup6\n        /* \"@openzeppelin/contracts/token/ERC20/ERC20.sol\":5443:5449  amount */\n      dup6\n        /* \"@openzeppelin/contracts/token/ERC20/ERC20.sol\":5423:5432  _transfer */\n      tag_163\n        /* \"@openzeppelin/contracts/token/ERC20/ERC20.sol\":5423:5450  _transfer(from, to, amount) */\n      jump\t// in\n    tag_162:\n        /* \"@openzeppelin/contracts/token/ERC20/ERC20.sol\":5467:5471  true */\n      0x01\n        /* \"@openzeppelin/contracts/token/ERC20/ERC20.sol\":5460:5471  return true */\n      swap2\n      pop\n      pop\n        /* \"@openzeppelin/contracts/token/ERC20/ERC20.sol\":5192:5478  function transferFrom(... */\n      swap4\n      swap3\n      pop\n      pop\n      pop\n      jump\t// out\n        /* \"contracts/Pair.sol\":4951:5306  function getEthAmountForSwap(uint256 tokenAmount) public view returns (uint256 ethAmount){\r... */\n    tag_63:\n        /* \"contracts/Pair.sol\":5022:5039  uint256 ethAmount */\n      0x00\n        /* \"contracts/Pair.sol\":5071:5072  0 */\n      dup1\n        /* \"contracts/Pair.sol\":5059:5068  ethAmount */\n      dup2\n        /* \"contracts/Pair.sol\":5059:5072  ethAmount > 0 */\n      gt\n        /* \"contracts/Pair.sol\":5051:5102  require(ethAmount > 0, \"ETH amount cannot be zero\") */\n      tag_165\n      jumpi\n      mload(0x40)\n      0x08c379a000000000000000000000000000000000000000000000000000000000\n      dup2\n      mstore\n      0x04\n      add\n      tag_166\n      swap1\n      tag_153\n      jump\t// in\n    tag_166:\n      mload(0x40)\n      dup1\n      swap2\n      sub\n      swap1\n      revert\n    tag_165:\n        /* \"contracts/Pair.sol\":5116:5136  uint256 tokenReserve */\n      0x00\n        /* \"contracts/Pair.sol\":5138:5156  uint256 ethReserve */\n      dup1\n        /* \"contracts/Pair.sol\":5160:5173  getReserves() */\n      tag_167\n        /* \"contracts/Pair.sol\":5160:5171  getReserves */\n      tag_33\n        /* \"contracts/Pair.sol\":5160:5173  getReserves() */\n      jump\t// in\n    tag_167:\n        /* \"contracts/Pair.sol\":5115:5173  (uint256 tokenReserve, uint256 ethReserve) = getReserves() */\n      swap2\n      pop\n      swap2\n      pop\n        /* \"contracts/Pair.sol\":5244:5298  getOutputAmount(tokenAmount, tokenReserve, ethReserve) */\n      tag_168\n        /* \"contracts/Pair.sol\":5260:5271  tokenAmount */\n      dup5\n        /* \"contracts/Pair.sol\":5273:5285  tokenReserve */\n      dup4\n        /* \"contracts/Pair.sol\":5287:5297  ethReserve */\n      dup4\n        /* \"contracts/Pair.sol\":5244:5259  getOutputAmount */\n      tag_156\n        /* \"contracts/Pair.sol\":5244:5298  getOutputAmount(tokenAmount, tokenReserve, ethReserve) */\n      jump\t// in\n    tag_168:\n        /* \"contracts/Pair.sol\":5232:5298  ethAmount = getOutputAmount(tokenAmount, tokenReserve, ethReserve) */\n      swap3\n      pop\n        /* \"contracts/Pair.sol\":5040:5306  {\r... */\n      pop\n      pop\n        /* \"contracts/Pair.sol\":4951:5306  function getEthAmountForSwap(uint256 tokenAmount) public view returns (uint256 ethAmount){\r... */\n      swap2\n      swap1\n      pop\n      jump\t// out\n        /* \"@openzeppelin/contracts/token/ERC20/ERC20.sol\":3093:3184  function decimals() public view virtual override returns (uint8) {... */\n    tag_67:\n        /* \"@openzeppelin/contracts/token/ERC20/ERC20.sol\":3151:3156  uint8 */\n      0x00\n        /* \"@openzeppelin/contracts/token/ERC20/ERC20.sol\":3175:3177  18 */\n      0x12\n        /* \"@openzeppelin/contracts/token/ERC20/ERC20.sol\":3168:3177  return 18 */\n      swap1\n      pop\n        /* \"@openzeppelin/contracts/token/ERC20/ERC20.sol\":3093:3184  function decimals() public view virtual override returns (uint8) {... */\n      swap1\n      jump\t// out\n        /* \"@openzeppelin/contracts/token/ERC20/ERC20.sol\":5873:6107  function increaseAllowance(address spender, uint256 addedValue) public virtual returns (bool) {... */\n    tag_73:\n        /* \"@openzeppelin/contracts/token/ERC20/ERC20.sol\":5961:5965  bool */\n      0x00\n        /* \"@openzeppelin/contracts/token/ERC20/ERC20.sol\":5977:5990  address owner */\n      dup1\n        /* \"@openzeppelin/contracts/token/ERC20/ERC20.sol\":5993:6005  _msgSender() */\n      tag_171\n        /* \"@openzeppelin/contracts/token/ERC20/ERC20.sol\":5993:6003  _msgSender */\n      tag_147\n        /* \"@openzeppelin/contracts/token/ERC20/ERC20.sol\":5993:6005  _msgSender() */\n      jump\t// in\n    tag_171:\n        /* \"@openzeppelin/contracts/token/ERC20/ERC20.sol\":5977:6005  address owner = _msgSender() */\n      swap1\n      pop\n        /* \"@openzeppelin/contracts/token/ERC20/ERC20.sol\":6015:6079  _approve(owner, spender, allowance(owner, spender) + addedValue) */\n      tag_172\n        /* \"@openzeppelin/contracts/token/ERC20/ERC20.sol\":6024:6029  owner */\n      dup2\n        /* \"@openzeppelin/contracts/token/ERC20/ERC20.sol\":6031:6038  spender */\n      dup6\n        /* \"@openzeppelin/contracts/token/ERC20/ERC20.sol\":6068:6078  addedValue */\n      dup6\n        /* \"@openzeppelin/contracts/token/ERC20/ERC20.sol\":6040:6065  allowance(owner, spender) */\n      tag_173\n        /* \"@openzeppelin/contracts/token/ERC20/ERC20.sol\":6050:6055  owner */\n      dup6\n        /* \"@openzeppelin/contracts/token/ERC20/ERC20.sol\":6057:6064  spender */\n      dup10\n        /* \"@openzeppelin/contracts/token/ERC20/ERC20.sol\":6040:6049  allowance */\n      tag_129\n        /* \"@openzeppelin/contracts/token/ERC20/ERC20.sol\":6040:6065  allowance(owner, spender) */\n      jump\t// in\n    tag_173:\n        /* \"@openzeppelin/contracts/token/ERC20/ERC20.sol\":6040:6078  allowance(owner, spender) + addedValue */\n      tag_174\n      swap2\n      swap1\n      tag_175\n      jump\t// in\n    tag_174:\n        /* \"@openzeppelin/contracts/token/ERC20/ERC20.sol\":6015:6023  _approve */\n      tag_149\n        /* \"@openzeppelin/contracts/token/ERC20/ERC20.sol\":6015:6079  _approve(owner, spender, allowance(owner, spender) + addedValue) */\n      jump\t// in\n    tag_172:\n        /* \"@openzeppelin/contracts/token/ERC20/ERC20.sol\":6096:6100  true */\n      0x01\n        /* \"@openzeppelin/contracts/token/ERC20/ERC20.sol\":6089:6100  return true */\n      swap2\n      pop\n      pop\n        /* \"@openzeppelin/contracts/token/ERC20/ERC20.sol\":5873:6107  function increaseAllowance(address spender, uint256 addedValue) public virtual returns (bool) {... */\n      swap3\n      swap2\n      pop\n      pop\n      jump\t// out\n        /* \"contracts/Pair.sol\":2048:3380  function addLiquidity(uint256 inputTokenAmount) public payable returns (uint256 lpTokenAmount){\r... */\n    tag_77:\n        /* \"contracts/Pair.sol\":2120:2141  uint256 lpTokenAmount */\n      0x00\n        /* \"contracts/Pair.sol\":2154:2174  uint256 tokenReserve */\n      dup1\n        /* \"contracts/Pair.sol\":2176:2194  uint256 ethReserve */\n      0x00\n        /* \"contracts/Pair.sol\":2198:2211  getReserves() */\n      tag_177\n        /* \"contracts/Pair.sol\":2198:2209  getReserves */\n      tag_33\n        /* \"contracts/Pair.sol\":2198:2211  getReserves() */\n      jump\t// in\n    tag_177:\n        /* \"contracts/Pair.sol\":2153:2211  (uint256 tokenReserve, uint256 ethReserve) = getReserves() */\n      swap2\n      pop\n      swap2\n      pop\n        /* \"contracts/Pair.sol\":2440:2441  0 */\n      0x00\n        /* \"contracts/Pair.sol\":2424:2436  tokenReserve */\n      dup3\n        /* \"contracts/Pair.sol\":2424:2441  tokenReserve == 0 */\n      eq\n        /* \"contracts/Pair.sol\":2420:3259  if (tokenReserve == 0) {\r... */\n      iszero\n      tag_178\n      jumpi\n        /* \"contracts/Pair.sol\":2458:2470  IERC20 token */\n      0x00\n        /* \"contracts/Pair.sol\":2480:2492  tokenAddress */\n      0x05\n      0x00\n      swap1\n      sload\n      swap1\n      0x0100\n      exp\n      swap1\n      div\n      0xffffffffffffffffffffffffffffffffffffffff\n      and\n        /* \"contracts/Pair.sol\":2458:2493  IERC20 token = IERC20(tokenAddress) */\n      swap1\n      pop\n        /* \"contracts/Pair.sol\":2508:2513  token */\n      dup1\n        /* \"contracts/Pair.sol\":2508:2526  token.transferFrom */\n      0xffffffffffffffffffffffffffffffffffffffff\n      and\n      0x23b872dd\n        /* \"contracts/Pair.sol\":2527:2537  msg.sender */\n      caller\n        /* \"contracts/Pair.sol\":2547:2551  this */\n      address\n        /* \"contracts/Pair.sol\":2554:2570  inputTokenAmount */\n      dup9\n        /* \"contracts/Pair.sol\":2508:2571  token.transferFrom(msg.sender, address(this), inputTokenAmount) */\n      mload(0x40)\n      dup5\n      0xffffffff\n      and\n      0xe0\n      shl\n      dup2\n      mstore\n      0x04\n      add\n      tag_179\n      swap4\n      swap3\n      swap2\n      swap1\n      tag_180\n      jump\t// in\n    tag_179:\n      0x20\n      mload(0x40)\n      dup1\n      dup4\n      sub\n      dup2\n      0x00\n      dup8\n      dup1\n      extcodesize\n      iszero\n      dup1\n      iszero\n      tag_181\n      jumpi\n      0x00\n      dup1\n      revert\n    tag_181:\n      pop\n      gas\n      call\n      iszero\n      dup1\n      iszero\n      tag_183\n      jumpi\n      returndatasize\n      0x00\n      dup1\n      returndatacopy\n      revert(0x00, returndatasize)\n    tag_183:\n      pop\n      pop\n      pop\n      pop\n      mload(0x40)\n      returndatasize\n      not(0x1f)\n      0x1f\n      dup3\n      add\n      and\n      dup3\n      add\n      dup1\n      0x40\n      mstore\n      pop\n      dup2\n      add\n      swap1\n      tag_184\n      swap2\n      swap1\n      tag_185\n      jump\t// in\n    tag_184:\n      pop\n        /* \"contracts/Pair.sol\":2602:2612  ethReserve */\n      dup2\n        /* \"contracts/Pair.sol\":2586:2612  lpTokenAmount = ethReserve */\n      swap4\n      pop\n        /* \"contracts/Pair.sol\":2443:2624  {\r... */\n      pop\n        /* \"contracts/Pair.sol\":2420:3259  if (tokenReserve == 0) {\r... */\n      jump(tag_186)\n    tag_178:\n        /* \"contracts/Pair.sol\":2702:2711  msg.value */\n      callvalue\n        /* \"contracts/Pair.sol\":2688:2711  ethReserve -= msg.value */\n      dup2\n      tag_187\n      swap2\n      swap1\n      tag_188\n      jump\t// in\n    tag_187:\n      swap1\n      pop\n        /* \"contracts/Pair.sol\":2799:2825  uint256 requiredTokenInput */\n      0x00\n        /* \"contracts/Pair.sol\":2853:2863  ethReserve */\n      dup2\n        /* \"contracts/Pair.sol\":2840:2852  tokenReserve */\n      dup4\n        /* \"contracts/Pair.sol\":2828:2837  msg.value */\n      callvalue\n        /* \"contracts/Pair.sol\":2828:2852  msg.value * tokenReserve */\n      tag_189\n      swap2\n      swap1\n      tag_190\n      jump\t// in\n    tag_189:\n        /* \"contracts/Pair.sol\":2828:2863  msg.value * tokenReserve/ethReserve */\n      tag_191\n      swap2\n      swap1\n      tag_192\n      jump\t// in\n    tag_191:\n        /* \"contracts/Pair.sol\":2799:2863  uint256 requiredTokenInput = msg.value * tokenReserve/ethReserve */\n      swap1\n      pop\n        /* \"contracts/Pair.sol\":2984:3002  requiredTokenInput */\n      dup1\n        /* \"contracts/Pair.sol\":2964:2980  inputTokenAmount */\n      dup6\n        /* \"contracts/Pair.sol\":2964:3002  inputTokenAmount >= requiredTokenInput */\n      lt\n      iszero\n        /* \"contracts/Pair.sol\":2956:3048  require(inputTokenAmount >= requiredTokenInput, \"Insufficient input amount of ERC20 Tokens\") */\n      tag_193\n      jumpi\n      mload(0x40)\n      0x08c379a000000000000000000000000000000000000000000000000000000000\n      dup2\n      mstore\n      0x04\n      add\n      tag_194\n      swap1\n      tag_195\n      jump\t// in\n    tag_194:\n      mload(0x40)\n      dup1\n      swap2\n      sub\n      swap1\n      revert\n    tag_193:\n        /* \"contracts/Pair.sol\":3063:3075  IERC20 token */\n      0x00\n        /* \"contracts/Pair.sol\":3085:3097  tokenAddress */\n      0x05\n      0x00\n      swap1\n      sload\n      swap1\n      0x0100\n      exp\n      swap1\n      div\n      0xffffffffffffffffffffffffffffffffffffffff\n      and\n        /* \"contracts/Pair.sol\":3063:3098  IERC20 token = IERC20(tokenAddress) */\n      swap1\n      pop\n        /* \"contracts/Pair.sol\":3113:3118  token */\n      dup1\n        /* \"contracts/Pair.sol\":3113:3131  token.transferFrom */\n      0xffffffffffffffffffffffffffffffffffffffff\n      and\n      0x23b872dd\n        /* \"contracts/Pair.sol\":3132:3142  msg.sender */\n      caller\n        /* \"contracts/Pair.sol\":3152:3156  this */\n      address\n        /* \"contracts/Pair.sol\":3159:3175  inputTokenAmount */\n      dup10\n        /* \"contracts/Pair.sol\":3113:3176  token.transferFrom(msg.sender, address(this), inputTokenAmount) */\n      mload(0x40)\n      dup5\n      0xffffffff\n      and\n      0xe0\n      shl\n      dup2\n      mstore\n      0x04\n      add\n      tag_196\n      swap4\n      swap3\n      swap2\n      swap1\n      tag_180\n      jump\t// in\n    tag_196:\n      0x20\n      mload(0x40)\n      dup1\n      dup4\n      sub\n      dup2\n      0x00\n      dup8\n      dup1\n      extcodesize\n      iszero\n      dup1\n      iszero\n      tag_197\n      jumpi\n      0x00\n      dup1\n      revert\n    tag_197:\n      pop\n      gas\n      call\n      iszero\n      dup1\n      iszero\n      tag_199\n      jumpi\n      returndatasize\n      0x00\n      dup1\n      returndatacopy\n      revert(0x00, returndatasize)\n    tag_199:\n      pop\n      pop\n      pop\n      pop\n      mload(0x40)\n      returndatasize\n      not(0x1f)\n      0x1f\n      dup3\n      add\n      and\n      dup3\n      add\n      dup1\n      0x40\n      mstore\n      pop\n      dup2\n      add\n      swap1\n      tag_200\n      swap2\n      swap1\n      tag_185\n      jump\t// in\n    tag_200:\n      pop\n        /* \"contracts/Pair.sol\":3237:3247  ethReserve */\n      dup3\n        /* \"contracts/Pair.sol\":3224:3233  msg.value */\n      callvalue\n        /* \"contracts/Pair.sol\":3208:3221  totalSupply() */\n      tag_201\n        /* \"contracts/Pair.sol\":3208:3219  totalSupply */\n      tag_52\n        /* \"contracts/Pair.sol\":3208:3221  totalSupply() */\n      jump\t// in\n    tag_201:\n        /* \"contracts/Pair.sol\":3208:3233  totalSupply() * msg.value */\n      tag_202\n      swap2\n      swap1\n      tag_190\n      jump\t// in\n    tag_202:\n        /* \"contracts/Pair.sol\":3207:3247  (totalSupply() * msg.value) / ethReserve */\n      tag_203\n      swap2\n      swap1\n      tag_192\n      jump\t// in\n    tag_203:\n        /* \"contracts/Pair.sol\":3191:3247  lpTokenAmount = (totalSupply() * msg.value) / ethReserve */\n      swap5\n      pop\n        /* \"contracts/Pair.sol\":2673:3259  {\r... */\n      pop\n      pop\n        /* \"contracts/Pair.sol\":2420:3259  if (tokenReserve == 0) {\r... */\n    tag_186:\n        /* \"contracts/Pair.sol\":3271:3303  _mint(msg.sender, lpTokenAmount) */\n      tag_204\n        /* \"contracts/Pair.sol\":3277:3287  msg.sender */\n      caller\n        /* \"contracts/Pair.sol\":3289:3302  lpTokenAmount */\n      dup5\n        /* \"contracts/Pair.sol\":3271:3276  _mint */\n      tag_205\n        /* \"contracts/Pair.sol\":3271:3303  _mint(msg.sender, lpTokenAmount) */\n      jump\t// in\n    tag_204:\n        /* \"contracts/Pair.sol\":3355:3371  inputTokenAmount */\n      dup4\n        /* \"contracts/Pair.sol\":3344:3353  msg.value */\n      callvalue\n        /* \"contracts/Pair.sol\":3332:3342  msg.sender */\n      caller\n        /* \"contracts/Pair.sol\":3319:3372  AddLiquidity(msg.sender, msg.value, inputTokenAmount) */\n      0xffffffffffffffffffffffffffffffffffffffff\n      and\n      0x06239653922ac7bea6aa2b19dc486b9361821d37712eb796adfd38d81de278ca\n      mload(0x40)\n      mload(0x40)\n      dup1\n      swap2\n      sub\n      swap1\n      log4\n        /* \"contracts/Pair.sol\":2142:3380  {\r... */\n      pop\n      pop\n        /* \"contracts/Pair.sol\":2048:3380  function addLiquidity(uint256 inputTokenAmount) public payable returns (uint256 lpTokenAmount){\r... */\n      swap2\n      swap1\n      pop\n      jump\t// out\n        /* \"contracts/Pair.sol\":6281:6375  function tokenForEthSwap(uint256 ipTokenAmount, uint256 opEthAmount) public {\r... */\n    tag_83:\n      pop\n      pop\n      jump\t// out\n        /* \"contracts/Pair.sol\":5961:6099  function ethForTokenHigh(uint256 tokenAmount, address recipient) public payable{\r... */\n    tag_87:\n        /* \"contracts/Pair.sol\":6051:6091  ethForTokenBasic(tokenAmount, recipient) */\n      tag_208\n        /* \"contracts/Pair.sol\":6068:6079  tokenAmount */\n      dup3\n        /* \"contracts/Pair.sol\":6081:6090  recipient */\n      dup3\n        /* \"contracts/Pair.sol\":6051:6067  ethForTokenBasic */\n      tag_209\n        /* \"contracts/Pair.sol\":6051:6091  ethForTokenBasic(tokenAmount, recipient) */\n      jump\t// in\n    tag_208:\n        /* \"contracts/Pair.sol\":5961:6099  function ethForTokenHigh(uint256 tokenAmount, address recipient) public payable{\r... */\n      pop\n      pop\n      jump\t// out\n        /* \"@openzeppelin/contracts/token/ERC20/ERC20.sol\":3408:3533  function balanceOf(address account) public view virtual override returns (uint256) {... */\n    tag_92:\n        /* \"@openzeppelin/contracts/token/ERC20/ERC20.sol\":3482:3489  uint256 */\n      0x00\n        /* \"@openzeppelin/contracts/token/ERC20/ERC20.sol\":3508:3517  _balances */\n      dup1\n        /* \"@openzeppelin/contracts/token/ERC20/ERC20.sol\":3508:3526  _balances[account] */\n      0x00\n        /* \"@openzeppelin/contracts/token/ERC20/ERC20.sol\":3518:3525  account */\n      dup4\n        /* \"@openzeppelin/contracts/token/ERC20/ERC20.sol\":3508:3526  _balances[account] */\n      0xffffffffffffffffffffffffffffffffffffffff\n      and\n      0xffffffffffffffffffffffffffffffffffffffff\n      and\n      dup2\n      mstore\n      0x20\n      add\n      swap1\n      dup2\n      mstore\n      0x20\n      add\n      0x00\n      keccak256\n      sload\n        /* \"@openzeppelin/contracts/token/ERC20/ERC20.sol\":3501:3526  return _balances[account] */\n      swap1\n      pop\n        /* \"@openzeppelin/contracts/token/ERC20/ERC20.sol\":3408:3533  function balanceOf(address account) public view virtual override returns (uint256) {... */\n      swap2\n      swap1\n      pop\n      jump\t// out\n        /* \"@openzeppelin/contracts/token/ERC20/ERC20.sol\":2367:2469  function symbol() public view virtual override returns (string memory) {... */\n    tag_96:\n        /* \"@openzeppelin/contracts/token/ERC20/ERC20.sol\":2423:2436  string memory */\n      0x60\n        /* \"@openzeppelin/contracts/token/ERC20/ERC20.sol\":2455:2462  _symbol */\n      0x04\n        /* \"@openzeppelin/contracts/token/ERC20/ERC20.sol\":2448:2462  return _symbol */\n      dup1\n      sload\n      tag_212\n      swap1\n      tag_133\n      jump\t// in\n    tag_212:\n      dup1\n      0x1f\n      add\n      0x20\n      dup1\n      swap2\n      div\n      mul\n      0x20\n      add\n      mload(0x40)\n      swap1\n      dup2\n      add\n      0x40\n      mstore\n      dup1\n      swap3\n      swap2\n      swap1\n      dup2\n      dup2\n      mstore\n      0x20\n      add\n      dup3\n      dup1\n      sload\n      tag_213\n      swap1\n      tag_133\n      jump\t// in\n    tag_213:\n      dup1\n      iszero\n      tag_214\n      jumpi\n      dup1\n      0x1f\n      lt\n      tag_215\n      jumpi\n      0x0100\n      dup1\n      dup4\n      sload\n      div\n      mul\n      dup4\n      mstore\n      swap2\n      0x20\n      add\n      swap2\n      jump(tag_214)\n    tag_215:\n      dup3\n      add\n      swap2\n      swap1\n      0x00\n      mstore\n      keccak256(0x00, 0x20)\n      swap1\n    tag_216:\n      dup2\n      sload\n      dup2\n      mstore\n      swap1\n      0x01\n      add\n      swap1\n      0x20\n      add\n      dup1\n      dup4\n      gt\n      tag_216\n      jumpi\n      dup3\n      swap1\n      sub\n      0x1f\n      and\n      dup3\n      add\n      swap2\n    tag_214:\n      pop\n      pop\n      pop\n      pop\n      pop\n      swap1\n      pop\n        /* \"@openzeppelin/contracts/token/ERC20/ERC20.sol\":2367:2469  function symbol() public view virtual override returns (string memory) {... */\n      swap1\n      jump\t// out\n        /* \"contracts/Pair.sol\":886:915  address public factoryAddress */\n    tag_100:\n      0x06\n      0x00\n      swap1\n      sload\n      swap1\n      0x0100\n      exp\n      swap1\n      div\n      0xffffffffffffffffffffffffffffffffffffffff\n      and\n      dup2\n      jump\t// out\n        /* \"contracts/Pair.sol\":3388:4112  function removeLiquidity(uint256 lpTokenAmount) public returns (uint256 ethAmount, uint256 tokenAmount){\r... */\n    tag_106:\n        /* \"contracts/Pair.sol\":3452:3469  uint256 ethAmount */\n      0x00\n        /* \"contracts/Pair.sol\":3471:3490  uint256 tokenAmount */\n      dup1\n        /* \"contracts/Pair.sol\":3526:3527  0 */\n      0x00\n        /* \"contracts/Pair.sol\":3510:3523  lpTokenAmount */\n      dup4\n        /* \"contracts/Pair.sol\":3510:3527  lpTokenAmount > 0 */\n      gt\n        /* \"contracts/Pair.sol\":3502:3587  require(lpTokenAmount > 0, \"Please input a valid amount of LP Tokens to burn/redeem\") */\n      tag_218\n      jumpi\n      mload(0x40)\n      0x08c379a000000000000000000000000000000000000000000000000000000000\n      dup2\n      mstore\n      0x04\n      add\n      tag_219\n      swap1\n      tag_220\n      jump\t// in\n    tag_219:\n      mload(0x40)\n      dup1\n      swap2\n      sub\n      swap1\n      revert\n    tag_218:\n        /* \"contracts/Pair.sol\":3601:3621  uint256 tokenReserve */\n      0x00\n        /* \"contracts/Pair.sol\":3623:3641  uint256 ethReserve */\n      dup1\n        /* \"contracts/Pair.sol\":3645:3658  getReserves() */\n      tag_221\n        /* \"contracts/Pair.sol\":3645:3656  getReserves */\n      tag_33\n        /* \"contracts/Pair.sol\":3645:3658  getReserves() */\n      jump\t// in\n    tag_221:\n        /* \"contracts/Pair.sol\":3600:3658  (uint256 tokenReserve, uint256 ethReserve) = getReserves() */\n      swap2\n      pop\n      swap2\n      pop\n        /* \"contracts/Pair.sol\":3712:3725  totalSupply() */\n      tag_222\n        /* \"contracts/Pair.sol\":3712:3723  totalSupply */\n      tag_52\n        /* \"contracts/Pair.sol\":3712:3725  totalSupply() */\n      jump\t// in\n    tag_222:\n        /* \"contracts/Pair.sol\":3695:3708  lpTokenAmount */\n      dup6\n        /* \"contracts/Pair.sol\":3682:3692  ethReserve */\n      dup3\n        /* \"contracts/Pair.sol\":3682:3708  ethReserve * lpTokenAmount */\n      tag_223\n      swap2\n      swap1\n      tag_190\n      jump\t// in\n    tag_223:\n        /* \"contracts/Pair.sol\":3681:3725  (ethReserve * lpTokenAmount) / totalSupply() */\n      tag_224\n      swap2\n      swap1\n      tag_192\n      jump\t// in\n    tag_224:\n        /* \"contracts/Pair.sol\":3669:3725  ethAmount = (ethReserve * lpTokenAmount) / totalSupply() */\n      swap4\n      pop\n        /* \"contracts/Pair.sol\":3783:3796  totalSupply() */\n      tag_225\n        /* \"contracts/Pair.sol\":3783:3794  totalSupply */\n      tag_52\n        /* \"contracts/Pair.sol\":3783:3796  totalSupply() */\n      jump\t// in\n    tag_225:\n        /* \"contracts/Pair.sol\":3766:3779  lpTokenAmount */\n      dup6\n        /* \"contracts/Pair.sol\":3751:3763  tokenReserve */\n      dup4\n        /* \"contracts/Pair.sol\":3751:3779  tokenReserve * lpTokenAmount */\n      tag_226\n      swap2\n      swap1\n      tag_190\n      jump\t// in\n    tag_226:\n        /* \"contracts/Pair.sol\":3750:3796  (tokenReserve * lpTokenAmount) / totalSupply() */\n      tag_227\n      swap2\n      swap1\n      tag_192\n      jump\t// in\n    tag_227:\n        /* \"contracts/Pair.sol\":3736:3796  tokenAmount = (tokenReserve * lpTokenAmount) / totalSupply() */\n      swap3\n      pop\n        /* \"contracts/Pair.sol\":3809:3841  _burn(msg.sender, lpTokenAmount) */\n      tag_228\n        /* \"contracts/Pair.sol\":3815:3825  msg.sender */\n      caller\n        /* \"contracts/Pair.sol\":3827:3840  lpTokenAmount */\n      dup7\n        /* \"contracts/Pair.sol\":3809:3814  _burn */\n      tag_229\n        /* \"contracts/Pair.sol\":3809:3841  _burn(msg.sender, lpTokenAmount) */\n      jump\t// in\n    tag_228:\n        /* \"contracts/Pair.sol\":3853:3862  bool sent */\n      0x00\n        /* \"contracts/Pair.sol\":3869:3879  msg.sender */\n      caller\n        /* \"contracts/Pair.sol\":3868:3885  (msg.sender).call */\n      0xffffffffffffffffffffffffffffffffffffffff\n      and\n        /* \"contracts/Pair.sol\":3893:3902  ethAmount */\n      dup6\n        /* \"contracts/Pair.sol\":3868:3907  (msg.sender).call{value: ethAmount}(\"\") */\n      mload(0x40)\n      tag_230\n      swap1\n      tag_231\n      jump\t// in\n    tag_230:\n      0x00\n      mload(0x40)\n      dup1\n      dup4\n      sub\n      dup2\n      dup6\n      dup8\n      gas\n      call\n      swap3\n      pop\n      pop\n      pop\n      returndatasize\n      dup1\n      0x00\n      dup2\n      eq\n      tag_234\n      jumpi\n      mload(0x40)\n      swap2\n      pop\n      and(add(returndatasize, 0x3f), not(0x1f))\n      dup3\n      add\n      0x40\n      mstore\n      returndatasize\n      dup3\n      mstore\n      returndatasize\n      0x00\n      0x20\n      dup5\n      add\n      returndatacopy\n      jump(tag_233)\n    tag_234:\n      0x60\n      swap2\n      pop\n    tag_233:\n      pop\n        /* \"contracts/Pair.sol\":3852:3907  (bool sent, ) = (msg.sender).call{value: ethAmount}(\"\") */\n      pop\n      swap1\n      pop\n        /* \"contracts/Pair.sol\":3926:3930  sent */\n      dup1\n        /* \"contracts/Pair.sol\":3918:3972  require(sent, \"Transaction of Ether was unsuccessful\") */\n      tag_235\n      jumpi\n      mload(0x40)\n      0x08c379a000000000000000000000000000000000000000000000000000000000\n      dup2\n      mstore\n      0x04\n      add\n      tag_236\n      swap1\n      tag_237\n      jump\t// in\n    tag_236:\n      mload(0x40)\n      dup1\n      swap2\n      sub\n      swap1\n      revert\n    tag_235:\n        /* \"contracts/Pair.sol\":3990:4002  tokenAddress */\n      0x05\n      0x00\n      swap1\n      sload\n      swap1\n      0x0100\n      exp\n      swap1\n      div\n      0xffffffffffffffffffffffffffffffffffffffff\n      and\n        /* \"contracts/Pair.sol\":3983:4012  IERC20(tokenAddress).transfer */\n      0xffffffffffffffffffffffffffffffffffffffff\n      and\n      0xa9059cbb\n        /* \"contracts/Pair.sol\":4013:4023  msg.sender */\n      caller\n        /* \"contracts/Pair.sol\":4025:4036  tokenAmount */\n      dup7\n        /* \"contracts/Pair.sol\":3983:4037  IERC20(tokenAddress).transfer(msg.sender, tokenAmount) */\n      mload(0x40)\n      dup4\n      0xffffffff\n      and\n      0xe0\n      shl\n      dup2\n      mstore\n      0x04\n      add\n      tag_238\n      swap3\n      swap2\n      swap1\n      tag_239\n      jump\t// in\n    tag_238:\n      0x20\n      mload(0x40)\n      dup1\n      dup4\n      sub\n      dup2\n      0x00\n      dup8\n      dup1\n      extcodesize\n      iszero\n      dup1\n      iszero\n      tag_240\n      jumpi\n      0x00\n      dup1\n      revert\n    tag_240:\n      pop\n      gas\n      call\n      iszero\n      dup1\n      iszero\n      tag_242\n      jumpi\n      returndatasize\n      0x00\n      dup1\n      returndatacopy\n      revert(0x00, returndatasize)\n    tag_242:\n      pop\n      pop\n      pop\n      pop\n      mload(0x40)\n      returndatasize\n      not(0x1f)\n      0x1f\n      dup3\n      add\n      and\n      dup3\n      add\n      dup1\n      0x40\n      mstore\n      pop\n      dup2\n      add\n      swap1\n      tag_243\n      swap2\n      swap1\n      tag_185\n      jump\t// in\n    tag_243:\n      pop\n        /* \"contracts/Pair.sol\":4092:4103  tokenAmount */\n      dup4\n        /* \"contracts/Pair.sol\":4081:4090  ethAmount */\n      dup6\n        /* \"contracts/Pair.sol\":4069:4079  msg.sender */\n      caller\n        /* \"contracts/Pair.sol\":4053:4104  RemoveLiquidity(msg.sender, ethAmount, tokenAmount) */\n      0xffffffffffffffffffffffffffffffffffffffff\n      and\n      0x0fbf06c058b90cb038a618f8c2acbf6145f8b3570fd1fa56abb8f0f3f05b36e8\n      mload(0x40)\n      mload(0x40)\n      dup1\n      swap2\n      sub\n      swap1\n      log4\n        /* \"contracts/Pair.sol\":3491:4112  {\r... */\n      pop\n      pop\n      pop\n        /* \"contracts/Pair.sol\":3388:4112  function removeLiquidity(uint256 lpTokenAmount) public returns (uint256 ethAmount, uint256 tokenAmount){\r... */\n      swap2\n      pop\n      swap2\n      jump\t// out\n        /* \"contracts/Pair.sol\":852:879  address public tokenAddress */\n    tag_110:\n      0x05\n      0x00\n      swap1\n      sload\n      swap1\n      0x0100\n      exp\n      swap1\n      div\n      0xffffffffffffffffffffffffffffffffffffffff\n      and\n      dup2\n      jump\t// out\n        /* \"@openzeppelin/contracts/token/ERC20/ERC20.sol\":6594:7021  function decreaseAllowance(address spender, uint256 subtractedValue) public virtual returns (bool) {... */\n    tag_115:\n        /* \"@openzeppelin/contracts/token/ERC20/ERC20.sol\":6687:6691  bool */\n      0x00\n        /* \"@openzeppelin/contracts/token/ERC20/ERC20.sol\":6703:6716  address owner */\n      dup1\n        /* \"@openzeppelin/contracts/token/ERC20/ERC20.sol\":6719:6731  _msgSender() */\n      tag_245\n        /* \"@openzeppelin/contracts/token/ERC20/ERC20.sol\":6719:6729  _msgSender */\n      tag_147\n        /* \"@openzeppelin/contracts/token/ERC20/ERC20.sol\":6719:6731  _msgSender() */\n      jump\t// in\n    tag_245:\n        /* \"@openzeppelin/contracts/token/ERC20/ERC20.sol\":6703:6731  address owner = _msgSender() */\n      swap1\n      pop\n        /* \"@openzeppelin/contracts/token/ERC20/ERC20.sol\":6741:6765  uint256 currentAllowance */\n      0x00\n        /* \"@openzeppelin/contracts/token/ERC20/ERC20.sol\":6768:6793  allowance(owner, spender) */\n      tag_246\n        /* \"@openzeppelin/contracts/token/ERC20/ERC20.sol\":6778:6783  owner */\n      dup3\n        /* \"@openzeppelin/contracts/token/ERC20/ERC20.sol\":6785:6792  spender */\n      dup7\n        /* \"@openzeppelin/contracts/token/ERC20/ERC20.sol\":6768:6777  allowance */\n      tag_129\n        /* \"@openzeppelin/contracts/token/ERC20/ERC20.sol\":6768:6793  allowance(owner, spender) */\n      jump\t// in\n    tag_246:\n        /* \"@openzeppelin/contracts/token/ERC20/ERC20.sol\":6741:6793  uint256 currentAllowance = allowance(owner, spender) */\n      swap1\n      pop\n        /* \"@openzeppelin/contracts/token/ERC20/ERC20.sol\":6831:6846  subtractedValue */\n      dup4\n        /* \"@openzeppelin/contracts/token/ERC20/ERC20.sol\":6811:6827  currentAllowance */\n      dup2\n        /* \"@openzeppelin/contracts/token/ERC20/ERC20.sol\":6811:6846  currentAllowance >= subtractedValue */\n      lt\n      iszero\n        /* \"@openzeppelin/contracts/token/ERC20/ERC20.sol\":6803:6888  require(currentAllowance >= subtractedValue, \"ERC20: decreased allowance below zero\") */\n      tag_247\n      jumpi\n      mload(0x40)\n      0x08c379a000000000000000000000000000000000000000000000000000000000\n      dup2\n      mstore\n      0x04\n      add\n      tag_248\n      swap1\n      tag_249\n      jump\t// in\n    tag_248:\n      mload(0x40)\n      dup1\n      swap2\n      sub\n      swap1\n      revert\n    tag_247:\n        /* \"@openzeppelin/contracts/token/ERC20/ERC20.sol\":6922:6982  _approve(owner, spender, currentAllowance - subtractedValue) */\n      tag_250\n        /* \"@openzeppelin/contracts/token/ERC20/ERC20.sol\":6931:6936  owner */\n      dup3\n        /* \"@openzeppelin/contracts/token/ERC20/ERC20.sol\":6938:6945  spender */\n      dup7\n        /* \"@openzeppelin/contracts/token/ERC20/ERC20.sol\":6966:6981  subtractedValue */\n      dup7\n        /* \"@openzeppelin/contracts/token/ERC20/ERC20.sol\":6947:6963  currentAllowance */\n      dup5\n        /* \"@openzeppelin/contracts/token/ERC20/ERC20.sol\":6947:6981  currentAllowance - subtractedValue */\n      sub\n        /* \"@openzeppelin/contracts/token/ERC20/ERC20.sol\":6922:6930  _approve */\n      tag_149\n        /* \"@openzeppelin/contracts/token/ERC20/ERC20.sol\":6922:6982  _approve(owner, spender, currentAllowance - subtractedValue) */\n      jump\t// in\n    tag_250:\n        /* \"@openzeppelin/contracts/token/ERC20/ERC20.sol\":7010:7014  true */\n      0x01\n        /* \"@openzeppelin/contracts/token/ERC20/ERC20.sol\":7003:7014  return true */\n      swap3\n      pop\n      pop\n      pop\n        /* \"@openzeppelin/contracts/token/ERC20/ERC20.sol\":6594:7021  function decreaseAllowance(address spender, uint256 subtractedValue) public virtual returns (bool) {... */\n      swap3\n      swap2\n      pop\n      pop\n      jump\t// out\n        /* \"@openzeppelin/contracts/token/ERC20/ERC20.sol\":3729:3918  function transfer(address to, uint256 amount) public virtual override returns (bool) {... */\n    tag_120:\n        /* \"@openzeppelin/contracts/token/ERC20/ERC20.sol\":3808:3812  bool */\n      0x00\n        /* \"@openzeppelin/contracts/token/ERC20/ERC20.sol\":3824:3837  address owner */\n      dup1\n        /* \"@openzeppelin/contracts/token/ERC20/ERC20.sol\":3840:3852  _msgSender() */\n      tag_252\n        /* \"@openzeppelin/contracts/token/ERC20/ERC20.sol\":3840:3850  _msgSender */\n      tag_147\n        /* \"@openzeppelin/contracts/token/ERC20/ERC20.sol\":3840:3852  _msgSender() */\n      jump\t// in\n    tag_252:\n        /* \"@openzeppelin/contracts/token/ERC20/ERC20.sol\":3824:3852  address owner = _msgSender() */\n      swap1\n      pop\n        /* \"@openzeppelin/contracts/token/ERC20/ERC20.sol\":3862:3890  _transfer(owner, to, amount) */\n      tag_253\n        /* \"@openzeppelin/contracts/token/ERC20/ERC20.sol\":3872:3877  owner */\n      dup2\n        /* \"@openzeppelin/contracts/token/ERC20/ERC20.sol\":3879:3881  to */\n      dup6\n        /* \"@openzeppelin/contracts/token/ERC20/ERC20.sol\":3883:3889  amount */\n      dup6\n        /* \"@openzeppelin/contracts/token/ERC20/ERC20.sol\":3862:3871  _transfer */\n      tag_163\n        /* \"@openzeppelin/contracts/token/ERC20/ERC20.sol\":3862:3890  _transfer(owner, to, amount) */\n      jump\t// in\n    tag_253:\n        /* \"@openzeppelin/contracts/token/ERC20/ERC20.sol\":3907:3911  true */\n      0x01\n        /* \"@openzeppelin/contracts/token/ERC20/ERC20.sol\":3900:3911  return true */\n      swap2\n      pop\n      pop\n        /* \"@openzeppelin/contracts/token/ERC20/ERC20.sol\":3729:3918  function transfer(address to, uint256 amount) public virtual override returns (bool) {... */\n      swap3\n      swap2\n      pop\n      pop\n      jump\t// out\n        /* \"contracts/Pair.sol\":6140:6265  function ethForTokenImplicit(uint256 tokenAmount) public payable {\r... */\n    tag_124:\n        /* \"contracts/Pair.sol\":6216:6257  ethForTokenBasic(tokenAmount, msg.sender) */\n      tag_255\n        /* \"contracts/Pair.sol\":6233:6244  tokenAmount */\n      dup2\n        /* \"contracts/Pair.sol\":6246:6256  msg.sender */\n      caller\n        /* \"contracts/Pair.sol\":6216:6232  ethForTokenBasic */\n      tag_209\n        /* \"contracts/Pair.sol\":6216:6257  ethForTokenBasic(tokenAmount, msg.sender) */\n      jump\t// in\n    tag_255:\n        /* \"contracts/Pair.sol\":6140:6265  function ethForTokenImplicit(uint256 tokenAmount) public payable {\r... */\n      pop\n      jump\t// out\n        /* \"@openzeppelin/contracts/token/ERC20/ERC20.sol\":3976:4125  function allowance(address owner, address spender) public view virtual override returns (uint256) {... */\n    tag_129:\n        /* \"@openzeppelin/contracts/token/ERC20/ERC20.sol\":4065:4072  uint256 */\n      0x00\n        /* \"@openzeppelin/contracts/token/ERC20/ERC20.sol\":4091:4102  _allowances */\n      0x01\n        /* \"@openzeppelin/contracts/token/ERC20/ERC20.sol\":4091:4109  _allowances[owner] */\n      0x00\n        /* \"@openzeppelin/contracts/token/ERC20/ERC20.sol\":4103:4108  owner */\n      dup5\n        /* \"@openzeppelin/contracts/token/ERC20/ERC20.sol\":4091:4109  _allowances[owner] */\n      0xffffffffffffffffffffffffffffffffffffffff\n      and\n      0xffffffffffffffffffffffffffffffffffffffff\n      and\n      dup2\n      mstore\n      0x20\n      add\n      swap1\n      dup2\n      mstore\n      0x20\n      add\n      0x00\n      keccak256\n        /* \"@openzeppelin/contracts/token/ERC20/ERC20.sol\":4091:4118  _allowances[owner][spender] */\n      0x00\n        /* \"@openzeppelin/contracts/token/ERC20/ERC20.sol\":4110:4117  spender */\n      dup4\n        /* \"@openzeppelin/contracts/token/ERC20/ERC20.sol\":4091:4118  _allowances[owner][spender] */\n      0xffffffffffffffffffffffffffffffffffffffff\n      and\n      0xffffffffffffffffffffffffffffffffffffffff\n      and\n      dup2\n      mstore\n      0x20\n      add\n      swap1\n      dup2\n      mstore\n      0x20\n      add\n      0x00\n      keccak256\n      sload\n        /* \"@openzeppelin/contracts/token/ERC20/ERC20.sol\":4084:4118  return _allowances[owner][spender] */\n      swap1\n      pop\n        /* \"@openzeppelin/contracts/token/ERC20/ERC20.sol\":3976:4125  function allowance(address owner, address spender) public view virtual override returns (uint256) {... */\n      swap3\n      swap2\n      pop\n      pop\n      jump\t// out\n        /* \"@openzeppelin/contracts/utils/Context.sol\":640:736  function _msgSender() internal view virtual returns (address) {... */\n    tag_147:\n        /* \"@openzeppelin/contracts/utils/Context.sol\":693:700  address */\n      0x00\n        /* \"@openzeppelin/contracts/utils/Context.sol\":719:729  msg.sender */\n      caller\n        /* \"@openzeppelin/contracts/utils/Context.sol\":712:729  return msg.sender */\n      swap1\n      pop\n        /* \"@openzeppelin/contracts/utils/Context.sol\":640:736  function _msgSender() internal view virtual returns (address) {... */\n      swap1\n      jump\t// out\n        /* \"@openzeppelin/contracts/token/ERC20/ERC20.sol\":10110:10480  function _approve(... */\n    tag_149:\n        /* \"@openzeppelin/contracts/token/ERC20/ERC20.sol\":10258:10259  0 */\n      0x00\n        /* \"@openzeppelin/contracts/token/ERC20/ERC20.sol\":10241:10260  owner != address(0) */\n      0xffffffffffffffffffffffffffffffffffffffff\n      and\n        /* \"@openzeppelin/contracts/token/ERC20/ERC20.sol\":10241:10246  owner */\n      dup4\n        /* \"@openzeppelin/contracts/token/ERC20/ERC20.sol\":10241:10260  owner != address(0) */\n      0xffffffffffffffffffffffffffffffffffffffff\n      and\n      eq\n      iszero\n        /* \"@openzeppelin/contracts/token/ERC20/ERC20.sol\":10233:10301  require(owner != address(0), \"ERC20: approve from the zero address\") */\n      tag_259\n      jumpi\n      mload(0x40)\n      0x08c379a000000000000000000000000000000000000000000000000000000000\n      dup2\n      mstore\n      0x04\n      add\n      tag_260\n      swap1\n      tag_261\n      jump\t// in\n    tag_260:\n      mload(0x40)\n      dup1\n      swap2\n      sub\n      swap1\n      revert\n    tag_259:\n        /* \"@openzeppelin/contracts/token/ERC20/ERC20.sol\":10338:10339  0 */\n      0x00\n        /* \"@openzeppelin/contracts/token/ERC20/ERC20.sol\":10319:10340  spender != address(0) */\n      0xffffffffffffffffffffffffffffffffffffffff\n      and\n        /* \"@openzeppelin/contracts/token/ERC20/ERC20.sol\":10319:10326  spender */\n      dup3\n        /* \"@openzeppelin/contracts/token/ERC20/ERC20.sol\":10319:10340  spender != address(0) */\n      0xffffffffffffffffffffffffffffffffffffffff\n      and\n      eq\n      iszero\n        /* \"@openzeppelin/contracts/token/ERC20/ERC20.sol\":10311:10379  require(spender != address(0), \"ERC20: approve to the zero address\") */\n      tag_262\n      jumpi\n      mload(0x40)\n      0x08c379a000000000000000000000000000000000000000000000000000000000\n      dup2\n      mstore\n      0x04\n      add\n      tag_263\n      swap1\n      tag_264\n      jump\t// in\n    tag_263:\n      mload(0x40)\n      dup1\n      swap2\n      sub\n      swap1\n      revert\n    tag_262:\n        /* \"@openzeppelin/contracts/token/ERC20/ERC20.sol\":10420:10426  amount */\n      dup1\n        /* \"@openzeppelin/contracts/token/ERC20/ERC20.sol\":10390:10401  _allowances */\n      0x01\n        /* \"@openzeppelin/contracts/token/ERC20/ERC20.sol\":10390:10408  _allowances[owner] */\n      0x00\n        /* \"@openzeppelin/contracts/token/ERC20/ERC20.sol\":10402:10407  owner */\n      dup6\n        /* \"@openzeppelin/contracts/token/ERC20/ERC20.sol\":10390:10408  _allowances[owner] */\n      0xffffffffffffffffffffffffffffffffffffffff\n      and\n      0xffffffffffffffffffffffffffffffffffffffff\n      and\n      dup2\n      mstore\n      0x20\n      add\n      swap1\n      dup2\n      mstore\n      0x20\n      add\n      0x00\n      keccak256\n        /* \"@openzeppelin/contracts/token/ERC20/ERC20.sol\":10390:10417  _allowances[owner][spender] */\n      0x00\n        /* \"@openzeppelin/contracts/token/ERC20/ERC20.sol\":10409:10416  spender */\n      dup5\n        /* \"@openzeppelin/contracts/token/ERC20/ERC20.sol\":10390:10417  _allowances[owner][spender] */\n      0xffffffffffffffffffffffffffffffffffffffff\n      and\n      0xffffffffffffffffffffffffffffffffffffffff\n      and\n      dup2\n      mstore\n      0x20\n      add\n      swap1\n      dup2\n      mstore\n      0x20\n      add\n      0x00\n      keccak256\n        /* \"@openzeppelin/contracts/token/ERC20/ERC20.sol\":10390:10426  _allowances[owner][spender] = amount */\n      dup2\n      swap1\n      sstore\n      pop\n        /* \"@openzeppelin/contracts/token/ERC20/ERC20.sol\":10457:10464  spender */\n      dup2\n        /* \"@openzeppelin/contracts/token/ERC20/ERC20.sol\":10441:10473  Approval(owner, spender, amount) */\n      0xffffffffffffffffffffffffffffffffffffffff\n      and\n        /* \"@openzeppelin/contracts/token/ERC20/ERC20.sol\":10450:10455  owner */\n      dup4\n        /* \"@openzeppelin/contracts/token/ERC20/ERC20.sol\":10441:10473  Approval(owner, spender, amount) */\n      0xffffffffffffffffffffffffffffffffffffffff\n      and\n      0x8c5be1e5ebec7d5bd14f71427d1e84f3dd0314c0f7b2291e5b200ac8c7c3b925\n        /* \"@openzeppelin/contracts/token/ERC20/ERC20.sol\":10466:10472  amount */\n      dup4\n        /* \"@openzeppelin/contracts/token/ERC20/ERC20.sol\":10441:10473  Approval(owner, spender, amount) */\n      mload(0x40)\n      tag_265\n      swap2\n      swap1\n      tag_49\n      jump\t// in\n    tag_265:\n      mload(0x40)\n      dup1\n      swap2\n      sub\n      swap1\n      log3\n        /* \"@openzeppelin/contracts/token/ERC20/ERC20.sol\":10110:10480  function _approve(... */\n      pop\n      pop\n      pop\n      jump\t// out\n        /* \"contracts/Pair.sol\":4120:4474  function getOutputAmount(uint256 ipAmount, uint256 ipReserve, uint256 opReserve) private pure returns (uint256 opAmount) {\r... */\n    tag_156:\n        /* \"contracts/Pair.sol\":4223:4239  uint256 opAmount */\n      0x00\n        /* \"contracts/Pair.sol\":4272:4273  0 */\n      dup1\n        /* \"contracts/Pair.sol\":4260:4269  ipReserve */\n      dup4\n        /* \"contracts/Pair.sol\":4260:4273  ipReserve > 0 */\n      gt\n        /* \"contracts/Pair.sol\":4260:4290  ipReserve > 0 && opReserve > 0 */\n      dup1\n      iszero\n      tag_267\n      jumpi\n      pop\n        /* \"contracts/Pair.sol\":4289:4290  0 */\n      0x00\n        /* \"contracts/Pair.sol\":4277:4286  opReserve */\n      dup3\n        /* \"contracts/Pair.sol\":4277:4290  opReserve > 0 */\n      gt\n        /* \"contracts/Pair.sol\":4260:4290  ipReserve > 0 && opReserve > 0 */\n    tag_267:\n        /* \"contracts/Pair.sol\":4252:4316  require(ipReserve > 0 && opReserve > 0, \"There are no reserves\") */\n      tag_268\n      jumpi\n      mload(0x40)\n      0x08c379a000000000000000000000000000000000000000000000000000000000\n      dup2\n      mstore\n      0x04\n      add\n      tag_269\n      swap1\n      tag_270\n      jump\t// in\n    tag_269:\n      mload(0x40)\n      dup1\n      swap2\n      sub\n      swap1\n      revert\n    tag_268:\n        /* \"contracts/Pair.sol\":4327:4350  uint256 ipAmountPlusFee */\n      0x00\n        /* \"contracts/Pair.sol\":1529:1530  0 */\n      dup1\n        /* \"contracts/Pair.sol\":4365:4369  1000 */\n      0x03e8\n        /* \"contracts/Pair.sol\":4365:4377  1000 - txFee */\n      tag_271\n      swap2\n      swap1\n      tag_188\n      jump\t// in\n    tag_271:\n        /* \"contracts/Pair.sol\":4353:4361  ipAmount */\n      dup6\n        /* \"contracts/Pair.sol\":4353:4378  ipAmount * (1000 - txFee) */\n      tag_272\n      swap2\n      swap1\n      tag_190\n      jump\t// in\n    tag_272:\n        /* \"contracts/Pair.sol\":4327:4378  uint256 ipAmountPlusFee = ipAmount * (1000 - txFee) */\n      swap1\n      pop\n        /* \"contracts/Pair.sol\":4450:4465  ipAmountPlusFee */\n      dup1\n        /* \"contracts/Pair.sol\":4438:4447  ipReserve */\n      dup5\n        /* \"contracts/Pair.sol\":4431:4435  1000 */\n      0x03e8\n        /* \"contracts/Pair.sol\":4431:4447  1000 * ipReserve */\n      tag_273\n      swap2\n      swap1\n      tag_190\n      jump\t// in\n    tag_273:\n        /* \"contracts/Pair.sol\":4431:4465  1000 * ipReserve + ipAmountPlusFee */\n      tag_274\n      swap2\n      swap1\n      tag_175\n      jump\t// in\n    tag_274:\n        /* \"contracts/Pair.sol\":4418:4427  opReserve */\n      dup4\n        /* \"contracts/Pair.sol\":4400:4415  ipAmountPlusFee */\n      dup3\n        /* \"contracts/Pair.sol\":4400:4427  ipAmountPlusFee * opReserve */\n      tag_275\n      swap2\n      swap1\n      tag_190\n      jump\t// in\n    tag_275:\n        /* \"contracts/Pair.sol\":4400:4466  ipAmountPlusFee * opReserve / (1000 * ipReserve + ipAmountPlusFee) */\n      tag_276\n      swap2\n      swap1\n      tag_192\n      jump\t// in\n    tag_276:\n        /* \"contracts/Pair.sol\":4389:4466  opAmount = ipAmountPlusFee * opReserve / (1000 * ipReserve + ipAmountPlusFee) */\n      swap2\n      pop\n        /* \"contracts/Pair.sol\":4241:4474  {\r... */\n      pop\n        /* \"contracts/Pair.sol\":4120:4474  function getOutputAmount(uint256 ipAmount, uint256 ipReserve, uint256 opReserve) private pure returns (uint256 opAmount) {\r... */\n      swap4\n      swap3\n      pop\n      pop\n      pop\n      jump\t// out\n        /* \"@openzeppelin/contracts/token/ERC20/ERC20.sol\":10761:11202  function _spendAllowance(... */\n    tag_161:\n        /* \"@openzeppelin/contracts/token/ERC20/ERC20.sol\":10891:10915  uint256 currentAllowance */\n      0x00\n        /* \"@openzeppelin/contracts/token/ERC20/ERC20.sol\":10918:10943  allowance(owner, spender) */\n      tag_278\n        /* \"@openzeppelin/contracts/token/ERC20/ERC20.sol\":10928:10933  owner */\n      dup5\n        /* \"@openzeppelin/contracts/token/ERC20/ERC20.sol\":10935:10942  spender */\n      dup5\n        /* \"@openzeppelin/contracts/token/ERC20/ERC20.sol\":10918:10927  allowance */\n      tag_129\n        /* \"@openzeppelin/contracts/token/ERC20/ERC20.sol\":10918:10943  allowance(owner, spender) */\n      jump\t// in\n    tag_278:\n        /* \"@openzeppelin/contracts/token/ERC20/ERC20.sol\":10891:10943  uint256 currentAllowance = allowance(owner, spender) */\n      swap1\n      pop\n        /* \"@openzeppelin/contracts/token/ERC20/ERC20.sol\":10977:10994  type(uint256).max */\n      0xffffffffffffffffffffffffffffffffffffffffffffffffffffffffffffffff\n        /* \"@openzeppelin/contracts/token/ERC20/ERC20.sol\":10957:10973  currentAllowance */\n      dup2\n        /* \"@openzeppelin/contracts/token/ERC20/ERC20.sol\":10957:10994  currentAllowance != type(uint256).max */\n      eq\n        /* \"@openzeppelin/contracts/token/ERC20/ERC20.sol\":10953:11196  if (currentAllowance != type(uint256).max) {... */\n      tag_279\n      jumpi\n        /* \"@openzeppelin/contracts/token/ERC20/ERC20.sol\":11038:11044  amount */\n      dup2\n        /* \"@openzeppelin/contracts/token/ERC20/ERC20.sol\":11018:11034  currentAllowance */\n      dup2\n        /* \"@openzeppelin/contracts/token/ERC20/ERC20.sol\":11018:11044  currentAllowance >= amount */\n      lt\n      iszero\n        /* \"@openzeppelin/contracts/token/ERC20/ERC20.sol\":11010:11078  require(currentAllowance >= amount, \"ERC20: insufficient allowance\") */\n      tag_280\n      jumpi\n      mload(0x40)\n      0x08c379a000000000000000000000000000000000000000000000000000000000\n      dup2\n      mstore\n      0x04\n      add\n      tag_281\n      swap1\n      tag_282\n      jump\t// in\n    tag_281:\n      mload(0x40)\n      dup1\n      swap2\n      sub\n      swap1\n      revert\n    tag_280:\n        /* \"@openzeppelin/contracts/token/ERC20/ERC20.sol\":11120:11171  _approve(owner, spender, currentAllowance - amount) */\n      tag_283\n        /* \"@openzeppelin/contracts/token/ERC20/ERC20.sol\":11129:11134  owner */\n      dup5\n        /* \"@openzeppelin/contracts/token/ERC20/ERC20.sol\":11136:11143  spender */\n      dup5\n        /* \"@openzeppelin/contracts/token/ERC20/ERC20.sol\":11164:11170  amount */\n      dup5\n        /* \"@openzeppelin/contracts/token/ERC20/ERC20.sol\":11145:11161  currentAllowance */\n      dup5\n        /* \"@openzeppelin/contracts/token/ERC20/ERC20.sol\":11145:11170  currentAllowance - amount */\n      sub\n        /* \"@openzeppelin/contracts/token/ERC20/ERC20.sol\":11120:11128  _approve */\n      tag_149\n        /* \"@openzeppelin/contracts/token/ERC20/ERC20.sol\":11120:11171  _approve(owner, spender, currentAllowance - amount) */\n      jump\t// in\n    tag_283:\n        /* \"@openzeppelin/contracts/token/ERC20/ERC20.sol\":10953:11196  if (currentAllowance != type(uint256).max) {... */\n    tag_279:\n        /* \"@openzeppelin/contracts/token/ERC20/ERC20.sol\":10881:11202  {... */\n      pop\n        /* \"@openzeppelin/contracts/token/ERC20/ERC20.sol\":10761:11202  function _spendAllowance(... */\n      pop\n      pop\n      pop\n      jump\t// out\n        /* \"@openzeppelin/contracts/token/ERC20/ERC20.sol\":7475:8126  function _transfer(... */\n    tag_163:\n        /* \"@openzeppelin/contracts/token/ERC20/ERC20.sol\":7617:7618  0 */\n      0x00\n        /* \"@openzeppelin/contracts/token/ERC20/ERC20.sol\":7601:7619  from != address(0) */\n      0xffffffffffffffffffffffffffffffffffffffff\n      and\n        /* \"@openzeppelin/contracts/token/ERC20/ERC20.sol\":7601:7605  from */\n      dup4\n        /* \"@openzeppelin/contracts/token/ERC20/ERC20.sol\":7601:7619  from != address(0) */\n      0xffffffffffffffffffffffffffffffffffffffff\n      and\n      eq\n      iszero\n        /* \"@openzeppelin/contracts/token/ERC20/ERC20.sol\":7593:7661  require(from != address(0), \"ERC20: transfer from the zero address\") */\n      tag_285\n      jumpi\n      mload(0x40)\n      0x08c379a000000000000000000000000000000000000000000000000000000000\n      dup2\n      mstore\n      0x04\n      add\n      tag_286\n      swap1\n      tag_287\n      jump\t// in\n    tag_286:\n      mload(0x40)\n      dup1\n      swap2\n      sub\n      swap1\n      revert\n    tag_285:\n        /* \"@openzeppelin/contracts/token/ERC20/ERC20.sol\":7693:7694  0 */\n      0x00\n        /* \"@openzeppelin/contracts/token/ERC20/ERC20.sol\":7679:7695  to != address(0) */\n      0xffffffffffffffffffffffffffffffffffffffff\n      and\n        /* \"@openzeppelin/contracts/token/ERC20/ERC20.sol\":7679:7681  to */\n      dup3\n        /* \"@openzeppelin/contracts/token/ERC20/ERC20.sol\":7679:7695  to != address(0) */\n      0xffffffffffffffffffffffffffffffffffffffff\n      and\n      eq\n      iszero\n        /* \"@openzeppelin/contracts/token/ERC20/ERC20.sol\":7671:7735  require(to != address(0), \"ERC20: transfer to the zero address\") */\n      tag_288\n      jumpi\n      mload(0x40)\n      0x08c379a000000000000000000000000000000000000000000000000000000000\n      dup2\n      mstore\n      0x04\n      add\n      tag_289\n      swap1\n      tag_290\n      jump\t// in\n    tag_289:\n      mload(0x40)\n      dup1\n      swap2\n      sub\n      swap1\n      revert\n    tag_288:\n        /* \"@openzeppelin/contracts/token/ERC20/ERC20.sol\":7746:7784  _beforeTokenTransfer(from, to, amount) */\n      tag_291\n        /* \"@openzeppelin/contracts/token/ERC20/ERC20.sol\":7767:7771  from */\n      dup4\n        /* \"@openzeppelin/contracts/token/ERC20/ERC20.sol\":7773:7775  to */\n      dup4\n        /* \"@openzeppelin/contracts/token/ERC20/ERC20.sol\":7777:7783  amount */\n      dup4\n        /* \"@openzeppelin/contracts/token/ERC20/ERC20.sol\":7746:7766  _beforeTokenTransfer */\n      tag_292\n        /* \"@openzeppelin/contracts/token/ERC20/ERC20.sol\":7746:7784  _beforeTokenTransfer(from, to, amount) */\n      jump\t// in\n    tag_291:\n        /* \"@openzeppelin/contracts/token/ERC20/ERC20.sol\":7795:7814  uint256 fromBalance */\n      0x00\n        /* \"@openzeppelin/contracts/token/ERC20/ERC20.sol\":7817:7826  _balances */\n      dup1\n        /* \"@openzeppelin/contracts/token/ERC20/ERC20.sol\":7817:7832  _balances[from] */\n      0x00\n        /* \"@openzeppelin/contracts/token/ERC20/ERC20.sol\":7827:7831  from */\n      dup6\n        /* \"@openzeppelin/contracts/token/ERC20/ERC20.sol\":7817:7832  _balances[from] */\n      0xffffffffffffffffffffffffffffffffffffffff\n      and\n      0xffffffffffffffffffffffffffffffffffffffff\n      and\n      dup2\n      mstore\n      0x20\n      add\n      swap1\n      dup2\n      mstore\n      0x20\n      add\n      0x00\n      keccak256\n      sload\n        /* \"@openzeppelin/contracts/token/ERC20/ERC20.sol\":7795:7832  uint256 fromBalance = _balances[from] */\n      swap1\n      pop\n        /* \"@openzeppelin/contracts/token/ERC20/ERC20.sol\":7865:7871  amount */\n      dup2\n        /* \"@openzeppelin/contracts/token/ERC20/ERC20.sol\":7850:7861  fromBalance */\n      dup2\n        /* \"@openzeppelin/contracts/token/ERC20/ERC20.sol\":7850:7871  fromBalance >= amount */\n      lt\n      iszero\n        /* \"@openzeppelin/contracts/token/ERC20/ERC20.sol\":7842:7914  require(fromBalance >= amount, \"ERC20: transfer amount exceeds balance\") */\n      tag_293\n      jumpi\n      mload(0x40)\n      0x08c379a000000000000000000000000000000000000000000000000000000000\n      dup2\n      mstore\n      0x04\n      add\n      tag_294\n      swap1\n      tag_295\n      jump\t// in\n    tag_294:\n      mload(0x40)\n      dup1\n      swap2\n      sub\n      swap1\n      revert\n    tag_293:\n        /* \"@openzeppelin/contracts/token/ERC20/ERC20.sol\":7980:7986  amount */\n      dup2\n        /* \"@openzeppelin/contracts/token/ERC20/ERC20.sol\":7966:7977  fromBalance */\n      dup2\n        /* \"@openzeppelin/contracts/token/ERC20/ERC20.sol\":7966:7986  fromBalance - amount */\n      sub\n        /* \"@openzeppelin/contracts/token/ERC20/ERC20.sol\":7948:7957  _balances */\n      0x00\n        /* \"@openzeppelin/contracts/token/ERC20/ERC20.sol\":7948:7963  _balances[from] */\n      dup1\n        /* \"@openzeppelin/contracts/token/ERC20/ERC20.sol\":7958:7962  from */\n      dup7\n        /* \"@openzeppelin/contracts/token/ERC20/ERC20.sol\":7948:7963  _balances[from] */\n      0xffffffffffffffffffffffffffffffffffffffff\n      and\n      0xffffffffffffffffffffffffffffffffffffffff\n      and\n      dup2\n      mstore\n      0x20\n      add\n      swap1\n      dup2\n      mstore\n      0x20\n      add\n      0x00\n      keccak256\n        /* \"@openzeppelin/contracts/token/ERC20/ERC20.sol\":7948:7986  _balances[from] = fromBalance - amount */\n      dup2\n      swap1\n      sstore\n      pop\n        /* \"@openzeppelin/contracts/token/ERC20/ERC20.sol\":8023:8029  amount */\n      dup2\n        /* \"@openzeppelin/contracts/token/ERC20/ERC20.sol\":8006:8015  _balances */\n      0x00\n        /* \"@openzeppelin/contracts/token/ERC20/ERC20.sol\":8006:8019  _balances[to] */\n      dup1\n        /* \"@openzeppelin/contracts/token/ERC20/ERC20.sol\":8016:8018  to */\n      dup6\n        /* \"@openzeppelin/contracts/token/ERC20/ERC20.sol\":8006:8019  _balances[to] */\n      0xffffffffffffffffffffffffffffffffffffffff\n      and\n      0xffffffffffffffffffffffffffffffffffffffff\n      and\n      dup2\n      mstore\n      0x20\n      add\n      swap1\n      dup2\n      mstore\n      0x20\n      add\n      0x00\n      keccak256\n      0x00\n        /* \"@openzeppelin/contracts/token/ERC20/ERC20.sol\":8006:8029  _balances[to] += amount */\n      dup3\n      dup3\n      sload\n      tag_296\n      swap2\n      swap1\n      tag_175\n      jump\t// in\n    tag_296:\n      swap3\n      pop\n      pop\n      dup2\n      swap1\n      sstore\n      pop\n        /* \"@openzeppelin/contracts/token/ERC20/ERC20.sol\":8060:8062  to */\n      dup3\n        /* \"@openzeppelin/contracts/token/ERC20/ERC20.sol\":8045:8071  Transfer(from, to, amount) */\n      0xffffffffffffffffffffffffffffffffffffffff\n      and\n        /* \"@openzeppelin/contracts/token/ERC20/ERC20.sol\":8054:8058  from */\n      dup5\n        /* \"@openzeppelin/contracts/token/ERC20/ERC20.sol\":8045:8071  Transfer(from, to, amount) */\n      0xffffffffffffffffffffffffffffffffffffffff\n      and\n      0xddf252ad1be2c89b69c2b068fc378daa952ba7f163c4a11628f55a4df523b3ef\n        /* \"@openzeppelin/contracts/token/ERC20/ERC20.sol\":8064:8070  amount */\n      dup5\n        /* \"@openzeppelin/contracts/token/ERC20/ERC20.sol\":8045:8071  Transfer(from, to, amount) */\n      mload(0x40)\n      tag_297\n      swap2\n      swap1\n      tag_49\n      jump\t// in\n    tag_297:\n      mload(0x40)\n      dup1\n      swap2\n      sub\n      swap1\n      log3\n        /* \"@openzeppelin/contracts/token/ERC20/ERC20.sol\":8082:8119  _afterTokenTransfer(from, to, amount) */\n      tag_298\n        /* \"@openzeppelin/contracts/token/ERC20/ERC20.sol\":8102:8106  from */\n      dup5\n        /* \"@openzeppelin/contracts/token/ERC20/ERC20.sol\":8108:8110  to */\n      dup5\n        /* \"@openzeppelin/contracts/token/ERC20/ERC20.sol\":8112:8118  amount */\n      dup5\n        /* \"@openzeppelin/contracts/token/ERC20/ERC20.sol\":8082:8101  _afterTokenTransfer */\n      tag_299\n        /* \"@openzeppelin/contracts/token/ERC20/ERC20.sol\":8082:8119  _afterTokenTransfer(from, to, amount) */\n      jump\t// in\n    tag_298:\n        /* \"@openzeppelin/contracts/token/ERC20/ERC20.sol\":7583:8126  {... */\n      pop\n        /* \"@openzeppelin/contracts/token/ERC20/ERC20.sol\":7475:8126  function _transfer(... */\n      pop\n      pop\n      pop\n      jump\t// out\n        /* \"@openzeppelin/contracts/token/ERC20/ERC20.sol\":8402:8791  function _mint(address account, uint256 amount) internal virtual {... */\n    tag_205:\n        /* \"@openzeppelin/contracts/token/ERC20/ERC20.sol\":8504:8505  0 */\n      0x00\n        /* \"@openzeppelin/contracts/token/ERC20/ERC20.sol\":8485:8506  account != address(0) */\n      0xffffffffffffffffffffffffffffffffffffffff\n      and\n        /* \"@openzeppelin/contracts/token/ERC20/ERC20.sol\":8485:8492  account */\n      dup3\n        /* \"@openzeppelin/contracts/token/ERC20/ERC20.sol\":8485:8506  account != address(0) */\n      0xffffffffffffffffffffffffffffffffffffffff\n      and\n      eq\n      iszero\n        /* \"@openzeppelin/contracts/token/ERC20/ERC20.sol\":8477:8542  require(account != address(0), \"ERC20: mint to the zero address\") */\n      tag_301\n      jumpi\n      mload(0x40)\n      0x08c379a000000000000000000000000000000000000000000000000000000000\n      dup2\n      mstore\n      0x04\n      add\n      tag_302\n      swap1\n      tag_303\n      jump\t// in\n    tag_302:\n      mload(0x40)\n      dup1\n      swap2\n      sub\n      swap1\n      revert\n    tag_301:\n        /* \"@openzeppelin/contracts/token/ERC20/ERC20.sol\":8553:8602  _beforeTokenTransfer(address(0), account, amount) */\n      tag_304\n        /* \"@openzeppelin/contracts/token/ERC20/ERC20.sol\":8582:8583  0 */\n      0x00\n        /* \"@openzeppelin/contracts/token/ERC20/ERC20.sol\":8586:8593  account */\n      dup4\n        /* \"@openzeppelin/contracts/token/ERC20/ERC20.sol\":8595:8601  amount */\n      dup4\n        /* \"@openzeppelin/contracts/token/ERC20/ERC20.sol\":8553:8573  _beforeTokenTransfer */\n      tag_292\n        /* \"@openzeppelin/contracts/token/ERC20/ERC20.sol\":8553:8602  _beforeTokenTransfer(address(0), account, amount) */\n      jump\t// in\n    tag_304:\n        /* \"@openzeppelin/contracts/token/ERC20/ERC20.sol\":8629:8635  amount */\n      dup1\n        /* \"@openzeppelin/contracts/token/ERC20/ERC20.sol\":8613:8625  _totalSupply */\n      0x02\n      0x00\n        /* \"@openzeppelin/contracts/token/ERC20/ERC20.sol\":8613:8635  _totalSupply += amount */\n      dup3\n      dup3\n      sload\n      tag_305\n      swap2\n      swap1\n      tag_175\n      jump\t// in\n    tag_305:\n      swap3\n      pop\n      pop\n      dup2\n      swap1\n      sstore\n      pop\n        /* \"@openzeppelin/contracts/token/ERC20/ERC20.sol\":8667:8673  amount */\n      dup1\n        /* \"@openzeppelin/contracts/token/ERC20/ERC20.sol\":8645:8654  _balances */\n      0x00\n        /* \"@openzeppelin/contracts/token/ERC20/ERC20.sol\":8645:8663  _balances[account] */\n      dup1\n        /* \"@openzeppelin/contracts/token/ERC20/ERC20.sol\":8655:8662  account */\n      dup5\n        /* \"@openzeppelin/contracts/token/ERC20/ERC20.sol\":8645:8663  _balances[account] */\n      0xffffffffffffffffffffffffffffffffffffffff\n      and\n      0xffffffffffffffffffffffffffffffffffffffff\n      and\n      dup2\n      mstore\n      0x20\n      add\n      swap1\n      dup2\n      mstore\n      0x20\n      add\n      0x00\n      keccak256\n      0x00\n        /* \"@openzeppelin/contracts/token/ERC20/ERC20.sol\":8645:8673  _balances[account] += amount */\n      dup3\n      dup3\n      sload\n      tag_306\n      swap2\n      swap1\n      tag_175\n      jump\t// in\n    tag_306:\n      swap3\n      pop\n      pop\n      dup2\n      swap1\n      sstore\n      pop\n        /* \"@openzeppelin/contracts/token/ERC20/ERC20.sol\":8709:8716  account */\n      dup2\n        /* \"@openzeppelin/contracts/token/ERC20/ERC20.sol\":8688:8725  Transfer(address(0), account, amount) */\n      0xffffffffffffffffffffffffffffffffffffffff\n      and\n        /* \"@openzeppelin/contracts/token/ERC20/ERC20.sol\":8705:8706  0 */\n      0x00\n        /* \"@openzeppelin/contracts/token/ERC20/ERC20.sol\":8688:8725  Transfer(address(0), account, amount) */\n      0xffffffffffffffffffffffffffffffffffffffff\n      and\n      0xddf252ad1be2c89b69c2b068fc378daa952ba7f163c4a11628f55a4df523b3ef\n        /* \"@openzeppelin/contracts/token/ERC20/ERC20.sol\":8718:8724  amount */\n      dup4\n        /* \"@openzeppelin/contracts/token/ERC20/ERC20.sol\":8688:8725  Transfer(address(0), account, amount) */\n      mload(0x40)\n      tag_307\n      swap2\n      swap1\n      tag_49\n      jump\t// in\n    tag_307:\n      mload(0x40)\n      dup1\n      swap2\n      sub\n      swap1\n      log3\n        /* \"@openzeppelin/contracts/token/ERC20/ERC20.sol\":8736:8784  _afterTokenTransfer(address(0), account, amount) */\n      tag_308\n        /* \"@openzeppelin/contracts/token/ERC20/ERC20.sol\":8764:8765  0 */\n      0x00\n        /* \"@openzeppelin/contracts/token/ERC20/ERC20.sol\":8768:8775  account */\n      dup4\n        /* \"@openzeppelin/contracts/token/ERC20/ERC20.sol\":8777:8783  amount */\n      dup4\n        /* \"@openzeppelin/contracts/token/ERC20/ERC20.sol\":8736:8755  _afterTokenTransfer */\n      tag_299\n        /* \"@openzeppelin/contracts/token/ERC20/ERC20.sol\":8736:8784  _afterTokenTransfer(address(0), account, amount) */\n      jump\t// in\n    tag_308:\n        /* \"@openzeppelin/contracts/token/ERC20/ERC20.sol\":8402:8791  function _mint(address account, uint256 amount) internal virtual {... */\n      pop\n      pop\n      jump\t// out\n        /* \"contracts/Pair.sol\":5367:5876  function ethForTokenBasic(uint256 tokenAmount, address recipient) private {\r... */\n    tag_209:\n        /* \"contracts/Pair.sol\":5453:5473  uint256 tokenReserve */\n      0x00\n        /* \"contracts/Pair.sol\":5475:5493  uint256 ethReserve */\n      dup1\n        /* \"contracts/Pair.sol\":5497:5510  getReserves() */\n      tag_310\n        /* \"contracts/Pair.sol\":5497:5508  getReserves */\n      tag_33\n        /* \"contracts/Pair.sol\":5497:5510  getReserves() */\n      jump\t// in\n    tag_310:\n        /* \"contracts/Pair.sol\":5452:5510  (uint256 tokenReserve, uint256 ethReserve) = getReserves() */\n      swap2\n      pop\n      swap2\n      pop\n        /* \"contracts/Pair.sol\":5521:5543  uint256 tokensRecieved */\n      0x00\n        /* \"contracts/Pair.sol\":5546:5610  getOutputAmount(msg.value, ethReserve - msg.value, tokenReserve) */\n      tag_311\n        /* \"contracts/Pair.sol\":5562:5571  msg.value */\n      callvalue\n        /* \"contracts/Pair.sol\":5586:5595  msg.value */\n      callvalue\n        /* \"contracts/Pair.sol\":5573:5583  ethReserve */\n      dup5\n        /* \"contracts/Pair.sol\":5573:5595  ethReserve - msg.value */\n      tag_312\n      swap2\n      swap1\n      tag_188\n      jump\t// in\n    tag_312:\n        /* \"contracts/Pair.sol\":5597:5609  tokenReserve */\n      dup6\n        /* \"contracts/Pair.sol\":5546:5561  getOutputAmount */\n      tag_156\n        /* \"contracts/Pair.sol\":5546:5610  getOutputAmount(msg.value, ethReserve - msg.value, tokenReserve) */\n      jump\t// in\n    tag_311:\n        /* \"contracts/Pair.sol\":5521:5610  uint256 tokensRecieved = getOutputAmount(msg.value, ethReserve - msg.value, tokenReserve) */\n      swap1\n      pop\n        /* \"contracts/Pair.sol\":5649:5660  tokenAmount */\n      dup5\n        /* \"contracts/Pair.sol\":5631:5645  tokensRecieved */\n      dup2\n        /* \"contracts/Pair.sol\":5631:5660  tokensRecieved >= tokenAmount */\n      lt\n      iszero\n        /* \"contracts/Pair.sol\":5623:5732  require(tokensRecieved >= tokenAmount, \"Amount swapped does not meet your stipulated amount, reverting swap\") */\n      tag_313\n      jumpi\n      mload(0x40)\n      0x08c379a000000000000000000000000000000000000000000000000000000000\n      dup2\n      mstore\n      0x04\n      add\n      tag_314\n      swap1\n      tag_315\n      jump\t// in\n    tag_314:\n      mload(0x40)\n      dup1\n      swap2\n      sub\n      swap1\n      revert\n    tag_313:\n        /* \"contracts/Pair.sol\":5752:5764  tokenAddress */\n      0x05\n      0x00\n      swap1\n      sload\n      swap1\n      0x0100\n      exp\n      swap1\n      div\n      0xffffffffffffffffffffffffffffffffffffffff\n      and\n        /* \"contracts/Pair.sol\":5745:5774  IERC20(tokenAddress).transfer */\n      0xffffffffffffffffffffffffffffffffffffffff\n      and\n      0xa9059cbb\n        /* \"contracts/Pair.sol\":5775:5784  recipient */\n      dup6\n        /* \"contracts/Pair.sol\":5786:5800  tokensRecieved */\n      dup4\n        /* \"contracts/Pair.sol\":5745:5801  IERC20(tokenAddress).transfer(recipient, tokensRecieved) */\n      mload(0x40)\n      dup4\n      0xffffffff\n      and\n      0xe0\n      shl\n      dup2\n      mstore\n      0x04\n      add\n      tag_316\n      swap3\n      swap2\n      swap1\n      tag_239\n      jump\t// in\n    tag_316:\n      0x20\n      mload(0x40)\n      dup1\n      dup4\n      sub\n      dup2\n      0x00\n      dup8\n      dup1\n      extcodesize\n      iszero\n      dup1\n      iszero\n      tag_317\n      jumpi\n      0x00\n      dup1\n      revert\n    tag_317:\n      pop\n      gas\n      call\n      iszero\n      dup1\n      iszero\n      tag_319\n      jumpi\n      returndatasize\n      0x00\n      dup1\n      returndatacopy\n      revert(0x00, returndatasize)\n    tag_319:\n      pop\n      pop\n      pop\n      pop\n      mload(0x40)\n      returndatasize\n      not(0x1f)\n      0x1f\n      dup3\n      add\n      and\n      dup3\n      add\n      dup1\n      0x40\n      mstore\n      pop\n      dup2\n      add\n      swap1\n      tag_320\n      swap2\n      swap1\n      tag_185\n      jump\t// in\n    tag_320:\n      pop\n        /* \"contracts/Pair.sol\":5842:5851  msg.value */\n      callvalue\n        /* \"contracts/Pair.sol\":5831:5840  recipient */\n      dup5\n        /* \"contracts/Pair.sol\":5817:5868  SwapForTokens(recipient, msg.value, tokensRecieved) */\n      0xffffffffffffffffffffffffffffffffffffffff\n      and\n      0x2ad51a6b79c1a35468e5cc340ef09004400e337e1d1149aab02294fdb7f8f055\n        /* \"contracts/Pair.sol\":5853:5867  tokensRecieved */\n      dup4\n        /* \"contracts/Pair.sol\":5817:5868  SwapForTokens(recipient, msg.value, tokensRecieved) */\n      mload(0x40)\n      tag_321\n      swap2\n      swap1\n      tag_49\n      jump\t// in\n    tag_321:\n      mload(0x40)\n      dup1\n      swap2\n      sub\n      swap1\n      log3\n        /* \"contracts/Pair.sol\":5441:5876  {\r... */\n      pop\n      pop\n      pop\n        /* \"contracts/Pair.sol\":5367:5876  function ethForTokenBasic(uint256 tokenAmount, address recipient) private {\r... */\n      pop\n      pop\n      jump\t// out\n        /* \"@openzeppelin/contracts/token/ERC20/ERC20.sol\":9111:9687  function _burn(address account, uint256 amount) internal virtual {... */\n    tag_229:\n        /* \"@openzeppelin/contracts/token/ERC20/ERC20.sol\":9213:9214  0 */\n      0x00\n        /* \"@openzeppelin/contracts/token/ERC20/ERC20.sol\":9194:9215  account != address(0) */\n      0xffffffffffffffffffffffffffffffffffffffff\n      and\n        /* \"@openzeppelin/contracts/token/ERC20/ERC20.sol\":9194:9201  account */\n      dup3\n        /* \"@openzeppelin/contracts/token/ERC20/ERC20.sol\":9194:9215  account != address(0) */\n      0xffffffffffffffffffffffffffffffffffffffff\n      and\n      eq\n      iszero\n        /* \"@openzeppelin/contracts/token/ERC20/ERC20.sol\":9186:9253  require(account != address(0), \"ERC20: burn from the zero address\") */\n      tag_323\n      jumpi\n      mload(0x40)\n      0x08c379a000000000000000000000000000000000000000000000000000000000\n      dup2\n      mstore\n      0x04\n      add\n      tag_324\n      swap1\n      tag_325\n      jump\t// in\n    tag_324:\n      mload(0x40)\n      dup1\n      swap2\n      sub\n      swap1\n      revert\n    tag_323:\n        /* \"@openzeppelin/contracts/token/ERC20/ERC20.sol\":9264:9313  _beforeTokenTransfer(account, address(0), amount) */\n      tag_326\n        /* \"@openzeppelin/contracts/token/ERC20/ERC20.sol\":9285:9292  account */\n      dup3\n        /* \"@openzeppelin/contracts/token/ERC20/ERC20.sol\":9302:9303  0 */\n      0x00\n        /* \"@openzeppelin/contracts/token/ERC20/ERC20.sol\":9306:9312  amount */\n      dup4\n        /* \"@openzeppelin/contracts/token/ERC20/ERC20.sol\":9264:9284  _beforeTokenTransfer */\n      tag_292\n        /* \"@openzeppelin/contracts/token/ERC20/ERC20.sol\":9264:9313  _beforeTokenTransfer(account, address(0), amount) */\n      jump\t// in\n    tag_326:\n        /* \"@openzeppelin/contracts/token/ERC20/ERC20.sol\":9324:9346  uint256 accountBalance */\n      0x00\n        /* \"@openzeppelin/contracts/token/ERC20/ERC20.sol\":9349:9358  _balances */\n      dup1\n        /* \"@openzeppelin/contracts/token/ERC20/ERC20.sol\":9349:9367  _balances[account] */\n      0x00\n        /* \"@openzeppelin/contracts/token/ERC20/ERC20.sol\":9359:9366  account */\n      dup5\n        /* \"@openzeppelin/contracts/token/ERC20/ERC20.sol\":9349:9367  _balances[account] */\n      0xffffffffffffffffffffffffffffffffffffffff\n      and\n      0xffffffffffffffffffffffffffffffffffffffff\n      and\n      dup2\n      mstore\n      0x20\n      add\n      swap1\n      dup2\n      mstore\n      0x20\n      add\n      0x00\n      keccak256\n      sload\n        /* \"@openzeppelin/contracts/token/ERC20/ERC20.sol\":9324:9367  uint256 accountBalance = _balances[account] */\n      swap1\n      pop\n        /* \"@openzeppelin/contracts/token/ERC20/ERC20.sol\":9403:9409  amount */\n      dup2\n        /* \"@openzeppelin/contracts/token/ERC20/ERC20.sol\":9385:9399  accountBalance */\n      dup2\n        /* \"@openzeppelin/contracts/token/ERC20/ERC20.sol\":9385:9409  accountBalance >= amount */\n      lt\n      iszero\n        /* \"@openzeppelin/contracts/token/ERC20/ERC20.sol\":9377:9448  require(accountBalance >= amount, \"ERC20: burn amount exceeds balance\") */\n      tag_327\n      jumpi\n      mload(0x40)\n      0x08c379a000000000000000000000000000000000000000000000000000000000\n      dup2\n      mstore\n      0x04\n      add\n      tag_328\n      swap1\n      tag_329\n      jump\t// in\n    tag_328:\n      mload(0x40)\n      dup1\n      swap2\n      sub\n      swap1\n      revert\n    tag_327:\n        /* \"@openzeppelin/contracts/token/ERC20/ERC20.sol\":9520:9526  amount */\n      dup2\n        /* \"@openzeppelin/contracts/token/ERC20/ERC20.sol\":9503:9517  accountBalance */\n      dup2\n        /* \"@openzeppelin/contracts/token/ERC20/ERC20.sol\":9503:9526  accountBalance - amount */\n      sub\n        /* \"@openzeppelin/contracts/token/ERC20/ERC20.sol\":9482:9491  _balances */\n      0x00\n        /* \"@openzeppelin/contracts/token/ERC20/ERC20.sol\":9482:9500  _balances[account] */\n      dup1\n        /* \"@openzeppelin/contracts/token/ERC20/ERC20.sol\":9492:9499  account */\n      dup6\n        /* \"@openzeppelin/contracts/token/ERC20/ERC20.sol\":9482:9500  _balances[account] */\n      0xffffffffffffffffffffffffffffffffffffffff\n      and\n      0xffffffffffffffffffffffffffffffffffffffff\n      and\n      dup2\n      mstore\n      0x20\n      add\n      swap1\n      dup2\n      mstore\n      0x20\n      add\n      0x00\n      keccak256\n        /* \"@openzeppelin/contracts/token/ERC20/ERC20.sol\":9482:9526  _balances[account] = accountBalance - amount */\n      dup2\n      swap1\n      sstore\n      pop\n        /* \"@openzeppelin/contracts/token/ERC20/ERC20.sol\":9562:9568  amount */\n      dup2\n        /* \"@openzeppelin/contracts/token/ERC20/ERC20.sol\":9546:9558  _totalSupply */\n      0x02\n      0x00\n        /* \"@openzeppelin/contracts/token/ERC20/ERC20.sol\":9546:9568  _totalSupply -= amount */\n      dup3\n      dup3\n      sload\n      tag_330\n      swap2\n      swap1\n      tag_188\n      jump\t// in\n    tag_330:\n      swap3\n      pop\n      pop\n      dup2\n      swap1\n      sstore\n      pop\n        /* \"@openzeppelin/contracts/token/ERC20/ERC20.sol\":9610:9611  0 */\n      0x00\n        /* \"@openzeppelin/contracts/token/ERC20/ERC20.sol\":9584:9621  Transfer(account, address(0), amount) */\n      0xffffffffffffffffffffffffffffffffffffffff\n      and\n        /* \"@openzeppelin/contracts/token/ERC20/ERC20.sol\":9593:9600  account */\n      dup4\n        /* \"@openzeppelin/contracts/token/ERC20/ERC20.sol\":9584:9621  Transfer(account, address(0), amount) */\n      0xffffffffffffffffffffffffffffffffffffffff\n      and\n      0xddf252ad1be2c89b69c2b068fc378daa952ba7f163c4a11628f55a4df523b3ef\n        /* \"@openzeppelin/contracts/token/ERC20/ERC20.sol\":9614:9620  amount */\n      dup5\n        /* \"@openzeppelin/contracts/token/ERC20/ERC20.sol\":9584:9621  Transfer(account, address(0), amount) */\n      mload(0x40)\n      tag_331\n      swap2\n      swap1\n      tag_49\n      jump\t// in\n    tag_331:\n      mload(0x40)\n      dup1\n      swap2\n      sub\n      swap1\n      log3\n        /* \"@openzeppelin/contracts/token/ERC20/ERC20.sol\":9632:9680  _afterTokenTransfer(account, address(0), amount) */\n      tag_332\n        /* \"@openzeppelin/contracts/token/ERC20/ERC20.sol\":9652:9659  account */\n      dup4\n        /* \"@openzeppelin/contracts/token/ERC20/ERC20.sol\":9669:9670  0 */\n      0x00\n        /* \"@openzeppelin/contracts/token/ERC20/ERC20.sol\":9673:9679  amount */\n      dup5\n        /* \"@openzeppelin/contracts/token/ERC20/ERC20.sol\":9632:9651  _afterTokenTransfer */\n      tag_299\n        /* \"@openzeppelin/contracts/token/ERC20/ERC20.sol\":9632:9680  _afterTokenTransfer(account, address(0), amount) */\n      jump\t// in\n    tag_332:\n        /* \"@openzeppelin/contracts/token/ERC20/ERC20.sol\":9176:9687  {... */\n      pop\n        /* \"@openzeppelin/contracts/token/ERC20/ERC20.sol\":9111:9687  function _burn(address account, uint256 amount) internal virtual {... */\n      pop\n      pop\n      jump\t// out\n        /* \"@openzeppelin/contracts/token/ERC20/ERC20.sol\":11786:11907  function _beforeTokenTransfer(... */\n    tag_292:\n      pop\n      pop\n      pop\n      jump\t// out\n        /* \"@openzeppelin/contracts/token/ERC20/ERC20.sol\":12495:12615  function _afterTokenTransfer(... */\n    tag_299:\n      pop\n      pop\n      pop\n      jump\t// out\n        /* \"#utility.yul\":7:146   */\n    tag_336:\n        /* \"#utility.yul\":53:58   */\n      0x00\n        /* \"#utility.yul\":91:97   */\n      dup2\n        /* \"#utility.yul\":78:98   */\n      calldataload\n        /* \"#utility.yul\":69:98   */\n      swap1\n      pop\n        /* \"#utility.yul\":107:140   */\n      tag_338\n        /* \"#utility.yul\":134:139   */\n      dup2\n        /* \"#utility.yul\":107:140   */\n      tag_339\n      jump\t// in\n    tag_338:\n        /* \"#utility.yul\":7:146   */\n      swap3\n      swap2\n      pop\n      pop\n      jump\t// out\n        /* \"#utility.yul\":152:289   */\n    tag_340:\n        /* \"#utility.yul\":206:211   */\n      0x00\n        /* \"#utility.yul\":237:243   */\n      dup2\n        /* \"#utility.yul\":231:244   */\n      mload\n        /* \"#utility.yul\":222:244   */\n      swap1\n      pop\n        /* \"#utility.yul\":253:283   */\n      tag_342\n        /* \"#utility.yul\":277:282   */\n      dup2\n        /* \"#utility.yul\":253:283   */\n      tag_343\n      jump\t// in\n    tag_342:\n        /* \"#utility.yul\":152:289   */\n      swap3\n      swap2\n      pop\n      pop\n      jump\t// out\n        /* \"#utility.yul\":295:434   */\n    tag_344:\n        /* \"#utility.yul\":341:346   */\n      0x00\n        /* \"#utility.yul\":379:385   */\n      dup2\n        /* \"#utility.yul\":366:386   */\n      calldataload\n        /* \"#utility.yul\":357:386   */\n      swap1\n      pop\n        /* \"#utility.yul\":395:428   */\n      tag_346\n        /* \"#utility.yul\":422:427   */\n      dup2\n        /* \"#utility.yul\":395:428   */\n      tag_347\n      jump\t// in\n    tag_346:\n        /* \"#utility.yul\":295:434   */\n      swap3\n      swap2\n      pop\n      pop\n      jump\t// out\n        /* \"#utility.yul\":440:583   */\n    tag_348:\n        /* \"#utility.yul\":497:502   */\n      0x00\n        /* \"#utility.yul\":528:534   */\n      dup2\n        /* \"#utility.yul\":522:535   */\n      mload\n        /* \"#utility.yul\":513:535   */\n      swap1\n      pop\n        /* \"#utility.yul\":544:577   */\n      tag_350\n        /* \"#utility.yul\":571:576   */\n      dup2\n        /* \"#utility.yul\":544:577   */\n      tag_347\n      jump\t// in\n    tag_350:\n        /* \"#utility.yul\":440:583   */\n      swap3\n      swap2\n      pop\n      pop\n      jump\t// out\n        /* \"#utility.yul\":589:918   */\n    tag_91:\n        /* \"#utility.yul\":648:654   */\n      0x00\n        /* \"#utility.yul\":697:699   */\n      0x20\n        /* \"#utility.yul\":685:694   */\n      dup3\n        /* \"#utility.yul\":676:683   */\n      dup5\n        /* \"#utility.yul\":672:695   */\n      sub\n        /* \"#utility.yul\":668:700   */\n      slt\n        /* \"#utility.yul\":665:784   */\n      iszero\n      tag_352\n      jumpi\n        /* \"#utility.yul\":703:782   */\n      tag_353\n      tag_354\n      jump\t// in\n    tag_353:\n        /* \"#utility.yul\":665:784   */\n    tag_352:\n        /* \"#utility.yul\":823:824   */\n      0x00\n        /* \"#utility.yul\":848:901   */\n      tag_355\n        /* \"#utility.yul\":893:900   */\n      dup5\n        /* \"#utility.yul\":884:890   */\n      dup3\n        /* \"#utility.yul\":873:882   */\n      dup6\n        /* \"#utility.yul\":869:891   */\n      add\n        /* \"#utility.yul\":848:901   */\n      tag_336\n      jump\t// in\n    tag_355:\n        /* \"#utility.yul\":838:901   */\n      swap2\n      pop\n        /* \"#utility.yul\":794:911   */\n      pop\n        /* \"#utility.yul\":589:918   */\n      swap3\n      swap2\n      pop\n      pop\n      jump\t// out\n        /* \"#utility.yul\":924:1398   */\n    tag_128:\n        /* \"#utility.yul\":992:998   */\n      0x00\n        /* \"#utility.yul\":1000:1006   */\n      dup1\n        /* \"#utility.yul\":1049:1051   */\n      0x40\n        /* \"#utility.yul\":1037:1046   */\n      dup4\n        /* \"#utility.yul\":1028:1035   */\n      dup6\n        /* \"#utility.yul\":1024:1047   */\n      sub\n        /* \"#utility.yul\":1020:1052   */\n      slt\n        /* \"#utility.yul\":1017:1136   */\n      iszero\n      tag_357\n      jumpi\n        /* \"#utility.yul\":1055:1134   */\n      tag_358\n      tag_354\n      jump\t// in\n    tag_358:\n        /* \"#utility.yul\":1017:1136   */\n    tag_357:\n        /* \"#utility.yul\":1175:1176   */\n      0x00\n        /* \"#utility.yul\":1200:1253   */\n      tag_359\n        /* \"#utility.yul\":1245:1252   */\n      dup6\n        /* \"#utility.yul\":1236:1242   */\n      dup3\n        /* \"#utility.yul\":1225:1234   */\n      dup7\n        /* \"#utility.yul\":1221:1243   */\n      add\n        /* \"#utility.yul\":1200:1253   */\n      tag_336\n      jump\t// in\n    tag_359:\n        /* \"#utility.yul\":1190:1253   */\n      swap3\n      pop\n        /* \"#utility.yul\":1146:1263   */\n      pop\n        /* \"#utility.yul\":1302:1304   */\n      0x20\n        /* \"#utility.yul\":1328:1381   */\n      tag_360\n        /* \"#utility.yul\":1373:1380   */\n      dup6\n        /* \"#utility.yul\":1364:1370   */\n      dup3\n        /* \"#utility.yul\":1353:1362   */\n      dup7\n        /* \"#utility.yul\":1349:1371   */\n      add\n        /* \"#utility.yul\":1328:1381   */\n      tag_336\n      jump\t// in\n    tag_360:\n        /* \"#utility.yul\":1318:1381   */\n      swap2\n      pop\n        /* \"#utility.yul\":1273:1391   */\n      pop\n        /* \"#utility.yul\":924:1398   */\n      swap3\n      pop\n      swap3\n      swap1\n      pop\n      jump\t// out\n        /* \"#utility.yul\":1404:2023   */\n    tag_57:\n        /* \"#utility.yul\":1481:1487   */\n      0x00\n        /* \"#utility.yul\":1489:1495   */\n      dup1\n        /* \"#utility.yul\":1497:1503   */\n      0x00\n        /* \"#utility.yul\":1546:1548   */\n      0x60\n        /* \"#utility.yul\":1534:1543   */\n      dup5\n        /* \"#utility.yul\":1525:1532   */\n      dup7\n        /* \"#utility.yul\":1521:1544   */\n      sub\n        /* \"#utility.yul\":1517:1549   */\n      slt\n        /* \"#utility.yul\":1514:1633   */\n      iszero\n      tag_362\n      jumpi\n        /* \"#utility.yul\":1552:1631   */\n      tag_363\n      tag_354\n      jump\t// in\n    tag_363:\n        /* \"#utility.yul\":1514:1633   */\n    tag_362:\n        /* \"#utility.yul\":1672:1673   */\n      0x00\n        /* \"#utility.yul\":1697:1750   */\n      tag_364\n        /* \"#utility.yul\":1742:1749   */\n      dup7\n        /* \"#utility.yul\":1733:1739   */\n      dup3\n        /* \"#utility.yul\":1722:1731   */\n      dup8\n        /* \"#utility.yul\":1718:1740   */\n      add\n        /* \"#utility.yul\":1697:1750   */\n      tag_336\n      jump\t// in\n    tag_364:\n        /* \"#utility.yul\":1687:1750   */\n      swap4\n      pop\n        /* \"#utility.yul\":1643:1760   */\n      pop\n        /* \"#utility.yul\":1799:1801   */\n      0x20\n        /* \"#utility.yul\":1825:1878   */\n      tag_365\n        /* \"#utility.yul\":1870:1877   */\n      dup7\n        /* \"#utility.yul\":1861:1867   */\n      dup3\n        /* \"#utility.yul\":1850:1859   */\n      dup8\n        /* \"#utility.yul\":1846:1868   */\n      add\n        /* \"#utility.yul\":1825:1878   */\n      tag_336\n      jump\t// in\n    tag_365:\n        /* \"#utility.yul\":1815:1878   */\n      swap3\n      pop\n        /* \"#utility.yul\":1770:1888   */\n      pop\n        /* \"#utility.yul\":1927:1929   */\n      0x40\n        /* \"#utility.yul\":1953:2006   */\n      tag_366\n        /* \"#utility.yul\":1998:2005   */\n      dup7\n        /* \"#utility.yul\":1989:1995   */\n      dup3\n        /* \"#utility.yul\":1978:1987   */\n      dup8\n        /* \"#utility.yul\":1974:1996   */\n      add\n        /* \"#utility.yul\":1953:2006   */\n      tag_344\n      jump\t// in\n    tag_366:\n        /* \"#utility.yul\":1943:2006   */\n      swap2\n      pop\n        /* \"#utility.yul\":1898:2016   */\n      pop\n        /* \"#utility.yul\":1404:2023   */\n      swap3\n      pop\n      swap3\n      pop\n      swap3\n      jump\t// out\n        /* \"#utility.yul\":2029:2503   */\n    tag_39:\n        /* \"#utility.yul\":2097:2103   */\n      0x00\n        /* \"#utility.yul\":2105:2111   */\n      dup1\n        /* \"#utility.yul\":2154:2156   */\n      0x40\n        /* \"#utility.yul\":2142:2151   */\n      dup4\n        /* \"#utility.yul\":2133:2140   */\n      dup6\n        /* \"#utility.yul\":2129:2152   */\n      sub\n        /* \"#utility.yul\":2125:2157   */\n      slt\n        /* \"#utility.yul\":2122:2241   */\n      iszero\n      tag_368\n      jumpi\n        /* \"#utility.yul\":2160:2239   */\n      tag_369\n      tag_354\n      jump\t// in\n    tag_369:\n        /* \"#utility.yul\":2122:2241   */\n    tag_368:\n        /* \"#utility.yul\":2280:2281   */\n      0x00\n        /* \"#utility.yul\":2305:2358   */\n      tag_370\n        /* \"#utility.yul\":2350:2357   */\n      dup6\n        /* \"#utility.yul\":2341:2347   */\n      dup3\n        /* \"#utility.yul\":2330:2339   */\n      dup7\n        /* \"#utility.yul\":2326:2348   */\n      add\n        /* \"#utility.yul\":2305:2358   */\n      tag_336\n      jump\t// in\n    tag_370:\n        /* \"#utility.yul\":2295:2358   */\n      swap3\n      pop\n        /* \"#utility.yul\":2251:2368   */\n      pop\n        /* \"#utility.yul\":2407:2409   */\n      0x20\n        /* \"#utility.yul\":2433:2486   */\n      tag_371\n        /* \"#utility.yul\":2478:2485   */\n      dup6\n        /* \"#utility.yul\":2469:2475   */\n      dup3\n        /* \"#utility.yul\":2458:2467   */\n      dup7\n        /* \"#utility.yul\":2454:2476   */\n      add\n        /* \"#utility.yul\":2433:2486   */\n      tag_344\n      jump\t// in\n    tag_371:\n        /* \"#utility.yul\":2423:2486   */\n      swap2\n      pop\n        /* \"#utility.yul\":2378:2496   */\n      pop\n        /* \"#utility.yul\":2029:2503   */\n      swap3\n      pop\n      swap3\n      swap1\n      pop\n      jump\t// out\n        /* \"#utility.yul\":2509:2854   */\n    tag_185:\n        /* \"#utility.yul\":2576:2582   */\n      0x00\n        /* \"#utility.yul\":2625:2627   */\n      0x20\n        /* \"#utility.yul\":2613:2622   */\n      dup3\n        /* \"#utility.yul\":2604:2611   */\n      dup5\n        /* \"#utility.yul\":2600:2623   */\n      sub\n        /* \"#utility.yul\":2596:2628   */\n      slt\n        /* \"#utility.yul\":2593:2712   */\n      iszero\n      tag_373\n      jumpi\n        /* \"#utility.yul\":2631:2710   */\n      tag_374\n      tag_354\n      jump\t// in\n    tag_374:\n        /* \"#utility.yul\":2593:2712   */\n    tag_373:\n        /* \"#utility.yul\":2751:2752   */\n      0x00\n        /* \"#utility.yul\":2776:2837   */\n      tag_375\n        /* \"#utility.yul\":2829:2836   */\n      dup5\n        /* \"#utility.yul\":2820:2826   */\n      dup3\n        /* \"#utility.yul\":2809:2818   */\n      dup6\n        /* \"#utility.yul\":2805:2827   */\n      add\n        /* \"#utility.yul\":2776:2837   */\n      tag_340\n      jump\t// in\n    tag_375:\n        /* \"#utility.yul\":2766:2837   */\n      swap2\n      pop\n        /* \"#utility.yul\":2722:2847   */\n      pop\n        /* \"#utility.yul\":2509:2854   */\n      swap3\n      swap2\n      pop\n      pop\n      jump\t// out\n        /* \"#utility.yul\":2860:3189   */\n    tag_46:\n        /* \"#utility.yul\":2919:2925   */\n      0x00\n        /* \"#utility.yul\":2968:2970   */\n      0x20\n        /* \"#utility.yul\":2956:2965   */\n      dup3\n        /* \"#utility.yul\":2947:2954   */\n      dup5\n        /* \"#utility.yul\":2943:2966   */\n      sub\n        /* \"#utility.yul\":2939:2971   */\n      slt\n        /* \"#utility.yul\":2936:3055   */\n      iszero\n      tag_377\n      jumpi\n        /* \"#utility.yul\":2974:3053   */\n      tag_378\n      tag_354\n      jump\t// in\n    tag_378:\n        /* \"#utility.yul\":2936:3055   */\n    tag_377:\n        /* \"#utility.yul\":3094:3095   */\n      0x00\n        /* \"#utility.yul\":3119:3172   */\n      tag_379\n        /* \"#utility.yul\":3164:3171   */\n      dup5\n        /* \"#utility.yul\":3155:3161   */\n      dup3\n        /* \"#utility.yul\":3144:3153   */\n      dup6\n        /* \"#utility.yul\":3140:3162   */\n      add\n        /* \"#utility.yul\":3119:3172   */\n      tag_344\n      jump\t// in\n    tag_379:\n        /* \"#utility.yul\":3109:3172   */\n      swap2\n      pop\n        /* \"#utility.yul\":3065:3182   */\n      pop\n        /* \"#utility.yul\":2860:3189   */\n      swap3\n      swap2\n      pop\n      pop\n      jump\t// out\n        /* \"#utility.yul\":3195:3546   */\n    tag_144:\n        /* \"#utility.yul\":3265:3271   */\n      0x00\n        /* \"#utility.yul\":3314:3316   */\n      0x20\n        /* \"#utility.yul\":3302:3311   */\n      dup3\n        /* \"#utility.yul\":3293:3300   */\n      dup5\n        /* \"#utility.yul\":3289:3312   */\n      sub\n        /* \"#utility.yul\":3285:3317   */\n      slt\n        /* \"#utility.yul\":3282:3401   */\n      iszero\n      tag_381\n      jumpi\n        /* \"#utility.yul\":3320:3399   */\n      tag_382\n      tag_354\n      jump\t// in\n    tag_382:\n        /* \"#utility.yul\":3282:3401   */\n    tag_381:\n        /* \"#utility.yul\":3440:3441   */\n      0x00\n        /* \"#utility.yul\":3465:3529   */\n      tag_383\n        /* \"#utility.yul\":3521:3528   */\n      dup5\n        /* \"#utility.yul\":3512:3518   */\n      dup3\n        /* \"#utility.yul\":3501:3510   */\n      dup6\n        /* \"#utility.yul\":3497:3519   */\n      add\n        /* \"#utility.yul\":3465:3529   */\n      tag_348\n      jump\t// in\n    tag_383:\n        /* \"#utility.yul\":3455:3529   */\n      swap2\n      pop\n        /* \"#utility.yul\":3411:3539   */\n      pop\n        /* \"#utility.yul\":3195:3546   */\n      swap3\n      swap2\n      pop\n      pop\n      jump\t// out\n        /* \"#utility.yul\":3552:4026   */\n    tag_86:\n        /* \"#utility.yul\":3620:3626   */\n      0x00\n        /* \"#utility.yul\":3628:3634   */\n      dup1\n        /* \"#utility.yul\":3677:3679   */\n      0x40\n        /* \"#utility.yul\":3665:3674   */\n      dup4\n        /* \"#utility.yul\":3656:3663   */\n      dup6\n        /* \"#utility.yul\":3652:3675   */\n      sub\n        /* \"#utility.yul\":3648:3680   */\n      slt\n        /* \"#utility.yul\":3645:3764   */\n      iszero\n      tag_385\n      jumpi\n        /* \"#utility.yul\":3683:3762   */\n      tag_386\n      tag_354\n      jump\t// in\n    tag_386:\n        /* \"#utility.yul\":3645:3764   */\n    tag_385:\n        /* \"#utility.yul\":3803:3804   */\n      0x00\n        /* \"#utility.yul\":3828:3881   */\n      tag_387\n        /* \"#utility.yul\":3873:3880   */\n      dup6\n        /* \"#utility.yul\":3864:3870   */\n      dup3\n        /* \"#utility.yul\":3853:3862   */\n      dup7\n        /* \"#utility.yul\":3849:3871   */\n      add\n        /* \"#utility.yul\":3828:3881   */\n      tag_344\n      jump\t// in\n    tag_387:\n        /* \"#utility.yul\":3818:3881   */\n      swap3\n      pop\n        /* \"#utility.yul\":3774:3891   */\n      pop\n        /* \"#utility.yul\":3930:3932   */\n      0x20\n        /* \"#utility.yul\":3956:4009   */\n      tag_388\n        /* \"#utility.yul\":4001:4008   */\n      dup6\n        /* \"#utility.yul\":3992:3998   */\n      dup3\n        /* \"#utility.yul\":3981:3990   */\n      dup7\n        /* \"#utility.yul\":3977:3999   */\n      add\n        /* \"#utility.yul\":3956:4009   */\n      tag_336\n      jump\t// in\n    tag_388:\n        /* \"#utility.yul\":3946:4009   */\n      swap2\n      pop\n        /* \"#utility.yul\":3901:4019   */\n      pop\n        /* \"#utility.yul\":3552:4026   */\n      swap3\n      pop\n      swap3\n      swap1\n      pop\n      jump\t// out\n        /* \"#utility.yul\":4032:4506   */\n    tag_82:\n        /* \"#utility.yul\":4100:4106   */\n      0x00\n        /* \"#utility.yul\":4108:4114   */\n      dup1\n        /* \"#utility.yul\":4157:4159   */\n      0x40\n        /* \"#utility.yul\":4145:4154   */\n      dup4\n        /* \"#utility.yul\":4136:4143   */\n      dup6\n        /* \"#utility.yul\":4132:4155   */\n      sub\n        /* \"#utility.yul\":4128:4160   */\n      slt\n        /* \"#utility.yul\":4125:4244   */\n      iszero\n      tag_390\n      jumpi\n        /* \"#utility.yul\":4163:4242   */\n      tag_391\n      tag_354\n      jump\t// in\n    tag_391:\n        /* \"#utility.yul\":4125:4244   */\n    tag_390:\n        /* \"#utility.yul\":4283:4284   */\n      0x00\n        /* \"#utility.yul\":4308:4361   */\n      tag_392\n        /* \"#utility.yul\":4353:4360   */\n      dup6\n        /* \"#utility.yul\":4344:4350   */\n      dup3\n        /* \"#utility.yul\":4333:4342   */\n      dup7\n        /* \"#utility.yul\":4329:4351   */\n      add\n        /* \"#utility.yul\":4308:4361   */\n      tag_344\n      jump\t// in\n    tag_392:\n        /* \"#utility.yul\":4298:4361   */\n      swap3\n      pop\n        /* \"#utility.yul\":4254:4371   */\n      pop\n        /* \"#utility.yul\":4410:4412   */\n      0x20\n        /* \"#utility.yul\":4436:4489   */\n      tag_393\n        /* \"#utility.yul\":4481:4488   */\n      dup6\n        /* \"#utility.yul\":4472:4478   */\n      dup3\n        /* \"#utility.yul\":4461:4470   */\n      dup7\n        /* \"#utility.yul\":4457:4479   */\n      add\n        /* \"#utility.yul\":4436:4489   */\n      tag_344\n      jump\t// in\n    tag_393:\n        /* \"#utility.yul\":4426:4489   */\n      swap2\n      pop\n        /* \"#utility.yul\":4381:4499   */\n      pop\n        /* \"#utility.yul\":4032:4506   */\n      swap3\n      pop\n      swap3\n      swap1\n      pop\n      jump\t// out\n        /* \"#utility.yul\":4512:4630   */\n    tag_394:\n        /* \"#utility.yul\":4599:4623   */\n      tag_396\n        /* \"#utility.yul\":4617:4622   */\n      dup2\n        /* \"#utility.yul\":4599:4623   */\n      tag_397\n      jump\t// in\n    tag_396:\n        /* \"#utility.yul\":4594:4597   */\n      dup3\n        /* \"#utility.yul\":4587:4624   */\n      mstore\n        /* \"#utility.yul\":4512:4630   */\n      pop\n      pop\n      jump\t// out\n        /* \"#utility.yul\":4636:4745   */\n    tag_398:\n        /* \"#utility.yul\":4717:4738   */\n      tag_400\n        /* \"#utility.yul\":4732:4737   */\n      dup2\n        /* \"#utility.yul\":4717:4738   */\n      tag_401\n      jump\t// in\n    tag_400:\n        /* \"#utility.yul\":4712:4715   */\n      dup3\n        /* \"#utility.yul\":4705:4739   */\n      mstore\n        /* \"#utility.yul\":4636:4745   */\n      pop\n      pop\n      jump\t// out\n        /* \"#utility.yul\":4751:5115   */\n    tag_402:\n        /* \"#utility.yul\":4839:4842   */\n      0x00\n        /* \"#utility.yul\":4867:4906   */\n      tag_404\n        /* \"#utility.yul\":4900:4905   */\n      dup3\n        /* \"#utility.yul\":4867:4906   */\n      tag_405\n      jump\t// in\n    tag_404:\n        /* \"#utility.yul\":4922:4993   */\n      tag_406\n        /* \"#utility.yul\":4986:4992   */\n      dup2\n        /* \"#utility.yul\":4981:4984   */\n      dup6\n        /* \"#utility.yul\":4922:4993   */\n      tag_407\n      jump\t// in\n    tag_406:\n        /* \"#utility.yul\":4915:4993   */\n      swap4\n      pop\n        /* \"#utility.yul\":5002:5054   */\n      tag_408\n        /* \"#utility.yul\":5047:5053   */\n      dup2\n        /* \"#utility.yul\":5042:5045   */\n      dup6\n        /* \"#utility.yul\":5035:5039   */\n      0x20\n        /* \"#utility.yul\":5028:5033   */\n      dup7\n        /* \"#utility.yul\":5024:5040   */\n      add\n        /* \"#utility.yul\":5002:5054   */\n      tag_409\n      jump\t// in\n    tag_408:\n        /* \"#utility.yul\":5079:5108   */\n      tag_410\n        /* \"#utility.yul\":5101:5107   */\n      dup2\n        /* \"#utility.yul\":5079:5108   */\n      tag_411\n      jump\t// in\n    tag_410:\n        /* \"#utility.yul\":5074:5077   */\n      dup5\n        /* \"#utility.yul\":5070:5109   */\n      add\n        /* \"#utility.yul\":5063:5109   */\n      swap2\n      pop\n        /* \"#utility.yul\":4843:5115   */\n      pop\n        /* \"#utility.yul\":4751:5115   */\n      swap3\n      swap2\n      pop\n      pop\n      jump\t// out\n        /* \"#utility.yul\":5121:5487   */\n    tag_412:\n        /* \"#utility.yul\":5263:5266   */\n      0x00\n        /* \"#utility.yul\":5284:5351   */\n      tag_414\n        /* \"#utility.yul\":5348:5350   */\n      0x23\n        /* \"#utility.yul\":5343:5346   */\n      dup4\n        /* \"#utility.yul\":5284:5351   */\n      tag_407\n      jump\t// in\n    tag_414:\n        /* \"#utility.yul\":5277:5351   */\n      swap2\n      pop\n        /* \"#utility.yul\":5360:5453   */\n      tag_415\n        /* \"#utility.yul\":5449:5452   */\n      dup3\n        /* \"#utility.yul\":5360:5453   */\n      tag_416\n      jump\t// in\n    tag_415:\n        /* \"#utility.yul\":5478:5480   */\n      0x40\n        /* \"#utility.yul\":5473:5476   */\n      dup3\n        /* \"#utility.yul\":5469:5481   */\n      add\n        /* \"#utility.yul\":5462:5481   */\n      swap1\n      pop\n        /* \"#utility.yul\":5121:5487   */\n      swap2\n      swap1\n      pop\n      jump\t// out\n        /* \"#utility.yul\":5493:5859   */\n    tag_417:\n        /* \"#utility.yul\":5635:5638   */\n      0x00\n        /* \"#utility.yul\":5656:5723   */\n      tag_419\n        /* \"#utility.yul\":5720:5722   */\n      0x22\n        /* \"#utility.yul\":5715:5718   */\n      dup4\n        /* \"#utility.yul\":5656:5723   */\n      tag_407\n      jump\t// in\n    tag_419:\n        /* \"#utility.yul\":5649:5723   */\n      swap2\n      pop\n        /* \"#utility.yul\":5732:5825   */\n      tag_420\n        /* \"#utility.yul\":5821:5824   */\n      dup3\n        /* \"#utility.yul\":5732:5825   */\n      tag_421\n      jump\t// in\n    tag_420:\n        /* \"#utility.yul\":5850:5852   */\n      0x40\n        /* \"#utility.yul\":5845:5848   */\n      dup3\n        /* \"#utility.yul\":5841:5853   */\n      add\n        /* \"#utility.yul\":5834:5853   */\n      swap1\n      pop\n        /* \"#utility.yul\":5493:5859   */\n      swap2\n      swap1\n      pop\n      jump\t// out\n        /* \"#utility.yul\":5865:6231   */\n    tag_422:\n        /* \"#utility.yul\":6007:6010   */\n      0x00\n        /* \"#utility.yul\":6028:6095   */\n      tag_424\n        /* \"#utility.yul\":6092:6094   */\n      0x22\n        /* \"#utility.yul\":6087:6090   */\n      dup4\n        /* \"#utility.yul\":6028:6095   */\n      tag_407\n      jump\t// in\n    tag_424:\n        /* \"#utility.yul\":6021:6095   */\n      swap2\n      pop\n        /* \"#utility.yul\":6104:6197   */\n      tag_425\n        /* \"#utility.yul\":6193:6196   */\n      dup3\n        /* \"#utility.yul\":6104:6197   */\n      tag_426\n      jump\t// in\n    tag_425:\n        /* \"#utility.yul\":6222:6224   */\n      0x40\n        /* \"#utility.yul\":6217:6220   */\n      dup3\n        /* \"#utility.yul\":6213:6225   */\n      add\n        /* \"#utility.yul\":6206:6225   */\n      swap1\n      pop\n        /* \"#utility.yul\":5865:6231   */\n      swap2\n      swap1\n      pop\n      jump\t// out\n        /* \"#utility.yul\":6237:6603   */\n    tag_427:\n        /* \"#utility.yul\":6379:6382   */\n      0x00\n        /* \"#utility.yul\":6400:6467   */\n      tag_429\n        /* \"#utility.yul\":6464:6466   */\n      0x29\n        /* \"#utility.yul\":6459:6462   */\n      dup4\n        /* \"#utility.yul\":6400:6467   */\n      tag_407\n      jump\t// in\n    tag_429:\n        /* \"#utility.yul\":6393:6467   */\n      swap2\n      pop\n        /* \"#utility.yul\":6476:6569   */\n      tag_430\n        /* \"#utility.yul\":6565:6568   */\n      dup3\n        /* \"#utility.yul\":6476:6569   */\n      tag_431\n      jump\t// in\n    tag_430:\n        /* \"#utility.yul\":6594:6596   */\n      0x40\n        /* \"#utility.yul\":6589:6592   */\n      dup3\n        /* \"#utility.yul\":6585:6597   */\n      add\n        /* \"#utility.yul\":6578:6597   */\n      swap1\n      pop\n        /* \"#utility.yul\":6237:6603   */\n      swap2\n      swap1\n      pop\n      jump\t// out\n        /* \"#utility.yul\":6609:6975   */\n    tag_432:\n        /* \"#utility.yul\":6751:6754   */\n      0x00\n        /* \"#utility.yul\":6772:6839   */\n      tag_434\n        /* \"#utility.yul\":6836:6838   */\n      0x1d\n        /* \"#utility.yul\":6831:6834   */\n      dup4\n        /* \"#utility.yul\":6772:6839   */\n      tag_407\n      jump\t// in\n    tag_434:\n        /* \"#utility.yul\":6765:6839   */\n      swap2\n      pop\n        /* \"#utility.yul\":6848:6941   */\n      tag_435\n        /* \"#utility.yul\":6937:6940   */\n      dup3\n        /* \"#utility.yul\":6848:6941   */\n      tag_436\n      jump\t// in\n    tag_435:\n        /* \"#utility.yul\":6966:6968   */\n      0x20\n        /* \"#utility.yul\":6961:6964   */\n      dup3\n        /* \"#utility.yul\":6957:6969   */\n      add\n        /* \"#utility.yul\":6950:6969   */\n      swap1\n      pop\n        /* \"#utility.yul\":6609:6975   */\n      swap2\n      swap1\n      pop\n      jump\t// out\n        /* \"#utility.yul\":6981:7347   */\n    tag_437:\n        /* \"#utility.yul\":7123:7126   */\n      0x00\n        /* \"#utility.yul\":7144:7211   */\n      tag_439\n        /* \"#utility.yul\":7208:7210   */\n      0x26\n        /* \"#utility.yul\":7203:7206   */\n      dup4\n        /* \"#utility.yul\":7144:7211   */\n      tag_407\n      jump\t// in\n    tag_439:\n        /* \"#utility.yul\":7137:7211   */\n      swap2\n      pop\n        /* \"#utility.yul\":7220:7313   */\n      tag_440\n        /* \"#utility.yul\":7309:7312   */\n      dup3\n        /* \"#utility.yul\":7220:7313   */\n      tag_441\n      jump\t// in\n    tag_440:\n        /* \"#utility.yul\":7338:7340   */\n      0x40\n        /* \"#utility.yul\":7333:7336   */\n      dup3\n        /* \"#utility.yul\":7329:7341   */\n      add\n        /* \"#utility.yul\":7322:7341   */\n      swap1\n      pop\n        /* \"#utility.yul\":6981:7347   */\n      swap2\n      swap1\n      pop\n      jump\t// out\n        /* \"#utility.yul\":7353:7719   */\n    tag_442:\n        /* \"#utility.yul\":7495:7498   */\n      0x00\n        /* \"#utility.yul\":7516:7583   */\n      tag_444\n        /* \"#utility.yul\":7580:7582   */\n      0x43\n        /* \"#utility.yul\":7575:7578   */\n      dup4\n        /* \"#utility.yul\":7516:7583   */\n      tag_407\n      jump\t// in\n    tag_444:\n        /* \"#utility.yul\":7509:7583   */\n      swap2\n      pop\n        /* \"#utility.yul\":7592:7685   */\n      tag_445\n        /* \"#utility.yul\":7681:7684   */\n      dup3\n        /* \"#utility.yul\":7592:7685   */\n      tag_446\n      jump\t// in\n    tag_445:\n        /* \"#utility.yul\":7710:7712   */\n      0x60\n        /* \"#utility.yul\":7705:7708   */\n      dup3\n        /* \"#utility.yul\":7701:7713   */\n      add\n        /* \"#utility.yul\":7694:7713   */\n      swap1\n      pop\n        /* \"#utility.yul\":7353:7719   */\n      swap2\n      swap1\n      pop\n      jump\t// out\n        /* \"#utility.yul\":7725:8091   */\n    tag_447:\n        /* \"#utility.yul\":7867:7870   */\n      0x00\n        /* \"#utility.yul\":7888:7955   */\n      tag_449\n        /* \"#utility.yul\":7952:7954   */\n      0x37\n        /* \"#utility.yul\":7947:7950   */\n      dup4\n        /* \"#utility.yul\":7888:7955   */\n      tag_407\n      jump\t// in\n    tag_449:\n        /* \"#utility.yul\":7881:7955   */\n      swap2\n      pop\n        /* \"#utility.yul\":7964:8057   */\n      tag_450\n        /* \"#utility.yul\":8053:8056   */\n      dup3\n        /* \"#utility.yul\":7964:8057   */\n      tag_451\n      jump\t// in\n    tag_450:\n        /* \"#utility.yul\":8082:8084   */\n      0x40\n        /* \"#utility.yul\":8077:8080   */\n      dup3\n        /* \"#utility.yul\":8073:8085   */\n      add\n        /* \"#utility.yul\":8066:8085   */\n      swap1\n      pop\n        /* \"#utility.yul\":7725:8091   */\n      swap2\n      swap1\n      pop\n      jump\t// out\n        /* \"#utility.yul\":8097:8463   */\n    tag_452:\n        /* \"#utility.yul\":8239:8242   */\n      0x00\n        /* \"#utility.yul\":8260:8327   */\n      tag_454\n        /* \"#utility.yul\":8324:8326   */\n      0x21\n        /* \"#utility.yul\":8319:8322   */\n      dup4\n        /* \"#utility.yul\":8260:8327   */\n      tag_407\n      jump\t// in\n    tag_454:\n        /* \"#utility.yul\":8253:8327   */\n      swap2\n      pop\n        /* \"#utility.yul\":8336:8429   */\n      tag_455\n        /* \"#utility.yul\":8425:8428   */\n      dup3\n        /* \"#utility.yul\":8336:8429   */\n      tag_456\n      jump\t// in\n    tag_455:\n        /* \"#utility.yul\":8454:8456   */\n      0x40\n        /* \"#utility.yul\":8449:8452   */\n      dup3\n        /* \"#utility.yul\":8445:8457   */\n      add\n        /* \"#utility.yul\":8438:8457   */\n      swap1\n      pop\n        /* \"#utility.yul\":8097:8463   */\n      swap2\n      swap1\n      pop\n      jump\t// out\n        /* \"#utility.yul\":8469:8835   */\n    tag_457:\n        /* \"#utility.yul\":8611:8614   */\n      0x00\n        /* \"#utility.yul\":8632:8699   */\n      tag_459\n        /* \"#utility.yul\":8696:8698   */\n      0x19\n        /* \"#utility.yul\":8691:8694   */\n      dup4\n        /* \"#utility.yul\":8632:8699   */\n      tag_407\n      jump\t// in\n    tag_459:\n        /* \"#utility.yul\":8625:8699   */\n      swap2\n      pop\n        /* \"#utility.yul\":8708:8801   */\n      tag_460\n        /* \"#utility.yul\":8797:8800   */\n      dup3\n        /* \"#utility.yul\":8708:8801   */\n      tag_461\n      jump\t// in\n    tag_460:\n        /* \"#utility.yul\":8826:8828   */\n      0x20\n        /* \"#utility.yul\":8821:8824   */\n      dup3\n        /* \"#utility.yul\":8817:8829   */\n      add\n        /* \"#utility.yul\":8810:8829   */\n      swap1\n      pop\n        /* \"#utility.yul\":8469:8835   */\n      swap2\n      swap1\n      pop\n      jump\t// out\n        /* \"#utility.yul\":8841:9207   */\n    tag_462:\n        /* \"#utility.yul\":8983:8986   */\n      0x00\n        /* \"#utility.yul\":9004:9071   */\n      tag_464\n        /* \"#utility.yul\":9068:9070   */\n      0x25\n        /* \"#utility.yul\":9063:9066   */\n      dup4\n        /* \"#utility.yul\":9004:9071   */\n      tag_407\n      jump\t// in\n    tag_464:\n        /* \"#utility.yul\":8997:9071   */\n      swap2\n      pop\n        /* \"#utility.yul\":9080:9173   */\n      tag_465\n        /* \"#utility.yul\":9169:9172   */\n      dup3\n        /* \"#utility.yul\":9080:9173   */\n      tag_466\n      jump\t// in\n    tag_465:\n        /* \"#utility.yul\":9198:9200   */\n      0x40\n        /* \"#utility.yul\":9193:9196   */\n      dup3\n        /* \"#utility.yul\":9189:9201   */\n      add\n        /* \"#utility.yul\":9182:9201   */\n      swap1\n      pop\n        /* \"#utility.yul\":8841:9207   */\n      swap2\n      swap1\n      pop\n      jump\t// out\n        /* \"#utility.yul\":9213:9579   */\n    tag_467:\n        /* \"#utility.yul\":9355:9358   */\n      0x00\n        /* \"#utility.yul\":9376:9443   */\n      tag_469\n        /* \"#utility.yul\":9440:9442   */\n      0x25\n        /* \"#utility.yul\":9435:9438   */\n      dup4\n        /* \"#utility.yul\":9376:9443   */\n      tag_407\n      jump\t// in\n    tag_469:\n        /* \"#utility.yul\":9369:9443   */\n      swap2\n      pop\n        /* \"#utility.yul\":9452:9545   */\n      tag_470\n        /* \"#utility.yul\":9541:9544   */\n      dup3\n        /* \"#utility.yul\":9452:9545   */\n      tag_471\n      jump\t// in\n    tag_470:\n        /* \"#utility.yul\":9570:9572   */\n      0x40\n        /* \"#utility.yul\":9565:9568   */\n      dup3\n        /* \"#utility.yul\":9561:9573   */\n      add\n        /* \"#utility.yul\":9554:9573   */\n      swap1\n      pop\n        /* \"#utility.yul\":9213:9579   */\n      swap2\n      swap1\n      pop\n      jump\t// out\n        /* \"#utility.yul\":9585:9983   */\n    tag_472:\n        /* \"#utility.yul\":9744:9747   */\n      0x00\n        /* \"#utility.yul\":9765:9848   */\n      tag_474\n        /* \"#utility.yul\":9846:9847   */\n      0x00\n        /* \"#utility.yul\":9841:9844   */\n      dup4\n        /* \"#utility.yul\":9765:9848   */\n      tag_475\n      jump\t// in\n    tag_474:\n        /* \"#utility.yul\":9758:9848   */\n      swap2\n      pop\n        /* \"#utility.yul\":9857:9950   */\n      tag_476\n        /* \"#utility.yul\":9946:9949   */\n      dup3\n        /* \"#utility.yul\":9857:9950   */\n      tag_477\n      jump\t// in\n    tag_476:\n        /* \"#utility.yul\":9975:9976   */\n      0x00\n        /* \"#utility.yul\":9970:9973   */\n      dup3\n        /* \"#utility.yul\":9966:9977   */\n      add\n        /* \"#utility.yul\":9959:9977   */\n      swap1\n      pop\n        /* \"#utility.yul\":9585:9983   */\n      swap2\n      swap1\n      pop\n      jump\t// out\n        /* \"#utility.yul\":9989:10355   */\n    tag_478:\n        /* \"#utility.yul\":10131:10134   */\n      0x00\n        /* \"#utility.yul\":10152:10219   */\n      tag_480\n        /* \"#utility.yul\":10216:10218   */\n      0x15\n        /* \"#utility.yul\":10211:10214   */\n      dup4\n        /* \"#utility.yul\":10152:10219   */\n      tag_407\n      jump\t// in\n    tag_480:\n        /* \"#utility.yul\":10145:10219   */\n      swap2\n      pop\n        /* \"#utility.yul\":10228:10321   */\n      tag_481\n        /* \"#utility.yul\":10317:10320   */\n      dup3\n        /* \"#utility.yul\":10228:10321   */\n      tag_482\n      jump\t// in\n    tag_481:\n        /* \"#utility.yul\":10346:10348   */\n      0x20\n        /* \"#utility.yul\":10341:10344   */\n      dup3\n        /* \"#utility.yul\":10337:10349   */\n      add\n        /* \"#utility.yul\":10330:10349   */\n      swap1\n      pop\n        /* \"#utility.yul\":9989:10355   */\n      swap2\n      swap1\n      pop\n      jump\t// out\n        /* \"#utility.yul\":10361:10727   */\n    tag_483:\n        /* \"#utility.yul\":10503:10506   */\n      0x00\n        /* \"#utility.yul\":10524:10591   */\n      tag_485\n        /* \"#utility.yul\":10588:10590   */\n      0x24\n        /* \"#utility.yul\":10583:10586   */\n      dup4\n        /* \"#utility.yul\":10524:10591   */\n      tag_407\n      jump\t// in\n    tag_485:\n        /* \"#utility.yul\":10517:10591   */\n      swap2\n      pop\n        /* \"#utility.yul\":10600:10693   */\n      tag_486\n        /* \"#utility.yul\":10689:10692   */\n      dup3\n        /* \"#utility.yul\":10600:10693   */\n      tag_487\n      jump\t// in\n    tag_486:\n        /* \"#utility.yul\":10718:10720   */\n      0x40\n        /* \"#utility.yul\":10713:10716   */\n      dup3\n        /* \"#utility.yul\":10709:10721   */\n      add\n        /* \"#utility.yul\":10702:10721   */\n      swap1\n      pop\n        /* \"#utility.yul\":10361:10727   */\n      swap2\n      swap1\n      pop\n      jump\t// out\n        /* \"#utility.yul\":10733:11099   */\n    tag_488:\n        /* \"#utility.yul\":10875:10878   */\n      0x00\n        /* \"#utility.yul\":10896:10963   */\n      tag_490\n        /* \"#utility.yul\":10960:10962   */\n      0x25\n        /* \"#utility.yul\":10955:10958   */\n      dup4\n        /* \"#utility.yul\":10896:10963   */\n      tag_407\n      jump\t// in\n    tag_490:\n        /* \"#utility.yul\":10889:10963   */\n      swap2\n      pop\n        /* \"#utility.yul\":10972:11065   */\n      tag_491\n        /* \"#utility.yul\":11061:11064   */\n      dup3\n        /* \"#utility.yul\":10972:11065   */\n      tag_492\n      jump\t// in\n    tag_491:\n        /* \"#utility.yul\":11090:11092   */\n      0x40\n        /* \"#utility.yul\":11085:11088   */\n      dup3\n        /* \"#utility.yul\":11081:11093   */\n      add\n        /* \"#utility.yul\":11074:11093   */\n      swap1\n      pop\n        /* \"#utility.yul\":10733:11099   */\n      swap2\n      swap1\n      pop\n      jump\t// out\n        /* \"#utility.yul\":11105:11471   */\n    tag_493:\n        /* \"#utility.yul\":11247:11250   */\n      0x00\n        /* \"#utility.yul\":11268:11335   */\n      tag_495\n        /* \"#utility.yul\":11332:11334   */\n      0x1f\n        /* \"#utility.yul\":11327:11330   */\n      dup4\n        /* \"#utility.yul\":11268:11335   */\n      tag_407\n      jump\t// in\n    tag_495:\n        /* \"#utility.yul\":11261:11335   */\n      swap2\n      pop\n        /* \"#utility.yul\":11344:11437   */\n      tag_496\n        /* \"#utility.yul\":11433:11436   */\n      dup3\n        /* \"#utility.yul\":11344:11437   */\n      tag_497\n      jump\t// in\n    tag_496:\n        /* \"#utility.yul\":11462:11464   */\n      0x20\n        /* \"#utility.yul\":11457:11460   */\n      dup3\n        /* \"#utility.yul\":11453:11465   */\n      add\n        /* \"#utility.yul\":11446:11465   */\n      swap1\n      pop\n        /* \"#utility.yul\":11105:11471   */\n      swap2\n      swap1\n      pop\n      jump\t// out\n        /* \"#utility.yul\":11477:11595   */\n    tag_498:\n        /* \"#utility.yul\":11564:11588   */\n      tag_500\n        /* \"#utility.yul\":11582:11587   */\n      dup2\n        /* \"#utility.yul\":11564:11588   */\n      tag_501\n      jump\t// in\n    tag_500:\n        /* \"#utility.yul\":11559:11562   */\n      dup3\n        /* \"#utility.yul\":11552:11589   */\n      mstore\n        /* \"#utility.yul\":11477:11595   */\n      pop\n      pop\n      jump\t// out\n        /* \"#utility.yul\":11601:11713   */\n    tag_502:\n        /* \"#utility.yul\":11684:11706   */\n      tag_504\n        /* \"#utility.yul\":11700:11705   */\n      dup2\n        /* \"#utility.yul\":11684:11706   */\n      tag_505\n      jump\t// in\n    tag_504:\n        /* \"#utility.yul\":11679:11682   */\n      dup3\n        /* \"#utility.yul\":11672:11707   */\n      mstore\n        /* \"#utility.yul\":11601:11713   */\n      pop\n      pop\n      jump\t// out\n        /* \"#utility.yul\":11719:12098   */\n    tag_231:\n        /* \"#utility.yul\":11903:11906   */\n      0x00\n        /* \"#utility.yul\":11925:12072   */\n      tag_507\n        /* \"#utility.yul\":12068:12071   */\n      dup3\n        /* \"#utility.yul\":11925:12072   */\n      tag_472\n      jump\t// in\n    tag_507:\n        /* \"#utility.yul\":11918:12072   */\n      swap2\n      pop\n        /* \"#utility.yul\":12089:12092   */\n      dup2\n        /* \"#utility.yul\":12082:12092   */\n      swap1\n      pop\n        /* \"#utility.yul\":11719:12098   */\n      swap2\n      swap1\n      pop\n      jump\t// out\n        /* \"#utility.yul\":12104:12326   */\n    tag_102:\n        /* \"#utility.yul\":12197:12201   */\n      0x00\n        /* \"#utility.yul\":12235:12237   */\n      0x20\n        /* \"#utility.yul\":12224:12233   */\n      dup3\n        /* \"#utility.yul\":12220:12238   */\n      add\n        /* \"#utility.yul\":12212:12238   */\n      swap1\n      pop\n        /* \"#utility.yul\":12248:12319   */\n      tag_509\n        /* \"#utility.yul\":12316:12317   */\n      0x00\n        /* \"#utility.yul\":12305:12314   */\n      dup4\n        /* \"#utility.yul\":12301:12318   */\n      add\n        /* \"#utility.yul\":12292:12298   */\n      dup5\n        /* \"#utility.yul\":12248:12319   */\n      tag_394\n      jump\t// in\n    tag_509:\n        /* \"#utility.yul\":12104:12326   */\n      swap3\n      swap2\n      pop\n      pop\n      jump\t// out\n        /* \"#utility.yul\":12332:12774   */\n    tag_180:\n        /* \"#utility.yul\":12481:12485   */\n      0x00\n        /* \"#utility.yul\":12519:12521   */\n      0x60\n        /* \"#utility.yul\":12508:12517   */\n      dup3\n        /* \"#utility.yul\":12504:12522   */\n      add\n        /* \"#utility.yul\":12496:12522   */\n      swap1\n      pop\n        /* \"#utility.yul\":12532:12603   */\n      tag_511\n        /* \"#utility.yul\":12600:12601   */\n      0x00\n        /* \"#utility.yul\":12589:12598   */\n      dup4\n        /* \"#utility.yul\":12585:12602   */\n      add\n        /* \"#utility.yul\":12576:12582   */\n      dup7\n        /* \"#utility.yul\":12532:12603   */\n      tag_394\n      jump\t// in\n    tag_511:\n        /* \"#utility.yul\":12613:12685   */\n      tag_512\n        /* \"#utility.yul\":12681:12683   */\n      0x20\n        /* \"#utility.yul\":12670:12679   */\n      dup4\n        /* \"#utility.yul\":12666:12684   */\n      add\n        /* \"#utility.yul\":12657:12663   */\n      dup6\n        /* \"#utility.yul\":12613:12685   */\n      tag_394\n      jump\t// in\n    tag_512:\n        /* \"#utility.yul\":12695:12767   */\n      tag_513\n        /* \"#utility.yul\":12763:12765   */\n      0x40\n        /* \"#utility.yul\":12752:12761   */\n      dup4\n        /* \"#utility.yul\":12748:12766   */\n      add\n        /* \"#utility.yul\":12739:12745   */\n      dup5\n        /* \"#utility.yul\":12695:12767   */\n      tag_498\n      jump\t// in\n    tag_513:\n        /* \"#utility.yul\":12332:12774   */\n      swap5\n      swap4\n      pop\n      pop\n      pop\n      pop\n      jump\t// out\n        /* \"#utility.yul\":12780:13112   */\n    tag_239:\n        /* \"#utility.yul\":12901:12905   */\n      0x00\n        /* \"#utility.yul\":12939:12941   */\n      0x40\n        /* \"#utility.yul\":12928:12937   */\n      dup3\n        /* \"#utility.yul\":12924:12942   */\n      add\n        /* \"#utility.yul\":12916:12942   */\n      swap1\n      pop\n        /* \"#utility.yul\":12952:13023   */\n      tag_515\n        /* \"#utility.yul\":13020:13021   */\n      0x00\n        /* \"#utility.yul\":13009:13018   */\n      dup4\n        /* \"#utility.yul\":13005:13022   */\n      add\n        /* \"#utility.yul\":12996:13002   */\n      dup6\n        /* \"#utility.yul\":12952:13023   */\n      tag_394\n      jump\t// in\n    tag_515:\n        /* \"#utility.yul\":13033:13105   */\n      tag_516\n        /* \"#utility.yul\":13101:13103   */\n      0x20\n        /* \"#utility.yul\":13090:13099   */\n      dup4\n        /* \"#utility.yul\":13086:13104   */\n      add\n        /* \"#utility.yul\":13077:13083   */\n      dup5\n        /* \"#utility.yul\":13033:13105   */\n      tag_498\n      jump\t// in\n    tag_516:\n        /* \"#utility.yul\":12780:13112   */\n      swap4\n      swap3\n      pop\n      pop\n      pop\n      jump\t// out\n        /* \"#utility.yul\":13118:13328   */\n    tag_42:\n        /* \"#utility.yul\":13205:13209   */\n      0x00\n        /* \"#utility.yul\":13243:13245   */\n      0x20\n        /* \"#utility.yul\":13232:13241   */\n      dup3\n        /* \"#utility.yul\":13228:13246   */\n      add\n        /* \"#utility.yul\":13220:13246   */\n      swap1\n      pop\n        /* \"#utility.yul\":13256:13321   */\n      tag_518\n        /* \"#utility.yul\":13318:13319   */\n      0x00\n        /* \"#utility.yul\":13307:13316   */\n      dup4\n        /* \"#utility.yul\":13303:13320   */\n      add\n        /* \"#utility.yul\":13294:13300   */\n      dup5\n        /* \"#utility.yul\":13256:13321   */\n      tag_398\n      jump\t// in\n    tag_518:\n        /* \"#utility.yul\":13118:13328   */\n      swap3\n      swap2\n      pop\n      pop\n      jump\t// out\n        /* \"#utility.yul\":13334:13647   */\n    tag_30:\n        /* \"#utility.yul\":13447:13451   */\n      0x00\n        /* \"#utility.yul\":13485:13487   */\n      0x20\n        /* \"#utility.yul\":13474:13483   */\n      dup3\n        /* \"#utility.yul\":13470:13488   */\n      add\n        /* \"#utility.yul\":13462:13488   */\n      swap1\n      pop\n        /* \"#utility.yul\":13534:13543   */\n      dup2\n        /* \"#utility.yul\":13528:13532   */\n      dup2\n        /* \"#utility.yul\":13524:13544   */\n      sub\n        /* \"#utility.yul\":13520:13521   */\n      0x00\n        /* \"#utility.yul\":13509:13518   */\n      dup4\n        /* \"#utility.yul\":13505:13522   */\n      add\n        /* \"#utility.yul\":13498:13545   */\n      mstore\n        /* \"#utility.yul\":13562:13640   */\n      tag_520\n        /* \"#utility.yul\":13635:13639   */\n      dup2\n        /* \"#utility.yul\":13626:13632   */\n      dup5\n        /* \"#utility.yul\":13562:13640   */\n      tag_402\n      jump\t// in\n    tag_520:\n        /* \"#utility.yul\":13554:13640   */\n      swap1\n      pop\n        /* \"#utility.yul\":13334:13647   */\n      swap3\n      swap2\n      pop\n      pop\n      jump\t// out\n        /* \"#utility.yul\":13653:14072   */\n    tag_290:\n        /* \"#utility.yul\":13819:13823   */\n      0x00\n        /* \"#utility.yul\":13857:13859   */\n      0x20\n        /* \"#utility.yul\":13846:13855   */\n      dup3\n        /* \"#utility.yul\":13842:13860   */\n      add\n        /* \"#utility.yul\":13834:13860   */\n      swap1\n      pop\n        /* \"#utility.yul\":13906:13915   */\n      dup2\n        /* \"#utility.yul\":13900:13904   */\n      dup2\n        /* \"#utility.yul\":13896:13916   */\n      sub\n        /* \"#utility.yul\":13892:13893   */\n      0x00\n        /* \"#utility.yul\":13881:13890   */\n      dup4\n        /* \"#utility.yul\":13877:13894   */\n      add\n        /* \"#utility.yul\":13870:13917   */\n      mstore\n        /* \"#utility.yul\":13934:14065   */\n      tag_522\n        /* \"#utility.yul\":14060:14064   */\n      dup2\n        /* \"#utility.yul\":13934:14065   */\n      tag_412\n      jump\t// in\n    tag_522:\n        /* \"#utility.yul\":13926:14065   */\n      swap1\n      pop\n        /* \"#utility.yul\":13653:14072   */\n      swap2\n      swap1\n      pop\n      jump\t// out\n        /* \"#utility.yul\":14078:14497   */\n    tag_329:\n        /* \"#utility.yul\":14244:14248   */\n      0x00\n        /* \"#utility.yul\":14282:14284   */\n      0x20\n        /* \"#utility.yul\":14271:14280   */\n      dup3\n        /* \"#utility.yul\":14267:14285   */\n      add\n        /* \"#utility.yul\":14259:14285   */\n      swap1\n      pop\n        /* \"#utility.yul\":14331:14340   */\n      dup2\n        /* \"#utility.yul\":14325:14329   */\n      dup2\n        /* \"#utility.yul\":14321:14341   */\n      sub\n        /* \"#utility.yul\":14317:14318   */\n      0x00\n        /* \"#utility.yul\":14306:14315   */\n      dup4\n        /* \"#utility.yul\":14302:14319   */\n      add\n        /* \"#utility.yul\":14295:14342   */\n      mstore\n        /* \"#utility.yul\":14359:14490   */\n      tag_524\n        /* \"#utility.yul\":14485:14489   */\n      dup2\n        /* \"#utility.yul\":14359:14490   */\n      tag_417\n      jump\t// in\n    tag_524:\n        /* \"#utility.yul\":14351:14490   */\n      swap1\n      pop\n        /* \"#utility.yul\":14078:14497   */\n      swap2\n      swap1\n      pop\n      jump\t// out\n        /* \"#utility.yul\":14503:14922   */\n    tag_264:\n        /* \"#utility.yul\":14669:14673   */\n      0x00\n        /* \"#utility.yul\":14707:14709   */\n      0x20\n        /* \"#utility.yul\":14696:14705   */\n      dup3\n        /* \"#utility.yul\":14692:14710   */\n      add\n        /* \"#utility.yul\":14684:14710   */\n      swap1\n      pop\n        /* \"#utility.yul\":14756:14765   */\n      dup2\n        /* \"#utility.yul\":14750:14754   */\n      dup2\n        /* \"#utility.yul\":14746:14766   */\n      sub\n        /* \"#utility.yul\":14742:14743   */\n      0x00\n        /* \"#utility.yul\":14731:14740   */\n      dup4\n        /* \"#utility.yul\":14727:14744   */\n      add\n        /* \"#utility.yul\":14720:14767   */\n      mstore\n        /* \"#utility.yul\":14784:14915   */\n      tag_526\n        /* \"#utility.yul\":14910:14914   */\n      dup2\n        /* \"#utility.yul\":14784:14915   */\n      tag_422\n      jump\t// in\n    tag_526:\n        /* \"#utility.yul\":14776:14915   */\n      swap1\n      pop\n        /* \"#utility.yul\":14503:14922   */\n      swap2\n      swap1\n      pop\n      jump\t// out\n        /* \"#utility.yul\":14928:15347   */\n    tag_195:\n        /* \"#utility.yul\":15094:15098   */\n      0x00\n        /* \"#utility.yul\":15132:15134   */\n      0x20\n        /* \"#utility.yul\":15121:15130   */\n      dup3\n        /* \"#utility.yul\":15117:15135   */\n      add\n        /* \"#utility.yul\":15109:15135   */\n      swap1\n      pop\n        /* \"#utility.yul\":15181:15190   */\n      dup2\n        /* \"#utility.yul\":15175:15179   */\n      dup2\n        /* \"#utility.yul\":15171:15191   */\n      sub\n        /* \"#utility.yul\":15167:15168   */\n      0x00\n        /* \"#utility.yul\":15156:15165   */\n      dup4\n        /* \"#utility.yul\":15152:15169   */\n      add\n        /* \"#utility.yul\":15145:15192   */\n      mstore\n        /* \"#utility.yul\":15209:15340   */\n      tag_528\n        /* \"#utility.yul\":15335:15339   */\n      dup2\n        /* \"#utility.yul\":15209:15340   */\n      tag_427\n      jump\t// in\n    tag_528:\n        /* \"#utility.yul\":15201:15340   */\n      swap1\n      pop\n        /* \"#utility.yul\":14928:15347   */\n      swap2\n      swap1\n      pop\n      jump\t// out\n        /* \"#utility.yul\":15353:15772   */\n    tag_282:\n        /* \"#utility.yul\":15519:15523   */\n      0x00\n        /* \"#utility.yul\":15557:15559   */\n      0x20\n        /* \"#utility.yul\":15546:15555   */\n      dup3\n        /* \"#utility.yul\":15542:15560   */\n      add\n        /* \"#utility.yul\":15534:15560   */\n      swap1\n      pop\n        /* \"#utility.yul\":15606:15615   */\n      dup2\n        /* \"#utility.yul\":15600:15604   */\n      dup2\n        /* \"#utility.yul\":15596:15616   */\n      sub\n        /* \"#utility.yul\":15592:15593   */\n      0x00\n        /* \"#utility.yul\":15581:15590   */\n      dup4\n        /* \"#utility.yul\":15577:15594   */\n      add\n        /* \"#utility.yul\":15570:15617   */\n      mstore\n        /* \"#utility.yul\":15634:15765   */\n      tag_530\n        /* \"#utility.yul\":15760:15764   */\n      dup2\n        /* \"#utility.yul\":15634:15765   */\n      tag_432\n      jump\t// in\n    tag_530:\n        /* \"#utility.yul\":15626:15765   */\n      swap1\n      pop\n        /* \"#utility.yul\":15353:15772   */\n      swap2\n      swap1\n      pop\n      jump\t// out\n        /* \"#utility.yul\":15778:16197   */\n    tag_295:\n        /* \"#utility.yul\":15944:15948   */\n      0x00\n        /* \"#utility.yul\":15982:15984   */\n      0x20\n        /* \"#utility.yul\":15971:15980   */\n      dup3\n        /* \"#utility.yul\":15967:15985   */\n      add\n        /* \"#utility.yul\":15959:15985   */\n      swap1\n      pop\n        /* \"#utility.yul\":16031:16040   */\n      dup2\n        /* \"#utility.yul\":16025:16029   */\n      dup2\n        /* \"#utility.yul\":16021:16041   */\n      sub\n        /* \"#utility.yul\":16017:16018   */\n      0x00\n        /* \"#utility.yul\":16006:16015   */\n      dup4\n        /* \"#utility.yul\":16002:16019   */\n      add\n        /* \"#utility.yul\":15995:16042   */\n      mstore\n        /* \"#utility.yul\":16059:16190   */\n      tag_532\n        /* \"#utility.yul\":16185:16189   */\n      dup2\n        /* \"#utility.yul\":16059:16190   */\n      tag_437\n      jump\t// in\n    tag_532:\n        /* \"#utility.yul\":16051:16190   */\n      swap1\n      pop\n        /* \"#utility.yul\":15778:16197   */\n      swap2\n      swap1\n      pop\n      jump\t// out\n        /* \"#utility.yul\":16203:16622   */\n    tag_315:\n        /* \"#utility.yul\":16369:16373   */\n      0x00\n        /* \"#utility.yul\":16407:16409   */\n      0x20\n        /* \"#utility.yul\":16396:16405   */\n      dup3\n        /* \"#utility.yul\":16392:16410   */\n      add\n        /* \"#utility.yul\":16384:16410   */\n      swap1\n      pop\n        /* \"#utility.yul\":16456:16465   */\n      dup2\n        /* \"#utility.yul\":16450:16454   */\n      dup2\n        /* \"#utility.yul\":16446:16466   */\n      sub\n        /* \"#utility.yul\":16442:16443   */\n      0x00\n        /* \"#utility.yul\":16431:16440   */\n      dup4\n        /* \"#utility.yul\":16427:16444   */\n      add\n        /* \"#utility.yul\":16420:16467   */\n      mstore\n        /* \"#utility.yul\":16484:16615   */\n      tag_534\n        /* \"#utility.yul\":16610:16614   */\n      dup2\n        /* \"#utility.yul\":16484:16615   */\n      tag_442\n      jump\t// in\n    tag_534:\n        /* \"#utility.yul\":16476:16615   */\n      swap1\n      pop\n        /* \"#utility.yul\":16203:16622   */\n      swap2\n      swap1\n      pop\n      jump\t// out\n        /* \"#utility.yul\":16628:17047   */\n    tag_220:\n        /* \"#utility.yul\":16794:16798   */\n      0x00\n        /* \"#utility.yul\":16832:16834   */\n      0x20\n        /* \"#utility.yul\":16821:16830   */\n      dup3\n        /* \"#utility.yul\":16817:16835   */\n      add\n        /* \"#utility.yul\":16809:16835   */\n      swap1\n      pop\n        /* \"#utility.yul\":16881:16890   */\n      dup2\n        /* \"#utility.yul\":16875:16879   */\n      dup2\n        /* \"#utility.yul\":16871:16891   */\n      sub\n        /* \"#utility.yul\":16867:16868   */\n      0x00\n        /* \"#utility.yul\":16856:16865   */\n      dup4\n        /* \"#utility.yul\":16852:16869   */\n      add\n        /* \"#utility.yul\":16845:16892   */\n      mstore\n        /* \"#utility.yul\":16909:17040   */\n      tag_536\n        /* \"#utility.yul\":17035:17039   */\n      dup2\n        /* \"#utility.yul\":16909:17040   */\n      tag_447\n      jump\t// in\n    tag_536:\n        /* \"#utility.yul\":16901:17040   */\n      swap1\n      pop\n        /* \"#utility.yul\":16628:17047   */\n      swap2\n      swap1\n      pop\n      jump\t// out\n        /* \"#utility.yul\":17053:17472   */\n    tag_325:\n        /* \"#utility.yul\":17219:17223   */\n      0x00\n        /* \"#utility.yul\":17257:17259   */\n      0x20\n        /* \"#utility.yul\":17246:17255   */\n      dup3\n        /* \"#utility.yul\":17242:17260   */\n      add\n        /* \"#utility.yul\":17234:17260   */\n      swap1\n      pop\n        /* \"#utility.yul\":17306:17315   */\n      dup2\n        /* \"#utility.yul\":17300:17304   */\n      dup2\n        /* \"#utility.yul\":17296:17316   */\n      sub\n        /* \"#utility.yul\":17292:17293   */\n      0x00\n        /* \"#utility.yul\":17281:17290   */\n      dup4\n        /* \"#utility.yul\":17277:17294   */\n      add\n        /* \"#utility.yul\":17270:17317   */\n      mstore\n        /* \"#utility.yul\":17334:17465   */\n      tag_538\n        /* \"#utility.yul\":17460:17464   */\n      dup2\n        /* \"#utility.yul\":17334:17465   */\n      tag_452\n      jump\t// in\n    tag_538:\n        /* \"#utility.yul\":17326:17465   */\n      swap1\n      pop\n        /* \"#utility.yul\":17053:17472   */\n      swap2\n      swap1\n      pop\n      jump\t// out\n        /* \"#utility.yul\":17478:17897   */\n    tag_153:\n        /* \"#utility.yul\":17644:17648   */\n      0x00\n        /* \"#utility.yul\":17682:17684   */\n      0x20\n        /* \"#utility.yul\":17671:17680   */\n      dup3\n        /* \"#utility.yul\":17667:17685   */\n      add\n        /* \"#utility.yul\":17659:17685   */\n      swap1\n      pop\n        /* \"#utility.yul\":17731:17740   */\n      dup2\n        /* \"#utility.yul\":17725:17729   */\n      dup2\n        /* \"#utility.yul\":17721:17741   */\n      sub\n        /* \"#utility.yul\":17717:17718   */\n      0x00\n        /* \"#utility.yul\":17706:17715   */\n      dup4\n        /* \"#utility.yul\":17702:17719   */\n      add\n        /* \"#utility.yul\":17695:17742   */\n      mstore\n        /* \"#utility.yul\":17759:17890   */\n      tag_540\n        /* \"#utility.yul\":17885:17889   */\n      dup2\n        /* \"#utility.yul\":17759:17890   */\n      tag_457\n      jump\t// in\n    tag_540:\n        /* \"#utility.yul\":17751:17890   */\n      swap1\n      pop\n        /* \"#utility.yul\":17478:17897   */\n      swap2\n      swap1\n      pop\n      jump\t// out\n        /* \"#utility.yul\":17903:18322   */\n    tag_287:\n        /* \"#utility.yul\":18069:18073   */\n      0x00\n        /* \"#utility.yul\":18107:18109   */\n      0x20\n        /* \"#utility.yul\":18096:18105   */\n      dup3\n        /* \"#utility.yul\":18092:18110   */\n      add\n        /* \"#utility.yul\":18084:18110   */\n      swap1\n      pop\n        /* \"#utility.yul\":18156:18165   */\n      dup2\n        /* \"#utility.yul\":18150:18154   */\n      dup2\n        /* \"#utility.yul\":18146:18166   */\n      sub\n        /* \"#utility.yul\":18142:18143   */\n      0x00\n        /* \"#utility.yul\":18131:18140   */\n      dup4\n        /* \"#utility.yul\":18127:18144   */\n      add\n        /* \"#utility.yul\":18120:18167   */\n      mstore\n        /* \"#utility.yul\":18184:18315   */\n      tag_542\n        /* \"#utility.yul\":18310:18314   */\n      dup2\n        /* \"#utility.yul\":18184:18315   */\n      tag_462\n      jump\t// in\n    tag_542:\n        /* \"#utility.yul\":18176:18315   */\n      swap1\n      pop\n        /* \"#utility.yul\":17903:18322   */\n      swap2\n      swap1\n      pop\n      jump\t// out\n        /* \"#utility.yul\":18328:18747   */\n    tag_237:\n        /* \"#utility.yul\":18494:18498   */\n      0x00\n        /* \"#utility.yul\":18532:18534   */\n      0x20\n        /* \"#utility.yul\":18521:18530   */\n      dup3\n        /* \"#utility.yul\":18517:18535   */\n      add\n        /* \"#utility.yul\":18509:18535   */\n      swap1\n      pop\n        /* \"#utility.yul\":18581:18590   */\n      dup2\n        /* \"#utility.yul\":18575:18579   */\n      dup2\n        /* \"#utility.yul\":18571:18591   */\n      sub\n        /* \"#utility.yul\":18567:18568   */\n      0x00\n        /* \"#utility.yul\":18556:18565   */\n      dup4\n        /* \"#utility.yul\":18552:18569   */\n      add\n        /* \"#utility.yul\":18545:18592   */\n      mstore\n        /* \"#utility.yul\":18609:18740   */\n      tag_544\n        /* \"#utility.yul\":18735:18739   */\n      dup2\n        /* \"#utility.yul\":18609:18740   */\n      tag_467\n      jump\t// in\n    tag_544:\n        /* \"#utility.yul\":18601:18740   */\n      swap1\n      pop\n        /* \"#utility.yul\":18328:18747   */\n      swap2\n      swap1\n      pop\n      jump\t// out\n        /* \"#utility.yul\":18753:19172   */\n    tag_270:\n        /* \"#utility.yul\":18919:18923   */\n      0x00\n        /* \"#utility.yul\":18957:18959   */\n      0x20\n        /* \"#utility.yul\":18946:18955   */\n      dup3\n        /* \"#utility.yul\":18942:18960   */\n      add\n        /* \"#utility.yul\":18934:18960   */\n      swap1\n      pop\n        /* \"#utility.yul\":19006:19015   */\n      dup2\n        /* \"#utility.yul\":19000:19004   */\n      dup2\n        /* \"#utility.yul\":18996:19016   */\n      sub\n        /* \"#utility.yul\":18992:18993   */\n      0x00\n        /* \"#utility.yul\":18981:18990   */\n      dup4\n        /* \"#utility.yul\":18977:18994   */\n      add\n        /* \"#utility.yul\":18970:19017   */\n      mstore\n        /* \"#utility.yul\":19034:19165   */\n      tag_546\n        /* \"#utility.yul\":19160:19164   */\n      dup2\n        /* \"#utility.yul\":19034:19165   */\n      tag_478\n      jump\t// in\n    tag_546:\n        /* \"#utility.yul\":19026:19165   */\n      swap1\n      pop\n        /* \"#utility.yul\":18753:19172   */\n      swap2\n      swap1\n      pop\n      jump\t// out\n        /* \"#utility.yul\":19178:19597   */\n    tag_261:\n        /* \"#utility.yul\":19344:19348   */\n      0x00\n        /* \"#utility.yul\":19382:19384   */\n      0x20\n        /* \"#utility.yul\":19371:19380   */\n      dup3\n        /* \"#utility.yul\":19367:19385   */\n      add\n        /* \"#utility.yul\":19359:19385   */\n      swap1\n      pop\n        /* \"#utility.yul\":19431:19440   */\n      dup2\n        /* \"#utility.yul\":19425:19429   */\n      dup2\n        /* \"#utility.yul\":19421:19441   */\n      sub\n        /* \"#utility.yul\":19417:19418   */\n      0x00\n        /* \"#utility.yul\":19406:19415   */\n      dup4\n        /* \"#utility.yul\":19402:19419   */\n      add\n        /* \"#utility.yul\":19395:19442   */\n      mstore\n        /* \"#utility.yul\":19459:19590   */\n      tag_548\n        /* \"#utility.yul\":19585:19589   */\n      dup2\n        /* \"#utility.yul\":19459:19590   */\n      tag_483\n      jump\t// in\n    tag_548:\n        /* \"#utility.yul\":19451:19590   */\n      swap1\n      pop\n        /* \"#utility.yul\":19178:19597   */\n      swap2\n      swap1\n      pop\n      jump\t// out\n        /* \"#utility.yul\":19603:20022   */\n    tag_249:\n        /* \"#utility.yul\":19769:19773   */\n      0x00\n        /* \"#utility.yul\":19807:19809   */\n      0x20\n        /* \"#utility.yul\":19796:19805   */\n      dup3\n        /* \"#utility.yul\":19792:19810   */\n      add\n        /* \"#utility.yul\":19784:19810   */\n      swap1\n      pop\n        /* \"#utility.yul\":19856:19865   */\n      dup2\n        /* \"#utility.yul\":19850:19854   */\n      dup2\n        /* \"#utility.yul\":19846:19866   */\n      sub\n        /* \"#utility.yul\":19842:19843   */\n      0x00\n        /* \"#utility.yul\":19831:19840   */\n      dup4\n        /* \"#utility.yul\":19827:19844   */\n      add\n        /* \"#utility.yul\":19820:19867   */\n      mstore\n        /* \"#utility.yul\":19884:20015   */\n      tag_550\n        /* \"#utility.yul\":20010:20014   */\n      dup2\n        /* \"#utility.yul\":19884:20015   */\n      tag_488\n      jump\t// in\n    tag_550:\n        /* \"#utility.yul\":19876:20015   */\n      swap1\n      pop\n        /* \"#utility.yul\":19603:20022   */\n      swap2\n      swap1\n      pop\n      jump\t// out\n        /* \"#utility.yul\":20028:20447   */\n    tag_303:\n        /* \"#utility.yul\":20194:20198   */\n      0x00\n        /* \"#utility.yul\":20232:20234   */\n      0x20\n        /* \"#utility.yul\":20221:20230   */\n      dup3\n        /* \"#utility.yul\":20217:20235   */\n      add\n        /* \"#utility.yul\":20209:20235   */\n      swap1\n      pop\n        /* \"#utility.yul\":20281:20290   */\n      dup2\n        /* \"#utility.yul\":20275:20279   */\n      dup2\n        /* \"#utility.yul\":20271:20291   */\n      sub\n        /* \"#utility.yul\":20267:20268   */\n      0x00\n        /* \"#utility.yul\":20256:20265   */\n      dup4\n        /* \"#utility.yul\":20252:20269   */\n      add\n        /* \"#utility.yul\":20245:20292   */\n      mstore\n        /* \"#utility.yul\":20309:20440   */\n      tag_552\n        /* \"#utility.yul\":20435:20439   */\n      dup2\n        /* \"#utility.yul\":20309:20440   */\n      tag_493\n      jump\t// in\n    tag_552:\n        /* \"#utility.yul\":20301:20440   */\n      swap1\n      pop\n        /* \"#utility.yul\":20028:20447   */\n      swap2\n      swap1\n      pop\n      jump\t// out\n        /* \"#utility.yul\":20453:20675   */\n    tag_49:\n        /* \"#utility.yul\":20546:20550   */\n      0x00\n        /* \"#utility.yul\":20584:20586   */\n      0x20\n        /* \"#utility.yul\":20573:20582   */\n      dup3\n        /* \"#utility.yul\":20569:20587   */\n      add\n        /* \"#utility.yul\":20561:20587   */\n      swap1\n      pop\n        /* \"#utility.yul\":20597:20668   */\n      tag_554\n        /* \"#utility.yul\":20665:20666   */\n      0x00\n        /* \"#utility.yul\":20654:20663   */\n      dup4\n        /* \"#utility.yul\":20650:20667   */\n      add\n        /* \"#utility.yul\":20641:20647   */\n      dup5\n        /* \"#utility.yul\":20597:20668   */\n      tag_498\n      jump\t// in\n    tag_554:\n        /* \"#utility.yul\":20453:20675   */\n      swap3\n      swap2\n      pop\n      pop\n      jump\t// out\n        /* \"#utility.yul\":20681:21013   */\n    tag_35:\n        /* \"#utility.yul\":20802:20806   */\n      0x00\n        /* \"#utility.yul\":20840:20842   */\n      0x40\n        /* \"#utility.yul\":20829:20838   */\n      dup3\n        /* \"#utility.yul\":20825:20843   */\n      add\n        /* \"#utility.yul\":20817:20843   */\n      swap1\n      pop\n        /* \"#utility.yul\":20853:20924   */\n      tag_556\n        /* \"#utility.yul\":20921:20922   */\n      0x00\n        /* \"#utility.yul\":20910:20919   */\n      dup4\n        /* \"#utility.yul\":20906:20923   */\n      add\n        /* \"#utility.yul\":20897:20903   */\n      dup6\n        /* \"#utility.yul\":20853:20924   */\n      tag_498\n      jump\t// in\n    tag_556:\n        /* \"#utility.yul\":20934:21006   */\n      tag_557\n        /* \"#utility.yul\":21002:21004   */\n      0x20\n        /* \"#utility.yul\":20991:21000   */\n      dup4\n        /* \"#utility.yul\":20987:21005   */\n      add\n        /* \"#utility.yul\":20978:20984   */\n      dup5\n        /* \"#utility.yul\":20934:21006   */\n      tag_498\n      jump\t// in\n    tag_557:\n        /* \"#utility.yul\":20681:21013   */\n      swap4\n      swap3\n      pop\n      pop\n      pop\n      jump\t// out\n        /* \"#utility.yul\":21019:21233   */\n    tag_69:\n        /* \"#utility.yul\":21108:21112   */\n      0x00\n        /* \"#utility.yul\":21146:21148   */\n      0x20\n        /* \"#utility.yul\":21135:21144   */\n      dup3\n        /* \"#utility.yul\":21131:21149   */\n      add\n        /* \"#utility.yul\":21123:21149   */\n      swap1\n      pop\n        /* \"#utility.yul\":21159:21226   */\n      tag_559\n        /* \"#utility.yul\":21223:21224   */\n      0x00\n        /* \"#utility.yul\":21212:21221   */\n      dup4\n        /* \"#utility.yul\":21208:21225   */\n      add\n        /* \"#utility.yul\":21199:21205   */\n      dup5\n        /* \"#utility.yul\":21159:21226   */\n      tag_502\n      jump\t// in\n    tag_559:\n        /* \"#utility.yul\":21019:21233   */\n      swap3\n      swap2\n      pop\n      pop\n      jump\t// out\n        /* \"#utility.yul\":21320:21419   */\n    tag_405:\n        /* \"#utility.yul\":21372:21378   */\n      0x00\n        /* \"#utility.yul\":21406:21411   */\n      dup2\n        /* \"#utility.yul\":21400:21412   */\n      mload\n        /* \"#utility.yul\":21390:21412   */\n      swap1\n      pop\n        /* \"#utility.yul\":21320:21419   */\n      swap2\n      swap1\n      pop\n      jump\t// out\n        /* \"#utility.yul\":21425:21572   */\n    tag_475:\n        /* \"#utility.yul\":21526:21537   */\n      0x00\n        /* \"#utility.yul\":21563:21566   */\n      dup2\n        /* \"#utility.yul\":21548:21566   */\n      swap1\n      pop\n        /* \"#utility.yul\":21425:21572   */\n      swap3\n      swap2\n      pop\n      pop\n      jump\t// out\n        /* \"#utility.yul\":21578:21747   */\n    tag_407:\n        /* \"#utility.yul\":21662:21673   */\n      0x00\n        /* \"#utility.yul\":21696:21702   */\n      dup3\n        /* \"#utility.yul\":21691:21694   */\n      dup3\n        /* \"#utility.yul\":21684:21703   */\n      mstore\n        /* \"#utility.yul\":21736:21740   */\n      0x20\n        /* \"#utility.yul\":21731:21734   */\n      dup3\n        /* \"#utility.yul\":21727:21741   */\n      add\n        /* \"#utility.yul\":21712:21741   */\n      swap1\n      pop\n        /* \"#utility.yul\":21578:21747   */\n      swap3\n      swap2\n      pop\n      pop\n      jump\t// out\n        /* \"#utility.yul\":21753:22058   */\n    tag_175:\n        /* \"#utility.yul\":21793:21796   */\n      0x00\n        /* \"#utility.yul\":21812:21832   */\n      tag_566\n        /* \"#utility.yul\":21830:21831   */\n      dup3\n        /* \"#utility.yul\":21812:21832   */\n      tag_501\n      jump\t// in\n    tag_566:\n        /* \"#utility.yul\":21807:21832   */\n      swap2\n      pop\n        /* \"#utility.yul\":21846:21866   */\n      tag_567\n        /* \"#utility.yul\":21864:21865   */\n      dup4\n        /* \"#utility.yul\":21846:21866   */\n      tag_501\n      jump\t// in\n    tag_567:\n        /* \"#utility.yul\":21841:21866   */\n      swap3\n      pop\n        /* \"#utility.yul\":22000:22001   */\n      dup3\n        /* \"#utility.yul\":21932:21998   */\n      0xffffffffffffffffffffffffffffffffffffffffffffffffffffffffffffffff\n        /* \"#utility.yul\":21928:22002   */\n      sub\n        /* \"#utility.yul\":21925:21926   */\n      dup3\n        /* \"#utility.yul\":21922:22003   */\n      gt\n        /* \"#utility.yul\":21919:22026   */\n      iszero\n      tag_568\n      jumpi\n        /* \"#utility.yul\":22006:22024   */\n      tag_569\n      tag_570\n      jump\t// in\n    tag_569:\n        /* \"#utility.yul\":21919:22026   */\n    tag_568:\n        /* \"#utility.yul\":22050:22051   */\n      dup3\n        /* \"#utility.yul\":22047:22048   */\n      dup3\n        /* \"#utility.yul\":22043:22052   */\n      add\n        /* \"#utility.yul\":22036:22052   */\n      swap1\n      pop\n        /* \"#utility.yul\":21753:22058   */\n      swap3\n      swap2\n      pop\n      pop\n      jump\t// out\n        /* \"#utility.yul\":22064:22249   */\n    tag_192:\n        /* \"#utility.yul\":22104:22105   */\n      0x00\n        /* \"#utility.yul\":22121:22141   */\n      tag_572\n        /* \"#utility.yul\":22139:22140   */\n      dup3\n        /* \"#utility.yul\":22121:22141   */\n      tag_501\n      jump\t// in\n    tag_572:\n        /* \"#utility.yul\":22116:22141   */\n      swap2\n      pop\n        /* \"#utility.yul\":22155:22175   */\n      tag_573\n        /* \"#utility.yul\":22173:22174   */\n      dup4\n        /* \"#utility.yul\":22155:22175   */\n      tag_501\n      jump\t// in\n    tag_573:\n        /* \"#utility.yul\":22150:22175   */\n      swap3\n      pop\n        /* \"#utility.yul\":22194:22195   */\n      dup3\n        /* \"#utility.yul\":22184:22219   */\n      tag_574\n      jumpi\n        /* \"#utility.yul\":22199:22217   */\n      tag_575\n      tag_576\n      jump\t// in\n    tag_575:\n        /* \"#utility.yul\":22184:22219   */\n    tag_574:\n        /* \"#utility.yul\":22241:22242   */\n      dup3\n        /* \"#utility.yul\":22238:22239   */\n      dup3\n        /* \"#utility.yul\":22234:22243   */\n      div\n        /* \"#utility.yul\":22229:22243   */\n      swap1\n      pop\n        /* \"#utility.yul\":22064:22249   */\n      swap3\n      swap2\n      pop\n      pop\n      jump\t// out\n        /* \"#utility.yul\":22255:22603   */\n    tag_190:\n        /* \"#utility.yul\":22295:22302   */\n      0x00\n        /* \"#utility.yul\":22318:22338   */\n      tag_578\n        /* \"#utility.yul\":22336:22337   */\n      dup3\n        /* \"#utility.yul\":22318:22338   */\n      tag_501\n      jump\t// in\n    tag_578:\n        /* \"#utility.yul\":22313:22338   */\n      swap2\n      pop\n        /* \"#utility.yul\":22352:22372   */\n      tag_579\n        /* \"#utility.yul\":22370:22371   */\n      dup4\n        /* \"#utility.yul\":22352:22372   */\n      tag_501\n      jump\t// in\n    tag_579:\n        /* \"#utility.yul\":22347:22372   */\n      swap3\n      pop\n        /* \"#utility.yul\":22540:22541   */\n      dup2\n        /* \"#utility.yul\":22472:22538   */\n      0xffffffffffffffffffffffffffffffffffffffffffffffffffffffffffffffff\n        /* \"#utility.yul\":22468:22542   */\n      div\n        /* \"#utility.yul\":22465:22466   */\n      dup4\n        /* \"#utility.yul\":22462:22543   */\n      gt\n        /* \"#utility.yul\":22457:22458   */\n      dup3\n        /* \"#utility.yul\":22450:22459   */\n      iszero\n        /* \"#utility.yul\":22443:22460   */\n      iszero\n        /* \"#utility.yul\":22439:22544   */\n      and\n        /* \"#utility.yul\":22436:22567   */\n      iszero\n      tag_580\n      jumpi\n        /* \"#utility.yul\":22547:22565   */\n      tag_581\n      tag_570\n      jump\t// in\n    tag_581:\n        /* \"#utility.yul\":22436:22567   */\n    tag_580:\n        /* \"#utility.yul\":22595:22596   */\n      dup3\n        /* \"#utility.yul\":22592:22593   */\n      dup3\n        /* \"#utility.yul\":22588:22597   */\n      mul\n        /* \"#utility.yul\":22577:22597   */\n      swap1\n      pop\n        /* \"#utility.yul\":22255:22603   */\n      swap3\n      swap2\n      pop\n      pop\n      jump\t// out\n        /* \"#utility.yul\":22609:22800   */\n    tag_188:\n        /* \"#utility.yul\":22649:22653   */\n      0x00\n        /* \"#utility.yul\":22669:22689   */\n      tag_583\n        /* \"#utility.yul\":22687:22688   */\n      dup3\n        /* \"#utility.yul\":22669:22689   */\n      tag_501\n      jump\t// in\n    tag_583:\n        /* \"#utility.yul\":22664:22689   */\n      swap2\n      pop\n        /* \"#utility.yul\":22703:22723   */\n      tag_584\n        /* \"#utility.yul\":22721:22722   */\n      dup4\n        /* \"#utility.yul\":22703:22723   */\n      tag_501\n      jump\t// in\n    tag_584:\n        /* \"#utility.yul\":22698:22723   */\n      swap3\n      pop\n        /* \"#utility.yul\":22742:22743   */\n      dup3\n        /* \"#utility.yul\":22739:22740   */\n      dup3\n        /* \"#utility.yul\":22736:22744   */\n      lt\n        /* \"#utility.yul\":22733:22767   */\n      iszero\n      tag_585\n      jumpi\n        /* \"#utility.yul\":22747:22765   */\n      tag_586\n      tag_570\n      jump\t// in\n    tag_586:\n        /* \"#utility.yul\":22733:22767   */\n    tag_585:\n        /* \"#utility.yul\":22792:22793   */\n      dup3\n        /* \"#utility.yul\":22789:22790   */\n      dup3\n        /* \"#utility.yul\":22785:22794   */\n      sub\n        /* \"#utility.yul\":22777:22794   */\n      swap1\n      pop\n        /* \"#utility.yul\":22609:22800   */\n      swap3\n      swap2\n      pop\n      pop\n      jump\t// out\n        /* \"#utility.yul\":22806:22902   */\n    tag_397:\n        /* \"#utility.yul\":22843:22850   */\n      0x00\n        /* \"#utility.yul\":22872:22896   */\n      tag_588\n        /* \"#utility.yul\":22890:22895   */\n      dup3\n        /* \"#utility.yul\":22872:22896   */\n      tag_589\n      jump\t// in\n    tag_588:\n        /* \"#utility.yul\":22861:22896   */\n      swap1\n      pop\n        /* \"#utility.yul\":22806:22902   */\n      swap2\n      swap1\n      pop\n      jump\t// out\n        /* \"#utility.yul\":22908:22998   */\n    tag_401:\n        /* \"#utility.yul\":22942:22949   */\n      0x00\n        /* \"#utility.yul\":22985:22990   */\n      dup2\n        /* \"#utility.yul\":22978:22991   */\n      iszero\n        /* \"#utility.yul\":22971:22992   */\n      iszero\n        /* \"#utility.yul\":22960:22992   */\n      swap1\n      pop\n        /* \"#utility.yul\":22908:22998   */\n      swap2\n      swap1\n      pop\n      jump\t// out\n        /* \"#utility.yul\":23004:23130   */\n    tag_589:\n        /* \"#utility.yul\":23041:23048   */\n      0x00\n        /* \"#utility.yul\":23081:23123   */\n      0xffffffffffffffffffffffffffffffffffffffff\n        /* \"#utility.yul\":23074:23079   */\n      dup3\n        /* \"#utility.yul\":23070:23124   */\n      and\n        /* \"#utility.yul\":23059:23124   */\n      swap1\n      pop\n        /* \"#utility.yul\":23004:23130   */\n      swap2\n      swap1\n      pop\n      jump\t// out\n        /* \"#utility.yul\":23136:23213   */\n    tag_501:\n        /* \"#utility.yul\":23173:23180   */\n      0x00\n        /* \"#utility.yul\":23202:23207   */\n      dup2\n        /* \"#utility.yul\":23191:23207   */\n      swap1\n      pop\n        /* \"#utility.yul\":23136:23213   */\n      swap2\n      swap1\n      pop\n      jump\t// out\n        /* \"#utility.yul\":23219:23305   */\n    tag_505:\n        /* \"#utility.yul\":23254:23261   */\n      0x00\n        /* \"#utility.yul\":23294:23298   */\n      0xff\n        /* \"#utility.yul\":23287:23292   */\n      dup3\n        /* \"#utility.yul\":23283:23299   */\n      and\n        /* \"#utility.yul\":23272:23299   */\n      swap1\n      pop\n        /* \"#utility.yul\":23219:23305   */\n      swap2\n      swap1\n      pop\n      jump\t// out\n        /* \"#utility.yul\":23311:23618   */\n    tag_409:\n        /* \"#utility.yul\":23379:23380   */\n      0x00\n        /* \"#utility.yul\":23389:23502   */\n    tag_595:\n        /* \"#utility.yul\":23403:23409   */\n      dup4\n        /* \"#utility.yul\":23400:23401   */\n      dup2\n        /* \"#utility.yul\":23397:23410   */\n      lt\n        /* \"#utility.yul\":23389:23502   */\n      iszero\n      tag_597\n      jumpi\n        /* \"#utility.yul\":23488:23489   */\n      dup1\n        /* \"#utility.yul\":23483:23486   */\n      dup3\n        /* \"#utility.yul\":23479:23490   */\n      add\n        /* \"#utility.yul\":23473:23491   */\n      mload\n        /* \"#utility.yul\":23469:23470   */\n      dup2\n        /* \"#utility.yul\":23464:23467   */\n      dup5\n        /* \"#utility.yul\":23460:23471   */\n      add\n        /* \"#utility.yul\":23453:23492   */\n      mstore\n        /* \"#utility.yul\":23425:23427   */\n      0x20\n        /* \"#utility.yul\":23422:23423   */\n      dup2\n        /* \"#utility.yul\":23418:23428   */\n      add\n        /* \"#utility.yul\":23413:23428   */\n      swap1\n      pop\n        /* \"#utility.yul\":23389:23502   */\n      jump(tag_595)\n    tag_597:\n        /* \"#utility.yul\":23520:23526   */\n      dup4\n        /* \"#utility.yul\":23517:23518   */\n      dup2\n        /* \"#utility.yul\":23514:23527   */\n      gt\n        /* \"#utility.yul\":23511:23612   */\n      iszero\n      tag_598\n      jumpi\n        /* \"#utility.yul\":23600:23601   */\n      0x00\n        /* \"#utility.yul\":23591:23597   */\n      dup5\n        /* \"#utility.yul\":23586:23589   */\n      dup5\n        /* \"#utility.yul\":23582:23598   */\n      add\n        /* \"#utility.yul\":23575:23602   */\n      mstore\n        /* \"#utility.yul\":23511:23612   */\n    tag_598:\n        /* \"#utility.yul\":23360:23618   */\n      pop\n        /* \"#utility.yul\":23311:23618   */\n      pop\n      pop\n      pop\n      jump\t// out\n        /* \"#utility.yul\":23624:23944   */\n    tag_133:\n        /* \"#utility.yul\":23668:23674   */\n      0x00\n        /* \"#utility.yul\":23705:23706   */\n      0x02\n        /* \"#utility.yul\":23699:23703   */\n      dup3\n        /* \"#utility.yul\":23695:23707   */\n      div\n        /* \"#utility.yul\":23685:23707   */\n      swap1\n      pop\n        /* \"#utility.yul\":23752:23753   */\n      0x01\n        /* \"#utility.yul\":23746:23750   */\n      dup3\n        /* \"#utility.yul\":23742:23754   */\n      and\n        /* \"#utility.yul\":23773:23791   */\n      dup1\n        /* \"#utility.yul\":23763:23844   */\n      tag_600\n      jumpi\n        /* \"#utility.yul\":23829:23833   */\n      0x7f\n        /* \"#utility.yul\":23821:23827   */\n      dup3\n        /* \"#utility.yul\":23817:23834   */\n      and\n        /* \"#utility.yul\":23807:23834   */\n      swap2\n      pop\n        /* \"#utility.yul\":23763:23844   */\n    tag_600:\n        /* \"#utility.yul\":23891:23893   */\n      0x20\n        /* \"#utility.yul\":23883:23889   */\n      dup3\n        /* \"#utility.yul\":23880:23894   */\n      lt\n        /* \"#utility.yul\":23860:23878   */\n      dup2\n        /* \"#utility.yul\":23857:23895   */\n      eq\n        /* \"#utility.yul\":23854:23938   */\n      iszero\n      tag_601\n      jumpi\n        /* \"#utility.yul\":23910:23928   */\n      tag_602\n      tag_603\n      jump\t// in\n    tag_602:\n        /* \"#utility.yul\":23854:23938   */\n    tag_601:\n        /* \"#utility.yul\":23675:23944   */\n      pop\n        /* \"#utility.yul\":23624:23944   */\n      swap2\n      swap1\n      pop\n      jump\t// out\n        /* \"#utility.yul\":23950:24130   */\n    tag_570:\n        /* \"#utility.yul\":23998:24075   */\n      0x4e487b7100000000000000000000000000000000000000000000000000000000\n        /* \"#utility.yul\":23995:23996   */\n      0x00\n        /* \"#utility.yul\":23988:24076   */\n      mstore\n        /* \"#utility.yul\":24095:24099   */\n      0x11\n        /* \"#utility.yul\":24092:24093   */\n      0x04\n        /* \"#utility.yul\":24085:24100   */\n      mstore\n        /* \"#utility.yul\":24119:24123   */\n      0x24\n        /* \"#utility.yul\":24116:24117   */\n      0x00\n        /* \"#utility.yul\":24109:24124   */\n      revert\n        /* \"#utility.yul\":24136:24316   */\n    tag_576:\n        /* \"#utility.yul\":24184:24261   */\n      0x4e487b7100000000000000000000000000000000000000000000000000000000\n        /* \"#utility.yul\":24181:24182   */\n      0x00\n        /* \"#utility.yul\":24174:24262   */\n      mstore\n        /* \"#utility.yul\":24281:24285   */\n      0x12\n        /* \"#utility.yul\":24278:24279   */\n      0x04\n        /* \"#utility.yul\":24271:24286   */\n      mstore\n        /* \"#utility.yul\":24305:24309   */\n      0x24\n        /* \"#utility.yul\":24302:24303   */\n      0x00\n        /* \"#utility.yul\":24295:24310   */\n      revert\n        /* \"#utility.yul\":24322:24502   */\n    tag_603:\n        /* \"#utility.yul\":24370:24447   */\n      0x4e487b7100000000000000000000000000000000000000000000000000000000\n        /* \"#utility.yul\":24367:24368   */\n      0x00\n        /* \"#utility.yul\":24360:24448   */\n      mstore\n        /* \"#utility.yul\":24467:24471   */\n      0x22\n        /* \"#utility.yul\":24464:24465   */\n      0x04\n        /* \"#utility.yul\":24457:24472   */\n      mstore\n        /* \"#utility.yul\":24491:24495   */\n      0x24\n        /* \"#utility.yul\":24488:24489   */\n      0x00\n        /* \"#utility.yul\":24481:24496   */\n      revert\n        /* \"#utility.yul\":24631:24748   */\n    tag_354:\n        /* \"#utility.yul\":24740:24741   */\n      0x00\n        /* \"#utility.yul\":24737:24738   */\n      dup1\n        /* \"#utility.yul\":24730:24742   */\n      revert\n        /* \"#utility.yul\":24754:24856   */\n    tag_411:\n        /* \"#utility.yul\":24795:24801   */\n      0x00\n        /* \"#utility.yul\":24846:24848   */\n      0x1f\n        /* \"#utility.yul\":24842:24849   */\n      not\n        /* \"#utility.yul\":24837:24839   */\n      0x1f\n        /* \"#utility.yul\":24830:24835   */\n      dup4\n        /* \"#utility.yul\":24826:24840   */\n      add\n        /* \"#utility.yul\":24822:24850   */\n      and\n        /* \"#utility.yul\":24812:24850   */\n      swap1\n      pop\n        /* \"#utility.yul\":24754:24856   */\n      swap2\n      swap1\n      pop\n      jump\t// out\n        /* \"#utility.yul\":24862:25084   */\n    tag_416:\n        /* \"#utility.yul\":25002:25036   */\n      0x45524332303a207472616e7366657220746f20746865207a65726f2061646472\n        /* \"#utility.yul\":24998:24999   */\n      0x00\n        /* \"#utility.yul\":24990:24996   */\n      dup3\n        /* \"#utility.yul\":24986:25000   */\n      add\n        /* \"#utility.yul\":24979:25037   */\n      mstore\n        /* \"#utility.yul\":25071:25076   */\n      0x6573730000000000000000000000000000000000000000000000000000000000\n        /* \"#utility.yul\":25066:25068   */\n      0x20\n        /* \"#utility.yul\":25058:25064   */\n      dup3\n        /* \"#utility.yul\":25054:25069   */\n      add\n        /* \"#utility.yul\":25047:25077   */\n      mstore\n        /* \"#utility.yul\":24862:25084   */\n      pop\n      jump\t// out\n        /* \"#utility.yul\":25090:25311   */\n    tag_421:\n        /* \"#utility.yul\":25230:25264   */\n      0x45524332303a206275726e20616d6f756e7420657863656564732062616c616e\n        /* \"#utility.yul\":25226:25227   */\n      0x00\n        /* \"#utility.yul\":25218:25224   */\n      dup3\n        /* \"#utility.yul\":25214:25228   */\n      add\n        /* \"#utility.yul\":25207:25265   */\n      mstore\n        /* \"#utility.yul\":25299:25303   */\n      0x6365000000000000000000000000000000000000000000000000000000000000\n        /* \"#utility.yul\":25294:25296   */\n      0x20\n        /* \"#utility.yul\":25286:25292   */\n      dup3\n        /* \"#utility.yul\":25282:25297   */\n      add\n        /* \"#utility.yul\":25275:25304   */\n      mstore\n        /* \"#utility.yul\":25090:25311   */\n      pop\n      jump\t// out\n        /* \"#utility.yul\":25317:25538   */\n    tag_426:\n        /* \"#utility.yul\":25457:25491   */\n      0x45524332303a20617070726f766520746f20746865207a65726f206164647265\n        /* \"#utility.yul\":25453:25454   */\n      0x00\n        /* \"#utility.yul\":25445:25451   */\n      dup3\n        /* \"#utility.yul\":25441:25455   */\n      add\n        /* \"#utility.yul\":25434:25492   */\n      mstore\n        /* \"#utility.yul\":25526:25530   */\n      0x7373000000000000000000000000000000000000000000000000000000000000\n        /* \"#utility.yul\":25521:25523   */\n      0x20\n        /* \"#utility.yul\":25513:25519   */\n      dup3\n        /* \"#utility.yul\":25509:25524   */\n      add\n        /* \"#utility.yul\":25502:25531   */\n      mstore\n        /* \"#utility.yul\":25317:25538   */\n      pop\n      jump\t// out\n        /* \"#utility.yul\":25544:25772   */\n    tag_431:\n        /* \"#utility.yul\":25684:25718   */\n      0x496e73756666696369656e7420696e70757420616d6f756e74206f6620455243\n        /* \"#utility.yul\":25680:25681   */\n      0x00\n        /* \"#utility.yul\":25672:25678   */\n      dup3\n        /* \"#utility.yul\":25668:25682   */\n      add\n        /* \"#utility.yul\":25661:25719   */\n      mstore\n        /* \"#utility.yul\":25753:25764   */\n      0x323020546f6b656e730000000000000000000000000000000000000000000000\n        /* \"#utility.yul\":25748:25750   */\n      0x20\n        /* \"#utility.yul\":25740:25746   */\n      dup3\n        /* \"#utility.yul\":25736:25751   */\n      add\n        /* \"#utility.yul\":25729:25765   */\n      mstore\n        /* \"#utility.yul\":25544:25772   */\n      pop\n      jump\t// out\n        /* \"#utility.yul\":25778:25957   */\n    tag_436:\n        /* \"#utility.yul\":25918:25949   */\n      0x45524332303a20696e73756666696369656e7420616c6c6f77616e6365000000\n        /* \"#utility.yul\":25914:25915   */\n      0x00\n        /* \"#utility.yul\":25906:25912   */\n      dup3\n        /* \"#utility.yul\":25902:25916   */\n      add\n        /* \"#utility.yul\":25895:25950   */\n      mstore\n        /* \"#utility.yul\":25778:25957   */\n      pop\n      jump\t// out\n        /* \"#utility.yul\":25963:26188   */\n    tag_441:\n        /* \"#utility.yul\":26103:26137   */\n      0x45524332303a207472616e7366657220616d6f756e7420657863656564732062\n        /* \"#utility.yul\":26099:26100   */\n      0x00\n        /* \"#utility.yul\":26091:26097   */\n      dup3\n        /* \"#utility.yul\":26087:26101   */\n      add\n        /* \"#utility.yul\":26080:26138   */\n      mstore\n        /* \"#utility.yul\":26172:26180   */\n      0x616c616e63650000000000000000000000000000000000000000000000000000\n        /* \"#utility.yul\":26167:26169   */\n      0x20\n        /* \"#utility.yul\":26159:26165   */\n      dup3\n        /* \"#utility.yul\":26155:26170   */\n      add\n        /* \"#utility.yul\":26148:26181   */\n      mstore\n        /* \"#utility.yul\":25963:26188   */\n      pop\n      jump\t// out\n        /* \"#utility.yul\":26194:26485   */\n    tag_446:\n        /* \"#utility.yul\":26334:26368   */\n      0x416d6f756e74207377617070656420646f6573206e6f74206d65657420796f75\n        /* \"#utility.yul\":26330:26331   */\n      0x00\n        /* \"#utility.yul\":26322:26328   */\n      dup3\n        /* \"#utility.yul\":26318:26332   */\n      add\n        /* \"#utility.yul\":26311:26369   */\n      mstore\n        /* \"#utility.yul\":26403:26437   */\n      0x722073746970756c6174656420616d6f756e742c20726576657274696e672073\n        /* \"#utility.yul\":26398:26400   */\n      0x20\n        /* \"#utility.yul\":26390:26396   */\n      dup3\n        /* \"#utility.yul\":26386:26401   */\n      add\n        /* \"#utility.yul\":26379:26438   */\n      mstore\n        /* \"#utility.yul\":26472:26477   */\n      0x7761700000000000000000000000000000000000000000000000000000000000\n        /* \"#utility.yul\":26467:26469   */\n      0x40\n        /* \"#utility.yul\":26459:26465   */\n      dup3\n        /* \"#utility.yul\":26455:26470   */\n      add\n        /* \"#utility.yul\":26448:26478   */\n      mstore\n        /* \"#utility.yul\":26194:26485   */\n      pop\n      jump\t// out\n        /* \"#utility.yul\":26491:26733   */\n    tag_451:\n        /* \"#utility.yul\":26631:26665   */\n      0x506c6561736520696e70757420612076616c696420616d6f756e74206f66204c\n        /* \"#utility.yul\":26627:26628   */\n      0x00\n        /* \"#utility.yul\":26619:26625   */\n      dup3\n        /* \"#utility.yul\":26615:26629   */\n      add\n        /* \"#utility.yul\":26608:26666   */\n      mstore\n        /* \"#utility.yul\":26700:26725   */\n      0x5020546f6b656e7320746f206275726e2f72656465656d000000000000000000\n        /* \"#utility.yul\":26695:26697   */\n      0x20\n        /* \"#utility.yul\":26687:26693   */\n      dup3\n        /* \"#utility.yul\":26683:26698   */\n      add\n        /* \"#utility.yul\":26676:26726   */\n      mstore\n        /* \"#utility.yul\":26491:26733   */\n      pop\n      jump\t// out\n        /* \"#utility.yul\":26739:26959   */\n    tag_456:\n        /* \"#utility.yul\":26879:26913   */\n      0x45524332303a206275726e2066726f6d20746865207a65726f20616464726573\n        /* \"#utility.yul\":26875:26876   */\n      0x00\n        /* \"#utility.yul\":26867:26873   */\n      dup3\n        /* \"#utility.yul\":26863:26877   */\n      add\n        /* \"#utility.yul\":26856:26914   */\n      mstore\n        /* \"#utility.yul\":26948:26951   */\n      0x7300000000000000000000000000000000000000000000000000000000000000\n        /* \"#utility.yul\":26943:26945   */\n      0x20\n        /* \"#utility.yul\":26935:26941   */\n      dup3\n        /* \"#utility.yul\":26931:26946   */\n      add\n        /* \"#utility.yul\":26924:26952   */\n      mstore\n        /* \"#utility.yul\":26739:26959   */\n      pop\n      jump\t// out\n        /* \"#utility.yul\":26965:27140   */\n    tag_461:\n        /* \"#utility.yul\":27105:27132   */\n      0x45544820616d6f756e742063616e6e6f74206265207a65726f00000000000000\n        /* \"#utility.yul\":27101:27102   */\n      0x00\n        /* \"#utility.yul\":27093:27099   */\n      dup3\n        /* \"#utility.yul\":27089:27103   */\n      add\n        /* \"#utility.yul\":27082:27133   */\n      mstore\n        /* \"#utility.yul\":26965:27140   */\n      pop\n      jump\t// out\n        /* \"#utility.yul\":27146:27370   */\n    tag_466:\n        /* \"#utility.yul\":27286:27320   */\n      0x45524332303a207472616e736665722066726f6d20746865207a65726f206164\n        /* \"#utility.yul\":27282:27283   */\n      0x00\n        /* \"#utility.yul\":27274:27280   */\n      dup3\n        /* \"#utility.yul\":27270:27284   */\n      add\n        /* \"#utility.yul\":27263:27321   */\n      mstore\n        /* \"#utility.yul\":27355:27362   */\n      0x6472657373000000000000000000000000000000000000000000000000000000\n        /* \"#utility.yul\":27350:27352   */\n      0x20\n        /* \"#utility.yul\":27342:27348   */\n      dup3\n        /* \"#utility.yul\":27338:27353   */\n      add\n        /* \"#utility.yul\":27331:27363   */\n      mstore\n        /* \"#utility.yul\":27146:27370   */\n      pop\n      jump\t// out\n        /* \"#utility.yul\":27376:27600   */\n    tag_471:\n        /* \"#utility.yul\":27516:27550   */\n      0x5472616e73616374696f6e206f662045746865722077617320756e7375636365\n        /* \"#utility.yul\":27512:27513   */\n      0x00\n        /* \"#utility.yul\":27504:27510   */\n      dup3\n        /* \"#utility.yul\":27500:27514   */\n      add\n        /* \"#utility.yul\":27493:27551   */\n      mstore\n        /* \"#utility.yul\":27585:27592   */\n      0x737366756c000000000000000000000000000000000000000000000000000000\n        /* \"#utility.yul\":27580:27582   */\n      0x20\n        /* \"#utility.yul\":27572:27578   */\n      dup3\n        /* \"#utility.yul\":27568:27583   */\n      add\n        /* \"#utility.yul\":27561:27593   */\n      mstore\n        /* \"#utility.yul\":27376:27600   */\n      pop\n      jump\t// out\n        /* \"#utility.yul\":27606:27720   */\n    tag_477:\n      pop\n      jump\t// out\n        /* \"#utility.yul\":27726:27897   */\n    tag_482:\n        /* \"#utility.yul\":27866:27889   */\n      0x546865726520617265206e6f2072657365727665730000000000000000000000\n        /* \"#utility.yul\":27862:27863   */\n      0x00\n        /* \"#utility.yul\":27854:27860   */\n      dup3\n        /* \"#utility.yul\":27850:27864   */\n      add\n        /* \"#utility.yul\":27843:27890   */\n      mstore\n        /* \"#utility.yul\":27726:27897   */\n      pop\n      jump\t// out\n        /* \"#utility.yul\":27903:28126   */\n    tag_487:\n        /* \"#utility.yul\":28043:28077   */\n      0x45524332303a20617070726f76652066726f6d20746865207a65726f20616464\n        /* \"#utility.yul\":28039:28040   */\n      0x00\n        /* \"#utility.yul\":28031:28037   */\n      dup3\n        /* \"#utility.yul\":28027:28041   */\n      add\n        /* \"#utility.yul\":28020:28078   */\n      mstore\n        /* \"#utility.yul\":28112:28118   */\n      0x7265737300000000000000000000000000000000000000000000000000000000\n        /* \"#utility.yul\":28107:28109   */\n      0x20\n        /* \"#utility.yul\":28099:28105   */\n      dup3\n        /* \"#utility.yul\":28095:28110   */\n      add\n        /* \"#utility.yul\":28088:28119   */\n      mstore\n        /* \"#utility.yul\":27903:28126   */\n      pop\n      jump\t// out\n        /* \"#utility.yul\":28132:28356   */\n    tag_492:\n        /* \"#utility.yul\":28272:28306   */\n      0x45524332303a2064656372656173656420616c6c6f77616e63652062656c6f77\n        /* \"#utility.yul\":28268:28269   */\n      0x00\n        /* \"#utility.yul\":28260:28266   */\n      dup3\n        /* \"#utility.yul\":28256:28270   */\n      add\n        /* \"#utility.yul\":28249:28307   */\n      mstore\n        /* \"#utility.yul\":28341:28348   */\n      0x207a65726f000000000000000000000000000000000000000000000000000000\n        /* \"#utility.yul\":28336:28338   */\n      0x20\n        /* \"#utility.yul\":28328:28334   */\n      dup3\n        /* \"#utility.yul\":28324:28339   */\n      add\n        /* \"#utility.yul\":28317:28349   */\n      mstore\n        /* \"#utility.yul\":28132:28356   */\n      pop\n      jump\t// out\n        /* \"#utility.yul\":28362:28543   */\n    tag_497:\n        /* \"#utility.yul\":28502:28535   */\n      0x45524332303a206d696e7420746f20746865207a65726f206164647265737300\n        /* \"#utility.yul\":28498:28499   */\n      0x00\n        /* \"#utility.yul\":28490:28496   */\n      dup3\n        /* \"#utility.yul\":28486:28500   */\n      add\n        /* \"#utility.yul\":28479:28536   */\n      mstore\n        /* \"#utility.yul\":28362:28543   */\n      pop\n      jump\t// out\n        /* \"#utility.yul\":28549:28671   */\n    tag_339:\n        /* \"#utility.yul\":28622:28646   */\n      tag_629\n        /* \"#utility.yul\":28640:28645   */\n      dup2\n        /* \"#utility.yul\":28622:28646   */\n      tag_397\n      jump\t// in\n    tag_629:\n        /* \"#utility.yul\":28615:28620   */\n      dup2\n        /* \"#utility.yul\":28612:28647   */\n      eq\n        /* \"#utility.yul\":28602:28665   */\n      tag_630\n      jumpi\n        /* \"#utility.yul\":28661:28662   */\n      0x00\n        /* \"#utility.yul\":28658:28659   */\n      dup1\n        /* \"#utility.yul\":28651:28663   */\n      revert\n        /* \"#utility.yul\":28602:28665   */\n    tag_630:\n        /* \"#utility.yul\":28549:28671   */\n      pop\n      jump\t// out\n        /* \"#utility.yul\":28677:28793   */\n    tag_343:\n        /* \"#utility.yul\":28747:28768   */\n      tag_632\n        /* \"#utility.yul\":28762:28767   */\n      dup2\n        /* \"#utility.yul\":28747:28768   */\n      tag_401\n      jump\t// in\n    tag_632:\n        /* \"#utility.yul\":28740:28745   */\n      dup2\n        /* \"#utility.yul\":28737:28769   */\n      eq\n        /* \"#utility.yul\":28727:28787   */\n      tag_633\n      jumpi\n        /* \"#utility.yul\":28783:28784   */\n      0x00\n        /* \"#utility.yul\":28780:28781   */\n      dup1\n        /* \"#utility.yul\":28773:28785   */\n      revert\n        /* \"#utility.yul\":28727:28787   */\n    tag_633:\n        /* \"#utility.yul\":28677:28793   */\n      pop\n      jump\t// out\n        /* \"#utility.yul\":28799:28921   */\n    tag_347:\n        /* \"#utility.yul\":28872:28896   */\n      tag_635\n        /* \"#utility.yul\":28890:28895   */\n      dup2\n        /* \"#utility.yul\":28872:28896   */\n      tag_501\n      jump\t// in\n    tag_635:\n        /* \"#utility.yul\":28865:28870   */\n      dup2\n        /* \"#utility.yul\":28862:28897   */\n      eq\n        /* \"#utility.yul\":28852:28915   */\n      tag_636\n      jumpi\n        /* \"#utility.yul\":28911:28912   */\n      0x00\n        /* \"#utility.yul\":28908:28909   */\n      dup1\n        /* \"#utility.yul\":28901:28913   */\n      revert\n        /* \"#utility.yul\":28852:28915   */\n    tag_636:\n        /* \"#utility.yul\":28799:28921   */\n      pop\n      jump\t// out\n\n    auxdata: 0xa2646970667358221220bb45d996d68b91274f69b2a61a45f85fbb1bef662806ca1b7eed52958428bd4564736f6c63430008070033\n}\n",
				"bytecode": {
					"linkReferences": {},
					"object": "60806040523480156200001157600080fd5b5060405162002d5c38038062002d5c83398181016040528101906200003791906200029a565b6040518060400160405280600781526020017f53776170205631000000000000000000000000000000000000000000000000008152506040518060400160405280600781526020017f537761702d5631000000000000000000000000000000000000000000000000008152508160039080519060200190620000bb929190620001d3565b508060049080519060200190620000d4929190620001d3565b505050600073ffffffffffffffffffffffffffffffffffffffff168173ffffffffffffffffffffffffffffffffffffffff1614156200014a576040517f08c379a00000000000000000000000000000000000000000000000000000000081526004016200014190620002f3565b60405180910390fd5b80600560006101000a81548173ffffffffffffffffffffffffffffffffffffffff021916908373ffffffffffffffffffffffffffffffffffffffff16021790555033600660006101000a81548173ffffffffffffffffffffffffffffffffffffffff021916908373ffffffffffffffffffffffffffffffffffffffff1602179055505062000407565b828054620001e1906200035a565b90600052602060002090601f01602090048101928262000205576000855562000251565b82601f106200022057805160ff191683800117855562000251565b8280016001018555821562000251579182015b828111156200025057825182559160200191906001019062000233565b5b50905062000260919062000264565b5090565b5b808211156200027f57600081600090555060010162000265565b5090565b6000815190506200029481620003ed565b92915050565b600060208284031215620002b357620002b2620003bf565b5b6000620002c38482850162000283565b91505092915050565b6000620002db600f8362000315565b9150620002e882620003c4565b602082019050919050565b600060208201905081810360008301526200030e81620002cc565b9050919050565b600082825260208201905092915050565b600062000333826200033a565b9050919050565b600073ffffffffffffffffffffffffffffffffffffffff82169050919050565b600060028204905060018216806200037357607f821691505b602082108114156200038a576200038962000390565b5b50919050565b7f4e487b7100000000000000000000000000000000000000000000000000000000600052602260045260246000fd5b600080fd5b7f496e76616c696420616464726573730000000000000000000000000000000000600082015250565b620003f88162000326565b81146200040457600080fd5b50565b61294580620004176000396000f3fe60806040526004361061012a5760003560e01c806364338a30116100ab5780639c8f9f231161006f5780639c8f9f23146104155780639d76ea5814610453578063a457c2d71461047e578063a9059cbb146104bb578063ae0aaea3146104f8578063dd62ed3e146105145761012a565b806364338a301461033d5780636e9e81161461036657806370a082311461038257806395d89b41146103bf578063966dae0e146103ea5761012a565b806323b872dd116100f257806323b872dd1461022b5780632c0c60a414610268578063313ce567146102a557806339509351146102d057806351c6590a1461030d5761012a565b806306fdde031461012f5780630902f1ac1461015a578063095ea7b3146101865780630f8070b4146101c357806318160ddd14610200575b600080fd5b34801561013b57600080fd5b50610144610551565b6040516101519190611f2f565b60405180910390f35b34801561016657600080fd5b5061016f6105e3565b60405161017d92919061216c565b60405180910390f35b34801561019257600080fd5b506101ad60048036038101906101a89190611a75565b61069a565b6040516101ba9190611f14565b60405180910390f35b3480156101cf57600080fd5b506101ea60048036038101906101e59190611ae2565b6106bd565b6040516101f79190612151565b60405180910390f35b34801561020c57600080fd5b50610215610724565b6040516102229190612151565b60405180910390f35b34801561023757600080fd5b50610252600480360381019061024d9190611a22565b61072e565b60405161025f9190611f14565b60405180910390f35b34801561027457600080fd5b5061028f600480360381019061028a9190611ae2565b61075d565b60405161029c9190612151565b60405180910390f35b3480156102b157600080fd5b506102ba6107c4565b6040516102c79190612195565b60405180910390f35b3480156102dc57600080fd5b506102f760048036038101906102f29190611a75565b6107cd565b6040516103049190611f14565b60405180910390f35b61032760048036038101906103229190611ae2565b610804565b6040516103349190612151565b60405180910390f35b34801561034957600080fd5b50610364600480360381019061035f9190611b7c565b610a7a565b005b610380600480360381019061037b9190611b3c565b610a7e565b005b34801561038e57600080fd5b506103a960048036038101906103a491906119b5565b610a8c565b6040516103b69190612151565b60405180910390f35b3480156103cb57600080fd5b506103d4610ad4565b6040516103e19190611f2f565b60405180910390f35b3480156103f657600080fd5b506103ff610b66565b60405161040c9190611e99565b60405180910390f35b34801561042157600080fd5b5061043c60048036038101906104379190611ae2565b610b8c565b60405161044a92919061216c565b60405180910390f35b34801561045f57600080fd5b50610468610dd4565b6040516104759190611e99565b60405180910390f35b34801561048a57600080fd5b506104a560048036038101906104a09190611a75565b610dfa565b6040516104b29190611f14565b60405180910390f35b3480156104c757600080fd5b506104e260048036038101906104dd9190611a75565b610e71565b6040516104ef9190611f14565b60405180910390f35b610512600480360381019061050d9190611ae2565b610e94565b005b34801561052057600080fd5b5061053b600480360381019061053691906119e2565b610ea1565b6040516105489190612151565b60405180910390f35b60606003805461056090612374565b80601f016020809104026020016040519081016040528092919081815260200182805461058c90612374565b80156105d95780601f106105ae576101008083540402835291602001916105d9565b820191906000526020600020905b8154815290600101906020018083116105bc57829003601f168201915b5050505050905090565b600080600560009054906101000a900473ffffffffffffffffffffffffffffffffffffffff1673ffffffffffffffffffffffffffffffffffffffff166370a08231306040518263ffffffff1660e01b81526004016106419190611e99565b60206040518083038186803b15801561065957600080fd5b505afa15801561066d573d6000803e3d6000fd5b505050506040513d601f19601f820116820180604052508101906106919190611b0f565b91504790509091565b6000806106a5610f28565b90506106b2818585610f30565b600191505092915050565b6000808211610701576040517f08c379a00000000000000000000000000000000000000000000000000000000081526004016106f890612071565b60405180910390fd5b60008061070c6105e3565b9150915061071b8482846110fb565b92505050919050565b6000600254905090565b600080610739610f28565b90506107468582856111a1565b61075185858561122d565b60019150509392505050565b60008081116107a1576040517f08c379a000000000000000000000000000000000000000000000000000000000815260040161079890612071565b60405180910390fd5b6000806107ac6105e3565b915091506107bb8483836110fb565b92505050919050565b60006012905090565b6000806107d8610f28565b90506107f98185856107ea8589610ea1565b6107f491906121d7565b610f30565b600191505092915050565b60008060006108116105e3565b9150915060008214156108de576000600560009054906101000a900473ffffffffffffffffffffffffffffffffffffffff1690508073ffffffffffffffffffffffffffffffffffffffff166323b872dd3330886040518463ffffffff1660e01b815260040161088293929190611eb4565b602060405180830381600087803b15801561089c57600080fd5b505af11580156108b0573d6000803e3d6000fd5b505050506040513d601f19601f820116820180604052508101906108d49190611ab5565b5081935050610a24565b34816108ea91906122b8565b905060008183346108fb919061225e565b610905919061222d565b90508085101561094a576040517f08c379a000000000000000000000000000000000000000000000000000000000815260040161094190611fb1565b60405180910390fd5b6000600560009054906101000a900473ffffffffffffffffffffffffffffffffffffffff1690508073ffffffffffffffffffffffffffffffffffffffff166323b872dd3330896040518463ffffffff1660e01b81526004016109ae93929190611eb4565b602060405180830381600087803b1580156109c857600080fd5b505af11580156109dc573d6000803e3d6000fd5b505050506040513d601f19601f82011682018060405250810190610a009190611ab5565b508234610a0b610724565b610a15919061225e565b610a1f919061222d565b945050505b610a2e33846114ae565b83343373ffffffffffffffffffffffffffffffffffffffff167f06239653922ac7bea6aa2b19dc486b9361821d37712eb796adfd38d81de278ca60405160405180910390a45050919050565b5050565b610a88828261160e565b5050565b60008060008373ffffffffffffffffffffffffffffffffffffffff1673ffffffffffffffffffffffffffffffffffffffff168152602001908152602001600020549050919050565b606060048054610ae390612374565b80601f0160208091040260200160405190810160405280929190818152602001828054610b0f90612374565b8015610b5c5780601f10610b3157610100808354040283529160200191610b5c565b820191906000526020600020905b815481529060010190602001808311610b3f57829003601f168201915b5050505050905090565b600660009054906101000a900473ffffffffffffffffffffffffffffffffffffffff1681565b60008060008311610bd2576040517f08c379a0000000000000000000000000000000000000000000000000000000008152600401610bc990612031565b60405180910390fd5b600080610bdd6105e3565b91509150610be9610724565b8582610bf5919061225e565b610bff919061222d565b9350610c09610724565b8583610c15919061225e565b610c1f919061222d565b9250610c2b3386611780565b60003373ffffffffffffffffffffffffffffffffffffffff1685604051610c5190611e84565b60006040518083038185875af1925050503d8060008114610c8e576040519150601f19603f3d011682016040523d82523d6000602084013e610c93565b606091505b5050905080610cd7576040517f08c379a0000000000000000000000000000000000000000000000000000000008152600401610cce906120b1565b60405180910390fd5b600560009054906101000a900473ffffffffffffffffffffffffffffffffffffffff1673ffffffffffffffffffffffffffffffffffffffff1663a9059cbb33866040518363ffffffff1660e01b8152600401610d34929190611eeb565b602060405180830381600087803b158015610d4e57600080fd5b505af1158015610d62573d6000803e3d6000fd5b505050506040513d601f19601f82011682018060405250810190610d869190611ab5565b5083853373ffffffffffffffffffffffffffffffffffffffff167f0fbf06c058b90cb038a618f8c2acbf6145f8b3570fd1fa56abb8f0f3f05b36e860405160405180910390a4505050915091565b600560009054906101000a900473ffffffffffffffffffffffffffffffffffffffff1681565b600080610e05610f28565b90506000610e138286610ea1565b905083811015610e58576040517f08c379a0000000000000000000000000000000000000000000000000000000008152600401610e4f90612111565b60405180910390fd5b610e658286868403610f30565b60019250505092915050565b600080610e7c610f28565b9050610e8981858561122d565b600191505092915050565b610e9e813361160e565b50565b6000600160008473ffffffffffffffffffffffffffffffffffffffff1673ffffffffffffffffffffffffffffffffffffffff16815260200190815260200160002060008373ffffffffffffffffffffffffffffffffffffffff1673ffffffffffffffffffffffffffffffffffffffff16815260200190815260200160002054905092915050565b600033905090565b600073ffffffffffffffffffffffffffffffffffffffff168373ffffffffffffffffffffffffffffffffffffffff161415610fa0576040517f08c379a0000000000000000000000000000000000000000000000000000000008152600401610f97906120f1565b60405180910390fd5b600073ffffffffffffffffffffffffffffffffffffffff168273ffffffffffffffffffffffffffffffffffffffff161415611010576040517f08c379a000000000000000000000000000000000000000000000000000000000815260040161100790611f91565b60405180910390fd5b80600160008573ffffffffffffffffffffffffffffffffffffffff1673ffffffffffffffffffffffffffffffffffffffff16815260200190815260200160002060008473ffffffffffffffffffffffffffffffffffffffff1673ffffffffffffffffffffffffffffffffffffffff168152602001908152602001600020819055508173ffffffffffffffffffffffffffffffffffffffff168373ffffffffffffffffffffffffffffffffffffffff167f8c5be1e5ebec7d5bd14f71427d1e84f3dd0314c0f7b2291e5b200ac8c7c3b925836040516110ee9190612151565b60405180910390a3505050565b6000808311801561110c5750600082115b61114b576040517f08c379a0000000000000000000000000000000000000000000000000000000008152600401611142906120d1565b60405180910390fd5b6000806103e861115b91906122b8565b85611166919061225e565b905080846103e8611177919061225e565b61118191906121d7565b838261118d919061225e565b611197919061222d565b9150509392505050565b60006111ad8484610ea1565b90507fffffffffffffffffffffffffffffffffffffffffffffffffffffffffffffffff81146112275781811015611219576040517f08c379a000000000000000000000000000000000000000000000000000000000815260040161121090611fd1565b60405180910390fd5b6112268484848403610f30565b5b50505050565b600073ffffffffffffffffffffffffffffffffffffffff168373ffffffffffffffffffffffffffffffffffffffff16141561129d576040517f08c379a000000000000000000000000000000000000000000000000000000000815260040161129490612091565b60405180910390fd5b600073ffffffffffffffffffffffffffffffffffffffff168273ffffffffffffffffffffffffffffffffffffffff16141561130d576040517f08c379a000000000000000000000000000000000000000000000000000000000815260040161130490611f51565b60405180910390fd5b611318838383611957565b60008060008573ffffffffffffffffffffffffffffffffffffffff1673ffffffffffffffffffffffffffffffffffffffff1681526020019081526020016000205490508181101561139e576040517f08c379a000000000000000000000000000000000000000000000000000000000815260040161139590611ff1565b60405180910390fd5b8181036000808673ffffffffffffffffffffffffffffffffffffffff1673ffffffffffffffffffffffffffffffffffffffff16815260200190815260200160002081905550816000808573ffffffffffffffffffffffffffffffffffffffff1673ffffffffffffffffffffffffffffffffffffffff168152602001908152602001600020600082825461143191906121d7565b925050819055508273ffffffffffffffffffffffffffffffffffffffff168473ffffffffffffffffffffffffffffffffffffffff167fddf252ad1be2c89b69c2b068fc378daa952ba7f163c4a11628f55a4df523b3ef846040516114959190612151565b60405180910390a36114a884848461195c565b50505050565b600073ffffffffffffffffffffffffffffffffffffffff168273ffffffffffffffffffffffffffffffffffffffff16141561151e576040517f08c379a000000000000000000000000000000000000000000000000000000000815260040161151590612131565b60405180910390fd5b61152a60008383611957565b806002600082825461153c91906121d7565b92505081905550806000808473ffffffffffffffffffffffffffffffffffffffff1673ffffffffffffffffffffffffffffffffffffffff168152602001908152602001600020600082825461159191906121d7565b925050819055508173ffffffffffffffffffffffffffffffffffffffff16600073ffffffffffffffffffffffffffffffffffffffff167fddf252ad1be2c89b69c2b068fc378daa952ba7f163c4a11628f55a4df523b3ef836040516115f69190612151565b60405180910390a361160a6000838361195c565b5050565b6000806116196105e3565b91509150600061163534348461162f91906122b8565b856110fb565b90508481101561167a576040517f08c379a000000000000000000000000000000000000000000000000000000000815260040161167190612011565b60405180910390fd5b600560009054906101000a900473ffffffffffffffffffffffffffffffffffffffff1673ffffffffffffffffffffffffffffffffffffffff1663a9059cbb85836040518363ffffffff1660e01b81526004016116d7929190611eeb565b602060405180830381600087803b1580156116f157600080fd5b505af1158015611705573d6000803e3d6000fd5b505050506040513d601f19601f820116820180604052508101906117299190611ab5565b50348473ffffffffffffffffffffffffffffffffffffffff167f2ad51a6b79c1a35468e5cc340ef09004400e337e1d1149aab02294fdb7f8f055836040516117719190612151565b60405180910390a35050505050565b600073ffffffffffffffffffffffffffffffffffffffff168273ffffffffffffffffffffffffffffffffffffffff1614156117f0576040517f08c379a00000000000000000000000000000000000000000000000000000000081526004016117e790612051565b60405180910390fd5b6117fc82600083611957565b60008060008473ffffffffffffffffffffffffffffffffffffffff1673ffffffffffffffffffffffffffffffffffffffff16815260200190815260200160002054905081811015611882576040517f08c379a000000000000000000000000000000000000000000000000000000000815260040161187990611f71565b60405180910390fd5b8181036000808573ffffffffffffffffffffffffffffffffffffffff1673ffffffffffffffffffffffffffffffffffffffff1681526020019081526020016000208190555081600260008282546118d991906122b8565b92505081905550600073ffffffffffffffffffffffffffffffffffffffff168373ffffffffffffffffffffffffffffffffffffffff167fddf252ad1be2c89b69c2b068fc378daa952ba7f163c4a11628f55a4df523b3ef8460405161193e9190612151565b60405180910390a36119528360008461195c565b505050565b505050565b505050565b600081359050611970816128ca565b92915050565b600081519050611985816128e1565b92915050565b60008135905061199a816128f8565b92915050565b6000815190506119af816128f8565b92915050565b6000602082840312156119cb576119ca612433565b5b60006119d984828501611961565b91505092915050565b600080604083850312156119f9576119f8612433565b5b6000611a0785828601611961565b9250506020611a1885828601611961565b9150509250929050565b600080600060608486031215611a3b57611a3a612433565b5b6000611a4986828701611961565b9350506020611a5a86828701611961565b9250506040611a6b8682870161198b565b9150509250925092565b60008060408385031215611a8c57611a8b612433565b5b6000611a9a85828601611961565b9250506020611aab8582860161198b565b9150509250929050565b600060208284031215611acb57611aca612433565b5b6000611ad984828501611976565b91505092915050565b600060208284031215611af857611af7612433565b5b6000611b068482850161198b565b91505092915050565b600060208284031215611b2557611b24612433565b5b6000611b33848285016119a0565b91505092915050565b60008060408385031215611b5357611b52612433565b5b6000611b618582860161198b565b9250506020611b7285828601611961565b9150509250929050565b60008060408385031215611b9357611b92612433565b5b6000611ba18582860161198b565b9250506020611bb28582860161198b565b9150509250929050565b611bc5816122ec565b82525050565b611bd4816122fe565b82525050565b6000611be5826121b0565b611bef81856121c6565b9350611bff818560208601612341565b611c0881612438565b840191505092915050565b6000611c206023836121c6565b9150611c2b82612449565b604082019050919050565b6000611c436022836121c6565b9150611c4e82612498565b604082019050919050565b6000611c666022836121c6565b9150611c71826124e7565b604082019050919050565b6000611c896029836121c6565b9150611c9482612536565b604082019050919050565b6000611cac601d836121c6565b9150611cb782612585565b602082019050919050565b6000611ccf6026836121c6565b9150611cda826125ae565b604082019050919050565b6000611cf26043836121c6565b9150611cfd826125fd565b606082019050919050565b6000611d156037836121c6565b9150611d2082612672565b604082019050919050565b6000611d386021836121c6565b9150611d43826126c1565b604082019050919050565b6000611d5b6019836121c6565b9150611d6682612710565b602082019050919050565b6000611d7e6025836121c6565b9150611d8982612739565b604082019050919050565b6000611da16025836121c6565b9150611dac82612788565b604082019050919050565b6000611dc46000836121bb565b9150611dcf826127d7565b600082019050919050565b6000611de76015836121c6565b9150611df2826127da565b602082019050919050565b6000611e0a6024836121c6565b9150611e1582612803565b604082019050919050565b6000611e2d6025836121c6565b9150611e3882612852565b604082019050919050565b6000611e50601f836121c6565b9150611e5b826128a1565b602082019050919050565b611e6f8161232a565b82525050565b611e7e81612334565b82525050565b6000611e8f82611db7565b9150819050919050565b6000602082019050611eae6000830184611bbc565b92915050565b6000606082019050611ec96000830186611bbc565b611ed66020830185611bbc565b611ee36040830184611e66565b949350505050565b6000604082019050611f006000830185611bbc565b611f0d6020830184611e66565b9392505050565b6000602082019050611f296000830184611bcb565b92915050565b60006020820190508181036000830152611f498184611bda565b905092915050565b60006020820190508181036000830152611f6a81611c13565b9050919050565b60006020820190508181036000830152611f8a81611c36565b9050919050565b60006020820190508181036000830152611faa81611c59565b9050919050565b60006020820190508181036000830152611fca81611c7c565b9050919050565b60006020820190508181036000830152611fea81611c9f565b9050919050565b6000602082019050818103600083015261200a81611cc2565b9050919050565b6000602082019050818103600083015261202a81611ce5565b9050919050565b6000602082019050818103600083015261204a81611d08565b9050919050565b6000602082019050818103600083015261206a81611d2b565b9050919050565b6000602082019050818103600083015261208a81611d4e565b9050919050565b600060208201905081810360008301526120aa81611d71565b9050919050565b600060208201905081810360008301526120ca81611d94565b9050919050565b600060208201905081810360008301526120ea81611dda565b9050919050565b6000602082019050818103600083015261210a81611dfd565b9050919050565b6000602082019050818103600083015261212a81611e20565b9050919050565b6000602082019050818103600083015261214a81611e43565b9050919050565b60006020820190506121666000830184611e66565b92915050565b60006040820190506121816000830185611e66565b61218e6020830184611e66565b9392505050565b60006020820190506121aa6000830184611e75565b92915050565b600081519050919050565b600081905092915050565b600082825260208201905092915050565b60006121e28261232a565b91506121ed8361232a565b9250827fffffffffffffffffffffffffffffffffffffffffffffffffffffffffffffffff03821115612222576122216123a6565b5b828201905092915050565b60006122388261232a565b91506122438361232a565b925082612253576122526123d5565b5b828204905092915050565b60006122698261232a565b91506122748361232a565b9250817fffffffffffffffffffffffffffffffffffffffffffffffffffffffffffffffff04831182151516156122ad576122ac6123a6565b5b828202905092915050565b60006122c38261232a565b91506122ce8361232a565b9250828210156122e1576122e06123a6565b5b828203905092915050565b60006122f78261230a565b9050919050565b60008115159050919050565b600073ffffffffffffffffffffffffffffffffffffffff82169050919050565b6000819050919050565b600060ff82169050919050565b60005b8381101561235f578082015181840152602081019050612344565b8381111561236e576000848401525b50505050565b6000600282049050600182168061238c57607f821691505b602082108114156123a05761239f612404565b5b50919050565b7f4e487b7100000000000000000000000000000000000000000000000000000000600052601160045260246000fd5b7f4e487b7100000000000000000000000000000000000000000000000000000000600052601260045260246000fd5b7f4e487b7100000000000000000000000000000000000000000000000000000000600052602260045260246000fd5b600080fd5b6000601f19601f8301169050919050565b7f45524332303a207472616e7366657220746f20746865207a65726f206164647260008201527f6573730000000000000000000000000000000000000000000000000000000000602082015250565b7f45524332303a206275726e20616d6f756e7420657863656564732062616c616e60008201527f6365000000000000000000000000000000000000000000000000000000000000602082015250565b7f45524332303a20617070726f766520746f20746865207a65726f20616464726560008201527f7373000000000000000000000000000000000000000000000000000000000000602082015250565b7f496e73756666696369656e7420696e70757420616d6f756e74206f662045524360008201527f323020546f6b656e730000000000000000000000000000000000000000000000602082015250565b7f45524332303a20696e73756666696369656e7420616c6c6f77616e6365000000600082015250565b7f45524332303a207472616e7366657220616d6f756e742065786365656473206260008201527f616c616e63650000000000000000000000000000000000000000000000000000602082015250565b7f416d6f756e74207377617070656420646f6573206e6f74206d65657420796f7560008201527f722073746970756c6174656420616d6f756e742c20726576657274696e67207360208201527f7761700000000000000000000000000000000000000000000000000000000000604082015250565b7f506c6561736520696e70757420612076616c696420616d6f756e74206f66204c60008201527f5020546f6b656e7320746f206275726e2f72656465656d000000000000000000602082015250565b7f45524332303a206275726e2066726f6d20746865207a65726f2061646472657360008201527f7300000000000000000000000000000000000000000000000000000000000000602082015250565b7f45544820616d6f756e742063616e6e6f74206265207a65726f00000000000000600082015250565b7f45524332303a207472616e736665722066726f6d20746865207a65726f20616460008201527f6472657373000000000000000000000000000000000000000000000000000000602082015250565b7f5472616e73616374696f6e206f662045746865722077617320756e737563636560008201527f737366756c000000000000000000000000000000000000000000000000000000602082015250565b50565b7f546865726520617265206e6f2072657365727665730000000000000000000000600082015250565b7f45524332303a20617070726f76652066726f6d20746865207a65726f2061646460008201527f7265737300000000000000000000000000000000000000000000000000000000602082015250565b7f45524332303a2064656372656173656420616c6c6f77616e63652062656c6f7760008201527f207a65726f000000000000000000000000000000000000000000000000000000602082015250565b7f45524332303a206d696e7420746f20746865207a65726f206164647265737300600082015250565b6128d3816122ec565b81146128de57600080fd5b50565b6128ea816122fe565b81146128f557600080fd5b50565b6129018161232a565b811461290c57600080fd5b5056fea2646970667358221220bb45d996d68b91274f69b2a61a45f85fbb1bef662806ca1b7eed52958428bd4564736f6c63430008070033",
					"opcodes": "PUSH1 0x80 PUSH1 0x40 MSTORE CALLVALUE DUP1 ISZERO PUSH3 0x11 JUMPI PUSH1 0x0 DUP1 REVERT JUMPDEST POP PUSH1 0x40 MLOAD PUSH3 0x2D5C CODESIZE SUB DUP1 PUSH3 0x2D5C DUP4 CODECOPY DUP2 DUP2 ADD PUSH1 0x40 MSTORE DUP2 ADD SWAP1 PUSH3 0x37 SWAP2 SWAP1 PUSH3 0x29A JUMP JUMPDEST PUSH1 0x40 MLOAD DUP1 PUSH1 0x40 ADD PUSH1 0x40 MSTORE DUP1 PUSH1 0x7 DUP2 MSTORE PUSH1 0x20 ADD PUSH32 0x5377617020563100000000000000000000000000000000000000000000000000 DUP2 MSTORE POP PUSH1 0x40 MLOAD DUP1 PUSH1 0x40 ADD PUSH1 0x40 MSTORE DUP1 PUSH1 0x7 DUP2 MSTORE PUSH1 0x20 ADD PUSH32 0x537761702D563100000000000000000000000000000000000000000000000000 DUP2 MSTORE POP DUP2 PUSH1 0x3 SWAP1 DUP1 MLOAD SWAP1 PUSH1 0x20 ADD SWAP1 PUSH3 0xBB SWAP3 SWAP2 SWAP1 PUSH3 0x1D3 JUMP JUMPDEST POP DUP1 PUSH1 0x4 SWAP1 DUP1 MLOAD SWAP1 PUSH1 0x20 ADD SWAP1 PUSH3 0xD4 SWAP3 SWAP2 SWAP1 PUSH3 0x1D3 JUMP JUMPDEST POP POP POP PUSH1 0x0 PUSH20 0xFFFFFFFFFFFFFFFFFFFFFFFFFFFFFFFFFFFFFFFF AND DUP2 PUSH20 0xFFFFFFFFFFFFFFFFFFFFFFFFFFFFFFFFFFFFFFFF AND EQ ISZERO PUSH3 0x14A JUMPI PUSH1 0x40 MLOAD PUSH32 0x8C379A000000000000000000000000000000000000000000000000000000000 DUP2 MSTORE PUSH1 0x4 ADD PUSH3 0x141 SWAP1 PUSH3 0x2F3 JUMP JUMPDEST PUSH1 0x40 MLOAD DUP1 SWAP2 SUB SWAP1 REVERT JUMPDEST DUP1 PUSH1 0x5 PUSH1 0x0 PUSH2 0x100 EXP DUP2 SLOAD DUP2 PUSH20 0xFFFFFFFFFFFFFFFFFFFFFFFFFFFFFFFFFFFFFFFF MUL NOT AND SWAP1 DUP4 PUSH20 0xFFFFFFFFFFFFFFFFFFFFFFFFFFFFFFFFFFFFFFFF AND MUL OR SWAP1 SSTORE POP CALLER PUSH1 0x6 PUSH1 0x0 PUSH2 0x100 EXP DUP2 SLOAD DUP2 PUSH20 0xFFFFFFFFFFFFFFFFFFFFFFFFFFFFFFFFFFFFFFFF MUL NOT AND SWAP1 DUP4 PUSH20 0xFFFFFFFFFFFFFFFFFFFFFFFFFFFFFFFFFFFFFFFF AND MUL OR SWAP1 SSTORE POP POP PUSH3 0x407 JUMP JUMPDEST DUP3 DUP1 SLOAD PUSH3 0x1E1 SWAP1 PUSH3 0x35A JUMP JUMPDEST SWAP1 PUSH1 0x0 MSTORE PUSH1 0x20 PUSH1 0x0 KECCAK256 SWAP1 PUSH1 0x1F ADD PUSH1 0x20 SWAP1 DIV DUP2 ADD SWAP3 DUP3 PUSH3 0x205 JUMPI PUSH1 0x0 DUP6 SSTORE PUSH3 0x251 JUMP JUMPDEST DUP3 PUSH1 0x1F LT PUSH3 0x220 JUMPI DUP1 MLOAD PUSH1 0xFF NOT AND DUP4 DUP1 ADD OR DUP6 SSTORE PUSH3 0x251 JUMP JUMPDEST DUP3 DUP1 ADD PUSH1 0x1 ADD DUP6 SSTORE DUP3 ISZERO PUSH3 0x251 JUMPI SWAP2 DUP3 ADD JUMPDEST DUP3 DUP2 GT ISZERO PUSH3 0x250 JUMPI DUP3 MLOAD DUP3 SSTORE SWAP2 PUSH1 0x20 ADD SWAP2 SWAP1 PUSH1 0x1 ADD SWAP1 PUSH3 0x233 JUMP JUMPDEST JUMPDEST POP SWAP1 POP PUSH3 0x260 SWAP2 SWAP1 PUSH3 0x264 JUMP JUMPDEST POP SWAP1 JUMP JUMPDEST JUMPDEST DUP1 DUP3 GT ISZERO PUSH3 0x27F JUMPI PUSH1 0x0 DUP2 PUSH1 0x0 SWAP1 SSTORE POP PUSH1 0x1 ADD PUSH3 0x265 JUMP JUMPDEST POP SWAP1 JUMP JUMPDEST PUSH1 0x0 DUP2 MLOAD SWAP1 POP PUSH3 0x294 DUP2 PUSH3 0x3ED JUMP JUMPDEST SWAP3 SWAP2 POP POP JUMP JUMPDEST PUSH1 0x0 PUSH1 0x20 DUP3 DUP5 SUB SLT ISZERO PUSH3 0x2B3 JUMPI PUSH3 0x2B2 PUSH3 0x3BF JUMP JUMPDEST JUMPDEST PUSH1 0x0 PUSH3 0x2C3 DUP5 DUP3 DUP6 ADD PUSH3 0x283 JUMP JUMPDEST SWAP2 POP POP SWAP3 SWAP2 POP POP JUMP JUMPDEST PUSH1 0x0 PUSH3 0x2DB PUSH1 0xF DUP4 PUSH3 0x315 JUMP JUMPDEST SWAP2 POP PUSH3 0x2E8 DUP3 PUSH3 0x3C4 JUMP JUMPDEST PUSH1 0x20 DUP3 ADD SWAP1 POP SWAP2 SWAP1 POP JUMP JUMPDEST PUSH1 0x0 PUSH1 0x20 DUP3 ADD SWAP1 POP DUP2 DUP2 SUB PUSH1 0x0 DUP4 ADD MSTORE PUSH3 0x30E DUP2 PUSH3 0x2CC JUMP JUMPDEST SWAP1 POP SWAP2 SWAP1 POP JUMP JUMPDEST PUSH1 0x0 DUP3 DUP3 MSTORE PUSH1 0x20 DUP3 ADD SWAP1 POP SWAP3 SWAP2 POP POP JUMP JUMPDEST PUSH1 0x0 PUSH3 0x333 DUP3 PUSH3 0x33A JUMP JUMPDEST SWAP1 POP SWAP2 SWAP1 POP JUMP JUMPDEST PUSH1 0x0 PUSH20 0xFFFFFFFFFFFFFFFFFFFFFFFFFFFFFFFFFFFFFFFF DUP3 AND SWAP1 POP SWAP2 SWAP1 POP JUMP JUMPDEST PUSH1 0x0 PUSH1 0x2 DUP3 DIV SWAP1 POP PUSH1 0x1 DUP3 AND DUP1 PUSH3 0x373 JUMPI PUSH1 0x7F DUP3 AND SWAP2 POP JUMPDEST PUSH1 0x20 DUP3 LT DUP2 EQ ISZERO PUSH3 0x38A JUMPI PUSH3 0x389 PUSH3 0x390 JUMP JUMPDEST JUMPDEST POP SWAP2 SWAP1 POP JUMP JUMPDEST PUSH32 0x4E487B7100000000000000000000000000000000000000000000000000000000 PUSH1 0x0 MSTORE PUSH1 0x22 PUSH1 0x4 MSTORE PUSH1 0x24 PUSH1 0x0 REVERT JUMPDEST PUSH1 0x0 DUP1 REVERT JUMPDEST PUSH32 0x496E76616C696420616464726573730000000000000000000000000000000000 PUSH1 0x0 DUP3 ADD MSTORE POP JUMP JUMPDEST PUSH3 0x3F8 DUP2 PUSH3 0x326 JUMP JUMPDEST DUP2 EQ PUSH3 0x404 JUMPI PUSH1 0x0 DUP1 REVERT JUMPDEST POP JUMP JUMPDEST PUSH2 0x2945 DUP1 PUSH3 0x417 PUSH1 0x0 CODECOPY PUSH1 0x0 RETURN INVALID PUSH1 0x80 PUSH1 0x40 MSTORE PUSH1 0x4 CALLDATASIZE LT PUSH2 0x12A JUMPI PUSH1 0x0 CALLDATALOAD PUSH1 0xE0 SHR DUP1 PUSH4 0x64338A30 GT PUSH2 0xAB JUMPI DUP1 PUSH4 0x9C8F9F23 GT PUSH2 0x6F JUMPI DUP1 PUSH4 0x9C8F9F23 EQ PUSH2 0x415 JUMPI DUP1 PUSH4 0x9D76EA58 EQ PUSH2 0x453 JUMPI DUP1 PUSH4 0xA457C2D7 EQ PUSH2 0x47E JUMPI DUP1 PUSH4 0xA9059CBB EQ PUSH2 0x4BB JUMPI DUP1 PUSH4 0xAE0AAEA3 EQ PUSH2 0x4F8 JUMPI DUP1 PUSH4 0xDD62ED3E EQ PUSH2 0x514 JUMPI PUSH2 0x12A JUMP JUMPDEST DUP1 PUSH4 0x64338A30 EQ PUSH2 0x33D JUMPI DUP1 PUSH4 0x6E9E8116 EQ PUSH2 0x366 JUMPI DUP1 PUSH4 0x70A08231 EQ PUSH2 0x382 JUMPI DUP1 PUSH4 0x95D89B41 EQ PUSH2 0x3BF JUMPI DUP1 PUSH4 0x966DAE0E EQ PUSH2 0x3EA JUMPI PUSH2 0x12A JUMP JUMPDEST DUP1 PUSH4 0x23B872DD GT PUSH2 0xF2 JUMPI DUP1 PUSH4 0x23B872DD EQ PUSH2 0x22B JUMPI DUP1 PUSH4 0x2C0C60A4 EQ PUSH2 0x268 JUMPI DUP1 PUSH4 0x313CE567 EQ PUSH2 0x2A5 JUMPI DUP1 PUSH4 0x39509351 EQ PUSH2 0x2D0 JUMPI DUP1 PUSH4 0x51C6590A EQ PUSH2 0x30D JUMPI PUSH2 0x12A JUMP JUMPDEST DUP1 PUSH4 0x6FDDE03 EQ PUSH2 0x12F JUMPI DUP1 PUSH4 0x902F1AC EQ PUSH2 0x15A JUMPI DUP1 PUSH4 0x95EA7B3 EQ PUSH2 0x186 JUMPI DUP1 PUSH4 0xF8070B4 EQ PUSH2 0x1C3 JUMPI DUP1 PUSH4 0x18160DDD EQ PUSH2 0x200 JUMPI JUMPDEST PUSH1 0x0 DUP1 REVERT JUMPDEST CALLVALUE DUP1 ISZERO PUSH2 0x13B JUMPI PUSH1 0x0 DUP1 REVERT JUMPDEST POP PUSH2 0x144 PUSH2 0x551 JUMP JUMPDEST PUSH1 0x40 MLOAD PUSH2 0x151 SWAP2 SWAP1 PUSH2 0x1F2F JUMP JUMPDEST PUSH1 0x40 MLOAD DUP1 SWAP2 SUB SWAP1 RETURN JUMPDEST CALLVALUE DUP1 ISZERO PUSH2 0x166 JUMPI PUSH1 0x0 DUP1 REVERT JUMPDEST POP PUSH2 0x16F PUSH2 0x5E3 JUMP JUMPDEST PUSH1 0x40 MLOAD PUSH2 0x17D SWAP3 SWAP2 SWAP1 PUSH2 0x216C JUMP JUMPDEST PUSH1 0x40 MLOAD DUP1 SWAP2 SUB SWAP1 RETURN JUMPDEST CALLVALUE DUP1 ISZERO PUSH2 0x192 JUMPI PUSH1 0x0 DUP1 REVERT JUMPDEST POP PUSH2 0x1AD PUSH1 0x4 DUP1 CALLDATASIZE SUB DUP2 ADD SWAP1 PUSH2 0x1A8 SWAP2 SWAP1 PUSH2 0x1A75 JUMP JUMPDEST PUSH2 0x69A JUMP JUMPDEST PUSH1 0x40 MLOAD PUSH2 0x1BA SWAP2 SWAP1 PUSH2 0x1F14 JUMP JUMPDEST PUSH1 0x40 MLOAD DUP1 SWAP2 SUB SWAP1 RETURN JUMPDEST CALLVALUE DUP1 ISZERO PUSH2 0x1CF JUMPI PUSH1 0x0 DUP1 REVERT JUMPDEST POP PUSH2 0x1EA PUSH1 0x4 DUP1 CALLDATASIZE SUB DUP2 ADD SWAP1 PUSH2 0x1E5 SWAP2 SWAP1 PUSH2 0x1AE2 JUMP JUMPDEST PUSH2 0x6BD JUMP JUMPDEST PUSH1 0x40 MLOAD PUSH2 0x1F7 SWAP2 SWAP1 PUSH2 0x2151 JUMP JUMPDEST PUSH1 0x40 MLOAD DUP1 SWAP2 SUB SWAP1 RETURN JUMPDEST CALLVALUE DUP1 ISZERO PUSH2 0x20C JUMPI PUSH1 0x0 DUP1 REVERT JUMPDEST POP PUSH2 0x215 PUSH2 0x724 JUMP JUMPDEST PUSH1 0x40 MLOAD PUSH2 0x222 SWAP2 SWAP1 PUSH2 0x2151 JUMP JUMPDEST PUSH1 0x40 MLOAD DUP1 SWAP2 SUB SWAP1 RETURN JUMPDEST CALLVALUE DUP1 ISZERO PUSH2 0x237 JUMPI PUSH1 0x0 DUP1 REVERT JUMPDEST POP PUSH2 0x252 PUSH1 0x4 DUP1 CALLDATASIZE SUB DUP2 ADD SWAP1 PUSH2 0x24D SWAP2 SWAP1 PUSH2 0x1A22 JUMP JUMPDEST PUSH2 0x72E JUMP JUMPDEST PUSH1 0x40 MLOAD PUSH2 0x25F SWAP2 SWAP1 PUSH2 0x1F14 JUMP JUMPDEST PUSH1 0x40 MLOAD DUP1 SWAP2 SUB SWAP1 RETURN JUMPDEST CALLVALUE DUP1 ISZERO PUSH2 0x274 JUMPI PUSH1 0x0 DUP1 REVERT JUMPDEST POP PUSH2 0x28F PUSH1 0x4 DUP1 CALLDATASIZE SUB DUP2 ADD SWAP1 PUSH2 0x28A SWAP2 SWAP1 PUSH2 0x1AE2 JUMP JUMPDEST PUSH2 0x75D JUMP JUMPDEST PUSH1 0x40 MLOAD PUSH2 0x29C SWAP2 SWAP1 PUSH2 0x2151 JUMP JUMPDEST PUSH1 0x40 MLOAD DUP1 SWAP2 SUB SWAP1 RETURN JUMPDEST CALLVALUE DUP1 ISZERO PUSH2 0x2B1 JUMPI PUSH1 0x0 DUP1 REVERT JUMPDEST POP PUSH2 0x2BA PUSH2 0x7C4 JUMP JUMPDEST PUSH1 0x40 MLOAD PUSH2 0x2C7 SWAP2 SWAP1 PUSH2 0x2195 JUMP JUMPDEST PUSH1 0x40 MLOAD DUP1 SWAP2 SUB SWAP1 RETURN JUMPDEST CALLVALUE DUP1 ISZERO PUSH2 0x2DC JUMPI PUSH1 0x0 DUP1 REVERT JUMPDEST POP PUSH2 0x2F7 PUSH1 0x4 DUP1 CALLDATASIZE SUB DUP2 ADD SWAP1 PUSH2 0x2F2 SWAP2 SWAP1 PUSH2 0x1A75 JUMP JUMPDEST PUSH2 0x7CD JUMP JUMPDEST PUSH1 0x40 MLOAD PUSH2 0x304 SWAP2 SWAP1 PUSH2 0x1F14 JUMP JUMPDEST PUSH1 0x40 MLOAD DUP1 SWAP2 SUB SWAP1 RETURN JUMPDEST PUSH2 0x327 PUSH1 0x4 DUP1 CALLDATASIZE SUB DUP2 ADD SWAP1 PUSH2 0x322 SWAP2 SWAP1 PUSH2 0x1AE2 JUMP JUMPDEST PUSH2 0x804 JUMP JUMPDEST PUSH1 0x40 MLOAD PUSH2 0x334 SWAP2 SWAP1 PUSH2 0x2151 JUMP JUMPDEST PUSH1 0x40 MLOAD DUP1 SWAP2 SUB SWAP1 RETURN JUMPDEST CALLVALUE DUP1 ISZERO PUSH2 0x349 JUMPI PUSH1 0x0 DUP1 REVERT JUMPDEST POP PUSH2 0x364 PUSH1 0x4 DUP1 CALLDATASIZE SUB DUP2 ADD SWAP1 PUSH2 0x35F SWAP2 SWAP1 PUSH2 0x1B7C JUMP JUMPDEST PUSH2 0xA7A JUMP JUMPDEST STOP JUMPDEST PUSH2 0x380 PUSH1 0x4 DUP1 CALLDATASIZE SUB DUP2 ADD SWAP1 PUSH2 0x37B SWAP2 SWAP1 PUSH2 0x1B3C JUMP JUMPDEST PUSH2 0xA7E JUMP JUMPDEST STOP JUMPDEST CALLVALUE DUP1 ISZERO PUSH2 0x38E JUMPI PUSH1 0x0 DUP1 REVERT JUMPDEST POP PUSH2 0x3A9 PUSH1 0x4 DUP1 CALLDATASIZE SUB DUP2 ADD SWAP1 PUSH2 0x3A4 SWAP2 SWAP1 PUSH2 0x19B5 JUMP JUMPDEST PUSH2 0xA8C JUMP JUMPDEST PUSH1 0x40 MLOAD PUSH2 0x3B6 SWAP2 SWAP1 PUSH2 0x2151 JUMP JUMPDEST PUSH1 0x40 MLOAD DUP1 SWAP2 SUB SWAP1 RETURN JUMPDEST CALLVALUE DUP1 ISZERO PUSH2 0x3CB JUMPI PUSH1 0x0 DUP1 REVERT JUMPDEST POP PUSH2 0x3D4 PUSH2 0xAD4 JUMP JUMPDEST PUSH1 0x40 MLOAD PUSH2 0x3E1 SWAP2 SWAP1 PUSH2 0x1F2F JUMP JUMPDEST PUSH1 0x40 MLOAD DUP1 SWAP2 SUB SWAP1 RETURN JUMPDEST CALLVALUE DUP1 ISZERO PUSH2 0x3F6 JUMPI PUSH1 0x0 DUP1 REVERT JUMPDEST POP PUSH2 0x3FF PUSH2 0xB66 JUMP JUMPDEST PUSH1 0x40 MLOAD PUSH2 0x40C SWAP2 SWAP1 PUSH2 0x1E99 JUMP JUMPDEST PUSH1 0x40 MLOAD DUP1 SWAP2 SUB SWAP1 RETURN JUMPDEST CALLVALUE DUP1 ISZERO PUSH2 0x421 JUMPI PUSH1 0x0 DUP1 REVERT JUMPDEST POP PUSH2 0x43C PUSH1 0x4 DUP1 CALLDATASIZE SUB DUP2 ADD SWAP1 PUSH2 0x437 SWAP2 SWAP1 PUSH2 0x1AE2 JUMP JUMPDEST PUSH2 0xB8C JUMP JUMPDEST PUSH1 0x40 MLOAD PUSH2 0x44A SWAP3 SWAP2 SWAP1 PUSH2 0x216C JUMP JUMPDEST PUSH1 0x40 MLOAD DUP1 SWAP2 SUB SWAP1 RETURN JUMPDEST CALLVALUE DUP1 ISZERO PUSH2 0x45F JUMPI PUSH1 0x0 DUP1 REVERT JUMPDEST POP PUSH2 0x468 PUSH2 0xDD4 JUMP JUMPDEST PUSH1 0x40 MLOAD PUSH2 0x475 SWAP2 SWAP1 PUSH2 0x1E99 JUMP JUMPDEST PUSH1 0x40 MLOAD DUP1 SWAP2 SUB SWAP1 RETURN JUMPDEST CALLVALUE DUP1 ISZERO PUSH2 0x48A JUMPI PUSH1 0x0 DUP1 REVERT JUMPDEST POP PUSH2 0x4A5 PUSH1 0x4 DUP1 CALLDATASIZE SUB DUP2 ADD SWAP1 PUSH2 0x4A0 SWAP2 SWAP1 PUSH2 0x1A75 JUMP JUMPDEST PUSH2 0xDFA JUMP JUMPDEST PUSH1 0x40 MLOAD PUSH2 0x4B2 SWAP2 SWAP1 PUSH2 0x1F14 JUMP JUMPDEST PUSH1 0x40 MLOAD DUP1 SWAP2 SUB SWAP1 RETURN JUMPDEST CALLVALUE DUP1 ISZERO PUSH2 0x4C7 JUMPI PUSH1 0x0 DUP1 REVERT JUMPDEST POP PUSH2 0x4E2 PUSH1 0x4 DUP1 CALLDATASIZE SUB DUP2 ADD SWAP1 PUSH2 0x4DD SWAP2 SWAP1 PUSH2 0x1A75 JUMP JUMPDEST PUSH2 0xE71 JUMP JUMPDEST PUSH1 0x40 MLOAD PUSH2 0x4EF SWAP2 SWAP1 PUSH2 0x1F14 JUMP JUMPDEST PUSH1 0x40 MLOAD DUP1 SWAP2 SUB SWAP1 RETURN JUMPDEST PUSH2 0x512 PUSH1 0x4 DUP1 CALLDATASIZE SUB DUP2 ADD SWAP1 PUSH2 0x50D SWAP2 SWAP1 PUSH2 0x1AE2 JUMP JUMPDEST PUSH2 0xE94 JUMP JUMPDEST STOP JUMPDEST CALLVALUE DUP1 ISZERO PUSH2 0x520 JUMPI PUSH1 0x0 DUP1 REVERT JUMPDEST POP PUSH2 0x53B PUSH1 0x4 DUP1 CALLDATASIZE SUB DUP2 ADD SWAP1 PUSH2 0x536 SWAP2 SWAP1 PUSH2 0x19E2 JUMP JUMPDEST PUSH2 0xEA1 JUMP JUMPDEST PUSH1 0x40 MLOAD PUSH2 0x548 SWAP2 SWAP1 PUSH2 0x2151 JUMP JUMPDEST PUSH1 0x40 MLOAD DUP1 SWAP2 SUB SWAP1 RETURN JUMPDEST PUSH1 0x60 PUSH1 0x3 DUP1 SLOAD PUSH2 0x560 SWAP1 PUSH2 0x2374 JUMP JUMPDEST DUP1 PUSH1 0x1F ADD PUSH1 0x20 DUP1 SWAP2 DIV MUL PUSH1 0x20 ADD PUSH1 0x40 MLOAD SWAP1 DUP2 ADD PUSH1 0x40 MSTORE DUP1 SWAP3 SWAP2 SWAP1 DUP2 DUP2 MSTORE PUSH1 0x20 ADD DUP3 DUP1 SLOAD PUSH2 0x58C SWAP1 PUSH2 0x2374 JUMP JUMPDEST DUP1 ISZERO PUSH2 0x5D9 JUMPI DUP1 PUSH1 0x1F LT PUSH2 0x5AE JUMPI PUSH2 0x100 DUP1 DUP4 SLOAD DIV MUL DUP4 MSTORE SWAP2 PUSH1 0x20 ADD SWAP2 PUSH2 0x5D9 JUMP JUMPDEST DUP3 ADD SWAP2 SWAP1 PUSH1 0x0 MSTORE PUSH1 0x20 PUSH1 0x0 KECCAK256 SWAP1 JUMPDEST DUP2 SLOAD DUP2 MSTORE SWAP1 PUSH1 0x1 ADD SWAP1 PUSH1 0x20 ADD DUP1 DUP4 GT PUSH2 0x5BC JUMPI DUP3 SWAP1 SUB PUSH1 0x1F AND DUP3 ADD SWAP2 JUMPDEST POP POP POP POP POP SWAP1 POP SWAP1 JUMP JUMPDEST PUSH1 0x0 DUP1 PUSH1 0x5 PUSH1 0x0 SWAP1 SLOAD SWAP1 PUSH2 0x100 EXP SWAP1 DIV PUSH20 0xFFFFFFFFFFFFFFFFFFFFFFFFFFFFFFFFFFFFFFFF AND PUSH20 0xFFFFFFFFFFFFFFFFFFFFFFFFFFFFFFFFFFFFFFFF AND PUSH4 0x70A08231 ADDRESS PUSH1 0x40 MLOAD DUP3 PUSH4 0xFFFFFFFF AND PUSH1 0xE0 SHL DUP2 MSTORE PUSH1 0x4 ADD PUSH2 0x641 SWAP2 SWAP1 PUSH2 0x1E99 JUMP JUMPDEST PUSH1 0x20 PUSH1 0x40 MLOAD DUP1 DUP4 SUB DUP2 DUP7 DUP1 EXTCODESIZE ISZERO DUP1 ISZERO PUSH2 0x659 JUMPI PUSH1 0x0 DUP1 REVERT JUMPDEST POP GAS STATICCALL ISZERO DUP1 ISZERO PUSH2 0x66D JUMPI RETURNDATASIZE PUSH1 0x0 DUP1 RETURNDATACOPY RETURNDATASIZE PUSH1 0x0 REVERT JUMPDEST POP POP POP POP PUSH1 0x40 MLOAD RETURNDATASIZE PUSH1 0x1F NOT PUSH1 0x1F DUP3 ADD AND DUP3 ADD DUP1 PUSH1 0x40 MSTORE POP DUP2 ADD SWAP1 PUSH2 0x691 SWAP2 SWAP1 PUSH2 0x1B0F JUMP JUMPDEST SWAP2 POP SELFBALANCE SWAP1 POP SWAP1 SWAP2 JUMP JUMPDEST PUSH1 0x0 DUP1 PUSH2 0x6A5 PUSH2 0xF28 JUMP JUMPDEST SWAP1 POP PUSH2 0x6B2 DUP2 DUP6 DUP6 PUSH2 0xF30 JUMP JUMPDEST PUSH1 0x1 SWAP2 POP POP SWAP3 SWAP2 POP POP JUMP JUMPDEST PUSH1 0x0 DUP1 DUP3 GT PUSH2 0x701 JUMPI PUSH1 0x40 MLOAD PUSH32 0x8C379A000000000000000000000000000000000000000000000000000000000 DUP2 MSTORE PUSH1 0x4 ADD PUSH2 0x6F8 SWAP1 PUSH2 0x2071 JUMP JUMPDEST PUSH1 0x40 MLOAD DUP1 SWAP2 SUB SWAP1 REVERT JUMPDEST PUSH1 0x0 DUP1 PUSH2 0x70C PUSH2 0x5E3 JUMP JUMPDEST SWAP2 POP SWAP2 POP PUSH2 0x71B DUP5 DUP3 DUP5 PUSH2 0x10FB JUMP JUMPDEST SWAP3 POP POP POP SWAP2 SWAP1 POP JUMP JUMPDEST PUSH1 0x0 PUSH1 0x2 SLOAD SWAP1 POP SWAP1 JUMP JUMPDEST PUSH1 0x0 DUP1 PUSH2 0x739 PUSH2 0xF28 JUMP JUMPDEST SWAP1 POP PUSH2 0x746 DUP6 DUP3 DUP6 PUSH2 0x11A1 JUMP JUMPDEST PUSH2 0x751 DUP6 DUP6 DUP6 PUSH2 0x122D JUMP JUMPDEST PUSH1 0x1 SWAP2 POP POP SWAP4 SWAP3 POP POP POP JUMP JUMPDEST PUSH1 0x0 DUP1 DUP2 GT PUSH2 0x7A1 JUMPI PUSH1 0x40 MLOAD PUSH32 0x8C379A000000000000000000000000000000000000000000000000000000000 DUP2 MSTORE PUSH1 0x4 ADD PUSH2 0x798 SWAP1 PUSH2 0x2071 JUMP JUMPDEST PUSH1 0x40 MLOAD DUP1 SWAP2 SUB SWAP1 REVERT JUMPDEST PUSH1 0x0 DUP1 PUSH2 0x7AC PUSH2 0x5E3 JUMP JUMPDEST SWAP2 POP SWAP2 POP PUSH2 0x7BB DUP5 DUP4 DUP4 PUSH2 0x10FB JUMP JUMPDEST SWAP3 POP POP POP SWAP2 SWAP1 POP JUMP JUMPDEST PUSH1 0x0 PUSH1 0x12 SWAP1 POP SWAP1 JUMP JUMPDEST PUSH1 0x0 DUP1 PUSH2 0x7D8 PUSH2 0xF28 JUMP JUMPDEST SWAP1 POP PUSH2 0x7F9 DUP2 DUP6 DUP6 PUSH2 0x7EA DUP6 DUP10 PUSH2 0xEA1 JUMP JUMPDEST PUSH2 0x7F4 SWAP2 SWAP1 PUSH2 0x21D7 JUMP JUMPDEST PUSH2 0xF30 JUMP JUMPDEST PUSH1 0x1 SWAP2 POP POP SWAP3 SWAP2 POP POP JUMP JUMPDEST PUSH1 0x0 DUP1 PUSH1 0x0 PUSH2 0x811 PUSH2 0x5E3 JUMP JUMPDEST SWAP2 POP SWAP2 POP PUSH1 0x0 DUP3 EQ ISZERO PUSH2 0x8DE JUMPI PUSH1 0x0 PUSH1 0x5 PUSH1 0x0 SWAP1 SLOAD SWAP1 PUSH2 0x100 EXP SWAP1 DIV PUSH20 0xFFFFFFFFFFFFFFFFFFFFFFFFFFFFFFFFFFFFFFFF AND SWAP1 POP DUP1 PUSH20 0xFFFFFFFFFFFFFFFFFFFFFFFFFFFFFFFFFFFFFFFF AND PUSH4 0x23B872DD CALLER ADDRESS DUP9 PUSH1 0x40 MLOAD DUP5 PUSH4 0xFFFFFFFF AND PUSH1 0xE0 SHL DUP2 MSTORE PUSH1 0x4 ADD PUSH2 0x882 SWAP4 SWAP3 SWAP2 SWAP1 PUSH2 0x1EB4 JUMP JUMPDEST PUSH1 0x20 PUSH1 0x40 MLOAD DUP1 DUP4 SUB DUP2 PUSH1 0x0 DUP8 DUP1 EXTCODESIZE ISZERO DUP1 ISZERO PUSH2 0x89C JUMPI PUSH1 0x0 DUP1 REVERT JUMPDEST POP GAS CALL ISZERO DUP1 ISZERO PUSH2 0x8B0 JUMPI RETURNDATASIZE PUSH1 0x0 DUP1 RETURNDATACOPY RETURNDATASIZE PUSH1 0x0 REVERT JUMPDEST POP POP POP POP PUSH1 0x40 MLOAD RETURNDATASIZE PUSH1 0x1F NOT PUSH1 0x1F DUP3 ADD AND DUP3 ADD DUP1 PUSH1 0x40 MSTORE POP DUP2 ADD SWAP1 PUSH2 0x8D4 SWAP2 SWAP1 PUSH2 0x1AB5 JUMP JUMPDEST POP DUP2 SWAP4 POP POP PUSH2 0xA24 JUMP JUMPDEST CALLVALUE DUP2 PUSH2 0x8EA SWAP2 SWAP1 PUSH2 0x22B8 JUMP JUMPDEST SWAP1 POP PUSH1 0x0 DUP2 DUP4 CALLVALUE PUSH2 0x8FB SWAP2 SWAP1 PUSH2 0x225E JUMP JUMPDEST PUSH2 0x905 SWAP2 SWAP1 PUSH2 0x222D JUMP JUMPDEST SWAP1 POP DUP1 DUP6 LT ISZERO PUSH2 0x94A JUMPI PUSH1 0x40 MLOAD PUSH32 0x8C379A000000000000000000000000000000000000000000000000000000000 DUP2 MSTORE PUSH1 0x4 ADD PUSH2 0x941 SWAP1 PUSH2 0x1FB1 JUMP JUMPDEST PUSH1 0x40 MLOAD DUP1 SWAP2 SUB SWAP1 REVERT JUMPDEST PUSH1 0x0 PUSH1 0x5 PUSH1 0x0 SWAP1 SLOAD SWAP1 PUSH2 0x100 EXP SWAP1 DIV PUSH20 0xFFFFFFFFFFFFFFFFFFFFFFFFFFFFFFFFFFFFFFFF AND SWAP1 POP DUP1 PUSH20 0xFFFFFFFFFFFFFFFFFFFFFFFFFFFFFFFFFFFFFFFF AND PUSH4 0x23B872DD CALLER ADDRESS DUP10 PUSH1 0x40 MLOAD DUP5 PUSH4 0xFFFFFFFF AND PUSH1 0xE0 SHL DUP2 MSTORE PUSH1 0x4 ADD PUSH2 0x9AE SWAP4 SWAP3 SWAP2 SWAP1 PUSH2 0x1EB4 JUMP JUMPDEST PUSH1 0x20 PUSH1 0x40 MLOAD DUP1 DUP4 SUB DUP2 PUSH1 0x0 DUP8 DUP1 EXTCODESIZE ISZERO DUP1 ISZERO PUSH2 0x9C8 JUMPI PUSH1 0x0 DUP1 REVERT JUMPDEST POP GAS CALL ISZERO DUP1 ISZERO PUSH2 0x9DC JUMPI RETURNDATASIZE PUSH1 0x0 DUP1 RETURNDATACOPY RETURNDATASIZE PUSH1 0x0 REVERT JUMPDEST POP POP POP POP PUSH1 0x40 MLOAD RETURNDATASIZE PUSH1 0x1F NOT PUSH1 0x1F DUP3 ADD AND DUP3 ADD DUP1 PUSH1 0x40 MSTORE POP DUP2 ADD SWAP1 PUSH2 0xA00 SWAP2 SWAP1 PUSH2 0x1AB5 JUMP JUMPDEST POP DUP3 CALLVALUE PUSH2 0xA0B PUSH2 0x724 JUMP JUMPDEST PUSH2 0xA15 SWAP2 SWAP1 PUSH2 0x225E JUMP JUMPDEST PUSH2 0xA1F SWAP2 SWAP1 PUSH2 0x222D JUMP JUMPDEST SWAP5 POP POP POP JUMPDEST PUSH2 0xA2E CALLER DUP5 PUSH2 0x14AE JUMP JUMPDEST DUP4 CALLVALUE CALLER PUSH20 0xFFFFFFFFFFFFFFFFFFFFFFFFFFFFFFFFFFFFFFFF AND PUSH32 0x6239653922AC7BEA6AA2B19DC486B9361821D37712EB796ADFD38D81DE278CA PUSH1 0x40 MLOAD PUSH1 0x40 MLOAD DUP1 SWAP2 SUB SWAP1 LOG4 POP POP SWAP2 SWAP1 POP JUMP JUMPDEST POP POP JUMP JUMPDEST PUSH2 0xA88 DUP3 DUP3 PUSH2 0x160E JUMP JUMPDEST POP POP JUMP JUMPDEST PUSH1 0x0 DUP1 PUSH1 0x0 DUP4 PUSH20 0xFFFFFFFFFFFFFFFFFFFFFFFFFFFFFFFFFFFFFFFF AND PUSH20 0xFFFFFFFFFFFFFFFFFFFFFFFFFFFFFFFFFFFFFFFF AND DUP2 MSTORE PUSH1 0x20 ADD SWAP1 DUP2 MSTORE PUSH1 0x20 ADD PUSH1 0x0 KECCAK256 SLOAD SWAP1 POP SWAP2 SWAP1 POP JUMP JUMPDEST PUSH1 0x60 PUSH1 0x4 DUP1 SLOAD PUSH2 0xAE3 SWAP1 PUSH2 0x2374 JUMP JUMPDEST DUP1 PUSH1 0x1F ADD PUSH1 0x20 DUP1 SWAP2 DIV MUL PUSH1 0x20 ADD PUSH1 0x40 MLOAD SWAP1 DUP2 ADD PUSH1 0x40 MSTORE DUP1 SWAP3 SWAP2 SWAP1 DUP2 DUP2 MSTORE PUSH1 0x20 ADD DUP3 DUP1 SLOAD PUSH2 0xB0F SWAP1 PUSH2 0x2374 JUMP JUMPDEST DUP1 ISZERO PUSH2 0xB5C JUMPI DUP1 PUSH1 0x1F LT PUSH2 0xB31 JUMPI PUSH2 0x100 DUP1 DUP4 SLOAD DIV MUL DUP4 MSTORE SWAP2 PUSH1 0x20 ADD SWAP2 PUSH2 0xB5C JUMP JUMPDEST DUP3 ADD SWAP2 SWAP1 PUSH1 0x0 MSTORE PUSH1 0x20 PUSH1 0x0 KECCAK256 SWAP1 JUMPDEST DUP2 SLOAD DUP2 MSTORE SWAP1 PUSH1 0x1 ADD SWAP1 PUSH1 0x20 ADD DUP1 DUP4 GT PUSH2 0xB3F JUMPI DUP3 SWAP1 SUB PUSH1 0x1F AND DUP3 ADD SWAP2 JUMPDEST POP POP POP POP POP SWAP1 POP SWAP1 JUMP JUMPDEST PUSH1 0x6 PUSH1 0x0 SWAP1 SLOAD SWAP1 PUSH2 0x100 EXP SWAP1 DIV PUSH20 0xFFFFFFFFFFFFFFFFFFFFFFFFFFFFFFFFFFFFFFFF AND DUP2 JUMP JUMPDEST PUSH1 0x0 DUP1 PUSH1 0x0 DUP4 GT PUSH2 0xBD2 JUMPI PUSH1 0x40 MLOAD PUSH32 0x8C379A000000000000000000000000000000000000000000000000000000000 DUP2 MSTORE PUSH1 0x4 ADD PUSH2 0xBC9 SWAP1 PUSH2 0x2031 JUMP JUMPDEST PUSH1 0x40 MLOAD DUP1 SWAP2 SUB SWAP1 REVERT JUMPDEST PUSH1 0x0 DUP1 PUSH2 0xBDD PUSH2 0x5E3 JUMP JUMPDEST SWAP2 POP SWAP2 POP PUSH2 0xBE9 PUSH2 0x724 JUMP JUMPDEST DUP6 DUP3 PUSH2 0xBF5 SWAP2 SWAP1 PUSH2 0x225E JUMP JUMPDEST PUSH2 0xBFF SWAP2 SWAP1 PUSH2 0x222D JUMP JUMPDEST SWAP4 POP PUSH2 0xC09 PUSH2 0x724 JUMP JUMPDEST DUP6 DUP4 PUSH2 0xC15 SWAP2 SWAP1 PUSH2 0x225E JUMP JUMPDEST PUSH2 0xC1F SWAP2 SWAP1 PUSH2 0x222D JUMP JUMPDEST SWAP3 POP PUSH2 0xC2B CALLER DUP7 PUSH2 0x1780 JUMP JUMPDEST PUSH1 0x0 CALLER PUSH20 0xFFFFFFFFFFFFFFFFFFFFFFFFFFFFFFFFFFFFFFFF AND DUP6 PUSH1 0x40 MLOAD PUSH2 0xC51 SWAP1 PUSH2 0x1E84 JUMP JUMPDEST PUSH1 0x0 PUSH1 0x40 MLOAD DUP1 DUP4 SUB DUP2 DUP6 DUP8 GAS CALL SWAP3 POP POP POP RETURNDATASIZE DUP1 PUSH1 0x0 DUP2 EQ PUSH2 0xC8E JUMPI PUSH1 0x40 MLOAD SWAP2 POP PUSH1 0x1F NOT PUSH1 0x3F RETURNDATASIZE ADD AND DUP3 ADD PUSH1 0x40 MSTORE RETURNDATASIZE DUP3 MSTORE RETURNDATASIZE PUSH1 0x0 PUSH1 0x20 DUP5 ADD RETURNDATACOPY PUSH2 0xC93 JUMP JUMPDEST PUSH1 0x60 SWAP2 POP JUMPDEST POP POP SWAP1 POP DUP1 PUSH2 0xCD7 JUMPI PUSH1 0x40 MLOAD PUSH32 0x8C379A000000000000000000000000000000000000000000000000000000000 DUP2 MSTORE PUSH1 0x4 ADD PUSH2 0xCCE SWAP1 PUSH2 0x20B1 JUMP JUMPDEST PUSH1 0x40 MLOAD DUP1 SWAP2 SUB SWAP1 REVERT JUMPDEST PUSH1 0x5 PUSH1 0x0 SWAP1 SLOAD SWAP1 PUSH2 0x100 EXP SWAP1 DIV PUSH20 0xFFFFFFFFFFFFFFFFFFFFFFFFFFFFFFFFFFFFFFFF AND PUSH20 0xFFFFFFFFFFFFFFFFFFFFFFFFFFFFFFFFFFFFFFFF AND PUSH4 0xA9059CBB CALLER DUP7 PUSH1 0x40 MLOAD DUP4 PUSH4 0xFFFFFFFF AND PUSH1 0xE0 SHL DUP2 MSTORE PUSH1 0x4 ADD PUSH2 0xD34 SWAP3 SWAP2 SWAP1 PUSH2 0x1EEB JUMP JUMPDEST PUSH1 0x20 PUSH1 0x40 MLOAD DUP1 DUP4 SUB DUP2 PUSH1 0x0 DUP8 DUP1 EXTCODESIZE ISZERO DUP1 ISZERO PUSH2 0xD4E JUMPI PUSH1 0x0 DUP1 REVERT JUMPDEST POP GAS CALL ISZERO DUP1 ISZERO PUSH2 0xD62 JUMPI RETURNDATASIZE PUSH1 0x0 DUP1 RETURNDATACOPY RETURNDATASIZE PUSH1 0x0 REVERT JUMPDEST POP POP POP POP PUSH1 0x40 MLOAD RETURNDATASIZE PUSH1 0x1F NOT PUSH1 0x1F DUP3 ADD AND DUP3 ADD DUP1 PUSH1 0x40 MSTORE POP DUP2 ADD SWAP1 PUSH2 0xD86 SWAP2 SWAP1 PUSH2 0x1AB5 JUMP JUMPDEST POP DUP4 DUP6 CALLER PUSH20 0xFFFFFFFFFFFFFFFFFFFFFFFFFFFFFFFFFFFFFFFF AND PUSH32 0xFBF06C058B90CB038A618F8C2ACBF6145F8B3570FD1FA56ABB8F0F3F05B36E8 PUSH1 0x40 MLOAD PUSH1 0x40 MLOAD DUP1 SWAP2 SUB SWAP1 LOG4 POP POP POP SWAP2 POP SWAP2 JUMP JUMPDEST PUSH1 0x5 PUSH1 0x0 SWAP1 SLOAD SWAP1 PUSH2 0x100 EXP SWAP1 DIV PUSH20 0xFFFFFFFFFFFFFFFFFFFFFFFFFFFFFFFFFFFFFFFF AND DUP2 JUMP JUMPDEST PUSH1 0x0 DUP1 PUSH2 0xE05 PUSH2 0xF28 JUMP JUMPDEST SWAP1 POP PUSH1 0x0 PUSH2 0xE13 DUP3 DUP7 PUSH2 0xEA1 JUMP JUMPDEST SWAP1 POP DUP4 DUP2 LT ISZERO PUSH2 0xE58 JUMPI PUSH1 0x40 MLOAD PUSH32 0x8C379A000000000000000000000000000000000000000000000000000000000 DUP2 MSTORE PUSH1 0x4 ADD PUSH2 0xE4F SWAP1 PUSH2 0x2111 JUMP JUMPDEST PUSH1 0x40 MLOAD DUP1 SWAP2 SUB SWAP1 REVERT JUMPDEST PUSH2 0xE65 DUP3 DUP7 DUP7 DUP5 SUB PUSH2 0xF30 JUMP JUMPDEST PUSH1 0x1 SWAP3 POP POP POP SWAP3 SWAP2 POP POP JUMP JUMPDEST PUSH1 0x0 DUP1 PUSH2 0xE7C PUSH2 0xF28 JUMP JUMPDEST SWAP1 POP PUSH2 0xE89 DUP2 DUP6 DUP6 PUSH2 0x122D JUMP JUMPDEST PUSH1 0x1 SWAP2 POP POP SWAP3 SWAP2 POP POP JUMP JUMPDEST PUSH2 0xE9E DUP2 CALLER PUSH2 0x160E JUMP JUMPDEST POP JUMP JUMPDEST PUSH1 0x0 PUSH1 0x1 PUSH1 0x0 DUP5 PUSH20 0xFFFFFFFFFFFFFFFFFFFFFFFFFFFFFFFFFFFFFFFF AND PUSH20 0xFFFFFFFFFFFFFFFFFFFFFFFFFFFFFFFFFFFFFFFF AND DUP2 MSTORE PUSH1 0x20 ADD SWAP1 DUP2 MSTORE PUSH1 0x20 ADD PUSH1 0x0 KECCAK256 PUSH1 0x0 DUP4 PUSH20 0xFFFFFFFFFFFFFFFFFFFFFFFFFFFFFFFFFFFFFFFF AND PUSH20 0xFFFFFFFFFFFFFFFFFFFFFFFFFFFFFFFFFFFFFFFF AND DUP2 MSTORE PUSH1 0x20 ADD SWAP1 DUP2 MSTORE PUSH1 0x20 ADD PUSH1 0x0 KECCAK256 SLOAD SWAP1 POP SWAP3 SWAP2 POP POP JUMP JUMPDEST PUSH1 0x0 CALLER SWAP1 POP SWAP1 JUMP JUMPDEST PUSH1 0x0 PUSH20 0xFFFFFFFFFFFFFFFFFFFFFFFFFFFFFFFFFFFFFFFF AND DUP4 PUSH20 0xFFFFFFFFFFFFFFFFFFFFFFFFFFFFFFFFFFFFFFFF AND EQ ISZERO PUSH2 0xFA0 JUMPI PUSH1 0x40 MLOAD PUSH32 0x8C379A000000000000000000000000000000000000000000000000000000000 DUP2 MSTORE PUSH1 0x4 ADD PUSH2 0xF97 SWAP1 PUSH2 0x20F1 JUMP JUMPDEST PUSH1 0x40 MLOAD DUP1 SWAP2 SUB SWAP1 REVERT JUMPDEST PUSH1 0x0 PUSH20 0xFFFFFFFFFFFFFFFFFFFFFFFFFFFFFFFFFFFFFFFF AND DUP3 PUSH20 0xFFFFFFFFFFFFFFFFFFFFFFFFFFFFFFFFFFFFFFFF AND EQ ISZERO PUSH2 0x1010 JUMPI PUSH1 0x40 MLOAD PUSH32 0x8C379A000000000000000000000000000000000000000000000000000000000 DUP2 MSTORE PUSH1 0x4 ADD PUSH2 0x1007 SWAP1 PUSH2 0x1F91 JUMP JUMPDEST PUSH1 0x40 MLOAD DUP1 SWAP2 SUB SWAP1 REVERT JUMPDEST DUP1 PUSH1 0x1 PUSH1 0x0 DUP6 PUSH20 0xFFFFFFFFFFFFFFFFFFFFFFFFFFFFFFFFFFFFFFFF AND PUSH20 0xFFFFFFFFFFFFFFFFFFFFFFFFFFFFFFFFFFFFFFFF AND DUP2 MSTORE PUSH1 0x20 ADD SWAP1 DUP2 MSTORE PUSH1 0x20 ADD PUSH1 0x0 KECCAK256 PUSH1 0x0 DUP5 PUSH20 0xFFFFFFFFFFFFFFFFFFFFFFFFFFFFFFFFFFFFFFFF AND PUSH20 0xFFFFFFFFFFFFFFFFFFFFFFFFFFFFFFFFFFFFFFFF AND DUP2 MSTORE PUSH1 0x20 ADD SWAP1 DUP2 MSTORE PUSH1 0x20 ADD PUSH1 0x0 KECCAK256 DUP2 SWAP1 SSTORE POP DUP2 PUSH20 0xFFFFFFFFFFFFFFFFFFFFFFFFFFFFFFFFFFFFFFFF AND DUP4 PUSH20 0xFFFFFFFFFFFFFFFFFFFFFFFFFFFFFFFFFFFFFFFF AND PUSH32 0x8C5BE1E5EBEC7D5BD14F71427D1E84F3DD0314C0F7B2291E5B200AC8C7C3B925 DUP4 PUSH1 0x40 MLOAD PUSH2 0x10EE SWAP2 SWAP1 PUSH2 0x2151 JUMP JUMPDEST PUSH1 0x40 MLOAD DUP1 SWAP2 SUB SWAP1 LOG3 POP POP POP JUMP JUMPDEST PUSH1 0x0 DUP1 DUP4 GT DUP1 ISZERO PUSH2 0x110C JUMPI POP PUSH1 0x0 DUP3 GT JUMPDEST PUSH2 0x114B JUMPI PUSH1 0x40 MLOAD PUSH32 0x8C379A000000000000000000000000000000000000000000000000000000000 DUP2 MSTORE PUSH1 0x4 ADD PUSH2 0x1142 SWAP1 PUSH2 0x20D1 JUMP JUMPDEST PUSH1 0x40 MLOAD DUP1 SWAP2 SUB SWAP1 REVERT JUMPDEST PUSH1 0x0 DUP1 PUSH2 0x3E8 PUSH2 0x115B SWAP2 SWAP1 PUSH2 0x22B8 JUMP JUMPDEST DUP6 PUSH2 0x1166 SWAP2 SWAP1 PUSH2 0x225E JUMP JUMPDEST SWAP1 POP DUP1 DUP5 PUSH2 0x3E8 PUSH2 0x1177 SWAP2 SWAP1 PUSH2 0x225E JUMP JUMPDEST PUSH2 0x1181 SWAP2 SWAP1 PUSH2 0x21D7 JUMP JUMPDEST DUP4 DUP3 PUSH2 0x118D SWAP2 SWAP1 PUSH2 0x225E JUMP JUMPDEST PUSH2 0x1197 SWAP2 SWAP1 PUSH2 0x222D JUMP JUMPDEST SWAP2 POP POP SWAP4 SWAP3 POP POP POP JUMP JUMPDEST PUSH1 0x0 PUSH2 0x11AD DUP5 DUP5 PUSH2 0xEA1 JUMP JUMPDEST SWAP1 POP PUSH32 0xFFFFFFFFFFFFFFFFFFFFFFFFFFFFFFFFFFFFFFFFFFFFFFFFFFFFFFFFFFFFFFFF DUP2 EQ PUSH2 0x1227 JUMPI DUP2 DUP2 LT ISZERO PUSH2 0x1219 JUMPI PUSH1 0x40 MLOAD PUSH32 0x8C379A000000000000000000000000000000000000000000000000000000000 DUP2 MSTORE PUSH1 0x4 ADD PUSH2 0x1210 SWAP1 PUSH2 0x1FD1 JUMP JUMPDEST PUSH1 0x40 MLOAD DUP1 SWAP2 SUB SWAP1 REVERT JUMPDEST PUSH2 0x1226 DUP5 DUP5 DUP5 DUP5 SUB PUSH2 0xF30 JUMP JUMPDEST JUMPDEST POP POP POP POP JUMP JUMPDEST PUSH1 0x0 PUSH20 0xFFFFFFFFFFFFFFFFFFFFFFFFFFFFFFFFFFFFFFFF AND DUP4 PUSH20 0xFFFFFFFFFFFFFFFFFFFFFFFFFFFFFFFFFFFFFFFF AND EQ ISZERO PUSH2 0x129D JUMPI PUSH1 0x40 MLOAD PUSH32 0x8C379A000000000000000000000000000000000000000000000000000000000 DUP2 MSTORE PUSH1 0x4 ADD PUSH2 0x1294 SWAP1 PUSH2 0x2091 JUMP JUMPDEST PUSH1 0x40 MLOAD DUP1 SWAP2 SUB SWAP1 REVERT JUMPDEST PUSH1 0x0 PUSH20 0xFFFFFFFFFFFFFFFFFFFFFFFFFFFFFFFFFFFFFFFF AND DUP3 PUSH20 0xFFFFFFFFFFFFFFFFFFFFFFFFFFFFFFFFFFFFFFFF AND EQ ISZERO PUSH2 0x130D JUMPI PUSH1 0x40 MLOAD PUSH32 0x8C379A000000000000000000000000000000000000000000000000000000000 DUP2 MSTORE PUSH1 0x4 ADD PUSH2 0x1304 SWAP1 PUSH2 0x1F51 JUMP JUMPDEST PUSH1 0x40 MLOAD DUP1 SWAP2 SUB SWAP1 REVERT JUMPDEST PUSH2 0x1318 DUP4 DUP4 DUP4 PUSH2 0x1957 JUMP JUMPDEST PUSH1 0x0 DUP1 PUSH1 0x0 DUP6 PUSH20 0xFFFFFFFFFFFFFFFFFFFFFFFFFFFFFFFFFFFFFFFF AND PUSH20 0xFFFFFFFFFFFFFFFFFFFFFFFFFFFFFFFFFFFFFFFF AND DUP2 MSTORE PUSH1 0x20 ADD SWAP1 DUP2 MSTORE PUSH1 0x20 ADD PUSH1 0x0 KECCAK256 SLOAD SWAP1 POP DUP2 DUP2 LT ISZERO PUSH2 0x139E JUMPI PUSH1 0x40 MLOAD PUSH32 0x8C379A000000000000000000000000000000000000000000000000000000000 DUP2 MSTORE PUSH1 0x4 ADD PUSH2 0x1395 SWAP1 PUSH2 0x1FF1 JUMP JUMPDEST PUSH1 0x40 MLOAD DUP1 SWAP2 SUB SWAP1 REVERT JUMPDEST DUP2 DUP2 SUB PUSH1 0x0 DUP1 DUP7 PUSH20 0xFFFFFFFFFFFFFFFFFFFFFFFFFFFFFFFFFFFFFFFF AND PUSH20 0xFFFFFFFFFFFFFFFFFFFFFFFFFFFFFFFFFFFFFFFF AND DUP2 MSTORE PUSH1 0x20 ADD SWAP1 DUP2 MSTORE PUSH1 0x20 ADD PUSH1 0x0 KECCAK256 DUP2 SWAP1 SSTORE POP DUP2 PUSH1 0x0 DUP1 DUP6 PUSH20 0xFFFFFFFFFFFFFFFFFFFFFFFFFFFFFFFFFFFFFFFF AND PUSH20 0xFFFFFFFFFFFFFFFFFFFFFFFFFFFFFFFFFFFFFFFF AND DUP2 MSTORE PUSH1 0x20 ADD SWAP1 DUP2 MSTORE PUSH1 0x20 ADD PUSH1 0x0 KECCAK256 PUSH1 0x0 DUP3 DUP3 SLOAD PUSH2 0x1431 SWAP2 SWAP1 PUSH2 0x21D7 JUMP JUMPDEST SWAP3 POP POP DUP2 SWAP1 SSTORE POP DUP3 PUSH20 0xFFFFFFFFFFFFFFFFFFFFFFFFFFFFFFFFFFFFFFFF AND DUP5 PUSH20 0xFFFFFFFFFFFFFFFFFFFFFFFFFFFFFFFFFFFFFFFF AND PUSH32 0xDDF252AD1BE2C89B69C2B068FC378DAA952BA7F163C4A11628F55A4DF523B3EF DUP5 PUSH1 0x40 MLOAD PUSH2 0x1495 SWAP2 SWAP1 PUSH2 0x2151 JUMP JUMPDEST PUSH1 0x40 MLOAD DUP1 SWAP2 SUB SWAP1 LOG3 PUSH2 0x14A8 DUP5 DUP5 DUP5 PUSH2 0x195C JUMP JUMPDEST POP POP POP POP JUMP JUMPDEST PUSH1 0x0 PUSH20 0xFFFFFFFFFFFFFFFFFFFFFFFFFFFFFFFFFFFFFFFF AND DUP3 PUSH20 0xFFFFFFFFFFFFFFFFFFFFFFFFFFFFFFFFFFFFFFFF AND EQ ISZERO PUSH2 0x151E JUMPI PUSH1 0x40 MLOAD PUSH32 0x8C379A000000000000000000000000000000000000000000000000000000000 DUP2 MSTORE PUSH1 0x4 ADD PUSH2 0x1515 SWAP1 PUSH2 0x2131 JUMP JUMPDEST PUSH1 0x40 MLOAD DUP1 SWAP2 SUB SWAP1 REVERT JUMPDEST PUSH2 0x152A PUSH1 0x0 DUP4 DUP4 PUSH2 0x1957 JUMP JUMPDEST DUP1 PUSH1 0x2 PUSH1 0x0 DUP3 DUP3 SLOAD PUSH2 0x153C SWAP2 SWAP1 PUSH2 0x21D7 JUMP JUMPDEST SWAP3 POP POP DUP2 SWAP1 SSTORE POP DUP1 PUSH1 0x0 DUP1 DUP5 PUSH20 0xFFFFFFFFFFFFFFFFFFFFFFFFFFFFFFFFFFFFFFFF AND PUSH20 0xFFFFFFFFFFFFFFFFFFFFFFFFFFFFFFFFFFFFFFFF AND DUP2 MSTORE PUSH1 0x20 ADD SWAP1 DUP2 MSTORE PUSH1 0x20 ADD PUSH1 0x0 KECCAK256 PUSH1 0x0 DUP3 DUP3 SLOAD PUSH2 0x1591 SWAP2 SWAP1 PUSH2 0x21D7 JUMP JUMPDEST SWAP3 POP POP DUP2 SWAP1 SSTORE POP DUP2 PUSH20 0xFFFFFFFFFFFFFFFFFFFFFFFFFFFFFFFFFFFFFFFF AND PUSH1 0x0 PUSH20 0xFFFFFFFFFFFFFFFFFFFFFFFFFFFFFFFFFFFFFFFF AND PUSH32 0xDDF252AD1BE2C89B69C2B068FC378DAA952BA7F163C4A11628F55A4DF523B3EF DUP4 PUSH1 0x40 MLOAD PUSH2 0x15F6 SWAP2 SWAP1 PUSH2 0x2151 JUMP JUMPDEST PUSH1 0x40 MLOAD DUP1 SWAP2 SUB SWAP1 LOG3 PUSH2 0x160A PUSH1 0x0 DUP4 DUP4 PUSH2 0x195C JUMP JUMPDEST POP POP JUMP JUMPDEST PUSH1 0x0 DUP1 PUSH2 0x1619 PUSH2 0x5E3 JUMP JUMPDEST SWAP2 POP SWAP2 POP PUSH1 0x0 PUSH2 0x1635 CALLVALUE CALLVALUE DUP5 PUSH2 0x162F SWAP2 SWAP1 PUSH2 0x22B8 JUMP JUMPDEST DUP6 PUSH2 0x10FB JUMP JUMPDEST SWAP1 POP DUP5 DUP2 LT ISZERO PUSH2 0x167A JUMPI PUSH1 0x40 MLOAD PUSH32 0x8C379A000000000000000000000000000000000000000000000000000000000 DUP2 MSTORE PUSH1 0x4 ADD PUSH2 0x1671 SWAP1 PUSH2 0x2011 JUMP JUMPDEST PUSH1 0x40 MLOAD DUP1 SWAP2 SUB SWAP1 REVERT JUMPDEST PUSH1 0x5 PUSH1 0x0 SWAP1 SLOAD SWAP1 PUSH2 0x100 EXP SWAP1 DIV PUSH20 0xFFFFFFFFFFFFFFFFFFFFFFFFFFFFFFFFFFFFFFFF AND PUSH20 0xFFFFFFFFFFFFFFFFFFFFFFFFFFFFFFFFFFFFFFFF AND PUSH4 0xA9059CBB DUP6 DUP4 PUSH1 0x40 MLOAD DUP4 PUSH4 0xFFFFFFFF AND PUSH1 0xE0 SHL DUP2 MSTORE PUSH1 0x4 ADD PUSH2 0x16D7 SWAP3 SWAP2 SWAP1 PUSH2 0x1EEB JUMP JUMPDEST PUSH1 0x20 PUSH1 0x40 MLOAD DUP1 DUP4 SUB DUP2 PUSH1 0x0 DUP8 DUP1 EXTCODESIZE ISZERO DUP1 ISZERO PUSH2 0x16F1 JUMPI PUSH1 0x0 DUP1 REVERT JUMPDEST POP GAS CALL ISZERO DUP1 ISZERO PUSH2 0x1705 JUMPI RETURNDATASIZE PUSH1 0x0 DUP1 RETURNDATACOPY RETURNDATASIZE PUSH1 0x0 REVERT JUMPDEST POP POP POP POP PUSH1 0x40 MLOAD RETURNDATASIZE PUSH1 0x1F NOT PUSH1 0x1F DUP3 ADD AND DUP3 ADD DUP1 PUSH1 0x40 MSTORE POP DUP2 ADD SWAP1 PUSH2 0x1729 SWAP2 SWAP1 PUSH2 0x1AB5 JUMP JUMPDEST POP CALLVALUE DUP5 PUSH20 0xFFFFFFFFFFFFFFFFFFFFFFFFFFFFFFFFFFFFFFFF AND PUSH32 0x2AD51A6B79C1A35468E5CC340EF09004400E337E1D1149AAB02294FDB7F8F055 DUP4 PUSH1 0x40 MLOAD PUSH2 0x1771 SWAP2 SWAP1 PUSH2 0x2151 JUMP JUMPDEST PUSH1 0x40 MLOAD DUP1 SWAP2 SUB SWAP1 LOG3 POP POP POP POP POP JUMP JUMPDEST PUSH1 0x0 PUSH20 0xFFFFFFFFFFFFFFFFFFFFFFFFFFFFFFFFFFFFFFFF AND DUP3 PUSH20 0xFFFFFFFFFFFFFFFFFFFFFFFFFFFFFFFFFFFFFFFF AND EQ ISZERO PUSH2 0x17F0 JUMPI PUSH1 0x40 MLOAD PUSH32 0x8C379A000000000000000000000000000000000000000000000000000000000 DUP2 MSTORE PUSH1 0x4 ADD PUSH2 0x17E7 SWAP1 PUSH2 0x2051 JUMP JUMPDEST PUSH1 0x40 MLOAD DUP1 SWAP2 SUB SWAP1 REVERT JUMPDEST PUSH2 0x17FC DUP3 PUSH1 0x0 DUP4 PUSH2 0x1957 JUMP JUMPDEST PUSH1 0x0 DUP1 PUSH1 0x0 DUP5 PUSH20 0xFFFFFFFFFFFFFFFFFFFFFFFFFFFFFFFFFFFFFFFF AND PUSH20 0xFFFFFFFFFFFFFFFFFFFFFFFFFFFFFFFFFFFFFFFF AND DUP2 MSTORE PUSH1 0x20 ADD SWAP1 DUP2 MSTORE PUSH1 0x20 ADD PUSH1 0x0 KECCAK256 SLOAD SWAP1 POP DUP2 DUP2 LT ISZERO PUSH2 0x1882 JUMPI PUSH1 0x40 MLOAD PUSH32 0x8C379A000000000000000000000000000000000000000000000000000000000 DUP2 MSTORE PUSH1 0x4 ADD PUSH2 0x1879 SWAP1 PUSH2 0x1F71 JUMP JUMPDEST PUSH1 0x40 MLOAD DUP1 SWAP2 SUB SWAP1 REVERT JUMPDEST DUP2 DUP2 SUB PUSH1 0x0 DUP1 DUP6 PUSH20 0xFFFFFFFFFFFFFFFFFFFFFFFFFFFFFFFFFFFFFFFF AND PUSH20 0xFFFFFFFFFFFFFFFFFFFFFFFFFFFFFFFFFFFFFFFF AND DUP2 MSTORE PUSH1 0x20 ADD SWAP1 DUP2 MSTORE PUSH1 0x20 ADD PUSH1 0x0 KECCAK256 DUP2 SWAP1 SSTORE POP DUP2 PUSH1 0x2 PUSH1 0x0 DUP3 DUP3 SLOAD PUSH2 0x18D9 SWAP2 SWAP1 PUSH2 0x22B8 JUMP JUMPDEST SWAP3 POP POP DUP2 SWAP1 SSTORE POP PUSH1 0x0 PUSH20 0xFFFFFFFFFFFFFFFFFFFFFFFFFFFFFFFFFFFFFFFF AND DUP4 PUSH20 0xFFFFFFFFFFFFFFFFFFFFFFFFFFFFFFFFFFFFFFFF AND PUSH32 0xDDF252AD1BE2C89B69C2B068FC378DAA952BA7F163C4A11628F55A4DF523B3EF DUP5 PUSH1 0x40 MLOAD PUSH2 0x193E SWAP2 SWAP1 PUSH2 0x2151 JUMP JUMPDEST PUSH1 0x40 MLOAD DUP1 SWAP2 SUB SWAP1 LOG3 PUSH2 0x1952 DUP4 PUSH1 0x0 DUP5 PUSH2 0x195C JUMP JUMPDEST POP POP POP JUMP JUMPDEST POP POP POP JUMP JUMPDEST POP POP POP JUMP JUMPDEST PUSH1 0x0 DUP2 CALLDATALOAD SWAP1 POP PUSH2 0x1970 DUP2 PUSH2 0x28CA JUMP JUMPDEST SWAP3 SWAP2 POP POP JUMP JUMPDEST PUSH1 0x0 DUP2 MLOAD SWAP1 POP PUSH2 0x1985 DUP2 PUSH2 0x28E1 JUMP JUMPDEST SWAP3 SWAP2 POP POP JUMP JUMPDEST PUSH1 0x0 DUP2 CALLDATALOAD SWAP1 POP PUSH2 0x199A DUP2 PUSH2 0x28F8 JUMP JUMPDEST SWAP3 SWAP2 POP POP JUMP JUMPDEST PUSH1 0x0 DUP2 MLOAD SWAP1 POP PUSH2 0x19AF DUP2 PUSH2 0x28F8 JUMP JUMPDEST SWAP3 SWAP2 POP POP JUMP JUMPDEST PUSH1 0x0 PUSH1 0x20 DUP3 DUP5 SUB SLT ISZERO PUSH2 0x19CB JUMPI PUSH2 0x19CA PUSH2 0x2433 JUMP JUMPDEST JUMPDEST PUSH1 0x0 PUSH2 0x19D9 DUP5 DUP3 DUP6 ADD PUSH2 0x1961 JUMP JUMPDEST SWAP2 POP POP SWAP3 SWAP2 POP POP JUMP JUMPDEST PUSH1 0x0 DUP1 PUSH1 0x40 DUP4 DUP6 SUB SLT ISZERO PUSH2 0x19F9 JUMPI PUSH2 0x19F8 PUSH2 0x2433 JUMP JUMPDEST JUMPDEST PUSH1 0x0 PUSH2 0x1A07 DUP6 DUP3 DUP7 ADD PUSH2 0x1961 JUMP JUMPDEST SWAP3 POP POP PUSH1 0x20 PUSH2 0x1A18 DUP6 DUP3 DUP7 ADD PUSH2 0x1961 JUMP JUMPDEST SWAP2 POP POP SWAP3 POP SWAP3 SWAP1 POP JUMP JUMPDEST PUSH1 0x0 DUP1 PUSH1 0x0 PUSH1 0x60 DUP5 DUP7 SUB SLT ISZERO PUSH2 0x1A3B JUMPI PUSH2 0x1A3A PUSH2 0x2433 JUMP JUMPDEST JUMPDEST PUSH1 0x0 PUSH2 0x1A49 DUP7 DUP3 DUP8 ADD PUSH2 0x1961 JUMP JUMPDEST SWAP4 POP POP PUSH1 0x20 PUSH2 0x1A5A DUP7 DUP3 DUP8 ADD PUSH2 0x1961 JUMP JUMPDEST SWAP3 POP POP PUSH1 0x40 PUSH2 0x1A6B DUP7 DUP3 DUP8 ADD PUSH2 0x198B JUMP JUMPDEST SWAP2 POP POP SWAP3 POP SWAP3 POP SWAP3 JUMP JUMPDEST PUSH1 0x0 DUP1 PUSH1 0x40 DUP4 DUP6 SUB SLT ISZERO PUSH2 0x1A8C JUMPI PUSH2 0x1A8B PUSH2 0x2433 JUMP JUMPDEST JUMPDEST PUSH1 0x0 PUSH2 0x1A9A DUP6 DUP3 DUP7 ADD PUSH2 0x1961 JUMP JUMPDEST SWAP3 POP POP PUSH1 0x20 PUSH2 0x1AAB DUP6 DUP3 DUP7 ADD PUSH2 0x198B JUMP JUMPDEST SWAP2 POP POP SWAP3 POP SWAP3 SWAP1 POP JUMP JUMPDEST PUSH1 0x0 PUSH1 0x20 DUP3 DUP5 SUB SLT ISZERO PUSH2 0x1ACB JUMPI PUSH2 0x1ACA PUSH2 0x2433 JUMP JUMPDEST JUMPDEST PUSH1 0x0 PUSH2 0x1AD9 DUP5 DUP3 DUP6 ADD PUSH2 0x1976 JUMP JUMPDEST SWAP2 POP POP SWAP3 SWAP2 POP POP JUMP JUMPDEST PUSH1 0x0 PUSH1 0x20 DUP3 DUP5 SUB SLT ISZERO PUSH2 0x1AF8 JUMPI PUSH2 0x1AF7 PUSH2 0x2433 JUMP JUMPDEST JUMPDEST PUSH1 0x0 PUSH2 0x1B06 DUP5 DUP3 DUP6 ADD PUSH2 0x198B JUMP JUMPDEST SWAP2 POP POP SWAP3 SWAP2 POP POP JUMP JUMPDEST PUSH1 0x0 PUSH1 0x20 DUP3 DUP5 SUB SLT ISZERO PUSH2 0x1B25 JUMPI PUSH2 0x1B24 PUSH2 0x2433 JUMP JUMPDEST JUMPDEST PUSH1 0x0 PUSH2 0x1B33 DUP5 DUP3 DUP6 ADD PUSH2 0x19A0 JUMP JUMPDEST SWAP2 POP POP SWAP3 SWAP2 POP POP JUMP JUMPDEST PUSH1 0x0 DUP1 PUSH1 0x40 DUP4 DUP6 SUB SLT ISZERO PUSH2 0x1B53 JUMPI PUSH2 0x1B52 PUSH2 0x2433 JUMP JUMPDEST JUMPDEST PUSH1 0x0 PUSH2 0x1B61 DUP6 DUP3 DUP7 ADD PUSH2 0x198B JUMP JUMPDEST SWAP3 POP POP PUSH1 0x20 PUSH2 0x1B72 DUP6 DUP3 DUP7 ADD PUSH2 0x1961 JUMP JUMPDEST SWAP2 POP POP SWAP3 POP SWAP3 SWAP1 POP JUMP JUMPDEST PUSH1 0x0 DUP1 PUSH1 0x40 DUP4 DUP6 SUB SLT ISZERO PUSH2 0x1B93 JUMPI PUSH2 0x1B92 PUSH2 0x2433 JUMP JUMPDEST JUMPDEST PUSH1 0x0 PUSH2 0x1BA1 DUP6 DUP3 DUP7 ADD PUSH2 0x198B JUMP JUMPDEST SWAP3 POP POP PUSH1 0x20 PUSH2 0x1BB2 DUP6 DUP3 DUP7 ADD PUSH2 0x198B JUMP JUMPDEST SWAP2 POP POP SWAP3 POP SWAP3 SWAP1 POP JUMP JUMPDEST PUSH2 0x1BC5 DUP2 PUSH2 0x22EC JUMP JUMPDEST DUP3 MSTORE POP POP JUMP JUMPDEST PUSH2 0x1BD4 DUP2 PUSH2 0x22FE JUMP JUMPDEST DUP3 MSTORE POP POP JUMP JUMPDEST PUSH1 0x0 PUSH2 0x1BE5 DUP3 PUSH2 0x21B0 JUMP JUMPDEST PUSH2 0x1BEF DUP2 DUP6 PUSH2 0x21C6 JUMP JUMPDEST SWAP4 POP PUSH2 0x1BFF DUP2 DUP6 PUSH1 0x20 DUP7 ADD PUSH2 0x2341 JUMP JUMPDEST PUSH2 0x1C08 DUP2 PUSH2 0x2438 JUMP JUMPDEST DUP5 ADD SWAP2 POP POP SWAP3 SWAP2 POP POP JUMP JUMPDEST PUSH1 0x0 PUSH2 0x1C20 PUSH1 0x23 DUP4 PUSH2 0x21C6 JUMP JUMPDEST SWAP2 POP PUSH2 0x1C2B DUP3 PUSH2 0x2449 JUMP JUMPDEST PUSH1 0x40 DUP3 ADD SWAP1 POP SWAP2 SWAP1 POP JUMP JUMPDEST PUSH1 0x0 PUSH2 0x1C43 PUSH1 0x22 DUP4 PUSH2 0x21C6 JUMP JUMPDEST SWAP2 POP PUSH2 0x1C4E DUP3 PUSH2 0x2498 JUMP JUMPDEST PUSH1 0x40 DUP3 ADD SWAP1 POP SWAP2 SWAP1 POP JUMP JUMPDEST PUSH1 0x0 PUSH2 0x1C66 PUSH1 0x22 DUP4 PUSH2 0x21C6 JUMP JUMPDEST SWAP2 POP PUSH2 0x1C71 DUP3 PUSH2 0x24E7 JUMP JUMPDEST PUSH1 0x40 DUP3 ADD SWAP1 POP SWAP2 SWAP1 POP JUMP JUMPDEST PUSH1 0x0 PUSH2 0x1C89 PUSH1 0x29 DUP4 PUSH2 0x21C6 JUMP JUMPDEST SWAP2 POP PUSH2 0x1C94 DUP3 PUSH2 0x2536 JUMP JUMPDEST PUSH1 0x40 DUP3 ADD SWAP1 POP SWAP2 SWAP1 POP JUMP JUMPDEST PUSH1 0x0 PUSH2 0x1CAC PUSH1 0x1D DUP4 PUSH2 0x21C6 JUMP JUMPDEST SWAP2 POP PUSH2 0x1CB7 DUP3 PUSH2 0x2585 JUMP JUMPDEST PUSH1 0x20 DUP3 ADD SWAP1 POP SWAP2 SWAP1 POP JUMP JUMPDEST PUSH1 0x0 PUSH2 0x1CCF PUSH1 0x26 DUP4 PUSH2 0x21C6 JUMP JUMPDEST SWAP2 POP PUSH2 0x1CDA DUP3 PUSH2 0x25AE JUMP JUMPDEST PUSH1 0x40 DUP3 ADD SWAP1 POP SWAP2 SWAP1 POP JUMP JUMPDEST PUSH1 0x0 PUSH2 0x1CF2 PUSH1 0x43 DUP4 PUSH2 0x21C6 JUMP JUMPDEST SWAP2 POP PUSH2 0x1CFD DUP3 PUSH2 0x25FD JUMP JUMPDEST PUSH1 0x60 DUP3 ADD SWAP1 POP SWAP2 SWAP1 POP JUMP JUMPDEST PUSH1 0x0 PUSH2 0x1D15 PUSH1 0x37 DUP4 PUSH2 0x21C6 JUMP JUMPDEST SWAP2 POP PUSH2 0x1D20 DUP3 PUSH2 0x2672 JUMP JUMPDEST PUSH1 0x40 DUP3 ADD SWAP1 POP SWAP2 SWAP1 POP JUMP JUMPDEST PUSH1 0x0 PUSH2 0x1D38 PUSH1 0x21 DUP4 PUSH2 0x21C6 JUMP JUMPDEST SWAP2 POP PUSH2 0x1D43 DUP3 PUSH2 0x26C1 JUMP JUMPDEST PUSH1 0x40 DUP3 ADD SWAP1 POP SWAP2 SWAP1 POP JUMP JUMPDEST PUSH1 0x0 PUSH2 0x1D5B PUSH1 0x19 DUP4 PUSH2 0x21C6 JUMP JUMPDEST SWAP2 POP PUSH2 0x1D66 DUP3 PUSH2 0x2710 JUMP JUMPDEST PUSH1 0x20 DUP3 ADD SWAP1 POP SWAP2 SWAP1 POP JUMP JUMPDEST PUSH1 0x0 PUSH2 0x1D7E PUSH1 0x25 DUP4 PUSH2 0x21C6 JUMP JUMPDEST SWAP2 POP PUSH2 0x1D89 DUP3 PUSH2 0x2739 JUMP JUMPDEST PUSH1 0x40 DUP3 ADD SWAP1 POP SWAP2 SWAP1 POP JUMP JUMPDEST PUSH1 0x0 PUSH2 0x1DA1 PUSH1 0x25 DUP4 PUSH2 0x21C6 JUMP JUMPDEST SWAP2 POP PUSH2 0x1DAC DUP3 PUSH2 0x2788 JUMP JUMPDEST PUSH1 0x40 DUP3 ADD SWAP1 POP SWAP2 SWAP1 POP JUMP JUMPDEST PUSH1 0x0 PUSH2 0x1DC4 PUSH1 0x0 DUP4 PUSH2 0x21BB JUMP JUMPDEST SWAP2 POP PUSH2 0x1DCF DUP3 PUSH2 0x27D7 JUMP JUMPDEST PUSH1 0x0 DUP3 ADD SWAP1 POP SWAP2 SWAP1 POP JUMP JUMPDEST PUSH1 0x0 PUSH2 0x1DE7 PUSH1 0x15 DUP4 PUSH2 0x21C6 JUMP JUMPDEST SWAP2 POP PUSH2 0x1DF2 DUP3 PUSH2 0x27DA JUMP JUMPDEST PUSH1 0x20 DUP3 ADD SWAP1 POP SWAP2 SWAP1 POP JUMP JUMPDEST PUSH1 0x0 PUSH2 0x1E0A PUSH1 0x24 DUP4 PUSH2 0x21C6 JUMP JUMPDEST SWAP2 POP PUSH2 0x1E15 DUP3 PUSH2 0x2803 JUMP JUMPDEST PUSH1 0x40 DUP3 ADD SWAP1 POP SWAP2 SWAP1 POP JUMP JUMPDEST PUSH1 0x0 PUSH2 0x1E2D PUSH1 0x25 DUP4 PUSH2 0x21C6 JUMP JUMPDEST SWAP2 POP PUSH2 0x1E38 DUP3 PUSH2 0x2852 JUMP JUMPDEST PUSH1 0x40 DUP3 ADD SWAP1 POP SWAP2 SWAP1 POP JUMP JUMPDEST PUSH1 0x0 PUSH2 0x1E50 PUSH1 0x1F DUP4 PUSH2 0x21C6 JUMP JUMPDEST SWAP2 POP PUSH2 0x1E5B DUP3 PUSH2 0x28A1 JUMP JUMPDEST PUSH1 0x20 DUP3 ADD SWAP1 POP SWAP2 SWAP1 POP JUMP JUMPDEST PUSH2 0x1E6F DUP2 PUSH2 0x232A JUMP JUMPDEST DUP3 MSTORE POP POP JUMP JUMPDEST PUSH2 0x1E7E DUP2 PUSH2 0x2334 JUMP JUMPDEST DUP3 MSTORE POP POP JUMP JUMPDEST PUSH1 0x0 PUSH2 0x1E8F DUP3 PUSH2 0x1DB7 JUMP JUMPDEST SWAP2 POP DUP2 SWAP1 POP SWAP2 SWAP1 POP JUMP JUMPDEST PUSH1 0x0 PUSH1 0x20 DUP3 ADD SWAP1 POP PUSH2 0x1EAE PUSH1 0x0 DUP4 ADD DUP5 PUSH2 0x1BBC JUMP JUMPDEST SWAP3 SWAP2 POP POP JUMP JUMPDEST PUSH1 0x0 PUSH1 0x60 DUP3 ADD SWAP1 POP PUSH2 0x1EC9 PUSH1 0x0 DUP4 ADD DUP7 PUSH2 0x1BBC JUMP JUMPDEST PUSH2 0x1ED6 PUSH1 0x20 DUP4 ADD DUP6 PUSH2 0x1BBC JUMP JUMPDEST PUSH2 0x1EE3 PUSH1 0x40 DUP4 ADD DUP5 PUSH2 0x1E66 JUMP JUMPDEST SWAP5 SWAP4 POP POP POP POP JUMP JUMPDEST PUSH1 0x0 PUSH1 0x40 DUP3 ADD SWAP1 POP PUSH2 0x1F00 PUSH1 0x0 DUP4 ADD DUP6 PUSH2 0x1BBC JUMP JUMPDEST PUSH2 0x1F0D PUSH1 0x20 DUP4 ADD DUP5 PUSH2 0x1E66 JUMP JUMPDEST SWAP4 SWAP3 POP POP POP JUMP JUMPDEST PUSH1 0x0 PUSH1 0x20 DUP3 ADD SWAP1 POP PUSH2 0x1F29 PUSH1 0x0 DUP4 ADD DUP5 PUSH2 0x1BCB JUMP JUMPDEST SWAP3 SWAP2 POP POP JUMP JUMPDEST PUSH1 0x0 PUSH1 0x20 DUP3 ADD SWAP1 POP DUP2 DUP2 SUB PUSH1 0x0 DUP4 ADD MSTORE PUSH2 0x1F49 DUP2 DUP5 PUSH2 0x1BDA JUMP JUMPDEST SWAP1 POP SWAP3 SWAP2 POP POP JUMP JUMPDEST PUSH1 0x0 PUSH1 0x20 DUP3 ADD SWAP1 POP DUP2 DUP2 SUB PUSH1 0x0 DUP4 ADD MSTORE PUSH2 0x1F6A DUP2 PUSH2 0x1C13 JUMP JUMPDEST SWAP1 POP SWAP2 SWAP1 POP JUMP JUMPDEST PUSH1 0x0 PUSH1 0x20 DUP3 ADD SWAP1 POP DUP2 DUP2 SUB PUSH1 0x0 DUP4 ADD MSTORE PUSH2 0x1F8A DUP2 PUSH2 0x1C36 JUMP JUMPDEST SWAP1 POP SWAP2 SWAP1 POP JUMP JUMPDEST PUSH1 0x0 PUSH1 0x20 DUP3 ADD SWAP1 POP DUP2 DUP2 SUB PUSH1 0x0 DUP4 ADD MSTORE PUSH2 0x1FAA DUP2 PUSH2 0x1C59 JUMP JUMPDEST SWAP1 POP SWAP2 SWAP1 POP JUMP JUMPDEST PUSH1 0x0 PUSH1 0x20 DUP3 ADD SWAP1 POP DUP2 DUP2 SUB PUSH1 0x0 DUP4 ADD MSTORE PUSH2 0x1FCA DUP2 PUSH2 0x1C7C JUMP JUMPDEST SWAP1 POP SWAP2 SWAP1 POP JUMP JUMPDEST PUSH1 0x0 PUSH1 0x20 DUP3 ADD SWAP1 POP DUP2 DUP2 SUB PUSH1 0x0 DUP4 ADD MSTORE PUSH2 0x1FEA DUP2 PUSH2 0x1C9F JUMP JUMPDEST SWAP1 POP SWAP2 SWAP1 POP JUMP JUMPDEST PUSH1 0x0 PUSH1 0x20 DUP3 ADD SWAP1 POP DUP2 DUP2 SUB PUSH1 0x0 DUP4 ADD MSTORE PUSH2 0x200A DUP2 PUSH2 0x1CC2 JUMP JUMPDEST SWAP1 POP SWAP2 SWAP1 POP JUMP JUMPDEST PUSH1 0x0 PUSH1 0x20 DUP3 ADD SWAP1 POP DUP2 DUP2 SUB PUSH1 0x0 DUP4 ADD MSTORE PUSH2 0x202A DUP2 PUSH2 0x1CE5 JUMP JUMPDEST SWAP1 POP SWAP2 SWAP1 POP JUMP JUMPDEST PUSH1 0x0 PUSH1 0x20 DUP3 ADD SWAP1 POP DUP2 DUP2 SUB PUSH1 0x0 DUP4 ADD MSTORE PUSH2 0x204A DUP2 PUSH2 0x1D08 JUMP JUMPDEST SWAP1 POP SWAP2 SWAP1 POP JUMP JUMPDEST PUSH1 0x0 PUSH1 0x20 DUP3 ADD SWAP1 POP DUP2 DUP2 SUB PUSH1 0x0 DUP4 ADD MSTORE PUSH2 0x206A DUP2 PUSH2 0x1D2B JUMP JUMPDEST SWAP1 POP SWAP2 SWAP1 POP JUMP JUMPDEST PUSH1 0x0 PUSH1 0x20 DUP3 ADD SWAP1 POP DUP2 DUP2 SUB PUSH1 0x0 DUP4 ADD MSTORE PUSH2 0x208A DUP2 PUSH2 0x1D4E JUMP JUMPDEST SWAP1 POP SWAP2 SWAP1 POP JUMP JUMPDEST PUSH1 0x0 PUSH1 0x20 DUP3 ADD SWAP1 POP DUP2 DUP2 SUB PUSH1 0x0 DUP4 ADD MSTORE PUSH2 0x20AA DUP2 PUSH2 0x1D71 JUMP JUMPDEST SWAP1 POP SWAP2 SWAP1 POP JUMP JUMPDEST PUSH1 0x0 PUSH1 0x20 DUP3 ADD SWAP1 POP DUP2 DUP2 SUB PUSH1 0x0 DUP4 ADD MSTORE PUSH2 0x20CA DUP2 PUSH2 0x1D94 JUMP JUMPDEST SWAP1 POP SWAP2 SWAP1 POP JUMP JUMPDEST PUSH1 0x0 PUSH1 0x20 DUP3 ADD SWAP1 POP DUP2 DUP2 SUB PUSH1 0x0 DUP4 ADD MSTORE PUSH2 0x20EA DUP2 PUSH2 0x1DDA JUMP JUMPDEST SWAP1 POP SWAP2 SWAP1 POP JUMP JUMPDEST PUSH1 0x0 PUSH1 0x20 DUP3 ADD SWAP1 POP DUP2 DUP2 SUB PUSH1 0x0 DUP4 ADD MSTORE PUSH2 0x210A DUP2 PUSH2 0x1DFD JUMP JUMPDEST SWAP1 POP SWAP2 SWAP1 POP JUMP JUMPDEST PUSH1 0x0 PUSH1 0x20 DUP3 ADD SWAP1 POP DUP2 DUP2 SUB PUSH1 0x0 DUP4 ADD MSTORE PUSH2 0x212A DUP2 PUSH2 0x1E20 JUMP JUMPDEST SWAP1 POP SWAP2 SWAP1 POP JUMP JUMPDEST PUSH1 0x0 PUSH1 0x20 DUP3 ADD SWAP1 POP DUP2 DUP2 SUB PUSH1 0x0 DUP4 ADD MSTORE PUSH2 0x214A DUP2 PUSH2 0x1E43 JUMP JUMPDEST SWAP1 POP SWAP2 SWAP1 POP JUMP JUMPDEST PUSH1 0x0 PUSH1 0x20 DUP3 ADD SWAP1 POP PUSH2 0x2166 PUSH1 0x0 DUP4 ADD DUP5 PUSH2 0x1E66 JUMP JUMPDEST SWAP3 SWAP2 POP POP JUMP JUMPDEST PUSH1 0x0 PUSH1 0x40 DUP3 ADD SWAP1 POP PUSH2 0x2181 PUSH1 0x0 DUP4 ADD DUP6 PUSH2 0x1E66 JUMP JUMPDEST PUSH2 0x218E PUSH1 0x20 DUP4 ADD DUP5 PUSH2 0x1E66 JUMP JUMPDEST SWAP4 SWAP3 POP POP POP JUMP JUMPDEST PUSH1 0x0 PUSH1 0x20 DUP3 ADD SWAP1 POP PUSH2 0x21AA PUSH1 0x0 DUP4 ADD DUP5 PUSH2 0x1E75 JUMP JUMPDEST SWAP3 SWAP2 POP POP JUMP JUMPDEST PUSH1 0x0 DUP2 MLOAD SWAP1 POP SWAP2 SWAP1 POP JUMP JUMPDEST PUSH1 0x0 DUP2 SWAP1 POP SWAP3 SWAP2 POP POP JUMP JUMPDEST PUSH1 0x0 DUP3 DUP3 MSTORE PUSH1 0x20 DUP3 ADD SWAP1 POP SWAP3 SWAP2 POP POP JUMP JUMPDEST PUSH1 0x0 PUSH2 0x21E2 DUP3 PUSH2 0x232A JUMP JUMPDEST SWAP2 POP PUSH2 0x21ED DUP4 PUSH2 0x232A JUMP JUMPDEST SWAP3 POP DUP3 PUSH32 0xFFFFFFFFFFFFFFFFFFFFFFFFFFFFFFFFFFFFFFFFFFFFFFFFFFFFFFFFFFFFFFFF SUB DUP3 GT ISZERO PUSH2 0x2222 JUMPI PUSH2 0x2221 PUSH2 0x23A6 JUMP JUMPDEST JUMPDEST DUP3 DUP3 ADD SWAP1 POP SWAP3 SWAP2 POP POP JUMP JUMPDEST PUSH1 0x0 PUSH2 0x2238 DUP3 PUSH2 0x232A JUMP JUMPDEST SWAP2 POP PUSH2 0x2243 DUP4 PUSH2 0x232A JUMP JUMPDEST SWAP3 POP DUP3 PUSH2 0x2253 JUMPI PUSH2 0x2252 PUSH2 0x23D5 JUMP JUMPDEST JUMPDEST DUP3 DUP3 DIV SWAP1 POP SWAP3 SWAP2 POP POP JUMP JUMPDEST PUSH1 0x0 PUSH2 0x2269 DUP3 PUSH2 0x232A JUMP JUMPDEST SWAP2 POP PUSH2 0x2274 DUP4 PUSH2 0x232A JUMP JUMPDEST SWAP3 POP DUP2 PUSH32 0xFFFFFFFFFFFFFFFFFFFFFFFFFFFFFFFFFFFFFFFFFFFFFFFFFFFFFFFFFFFFFFFF DIV DUP4 GT DUP3 ISZERO ISZERO AND ISZERO PUSH2 0x22AD JUMPI PUSH2 0x22AC PUSH2 0x23A6 JUMP JUMPDEST JUMPDEST DUP3 DUP3 MUL SWAP1 POP SWAP3 SWAP2 POP POP JUMP JUMPDEST PUSH1 0x0 PUSH2 0x22C3 DUP3 PUSH2 0x232A JUMP JUMPDEST SWAP2 POP PUSH2 0x22CE DUP4 PUSH2 0x232A JUMP JUMPDEST SWAP3 POP DUP3 DUP3 LT ISZERO PUSH2 0x22E1 JUMPI PUSH2 0x22E0 PUSH2 0x23A6 JUMP JUMPDEST JUMPDEST DUP3 DUP3 SUB SWAP1 POP SWAP3 SWAP2 POP POP JUMP JUMPDEST PUSH1 0x0 PUSH2 0x22F7 DUP3 PUSH2 0x230A JUMP JUMPDEST SWAP1 POP SWAP2 SWAP1 POP JUMP JUMPDEST PUSH1 0x0 DUP2 ISZERO ISZERO SWAP1 POP SWAP2 SWAP1 POP JUMP JUMPDEST PUSH1 0x0 PUSH20 0xFFFFFFFFFFFFFFFFFFFFFFFFFFFFFFFFFFFFFFFF DUP3 AND SWAP1 POP SWAP2 SWAP1 POP JUMP JUMPDEST PUSH1 0x0 DUP2 SWAP1 POP SWAP2 SWAP1 POP JUMP JUMPDEST PUSH1 0x0 PUSH1 0xFF DUP3 AND SWAP1 POP SWAP2 SWAP1 POP JUMP JUMPDEST PUSH1 0x0 JUMPDEST DUP4 DUP2 LT ISZERO PUSH2 0x235F JUMPI DUP1 DUP3 ADD MLOAD DUP2 DUP5 ADD MSTORE PUSH1 0x20 DUP2 ADD SWAP1 POP PUSH2 0x2344 JUMP JUMPDEST DUP4 DUP2 GT ISZERO PUSH2 0x236E JUMPI PUSH1 0x0 DUP5 DUP5 ADD MSTORE JUMPDEST POP POP POP POP JUMP JUMPDEST PUSH1 0x0 PUSH1 0x2 DUP3 DIV SWAP1 POP PUSH1 0x1 DUP3 AND DUP1 PUSH2 0x238C JUMPI PUSH1 0x7F DUP3 AND SWAP2 POP JUMPDEST PUSH1 0x20 DUP3 LT DUP2 EQ ISZERO PUSH2 0x23A0 JUMPI PUSH2 0x239F PUSH2 0x2404 JUMP JUMPDEST JUMPDEST POP SWAP2 SWAP1 POP JUMP JUMPDEST PUSH32 0x4E487B7100000000000000000000000000000000000000000000000000000000 PUSH1 0x0 MSTORE PUSH1 0x11 PUSH1 0x4 MSTORE PUSH1 0x24 PUSH1 0x0 REVERT JUMPDEST PUSH32 0x4E487B7100000000000000000000000000000000000000000000000000000000 PUSH1 0x0 MSTORE PUSH1 0x12 PUSH1 0x4 MSTORE PUSH1 0x24 PUSH1 0x0 REVERT JUMPDEST PUSH32 0x4E487B7100000000000000000000000000000000000000000000000000000000 PUSH1 0x0 MSTORE PUSH1 0x22 PUSH1 0x4 MSTORE PUSH1 0x24 PUSH1 0x0 REVERT JUMPDEST PUSH1 0x0 DUP1 REVERT JUMPDEST PUSH1 0x0 PUSH1 0x1F NOT PUSH1 0x1F DUP4 ADD AND SWAP1 POP SWAP2 SWAP1 POP JUMP JUMPDEST PUSH32 0x45524332303A207472616E7366657220746F20746865207A65726F2061646472 PUSH1 0x0 DUP3 ADD MSTORE PUSH32 0x6573730000000000000000000000000000000000000000000000000000000000 PUSH1 0x20 DUP3 ADD MSTORE POP JUMP JUMPDEST PUSH32 0x45524332303A206275726E20616D6F756E7420657863656564732062616C616E PUSH1 0x0 DUP3 ADD MSTORE PUSH32 0x6365000000000000000000000000000000000000000000000000000000000000 PUSH1 0x20 DUP3 ADD MSTORE POP JUMP JUMPDEST PUSH32 0x45524332303A20617070726F766520746F20746865207A65726F206164647265 PUSH1 0x0 DUP3 ADD MSTORE PUSH32 0x7373000000000000000000000000000000000000000000000000000000000000 PUSH1 0x20 DUP3 ADD MSTORE POP JUMP JUMPDEST PUSH32 0x496E73756666696369656E7420696E70757420616D6F756E74206F6620455243 PUSH1 0x0 DUP3 ADD MSTORE PUSH32 0x323020546F6B656E730000000000000000000000000000000000000000000000 PUSH1 0x20 DUP3 ADD MSTORE POP JUMP JUMPDEST PUSH32 0x45524332303A20696E73756666696369656E7420616C6C6F77616E6365000000 PUSH1 0x0 DUP3 ADD MSTORE POP JUMP JUMPDEST PUSH32 0x45524332303A207472616E7366657220616D6F756E7420657863656564732062 PUSH1 0x0 DUP3 ADD MSTORE PUSH32 0x616C616E63650000000000000000000000000000000000000000000000000000 PUSH1 0x20 DUP3 ADD MSTORE POP JUMP JUMPDEST PUSH32 0x416D6F756E74207377617070656420646F6573206E6F74206D65657420796F75 PUSH1 0x0 DUP3 ADD MSTORE PUSH32 0x722073746970756C6174656420616D6F756E742C20726576657274696E672073 PUSH1 0x20 DUP3 ADD MSTORE PUSH32 0x7761700000000000000000000000000000000000000000000000000000000000 PUSH1 0x40 DUP3 ADD MSTORE POP JUMP JUMPDEST PUSH32 0x506C6561736520696E70757420612076616C696420616D6F756E74206F66204C PUSH1 0x0 DUP3 ADD MSTORE PUSH32 0x5020546F6B656E7320746F206275726E2F72656465656D000000000000000000 PUSH1 0x20 DUP3 ADD MSTORE POP JUMP JUMPDEST PUSH32 0x45524332303A206275726E2066726F6D20746865207A65726F20616464726573 PUSH1 0x0 DUP3 ADD MSTORE PUSH32 0x7300000000000000000000000000000000000000000000000000000000000000 PUSH1 0x20 DUP3 ADD MSTORE POP JUMP JUMPDEST PUSH32 0x45544820616D6F756E742063616E6E6F74206265207A65726F00000000000000 PUSH1 0x0 DUP3 ADD MSTORE POP JUMP JUMPDEST PUSH32 0x45524332303A207472616E736665722066726F6D20746865207A65726F206164 PUSH1 0x0 DUP3 ADD MSTORE PUSH32 0x6472657373000000000000000000000000000000000000000000000000000000 PUSH1 0x20 DUP3 ADD MSTORE POP JUMP JUMPDEST PUSH32 0x5472616E73616374696F6E206F662045746865722077617320756E7375636365 PUSH1 0x0 DUP3 ADD MSTORE PUSH32 0x737366756C000000000000000000000000000000000000000000000000000000 PUSH1 0x20 DUP3 ADD MSTORE POP JUMP JUMPDEST POP JUMP JUMPDEST PUSH32 0x546865726520617265206E6F2072657365727665730000000000000000000000 PUSH1 0x0 DUP3 ADD MSTORE POP JUMP JUMPDEST PUSH32 0x45524332303A20617070726F76652066726F6D20746865207A65726F20616464 PUSH1 0x0 DUP3 ADD MSTORE PUSH32 0x7265737300000000000000000000000000000000000000000000000000000000 PUSH1 0x20 DUP3 ADD MSTORE POP JUMP JUMPDEST PUSH32 0x45524332303A2064656372656173656420616C6C6F77616E63652062656C6F77 PUSH1 0x0 DUP3 ADD MSTORE PUSH32 0x207A65726F000000000000000000000000000000000000000000000000000000 PUSH1 0x20 DUP3 ADD MSTORE POP JUMP JUMPDEST PUSH32 0x45524332303A206D696E7420746F20746865207A65726F206164647265737300 PUSH1 0x0 DUP3 ADD MSTORE POP JUMP JUMPDEST PUSH2 0x28D3 DUP2 PUSH2 0x22EC JUMP JUMPDEST DUP2 EQ PUSH2 0x28DE JUMPI PUSH1 0x0 DUP1 REVERT JUMPDEST POP JUMP JUMPDEST PUSH2 0x28EA DUP2 PUSH2 0x22FE JUMP JUMPDEST DUP2 EQ PUSH2 0x28F5 JUMPI PUSH1 0x0 DUP1 REVERT JUMPDEST POP JUMP JUMPDEST PUSH2 0x2901 DUP2 PUSH2 0x232A JUMP JUMPDEST DUP2 EQ PUSH2 0x290C JUMPI PUSH1 0x0 DUP1 REVERT JUMPDEST POP JUMP INVALID LOG2 PUSH5 0x6970667358 0x22 SLT KECCAK256 0xBB GASLIMIT 0xD9 SWAP7 0xD6 DUP12 SWAP2 0x27 0x4F PUSH10 0xB2A61A45F85FBB1BEF66 0x28 MOD 0xCA SHL PUSH31 0xED52958428BD4564736F6C6343000807003300000000000000000000000000 "
				},
				"gasEstimates": {
					"creation": {
						"codeDepositCost": "2113000",
						"executionCost": "infinite",
						"totalCost": "infinite"
					},
					"external": {
						"addLiquidity(uint256)": "infinite",
						"allowance(address,address)": "infinite",
						"approve(address,uint256)": "infinite",
						"balanceOf(address)": "2908",
						"decimals()": "410",
						"decreaseAllowance(address,uint256)": "infinite",
						"ethForTokenHigh(uint256,address)": "infinite",
						"ethForTokenImplicit(uint256)": "infinite",
						"factoryAddress()": "2625",
						"getEthAmountForSwap(uint256)": "764",
						"getReserves()": "infinite",
						"getTokenAmountForSwap(uint256)": "infinite",
						"increaseAllowance(address,uint256)": "infinite",
						"name()": "infinite",
						"removeLiquidity(uint256)": "infinite",
						"symbol()": "infinite",
						"tokenAddress()": "2558",
						"tokenForEthSwap(uint256,uint256)": "infinite",
						"totalSupply()": "2549",
						"transfer(address,uint256)": "infinite",
						"transferFrom(address,address,uint256)": "infinite"
					},
					"internal": {
						"ethForTokenBasic(uint256,address)": "infinite",
						"getOutputAmount(uint256,uint256,uint256)": "infinite"
					}
				},
				"methodIdentifiers": {
					"addLiquidity(uint256)": "51c6590a",
					"allowance(address,address)": "dd62ed3e",
					"approve(address,uint256)": "095ea7b3",
					"balanceOf(address)": "70a08231",
					"decimals()": "313ce567",
					"decreaseAllowance(address,uint256)": "a457c2d7",
					"ethForTokenHigh(uint256,address)": "6e9e8116",
					"ethForTokenImplicit(uint256)": "ae0aaea3",
					"factoryAddress()": "966dae0e",
					"getEthAmountForSwap(uint256)": "2c0c60a4",
					"getReserves()": "0902f1ac",
					"getTokenAmountForSwap(uint256)": "0f8070b4",
					"increaseAllowance(address,uint256)": "39509351",
					"name()": "06fdde03",
					"removeLiquidity(uint256)": "9c8f9f23",
					"symbol()": "95d89b41",
					"tokenAddress()": "9d76ea58",
					"tokenForEthSwap(uint256,uint256)": "64338a30",
					"totalSupply()": "18160ddd",
					"transfer(address,uint256)": "a9059cbb",
					"transferFrom(address,address,uint256)": "23b872dd"
				}
			},
			"storageLayout": {
				"storage": [
					{
						"astId": 15,
						"contract": "contracts/Pair.sol:Pair",
						"label": "_balances",
						"offset": 0,
						"slot": "0",
						"type": "t_mapping(t_address,t_uint256)"
					},
					{
						"astId": 21,
						"contract": "contracts/Pair.sol:Pair",
						"label": "_allowances",
						"offset": 0,
						"slot": "1",
						"type": "t_mapping(t_address,t_mapping(t_address,t_uint256))"
					},
					{
						"astId": 23,
						"contract": "contracts/Pair.sol:Pair",
						"label": "_totalSupply",
						"offset": 0,
						"slot": "2",
						"type": "t_uint256"
					},
					{
						"astId": 25,
						"contract": "contracts/Pair.sol:Pair",
						"label": "_name",
						"offset": 0,
						"slot": "3",
						"type": "t_string_storage"
					},
					{
						"astId": 27,
						"contract": "contracts/Pair.sol:Pair",
						"label": "_symbol",
						"offset": 0,
						"slot": "4",
						"type": "t_string_storage"
					},
					{
						"astId": 739,
						"contract": "contracts/Pair.sol:Pair",
						"label": "tokenAddress",
						"offset": 0,
						"slot": "5",
						"type": "t_address"
					},
					{
						"astId": 741,
						"contract": "contracts/Pair.sol:Pair",
						"label": "factoryAddress",
						"offset": 0,
						"slot": "6",
						"type": "t_address"
					}
				],
				"types": {
					"t_address": {
						"encoding": "inplace",
						"label": "address",
						"numberOfBytes": "20"
					},
					"t_mapping(t_address,t_mapping(t_address,t_uint256))": {
						"encoding": "mapping",
						"key": "t_address",
						"label": "mapping(address => mapping(address => uint256))",
						"numberOfBytes": "32",
						"value": "t_mapping(t_address,t_uint256)"
					},
					"t_mapping(t_address,t_uint256)": {
						"encoding": "mapping",
						"key": "t_address",
						"label": "mapping(address => uint256)",
						"numberOfBytes": "32",
						"value": "t_uint256"
					},
					"t_string_storage": {
						"encoding": "bytes",
						"label": "string",
						"numberOfBytes": "32"
					},
					"t_uint256": {
						"encoding": "inplace",
						"label": "uint256",
						"numberOfBytes": "32"
					}
				}
			},
			"userdoc": {
				"kind": "user",
				"methods": {},
				"version": 1
			}
		}
	}
}