{
	"contracts/EelSwap.sol": {
		"EelSwap": {
			"abi": [
				{
					"inputs": [],
					"name": "decimals",
					"outputs": [
						{
							"internalType": "uint8",
							"name": "",
							"type": "uint8"
						}
					],
					"stateMutability": "view",
					"type": "function"
				},
				{
					"inputs": [],
					"name": "name",
					"outputs": [
						{
							"internalType": "string",
							"name": "",
							"type": "string"
						}
					],
					"stateMutability": "view",
					"type": "function"
				},
				{
					"inputs": [],
					"name": "symbol",
					"outputs": [
						{
							"internalType": "string",
							"name": "",
							"type": "string"
						}
					],
					"stateMutability": "view",
					"type": "function"
				}
			],
			"devdoc": {
				"kind": "dev",
				"methods": {},
				"version": 1
			},
			"evm": {
				"assembly": "    /* \"contracts/EelSwap.sol\":90:289  contract EelSwap {\r... */\n  mstore(0x40, 0x80)\n  callvalue\n  dup1\n  iszero\n  tag_1\n  jumpi\n  0x00\n  dup1\n  revert\ntag_1:\n  pop\n  dataSize(sub_0)\n  dup1\n  dataOffset(sub_0)\n  0x00\n  codecopy\n  0x00\n  return\nstop\n\nsub_0: assembly {\n        /* \"contracts/EelSwap.sol\":90:289  contract EelSwap {\r... */\n      mstore(0x40, 0x80)\n      callvalue\n      dup1\n      iszero\n      tag_1\n      jumpi\n      0x00\n      dup1\n      revert\n    tag_1:\n      pop\n      jumpi(tag_2, lt(calldatasize, 0x04))\n      shr(0xe0, calldataload(0x00))\n      dup1\n      0x06fdde03\n      eq\n      tag_3\n      jumpi\n      dup1\n      0x313ce567\n      eq\n      tag_4\n      jumpi\n      dup1\n      0x95d89b41\n      eq\n      tag_5\n      jumpi\n    tag_2:\n      0x00\n      dup1\n      revert\n        /* \"contracts/EelSwap.sol\":146:188  string public constant name = 'Eelswap V2' */\n    tag_3:\n      tag_6\n      tag_7\n      jump\t// in\n    tag_6:\n      mload(0x40)\n      tag_8\n      swap2\n      swap1\n      tag_9\n      jump\t// in\n    tag_8:\n      mload(0x40)\n      dup1\n      swap2\n      sub\n      swap1\n      return\n        /* \"contracts/EelSwap.sol\":242:277  uint8 public constant decimals = 18 */\n    tag_4:\n      tag_10\n      tag_11\n      jump\t// in\n    tag_10:\n      mload(0x40)\n      tag_12\n      swap2\n      swap1\n      tag_13\n      jump\t// in\n    tag_12:\n      mload(0x40)\n      dup1\n      swap2\n      sub\n      swap1\n      return\n        /* \"contracts/EelSwap.sol\":195:235  string public constant symbol = 'EEL-V2' */\n    tag_5:\n      tag_14\n      tag_15\n      jump\t// in\n    tag_14:\n      mload(0x40)\n      tag_16\n      swap2\n      swap1\n      tag_9\n      jump\t// in\n    tag_16:\n      mload(0x40)\n      dup1\n      swap2\n      sub\n      swap1\n      return\n        /* \"contracts/EelSwap.sol\":146:188  string public constant name = 'Eelswap V2' */\n    tag_7:\n      mload(0x40)\n      dup1\n      0x40\n      add\n      0x40\n      mstore\n      dup1\n      0x0a\n      dup2\n      mstore\n      0x20\n      add\n      0x45656c7377617020563200000000000000000000000000000000000000000000\n      dup2\n      mstore\n      pop\n      dup2\n      jump\t// out\n        /* \"contracts/EelSwap.sol\":242:277  uint8 public constant decimals = 18 */\n    tag_11:\n        /* \"contracts/EelSwap.sol\":275:277  18 */\n      0x12\n        /* \"contracts/EelSwap.sol\":242:277  uint8 public constant decimals = 18 */\n      dup2\n      jump\t// out\n        /* \"contracts/EelSwap.sol\":195:235  string public constant symbol = 'EEL-V2' */\n    tag_15:\n      mload(0x40)\n      dup1\n      0x40\n      add\n      0x40\n      mstore\n      dup1\n      0x06\n      dup2\n      mstore\n      0x20\n      add\n      0x45454c2d56320000000000000000000000000000000000000000000000000000\n      dup2\n      mstore\n      pop\n      dup2\n      jump\t// out\n        /* \"#utility.yul\":7:371   */\n    tag_18:\n        /* \"#utility.yul\":95:98   */\n      0x00\n        /* \"#utility.yul\":123:162   */\n      tag_20\n        /* \"#utility.yul\":156:161   */\n      dup3\n        /* \"#utility.yul\":123:162   */\n      tag_21\n      jump\t// in\n    tag_20:\n        /* \"#utility.yul\":178:249   */\n      tag_22\n        /* \"#utility.yul\":242:248   */\n      dup2\n        /* \"#utility.yul\":237:240   */\n      dup6\n        /* \"#utility.yul\":178:249   */\n      tag_23\n      jump\t// in\n    tag_22:\n        /* \"#utility.yul\":171:249   */\n      swap4\n      pop\n        /* \"#utility.yul\":258:310   */\n      tag_24\n        /* \"#utility.yul\":303:309   */\n      dup2\n        /* \"#utility.yul\":298:301   */\n      dup6\n        /* \"#utility.yul\":291:295   */\n      0x20\n        /* \"#utility.yul\":284:289   */\n      dup7\n        /* \"#utility.yul\":280:296   */\n      add\n        /* \"#utility.yul\":258:310   */\n      tag_25\n      jump\t// in\n    tag_24:\n        /* \"#utility.yul\":335:364   */\n      tag_26\n        /* \"#utility.yul\":357:363   */\n      dup2\n        /* \"#utility.yul\":335:364   */\n      tag_27\n      jump\t// in\n    tag_26:\n        /* \"#utility.yul\":330:333   */\n      dup5\n        /* \"#utility.yul\":326:365   */\n      add\n        /* \"#utility.yul\":319:365   */\n      swap2\n      pop\n        /* \"#utility.yul\":99:371   */\n      pop\n        /* \"#utility.yul\":7:371   */\n      swap3\n      swap2\n      pop\n      pop\n      jump\t// out\n        /* \"#utility.yul\":377:489   */\n    tag_28:\n        /* \"#utility.yul\":460:482   */\n      tag_30\n        /* \"#utility.yul\":476:481   */\n      dup2\n        /* \"#utility.yul\":460:482   */\n      tag_31\n      jump\t// in\n    tag_30:\n        /* \"#utility.yul\":455:458   */\n      dup3\n        /* \"#utility.yul\":448:483   */\n      mstore\n        /* \"#utility.yul\":377:489   */\n      pop\n      pop\n      jump\t// out\n        /* \"#utility.yul\":495:808   */\n    tag_9:\n        /* \"#utility.yul\":608:612   */\n      0x00\n        /* \"#utility.yul\":646:648   */\n      0x20\n        /* \"#utility.yul\":635:644   */\n      dup3\n        /* \"#utility.yul\":631:649   */\n      add\n        /* \"#utility.yul\":623:649   */\n      swap1\n      pop\n        /* \"#utility.yul\":695:704   */\n      dup2\n        /* \"#utility.yul\":689:693   */\n      dup2\n        /* \"#utility.yul\":685:705   */\n      sub\n        /* \"#utility.yul\":681:682   */\n      0x00\n        /* \"#utility.yul\":670:679   */\n      dup4\n        /* \"#utility.yul\":666:683   */\n      add\n        /* \"#utility.yul\":659:706   */\n      mstore\n        /* \"#utility.yul\":723:801   */\n      tag_33\n        /* \"#utility.yul\":796:800   */\n      dup2\n        /* \"#utility.yul\":787:793   */\n      dup5\n        /* \"#utility.yul\":723:801   */\n      tag_18\n      jump\t// in\n    tag_33:\n        /* \"#utility.yul\":715:801   */\n      swap1\n      pop\n        /* \"#utility.yul\":495:808   */\n      swap3\n      swap2\n      pop\n      pop\n      jump\t// out\n        /* \"#utility.yul\":814:1028   */\n    tag_13:\n        /* \"#utility.yul\":903:907   */\n      0x00\n        /* \"#utility.yul\":941:943   */\n      0x20\n        /* \"#utility.yul\":930:939   */\n      dup3\n        /* \"#utility.yul\":926:944   */\n      add\n        /* \"#utility.yul\":918:944   */\n      swap1\n      pop\n        /* \"#utility.yul\":954:1021   */\n      tag_35\n        /* \"#utility.yul\":1018:1019   */\n      0x00\n        /* \"#utility.yul\":1007:1016   */\n      dup4\n        /* \"#utility.yul\":1003:1020   */\n      add\n        /* \"#utility.yul\":994:1000   */\n      dup5\n        /* \"#utility.yul\":954:1021   */\n      tag_28\n      jump\t// in\n    tag_35:\n        /* \"#utility.yul\":814:1028   */\n      swap3\n      swap2\n      pop\n      pop\n      jump\t// out\n        /* \"#utility.yul\":1034:1133   */\n    tag_21:\n        /* \"#utility.yul\":1086:1092   */\n      0x00\n        /* \"#utility.yul\":1120:1125   */\n      dup2\n        /* \"#utility.yul\":1114:1126   */\n      mload\n        /* \"#utility.yul\":1104:1126   */\n      swap1\n      pop\n        /* \"#utility.yul\":1034:1133   */\n      swap2\n      swap1\n      pop\n      jump\t// out\n        /* \"#utility.yul\":1139:1308   */\n    tag_23:\n        /* \"#utility.yul\":1223:1234   */\n      0x00\n        /* \"#utility.yul\":1257:1263   */\n      dup3\n        /* \"#utility.yul\":1252:1255   */\n      dup3\n        /* \"#utility.yul\":1245:1264   */\n      mstore\n        /* \"#utility.yul\":1297:1301   */\n      0x20\n        /* \"#utility.yul\":1292:1295   */\n      dup3\n        /* \"#utility.yul\":1288:1302   */\n      add\n        /* \"#utility.yul\":1273:1302   */\n      swap1\n      pop\n        /* \"#utility.yul\":1139:1308   */\n      swap3\n      swap2\n      pop\n      pop\n      jump\t// out\n        /* \"#utility.yul\":1314:1400   */\n    tag_31:\n        /* \"#utility.yul\":1349:1356   */\n      0x00\n        /* \"#utility.yul\":1389:1393   */\n      0xff\n        /* \"#utility.yul\":1382:1387   */\n      dup3\n        /* \"#utility.yul\":1378:1394   */\n      and\n        /* \"#utility.yul\":1367:1394   */\n      swap1\n      pop\n        /* \"#utility.yul\":1314:1400   */\n      swap2\n      swap1\n      pop\n      jump\t// out\n        /* \"#utility.yul\":1406:1713   */\n    tag_25:\n        /* \"#utility.yul\":1474:1475   */\n      0x00\n        /* \"#utility.yul\":1484:1597   */\n    tag_40:\n        /* \"#utility.yul\":1498:1504   */\n      dup4\n        /* \"#utility.yul\":1495:1496   */\n      dup2\n        /* \"#utility.yul\":1492:1505   */\n      lt\n        /* \"#utility.yul\":1484:1597   */\n      iszero\n      tag_42\n      jumpi\n        /* \"#utility.yul\":1583:1584   */\n      dup1\n        /* \"#utility.yul\":1578:1581   */\n      dup3\n        /* \"#utility.yul\":1574:1585   */\n      add\n        /* \"#utility.yul\":1568:1586   */\n      mload\n        /* \"#utility.yul\":1564:1565   */\n      dup2\n        /* \"#utility.yul\":1559:1562   */\n      dup5\n        /* \"#utility.yul\":1555:1566   */\n      add\n        /* \"#utility.yul\":1548:1587   */\n      mstore\n        /* \"#utility.yul\":1520:1522   */\n      0x20\n        /* \"#utility.yul\":1517:1518   */\n      dup2\n        /* \"#utility.yul\":1513:1523   */\n      add\n        /* \"#utility.yul\":1508:1523   */\n      swap1\n      pop\n        /* \"#utility.yul\":1484:1597   */\n      jump(tag_40)\n    tag_42:\n        /* \"#utility.yul\":1615:1621   */\n      dup4\n        /* \"#utility.yul\":1612:1613   */\n      dup2\n        /* \"#utility.yul\":1609:1622   */\n      gt\n        /* \"#utility.yul\":1606:1707   */\n      iszero\n      tag_43\n      jumpi\n        /* \"#utility.yul\":1695:1696   */\n      0x00\n        /* \"#utility.yul\":1686:1692   */\n      dup5\n        /* \"#utility.yul\":1681:1684   */\n      dup5\n        /* \"#utility.yul\":1677:1693   */\n      add\n        /* \"#utility.yul\":1670:1697   */\n      mstore\n        /* \"#utility.yul\":1606:1707   */\n    tag_43:\n        /* \"#utility.yul\":1455:1713   */\n      pop\n        /* \"#utility.yul\":1406:1713   */\n      pop\n      pop\n      pop\n      jump\t// out\n        /* \"#utility.yul\":1719:1821   */\n    tag_27:\n        /* \"#utility.yul\":1760:1766   */\n      0x00\n        /* \"#utility.yul\":1811:1813   */\n      0x1f\n        /* \"#utility.yul\":1807:1814   */\n      not\n        /* \"#utility.yul\":1802:1804   */\n      0x1f\n        /* \"#utility.yul\":1795:1800   */\n      dup4\n        /* \"#utility.yul\":1791:1805   */\n      add\n        /* \"#utility.yul\":1787:1815   */\n      and\n        /* \"#utility.yul\":1777:1815   */\n      swap1\n      pop\n        /* \"#utility.yul\":1719:1821   */\n      swap2\n      swap1\n      pop\n      jump\t// out\n\n    auxdata: 0xa2646970667358221220a08a67bf052fa7a57f8da9725e4f5f68faffc1ea7ba25fe448c51de47122cd8c64736f6c63430008070033\n}\n",
				"bytecode": {
					"linkReferences": {},
					"object": "608060405234801561001057600080fd5b5061023f806100206000396000f3fe608060405234801561001057600080fd5b50600436106100415760003560e01c806306fdde0314610046578063313ce5671461006457806395d89b4114610082575b600080fd5b61004e6100a0565b60405161005b919061015f565b60405180910390f35b61006c6100d9565b6040516100799190610181565b60405180910390f35b61008a6100de565b604051610097919061015f565b60405180910390f35b6040518060400160405280600a81526020017f45656c737761702056320000000000000000000000000000000000000000000081525081565b601281565b6040518060400160405280600681526020017f45454c2d5632000000000000000000000000000000000000000000000000000081525081565b60006101228261019c565b61012c81856101a7565b935061013c8185602086016101c5565b610145816101f8565b840191505092915050565b610159816101b8565b82525050565b600060208201905081810360008301526101798184610117565b905092915050565b60006020820190506101966000830184610150565b92915050565b600081519050919050565b600082825260208201905092915050565b600060ff82169050919050565b60005b838110156101e35780820151818401526020810190506101c8565b838111156101f2576000848401525b50505050565b6000601f19601f830116905091905056fea2646970667358221220a08a67bf052fa7a57f8da9725e4f5f68faffc1ea7ba25fe448c51de47122cd8c64736f6c63430008070033",
					"opcodes": "PUSH1 0x80 PUSH1 0x40 MSTORE CALLVALUE DUP1 ISZERO PUSH2 0x10 JUMPI PUSH1 0x0 DUP1 REVERT JUMPDEST POP PUSH2 0x23F DUP1 PUSH2 0x20 PUSH1 0x0 CODECOPY PUSH1 0x0 RETURN INVALID PUSH1 0x80 PUSH1 0x40 MSTORE CALLVALUE DUP1 ISZERO PUSH2 0x10 JUMPI PUSH1 0x0 DUP1 REVERT JUMPDEST POP PUSH1 0x4 CALLDATASIZE LT PUSH2 0x41 JUMPI PUSH1 0x0 CALLDATALOAD PUSH1 0xE0 SHR DUP1 PUSH4 0x6FDDE03 EQ PUSH2 0x46 JUMPI DUP1 PUSH4 0x313CE567 EQ PUSH2 0x64 JUMPI DUP1 PUSH4 0x95D89B41 EQ PUSH2 0x82 JUMPI JUMPDEST PUSH1 0x0 DUP1 REVERT JUMPDEST PUSH2 0x4E PUSH2 0xA0 JUMP JUMPDEST PUSH1 0x40 MLOAD PUSH2 0x5B SWAP2 SWAP1 PUSH2 0x15F JUMP JUMPDEST PUSH1 0x40 MLOAD DUP1 SWAP2 SUB SWAP1 RETURN JUMPDEST PUSH2 0x6C PUSH2 0xD9 JUMP JUMPDEST PUSH1 0x40 MLOAD PUSH2 0x79 SWAP2 SWAP1 PUSH2 0x181 JUMP JUMPDEST PUSH1 0x40 MLOAD DUP1 SWAP2 SUB SWAP1 RETURN JUMPDEST PUSH2 0x8A PUSH2 0xDE JUMP JUMPDEST PUSH1 0x40 MLOAD PUSH2 0x97 SWAP2 SWAP1 PUSH2 0x15F JUMP JUMPDEST PUSH1 0x40 MLOAD DUP1 SWAP2 SUB SWAP1 RETURN JUMPDEST PUSH1 0x40 MLOAD DUP1 PUSH1 0x40 ADD PUSH1 0x40 MSTORE DUP1 PUSH1 0xA DUP2 MSTORE PUSH1 0x20 ADD PUSH32 0x45656C7377617020563200000000000000000000000000000000000000000000 DUP2 MSTORE POP DUP2 JUMP JUMPDEST PUSH1 0x12 DUP2 JUMP JUMPDEST PUSH1 0x40 MLOAD DUP1 PUSH1 0x40 ADD PUSH1 0x40 MSTORE DUP1 PUSH1 0x6 DUP2 MSTORE PUSH1 0x20 ADD PUSH32 0x45454C2D56320000000000000000000000000000000000000000000000000000 DUP2 MSTORE POP DUP2 JUMP JUMPDEST PUSH1 0x0 PUSH2 0x122 DUP3 PUSH2 0x19C JUMP JUMPDEST PUSH2 0x12C DUP2 DUP6 PUSH2 0x1A7 JUMP JUMPDEST SWAP4 POP PUSH2 0x13C DUP2 DUP6 PUSH1 0x20 DUP7 ADD PUSH2 0x1C5 JUMP JUMPDEST PUSH2 0x145 DUP2 PUSH2 0x1F8 JUMP JUMPDEST DUP5 ADD SWAP2 POP POP SWAP3 SWAP2 POP POP JUMP JUMPDEST PUSH2 0x159 DUP2 PUSH2 0x1B8 JUMP JUMPDEST DUP3 MSTORE POP POP JUMP JUMPDEST PUSH1 0x0 PUSH1 0x20 DUP3 ADD SWAP1 POP DUP2 DUP2 SUB PUSH1 0x0 DUP4 ADD MSTORE PUSH2 0x179 DUP2 DUP5 PUSH2 0x117 JUMP JUMPDEST SWAP1 POP SWAP3 SWAP2 POP POP JUMP JUMPDEST PUSH1 0x0 PUSH1 0x20 DUP3 ADD SWAP1 POP PUSH2 0x196 PUSH1 0x0 DUP4 ADD DUP5 PUSH2 0x150 JUMP JUMPDEST SWAP3 SWAP2 POP POP JUMP JUMPDEST PUSH1 0x0 DUP2 MLOAD SWAP1 POP SWAP2 SWAP1 POP JUMP JUMPDEST PUSH1 0x0 DUP3 DUP3 MSTORE PUSH1 0x20 DUP3 ADD SWAP1 POP SWAP3 SWAP2 POP POP JUMP JUMPDEST PUSH1 0x0 PUSH1 0xFF DUP3 AND SWAP1 POP SWAP2 SWAP1 POP JUMP JUMPDEST PUSH1 0x0 JUMPDEST DUP4 DUP2 LT ISZERO PUSH2 0x1E3 JUMPI DUP1 DUP3 ADD MLOAD DUP2 DUP5 ADD MSTORE PUSH1 0x20 DUP2 ADD SWAP1 POP PUSH2 0x1C8 JUMP JUMPDEST DUP4 DUP2 GT ISZERO PUSH2 0x1F2 JUMPI PUSH1 0x0 DUP5 DUP5 ADD MSTORE JUMPDEST POP POP POP POP JUMP JUMPDEST PUSH1 0x0 PUSH1 0x1F NOT PUSH1 0x1F DUP4 ADD AND SWAP1 POP SWAP2 SWAP1 POP JUMP INVALID LOG2 PUSH5 0x6970667358 0x22 SLT KECCAK256 LOG0 DUP11 PUSH8 0xBF052FA7A57F8DA9 PUSH19 0x5E4F5F68FAFFC1EA7BA25FE448C51DE47122CD DUP13 PUSH5 0x736F6C6343 STOP ADDMOD SMOD STOP CALLER "
				},
				"gasEstimates": {
					"creation": {
						"codeDepositCost": "115000",
						"executionCost": "159",
						"totalCost": "115159"
					},
					"external": {
						"decimals()": "335",
						"name()": "infinite",
						"symbol()": "infinite"
					}
				},
				"methodIdentifiers": {
					"decimals()": "313ce567",
					"name()": "06fdde03",
					"symbol()": "95d89b41"
				}
			},
			"storageLayout": {
				"storage": [],
				"types": null
			},
			"userdoc": {
				"kind": "user",
				"methods": {},
				"version": 1
			}
		}
	}
}