{
	"contracts/Pair.sol": {
		"Pair": {
			"abi": [
				{
					"inputs": [
						{
							"internalType": "address",
							"name": "token",
							"type": "address"
						}
					],
					"stateMutability": "nonpayable",
					"type": "constructor"
				},
				{
					"anonymous": false,
					"inputs": [
						{
							"indexed": true,
							"internalType": "address",
							"name": "provider",
							"type": "address"
						},
						{
							"indexed": true,
							"internalType": "uint256",
							"name": "ethAmount",
							"type": "uint256"
						},
						{
							"indexed": true,
							"internalType": "uint256",
							"name": "tokenAmount",
							"type": "uint256"
						}
					],
					"name": "AddLiquidity",
					"type": "event"
				},
				{
					"anonymous": false,
					"inputs": [
						{
							"indexed": true,
							"internalType": "address",
							"name": "owner",
							"type": "address"
						},
						{
							"indexed": true,
							"internalType": "address",
							"name": "spender",
							"type": "address"
						},
						{
							"indexed": false,
							"internalType": "uint256",
							"name": "value",
							"type": "uint256"
						}
					],
					"name": "Approval",
					"type": "event"
				},
				{
					"anonymous": false,
					"inputs": [
						{
							"indexed": true,
							"internalType": "address",
							"name": "provider",
							"type": "address"
						},
						{
							"indexed": true,
							"internalType": "uint256",
							"name": "ethAmount",
							"type": "uint256"
						},
						{
							"indexed": true,
							"internalType": "uint256",
							"name": "tokenAmount",
							"type": "uint256"
						}
					],
					"name": "RemoveLiquidity",
					"type": "event"
				},
				{
					"anonymous": false,
					"inputs": [
						{
							"indexed": true,
							"internalType": "address",
							"name": "buyer",
							"type": "address"
						},
						{
							"indexed": true,
							"internalType": "uint256",
							"name": "tokensGiven",
							"type": "uint256"
						},
						{
							"indexed": false,
							"internalType": "uint256",
							"name": "ethRecieved",
							"type": "uint256"
						}
					],
					"name": "SwapForEth",
					"type": "event"
				},
				{
					"anonymous": false,
					"inputs": [
						{
							"indexed": true,
							"internalType": "address",
							"name": "buyer",
							"type": "address"
						},
						{
							"indexed": true,
							"internalType": "uint256",
							"name": "ethGiven",
							"type": "uint256"
						},
						{
							"indexed": false,
							"internalType": "uint256",
							"name": "tokensRecieved",
							"type": "uint256"
						}
					],
					"name": "SwapForTokens",
					"type": "event"
				},
				{
					"anonymous": false,
					"inputs": [
						{
							"indexed": true,
							"internalType": "address",
							"name": "from",
							"type": "address"
						},
						{
							"indexed": true,
							"internalType": "address",
							"name": "to",
							"type": "address"
						},
						{
							"indexed": false,
							"internalType": "uint256",
							"name": "value",
							"type": "uint256"
						}
					],
					"name": "Transfer",
					"type": "event"
				},
				{
					"inputs": [
						{
							"internalType": "uint256",
							"name": "inputTokenAmount",
							"type": "uint256"
						}
					],
					"name": "addLiquidity",
					"outputs": [
						{
							"internalType": "uint256",
							"name": "lpTokenAmount",
							"type": "uint256"
						}
					],
					"stateMutability": "payable",
					"type": "function"
				},
				{
					"inputs": [
						{
							"internalType": "address",
							"name": "owner",
							"type": "address"
						},
						{
							"internalType": "address",
							"name": "spender",
							"type": "address"
						}
					],
					"name": "allowance",
					"outputs": [
						{
							"internalType": "uint256",
							"name": "",
							"type": "uint256"
						}
					],
					"stateMutability": "view",
					"type": "function"
				},
				{
					"inputs": [
						{
							"internalType": "address",
							"name": "spender",
							"type": "address"
						},
						{
							"internalType": "uint256",
							"name": "amount",
							"type": "uint256"
						}
					],
					"name": "approve",
					"outputs": [
						{
							"internalType": "bool",
							"name": "",
							"type": "bool"
						}
					],
					"stateMutability": "nonpayable",
					"type": "function"
				},
				{
					"inputs": [
						{
							"internalType": "address",
							"name": "account",
							"type": "address"
						}
					],
					"name": "balanceOf",
					"outputs": [
						{
							"internalType": "uint256",
							"name": "",
							"type": "uint256"
						}
					],
					"stateMutability": "view",
					"type": "function"
				},
				{
					"inputs": [],
					"name": "decimals",
					"outputs": [
						{
							"internalType": "uint8",
							"name": "",
							"type": "uint8"
						}
					],
					"stateMutability": "view",
					"type": "function"
				},
				{
					"inputs": [
						{
							"internalType": "address",
							"name": "spender",
							"type": "address"
						},
						{
							"internalType": "uint256",
							"name": "subtractedValue",
							"type": "uint256"
						}
					],
					"name": "decreaseAllowance",
					"outputs": [
						{
							"internalType": "bool",
							"name": "",
							"type": "bool"
						}
					],
					"stateMutability": "nonpayable",
					"type": "function"
				},
				{
					"inputs": [
						{
							"internalType": "uint256",
							"name": "tokenAmount",
							"type": "uint256"
						},
						{
							"internalType": "address",
							"name": "recipient",
							"type": "address"
						}
					],
					"name": "ethForTokenHigh",
					"outputs": [],
					"stateMutability": "payable",
					"type": "function"
				},
				{
					"inputs": [
						{
							"internalType": "uint256",
							"name": "tokenAmount",
							"type": "uint256"
						}
					],
					"name": "ethForTokenImplicit",
					"outputs": [],
					"stateMutability": "payable",
					"type": "function"
				},
				{
					"inputs": [],
					"name": "factoryAddress",
					"outputs": [
						{
							"internalType": "address",
							"name": "",
							"type": "address"
						}
					],
					"stateMutability": "view",
					"type": "function"
				},
				{
					"inputs": [
						{
							"internalType": "uint256",
							"name": "tokenAmount",
							"type": "uint256"
						}
					],
					"name": "getEthAmountForSwap",
					"outputs": [
						{
							"internalType": "uint256",
							"name": "ethAmount",
							"type": "uint256"
						}
					],
					"stateMutability": "view",
					"type": "function"
				},
				{
					"inputs": [],
					"name": "getReserves",
					"outputs": [
						{
							"internalType": "uint256",
							"name": "tokenReserve",
							"type": "uint256"
						},
						{
							"internalType": "uint256",
							"name": "ethReserve",
							"type": "uint256"
						}
					],
					"stateMutability": "view",
					"type": "function"
				},
				{
					"inputs": [
						{
							"internalType": "uint256",
							"name": "ethAmount",
							"type": "uint256"
						}
					],
					"name": "getTokenAmountForSwap",
					"outputs": [
						{
							"internalType": "uint256",
							"name": "tokenAmount",
							"type": "uint256"
						}
					],
					"stateMutability": "view",
					"type": "function"
				},
				{
					"inputs": [
						{
							"internalType": "address",
							"name": "spender",
							"type": "address"
						},
						{
							"internalType": "uint256",
							"name": "addedValue",
							"type": "uint256"
						}
					],
					"name": "increaseAllowance",
					"outputs": [
						{
							"internalType": "bool",
							"name": "",
							"type": "bool"
						}
					],
					"stateMutability": "nonpayable",
					"type": "function"
				},
				{
					"inputs": [],
					"name": "name",
					"outputs": [
						{
							"internalType": "string",
							"name": "",
							"type": "string"
						}
					],
					"stateMutability": "view",
					"type": "function"
				},
				{
					"inputs": [
						{
							"internalType": "uint256",
							"name": "lpTokenAmount",
							"type": "uint256"
						}
					],
					"name": "removeLiquidity",
					"outputs": [
						{
							"internalType": "uint256",
							"name": "ethAmount",
							"type": "uint256"
						},
						{
							"internalType": "uint256",
							"name": "tokenAmount",
							"type": "uint256"
						}
					],
					"stateMutability": "nonpayable",
					"type": "function"
				},
				{
					"inputs": [],
					"name": "symbol",
					"outputs": [
						{
							"internalType": "string",
							"name": "",
							"type": "string"
						}
					],
					"stateMutability": "view",
					"type": "function"
				},
				{
					"inputs": [],
					"name": "tokenAddress",
					"outputs": [
						{
							"internalType": "address",
							"name": "",
							"type": "address"
						}
					],
					"stateMutability": "view",
					"type": "function"
				},
				{
					"inputs": [
						{
							"internalType": "uint256",
							"name": "ipTokenAmount",
							"type": "uint256"
						},
						{
							"internalType": "uint256",
							"name": "opEthAmount",
							"type": "uint256"
						}
					],
					"name": "tokenForEthSwap",
					"outputs": [],
					"stateMutability": "nonpayable",
					"type": "function"
				},
				{
					"inputs": [
						{
							"internalType": "uint256",
							"name": "ipTokenAmount",
							"type": "uint256"
						},
						{
							"internalType": "uint256",
							"name": "opTokenAmount",
							"type": "uint256"
						},
						{
							"internalType": "address",
							"name": "opTokenAddress",
							"type": "address"
						}
					],
					"name": "tokenToTokenSwap",
					"outputs": [],
					"stateMutability": "nonpayable",
					"type": "function"
				},
				{
					"inputs": [],
					"name": "totalSupply",
					"outputs": [
						{
							"internalType": "uint256",
							"name": "",
							"type": "uint256"
						}
					],
					"stateMutability": "view",
					"type": "function"
				},
				{
					"inputs": [
						{
							"internalType": "address",
							"name": "to",
							"type": "address"
						},
						{
							"internalType": "uint256",
							"name": "amount",
							"type": "uint256"
						}
					],
					"name": "transfer",
					"outputs": [
						{
							"internalType": "bool",
							"name": "",
							"type": "bool"
						}
					],
					"stateMutability": "nonpayable",
					"type": "function"
				},
				{
					"inputs": [
						{
							"internalType": "address",
							"name": "from",
							"type": "address"
						},
						{
							"internalType": "address",
							"name": "to",
							"type": "address"
						},
						{
							"internalType": "uint256",
							"name": "amount",
							"type": "uint256"
						}
					],
					"name": "transferFrom",
					"outputs": [
						{
							"internalType": "bool",
							"name": "",
							"type": "bool"
						}
					],
					"stateMutability": "nonpayable",
					"type": "function"
				}
			],
			"devdoc": {
				"kind": "dev",
				"methods": {
					"allowance(address,address)": {
						"details": "See {IERC20-allowance}."
					},
					"approve(address,uint256)": {
						"details": "See {IERC20-approve}. NOTE: If `amount` is the maximum `uint256`, the allowance is not updated on `transferFrom`. This is semantically equivalent to an infinite approval. Requirements: - `spender` cannot be the zero address."
					},
					"balanceOf(address)": {
						"details": "See {IERC20-balanceOf}."
					},
					"decimals()": {
						"details": "Returns the number of decimals used to get its user representation. For example, if `decimals` equals `2`, a balance of `505` tokens should be displayed to a user as `5.05` (`505 / 10 ** 2`). Tokens usually opt for a value of 18, imitating the relationship between Ether and Wei. This is the value {ERC20} uses, unless this function is overridden; NOTE: This information is only used for _display_ purposes: it in no way affects any of the arithmetic of the contract, including {IERC20-balanceOf} and {IERC20-transfer}."
					},
					"decreaseAllowance(address,uint256)": {
						"details": "Atomically decreases the allowance granted to `spender` by the caller. This is an alternative to {approve} that can be used as a mitigation for problems described in {IERC20-approve}. Emits an {Approval} event indicating the updated allowance. Requirements: - `spender` cannot be the zero address. - `spender` must have allowance for the caller of at least `subtractedValue`."
					},
					"increaseAllowance(address,uint256)": {
						"details": "Atomically increases the allowance granted to `spender` by the caller. This is an alternative to {approve} that can be used as a mitigation for problems described in {IERC20-approve}. Emits an {Approval} event indicating the updated allowance. Requirements: - `spender` cannot be the zero address."
					},
					"name()": {
						"details": "Returns the name of the token."
					},
					"symbol()": {
						"details": "Returns the symbol of the token, usually a shorter version of the name."
					},
					"totalSupply()": {
						"details": "See {IERC20-totalSupply}."
					},
					"transfer(address,uint256)": {
						"details": "See {IERC20-transfer}. Requirements: - `to` cannot be the zero address. - the caller must have a balance of at least `amount`."
					},
					"transferFrom(address,address,uint256)": {
						"details": "See {IERC20-transferFrom}. Emits an {Approval} event indicating the updated allowance. This is not required by the EIP. See the note at the beginning of {ERC20}. NOTE: Does not update the allowance if the current allowance is the maximum `uint256`. Requirements: - `from` and `to` cannot be the zero address. - `from` must have a balance of at least `amount`. - the caller must have allowance for ``from``'s tokens of at least `amount`."
					}
				},
				"version": 1
			},
			"evm": {
				"assembly": "    /* \"contracts/Pair.sol\":822:7207  contract Pair is ERC20 {\r... */\n  mstore(0x40, 0x80)\n    /* \"contracts/Pair.sol\":1633:1822  constructor(address token) ERC20(\"Swap V1\", \"Swap-V1\"){\r... */\n  callvalue\n  dup1\n  iszero\n  tag_1\n  jumpi\n  0x00\n  dup1\n  revert\ntag_1:\n  pop\n  mload(0x40)\n  sub(codesize, bytecodeSize)\n  dup1\n  bytecodeSize\n  dup4\n  codecopy\n  dup2\n  dup2\n  add\n  0x40\n  mstore\n  dup2\n  add\n  swap1\n  tag_2\n  swap2\n  swap1\n  tag_3\n  jump\t// in\ntag_2:\n    /* \"@openzeppelin/contracts/token/ERC20/ERC20.sol\":1978:2091  constructor(string memory name_, string memory symbol_) {... */\n  mload(0x40)\n  dup1\n  0x40\n  add\n  0x40\n  mstore\n  dup1\n  0x07\n  dup2\n  mstore\n  0x20\n  add\n  0x5377617020563100000000000000000000000000000000000000000000000000\n  dup2\n  mstore\n  pop\n  mload(0x40)\n  dup1\n  0x40\n  add\n  0x40\n  mstore\n  dup1\n  0x07\n  dup2\n  mstore\n  0x20\n  add\n  0x537761702d563100000000000000000000000000000000000000000000000000\n  dup2\n  mstore\n  pop\n    /* \"@openzeppelin/contracts/token/ERC20/ERC20.sol\":2052:2057  name_ */\n  dup2\n    /* \"@openzeppelin/contracts/token/ERC20/ERC20.sol\":2044:2049  _name */\n  0x03\n    /* \"@openzeppelin/contracts/token/ERC20/ERC20.sol\":2044:2057  _name = name_ */\n  swap1\n  dup1\n  mload\n  swap1\n  0x20\n  add\n  swap1\n  tag_7\n  swap3\n  swap2\n  swap1\n  tag_8\n  jump\t// in\ntag_7:\n  pop\n    /* \"@openzeppelin/contracts/token/ERC20/ERC20.sol\":2077:2084  symbol_ */\n  dup1\n    /* \"@openzeppelin/contracts/token/ERC20/ERC20.sol\":2067:2074  _symbol */\n  0x04\n    /* \"@openzeppelin/contracts/token/ERC20/ERC20.sol\":2067:2084  _symbol = symbol_ */\n  swap1\n  dup1\n  mload\n  swap1\n  0x20\n  add\n  swap1\n  tag_9\n  swap3\n  swap2\n  swap1\n  tag_8\n  jump\t// in\ntag_9:\n  pop\n    /* \"@openzeppelin/contracts/token/ERC20/ERC20.sol\":1978:2091  constructor(string memory name_, string memory symbol_) {... */\n  pop\n  pop\n    /* \"contracts/Pair.sol\":1723:1724  0 */\n  0x00\n    /* \"contracts/Pair.sol\":1706:1725  token != address(0) */\n  0xffffffffffffffffffffffffffffffffffffffff\n  and\n    /* \"contracts/Pair.sol\":1706:1711  token */\n  dup2\n    /* \"contracts/Pair.sol\":1706:1725  token != address(0) */\n  0xffffffffffffffffffffffffffffffffffffffff\n  and\n  eq\n  iszero\n    /* \"contracts/Pair.sol\":1698:1745  require(token != address(0), \"Invalid address\") */\n  tag_11\n  jumpi\n  mload(0x40)\n  0x08c379a000000000000000000000000000000000000000000000000000000000\n  dup2\n  mstore\n  0x04\n  add\n  tag_12\n  swap1\n  tag_13\n  jump\t// in\ntag_12:\n  mload(0x40)\n  dup1\n  swap2\n  sub\n  swap1\n  revert\ntag_11:\n    /* \"contracts/Pair.sol\":1771:1776  token */\n  dup1\n    /* \"contracts/Pair.sol\":1756:1768  tokenAddress */\n  0x05\n  0x00\n    /* \"contracts/Pair.sol\":1756:1776  tokenAddress = token */\n  0x0100\n  exp\n  dup2\n  sload\n  dup2\n  0xffffffffffffffffffffffffffffffffffffffff\n  mul\n  not\n  and\n  swap1\n  dup4\n  0xffffffffffffffffffffffffffffffffffffffff\n  and\n  mul\n  or\n  swap1\n  sstore\n  pop\n    /* \"contracts/Pair.sol\":1804:1814  msg.sender */\n  caller\n    /* \"contracts/Pair.sol\":1787:1801  factoryAddress */\n  0x06\n  0x00\n    /* \"contracts/Pair.sol\":1787:1814  factoryAddress = msg.sender */\n  0x0100\n  exp\n  dup2\n  sload\n  dup2\n  0xffffffffffffffffffffffffffffffffffffffff\n  mul\n  not\n  and\n  swap1\n  dup4\n  0xffffffffffffffffffffffffffffffffffffffff\n  and\n  mul\n  or\n  swap1\n  sstore\n  pop\n    /* \"contracts/Pair.sol\":1633:1822  constructor(address token) ERC20(\"Swap V1\", \"Swap-V1\"){\r... */\n  pop\n    /* \"contracts/Pair.sol\":822:7207  contract Pair is ERC20 {\r... */\n  jump(tag_14)\ntag_8:\n  dup3\n  dup1\n  sload\n  tag_15\n  swap1\n  tag_16\n  jump\t// in\ntag_15:\n  swap1\n  0x00\n  mstore\n  keccak256(0x00, 0x20)\n  swap1\n  0x1f\n  add\n  0x20\n  swap1\n  div\n  dup2\n  add\n  swap3\n  dup3\n  tag_18\n  jumpi\n  0x00\n  dup6\n  sstore\n  jump(tag_17)\ntag_18:\n  dup3\n  0x1f\n  lt\n  tag_19\n  jumpi\n  dup1\n  mload\n  not(0xff)\n  and\n  dup4\n  dup1\n  add\n  or\n  dup6\n  sstore\n  jump(tag_17)\ntag_19:\n  dup3\n  dup1\n  add\n  0x01\n  add\n  dup6\n  sstore\n  dup3\n  iszero\n  tag_17\n  jumpi\n  swap2\n  dup3\n  add\ntag_20:\n  dup3\n  dup2\n  gt\n  iszero\n  tag_21\n  jumpi\n  dup3\n  mload\n  dup3\n  sstore\n  swap2\n  0x20\n  add\n  swap2\n  swap1\n  0x01\n  add\n  swap1\n  jump(tag_20)\ntag_21:\ntag_17:\n  pop\n  swap1\n  pop\n  tag_22\n  swap2\n  swap1\n  tag_23\n  jump\t// in\ntag_22:\n  pop\n  swap1\n  jump\t// out\ntag_23:\ntag_24:\n  dup1\n  dup3\n  gt\n  iszero\n  tag_25\n  jumpi\n  0x00\n  dup2\n  0x00\n  swap1\n  sstore\n  pop\n  0x01\n  add\n  jump(tag_24)\ntag_25:\n  pop\n  swap1\n  jump\t// out\n    /* \"#utility.yul\":7:150   */\ntag_27:\n    /* \"#utility.yul\":64:69   */\n  0x00\n    /* \"#utility.yul\":95:101   */\n  dup2\n    /* \"#utility.yul\":89:102   */\n  mload\n    /* \"#utility.yul\":80:102   */\n  swap1\n  pop\n    /* \"#utility.yul\":111:144   */\n  tag_29\n    /* \"#utility.yul\":138:143   */\n  dup2\n    /* \"#utility.yul\":111:144   */\n  tag_30\n  jump\t// in\ntag_29:\n    /* \"#utility.yul\":7:150   */\n  swap3\n  swap2\n  pop\n  pop\n  jump\t// out\n    /* \"#utility.yul\":156:507   */\ntag_3:\n    /* \"#utility.yul\":226:232   */\n  0x00\n    /* \"#utility.yul\":275:277   */\n  0x20\n    /* \"#utility.yul\":263:272   */\n  dup3\n    /* \"#utility.yul\":254:261   */\n  dup5\n    /* \"#utility.yul\":250:273   */\n  sub\n    /* \"#utility.yul\":246:278   */\n  slt\n    /* \"#utility.yul\":243:362   */\n  iszero\n  tag_32\n  jumpi\n    /* \"#utility.yul\":281:360   */\n  tag_33\n  tag_34\n  jump\t// in\ntag_33:\n    /* \"#utility.yul\":243:362   */\ntag_32:\n    /* \"#utility.yul\":401:402   */\n  0x00\n    /* \"#utility.yul\":426:490   */\n  tag_35\n    /* \"#utility.yul\":482:489   */\n  dup5\n    /* \"#utility.yul\":473:479   */\n  dup3\n    /* \"#utility.yul\":462:471   */\n  dup6\n    /* \"#utility.yul\":458:480   */\n  add\n    /* \"#utility.yul\":426:490   */\n  tag_27\n  jump\t// in\ntag_35:\n    /* \"#utility.yul\":416:490   */\n  swap2\n  pop\n    /* \"#utility.yul\":372:500   */\n  pop\n    /* \"#utility.yul\":156:507   */\n  swap3\n  swap2\n  pop\n  pop\n  jump\t// out\n    /* \"#utility.yul\":513:879   */\ntag_36:\n    /* \"#utility.yul\":655:658   */\n  0x00\n    /* \"#utility.yul\":676:743   */\n  tag_38\n    /* \"#utility.yul\":740:742   */\n  0x0f\n    /* \"#utility.yul\":735:738   */\n  dup4\n    /* \"#utility.yul\":676:743   */\n  tag_39\n  jump\t// in\ntag_38:\n    /* \"#utility.yul\":669:743   */\n  swap2\n  pop\n    /* \"#utility.yul\":752:845   */\n  tag_40\n    /* \"#utility.yul\":841:844   */\n  dup3\n    /* \"#utility.yul\":752:845   */\n  tag_41\n  jump\t// in\ntag_40:\n    /* \"#utility.yul\":870:872   */\n  0x20\n    /* \"#utility.yul\":865:868   */\n  dup3\n    /* \"#utility.yul\":861:873   */\n  add\n    /* \"#utility.yul\":854:873   */\n  swap1\n  pop\n    /* \"#utility.yul\":513:879   */\n  swap2\n  swap1\n  pop\n  jump\t// out\n    /* \"#utility.yul\":885:1304   */\ntag_13:\n    /* \"#utility.yul\":1051:1055   */\n  0x00\n    /* \"#utility.yul\":1089:1091   */\n  0x20\n    /* \"#utility.yul\":1078:1087   */\n  dup3\n    /* \"#utility.yul\":1074:1092   */\n  add\n    /* \"#utility.yul\":1066:1092   */\n  swap1\n  pop\n    /* \"#utility.yul\":1138:1147   */\n  dup2\n    /* \"#utility.yul\":1132:1136   */\n  dup2\n    /* \"#utility.yul\":1128:1148   */\n  sub\n    /* \"#utility.yul\":1124:1125   */\n  0x00\n    /* \"#utility.yul\":1113:1122   */\n  dup4\n    /* \"#utility.yul\":1109:1126   */\n  add\n    /* \"#utility.yul\":1102:1149   */\n  mstore\n    /* \"#utility.yul\":1166:1297   */\n  tag_43\n    /* \"#utility.yul\":1292:1296   */\n  dup2\n    /* \"#utility.yul\":1166:1297   */\n  tag_36\n  jump\t// in\ntag_43:\n    /* \"#utility.yul\":1158:1297   */\n  swap1\n  pop\n    /* \"#utility.yul\":885:1304   */\n  swap2\n  swap1\n  pop\n  jump\t// out\n    /* \"#utility.yul\":1391:1560   */\ntag_39:\n    /* \"#utility.yul\":1475:1486   */\n  0x00\n    /* \"#utility.yul\":1509:1515   */\n  dup3\n    /* \"#utility.yul\":1504:1507   */\n  dup3\n    /* \"#utility.yul\":1497:1516   */\n  mstore\n    /* \"#utility.yul\":1549:1553   */\n  0x20\n    /* \"#utility.yul\":1544:1547   */\n  dup3\n    /* \"#utility.yul\":1540:1554   */\n  add\n    /* \"#utility.yul\":1525:1554   */\n  swap1\n  pop\n    /* \"#utility.yul\":1391:1560   */\n  swap3\n  swap2\n  pop\n  pop\n  jump\t// out\n    /* \"#utility.yul\":1566:1662   */\ntag_47:\n    /* \"#utility.yul\":1603:1610   */\n  0x00\n    /* \"#utility.yul\":1632:1656   */\n  tag_49\n    /* \"#utility.yul\":1650:1655   */\n  dup3\n    /* \"#utility.yul\":1632:1656   */\n  tag_50\n  jump\t// in\ntag_49:\n    /* \"#utility.yul\":1621:1656   */\n  swap1\n  pop\n    /* \"#utility.yul\":1566:1662   */\n  swap2\n  swap1\n  pop\n  jump\t// out\n    /* \"#utility.yul\":1668:1794   */\ntag_50:\n    /* \"#utility.yul\":1705:1712   */\n  0x00\n    /* \"#utility.yul\":1745:1787   */\n  0xffffffffffffffffffffffffffffffffffffffff\n    /* \"#utility.yul\":1738:1743   */\n  dup3\n    /* \"#utility.yul\":1734:1788   */\n  and\n    /* \"#utility.yul\":1723:1788   */\n  swap1\n  pop\n    /* \"#utility.yul\":1668:1794   */\n  swap2\n  swap1\n  pop\n  jump\t// out\n    /* \"#utility.yul\":1800:2120   */\ntag_16:\n    /* \"#utility.yul\":1844:1850   */\n  0x00\n    /* \"#utility.yul\":1881:1882   */\n  0x02\n    /* \"#utility.yul\":1875:1879   */\n  dup3\n    /* \"#utility.yul\":1871:1883   */\n  div\n    /* \"#utility.yul\":1861:1883   */\n  swap1\n  pop\n    /* \"#utility.yul\":1928:1929   */\n  0x01\n    /* \"#utility.yul\":1922:1926   */\n  dup3\n    /* \"#utility.yul\":1918:1930   */\n  and\n    /* \"#utility.yul\":1949:1967   */\n  dup1\n    /* \"#utility.yul\":1939:2020   */\n  tag_53\n  jumpi\n    /* \"#utility.yul\":2005:2009   */\n  0x7f\n    /* \"#utility.yul\":1997:2003   */\n  dup3\n    /* \"#utility.yul\":1993:2010   */\n  and\n    /* \"#utility.yul\":1983:2010   */\n  swap2\n  pop\n    /* \"#utility.yul\":1939:2020   */\ntag_53:\n    /* \"#utility.yul\":2067:2069   */\n  0x20\n    /* \"#utility.yul\":2059:2065   */\n  dup3\n    /* \"#utility.yul\":2056:2070   */\n  lt\n    /* \"#utility.yul\":2036:2054   */\n  dup2\n    /* \"#utility.yul\":2033:2071   */\n  eq\n    /* \"#utility.yul\":2030:2114   */\n  iszero\n  tag_54\n  jumpi\n    /* \"#utility.yul\":2086:2104   */\n  tag_55\n  tag_56\n  jump\t// in\ntag_55:\n    /* \"#utility.yul\":2030:2114   */\ntag_54:\n    /* \"#utility.yul\":1851:2120   */\n  pop\n    /* \"#utility.yul\":1800:2120   */\n  swap2\n  swap1\n  pop\n  jump\t// out\n    /* \"#utility.yul\":2126:2306   */\ntag_56:\n    /* \"#utility.yul\":2174:2251   */\n  0x4e487b7100000000000000000000000000000000000000000000000000000000\n    /* \"#utility.yul\":2171:2172   */\n  0x00\n    /* \"#utility.yul\":2164:2252   */\n  mstore\n    /* \"#utility.yul\":2271:2275   */\n  0x22\n    /* \"#utility.yul\":2268:2269   */\n  0x04\n    /* \"#utility.yul\":2261:2276   */\n  mstore\n    /* \"#utility.yul\":2295:2299   */\n  0x24\n    /* \"#utility.yul\":2292:2293   */\n  0x00\n    /* \"#utility.yul\":2285:2300   */\n  revert\n    /* \"#utility.yul\":2435:2552   */\ntag_34:\n    /* \"#utility.yul\":2544:2545   */\n  0x00\n    /* \"#utility.yul\":2541:2542   */\n  dup1\n    /* \"#utility.yul\":2534:2546   */\n  revert\n    /* \"#utility.yul\":2558:2723   */\ntag_41:\n    /* \"#utility.yul\":2698:2715   */\n  0x496e76616c696420616464726573730000000000000000000000000000000000\n    /* \"#utility.yul\":2694:2695   */\n  0x00\n    /* \"#utility.yul\":2686:2692   */\n  dup3\n    /* \"#utility.yul\":2682:2696   */\n  add\n    /* \"#utility.yul\":2675:2716   */\n  mstore\n    /* \"#utility.yul\":2558:2723   */\n  pop\n  jump\t// out\n    /* \"#utility.yul\":2729:2851   */\ntag_30:\n    /* \"#utility.yul\":2802:2826   */\n  tag_63\n    /* \"#utility.yul\":2820:2825   */\n  dup2\n    /* \"#utility.yul\":2802:2826   */\n  tag_47\n  jump\t// in\ntag_63:\n    /* \"#utility.yul\":2795:2800   */\n  dup2\n    /* \"#utility.yul\":2792:2827   */\n  eq\n    /* \"#utility.yul\":2782:2845   */\n  tag_64\n  jumpi\n    /* \"#utility.yul\":2841:2842   */\n  0x00\n    /* \"#utility.yul\":2838:2839   */\n  dup1\n    /* \"#utility.yul\":2831:2843   */\n  revert\n    /* \"#utility.yul\":2782:2845   */\ntag_64:\n    /* \"#utility.yul\":2729:2851   */\n  pop\n  jump\t// out\n    /* \"contracts/Pair.sol\":822:7207  contract Pair is ERC20 {\r... */\ntag_14:\n  dataSize(sub_0)\n  dup1\n  dataOffset(sub_0)\n  0x00\n  codecopy\n  0x00\n  return\nstop\n\nsub_0: assembly {\n        /* \"contracts/Pair.sol\":822:7207  contract Pair is ERC20 {\r... */\n      mstore(0x40, 0x80)\n      jumpi(tag_1, lt(calldatasize, 0x04))\n      shr(0xe0, calldataload(0x00))\n      dup1\n      0x6e9e8116\n      gt\n      tag_24\n      jumpi\n      dup1\n      0x9d76ea58\n      gt\n      tag_25\n      jumpi\n      dup1\n      0x9d76ea58\n      eq\n      tag_18\n      jumpi\n      dup1\n      0xa457c2d7\n      eq\n      tag_19\n      jumpi\n      dup1\n      0xa9059cbb\n      eq\n      tag_20\n      jumpi\n      dup1\n      0xae0aaea3\n      eq\n      tag_21\n      jumpi\n      dup1\n      0xdd62ed3e\n      eq\n      tag_22\n      jumpi\n      dup1\n      0xf7a7e324\n      eq\n      tag_23\n      jumpi\n      jump(tag_1)\n    tag_25:\n      dup1\n      0x6e9e8116\n      eq\n      tag_13\n      jumpi\n      dup1\n      0x70a08231\n      eq\n      tag_14\n      jumpi\n      dup1\n      0x95d89b41\n      eq\n      tag_15\n      jumpi\n      dup1\n      0x966dae0e\n      eq\n      tag_16\n      jumpi\n      dup1\n      0x9c8f9f23\n      eq\n      tag_17\n      jumpi\n      jump(tag_1)\n    tag_24:\n      dup1\n      0x23b872dd\n      gt\n      tag_26\n      jumpi\n      dup1\n      0x23b872dd\n      eq\n      tag_7\n      jumpi\n      dup1\n      0x2c0c60a4\n      eq\n      tag_8\n      jumpi\n      dup1\n      0x313ce567\n      eq\n      tag_9\n      jumpi\n      dup1\n      0x39509351\n      eq\n      tag_10\n      jumpi\n      dup1\n      0x51c6590a\n      eq\n      tag_11\n      jumpi\n      dup1\n      0x64338a30\n      eq\n      tag_12\n      jumpi\n      jump(tag_1)\n    tag_26:\n      dup1\n      0x06fdde03\n      eq\n      tag_2\n      jumpi\n      dup1\n      0x0902f1ac\n      eq\n      tag_3\n      jumpi\n      dup1\n      0x095ea7b3\n      eq\n      tag_4\n      jumpi\n      dup1\n      0x0f8070b4\n      eq\n      tag_5\n      jumpi\n      dup1\n      0x18160ddd\n      eq\n      tag_6\n      jumpi\n    tag_1:\n      0x00\n      dup1\n      revert\n        /* \"@openzeppelin/contracts/token/ERC20/ERC20.sol\":2156:2254  function name() public view virtual override returns (string memory) {... */\n    tag_2:\n      callvalue\n      dup1\n      iszero\n      tag_27\n      jumpi\n      0x00\n      dup1\n      revert\n    tag_27:\n      pop\n      tag_28\n      tag_29\n      jump\t// in\n    tag_28:\n      mload(0x40)\n      tag_30\n      swap2\n      swap1\n      tag_31\n      jump\t// in\n    tag_30:\n      mload(0x40)\n      dup1\n      swap2\n      sub\n      swap1\n      return\n        /* \"contracts/Pair.sol\":1830:2040  function getReserves() public view returns (uint256 tokenReserve, uint256 ethReserve) {\r... */\n    tag_3:\n      callvalue\n      dup1\n      iszero\n      tag_32\n      jumpi\n      0x00\n      dup1\n      revert\n    tag_32:\n      pop\n      tag_33\n      tag_34\n      jump\t// in\n    tag_33:\n      mload(0x40)\n      tag_35\n      swap3\n      swap2\n      swap1\n      tag_36\n      jump\t// in\n    tag_35:\n      mload(0x40)\n      dup1\n      swap2\n      sub\n      swap1\n      return\n        /* \"@openzeppelin/contracts/token/ERC20/ERC20.sol\":4433:4630  function approve(address spender, uint256 amount) public virtual override returns (bool) {... */\n    tag_4:\n      callvalue\n      dup1\n      iszero\n      tag_37\n      jumpi\n      0x00\n      dup1\n      revert\n    tag_37:\n      pop\n      tag_38\n      0x04\n      dup1\n      calldatasize\n      sub\n      dup2\n      add\n      swap1\n      tag_39\n      swap2\n      swap1\n      tag_40\n      jump\t// in\n    tag_39:\n      tag_41\n      jump\t// in\n    tag_38:\n      mload(0x40)\n      tag_42\n      swap2\n      swap1\n      tag_43\n      jump\t// in\n    tag_42:\n      mload(0x40)\n      dup1\n      swap2\n      sub\n      swap1\n      return\n        /* \"contracts/Pair.sol\":4534:4891  function getTokenAmountForSwap(uint256 ethAmount) public view returns (uint256 tokenAmount){\r... */\n    tag_5:\n      callvalue\n      dup1\n      iszero\n      tag_44\n      jumpi\n      0x00\n      dup1\n      revert\n    tag_44:\n      pop\n      tag_45\n      0x04\n      dup1\n      calldatasize\n      sub\n      dup2\n      add\n      swap1\n      tag_46\n      swap2\n      swap1\n      tag_47\n      jump\t// in\n    tag_46:\n      tag_48\n      jump\t// in\n    tag_45:\n      mload(0x40)\n      tag_49\n      swap2\n      swap1\n      tag_50\n      jump\t// in\n    tag_49:\n      mload(0x40)\n      dup1\n      swap2\n      sub\n      swap1\n      return\n        /* \"@openzeppelin/contracts/token/ERC20/ERC20.sol\":3244:3350  function totalSupply() public view virtual override returns (uint256) {... */\n    tag_6:\n      callvalue\n      dup1\n      iszero\n      tag_51\n      jumpi\n      0x00\n      dup1\n      revert\n    tag_51:\n      pop\n      tag_52\n      tag_53\n      jump\t// in\n    tag_52:\n      mload(0x40)\n      tag_54\n      swap2\n      swap1\n      tag_50\n      jump\t// in\n    tag_54:\n      mload(0x40)\n      dup1\n      swap2\n      sub\n      swap1\n      return\n        /* \"@openzeppelin/contracts/token/ERC20/ERC20.sol\":5192:5478  function transferFrom(... */\n    tag_7:\n      callvalue\n      dup1\n      iszero\n      tag_55\n      jumpi\n      0x00\n      dup1\n      revert\n    tag_55:\n      pop\n      tag_56\n      0x04\n      dup1\n      calldatasize\n      sub\n      dup2\n      add\n      swap1\n      tag_57\n      swap2\n      swap1\n      tag_58\n      jump\t// in\n    tag_57:\n      tag_59\n      jump\t// in\n    tag_56:\n      mload(0x40)\n      tag_60\n      swap2\n      swap1\n      tag_43\n      jump\t// in\n    tag_60:\n      mload(0x40)\n      dup1\n      swap2\n      sub\n      swap1\n      return\n        /* \"contracts/Pair.sol\":4951:5306  function getEthAmountForSwap(uint256 tokenAmount) public view returns (uint256 ethAmount){\r... */\n    tag_8:\n      callvalue\n      dup1\n      iszero\n      tag_61\n      jumpi\n      0x00\n      dup1\n      revert\n    tag_61:\n      pop\n      tag_62\n      0x04\n      dup1\n      calldatasize\n      sub\n      dup2\n      add\n      swap1\n      tag_63\n      swap2\n      swap1\n      tag_47\n      jump\t// in\n    tag_63:\n      tag_64\n      jump\t// in\n    tag_62:\n      mload(0x40)\n      tag_65\n      swap2\n      swap1\n      tag_50\n      jump\t// in\n    tag_65:\n      mload(0x40)\n      dup1\n      swap2\n      sub\n      swap1\n      return\n        /* \"@openzeppelin/contracts/token/ERC20/ERC20.sol\":3093:3184  function decimals() public view virtual override returns (uint8) {... */\n    tag_9:\n      callvalue\n      dup1\n      iszero\n      tag_66\n      jumpi\n      0x00\n      dup1\n      revert\n    tag_66:\n      pop\n      tag_67\n      tag_68\n      jump\t// in\n    tag_67:\n      mload(0x40)\n      tag_69\n      swap2\n      swap1\n      tag_70\n      jump\t// in\n    tag_69:\n      mload(0x40)\n      dup1\n      swap2\n      sub\n      swap1\n      return\n        /* \"@openzeppelin/contracts/token/ERC20/ERC20.sol\":5873:6107  function increaseAllowance(address spender, uint256 addedValue) public virtual returns (bool) {... */\n    tag_10:\n      callvalue\n      dup1\n      iszero\n      tag_71\n      jumpi\n      0x00\n      dup1\n      revert\n    tag_71:\n      pop\n      tag_72\n      0x04\n      dup1\n      calldatasize\n      sub\n      dup2\n      add\n      swap1\n      tag_73\n      swap2\n      swap1\n      tag_40\n      jump\t// in\n    tag_73:\n      tag_74\n      jump\t// in\n    tag_72:\n      mload(0x40)\n      tag_75\n      swap2\n      swap1\n      tag_43\n      jump\t// in\n    tag_75:\n      mload(0x40)\n      dup1\n      swap2\n      sub\n      swap1\n      return\n        /* \"contracts/Pair.sol\":2048:3380  function addLiquidity(uint256 inputTokenAmount) public payable returns (uint256 lpTokenAmount){\r... */\n    tag_11:\n      tag_76\n      0x04\n      dup1\n      calldatasize\n      sub\n      dup2\n      add\n      swap1\n      tag_77\n      swap2\n      swap1\n      tag_47\n      jump\t// in\n    tag_77:\n      tag_78\n      jump\t// in\n    tag_76:\n      mload(0x40)\n      tag_79\n      swap2\n      swap1\n      tag_50\n      jump\t// in\n    tag_79:\n      mload(0x40)\n      dup1\n      swap2\n      sub\n      swap1\n      return\n        /* \"contracts/Pair.sol\":6281:6930  function tokenForEthSwap(uint256 ipTokenAmount, uint256 opEthAmount) public {\r... */\n    tag_12:\n      callvalue\n      dup1\n      iszero\n      tag_80\n      jumpi\n      0x00\n      dup1\n      revert\n    tag_80:\n      pop\n      tag_81\n      0x04\n      dup1\n      calldatasize\n      sub\n      dup2\n      add\n      swap1\n      tag_82\n      swap2\n      swap1\n      tag_83\n      jump\t// in\n    tag_82:\n      tag_84\n      jump\t// in\n    tag_81:\n      stop\n        /* \"contracts/Pair.sol\":5961:6099  function ethForTokenHigh(uint256 tokenAmount, address recipient) public payable{\r... */\n    tag_13:\n      tag_85\n      0x04\n      dup1\n      calldatasize\n      sub\n      dup2\n      add\n      swap1\n      tag_86\n      swap2\n      swap1\n      tag_87\n      jump\t// in\n    tag_86:\n      tag_88\n      jump\t// in\n    tag_85:\n      stop\n        /* \"@openzeppelin/contracts/token/ERC20/ERC20.sol\":3408:3533  function balanceOf(address account) public view virtual override returns (uint256) {... */\n    tag_14:\n      callvalue\n      dup1\n      iszero\n      tag_89\n      jumpi\n      0x00\n      dup1\n      revert\n    tag_89:\n      pop\n      tag_90\n      0x04\n      dup1\n      calldatasize\n      sub\n      dup2\n      add\n      swap1\n      tag_91\n      swap2\n      swap1\n      tag_92\n      jump\t// in\n    tag_91:\n      tag_93\n      jump\t// in\n    tag_90:\n      mload(0x40)\n      tag_94\n      swap2\n      swap1\n      tag_50\n      jump\t// in\n    tag_94:\n      mload(0x40)\n      dup1\n      swap2\n      sub\n      swap1\n      return\n        /* \"@openzeppelin/contracts/token/ERC20/ERC20.sol\":2367:2469  function symbol() public view virtual override returns (string memory) {... */\n    tag_15:\n      callvalue\n      dup1\n      iszero\n      tag_95\n      jumpi\n      0x00\n      dup1\n      revert\n    tag_95:\n      pop\n      tag_96\n      tag_97\n      jump\t// in\n    tag_96:\n      mload(0x40)\n      tag_98\n      swap2\n      swap1\n      tag_31\n      jump\t// in\n    tag_98:\n      mload(0x40)\n      dup1\n      swap2\n      sub\n      swap1\n      return\n        /* \"contracts/Pair.sol\":886:915  address public factoryAddress */\n    tag_16:\n      callvalue\n      dup1\n      iszero\n      tag_99\n      jumpi\n      0x00\n      dup1\n      revert\n    tag_99:\n      pop\n      tag_100\n      tag_101\n      jump\t// in\n    tag_100:\n      mload(0x40)\n      tag_102\n      swap2\n      swap1\n      tag_103\n      jump\t// in\n    tag_102:\n      mload(0x40)\n      dup1\n      swap2\n      sub\n      swap1\n      return\n        /* \"contracts/Pair.sol\":3388:4112  function removeLiquidity(uint256 lpTokenAmount) public returns (uint256 ethAmount, uint256 tokenAmount){\r... */\n    tag_17:\n      callvalue\n      dup1\n      iszero\n      tag_104\n      jumpi\n      0x00\n      dup1\n      revert\n    tag_104:\n      pop\n      tag_105\n      0x04\n      dup1\n      calldatasize\n      sub\n      dup2\n      add\n      swap1\n      tag_106\n      swap2\n      swap1\n      tag_47\n      jump\t// in\n    tag_106:\n      tag_107\n      jump\t// in\n    tag_105:\n      mload(0x40)\n      tag_108\n      swap3\n      swap2\n      swap1\n      tag_36\n      jump\t// in\n    tag_108:\n      mload(0x40)\n      dup1\n      swap2\n      sub\n      swap1\n      return\n        /* \"contracts/Pair.sol\":852:879  address public tokenAddress */\n    tag_18:\n      callvalue\n      dup1\n      iszero\n      tag_109\n      jumpi\n      0x00\n      dup1\n      revert\n    tag_109:\n      pop\n      tag_110\n      tag_111\n      jump\t// in\n    tag_110:\n      mload(0x40)\n      tag_112\n      swap2\n      swap1\n      tag_103\n      jump\t// in\n    tag_112:\n      mload(0x40)\n      dup1\n      swap2\n      sub\n      swap1\n      return\n        /* \"@openzeppelin/contracts/token/ERC20/ERC20.sol\":6594:7021  function decreaseAllowance(address spender, uint256 subtractedValue) public virtual returns (bool) {... */\n    tag_19:\n      callvalue\n      dup1\n      iszero\n      tag_113\n      jumpi\n      0x00\n      dup1\n      revert\n    tag_113:\n      pop\n      tag_114\n      0x04\n      dup1\n      calldatasize\n      sub\n      dup2\n      add\n      swap1\n      tag_115\n      swap2\n      swap1\n      tag_40\n      jump\t// in\n    tag_115:\n      tag_116\n      jump\t// in\n    tag_114:\n      mload(0x40)\n      tag_117\n      swap2\n      swap1\n      tag_43\n      jump\t// in\n    tag_117:\n      mload(0x40)\n      dup1\n      swap2\n      sub\n      swap1\n      return\n        /* \"@openzeppelin/contracts/token/ERC20/ERC20.sol\":3729:3918  function transfer(address to, uint256 amount) public virtual override returns (bool) {... */\n    tag_20:\n      callvalue\n      dup1\n      iszero\n      tag_118\n      jumpi\n      0x00\n      dup1\n      revert\n    tag_118:\n      pop\n      tag_119\n      0x04\n      dup1\n      calldatasize\n      sub\n      dup2\n      add\n      swap1\n      tag_120\n      swap2\n      swap1\n      tag_40\n      jump\t// in\n    tag_120:\n      tag_121\n      jump\t// in\n    tag_119:\n      mload(0x40)\n      tag_122\n      swap2\n      swap1\n      tag_43\n      jump\t// in\n    tag_122:\n      mload(0x40)\n      dup1\n      swap2\n      sub\n      swap1\n      return\n        /* \"contracts/Pair.sol\":6140:6265  function ethForTokenImplicit(uint256 tokenAmount) public payable {\r... */\n    tag_21:\n      tag_123\n      0x04\n      dup1\n      calldatasize\n      sub\n      dup2\n      add\n      swap1\n      tag_124\n      swap2\n      swap1\n      tag_47\n      jump\t// in\n    tag_124:\n      tag_125\n      jump\t// in\n    tag_123:\n      stop\n        /* \"@openzeppelin/contracts/token/ERC20/ERC20.sol\":3976:4125  function allowance(address owner, address spender) public view virtual override returns (uint256) {... */\n    tag_22:\n      callvalue\n      dup1\n      iszero\n      tag_126\n      jumpi\n      0x00\n      dup1\n      revert\n    tag_126:\n      pop\n      tag_127\n      0x04\n      dup1\n      calldatasize\n      sub\n      dup2\n      add\n      swap1\n      tag_128\n      swap2\n      swap1\n      tag_129\n      jump\t// in\n    tag_128:\n      tag_130\n      jump\t// in\n    tag_127:\n      mload(0x40)\n      tag_131\n      swap2\n      swap1\n      tag_50\n      jump\t// in\n    tag_131:\n      mload(0x40)\n      dup1\n      swap2\n      sub\n      swap1\n      return\n        /* \"contracts/Pair.sol\":6940:7204  function tokenToTokenSwap(uint256 ipTokenAmount, uint256 opTokenAmount, address opTokenAddress) public {\r... */\n    tag_23:\n      callvalue\n      dup1\n      iszero\n      tag_132\n      jumpi\n      0x00\n      dup1\n      revert\n    tag_132:\n      pop\n      tag_133\n      0x04\n      dup1\n      calldatasize\n      sub\n      dup2\n      add\n      swap1\n      tag_134\n      swap2\n      swap1\n      tag_135\n      jump\t// in\n    tag_134:\n      tag_136\n      jump\t// in\n    tag_133:\n      stop\n        /* \"@openzeppelin/contracts/token/ERC20/ERC20.sol\":2156:2254  function name() public view virtual override returns (string memory) {... */\n    tag_29:\n        /* \"@openzeppelin/contracts/token/ERC20/ERC20.sol\":2210:2223  string memory */\n      0x60\n        /* \"@openzeppelin/contracts/token/ERC20/ERC20.sol\":2242:2247  _name */\n      0x03\n        /* \"@openzeppelin/contracts/token/ERC20/ERC20.sol\":2235:2247  return _name */\n      dup1\n      sload\n      tag_138\n      swap1\n      tag_139\n      jump\t// in\n    tag_138:\n      dup1\n      0x1f\n      add\n      0x20\n      dup1\n      swap2\n      div\n      mul\n      0x20\n      add\n      mload(0x40)\n      swap1\n      dup2\n      add\n      0x40\n      mstore\n      dup1\n      swap3\n      swap2\n      swap1\n      dup2\n      dup2\n      mstore\n      0x20\n      add\n      dup3\n      dup1\n      sload\n      tag_140\n      swap1\n      tag_139\n      jump\t// in\n    tag_140:\n      dup1\n      iszero\n      tag_141\n      jumpi\n      dup1\n      0x1f\n      lt\n      tag_142\n      jumpi\n      0x0100\n      dup1\n      dup4\n      sload\n      div\n      mul\n      dup4\n      mstore\n      swap2\n      0x20\n      add\n      swap2\n      jump(tag_141)\n    tag_142:\n      dup3\n      add\n      swap2\n      swap1\n      0x00\n      mstore\n      keccak256(0x00, 0x20)\n      swap1\n    tag_143:\n      dup2\n      sload\n      dup2\n      mstore\n      swap1\n      0x01\n      add\n      swap1\n      0x20\n      add\n      dup1\n      dup4\n      gt\n      tag_143\n      jumpi\n      dup3\n      swap1\n      sub\n      0x1f\n      and\n      dup3\n      add\n      swap2\n    tag_141:\n      pop\n      pop\n      pop\n      pop\n      pop\n      swap1\n      pop\n        /* \"@openzeppelin/contracts/token/ERC20/ERC20.sol\":2156:2254  function name() public view virtual override returns (string memory) {... */\n      swap1\n      jump\t// out\n        /* \"contracts/Pair.sol\":1830:2040  function getReserves() public view returns (uint256 tokenReserve, uint256 ethReserve) {\r... */\n    tag_34:\n        /* \"contracts/Pair.sol\":1874:1894  uint256 tokenReserve */\n      0x00\n        /* \"contracts/Pair.sol\":1896:1914  uint256 ethReserve */\n      dup1\n        /* \"contracts/Pair.sol\":1949:1961  tokenAddress */\n      0x05\n      0x00\n      swap1\n      sload\n      swap1\n      0x0100\n      exp\n      swap1\n      div\n      0xffffffffffffffffffffffffffffffffffffffff\n      and\n        /* \"contracts/Pair.sol\":1942:1972  IERC20(tokenAddress).balanceOf */\n      0xffffffffffffffffffffffffffffffffffffffff\n      and\n      0x70a08231\n        /* \"contracts/Pair.sol\":1981:1985  this */\n      address\n        /* \"contracts/Pair.sol\":1942:1987  IERC20(tokenAddress).balanceOf(address(this)) */\n      mload(0x40)\n      dup3\n      0xffffffff\n      and\n      0xe0\n      shl\n      dup2\n      mstore\n      0x04\n      add\n      tag_145\n      swap2\n      swap1\n      tag_103\n      jump\t// in\n    tag_145:\n      0x20\n      mload(0x40)\n      dup1\n      dup4\n      sub\n      dup2\n      dup7\n      dup1\n      extcodesize\n      iszero\n      dup1\n      iszero\n      tag_146\n      jumpi\n      0x00\n      dup1\n      revert\n    tag_146:\n      pop\n      gas\n      staticcall\n      iszero\n      dup1\n      iszero\n      tag_148\n      jumpi\n      returndatasize\n      0x00\n      dup1\n      returndatacopy\n      revert(0x00, returndatasize)\n    tag_148:\n      pop\n      pop\n      pop\n      pop\n      mload(0x40)\n      returndatasize\n      not(0x1f)\n      0x1f\n      dup3\n      add\n      and\n      dup3\n      add\n      dup1\n      0x40\n      mstore\n      pop\n      dup2\n      add\n      swap1\n      tag_149\n      swap2\n      swap1\n      tag_150\n      jump\t// in\n    tag_149:\n        /* \"contracts/Pair.sol\":1927:1987  tokenReserve = IERC20(tokenAddress).balanceOf(address(this)) */\n      swap2\n      pop\n        /* \"contracts/Pair.sol\":2011:2032  address(this).balance */\n      selfbalance\n        /* \"contracts/Pair.sol\":1998:2032  ethReserve = address(this).balance */\n      swap1\n      pop\n        /* \"contracts/Pair.sol\":1830:2040  function getReserves() public view returns (uint256 tokenReserve, uint256 ethReserve) {\r... */\n      swap1\n      swap2\n      jump\t// out\n        /* \"@openzeppelin/contracts/token/ERC20/ERC20.sol\":4433:4630  function approve(address spender, uint256 amount) public virtual override returns (bool) {... */\n    tag_41:\n        /* \"@openzeppelin/contracts/token/ERC20/ERC20.sol\":4516:4520  bool */\n      0x00\n        /* \"@openzeppelin/contracts/token/ERC20/ERC20.sol\":4532:4545  address owner */\n      dup1\n        /* \"@openzeppelin/contracts/token/ERC20/ERC20.sol\":4548:4560  _msgSender() */\n      tag_152\n        /* \"@openzeppelin/contracts/token/ERC20/ERC20.sol\":4548:4558  _msgSender */\n      tag_153\n        /* \"@openzeppelin/contracts/token/ERC20/ERC20.sol\":4548:4560  _msgSender() */\n      jump\t// in\n    tag_152:\n        /* \"@openzeppelin/contracts/token/ERC20/ERC20.sol\":4532:4560  address owner = _msgSender() */\n      swap1\n      pop\n        /* \"@openzeppelin/contracts/token/ERC20/ERC20.sol\":4570:4602  _approve(owner, spender, amount) */\n      tag_154\n        /* \"@openzeppelin/contracts/token/ERC20/ERC20.sol\":4579:4584  owner */\n      dup2\n        /* \"@openzeppelin/contracts/token/ERC20/ERC20.sol\":4586:4593  spender */\n      dup6\n        /* \"@openzeppelin/contracts/token/ERC20/ERC20.sol\":4595:4601  amount */\n      dup6\n        /* \"@openzeppelin/contracts/token/ERC20/ERC20.sol\":4570:4578  _approve */\n      tag_155\n        /* \"@openzeppelin/contracts/token/ERC20/ERC20.sol\":4570:4602  _approve(owner, spender, amount) */\n      jump\t// in\n    tag_154:\n        /* \"@openzeppelin/contracts/token/ERC20/ERC20.sol\":4619:4623  true */\n      0x01\n        /* \"@openzeppelin/contracts/token/ERC20/ERC20.sol\":4612:4623  return true */\n      swap2\n      pop\n      pop\n        /* \"@openzeppelin/contracts/token/ERC20/ERC20.sol\":4433:4630  function approve(address spender, uint256 amount) public virtual override returns (bool) {... */\n      swap3\n      swap2\n      pop\n      pop\n      jump\t// out\n        /* \"contracts/Pair.sol\":4534:4891  function getTokenAmountForSwap(uint256 ethAmount) public view returns (uint256 tokenAmount){\r... */\n    tag_48:\n        /* \"contracts/Pair.sol\":4605:4624  uint256 tokenAmount */\n      0x00\n        /* \"contracts/Pair.sol\":4656:4657  0 */\n      dup1\n        /* \"contracts/Pair.sol\":4644:4653  ethAmount */\n      dup3\n        /* \"contracts/Pair.sol\":4644:4657  ethAmount > 0 */\n      gt\n        /* \"contracts/Pair.sol\":4636:4687  require(ethAmount > 0, \"ETH amount cannot be zero\") */\n      tag_157\n      jumpi\n      mload(0x40)\n      0x08c379a000000000000000000000000000000000000000000000000000000000\n      dup2\n      mstore\n      0x04\n      add\n      tag_158\n      swap1\n      tag_159\n      jump\t// in\n    tag_158:\n      mload(0x40)\n      dup1\n      swap2\n      sub\n      swap1\n      revert\n    tag_157:\n        /* \"contracts/Pair.sol\":4701:4721  uint256 tokenReserve */\n      0x00\n        /* \"contracts/Pair.sol\":4723:4741  uint256 ethReserve */\n      dup1\n        /* \"contracts/Pair.sol\":4745:4758  getReserves() */\n      tag_160\n        /* \"contracts/Pair.sol\":4745:4756  getReserves */\n      tag_34\n        /* \"contracts/Pair.sol\":4745:4758  getReserves() */\n      jump\t// in\n    tag_160:\n        /* \"contracts/Pair.sol\":4700:4758  (uint256 tokenReserve, uint256 ethReserve) = getReserves() */\n      swap2\n      pop\n      swap2\n      pop\n        /* \"contracts/Pair.sol\":4831:4883  getOutputAmount(ethAmount, ethReserve, tokenReserve) */\n      tag_161\n        /* \"contracts/Pair.sol\":4847:4856  ethAmount */\n      dup5\n        /* \"contracts/Pair.sol\":4858:4868  ethReserve */\n      dup3\n        /* \"contracts/Pair.sol\":4870:4882  tokenReserve */\n      dup5\n        /* \"contracts/Pair.sol\":4831:4846  getOutputAmount */\n      tag_162\n        /* \"contracts/Pair.sol\":4831:4883  getOutputAmount(ethAmount, ethReserve, tokenReserve) */\n      jump\t// in\n    tag_161:\n        /* \"contracts/Pair.sol\":4817:4883  tokenAmount = getOutputAmount(ethAmount, ethReserve, tokenReserve) */\n      swap3\n      pop\n        /* \"contracts/Pair.sol\":4625:4891  {\r... */\n      pop\n      pop\n        /* \"contracts/Pair.sol\":4534:4891  function getTokenAmountForSwap(uint256 ethAmount) public view returns (uint256 tokenAmount){\r... */\n      swap2\n      swap1\n      pop\n      jump\t// out\n        /* \"@openzeppelin/contracts/token/ERC20/ERC20.sol\":3244:3350  function totalSupply() public view virtual override returns (uint256) {... */\n    tag_53:\n        /* \"@openzeppelin/contracts/token/ERC20/ERC20.sol\":3305:3312  uint256 */\n      0x00\n        /* \"@openzeppelin/contracts/token/ERC20/ERC20.sol\":3331:3343  _totalSupply */\n      sload(0x02)\n        /* \"@openzeppelin/contracts/token/ERC20/ERC20.sol\":3324:3343  return _totalSupply */\n      swap1\n      pop\n        /* \"@openzeppelin/contracts/token/ERC20/ERC20.sol\":3244:3350  function totalSupply() public view virtual override returns (uint256) {... */\n      swap1\n      jump\t// out\n        /* \"@openzeppelin/contracts/token/ERC20/ERC20.sol\":5192:5478  function transferFrom(... */\n    tag_59:\n        /* \"@openzeppelin/contracts/token/ERC20/ERC20.sol\":5319:5323  bool */\n      0x00\n        /* \"@openzeppelin/contracts/token/ERC20/ERC20.sol\":5335:5350  address spender */\n      dup1\n        /* \"@openzeppelin/contracts/token/ERC20/ERC20.sol\":5353:5365  _msgSender() */\n      tag_165\n        /* \"@openzeppelin/contracts/token/ERC20/ERC20.sol\":5353:5363  _msgSender */\n      tag_153\n        /* \"@openzeppelin/contracts/token/ERC20/ERC20.sol\":5353:5365  _msgSender() */\n      jump\t// in\n    tag_165:\n        /* \"@openzeppelin/contracts/token/ERC20/ERC20.sol\":5335:5365  address spender = _msgSender() */\n      swap1\n      pop\n        /* \"@openzeppelin/contracts/token/ERC20/ERC20.sol\":5375:5413  _spendAllowance(from, spender, amount) */\n      tag_166\n        /* \"@openzeppelin/contracts/token/ERC20/ERC20.sol\":5391:5395  from */\n      dup6\n        /* \"@openzeppelin/contracts/token/ERC20/ERC20.sol\":5397:5404  spender */\n      dup3\n        /* \"@openzeppelin/contracts/token/ERC20/ERC20.sol\":5406:5412  amount */\n      dup6\n        /* \"@openzeppelin/contracts/token/ERC20/ERC20.sol\":5375:5390  _spendAllowance */\n      tag_167\n        /* \"@openzeppelin/contracts/token/ERC20/ERC20.sol\":5375:5413  _spendAllowance(from, spender, amount) */\n      jump\t// in\n    tag_166:\n        /* \"@openzeppelin/contracts/token/ERC20/ERC20.sol\":5423:5450  _transfer(from, to, amount) */\n      tag_168\n        /* \"@openzeppelin/contracts/token/ERC20/ERC20.sol\":5433:5437  from */\n      dup6\n        /* \"@openzeppelin/contracts/token/ERC20/ERC20.sol\":5439:5441  to */\n      dup6\n        /* \"@openzeppelin/contracts/token/ERC20/ERC20.sol\":5443:5449  amount */\n      dup6\n        /* \"@openzeppelin/contracts/token/ERC20/ERC20.sol\":5423:5432  _transfer */\n      tag_169\n        /* \"@openzeppelin/contracts/token/ERC20/ERC20.sol\":5423:5450  _transfer(from, to, amount) */\n      jump\t// in\n    tag_168:\n        /* \"@openzeppelin/contracts/token/ERC20/ERC20.sol\":5467:5471  true */\n      0x01\n        /* \"@openzeppelin/contracts/token/ERC20/ERC20.sol\":5460:5471  return true */\n      swap2\n      pop\n      pop\n        /* \"@openzeppelin/contracts/token/ERC20/ERC20.sol\":5192:5478  function transferFrom(... */\n      swap4\n      swap3\n      pop\n      pop\n      pop\n      jump\t// out\n        /* \"contracts/Pair.sol\":4951:5306  function getEthAmountForSwap(uint256 tokenAmount) public view returns (uint256 ethAmount){\r... */\n    tag_64:\n        /* \"contracts/Pair.sol\":5022:5039  uint256 ethAmount */\n      0x00\n        /* \"contracts/Pair.sol\":5071:5072  0 */\n      dup1\n        /* \"contracts/Pair.sol\":5059:5068  ethAmount */\n      dup2\n        /* \"contracts/Pair.sol\":5059:5072  ethAmount > 0 */\n      gt\n        /* \"contracts/Pair.sol\":5051:5102  require(ethAmount > 0, \"ETH amount cannot be zero\") */\n      tag_171\n      jumpi\n      mload(0x40)\n      0x08c379a000000000000000000000000000000000000000000000000000000000\n      dup2\n      mstore\n      0x04\n      add\n      tag_172\n      swap1\n      tag_159\n      jump\t// in\n    tag_172:\n      mload(0x40)\n      dup1\n      swap2\n      sub\n      swap1\n      revert\n    tag_171:\n        /* \"contracts/Pair.sol\":5116:5136  uint256 tokenReserve */\n      0x00\n        /* \"contracts/Pair.sol\":5138:5156  uint256 ethReserve */\n      dup1\n        /* \"contracts/Pair.sol\":5160:5173  getReserves() */\n      tag_173\n        /* \"contracts/Pair.sol\":5160:5171  getReserves */\n      tag_34\n        /* \"contracts/Pair.sol\":5160:5173  getReserves() */\n      jump\t// in\n    tag_173:\n        /* \"contracts/Pair.sol\":5115:5173  (uint256 tokenReserve, uint256 ethReserve) = getReserves() */\n      swap2\n      pop\n      swap2\n      pop\n        /* \"contracts/Pair.sol\":5244:5298  getOutputAmount(tokenAmount, tokenReserve, ethReserve) */\n      tag_174\n        /* \"contracts/Pair.sol\":5260:5271  tokenAmount */\n      dup5\n        /* \"contracts/Pair.sol\":5273:5285  tokenReserve */\n      dup4\n        /* \"contracts/Pair.sol\":5287:5297  ethReserve */\n      dup4\n        /* \"contracts/Pair.sol\":5244:5259  getOutputAmount */\n      tag_162\n        /* \"contracts/Pair.sol\":5244:5298  getOutputAmount(tokenAmount, tokenReserve, ethReserve) */\n      jump\t// in\n    tag_174:\n        /* \"contracts/Pair.sol\":5232:5298  ethAmount = getOutputAmount(tokenAmount, tokenReserve, ethReserve) */\n      swap3\n      pop\n        /* \"contracts/Pair.sol\":5040:5306  {\r... */\n      pop\n      pop\n        /* \"contracts/Pair.sol\":4951:5306  function getEthAmountForSwap(uint256 tokenAmount) public view returns (uint256 ethAmount){\r... */\n      swap2\n      swap1\n      pop\n      jump\t// out\n        /* \"@openzeppelin/contracts/token/ERC20/ERC20.sol\":3093:3184  function decimals() public view virtual override returns (uint8) {... */\n    tag_68:\n        /* \"@openzeppelin/contracts/token/ERC20/ERC20.sol\":3151:3156  uint8 */\n      0x00\n        /* \"@openzeppelin/contracts/token/ERC20/ERC20.sol\":3175:3177  18 */\n      0x12\n        /* \"@openzeppelin/contracts/token/ERC20/ERC20.sol\":3168:3177  return 18 */\n      swap1\n      pop\n        /* \"@openzeppelin/contracts/token/ERC20/ERC20.sol\":3093:3184  function decimals() public view virtual override returns (uint8) {... */\n      swap1\n      jump\t// out\n        /* \"@openzeppelin/contracts/token/ERC20/ERC20.sol\":5873:6107  function increaseAllowance(address spender, uint256 addedValue) public virtual returns (bool) {... */\n    tag_74:\n        /* \"@openzeppelin/contracts/token/ERC20/ERC20.sol\":5961:5965  bool */\n      0x00\n        /* \"@openzeppelin/contracts/token/ERC20/ERC20.sol\":5977:5990  address owner */\n      dup1\n        /* \"@openzeppelin/contracts/token/ERC20/ERC20.sol\":5993:6005  _msgSender() */\n      tag_177\n        /* \"@openzeppelin/contracts/token/ERC20/ERC20.sol\":5993:6003  _msgSender */\n      tag_153\n        /* \"@openzeppelin/contracts/token/ERC20/ERC20.sol\":5993:6005  _msgSender() */\n      jump\t// in\n    tag_177:\n        /* \"@openzeppelin/contracts/token/ERC20/ERC20.sol\":5977:6005  address owner = _msgSender() */\n      swap1\n      pop\n        /* \"@openzeppelin/contracts/token/ERC20/ERC20.sol\":6015:6079  _approve(owner, spender, allowance(owner, spender) + addedValue) */\n      tag_178\n        /* \"@openzeppelin/contracts/token/ERC20/ERC20.sol\":6024:6029  owner */\n      dup2\n        /* \"@openzeppelin/contracts/token/ERC20/ERC20.sol\":6031:6038  spender */\n      dup6\n        /* \"@openzeppelin/contracts/token/ERC20/ERC20.sol\":6068:6078  addedValue */\n      dup6\n        /* \"@openzeppelin/contracts/token/ERC20/ERC20.sol\":6040:6065  allowance(owner, spender) */\n      tag_179\n        /* \"@openzeppelin/contracts/token/ERC20/ERC20.sol\":6050:6055  owner */\n      dup6\n        /* \"@openzeppelin/contracts/token/ERC20/ERC20.sol\":6057:6064  spender */\n      dup10\n        /* \"@openzeppelin/contracts/token/ERC20/ERC20.sol\":6040:6049  allowance */\n      tag_130\n        /* \"@openzeppelin/contracts/token/ERC20/ERC20.sol\":6040:6065  allowance(owner, spender) */\n      jump\t// in\n    tag_179:\n        /* \"@openzeppelin/contracts/token/ERC20/ERC20.sol\":6040:6078  allowance(owner, spender) + addedValue */\n      tag_180\n      swap2\n      swap1\n      tag_181\n      jump\t// in\n    tag_180:\n        /* \"@openzeppelin/contracts/token/ERC20/ERC20.sol\":6015:6023  _approve */\n      tag_155\n        /* \"@openzeppelin/contracts/token/ERC20/ERC20.sol\":6015:6079  _approve(owner, spender, allowance(owner, spender) + addedValue) */\n      jump\t// in\n    tag_178:\n        /* \"@openzeppelin/contracts/token/ERC20/ERC20.sol\":6096:6100  true */\n      0x01\n        /* \"@openzeppelin/contracts/token/ERC20/ERC20.sol\":6089:6100  return true */\n      swap2\n      pop\n      pop\n        /* \"@openzeppelin/contracts/token/ERC20/ERC20.sol\":5873:6107  function increaseAllowance(address spender, uint256 addedValue) public virtual returns (bool) {... */\n      swap3\n      swap2\n      pop\n      pop\n      jump\t// out\n        /* \"contracts/Pair.sol\":2048:3380  function addLiquidity(uint256 inputTokenAmount) public payable returns (uint256 lpTokenAmount){\r... */\n    tag_78:\n        /* \"contracts/Pair.sol\":2120:2141  uint256 lpTokenAmount */\n      0x00\n        /* \"contracts/Pair.sol\":2154:2174  uint256 tokenReserve */\n      dup1\n        /* \"contracts/Pair.sol\":2176:2194  uint256 ethReserve */\n      0x00\n        /* \"contracts/Pair.sol\":2198:2211  getReserves() */\n      tag_183\n        /* \"contracts/Pair.sol\":2198:2209  getReserves */\n      tag_34\n        /* \"contracts/Pair.sol\":2198:2211  getReserves() */\n      jump\t// in\n    tag_183:\n        /* \"contracts/Pair.sol\":2153:2211  (uint256 tokenReserve, uint256 ethReserve) = getReserves() */\n      swap2\n      pop\n      swap2\n      pop\n        /* \"contracts/Pair.sol\":2440:2441  0 */\n      0x00\n        /* \"contracts/Pair.sol\":2424:2436  tokenReserve */\n      dup3\n        /* \"contracts/Pair.sol\":2424:2441  tokenReserve == 0 */\n      eq\n        /* \"contracts/Pair.sol\":2420:3259  if (tokenReserve == 0) {\r... */\n      iszero\n      tag_184\n      jumpi\n        /* \"contracts/Pair.sol\":2458:2470  IERC20 token */\n      0x00\n        /* \"contracts/Pair.sol\":2480:2492  tokenAddress */\n      0x05\n      0x00\n      swap1\n      sload\n      swap1\n      0x0100\n      exp\n      swap1\n      div\n      0xffffffffffffffffffffffffffffffffffffffff\n      and\n        /* \"contracts/Pair.sol\":2458:2493  IERC20 token = IERC20(tokenAddress) */\n      swap1\n      pop\n        /* \"contracts/Pair.sol\":2508:2513  token */\n      dup1\n        /* \"contracts/Pair.sol\":2508:2526  token.transferFrom */\n      0xffffffffffffffffffffffffffffffffffffffff\n      and\n      0x23b872dd\n        /* \"contracts/Pair.sol\":2527:2537  msg.sender */\n      caller\n        /* \"contracts/Pair.sol\":2547:2551  this */\n      address\n        /* \"contracts/Pair.sol\":2554:2570  inputTokenAmount */\n      dup9\n        /* \"contracts/Pair.sol\":2508:2571  token.transferFrom(msg.sender, address(this), inputTokenAmount) */\n      mload(0x40)\n      dup5\n      0xffffffff\n      and\n      0xe0\n      shl\n      dup2\n      mstore\n      0x04\n      add\n      tag_185\n      swap4\n      swap3\n      swap2\n      swap1\n      tag_186\n      jump\t// in\n    tag_185:\n      0x20\n      mload(0x40)\n      dup1\n      dup4\n      sub\n      dup2\n      0x00\n      dup8\n      dup1\n      extcodesize\n      iszero\n      dup1\n      iszero\n      tag_187\n      jumpi\n      0x00\n      dup1\n      revert\n    tag_187:\n      pop\n      gas\n      call\n      iszero\n      dup1\n      iszero\n      tag_189\n      jumpi\n      returndatasize\n      0x00\n      dup1\n      returndatacopy\n      revert(0x00, returndatasize)\n    tag_189:\n      pop\n      pop\n      pop\n      pop\n      mload(0x40)\n      returndatasize\n      not(0x1f)\n      0x1f\n      dup3\n      add\n      and\n      dup3\n      add\n      dup1\n      0x40\n      mstore\n      pop\n      dup2\n      add\n      swap1\n      tag_190\n      swap2\n      swap1\n      tag_191\n      jump\t// in\n    tag_190:\n      pop\n        /* \"contracts/Pair.sol\":2602:2612  ethReserve */\n      dup2\n        /* \"contracts/Pair.sol\":2586:2612  lpTokenAmount = ethReserve */\n      swap4\n      pop\n        /* \"contracts/Pair.sol\":2443:2624  {\r... */\n      pop\n        /* \"contracts/Pair.sol\":2420:3259  if (tokenReserve == 0) {\r... */\n      jump(tag_192)\n    tag_184:\n        /* \"contracts/Pair.sol\":2702:2711  msg.value */\n      callvalue\n        /* \"contracts/Pair.sol\":2688:2711  ethReserve -= msg.value */\n      dup2\n      tag_193\n      swap2\n      swap1\n      tag_194\n      jump\t// in\n    tag_193:\n      swap1\n      pop\n        /* \"contracts/Pair.sol\":2799:2825  uint256 requiredTokenInput */\n      0x00\n        /* \"contracts/Pair.sol\":2853:2863  ethReserve */\n      dup2\n        /* \"contracts/Pair.sol\":2840:2852  tokenReserve */\n      dup4\n        /* \"contracts/Pair.sol\":2828:2837  msg.value */\n      callvalue\n        /* \"contracts/Pair.sol\":2828:2852  msg.value * tokenReserve */\n      tag_195\n      swap2\n      swap1\n      tag_196\n      jump\t// in\n    tag_195:\n        /* \"contracts/Pair.sol\":2828:2863  msg.value * tokenReserve/ethReserve */\n      tag_197\n      swap2\n      swap1\n      tag_198\n      jump\t// in\n    tag_197:\n        /* \"contracts/Pair.sol\":2799:2863  uint256 requiredTokenInput = msg.value * tokenReserve/ethReserve */\n      swap1\n      pop\n        /* \"contracts/Pair.sol\":2984:3002  requiredTokenInput */\n      dup1\n        /* \"contracts/Pair.sol\":2964:2980  inputTokenAmount */\n      dup6\n        /* \"contracts/Pair.sol\":2964:3002  inputTokenAmount >= requiredTokenInput */\n      lt\n      iszero\n        /* \"contracts/Pair.sol\":2956:3048  require(inputTokenAmount >= requiredTokenInput, \"Insufficient input amount of ERC20 Tokens\") */\n      tag_199\n      jumpi\n      mload(0x40)\n      0x08c379a000000000000000000000000000000000000000000000000000000000\n      dup2\n      mstore\n      0x04\n      add\n      tag_200\n      swap1\n      tag_201\n      jump\t// in\n    tag_200:\n      mload(0x40)\n      dup1\n      swap2\n      sub\n      swap1\n      revert\n    tag_199:\n        /* \"contracts/Pair.sol\":3063:3075  IERC20 token */\n      0x00\n        /* \"contracts/Pair.sol\":3085:3097  tokenAddress */\n      0x05\n      0x00\n      swap1\n      sload\n      swap1\n      0x0100\n      exp\n      swap1\n      div\n      0xffffffffffffffffffffffffffffffffffffffff\n      and\n        /* \"contracts/Pair.sol\":3063:3098  IERC20 token = IERC20(tokenAddress) */\n      swap1\n      pop\n        /* \"contracts/Pair.sol\":3113:3118  token */\n      dup1\n        /* \"contracts/Pair.sol\":3113:3131  token.transferFrom */\n      0xffffffffffffffffffffffffffffffffffffffff\n      and\n      0x23b872dd\n        /* \"contracts/Pair.sol\":3132:3142  msg.sender */\n      caller\n        /* \"contracts/Pair.sol\":3152:3156  this */\n      address\n        /* \"contracts/Pair.sol\":3159:3175  inputTokenAmount */\n      dup10\n        /* \"contracts/Pair.sol\":3113:3176  token.transferFrom(msg.sender, address(this), inputTokenAmount) */\n      mload(0x40)\n      dup5\n      0xffffffff\n      and\n      0xe0\n      shl\n      dup2\n      mstore\n      0x04\n      add\n      tag_202\n      swap4\n      swap3\n      swap2\n      swap1\n      tag_186\n      jump\t// in\n    tag_202:\n      0x20\n      mload(0x40)\n      dup1\n      dup4\n      sub\n      dup2\n      0x00\n      dup8\n      dup1\n      extcodesize\n      iszero\n      dup1\n      iszero\n      tag_203\n      jumpi\n      0x00\n      dup1\n      revert\n    tag_203:\n      pop\n      gas\n      call\n      iszero\n      dup1\n      iszero\n      tag_205\n      jumpi\n      returndatasize\n      0x00\n      dup1\n      returndatacopy\n      revert(0x00, returndatasize)\n    tag_205:\n      pop\n      pop\n      pop\n      pop\n      mload(0x40)\n      returndatasize\n      not(0x1f)\n      0x1f\n      dup3\n      add\n      and\n      dup3\n      add\n      dup1\n      0x40\n      mstore\n      pop\n      dup2\n      add\n      swap1\n      tag_206\n      swap2\n      swap1\n      tag_191\n      jump\t// in\n    tag_206:\n      pop\n        /* \"contracts/Pair.sol\":3237:3247  ethReserve */\n      dup3\n        /* \"contracts/Pair.sol\":3224:3233  msg.value */\n      callvalue\n        /* \"contracts/Pair.sol\":3208:3221  totalSupply() */\n      tag_207\n        /* \"contracts/Pair.sol\":3208:3219  totalSupply */\n      tag_53\n        /* \"contracts/Pair.sol\":3208:3221  totalSupply() */\n      jump\t// in\n    tag_207:\n        /* \"contracts/Pair.sol\":3208:3233  totalSupply() * msg.value */\n      tag_208\n      swap2\n      swap1\n      tag_196\n      jump\t// in\n    tag_208:\n        /* \"contracts/Pair.sol\":3207:3247  (totalSupply() * msg.value) / ethReserve */\n      tag_209\n      swap2\n      swap1\n      tag_198\n      jump\t// in\n    tag_209:\n        /* \"contracts/Pair.sol\":3191:3247  lpTokenAmount = (totalSupply() * msg.value) / ethReserve */\n      swap5\n      pop\n        /* \"contracts/Pair.sol\":2673:3259  {\r... */\n      pop\n      pop\n        /* \"contracts/Pair.sol\":2420:3259  if (tokenReserve == 0) {\r... */\n    tag_192:\n        /* \"contracts/Pair.sol\":3271:3303  _mint(msg.sender, lpTokenAmount) */\n      tag_210\n        /* \"contracts/Pair.sol\":3277:3287  msg.sender */\n      caller\n        /* \"contracts/Pair.sol\":3289:3302  lpTokenAmount */\n      dup5\n        /* \"contracts/Pair.sol\":3271:3276  _mint */\n      tag_211\n        /* \"contracts/Pair.sol\":3271:3303  _mint(msg.sender, lpTokenAmount) */\n      jump\t// in\n    tag_210:\n        /* \"contracts/Pair.sol\":3355:3371  inputTokenAmount */\n      dup4\n        /* \"contracts/Pair.sol\":3344:3353  msg.value */\n      callvalue\n        /* \"contracts/Pair.sol\":3332:3342  msg.sender */\n      caller\n        /* \"contracts/Pair.sol\":3319:3372  AddLiquidity(msg.sender, msg.value, inputTokenAmount) */\n      0xffffffffffffffffffffffffffffffffffffffff\n      and\n      0x06239653922ac7bea6aa2b19dc486b9361821d37712eb796adfd38d81de278ca\n      mload(0x40)\n      mload(0x40)\n      dup1\n      swap2\n      sub\n      swap1\n      log4\n        /* \"contracts/Pair.sol\":2142:3380  {\r... */\n      pop\n      pop\n        /* \"contracts/Pair.sol\":2048:3380  function addLiquidity(uint256 inputTokenAmount) public payable returns (uint256 lpTokenAmount){\r... */\n      swap2\n      swap1\n      pop\n      jump\t// out\n        /* \"contracts/Pair.sol\":6281:6930  function tokenForEthSwap(uint256 ipTokenAmount, uint256 opEthAmount) public {\r... */\n    tag_84:\n        /* \"contracts/Pair.sol\":6369:6389  uint256 tokenReserve */\n      0x00\n        /* \"contracts/Pair.sol\":6391:6409  uint256 ethReserve */\n      dup1\n        /* \"contracts/Pair.sol\":6413:6426  getReserves() */\n      tag_213\n        /* \"contracts/Pair.sol\":6413:6424  getReserves */\n      tag_34\n        /* \"contracts/Pair.sol\":6413:6426  getReserves() */\n      jump\t// in\n    tag_213:\n        /* \"contracts/Pair.sol\":6368:6426  (uint256 tokenReserve, uint256 ethReserve) = getReserves() */\n      swap2\n      pop\n      swap2\n      pop\n        /* \"contracts/Pair.sol\":6439:6458  uint256 ethRecieved */\n      0x00\n        /* \"contracts/Pair.sol\":6461:6517  getOutputAmount(ipTokenAmount, tokenReserve, ethReserve) */\n      tag_214\n        /* \"contracts/Pair.sol\":6477:6490  ipTokenAmount */\n      dup6\n        /* \"contracts/Pair.sol\":6492:6504  tokenReserve */\n      dup5\n        /* \"contracts/Pair.sol\":6506:6516  ethReserve */\n      dup5\n        /* \"contracts/Pair.sol\":6461:6476  getOutputAmount */\n      tag_162\n        /* \"contracts/Pair.sol\":6461:6517  getOutputAmount(ipTokenAmount, tokenReserve, ethReserve) */\n      jump\t// in\n    tag_214:\n        /* \"contracts/Pair.sol\":6439:6517  uint256 ethRecieved = getOutputAmount(ipTokenAmount, tokenReserve, ethReserve) */\n      swap1\n      pop\n        /* \"contracts/Pair.sol\":6553:6564  opEthAmount */\n      dup4\n        /* \"contracts/Pair.sol\":6538:6549  ethRecieved */\n      dup2\n        /* \"contracts/Pair.sol\":6538:6564  ethRecieved >= opEthAmount */\n      lt\n      iszero\n        /* \"contracts/Pair.sol\":6530:6636  require(ethRecieved >= opEthAmount, \"Amount swapped does not meet your stipulated amount, reverting swap\") */\n      tag_215\n      jumpi\n      mload(0x40)\n      0x08c379a000000000000000000000000000000000000000000000000000000000\n      dup2\n      mstore\n      0x04\n      add\n      tag_216\n      swap1\n      tag_217\n      jump\t// in\n    tag_216:\n      mload(0x40)\n      dup1\n      swap2\n      sub\n      swap1\n      revert\n    tag_215:\n        /* \"contracts/Pair.sol\":6654:6666  tokenAddress */\n      0x05\n      0x00\n      swap1\n      sload\n      swap1\n      0x0100\n      exp\n      swap1\n      div\n      0xffffffffffffffffffffffffffffffffffffffff\n      and\n        /* \"contracts/Pair.sol\":6647:6680  IERC20(tokenAddress).transferFrom */\n      0xffffffffffffffffffffffffffffffffffffffff\n      and\n      0x23b872dd\n        /* \"contracts/Pair.sol\":6681:6691  msg.sender */\n      caller\n        /* \"contracts/Pair.sol\":6701:6705  this */\n      address\n        /* \"contracts/Pair.sol\":6708:6721  ipTokenAmount */\n      dup9\n        /* \"contracts/Pair.sol\":6647:6722  IERC20(tokenAddress).transferFrom(msg.sender, address(this), ipTokenAmount) */\n      mload(0x40)\n      dup5\n      0xffffffff\n      and\n      0xe0\n      shl\n      dup2\n      mstore\n      0x04\n      add\n      tag_218\n      swap4\n      swap3\n      swap2\n      swap1\n      tag_186\n      jump\t// in\n    tag_218:\n      0x20\n      mload(0x40)\n      dup1\n      dup4\n      sub\n      dup2\n      0x00\n      dup8\n      dup1\n      extcodesize\n      iszero\n      dup1\n      iszero\n      tag_219\n      jumpi\n      0x00\n      dup1\n      revert\n    tag_219:\n      pop\n      gas\n      call\n      iszero\n      dup1\n      iszero\n      tag_221\n      jumpi\n      returndatasize\n      0x00\n      dup1\n      returndatacopy\n      revert(0x00, returndatasize)\n    tag_221:\n      pop\n      pop\n      pop\n      pop\n      mload(0x40)\n      returndatasize\n      not(0x1f)\n      0x1f\n      dup3\n      add\n      and\n      dup3\n      add\n      dup1\n      0x40\n      mstore\n      pop\n      dup2\n      add\n      swap1\n      tag_222\n      swap2\n      swap1\n      tag_191\n      jump\t// in\n    tag_222:\n      pop\n        /* \"contracts/Pair.sol\":6734:6743  bool sent */\n      0x00\n        /* \"contracts/Pair.sol\":6750:6760  msg.sender */\n      caller\n        /* \"contracts/Pair.sol\":6749:6766  (msg.sender).call */\n      0xffffffffffffffffffffffffffffffffffffffff\n      and\n        /* \"contracts/Pair.sol\":6774:6785  opEthAmount */\n      dup6\n        /* \"contracts/Pair.sol\":6749:6790  (msg.sender).call{value: opEthAmount}(\"\") */\n      mload(0x40)\n      tag_223\n      swap1\n      tag_224\n      jump\t// in\n    tag_223:\n      0x00\n      mload(0x40)\n      dup1\n      dup4\n      sub\n      dup2\n      dup6\n      dup8\n      gas\n      call\n      swap3\n      pop\n      pop\n      pop\n      returndatasize\n      dup1\n      0x00\n      dup2\n      eq\n      tag_227\n      jumpi\n      mload(0x40)\n      swap2\n      pop\n      and(add(returndatasize, 0x3f), not(0x1f))\n      dup3\n      add\n      0x40\n      mstore\n      returndatasize\n      dup3\n      mstore\n      returndatasize\n      0x00\n      0x20\n      dup5\n      add\n      returndatacopy\n      jump(tag_226)\n    tag_227:\n      0x60\n      swap2\n      pop\n    tag_226:\n      pop\n        /* \"contracts/Pair.sol\":6733:6790  (bool sent, ) = (msg.sender).call{value: opEthAmount}(\"\") */\n      pop\n      swap1\n      pop\n        /* \"contracts/Pair.sol\":6809:6813  sent */\n      dup1\n        /* \"contracts/Pair.sol\":6801:6856  require(sent, \"Transaction of ETH to recipient failed\") */\n      tag_228\n      jumpi\n      mload(0x40)\n      0x08c379a000000000000000000000000000000000000000000000000000000000\n      dup2\n      mstore\n      0x04\n      add\n      tag_229\n      swap1\n      tag_230\n      jump\t// in\n    tag_229:\n      mload(0x40)\n      dup1\n      swap2\n      sub\n      swap1\n      revert\n    tag_228:\n        /* \"contracts/Pair.sol\":6895:6908  ipTokenAmount */\n      dup6\n        /* \"contracts/Pair.sol\":6883:6893  msg.sender */\n      caller\n        /* \"contracts/Pair.sol\":6872:6922  SwapForEth(msg.sender, ipTokenAmount, ethRecieved) */\n      0xffffffffffffffffffffffffffffffffffffffff\n      and\n      0xd70caa09595c8288801ca58a02fd0960ef4982b210b2b9bf88bd5344c27cc4e8\n        /* \"contracts/Pair.sol\":6910:6921  ethRecieved */\n      dup5\n        /* \"contracts/Pair.sol\":6872:6922  SwapForEth(msg.sender, ipTokenAmount, ethRecieved) */\n      mload(0x40)\n      tag_231\n      swap2\n      swap1\n      tag_50\n      jump\t// in\n    tag_231:\n      mload(0x40)\n      dup1\n      swap2\n      sub\n      swap1\n      log3\n        /* \"contracts/Pair.sol\":6357:6930  {\r... */\n      pop\n      pop\n      pop\n      pop\n        /* \"contracts/Pair.sol\":6281:6930  function tokenForEthSwap(uint256 ipTokenAmount, uint256 opEthAmount) public {\r... */\n      pop\n      pop\n      jump\t// out\n        /* \"contracts/Pair.sol\":5961:6099  function ethForTokenHigh(uint256 tokenAmount, address recipient) public payable{\r... */\n    tag_88:\n        /* \"contracts/Pair.sol\":6051:6091  ethForTokenBasic(tokenAmount, recipient) */\n      tag_233\n        /* \"contracts/Pair.sol\":6068:6079  tokenAmount */\n      dup3\n        /* \"contracts/Pair.sol\":6081:6090  recipient */\n      dup3\n        /* \"contracts/Pair.sol\":6051:6067  ethForTokenBasic */\n      tag_234\n        /* \"contracts/Pair.sol\":6051:6091  ethForTokenBasic(tokenAmount, recipient) */\n      jump\t// in\n    tag_233:\n        /* \"contracts/Pair.sol\":5961:6099  function ethForTokenHigh(uint256 tokenAmount, address recipient) public payable{\r... */\n      pop\n      pop\n      jump\t// out\n        /* \"@openzeppelin/contracts/token/ERC20/ERC20.sol\":3408:3533  function balanceOf(address account) public view virtual override returns (uint256) {... */\n    tag_93:\n        /* \"@openzeppelin/contracts/token/ERC20/ERC20.sol\":3482:3489  uint256 */\n      0x00\n        /* \"@openzeppelin/contracts/token/ERC20/ERC20.sol\":3508:3517  _balances */\n      dup1\n        /* \"@openzeppelin/contracts/token/ERC20/ERC20.sol\":3508:3526  _balances[account] */\n      0x00\n        /* \"@openzeppelin/contracts/token/ERC20/ERC20.sol\":3518:3525  account */\n      dup4\n        /* \"@openzeppelin/contracts/token/ERC20/ERC20.sol\":3508:3526  _balances[account] */\n      0xffffffffffffffffffffffffffffffffffffffff\n      and\n      0xffffffffffffffffffffffffffffffffffffffff\n      and\n      dup2\n      mstore\n      0x20\n      add\n      swap1\n      dup2\n      mstore\n      0x20\n      add\n      0x00\n      keccak256\n      sload\n        /* \"@openzeppelin/contracts/token/ERC20/ERC20.sol\":3501:3526  return _balances[account] */\n      swap1\n      pop\n        /* \"@openzeppelin/contracts/token/ERC20/ERC20.sol\":3408:3533  function balanceOf(address account) public view virtual override returns (uint256) {... */\n      swap2\n      swap1\n      pop\n      jump\t// out\n        /* \"@openzeppelin/contracts/token/ERC20/ERC20.sol\":2367:2469  function symbol() public view virtual override returns (string memory) {... */\n    tag_97:\n        /* \"@openzeppelin/contracts/token/ERC20/ERC20.sol\":2423:2436  string memory */\n      0x60\n        /* \"@openzeppelin/contracts/token/ERC20/ERC20.sol\":2455:2462  _symbol */\n      0x04\n        /* \"@openzeppelin/contracts/token/ERC20/ERC20.sol\":2448:2462  return _symbol */\n      dup1\n      sload\n      tag_237\n      swap1\n      tag_139\n      jump\t// in\n    tag_237:\n      dup1\n      0x1f\n      add\n      0x20\n      dup1\n      swap2\n      div\n      mul\n      0x20\n      add\n      mload(0x40)\n      swap1\n      dup2\n      add\n      0x40\n      mstore\n      dup1\n      swap3\n      swap2\n      swap1\n      dup2\n      dup2\n      mstore\n      0x20\n      add\n      dup3\n      dup1\n      sload\n      tag_238\n      swap1\n      tag_139\n      jump\t// in\n    tag_238:\n      dup1\n      iszero\n      tag_239\n      jumpi\n      dup1\n      0x1f\n      lt\n      tag_240\n      jumpi\n      0x0100\n      dup1\n      dup4\n      sload\n      div\n      mul\n      dup4\n      mstore\n      swap2\n      0x20\n      add\n      swap2\n      jump(tag_239)\n    tag_240:\n      dup3\n      add\n      swap2\n      swap1\n      0x00\n      mstore\n      keccak256(0x00, 0x20)\n      swap1\n    tag_241:\n      dup2\n      sload\n      dup2\n      mstore\n      swap1\n      0x01\n      add\n      swap1\n      0x20\n      add\n      dup1\n      dup4\n      gt\n      tag_241\n      jumpi\n      dup3\n      swap1\n      sub\n      0x1f\n      and\n      dup3\n      add\n      swap2\n    tag_239:\n      pop\n      pop\n      pop\n      pop\n      pop\n      swap1\n      pop\n        /* \"@openzeppelin/contracts/token/ERC20/ERC20.sol\":2367:2469  function symbol() public view virtual override returns (string memory) {... */\n      swap1\n      jump\t// out\n        /* \"contracts/Pair.sol\":886:915  address public factoryAddress */\n    tag_101:\n      0x06\n      0x00\n      swap1\n      sload\n      swap1\n      0x0100\n      exp\n      swap1\n      div\n      0xffffffffffffffffffffffffffffffffffffffff\n      and\n      dup2\n      jump\t// out\n        /* \"contracts/Pair.sol\":3388:4112  function removeLiquidity(uint256 lpTokenAmount) public returns (uint256 ethAmount, uint256 tokenAmount){\r... */\n    tag_107:\n        /* \"contracts/Pair.sol\":3452:3469  uint256 ethAmount */\n      0x00\n        /* \"contracts/Pair.sol\":3471:3490  uint256 tokenAmount */\n      dup1\n        /* \"contracts/Pair.sol\":3526:3527  0 */\n      0x00\n        /* \"contracts/Pair.sol\":3510:3523  lpTokenAmount */\n      dup4\n        /* \"contracts/Pair.sol\":3510:3527  lpTokenAmount > 0 */\n      gt\n        /* \"contracts/Pair.sol\":3502:3587  require(lpTokenAmount > 0, \"Please input a valid amount of LP Tokens to burn/redeem\") */\n      tag_243\n      jumpi\n      mload(0x40)\n      0x08c379a000000000000000000000000000000000000000000000000000000000\n      dup2\n      mstore\n      0x04\n      add\n      tag_244\n      swap1\n      tag_245\n      jump\t// in\n    tag_244:\n      mload(0x40)\n      dup1\n      swap2\n      sub\n      swap1\n      revert\n    tag_243:\n        /* \"contracts/Pair.sol\":3601:3621  uint256 tokenReserve */\n      0x00\n        /* \"contracts/Pair.sol\":3623:3641  uint256 ethReserve */\n      dup1\n        /* \"contracts/Pair.sol\":3645:3658  getReserves() */\n      tag_246\n        /* \"contracts/Pair.sol\":3645:3656  getReserves */\n      tag_34\n        /* \"contracts/Pair.sol\":3645:3658  getReserves() */\n      jump\t// in\n    tag_246:\n        /* \"contracts/Pair.sol\":3600:3658  (uint256 tokenReserve, uint256 ethReserve) = getReserves() */\n      swap2\n      pop\n      swap2\n      pop\n        /* \"contracts/Pair.sol\":3712:3725  totalSupply() */\n      tag_247\n        /* \"contracts/Pair.sol\":3712:3723  totalSupply */\n      tag_53\n        /* \"contracts/Pair.sol\":3712:3725  totalSupply() */\n      jump\t// in\n    tag_247:\n        /* \"contracts/Pair.sol\":3695:3708  lpTokenAmount */\n      dup6\n        /* \"contracts/Pair.sol\":3682:3692  ethReserve */\n      dup3\n        /* \"contracts/Pair.sol\":3682:3708  ethReserve * lpTokenAmount */\n      tag_248\n      swap2\n      swap1\n      tag_196\n      jump\t// in\n    tag_248:\n        /* \"contracts/Pair.sol\":3681:3725  (ethReserve * lpTokenAmount) / totalSupply() */\n      tag_249\n      swap2\n      swap1\n      tag_198\n      jump\t// in\n    tag_249:\n        /* \"contracts/Pair.sol\":3669:3725  ethAmount = (ethReserve * lpTokenAmount) / totalSupply() */\n      swap4\n      pop\n        /* \"contracts/Pair.sol\":3783:3796  totalSupply() */\n      tag_250\n        /* \"contracts/Pair.sol\":3783:3794  totalSupply */\n      tag_53\n        /* \"contracts/Pair.sol\":3783:3796  totalSupply() */\n      jump\t// in\n    tag_250:\n        /* \"contracts/Pair.sol\":3766:3779  lpTokenAmount */\n      dup6\n        /* \"contracts/Pair.sol\":3751:3763  tokenReserve */\n      dup4\n        /* \"contracts/Pair.sol\":3751:3779  tokenReserve * lpTokenAmount */\n      tag_251\n      swap2\n      swap1\n      tag_196\n      jump\t// in\n    tag_251:\n        /* \"contracts/Pair.sol\":3750:3796  (tokenReserve * lpTokenAmount) / totalSupply() */\n      tag_252\n      swap2\n      swap1\n      tag_198\n      jump\t// in\n    tag_252:\n        /* \"contracts/Pair.sol\":3736:3796  tokenAmount = (tokenReserve * lpTokenAmount) / totalSupply() */\n      swap3\n      pop\n        /* \"contracts/Pair.sol\":3809:3841  _burn(msg.sender, lpTokenAmount) */\n      tag_253\n        /* \"contracts/Pair.sol\":3815:3825  msg.sender */\n      caller\n        /* \"contracts/Pair.sol\":3827:3840  lpTokenAmount */\n      dup7\n        /* \"contracts/Pair.sol\":3809:3814  _burn */\n      tag_254\n        /* \"contracts/Pair.sol\":3809:3841  _burn(msg.sender, lpTokenAmount) */\n      jump\t// in\n    tag_253:\n        /* \"contracts/Pair.sol\":3853:3862  bool sent */\n      0x00\n        /* \"contracts/Pair.sol\":3869:3879  msg.sender */\n      caller\n        /* \"contracts/Pair.sol\":3868:3885  (msg.sender).call */\n      0xffffffffffffffffffffffffffffffffffffffff\n      and\n        /* \"contracts/Pair.sol\":3893:3902  ethAmount */\n      dup6\n        /* \"contracts/Pair.sol\":3868:3907  (msg.sender).call{value: ethAmount}(\"\") */\n      mload(0x40)\n      tag_255\n      swap1\n      tag_224\n      jump\t// in\n    tag_255:\n      0x00\n      mload(0x40)\n      dup1\n      dup4\n      sub\n      dup2\n      dup6\n      dup8\n      gas\n      call\n      swap3\n      pop\n      pop\n      pop\n      returndatasize\n      dup1\n      0x00\n      dup2\n      eq\n      tag_258\n      jumpi\n      mload(0x40)\n      swap2\n      pop\n      and(add(returndatasize, 0x3f), not(0x1f))\n      dup3\n      add\n      0x40\n      mstore\n      returndatasize\n      dup3\n      mstore\n      returndatasize\n      0x00\n      0x20\n      dup5\n      add\n      returndatacopy\n      jump(tag_257)\n    tag_258:\n      0x60\n      swap2\n      pop\n    tag_257:\n      pop\n        /* \"contracts/Pair.sol\":3852:3907  (bool sent, ) = (msg.sender).call{value: ethAmount}(\"\") */\n      pop\n      swap1\n      pop\n        /* \"contracts/Pair.sol\":3926:3930  sent */\n      dup1\n        /* \"contracts/Pair.sol\":3918:3972  require(sent, \"Transaction of Ether was unsuccessful\") */\n      tag_259\n      jumpi\n      mload(0x40)\n      0x08c379a000000000000000000000000000000000000000000000000000000000\n      dup2\n      mstore\n      0x04\n      add\n      tag_260\n      swap1\n      tag_261\n      jump\t// in\n    tag_260:\n      mload(0x40)\n      dup1\n      swap2\n      sub\n      swap1\n      revert\n    tag_259:\n        /* \"contracts/Pair.sol\":3990:4002  tokenAddress */\n      0x05\n      0x00\n      swap1\n      sload\n      swap1\n      0x0100\n      exp\n      swap1\n      div\n      0xffffffffffffffffffffffffffffffffffffffff\n      and\n        /* \"contracts/Pair.sol\":3983:4012  IERC20(tokenAddress).transfer */\n      0xffffffffffffffffffffffffffffffffffffffff\n      and\n      0xa9059cbb\n        /* \"contracts/Pair.sol\":4013:4023  msg.sender */\n      caller\n        /* \"contracts/Pair.sol\":4025:4036  tokenAmount */\n      dup7\n        /* \"contracts/Pair.sol\":3983:4037  IERC20(tokenAddress).transfer(msg.sender, tokenAmount) */\n      mload(0x40)\n      dup4\n      0xffffffff\n      and\n      0xe0\n      shl\n      dup2\n      mstore\n      0x04\n      add\n      tag_262\n      swap3\n      swap2\n      swap1\n      tag_263\n      jump\t// in\n    tag_262:\n      0x20\n      mload(0x40)\n      dup1\n      dup4\n      sub\n      dup2\n      0x00\n      dup8\n      dup1\n      extcodesize\n      iszero\n      dup1\n      iszero\n      tag_264\n      jumpi\n      0x00\n      dup1\n      revert\n    tag_264:\n      pop\n      gas\n      call\n      iszero\n      dup1\n      iszero\n      tag_266\n      jumpi\n      returndatasize\n      0x00\n      dup1\n      returndatacopy\n      revert(0x00, returndatasize)\n    tag_266:\n      pop\n      pop\n      pop\n      pop\n      mload(0x40)\n      returndatasize\n      not(0x1f)\n      0x1f\n      dup3\n      add\n      and\n      dup3\n      add\n      dup1\n      0x40\n      mstore\n      pop\n      dup2\n      add\n      swap1\n      tag_267\n      swap2\n      swap1\n      tag_191\n      jump\t// in\n    tag_267:\n      pop\n        /* \"contracts/Pair.sol\":4092:4103  tokenAmount */\n      dup4\n        /* \"contracts/Pair.sol\":4081:4090  ethAmount */\n      dup6\n        /* \"contracts/Pair.sol\":4069:4079  msg.sender */\n      caller\n        /* \"contracts/Pair.sol\":4053:4104  RemoveLiquidity(msg.sender, ethAmount, tokenAmount) */\n      0xffffffffffffffffffffffffffffffffffffffff\n      and\n      0x0fbf06c058b90cb038a618f8c2acbf6145f8b3570fd1fa56abb8f0f3f05b36e8\n      mload(0x40)\n      mload(0x40)\n      dup1\n      swap2\n      sub\n      swap1\n      log4\n        /* \"contracts/Pair.sol\":3491:4112  {\r... */\n      pop\n      pop\n      pop\n        /* \"contracts/Pair.sol\":3388:4112  function removeLiquidity(uint256 lpTokenAmount) public returns (uint256 ethAmount, uint256 tokenAmount){\r... */\n      swap2\n      pop\n      swap2\n      jump\t// out\n        /* \"contracts/Pair.sol\":852:879  address public tokenAddress */\n    tag_111:\n      0x05\n      0x00\n      swap1\n      sload\n      swap1\n      0x0100\n      exp\n      swap1\n      div\n      0xffffffffffffffffffffffffffffffffffffffff\n      and\n      dup2\n      jump\t// out\n        /* \"@openzeppelin/contracts/token/ERC20/ERC20.sol\":6594:7021  function decreaseAllowance(address spender, uint256 subtractedValue) public virtual returns (bool) {... */\n    tag_116:\n        /* \"@openzeppelin/contracts/token/ERC20/ERC20.sol\":6687:6691  bool */\n      0x00\n        /* \"@openzeppelin/contracts/token/ERC20/ERC20.sol\":6703:6716  address owner */\n      dup1\n        /* \"@openzeppelin/contracts/token/ERC20/ERC20.sol\":6719:6731  _msgSender() */\n      tag_269\n        /* \"@openzeppelin/contracts/token/ERC20/ERC20.sol\":6719:6729  _msgSender */\n      tag_153\n        /* \"@openzeppelin/contracts/token/ERC20/ERC20.sol\":6719:6731  _msgSender() */\n      jump\t// in\n    tag_269:\n        /* \"@openzeppelin/contracts/token/ERC20/ERC20.sol\":6703:6731  address owner = _msgSender() */\n      swap1\n      pop\n        /* \"@openzeppelin/contracts/token/ERC20/ERC20.sol\":6741:6765  uint256 currentAllowance */\n      0x00\n        /* \"@openzeppelin/contracts/token/ERC20/ERC20.sol\":6768:6793  allowance(owner, spender) */\n      tag_270\n        /* \"@openzeppelin/contracts/token/ERC20/ERC20.sol\":6778:6783  owner */\n      dup3\n        /* \"@openzeppelin/contracts/token/ERC20/ERC20.sol\":6785:6792  spender */\n      dup7\n        /* \"@openzeppelin/contracts/token/ERC20/ERC20.sol\":6768:6777  allowance */\n      tag_130\n        /* \"@openzeppelin/contracts/token/ERC20/ERC20.sol\":6768:6793  allowance(owner, spender) */\n      jump\t// in\n    tag_270:\n        /* \"@openzeppelin/contracts/token/ERC20/ERC20.sol\":6741:6793  uint256 currentAllowance = allowance(owner, spender) */\n      swap1\n      pop\n        /* \"@openzeppelin/contracts/token/ERC20/ERC20.sol\":6831:6846  subtractedValue */\n      dup4\n        /* \"@openzeppelin/contracts/token/ERC20/ERC20.sol\":6811:6827  currentAllowance */\n      dup2\n        /* \"@openzeppelin/contracts/token/ERC20/ERC20.sol\":6811:6846  currentAllowance >= subtractedValue */\n      lt\n      iszero\n        /* \"@openzeppelin/contracts/token/ERC20/ERC20.sol\":6803:6888  require(currentAllowance >= subtractedValue, \"ERC20: decreased allowance below zero\") */\n      tag_271\n      jumpi\n      mload(0x40)\n      0x08c379a000000000000000000000000000000000000000000000000000000000\n      dup2\n      mstore\n      0x04\n      add\n      tag_272\n      swap1\n      tag_273\n      jump\t// in\n    tag_272:\n      mload(0x40)\n      dup1\n      swap2\n      sub\n      swap1\n      revert\n    tag_271:\n        /* \"@openzeppelin/contracts/token/ERC20/ERC20.sol\":6922:6982  _approve(owner, spender, currentAllowance - subtractedValue) */\n      tag_274\n        /* \"@openzeppelin/contracts/token/ERC20/ERC20.sol\":6931:6936  owner */\n      dup3\n        /* \"@openzeppelin/contracts/token/ERC20/ERC20.sol\":6938:6945  spender */\n      dup7\n        /* \"@openzeppelin/contracts/token/ERC20/ERC20.sol\":6966:6981  subtractedValue */\n      dup7\n        /* \"@openzeppelin/contracts/token/ERC20/ERC20.sol\":6947:6963  currentAllowance */\n      dup5\n        /* \"@openzeppelin/contracts/token/ERC20/ERC20.sol\":6947:6981  currentAllowance - subtractedValue */\n      sub\n        /* \"@openzeppelin/contracts/token/ERC20/ERC20.sol\":6922:6930  _approve */\n      tag_155\n        /* \"@openzeppelin/contracts/token/ERC20/ERC20.sol\":6922:6982  _approve(owner, spender, currentAllowance - subtractedValue) */\n      jump\t// in\n    tag_274:\n        /* \"@openzeppelin/contracts/token/ERC20/ERC20.sol\":7010:7014  true */\n      0x01\n        /* \"@openzeppelin/contracts/token/ERC20/ERC20.sol\":7003:7014  return true */\n      swap3\n      pop\n      pop\n      pop\n        /* \"@openzeppelin/contracts/token/ERC20/ERC20.sol\":6594:7021  function decreaseAllowance(address spender, uint256 subtractedValue) public virtual returns (bool) {... */\n      swap3\n      swap2\n      pop\n      pop\n      jump\t// out\n        /* \"@openzeppelin/contracts/token/ERC20/ERC20.sol\":3729:3918  function transfer(address to, uint256 amount) public virtual override returns (bool) {... */\n    tag_121:\n        /* \"@openzeppelin/contracts/token/ERC20/ERC20.sol\":3808:3812  bool */\n      0x00\n        /* \"@openzeppelin/contracts/token/ERC20/ERC20.sol\":3824:3837  address owner */\n      dup1\n        /* \"@openzeppelin/contracts/token/ERC20/ERC20.sol\":3840:3852  _msgSender() */\n      tag_276\n        /* \"@openzeppelin/contracts/token/ERC20/ERC20.sol\":3840:3850  _msgSender */\n      tag_153\n        /* \"@openzeppelin/contracts/token/ERC20/ERC20.sol\":3840:3852  _msgSender() */\n      jump\t// in\n    tag_276:\n        /* \"@openzeppelin/contracts/token/ERC20/ERC20.sol\":3824:3852  address owner = _msgSender() */\n      swap1\n      pop\n        /* \"@openzeppelin/contracts/token/ERC20/ERC20.sol\":3862:3890  _transfer(owner, to, amount) */\n      tag_277\n        /* \"@openzeppelin/contracts/token/ERC20/ERC20.sol\":3872:3877  owner */\n      dup2\n        /* \"@openzeppelin/contracts/token/ERC20/ERC20.sol\":3879:3881  to */\n      dup6\n        /* \"@openzeppelin/contracts/token/ERC20/ERC20.sol\":3883:3889  amount */\n      dup6\n        /* \"@openzeppelin/contracts/token/ERC20/ERC20.sol\":3862:3871  _transfer */\n      tag_169\n        /* \"@openzeppelin/contracts/token/ERC20/ERC20.sol\":3862:3890  _transfer(owner, to, amount) */\n      jump\t// in\n    tag_277:\n        /* \"@openzeppelin/contracts/token/ERC20/ERC20.sol\":3907:3911  true */\n      0x01\n        /* \"@openzeppelin/contracts/token/ERC20/ERC20.sol\":3900:3911  return true */\n      swap2\n      pop\n      pop\n        /* \"@openzeppelin/contracts/token/ERC20/ERC20.sol\":3729:3918  function transfer(address to, uint256 amount) public virtual override returns (bool) {... */\n      swap3\n      swap2\n      pop\n      pop\n      jump\t// out\n        /* \"contracts/Pair.sol\":6140:6265  function ethForTokenImplicit(uint256 tokenAmount) public payable {\r... */\n    tag_125:\n        /* \"contracts/Pair.sol\":6216:6257  ethForTokenBasic(tokenAmount, msg.sender) */\n      tag_279\n        /* \"contracts/Pair.sol\":6233:6244  tokenAmount */\n      dup2\n        /* \"contracts/Pair.sol\":6246:6256  msg.sender */\n      caller\n        /* \"contracts/Pair.sol\":6216:6232  ethForTokenBasic */\n      tag_234\n        /* \"contracts/Pair.sol\":6216:6257  ethForTokenBasic(tokenAmount, msg.sender) */\n      jump\t// in\n    tag_279:\n        /* \"contracts/Pair.sol\":6140:6265  function ethForTokenImplicit(uint256 tokenAmount) public payable {\r... */\n      pop\n      jump\t// out\n        /* \"@openzeppelin/contracts/token/ERC20/ERC20.sol\":3976:4125  function allowance(address owner, address spender) public view virtual override returns (uint256) {... */\n    tag_130:\n        /* \"@openzeppelin/contracts/token/ERC20/ERC20.sol\":4065:4072  uint256 */\n      0x00\n        /* \"@openzeppelin/contracts/token/ERC20/ERC20.sol\":4091:4102  _allowances */\n      0x01\n        /* \"@openzeppelin/contracts/token/ERC20/ERC20.sol\":4091:4109  _allowances[owner] */\n      0x00\n        /* \"@openzeppelin/contracts/token/ERC20/ERC20.sol\":4103:4108  owner */\n      dup5\n        /* \"@openzeppelin/contracts/token/ERC20/ERC20.sol\":4091:4109  _allowances[owner] */\n      0xffffffffffffffffffffffffffffffffffffffff\n      and\n      0xffffffffffffffffffffffffffffffffffffffff\n      and\n      dup2\n      mstore\n      0x20\n      add\n      swap1\n      dup2\n      mstore\n      0x20\n      add\n      0x00\n      keccak256\n        /* \"@openzeppelin/contracts/token/ERC20/ERC20.sol\":4091:4118  _allowances[owner][spender] */\n      0x00\n        /* \"@openzeppelin/contracts/token/ERC20/ERC20.sol\":4110:4117  spender */\n      dup4\n        /* \"@openzeppelin/contracts/token/ERC20/ERC20.sol\":4091:4118  _allowances[owner][spender] */\n      0xffffffffffffffffffffffffffffffffffffffff\n      and\n      0xffffffffffffffffffffffffffffffffffffffff\n      and\n      dup2\n      mstore\n      0x20\n      add\n      swap1\n      dup2\n      mstore\n      0x20\n      add\n      0x00\n      keccak256\n      sload\n        /* \"@openzeppelin/contracts/token/ERC20/ERC20.sol\":4084:4118  return _allowances[owner][spender] */\n      swap1\n      pop\n        /* \"@openzeppelin/contracts/token/ERC20/ERC20.sol\":3976:4125  function allowance(address owner, address spender) public view virtual override returns (uint256) {... */\n      swap3\n      swap2\n      pop\n      pop\n      jump\t// out\n        /* \"contracts/Pair.sol\":6940:7204  function tokenToTokenSwap(uint256 ipTokenAmount, uint256 opTokenAmount, address opTokenAddress) public {\r... */\n    tag_136:\n        /* \"contracts/Pair.sol\":7088:7089  0 */\n      0x00\n        /* \"contracts/Pair.sol\":7062:7090  opTokenAddress != address(0) */\n      0xffffffffffffffffffffffffffffffffffffffff\n      and\n        /* \"contracts/Pair.sol\":7062:7076  opTokenAddress */\n      dup2\n        /* \"contracts/Pair.sol\":7062:7090  opTokenAddress != address(0) */\n      0xffffffffffffffffffffffffffffffffffffffff\n      and\n      eq\n      iszero\n        /* \"contracts/Pair.sol\":7054:7119  require(opTokenAddress != address(0), \"Token address is invalid\") */\n      tag_282\n      jumpi\n      mload(0x40)\n      0x08c379a000000000000000000000000000000000000000000000000000000000\n      dup2\n      mstore\n      0x04\n      add\n      tag_283\n      swap1\n      tag_284\n      jump\t// in\n    tag_283:\n      mload(0x40)\n      dup1\n      swap2\n      sub\n      swap1\n      revert\n    tag_282:\n        /* \"contracts/Pair.sol\":7154:7155  0 */\n      0x00\n        /* \"contracts/Pair.sol\":7138:7151  ipTokenAmount */\n      dup4\n        /* \"contracts/Pair.sol\":7138:7155  ipTokenAmount > 0 */\n      gt\n        /* \"contracts/Pair.sol\":7130:7186  require(ipTokenAmount > 0, \"Invalid input token amount\") */\n      tag_285\n      jumpi\n      mload(0x40)\n      0x08c379a000000000000000000000000000000000000000000000000000000000\n      dup2\n      mstore\n      0x04\n      add\n      tag_286\n      swap1\n      tag_287\n      jump\t// in\n    tag_286:\n      mload(0x40)\n      dup1\n      swap2\n      sub\n      swap1\n      revert\n    tag_285:\n        /* \"contracts/Pair.sol\":6940:7204  function tokenToTokenSwap(uint256 ipTokenAmount, uint256 opTokenAmount, address opTokenAddress) public {\r... */\n      pop\n      pop\n      pop\n      jump\t// out\n        /* \"@openzeppelin/contracts/utils/Context.sol\":640:736  function _msgSender() internal view virtual returns (address) {... */\n    tag_153:\n        /* \"@openzeppelin/contracts/utils/Context.sol\":693:700  address */\n      0x00\n        /* \"@openzeppelin/contracts/utils/Context.sol\":719:729  msg.sender */\n      caller\n        /* \"@openzeppelin/contracts/utils/Context.sol\":712:729  return msg.sender */\n      swap1\n      pop\n        /* \"@openzeppelin/contracts/utils/Context.sol\":640:736  function _msgSender() internal view virtual returns (address) {... */\n      swap1\n      jump\t// out\n        /* \"@openzeppelin/contracts/token/ERC20/ERC20.sol\":10110:10480  function _approve(... */\n    tag_155:\n        /* \"@openzeppelin/contracts/token/ERC20/ERC20.sol\":10258:10259  0 */\n      0x00\n        /* \"@openzeppelin/contracts/token/ERC20/ERC20.sol\":10241:10260  owner != address(0) */\n      0xffffffffffffffffffffffffffffffffffffffff\n      and\n        /* \"@openzeppelin/contracts/token/ERC20/ERC20.sol\":10241:10246  owner */\n      dup4\n        /* \"@openzeppelin/contracts/token/ERC20/ERC20.sol\":10241:10260  owner != address(0) */\n      0xffffffffffffffffffffffffffffffffffffffff\n      and\n      eq\n      iszero\n        /* \"@openzeppelin/contracts/token/ERC20/ERC20.sol\":10233:10301  require(owner != address(0), \"ERC20: approve from the zero address\") */\n      tag_290\n      jumpi\n      mload(0x40)\n      0x08c379a000000000000000000000000000000000000000000000000000000000\n      dup2\n      mstore\n      0x04\n      add\n      tag_291\n      swap1\n      tag_292\n      jump\t// in\n    tag_291:\n      mload(0x40)\n      dup1\n      swap2\n      sub\n      swap1\n      revert\n    tag_290:\n        /* \"@openzeppelin/contracts/token/ERC20/ERC20.sol\":10338:10339  0 */\n      0x00\n        /* \"@openzeppelin/contracts/token/ERC20/ERC20.sol\":10319:10340  spender != address(0) */\n      0xffffffffffffffffffffffffffffffffffffffff\n      and\n        /* \"@openzeppelin/contracts/token/ERC20/ERC20.sol\":10319:10326  spender */\n      dup3\n        /* \"@openzeppelin/contracts/token/ERC20/ERC20.sol\":10319:10340  spender != address(0) */\n      0xffffffffffffffffffffffffffffffffffffffff\n      and\n      eq\n      iszero\n        /* \"@openzeppelin/contracts/token/ERC20/ERC20.sol\":10311:10379  require(spender != address(0), \"ERC20: approve to the zero address\") */\n      tag_293\n      jumpi\n      mload(0x40)\n      0x08c379a000000000000000000000000000000000000000000000000000000000\n      dup2\n      mstore\n      0x04\n      add\n      tag_294\n      swap1\n      tag_295\n      jump\t// in\n    tag_294:\n      mload(0x40)\n      dup1\n      swap2\n      sub\n      swap1\n      revert\n    tag_293:\n        /* \"@openzeppelin/contracts/token/ERC20/ERC20.sol\":10420:10426  amount */\n      dup1\n        /* \"@openzeppelin/contracts/token/ERC20/ERC20.sol\":10390:10401  _allowances */\n      0x01\n        /* \"@openzeppelin/contracts/token/ERC20/ERC20.sol\":10390:10408  _allowances[owner] */\n      0x00\n        /* \"@openzeppelin/contracts/token/ERC20/ERC20.sol\":10402:10407  owner */\n      dup6\n        /* \"@openzeppelin/contracts/token/ERC20/ERC20.sol\":10390:10408  _allowances[owner] */\n      0xffffffffffffffffffffffffffffffffffffffff\n      and\n      0xffffffffffffffffffffffffffffffffffffffff\n      and\n      dup2\n      mstore\n      0x20\n      add\n      swap1\n      dup2\n      mstore\n      0x20\n      add\n      0x00\n      keccak256\n        /* \"@openzeppelin/contracts/token/ERC20/ERC20.sol\":10390:10417  _allowances[owner][spender] */\n      0x00\n        /* \"@openzeppelin/contracts/token/ERC20/ERC20.sol\":10409:10416  spender */\n      dup5\n        /* \"@openzeppelin/contracts/token/ERC20/ERC20.sol\":10390:10417  _allowances[owner][spender] */\n      0xffffffffffffffffffffffffffffffffffffffff\n      and\n      0xffffffffffffffffffffffffffffffffffffffff\n      and\n      dup2\n      mstore\n      0x20\n      add\n      swap1\n      dup2\n      mstore\n      0x20\n      add\n      0x00\n      keccak256\n        /* \"@openzeppelin/contracts/token/ERC20/ERC20.sol\":10390:10426  _allowances[owner][spender] = amount */\n      dup2\n      swap1\n      sstore\n      pop\n        /* \"@openzeppelin/contracts/token/ERC20/ERC20.sol\":10457:10464  spender */\n      dup2\n        /* \"@openzeppelin/contracts/token/ERC20/ERC20.sol\":10441:10473  Approval(owner, spender, amount) */\n      0xffffffffffffffffffffffffffffffffffffffff\n      and\n        /* \"@openzeppelin/contracts/token/ERC20/ERC20.sol\":10450:10455  owner */\n      dup4\n        /* \"@openzeppelin/contracts/token/ERC20/ERC20.sol\":10441:10473  Approval(owner, spender, amount) */\n      0xffffffffffffffffffffffffffffffffffffffff\n      and\n      0x8c5be1e5ebec7d5bd14f71427d1e84f3dd0314c0f7b2291e5b200ac8c7c3b925\n        /* \"@openzeppelin/contracts/token/ERC20/ERC20.sol\":10466:10472  amount */\n      dup4\n        /* \"@openzeppelin/contracts/token/ERC20/ERC20.sol\":10441:10473  Approval(owner, spender, amount) */\n      mload(0x40)\n      tag_296\n      swap2\n      swap1\n      tag_50\n      jump\t// in\n    tag_296:\n      mload(0x40)\n      dup1\n      swap2\n      sub\n      swap1\n      log3\n        /* \"@openzeppelin/contracts/token/ERC20/ERC20.sol\":10110:10480  function _approve(... */\n      pop\n      pop\n      pop\n      jump\t// out\n        /* \"contracts/Pair.sol\":4120:4474  function getOutputAmount(uint256 ipAmount, uint256 ipReserve, uint256 opReserve) private pure returns (uint256 opAmount) {\r... */\n    tag_162:\n        /* \"contracts/Pair.sol\":4223:4239  uint256 opAmount */\n      0x00\n        /* \"contracts/Pair.sol\":4272:4273  0 */\n      dup1\n        /* \"contracts/Pair.sol\":4260:4269  ipReserve */\n      dup4\n        /* \"contracts/Pair.sol\":4260:4273  ipReserve > 0 */\n      gt\n        /* \"contracts/Pair.sol\":4260:4290  ipReserve > 0 && opReserve > 0 */\n      dup1\n      iszero\n      tag_298\n      jumpi\n      pop\n        /* \"contracts/Pair.sol\":4289:4290  0 */\n      0x00\n        /* \"contracts/Pair.sol\":4277:4286  opReserve */\n      dup3\n        /* \"contracts/Pair.sol\":4277:4290  opReserve > 0 */\n      gt\n        /* \"contracts/Pair.sol\":4260:4290  ipReserve > 0 && opReserve > 0 */\n    tag_298:\n        /* \"contracts/Pair.sol\":4252:4316  require(ipReserve > 0 && opReserve > 0, \"There are no reserves\") */\n      tag_299\n      jumpi\n      mload(0x40)\n      0x08c379a000000000000000000000000000000000000000000000000000000000\n      dup2\n      mstore\n      0x04\n      add\n      tag_300\n      swap1\n      tag_301\n      jump\t// in\n    tag_300:\n      mload(0x40)\n      dup1\n      swap2\n      sub\n      swap1\n      revert\n    tag_299:\n        /* \"contracts/Pair.sol\":4327:4350  uint256 ipAmountPlusFee */\n      0x00\n        /* \"contracts/Pair.sol\":1529:1530  0 */\n      dup1\n        /* \"contracts/Pair.sol\":4365:4369  1000 */\n      0x03e8\n        /* \"contracts/Pair.sol\":4365:4377  1000 - txFee */\n      tag_302\n      swap2\n      swap1\n      tag_194\n      jump\t// in\n    tag_302:\n        /* \"contracts/Pair.sol\":4353:4361  ipAmount */\n      dup6\n        /* \"contracts/Pair.sol\":4353:4378  ipAmount * (1000 - txFee) */\n      tag_303\n      swap2\n      swap1\n      tag_196\n      jump\t// in\n    tag_303:\n        /* \"contracts/Pair.sol\":4327:4378  uint256 ipAmountPlusFee = ipAmount * (1000 - txFee) */\n      swap1\n      pop\n        /* \"contracts/Pair.sol\":4450:4465  ipAmountPlusFee */\n      dup1\n        /* \"contracts/Pair.sol\":4438:4447  ipReserve */\n      dup5\n        /* \"contracts/Pair.sol\":4431:4435  1000 */\n      0x03e8\n        /* \"contracts/Pair.sol\":4431:4447  1000 * ipReserve */\n      tag_304\n      swap2\n      swap1\n      tag_196\n      jump\t// in\n    tag_304:\n        /* \"contracts/Pair.sol\":4431:4465  1000 * ipReserve + ipAmountPlusFee */\n      tag_305\n      swap2\n      swap1\n      tag_181\n      jump\t// in\n    tag_305:\n        /* \"contracts/Pair.sol\":4418:4427  opReserve */\n      dup4\n        /* \"contracts/Pair.sol\":4400:4415  ipAmountPlusFee */\n      dup3\n        /* \"contracts/Pair.sol\":4400:4427  ipAmountPlusFee * opReserve */\n      tag_306\n      swap2\n      swap1\n      tag_196\n      jump\t// in\n    tag_306:\n        /* \"contracts/Pair.sol\":4400:4466  ipAmountPlusFee * opReserve / (1000 * ipReserve + ipAmountPlusFee) */\n      tag_307\n      swap2\n      swap1\n      tag_198\n      jump\t// in\n    tag_307:\n        /* \"contracts/Pair.sol\":4389:4466  opAmount = ipAmountPlusFee * opReserve / (1000 * ipReserve + ipAmountPlusFee) */\n      swap2\n      pop\n        /* \"contracts/Pair.sol\":4241:4474  {\r... */\n      pop\n        /* \"contracts/Pair.sol\":4120:4474  function getOutputAmount(uint256 ipAmount, uint256 ipReserve, uint256 opReserve) private pure returns (uint256 opAmount) {\r... */\n      swap4\n      swap3\n      pop\n      pop\n      pop\n      jump\t// out\n        /* \"@openzeppelin/contracts/token/ERC20/ERC20.sol\":10761:11202  function _spendAllowance(... */\n    tag_167:\n        /* \"@openzeppelin/contracts/token/ERC20/ERC20.sol\":10891:10915  uint256 currentAllowance */\n      0x00\n        /* \"@openzeppelin/contracts/token/ERC20/ERC20.sol\":10918:10943  allowance(owner, spender) */\n      tag_309\n        /* \"@openzeppelin/contracts/token/ERC20/ERC20.sol\":10928:10933  owner */\n      dup5\n        /* \"@openzeppelin/contracts/token/ERC20/ERC20.sol\":10935:10942  spender */\n      dup5\n        /* \"@openzeppelin/contracts/token/ERC20/ERC20.sol\":10918:10927  allowance */\n      tag_130\n        /* \"@openzeppelin/contracts/token/ERC20/ERC20.sol\":10918:10943  allowance(owner, spender) */\n      jump\t// in\n    tag_309:\n        /* \"@openzeppelin/contracts/token/ERC20/ERC20.sol\":10891:10943  uint256 currentAllowance = allowance(owner, spender) */\n      swap1\n      pop\n        /* \"@openzeppelin/contracts/token/ERC20/ERC20.sol\":10977:10994  type(uint256).max */\n      0xffffffffffffffffffffffffffffffffffffffffffffffffffffffffffffffff\n        /* \"@openzeppelin/contracts/token/ERC20/ERC20.sol\":10957:10973  currentAllowance */\n      dup2\n        /* \"@openzeppelin/contracts/token/ERC20/ERC20.sol\":10957:10994  currentAllowance != type(uint256).max */\n      eq\n        /* \"@openzeppelin/contracts/token/ERC20/ERC20.sol\":10953:11196  if (currentAllowance != type(uint256).max) {... */\n      tag_310\n      jumpi\n        /* \"@openzeppelin/contracts/token/ERC20/ERC20.sol\":11038:11044  amount */\n      dup2\n        /* \"@openzeppelin/contracts/token/ERC20/ERC20.sol\":11018:11034  currentAllowance */\n      dup2\n        /* \"@openzeppelin/contracts/token/ERC20/ERC20.sol\":11018:11044  currentAllowance >= amount */\n      lt\n      iszero\n        /* \"@openzeppelin/contracts/token/ERC20/ERC20.sol\":11010:11078  require(currentAllowance >= amount, \"ERC20: insufficient allowance\") */\n      tag_311\n      jumpi\n      mload(0x40)\n      0x08c379a000000000000000000000000000000000000000000000000000000000\n      dup2\n      mstore\n      0x04\n      add\n      tag_312\n      swap1\n      tag_313\n      jump\t// in\n    tag_312:\n      mload(0x40)\n      dup1\n      swap2\n      sub\n      swap1\n      revert\n    tag_311:\n        /* \"@openzeppelin/contracts/token/ERC20/ERC20.sol\":11120:11171  _approve(owner, spender, currentAllowance - amount) */\n      tag_314\n        /* \"@openzeppelin/contracts/token/ERC20/ERC20.sol\":11129:11134  owner */\n      dup5\n        /* \"@openzeppelin/contracts/token/ERC20/ERC20.sol\":11136:11143  spender */\n      dup5\n        /* \"@openzeppelin/contracts/token/ERC20/ERC20.sol\":11164:11170  amount */\n      dup5\n        /* \"@openzeppelin/contracts/token/ERC20/ERC20.sol\":11145:11161  currentAllowance */\n      dup5\n        /* \"@openzeppelin/contracts/token/ERC20/ERC20.sol\":11145:11170  currentAllowance - amount */\n      sub\n        /* \"@openzeppelin/contracts/token/ERC20/ERC20.sol\":11120:11128  _approve */\n      tag_155\n        /* \"@openzeppelin/contracts/token/ERC20/ERC20.sol\":11120:11171  _approve(owner, spender, currentAllowance - amount) */\n      jump\t// in\n    tag_314:\n        /* \"@openzeppelin/contracts/token/ERC20/ERC20.sol\":10953:11196  if (currentAllowance != type(uint256).max) {... */\n    tag_310:\n        /* \"@openzeppelin/contracts/token/ERC20/ERC20.sol\":10881:11202  {... */\n      pop\n        /* \"@openzeppelin/contracts/token/ERC20/ERC20.sol\":10761:11202  function _spendAllowance(... */\n      pop\n      pop\n      pop\n      jump\t// out\n        /* \"@openzeppelin/contracts/token/ERC20/ERC20.sol\":7475:8126  function _transfer(... */\n    tag_169:\n        /* \"@openzeppelin/contracts/token/ERC20/ERC20.sol\":7617:7618  0 */\n      0x00\n        /* \"@openzeppelin/contracts/token/ERC20/ERC20.sol\":7601:7619  from != address(0) */\n      0xffffffffffffffffffffffffffffffffffffffff\n      and\n        /* \"@openzeppelin/contracts/token/ERC20/ERC20.sol\":7601:7605  from */\n      dup4\n        /* \"@openzeppelin/contracts/token/ERC20/ERC20.sol\":7601:7619  from != address(0) */\n      0xffffffffffffffffffffffffffffffffffffffff\n      and\n      eq\n      iszero\n        /* \"@openzeppelin/contracts/token/ERC20/ERC20.sol\":7593:7661  require(from != address(0), \"ERC20: transfer from the zero address\") */\n      tag_316\n      jumpi\n      mload(0x40)\n      0x08c379a000000000000000000000000000000000000000000000000000000000\n      dup2\n      mstore\n      0x04\n      add\n      tag_317\n      swap1\n      tag_318\n      jump\t// in\n    tag_317:\n      mload(0x40)\n      dup1\n      swap2\n      sub\n      swap1\n      revert\n    tag_316:\n        /* \"@openzeppelin/contracts/token/ERC20/ERC20.sol\":7693:7694  0 */\n      0x00\n        /* \"@openzeppelin/contracts/token/ERC20/ERC20.sol\":7679:7695  to != address(0) */\n      0xffffffffffffffffffffffffffffffffffffffff\n      and\n        /* \"@openzeppelin/contracts/token/ERC20/ERC20.sol\":7679:7681  to */\n      dup3\n        /* \"@openzeppelin/contracts/token/ERC20/ERC20.sol\":7679:7695  to != address(0) */\n      0xffffffffffffffffffffffffffffffffffffffff\n      and\n      eq\n      iszero\n        /* \"@openzeppelin/contracts/token/ERC20/ERC20.sol\":7671:7735  require(to != address(0), \"ERC20: transfer to the zero address\") */\n      tag_319\n      jumpi\n      mload(0x40)\n      0x08c379a000000000000000000000000000000000000000000000000000000000\n      dup2\n      mstore\n      0x04\n      add\n      tag_320\n      swap1\n      tag_321\n      jump\t// in\n    tag_320:\n      mload(0x40)\n      dup1\n      swap2\n      sub\n      swap1\n      revert\n    tag_319:\n        /* \"@openzeppelin/contracts/token/ERC20/ERC20.sol\":7746:7784  _beforeTokenTransfer(from, to, amount) */\n      tag_322\n        /* \"@openzeppelin/contracts/token/ERC20/ERC20.sol\":7767:7771  from */\n      dup4\n        /* \"@openzeppelin/contracts/token/ERC20/ERC20.sol\":7773:7775  to */\n      dup4\n        /* \"@openzeppelin/contracts/token/ERC20/ERC20.sol\":7777:7783  amount */\n      dup4\n        /* \"@openzeppelin/contracts/token/ERC20/ERC20.sol\":7746:7766  _beforeTokenTransfer */\n      tag_323\n        /* \"@openzeppelin/contracts/token/ERC20/ERC20.sol\":7746:7784  _beforeTokenTransfer(from, to, amount) */\n      jump\t// in\n    tag_322:\n        /* \"@openzeppelin/contracts/token/ERC20/ERC20.sol\":7795:7814  uint256 fromBalance */\n      0x00\n        /* \"@openzeppelin/contracts/token/ERC20/ERC20.sol\":7817:7826  _balances */\n      dup1\n        /* \"@openzeppelin/contracts/token/ERC20/ERC20.sol\":7817:7832  _balances[from] */\n      0x00\n        /* \"@openzeppelin/contracts/token/ERC20/ERC20.sol\":7827:7831  from */\n      dup6\n        /* \"@openzeppelin/contracts/token/ERC20/ERC20.sol\":7817:7832  _balances[from] */\n      0xffffffffffffffffffffffffffffffffffffffff\n      and\n      0xffffffffffffffffffffffffffffffffffffffff\n      and\n      dup2\n      mstore\n      0x20\n      add\n      swap1\n      dup2\n      mstore\n      0x20\n      add\n      0x00\n      keccak256\n      sload\n        /* \"@openzeppelin/contracts/token/ERC20/ERC20.sol\":7795:7832  uint256 fromBalance = _balances[from] */\n      swap1\n      pop\n        /* \"@openzeppelin/contracts/token/ERC20/ERC20.sol\":7865:7871  amount */\n      dup2\n        /* \"@openzeppelin/contracts/token/ERC20/ERC20.sol\":7850:7861  fromBalance */\n      dup2\n        /* \"@openzeppelin/contracts/token/ERC20/ERC20.sol\":7850:7871  fromBalance >= amount */\n      lt\n      iszero\n        /* \"@openzeppelin/contracts/token/ERC20/ERC20.sol\":7842:7914  require(fromBalance >= amount, \"ERC20: transfer amount exceeds balance\") */\n      tag_324\n      jumpi\n      mload(0x40)\n      0x08c379a000000000000000000000000000000000000000000000000000000000\n      dup2\n      mstore\n      0x04\n      add\n      tag_325\n      swap1\n      tag_326\n      jump\t// in\n    tag_325:\n      mload(0x40)\n      dup1\n      swap2\n      sub\n      swap1\n      revert\n    tag_324:\n        /* \"@openzeppelin/contracts/token/ERC20/ERC20.sol\":7980:7986  amount */\n      dup2\n        /* \"@openzeppelin/contracts/token/ERC20/ERC20.sol\":7966:7977  fromBalance */\n      dup2\n        /* \"@openzeppelin/contracts/token/ERC20/ERC20.sol\":7966:7986  fromBalance - amount */\n      sub\n        /* \"@openzeppelin/contracts/token/ERC20/ERC20.sol\":7948:7957  _balances */\n      0x00\n        /* \"@openzeppelin/contracts/token/ERC20/ERC20.sol\":7948:7963  _balances[from] */\n      dup1\n        /* \"@openzeppelin/contracts/token/ERC20/ERC20.sol\":7958:7962  from */\n      dup7\n        /* \"@openzeppelin/contracts/token/ERC20/ERC20.sol\":7948:7963  _balances[from] */\n      0xffffffffffffffffffffffffffffffffffffffff\n      and\n      0xffffffffffffffffffffffffffffffffffffffff\n      and\n      dup2\n      mstore\n      0x20\n      add\n      swap1\n      dup2\n      mstore\n      0x20\n      add\n      0x00\n      keccak256\n        /* \"@openzeppelin/contracts/token/ERC20/ERC20.sol\":7948:7986  _balances[from] = fromBalance - amount */\n      dup2\n      swap1\n      sstore\n      pop\n        /* \"@openzeppelin/contracts/token/ERC20/ERC20.sol\":8023:8029  amount */\n      dup2\n        /* \"@openzeppelin/contracts/token/ERC20/ERC20.sol\":8006:8015  _balances */\n      0x00\n        /* \"@openzeppelin/contracts/token/ERC20/ERC20.sol\":8006:8019  _balances[to] */\n      dup1\n        /* \"@openzeppelin/contracts/token/ERC20/ERC20.sol\":8016:8018  to */\n      dup6\n        /* \"@openzeppelin/contracts/token/ERC20/ERC20.sol\":8006:8019  _balances[to] */\n      0xffffffffffffffffffffffffffffffffffffffff\n      and\n      0xffffffffffffffffffffffffffffffffffffffff\n      and\n      dup2\n      mstore\n      0x20\n      add\n      swap1\n      dup2\n      mstore\n      0x20\n      add\n      0x00\n      keccak256\n      0x00\n        /* \"@openzeppelin/contracts/token/ERC20/ERC20.sol\":8006:8029  _balances[to] += amount */\n      dup3\n      dup3\n      sload\n      tag_327\n      swap2\n      swap1\n      tag_181\n      jump\t// in\n    tag_327:\n      swap3\n      pop\n      pop\n      dup2\n      swap1\n      sstore\n      pop\n        /* \"@openzeppelin/contracts/token/ERC20/ERC20.sol\":8060:8062  to */\n      dup3\n        /* \"@openzeppelin/contracts/token/ERC20/ERC20.sol\":8045:8071  Transfer(from, to, amount) */\n      0xffffffffffffffffffffffffffffffffffffffff\n      and\n        /* \"@openzeppelin/contracts/token/ERC20/ERC20.sol\":8054:8058  from */\n      dup5\n        /* \"@openzeppelin/contracts/token/ERC20/ERC20.sol\":8045:8071  Transfer(from, to, amount) */\n      0xffffffffffffffffffffffffffffffffffffffff\n      and\n      0xddf252ad1be2c89b69c2b068fc378daa952ba7f163c4a11628f55a4df523b3ef\n        /* \"@openzeppelin/contracts/token/ERC20/ERC20.sol\":8064:8070  amount */\n      dup5\n        /* \"@openzeppelin/contracts/token/ERC20/ERC20.sol\":8045:8071  Transfer(from, to, amount) */\n      mload(0x40)\n      tag_328\n      swap2\n      swap1\n      tag_50\n      jump\t// in\n    tag_328:\n      mload(0x40)\n      dup1\n      swap2\n      sub\n      swap1\n      log3\n        /* \"@openzeppelin/contracts/token/ERC20/ERC20.sol\":8082:8119  _afterTokenTransfer(from, to, amount) */\n      tag_329\n        /* \"@openzeppelin/contracts/token/ERC20/ERC20.sol\":8102:8106  from */\n      dup5\n        /* \"@openzeppelin/contracts/token/ERC20/ERC20.sol\":8108:8110  to */\n      dup5\n        /* \"@openzeppelin/contracts/token/ERC20/ERC20.sol\":8112:8118  amount */\n      dup5\n        /* \"@openzeppelin/contracts/token/ERC20/ERC20.sol\":8082:8101  _afterTokenTransfer */\n      tag_330\n        /* \"@openzeppelin/contracts/token/ERC20/ERC20.sol\":8082:8119  _afterTokenTransfer(from, to, amount) */\n      jump\t// in\n    tag_329:\n        /* \"@openzeppelin/contracts/token/ERC20/ERC20.sol\":7583:8126  {... */\n      pop\n        /* \"@openzeppelin/contracts/token/ERC20/ERC20.sol\":7475:8126  function _transfer(... */\n      pop\n      pop\n      pop\n      jump\t// out\n        /* \"@openzeppelin/contracts/token/ERC20/ERC20.sol\":8402:8791  function _mint(address account, uint256 amount) internal virtual {... */\n    tag_211:\n        /* \"@openzeppelin/contracts/token/ERC20/ERC20.sol\":8504:8505  0 */\n      0x00\n        /* \"@openzeppelin/contracts/token/ERC20/ERC20.sol\":8485:8506  account != address(0) */\n      0xffffffffffffffffffffffffffffffffffffffff\n      and\n        /* \"@openzeppelin/contracts/token/ERC20/ERC20.sol\":8485:8492  account */\n      dup3\n        /* \"@openzeppelin/contracts/token/ERC20/ERC20.sol\":8485:8506  account != address(0) */\n      0xffffffffffffffffffffffffffffffffffffffff\n      and\n      eq\n      iszero\n        /* \"@openzeppelin/contracts/token/ERC20/ERC20.sol\":8477:8542  require(account != address(0), \"ERC20: mint to the zero address\") */\n      tag_332\n      jumpi\n      mload(0x40)\n      0x08c379a000000000000000000000000000000000000000000000000000000000\n      dup2\n      mstore\n      0x04\n      add\n      tag_333\n      swap1\n      tag_334\n      jump\t// in\n    tag_333:\n      mload(0x40)\n      dup1\n      swap2\n      sub\n      swap1\n      revert\n    tag_332:\n        /* \"@openzeppelin/contracts/token/ERC20/ERC20.sol\":8553:8602  _beforeTokenTransfer(address(0), account, amount) */\n      tag_335\n        /* \"@openzeppelin/contracts/token/ERC20/ERC20.sol\":8582:8583  0 */\n      0x00\n        /* \"@openzeppelin/contracts/token/ERC20/ERC20.sol\":8586:8593  account */\n      dup4\n        /* \"@openzeppelin/contracts/token/ERC20/ERC20.sol\":8595:8601  amount */\n      dup4\n        /* \"@openzeppelin/contracts/token/ERC20/ERC20.sol\":8553:8573  _beforeTokenTransfer */\n      tag_323\n        /* \"@openzeppelin/contracts/token/ERC20/ERC20.sol\":8553:8602  _beforeTokenTransfer(address(0), account, amount) */\n      jump\t// in\n    tag_335:\n        /* \"@openzeppelin/contracts/token/ERC20/ERC20.sol\":8629:8635  amount */\n      dup1\n        /* \"@openzeppelin/contracts/token/ERC20/ERC20.sol\":8613:8625  _totalSupply */\n      0x02\n      0x00\n        /* \"@openzeppelin/contracts/token/ERC20/ERC20.sol\":8613:8635  _totalSupply += amount */\n      dup3\n      dup3\n      sload\n      tag_336\n      swap2\n      swap1\n      tag_181\n      jump\t// in\n    tag_336:\n      swap3\n      pop\n      pop\n      dup2\n      swap1\n      sstore\n      pop\n        /* \"@openzeppelin/contracts/token/ERC20/ERC20.sol\":8667:8673  amount */\n      dup1\n        /* \"@openzeppelin/contracts/token/ERC20/ERC20.sol\":8645:8654  _balances */\n      0x00\n        /* \"@openzeppelin/contracts/token/ERC20/ERC20.sol\":8645:8663  _balances[account] */\n      dup1\n        /* \"@openzeppelin/contracts/token/ERC20/ERC20.sol\":8655:8662  account */\n      dup5\n        /* \"@openzeppelin/contracts/token/ERC20/ERC20.sol\":8645:8663  _balances[account] */\n      0xffffffffffffffffffffffffffffffffffffffff\n      and\n      0xffffffffffffffffffffffffffffffffffffffff\n      and\n      dup2\n      mstore\n      0x20\n      add\n      swap1\n      dup2\n      mstore\n      0x20\n      add\n      0x00\n      keccak256\n      0x00\n        /* \"@openzeppelin/contracts/token/ERC20/ERC20.sol\":8645:8673  _balances[account] += amount */\n      dup3\n      dup3\n      sload\n      tag_337\n      swap2\n      swap1\n      tag_181\n      jump\t// in\n    tag_337:\n      swap3\n      pop\n      pop\n      dup2\n      swap1\n      sstore\n      pop\n        /* \"@openzeppelin/contracts/token/ERC20/ERC20.sol\":8709:8716  account */\n      dup2\n        /* \"@openzeppelin/contracts/token/ERC20/ERC20.sol\":8688:8725  Transfer(address(0), account, amount) */\n      0xffffffffffffffffffffffffffffffffffffffff\n      and\n        /* \"@openzeppelin/contracts/token/ERC20/ERC20.sol\":8705:8706  0 */\n      0x00\n        /* \"@openzeppelin/contracts/token/ERC20/ERC20.sol\":8688:8725  Transfer(address(0), account, amount) */\n      0xffffffffffffffffffffffffffffffffffffffff\n      and\n      0xddf252ad1be2c89b69c2b068fc378daa952ba7f163c4a11628f55a4df523b3ef\n        /* \"@openzeppelin/contracts/token/ERC20/ERC20.sol\":8718:8724  amount */\n      dup4\n        /* \"@openzeppelin/contracts/token/ERC20/ERC20.sol\":8688:8725  Transfer(address(0), account, amount) */\n      mload(0x40)\n      tag_338\n      swap2\n      swap1\n      tag_50\n      jump\t// in\n    tag_338:\n      mload(0x40)\n      dup1\n      swap2\n      sub\n      swap1\n      log3\n        /* \"@openzeppelin/contracts/token/ERC20/ERC20.sol\":8736:8784  _afterTokenTransfer(address(0), account, amount) */\n      tag_339\n        /* \"@openzeppelin/contracts/token/ERC20/ERC20.sol\":8764:8765  0 */\n      0x00\n        /* \"@openzeppelin/contracts/token/ERC20/ERC20.sol\":8768:8775  account */\n      dup4\n        /* \"@openzeppelin/contracts/token/ERC20/ERC20.sol\":8777:8783  amount */\n      dup4\n        /* \"@openzeppelin/contracts/token/ERC20/ERC20.sol\":8736:8755  _afterTokenTransfer */\n      tag_330\n        /* \"@openzeppelin/contracts/token/ERC20/ERC20.sol\":8736:8784  _afterTokenTransfer(address(0), account, amount) */\n      jump\t// in\n    tag_339:\n        /* \"@openzeppelin/contracts/token/ERC20/ERC20.sol\":8402:8791  function _mint(address account, uint256 amount) internal virtual {... */\n      pop\n      pop\n      jump\t// out\n        /* \"contracts/Pair.sol\":5367:5876  function ethForTokenBasic(uint256 tokenAmount, address recipient) private {\r... */\n    tag_234:\n        /* \"contracts/Pair.sol\":5453:5473  uint256 tokenReserve */\n      0x00\n        /* \"contracts/Pair.sol\":5475:5493  uint256 ethReserve */\n      dup1\n        /* \"contracts/Pair.sol\":5497:5510  getReserves() */\n      tag_341\n        /* \"contracts/Pair.sol\":5497:5508  getReserves */\n      tag_34\n        /* \"contracts/Pair.sol\":5497:5510  getReserves() */\n      jump\t// in\n    tag_341:\n        /* \"contracts/Pair.sol\":5452:5510  (uint256 tokenReserve, uint256 ethReserve) = getReserves() */\n      swap2\n      pop\n      swap2\n      pop\n        /* \"contracts/Pair.sol\":5521:5543  uint256 tokensRecieved */\n      0x00\n        /* \"contracts/Pair.sol\":5546:5610  getOutputAmount(msg.value, ethReserve - msg.value, tokenReserve) */\n      tag_342\n        /* \"contracts/Pair.sol\":5562:5571  msg.value */\n      callvalue\n        /* \"contracts/Pair.sol\":5586:5595  msg.value */\n      callvalue\n        /* \"contracts/Pair.sol\":5573:5583  ethReserve */\n      dup5\n        /* \"contracts/Pair.sol\":5573:5595  ethReserve - msg.value */\n      tag_343\n      swap2\n      swap1\n      tag_194\n      jump\t// in\n    tag_343:\n        /* \"contracts/Pair.sol\":5597:5609  tokenReserve */\n      dup6\n        /* \"contracts/Pair.sol\":5546:5561  getOutputAmount */\n      tag_162\n        /* \"contracts/Pair.sol\":5546:5610  getOutputAmount(msg.value, ethReserve - msg.value, tokenReserve) */\n      jump\t// in\n    tag_342:\n        /* \"contracts/Pair.sol\":5521:5610  uint256 tokensRecieved = getOutputAmount(msg.value, ethReserve - msg.value, tokenReserve) */\n      swap1\n      pop\n        /* \"contracts/Pair.sol\":5649:5660  tokenAmount */\n      dup5\n        /* \"contracts/Pair.sol\":5631:5645  tokensRecieved */\n      dup2\n        /* \"contracts/Pair.sol\":5631:5660  tokensRecieved >= tokenAmount */\n      lt\n      iszero\n        /* \"contracts/Pair.sol\":5623:5732  require(tokensRecieved >= tokenAmount, \"Amount swapped does not meet your stipulated amount, reverting swap\") */\n      tag_344\n      jumpi\n      mload(0x40)\n      0x08c379a000000000000000000000000000000000000000000000000000000000\n      dup2\n      mstore\n      0x04\n      add\n      tag_345\n      swap1\n      tag_217\n      jump\t// in\n    tag_345:\n      mload(0x40)\n      dup1\n      swap2\n      sub\n      swap1\n      revert\n    tag_344:\n        /* \"contracts/Pair.sol\":5752:5764  tokenAddress */\n      0x05\n      0x00\n      swap1\n      sload\n      swap1\n      0x0100\n      exp\n      swap1\n      div\n      0xffffffffffffffffffffffffffffffffffffffff\n      and\n        /* \"contracts/Pair.sol\":5745:5774  IERC20(tokenAddress).transfer */\n      0xffffffffffffffffffffffffffffffffffffffff\n      and\n      0xa9059cbb\n        /* \"contracts/Pair.sol\":5775:5784  recipient */\n      dup6\n        /* \"contracts/Pair.sol\":5786:5800  tokensRecieved */\n      dup4\n        /* \"contracts/Pair.sol\":5745:5801  IERC20(tokenAddress).transfer(recipient, tokensRecieved) */\n      mload(0x40)\n      dup4\n      0xffffffff\n      and\n      0xe0\n      shl\n      dup2\n      mstore\n      0x04\n      add\n      tag_346\n      swap3\n      swap2\n      swap1\n      tag_263\n      jump\t// in\n    tag_346:\n      0x20\n      mload(0x40)\n      dup1\n      dup4\n      sub\n      dup2\n      0x00\n      dup8\n      dup1\n      extcodesize\n      iszero\n      dup1\n      iszero\n      tag_347\n      jumpi\n      0x00\n      dup1\n      revert\n    tag_347:\n      pop\n      gas\n      call\n      iszero\n      dup1\n      iszero\n      tag_349\n      jumpi\n      returndatasize\n      0x00\n      dup1\n      returndatacopy\n      revert(0x00, returndatasize)\n    tag_349:\n      pop\n      pop\n      pop\n      pop\n      mload(0x40)\n      returndatasize\n      not(0x1f)\n      0x1f\n      dup3\n      add\n      and\n      dup3\n      add\n      dup1\n      0x40\n      mstore\n      pop\n      dup2\n      add\n      swap1\n      tag_350\n      swap2\n      swap1\n      tag_191\n      jump\t// in\n    tag_350:\n      pop\n        /* \"contracts/Pair.sol\":5842:5851  msg.value */\n      callvalue\n        /* \"contracts/Pair.sol\":5831:5840  recipient */\n      dup5\n        /* \"contracts/Pair.sol\":5817:5868  SwapForTokens(recipient, msg.value, tokensRecieved) */\n      0xffffffffffffffffffffffffffffffffffffffff\n      and\n      0x2ad51a6b79c1a35468e5cc340ef09004400e337e1d1149aab02294fdb7f8f055\n        /* \"contracts/Pair.sol\":5853:5867  tokensRecieved */\n      dup4\n        /* \"contracts/Pair.sol\":5817:5868  SwapForTokens(recipient, msg.value, tokensRecieved) */\n      mload(0x40)\n      tag_351\n      swap2\n      swap1\n      tag_50\n      jump\t// in\n    tag_351:\n      mload(0x40)\n      dup1\n      swap2\n      sub\n      swap1\n      log3\n        /* \"contracts/Pair.sol\":5441:5876  {\r... */\n      pop\n      pop\n      pop\n        /* \"contracts/Pair.sol\":5367:5876  function ethForTokenBasic(uint256 tokenAmount, address recipient) private {\r... */\n      pop\n      pop\n      jump\t// out\n        /* \"@openzeppelin/contracts/token/ERC20/ERC20.sol\":9111:9687  function _burn(address account, uint256 amount) internal virtual {... */\n    tag_254:\n        /* \"@openzeppelin/contracts/token/ERC20/ERC20.sol\":9213:9214  0 */\n      0x00\n        /* \"@openzeppelin/contracts/token/ERC20/ERC20.sol\":9194:9215  account != address(0) */\n      0xffffffffffffffffffffffffffffffffffffffff\n      and\n        /* \"@openzeppelin/contracts/token/ERC20/ERC20.sol\":9194:9201  account */\n      dup3\n        /* \"@openzeppelin/contracts/token/ERC20/ERC20.sol\":9194:9215  account != address(0) */\n      0xffffffffffffffffffffffffffffffffffffffff\n      and\n      eq\n      iszero\n        /* \"@openzeppelin/contracts/token/ERC20/ERC20.sol\":9186:9253  require(account != address(0), \"ERC20: burn from the zero address\") */\n      tag_353\n      jumpi\n      mload(0x40)\n      0x08c379a000000000000000000000000000000000000000000000000000000000\n      dup2\n      mstore\n      0x04\n      add\n      tag_354\n      swap1\n      tag_355\n      jump\t// in\n    tag_354:\n      mload(0x40)\n      dup1\n      swap2\n      sub\n      swap1\n      revert\n    tag_353:\n        /* \"@openzeppelin/contracts/token/ERC20/ERC20.sol\":9264:9313  _beforeTokenTransfer(account, address(0), amount) */\n      tag_356\n        /* \"@openzeppelin/contracts/token/ERC20/ERC20.sol\":9285:9292  account */\n      dup3\n        /* \"@openzeppelin/contracts/token/ERC20/ERC20.sol\":9302:9303  0 */\n      0x00\n        /* \"@openzeppelin/contracts/token/ERC20/ERC20.sol\":9306:9312  amount */\n      dup4\n        /* \"@openzeppelin/contracts/token/ERC20/ERC20.sol\":9264:9284  _beforeTokenTransfer */\n      tag_323\n        /* \"@openzeppelin/contracts/token/ERC20/ERC20.sol\":9264:9313  _beforeTokenTransfer(account, address(0), amount) */\n      jump\t// in\n    tag_356:\n        /* \"@openzeppelin/contracts/token/ERC20/ERC20.sol\":9324:9346  uint256 accountBalance */\n      0x00\n        /* \"@openzeppelin/contracts/token/ERC20/ERC20.sol\":9349:9358  _balances */\n      dup1\n        /* \"@openzeppelin/contracts/token/ERC20/ERC20.sol\":9349:9367  _balances[account] */\n      0x00\n        /* \"@openzeppelin/contracts/token/ERC20/ERC20.sol\":9359:9366  account */\n      dup5\n        /* \"@openzeppelin/contracts/token/ERC20/ERC20.sol\":9349:9367  _balances[account] */\n      0xffffffffffffffffffffffffffffffffffffffff\n      and\n      0xffffffffffffffffffffffffffffffffffffffff\n      and\n      dup2\n      mstore\n      0x20\n      add\n      swap1\n      dup2\n      mstore\n      0x20\n      add\n      0x00\n      keccak256\n      sload\n        /* \"@openzeppelin/contracts/token/ERC20/ERC20.sol\":9324:9367  uint256 accountBalance = _balances[account] */\n      swap1\n      pop\n        /* \"@openzeppelin/contracts/token/ERC20/ERC20.sol\":9403:9409  amount */\n      dup2\n        /* \"@openzeppelin/contracts/token/ERC20/ERC20.sol\":9385:9399  accountBalance */\n      dup2\n        /* \"@openzeppelin/contracts/token/ERC20/ERC20.sol\":9385:9409  accountBalance >= amount */\n      lt\n      iszero\n        /* \"@openzeppelin/contracts/token/ERC20/ERC20.sol\":9377:9448  require(accountBalance >= amount, \"ERC20: burn amount exceeds balance\") */\n      tag_357\n      jumpi\n      mload(0x40)\n      0x08c379a000000000000000000000000000000000000000000000000000000000\n      dup2\n      mstore\n      0x04\n      add\n      tag_358\n      swap1\n      tag_359\n      jump\t// in\n    tag_358:\n      mload(0x40)\n      dup1\n      swap2\n      sub\n      swap1\n      revert\n    tag_357:\n        /* \"@openzeppelin/contracts/token/ERC20/ERC20.sol\":9520:9526  amount */\n      dup2\n        /* \"@openzeppelin/contracts/token/ERC20/ERC20.sol\":9503:9517  accountBalance */\n      dup2\n        /* \"@openzeppelin/contracts/token/ERC20/ERC20.sol\":9503:9526  accountBalance - amount */\n      sub\n        /* \"@openzeppelin/contracts/token/ERC20/ERC20.sol\":9482:9491  _balances */\n      0x00\n        /* \"@openzeppelin/contracts/token/ERC20/ERC20.sol\":9482:9500  _balances[account] */\n      dup1\n        /* \"@openzeppelin/contracts/token/ERC20/ERC20.sol\":9492:9499  account */\n      dup6\n        /* \"@openzeppelin/contracts/token/ERC20/ERC20.sol\":9482:9500  _balances[account] */\n      0xffffffffffffffffffffffffffffffffffffffff\n      and\n      0xffffffffffffffffffffffffffffffffffffffff\n      and\n      dup2\n      mstore\n      0x20\n      add\n      swap1\n      dup2\n      mstore\n      0x20\n      add\n      0x00\n      keccak256\n        /* \"@openzeppelin/contracts/token/ERC20/ERC20.sol\":9482:9526  _balances[account] = accountBalance - amount */\n      dup2\n      swap1\n      sstore\n      pop\n        /* \"@openzeppelin/contracts/token/ERC20/ERC20.sol\":9562:9568  amount */\n      dup2\n        /* \"@openzeppelin/contracts/token/ERC20/ERC20.sol\":9546:9558  _totalSupply */\n      0x02\n      0x00\n        /* \"@openzeppelin/contracts/token/ERC20/ERC20.sol\":9546:9568  _totalSupply -= amount */\n      dup3\n      dup3\n      sload\n      tag_360\n      swap2\n      swap1\n      tag_194\n      jump\t// in\n    tag_360:\n      swap3\n      pop\n      pop\n      dup2\n      swap1\n      sstore\n      pop\n        /* \"@openzeppelin/contracts/token/ERC20/ERC20.sol\":9610:9611  0 */\n      0x00\n        /* \"@openzeppelin/contracts/token/ERC20/ERC20.sol\":9584:9621  Transfer(account, address(0), amount) */\n      0xffffffffffffffffffffffffffffffffffffffff\n      and\n        /* \"@openzeppelin/contracts/token/ERC20/ERC20.sol\":9593:9600  account */\n      dup4\n        /* \"@openzeppelin/contracts/token/ERC20/ERC20.sol\":9584:9621  Transfer(account, address(0), amount) */\n      0xffffffffffffffffffffffffffffffffffffffff\n      and\n      0xddf252ad1be2c89b69c2b068fc378daa952ba7f163c4a11628f55a4df523b3ef\n        /* \"@openzeppelin/contracts/token/ERC20/ERC20.sol\":9614:9620  amount */\n      dup5\n        /* \"@openzeppelin/contracts/token/ERC20/ERC20.sol\":9584:9621  Transfer(account, address(0), amount) */\n      mload(0x40)\n      tag_361\n      swap2\n      swap1\n      tag_50\n      jump\t// in\n    tag_361:\n      mload(0x40)\n      dup1\n      swap2\n      sub\n      swap1\n      log3\n        /* \"@openzeppelin/contracts/token/ERC20/ERC20.sol\":9632:9680  _afterTokenTransfer(account, address(0), amount) */\n      tag_362\n        /* \"@openzeppelin/contracts/token/ERC20/ERC20.sol\":9652:9659  account */\n      dup4\n        /* \"@openzeppelin/contracts/token/ERC20/ERC20.sol\":9669:9670  0 */\n      0x00\n        /* \"@openzeppelin/contracts/token/ERC20/ERC20.sol\":9673:9679  amount */\n      dup5\n        /* \"@openzeppelin/contracts/token/ERC20/ERC20.sol\":9632:9651  _afterTokenTransfer */\n      tag_330\n        /* \"@openzeppelin/contracts/token/ERC20/ERC20.sol\":9632:9680  _afterTokenTransfer(account, address(0), amount) */\n      jump\t// in\n    tag_362:\n        /* \"@openzeppelin/contracts/token/ERC20/ERC20.sol\":9176:9687  {... */\n      pop\n        /* \"@openzeppelin/contracts/token/ERC20/ERC20.sol\":9111:9687  function _burn(address account, uint256 amount) internal virtual {... */\n      pop\n      pop\n      jump\t// out\n        /* \"@openzeppelin/contracts/token/ERC20/ERC20.sol\":11786:11907  function _beforeTokenTransfer(... */\n    tag_323:\n      pop\n      pop\n      pop\n      jump\t// out\n        /* \"@openzeppelin/contracts/token/ERC20/ERC20.sol\":12495:12615  function _afterTokenTransfer(... */\n    tag_330:\n      pop\n      pop\n      pop\n      jump\t// out\n        /* \"#utility.yul\":7:146   */\n    tag_366:\n        /* \"#utility.yul\":53:58   */\n      0x00\n        /* \"#utility.yul\":91:97   */\n      dup2\n        /* \"#utility.yul\":78:98   */\n      calldataload\n        /* \"#utility.yul\":69:98   */\n      swap1\n      pop\n        /* \"#utility.yul\":107:140   */\n      tag_368\n        /* \"#utility.yul\":134:139   */\n      dup2\n        /* \"#utility.yul\":107:140   */\n      tag_369\n      jump\t// in\n    tag_368:\n        /* \"#utility.yul\":7:146   */\n      swap3\n      swap2\n      pop\n      pop\n      jump\t// out\n        /* \"#utility.yul\":152:289   */\n    tag_370:\n        /* \"#utility.yul\":206:211   */\n      0x00\n        /* \"#utility.yul\":237:243   */\n      dup2\n        /* \"#utility.yul\":231:244   */\n      mload\n        /* \"#utility.yul\":222:244   */\n      swap1\n      pop\n        /* \"#utility.yul\":253:283   */\n      tag_372\n        /* \"#utility.yul\":277:282   */\n      dup2\n        /* \"#utility.yul\":253:283   */\n      tag_373\n      jump\t// in\n    tag_372:\n        /* \"#utility.yul\":152:289   */\n      swap3\n      swap2\n      pop\n      pop\n      jump\t// out\n        /* \"#utility.yul\":295:434   */\n    tag_374:\n        /* \"#utility.yul\":341:346   */\n      0x00\n        /* \"#utility.yul\":379:385   */\n      dup2\n        /* \"#utility.yul\":366:386   */\n      calldataload\n        /* \"#utility.yul\":357:386   */\n      swap1\n      pop\n        /* \"#utility.yul\":395:428   */\n      tag_376\n        /* \"#utility.yul\":422:427   */\n      dup2\n        /* \"#utility.yul\":395:428   */\n      tag_377\n      jump\t// in\n    tag_376:\n        /* \"#utility.yul\":295:434   */\n      swap3\n      swap2\n      pop\n      pop\n      jump\t// out\n        /* \"#utility.yul\":440:583   */\n    tag_378:\n        /* \"#utility.yul\":497:502   */\n      0x00\n        /* \"#utility.yul\":528:534   */\n      dup2\n        /* \"#utility.yul\":522:535   */\n      mload\n        /* \"#utility.yul\":513:535   */\n      swap1\n      pop\n        /* \"#utility.yul\":544:577   */\n      tag_380\n        /* \"#utility.yul\":571:576   */\n      dup2\n        /* \"#utility.yul\":544:577   */\n      tag_377\n      jump\t// in\n    tag_380:\n        /* \"#utility.yul\":440:583   */\n      swap3\n      swap2\n      pop\n      pop\n      jump\t// out\n        /* \"#utility.yul\":589:918   */\n    tag_92:\n        /* \"#utility.yul\":648:654   */\n      0x00\n        /* \"#utility.yul\":697:699   */\n      0x20\n        /* \"#utility.yul\":685:694   */\n      dup3\n        /* \"#utility.yul\":676:683   */\n      dup5\n        /* \"#utility.yul\":672:695   */\n      sub\n        /* \"#utility.yul\":668:700   */\n      slt\n        /* \"#utility.yul\":665:784   */\n      iszero\n      tag_382\n      jumpi\n        /* \"#utility.yul\":703:782   */\n      tag_383\n      tag_384\n      jump\t// in\n    tag_383:\n        /* \"#utility.yul\":665:784   */\n    tag_382:\n        /* \"#utility.yul\":823:824   */\n      0x00\n        /* \"#utility.yul\":848:901   */\n      tag_385\n        /* \"#utility.yul\":893:900   */\n      dup5\n        /* \"#utility.yul\":884:890   */\n      dup3\n        /* \"#utility.yul\":873:882   */\n      dup6\n        /* \"#utility.yul\":869:891   */\n      add\n        /* \"#utility.yul\":848:901   */\n      tag_366\n      jump\t// in\n    tag_385:\n        /* \"#utility.yul\":838:901   */\n      swap2\n      pop\n        /* \"#utility.yul\":794:911   */\n      pop\n        /* \"#utility.yul\":589:918   */\n      swap3\n      swap2\n      pop\n      pop\n      jump\t// out\n        /* \"#utility.yul\":924:1398   */\n    tag_129:\n        /* \"#utility.yul\":992:998   */\n      0x00\n        /* \"#utility.yul\":1000:1006   */\n      dup1\n        /* \"#utility.yul\":1049:1051   */\n      0x40\n        /* \"#utility.yul\":1037:1046   */\n      dup4\n        /* \"#utility.yul\":1028:1035   */\n      dup6\n        /* \"#utility.yul\":1024:1047   */\n      sub\n        /* \"#utility.yul\":1020:1052   */\n      slt\n        /* \"#utility.yul\":1017:1136   */\n      iszero\n      tag_387\n      jumpi\n        /* \"#utility.yul\":1055:1134   */\n      tag_388\n      tag_384\n      jump\t// in\n    tag_388:\n        /* \"#utility.yul\":1017:1136   */\n    tag_387:\n        /* \"#utility.yul\":1175:1176   */\n      0x00\n        /* \"#utility.yul\":1200:1253   */\n      tag_389\n        /* \"#utility.yul\":1245:1252   */\n      dup6\n        /* \"#utility.yul\":1236:1242   */\n      dup3\n        /* \"#utility.yul\":1225:1234   */\n      dup7\n        /* \"#utility.yul\":1221:1243   */\n      add\n        /* \"#utility.yul\":1200:1253   */\n      tag_366\n      jump\t// in\n    tag_389:\n        /* \"#utility.yul\":1190:1253   */\n      swap3\n      pop\n        /* \"#utility.yul\":1146:1263   */\n      pop\n        /* \"#utility.yul\":1302:1304   */\n      0x20\n        /* \"#utility.yul\":1328:1381   */\n      tag_390\n        /* \"#utility.yul\":1373:1380   */\n      dup6\n        /* \"#utility.yul\":1364:1370   */\n      dup3\n        /* \"#utility.yul\":1353:1362   */\n      dup7\n        /* \"#utility.yul\":1349:1371   */\n      add\n        /* \"#utility.yul\":1328:1381   */\n      tag_366\n      jump\t// in\n    tag_390:\n        /* \"#utility.yul\":1318:1381   */\n      swap2\n      pop\n        /* \"#utility.yul\":1273:1391   */\n      pop\n        /* \"#utility.yul\":924:1398   */\n      swap3\n      pop\n      swap3\n      swap1\n      pop\n      jump\t// out\n        /* \"#utility.yul\":1404:2023   */\n    tag_58:\n        /* \"#utility.yul\":1481:1487   */\n      0x00\n        /* \"#utility.yul\":1489:1495   */\n      dup1\n        /* \"#utility.yul\":1497:1503   */\n      0x00\n        /* \"#utility.yul\":1546:1548   */\n      0x60\n        /* \"#utility.yul\":1534:1543   */\n      dup5\n        /* \"#utility.yul\":1525:1532   */\n      dup7\n        /* \"#utility.yul\":1521:1544   */\n      sub\n        /* \"#utility.yul\":1517:1549   */\n      slt\n        /* \"#utility.yul\":1514:1633   */\n      iszero\n      tag_392\n      jumpi\n        /* \"#utility.yul\":1552:1631   */\n      tag_393\n      tag_384\n      jump\t// in\n    tag_393:\n        /* \"#utility.yul\":1514:1633   */\n    tag_392:\n        /* \"#utility.yul\":1672:1673   */\n      0x00\n        /* \"#utility.yul\":1697:1750   */\n      tag_394\n        /* \"#utility.yul\":1742:1749   */\n      dup7\n        /* \"#utility.yul\":1733:1739   */\n      dup3\n        /* \"#utility.yul\":1722:1731   */\n      dup8\n        /* \"#utility.yul\":1718:1740   */\n      add\n        /* \"#utility.yul\":1697:1750   */\n      tag_366\n      jump\t// in\n    tag_394:\n        /* \"#utility.yul\":1687:1750   */\n      swap4\n      pop\n        /* \"#utility.yul\":1643:1760   */\n      pop\n        /* \"#utility.yul\":1799:1801   */\n      0x20\n        /* \"#utility.yul\":1825:1878   */\n      tag_395\n        /* \"#utility.yul\":1870:1877   */\n      dup7\n        /* \"#utility.yul\":1861:1867   */\n      dup3\n        /* \"#utility.yul\":1850:1859   */\n      dup8\n        /* \"#utility.yul\":1846:1868   */\n      add\n        /* \"#utility.yul\":1825:1878   */\n      tag_366\n      jump\t// in\n    tag_395:\n        /* \"#utility.yul\":1815:1878   */\n      swap3\n      pop\n        /* \"#utility.yul\":1770:1888   */\n      pop\n        /* \"#utility.yul\":1927:1929   */\n      0x40\n        /* \"#utility.yul\":1953:2006   */\n      tag_396\n        /* \"#utility.yul\":1998:2005   */\n      dup7\n        /* \"#utility.yul\":1989:1995   */\n      dup3\n        /* \"#utility.yul\":1978:1987   */\n      dup8\n        /* \"#utility.yul\":1974:1996   */\n      add\n        /* \"#utility.yul\":1953:2006   */\n      tag_374\n      jump\t// in\n    tag_396:\n        /* \"#utility.yul\":1943:2006   */\n      swap2\n      pop\n        /* \"#utility.yul\":1898:2016   */\n      pop\n        /* \"#utility.yul\":1404:2023   */\n      swap3\n      pop\n      swap3\n      pop\n      swap3\n      jump\t// out\n        /* \"#utility.yul\":2029:2503   */\n    tag_40:\n        /* \"#utility.yul\":2097:2103   */\n      0x00\n        /* \"#utility.yul\":2105:2111   */\n      dup1\n        /* \"#utility.yul\":2154:2156   */\n      0x40\n        /* \"#utility.yul\":2142:2151   */\n      dup4\n        /* \"#utility.yul\":2133:2140   */\n      dup6\n        /* \"#utility.yul\":2129:2152   */\n      sub\n        /* \"#utility.yul\":2125:2157   */\n      slt\n        /* \"#utility.yul\":2122:2241   */\n      iszero\n      tag_398\n      jumpi\n        /* \"#utility.yul\":2160:2239   */\n      tag_399\n      tag_384\n      jump\t// in\n    tag_399:\n        /* \"#utility.yul\":2122:2241   */\n    tag_398:\n        /* \"#utility.yul\":2280:2281   */\n      0x00\n        /* \"#utility.yul\":2305:2358   */\n      tag_400\n        /* \"#utility.yul\":2350:2357   */\n      dup6\n        /* \"#utility.yul\":2341:2347   */\n      dup3\n        /* \"#utility.yul\":2330:2339   */\n      dup7\n        /* \"#utility.yul\":2326:2348   */\n      add\n        /* \"#utility.yul\":2305:2358   */\n      tag_366\n      jump\t// in\n    tag_400:\n        /* \"#utility.yul\":2295:2358   */\n      swap3\n      pop\n        /* \"#utility.yul\":2251:2368   */\n      pop\n        /* \"#utility.yul\":2407:2409   */\n      0x20\n        /* \"#utility.yul\":2433:2486   */\n      tag_401\n        /* \"#utility.yul\":2478:2485   */\n      dup6\n        /* \"#utility.yul\":2469:2475   */\n      dup3\n        /* \"#utility.yul\":2458:2467   */\n      dup7\n        /* \"#utility.yul\":2454:2476   */\n      add\n        /* \"#utility.yul\":2433:2486   */\n      tag_374\n      jump\t// in\n    tag_401:\n        /* \"#utility.yul\":2423:2486   */\n      swap2\n      pop\n        /* \"#utility.yul\":2378:2496   */\n      pop\n        /* \"#utility.yul\":2029:2503   */\n      swap3\n      pop\n      swap3\n      swap1\n      pop\n      jump\t// out\n        /* \"#utility.yul\":2509:2854   */\n    tag_191:\n        /* \"#utility.yul\":2576:2582   */\n      0x00\n        /* \"#utility.yul\":2625:2627   */\n      0x20\n        /* \"#utility.yul\":2613:2622   */\n      dup3\n        /* \"#utility.yul\":2604:2611   */\n      dup5\n        /* \"#utility.yul\":2600:2623   */\n      sub\n        /* \"#utility.yul\":2596:2628   */\n      slt\n        /* \"#utility.yul\":2593:2712   */\n      iszero\n      tag_403\n      jumpi\n        /* \"#utility.yul\":2631:2710   */\n      tag_404\n      tag_384\n      jump\t// in\n    tag_404:\n        /* \"#utility.yul\":2593:2712   */\n    tag_403:\n        /* \"#utility.yul\":2751:2752   */\n      0x00\n        /* \"#utility.yul\":2776:2837   */\n      tag_405\n        /* \"#utility.yul\":2829:2836   */\n      dup5\n        /* \"#utility.yul\":2820:2826   */\n      dup3\n        /* \"#utility.yul\":2809:2818   */\n      dup6\n        /* \"#utility.yul\":2805:2827   */\n      add\n        /* \"#utility.yul\":2776:2837   */\n      tag_370\n      jump\t// in\n    tag_405:\n        /* \"#utility.yul\":2766:2837   */\n      swap2\n      pop\n        /* \"#utility.yul\":2722:2847   */\n      pop\n        /* \"#utility.yul\":2509:2854   */\n      swap3\n      swap2\n      pop\n      pop\n      jump\t// out\n        /* \"#utility.yul\":2860:3189   */\n    tag_47:\n        /* \"#utility.yul\":2919:2925   */\n      0x00\n        /* \"#utility.yul\":2968:2970   */\n      0x20\n        /* \"#utility.yul\":2956:2965   */\n      dup3\n        /* \"#utility.yul\":2947:2954   */\n      dup5\n        /* \"#utility.yul\":2943:2966   */\n      sub\n        /* \"#utility.yul\":2939:2971   */\n      slt\n        /* \"#utility.yul\":2936:3055   */\n      iszero\n      tag_407\n      jumpi\n        /* \"#utility.yul\":2974:3053   */\n      tag_408\n      tag_384\n      jump\t// in\n    tag_408:\n        /* \"#utility.yul\":2936:3055   */\n    tag_407:\n        /* \"#utility.yul\":3094:3095   */\n      0x00\n        /* \"#utility.yul\":3119:3172   */\n      tag_409\n        /* \"#utility.yul\":3164:3171   */\n      dup5\n        /* \"#utility.yul\":3155:3161   */\n      dup3\n        /* \"#utility.yul\":3144:3153   */\n      dup6\n        /* \"#utility.yul\":3140:3162   */\n      add\n        /* \"#utility.yul\":3119:3172   */\n      tag_374\n      jump\t// in\n    tag_409:\n        /* \"#utility.yul\":3109:3172   */\n      swap2\n      pop\n        /* \"#utility.yul\":3065:3182   */\n      pop\n        /* \"#utility.yul\":2860:3189   */\n      swap3\n      swap2\n      pop\n      pop\n      jump\t// out\n        /* \"#utility.yul\":3195:3546   */\n    tag_150:\n        /* \"#utility.yul\":3265:3271   */\n      0x00\n        /* \"#utility.yul\":3314:3316   */\n      0x20\n        /* \"#utility.yul\":3302:3311   */\n      dup3\n        /* \"#utility.yul\":3293:3300   */\n      dup5\n        /* \"#utility.yul\":3289:3312   */\n      sub\n        /* \"#utility.yul\":3285:3317   */\n      slt\n        /* \"#utility.yul\":3282:3401   */\n      iszero\n      tag_411\n      jumpi\n        /* \"#utility.yul\":3320:3399   */\n      tag_412\n      tag_384\n      jump\t// in\n    tag_412:\n        /* \"#utility.yul\":3282:3401   */\n    tag_411:\n        /* \"#utility.yul\":3440:3441   */\n      0x00\n        /* \"#utility.yul\":3465:3529   */\n      tag_413\n        /* \"#utility.yul\":3521:3528   */\n      dup5\n        /* \"#utility.yul\":3512:3518   */\n      dup3\n        /* \"#utility.yul\":3501:3510   */\n      dup6\n        /* \"#utility.yul\":3497:3519   */\n      add\n        /* \"#utility.yul\":3465:3529   */\n      tag_378\n      jump\t// in\n    tag_413:\n        /* \"#utility.yul\":3455:3529   */\n      swap2\n      pop\n        /* \"#utility.yul\":3411:3539   */\n      pop\n        /* \"#utility.yul\":3195:3546   */\n      swap3\n      swap2\n      pop\n      pop\n      jump\t// out\n        /* \"#utility.yul\":3552:4026   */\n    tag_87:\n        /* \"#utility.yul\":3620:3626   */\n      0x00\n        /* \"#utility.yul\":3628:3634   */\n      dup1\n        /* \"#utility.yul\":3677:3679   */\n      0x40\n        /* \"#utility.yul\":3665:3674   */\n      dup4\n        /* \"#utility.yul\":3656:3663   */\n      dup6\n        /* \"#utility.yul\":3652:3675   */\n      sub\n        /* \"#utility.yul\":3648:3680   */\n      slt\n        /* \"#utility.yul\":3645:3764   */\n      iszero\n      tag_415\n      jumpi\n        /* \"#utility.yul\":3683:3762   */\n      tag_416\n      tag_384\n      jump\t// in\n    tag_416:\n        /* \"#utility.yul\":3645:3764   */\n    tag_415:\n        /* \"#utility.yul\":3803:3804   */\n      0x00\n        /* \"#utility.yul\":3828:3881   */\n      tag_417\n        /* \"#utility.yul\":3873:3880   */\n      dup6\n        /* \"#utility.yul\":3864:3870   */\n      dup3\n        /* \"#utility.yul\":3853:3862   */\n      dup7\n        /* \"#utility.yul\":3849:3871   */\n      add\n        /* \"#utility.yul\":3828:3881   */\n      tag_374\n      jump\t// in\n    tag_417:\n        /* \"#utility.yul\":3818:3881   */\n      swap3\n      pop\n        /* \"#utility.yul\":3774:3891   */\n      pop\n        /* \"#utility.yul\":3930:3932   */\n      0x20\n        /* \"#utility.yul\":3956:4009   */\n      tag_418\n        /* \"#utility.yul\":4001:4008   */\n      dup6\n        /* \"#utility.yul\":3992:3998   */\n      dup3\n        /* \"#utility.yul\":3981:3990   */\n      dup7\n        /* \"#utility.yul\":3977:3999   */\n      add\n        /* \"#utility.yul\":3956:4009   */\n      tag_366\n      jump\t// in\n    tag_418:\n        /* \"#utility.yul\":3946:4009   */\n      swap2\n      pop\n        /* \"#utility.yul\":3901:4019   */\n      pop\n        /* \"#utility.yul\":3552:4026   */\n      swap3\n      pop\n      swap3\n      swap1\n      pop\n      jump\t// out\n        /* \"#utility.yul\":4032:4506   */\n    tag_83:\n        /* \"#utility.yul\":4100:4106   */\n      0x00\n        /* \"#utility.yul\":4108:4114   */\n      dup1\n        /* \"#utility.yul\":4157:4159   */\n      0x40\n        /* \"#utility.yul\":4145:4154   */\n      dup4\n        /* \"#utility.yul\":4136:4143   */\n      dup6\n        /* \"#utility.yul\":4132:4155   */\n      sub\n        /* \"#utility.yul\":4128:4160   */\n      slt\n        /* \"#utility.yul\":4125:4244   */\n      iszero\n      tag_420\n      jumpi\n        /* \"#utility.yul\":4163:4242   */\n      tag_421\n      tag_384\n      jump\t// in\n    tag_421:\n        /* \"#utility.yul\":4125:4244   */\n    tag_420:\n        /* \"#utility.yul\":4283:4284   */\n      0x00\n        /* \"#utility.yul\":4308:4361   */\n      tag_422\n        /* \"#utility.yul\":4353:4360   */\n      dup6\n        /* \"#utility.yul\":4344:4350   */\n      dup3\n        /* \"#utility.yul\":4333:4342   */\n      dup7\n        /* \"#utility.yul\":4329:4351   */\n      add\n        /* \"#utility.yul\":4308:4361   */\n      tag_374\n      jump\t// in\n    tag_422:\n        /* \"#utility.yul\":4298:4361   */\n      swap3\n      pop\n        /* \"#utility.yul\":4254:4371   */\n      pop\n        /* \"#utility.yul\":4410:4412   */\n      0x20\n        /* \"#utility.yul\":4436:4489   */\n      tag_423\n        /* \"#utility.yul\":4481:4488   */\n      dup6\n        /* \"#utility.yul\":4472:4478   */\n      dup3\n        /* \"#utility.yul\":4461:4470   */\n      dup7\n        /* \"#utility.yul\":4457:4479   */\n      add\n        /* \"#utility.yul\":4436:4489   */\n      tag_374\n      jump\t// in\n    tag_423:\n        /* \"#utility.yul\":4426:4489   */\n      swap2\n      pop\n        /* \"#utility.yul\":4381:4499   */\n      pop\n        /* \"#utility.yul\":4032:4506   */\n      swap3\n      pop\n      swap3\n      swap1\n      pop\n      jump\t// out\n        /* \"#utility.yul\":4512:5131   */\n    tag_135:\n        /* \"#utility.yul\":4589:4595   */\n      0x00\n        /* \"#utility.yul\":4597:4603   */\n      dup1\n        /* \"#utility.yul\":4605:4611   */\n      0x00\n        /* \"#utility.yul\":4654:4656   */\n      0x60\n        /* \"#utility.yul\":4642:4651   */\n      dup5\n        /* \"#utility.yul\":4633:4640   */\n      dup7\n        /* \"#utility.yul\":4629:4652   */\n      sub\n        /* \"#utility.yul\":4625:4657   */\n      slt\n        /* \"#utility.yul\":4622:4741   */\n      iszero\n      tag_425\n      jumpi\n        /* \"#utility.yul\":4660:4739   */\n      tag_426\n      tag_384\n      jump\t// in\n    tag_426:\n        /* \"#utility.yul\":4622:4741   */\n    tag_425:\n        /* \"#utility.yul\":4780:4781   */\n      0x00\n        /* \"#utility.yul\":4805:4858   */\n      tag_427\n        /* \"#utility.yul\":4850:4857   */\n      dup7\n        /* \"#utility.yul\":4841:4847   */\n      dup3\n        /* \"#utility.yul\":4830:4839   */\n      dup8\n        /* \"#utility.yul\":4826:4848   */\n      add\n        /* \"#utility.yul\":4805:4858   */\n      tag_374\n      jump\t// in\n    tag_427:\n        /* \"#utility.yul\":4795:4858   */\n      swap4\n      pop\n        /* \"#utility.yul\":4751:4868   */\n      pop\n        /* \"#utility.yul\":4907:4909   */\n      0x20\n        /* \"#utility.yul\":4933:4986   */\n      tag_428\n        /* \"#utility.yul\":4978:4985   */\n      dup7\n        /* \"#utility.yul\":4969:4975   */\n      dup3\n        /* \"#utility.yul\":4958:4967   */\n      dup8\n        /* \"#utility.yul\":4954:4976   */\n      add\n        /* \"#utility.yul\":4933:4986   */\n      tag_374\n      jump\t// in\n    tag_428:\n        /* \"#utility.yul\":4923:4986   */\n      swap3\n      pop\n        /* \"#utility.yul\":4878:4996   */\n      pop\n        /* \"#utility.yul\":5035:5037   */\n      0x40\n        /* \"#utility.yul\":5061:5114   */\n      tag_429\n        /* \"#utility.yul\":5106:5113   */\n      dup7\n        /* \"#utility.yul\":5097:5103   */\n      dup3\n        /* \"#utility.yul\":5086:5095   */\n      dup8\n        /* \"#utility.yul\":5082:5104   */\n      add\n        /* \"#utility.yul\":5061:5114   */\n      tag_366\n      jump\t// in\n    tag_429:\n        /* \"#utility.yul\":5051:5114   */\n      swap2\n      pop\n        /* \"#utility.yul\":5006:5124   */\n      pop\n        /* \"#utility.yul\":4512:5131   */\n      swap3\n      pop\n      swap3\n      pop\n      swap3\n      jump\t// out\n        /* \"#utility.yul\":5137:5255   */\n    tag_430:\n        /* \"#utility.yul\":5224:5248   */\n      tag_432\n        /* \"#utility.yul\":5242:5247   */\n      dup2\n        /* \"#utility.yul\":5224:5248   */\n      tag_433\n      jump\t// in\n    tag_432:\n        /* \"#utility.yul\":5219:5222   */\n      dup3\n        /* \"#utility.yul\":5212:5249   */\n      mstore\n        /* \"#utility.yul\":5137:5255   */\n      pop\n      pop\n      jump\t// out\n        /* \"#utility.yul\":5261:5370   */\n    tag_434:\n        /* \"#utility.yul\":5342:5363   */\n      tag_436\n        /* \"#utility.yul\":5357:5362   */\n      dup2\n        /* \"#utility.yul\":5342:5363   */\n      tag_437\n      jump\t// in\n    tag_436:\n        /* \"#utility.yul\":5337:5340   */\n      dup3\n        /* \"#utility.yul\":5330:5364   */\n      mstore\n        /* \"#utility.yul\":5261:5370   */\n      pop\n      pop\n      jump\t// out\n        /* \"#utility.yul\":5376:5740   */\n    tag_438:\n        /* \"#utility.yul\":5464:5467   */\n      0x00\n        /* \"#utility.yul\":5492:5531   */\n      tag_440\n        /* \"#utility.yul\":5525:5530   */\n      dup3\n        /* \"#utility.yul\":5492:5531   */\n      tag_441\n      jump\t// in\n    tag_440:\n        /* \"#utility.yul\":5547:5618   */\n      tag_442\n        /* \"#utility.yul\":5611:5617   */\n      dup2\n        /* \"#utility.yul\":5606:5609   */\n      dup6\n        /* \"#utility.yul\":5547:5618   */\n      tag_443\n      jump\t// in\n    tag_442:\n        /* \"#utility.yul\":5540:5618   */\n      swap4\n      pop\n        /* \"#utility.yul\":5627:5679   */\n      tag_444\n        /* \"#utility.yul\":5672:5678   */\n      dup2\n        /* \"#utility.yul\":5667:5670   */\n      dup6\n        /* \"#utility.yul\":5660:5664   */\n      0x20\n        /* \"#utility.yul\":5653:5658   */\n      dup7\n        /* \"#utility.yul\":5649:5665   */\n      add\n        /* \"#utility.yul\":5627:5679   */\n      tag_445\n      jump\t// in\n    tag_444:\n        /* \"#utility.yul\":5704:5733   */\n      tag_446\n        /* \"#utility.yul\":5726:5732   */\n      dup2\n        /* \"#utility.yul\":5704:5733   */\n      tag_447\n      jump\t// in\n    tag_446:\n        /* \"#utility.yul\":5699:5702   */\n      dup5\n        /* \"#utility.yul\":5695:5734   */\n      add\n        /* \"#utility.yul\":5688:5734   */\n      swap2\n      pop\n        /* \"#utility.yul\":5468:5740   */\n      pop\n        /* \"#utility.yul\":5376:5740   */\n      swap3\n      swap2\n      pop\n      pop\n      jump\t// out\n        /* \"#utility.yul\":5746:6112   */\n    tag_448:\n        /* \"#utility.yul\":5888:5891   */\n      0x00\n        /* \"#utility.yul\":5909:5976   */\n      tag_450\n        /* \"#utility.yul\":5973:5975   */\n      0x23\n        /* \"#utility.yul\":5968:5971   */\n      dup4\n        /* \"#utility.yul\":5909:5976   */\n      tag_443\n      jump\t// in\n    tag_450:\n        /* \"#utility.yul\":5902:5976   */\n      swap2\n      pop\n        /* \"#utility.yul\":5985:6078   */\n      tag_451\n        /* \"#utility.yul\":6074:6077   */\n      dup3\n        /* \"#utility.yul\":5985:6078   */\n      tag_452\n      jump\t// in\n    tag_451:\n        /* \"#utility.yul\":6103:6105   */\n      0x40\n        /* \"#utility.yul\":6098:6101   */\n      dup3\n        /* \"#utility.yul\":6094:6106   */\n      add\n        /* \"#utility.yul\":6087:6106   */\n      swap1\n      pop\n        /* \"#utility.yul\":5746:6112   */\n      swap2\n      swap1\n      pop\n      jump\t// out\n        /* \"#utility.yul\":6118:6484   */\n    tag_453:\n        /* \"#utility.yul\":6260:6263   */\n      0x00\n        /* \"#utility.yul\":6281:6348   */\n      tag_455\n        /* \"#utility.yul\":6345:6347   */\n      0x22\n        /* \"#utility.yul\":6340:6343   */\n      dup4\n        /* \"#utility.yul\":6281:6348   */\n      tag_443\n      jump\t// in\n    tag_455:\n        /* \"#utility.yul\":6274:6348   */\n      swap2\n      pop\n        /* \"#utility.yul\":6357:6450   */\n      tag_456\n        /* \"#utility.yul\":6446:6449   */\n      dup3\n        /* \"#utility.yul\":6357:6450   */\n      tag_457\n      jump\t// in\n    tag_456:\n        /* \"#utility.yul\":6475:6477   */\n      0x40\n        /* \"#utility.yul\":6470:6473   */\n      dup3\n        /* \"#utility.yul\":6466:6478   */\n      add\n        /* \"#utility.yul\":6459:6478   */\n      swap1\n      pop\n        /* \"#utility.yul\":6118:6484   */\n      swap2\n      swap1\n      pop\n      jump\t// out\n        /* \"#utility.yul\":6490:6856   */\n    tag_458:\n        /* \"#utility.yul\":6632:6635   */\n      0x00\n        /* \"#utility.yul\":6653:6720   */\n      tag_460\n        /* \"#utility.yul\":6717:6719   */\n      0x22\n        /* \"#utility.yul\":6712:6715   */\n      dup4\n        /* \"#utility.yul\":6653:6720   */\n      tag_443\n      jump\t// in\n    tag_460:\n        /* \"#utility.yul\":6646:6720   */\n      swap2\n      pop\n        /* \"#utility.yul\":6729:6822   */\n      tag_461\n        /* \"#utility.yul\":6818:6821   */\n      dup3\n        /* \"#utility.yul\":6729:6822   */\n      tag_462\n      jump\t// in\n    tag_461:\n        /* \"#utility.yul\":6847:6849   */\n      0x40\n        /* \"#utility.yul\":6842:6845   */\n      dup3\n        /* \"#utility.yul\":6838:6850   */\n      add\n        /* \"#utility.yul\":6831:6850   */\n      swap1\n      pop\n        /* \"#utility.yul\":6490:6856   */\n      swap2\n      swap1\n      pop\n      jump\t// out\n        /* \"#utility.yul\":6862:7228   */\n    tag_463:\n        /* \"#utility.yul\":7004:7007   */\n      0x00\n        /* \"#utility.yul\":7025:7092   */\n      tag_465\n        /* \"#utility.yul\":7089:7091   */\n      0x29\n        /* \"#utility.yul\":7084:7087   */\n      dup4\n        /* \"#utility.yul\":7025:7092   */\n      tag_443\n      jump\t// in\n    tag_465:\n        /* \"#utility.yul\":7018:7092   */\n      swap2\n      pop\n        /* \"#utility.yul\":7101:7194   */\n      tag_466\n        /* \"#utility.yul\":7190:7193   */\n      dup3\n        /* \"#utility.yul\":7101:7194   */\n      tag_467\n      jump\t// in\n    tag_466:\n        /* \"#utility.yul\":7219:7221   */\n      0x40\n        /* \"#utility.yul\":7214:7217   */\n      dup3\n        /* \"#utility.yul\":7210:7222   */\n      add\n        /* \"#utility.yul\":7203:7222   */\n      swap1\n      pop\n        /* \"#utility.yul\":6862:7228   */\n      swap2\n      swap1\n      pop\n      jump\t// out\n        /* \"#utility.yul\":7234:7600   */\n    tag_468:\n        /* \"#utility.yul\":7376:7379   */\n      0x00\n        /* \"#utility.yul\":7397:7464   */\n      tag_470\n        /* \"#utility.yul\":7461:7463   */\n      0x1d\n        /* \"#utility.yul\":7456:7459   */\n      dup4\n        /* \"#utility.yul\":7397:7464   */\n      tag_443\n      jump\t// in\n    tag_470:\n        /* \"#utility.yul\":7390:7464   */\n      swap2\n      pop\n        /* \"#utility.yul\":7473:7566   */\n      tag_471\n        /* \"#utility.yul\":7562:7565   */\n      dup3\n        /* \"#utility.yul\":7473:7566   */\n      tag_472\n      jump\t// in\n    tag_471:\n        /* \"#utility.yul\":7591:7593   */\n      0x20\n        /* \"#utility.yul\":7586:7589   */\n      dup3\n        /* \"#utility.yul\":7582:7594   */\n      add\n        /* \"#utility.yul\":7575:7594   */\n      swap1\n      pop\n        /* \"#utility.yul\":7234:7600   */\n      swap2\n      swap1\n      pop\n      jump\t// out\n        /* \"#utility.yul\":7606:7972   */\n    tag_473:\n        /* \"#utility.yul\":7748:7751   */\n      0x00\n        /* \"#utility.yul\":7769:7836   */\n      tag_475\n        /* \"#utility.yul\":7833:7835   */\n      0x26\n        /* \"#utility.yul\":7828:7831   */\n      dup4\n        /* \"#utility.yul\":7769:7836   */\n      tag_443\n      jump\t// in\n    tag_475:\n        /* \"#utility.yul\":7762:7836   */\n      swap2\n      pop\n        /* \"#utility.yul\":7845:7938   */\n      tag_476\n        /* \"#utility.yul\":7934:7937   */\n      dup3\n        /* \"#utility.yul\":7845:7938   */\n      tag_477\n      jump\t// in\n    tag_476:\n        /* \"#utility.yul\":7963:7965   */\n      0x40\n        /* \"#utility.yul\":7958:7961   */\n      dup3\n        /* \"#utility.yul\":7954:7966   */\n      add\n        /* \"#utility.yul\":7947:7966   */\n      swap1\n      pop\n        /* \"#utility.yul\":7606:7972   */\n      swap2\n      swap1\n      pop\n      jump\t// out\n        /* \"#utility.yul\":7978:8344   */\n    tag_478:\n        /* \"#utility.yul\":8120:8123   */\n      0x00\n        /* \"#utility.yul\":8141:8208   */\n      tag_480\n        /* \"#utility.yul\":8205:8207   */\n      0x26\n        /* \"#utility.yul\":8200:8203   */\n      dup4\n        /* \"#utility.yul\":8141:8208   */\n      tag_443\n      jump\t// in\n    tag_480:\n        /* \"#utility.yul\":8134:8208   */\n      swap2\n      pop\n        /* \"#utility.yul\":8217:8310   */\n      tag_481\n        /* \"#utility.yul\":8306:8309   */\n      dup3\n        /* \"#utility.yul\":8217:8310   */\n      tag_482\n      jump\t// in\n    tag_481:\n        /* \"#utility.yul\":8335:8337   */\n      0x40\n        /* \"#utility.yul\":8330:8333   */\n      dup3\n        /* \"#utility.yul\":8326:8338   */\n      add\n        /* \"#utility.yul\":8319:8338   */\n      swap1\n      pop\n        /* \"#utility.yul\":7978:8344   */\n      swap2\n      swap1\n      pop\n      jump\t// out\n        /* \"#utility.yul\":8350:8716   */\n    tag_483:\n        /* \"#utility.yul\":8492:8495   */\n      0x00\n        /* \"#utility.yul\":8513:8580   */\n      tag_485\n        /* \"#utility.yul\":8577:8579   */\n      0x18\n        /* \"#utility.yul\":8572:8575   */\n      dup4\n        /* \"#utility.yul\":8513:8580   */\n      tag_443\n      jump\t// in\n    tag_485:\n        /* \"#utility.yul\":8506:8580   */\n      swap2\n      pop\n        /* \"#utility.yul\":8589:8682   */\n      tag_486\n        /* \"#utility.yul\":8678:8681   */\n      dup3\n        /* \"#utility.yul\":8589:8682   */\n      tag_487\n      jump\t// in\n    tag_486:\n        /* \"#utility.yul\":8707:8709   */\n      0x20\n        /* \"#utility.yul\":8702:8705   */\n      dup3\n        /* \"#utility.yul\":8698:8710   */\n      add\n        /* \"#utility.yul\":8691:8710   */\n      swap1\n      pop\n        /* \"#utility.yul\":8350:8716   */\n      swap2\n      swap1\n      pop\n      jump\t// out\n        /* \"#utility.yul\":8722:9088   */\n    tag_488:\n        /* \"#utility.yul\":8864:8867   */\n      0x00\n        /* \"#utility.yul\":8885:8952   */\n      tag_490\n        /* \"#utility.yul\":8949:8951   */\n      0x1a\n        /* \"#utility.yul\":8944:8947   */\n      dup4\n        /* \"#utility.yul\":8885:8952   */\n      tag_443\n      jump\t// in\n    tag_490:\n        /* \"#utility.yul\":8878:8952   */\n      swap2\n      pop\n        /* \"#utility.yul\":8961:9054   */\n      tag_491\n        /* \"#utility.yul\":9050:9053   */\n      dup3\n        /* \"#utility.yul\":8961:9054   */\n      tag_492\n      jump\t// in\n    tag_491:\n        /* \"#utility.yul\":9079:9081   */\n      0x20\n        /* \"#utility.yul\":9074:9077   */\n      dup3\n        /* \"#utility.yul\":9070:9082   */\n      add\n        /* \"#utility.yul\":9063:9082   */\n      swap1\n      pop\n        /* \"#utility.yul\":8722:9088   */\n      swap2\n      swap1\n      pop\n      jump\t// out\n        /* \"#utility.yul\":9094:9460   */\n    tag_493:\n        /* \"#utility.yul\":9236:9239   */\n      0x00\n        /* \"#utility.yul\":9257:9324   */\n      tag_495\n        /* \"#utility.yul\":9321:9323   */\n      0x43\n        /* \"#utility.yul\":9316:9319   */\n      dup4\n        /* \"#utility.yul\":9257:9324   */\n      tag_443\n      jump\t// in\n    tag_495:\n        /* \"#utility.yul\":9250:9324   */\n      swap2\n      pop\n        /* \"#utility.yul\":9333:9426   */\n      tag_496\n        /* \"#utility.yul\":9422:9425   */\n      dup3\n        /* \"#utility.yul\":9333:9426   */\n      tag_497\n      jump\t// in\n    tag_496:\n        /* \"#utility.yul\":9451:9453   */\n      0x60\n        /* \"#utility.yul\":9446:9449   */\n      dup3\n        /* \"#utility.yul\":9442:9454   */\n      add\n        /* \"#utility.yul\":9435:9454   */\n      swap1\n      pop\n        /* \"#utility.yul\":9094:9460   */\n      swap2\n      swap1\n      pop\n      jump\t// out\n        /* \"#utility.yul\":9466:9832   */\n    tag_498:\n        /* \"#utility.yul\":9608:9611   */\n      0x00\n        /* \"#utility.yul\":9629:9696   */\n      tag_500\n        /* \"#utility.yul\":9693:9695   */\n      0x37\n        /* \"#utility.yul\":9688:9691   */\n      dup4\n        /* \"#utility.yul\":9629:9696   */\n      tag_443\n      jump\t// in\n    tag_500:\n        /* \"#utility.yul\":9622:9696   */\n      swap2\n      pop\n        /* \"#utility.yul\":9705:9798   */\n      tag_501\n        /* \"#utility.yul\":9794:9797   */\n      dup3\n        /* \"#utility.yul\":9705:9798   */\n      tag_502\n      jump\t// in\n    tag_501:\n        /* \"#utility.yul\":9823:9825   */\n      0x40\n        /* \"#utility.yul\":9818:9821   */\n      dup3\n        /* \"#utility.yul\":9814:9826   */\n      add\n        /* \"#utility.yul\":9807:9826   */\n      swap1\n      pop\n        /* \"#utility.yul\":9466:9832   */\n      swap2\n      swap1\n      pop\n      jump\t// out\n        /* \"#utility.yul\":9838:10204   */\n    tag_503:\n        /* \"#utility.yul\":9980:9983   */\n      0x00\n        /* \"#utility.yul\":10001:10068   */\n      tag_505\n        /* \"#utility.yul\":10065:10067   */\n      0x21\n        /* \"#utility.yul\":10060:10063   */\n      dup4\n        /* \"#utility.yul\":10001:10068   */\n      tag_443\n      jump\t// in\n    tag_505:\n        /* \"#utility.yul\":9994:10068   */\n      swap2\n      pop\n        /* \"#utility.yul\":10077:10170   */\n      tag_506\n        /* \"#utility.yul\":10166:10169   */\n      dup3\n        /* \"#utility.yul\":10077:10170   */\n      tag_507\n      jump\t// in\n    tag_506:\n        /* \"#utility.yul\":10195:10197   */\n      0x40\n        /* \"#utility.yul\":10190:10193   */\n      dup3\n        /* \"#utility.yul\":10186:10198   */\n      add\n        /* \"#utility.yul\":10179:10198   */\n      swap1\n      pop\n        /* \"#utility.yul\":9838:10204   */\n      swap2\n      swap1\n      pop\n      jump\t// out\n        /* \"#utility.yul\":10210:10576   */\n    tag_508:\n        /* \"#utility.yul\":10352:10355   */\n      0x00\n        /* \"#utility.yul\":10373:10440   */\n      tag_510\n        /* \"#utility.yul\":10437:10439   */\n      0x19\n        /* \"#utility.yul\":10432:10435   */\n      dup4\n        /* \"#utility.yul\":10373:10440   */\n      tag_443\n      jump\t// in\n    tag_510:\n        /* \"#utility.yul\":10366:10440   */\n      swap2\n      pop\n        /* \"#utility.yul\":10449:10542   */\n      tag_511\n        /* \"#utility.yul\":10538:10541   */\n      dup3\n        /* \"#utility.yul\":10449:10542   */\n      tag_512\n      jump\t// in\n    tag_511:\n        /* \"#utility.yul\":10567:10569   */\n      0x20\n        /* \"#utility.yul\":10562:10565   */\n      dup3\n        /* \"#utility.yul\":10558:10570   */\n      add\n        /* \"#utility.yul\":10551:10570   */\n      swap1\n      pop\n        /* \"#utility.yul\":10210:10576   */\n      swap2\n      swap1\n      pop\n      jump\t// out\n        /* \"#utility.yul\":10582:10948   */\n    tag_513:\n        /* \"#utility.yul\":10724:10727   */\n      0x00\n        /* \"#utility.yul\":10745:10812   */\n      tag_515\n        /* \"#utility.yul\":10809:10811   */\n      0x25\n        /* \"#utility.yul\":10804:10807   */\n      dup4\n        /* \"#utility.yul\":10745:10812   */\n      tag_443\n      jump\t// in\n    tag_515:\n        /* \"#utility.yul\":10738:10812   */\n      swap2\n      pop\n        /* \"#utility.yul\":10821:10914   */\n      tag_516\n        /* \"#utility.yul\":10910:10913   */\n      dup3\n        /* \"#utility.yul\":10821:10914   */\n      tag_517\n      jump\t// in\n    tag_516:\n        /* \"#utility.yul\":10939:10941   */\n      0x40\n        /* \"#utility.yul\":10934:10937   */\n      dup3\n        /* \"#utility.yul\":10930:10942   */\n      add\n        /* \"#utility.yul\":10923:10942   */\n      swap1\n      pop\n        /* \"#utility.yul\":10582:10948   */\n      swap2\n      swap1\n      pop\n      jump\t// out\n        /* \"#utility.yul\":10954:11320   */\n    tag_518:\n        /* \"#utility.yul\":11096:11099   */\n      0x00\n        /* \"#utility.yul\":11117:11184   */\n      tag_520\n        /* \"#utility.yul\":11181:11183   */\n      0x25\n        /* \"#utility.yul\":11176:11179   */\n      dup4\n        /* \"#utility.yul\":11117:11184   */\n      tag_443\n      jump\t// in\n    tag_520:\n        /* \"#utility.yul\":11110:11184   */\n      swap2\n      pop\n        /* \"#utility.yul\":11193:11286   */\n      tag_521\n        /* \"#utility.yul\":11282:11285   */\n      dup3\n        /* \"#utility.yul\":11193:11286   */\n      tag_522\n      jump\t// in\n    tag_521:\n        /* \"#utility.yul\":11311:11313   */\n      0x40\n        /* \"#utility.yul\":11306:11309   */\n      dup3\n        /* \"#utility.yul\":11302:11314   */\n      add\n        /* \"#utility.yul\":11295:11314   */\n      swap1\n      pop\n        /* \"#utility.yul\":10954:11320   */\n      swap2\n      swap1\n      pop\n      jump\t// out\n        /* \"#utility.yul\":11326:11724   */\n    tag_523:\n        /* \"#utility.yul\":11485:11488   */\n      0x00\n        /* \"#utility.yul\":11506:11589   */\n      tag_525\n        /* \"#utility.yul\":11587:11588   */\n      0x00\n        /* \"#utility.yul\":11582:11585   */\n      dup4\n        /* \"#utility.yul\":11506:11589   */\n      tag_526\n      jump\t// in\n    tag_525:\n        /* \"#utility.yul\":11499:11589   */\n      swap2\n      pop\n        /* \"#utility.yul\":11598:11691   */\n      tag_527\n        /* \"#utility.yul\":11687:11690   */\n      dup3\n        /* \"#utility.yul\":11598:11691   */\n      tag_528\n      jump\t// in\n    tag_527:\n        /* \"#utility.yul\":11716:11717   */\n      0x00\n        /* \"#utility.yul\":11711:11714   */\n      dup3\n        /* \"#utility.yul\":11707:11718   */\n      add\n        /* \"#utility.yul\":11700:11718   */\n      swap1\n      pop\n        /* \"#utility.yul\":11326:11724   */\n      swap2\n      swap1\n      pop\n      jump\t// out\n        /* \"#utility.yul\":11730:12096   */\n    tag_529:\n        /* \"#utility.yul\":11872:11875   */\n      0x00\n        /* \"#utility.yul\":11893:11960   */\n      tag_531\n        /* \"#utility.yul\":11957:11959   */\n      0x15\n        /* \"#utility.yul\":11952:11955   */\n      dup4\n        /* \"#utility.yul\":11893:11960   */\n      tag_443\n      jump\t// in\n    tag_531:\n        /* \"#utility.yul\":11886:11960   */\n      swap2\n      pop\n        /* \"#utility.yul\":11969:12062   */\n      tag_532\n        /* \"#utility.yul\":12058:12061   */\n      dup3\n        /* \"#utility.yul\":11969:12062   */\n      tag_533\n      jump\t// in\n    tag_532:\n        /* \"#utility.yul\":12087:12089   */\n      0x20\n        /* \"#utility.yul\":12082:12085   */\n      dup3\n        /* \"#utility.yul\":12078:12090   */\n      add\n        /* \"#utility.yul\":12071:12090   */\n      swap1\n      pop\n        /* \"#utility.yul\":11730:12096   */\n      swap2\n      swap1\n      pop\n      jump\t// out\n        /* \"#utility.yul\":12102:12468   */\n    tag_534:\n        /* \"#utility.yul\":12244:12247   */\n      0x00\n        /* \"#utility.yul\":12265:12332   */\n      tag_536\n        /* \"#utility.yul\":12329:12331   */\n      0x24\n        /* \"#utility.yul\":12324:12327   */\n      dup4\n        /* \"#utility.yul\":12265:12332   */\n      tag_443\n      jump\t// in\n    tag_536:\n        /* \"#utility.yul\":12258:12332   */\n      swap2\n      pop\n        /* \"#utility.yul\":12341:12434   */\n      tag_537\n        /* \"#utility.yul\":12430:12433   */\n      dup3\n        /* \"#utility.yul\":12341:12434   */\n      tag_538\n      jump\t// in\n    tag_537:\n        /* \"#utility.yul\":12459:12461   */\n      0x40\n        /* \"#utility.yul\":12454:12457   */\n      dup3\n        /* \"#utility.yul\":12450:12462   */\n      add\n        /* \"#utility.yul\":12443:12462   */\n      swap1\n      pop\n        /* \"#utility.yul\":12102:12468   */\n      swap2\n      swap1\n      pop\n      jump\t// out\n        /* \"#utility.yul\":12474:12840   */\n    tag_539:\n        /* \"#utility.yul\":12616:12619   */\n      0x00\n        /* \"#utility.yul\":12637:12704   */\n      tag_541\n        /* \"#utility.yul\":12701:12703   */\n      0x25\n        /* \"#utility.yul\":12696:12699   */\n      dup4\n        /* \"#utility.yul\":12637:12704   */\n      tag_443\n      jump\t// in\n    tag_541:\n        /* \"#utility.yul\":12630:12704   */\n      swap2\n      pop\n        /* \"#utility.yul\":12713:12806   */\n      tag_542\n        /* \"#utility.yul\":12802:12805   */\n      dup3\n        /* \"#utility.yul\":12713:12806   */\n      tag_543\n      jump\t// in\n    tag_542:\n        /* \"#utility.yul\":12831:12833   */\n      0x40\n        /* \"#utility.yul\":12826:12829   */\n      dup3\n        /* \"#utility.yul\":12822:12834   */\n      add\n        /* \"#utility.yul\":12815:12834   */\n      swap1\n      pop\n        /* \"#utility.yul\":12474:12840   */\n      swap2\n      swap1\n      pop\n      jump\t// out\n        /* \"#utility.yul\":12846:13212   */\n    tag_544:\n        /* \"#utility.yul\":12988:12991   */\n      0x00\n        /* \"#utility.yul\":13009:13076   */\n      tag_546\n        /* \"#utility.yul\":13073:13075   */\n      0x1f\n        /* \"#utility.yul\":13068:13071   */\n      dup4\n        /* \"#utility.yul\":13009:13076   */\n      tag_443\n      jump\t// in\n    tag_546:\n        /* \"#utility.yul\":13002:13076   */\n      swap2\n      pop\n        /* \"#utility.yul\":13085:13178   */\n      tag_547\n        /* \"#utility.yul\":13174:13177   */\n      dup3\n        /* \"#utility.yul\":13085:13178   */\n      tag_548\n      jump\t// in\n    tag_547:\n        /* \"#utility.yul\":13203:13205   */\n      0x20\n        /* \"#utility.yul\":13198:13201   */\n      dup3\n        /* \"#utility.yul\":13194:13206   */\n      add\n        /* \"#utility.yul\":13187:13206   */\n      swap1\n      pop\n        /* \"#utility.yul\":12846:13212   */\n      swap2\n      swap1\n      pop\n      jump\t// out\n        /* \"#utility.yul\":13218:13336   */\n    tag_549:\n        /* \"#utility.yul\":13305:13329   */\n      tag_551\n        /* \"#utility.yul\":13323:13328   */\n      dup2\n        /* \"#utility.yul\":13305:13329   */\n      tag_552\n      jump\t// in\n    tag_551:\n        /* \"#utility.yul\":13300:13303   */\n      dup3\n        /* \"#utility.yul\":13293:13330   */\n      mstore\n        /* \"#utility.yul\":13218:13336   */\n      pop\n      pop\n      jump\t// out\n        /* \"#utility.yul\":13342:13454   */\n    tag_553:\n        /* \"#utility.yul\":13425:13447   */\n      tag_555\n        /* \"#utility.yul\":13441:13446   */\n      dup2\n        /* \"#utility.yul\":13425:13447   */\n      tag_556\n      jump\t// in\n    tag_555:\n        /* \"#utility.yul\":13420:13423   */\n      dup3\n        /* \"#utility.yul\":13413:13448   */\n      mstore\n        /* \"#utility.yul\":13342:13454   */\n      pop\n      pop\n      jump\t// out\n        /* \"#utility.yul\":13460:13839   */\n    tag_224:\n        /* \"#utility.yul\":13644:13647   */\n      0x00\n        /* \"#utility.yul\":13666:13813   */\n      tag_558\n        /* \"#utility.yul\":13809:13812   */\n      dup3\n        /* \"#utility.yul\":13666:13813   */\n      tag_523\n      jump\t// in\n    tag_558:\n        /* \"#utility.yul\":13659:13813   */\n      swap2\n      pop\n        /* \"#utility.yul\":13830:13833   */\n      dup2\n        /* \"#utility.yul\":13823:13833   */\n      swap1\n      pop\n        /* \"#utility.yul\":13460:13839   */\n      swap2\n      swap1\n      pop\n      jump\t// out\n        /* \"#utility.yul\":13845:14067   */\n    tag_103:\n        /* \"#utility.yul\":13938:13942   */\n      0x00\n        /* \"#utility.yul\":13976:13978   */\n      0x20\n        /* \"#utility.yul\":13965:13974   */\n      dup3\n        /* \"#utility.yul\":13961:13979   */\n      add\n        /* \"#utility.yul\":13953:13979   */\n      swap1\n      pop\n        /* \"#utility.yul\":13989:14060   */\n      tag_560\n        /* \"#utility.yul\":14057:14058   */\n      0x00\n        /* \"#utility.yul\":14046:14055   */\n      dup4\n        /* \"#utility.yul\":14042:14059   */\n      add\n        /* \"#utility.yul\":14033:14039   */\n      dup5\n        /* \"#utility.yul\":13989:14060   */\n      tag_430\n      jump\t// in\n    tag_560:\n        /* \"#utility.yul\":13845:14067   */\n      swap3\n      swap2\n      pop\n      pop\n      jump\t// out\n        /* \"#utility.yul\":14073:14515   */\n    tag_186:\n        /* \"#utility.yul\":14222:14226   */\n      0x00\n        /* \"#utility.yul\":14260:14262   */\n      0x60\n        /* \"#utility.yul\":14249:14258   */\n      dup3\n        /* \"#utility.yul\":14245:14263   */\n      add\n        /* \"#utility.yul\":14237:14263   */\n      swap1\n      pop\n        /* \"#utility.yul\":14273:14344   */\n      tag_562\n        /* \"#utility.yul\":14341:14342   */\n      0x00\n        /* \"#utility.yul\":14330:14339   */\n      dup4\n        /* \"#utility.yul\":14326:14343   */\n      add\n        /* \"#utility.yul\":14317:14323   */\n      dup7\n        /* \"#utility.yul\":14273:14344   */\n      tag_430\n      jump\t// in\n    tag_562:\n        /* \"#utility.yul\":14354:14426   */\n      tag_563\n        /* \"#utility.yul\":14422:14424   */\n      0x20\n        /* \"#utility.yul\":14411:14420   */\n      dup4\n        /* \"#utility.yul\":14407:14425   */\n      add\n        /* \"#utility.yul\":14398:14404   */\n      dup6\n        /* \"#utility.yul\":14354:14426   */\n      tag_430\n      jump\t// in\n    tag_563:\n        /* \"#utility.yul\":14436:14508   */\n      tag_564\n        /* \"#utility.yul\":14504:14506   */\n      0x40\n        /* \"#utility.yul\":14493:14502   */\n      dup4\n        /* \"#utility.yul\":14489:14507   */\n      add\n        /* \"#utility.yul\":14480:14486   */\n      dup5\n        /* \"#utility.yul\":14436:14508   */\n      tag_549\n      jump\t// in\n    tag_564:\n        /* \"#utility.yul\":14073:14515   */\n      swap5\n      swap4\n      pop\n      pop\n      pop\n      pop\n      jump\t// out\n        /* \"#utility.yul\":14521:14853   */\n    tag_263:\n        /* \"#utility.yul\":14642:14646   */\n      0x00\n        /* \"#utility.yul\":14680:14682   */\n      0x40\n        /* \"#utility.yul\":14669:14678   */\n      dup3\n        /* \"#utility.yul\":14665:14683   */\n      add\n        /* \"#utility.yul\":14657:14683   */\n      swap1\n      pop\n        /* \"#utility.yul\":14693:14764   */\n      tag_566\n        /* \"#utility.yul\":14761:14762   */\n      0x00\n        /* \"#utility.yul\":14750:14759   */\n      dup4\n        /* \"#utility.yul\":14746:14763   */\n      add\n        /* \"#utility.yul\":14737:14743   */\n      dup6\n        /* \"#utility.yul\":14693:14764   */\n      tag_430\n      jump\t// in\n    tag_566:\n        /* \"#utility.yul\":14774:14846   */\n      tag_567\n        /* \"#utility.yul\":14842:14844   */\n      0x20\n        /* \"#utility.yul\":14831:14840   */\n      dup4\n        /* \"#utility.yul\":14827:14845   */\n      add\n        /* \"#utility.yul\":14818:14824   */\n      dup5\n        /* \"#utility.yul\":14774:14846   */\n      tag_549\n      jump\t// in\n    tag_567:\n        /* \"#utility.yul\":14521:14853   */\n      swap4\n      swap3\n      pop\n      pop\n      pop\n      jump\t// out\n        /* \"#utility.yul\":14859:15069   */\n    tag_43:\n        /* \"#utility.yul\":14946:14950   */\n      0x00\n        /* \"#utility.yul\":14984:14986   */\n      0x20\n        /* \"#utility.yul\":14973:14982   */\n      dup3\n        /* \"#utility.yul\":14969:14987   */\n      add\n        /* \"#utility.yul\":14961:14987   */\n      swap1\n      pop\n        /* \"#utility.yul\":14997:15062   */\n      tag_569\n        /* \"#utility.yul\":15059:15060   */\n      0x00\n        /* \"#utility.yul\":15048:15057   */\n      dup4\n        /* \"#utility.yul\":15044:15061   */\n      add\n        /* \"#utility.yul\":15035:15041   */\n      dup5\n        /* \"#utility.yul\":14997:15062   */\n      tag_434\n      jump\t// in\n    tag_569:\n        /* \"#utility.yul\":14859:15069   */\n      swap3\n      swap2\n      pop\n      pop\n      jump\t// out\n        /* \"#utility.yul\":15075:15388   */\n    tag_31:\n        /* \"#utility.yul\":15188:15192   */\n      0x00\n        /* \"#utility.yul\":15226:15228   */\n      0x20\n        /* \"#utility.yul\":15215:15224   */\n      dup3\n        /* \"#utility.yul\":15211:15229   */\n      add\n        /* \"#utility.yul\":15203:15229   */\n      swap1\n      pop\n        /* \"#utility.yul\":15275:15284   */\n      dup2\n        /* \"#utility.yul\":15269:15273   */\n      dup2\n        /* \"#utility.yul\":15265:15285   */\n      sub\n        /* \"#utility.yul\":15261:15262   */\n      0x00\n        /* \"#utility.yul\":15250:15259   */\n      dup4\n        /* \"#utility.yul\":15246:15263   */\n      add\n        /* \"#utility.yul\":15239:15286   */\n      mstore\n        /* \"#utility.yul\":15303:15381   */\n      tag_571\n        /* \"#utility.yul\":15376:15380   */\n      dup2\n        /* \"#utility.yul\":15367:15373   */\n      dup5\n        /* \"#utility.yul\":15303:15381   */\n      tag_438\n      jump\t// in\n    tag_571:\n        /* \"#utility.yul\":15295:15381   */\n      swap1\n      pop\n        /* \"#utility.yul\":15075:15388   */\n      swap3\n      swap2\n      pop\n      pop\n      jump\t// out\n        /* \"#utility.yul\":15394:15813   */\n    tag_321:\n        /* \"#utility.yul\":15560:15564   */\n      0x00\n        /* \"#utility.yul\":15598:15600   */\n      0x20\n        /* \"#utility.yul\":15587:15596   */\n      dup3\n        /* \"#utility.yul\":15583:15601   */\n      add\n        /* \"#utility.yul\":15575:15601   */\n      swap1\n      pop\n        /* \"#utility.yul\":15647:15656   */\n      dup2\n        /* \"#utility.yul\":15641:15645   */\n      dup2\n        /* \"#utility.yul\":15637:15657   */\n      sub\n        /* \"#utility.yul\":15633:15634   */\n      0x00\n        /* \"#utility.yul\":15622:15631   */\n      dup4\n        /* \"#utility.yul\":15618:15635   */\n      add\n        /* \"#utility.yul\":15611:15658   */\n      mstore\n        /* \"#utility.yul\":15675:15806   */\n      tag_573\n        /* \"#utility.yul\":15801:15805   */\n      dup2\n        /* \"#utility.yul\":15675:15806   */\n      tag_448\n      jump\t// in\n    tag_573:\n        /* \"#utility.yul\":15667:15806   */\n      swap1\n      pop\n        /* \"#utility.yul\":15394:15813   */\n      swap2\n      swap1\n      pop\n      jump\t// out\n        /* \"#utility.yul\":15819:16238   */\n    tag_359:\n        /* \"#utility.yul\":15985:15989   */\n      0x00\n        /* \"#utility.yul\":16023:16025   */\n      0x20\n        /* \"#utility.yul\":16012:16021   */\n      dup3\n        /* \"#utility.yul\":16008:16026   */\n      add\n        /* \"#utility.yul\":16000:16026   */\n      swap1\n      pop\n        /* \"#utility.yul\":16072:16081   */\n      dup2\n        /* \"#utility.yul\":16066:16070   */\n      dup2\n        /* \"#utility.yul\":16062:16082   */\n      sub\n        /* \"#utility.yul\":16058:16059   */\n      0x00\n        /* \"#utility.yul\":16047:16056   */\n      dup4\n        /* \"#utility.yul\":16043:16060   */\n      add\n        /* \"#utility.yul\":16036:16083   */\n      mstore\n        /* \"#utility.yul\":16100:16231   */\n      tag_575\n        /* \"#utility.yul\":16226:16230   */\n      dup2\n        /* \"#utility.yul\":16100:16231   */\n      tag_453\n      jump\t// in\n    tag_575:\n        /* \"#utility.yul\":16092:16231   */\n      swap1\n      pop\n        /* \"#utility.yul\":15819:16238   */\n      swap2\n      swap1\n      pop\n      jump\t// out\n        /* \"#utility.yul\":16244:16663   */\n    tag_295:\n        /* \"#utility.yul\":16410:16414   */\n      0x00\n        /* \"#utility.yul\":16448:16450   */\n      0x20\n        /* \"#utility.yul\":16437:16446   */\n      dup3\n        /* \"#utility.yul\":16433:16451   */\n      add\n        /* \"#utility.yul\":16425:16451   */\n      swap1\n      pop\n        /* \"#utility.yul\":16497:16506   */\n      dup2\n        /* \"#utility.yul\":16491:16495   */\n      dup2\n        /* \"#utility.yul\":16487:16507   */\n      sub\n        /* \"#utility.yul\":16483:16484   */\n      0x00\n        /* \"#utility.yul\":16472:16481   */\n      dup4\n        /* \"#utility.yul\":16468:16485   */\n      add\n        /* \"#utility.yul\":16461:16508   */\n      mstore\n        /* \"#utility.yul\":16525:16656   */\n      tag_577\n        /* \"#utility.yul\":16651:16655   */\n      dup2\n        /* \"#utility.yul\":16525:16656   */\n      tag_458\n      jump\t// in\n    tag_577:\n        /* \"#utility.yul\":16517:16656   */\n      swap1\n      pop\n        /* \"#utility.yul\":16244:16663   */\n      swap2\n      swap1\n      pop\n      jump\t// out\n        /* \"#utility.yul\":16669:17088   */\n    tag_201:\n        /* \"#utility.yul\":16835:16839   */\n      0x00\n        /* \"#utility.yul\":16873:16875   */\n      0x20\n        /* \"#utility.yul\":16862:16871   */\n      dup3\n        /* \"#utility.yul\":16858:16876   */\n      add\n        /* \"#utility.yul\":16850:16876   */\n      swap1\n      pop\n        /* \"#utility.yul\":16922:16931   */\n      dup2\n        /* \"#utility.yul\":16916:16920   */\n      dup2\n        /* \"#utility.yul\":16912:16932   */\n      sub\n        /* \"#utility.yul\":16908:16909   */\n      0x00\n        /* \"#utility.yul\":16897:16906   */\n      dup4\n        /* \"#utility.yul\":16893:16910   */\n      add\n        /* \"#utility.yul\":16886:16933   */\n      mstore\n        /* \"#utility.yul\":16950:17081   */\n      tag_579\n        /* \"#utility.yul\":17076:17080   */\n      dup2\n        /* \"#utility.yul\":16950:17081   */\n      tag_463\n      jump\t// in\n    tag_579:\n        /* \"#utility.yul\":16942:17081   */\n      swap1\n      pop\n        /* \"#utility.yul\":16669:17088   */\n      swap2\n      swap1\n      pop\n      jump\t// out\n        /* \"#utility.yul\":17094:17513   */\n    tag_313:\n        /* \"#utility.yul\":17260:17264   */\n      0x00\n        /* \"#utility.yul\":17298:17300   */\n      0x20\n        /* \"#utility.yul\":17287:17296   */\n      dup3\n        /* \"#utility.yul\":17283:17301   */\n      add\n        /* \"#utility.yul\":17275:17301   */\n      swap1\n      pop\n        /* \"#utility.yul\":17347:17356   */\n      dup2\n        /* \"#utility.yul\":17341:17345   */\n      dup2\n        /* \"#utility.yul\":17337:17357   */\n      sub\n        /* \"#utility.yul\":17333:17334   */\n      0x00\n        /* \"#utility.yul\":17322:17331   */\n      dup4\n        /* \"#utility.yul\":17318:17335   */\n      add\n        /* \"#utility.yul\":17311:17358   */\n      mstore\n        /* \"#utility.yul\":17375:17506   */\n      tag_581\n        /* \"#utility.yul\":17501:17505   */\n      dup2\n        /* \"#utility.yul\":17375:17506   */\n      tag_468\n      jump\t// in\n    tag_581:\n        /* \"#utility.yul\":17367:17506   */\n      swap1\n      pop\n        /* \"#utility.yul\":17094:17513   */\n      swap2\n      swap1\n      pop\n      jump\t// out\n        /* \"#utility.yul\":17519:17938   */\n    tag_326:\n        /* \"#utility.yul\":17685:17689   */\n      0x00\n        /* \"#utility.yul\":17723:17725   */\n      0x20\n        /* \"#utility.yul\":17712:17721   */\n      dup3\n        /* \"#utility.yul\":17708:17726   */\n      add\n        /* \"#utility.yul\":17700:17726   */\n      swap1\n      pop\n        /* \"#utility.yul\":17772:17781   */\n      dup2\n        /* \"#utility.yul\":17766:17770   */\n      dup2\n        /* \"#utility.yul\":17762:17782   */\n      sub\n        /* \"#utility.yul\":17758:17759   */\n      0x00\n        /* \"#utility.yul\":17747:17756   */\n      dup4\n        /* \"#utility.yul\":17743:17760   */\n      add\n        /* \"#utility.yul\":17736:17783   */\n      mstore\n        /* \"#utility.yul\":17800:17931   */\n      tag_583\n        /* \"#utility.yul\":17926:17930   */\n      dup2\n        /* \"#utility.yul\":17800:17931   */\n      tag_473\n      jump\t// in\n    tag_583:\n        /* \"#utility.yul\":17792:17931   */\n      swap1\n      pop\n        /* \"#utility.yul\":17519:17938   */\n      swap2\n      swap1\n      pop\n      jump\t// out\n        /* \"#utility.yul\":17944:18363   */\n    tag_230:\n        /* \"#utility.yul\":18110:18114   */\n      0x00\n        /* \"#utility.yul\":18148:18150   */\n      0x20\n        /* \"#utility.yul\":18137:18146   */\n      dup3\n        /* \"#utility.yul\":18133:18151   */\n      add\n        /* \"#utility.yul\":18125:18151   */\n      swap1\n      pop\n        /* \"#utility.yul\":18197:18206   */\n      dup2\n        /* \"#utility.yul\":18191:18195   */\n      dup2\n        /* \"#utility.yul\":18187:18207   */\n      sub\n        /* \"#utility.yul\":18183:18184   */\n      0x00\n        /* \"#utility.yul\":18172:18181   */\n      dup4\n        /* \"#utility.yul\":18168:18185   */\n      add\n        /* \"#utility.yul\":18161:18208   */\n      mstore\n        /* \"#utility.yul\":18225:18356   */\n      tag_585\n        /* \"#utility.yul\":18351:18355   */\n      dup2\n        /* \"#utility.yul\":18225:18356   */\n      tag_478\n      jump\t// in\n    tag_585:\n        /* \"#utility.yul\":18217:18356   */\n      swap1\n      pop\n        /* \"#utility.yul\":17944:18363   */\n      swap2\n      swap1\n      pop\n      jump\t// out\n        /* \"#utility.yul\":18369:18788   */\n    tag_284:\n        /* \"#utility.yul\":18535:18539   */\n      0x00\n        /* \"#utility.yul\":18573:18575   */\n      0x20\n        /* \"#utility.yul\":18562:18571   */\n      dup3\n        /* \"#utility.yul\":18558:18576   */\n      add\n        /* \"#utility.yul\":18550:18576   */\n      swap1\n      pop\n        /* \"#utility.yul\":18622:18631   */\n      dup2\n        /* \"#utility.yul\":18616:18620   */\n      dup2\n        /* \"#utility.yul\":18612:18632   */\n      sub\n        /* \"#utility.yul\":18608:18609   */\n      0x00\n        /* \"#utility.yul\":18597:18606   */\n      dup4\n        /* \"#utility.yul\":18593:18610   */\n      add\n        /* \"#utility.yul\":18586:18633   */\n      mstore\n        /* \"#utility.yul\":18650:18781   */\n      tag_587\n        /* \"#utility.yul\":18776:18780   */\n      dup2\n        /* \"#utility.yul\":18650:18781   */\n      tag_483\n      jump\t// in\n    tag_587:\n        /* \"#utility.yul\":18642:18781   */\n      swap1\n      pop\n        /* \"#utility.yul\":18369:18788   */\n      swap2\n      swap1\n      pop\n      jump\t// out\n        /* \"#utility.yul\":18794:19213   */\n    tag_287:\n        /* \"#utility.yul\":18960:18964   */\n      0x00\n        /* \"#utility.yul\":18998:19000   */\n      0x20\n        /* \"#utility.yul\":18987:18996   */\n      dup3\n        /* \"#utility.yul\":18983:19001   */\n      add\n        /* \"#utility.yul\":18975:19001   */\n      swap1\n      pop\n        /* \"#utility.yul\":19047:19056   */\n      dup2\n        /* \"#utility.yul\":19041:19045   */\n      dup2\n        /* \"#utility.yul\":19037:19057   */\n      sub\n        /* \"#utility.yul\":19033:19034   */\n      0x00\n        /* \"#utility.yul\":19022:19031   */\n      dup4\n        /* \"#utility.yul\":19018:19035   */\n      add\n        /* \"#utility.yul\":19011:19058   */\n      mstore\n        /* \"#utility.yul\":19075:19206   */\n      tag_589\n        /* \"#utility.yul\":19201:19205   */\n      dup2\n        /* \"#utility.yul\":19075:19206   */\n      tag_488\n      jump\t// in\n    tag_589:\n        /* \"#utility.yul\":19067:19206   */\n      swap1\n      pop\n        /* \"#utility.yul\":18794:19213   */\n      swap2\n      swap1\n      pop\n      jump\t// out\n        /* \"#utility.yul\":19219:19638   */\n    tag_217:\n        /* \"#utility.yul\":19385:19389   */\n      0x00\n        /* \"#utility.yul\":19423:19425   */\n      0x20\n        /* \"#utility.yul\":19412:19421   */\n      dup3\n        /* \"#utility.yul\":19408:19426   */\n      add\n        /* \"#utility.yul\":19400:19426   */\n      swap1\n      pop\n        /* \"#utility.yul\":19472:19481   */\n      dup2\n        /* \"#utility.yul\":19466:19470   */\n      dup2\n        /* \"#utility.yul\":19462:19482   */\n      sub\n        /* \"#utility.yul\":19458:19459   */\n      0x00\n        /* \"#utility.yul\":19447:19456   */\n      dup4\n        /* \"#utility.yul\":19443:19460   */\n      add\n        /* \"#utility.yul\":19436:19483   */\n      mstore\n        /* \"#utility.yul\":19500:19631   */\n      tag_591\n        /* \"#utility.yul\":19626:19630   */\n      dup2\n        /* \"#utility.yul\":19500:19631   */\n      tag_493\n      jump\t// in\n    tag_591:\n        /* \"#utility.yul\":19492:19631   */\n      swap1\n      pop\n        /* \"#utility.yul\":19219:19638   */\n      swap2\n      swap1\n      pop\n      jump\t// out\n        /* \"#utility.yul\":19644:20063   */\n    tag_245:\n        /* \"#utility.yul\":19810:19814   */\n      0x00\n        /* \"#utility.yul\":19848:19850   */\n      0x20\n        /* \"#utility.yul\":19837:19846   */\n      dup3\n        /* \"#utility.yul\":19833:19851   */\n      add\n        /* \"#utility.yul\":19825:19851   */\n      swap1\n      pop\n        /* \"#utility.yul\":19897:19906   */\n      dup2\n        /* \"#utility.yul\":19891:19895   */\n      dup2\n        /* \"#utility.yul\":19887:19907   */\n      sub\n        /* \"#utility.yul\":19883:19884   */\n      0x00\n        /* \"#utility.yul\":19872:19881   */\n      dup4\n        /* \"#utility.yul\":19868:19885   */\n      add\n        /* \"#utility.yul\":19861:19908   */\n      mstore\n        /* \"#utility.yul\":19925:20056   */\n      tag_593\n        /* \"#utility.yul\":20051:20055   */\n      dup2\n        /* \"#utility.yul\":19925:20056   */\n      tag_498\n      jump\t// in\n    tag_593:\n        /* \"#utility.yul\":19917:20056   */\n      swap1\n      pop\n        /* \"#utility.yul\":19644:20063   */\n      swap2\n      swap1\n      pop\n      jump\t// out\n        /* \"#utility.yul\":20069:20488   */\n    tag_355:\n        /* \"#utility.yul\":20235:20239   */\n      0x00\n        /* \"#utility.yul\":20273:20275   */\n      0x20\n        /* \"#utility.yul\":20262:20271   */\n      dup3\n        /* \"#utility.yul\":20258:20276   */\n      add\n        /* \"#utility.yul\":20250:20276   */\n      swap1\n      pop\n        /* \"#utility.yul\":20322:20331   */\n      dup2\n        /* \"#utility.yul\":20316:20320   */\n      dup2\n        /* \"#utility.yul\":20312:20332   */\n      sub\n        /* \"#utility.yul\":20308:20309   */\n      0x00\n        /* \"#utility.yul\":20297:20306   */\n      dup4\n        /* \"#utility.yul\":20293:20310   */\n      add\n        /* \"#utility.yul\":20286:20333   */\n      mstore\n        /* \"#utility.yul\":20350:20481   */\n      tag_595\n        /* \"#utility.yul\":20476:20480   */\n      dup2\n        /* \"#utility.yul\":20350:20481   */\n      tag_503\n      jump\t// in\n    tag_595:\n        /* \"#utility.yul\":20342:20481   */\n      swap1\n      pop\n        /* \"#utility.yul\":20069:20488   */\n      swap2\n      swap1\n      pop\n      jump\t// out\n        /* \"#utility.yul\":20494:20913   */\n    tag_159:\n        /* \"#utility.yul\":20660:20664   */\n      0x00\n        /* \"#utility.yul\":20698:20700   */\n      0x20\n        /* \"#utility.yul\":20687:20696   */\n      dup3\n        /* \"#utility.yul\":20683:20701   */\n      add\n        /* \"#utility.yul\":20675:20701   */\n      swap1\n      pop\n        /* \"#utility.yul\":20747:20756   */\n      dup2\n        /* \"#utility.yul\":20741:20745   */\n      dup2\n        /* \"#utility.yul\":20737:20757   */\n      sub\n        /* \"#utility.yul\":20733:20734   */\n      0x00\n        /* \"#utility.yul\":20722:20731   */\n      dup4\n        /* \"#utility.yul\":20718:20735   */\n      add\n        /* \"#utility.yul\":20711:20758   */\n      mstore\n        /* \"#utility.yul\":20775:20906   */\n      tag_597\n        /* \"#utility.yul\":20901:20905   */\n      dup2\n        /* \"#utility.yul\":20775:20906   */\n      tag_508\n      jump\t// in\n    tag_597:\n        /* \"#utility.yul\":20767:20906   */\n      swap1\n      pop\n        /* \"#utility.yul\":20494:20913   */\n      swap2\n      swap1\n      pop\n      jump\t// out\n        /* \"#utility.yul\":20919:21338   */\n    tag_318:\n        /* \"#utility.yul\":21085:21089   */\n      0x00\n        /* \"#utility.yul\":21123:21125   */\n      0x20\n        /* \"#utility.yul\":21112:21121   */\n      dup3\n        /* \"#utility.yul\":21108:21126   */\n      add\n        /* \"#utility.yul\":21100:21126   */\n      swap1\n      pop\n        /* \"#utility.yul\":21172:21181   */\n      dup2\n        /* \"#utility.yul\":21166:21170   */\n      dup2\n        /* \"#utility.yul\":21162:21182   */\n      sub\n        /* \"#utility.yul\":21158:21159   */\n      0x00\n        /* \"#utility.yul\":21147:21156   */\n      dup4\n        /* \"#utility.yul\":21143:21160   */\n      add\n        /* \"#utility.yul\":21136:21183   */\n      mstore\n        /* \"#utility.yul\":21200:21331   */\n      tag_599\n        /* \"#utility.yul\":21326:21330   */\n      dup2\n        /* \"#utility.yul\":21200:21331   */\n      tag_513\n      jump\t// in\n    tag_599:\n        /* \"#utility.yul\":21192:21331   */\n      swap1\n      pop\n        /* \"#utility.yul\":20919:21338   */\n      swap2\n      swap1\n      pop\n      jump\t// out\n        /* \"#utility.yul\":21344:21763   */\n    tag_261:\n        /* \"#utility.yul\":21510:21514   */\n      0x00\n        /* \"#utility.yul\":21548:21550   */\n      0x20\n        /* \"#utility.yul\":21537:21546   */\n      dup3\n        /* \"#utility.yul\":21533:21551   */\n      add\n        /* \"#utility.yul\":21525:21551   */\n      swap1\n      pop\n        /* \"#utility.yul\":21597:21606   */\n      dup2\n        /* \"#utility.yul\":21591:21595   */\n      dup2\n        /* \"#utility.yul\":21587:21607   */\n      sub\n        /* \"#utility.yul\":21583:21584   */\n      0x00\n        /* \"#utility.yul\":21572:21581   */\n      dup4\n        /* \"#utility.yul\":21568:21585   */\n      add\n        /* \"#utility.yul\":21561:21608   */\n      mstore\n        /* \"#utility.yul\":21625:21756   */\n      tag_601\n        /* \"#utility.yul\":21751:21755   */\n      dup2\n        /* \"#utility.yul\":21625:21756   */\n      tag_518\n      jump\t// in\n    tag_601:\n        /* \"#utility.yul\":21617:21756   */\n      swap1\n      pop\n        /* \"#utility.yul\":21344:21763   */\n      swap2\n      swap1\n      pop\n      jump\t// out\n        /* \"#utility.yul\":21769:22188   */\n    tag_301:\n        /* \"#utility.yul\":21935:21939   */\n      0x00\n        /* \"#utility.yul\":21973:21975   */\n      0x20\n        /* \"#utility.yul\":21962:21971   */\n      dup3\n        /* \"#utility.yul\":21958:21976   */\n      add\n        /* \"#utility.yul\":21950:21976   */\n      swap1\n      pop\n        /* \"#utility.yul\":22022:22031   */\n      dup2\n        /* \"#utility.yul\":22016:22020   */\n      dup2\n        /* \"#utility.yul\":22012:22032   */\n      sub\n        /* \"#utility.yul\":22008:22009   */\n      0x00\n        /* \"#utility.yul\":21997:22006   */\n      dup4\n        /* \"#utility.yul\":21993:22010   */\n      add\n        /* \"#utility.yul\":21986:22033   */\n      mstore\n        /* \"#utility.yul\":22050:22181   */\n      tag_603\n        /* \"#utility.yul\":22176:22180   */\n      dup2\n        /* \"#utility.yul\":22050:22181   */\n      tag_529\n      jump\t// in\n    tag_603:\n        /* \"#utility.yul\":22042:22181   */\n      swap1\n      pop\n        /* \"#utility.yul\":21769:22188   */\n      swap2\n      swap1\n      pop\n      jump\t// out\n        /* \"#utility.yul\":22194:22613   */\n    tag_292:\n        /* \"#utility.yul\":22360:22364   */\n      0x00\n        /* \"#utility.yul\":22398:22400   */\n      0x20\n        /* \"#utility.yul\":22387:22396   */\n      dup3\n        /* \"#utility.yul\":22383:22401   */\n      add\n        /* \"#utility.yul\":22375:22401   */\n      swap1\n      pop\n        /* \"#utility.yul\":22447:22456   */\n      dup2\n        /* \"#utility.yul\":22441:22445   */\n      dup2\n        /* \"#utility.yul\":22437:22457   */\n      sub\n        /* \"#utility.yul\":22433:22434   */\n      0x00\n        /* \"#utility.yul\":22422:22431   */\n      dup4\n        /* \"#utility.yul\":22418:22435   */\n      add\n        /* \"#utility.yul\":22411:22458   */\n      mstore\n        /* \"#utility.yul\":22475:22606   */\n      tag_605\n        /* \"#utility.yul\":22601:22605   */\n      dup2\n        /* \"#utility.yul\":22475:22606   */\n      tag_534\n      jump\t// in\n    tag_605:\n        /* \"#utility.yul\":22467:22606   */\n      swap1\n      pop\n        /* \"#utility.yul\":22194:22613   */\n      swap2\n      swap1\n      pop\n      jump\t// out\n        /* \"#utility.yul\":22619:23038   */\n    tag_273:\n        /* \"#utility.yul\":22785:22789   */\n      0x00\n        /* \"#utility.yul\":22823:22825   */\n      0x20\n        /* \"#utility.yul\":22812:22821   */\n      dup3\n        /* \"#utility.yul\":22808:22826   */\n      add\n        /* \"#utility.yul\":22800:22826   */\n      swap1\n      pop\n        /* \"#utility.yul\":22872:22881   */\n      dup2\n        /* \"#utility.yul\":22866:22870   */\n      dup2\n        /* \"#utility.yul\":22862:22882   */\n      sub\n        /* \"#utility.yul\":22858:22859   */\n      0x00\n        /* \"#utility.yul\":22847:22856   */\n      dup4\n        /* \"#utility.yul\":22843:22860   */\n      add\n        /* \"#utility.yul\":22836:22883   */\n      mstore\n        /* \"#utility.yul\":22900:23031   */\n      tag_607\n        /* \"#utility.yul\":23026:23030   */\n      dup2\n        /* \"#utility.yul\":22900:23031   */\n      tag_539\n      jump\t// in\n    tag_607:\n        /* \"#utility.yul\":22892:23031   */\n      swap1\n      pop\n        /* \"#utility.yul\":22619:23038   */\n      swap2\n      swap1\n      pop\n      jump\t// out\n        /* \"#utility.yul\":23044:23463   */\n    tag_334:\n        /* \"#utility.yul\":23210:23214   */\n      0x00\n        /* \"#utility.yul\":23248:23250   */\n      0x20\n        /* \"#utility.yul\":23237:23246   */\n      dup3\n        /* \"#utility.yul\":23233:23251   */\n      add\n        /* \"#utility.yul\":23225:23251   */\n      swap1\n      pop\n        /* \"#utility.yul\":23297:23306   */\n      dup2\n        /* \"#utility.yul\":23291:23295   */\n      dup2\n        /* \"#utility.yul\":23287:23307   */\n      sub\n        /* \"#utility.yul\":23283:23284   */\n      0x00\n        /* \"#utility.yul\":23272:23281   */\n      dup4\n        /* \"#utility.yul\":23268:23285   */\n      add\n        /* \"#utility.yul\":23261:23308   */\n      mstore\n        /* \"#utility.yul\":23325:23456   */\n      tag_609\n        /* \"#utility.yul\":23451:23455   */\n      dup2\n        /* \"#utility.yul\":23325:23456   */\n      tag_544\n      jump\t// in\n    tag_609:\n        /* \"#utility.yul\":23317:23456   */\n      swap1\n      pop\n        /* \"#utility.yul\":23044:23463   */\n      swap2\n      swap1\n      pop\n      jump\t// out\n        /* \"#utility.yul\":23469:23691   */\n    tag_50:\n        /* \"#utility.yul\":23562:23566   */\n      0x00\n        /* \"#utility.yul\":23600:23602   */\n      0x20\n        /* \"#utility.yul\":23589:23598   */\n      dup3\n        /* \"#utility.yul\":23585:23603   */\n      add\n        /* \"#utility.yul\":23577:23603   */\n      swap1\n      pop\n        /* \"#utility.yul\":23613:23684   */\n      tag_611\n        /* \"#utility.yul\":23681:23682   */\n      0x00\n        /* \"#utility.yul\":23670:23679   */\n      dup4\n        /* \"#utility.yul\":23666:23683   */\n      add\n        /* \"#utility.yul\":23657:23663   */\n      dup5\n        /* \"#utility.yul\":23613:23684   */\n      tag_549\n      jump\t// in\n    tag_611:\n        /* \"#utility.yul\":23469:23691   */\n      swap3\n      swap2\n      pop\n      pop\n      jump\t// out\n        /* \"#utility.yul\":23697:24029   */\n    tag_36:\n        /* \"#utility.yul\":23818:23822   */\n      0x00\n        /* \"#utility.yul\":23856:23858   */\n      0x40\n        /* \"#utility.yul\":23845:23854   */\n      dup3\n        /* \"#utility.yul\":23841:23859   */\n      add\n        /* \"#utility.yul\":23833:23859   */\n      swap1\n      pop\n        /* \"#utility.yul\":23869:23940   */\n      tag_613\n        /* \"#utility.yul\":23937:23938   */\n      0x00\n        /* \"#utility.yul\":23926:23935   */\n      dup4\n        /* \"#utility.yul\":23922:23939   */\n      add\n        /* \"#utility.yul\":23913:23919   */\n      dup6\n        /* \"#utility.yul\":23869:23940   */\n      tag_549\n      jump\t// in\n    tag_613:\n        /* \"#utility.yul\":23950:24022   */\n      tag_614\n        /* \"#utility.yul\":24018:24020   */\n      0x20\n        /* \"#utility.yul\":24007:24016   */\n      dup4\n        /* \"#utility.yul\":24003:24021   */\n      add\n        /* \"#utility.yul\":23994:24000   */\n      dup5\n        /* \"#utility.yul\":23950:24022   */\n      tag_549\n      jump\t// in\n    tag_614:\n        /* \"#utility.yul\":23697:24029   */\n      swap4\n      swap3\n      pop\n      pop\n      pop\n      jump\t// out\n        /* \"#utility.yul\":24035:24249   */\n    tag_70:\n        /* \"#utility.yul\":24124:24128   */\n      0x00\n        /* \"#utility.yul\":24162:24164   */\n      0x20\n        /* \"#utility.yul\":24151:24160   */\n      dup3\n        /* \"#utility.yul\":24147:24165   */\n      add\n        /* \"#utility.yul\":24139:24165   */\n      swap1\n      pop\n        /* \"#utility.yul\":24175:24242   */\n      tag_616\n        /* \"#utility.yul\":24239:24240   */\n      0x00\n        /* \"#utility.yul\":24228:24237   */\n      dup4\n        /* \"#utility.yul\":24224:24241   */\n      add\n        /* \"#utility.yul\":24215:24221   */\n      dup5\n        /* \"#utility.yul\":24175:24242   */\n      tag_553\n      jump\t// in\n    tag_616:\n        /* \"#utility.yul\":24035:24249   */\n      swap3\n      swap2\n      pop\n      pop\n      jump\t// out\n        /* \"#utility.yul\":24336:24435   */\n    tag_441:\n        /* \"#utility.yul\":24388:24394   */\n      0x00\n        /* \"#utility.yul\":24422:24427   */\n      dup2\n        /* \"#utility.yul\":24416:24428   */\n      mload\n        /* \"#utility.yul\":24406:24428   */\n      swap1\n      pop\n        /* \"#utility.yul\":24336:24435   */\n      swap2\n      swap1\n      pop\n      jump\t// out\n        /* \"#utility.yul\":24441:24588   */\n    tag_526:\n        /* \"#utility.yul\":24542:24553   */\n      0x00\n        /* \"#utility.yul\":24579:24582   */\n      dup2\n        /* \"#utility.yul\":24564:24582   */\n      swap1\n      pop\n        /* \"#utility.yul\":24441:24588   */\n      swap3\n      swap2\n      pop\n      pop\n      jump\t// out\n        /* \"#utility.yul\":24594:24763   */\n    tag_443:\n        /* \"#utility.yul\":24678:24689   */\n      0x00\n        /* \"#utility.yul\":24712:24718   */\n      dup3\n        /* \"#utility.yul\":24707:24710   */\n      dup3\n        /* \"#utility.yul\":24700:24719   */\n      mstore\n        /* \"#utility.yul\":24752:24756   */\n      0x20\n        /* \"#utility.yul\":24747:24750   */\n      dup3\n        /* \"#utility.yul\":24743:24757   */\n      add\n        /* \"#utility.yul\":24728:24757   */\n      swap1\n      pop\n        /* \"#utility.yul\":24594:24763   */\n      swap3\n      swap2\n      pop\n      pop\n      jump\t// out\n        /* \"#utility.yul\":24769:25074   */\n    tag_181:\n        /* \"#utility.yul\":24809:24812   */\n      0x00\n        /* \"#utility.yul\":24828:24848   */\n      tag_623\n        /* \"#utility.yul\":24846:24847   */\n      dup3\n        /* \"#utility.yul\":24828:24848   */\n      tag_552\n      jump\t// in\n    tag_623:\n        /* \"#utility.yul\":24823:24848   */\n      swap2\n      pop\n        /* \"#utility.yul\":24862:24882   */\n      tag_624\n        /* \"#utility.yul\":24880:24881   */\n      dup4\n        /* \"#utility.yul\":24862:24882   */\n      tag_552\n      jump\t// in\n    tag_624:\n        /* \"#utility.yul\":24857:24882   */\n      swap3\n      pop\n        /* \"#utility.yul\":25016:25017   */\n      dup3\n        /* \"#utility.yul\":24948:25014   */\n      0xffffffffffffffffffffffffffffffffffffffffffffffffffffffffffffffff\n        /* \"#utility.yul\":24944:25018   */\n      sub\n        /* \"#utility.yul\":24941:24942   */\n      dup3\n        /* \"#utility.yul\":24938:25019   */\n      gt\n        /* \"#utility.yul\":24935:25042   */\n      iszero\n      tag_625\n      jumpi\n        /* \"#utility.yul\":25022:25040   */\n      tag_626\n      tag_627\n      jump\t// in\n    tag_626:\n        /* \"#utility.yul\":24935:25042   */\n    tag_625:\n        /* \"#utility.yul\":25066:25067   */\n      dup3\n        /* \"#utility.yul\":25063:25064   */\n      dup3\n        /* \"#utility.yul\":25059:25068   */\n      add\n        /* \"#utility.yul\":25052:25068   */\n      swap1\n      pop\n        /* \"#utility.yul\":24769:25074   */\n      swap3\n      swap2\n      pop\n      pop\n      jump\t// out\n        /* \"#utility.yul\":25080:25265   */\n    tag_198:\n        /* \"#utility.yul\":25120:25121   */\n      0x00\n        /* \"#utility.yul\":25137:25157   */\n      tag_629\n        /* \"#utility.yul\":25155:25156   */\n      dup3\n        /* \"#utility.yul\":25137:25157   */\n      tag_552\n      jump\t// in\n    tag_629:\n        /* \"#utility.yul\":25132:25157   */\n      swap2\n      pop\n        /* \"#utility.yul\":25171:25191   */\n      tag_630\n        /* \"#utility.yul\":25189:25190   */\n      dup4\n        /* \"#utility.yul\":25171:25191   */\n      tag_552\n      jump\t// in\n    tag_630:\n        /* \"#utility.yul\":25166:25191   */\n      swap3\n      pop\n        /* \"#utility.yul\":25210:25211   */\n      dup3\n        /* \"#utility.yul\":25200:25235   */\n      tag_631\n      jumpi\n        /* \"#utility.yul\":25215:25233   */\n      tag_632\n      tag_633\n      jump\t// in\n    tag_632:\n        /* \"#utility.yul\":25200:25235   */\n    tag_631:\n        /* \"#utility.yul\":25257:25258   */\n      dup3\n        /* \"#utility.yul\":25254:25255   */\n      dup3\n        /* \"#utility.yul\":25250:25259   */\n      div\n        /* \"#utility.yul\":25245:25259   */\n      swap1\n      pop\n        /* \"#utility.yul\":25080:25265   */\n      swap3\n      swap2\n      pop\n      pop\n      jump\t// out\n        /* \"#utility.yul\":25271:25619   */\n    tag_196:\n        /* \"#utility.yul\":25311:25318   */\n      0x00\n        /* \"#utility.yul\":25334:25354   */\n      tag_635\n        /* \"#utility.yul\":25352:25353   */\n      dup3\n        /* \"#utility.yul\":25334:25354   */\n      tag_552\n      jump\t// in\n    tag_635:\n        /* \"#utility.yul\":25329:25354   */\n      swap2\n      pop\n        /* \"#utility.yul\":25368:25388   */\n      tag_636\n        /* \"#utility.yul\":25386:25387   */\n      dup4\n        /* \"#utility.yul\":25368:25388   */\n      tag_552\n      jump\t// in\n    tag_636:\n        /* \"#utility.yul\":25363:25388   */\n      swap3\n      pop\n        /* \"#utility.yul\":25556:25557   */\n      dup2\n        /* \"#utility.yul\":25488:25554   */\n      0xffffffffffffffffffffffffffffffffffffffffffffffffffffffffffffffff\n        /* \"#utility.yul\":25484:25558   */\n      div\n        /* \"#utility.yul\":25481:25482   */\n      dup4\n        /* \"#utility.yul\":25478:25559   */\n      gt\n        /* \"#utility.yul\":25473:25474   */\n      dup3\n        /* \"#utility.yul\":25466:25475   */\n      iszero\n        /* \"#utility.yul\":25459:25476   */\n      iszero\n        /* \"#utility.yul\":25455:25560   */\n      and\n        /* \"#utility.yul\":25452:25583   */\n      iszero\n      tag_637\n      jumpi\n        /* \"#utility.yul\":25563:25581   */\n      tag_638\n      tag_627\n      jump\t// in\n    tag_638:\n        /* \"#utility.yul\":25452:25583   */\n    tag_637:\n        /* \"#utility.yul\":25611:25612   */\n      dup3\n        /* \"#utility.yul\":25608:25609   */\n      dup3\n        /* \"#utility.yul\":25604:25613   */\n      mul\n        /* \"#utility.yul\":25593:25613   */\n      swap1\n      pop\n        /* \"#utility.yul\":25271:25619   */\n      swap3\n      swap2\n      pop\n      pop\n      jump\t// out\n        /* \"#utility.yul\":25625:25816   */\n    tag_194:\n        /* \"#utility.yul\":25665:25669   */\n      0x00\n        /* \"#utility.yul\":25685:25705   */\n      tag_640\n        /* \"#utility.yul\":25703:25704   */\n      dup3\n        /* \"#utility.yul\":25685:25705   */\n      tag_552\n      jump\t// in\n    tag_640:\n        /* \"#utility.yul\":25680:25705   */\n      swap2\n      pop\n        /* \"#utility.yul\":25719:25739   */\n      tag_641\n        /* \"#utility.yul\":25737:25738   */\n      dup4\n        /* \"#utility.yul\":25719:25739   */\n      tag_552\n      jump\t// in\n    tag_641:\n        /* \"#utility.yul\":25714:25739   */\n      swap3\n      pop\n        /* \"#utility.yul\":25758:25759   */\n      dup3\n        /* \"#utility.yul\":25755:25756   */\n      dup3\n        /* \"#utility.yul\":25752:25760   */\n      lt\n        /* \"#utility.yul\":25749:25783   */\n      iszero\n      tag_642\n      jumpi\n        /* \"#utility.yul\":25763:25781   */\n      tag_643\n      tag_627\n      jump\t// in\n    tag_643:\n        /* \"#utility.yul\":25749:25783   */\n    tag_642:\n        /* \"#utility.yul\":25808:25809   */\n      dup3\n        /* \"#utility.yul\":25805:25806   */\n      dup3\n        /* \"#utility.yul\":25801:25810   */\n      sub\n        /* \"#utility.yul\":25793:25810   */\n      swap1\n      pop\n        /* \"#utility.yul\":25625:25816   */\n      swap3\n      swap2\n      pop\n      pop\n      jump\t// out\n        /* \"#utility.yul\":25822:25918   */\n    tag_433:\n        /* \"#utility.yul\":25859:25866   */\n      0x00\n        /* \"#utility.yul\":25888:25912   */\n      tag_645\n        /* \"#utility.yul\":25906:25911   */\n      dup3\n        /* \"#utility.yul\":25888:25912   */\n      tag_646\n      jump\t// in\n    tag_645:\n        /* \"#utility.yul\":25877:25912   */\n      swap1\n      pop\n        /* \"#utility.yul\":25822:25918   */\n      swap2\n      swap1\n      pop\n      jump\t// out\n        /* \"#utility.yul\":25924:26014   */\n    tag_437:\n        /* \"#utility.yul\":25958:25965   */\n      0x00\n        /* \"#utility.yul\":26001:26006   */\n      dup2\n        /* \"#utility.yul\":25994:26007   */\n      iszero\n        /* \"#utility.yul\":25987:26008   */\n      iszero\n        /* \"#utility.yul\":25976:26008   */\n      swap1\n      pop\n        /* \"#utility.yul\":25924:26014   */\n      swap2\n      swap1\n      pop\n      jump\t// out\n        /* \"#utility.yul\":26020:26146   */\n    tag_646:\n        /* \"#utility.yul\":26057:26064   */\n      0x00\n        /* \"#utility.yul\":26097:26139   */\n      0xffffffffffffffffffffffffffffffffffffffff\n        /* \"#utility.yul\":26090:26095   */\n      dup3\n        /* \"#utility.yul\":26086:26140   */\n      and\n        /* \"#utility.yul\":26075:26140   */\n      swap1\n      pop\n        /* \"#utility.yul\":26020:26146   */\n      swap2\n      swap1\n      pop\n      jump\t// out\n        /* \"#utility.yul\":26152:26229   */\n    tag_552:\n        /* \"#utility.yul\":26189:26196   */\n      0x00\n        /* \"#utility.yul\":26218:26223   */\n      dup2\n        /* \"#utility.yul\":26207:26223   */\n      swap1\n      pop\n        /* \"#utility.yul\":26152:26229   */\n      swap2\n      swap1\n      pop\n      jump\t// out\n        /* \"#utility.yul\":26235:26321   */\n    tag_556:\n        /* \"#utility.yul\":26270:26277   */\n      0x00\n        /* \"#utility.yul\":26310:26314   */\n      0xff\n        /* \"#utility.yul\":26303:26308   */\n      dup3\n        /* \"#utility.yul\":26299:26315   */\n      and\n        /* \"#utility.yul\":26288:26315   */\n      swap1\n      pop\n        /* \"#utility.yul\":26235:26321   */\n      swap2\n      swap1\n      pop\n      jump\t// out\n        /* \"#utility.yul\":26327:26634   */\n    tag_445:\n        /* \"#utility.yul\":26395:26396   */\n      0x00\n        /* \"#utility.yul\":26405:26518   */\n    tag_652:\n        /* \"#utility.yul\":26419:26425   */\n      dup4\n        /* \"#utility.yul\":26416:26417   */\n      dup2\n        /* \"#utility.yul\":26413:26426   */\n      lt\n        /* \"#utility.yul\":26405:26518   */\n      iszero\n      tag_654\n      jumpi\n        /* \"#utility.yul\":26504:26505   */\n      dup1\n        /* \"#utility.yul\":26499:26502   */\n      dup3\n        /* \"#utility.yul\":26495:26506   */\n      add\n        /* \"#utility.yul\":26489:26507   */\n      mload\n        /* \"#utility.yul\":26485:26486   */\n      dup2\n        /* \"#utility.yul\":26480:26483   */\n      dup5\n        /* \"#utility.yul\":26476:26487   */\n      add\n        /* \"#utility.yul\":26469:26508   */\n      mstore\n        /* \"#utility.yul\":26441:26443   */\n      0x20\n        /* \"#utility.yul\":26438:26439   */\n      dup2\n        /* \"#utility.yul\":26434:26444   */\n      add\n        /* \"#utility.yul\":26429:26444   */\n      swap1\n      pop\n        /* \"#utility.yul\":26405:26518   */\n      jump(tag_652)\n    tag_654:\n        /* \"#utility.yul\":26536:26542   */\n      dup4\n        /* \"#utility.yul\":26533:26534   */\n      dup2\n        /* \"#utility.yul\":26530:26543   */\n      gt\n        /* \"#utility.yul\":26527:26628   */\n      iszero\n      tag_655\n      jumpi\n        /* \"#utility.yul\":26616:26617   */\n      0x00\n        /* \"#utility.yul\":26607:26613   */\n      dup5\n        /* \"#utility.yul\":26602:26605   */\n      dup5\n        /* \"#utility.yul\":26598:26614   */\n      add\n        /* \"#utility.yul\":26591:26618   */\n      mstore\n        /* \"#utility.yul\":26527:26628   */\n    tag_655:\n        /* \"#utility.yul\":26376:26634   */\n      pop\n        /* \"#utility.yul\":26327:26634   */\n      pop\n      pop\n      pop\n      jump\t// out\n        /* \"#utility.yul\":26640:26960   */\n    tag_139:\n        /* \"#utility.yul\":26684:26690   */\n      0x00\n        /* \"#utility.yul\":26721:26722   */\n      0x02\n        /* \"#utility.yul\":26715:26719   */\n      dup3\n        /* \"#utility.yul\":26711:26723   */\n      div\n        /* \"#utility.yul\":26701:26723   */\n      swap1\n      pop\n        /* \"#utility.yul\":26768:26769   */\n      0x01\n        /* \"#utility.yul\":26762:26766   */\n      dup3\n        /* \"#utility.yul\":26758:26770   */\n      and\n        /* \"#utility.yul\":26789:26807   */\n      dup1\n        /* \"#utility.yul\":26779:26860   */\n      tag_657\n      jumpi\n        /* \"#utility.yul\":26845:26849   */\n      0x7f\n        /* \"#utility.yul\":26837:26843   */\n      dup3\n        /* \"#utility.yul\":26833:26850   */\n      and\n        /* \"#utility.yul\":26823:26850   */\n      swap2\n      pop\n        /* \"#utility.yul\":26779:26860   */\n    tag_657:\n        /* \"#utility.yul\":26907:26909   */\n      0x20\n        /* \"#utility.yul\":26899:26905   */\n      dup3\n        /* \"#utility.yul\":26896:26910   */\n      lt\n        /* \"#utility.yul\":26876:26894   */\n      dup2\n        /* \"#utility.yul\":26873:26911   */\n      eq\n        /* \"#utility.yul\":26870:26954   */\n      iszero\n      tag_658\n      jumpi\n        /* \"#utility.yul\":26926:26944   */\n      tag_659\n      tag_660\n      jump\t// in\n    tag_659:\n        /* \"#utility.yul\":26870:26954   */\n    tag_658:\n        /* \"#utility.yul\":26691:26960   */\n      pop\n        /* \"#utility.yul\":26640:26960   */\n      swap2\n      swap1\n      pop\n      jump\t// out\n        /* \"#utility.yul\":26966:27146   */\n    tag_627:\n        /* \"#utility.yul\":27014:27091   */\n      0x4e487b7100000000000000000000000000000000000000000000000000000000\n        /* \"#utility.yul\":27011:27012   */\n      0x00\n        /* \"#utility.yul\":27004:27092   */\n      mstore\n        /* \"#utility.yul\":27111:27115   */\n      0x11\n        /* \"#utility.yul\":27108:27109   */\n      0x04\n        /* \"#utility.yul\":27101:27116   */\n      mstore\n        /* \"#utility.yul\":27135:27139   */\n      0x24\n        /* \"#utility.yul\":27132:27133   */\n      0x00\n        /* \"#utility.yul\":27125:27140   */\n      revert\n        /* \"#utility.yul\":27152:27332   */\n    tag_633:\n        /* \"#utility.yul\":27200:27277   */\n      0x4e487b7100000000000000000000000000000000000000000000000000000000\n        /* \"#utility.yul\":27197:27198   */\n      0x00\n        /* \"#utility.yul\":27190:27278   */\n      mstore\n        /* \"#utility.yul\":27297:27301   */\n      0x12\n        /* \"#utility.yul\":27294:27295   */\n      0x04\n        /* \"#utility.yul\":27287:27302   */\n      mstore\n        /* \"#utility.yul\":27321:27325   */\n      0x24\n        /* \"#utility.yul\":27318:27319   */\n      0x00\n        /* \"#utility.yul\":27311:27326   */\n      revert\n        /* \"#utility.yul\":27338:27518   */\n    tag_660:\n        /* \"#utility.yul\":27386:27463   */\n      0x4e487b7100000000000000000000000000000000000000000000000000000000\n        /* \"#utility.yul\":27383:27384   */\n      0x00\n        /* \"#utility.yul\":27376:27464   */\n      mstore\n        /* \"#utility.yul\":27483:27487   */\n      0x22\n        /* \"#utility.yul\":27480:27481   */\n      0x04\n        /* \"#utility.yul\":27473:27488   */\n      mstore\n        /* \"#utility.yul\":27507:27511   */\n      0x24\n        /* \"#utility.yul\":27504:27505   */\n      0x00\n        /* \"#utility.yul\":27497:27512   */\n      revert\n        /* \"#utility.yul\":27647:27764   */\n    tag_384:\n        /* \"#utility.yul\":27756:27757   */\n      0x00\n        /* \"#utility.yul\":27753:27754   */\n      dup1\n        /* \"#utility.yul\":27746:27758   */\n      revert\n        /* \"#utility.yul\":27770:27872   */\n    tag_447:\n        /* \"#utility.yul\":27811:27817   */\n      0x00\n        /* \"#utility.yul\":27862:27864   */\n      0x1f\n        /* \"#utility.yul\":27858:27865   */\n      not\n        /* \"#utility.yul\":27853:27855   */\n      0x1f\n        /* \"#utility.yul\":27846:27851   */\n      dup4\n        /* \"#utility.yul\":27842:27856   */\n      add\n        /* \"#utility.yul\":27838:27866   */\n      and\n        /* \"#utility.yul\":27828:27866   */\n      swap1\n      pop\n        /* \"#utility.yul\":27770:27872   */\n      swap2\n      swap1\n      pop\n      jump\t// out\n        /* \"#utility.yul\":27878:28100   */\n    tag_452:\n        /* \"#utility.yul\":28018:28052   */\n      0x45524332303a207472616e7366657220746f20746865207a65726f2061646472\n        /* \"#utility.yul\":28014:28015   */\n      0x00\n        /* \"#utility.yul\":28006:28012   */\n      dup3\n        /* \"#utility.yul\":28002:28016   */\n      add\n        /* \"#utility.yul\":27995:28053   */\n      mstore\n        /* \"#utility.yul\":28087:28092   */\n      0x6573730000000000000000000000000000000000000000000000000000000000\n        /* \"#utility.yul\":28082:28084   */\n      0x20\n        /* \"#utility.yul\":28074:28080   */\n      dup3\n        /* \"#utility.yul\":28070:28085   */\n      add\n        /* \"#utility.yul\":28063:28093   */\n      mstore\n        /* \"#utility.yul\":27878:28100   */\n      pop\n      jump\t// out\n        /* \"#utility.yul\":28106:28327   */\n    tag_457:\n        /* \"#utility.yul\":28246:28280   */\n      0x45524332303a206275726e20616d6f756e7420657863656564732062616c616e\n        /* \"#utility.yul\":28242:28243   */\n      0x00\n        /* \"#utility.yul\":28234:28240   */\n      dup3\n        /* \"#utility.yul\":28230:28244   */\n      add\n        /* \"#utility.yul\":28223:28281   */\n      mstore\n        /* \"#utility.yul\":28315:28319   */\n      0x6365000000000000000000000000000000000000000000000000000000000000\n        /* \"#utility.yul\":28310:28312   */\n      0x20\n        /* \"#utility.yul\":28302:28308   */\n      dup3\n        /* \"#utility.yul\":28298:28313   */\n      add\n        /* \"#utility.yul\":28291:28320   */\n      mstore\n        /* \"#utility.yul\":28106:28327   */\n      pop\n      jump\t// out\n        /* \"#utility.yul\":28333:28554   */\n    tag_462:\n        /* \"#utility.yul\":28473:28507   */\n      0x45524332303a20617070726f766520746f20746865207a65726f206164647265\n        /* \"#utility.yul\":28469:28470   */\n      0x00\n        /* \"#utility.yul\":28461:28467   */\n      dup3\n        /* \"#utility.yul\":28457:28471   */\n      add\n        /* \"#utility.yul\":28450:28508   */\n      mstore\n        /* \"#utility.yul\":28542:28546   */\n      0x7373000000000000000000000000000000000000000000000000000000000000\n        /* \"#utility.yul\":28537:28539   */\n      0x20\n        /* \"#utility.yul\":28529:28535   */\n      dup3\n        /* \"#utility.yul\":28525:28540   */\n      add\n        /* \"#utility.yul\":28518:28547   */\n      mstore\n        /* \"#utility.yul\":28333:28554   */\n      pop\n      jump\t// out\n        /* \"#utility.yul\":28560:28788   */\n    tag_467:\n        /* \"#utility.yul\":28700:28734   */\n      0x496e73756666696369656e7420696e70757420616d6f756e74206f6620455243\n        /* \"#utility.yul\":28696:28697   */\n      0x00\n        /* \"#utility.yul\":28688:28694   */\n      dup3\n        /* \"#utility.yul\":28684:28698   */\n      add\n        /* \"#utility.yul\":28677:28735   */\n      mstore\n        /* \"#utility.yul\":28769:28780   */\n      0x323020546f6b656e730000000000000000000000000000000000000000000000\n        /* \"#utility.yul\":28764:28766   */\n      0x20\n        /* \"#utility.yul\":28756:28762   */\n      dup3\n        /* \"#utility.yul\":28752:28767   */\n      add\n        /* \"#utility.yul\":28745:28781   */\n      mstore\n        /* \"#utility.yul\":28560:28788   */\n      pop\n      jump\t// out\n        /* \"#utility.yul\":28794:28973   */\n    tag_472:\n        /* \"#utility.yul\":28934:28965   */\n      0x45524332303a20696e73756666696369656e7420616c6c6f77616e6365000000\n        /* \"#utility.yul\":28930:28931   */\n      0x00\n        /* \"#utility.yul\":28922:28928   */\n      dup3\n        /* \"#utility.yul\":28918:28932   */\n      add\n        /* \"#utility.yul\":28911:28966   */\n      mstore\n        /* \"#utility.yul\":28794:28973   */\n      pop\n      jump\t// out\n        /* \"#utility.yul\":28979:29204   */\n    tag_477:\n        /* \"#utility.yul\":29119:29153   */\n      0x45524332303a207472616e7366657220616d6f756e7420657863656564732062\n        /* \"#utility.yul\":29115:29116   */\n      0x00\n        /* \"#utility.yul\":29107:29113   */\n      dup3\n        /* \"#utility.yul\":29103:29117   */\n      add\n        /* \"#utility.yul\":29096:29154   */\n      mstore\n        /* \"#utility.yul\":29188:29196   */\n      0x616c616e63650000000000000000000000000000000000000000000000000000\n        /* \"#utility.yul\":29183:29185   */\n      0x20\n        /* \"#utility.yul\":29175:29181   */\n      dup3\n        /* \"#utility.yul\":29171:29186   */\n      add\n        /* \"#utility.yul\":29164:29197   */\n      mstore\n        /* \"#utility.yul\":28979:29204   */\n      pop\n      jump\t// out\n        /* \"#utility.yul\":29210:29435   */\n    tag_482:\n        /* \"#utility.yul\":29350:29384   */\n      0x5472616e73616374696f6e206f662045544820746f20726563697069656e7420\n        /* \"#utility.yul\":29346:29347   */\n      0x00\n        /* \"#utility.yul\":29338:29344   */\n      dup3\n        /* \"#utility.yul\":29334:29348   */\n      add\n        /* \"#utility.yul\":29327:29385   */\n      mstore\n        /* \"#utility.yul\":29419:29427   */\n      0x6661696c65640000000000000000000000000000000000000000000000000000\n        /* \"#utility.yul\":29414:29416   */\n      0x20\n        /* \"#utility.yul\":29406:29412   */\n      dup3\n        /* \"#utility.yul\":29402:29417   */\n      add\n        /* \"#utility.yul\":29395:29428   */\n      mstore\n        /* \"#utility.yul\":29210:29435   */\n      pop\n      jump\t// out\n        /* \"#utility.yul\":29441:29615   */\n    tag_487:\n        /* \"#utility.yul\":29581:29607   */\n      0x546f6b656e206164647265737320697320696e76616c69640000000000000000\n        /* \"#utility.yul\":29577:29578   */\n      0x00\n        /* \"#utility.yul\":29569:29575   */\n      dup3\n        /* \"#utility.yul\":29565:29579   */\n      add\n        /* \"#utility.yul\":29558:29608   */\n      mstore\n        /* \"#utility.yul\":29441:29615   */\n      pop\n      jump\t// out\n        /* \"#utility.yul\":29621:29797   */\n    tag_492:\n        /* \"#utility.yul\":29761:29789   */\n      0x496e76616c696420696e70757420746f6b656e20616d6f756e74000000000000\n        /* \"#utility.yul\":29757:29758   */\n      0x00\n        /* \"#utility.yul\":29749:29755   */\n      dup3\n        /* \"#utility.yul\":29745:29759   */\n      add\n        /* \"#utility.yul\":29738:29790   */\n      mstore\n        /* \"#utility.yul\":29621:29797   */\n      pop\n      jump\t// out\n        /* \"#utility.yul\":29803:30094   */\n    tag_497:\n        /* \"#utility.yul\":29943:29977   */\n      0x416d6f756e74207377617070656420646f6573206e6f74206d65657420796f75\n        /* \"#utility.yul\":29939:29940   */\n      0x00\n        /* \"#utility.yul\":29931:29937   */\n      dup3\n        /* \"#utility.yul\":29927:29941   */\n      add\n        /* \"#utility.yul\":29920:29978   */\n      mstore\n        /* \"#utility.yul\":30012:30046   */\n      0x722073746970756c6174656420616d6f756e742c20726576657274696e672073\n        /* \"#utility.yul\":30007:30009   */\n      0x20\n        /* \"#utility.yul\":29999:30005   */\n      dup3\n        /* \"#utility.yul\":29995:30010   */\n      add\n        /* \"#utility.yul\":29988:30047   */\n      mstore\n        /* \"#utility.yul\":30081:30086   */\n      0x7761700000000000000000000000000000000000000000000000000000000000\n        /* \"#utility.yul\":30076:30078   */\n      0x40\n        /* \"#utility.yul\":30068:30074   */\n      dup3\n        /* \"#utility.yul\":30064:30079   */\n      add\n        /* \"#utility.yul\":30057:30087   */\n      mstore\n        /* \"#utility.yul\":29803:30094   */\n      pop\n      jump\t// out\n        /* \"#utility.yul\":30100:30342   */\n    tag_502:\n        /* \"#utility.yul\":30240:30274   */\n      0x506c6561736520696e70757420612076616c696420616d6f756e74206f66204c\n        /* \"#utility.yul\":30236:30237   */\n      0x00\n        /* \"#utility.yul\":30228:30234   */\n      dup3\n        /* \"#utility.yul\":30224:30238   */\n      add\n        /* \"#utility.yul\":30217:30275   */\n      mstore\n        /* \"#utility.yul\":30309:30334   */\n      0x5020546f6b656e7320746f206275726e2f72656465656d000000000000000000\n        /* \"#utility.yul\":30304:30306   */\n      0x20\n        /* \"#utility.yul\":30296:30302   */\n      dup3\n        /* \"#utility.yul\":30292:30307   */\n      add\n        /* \"#utility.yul\":30285:30335   */\n      mstore\n        /* \"#utility.yul\":30100:30342   */\n      pop\n      jump\t// out\n        /* \"#utility.yul\":30348:30568   */\n    tag_507:\n        /* \"#utility.yul\":30488:30522   */\n      0x45524332303a206275726e2066726f6d20746865207a65726f20616464726573\n        /* \"#utility.yul\":30484:30485   */\n      0x00\n        /* \"#utility.yul\":30476:30482   */\n      dup3\n        /* \"#utility.yul\":30472:30486   */\n      add\n        /* \"#utility.yul\":30465:30523   */\n      mstore\n        /* \"#utility.yul\":30557:30560   */\n      0x7300000000000000000000000000000000000000000000000000000000000000\n        /* \"#utility.yul\":30552:30554   */\n      0x20\n        /* \"#utility.yul\":30544:30550   */\n      dup3\n        /* \"#utility.yul\":30540:30555   */\n      add\n        /* \"#utility.yul\":30533:30561   */\n      mstore\n        /* \"#utility.yul\":30348:30568   */\n      pop\n      jump\t// out\n        /* \"#utility.yul\":30574:30749   */\n    tag_512:\n        /* \"#utility.yul\":30714:30741   */\n      0x45544820616d6f756e742063616e6e6f74206265207a65726f00000000000000\n        /* \"#utility.yul\":30710:30711   */\n      0x00\n        /* \"#utility.yul\":30702:30708   */\n      dup3\n        /* \"#utility.yul\":30698:30712   */\n      add\n        /* \"#utility.yul\":30691:30742   */\n      mstore\n        /* \"#utility.yul\":30574:30749   */\n      pop\n      jump\t// out\n        /* \"#utility.yul\":30755:30979   */\n    tag_517:\n        /* \"#utility.yul\":30895:30929   */\n      0x45524332303a207472616e736665722066726f6d20746865207a65726f206164\n        /* \"#utility.yul\":30891:30892   */\n      0x00\n        /* \"#utility.yul\":30883:30889   */\n      dup3\n        /* \"#utility.yul\":30879:30893   */\n      add\n        /* \"#utility.yul\":30872:30930   */\n      mstore\n        /* \"#utility.yul\":30964:30971   */\n      0x6472657373000000000000000000000000000000000000000000000000000000\n        /* \"#utility.yul\":30959:30961   */\n      0x20\n        /* \"#utility.yul\":30951:30957   */\n      dup3\n        /* \"#utility.yul\":30947:30962   */\n      add\n        /* \"#utility.yul\":30940:30972   */\n      mstore\n        /* \"#utility.yul\":30755:30979   */\n      pop\n      jump\t// out\n        /* \"#utility.yul\":30985:31209   */\n    tag_522:\n        /* \"#utility.yul\":31125:31159   */\n      0x5472616e73616374696f6e206f662045746865722077617320756e7375636365\n        /* \"#utility.yul\":31121:31122   */\n      0x00\n        /* \"#utility.yul\":31113:31119   */\n      dup3\n        /* \"#utility.yul\":31109:31123   */\n      add\n        /* \"#utility.yul\":31102:31160   */\n      mstore\n        /* \"#utility.yul\":31194:31201   */\n      0x737366756c000000000000000000000000000000000000000000000000000000\n        /* \"#utility.yul\":31189:31191   */\n      0x20\n        /* \"#utility.yul\":31181:31187   */\n      dup3\n        /* \"#utility.yul\":31177:31192   */\n      add\n        /* \"#utility.yul\":31170:31202   */\n      mstore\n        /* \"#utility.yul\":30985:31209   */\n      pop\n      jump\t// out\n        /* \"#utility.yul\":31215:31329   */\n    tag_528:\n      pop\n      jump\t// out\n        /* \"#utility.yul\":31335:31506   */\n    tag_533:\n        /* \"#utility.yul\":31475:31498   */\n      0x546865726520617265206e6f2072657365727665730000000000000000000000\n        /* \"#utility.yul\":31471:31472   */\n      0x00\n        /* \"#utility.yul\":31463:31469   */\n      dup3\n        /* \"#utility.yul\":31459:31473   */\n      add\n        /* \"#utility.yul\":31452:31499   */\n      mstore\n        /* \"#utility.yul\":31335:31506   */\n      pop\n      jump\t// out\n        /* \"#utility.yul\":31512:31735   */\n    tag_538:\n        /* \"#utility.yul\":31652:31686   */\n      0x45524332303a20617070726f76652066726f6d20746865207a65726f20616464\n        /* \"#utility.yul\":31648:31649   */\n      0x00\n        /* \"#utility.yul\":31640:31646   */\n      dup3\n        /* \"#utility.yul\":31636:31650   */\n      add\n        /* \"#utility.yul\":31629:31687   */\n      mstore\n        /* \"#utility.yul\":31721:31727   */\n      0x7265737300000000000000000000000000000000000000000000000000000000\n        /* \"#utility.yul\":31716:31718   */\n      0x20\n        /* \"#utility.yul\":31708:31714   */\n      dup3\n        /* \"#utility.yul\":31704:31719   */\n      add\n        /* \"#utility.yul\":31697:31728   */\n      mstore\n        /* \"#utility.yul\":31512:31735   */\n      pop\n      jump\t// out\n        /* \"#utility.yul\":31741:31965   */\n    tag_543:\n        /* \"#utility.yul\":31881:31915   */\n      0x45524332303a2064656372656173656420616c6c6f77616e63652062656c6f77\n        /* \"#utility.yul\":31877:31878   */\n      0x00\n        /* \"#utility.yul\":31869:31875   */\n      dup3\n        /* \"#utility.yul\":31865:31879   */\n      add\n        /* \"#utility.yul\":31858:31916   */\n      mstore\n        /* \"#utility.yul\":31950:31957   */\n      0x207a65726f000000000000000000000000000000000000000000000000000000\n        /* \"#utility.yul\":31945:31947   */\n      0x20\n        /* \"#utility.yul\":31937:31943   */\n      dup3\n        /* \"#utility.yul\":31933:31948   */\n      add\n        /* \"#utility.yul\":31926:31958   */\n      mstore\n        /* \"#utility.yul\":31741:31965   */\n      pop\n      jump\t// out\n        /* \"#utility.yul\":31971:32152   */\n    tag_548:\n        /* \"#utility.yul\":32111:32144   */\n      0x45524332303a206d696e7420746f20746865207a65726f206164647265737300\n        /* \"#utility.yul\":32107:32108   */\n      0x00\n        /* \"#utility.yul\":32099:32105   */\n      dup3\n        /* \"#utility.yul\":32095:32109   */\n      add\n        /* \"#utility.yul\":32088:32145   */\n      mstore\n        /* \"#utility.yul\":31971:32152   */\n      pop\n      jump\t// out\n        /* \"#utility.yul\":32158:32280   */\n    tag_369:\n        /* \"#utility.yul\":32231:32255   */\n      tag_689\n        /* \"#utility.yul\":32249:32254   */\n      dup2\n        /* \"#utility.yul\":32231:32255   */\n      tag_433\n      jump\t// in\n    tag_689:\n        /* \"#utility.yul\":32224:32229   */\n      dup2\n        /* \"#utility.yul\":32221:32256   */\n      eq\n        /* \"#utility.yul\":32211:32274   */\n      tag_690\n      jumpi\n        /* \"#utility.yul\":32270:32271   */\n      0x00\n        /* \"#utility.yul\":32267:32268   */\n      dup1\n        /* \"#utility.yul\":32260:32272   */\n      revert\n        /* \"#utility.yul\":32211:32274   */\n    tag_690:\n        /* \"#utility.yul\":32158:32280   */\n      pop\n      jump\t// out\n        /* \"#utility.yul\":32286:32402   */\n    tag_373:\n        /* \"#utility.yul\":32356:32377   */\n      tag_692\n        /* \"#utility.yul\":32371:32376   */\n      dup2\n        /* \"#utility.yul\":32356:32377   */\n      tag_437\n      jump\t// in\n    tag_692:\n        /* \"#utility.yul\":32349:32354   */\n      dup2\n        /* \"#utility.yul\":32346:32378   */\n      eq\n        /* \"#utility.yul\":32336:32396   */\n      tag_693\n      jumpi\n        /* \"#utility.yul\":32392:32393   */\n      0x00\n        /* \"#utility.yul\":32389:32390   */\n      dup1\n        /* \"#utility.yul\":32382:32394   */\n      revert\n        /* \"#utility.yul\":32336:32396   */\n    tag_693:\n        /* \"#utility.yul\":32286:32402   */\n      pop\n      jump\t// out\n        /* \"#utility.yul\":32408:32530   */\n    tag_377:\n        /* \"#utility.yul\":32481:32505   */\n      tag_695\n        /* \"#utility.yul\":32499:32504   */\n      dup2\n        /* \"#utility.yul\":32481:32505   */\n      tag_552\n      jump\t// in\n    tag_695:\n        /* \"#utility.yul\":32474:32479   */\n      dup2\n        /* \"#utility.yul\":32471:32506   */\n      eq\n        /* \"#utility.yul\":32461:32524   */\n      tag_696\n      jumpi\n        /* \"#utility.yul\":32520:32521   */\n      0x00\n        /* \"#utility.yul\":32517:32518   */\n      dup1\n        /* \"#utility.yul\":32510:32522   */\n      revert\n        /* \"#utility.yul\":32461:32524   */\n    tag_696:\n        /* \"#utility.yul\":32408:32530   */\n      pop\n      jump\t// out\n\n    auxdata: 0xa2646970667358221220a627abfbd59a8fb237d4f95f5175cb636eb4e0af61e1fac3d75b98fe234f6e9a64736f6c63430008070033\n}\n",
				"bytecode": {
					"linkReferences": {},
					"object": "60806040523480156200001157600080fd5b50604051620032173803806200321783398181016040528101906200003791906200029a565b6040518060400160405280600781526020017f53776170205631000000000000000000000000000000000000000000000000008152506040518060400160405280600781526020017f537761702d5631000000000000000000000000000000000000000000000000008152508160039080519060200190620000bb929190620001d3565b508060049080519060200190620000d4929190620001d3565b505050600073ffffffffffffffffffffffffffffffffffffffff168173ffffffffffffffffffffffffffffffffffffffff1614156200014a576040517f08c379a00000000000000000000000000000000000000000000000000000000081526004016200014190620002f3565b60405180910390fd5b80600560006101000a81548173ffffffffffffffffffffffffffffffffffffffff021916908373ffffffffffffffffffffffffffffffffffffffff16021790555033600660006101000a81548173ffffffffffffffffffffffffffffffffffffffff021916908373ffffffffffffffffffffffffffffffffffffffff1602179055505062000407565b828054620001e1906200035a565b90600052602060002090601f01602090048101928262000205576000855562000251565b82601f106200022057805160ff191683800117855562000251565b8280016001018555821562000251579182015b828111156200025057825182559160200191906001019062000233565b5b50905062000260919062000264565b5090565b5b808211156200027f57600081600090555060010162000265565b5090565b6000815190506200029481620003ed565b92915050565b600060208284031215620002b357620002b2620003bf565b5b6000620002c38482850162000283565b91505092915050565b6000620002db600f8362000315565b9150620002e882620003c4565b602082019050919050565b600060208201905081810360008301526200030e81620002cc565b9050919050565b600082825260208201905092915050565b600062000333826200033a565b9050919050565b600073ffffffffffffffffffffffffffffffffffffffff82169050919050565b600060028204905060018216806200037357607f821691505b602082108114156200038a576200038962000390565b5b50919050565b7f4e487b7100000000000000000000000000000000000000000000000000000000600052602260045260246000fd5b600080fd5b7f496e76616c696420616464726573730000000000000000000000000000000000600082015250565b620003f88162000326565b81146200040457600080fd5b50565b612e0080620004176000396000f3fe6080604052600436106101355760003560e01c80636e9e8116116100ab5780639d76ea581161006f5780639d76ea581461045e578063a457c2d714610489578063a9059cbb146104c6578063ae0aaea314610503578063dd62ed3e1461051f578063f7a7e3241461055c57610135565b80636e9e81161461037157806370a082311461038d57806395d89b41146103ca578063966dae0e146103f55780639c8f9f231461042057610135565b806323b872dd116100fd57806323b872dd146102365780632c0c60a414610273578063313ce567146102b057806339509351146102db57806351c6590a1461031857806364338a301461034857610135565b806306fdde031461013a5780630902f1ac14610165578063095ea7b3146101915780630f8070b4146101ce57806318160ddd1461020b575b600080fd5b34801561014657600080fd5b5061014f610585565b60405161015c91906122e9565b60405180910390f35b34801561017157600080fd5b5061017a610617565b604051610188929190612586565b60405180910390f35b34801561019d57600080fd5b506101b860048036038101906101b39190611d73565b6106ce565b6040516101c591906122ce565b60405180910390f35b3480156101da57600080fd5b506101f560048036038101906101f09190611de0565b6106f1565b604051610202919061256b565b60405180910390f35b34801561021757600080fd5b50610220610758565b60405161022d919061256b565b60405180910390f35b34801561024257600080fd5b5061025d60048036038101906102589190611d20565b610762565b60405161026a91906122ce565b60405180910390f35b34801561027f57600080fd5b5061029a60048036038101906102959190611de0565b610791565b6040516102a7919061256b565b60405180910390f35b3480156102bc57600080fd5b506102c56107f8565b6040516102d291906125af565b60405180910390f35b3480156102e757600080fd5b5061030260048036038101906102fd9190611d73565b610801565b60405161030f91906122ce565b60405180910390f35b610332600480360381019061032d9190611de0565b610838565b60405161033f919061256b565b60405180910390f35b34801561035457600080fd5b5061036f600480360381019061036a9190611e7a565b610aae565b005b61038b60048036038101906103869190611e3a565b610cc4565b005b34801561039957600080fd5b506103b460048036038101906103af9190611cb3565b610cd2565b6040516103c1919061256b565b60405180910390f35b3480156103d657600080fd5b506103df610d1a565b6040516103ec91906122e9565b60405180910390f35b34801561040157600080fd5b5061040a610dac565b6040516104179190612253565b60405180910390f35b34801561042c57600080fd5b5061044760048036038101906104429190611de0565b610dd2565b604051610455929190612586565b60405180910390f35b34801561046a57600080fd5b5061047361101a565b6040516104809190612253565b60405180910390f35b34801561049557600080fd5b506104b060048036038101906104ab9190611d73565b611040565b6040516104bd91906122ce565b60405180910390f35b3480156104d257600080fd5b506104ed60048036038101906104e89190611d73565b6110b7565b6040516104fa91906122ce565b60405180910390f35b61051d60048036038101906105189190611de0565b6110da565b005b34801561052b57600080fd5b5061054660048036038101906105419190611ce0565b6110e7565b604051610553919061256b565b60405180910390f35b34801561056857600080fd5b50610583600480360381019061057e9190611eba565b61116e565b005b6060600380546105949061278e565b80601f01602080910402602001604051908101604052809291908181526020018280546105c09061278e565b801561060d5780601f106105e25761010080835404028352916020019161060d565b820191906000526020600020905b8154815290600101906020018083116105f057829003601f168201915b5050505050905090565b600080600560009054906101000a900473ffffffffffffffffffffffffffffffffffffffff1673ffffffffffffffffffffffffffffffffffffffff166370a08231306040518263ffffffff1660e01b81526004016106759190612253565b60206040518083038186803b15801561068d57600080fd5b505afa1580156106a1573d6000803e3d6000fd5b505050506040513d601f19601f820116820180604052508101906106c59190611e0d565b91504790509091565b6000806106d9611226565b90506106e681858561122e565b600191505092915050565b6000808211610735576040517f08c379a000000000000000000000000000000000000000000000000000000000815260040161072c9061248b565b60405180910390fd5b600080610740610617565b9150915061074f8482846113f9565b92505050919050565b6000600254905090565b60008061076d611226565b905061077a85828561149f565b61078585858561152b565b60019150509392505050565b60008081116107d5576040517f08c379a00000000000000000000000000000000000000000000000000000000081526004016107cc9061248b565b60405180910390fd5b6000806107e0610617565b915091506107ef8483836113f9565b92505050919050565b60006012905090565b60008061080c611226565b905061082d81858561081e85896110e7565b61082891906125f1565b61122e565b600191505092915050565b6000806000610845610617565b915091506000821415610912576000600560009054906101000a900473ffffffffffffffffffffffffffffffffffffffff1690508073ffffffffffffffffffffffffffffffffffffffff166323b872dd3330886040518463ffffffff1660e01b81526004016108b69392919061226e565b602060405180830381600087803b1580156108d057600080fd5b505af11580156108e4573d6000803e3d6000fd5b505050506040513d601f19601f820116820180604052508101906109089190611db3565b5081935050610a58565b348161091e91906126d2565b9050600081833461092f9190612678565b6109399190612647565b90508085101561097e576040517f08c379a00000000000000000000000000000000000000000000000000000000081526004016109759061236b565b60405180910390fd5b6000600560009054906101000a900473ffffffffffffffffffffffffffffffffffffffff1690508073ffffffffffffffffffffffffffffffffffffffff166323b872dd3330896040518463ffffffff1660e01b81526004016109e29392919061226e565b602060405180830381600087803b1580156109fc57600080fd5b505af1158015610a10573d6000803e3d6000fd5b505050506040513d601f19601f82011682018060405250810190610a349190611db3565b508234610a3f610758565b610a499190612678565b610a539190612647565b945050505b610a6233846117ac565b83343373ffffffffffffffffffffffffffffffffffffffff167f06239653922ac7bea6aa2b19dc486b9361821d37712eb796adfd38d81de278ca60405160405180910390a45050919050565b600080610ab9610617565b915091506000610aca8584846113f9565b905083811015610b0f576040517f08c379a0000000000000000000000000000000000000000000000000000000008152600401610b069061242b565b60405180910390fd5b600560009054906101000a900473ffffffffffffffffffffffffffffffffffffffff1673ffffffffffffffffffffffffffffffffffffffff166323b872dd3330886040518463ffffffff1660e01b8152600401610b6e9392919061226e565b602060405180830381600087803b158015610b8857600080fd5b505af1158015610b9c573d6000803e3d6000fd5b505050506040513d601f19601f82011682018060405250810190610bc09190611db3565b5060003373ffffffffffffffffffffffffffffffffffffffff1685604051610be79061223e565b60006040518083038185875af1925050503d8060008114610c24576040519150601f19603f3d011682016040523d82523d6000602084013e610c29565b606091505b5050905080610c6d576040517f08c379a0000000000000000000000000000000000000000000000000000000008152600401610c64906123cb565b60405180910390fd5b853373ffffffffffffffffffffffffffffffffffffffff167fd70caa09595c8288801ca58a02fd0960ef4982b210b2b9bf88bd5344c27cc4e884604051610cb4919061256b565b60405180910390a3505050505050565b610cce828261190c565b5050565b60008060008373ffffffffffffffffffffffffffffffffffffffff1673ffffffffffffffffffffffffffffffffffffffff168152602001908152602001600020549050919050565b606060048054610d299061278e565b80601f0160208091040260200160405190810160405280929190818152602001828054610d559061278e565b8015610da25780601f10610d7757610100808354040283529160200191610da2565b820191906000526020600020905b815481529060010190602001808311610d8557829003601f168201915b5050505050905090565b600660009054906101000a900473ffffffffffffffffffffffffffffffffffffffff1681565b60008060008311610e18576040517f08c379a0000000000000000000000000000000000000000000000000000000008152600401610e0f9061244b565b60405180910390fd5b600080610e23610617565b91509150610e2f610758565b8582610e3b9190612678565b610e459190612647565b9350610e4f610758565b8583610e5b9190612678565b610e659190612647565b9250610e713386611a7e565b60003373ffffffffffffffffffffffffffffffffffffffff1685604051610e979061223e565b60006040518083038185875af1925050503d8060008114610ed4576040519150601f19603f3d011682016040523d82523d6000602084013e610ed9565b606091505b5050905080610f1d576040517f08c379a0000000000000000000000000000000000000000000000000000000008152600401610f14906124cb565b60405180910390fd5b600560009054906101000a900473ffffffffffffffffffffffffffffffffffffffff1673ffffffffffffffffffffffffffffffffffffffff1663a9059cbb33866040518363ffffffff1660e01b8152600401610f7a9291906122a5565b602060405180830381600087803b158015610f9457600080fd5b505af1158015610fa8573d6000803e3d6000fd5b505050506040513d601f19601f82011682018060405250810190610fcc9190611db3565b5083853373ffffffffffffffffffffffffffffffffffffffff167f0fbf06c058b90cb038a618f8c2acbf6145f8b3570fd1fa56abb8f0f3f05b36e860405160405180910390a4505050915091565b600560009054906101000a900473ffffffffffffffffffffffffffffffffffffffff1681565b60008061104b611226565b9050600061105982866110e7565b90508381101561109e576040517f08c379a00000000000000000000000000000000000000000000000000000000081526004016110959061252b565b60405180910390fd5b6110ab828686840361122e565b60019250505092915050565b6000806110c2611226565b90506110cf81858561152b565b600191505092915050565b6110e4813361190c565b50565b6000600160008473ffffffffffffffffffffffffffffffffffffffff1673ffffffffffffffffffffffffffffffffffffffff16815260200190815260200160002060008373ffffffffffffffffffffffffffffffffffffffff1673ffffffffffffffffffffffffffffffffffffffff16815260200190815260200160002054905092915050565b600073ffffffffffffffffffffffffffffffffffffffff168173ffffffffffffffffffffffffffffffffffffffff1614156111de576040517f08c379a00000000000000000000000000000000000000000000000000000000081526004016111d5906123eb565b60405180910390fd5b60008311611221576040517f08c379a00000000000000000000000000000000000000000000000000000000081526004016112189061240b565b60405180910390fd5b505050565b600033905090565b600073ffffffffffffffffffffffffffffffffffffffff168373ffffffffffffffffffffffffffffffffffffffff16141561129e576040517f08c379a00000000000000000000000000000000000000000000000000000000081526004016112959061250b565b60405180910390fd5b600073ffffffffffffffffffffffffffffffffffffffff168273ffffffffffffffffffffffffffffffffffffffff16141561130e576040517f08c379a00000000000000000000000000000000000000000000000000000000081526004016113059061234b565b60405180910390fd5b80600160008573ffffffffffffffffffffffffffffffffffffffff1673ffffffffffffffffffffffffffffffffffffffff16815260200190815260200160002060008473ffffffffffffffffffffffffffffffffffffffff1673ffffffffffffffffffffffffffffffffffffffff168152602001908152602001600020819055508173ffffffffffffffffffffffffffffffffffffffff168373ffffffffffffffffffffffffffffffffffffffff167f8c5be1e5ebec7d5bd14f71427d1e84f3dd0314c0f7b2291e5b200ac8c7c3b925836040516113ec919061256b565b60405180910390a3505050565b6000808311801561140a5750600082115b611449576040517f08c379a0000000000000000000000000000000000000000000000000000000008152600401611440906124eb565b60405180910390fd5b6000806103e861145991906126d2565b856114649190612678565b905080846103e86114759190612678565b61147f91906125f1565b838261148b9190612678565b6114959190612647565b9150509392505050565b60006114ab84846110e7565b90507fffffffffffffffffffffffffffffffffffffffffffffffffffffffffffffffff81146115255781811015611517576040517f08c379a000000000000000000000000000000000000000000000000000000000815260040161150e9061238b565b60405180910390fd5b611524848484840361122e565b5b50505050565b600073ffffffffffffffffffffffffffffffffffffffff168373ffffffffffffffffffffffffffffffffffffffff16141561159b576040517f08c379a0000000000000000000000000000000000000000000000000000000008152600401611592906124ab565b60405180910390fd5b600073ffffffffffffffffffffffffffffffffffffffff168273ffffffffffffffffffffffffffffffffffffffff16141561160b576040517f08c379a00000000000000000000000000000000000000000000000000000000081526004016116029061230b565b60405180910390fd5b611616838383611c55565b60008060008573ffffffffffffffffffffffffffffffffffffffff1673ffffffffffffffffffffffffffffffffffffffff1681526020019081526020016000205490508181101561169c576040517f08c379a0000000000000000000000000000000000000000000000000000000008152600401611693906123ab565b60405180910390fd5b8181036000808673ffffffffffffffffffffffffffffffffffffffff1673ffffffffffffffffffffffffffffffffffffffff16815260200190815260200160002081905550816000808573ffffffffffffffffffffffffffffffffffffffff1673ffffffffffffffffffffffffffffffffffffffff168152602001908152602001600020600082825461172f91906125f1565b925050819055508273ffffffffffffffffffffffffffffffffffffffff168473ffffffffffffffffffffffffffffffffffffffff167fddf252ad1be2c89b69c2b068fc378daa952ba7f163c4a11628f55a4df523b3ef84604051611793919061256b565b60405180910390a36117a6848484611c5a565b50505050565b600073ffffffffffffffffffffffffffffffffffffffff168273ffffffffffffffffffffffffffffffffffffffff16141561181c576040517f08c379a00000000000000000000000000000000000000000000000000000000081526004016118139061254b565b60405180910390fd5b61182860008383611c55565b806002600082825461183a91906125f1565b92505081905550806000808473ffffffffffffffffffffffffffffffffffffffff1673ffffffffffffffffffffffffffffffffffffffff168152602001908152602001600020600082825461188f91906125f1565b925050819055508173ffffffffffffffffffffffffffffffffffffffff16600073ffffffffffffffffffffffffffffffffffffffff167fddf252ad1be2c89b69c2b068fc378daa952ba7f163c4a11628f55a4df523b3ef836040516118f4919061256b565b60405180910390a361190860008383611c5a565b5050565b600080611917610617565b91509150600061193334348461192d91906126d2565b856113f9565b905084811015611978576040517f08c379a000000000000000000000000000000000000000000000000000000000815260040161196f9061242b565b60405180910390fd5b600560009054906101000a900473ffffffffffffffffffffffffffffffffffffffff1673ffffffffffffffffffffffffffffffffffffffff1663a9059cbb85836040518363ffffffff1660e01b81526004016119d59291906122a5565b602060405180830381600087803b1580156119ef57600080fd5b505af1158015611a03573d6000803e3d6000fd5b505050506040513d601f19601f82011682018060405250810190611a279190611db3565b50348473ffffffffffffffffffffffffffffffffffffffff167f2ad51a6b79c1a35468e5cc340ef09004400e337e1d1149aab02294fdb7f8f05583604051611a6f919061256b565b60405180910390a35050505050565b600073ffffffffffffffffffffffffffffffffffffffff168273ffffffffffffffffffffffffffffffffffffffff161415611aee576040517f08c379a0000000000000000000000000000000000000000000000000000000008152600401611ae59061246b565b60405180910390fd5b611afa82600083611c55565b60008060008473ffffffffffffffffffffffffffffffffffffffff1673ffffffffffffffffffffffffffffffffffffffff16815260200190815260200160002054905081811015611b80576040517f08c379a0000000000000000000000000000000000000000000000000000000008152600401611b779061232b565b60405180910390fd5b8181036000808573ffffffffffffffffffffffffffffffffffffffff1673ffffffffffffffffffffffffffffffffffffffff168152602001908152602001600020819055508160026000828254611bd791906126d2565b92505081905550600073ffffffffffffffffffffffffffffffffffffffff168373ffffffffffffffffffffffffffffffffffffffff167fddf252ad1be2c89b69c2b068fc378daa952ba7f163c4a11628f55a4df523b3ef84604051611c3c919061256b565b60405180910390a3611c5083600084611c5a565b505050565b505050565b505050565b600081359050611c6e81612d85565b92915050565b600081519050611c8381612d9c565b92915050565b600081359050611c9881612db3565b92915050565b600081519050611cad81612db3565b92915050565b600060208284031215611cc957611cc861284d565b5b6000611cd784828501611c5f565b91505092915050565b60008060408385031215611cf757611cf661284d565b5b6000611d0585828601611c5f565b9250506020611d1685828601611c5f565b9150509250929050565b600080600060608486031215611d3957611d3861284d565b5b6000611d4786828701611c5f565b9350506020611d5886828701611c5f565b9250506040611d6986828701611c89565b9150509250925092565b60008060408385031215611d8a57611d8961284d565b5b6000611d9885828601611c5f565b9250506020611da985828601611c89565b9150509250929050565b600060208284031215611dc957611dc861284d565b5b6000611dd784828501611c74565b91505092915050565b600060208284031215611df657611df561284d565b5b6000611e0484828501611c89565b91505092915050565b600060208284031215611e2357611e2261284d565b5b6000611e3184828501611c9e565b91505092915050565b60008060408385031215611e5157611e5061284d565b5b6000611e5f85828601611c89565b9250506020611e7085828601611c5f565b9150509250929050565b60008060408385031215611e9157611e9061284d565b5b6000611e9f85828601611c89565b9250506020611eb085828601611c89565b9150509250929050565b600080600060608486031215611ed357611ed261284d565b5b6000611ee186828701611c89565b9350506020611ef286828701611c89565b9250506040611f0386828701611c5f565b9150509250925092565b611f1681612706565b82525050565b611f2581612718565b82525050565b6000611f36826125ca565b611f4081856125e0565b9350611f5081856020860161275b565b611f5981612852565b840191505092915050565b6000611f716023836125e0565b9150611f7c82612863565b604082019050919050565b6000611f946022836125e0565b9150611f9f826128b2565b604082019050919050565b6000611fb76022836125e0565b9150611fc282612901565b604082019050919050565b6000611fda6029836125e0565b9150611fe582612950565b604082019050919050565b6000611ffd601d836125e0565b91506120088261299f565b602082019050919050565b60006120206026836125e0565b915061202b826129c8565b604082019050919050565b60006120436026836125e0565b915061204e82612a17565b604082019050919050565b60006120666018836125e0565b915061207182612a66565b602082019050919050565b6000612089601a836125e0565b915061209482612a8f565b602082019050919050565b60006120ac6043836125e0565b91506120b782612ab8565b606082019050919050565b60006120cf6037836125e0565b91506120da82612b2d565b604082019050919050565b60006120f26021836125e0565b91506120fd82612b7c565b604082019050919050565b60006121156019836125e0565b915061212082612bcb565b602082019050919050565b60006121386025836125e0565b915061214382612bf4565b604082019050919050565b600061215b6025836125e0565b915061216682612c43565b604082019050919050565b600061217e6000836125d5565b915061218982612c92565b600082019050919050565b60006121a16015836125e0565b91506121ac82612c95565b602082019050919050565b60006121c46024836125e0565b91506121cf82612cbe565b604082019050919050565b60006121e76025836125e0565b91506121f282612d0d565b604082019050919050565b600061220a601f836125e0565b915061221582612d5c565b602082019050919050565b61222981612744565b82525050565b6122388161274e565b82525050565b600061224982612171565b9150819050919050565b60006020820190506122686000830184611f0d565b92915050565b60006060820190506122836000830186611f0d565b6122906020830185611f0d565b61229d6040830184612220565b949350505050565b60006040820190506122ba6000830185611f0d565b6122c76020830184612220565b9392505050565b60006020820190506122e36000830184611f1c565b92915050565b600060208201905081810360008301526123038184611f2b565b905092915050565b6000602082019050818103600083015261232481611f64565b9050919050565b6000602082019050818103600083015261234481611f87565b9050919050565b6000602082019050818103600083015261236481611faa565b9050919050565b6000602082019050818103600083015261238481611fcd565b9050919050565b600060208201905081810360008301526123a481611ff0565b9050919050565b600060208201905081810360008301526123c481612013565b9050919050565b600060208201905081810360008301526123e481612036565b9050919050565b6000602082019050818103600083015261240481612059565b9050919050565b600060208201905081810360008301526124248161207c565b9050919050565b600060208201905081810360008301526124448161209f565b9050919050565b60006020820190508181036000830152612464816120c2565b9050919050565b60006020820190508181036000830152612484816120e5565b9050919050565b600060208201905081810360008301526124a481612108565b9050919050565b600060208201905081810360008301526124c48161212b565b9050919050565b600060208201905081810360008301526124e48161214e565b9050919050565b6000602082019050818103600083015261250481612194565b9050919050565b60006020820190508181036000830152612524816121b7565b9050919050565b60006020820190508181036000830152612544816121da565b9050919050565b60006020820190508181036000830152612564816121fd565b9050919050565b60006020820190506125806000830184612220565b92915050565b600060408201905061259b6000830185612220565b6125a86020830184612220565b9392505050565b60006020820190506125c4600083018461222f565b92915050565b600081519050919050565b600081905092915050565b600082825260208201905092915050565b60006125fc82612744565b915061260783612744565b9250827fffffffffffffffffffffffffffffffffffffffffffffffffffffffffffffffff0382111561263c5761263b6127c0565b5b828201905092915050565b600061265282612744565b915061265d83612744565b92508261266d5761266c6127ef565b5b828204905092915050565b600061268382612744565b915061268e83612744565b9250817fffffffffffffffffffffffffffffffffffffffffffffffffffffffffffffffff04831182151516156126c7576126c66127c0565b5b828202905092915050565b60006126dd82612744565b91506126e883612744565b9250828210156126fb576126fa6127c0565b5b828203905092915050565b600061271182612724565b9050919050565b60008115159050919050565b600073ffffffffffffffffffffffffffffffffffffffff82169050919050565b6000819050919050565b600060ff82169050919050565b60005b8381101561277957808201518184015260208101905061275e565b83811115612788576000848401525b50505050565b600060028204905060018216806127a657607f821691505b602082108114156127ba576127b961281e565b5b50919050565b7f4e487b7100000000000000000000000000000000000000000000000000000000600052601160045260246000fd5b7f4e487b7100000000000000000000000000000000000000000000000000000000600052601260045260246000fd5b7f4e487b7100000000000000000000000000000000000000000000000000000000600052602260045260246000fd5b600080fd5b6000601f19601f8301169050919050565b7f45524332303a207472616e7366657220746f20746865207a65726f206164647260008201527f6573730000000000000000000000000000000000000000000000000000000000602082015250565b7f45524332303a206275726e20616d6f756e7420657863656564732062616c616e60008201527f6365000000000000000000000000000000000000000000000000000000000000602082015250565b7f45524332303a20617070726f766520746f20746865207a65726f20616464726560008201527f7373000000000000000000000000000000000000000000000000000000000000602082015250565b7f496e73756666696369656e7420696e70757420616d6f756e74206f662045524360008201527f323020546f6b656e730000000000000000000000000000000000000000000000602082015250565b7f45524332303a20696e73756666696369656e7420616c6c6f77616e6365000000600082015250565b7f45524332303a207472616e7366657220616d6f756e742065786365656473206260008201527f616c616e63650000000000000000000000000000000000000000000000000000602082015250565b7f5472616e73616374696f6e206f662045544820746f20726563697069656e742060008201527f6661696c65640000000000000000000000000000000000000000000000000000602082015250565b7f546f6b656e206164647265737320697320696e76616c69640000000000000000600082015250565b7f496e76616c696420696e70757420746f6b656e20616d6f756e74000000000000600082015250565b7f416d6f756e74207377617070656420646f6573206e6f74206d65657420796f7560008201527f722073746970756c6174656420616d6f756e742c20726576657274696e67207360208201527f7761700000000000000000000000000000000000000000000000000000000000604082015250565b7f506c6561736520696e70757420612076616c696420616d6f756e74206f66204c60008201527f5020546f6b656e7320746f206275726e2f72656465656d000000000000000000602082015250565b7f45524332303a206275726e2066726f6d20746865207a65726f2061646472657360008201527f7300000000000000000000000000000000000000000000000000000000000000602082015250565b7f45544820616d6f756e742063616e6e6f74206265207a65726f00000000000000600082015250565b7f45524332303a207472616e736665722066726f6d20746865207a65726f20616460008201527f6472657373000000000000000000000000000000000000000000000000000000602082015250565b7f5472616e73616374696f6e206f662045746865722077617320756e737563636560008201527f737366756c000000000000000000000000000000000000000000000000000000602082015250565b50565b7f546865726520617265206e6f2072657365727665730000000000000000000000600082015250565b7f45524332303a20617070726f76652066726f6d20746865207a65726f2061646460008201527f7265737300000000000000000000000000000000000000000000000000000000602082015250565b7f45524332303a2064656372656173656420616c6c6f77616e63652062656c6f7760008201527f207a65726f000000000000000000000000000000000000000000000000000000602082015250565b7f45524332303a206d696e7420746f20746865207a65726f206164647265737300600082015250565b612d8e81612706565b8114612d9957600080fd5b50565b612da581612718565b8114612db057600080fd5b50565b612dbc81612744565b8114612dc757600080fd5b5056fea2646970667358221220a627abfbd59a8fb237d4f95f5175cb636eb4e0af61e1fac3d75b98fe234f6e9a64736f6c63430008070033",
					"opcodes": "PUSH1 0x80 PUSH1 0x40 MSTORE CALLVALUE DUP1 ISZERO PUSH3 0x11 JUMPI PUSH1 0x0 DUP1 REVERT JUMPDEST POP PUSH1 0x40 MLOAD PUSH3 0x3217 CODESIZE SUB DUP1 PUSH3 0x3217 DUP4 CODECOPY DUP2 DUP2 ADD PUSH1 0x40 MSTORE DUP2 ADD SWAP1 PUSH3 0x37 SWAP2 SWAP1 PUSH3 0x29A JUMP JUMPDEST PUSH1 0x40 MLOAD DUP1 PUSH1 0x40 ADD PUSH1 0x40 MSTORE DUP1 PUSH1 0x7 DUP2 MSTORE PUSH1 0x20 ADD PUSH32 0x5377617020563100000000000000000000000000000000000000000000000000 DUP2 MSTORE POP PUSH1 0x40 MLOAD DUP1 PUSH1 0x40 ADD PUSH1 0x40 MSTORE DUP1 PUSH1 0x7 DUP2 MSTORE PUSH1 0x20 ADD PUSH32 0x537761702D563100000000000000000000000000000000000000000000000000 DUP2 MSTORE POP DUP2 PUSH1 0x3 SWAP1 DUP1 MLOAD SWAP1 PUSH1 0x20 ADD SWAP1 PUSH3 0xBB SWAP3 SWAP2 SWAP1 PUSH3 0x1D3 JUMP JUMPDEST POP DUP1 PUSH1 0x4 SWAP1 DUP1 MLOAD SWAP1 PUSH1 0x20 ADD SWAP1 PUSH3 0xD4 SWAP3 SWAP2 SWAP1 PUSH3 0x1D3 JUMP JUMPDEST POP POP POP PUSH1 0x0 PUSH20 0xFFFFFFFFFFFFFFFFFFFFFFFFFFFFFFFFFFFFFFFF AND DUP2 PUSH20 0xFFFFFFFFFFFFFFFFFFFFFFFFFFFFFFFFFFFFFFFF AND EQ ISZERO PUSH3 0x14A JUMPI PUSH1 0x40 MLOAD PUSH32 0x8C379A000000000000000000000000000000000000000000000000000000000 DUP2 MSTORE PUSH1 0x4 ADD PUSH3 0x141 SWAP1 PUSH3 0x2F3 JUMP JUMPDEST PUSH1 0x40 MLOAD DUP1 SWAP2 SUB SWAP1 REVERT JUMPDEST DUP1 PUSH1 0x5 PUSH1 0x0 PUSH2 0x100 EXP DUP2 SLOAD DUP2 PUSH20 0xFFFFFFFFFFFFFFFFFFFFFFFFFFFFFFFFFFFFFFFF MUL NOT AND SWAP1 DUP4 PUSH20 0xFFFFFFFFFFFFFFFFFFFFFFFFFFFFFFFFFFFFFFFF AND MUL OR SWAP1 SSTORE POP CALLER PUSH1 0x6 PUSH1 0x0 PUSH2 0x100 EXP DUP2 SLOAD DUP2 PUSH20 0xFFFFFFFFFFFFFFFFFFFFFFFFFFFFFFFFFFFFFFFF MUL NOT AND SWAP1 DUP4 PUSH20 0xFFFFFFFFFFFFFFFFFFFFFFFFFFFFFFFFFFFFFFFF AND MUL OR SWAP1 SSTORE POP POP PUSH3 0x407 JUMP JUMPDEST DUP3 DUP1 SLOAD PUSH3 0x1E1 SWAP1 PUSH3 0x35A JUMP JUMPDEST SWAP1 PUSH1 0x0 MSTORE PUSH1 0x20 PUSH1 0x0 KECCAK256 SWAP1 PUSH1 0x1F ADD PUSH1 0x20 SWAP1 DIV DUP2 ADD SWAP3 DUP3 PUSH3 0x205 JUMPI PUSH1 0x0 DUP6 SSTORE PUSH3 0x251 JUMP JUMPDEST DUP3 PUSH1 0x1F LT PUSH3 0x220 JUMPI DUP1 MLOAD PUSH1 0xFF NOT AND DUP4 DUP1 ADD OR DUP6 SSTORE PUSH3 0x251 JUMP JUMPDEST DUP3 DUP1 ADD PUSH1 0x1 ADD DUP6 SSTORE DUP3 ISZERO PUSH3 0x251 JUMPI SWAP2 DUP3 ADD JUMPDEST DUP3 DUP2 GT ISZERO PUSH3 0x250 JUMPI DUP3 MLOAD DUP3 SSTORE SWAP2 PUSH1 0x20 ADD SWAP2 SWAP1 PUSH1 0x1 ADD SWAP1 PUSH3 0x233 JUMP JUMPDEST JUMPDEST POP SWAP1 POP PUSH3 0x260 SWAP2 SWAP1 PUSH3 0x264 JUMP JUMPDEST POP SWAP1 JUMP JUMPDEST JUMPDEST DUP1 DUP3 GT ISZERO PUSH3 0x27F JUMPI PUSH1 0x0 DUP2 PUSH1 0x0 SWAP1 SSTORE POP PUSH1 0x1 ADD PUSH3 0x265 JUMP JUMPDEST POP SWAP1 JUMP JUMPDEST PUSH1 0x0 DUP2 MLOAD SWAP1 POP PUSH3 0x294 DUP2 PUSH3 0x3ED JUMP JUMPDEST SWAP3 SWAP2 POP POP JUMP JUMPDEST PUSH1 0x0 PUSH1 0x20 DUP3 DUP5 SUB SLT ISZERO PUSH3 0x2B3 JUMPI PUSH3 0x2B2 PUSH3 0x3BF JUMP JUMPDEST JUMPDEST PUSH1 0x0 PUSH3 0x2C3 DUP5 DUP3 DUP6 ADD PUSH3 0x283 JUMP JUMPDEST SWAP2 POP POP SWAP3 SWAP2 POP POP JUMP JUMPDEST PUSH1 0x0 PUSH3 0x2DB PUSH1 0xF DUP4 PUSH3 0x315 JUMP JUMPDEST SWAP2 POP PUSH3 0x2E8 DUP3 PUSH3 0x3C4 JUMP JUMPDEST PUSH1 0x20 DUP3 ADD SWAP1 POP SWAP2 SWAP1 POP JUMP JUMPDEST PUSH1 0x0 PUSH1 0x20 DUP3 ADD SWAP1 POP DUP2 DUP2 SUB PUSH1 0x0 DUP4 ADD MSTORE PUSH3 0x30E DUP2 PUSH3 0x2CC JUMP JUMPDEST SWAP1 POP SWAP2 SWAP1 POP JUMP JUMPDEST PUSH1 0x0 DUP3 DUP3 MSTORE PUSH1 0x20 DUP3 ADD SWAP1 POP SWAP3 SWAP2 POP POP JUMP JUMPDEST PUSH1 0x0 PUSH3 0x333 DUP3 PUSH3 0x33A JUMP JUMPDEST SWAP1 POP SWAP2 SWAP1 POP JUMP JUMPDEST PUSH1 0x0 PUSH20 0xFFFFFFFFFFFFFFFFFFFFFFFFFFFFFFFFFFFFFFFF DUP3 AND SWAP1 POP SWAP2 SWAP1 POP JUMP JUMPDEST PUSH1 0x0 PUSH1 0x2 DUP3 DIV SWAP1 POP PUSH1 0x1 DUP3 AND DUP1 PUSH3 0x373 JUMPI PUSH1 0x7F DUP3 AND SWAP2 POP JUMPDEST PUSH1 0x20 DUP3 LT DUP2 EQ ISZERO PUSH3 0x38A JUMPI PUSH3 0x389 PUSH3 0x390 JUMP JUMPDEST JUMPDEST POP SWAP2 SWAP1 POP JUMP JUMPDEST PUSH32 0x4E487B7100000000000000000000000000000000000000000000000000000000 PUSH1 0x0 MSTORE PUSH1 0x22 PUSH1 0x4 MSTORE PUSH1 0x24 PUSH1 0x0 REVERT JUMPDEST PUSH1 0x0 DUP1 REVERT JUMPDEST PUSH32 0x496E76616C696420616464726573730000000000000000000000000000000000 PUSH1 0x0 DUP3 ADD MSTORE POP JUMP JUMPDEST PUSH3 0x3F8 DUP2 PUSH3 0x326 JUMP JUMPDEST DUP2 EQ PUSH3 0x404 JUMPI PUSH1 0x0 DUP1 REVERT JUMPDEST POP JUMP JUMPDEST PUSH2 0x2E00 DUP1 PUSH3 0x417 PUSH1 0x0 CODECOPY PUSH1 0x0 RETURN INVALID PUSH1 0x80 PUSH1 0x40 MSTORE PUSH1 0x4 CALLDATASIZE LT PUSH2 0x135 JUMPI PUSH1 0x0 CALLDATALOAD PUSH1 0xE0 SHR DUP1 PUSH4 0x6E9E8116 GT PUSH2 0xAB JUMPI DUP1 PUSH4 0x9D76EA58 GT PUSH2 0x6F JUMPI DUP1 PUSH4 0x9D76EA58 EQ PUSH2 0x45E JUMPI DUP1 PUSH4 0xA457C2D7 EQ PUSH2 0x489 JUMPI DUP1 PUSH4 0xA9059CBB EQ PUSH2 0x4C6 JUMPI DUP1 PUSH4 0xAE0AAEA3 EQ PUSH2 0x503 JUMPI DUP1 PUSH4 0xDD62ED3E EQ PUSH2 0x51F JUMPI DUP1 PUSH4 0xF7A7E324 EQ PUSH2 0x55C JUMPI PUSH2 0x135 JUMP JUMPDEST DUP1 PUSH4 0x6E9E8116 EQ PUSH2 0x371 JUMPI DUP1 PUSH4 0x70A08231 EQ PUSH2 0x38D JUMPI DUP1 PUSH4 0x95D89B41 EQ PUSH2 0x3CA JUMPI DUP1 PUSH4 0x966DAE0E EQ PUSH2 0x3F5 JUMPI DUP1 PUSH4 0x9C8F9F23 EQ PUSH2 0x420 JUMPI PUSH2 0x135 JUMP JUMPDEST DUP1 PUSH4 0x23B872DD GT PUSH2 0xFD JUMPI DUP1 PUSH4 0x23B872DD EQ PUSH2 0x236 JUMPI DUP1 PUSH4 0x2C0C60A4 EQ PUSH2 0x273 JUMPI DUP1 PUSH4 0x313CE567 EQ PUSH2 0x2B0 JUMPI DUP1 PUSH4 0x39509351 EQ PUSH2 0x2DB JUMPI DUP1 PUSH4 0x51C6590A EQ PUSH2 0x318 JUMPI DUP1 PUSH4 0x64338A30 EQ PUSH2 0x348 JUMPI PUSH2 0x135 JUMP JUMPDEST DUP1 PUSH4 0x6FDDE03 EQ PUSH2 0x13A JUMPI DUP1 PUSH4 0x902F1AC EQ PUSH2 0x165 JUMPI DUP1 PUSH4 0x95EA7B3 EQ PUSH2 0x191 JUMPI DUP1 PUSH4 0xF8070B4 EQ PUSH2 0x1CE JUMPI DUP1 PUSH4 0x18160DDD EQ PUSH2 0x20B JUMPI JUMPDEST PUSH1 0x0 DUP1 REVERT JUMPDEST CALLVALUE DUP1 ISZERO PUSH2 0x146 JUMPI PUSH1 0x0 DUP1 REVERT JUMPDEST POP PUSH2 0x14F PUSH2 0x585 JUMP JUMPDEST PUSH1 0x40 MLOAD PUSH2 0x15C SWAP2 SWAP1 PUSH2 0x22E9 JUMP JUMPDEST PUSH1 0x40 MLOAD DUP1 SWAP2 SUB SWAP1 RETURN JUMPDEST CALLVALUE DUP1 ISZERO PUSH2 0x171 JUMPI PUSH1 0x0 DUP1 REVERT JUMPDEST POP PUSH2 0x17A PUSH2 0x617 JUMP JUMPDEST PUSH1 0x40 MLOAD PUSH2 0x188 SWAP3 SWAP2 SWAP1 PUSH2 0x2586 JUMP JUMPDEST PUSH1 0x40 MLOAD DUP1 SWAP2 SUB SWAP1 RETURN JUMPDEST CALLVALUE DUP1 ISZERO PUSH2 0x19D JUMPI PUSH1 0x0 DUP1 REVERT JUMPDEST POP PUSH2 0x1B8 PUSH1 0x4 DUP1 CALLDATASIZE SUB DUP2 ADD SWAP1 PUSH2 0x1B3 SWAP2 SWAP1 PUSH2 0x1D73 JUMP JUMPDEST PUSH2 0x6CE JUMP JUMPDEST PUSH1 0x40 MLOAD PUSH2 0x1C5 SWAP2 SWAP1 PUSH2 0x22CE JUMP JUMPDEST PUSH1 0x40 MLOAD DUP1 SWAP2 SUB SWAP1 RETURN JUMPDEST CALLVALUE DUP1 ISZERO PUSH2 0x1DA JUMPI PUSH1 0x0 DUP1 REVERT JUMPDEST POP PUSH2 0x1F5 PUSH1 0x4 DUP1 CALLDATASIZE SUB DUP2 ADD SWAP1 PUSH2 0x1F0 SWAP2 SWAP1 PUSH2 0x1DE0 JUMP JUMPDEST PUSH2 0x6F1 JUMP JUMPDEST PUSH1 0x40 MLOAD PUSH2 0x202 SWAP2 SWAP1 PUSH2 0x256B JUMP JUMPDEST PUSH1 0x40 MLOAD DUP1 SWAP2 SUB SWAP1 RETURN JUMPDEST CALLVALUE DUP1 ISZERO PUSH2 0x217 JUMPI PUSH1 0x0 DUP1 REVERT JUMPDEST POP PUSH2 0x220 PUSH2 0x758 JUMP JUMPDEST PUSH1 0x40 MLOAD PUSH2 0x22D SWAP2 SWAP1 PUSH2 0x256B JUMP JUMPDEST PUSH1 0x40 MLOAD DUP1 SWAP2 SUB SWAP1 RETURN JUMPDEST CALLVALUE DUP1 ISZERO PUSH2 0x242 JUMPI PUSH1 0x0 DUP1 REVERT JUMPDEST POP PUSH2 0x25D PUSH1 0x4 DUP1 CALLDATASIZE SUB DUP2 ADD SWAP1 PUSH2 0x258 SWAP2 SWAP1 PUSH2 0x1D20 JUMP JUMPDEST PUSH2 0x762 JUMP JUMPDEST PUSH1 0x40 MLOAD PUSH2 0x26A SWAP2 SWAP1 PUSH2 0x22CE JUMP JUMPDEST PUSH1 0x40 MLOAD DUP1 SWAP2 SUB SWAP1 RETURN JUMPDEST CALLVALUE DUP1 ISZERO PUSH2 0x27F JUMPI PUSH1 0x0 DUP1 REVERT JUMPDEST POP PUSH2 0x29A PUSH1 0x4 DUP1 CALLDATASIZE SUB DUP2 ADD SWAP1 PUSH2 0x295 SWAP2 SWAP1 PUSH2 0x1DE0 JUMP JUMPDEST PUSH2 0x791 JUMP JUMPDEST PUSH1 0x40 MLOAD PUSH2 0x2A7 SWAP2 SWAP1 PUSH2 0x256B JUMP JUMPDEST PUSH1 0x40 MLOAD DUP1 SWAP2 SUB SWAP1 RETURN JUMPDEST CALLVALUE DUP1 ISZERO PUSH2 0x2BC JUMPI PUSH1 0x0 DUP1 REVERT JUMPDEST POP PUSH2 0x2C5 PUSH2 0x7F8 JUMP JUMPDEST PUSH1 0x40 MLOAD PUSH2 0x2D2 SWAP2 SWAP1 PUSH2 0x25AF JUMP JUMPDEST PUSH1 0x40 MLOAD DUP1 SWAP2 SUB SWAP1 RETURN JUMPDEST CALLVALUE DUP1 ISZERO PUSH2 0x2E7 JUMPI PUSH1 0x0 DUP1 REVERT JUMPDEST POP PUSH2 0x302 PUSH1 0x4 DUP1 CALLDATASIZE SUB DUP2 ADD SWAP1 PUSH2 0x2FD SWAP2 SWAP1 PUSH2 0x1D73 JUMP JUMPDEST PUSH2 0x801 JUMP JUMPDEST PUSH1 0x40 MLOAD PUSH2 0x30F SWAP2 SWAP1 PUSH2 0x22CE JUMP JUMPDEST PUSH1 0x40 MLOAD DUP1 SWAP2 SUB SWAP1 RETURN JUMPDEST PUSH2 0x332 PUSH1 0x4 DUP1 CALLDATASIZE SUB DUP2 ADD SWAP1 PUSH2 0x32D SWAP2 SWAP1 PUSH2 0x1DE0 JUMP JUMPDEST PUSH2 0x838 JUMP JUMPDEST PUSH1 0x40 MLOAD PUSH2 0x33F SWAP2 SWAP1 PUSH2 0x256B JUMP JUMPDEST PUSH1 0x40 MLOAD DUP1 SWAP2 SUB SWAP1 RETURN JUMPDEST CALLVALUE DUP1 ISZERO PUSH2 0x354 JUMPI PUSH1 0x0 DUP1 REVERT JUMPDEST POP PUSH2 0x36F PUSH1 0x4 DUP1 CALLDATASIZE SUB DUP2 ADD SWAP1 PUSH2 0x36A SWAP2 SWAP1 PUSH2 0x1E7A JUMP JUMPDEST PUSH2 0xAAE JUMP JUMPDEST STOP JUMPDEST PUSH2 0x38B PUSH1 0x4 DUP1 CALLDATASIZE SUB DUP2 ADD SWAP1 PUSH2 0x386 SWAP2 SWAP1 PUSH2 0x1E3A JUMP JUMPDEST PUSH2 0xCC4 JUMP JUMPDEST STOP JUMPDEST CALLVALUE DUP1 ISZERO PUSH2 0x399 JUMPI PUSH1 0x0 DUP1 REVERT JUMPDEST POP PUSH2 0x3B4 PUSH1 0x4 DUP1 CALLDATASIZE SUB DUP2 ADD SWAP1 PUSH2 0x3AF SWAP2 SWAP1 PUSH2 0x1CB3 JUMP JUMPDEST PUSH2 0xCD2 JUMP JUMPDEST PUSH1 0x40 MLOAD PUSH2 0x3C1 SWAP2 SWAP1 PUSH2 0x256B JUMP JUMPDEST PUSH1 0x40 MLOAD DUP1 SWAP2 SUB SWAP1 RETURN JUMPDEST CALLVALUE DUP1 ISZERO PUSH2 0x3D6 JUMPI PUSH1 0x0 DUP1 REVERT JUMPDEST POP PUSH2 0x3DF PUSH2 0xD1A JUMP JUMPDEST PUSH1 0x40 MLOAD PUSH2 0x3EC SWAP2 SWAP1 PUSH2 0x22E9 JUMP JUMPDEST PUSH1 0x40 MLOAD DUP1 SWAP2 SUB SWAP1 RETURN JUMPDEST CALLVALUE DUP1 ISZERO PUSH2 0x401 JUMPI PUSH1 0x0 DUP1 REVERT JUMPDEST POP PUSH2 0x40A PUSH2 0xDAC JUMP JUMPDEST PUSH1 0x40 MLOAD PUSH2 0x417 SWAP2 SWAP1 PUSH2 0x2253 JUMP JUMPDEST PUSH1 0x40 MLOAD DUP1 SWAP2 SUB SWAP1 RETURN JUMPDEST CALLVALUE DUP1 ISZERO PUSH2 0x42C JUMPI PUSH1 0x0 DUP1 REVERT JUMPDEST POP PUSH2 0x447 PUSH1 0x4 DUP1 CALLDATASIZE SUB DUP2 ADD SWAP1 PUSH2 0x442 SWAP2 SWAP1 PUSH2 0x1DE0 JUMP JUMPDEST PUSH2 0xDD2 JUMP JUMPDEST PUSH1 0x40 MLOAD PUSH2 0x455 SWAP3 SWAP2 SWAP1 PUSH2 0x2586 JUMP JUMPDEST PUSH1 0x40 MLOAD DUP1 SWAP2 SUB SWAP1 RETURN JUMPDEST CALLVALUE DUP1 ISZERO PUSH2 0x46A JUMPI PUSH1 0x0 DUP1 REVERT JUMPDEST POP PUSH2 0x473 PUSH2 0x101A JUMP JUMPDEST PUSH1 0x40 MLOAD PUSH2 0x480 SWAP2 SWAP1 PUSH2 0x2253 JUMP JUMPDEST PUSH1 0x40 MLOAD DUP1 SWAP2 SUB SWAP1 RETURN JUMPDEST CALLVALUE DUP1 ISZERO PUSH2 0x495 JUMPI PUSH1 0x0 DUP1 REVERT JUMPDEST POP PUSH2 0x4B0 PUSH1 0x4 DUP1 CALLDATASIZE SUB DUP2 ADD SWAP1 PUSH2 0x4AB SWAP2 SWAP1 PUSH2 0x1D73 JUMP JUMPDEST PUSH2 0x1040 JUMP JUMPDEST PUSH1 0x40 MLOAD PUSH2 0x4BD SWAP2 SWAP1 PUSH2 0x22CE JUMP JUMPDEST PUSH1 0x40 MLOAD DUP1 SWAP2 SUB SWAP1 RETURN JUMPDEST CALLVALUE DUP1 ISZERO PUSH2 0x4D2 JUMPI PUSH1 0x0 DUP1 REVERT JUMPDEST POP PUSH2 0x4ED PUSH1 0x4 DUP1 CALLDATASIZE SUB DUP2 ADD SWAP1 PUSH2 0x4E8 SWAP2 SWAP1 PUSH2 0x1D73 JUMP JUMPDEST PUSH2 0x10B7 JUMP JUMPDEST PUSH1 0x40 MLOAD PUSH2 0x4FA SWAP2 SWAP1 PUSH2 0x22CE JUMP JUMPDEST PUSH1 0x40 MLOAD DUP1 SWAP2 SUB SWAP1 RETURN JUMPDEST PUSH2 0x51D PUSH1 0x4 DUP1 CALLDATASIZE SUB DUP2 ADD SWAP1 PUSH2 0x518 SWAP2 SWAP1 PUSH2 0x1DE0 JUMP JUMPDEST PUSH2 0x10DA JUMP JUMPDEST STOP JUMPDEST CALLVALUE DUP1 ISZERO PUSH2 0x52B JUMPI PUSH1 0x0 DUP1 REVERT JUMPDEST POP PUSH2 0x546 PUSH1 0x4 DUP1 CALLDATASIZE SUB DUP2 ADD SWAP1 PUSH2 0x541 SWAP2 SWAP1 PUSH2 0x1CE0 JUMP JUMPDEST PUSH2 0x10E7 JUMP JUMPDEST PUSH1 0x40 MLOAD PUSH2 0x553 SWAP2 SWAP1 PUSH2 0x256B JUMP JUMPDEST PUSH1 0x40 MLOAD DUP1 SWAP2 SUB SWAP1 RETURN JUMPDEST CALLVALUE DUP1 ISZERO PUSH2 0x568 JUMPI PUSH1 0x0 DUP1 REVERT JUMPDEST POP PUSH2 0x583 PUSH1 0x4 DUP1 CALLDATASIZE SUB DUP2 ADD SWAP1 PUSH2 0x57E SWAP2 SWAP1 PUSH2 0x1EBA JUMP JUMPDEST PUSH2 0x116E JUMP JUMPDEST STOP JUMPDEST PUSH1 0x60 PUSH1 0x3 DUP1 SLOAD PUSH2 0x594 SWAP1 PUSH2 0x278E JUMP JUMPDEST DUP1 PUSH1 0x1F ADD PUSH1 0x20 DUP1 SWAP2 DIV MUL PUSH1 0x20 ADD PUSH1 0x40 MLOAD SWAP1 DUP2 ADD PUSH1 0x40 MSTORE DUP1 SWAP3 SWAP2 SWAP1 DUP2 DUP2 MSTORE PUSH1 0x20 ADD DUP3 DUP1 SLOAD PUSH2 0x5C0 SWAP1 PUSH2 0x278E JUMP JUMPDEST DUP1 ISZERO PUSH2 0x60D JUMPI DUP1 PUSH1 0x1F LT PUSH2 0x5E2 JUMPI PUSH2 0x100 DUP1 DUP4 SLOAD DIV MUL DUP4 MSTORE SWAP2 PUSH1 0x20 ADD SWAP2 PUSH2 0x60D JUMP JUMPDEST DUP3 ADD SWAP2 SWAP1 PUSH1 0x0 MSTORE PUSH1 0x20 PUSH1 0x0 KECCAK256 SWAP1 JUMPDEST DUP2 SLOAD DUP2 MSTORE SWAP1 PUSH1 0x1 ADD SWAP1 PUSH1 0x20 ADD DUP1 DUP4 GT PUSH2 0x5F0 JUMPI DUP3 SWAP1 SUB PUSH1 0x1F AND DUP3 ADD SWAP2 JUMPDEST POP POP POP POP POP SWAP1 POP SWAP1 JUMP JUMPDEST PUSH1 0x0 DUP1 PUSH1 0x5 PUSH1 0x0 SWAP1 SLOAD SWAP1 PUSH2 0x100 EXP SWAP1 DIV PUSH20 0xFFFFFFFFFFFFFFFFFFFFFFFFFFFFFFFFFFFFFFFF AND PUSH20 0xFFFFFFFFFFFFFFFFFFFFFFFFFFFFFFFFFFFFFFFF AND PUSH4 0x70A08231 ADDRESS PUSH1 0x40 MLOAD DUP3 PUSH4 0xFFFFFFFF AND PUSH1 0xE0 SHL DUP2 MSTORE PUSH1 0x4 ADD PUSH2 0x675 SWAP2 SWAP1 PUSH2 0x2253 JUMP JUMPDEST PUSH1 0x20 PUSH1 0x40 MLOAD DUP1 DUP4 SUB DUP2 DUP7 DUP1 EXTCODESIZE ISZERO DUP1 ISZERO PUSH2 0x68D JUMPI PUSH1 0x0 DUP1 REVERT JUMPDEST POP GAS STATICCALL ISZERO DUP1 ISZERO PUSH2 0x6A1 JUMPI RETURNDATASIZE PUSH1 0x0 DUP1 RETURNDATACOPY RETURNDATASIZE PUSH1 0x0 REVERT JUMPDEST POP POP POP POP PUSH1 0x40 MLOAD RETURNDATASIZE PUSH1 0x1F NOT PUSH1 0x1F DUP3 ADD AND DUP3 ADD DUP1 PUSH1 0x40 MSTORE POP DUP2 ADD SWAP1 PUSH2 0x6C5 SWAP2 SWAP1 PUSH2 0x1E0D JUMP JUMPDEST SWAP2 POP SELFBALANCE SWAP1 POP SWAP1 SWAP2 JUMP JUMPDEST PUSH1 0x0 DUP1 PUSH2 0x6D9 PUSH2 0x1226 JUMP JUMPDEST SWAP1 POP PUSH2 0x6E6 DUP2 DUP6 DUP6 PUSH2 0x122E JUMP JUMPDEST PUSH1 0x1 SWAP2 POP POP SWAP3 SWAP2 POP POP JUMP JUMPDEST PUSH1 0x0 DUP1 DUP3 GT PUSH2 0x735 JUMPI PUSH1 0x40 MLOAD PUSH32 0x8C379A000000000000000000000000000000000000000000000000000000000 DUP2 MSTORE PUSH1 0x4 ADD PUSH2 0x72C SWAP1 PUSH2 0x248B JUMP JUMPDEST PUSH1 0x40 MLOAD DUP1 SWAP2 SUB SWAP1 REVERT JUMPDEST PUSH1 0x0 DUP1 PUSH2 0x740 PUSH2 0x617 JUMP JUMPDEST SWAP2 POP SWAP2 POP PUSH2 0x74F DUP5 DUP3 DUP5 PUSH2 0x13F9 JUMP JUMPDEST SWAP3 POP POP POP SWAP2 SWAP1 POP JUMP JUMPDEST PUSH1 0x0 PUSH1 0x2 SLOAD SWAP1 POP SWAP1 JUMP JUMPDEST PUSH1 0x0 DUP1 PUSH2 0x76D PUSH2 0x1226 JUMP JUMPDEST SWAP1 POP PUSH2 0x77A DUP6 DUP3 DUP6 PUSH2 0x149F JUMP JUMPDEST PUSH2 0x785 DUP6 DUP6 DUP6 PUSH2 0x152B JUMP JUMPDEST PUSH1 0x1 SWAP2 POP POP SWAP4 SWAP3 POP POP POP JUMP JUMPDEST PUSH1 0x0 DUP1 DUP2 GT PUSH2 0x7D5 JUMPI PUSH1 0x40 MLOAD PUSH32 0x8C379A000000000000000000000000000000000000000000000000000000000 DUP2 MSTORE PUSH1 0x4 ADD PUSH2 0x7CC SWAP1 PUSH2 0x248B JUMP JUMPDEST PUSH1 0x40 MLOAD DUP1 SWAP2 SUB SWAP1 REVERT JUMPDEST PUSH1 0x0 DUP1 PUSH2 0x7E0 PUSH2 0x617 JUMP JUMPDEST SWAP2 POP SWAP2 POP PUSH2 0x7EF DUP5 DUP4 DUP4 PUSH2 0x13F9 JUMP JUMPDEST SWAP3 POP POP POP SWAP2 SWAP1 POP JUMP JUMPDEST PUSH1 0x0 PUSH1 0x12 SWAP1 POP SWAP1 JUMP JUMPDEST PUSH1 0x0 DUP1 PUSH2 0x80C PUSH2 0x1226 JUMP JUMPDEST SWAP1 POP PUSH2 0x82D DUP2 DUP6 DUP6 PUSH2 0x81E DUP6 DUP10 PUSH2 0x10E7 JUMP JUMPDEST PUSH2 0x828 SWAP2 SWAP1 PUSH2 0x25F1 JUMP JUMPDEST PUSH2 0x122E JUMP JUMPDEST PUSH1 0x1 SWAP2 POP POP SWAP3 SWAP2 POP POP JUMP JUMPDEST PUSH1 0x0 DUP1 PUSH1 0x0 PUSH2 0x845 PUSH2 0x617 JUMP JUMPDEST SWAP2 POP SWAP2 POP PUSH1 0x0 DUP3 EQ ISZERO PUSH2 0x912 JUMPI PUSH1 0x0 PUSH1 0x5 PUSH1 0x0 SWAP1 SLOAD SWAP1 PUSH2 0x100 EXP SWAP1 DIV PUSH20 0xFFFFFFFFFFFFFFFFFFFFFFFFFFFFFFFFFFFFFFFF AND SWAP1 POP DUP1 PUSH20 0xFFFFFFFFFFFFFFFFFFFFFFFFFFFFFFFFFFFFFFFF AND PUSH4 0x23B872DD CALLER ADDRESS DUP9 PUSH1 0x40 MLOAD DUP5 PUSH4 0xFFFFFFFF AND PUSH1 0xE0 SHL DUP2 MSTORE PUSH1 0x4 ADD PUSH2 0x8B6 SWAP4 SWAP3 SWAP2 SWAP1 PUSH2 0x226E JUMP JUMPDEST PUSH1 0x20 PUSH1 0x40 MLOAD DUP1 DUP4 SUB DUP2 PUSH1 0x0 DUP8 DUP1 EXTCODESIZE ISZERO DUP1 ISZERO PUSH2 0x8D0 JUMPI PUSH1 0x0 DUP1 REVERT JUMPDEST POP GAS CALL ISZERO DUP1 ISZERO PUSH2 0x8E4 JUMPI RETURNDATASIZE PUSH1 0x0 DUP1 RETURNDATACOPY RETURNDATASIZE PUSH1 0x0 REVERT JUMPDEST POP POP POP POP PUSH1 0x40 MLOAD RETURNDATASIZE PUSH1 0x1F NOT PUSH1 0x1F DUP3 ADD AND DUP3 ADD DUP1 PUSH1 0x40 MSTORE POP DUP2 ADD SWAP1 PUSH2 0x908 SWAP2 SWAP1 PUSH2 0x1DB3 JUMP JUMPDEST POP DUP2 SWAP4 POP POP PUSH2 0xA58 JUMP JUMPDEST CALLVALUE DUP2 PUSH2 0x91E SWAP2 SWAP1 PUSH2 0x26D2 JUMP JUMPDEST SWAP1 POP PUSH1 0x0 DUP2 DUP4 CALLVALUE PUSH2 0x92F SWAP2 SWAP1 PUSH2 0x2678 JUMP JUMPDEST PUSH2 0x939 SWAP2 SWAP1 PUSH2 0x2647 JUMP JUMPDEST SWAP1 POP DUP1 DUP6 LT ISZERO PUSH2 0x97E JUMPI PUSH1 0x40 MLOAD PUSH32 0x8C379A000000000000000000000000000000000000000000000000000000000 DUP2 MSTORE PUSH1 0x4 ADD PUSH2 0x975 SWAP1 PUSH2 0x236B JUMP JUMPDEST PUSH1 0x40 MLOAD DUP1 SWAP2 SUB SWAP1 REVERT JUMPDEST PUSH1 0x0 PUSH1 0x5 PUSH1 0x0 SWAP1 SLOAD SWAP1 PUSH2 0x100 EXP SWAP1 DIV PUSH20 0xFFFFFFFFFFFFFFFFFFFFFFFFFFFFFFFFFFFFFFFF AND SWAP1 POP DUP1 PUSH20 0xFFFFFFFFFFFFFFFFFFFFFFFFFFFFFFFFFFFFFFFF AND PUSH4 0x23B872DD CALLER ADDRESS DUP10 PUSH1 0x40 MLOAD DUP5 PUSH4 0xFFFFFFFF AND PUSH1 0xE0 SHL DUP2 MSTORE PUSH1 0x4 ADD PUSH2 0x9E2 SWAP4 SWAP3 SWAP2 SWAP1 PUSH2 0x226E JUMP JUMPDEST PUSH1 0x20 PUSH1 0x40 MLOAD DUP1 DUP4 SUB DUP2 PUSH1 0x0 DUP8 DUP1 EXTCODESIZE ISZERO DUP1 ISZERO PUSH2 0x9FC JUMPI PUSH1 0x0 DUP1 REVERT JUMPDEST POP GAS CALL ISZERO DUP1 ISZERO PUSH2 0xA10 JUMPI RETURNDATASIZE PUSH1 0x0 DUP1 RETURNDATACOPY RETURNDATASIZE PUSH1 0x0 REVERT JUMPDEST POP POP POP POP PUSH1 0x40 MLOAD RETURNDATASIZE PUSH1 0x1F NOT PUSH1 0x1F DUP3 ADD AND DUP3 ADD DUP1 PUSH1 0x40 MSTORE POP DUP2 ADD SWAP1 PUSH2 0xA34 SWAP2 SWAP1 PUSH2 0x1DB3 JUMP JUMPDEST POP DUP3 CALLVALUE PUSH2 0xA3F PUSH2 0x758 JUMP JUMPDEST PUSH2 0xA49 SWAP2 SWAP1 PUSH2 0x2678 JUMP JUMPDEST PUSH2 0xA53 SWAP2 SWAP1 PUSH2 0x2647 JUMP JUMPDEST SWAP5 POP POP POP JUMPDEST PUSH2 0xA62 CALLER DUP5 PUSH2 0x17AC JUMP JUMPDEST DUP4 CALLVALUE CALLER PUSH20 0xFFFFFFFFFFFFFFFFFFFFFFFFFFFFFFFFFFFFFFFF AND PUSH32 0x6239653922AC7BEA6AA2B19DC486B9361821D37712EB796ADFD38D81DE278CA PUSH1 0x40 MLOAD PUSH1 0x40 MLOAD DUP1 SWAP2 SUB SWAP1 LOG4 POP POP SWAP2 SWAP1 POP JUMP JUMPDEST PUSH1 0x0 DUP1 PUSH2 0xAB9 PUSH2 0x617 JUMP JUMPDEST SWAP2 POP SWAP2 POP PUSH1 0x0 PUSH2 0xACA DUP6 DUP5 DUP5 PUSH2 0x13F9 JUMP JUMPDEST SWAP1 POP DUP4 DUP2 LT ISZERO PUSH2 0xB0F JUMPI PUSH1 0x40 MLOAD PUSH32 0x8C379A000000000000000000000000000000000000000000000000000000000 DUP2 MSTORE PUSH1 0x4 ADD PUSH2 0xB06 SWAP1 PUSH2 0x242B JUMP JUMPDEST PUSH1 0x40 MLOAD DUP1 SWAP2 SUB SWAP1 REVERT JUMPDEST PUSH1 0x5 PUSH1 0x0 SWAP1 SLOAD SWAP1 PUSH2 0x100 EXP SWAP1 DIV PUSH20 0xFFFFFFFFFFFFFFFFFFFFFFFFFFFFFFFFFFFFFFFF AND PUSH20 0xFFFFFFFFFFFFFFFFFFFFFFFFFFFFFFFFFFFFFFFF AND PUSH4 0x23B872DD CALLER ADDRESS DUP9 PUSH1 0x40 MLOAD DUP5 PUSH4 0xFFFFFFFF AND PUSH1 0xE0 SHL DUP2 MSTORE PUSH1 0x4 ADD PUSH2 0xB6E SWAP4 SWAP3 SWAP2 SWAP1 PUSH2 0x226E JUMP JUMPDEST PUSH1 0x20 PUSH1 0x40 MLOAD DUP1 DUP4 SUB DUP2 PUSH1 0x0 DUP8 DUP1 EXTCODESIZE ISZERO DUP1 ISZERO PUSH2 0xB88 JUMPI PUSH1 0x0 DUP1 REVERT JUMPDEST POP GAS CALL ISZERO DUP1 ISZERO PUSH2 0xB9C JUMPI RETURNDATASIZE PUSH1 0x0 DUP1 RETURNDATACOPY RETURNDATASIZE PUSH1 0x0 REVERT JUMPDEST POP POP POP POP PUSH1 0x40 MLOAD RETURNDATASIZE PUSH1 0x1F NOT PUSH1 0x1F DUP3 ADD AND DUP3 ADD DUP1 PUSH1 0x40 MSTORE POP DUP2 ADD SWAP1 PUSH2 0xBC0 SWAP2 SWAP1 PUSH2 0x1DB3 JUMP JUMPDEST POP PUSH1 0x0 CALLER PUSH20 0xFFFFFFFFFFFFFFFFFFFFFFFFFFFFFFFFFFFFFFFF AND DUP6 PUSH1 0x40 MLOAD PUSH2 0xBE7 SWAP1 PUSH2 0x223E JUMP JUMPDEST PUSH1 0x0 PUSH1 0x40 MLOAD DUP1 DUP4 SUB DUP2 DUP6 DUP8 GAS CALL SWAP3 POP POP POP RETURNDATASIZE DUP1 PUSH1 0x0 DUP2 EQ PUSH2 0xC24 JUMPI PUSH1 0x40 MLOAD SWAP2 POP PUSH1 0x1F NOT PUSH1 0x3F RETURNDATASIZE ADD AND DUP3 ADD PUSH1 0x40 MSTORE RETURNDATASIZE DUP3 MSTORE RETURNDATASIZE PUSH1 0x0 PUSH1 0x20 DUP5 ADD RETURNDATACOPY PUSH2 0xC29 JUMP JUMPDEST PUSH1 0x60 SWAP2 POP JUMPDEST POP POP SWAP1 POP DUP1 PUSH2 0xC6D JUMPI PUSH1 0x40 MLOAD PUSH32 0x8C379A000000000000000000000000000000000000000000000000000000000 DUP2 MSTORE PUSH1 0x4 ADD PUSH2 0xC64 SWAP1 PUSH2 0x23CB JUMP JUMPDEST PUSH1 0x40 MLOAD DUP1 SWAP2 SUB SWAP1 REVERT JUMPDEST DUP6 CALLER PUSH20 0xFFFFFFFFFFFFFFFFFFFFFFFFFFFFFFFFFFFFFFFF AND PUSH32 0xD70CAA09595C8288801CA58A02FD0960EF4982B210B2B9BF88BD5344C27CC4E8 DUP5 PUSH1 0x40 MLOAD PUSH2 0xCB4 SWAP2 SWAP1 PUSH2 0x256B JUMP JUMPDEST PUSH1 0x40 MLOAD DUP1 SWAP2 SUB SWAP1 LOG3 POP POP POP POP POP POP JUMP JUMPDEST PUSH2 0xCCE DUP3 DUP3 PUSH2 0x190C JUMP JUMPDEST POP POP JUMP JUMPDEST PUSH1 0x0 DUP1 PUSH1 0x0 DUP4 PUSH20 0xFFFFFFFFFFFFFFFFFFFFFFFFFFFFFFFFFFFFFFFF AND PUSH20 0xFFFFFFFFFFFFFFFFFFFFFFFFFFFFFFFFFFFFFFFF AND DUP2 MSTORE PUSH1 0x20 ADD SWAP1 DUP2 MSTORE PUSH1 0x20 ADD PUSH1 0x0 KECCAK256 SLOAD SWAP1 POP SWAP2 SWAP1 POP JUMP JUMPDEST PUSH1 0x60 PUSH1 0x4 DUP1 SLOAD PUSH2 0xD29 SWAP1 PUSH2 0x278E JUMP JUMPDEST DUP1 PUSH1 0x1F ADD PUSH1 0x20 DUP1 SWAP2 DIV MUL PUSH1 0x20 ADD PUSH1 0x40 MLOAD SWAP1 DUP2 ADD PUSH1 0x40 MSTORE DUP1 SWAP3 SWAP2 SWAP1 DUP2 DUP2 MSTORE PUSH1 0x20 ADD DUP3 DUP1 SLOAD PUSH2 0xD55 SWAP1 PUSH2 0x278E JUMP JUMPDEST DUP1 ISZERO PUSH2 0xDA2 JUMPI DUP1 PUSH1 0x1F LT PUSH2 0xD77 JUMPI PUSH2 0x100 DUP1 DUP4 SLOAD DIV MUL DUP4 MSTORE SWAP2 PUSH1 0x20 ADD SWAP2 PUSH2 0xDA2 JUMP JUMPDEST DUP3 ADD SWAP2 SWAP1 PUSH1 0x0 MSTORE PUSH1 0x20 PUSH1 0x0 KECCAK256 SWAP1 JUMPDEST DUP2 SLOAD DUP2 MSTORE SWAP1 PUSH1 0x1 ADD SWAP1 PUSH1 0x20 ADD DUP1 DUP4 GT PUSH2 0xD85 JUMPI DUP3 SWAP1 SUB PUSH1 0x1F AND DUP3 ADD SWAP2 JUMPDEST POP POP POP POP POP SWAP1 POP SWAP1 JUMP JUMPDEST PUSH1 0x6 PUSH1 0x0 SWAP1 SLOAD SWAP1 PUSH2 0x100 EXP SWAP1 DIV PUSH20 0xFFFFFFFFFFFFFFFFFFFFFFFFFFFFFFFFFFFFFFFF AND DUP2 JUMP JUMPDEST PUSH1 0x0 DUP1 PUSH1 0x0 DUP4 GT PUSH2 0xE18 JUMPI PUSH1 0x40 MLOAD PUSH32 0x8C379A000000000000000000000000000000000000000000000000000000000 DUP2 MSTORE PUSH1 0x4 ADD PUSH2 0xE0F SWAP1 PUSH2 0x244B JUMP JUMPDEST PUSH1 0x40 MLOAD DUP1 SWAP2 SUB SWAP1 REVERT JUMPDEST PUSH1 0x0 DUP1 PUSH2 0xE23 PUSH2 0x617 JUMP JUMPDEST SWAP2 POP SWAP2 POP PUSH2 0xE2F PUSH2 0x758 JUMP JUMPDEST DUP6 DUP3 PUSH2 0xE3B SWAP2 SWAP1 PUSH2 0x2678 JUMP JUMPDEST PUSH2 0xE45 SWAP2 SWAP1 PUSH2 0x2647 JUMP JUMPDEST SWAP4 POP PUSH2 0xE4F PUSH2 0x758 JUMP JUMPDEST DUP6 DUP4 PUSH2 0xE5B SWAP2 SWAP1 PUSH2 0x2678 JUMP JUMPDEST PUSH2 0xE65 SWAP2 SWAP1 PUSH2 0x2647 JUMP JUMPDEST SWAP3 POP PUSH2 0xE71 CALLER DUP7 PUSH2 0x1A7E JUMP JUMPDEST PUSH1 0x0 CALLER PUSH20 0xFFFFFFFFFFFFFFFFFFFFFFFFFFFFFFFFFFFFFFFF AND DUP6 PUSH1 0x40 MLOAD PUSH2 0xE97 SWAP1 PUSH2 0x223E JUMP JUMPDEST PUSH1 0x0 PUSH1 0x40 MLOAD DUP1 DUP4 SUB DUP2 DUP6 DUP8 GAS CALL SWAP3 POP POP POP RETURNDATASIZE DUP1 PUSH1 0x0 DUP2 EQ PUSH2 0xED4 JUMPI PUSH1 0x40 MLOAD SWAP2 POP PUSH1 0x1F NOT PUSH1 0x3F RETURNDATASIZE ADD AND DUP3 ADD PUSH1 0x40 MSTORE RETURNDATASIZE DUP3 MSTORE RETURNDATASIZE PUSH1 0x0 PUSH1 0x20 DUP5 ADD RETURNDATACOPY PUSH2 0xED9 JUMP JUMPDEST PUSH1 0x60 SWAP2 POP JUMPDEST POP POP SWAP1 POP DUP1 PUSH2 0xF1D JUMPI PUSH1 0x40 MLOAD PUSH32 0x8C379A000000000000000000000000000000000000000000000000000000000 DUP2 MSTORE PUSH1 0x4 ADD PUSH2 0xF14 SWAP1 PUSH2 0x24CB JUMP JUMPDEST PUSH1 0x40 MLOAD DUP1 SWAP2 SUB SWAP1 REVERT JUMPDEST PUSH1 0x5 PUSH1 0x0 SWAP1 SLOAD SWAP1 PUSH2 0x100 EXP SWAP1 DIV PUSH20 0xFFFFFFFFFFFFFFFFFFFFFFFFFFFFFFFFFFFFFFFF AND PUSH20 0xFFFFFFFFFFFFFFFFFFFFFFFFFFFFFFFFFFFFFFFF AND PUSH4 0xA9059CBB CALLER DUP7 PUSH1 0x40 MLOAD DUP4 PUSH4 0xFFFFFFFF AND PUSH1 0xE0 SHL DUP2 MSTORE PUSH1 0x4 ADD PUSH2 0xF7A SWAP3 SWAP2 SWAP1 PUSH2 0x22A5 JUMP JUMPDEST PUSH1 0x20 PUSH1 0x40 MLOAD DUP1 DUP4 SUB DUP2 PUSH1 0x0 DUP8 DUP1 EXTCODESIZE ISZERO DUP1 ISZERO PUSH2 0xF94 JUMPI PUSH1 0x0 DUP1 REVERT JUMPDEST POP GAS CALL ISZERO DUP1 ISZERO PUSH2 0xFA8 JUMPI RETURNDATASIZE PUSH1 0x0 DUP1 RETURNDATACOPY RETURNDATASIZE PUSH1 0x0 REVERT JUMPDEST POP POP POP POP PUSH1 0x40 MLOAD RETURNDATASIZE PUSH1 0x1F NOT PUSH1 0x1F DUP3 ADD AND DUP3 ADD DUP1 PUSH1 0x40 MSTORE POP DUP2 ADD SWAP1 PUSH2 0xFCC SWAP2 SWAP1 PUSH2 0x1DB3 JUMP JUMPDEST POP DUP4 DUP6 CALLER PUSH20 0xFFFFFFFFFFFFFFFFFFFFFFFFFFFFFFFFFFFFFFFF AND PUSH32 0xFBF06C058B90CB038A618F8C2ACBF6145F8B3570FD1FA56ABB8F0F3F05B36E8 PUSH1 0x40 MLOAD PUSH1 0x40 MLOAD DUP1 SWAP2 SUB SWAP1 LOG4 POP POP POP SWAP2 POP SWAP2 JUMP JUMPDEST PUSH1 0x5 PUSH1 0x0 SWAP1 SLOAD SWAP1 PUSH2 0x100 EXP SWAP1 DIV PUSH20 0xFFFFFFFFFFFFFFFFFFFFFFFFFFFFFFFFFFFFFFFF AND DUP2 JUMP JUMPDEST PUSH1 0x0 DUP1 PUSH2 0x104B PUSH2 0x1226 JUMP JUMPDEST SWAP1 POP PUSH1 0x0 PUSH2 0x1059 DUP3 DUP7 PUSH2 0x10E7 JUMP JUMPDEST SWAP1 POP DUP4 DUP2 LT ISZERO PUSH2 0x109E JUMPI PUSH1 0x40 MLOAD PUSH32 0x8C379A000000000000000000000000000000000000000000000000000000000 DUP2 MSTORE PUSH1 0x4 ADD PUSH2 0x1095 SWAP1 PUSH2 0x252B JUMP JUMPDEST PUSH1 0x40 MLOAD DUP1 SWAP2 SUB SWAP1 REVERT JUMPDEST PUSH2 0x10AB DUP3 DUP7 DUP7 DUP5 SUB PUSH2 0x122E JUMP JUMPDEST PUSH1 0x1 SWAP3 POP POP POP SWAP3 SWAP2 POP POP JUMP JUMPDEST PUSH1 0x0 DUP1 PUSH2 0x10C2 PUSH2 0x1226 JUMP JUMPDEST SWAP1 POP PUSH2 0x10CF DUP2 DUP6 DUP6 PUSH2 0x152B JUMP JUMPDEST PUSH1 0x1 SWAP2 POP POP SWAP3 SWAP2 POP POP JUMP JUMPDEST PUSH2 0x10E4 DUP2 CALLER PUSH2 0x190C JUMP JUMPDEST POP JUMP JUMPDEST PUSH1 0x0 PUSH1 0x1 PUSH1 0x0 DUP5 PUSH20 0xFFFFFFFFFFFFFFFFFFFFFFFFFFFFFFFFFFFFFFFF AND PUSH20 0xFFFFFFFFFFFFFFFFFFFFFFFFFFFFFFFFFFFFFFFF AND DUP2 MSTORE PUSH1 0x20 ADD SWAP1 DUP2 MSTORE PUSH1 0x20 ADD PUSH1 0x0 KECCAK256 PUSH1 0x0 DUP4 PUSH20 0xFFFFFFFFFFFFFFFFFFFFFFFFFFFFFFFFFFFFFFFF AND PUSH20 0xFFFFFFFFFFFFFFFFFFFFFFFFFFFFFFFFFFFFFFFF AND DUP2 MSTORE PUSH1 0x20 ADD SWAP1 DUP2 MSTORE PUSH1 0x20 ADD PUSH1 0x0 KECCAK256 SLOAD SWAP1 POP SWAP3 SWAP2 POP POP JUMP JUMPDEST PUSH1 0x0 PUSH20 0xFFFFFFFFFFFFFFFFFFFFFFFFFFFFFFFFFFFFFFFF AND DUP2 PUSH20 0xFFFFFFFFFFFFFFFFFFFFFFFFFFFFFFFFFFFFFFFF AND EQ ISZERO PUSH2 0x11DE JUMPI PUSH1 0x40 MLOAD PUSH32 0x8C379A000000000000000000000000000000000000000000000000000000000 DUP2 MSTORE PUSH1 0x4 ADD PUSH2 0x11D5 SWAP1 PUSH2 0x23EB JUMP JUMPDEST PUSH1 0x40 MLOAD DUP1 SWAP2 SUB SWAP1 REVERT JUMPDEST PUSH1 0x0 DUP4 GT PUSH2 0x1221 JUMPI PUSH1 0x40 MLOAD PUSH32 0x8C379A000000000000000000000000000000000000000000000000000000000 DUP2 MSTORE PUSH1 0x4 ADD PUSH2 0x1218 SWAP1 PUSH2 0x240B JUMP JUMPDEST PUSH1 0x40 MLOAD DUP1 SWAP2 SUB SWAP1 REVERT JUMPDEST POP POP POP JUMP JUMPDEST PUSH1 0x0 CALLER SWAP1 POP SWAP1 JUMP JUMPDEST PUSH1 0x0 PUSH20 0xFFFFFFFFFFFFFFFFFFFFFFFFFFFFFFFFFFFFFFFF AND DUP4 PUSH20 0xFFFFFFFFFFFFFFFFFFFFFFFFFFFFFFFFFFFFFFFF AND EQ ISZERO PUSH2 0x129E JUMPI PUSH1 0x40 MLOAD PUSH32 0x8C379A000000000000000000000000000000000000000000000000000000000 DUP2 MSTORE PUSH1 0x4 ADD PUSH2 0x1295 SWAP1 PUSH2 0x250B JUMP JUMPDEST PUSH1 0x40 MLOAD DUP1 SWAP2 SUB SWAP1 REVERT JUMPDEST PUSH1 0x0 PUSH20 0xFFFFFFFFFFFFFFFFFFFFFFFFFFFFFFFFFFFFFFFF AND DUP3 PUSH20 0xFFFFFFFFFFFFFFFFFFFFFFFFFFFFFFFFFFFFFFFF AND EQ ISZERO PUSH2 0x130E JUMPI PUSH1 0x40 MLOAD PUSH32 0x8C379A000000000000000000000000000000000000000000000000000000000 DUP2 MSTORE PUSH1 0x4 ADD PUSH2 0x1305 SWAP1 PUSH2 0x234B JUMP JUMPDEST PUSH1 0x40 MLOAD DUP1 SWAP2 SUB SWAP1 REVERT JUMPDEST DUP1 PUSH1 0x1 PUSH1 0x0 DUP6 PUSH20 0xFFFFFFFFFFFFFFFFFFFFFFFFFFFFFFFFFFFFFFFF AND PUSH20 0xFFFFFFFFFFFFFFFFFFFFFFFFFFFFFFFFFFFFFFFF AND DUP2 MSTORE PUSH1 0x20 ADD SWAP1 DUP2 MSTORE PUSH1 0x20 ADD PUSH1 0x0 KECCAK256 PUSH1 0x0 DUP5 PUSH20 0xFFFFFFFFFFFFFFFFFFFFFFFFFFFFFFFFFFFFFFFF AND PUSH20 0xFFFFFFFFFFFFFFFFFFFFFFFFFFFFFFFFFFFFFFFF AND DUP2 MSTORE PUSH1 0x20 ADD SWAP1 DUP2 MSTORE PUSH1 0x20 ADD PUSH1 0x0 KECCAK256 DUP2 SWAP1 SSTORE POP DUP2 PUSH20 0xFFFFFFFFFFFFFFFFFFFFFFFFFFFFFFFFFFFFFFFF AND DUP4 PUSH20 0xFFFFFFFFFFFFFFFFFFFFFFFFFFFFFFFFFFFFFFFF AND PUSH32 0x8C5BE1E5EBEC7D5BD14F71427D1E84F3DD0314C0F7B2291E5B200AC8C7C3B925 DUP4 PUSH1 0x40 MLOAD PUSH2 0x13EC SWAP2 SWAP1 PUSH2 0x256B JUMP JUMPDEST PUSH1 0x40 MLOAD DUP1 SWAP2 SUB SWAP1 LOG3 POP POP POP JUMP JUMPDEST PUSH1 0x0 DUP1 DUP4 GT DUP1 ISZERO PUSH2 0x140A JUMPI POP PUSH1 0x0 DUP3 GT JUMPDEST PUSH2 0x1449 JUMPI PUSH1 0x40 MLOAD PUSH32 0x8C379A000000000000000000000000000000000000000000000000000000000 DUP2 MSTORE PUSH1 0x4 ADD PUSH2 0x1440 SWAP1 PUSH2 0x24EB JUMP JUMPDEST PUSH1 0x40 MLOAD DUP1 SWAP2 SUB SWAP1 REVERT JUMPDEST PUSH1 0x0 DUP1 PUSH2 0x3E8 PUSH2 0x1459 SWAP2 SWAP1 PUSH2 0x26D2 JUMP JUMPDEST DUP6 PUSH2 0x1464 SWAP2 SWAP1 PUSH2 0x2678 JUMP JUMPDEST SWAP1 POP DUP1 DUP5 PUSH2 0x3E8 PUSH2 0x1475 SWAP2 SWAP1 PUSH2 0x2678 JUMP JUMPDEST PUSH2 0x147F SWAP2 SWAP1 PUSH2 0x25F1 JUMP JUMPDEST DUP4 DUP3 PUSH2 0x148B SWAP2 SWAP1 PUSH2 0x2678 JUMP JUMPDEST PUSH2 0x1495 SWAP2 SWAP1 PUSH2 0x2647 JUMP JUMPDEST SWAP2 POP POP SWAP4 SWAP3 POP POP POP JUMP JUMPDEST PUSH1 0x0 PUSH2 0x14AB DUP5 DUP5 PUSH2 0x10E7 JUMP JUMPDEST SWAP1 POP PUSH32 0xFFFFFFFFFFFFFFFFFFFFFFFFFFFFFFFFFFFFFFFFFFFFFFFFFFFFFFFFFFFFFFFF DUP2 EQ PUSH2 0x1525 JUMPI DUP2 DUP2 LT ISZERO PUSH2 0x1517 JUMPI PUSH1 0x40 MLOAD PUSH32 0x8C379A000000000000000000000000000000000000000000000000000000000 DUP2 MSTORE PUSH1 0x4 ADD PUSH2 0x150E SWAP1 PUSH2 0x238B JUMP JUMPDEST PUSH1 0x40 MLOAD DUP1 SWAP2 SUB SWAP1 REVERT JUMPDEST PUSH2 0x1524 DUP5 DUP5 DUP5 DUP5 SUB PUSH2 0x122E JUMP JUMPDEST JUMPDEST POP POP POP POP JUMP JUMPDEST PUSH1 0x0 PUSH20 0xFFFFFFFFFFFFFFFFFFFFFFFFFFFFFFFFFFFFFFFF AND DUP4 PUSH20 0xFFFFFFFFFFFFFFFFFFFFFFFFFFFFFFFFFFFFFFFF AND EQ ISZERO PUSH2 0x159B JUMPI PUSH1 0x40 MLOAD PUSH32 0x8C379A000000000000000000000000000000000000000000000000000000000 DUP2 MSTORE PUSH1 0x4 ADD PUSH2 0x1592 SWAP1 PUSH2 0x24AB JUMP JUMPDEST PUSH1 0x40 MLOAD DUP1 SWAP2 SUB SWAP1 REVERT JUMPDEST PUSH1 0x0 PUSH20 0xFFFFFFFFFFFFFFFFFFFFFFFFFFFFFFFFFFFFFFFF AND DUP3 PUSH20 0xFFFFFFFFFFFFFFFFFFFFFFFFFFFFFFFFFFFFFFFF AND EQ ISZERO PUSH2 0x160B JUMPI PUSH1 0x40 MLOAD PUSH32 0x8C379A000000000000000000000000000000000000000000000000000000000 DUP2 MSTORE PUSH1 0x4 ADD PUSH2 0x1602 SWAP1 PUSH2 0x230B JUMP JUMPDEST PUSH1 0x40 MLOAD DUP1 SWAP2 SUB SWAP1 REVERT JUMPDEST PUSH2 0x1616 DUP4 DUP4 DUP4 PUSH2 0x1C55 JUMP JUMPDEST PUSH1 0x0 DUP1 PUSH1 0x0 DUP6 PUSH20 0xFFFFFFFFFFFFFFFFFFFFFFFFFFFFFFFFFFFFFFFF AND PUSH20 0xFFFFFFFFFFFFFFFFFFFFFFFFFFFFFFFFFFFFFFFF AND DUP2 MSTORE PUSH1 0x20 ADD SWAP1 DUP2 MSTORE PUSH1 0x20 ADD PUSH1 0x0 KECCAK256 SLOAD SWAP1 POP DUP2 DUP2 LT ISZERO PUSH2 0x169C JUMPI PUSH1 0x40 MLOAD PUSH32 0x8C379A000000000000000000000000000000000000000000000000000000000 DUP2 MSTORE PUSH1 0x4 ADD PUSH2 0x1693 SWAP1 PUSH2 0x23AB JUMP JUMPDEST PUSH1 0x40 MLOAD DUP1 SWAP2 SUB SWAP1 REVERT JUMPDEST DUP2 DUP2 SUB PUSH1 0x0 DUP1 DUP7 PUSH20 0xFFFFFFFFFFFFFFFFFFFFFFFFFFFFFFFFFFFFFFFF AND PUSH20 0xFFFFFFFFFFFFFFFFFFFFFFFFFFFFFFFFFFFFFFFF AND DUP2 MSTORE PUSH1 0x20 ADD SWAP1 DUP2 MSTORE PUSH1 0x20 ADD PUSH1 0x0 KECCAK256 DUP2 SWAP1 SSTORE POP DUP2 PUSH1 0x0 DUP1 DUP6 PUSH20 0xFFFFFFFFFFFFFFFFFFFFFFFFFFFFFFFFFFFFFFFF AND PUSH20 0xFFFFFFFFFFFFFFFFFFFFFFFFFFFFFFFFFFFFFFFF AND DUP2 MSTORE PUSH1 0x20 ADD SWAP1 DUP2 MSTORE PUSH1 0x20 ADD PUSH1 0x0 KECCAK256 PUSH1 0x0 DUP3 DUP3 SLOAD PUSH2 0x172F SWAP2 SWAP1 PUSH2 0x25F1 JUMP JUMPDEST SWAP3 POP POP DUP2 SWAP1 SSTORE POP DUP3 PUSH20 0xFFFFFFFFFFFFFFFFFFFFFFFFFFFFFFFFFFFFFFFF AND DUP5 PUSH20 0xFFFFFFFFFFFFFFFFFFFFFFFFFFFFFFFFFFFFFFFF AND PUSH32 0xDDF252AD1BE2C89B69C2B068FC378DAA952BA7F163C4A11628F55A4DF523B3EF DUP5 PUSH1 0x40 MLOAD PUSH2 0x1793 SWAP2 SWAP1 PUSH2 0x256B JUMP JUMPDEST PUSH1 0x40 MLOAD DUP1 SWAP2 SUB SWAP1 LOG3 PUSH2 0x17A6 DUP5 DUP5 DUP5 PUSH2 0x1C5A JUMP JUMPDEST POP POP POP POP JUMP JUMPDEST PUSH1 0x0 PUSH20 0xFFFFFFFFFFFFFFFFFFFFFFFFFFFFFFFFFFFFFFFF AND DUP3 PUSH20 0xFFFFFFFFFFFFFFFFFFFFFFFFFFFFFFFFFFFFFFFF AND EQ ISZERO PUSH2 0x181C JUMPI PUSH1 0x40 MLOAD PUSH32 0x8C379A000000000000000000000000000000000000000000000000000000000 DUP2 MSTORE PUSH1 0x4 ADD PUSH2 0x1813 SWAP1 PUSH2 0x254B JUMP JUMPDEST PUSH1 0x40 MLOAD DUP1 SWAP2 SUB SWAP1 REVERT JUMPDEST PUSH2 0x1828 PUSH1 0x0 DUP4 DUP4 PUSH2 0x1C55 JUMP JUMPDEST DUP1 PUSH1 0x2 PUSH1 0x0 DUP3 DUP3 SLOAD PUSH2 0x183A SWAP2 SWAP1 PUSH2 0x25F1 JUMP JUMPDEST SWAP3 POP POP DUP2 SWAP1 SSTORE POP DUP1 PUSH1 0x0 DUP1 DUP5 PUSH20 0xFFFFFFFFFFFFFFFFFFFFFFFFFFFFFFFFFFFFFFFF AND PUSH20 0xFFFFFFFFFFFFFFFFFFFFFFFFFFFFFFFFFFFFFFFF AND DUP2 MSTORE PUSH1 0x20 ADD SWAP1 DUP2 MSTORE PUSH1 0x20 ADD PUSH1 0x0 KECCAK256 PUSH1 0x0 DUP3 DUP3 SLOAD PUSH2 0x188F SWAP2 SWAP1 PUSH2 0x25F1 JUMP JUMPDEST SWAP3 POP POP DUP2 SWAP1 SSTORE POP DUP2 PUSH20 0xFFFFFFFFFFFFFFFFFFFFFFFFFFFFFFFFFFFFFFFF AND PUSH1 0x0 PUSH20 0xFFFFFFFFFFFFFFFFFFFFFFFFFFFFFFFFFFFFFFFF AND PUSH32 0xDDF252AD1BE2C89B69C2B068FC378DAA952BA7F163C4A11628F55A4DF523B3EF DUP4 PUSH1 0x40 MLOAD PUSH2 0x18F4 SWAP2 SWAP1 PUSH2 0x256B JUMP JUMPDEST PUSH1 0x40 MLOAD DUP1 SWAP2 SUB SWAP1 LOG3 PUSH2 0x1908 PUSH1 0x0 DUP4 DUP4 PUSH2 0x1C5A JUMP JUMPDEST POP POP JUMP JUMPDEST PUSH1 0x0 DUP1 PUSH2 0x1917 PUSH2 0x617 JUMP JUMPDEST SWAP2 POP SWAP2 POP PUSH1 0x0 PUSH2 0x1933 CALLVALUE CALLVALUE DUP5 PUSH2 0x192D SWAP2 SWAP1 PUSH2 0x26D2 JUMP JUMPDEST DUP6 PUSH2 0x13F9 JUMP JUMPDEST SWAP1 POP DUP5 DUP2 LT ISZERO PUSH2 0x1978 JUMPI PUSH1 0x40 MLOAD PUSH32 0x8C379A000000000000000000000000000000000000000000000000000000000 DUP2 MSTORE PUSH1 0x4 ADD PUSH2 0x196F SWAP1 PUSH2 0x242B JUMP JUMPDEST PUSH1 0x40 MLOAD DUP1 SWAP2 SUB SWAP1 REVERT JUMPDEST PUSH1 0x5 PUSH1 0x0 SWAP1 SLOAD SWAP1 PUSH2 0x100 EXP SWAP1 DIV PUSH20 0xFFFFFFFFFFFFFFFFFFFFFFFFFFFFFFFFFFFFFFFF AND PUSH20 0xFFFFFFFFFFFFFFFFFFFFFFFFFFFFFFFFFFFFFFFF AND PUSH4 0xA9059CBB DUP6 DUP4 PUSH1 0x40 MLOAD DUP4 PUSH4 0xFFFFFFFF AND PUSH1 0xE0 SHL DUP2 MSTORE PUSH1 0x4 ADD PUSH2 0x19D5 SWAP3 SWAP2 SWAP1 PUSH2 0x22A5 JUMP JUMPDEST PUSH1 0x20 PUSH1 0x40 MLOAD DUP1 DUP4 SUB DUP2 PUSH1 0x0 DUP8 DUP1 EXTCODESIZE ISZERO DUP1 ISZERO PUSH2 0x19EF JUMPI PUSH1 0x0 DUP1 REVERT JUMPDEST POP GAS CALL ISZERO DUP1 ISZERO PUSH2 0x1A03 JUMPI RETURNDATASIZE PUSH1 0x0 DUP1 RETURNDATACOPY RETURNDATASIZE PUSH1 0x0 REVERT JUMPDEST POP POP POP POP PUSH1 0x40 MLOAD RETURNDATASIZE PUSH1 0x1F NOT PUSH1 0x1F DUP3 ADD AND DUP3 ADD DUP1 PUSH1 0x40 MSTORE POP DUP2 ADD SWAP1 PUSH2 0x1A27 SWAP2 SWAP1 PUSH2 0x1DB3 JUMP JUMPDEST POP CALLVALUE DUP5 PUSH20 0xFFFFFFFFFFFFFFFFFFFFFFFFFFFFFFFFFFFFFFFF AND PUSH32 0x2AD51A6B79C1A35468E5CC340EF09004400E337E1D1149AAB02294FDB7F8F055 DUP4 PUSH1 0x40 MLOAD PUSH2 0x1A6F SWAP2 SWAP1 PUSH2 0x256B JUMP JUMPDEST PUSH1 0x40 MLOAD DUP1 SWAP2 SUB SWAP1 LOG3 POP POP POP POP POP JUMP JUMPDEST PUSH1 0x0 PUSH20 0xFFFFFFFFFFFFFFFFFFFFFFFFFFFFFFFFFFFFFFFF AND DUP3 PUSH20 0xFFFFFFFFFFFFFFFFFFFFFFFFFFFFFFFFFFFFFFFF AND EQ ISZERO PUSH2 0x1AEE JUMPI PUSH1 0x40 MLOAD PUSH32 0x8C379A000000000000000000000000000000000000000000000000000000000 DUP2 MSTORE PUSH1 0x4 ADD PUSH2 0x1AE5 SWAP1 PUSH2 0x246B JUMP JUMPDEST PUSH1 0x40 MLOAD DUP1 SWAP2 SUB SWAP1 REVERT JUMPDEST PUSH2 0x1AFA DUP3 PUSH1 0x0 DUP4 PUSH2 0x1C55 JUMP JUMPDEST PUSH1 0x0 DUP1 PUSH1 0x0 DUP5 PUSH20 0xFFFFFFFFFFFFFFFFFFFFFFFFFFFFFFFFFFFFFFFF AND PUSH20 0xFFFFFFFFFFFFFFFFFFFFFFFFFFFFFFFFFFFFFFFF AND DUP2 MSTORE PUSH1 0x20 ADD SWAP1 DUP2 MSTORE PUSH1 0x20 ADD PUSH1 0x0 KECCAK256 SLOAD SWAP1 POP DUP2 DUP2 LT ISZERO PUSH2 0x1B80 JUMPI PUSH1 0x40 MLOAD PUSH32 0x8C379A000000000000000000000000000000000000000000000000000000000 DUP2 MSTORE PUSH1 0x4 ADD PUSH2 0x1B77 SWAP1 PUSH2 0x232B JUMP JUMPDEST PUSH1 0x40 MLOAD DUP1 SWAP2 SUB SWAP1 REVERT JUMPDEST DUP2 DUP2 SUB PUSH1 0x0 DUP1 DUP6 PUSH20 0xFFFFFFFFFFFFFFFFFFFFFFFFFFFFFFFFFFFFFFFF AND PUSH20 0xFFFFFFFFFFFFFFFFFFFFFFFFFFFFFFFFFFFFFFFF AND DUP2 MSTORE PUSH1 0x20 ADD SWAP1 DUP2 MSTORE PUSH1 0x20 ADD PUSH1 0x0 KECCAK256 DUP2 SWAP1 SSTORE POP DUP2 PUSH1 0x2 PUSH1 0x0 DUP3 DUP3 SLOAD PUSH2 0x1BD7 SWAP2 SWAP1 PUSH2 0x26D2 JUMP JUMPDEST SWAP3 POP POP DUP2 SWAP1 SSTORE POP PUSH1 0x0 PUSH20 0xFFFFFFFFFFFFFFFFFFFFFFFFFFFFFFFFFFFFFFFF AND DUP4 PUSH20 0xFFFFFFFFFFFFFFFFFFFFFFFFFFFFFFFFFFFFFFFF AND PUSH32 0xDDF252AD1BE2C89B69C2B068FC378DAA952BA7F163C4A11628F55A4DF523B3EF DUP5 PUSH1 0x40 MLOAD PUSH2 0x1C3C SWAP2 SWAP1 PUSH2 0x256B JUMP JUMPDEST PUSH1 0x40 MLOAD DUP1 SWAP2 SUB SWAP1 LOG3 PUSH2 0x1C50 DUP4 PUSH1 0x0 DUP5 PUSH2 0x1C5A JUMP JUMPDEST POP POP POP JUMP JUMPDEST POP POP POP JUMP JUMPDEST POP POP POP JUMP JUMPDEST PUSH1 0x0 DUP2 CALLDATALOAD SWAP1 POP PUSH2 0x1C6E DUP2 PUSH2 0x2D85 JUMP JUMPDEST SWAP3 SWAP2 POP POP JUMP JUMPDEST PUSH1 0x0 DUP2 MLOAD SWAP1 POP PUSH2 0x1C83 DUP2 PUSH2 0x2D9C JUMP JUMPDEST SWAP3 SWAP2 POP POP JUMP JUMPDEST PUSH1 0x0 DUP2 CALLDATALOAD SWAP1 POP PUSH2 0x1C98 DUP2 PUSH2 0x2DB3 JUMP JUMPDEST SWAP3 SWAP2 POP POP JUMP JUMPDEST PUSH1 0x0 DUP2 MLOAD SWAP1 POP PUSH2 0x1CAD DUP2 PUSH2 0x2DB3 JUMP JUMPDEST SWAP3 SWAP2 POP POP JUMP JUMPDEST PUSH1 0x0 PUSH1 0x20 DUP3 DUP5 SUB SLT ISZERO PUSH2 0x1CC9 JUMPI PUSH2 0x1CC8 PUSH2 0x284D JUMP JUMPDEST JUMPDEST PUSH1 0x0 PUSH2 0x1CD7 DUP5 DUP3 DUP6 ADD PUSH2 0x1C5F JUMP JUMPDEST SWAP2 POP POP SWAP3 SWAP2 POP POP JUMP JUMPDEST PUSH1 0x0 DUP1 PUSH1 0x40 DUP4 DUP6 SUB SLT ISZERO PUSH2 0x1CF7 JUMPI PUSH2 0x1CF6 PUSH2 0x284D JUMP JUMPDEST JUMPDEST PUSH1 0x0 PUSH2 0x1D05 DUP6 DUP3 DUP7 ADD PUSH2 0x1C5F JUMP JUMPDEST SWAP3 POP POP PUSH1 0x20 PUSH2 0x1D16 DUP6 DUP3 DUP7 ADD PUSH2 0x1C5F JUMP JUMPDEST SWAP2 POP POP SWAP3 POP SWAP3 SWAP1 POP JUMP JUMPDEST PUSH1 0x0 DUP1 PUSH1 0x0 PUSH1 0x60 DUP5 DUP7 SUB SLT ISZERO PUSH2 0x1D39 JUMPI PUSH2 0x1D38 PUSH2 0x284D JUMP JUMPDEST JUMPDEST PUSH1 0x0 PUSH2 0x1D47 DUP7 DUP3 DUP8 ADD PUSH2 0x1C5F JUMP JUMPDEST SWAP4 POP POP PUSH1 0x20 PUSH2 0x1D58 DUP7 DUP3 DUP8 ADD PUSH2 0x1C5F JUMP JUMPDEST SWAP3 POP POP PUSH1 0x40 PUSH2 0x1D69 DUP7 DUP3 DUP8 ADD PUSH2 0x1C89 JUMP JUMPDEST SWAP2 POP POP SWAP3 POP SWAP3 POP SWAP3 JUMP JUMPDEST PUSH1 0x0 DUP1 PUSH1 0x40 DUP4 DUP6 SUB SLT ISZERO PUSH2 0x1D8A JUMPI PUSH2 0x1D89 PUSH2 0x284D JUMP JUMPDEST JUMPDEST PUSH1 0x0 PUSH2 0x1D98 DUP6 DUP3 DUP7 ADD PUSH2 0x1C5F JUMP JUMPDEST SWAP3 POP POP PUSH1 0x20 PUSH2 0x1DA9 DUP6 DUP3 DUP7 ADD PUSH2 0x1C89 JUMP JUMPDEST SWAP2 POP POP SWAP3 POP SWAP3 SWAP1 POP JUMP JUMPDEST PUSH1 0x0 PUSH1 0x20 DUP3 DUP5 SUB SLT ISZERO PUSH2 0x1DC9 JUMPI PUSH2 0x1DC8 PUSH2 0x284D JUMP JUMPDEST JUMPDEST PUSH1 0x0 PUSH2 0x1DD7 DUP5 DUP3 DUP6 ADD PUSH2 0x1C74 JUMP JUMPDEST SWAP2 POP POP SWAP3 SWAP2 POP POP JUMP JUMPDEST PUSH1 0x0 PUSH1 0x20 DUP3 DUP5 SUB SLT ISZERO PUSH2 0x1DF6 JUMPI PUSH2 0x1DF5 PUSH2 0x284D JUMP JUMPDEST JUMPDEST PUSH1 0x0 PUSH2 0x1E04 DUP5 DUP3 DUP6 ADD PUSH2 0x1C89 JUMP JUMPDEST SWAP2 POP POP SWAP3 SWAP2 POP POP JUMP JUMPDEST PUSH1 0x0 PUSH1 0x20 DUP3 DUP5 SUB SLT ISZERO PUSH2 0x1E23 JUMPI PUSH2 0x1E22 PUSH2 0x284D JUMP JUMPDEST JUMPDEST PUSH1 0x0 PUSH2 0x1E31 DUP5 DUP3 DUP6 ADD PUSH2 0x1C9E JUMP JUMPDEST SWAP2 POP POP SWAP3 SWAP2 POP POP JUMP JUMPDEST PUSH1 0x0 DUP1 PUSH1 0x40 DUP4 DUP6 SUB SLT ISZERO PUSH2 0x1E51 JUMPI PUSH2 0x1E50 PUSH2 0x284D JUMP JUMPDEST JUMPDEST PUSH1 0x0 PUSH2 0x1E5F DUP6 DUP3 DUP7 ADD PUSH2 0x1C89 JUMP JUMPDEST SWAP3 POP POP PUSH1 0x20 PUSH2 0x1E70 DUP6 DUP3 DUP7 ADD PUSH2 0x1C5F JUMP JUMPDEST SWAP2 POP POP SWAP3 POP SWAP3 SWAP1 POP JUMP JUMPDEST PUSH1 0x0 DUP1 PUSH1 0x40 DUP4 DUP6 SUB SLT ISZERO PUSH2 0x1E91 JUMPI PUSH2 0x1E90 PUSH2 0x284D JUMP JUMPDEST JUMPDEST PUSH1 0x0 PUSH2 0x1E9F DUP6 DUP3 DUP7 ADD PUSH2 0x1C89 JUMP JUMPDEST SWAP3 POP POP PUSH1 0x20 PUSH2 0x1EB0 DUP6 DUP3 DUP7 ADD PUSH2 0x1C89 JUMP JUMPDEST SWAP2 POP POP SWAP3 POP SWAP3 SWAP1 POP JUMP JUMPDEST PUSH1 0x0 DUP1 PUSH1 0x0 PUSH1 0x60 DUP5 DUP7 SUB SLT ISZERO PUSH2 0x1ED3 JUMPI PUSH2 0x1ED2 PUSH2 0x284D JUMP JUMPDEST JUMPDEST PUSH1 0x0 PUSH2 0x1EE1 DUP7 DUP3 DUP8 ADD PUSH2 0x1C89 JUMP JUMPDEST SWAP4 POP POP PUSH1 0x20 PUSH2 0x1EF2 DUP7 DUP3 DUP8 ADD PUSH2 0x1C89 JUMP JUMPDEST SWAP3 POP POP PUSH1 0x40 PUSH2 0x1F03 DUP7 DUP3 DUP8 ADD PUSH2 0x1C5F JUMP JUMPDEST SWAP2 POP POP SWAP3 POP SWAP3 POP SWAP3 JUMP JUMPDEST PUSH2 0x1F16 DUP2 PUSH2 0x2706 JUMP JUMPDEST DUP3 MSTORE POP POP JUMP JUMPDEST PUSH2 0x1F25 DUP2 PUSH2 0x2718 JUMP JUMPDEST DUP3 MSTORE POP POP JUMP JUMPDEST PUSH1 0x0 PUSH2 0x1F36 DUP3 PUSH2 0x25CA JUMP JUMPDEST PUSH2 0x1F40 DUP2 DUP6 PUSH2 0x25E0 JUMP JUMPDEST SWAP4 POP PUSH2 0x1F50 DUP2 DUP6 PUSH1 0x20 DUP7 ADD PUSH2 0x275B JUMP JUMPDEST PUSH2 0x1F59 DUP2 PUSH2 0x2852 JUMP JUMPDEST DUP5 ADD SWAP2 POP POP SWAP3 SWAP2 POP POP JUMP JUMPDEST PUSH1 0x0 PUSH2 0x1F71 PUSH1 0x23 DUP4 PUSH2 0x25E0 JUMP JUMPDEST SWAP2 POP PUSH2 0x1F7C DUP3 PUSH2 0x2863 JUMP JUMPDEST PUSH1 0x40 DUP3 ADD SWAP1 POP SWAP2 SWAP1 POP JUMP JUMPDEST PUSH1 0x0 PUSH2 0x1F94 PUSH1 0x22 DUP4 PUSH2 0x25E0 JUMP JUMPDEST SWAP2 POP PUSH2 0x1F9F DUP3 PUSH2 0x28B2 JUMP JUMPDEST PUSH1 0x40 DUP3 ADD SWAP1 POP SWAP2 SWAP1 POP JUMP JUMPDEST PUSH1 0x0 PUSH2 0x1FB7 PUSH1 0x22 DUP4 PUSH2 0x25E0 JUMP JUMPDEST SWAP2 POP PUSH2 0x1FC2 DUP3 PUSH2 0x2901 JUMP JUMPDEST PUSH1 0x40 DUP3 ADD SWAP1 POP SWAP2 SWAP1 POP JUMP JUMPDEST PUSH1 0x0 PUSH2 0x1FDA PUSH1 0x29 DUP4 PUSH2 0x25E0 JUMP JUMPDEST SWAP2 POP PUSH2 0x1FE5 DUP3 PUSH2 0x2950 JUMP JUMPDEST PUSH1 0x40 DUP3 ADD SWAP1 POP SWAP2 SWAP1 POP JUMP JUMPDEST PUSH1 0x0 PUSH2 0x1FFD PUSH1 0x1D DUP4 PUSH2 0x25E0 JUMP JUMPDEST SWAP2 POP PUSH2 0x2008 DUP3 PUSH2 0x299F JUMP JUMPDEST PUSH1 0x20 DUP3 ADD SWAP1 POP SWAP2 SWAP1 POP JUMP JUMPDEST PUSH1 0x0 PUSH2 0x2020 PUSH1 0x26 DUP4 PUSH2 0x25E0 JUMP JUMPDEST SWAP2 POP PUSH2 0x202B DUP3 PUSH2 0x29C8 JUMP JUMPDEST PUSH1 0x40 DUP3 ADD SWAP1 POP SWAP2 SWAP1 POP JUMP JUMPDEST PUSH1 0x0 PUSH2 0x2043 PUSH1 0x26 DUP4 PUSH2 0x25E0 JUMP JUMPDEST SWAP2 POP PUSH2 0x204E DUP3 PUSH2 0x2A17 JUMP JUMPDEST PUSH1 0x40 DUP3 ADD SWAP1 POP SWAP2 SWAP1 POP JUMP JUMPDEST PUSH1 0x0 PUSH2 0x2066 PUSH1 0x18 DUP4 PUSH2 0x25E0 JUMP JUMPDEST SWAP2 POP PUSH2 0x2071 DUP3 PUSH2 0x2A66 JUMP JUMPDEST PUSH1 0x20 DUP3 ADD SWAP1 POP SWAP2 SWAP1 POP JUMP JUMPDEST PUSH1 0x0 PUSH2 0x2089 PUSH1 0x1A DUP4 PUSH2 0x25E0 JUMP JUMPDEST SWAP2 POP PUSH2 0x2094 DUP3 PUSH2 0x2A8F JUMP JUMPDEST PUSH1 0x20 DUP3 ADD SWAP1 POP SWAP2 SWAP1 POP JUMP JUMPDEST PUSH1 0x0 PUSH2 0x20AC PUSH1 0x43 DUP4 PUSH2 0x25E0 JUMP JUMPDEST SWAP2 POP PUSH2 0x20B7 DUP3 PUSH2 0x2AB8 JUMP JUMPDEST PUSH1 0x60 DUP3 ADD SWAP1 POP SWAP2 SWAP1 POP JUMP JUMPDEST PUSH1 0x0 PUSH2 0x20CF PUSH1 0x37 DUP4 PUSH2 0x25E0 JUMP JUMPDEST SWAP2 POP PUSH2 0x20DA DUP3 PUSH2 0x2B2D JUMP JUMPDEST PUSH1 0x40 DUP3 ADD SWAP1 POP SWAP2 SWAP1 POP JUMP JUMPDEST PUSH1 0x0 PUSH2 0x20F2 PUSH1 0x21 DUP4 PUSH2 0x25E0 JUMP JUMPDEST SWAP2 POP PUSH2 0x20FD DUP3 PUSH2 0x2B7C JUMP JUMPDEST PUSH1 0x40 DUP3 ADD SWAP1 POP SWAP2 SWAP1 POP JUMP JUMPDEST PUSH1 0x0 PUSH2 0x2115 PUSH1 0x19 DUP4 PUSH2 0x25E0 JUMP JUMPDEST SWAP2 POP PUSH2 0x2120 DUP3 PUSH2 0x2BCB JUMP JUMPDEST PUSH1 0x20 DUP3 ADD SWAP1 POP SWAP2 SWAP1 POP JUMP JUMPDEST PUSH1 0x0 PUSH2 0x2138 PUSH1 0x25 DUP4 PUSH2 0x25E0 JUMP JUMPDEST SWAP2 POP PUSH2 0x2143 DUP3 PUSH2 0x2BF4 JUMP JUMPDEST PUSH1 0x40 DUP3 ADD SWAP1 POP SWAP2 SWAP1 POP JUMP JUMPDEST PUSH1 0x0 PUSH2 0x215B PUSH1 0x25 DUP4 PUSH2 0x25E0 JUMP JUMPDEST SWAP2 POP PUSH2 0x2166 DUP3 PUSH2 0x2C43 JUMP JUMPDEST PUSH1 0x40 DUP3 ADD SWAP1 POP SWAP2 SWAP1 POP JUMP JUMPDEST PUSH1 0x0 PUSH2 0x217E PUSH1 0x0 DUP4 PUSH2 0x25D5 JUMP JUMPDEST SWAP2 POP PUSH2 0x2189 DUP3 PUSH2 0x2C92 JUMP JUMPDEST PUSH1 0x0 DUP3 ADD SWAP1 POP SWAP2 SWAP1 POP JUMP JUMPDEST PUSH1 0x0 PUSH2 0x21A1 PUSH1 0x15 DUP4 PUSH2 0x25E0 JUMP JUMPDEST SWAP2 POP PUSH2 0x21AC DUP3 PUSH2 0x2C95 JUMP JUMPDEST PUSH1 0x20 DUP3 ADD SWAP1 POP SWAP2 SWAP1 POP JUMP JUMPDEST PUSH1 0x0 PUSH2 0x21C4 PUSH1 0x24 DUP4 PUSH2 0x25E0 JUMP JUMPDEST SWAP2 POP PUSH2 0x21CF DUP3 PUSH2 0x2CBE JUMP JUMPDEST PUSH1 0x40 DUP3 ADD SWAP1 POP SWAP2 SWAP1 POP JUMP JUMPDEST PUSH1 0x0 PUSH2 0x21E7 PUSH1 0x25 DUP4 PUSH2 0x25E0 JUMP JUMPDEST SWAP2 POP PUSH2 0x21F2 DUP3 PUSH2 0x2D0D JUMP JUMPDEST PUSH1 0x40 DUP3 ADD SWAP1 POP SWAP2 SWAP1 POP JUMP JUMPDEST PUSH1 0x0 PUSH2 0x220A PUSH1 0x1F DUP4 PUSH2 0x25E0 JUMP JUMPDEST SWAP2 POP PUSH2 0x2215 DUP3 PUSH2 0x2D5C JUMP JUMPDEST PUSH1 0x20 DUP3 ADD SWAP1 POP SWAP2 SWAP1 POP JUMP JUMPDEST PUSH2 0x2229 DUP2 PUSH2 0x2744 JUMP JUMPDEST DUP3 MSTORE POP POP JUMP JUMPDEST PUSH2 0x2238 DUP2 PUSH2 0x274E JUMP JUMPDEST DUP3 MSTORE POP POP JUMP JUMPDEST PUSH1 0x0 PUSH2 0x2249 DUP3 PUSH2 0x2171 JUMP JUMPDEST SWAP2 POP DUP2 SWAP1 POP SWAP2 SWAP1 POP JUMP JUMPDEST PUSH1 0x0 PUSH1 0x20 DUP3 ADD SWAP1 POP PUSH2 0x2268 PUSH1 0x0 DUP4 ADD DUP5 PUSH2 0x1F0D JUMP JUMPDEST SWAP3 SWAP2 POP POP JUMP JUMPDEST PUSH1 0x0 PUSH1 0x60 DUP3 ADD SWAP1 POP PUSH2 0x2283 PUSH1 0x0 DUP4 ADD DUP7 PUSH2 0x1F0D JUMP JUMPDEST PUSH2 0x2290 PUSH1 0x20 DUP4 ADD DUP6 PUSH2 0x1F0D JUMP JUMPDEST PUSH2 0x229D PUSH1 0x40 DUP4 ADD DUP5 PUSH2 0x2220 JUMP JUMPDEST SWAP5 SWAP4 POP POP POP POP JUMP JUMPDEST PUSH1 0x0 PUSH1 0x40 DUP3 ADD SWAP1 POP PUSH2 0x22BA PUSH1 0x0 DUP4 ADD DUP6 PUSH2 0x1F0D JUMP JUMPDEST PUSH2 0x22C7 PUSH1 0x20 DUP4 ADD DUP5 PUSH2 0x2220 JUMP JUMPDEST SWAP4 SWAP3 POP POP POP JUMP JUMPDEST PUSH1 0x0 PUSH1 0x20 DUP3 ADD SWAP1 POP PUSH2 0x22E3 PUSH1 0x0 DUP4 ADD DUP5 PUSH2 0x1F1C JUMP JUMPDEST SWAP3 SWAP2 POP POP JUMP JUMPDEST PUSH1 0x0 PUSH1 0x20 DUP3 ADD SWAP1 POP DUP2 DUP2 SUB PUSH1 0x0 DUP4 ADD MSTORE PUSH2 0x2303 DUP2 DUP5 PUSH2 0x1F2B JUMP JUMPDEST SWAP1 POP SWAP3 SWAP2 POP POP JUMP JUMPDEST PUSH1 0x0 PUSH1 0x20 DUP3 ADD SWAP1 POP DUP2 DUP2 SUB PUSH1 0x0 DUP4 ADD MSTORE PUSH2 0x2324 DUP2 PUSH2 0x1F64 JUMP JUMPDEST SWAP1 POP SWAP2 SWAP1 POP JUMP JUMPDEST PUSH1 0x0 PUSH1 0x20 DUP3 ADD SWAP1 POP DUP2 DUP2 SUB PUSH1 0x0 DUP4 ADD MSTORE PUSH2 0x2344 DUP2 PUSH2 0x1F87 JUMP JUMPDEST SWAP1 POP SWAP2 SWAP1 POP JUMP JUMPDEST PUSH1 0x0 PUSH1 0x20 DUP3 ADD SWAP1 POP DUP2 DUP2 SUB PUSH1 0x0 DUP4 ADD MSTORE PUSH2 0x2364 DUP2 PUSH2 0x1FAA JUMP JUMPDEST SWAP1 POP SWAP2 SWAP1 POP JUMP JUMPDEST PUSH1 0x0 PUSH1 0x20 DUP3 ADD SWAP1 POP DUP2 DUP2 SUB PUSH1 0x0 DUP4 ADD MSTORE PUSH2 0x2384 DUP2 PUSH2 0x1FCD JUMP JUMPDEST SWAP1 POP SWAP2 SWAP1 POP JUMP JUMPDEST PUSH1 0x0 PUSH1 0x20 DUP3 ADD SWAP1 POP DUP2 DUP2 SUB PUSH1 0x0 DUP4 ADD MSTORE PUSH2 0x23A4 DUP2 PUSH2 0x1FF0 JUMP JUMPDEST SWAP1 POP SWAP2 SWAP1 POP JUMP JUMPDEST PUSH1 0x0 PUSH1 0x20 DUP3 ADD SWAP1 POP DUP2 DUP2 SUB PUSH1 0x0 DUP4 ADD MSTORE PUSH2 0x23C4 DUP2 PUSH2 0x2013 JUMP JUMPDEST SWAP1 POP SWAP2 SWAP1 POP JUMP JUMPDEST PUSH1 0x0 PUSH1 0x20 DUP3 ADD SWAP1 POP DUP2 DUP2 SUB PUSH1 0x0 DUP4 ADD MSTORE PUSH2 0x23E4 DUP2 PUSH2 0x2036 JUMP JUMPDEST SWAP1 POP SWAP2 SWAP1 POP JUMP JUMPDEST PUSH1 0x0 PUSH1 0x20 DUP3 ADD SWAP1 POP DUP2 DUP2 SUB PUSH1 0x0 DUP4 ADD MSTORE PUSH2 0x2404 DUP2 PUSH2 0x2059 JUMP JUMPDEST SWAP1 POP SWAP2 SWAP1 POP JUMP JUMPDEST PUSH1 0x0 PUSH1 0x20 DUP3 ADD SWAP1 POP DUP2 DUP2 SUB PUSH1 0x0 DUP4 ADD MSTORE PUSH2 0x2424 DUP2 PUSH2 0x207C JUMP JUMPDEST SWAP1 POP SWAP2 SWAP1 POP JUMP JUMPDEST PUSH1 0x0 PUSH1 0x20 DUP3 ADD SWAP1 POP DUP2 DUP2 SUB PUSH1 0x0 DUP4 ADD MSTORE PUSH2 0x2444 DUP2 PUSH2 0x209F JUMP JUMPDEST SWAP1 POP SWAP2 SWAP1 POP JUMP JUMPDEST PUSH1 0x0 PUSH1 0x20 DUP3 ADD SWAP1 POP DUP2 DUP2 SUB PUSH1 0x0 DUP4 ADD MSTORE PUSH2 0x2464 DUP2 PUSH2 0x20C2 JUMP JUMPDEST SWAP1 POP SWAP2 SWAP1 POP JUMP JUMPDEST PUSH1 0x0 PUSH1 0x20 DUP3 ADD SWAP1 POP DUP2 DUP2 SUB PUSH1 0x0 DUP4 ADD MSTORE PUSH2 0x2484 DUP2 PUSH2 0x20E5 JUMP JUMPDEST SWAP1 POP SWAP2 SWAP1 POP JUMP JUMPDEST PUSH1 0x0 PUSH1 0x20 DUP3 ADD SWAP1 POP DUP2 DUP2 SUB PUSH1 0x0 DUP4 ADD MSTORE PUSH2 0x24A4 DUP2 PUSH2 0x2108 JUMP JUMPDEST SWAP1 POP SWAP2 SWAP1 POP JUMP JUMPDEST PUSH1 0x0 PUSH1 0x20 DUP3 ADD SWAP1 POP DUP2 DUP2 SUB PUSH1 0x0 DUP4 ADD MSTORE PUSH2 0x24C4 DUP2 PUSH2 0x212B JUMP JUMPDEST SWAP1 POP SWAP2 SWAP1 POP JUMP JUMPDEST PUSH1 0x0 PUSH1 0x20 DUP3 ADD SWAP1 POP DUP2 DUP2 SUB PUSH1 0x0 DUP4 ADD MSTORE PUSH2 0x24E4 DUP2 PUSH2 0x214E JUMP JUMPDEST SWAP1 POP SWAP2 SWAP1 POP JUMP JUMPDEST PUSH1 0x0 PUSH1 0x20 DUP3 ADD SWAP1 POP DUP2 DUP2 SUB PUSH1 0x0 DUP4 ADD MSTORE PUSH2 0x2504 DUP2 PUSH2 0x2194 JUMP JUMPDEST SWAP1 POP SWAP2 SWAP1 POP JUMP JUMPDEST PUSH1 0x0 PUSH1 0x20 DUP3 ADD SWAP1 POP DUP2 DUP2 SUB PUSH1 0x0 DUP4 ADD MSTORE PUSH2 0x2524 DUP2 PUSH2 0x21B7 JUMP JUMPDEST SWAP1 POP SWAP2 SWAP1 POP JUMP JUMPDEST PUSH1 0x0 PUSH1 0x20 DUP3 ADD SWAP1 POP DUP2 DUP2 SUB PUSH1 0x0 DUP4 ADD MSTORE PUSH2 0x2544 DUP2 PUSH2 0x21DA JUMP JUMPDEST SWAP1 POP SWAP2 SWAP1 POP JUMP JUMPDEST PUSH1 0x0 PUSH1 0x20 DUP3 ADD SWAP1 POP DUP2 DUP2 SUB PUSH1 0x0 DUP4 ADD MSTORE PUSH2 0x2564 DUP2 PUSH2 0x21FD JUMP JUMPDEST SWAP1 POP SWAP2 SWAP1 POP JUMP JUMPDEST PUSH1 0x0 PUSH1 0x20 DUP3 ADD SWAP1 POP PUSH2 0x2580 PUSH1 0x0 DUP4 ADD DUP5 PUSH2 0x2220 JUMP JUMPDEST SWAP3 SWAP2 POP POP JUMP JUMPDEST PUSH1 0x0 PUSH1 0x40 DUP3 ADD SWAP1 POP PUSH2 0x259B PUSH1 0x0 DUP4 ADD DUP6 PUSH2 0x2220 JUMP JUMPDEST PUSH2 0x25A8 PUSH1 0x20 DUP4 ADD DUP5 PUSH2 0x2220 JUMP JUMPDEST SWAP4 SWAP3 POP POP POP JUMP JUMPDEST PUSH1 0x0 PUSH1 0x20 DUP3 ADD SWAP1 POP PUSH2 0x25C4 PUSH1 0x0 DUP4 ADD DUP5 PUSH2 0x222F JUMP JUMPDEST SWAP3 SWAP2 POP POP JUMP JUMPDEST PUSH1 0x0 DUP2 MLOAD SWAP1 POP SWAP2 SWAP1 POP JUMP JUMPDEST PUSH1 0x0 DUP2 SWAP1 POP SWAP3 SWAP2 POP POP JUMP JUMPDEST PUSH1 0x0 DUP3 DUP3 MSTORE PUSH1 0x20 DUP3 ADD SWAP1 POP SWAP3 SWAP2 POP POP JUMP JUMPDEST PUSH1 0x0 PUSH2 0x25FC DUP3 PUSH2 0x2744 JUMP JUMPDEST SWAP2 POP PUSH2 0x2607 DUP4 PUSH2 0x2744 JUMP JUMPDEST SWAP3 POP DUP3 PUSH32 0xFFFFFFFFFFFFFFFFFFFFFFFFFFFFFFFFFFFFFFFFFFFFFFFFFFFFFFFFFFFFFFFF SUB DUP3 GT ISZERO PUSH2 0x263C JUMPI PUSH2 0x263B PUSH2 0x27C0 JUMP JUMPDEST JUMPDEST DUP3 DUP3 ADD SWAP1 POP SWAP3 SWAP2 POP POP JUMP JUMPDEST PUSH1 0x0 PUSH2 0x2652 DUP3 PUSH2 0x2744 JUMP JUMPDEST SWAP2 POP PUSH2 0x265D DUP4 PUSH2 0x2744 JUMP JUMPDEST SWAP3 POP DUP3 PUSH2 0x266D JUMPI PUSH2 0x266C PUSH2 0x27EF JUMP JUMPDEST JUMPDEST DUP3 DUP3 DIV SWAP1 POP SWAP3 SWAP2 POP POP JUMP JUMPDEST PUSH1 0x0 PUSH2 0x2683 DUP3 PUSH2 0x2744 JUMP JUMPDEST SWAP2 POP PUSH2 0x268E DUP4 PUSH2 0x2744 JUMP JUMPDEST SWAP3 POP DUP2 PUSH32 0xFFFFFFFFFFFFFFFFFFFFFFFFFFFFFFFFFFFFFFFFFFFFFFFFFFFFFFFFFFFFFFFF DIV DUP4 GT DUP3 ISZERO ISZERO AND ISZERO PUSH2 0x26C7 JUMPI PUSH2 0x26C6 PUSH2 0x27C0 JUMP JUMPDEST JUMPDEST DUP3 DUP3 MUL SWAP1 POP SWAP3 SWAP2 POP POP JUMP JUMPDEST PUSH1 0x0 PUSH2 0x26DD DUP3 PUSH2 0x2744 JUMP JUMPDEST SWAP2 POP PUSH2 0x26E8 DUP4 PUSH2 0x2744 JUMP JUMPDEST SWAP3 POP DUP3 DUP3 LT ISZERO PUSH2 0x26FB JUMPI PUSH2 0x26FA PUSH2 0x27C0 JUMP JUMPDEST JUMPDEST DUP3 DUP3 SUB SWAP1 POP SWAP3 SWAP2 POP POP JUMP JUMPDEST PUSH1 0x0 PUSH2 0x2711 DUP3 PUSH2 0x2724 JUMP JUMPDEST SWAP1 POP SWAP2 SWAP1 POP JUMP JUMPDEST PUSH1 0x0 DUP2 ISZERO ISZERO SWAP1 POP SWAP2 SWAP1 POP JUMP JUMPDEST PUSH1 0x0 PUSH20 0xFFFFFFFFFFFFFFFFFFFFFFFFFFFFFFFFFFFFFFFF DUP3 AND SWAP1 POP SWAP2 SWAP1 POP JUMP JUMPDEST PUSH1 0x0 DUP2 SWAP1 POP SWAP2 SWAP1 POP JUMP JUMPDEST PUSH1 0x0 PUSH1 0xFF DUP3 AND SWAP1 POP SWAP2 SWAP1 POP JUMP JUMPDEST PUSH1 0x0 JUMPDEST DUP4 DUP2 LT ISZERO PUSH2 0x2779 JUMPI DUP1 DUP3 ADD MLOAD DUP2 DUP5 ADD MSTORE PUSH1 0x20 DUP2 ADD SWAP1 POP PUSH2 0x275E JUMP JUMPDEST DUP4 DUP2 GT ISZERO PUSH2 0x2788 JUMPI PUSH1 0x0 DUP5 DUP5 ADD MSTORE JUMPDEST POP POP POP POP JUMP JUMPDEST PUSH1 0x0 PUSH1 0x2 DUP3 DIV SWAP1 POP PUSH1 0x1 DUP3 AND DUP1 PUSH2 0x27A6 JUMPI PUSH1 0x7F DUP3 AND SWAP2 POP JUMPDEST PUSH1 0x20 DUP3 LT DUP2 EQ ISZERO PUSH2 0x27BA JUMPI PUSH2 0x27B9 PUSH2 0x281E JUMP JUMPDEST JUMPDEST POP SWAP2 SWAP1 POP JUMP JUMPDEST PUSH32 0x4E487B7100000000000000000000000000000000000000000000000000000000 PUSH1 0x0 MSTORE PUSH1 0x11 PUSH1 0x4 MSTORE PUSH1 0x24 PUSH1 0x0 REVERT JUMPDEST PUSH32 0x4E487B7100000000000000000000000000000000000000000000000000000000 PUSH1 0x0 MSTORE PUSH1 0x12 PUSH1 0x4 MSTORE PUSH1 0x24 PUSH1 0x0 REVERT JUMPDEST PUSH32 0x4E487B7100000000000000000000000000000000000000000000000000000000 PUSH1 0x0 MSTORE PUSH1 0x22 PUSH1 0x4 MSTORE PUSH1 0x24 PUSH1 0x0 REVERT JUMPDEST PUSH1 0x0 DUP1 REVERT JUMPDEST PUSH1 0x0 PUSH1 0x1F NOT PUSH1 0x1F DUP4 ADD AND SWAP1 POP SWAP2 SWAP1 POP JUMP JUMPDEST PUSH32 0x45524332303A207472616E7366657220746F20746865207A65726F2061646472 PUSH1 0x0 DUP3 ADD MSTORE PUSH32 0x6573730000000000000000000000000000000000000000000000000000000000 PUSH1 0x20 DUP3 ADD MSTORE POP JUMP JUMPDEST PUSH32 0x45524332303A206275726E20616D6F756E7420657863656564732062616C616E PUSH1 0x0 DUP3 ADD MSTORE PUSH32 0x6365000000000000000000000000000000000000000000000000000000000000 PUSH1 0x20 DUP3 ADD MSTORE POP JUMP JUMPDEST PUSH32 0x45524332303A20617070726F766520746F20746865207A65726F206164647265 PUSH1 0x0 DUP3 ADD MSTORE PUSH32 0x7373000000000000000000000000000000000000000000000000000000000000 PUSH1 0x20 DUP3 ADD MSTORE POP JUMP JUMPDEST PUSH32 0x496E73756666696369656E7420696E70757420616D6F756E74206F6620455243 PUSH1 0x0 DUP3 ADD MSTORE PUSH32 0x323020546F6B656E730000000000000000000000000000000000000000000000 PUSH1 0x20 DUP3 ADD MSTORE POP JUMP JUMPDEST PUSH32 0x45524332303A20696E73756666696369656E7420616C6C6F77616E6365000000 PUSH1 0x0 DUP3 ADD MSTORE POP JUMP JUMPDEST PUSH32 0x45524332303A207472616E7366657220616D6F756E7420657863656564732062 PUSH1 0x0 DUP3 ADD MSTORE PUSH32 0x616C616E63650000000000000000000000000000000000000000000000000000 PUSH1 0x20 DUP3 ADD MSTORE POP JUMP JUMPDEST PUSH32 0x5472616E73616374696F6E206F662045544820746F20726563697069656E7420 PUSH1 0x0 DUP3 ADD MSTORE PUSH32 0x6661696C65640000000000000000000000000000000000000000000000000000 PUSH1 0x20 DUP3 ADD MSTORE POP JUMP JUMPDEST PUSH32 0x546F6B656E206164647265737320697320696E76616C69640000000000000000 PUSH1 0x0 DUP3 ADD MSTORE POP JUMP JUMPDEST PUSH32 0x496E76616C696420696E70757420746F6B656E20616D6F756E74000000000000 PUSH1 0x0 DUP3 ADD MSTORE POP JUMP JUMPDEST PUSH32 0x416D6F756E74207377617070656420646F6573206E6F74206D65657420796F75 PUSH1 0x0 DUP3 ADD MSTORE PUSH32 0x722073746970756C6174656420616D6F756E742C20726576657274696E672073 PUSH1 0x20 DUP3 ADD MSTORE PUSH32 0x7761700000000000000000000000000000000000000000000000000000000000 PUSH1 0x40 DUP3 ADD MSTORE POP JUMP JUMPDEST PUSH32 0x506C6561736520696E70757420612076616C696420616D6F756E74206F66204C PUSH1 0x0 DUP3 ADD MSTORE PUSH32 0x5020546F6B656E7320746F206275726E2F72656465656D000000000000000000 PUSH1 0x20 DUP3 ADD MSTORE POP JUMP JUMPDEST PUSH32 0x45524332303A206275726E2066726F6D20746865207A65726F20616464726573 PUSH1 0x0 DUP3 ADD MSTORE PUSH32 0x7300000000000000000000000000000000000000000000000000000000000000 PUSH1 0x20 DUP3 ADD MSTORE POP JUMP JUMPDEST PUSH32 0x45544820616D6F756E742063616E6E6F74206265207A65726F00000000000000 PUSH1 0x0 DUP3 ADD MSTORE POP JUMP JUMPDEST PUSH32 0x45524332303A207472616E736665722066726F6D20746865207A65726F206164 PUSH1 0x0 DUP3 ADD MSTORE PUSH32 0x6472657373000000000000000000000000000000000000000000000000000000 PUSH1 0x20 DUP3 ADD MSTORE POP JUMP JUMPDEST PUSH32 0x5472616E73616374696F6E206F662045746865722077617320756E7375636365 PUSH1 0x0 DUP3 ADD MSTORE PUSH32 0x737366756C000000000000000000000000000000000000000000000000000000 PUSH1 0x20 DUP3 ADD MSTORE POP JUMP JUMPDEST POP JUMP JUMPDEST PUSH32 0x546865726520617265206E6F2072657365727665730000000000000000000000 PUSH1 0x0 DUP3 ADD MSTORE POP JUMP JUMPDEST PUSH32 0x45524332303A20617070726F76652066726F6D20746865207A65726F20616464 PUSH1 0x0 DUP3 ADD MSTORE PUSH32 0x7265737300000000000000000000000000000000000000000000000000000000 PUSH1 0x20 DUP3 ADD MSTORE POP JUMP JUMPDEST PUSH32 0x45524332303A2064656372656173656420616C6C6F77616E63652062656C6F77 PUSH1 0x0 DUP3 ADD MSTORE PUSH32 0x207A65726F000000000000000000000000000000000000000000000000000000 PUSH1 0x20 DUP3 ADD MSTORE POP JUMP JUMPDEST PUSH32 0x45524332303A206D696E7420746F20746865207A65726F206164647265737300 PUSH1 0x0 DUP3 ADD MSTORE POP JUMP JUMPDEST PUSH2 0x2D8E DUP2 PUSH2 0x2706 JUMP JUMPDEST DUP2 EQ PUSH2 0x2D99 JUMPI PUSH1 0x0 DUP1 REVERT JUMPDEST POP JUMP JUMPDEST PUSH2 0x2DA5 DUP2 PUSH2 0x2718 JUMP JUMPDEST DUP2 EQ PUSH2 0x2DB0 JUMPI PUSH1 0x0 DUP1 REVERT JUMPDEST POP JUMP JUMPDEST PUSH2 0x2DBC DUP2 PUSH2 0x2744 JUMP JUMPDEST DUP2 EQ PUSH2 0x2DC7 JUMPI PUSH1 0x0 DUP1 REVERT JUMPDEST POP JUMP INVALID LOG2 PUSH5 0x6970667358 0x22 SLT KECCAK256 0xA6 0x27 0xAB 0xFB 0xD5 SWAP11 DUP16 0xB2 CALLDATACOPY 0xD4 0xF9 0x5F MLOAD PUSH22 0xCB636EB4E0AF61E1FAC3D75B98FE234F6E9A64736F6C PUSH4 0x43000807 STOP CALLER "
				},
				"gasEstimates": {
					"creation": {
						"codeDepositCost": "2355200",
						"executionCost": "infinite",
						"totalCost": "infinite"
					},
					"external": {
						"addLiquidity(uint256)": "infinite",
						"allowance(address,address)": "infinite",
						"approve(address,uint256)": "infinite",
						"balanceOf(address)": "2886",
						"decimals()": "410",
						"decreaseAllowance(address,uint256)": "infinite",
						"ethForTokenHigh(uint256,address)": "infinite",
						"ethForTokenImplicit(uint256)": "infinite",
						"factoryAddress()": "2603",
						"getEthAmountForSwap(uint256)": "764",
						"getReserves()": "infinite",
						"getTokenAmountForSwap(uint256)": "infinite",
						"increaseAllowance(address,uint256)": "infinite",
						"name()": "infinite",
						"removeLiquidity(uint256)": "infinite",
						"symbol()": "infinite",
						"tokenAddress()": "2536",
						"tokenForEthSwap(uint256,uint256)": "infinite",
						"tokenToTokenSwap(uint256,uint256,address)": "infinite",
						"totalSupply()": "2549",
						"transfer(address,uint256)": "infinite",
						"transferFrom(address,address,uint256)": "infinite"
					},
					"internal": {
						"ethForTokenBasic(uint256,address)": "infinite",
						"getOutputAmount(uint256,uint256,uint256)": "infinite"
					}
				},
				"methodIdentifiers": {
					"addLiquidity(uint256)": "51c6590a",
					"allowance(address,address)": "dd62ed3e",
					"approve(address,uint256)": "095ea7b3",
					"balanceOf(address)": "70a08231",
					"decimals()": "313ce567",
					"decreaseAllowance(address,uint256)": "a457c2d7",
					"ethForTokenHigh(uint256,address)": "6e9e8116",
					"ethForTokenImplicit(uint256)": "ae0aaea3",
					"factoryAddress()": "966dae0e",
					"getEthAmountForSwap(uint256)": "2c0c60a4",
					"getReserves()": "0902f1ac",
					"getTokenAmountForSwap(uint256)": "0f8070b4",
					"increaseAllowance(address,uint256)": "39509351",
					"name()": "06fdde03",
					"removeLiquidity(uint256)": "9c8f9f23",
					"symbol()": "95d89b41",
					"tokenAddress()": "9d76ea58",
					"tokenForEthSwap(uint256,uint256)": "64338a30",
					"tokenToTokenSwap(uint256,uint256,address)": "f7a7e324",
					"totalSupply()": "18160ddd",
					"transfer(address,uint256)": "a9059cbb",
					"transferFrom(address,address,uint256)": "23b872dd"
				}
			},
			"storageLayout": {
				"storage": [
					{
						"astId": 15,
						"contract": "contracts/Pair.sol:Pair",
						"label": "_balances",
						"offset": 0,
						"slot": "0",
						"type": "t_mapping(t_address,t_uint256)"
					},
					{
						"astId": 21,
						"contract": "contracts/Pair.sol:Pair",
						"label": "_allowances",
						"offset": 0,
						"slot": "1",
						"type": "t_mapping(t_address,t_mapping(t_address,t_uint256))"
					},
					{
						"astId": 23,
						"contract": "contracts/Pair.sol:Pair",
						"label": "_totalSupply",
						"offset": 0,
						"slot": "2",
						"type": "t_uint256"
					},
					{
						"astId": 25,
						"contract": "contracts/Pair.sol:Pair",
						"label": "_name",
						"offset": 0,
						"slot": "3",
						"type": "t_string_storage"
					},
					{
						"astId": 27,
						"contract": "contracts/Pair.sol:Pair",
						"label": "_symbol",
						"offset": 0,
						"slot": "4",
						"type": "t_string_storage"
					},
					{
						"astId": 739,
						"contract": "contracts/Pair.sol:Pair",
						"label": "tokenAddress",
						"offset": 0,
						"slot": "5",
						"type": "t_address"
					},
					{
						"astId": 741,
						"contract": "contracts/Pair.sol:Pair",
						"label": "factoryAddress",
						"offset": 0,
						"slot": "6",
						"type": "t_address"
					}
				],
				"types": {
					"t_address": {
						"encoding": "inplace",
						"label": "address",
						"numberOfBytes": "20"
					},
					"t_mapping(t_address,t_mapping(t_address,t_uint256))": {
						"encoding": "mapping",
						"key": "t_address",
						"label": "mapping(address => mapping(address => uint256))",
						"numberOfBytes": "32",
						"value": "t_mapping(t_address,t_uint256)"
					},
					"t_mapping(t_address,t_uint256)": {
						"encoding": "mapping",
						"key": "t_address",
						"label": "mapping(address => uint256)",
						"numberOfBytes": "32",
						"value": "t_uint256"
					},
					"t_string_storage": {
						"encoding": "bytes",
						"label": "string",
						"numberOfBytes": "32"
					},
					"t_uint256": {
						"encoding": "inplace",
						"label": "uint256",
						"numberOfBytes": "32"
					}
				}
			},
			"userdoc": {
				"kind": "user",
				"methods": {},
				"version": 1
			}
		}
	}
}