{
	"data": {
		"bytecode": {
			"linkReferences": {},
			"object": "608060405234801561001057600080fd5b50613c00806100206000396000f3fe60806040523480156200001157600080fd5b5060043610620000465760003560e01c80631a788a02146200004b5780639ccb07441462000081578063fe33b30214620000b7575b600080fd5b62000069600480360381019062000063919062000427565b620000ed565b604051620000789190620004df565b60405180910390f35b6200009f600480360381019062000099919062000427565b620001c8565b604051620000ae9190620004df565b60405180910390f35b620000d56004803603810190620000cf919062000427565b620003cf565b604051620000e49190620004df565b60405180910390f35b60008060008373ffffffffffffffffffffffffffffffffffffffff1673ffffffffffffffffffffffffffffffffffffffff16815260200190815260200160002060009054906101000a900473ffffffffffffffffffffffffffffffffffffffff169050600073ffffffffffffffffffffffffffffffffffffffff168173ffffffffffffffffffffffffffffffffffffffff161415620001c3576040517f08c379a0000000000000000000000000000000000000000000000000000000008152600401620001ba90620004fc565b60405180910390fd5b919050565b60008073ffffffffffffffffffffffffffffffffffffffff168273ffffffffffffffffffffffffffffffffffffffff1614156200023c576040517f08c379a000000000000000000000000000000000000000000000000000000000815260040162000233906200051e565b60405180910390fd5b600073ffffffffffffffffffffffffffffffffffffffff166000808473ffffffffffffffffffffffffffffffffffffffff1673ffffffffffffffffffffffffffffffffffffffff16815260200190815260200160002060009054906101000a900473ffffffffffffffffffffffffffffffffffffffff1673ffffffffffffffffffffffffffffffffffffffff16146200030c576040517f08c379a0000000000000000000000000000000000000000000000000000000008152600401620003039062000540565b60405180910390fd5b6000826040516200031d9062000402565b620003299190620004df565b604051809103906000f08015801562000346573d6000803e3d6000fd5b509050806000808573ffffffffffffffffffffffffffffffffffffffff1673ffffffffffffffffffffffffffffffffffffffff16815260200190815260200160002060006101000a81548173ffffffffffffffffffffffffffffffffffffffff021916908373ffffffffffffffffffffffffffffffffffffffff16021790555080915050919050565b60006020528060005260406000206000915054906101000a900473ffffffffffffffffffffffffffffffffffffffff1681565b613589806200064283390190565b600081359050620004218162000627565b92915050565b60006020828403121562000440576200043f620005a7565b5b6000620004508482850162000410565b91505092915050565b620004648162000573565b82525050565b60006200047960138362000562565b91506200048682620005ac565b602082019050919050565b6000620004a060158362000562565b9150620004ad82620005d5565b602082019050919050565b6000620004c760188362000562565b9150620004d482620005fe565b602082019050919050565b6000602082019050620004f6600083018462000459565b92915050565b6000602082019050818103600083015262000517816200046a565b9050919050565b60006020820190508181036000830152620005398162000491565b9050919050565b600060208201905081810360008301526200055b81620004b8565b9050919050565b600082825260208201905092915050565b6000620005808262000587565b9050919050565b600073ffffffffffffffffffffffffffffffffffffffff82169050919050565b600080fd5b7f5061697220646f6573206e6f7420657869737400000000000000000000000000600082015250565b7f696e76616c696420746f6b656e20616464726573730000000000000000000000600082015250565b7f54686973207061697220616c7265616479206578697374730000000000000000600082015250565b620006328162000573565b81146200063e57600080fd5b5056fe60806040523480156200001157600080fd5b50604051620035893803806200358983398181016040528101906200003791906200029a565b6040518060400160405280600781526020017f53776170205631000000000000000000000000000000000000000000000000008152506040518060400160405280600781526020017f537761702d5631000000000000000000000000000000000000000000000000008152508160039080519060200190620000bb929190620001d3565b508060049080519060200190620000d4929190620001d3565b505050600073ffffffffffffffffffffffffffffffffffffffff168173ffffffffffffffffffffffffffffffffffffffff1614156200014a576040517f08c379a00000000000000000000000000000000000000000000000000000000081526004016200014190620002f3565b60405180910390fd5b80600560006101000a81548173ffffffffffffffffffffffffffffffffffffffff021916908373ffffffffffffffffffffffffffffffffffffffff16021790555033600660006101000a81548173ffffffffffffffffffffffffffffffffffffffff021916908373ffffffffffffffffffffffffffffffffffffffff1602179055505062000407565b828054620001e1906200035a565b90600052602060002090601f01602090048101928262000205576000855562000251565b82601f106200022057805160ff191683800117855562000251565b8280016001018555821562000251579182015b828111156200025057825182559160200191906001019062000233565b5b50905062000260919062000264565b5090565b5b808211156200027f57600081600090555060010162000265565b5090565b6000815190506200029481620003ed565b92915050565b600060208284031215620002b357620002b2620003bf565b5b6000620002c38482850162000283565b91505092915050565b6000620002db600f8362000315565b9150620002e882620003c4565b602082019050919050565b600060208201905081810360008301526200030e81620002cc565b9050919050565b600082825260208201905092915050565b600062000333826200033a565b9050919050565b600073ffffffffffffffffffffffffffffffffffffffff82169050919050565b600060028204905060018216806200037357607f821691505b602082108114156200038a576200038962000390565b5b50919050565b7f4e487b7100000000000000000000000000000000000000000000000000000000600052602260045260246000fd5b600080fd5b7f496e76616c696420616464726573730000000000000000000000000000000000600082015250565b620003f88162000326565b81146200040457600080fd5b50565b61317280620004176000396000f3fe6080604052600436106101355760003560e01c80636e9e8116116100ab5780639d76ea581161006f5780639d76ea581461045e578063a457c2d714610489578063a9059cbb146104c6578063ae0aaea314610503578063dd62ed3e1461051f578063f7a7e3241461055c57610135565b80636e9e81161461037157806370a082311461038d57806395d89b41146103ca578063966dae0e146103f55780639c8f9f231461042057610135565b806323b872dd116100fd57806323b872dd146102365780632c0c60a414610273578063313ce567146102b057806339509351146102db57806351c6590a1461031857806364338a301461034857610135565b806306fdde031461013a5780630902f1ac14610165578063095ea7b3146101915780630f8070b4146101ce57806318160ddd1461020b575b600080fd5b34801561014657600080fd5b5061014f610585565b60405161015c91906125e9565b60405180910390f35b34801561017157600080fd5b5061017a610617565b6040516101889291906128cf565b60405180910390f35b34801561019d57600080fd5b506101b860048036038101906101b39190612050565b6106ce565b6040516101c591906125ce565b60405180910390f35b3480156101da57600080fd5b506101f560048036038101906101f091906120bd565b6106f1565b604051610202919061288b565b60405180910390f35b34801561021757600080fd5b50610220610758565b60405161022d919061288b565b60405180910390f35b34801561024257600080fd5b5061025d60048036038101906102589190611ffd565b610762565b60405161026a91906125ce565b60405180910390f35b34801561027f57600080fd5b5061029a600480360381019061029591906120bd565b610791565b6040516102a7919061288b565b60405180910390f35b3480156102bc57600080fd5b506102c56107f8565b6040516102d291906128f8565b60405180910390f35b3480156102e757600080fd5b5061030260048036038101906102fd9190612050565b610801565b60405161030f91906125ce565b60405180910390f35b610332600480360381019061032d91906120bd565b610838565b60405161033f919061288b565b60405180910390f35b34801561035457600080fd5b5061036f600480360381019061036a9190612157565b610aae565b005b61038b60048036038101906103869190612117565b610cc4565b005b34801561039957600080fd5b506103b460048036038101906103af9190611f63565b610cd2565b6040516103c1919061288b565b60405180910390f35b3480156103d657600080fd5b506103df610d1a565b6040516103ec91906125e9565b60405180910390f35b34801561040157600080fd5b5061040a610dac565b6040516104179190612553565b60405180910390f35b34801561042c57600080fd5b50610447600480360381019061044291906120bd565b610dd2565b6040516104559291906128cf565b60405180910390f35b34801561046a57600080fd5b5061047361101a565b6040516104809190612553565b60405180910390f35b34801561049557600080fd5b506104b060048036038101906104ab9190612050565b611040565b6040516104bd91906125ce565b60405180910390f35b3480156104d257600080fd5b506104ed60048036038101906104e89190612050565b6110b7565b6040516104fa91906125ce565b60405180910390f35b61051d600480360381019061051891906120bd565b6110da565b005b34801561052b57600080fd5b5061054660048036038101906105419190611fbd565b6110e7565b604051610553919061288b565b60405180910390f35b34801561056857600080fd5b50610583600480360381019061057e9190612197565b61116e565b005b60606003805461059490612ad7565b80601f01602080910402602001604051908101604052809291908181526020018280546105c090612ad7565b801561060d5780601f106105e25761010080835404028352916020019161060d565b820191906000526020600020905b8154815290600101906020018083116105f057829003601f168201915b5050505050905090565b600080600560009054906101000a900473ffffffffffffffffffffffffffffffffffffffff1673ffffffffffffffffffffffffffffffffffffffff166370a08231306040518263ffffffff1660e01b81526004016106759190612553565b60206040518083038186803b15801561068d57600080fd5b505afa1580156106a1573d6000803e3d6000fd5b505050506040513d601f19601f820116820180604052508101906106c591906120ea565b91504790509091565b6000806106d96114c1565b90506106e68185856114c9565b600191505092915050565b6000808211610735576040517f08c379a000000000000000000000000000000000000000000000000000000000815260040161072c906127ab565b60405180910390fd5b600080610740610617565b9150915061074f848284611694565b92505050919050565b6000600254905090565b60008061076d6114c1565b905061077a85828561173a565b6107858585856117c6565b60019150509392505050565b60008081116107d5576040517f08c379a00000000000000000000000000000000000000000000000000000000081526004016107cc906127ab565b60405180910390fd5b6000806107e0610617565b915091506107ef848383611694565b92505050919050565b60006012905090565b60008061080c6114c1565b905061082d81858561081e85896110e7565b610828919061293a565b6114c9565b600191505092915050565b6000806000610845610617565b915091506000821415610912576000600560009054906101000a900473ffffffffffffffffffffffffffffffffffffffff1690508073ffffffffffffffffffffffffffffffffffffffff166323b872dd3330886040518463ffffffff1660e01b81526004016108b69392919061256e565b602060405180830381600087803b1580156108d057600080fd5b505af11580156108e4573d6000803e3d6000fd5b505050506040513d601f19601f820116820180604052508101906109089190612090565b5081935050610a58565b348161091e9190612a1b565b9050600081833461092f91906129c1565b6109399190612990565b90508085101561097e576040517f08c379a00000000000000000000000000000000000000000000000000000000081526004016109759061266b565b60405180910390fd5b6000600560009054906101000a900473ffffffffffffffffffffffffffffffffffffffff1690508073ffffffffffffffffffffffffffffffffffffffff166323b872dd3330896040518463ffffffff1660e01b81526004016109e29392919061256e565b602060405180830381600087803b1580156109fc57600080fd5b505af1158015610a10573d6000803e3d6000fd5b505050506040513d601f19601f82011682018060405250810190610a349190612090565b508234610a3f610758565b610a4991906129c1565b610a539190612990565b945050505b610a623384611a47565b83343373ffffffffffffffffffffffffffffffffffffffff167f06239653922ac7bea6aa2b19dc486b9361821d37712eb796adfd38d81de278ca60405160405180910390a45050919050565b600080610ab9610617565b915091506000610aca858484611694565b905083811015610b0f576040517f08c379a0000000000000000000000000000000000000000000000000000000008152600401610b069061274b565b60405180910390fd5b600560009054906101000a900473ffffffffffffffffffffffffffffffffffffffff1673ffffffffffffffffffffffffffffffffffffffff166323b872dd3330886040518463ffffffff1660e01b8152600401610b6e9392919061256e565b602060405180830381600087803b158015610b8857600080fd5b505af1158015610b9c573d6000803e3d6000fd5b505050506040513d601f19601f82011682018060405250810190610bc09190612090565b5060003373ffffffffffffffffffffffffffffffffffffffff1685604051610be79061253e565b60006040518083038185875af1925050503d8060008114610c24576040519150601f19603f3d011682016040523d82523d6000602084013e610c29565b606091505b5050905080610c6d576040517f08c379a0000000000000000000000000000000000000000000000000000000008152600401610c64906126cb565b60405180910390fd5b853373ffffffffffffffffffffffffffffffffffffffff167fd70caa09595c8288801ca58a02fd0960ef4982b210b2b9bf88bd5344c27cc4e884604051610cb4919061288b565b60405180910390a3505050505050565b610cce8282611ba7565b5050565b60008060008373ffffffffffffffffffffffffffffffffffffffff1673ffffffffffffffffffffffffffffffffffffffff168152602001908152602001600020549050919050565b606060048054610d2990612ad7565b80601f0160208091040260200160405190810160405280929190818152602001828054610d5590612ad7565b8015610da25780601f10610d7757610100808354040283529160200191610da2565b820191906000526020600020905b815481529060010190602001808311610d8557829003601f168201915b5050505050905090565b600660009054906101000a900473ffffffffffffffffffffffffffffffffffffffff1681565b60008060008311610e18576040517f08c379a0000000000000000000000000000000000000000000000000000000008152600401610e0f9061276b565b60405180910390fd5b600080610e23610617565b91509150610e2f610758565b8582610e3b91906129c1565b610e459190612990565b9350610e4f610758565b8583610e5b91906129c1565b610e659190612990565b9250610e713386611d19565b60003373ffffffffffffffffffffffffffffffffffffffff1685604051610e979061253e565b60006040518083038185875af1925050503d8060008114610ed4576040519150601f19603f3d011682016040523d82523d6000602084013e610ed9565b606091505b5050905080610f1d576040517f08c379a0000000000000000000000000000000000000000000000000000000008152600401610f14906127eb565b60405180910390fd5b600560009054906101000a900473ffffffffffffffffffffffffffffffffffffffff1673ffffffffffffffffffffffffffffffffffffffff1663a9059cbb33866040518363ffffffff1660e01b8152600401610f7a9291906125a5565b602060405180830381600087803b158015610f9457600080fd5b505af1158015610fa8573d6000803e3d6000fd5b505050506040513d601f19601f82011682018060405250810190610fcc9190612090565b5083853373ffffffffffffffffffffffffffffffffffffffff167f0fbf06c058b90cb038a618f8c2acbf6145f8b3570fd1fa56abb8f0f3f05b36e860405160405180910390a4505050915091565b600560009054906101000a900473ffffffffffffffffffffffffffffffffffffffff1681565b60008061104b6114c1565b9050600061105982866110e7565b90508381101561109e576040517f08c379a00000000000000000000000000000000000000000000000000000000081526004016110959061284b565b60405180910390fd5b6110ab82868684036114c9565b60019250505092915050565b6000806110c26114c1565b90506110cf8185856117c6565b600191505092915050565b6110e48133611ba7565b50565b6000600160008473ffffffffffffffffffffffffffffffffffffffff1673ffffffffffffffffffffffffffffffffffffffff16815260200190815260200160002060008373ffffffffffffffffffffffffffffffffffffffff1673ffffffffffffffffffffffffffffffffffffffff16815260200190815260200160002054905092915050565b600073ffffffffffffffffffffffffffffffffffffffff168173ffffffffffffffffffffffffffffffffffffffff1614156111de576040517f08c379a00000000000000000000000000000000000000000000000000000000081526004016111d5906126eb565b60405180910390fd5b60008311611221576040517f08c379a00000000000000000000000000000000000000000000000000000000081526004016112189061270b565b60405180910390fd5b6000600660009054906101000a900473ffffffffffffffffffffffffffffffffffffffff1673ffffffffffffffffffffffffffffffffffffffff166306f2bf62836040518263ffffffff1660e01b815260040161127e9190612553565b602060405180830381600087803b15801561129857600080fd5b505af11580156112ac573d6000803e3d6000fd5b505050506040513d601f19601f820116820180604052508101906112d09190611f90565b90503073ffffffffffffffffffffffffffffffffffffffff168173ffffffffffffffffffffffffffffffffffffffff161415801561133b5750600073ffffffffffffffffffffffffffffffffffffffff168173ffffffffffffffffffffffffffffffffffffffff1614155b61137a576040517f08c379a00000000000000000000000000000000000000000000000000000000081526004016113719061272b565b60405180910390fd5b600080611385610617565b915091506000611396878484611694565b9050600560009054906101000a900473ffffffffffffffffffffffffffffffffffffffff1673ffffffffffffffffffffffffffffffffffffffff166323b872dd33308a6040518463ffffffff1660e01b81526004016113f79392919061256e565b602060405180830381600087803b15801561141157600080fd5b505af1158015611425573d6000803e3d6000fd5b505050506040513d601f19601f820116820180604052508101906114499190612090565b508373ffffffffffffffffffffffffffffffffffffffff1663389d9a408288336040518463ffffffff1660e01b81526004016114869291906128a6565b6000604051808303818588803b15801561149f57600080fd5b505af11580156114b3573d6000803e3d6000fd5b505050505050505050505050565b600033905090565b600073ffffffffffffffffffffffffffffffffffffffff168373ffffffffffffffffffffffffffffffffffffffff161415611539576040517f08c379a00000000000000000000000000000000000000000000000000000000081526004016115309061282b565b60405180910390fd5b600073ffffffffffffffffffffffffffffffffffffffff168273ffffffffffffffffffffffffffffffffffffffff1614156115a9576040517f08c379a00000000000000000000000000000000000000000000000000000000081526004016115a09061264b565b60405180910390fd5b80600160008573ffffffffffffffffffffffffffffffffffffffff1673ffffffffffffffffffffffffffffffffffffffff16815260200190815260200160002060008473ffffffffffffffffffffffffffffffffffffffff1673ffffffffffffffffffffffffffffffffffffffff168152602001908152602001600020819055508173ffffffffffffffffffffffffffffffffffffffff168373ffffffffffffffffffffffffffffffffffffffff167f8c5be1e5ebec7d5bd14f71427d1e84f3dd0314c0f7b2291e5b200ac8c7c3b92583604051611687919061288b565b60405180910390a3505050565b600080831180156116a55750600082115b6116e4576040517f08c379a00000000000000000000000000000000000000000000000000000000081526004016116db9061280b565b60405180910390fd5b6000806103e86116f49190612a1b565b856116ff91906129c1565b905080846103e861171091906129c1565b61171a919061293a565b838261172691906129c1565b6117309190612990565b9150509392505050565b600061174684846110e7565b90507fffffffffffffffffffffffffffffffffffffffffffffffffffffffffffffffff81146117c057818110156117b2576040517f08c379a00000000000000000000000000000000000000000000000000000000081526004016117a99061268b565b60405180910390fd5b6117bf84848484036114c9565b5b50505050565b600073ffffffffffffffffffffffffffffffffffffffff168373ffffffffffffffffffffffffffffffffffffffff161415611836576040517f08c379a000000000000000000000000000000000000000000000000000000000815260040161182d906127cb565b60405180910390fd5b600073ffffffffffffffffffffffffffffffffffffffff168273ffffffffffffffffffffffffffffffffffffffff1614156118a6576040517f08c379a000000000000000000000000000000000000000000000000000000000815260040161189d9061260b565b60405180910390fd5b6118b1838383611ef0565b60008060008573ffffffffffffffffffffffffffffffffffffffff1673ffffffffffffffffffffffffffffffffffffffff16815260200190815260200160002054905081811015611937576040517f08c379a000000000000000000000000000000000000000000000000000000000815260040161192e906126ab565b60405180910390fd5b8181036000808673ffffffffffffffffffffffffffffffffffffffff1673ffffffffffffffffffffffffffffffffffffffff16815260200190815260200160002081905550816000808573ffffffffffffffffffffffffffffffffffffffff1673ffffffffffffffffffffffffffffffffffffffff16815260200190815260200160002060008282546119ca919061293a565b925050819055508273ffffffffffffffffffffffffffffffffffffffff168473ffffffffffffffffffffffffffffffffffffffff167fddf252ad1be2c89b69c2b068fc378daa952ba7f163c4a11628f55a4df523b3ef84604051611a2e919061288b565b60405180910390a3611a41848484611ef5565b50505050565b600073ffffffffffffffffffffffffffffffffffffffff168273ffffffffffffffffffffffffffffffffffffffff161415611ab7576040517f08c379a0000000000000000000000000000000000000000000000000000000008152600401611aae9061286b565b60405180910390fd5b611ac360008383611ef0565b8060026000828254611ad5919061293a565b92505081905550806000808473ffffffffffffffffffffffffffffffffffffffff1673ffffffffffffffffffffffffffffffffffffffff1681526020019081526020016000206000828254611b2a919061293a565b925050819055508173ffffffffffffffffffffffffffffffffffffffff16600073ffffffffffffffffffffffffffffffffffffffff167fddf252ad1be2c89b69c2b068fc378daa952ba7f163c4a11628f55a4df523b3ef83604051611b8f919061288b565b60405180910390a3611ba360008383611ef5565b5050565b600080611bb2610617565b915091506000611bce343484611bc89190612a1b565b85611694565b905084811015611c13576040517f08c379a0000000000000000000000000000000000000000000000000000000008152600401611c0a9061274b565b60405180910390fd5b600560009054906101000a900473ffffffffffffffffffffffffffffffffffffffff1673ffffffffffffffffffffffffffffffffffffffff1663a9059cbb85836040518363ffffffff1660e01b8152600401611c709291906125a5565b602060405180830381600087803b158015611c8a57600080fd5b505af1158015611c9e573d6000803e3d6000fd5b505050506040513d601f19601f82011682018060405250810190611cc29190612090565b50348473ffffffffffffffffffffffffffffffffffffffff167f2ad51a6b79c1a35468e5cc340ef09004400e337e1d1149aab02294fdb7f8f05583604051611d0a919061288b565b60405180910390a35050505050565b600073ffffffffffffffffffffffffffffffffffffffff168273ffffffffffffffffffffffffffffffffffffffff161415611d89576040517f08c379a0000000000000000000000000000000000000000000000000000000008152600401611d809061278b565b60405180910390fd5b611d9582600083611ef0565b60008060008473ffffffffffffffffffffffffffffffffffffffff1673ffffffffffffffffffffffffffffffffffffffff16815260200190815260200160002054905081811015611e1b576040517f08c379a0000000000000000000000000000000000000000000000000000000008152600401611e129061262b565b60405180910390fd5b8181036000808573ffffffffffffffffffffffffffffffffffffffff1673ffffffffffffffffffffffffffffffffffffffff168152602001908152602001600020819055508160026000828254611e729190612a1b565b92505081905550600073ffffffffffffffffffffffffffffffffffffffff168373ffffffffffffffffffffffffffffffffffffffff167fddf252ad1be2c89b69c2b068fc378daa952ba7f163c4a11628f55a4df523b3ef84604051611ed7919061288b565b60405180910390a3611eeb83600084611ef5565b505050565b505050565b505050565b600081359050611f09816130f7565b92915050565b600081519050611f1e816130f7565b92915050565b600081519050611f338161310e565b92915050565b600081359050611f4881613125565b92915050565b600081519050611f5d81613125565b92915050565b600060208284031215611f7957611f78612b96565b5b6000611f8784828501611efa565b91505092915050565b600060208284031215611fa657611fa5612b96565b5b6000611fb484828501611f0f565b91505092915050565b60008060408385031215611fd457611fd3612b96565b5b6000611fe285828601611efa565b9250506020611ff385828601611efa565b9150509250929050565b60008060006060848603121561201657612015612b96565b5b600061202486828701611efa565b935050602061203586828701611efa565b925050604061204686828701611f39565b9150509250925092565b6000806040838503121561206757612066612b96565b5b600061207585828601611efa565b925050602061208685828601611f39565b9150509250929050565b6000602082840312156120a6576120a5612b96565b5b60006120b484828501611f24565b91505092915050565b6000602082840312156120d3576120d2612b96565b5b60006120e184828501611f39565b91505092915050565b600060208284031215612100576120ff612b96565b5b600061210e84828501611f4e565b91505092915050565b6000806040838503121561212e5761212d612b96565b5b600061213c85828601611f39565b925050602061214d85828601611efa565b9150509250929050565b6000806040838503121561216e5761216d612b96565b5b600061217c85828601611f39565b925050602061218d85828601611f39565b9150509250929050565b6000806000606084860312156121b0576121af612b96565b5b60006121be86828701611f39565b93505060206121cf86828701611f39565b92505060406121e086828701611efa565b9150509250925092565b6121f381612a4f565b82525050565b61220281612a61565b82525050565b600061221382612913565b61221d8185612929565b935061222d818560208601612aa4565b61223681612b9b565b840191505092915050565b600061224e602383612929565b915061225982612bac565b604082019050919050565b6000612271602283612929565b915061227c82612bfb565b604082019050919050565b6000612294602283612929565b915061229f82612c4a565b604082019050919050565b60006122b7602983612929565b91506122c282612c99565b604082019050919050565b60006122da601d83612929565b91506122e582612ce8565b602082019050919050565b60006122fd602683612929565b915061230882612d11565b604082019050919050565b6000612320602683612929565b915061232b82612d60565b604082019050919050565b6000612343601883612929565b915061234e82612daf565b602082019050919050565b6000612366601a83612929565b915061237182612dd8565b602082019050919050565b6000612389601883612929565b915061239482612e01565b602082019050919050565b60006123ac604383612929565b91506123b782612e2a565b606082019050919050565b60006123cf603783612929565b91506123da82612e9f565b604082019050919050565b60006123f2602183612929565b91506123fd82612eee565b604082019050919050565b6000612415601983612929565b915061242082612f3d565b602082019050919050565b6000612438602583612929565b915061244382612f66565b604082019050919050565b600061245b602583612929565b915061246682612fb5565b604082019050919050565b600061247e60008361291e565b915061248982613004565b600082019050919050565b60006124a1601583612929565b91506124ac82613007565b602082019050919050565b60006124c4602483612929565b91506124cf82613030565b604082019050919050565b60006124e7602583612929565b91506124f28261307f565b604082019050919050565b600061250a601f83612929565b9150612515826130ce565b602082019050919050565b61252981612a8d565b82525050565b61253881612a97565b82525050565b600061254982612471565b9150819050919050565b600060208201905061256860008301846121ea565b92915050565b600060608201905061258360008301866121ea565b61259060208301856121ea565b61259d6040830184612520565b949350505050565b60006040820190506125ba60008301856121ea565b6125c76020830184612520565b9392505050565b60006020820190506125e360008301846121f9565b92915050565b600060208201905081810360008301526126038184612208565b905092915050565b6000602082019050818103600083015261262481612241565b9050919050565b6000602082019050818103600083015261264481612264565b9050919050565b6000602082019050818103600083015261266481612287565b9050919050565b60006020820190508181036000830152612684816122aa565b9050919050565b600060208201905081810360008301526126a4816122cd565b9050919050565b600060208201905081810360008301526126c4816122f0565b9050919050565b600060208201905081810360008301526126e481612313565b9050919050565b6000602082019050818103600083015261270481612336565b9050919050565b6000602082019050818103600083015261272481612359565b9050919050565b600060208201905081810360008301526127448161237c565b9050919050565b600060208201905081810360008301526127648161239f565b9050919050565b60006020820190508181036000830152612784816123c2565b9050919050565b600060208201905081810360008301526127a4816123e5565b9050919050565b600060208201905081810360008301526127c481612408565b9050919050565b600060208201905081810360008301526127e48161242b565b9050919050565b600060208201905081810360008301526128048161244e565b9050919050565b6000602082019050818103600083015261282481612494565b9050919050565b60006020820190508181036000830152612844816124b7565b9050919050565b60006020820190508181036000830152612864816124da565b9050919050565b60006020820190508181036000830152612884816124fd565b9050919050565b60006020820190506128a06000830184612520565b92915050565b60006040820190506128bb6000830185612520565b6128c860208301846121ea565b9392505050565b60006040820190506128e46000830185612520565b6128f16020830184612520565b9392505050565b600060208201905061290d600083018461252f565b92915050565b600081519050919050565b600081905092915050565b600082825260208201905092915050565b600061294582612a8d565b915061295083612a8d565b9250827fffffffffffffffffffffffffffffffffffffffffffffffffffffffffffffffff0382111561298557612984612b09565b5b828201905092915050565b600061299b82612a8d565b91506129a683612a8d565b9250826129b6576129b5612b38565b5b828204905092915050565b60006129cc82612a8d565b91506129d783612a8d565b9250817fffffffffffffffffffffffffffffffffffffffffffffffffffffffffffffffff0483118215151615612a1057612a0f612b09565b5b828202905092915050565b6000612a2682612a8d565b9150612a3183612a8d565b925082821015612a4457612a43612b09565b5b828203905092915050565b6000612a5a82612a6d565b9050919050565b60008115159050919050565b600073ffffffffffffffffffffffffffffffffffffffff82169050919050565b6000819050919050565b600060ff82169050919050565b60005b83811015612ac2578082015181840152602081019050612aa7565b83811115612ad1576000848401525b50505050565b60006002820490506001821680612aef57607f821691505b60208210811415612b0357612b02612b67565b5b50919050565b7f4e487b7100000000000000000000000000000000000000000000000000000000600052601160045260246000fd5b7f4e487b7100000000000000000000000000000000000000000000000000000000600052601260045260246000fd5b7f4e487b7100000000000000000000000000000000000000000000000000000000600052602260045260246000fd5b600080fd5b6000601f19601f8301169050919050565b7f45524332303a207472616e7366657220746f20746865207a65726f206164647260008201527f6573730000000000000000000000000000000000000000000000000000000000602082015250565b7f45524332303a206275726e20616d6f756e7420657863656564732062616c616e60008201527f6365000000000000000000000000000000000000000000000000000000000000602082015250565b7f45524332303a20617070726f766520746f20746865207a65726f20616464726560008201527f7373000000000000000000000000000000000000000000000000000000000000602082015250565b7f496e73756666696369656e7420696e70757420616d6f756e74206f662045524360008201527f323020546f6b656e730000000000000000000000000000000000000000000000602082015250565b7f45524332303a20696e73756666696369656e7420616c6c6f77616e6365000000600082015250565b7f45524332303a207472616e7366657220616d6f756e742065786365656473206260008201527f616c616e63650000000000000000000000000000000000000000000000000000602082015250565b7f5472616e73616374696f6e206f662045544820746f20726563697069656e742060008201527f6661696c65640000000000000000000000000000000000000000000000000000602082015250565b7f546f6b656e206164647265737320697320696e76616c69640000000000000000600082015250565b7f496e76616c696420696e70757420746f6b656e20616d6f756e74000000000000600082015250565b7f496e76616c69642065786368616e676520616464726573730000000000000000600082015250565b7f416d6f756e74207377617070656420646f6573206e6f74206d65657420796f7560008201527f722073746970756c6174656420616d6f756e742c20726576657274696e67207360208201527f7761700000000000000000000000000000000000000000000000000000000000604082015250565b7f506c6561736520696e70757420612076616c696420616d6f756e74206f66204c60008201527f5020546f6b656e7320746f206275726e2f72656465656d000000000000000000602082015250565b7f45524332303a206275726e2066726f6d20746865207a65726f2061646472657360008201527f7300000000000000000000000000000000000000000000000000000000000000602082015250565b7f45544820616d6f756e742063616e6e6f74206265207a65726f00000000000000600082015250565b7f45524332303a207472616e736665722066726f6d20746865207a65726f20616460008201527f6472657373000000000000000000000000000000000000000000000000000000602082015250565b7f5472616e73616374696f6e206f662045746865722077617320756e737563636560008201527f737366756c000000000000000000000000000000000000000000000000000000602082015250565b50565b7f546865726520617265206e6f2072657365727665730000000000000000000000600082015250565b7f45524332303a20617070726f76652066726f6d20746865207a65726f2061646460008201527f7265737300000000000000000000000000000000000000000000000000000000602082015250565b7f45524332303a2064656372656173656420616c6c6f77616e63652062656c6f7760008201527f207a65726f000000000000000000000000000000000000000000000000000000602082015250565b7f45524332303a206d696e7420746f20746865207a65726f206164647265737300600082015250565b61310081612a4f565b811461310b57600080fd5b50565b61311781612a61565b811461312257600080fd5b50565b61312e81612a8d565b811461313957600080fd5b5056fea2646970667358221220f2b9b2bf8d4922ef6911dbd25776a7efa86d461d191c331d4202d285465f678b64736f6c63430008070033a2646970667358221220c88e8f478d0192fbf7f0077f9315443bcd5b5593a02320cd13368838c85d569864736f6c63430008070033",
			"opcodes": "PUSH1 0x80 PUSH1 0x40 MSTORE CALLVALUE DUP1 ISZERO PUSH2 0x10 JUMPI PUSH1 0x0 DUP1 REVERT JUMPDEST POP PUSH2 0x3C00 DUP1 PUSH2 0x20 PUSH1 0x0 CODECOPY PUSH1 0x0 RETURN INVALID PUSH1 0x80 PUSH1 0x40 MSTORE CALLVALUE DUP1 ISZERO PUSH3 0x11 JUMPI PUSH1 0x0 DUP1 REVERT JUMPDEST POP PUSH1 0x4 CALLDATASIZE LT PUSH3 0x46 JUMPI PUSH1 0x0 CALLDATALOAD PUSH1 0xE0 SHR DUP1 PUSH4 0x1A788A02 EQ PUSH3 0x4B JUMPI DUP1 PUSH4 0x9CCB0744 EQ PUSH3 0x81 JUMPI DUP1 PUSH4 0xFE33B302 EQ PUSH3 0xB7 JUMPI JUMPDEST PUSH1 0x0 DUP1 REVERT JUMPDEST PUSH3 0x69 PUSH1 0x4 DUP1 CALLDATASIZE SUB DUP2 ADD SWAP1 PUSH3 0x63 SWAP2 SWAP1 PUSH3 0x427 JUMP JUMPDEST PUSH3 0xED JUMP JUMPDEST PUSH1 0x40 MLOAD PUSH3 0x78 SWAP2 SWAP1 PUSH3 0x4DF JUMP JUMPDEST PUSH1 0x40 MLOAD DUP1 SWAP2 SUB SWAP1 RETURN JUMPDEST PUSH3 0x9F PUSH1 0x4 DUP1 CALLDATASIZE SUB DUP2 ADD SWAP1 PUSH3 0x99 SWAP2 SWAP1 PUSH3 0x427 JUMP JUMPDEST PUSH3 0x1C8 JUMP JUMPDEST PUSH1 0x40 MLOAD PUSH3 0xAE SWAP2 SWAP1 PUSH3 0x4DF JUMP JUMPDEST PUSH1 0x40 MLOAD DUP1 SWAP2 SUB SWAP1 RETURN JUMPDEST PUSH3 0xD5 PUSH1 0x4 DUP1 CALLDATASIZE SUB DUP2 ADD SWAP1 PUSH3 0xCF SWAP2 SWAP1 PUSH3 0x427 JUMP JUMPDEST PUSH3 0x3CF JUMP JUMPDEST PUSH1 0x40 MLOAD PUSH3 0xE4 SWAP2 SWAP1 PUSH3 0x4DF JUMP JUMPDEST PUSH1 0x40 MLOAD DUP1 SWAP2 SUB SWAP1 RETURN JUMPDEST PUSH1 0x0 DUP1 PUSH1 0x0 DUP4 PUSH20 0xFFFFFFFFFFFFFFFFFFFFFFFFFFFFFFFFFFFFFFFF AND PUSH20 0xFFFFFFFFFFFFFFFFFFFFFFFFFFFFFFFFFFFFFFFF AND DUP2 MSTORE PUSH1 0x20 ADD SWAP1 DUP2 MSTORE PUSH1 0x20 ADD PUSH1 0x0 KECCAK256 PUSH1 0x0 SWAP1 SLOAD SWAP1 PUSH2 0x100 EXP SWAP1 DIV PUSH20 0xFFFFFFFFFFFFFFFFFFFFFFFFFFFFFFFFFFFFFFFF AND SWAP1 POP PUSH1 0x0 PUSH20 0xFFFFFFFFFFFFFFFFFFFFFFFFFFFFFFFFFFFFFFFF AND DUP2 PUSH20 0xFFFFFFFFFFFFFFFFFFFFFFFFFFFFFFFFFFFFFFFF AND EQ ISZERO PUSH3 0x1C3 JUMPI PUSH1 0x40 MLOAD PUSH32 0x8C379A000000000000000000000000000000000000000000000000000000000 DUP2 MSTORE PUSH1 0x4 ADD PUSH3 0x1BA SWAP1 PUSH3 0x4FC JUMP JUMPDEST PUSH1 0x40 MLOAD DUP1 SWAP2 SUB SWAP1 REVERT JUMPDEST SWAP2 SWAP1 POP JUMP JUMPDEST PUSH1 0x0 DUP1 PUSH20 0xFFFFFFFFFFFFFFFFFFFFFFFFFFFFFFFFFFFFFFFF AND DUP3 PUSH20 0xFFFFFFFFFFFFFFFFFFFFFFFFFFFFFFFFFFFFFFFF AND EQ ISZERO PUSH3 0x23C JUMPI PUSH1 0x40 MLOAD PUSH32 0x8C379A000000000000000000000000000000000000000000000000000000000 DUP2 MSTORE PUSH1 0x4 ADD PUSH3 0x233 SWAP1 PUSH3 0x51E JUMP JUMPDEST PUSH1 0x40 MLOAD DUP1 SWAP2 SUB SWAP1 REVERT JUMPDEST PUSH1 0x0 PUSH20 0xFFFFFFFFFFFFFFFFFFFFFFFFFFFFFFFFFFFFFFFF AND PUSH1 0x0 DUP1 DUP5 PUSH20 0xFFFFFFFFFFFFFFFFFFFFFFFFFFFFFFFFFFFFFFFF AND PUSH20 0xFFFFFFFFFFFFFFFFFFFFFFFFFFFFFFFFFFFFFFFF AND DUP2 MSTORE PUSH1 0x20 ADD SWAP1 DUP2 MSTORE PUSH1 0x20 ADD PUSH1 0x0 KECCAK256 PUSH1 0x0 SWAP1 SLOAD SWAP1 PUSH2 0x100 EXP SWAP1 DIV PUSH20 0xFFFFFFFFFFFFFFFFFFFFFFFFFFFFFFFFFFFFFFFF AND PUSH20 0xFFFFFFFFFFFFFFFFFFFFFFFFFFFFFFFFFFFFFFFF AND EQ PUSH3 0x30C JUMPI PUSH1 0x40 MLOAD PUSH32 0x8C379A000000000000000000000000000000000000000000000000000000000 DUP2 MSTORE PUSH1 0x4 ADD PUSH3 0x303 SWAP1 PUSH3 0x540 JUMP JUMPDEST PUSH1 0x40 MLOAD DUP1 SWAP2 SUB SWAP1 REVERT JUMPDEST PUSH1 0x0 DUP3 PUSH1 0x40 MLOAD PUSH3 0x31D SWAP1 PUSH3 0x402 JUMP JUMPDEST PUSH3 0x329 SWAP2 SWAP1 PUSH3 0x4DF JUMP JUMPDEST PUSH1 0x40 MLOAD DUP1 SWAP2 SUB SWAP1 PUSH1 0x0 CREATE DUP1 ISZERO DUP1 ISZERO PUSH3 0x346 JUMPI RETURNDATASIZE PUSH1 0x0 DUP1 RETURNDATACOPY RETURNDATASIZE PUSH1 0x0 REVERT JUMPDEST POP SWAP1 POP DUP1 PUSH1 0x0 DUP1 DUP6 PUSH20 0xFFFFFFFFFFFFFFFFFFFFFFFFFFFFFFFFFFFFFFFF AND PUSH20 0xFFFFFFFFFFFFFFFFFFFFFFFFFFFFFFFFFFFFFFFF AND DUP2 MSTORE PUSH1 0x20 ADD SWAP1 DUP2 MSTORE PUSH1 0x20 ADD PUSH1 0x0 KECCAK256 PUSH1 0x0 PUSH2 0x100 EXP DUP2 SLOAD DUP2 PUSH20 0xFFFFFFFFFFFFFFFFFFFFFFFFFFFFFFFFFFFFFFFF MUL NOT AND SWAP1 DUP4 PUSH20 0xFFFFFFFFFFFFFFFFFFFFFFFFFFFFFFFFFFFFFFFF AND MUL OR SWAP1 SSTORE POP DUP1 SWAP2 POP POP SWAP2 SWAP1 POP JUMP JUMPDEST PUSH1 0x0 PUSH1 0x20 MSTORE DUP1 PUSH1 0x0 MSTORE PUSH1 0x40 PUSH1 0x0 KECCAK256 PUSH1 0x0 SWAP2 POP SLOAD SWAP1 PUSH2 0x100 EXP SWAP1 DIV PUSH20 0xFFFFFFFFFFFFFFFFFFFFFFFFFFFFFFFFFFFFFFFF AND DUP2 JUMP JUMPDEST PUSH2 0x3589 DUP1 PUSH3 0x642 DUP4 CODECOPY ADD SWAP1 JUMP JUMPDEST PUSH1 0x0 DUP2 CALLDATALOAD SWAP1 POP PUSH3 0x421 DUP2 PUSH3 0x627 JUMP JUMPDEST SWAP3 SWAP2 POP POP JUMP JUMPDEST PUSH1 0x0 PUSH1 0x20 DUP3 DUP5 SUB SLT ISZERO PUSH3 0x440 JUMPI PUSH3 0x43F PUSH3 0x5A7 JUMP JUMPDEST JUMPDEST PUSH1 0x0 PUSH3 0x450 DUP5 DUP3 DUP6 ADD PUSH3 0x410 JUMP JUMPDEST SWAP2 POP POP SWAP3 SWAP2 POP POP JUMP JUMPDEST PUSH3 0x464 DUP2 PUSH3 0x573 JUMP JUMPDEST DUP3 MSTORE POP POP JUMP JUMPDEST PUSH1 0x0 PUSH3 0x479 PUSH1 0x13 DUP4 PUSH3 0x562 JUMP JUMPDEST SWAP2 POP PUSH3 0x486 DUP3 PUSH3 0x5AC JUMP JUMPDEST PUSH1 0x20 DUP3 ADD SWAP1 POP SWAP2 SWAP1 POP JUMP JUMPDEST PUSH1 0x0 PUSH3 0x4A0 PUSH1 0x15 DUP4 PUSH3 0x562 JUMP JUMPDEST SWAP2 POP PUSH3 0x4AD DUP3 PUSH3 0x5D5 JUMP JUMPDEST PUSH1 0x20 DUP3 ADD SWAP1 POP SWAP2 SWAP1 POP JUMP JUMPDEST PUSH1 0x0 PUSH3 0x4C7 PUSH1 0x18 DUP4 PUSH3 0x562 JUMP JUMPDEST SWAP2 POP PUSH3 0x4D4 DUP3 PUSH3 0x5FE JUMP JUMPDEST PUSH1 0x20 DUP3 ADD SWAP1 POP SWAP2 SWAP1 POP JUMP JUMPDEST PUSH1 0x0 PUSH1 0x20 DUP3 ADD SWAP1 POP PUSH3 0x4F6 PUSH1 0x0 DUP4 ADD DUP5 PUSH3 0x459 JUMP JUMPDEST SWAP3 SWAP2 POP POP JUMP JUMPDEST PUSH1 0x0 PUSH1 0x20 DUP3 ADD SWAP1 POP DUP2 DUP2 SUB PUSH1 0x0 DUP4 ADD MSTORE PUSH3 0x517 DUP2 PUSH3 0x46A JUMP JUMPDEST SWAP1 POP SWAP2 SWAP1 POP JUMP JUMPDEST PUSH1 0x0 PUSH1 0x20 DUP3 ADD SWAP1 POP DUP2 DUP2 SUB PUSH1 0x0 DUP4 ADD MSTORE PUSH3 0x539 DUP2 PUSH3 0x491 JUMP JUMPDEST SWAP1 POP SWAP2 SWAP1 POP JUMP JUMPDEST PUSH1 0x0 PUSH1 0x20 DUP3 ADD SWAP1 POP DUP2 DUP2 SUB PUSH1 0x0 DUP4 ADD MSTORE PUSH3 0x55B DUP2 PUSH3 0x4B8 JUMP JUMPDEST SWAP1 POP SWAP2 SWAP1 POP JUMP JUMPDEST PUSH1 0x0 DUP3 DUP3 MSTORE PUSH1 0x20 DUP3 ADD SWAP1 POP SWAP3 SWAP2 POP POP JUMP JUMPDEST PUSH1 0x0 PUSH3 0x580 DUP3 PUSH3 0x587 JUMP JUMPDEST SWAP1 POP SWAP2 SWAP1 POP JUMP JUMPDEST PUSH1 0x0 PUSH20 0xFFFFFFFFFFFFFFFFFFFFFFFFFFFFFFFFFFFFFFFF DUP3 AND SWAP1 POP SWAP2 SWAP1 POP JUMP JUMPDEST PUSH1 0x0 DUP1 REVERT JUMPDEST PUSH32 0x5061697220646F6573206E6F7420657869737400000000000000000000000000 PUSH1 0x0 DUP3 ADD MSTORE POP JUMP JUMPDEST PUSH32 0x696E76616C696420746F6B656E20616464726573730000000000000000000000 PUSH1 0x0 DUP3 ADD MSTORE POP JUMP JUMPDEST PUSH32 0x54686973207061697220616C7265616479206578697374730000000000000000 PUSH1 0x0 DUP3 ADD MSTORE POP JUMP JUMPDEST PUSH3 0x632 DUP2 PUSH3 0x573 JUMP JUMPDEST DUP2 EQ PUSH3 0x63E JUMPI PUSH1 0x0 DUP1 REVERT JUMPDEST POP JUMP INVALID PUSH1 0x80 PUSH1 0x40 MSTORE CALLVALUE DUP1 ISZERO PUSH3 0x11 JUMPI PUSH1 0x0 DUP1 REVERT JUMPDEST POP PUSH1 0x40 MLOAD PUSH3 0x3589 CODESIZE SUB DUP1 PUSH3 0x3589 DUP4 CODECOPY DUP2 DUP2 ADD PUSH1 0x40 MSTORE DUP2 ADD SWAP1 PUSH3 0x37 SWAP2 SWAP1 PUSH3 0x29A JUMP JUMPDEST PUSH1 0x40 MLOAD DUP1 PUSH1 0x40 ADD PUSH1 0x40 MSTORE DUP1 PUSH1 0x7 DUP2 MSTORE PUSH1 0x20 ADD PUSH32 0x5377617020563100000000000000000000000000000000000000000000000000 DUP2 MSTORE POP PUSH1 0x40 MLOAD DUP1 PUSH1 0x40 ADD PUSH1 0x40 MSTORE DUP1 PUSH1 0x7 DUP2 MSTORE PUSH1 0x20 ADD PUSH32 0x537761702D563100000000000000000000000000000000000000000000000000 DUP2 MSTORE POP DUP2 PUSH1 0x3 SWAP1 DUP1 MLOAD SWAP1 PUSH1 0x20 ADD SWAP1 PUSH3 0xBB SWAP3 SWAP2 SWAP1 PUSH3 0x1D3 JUMP JUMPDEST POP DUP1 PUSH1 0x4 SWAP1 DUP1 MLOAD SWAP1 PUSH1 0x20 ADD SWAP1 PUSH3 0xD4 SWAP3 SWAP2 SWAP1 PUSH3 0x1D3 JUMP JUMPDEST POP POP POP PUSH1 0x0 PUSH20 0xFFFFFFFFFFFFFFFFFFFFFFFFFFFFFFFFFFFFFFFF AND DUP2 PUSH20 0xFFFFFFFFFFFFFFFFFFFFFFFFFFFFFFFFFFFFFFFF AND EQ ISZERO PUSH3 0x14A JUMPI PUSH1 0x40 MLOAD PUSH32 0x8C379A000000000000000000000000000000000000000000000000000000000 DUP2 MSTORE PUSH1 0x4 ADD PUSH3 0x141 SWAP1 PUSH3 0x2F3 JUMP JUMPDEST PUSH1 0x40 MLOAD DUP1 SWAP2 SUB SWAP1 REVERT JUMPDEST DUP1 PUSH1 0x5 PUSH1 0x0 PUSH2 0x100 EXP DUP2 SLOAD DUP2 PUSH20 0xFFFFFFFFFFFFFFFFFFFFFFFFFFFFFFFFFFFFFFFF MUL NOT AND SWAP1 DUP4 PUSH20 0xFFFFFFFFFFFFFFFFFFFFFFFFFFFFFFFFFFFFFFFF AND MUL OR SWAP1 SSTORE POP CALLER PUSH1 0x6 PUSH1 0x0 PUSH2 0x100 EXP DUP2 SLOAD DUP2 PUSH20 0xFFFFFFFFFFFFFFFFFFFFFFFFFFFFFFFFFFFFFFFF MUL NOT AND SWAP1 DUP4 PUSH20 0xFFFFFFFFFFFFFFFFFFFFFFFFFFFFFFFFFFFFFFFF AND MUL OR SWAP1 SSTORE POP POP PUSH3 0x407 JUMP JUMPDEST DUP3 DUP1 SLOAD PUSH3 0x1E1 SWAP1 PUSH3 0x35A JUMP JUMPDEST SWAP1 PUSH1 0x0 MSTORE PUSH1 0x20 PUSH1 0x0 KECCAK256 SWAP1 PUSH1 0x1F ADD PUSH1 0x20 SWAP1 DIV DUP2 ADD SWAP3 DUP3 PUSH3 0x205 JUMPI PUSH1 0x0 DUP6 SSTORE PUSH3 0x251 JUMP JUMPDEST DUP3 PUSH1 0x1F LT PUSH3 0x220 JUMPI DUP1 MLOAD PUSH1 0xFF NOT AND DUP4 DUP1 ADD OR DUP6 SSTORE PUSH3 0x251 JUMP JUMPDEST DUP3 DUP1 ADD PUSH1 0x1 ADD DUP6 SSTORE DUP3 ISZERO PUSH3 0x251 JUMPI SWAP2 DUP3 ADD JUMPDEST DUP3 DUP2 GT ISZERO PUSH3 0x250 JUMPI DUP3 MLOAD DUP3 SSTORE SWAP2 PUSH1 0x20 ADD SWAP2 SWAP1 PUSH1 0x1 ADD SWAP1 PUSH3 0x233 JUMP JUMPDEST JUMPDEST POP SWAP1 POP PUSH3 0x260 SWAP2 SWAP1 PUSH3 0x264 JUMP JUMPDEST POP SWAP1 JUMP JUMPDEST JUMPDEST DUP1 DUP3 GT ISZERO PUSH3 0x27F JUMPI PUSH1 0x0 DUP2 PUSH1 0x0 SWAP1 SSTORE POP PUSH1 0x1 ADD PUSH3 0x265 JUMP JUMPDEST POP SWAP1 JUMP JUMPDEST PUSH1 0x0 DUP2 MLOAD SWAP1 POP PUSH3 0x294 DUP2 PUSH3 0x3ED JUMP JUMPDEST SWAP3 SWAP2 POP POP JUMP JUMPDEST PUSH1 0x0 PUSH1 0x20 DUP3 DUP5 SUB SLT ISZERO PUSH3 0x2B3 JUMPI PUSH3 0x2B2 PUSH3 0x3BF JUMP JUMPDEST JUMPDEST PUSH1 0x0 PUSH3 0x2C3 DUP5 DUP3 DUP6 ADD PUSH3 0x283 JUMP JUMPDEST SWAP2 POP POP SWAP3 SWAP2 POP POP JUMP JUMPDEST PUSH1 0x0 PUSH3 0x2DB PUSH1 0xF DUP4 PUSH3 0x315 JUMP JUMPDEST SWAP2 POP PUSH3 0x2E8 DUP3 PUSH3 0x3C4 JUMP JUMPDEST PUSH1 0x20 DUP3 ADD SWAP1 POP SWAP2 SWAP1 POP JUMP JUMPDEST PUSH1 0x0 PUSH1 0x20 DUP3 ADD SWAP1 POP DUP2 DUP2 SUB PUSH1 0x0 DUP4 ADD MSTORE PUSH3 0x30E DUP2 PUSH3 0x2CC JUMP JUMPDEST SWAP1 POP SWAP2 SWAP1 POP JUMP JUMPDEST PUSH1 0x0 DUP3 DUP3 MSTORE PUSH1 0x20 DUP3 ADD SWAP1 POP SWAP3 SWAP2 POP POP JUMP JUMPDEST PUSH1 0x0 PUSH3 0x333 DUP3 PUSH3 0x33A JUMP JUMPDEST SWAP1 POP SWAP2 SWAP1 POP JUMP JUMPDEST PUSH1 0x0 PUSH20 0xFFFFFFFFFFFFFFFFFFFFFFFFFFFFFFFFFFFFFFFF DUP3 AND SWAP1 POP SWAP2 SWAP1 POP JUMP JUMPDEST PUSH1 0x0 PUSH1 0x2 DUP3 DIV SWAP1 POP PUSH1 0x1 DUP3 AND DUP1 PUSH3 0x373 JUMPI PUSH1 0x7F DUP3 AND SWAP2 POP JUMPDEST PUSH1 0x20 DUP3 LT DUP2 EQ ISZERO PUSH3 0x38A JUMPI PUSH3 0x389 PUSH3 0x390 JUMP JUMPDEST JUMPDEST POP SWAP2 SWAP1 POP JUMP JUMPDEST PUSH32 0x4E487B7100000000000000000000000000000000000000000000000000000000 PUSH1 0x0 MSTORE PUSH1 0x22 PUSH1 0x4 MSTORE PUSH1 0x24 PUSH1 0x0 REVERT JUMPDEST PUSH1 0x0 DUP1 REVERT JUMPDEST PUSH32 0x496E76616C696420616464726573730000000000000000000000000000000000 PUSH1 0x0 DUP3 ADD MSTORE POP JUMP JUMPDEST PUSH3 0x3F8 DUP2 PUSH3 0x326 JUMP JUMPDEST DUP2 EQ PUSH3 0x404 JUMPI PUSH1 0x0 DUP1 REVERT JUMPDEST POP JUMP JUMPDEST PUSH2 0x3172 DUP1 PUSH3 0x417 PUSH1 0x0 CODECOPY PUSH1 0x0 RETURN INVALID PUSH1 0x80 PUSH1 0x40 MSTORE PUSH1 0x4 CALLDATASIZE LT PUSH2 0x135 JUMPI PUSH1 0x0 CALLDATALOAD PUSH1 0xE0 SHR DUP1 PUSH4 0x6E9E8116 GT PUSH2 0xAB JUMPI DUP1 PUSH4 0x9D76EA58 GT PUSH2 0x6F JUMPI DUP1 PUSH4 0x9D76EA58 EQ PUSH2 0x45E JUMPI DUP1 PUSH4 0xA457C2D7 EQ PUSH2 0x489 JUMPI DUP1 PUSH4 0xA9059CBB EQ PUSH2 0x4C6 JUMPI DUP1 PUSH4 0xAE0AAEA3 EQ PUSH2 0x503 JUMPI DUP1 PUSH4 0xDD62ED3E EQ PUSH2 0x51F JUMPI DUP1 PUSH4 0xF7A7E324 EQ PUSH2 0x55C JUMPI PUSH2 0x135 JUMP JUMPDEST DUP1 PUSH4 0x6E9E8116 EQ PUSH2 0x371 JUMPI DUP1 PUSH4 0x70A08231 EQ PUSH2 0x38D JUMPI DUP1 PUSH4 0x95D89B41 EQ PUSH2 0x3CA JUMPI DUP1 PUSH4 0x966DAE0E EQ PUSH2 0x3F5 JUMPI DUP1 PUSH4 0x9C8F9F23 EQ PUSH2 0x420 JUMPI PUSH2 0x135 JUMP JUMPDEST DUP1 PUSH4 0x23B872DD GT PUSH2 0xFD JUMPI DUP1 PUSH4 0x23B872DD EQ PUSH2 0x236 JUMPI DUP1 PUSH4 0x2C0C60A4 EQ PUSH2 0x273 JUMPI DUP1 PUSH4 0x313CE567 EQ PUSH2 0x2B0 JUMPI DUP1 PUSH4 0x39509351 EQ PUSH2 0x2DB JUMPI DUP1 PUSH4 0x51C6590A EQ PUSH2 0x318 JUMPI DUP1 PUSH4 0x64338A30 EQ PUSH2 0x348 JUMPI PUSH2 0x135 JUMP JUMPDEST DUP1 PUSH4 0x6FDDE03 EQ PUSH2 0x13A JUMPI DUP1 PUSH4 0x902F1AC EQ PUSH2 0x165 JUMPI DUP1 PUSH4 0x95EA7B3 EQ PUSH2 0x191 JUMPI DUP1 PUSH4 0xF8070B4 EQ PUSH2 0x1CE JUMPI DUP1 PUSH4 0x18160DDD EQ PUSH2 0x20B JUMPI JUMPDEST PUSH1 0x0 DUP1 REVERT JUMPDEST CALLVALUE DUP1 ISZERO PUSH2 0x146 JUMPI PUSH1 0x0 DUP1 REVERT JUMPDEST POP PUSH2 0x14F PUSH2 0x585 JUMP JUMPDEST PUSH1 0x40 MLOAD PUSH2 0x15C SWAP2 SWAP1 PUSH2 0x25E9 JUMP JUMPDEST PUSH1 0x40 MLOAD DUP1 SWAP2 SUB SWAP1 RETURN JUMPDEST CALLVALUE DUP1 ISZERO PUSH2 0x171 JUMPI PUSH1 0x0 DUP1 REVERT JUMPDEST POP PUSH2 0x17A PUSH2 0x617 JUMP JUMPDEST PUSH1 0x40 MLOAD PUSH2 0x188 SWAP3 SWAP2 SWAP1 PUSH2 0x28CF JUMP JUMPDEST PUSH1 0x40 MLOAD DUP1 SWAP2 SUB SWAP1 RETURN JUMPDEST CALLVALUE DUP1 ISZERO PUSH2 0x19D JUMPI PUSH1 0x0 DUP1 REVERT JUMPDEST POP PUSH2 0x1B8 PUSH1 0x4 DUP1 CALLDATASIZE SUB DUP2 ADD SWAP1 PUSH2 0x1B3 SWAP2 SWAP1 PUSH2 0x2050 JUMP JUMPDEST PUSH2 0x6CE JUMP JUMPDEST PUSH1 0x40 MLOAD PUSH2 0x1C5 SWAP2 SWAP1 PUSH2 0x25CE JUMP JUMPDEST PUSH1 0x40 MLOAD DUP1 SWAP2 SUB SWAP1 RETURN JUMPDEST CALLVALUE DUP1 ISZERO PUSH2 0x1DA JUMPI PUSH1 0x0 DUP1 REVERT JUMPDEST POP PUSH2 0x1F5 PUSH1 0x4 DUP1 CALLDATASIZE SUB DUP2 ADD SWAP1 PUSH2 0x1F0 SWAP2 SWAP1 PUSH2 0x20BD JUMP JUMPDEST PUSH2 0x6F1 JUMP JUMPDEST PUSH1 0x40 MLOAD PUSH2 0x202 SWAP2 SWAP1 PUSH2 0x288B JUMP JUMPDEST PUSH1 0x40 MLOAD DUP1 SWAP2 SUB SWAP1 RETURN JUMPDEST CALLVALUE DUP1 ISZERO PUSH2 0x217 JUMPI PUSH1 0x0 DUP1 REVERT JUMPDEST POP PUSH2 0x220 PUSH2 0x758 JUMP JUMPDEST PUSH1 0x40 MLOAD PUSH2 0x22D SWAP2 SWAP1 PUSH2 0x288B JUMP JUMPDEST PUSH1 0x40 MLOAD DUP1 SWAP2 SUB SWAP1 RETURN JUMPDEST CALLVALUE DUP1 ISZERO PUSH2 0x242 JUMPI PUSH1 0x0 DUP1 REVERT JUMPDEST POP PUSH2 0x25D PUSH1 0x4 DUP1 CALLDATASIZE SUB DUP2 ADD SWAP1 PUSH2 0x258 SWAP2 SWAP1 PUSH2 0x1FFD JUMP JUMPDEST PUSH2 0x762 JUMP JUMPDEST PUSH1 0x40 MLOAD PUSH2 0x26A SWAP2 SWAP1 PUSH2 0x25CE JUMP JUMPDEST PUSH1 0x40 MLOAD DUP1 SWAP2 SUB SWAP1 RETURN JUMPDEST CALLVALUE DUP1 ISZERO PUSH2 0x27F JUMPI PUSH1 0x0 DUP1 REVERT JUMPDEST POP PUSH2 0x29A PUSH1 0x4 DUP1 CALLDATASIZE SUB DUP2 ADD SWAP1 PUSH2 0x295 SWAP2 SWAP1 PUSH2 0x20BD JUMP JUMPDEST PUSH2 0x791 JUMP JUMPDEST PUSH1 0x40 MLOAD PUSH2 0x2A7 SWAP2 SWAP1 PUSH2 0x288B JUMP JUMPDEST PUSH1 0x40 MLOAD DUP1 SWAP2 SUB SWAP1 RETURN JUMPDEST CALLVALUE DUP1 ISZERO PUSH2 0x2BC JUMPI PUSH1 0x0 DUP1 REVERT JUMPDEST POP PUSH2 0x2C5 PUSH2 0x7F8 JUMP JUMPDEST PUSH1 0x40 MLOAD PUSH2 0x2D2 SWAP2 SWAP1 PUSH2 0x28F8 JUMP JUMPDEST PUSH1 0x40 MLOAD DUP1 SWAP2 SUB SWAP1 RETURN JUMPDEST CALLVALUE DUP1 ISZERO PUSH2 0x2E7 JUMPI PUSH1 0x0 DUP1 REVERT JUMPDEST POP PUSH2 0x302 PUSH1 0x4 DUP1 CALLDATASIZE SUB DUP2 ADD SWAP1 PUSH2 0x2FD SWAP2 SWAP1 PUSH2 0x2050 JUMP JUMPDEST PUSH2 0x801 JUMP JUMPDEST PUSH1 0x40 MLOAD PUSH2 0x30F SWAP2 SWAP1 PUSH2 0x25CE JUMP JUMPDEST PUSH1 0x40 MLOAD DUP1 SWAP2 SUB SWAP1 RETURN JUMPDEST PUSH2 0x332 PUSH1 0x4 DUP1 CALLDATASIZE SUB DUP2 ADD SWAP1 PUSH2 0x32D SWAP2 SWAP1 PUSH2 0x20BD JUMP JUMPDEST PUSH2 0x838 JUMP JUMPDEST PUSH1 0x40 MLOAD PUSH2 0x33F SWAP2 SWAP1 PUSH2 0x288B JUMP JUMPDEST PUSH1 0x40 MLOAD DUP1 SWAP2 SUB SWAP1 RETURN JUMPDEST CALLVALUE DUP1 ISZERO PUSH2 0x354 JUMPI PUSH1 0x0 DUP1 REVERT JUMPDEST POP PUSH2 0x36F PUSH1 0x4 DUP1 CALLDATASIZE SUB DUP2 ADD SWAP1 PUSH2 0x36A SWAP2 SWAP1 PUSH2 0x2157 JUMP JUMPDEST PUSH2 0xAAE JUMP JUMPDEST STOP JUMPDEST PUSH2 0x38B PUSH1 0x4 DUP1 CALLDATASIZE SUB DUP2 ADD SWAP1 PUSH2 0x386 SWAP2 SWAP1 PUSH2 0x2117 JUMP JUMPDEST PUSH2 0xCC4 JUMP JUMPDEST STOP JUMPDEST CALLVALUE DUP1 ISZERO PUSH2 0x399 JUMPI PUSH1 0x0 DUP1 REVERT JUMPDEST POP PUSH2 0x3B4 PUSH1 0x4 DUP1 CALLDATASIZE SUB DUP2 ADD SWAP1 PUSH2 0x3AF SWAP2 SWAP1 PUSH2 0x1F63 JUMP JUMPDEST PUSH2 0xCD2 JUMP JUMPDEST PUSH1 0x40 MLOAD PUSH2 0x3C1 SWAP2 SWAP1 PUSH2 0x288B JUMP JUMPDEST PUSH1 0x40 MLOAD DUP1 SWAP2 SUB SWAP1 RETURN JUMPDEST CALLVALUE DUP1 ISZERO PUSH2 0x3D6 JUMPI PUSH1 0x0 DUP1 REVERT JUMPDEST POP PUSH2 0x3DF PUSH2 0xD1A JUMP JUMPDEST PUSH1 0x40 MLOAD PUSH2 0x3EC SWAP2 SWAP1 PUSH2 0x25E9 JUMP JUMPDEST PUSH1 0x40 MLOAD DUP1 SWAP2 SUB SWAP1 RETURN JUMPDEST CALLVALUE DUP1 ISZERO PUSH2 0x401 JUMPI PUSH1 0x0 DUP1 REVERT JUMPDEST POP PUSH2 0x40A PUSH2 0xDAC JUMP JUMPDEST PUSH1 0x40 MLOAD PUSH2 0x417 SWAP2 SWAP1 PUSH2 0x2553 JUMP JUMPDEST PUSH1 0x40 MLOAD DUP1 SWAP2 SUB SWAP1 RETURN JUMPDEST CALLVALUE DUP1 ISZERO PUSH2 0x42C JUMPI PUSH1 0x0 DUP1 REVERT JUMPDEST POP PUSH2 0x447 PUSH1 0x4 DUP1 CALLDATASIZE SUB DUP2 ADD SWAP1 PUSH2 0x442 SWAP2 SWAP1 PUSH2 0x20BD JUMP JUMPDEST PUSH2 0xDD2 JUMP JUMPDEST PUSH1 0x40 MLOAD PUSH2 0x455 SWAP3 SWAP2 SWAP1 PUSH2 0x28CF JUMP JUMPDEST PUSH1 0x40 MLOAD DUP1 SWAP2 SUB SWAP1 RETURN JUMPDEST CALLVALUE DUP1 ISZERO PUSH2 0x46A JUMPI PUSH1 0x0 DUP1 REVERT JUMPDEST POP PUSH2 0x473 PUSH2 0x101A JUMP JUMPDEST PUSH1 0x40 MLOAD PUSH2 0x480 SWAP2 SWAP1 PUSH2 0x2553 JUMP JUMPDEST PUSH1 0x40 MLOAD DUP1 SWAP2 SUB SWAP1 RETURN JUMPDEST CALLVALUE DUP1 ISZERO PUSH2 0x495 JUMPI PUSH1 0x0 DUP1 REVERT JUMPDEST POP PUSH2 0x4B0 PUSH1 0x4 DUP1 CALLDATASIZE SUB DUP2 ADD SWAP1 PUSH2 0x4AB SWAP2 SWAP1 PUSH2 0x2050 JUMP JUMPDEST PUSH2 0x1040 JUMP JUMPDEST PUSH1 0x40 MLOAD PUSH2 0x4BD SWAP2 SWAP1 PUSH2 0x25CE JUMP JUMPDEST PUSH1 0x40 MLOAD DUP1 SWAP2 SUB SWAP1 RETURN JUMPDEST CALLVALUE DUP1 ISZERO PUSH2 0x4D2 JUMPI PUSH1 0x0 DUP1 REVERT JUMPDEST POP PUSH2 0x4ED PUSH1 0x4 DUP1 CALLDATASIZE SUB DUP2 ADD SWAP1 PUSH2 0x4E8 SWAP2 SWAP1 PUSH2 0x2050 JUMP JUMPDEST PUSH2 0x10B7 JUMP JUMPDEST PUSH1 0x40 MLOAD PUSH2 0x4FA SWAP2 SWAP1 PUSH2 0x25CE JUMP JUMPDEST PUSH1 0x40 MLOAD DUP1 SWAP2 SUB SWAP1 RETURN JUMPDEST PUSH2 0x51D PUSH1 0x4 DUP1 CALLDATASIZE SUB DUP2 ADD SWAP1 PUSH2 0x518 SWAP2 SWAP1 PUSH2 0x20BD JUMP JUMPDEST PUSH2 0x10DA JUMP JUMPDEST STOP JUMPDEST CALLVALUE DUP1 ISZERO PUSH2 0x52B JUMPI PUSH1 0x0 DUP1 REVERT JUMPDEST POP PUSH2 0x546 PUSH1 0x4 DUP1 CALLDATASIZE SUB DUP2 ADD SWAP1 PUSH2 0x541 SWAP2 SWAP1 PUSH2 0x1FBD JUMP JUMPDEST PUSH2 0x10E7 JUMP JUMPDEST PUSH1 0x40 MLOAD PUSH2 0x553 SWAP2 SWAP1 PUSH2 0x288B JUMP JUMPDEST PUSH1 0x40 MLOAD DUP1 SWAP2 SUB SWAP1 RETURN JUMPDEST CALLVALUE DUP1 ISZERO PUSH2 0x568 JUMPI PUSH1 0x0 DUP1 REVERT JUMPDEST POP PUSH2 0x583 PUSH1 0x4 DUP1 CALLDATASIZE SUB DUP2 ADD SWAP1 PUSH2 0x57E SWAP2 SWAP1 PUSH2 0x2197 JUMP JUMPDEST PUSH2 0x116E JUMP JUMPDEST STOP JUMPDEST PUSH1 0x60 PUSH1 0x3 DUP1 SLOAD PUSH2 0x594 SWAP1 PUSH2 0x2AD7 JUMP JUMPDEST DUP1 PUSH1 0x1F ADD PUSH1 0x20 DUP1 SWAP2 DIV MUL PUSH1 0x20 ADD PUSH1 0x40 MLOAD SWAP1 DUP2 ADD PUSH1 0x40 MSTORE DUP1 SWAP3 SWAP2 SWAP1 DUP2 DUP2 MSTORE PUSH1 0x20 ADD DUP3 DUP1 SLOAD PUSH2 0x5C0 SWAP1 PUSH2 0x2AD7 JUMP JUMPDEST DUP1 ISZERO PUSH2 0x60D JUMPI DUP1 PUSH1 0x1F LT PUSH2 0x5E2 JUMPI PUSH2 0x100 DUP1 DUP4 SLOAD DIV MUL DUP4 MSTORE SWAP2 PUSH1 0x20 ADD SWAP2 PUSH2 0x60D JUMP JUMPDEST DUP3 ADD SWAP2 SWAP1 PUSH1 0x0 MSTORE PUSH1 0x20 PUSH1 0x0 KECCAK256 SWAP1 JUMPDEST DUP2 SLOAD DUP2 MSTORE SWAP1 PUSH1 0x1 ADD SWAP1 PUSH1 0x20 ADD DUP1 DUP4 GT PUSH2 0x5F0 JUMPI DUP3 SWAP1 SUB PUSH1 0x1F AND DUP3 ADD SWAP2 JUMPDEST POP POP POP POP POP SWAP1 POP SWAP1 JUMP JUMPDEST PUSH1 0x0 DUP1 PUSH1 0x5 PUSH1 0x0 SWAP1 SLOAD SWAP1 PUSH2 0x100 EXP SWAP1 DIV PUSH20 0xFFFFFFFFFFFFFFFFFFFFFFFFFFFFFFFFFFFFFFFF AND PUSH20 0xFFFFFFFFFFFFFFFFFFFFFFFFFFFFFFFFFFFFFFFF AND PUSH4 0x70A08231 ADDRESS PUSH1 0x40 MLOAD DUP3 PUSH4 0xFFFFFFFF AND PUSH1 0xE0 SHL DUP2 MSTORE PUSH1 0x4 ADD PUSH2 0x675 SWAP2 SWAP1 PUSH2 0x2553 JUMP JUMPDEST PUSH1 0x20 PUSH1 0x40 MLOAD DUP1 DUP4 SUB DUP2 DUP7 DUP1 EXTCODESIZE ISZERO DUP1 ISZERO PUSH2 0x68D JUMPI PUSH1 0x0 DUP1 REVERT JUMPDEST POP GAS STATICCALL ISZERO DUP1 ISZERO PUSH2 0x6A1 JUMPI RETURNDATASIZE PUSH1 0x0 DUP1 RETURNDATACOPY RETURNDATASIZE PUSH1 0x0 REVERT JUMPDEST POP POP POP POP PUSH1 0x40 MLOAD RETURNDATASIZE PUSH1 0x1F NOT PUSH1 0x1F DUP3 ADD AND DUP3 ADD DUP1 PUSH1 0x40 MSTORE POP DUP2 ADD SWAP1 PUSH2 0x6C5 SWAP2 SWAP1 PUSH2 0x20EA JUMP JUMPDEST SWAP2 POP SELFBALANCE SWAP1 POP SWAP1 SWAP2 JUMP JUMPDEST PUSH1 0x0 DUP1 PUSH2 0x6D9 PUSH2 0x14C1 JUMP JUMPDEST SWAP1 POP PUSH2 0x6E6 DUP2 DUP6 DUP6 PUSH2 0x14C9 JUMP JUMPDEST PUSH1 0x1 SWAP2 POP POP SWAP3 SWAP2 POP POP JUMP JUMPDEST PUSH1 0x0 DUP1 DUP3 GT PUSH2 0x735 JUMPI PUSH1 0x40 MLOAD PUSH32 0x8C379A000000000000000000000000000000000000000000000000000000000 DUP2 MSTORE PUSH1 0x4 ADD PUSH2 0x72C SWAP1 PUSH2 0x27AB JUMP JUMPDEST PUSH1 0x40 MLOAD DUP1 SWAP2 SUB SWAP1 REVERT JUMPDEST PUSH1 0x0 DUP1 PUSH2 0x740 PUSH2 0x617 JUMP JUMPDEST SWAP2 POP SWAP2 POP PUSH2 0x74F DUP5 DUP3 DUP5 PUSH2 0x1694 JUMP JUMPDEST SWAP3 POP POP POP SWAP2 SWAP1 POP JUMP JUMPDEST PUSH1 0x0 PUSH1 0x2 SLOAD SWAP1 POP SWAP1 JUMP JUMPDEST PUSH1 0x0 DUP1 PUSH2 0x76D PUSH2 0x14C1 JUMP JUMPDEST SWAP1 POP PUSH2 0x77A DUP6 DUP3 DUP6 PUSH2 0x173A JUMP JUMPDEST PUSH2 0x785 DUP6 DUP6 DUP6 PUSH2 0x17C6 JUMP JUMPDEST PUSH1 0x1 SWAP2 POP POP SWAP4 SWAP3 POP POP POP JUMP JUMPDEST PUSH1 0x0 DUP1 DUP2 GT PUSH2 0x7D5 JUMPI PUSH1 0x40 MLOAD PUSH32 0x8C379A000000000000000000000000000000000000000000000000000000000 DUP2 MSTORE PUSH1 0x4 ADD PUSH2 0x7CC SWAP1 PUSH2 0x27AB JUMP JUMPDEST PUSH1 0x40 MLOAD DUP1 SWAP2 SUB SWAP1 REVERT JUMPDEST PUSH1 0x0 DUP1 PUSH2 0x7E0 PUSH2 0x617 JUMP JUMPDEST SWAP2 POP SWAP2 POP PUSH2 0x7EF DUP5 DUP4 DUP4 PUSH2 0x1694 JUMP JUMPDEST SWAP3 POP POP POP SWAP2 SWAP1 POP JUMP JUMPDEST PUSH1 0x0 PUSH1 0x12 SWAP1 POP SWAP1 JUMP JUMPDEST PUSH1 0x0 DUP1 PUSH2 0x80C PUSH2 0x14C1 JUMP JUMPDEST SWAP1 POP PUSH2 0x82D DUP2 DUP6 DUP6 PUSH2 0x81E DUP6 DUP10 PUSH2 0x10E7 JUMP JUMPDEST PUSH2 0x828 SWAP2 SWAP1 PUSH2 0x293A JUMP JUMPDEST PUSH2 0x14C9 JUMP JUMPDEST PUSH1 0x1 SWAP2 POP POP SWAP3 SWAP2 POP POP JUMP JUMPDEST PUSH1 0x0 DUP1 PUSH1 0x0 PUSH2 0x845 PUSH2 0x617 JUMP JUMPDEST SWAP2 POP SWAP2 POP PUSH1 0x0 DUP3 EQ ISZERO PUSH2 0x912 JUMPI PUSH1 0x0 PUSH1 0x5 PUSH1 0x0 SWAP1 SLOAD SWAP1 PUSH2 0x100 EXP SWAP1 DIV PUSH20 0xFFFFFFFFFFFFFFFFFFFFFFFFFFFFFFFFFFFFFFFF AND SWAP1 POP DUP1 PUSH20 0xFFFFFFFFFFFFFFFFFFFFFFFFFFFFFFFFFFFFFFFF AND PUSH4 0x23B872DD CALLER ADDRESS DUP9 PUSH1 0x40 MLOAD DUP5 PUSH4 0xFFFFFFFF AND PUSH1 0xE0 SHL DUP2 MSTORE PUSH1 0x4 ADD PUSH2 0x8B6 SWAP4 SWAP3 SWAP2 SWAP1 PUSH2 0x256E JUMP JUMPDEST PUSH1 0x20 PUSH1 0x40 MLOAD DUP1 DUP4 SUB DUP2 PUSH1 0x0 DUP8 DUP1 EXTCODESIZE ISZERO DUP1 ISZERO PUSH2 0x8D0 JUMPI PUSH1 0x0 DUP1 REVERT JUMPDEST POP GAS CALL ISZERO DUP1 ISZERO PUSH2 0x8E4 JUMPI RETURNDATASIZE PUSH1 0x0 DUP1 RETURNDATACOPY RETURNDATASIZE PUSH1 0x0 REVERT JUMPDEST POP POP POP POP PUSH1 0x40 MLOAD RETURNDATASIZE PUSH1 0x1F NOT PUSH1 0x1F DUP3 ADD AND DUP3 ADD DUP1 PUSH1 0x40 MSTORE POP DUP2 ADD SWAP1 PUSH2 0x908 SWAP2 SWAP1 PUSH2 0x2090 JUMP JUMPDEST POP DUP2 SWAP4 POP POP PUSH2 0xA58 JUMP JUMPDEST CALLVALUE DUP2 PUSH2 0x91E SWAP2 SWAP1 PUSH2 0x2A1B JUMP JUMPDEST SWAP1 POP PUSH1 0x0 DUP2 DUP4 CALLVALUE PUSH2 0x92F SWAP2 SWAP1 PUSH2 0x29C1 JUMP JUMPDEST PUSH2 0x939 SWAP2 SWAP1 PUSH2 0x2990 JUMP JUMPDEST SWAP1 POP DUP1 DUP6 LT ISZERO PUSH2 0x97E JUMPI PUSH1 0x40 MLOAD PUSH32 0x8C379A000000000000000000000000000000000000000000000000000000000 DUP2 MSTORE PUSH1 0x4 ADD PUSH2 0x975 SWAP1 PUSH2 0x266B JUMP JUMPDEST PUSH1 0x40 MLOAD DUP1 SWAP2 SUB SWAP1 REVERT JUMPDEST PUSH1 0x0 PUSH1 0x5 PUSH1 0x0 SWAP1 SLOAD SWAP1 PUSH2 0x100 EXP SWAP1 DIV PUSH20 0xFFFFFFFFFFFFFFFFFFFFFFFFFFFFFFFFFFFFFFFF AND SWAP1 POP DUP1 PUSH20 0xFFFFFFFFFFFFFFFFFFFFFFFFFFFFFFFFFFFFFFFF AND PUSH4 0x23B872DD CALLER ADDRESS DUP10 PUSH1 0x40 MLOAD DUP5 PUSH4 0xFFFFFFFF AND PUSH1 0xE0 SHL DUP2 MSTORE PUSH1 0x4 ADD PUSH2 0x9E2 SWAP4 SWAP3 SWAP2 SWAP1 PUSH2 0x256E JUMP JUMPDEST PUSH1 0x20 PUSH1 0x40 MLOAD DUP1 DUP4 SUB DUP2 PUSH1 0x0 DUP8 DUP1 EXTCODESIZE ISZERO DUP1 ISZERO PUSH2 0x9FC JUMPI PUSH1 0x0 DUP1 REVERT JUMPDEST POP GAS CALL ISZERO DUP1 ISZERO PUSH2 0xA10 JUMPI RETURNDATASIZE PUSH1 0x0 DUP1 RETURNDATACOPY RETURNDATASIZE PUSH1 0x0 REVERT JUMPDEST POP POP POP POP PUSH1 0x40 MLOAD RETURNDATASIZE PUSH1 0x1F NOT PUSH1 0x1F DUP3 ADD AND DUP3 ADD DUP1 PUSH1 0x40 MSTORE POP DUP2 ADD SWAP1 PUSH2 0xA34 SWAP2 SWAP1 PUSH2 0x2090 JUMP JUMPDEST POP DUP3 CALLVALUE PUSH2 0xA3F PUSH2 0x758 JUMP JUMPDEST PUSH2 0xA49 SWAP2 SWAP1 PUSH2 0x29C1 JUMP JUMPDEST PUSH2 0xA53 SWAP2 SWAP1 PUSH2 0x2990 JUMP JUMPDEST SWAP5 POP POP POP JUMPDEST PUSH2 0xA62 CALLER DUP5 PUSH2 0x1A47 JUMP JUMPDEST DUP4 CALLVALUE CALLER PUSH20 0xFFFFFFFFFFFFFFFFFFFFFFFFFFFFFFFFFFFFFFFF AND PUSH32 0x6239653922AC7BEA6AA2B19DC486B9361821D37712EB796ADFD38D81DE278CA PUSH1 0x40 MLOAD PUSH1 0x40 MLOAD DUP1 SWAP2 SUB SWAP1 LOG4 POP POP SWAP2 SWAP1 POP JUMP JUMPDEST PUSH1 0x0 DUP1 PUSH2 0xAB9 PUSH2 0x617 JUMP JUMPDEST SWAP2 POP SWAP2 POP PUSH1 0x0 PUSH2 0xACA DUP6 DUP5 DUP5 PUSH2 0x1694 JUMP JUMPDEST SWAP1 POP DUP4 DUP2 LT ISZERO PUSH2 0xB0F JUMPI PUSH1 0x40 MLOAD PUSH32 0x8C379A000000000000000000000000000000000000000000000000000000000 DUP2 MSTORE PUSH1 0x4 ADD PUSH2 0xB06 SWAP1 PUSH2 0x274B JUMP JUMPDEST PUSH1 0x40 MLOAD DUP1 SWAP2 SUB SWAP1 REVERT JUMPDEST PUSH1 0x5 PUSH1 0x0 SWAP1 SLOAD SWAP1 PUSH2 0x100 EXP SWAP1 DIV PUSH20 0xFFFFFFFFFFFFFFFFFFFFFFFFFFFFFFFFFFFFFFFF AND PUSH20 0xFFFFFFFFFFFFFFFFFFFFFFFFFFFFFFFFFFFFFFFF AND PUSH4 0x23B872DD CALLER ADDRESS DUP9 PUSH1 0x40 MLOAD DUP5 PUSH4 0xFFFFFFFF AND PUSH1 0xE0 SHL DUP2 MSTORE PUSH1 0x4 ADD PUSH2 0xB6E SWAP4 SWAP3 SWAP2 SWAP1 PUSH2 0x256E JUMP JUMPDEST PUSH1 0x20 PUSH1 0x40 MLOAD DUP1 DUP4 SUB DUP2 PUSH1 0x0 DUP8 DUP1 EXTCODESIZE ISZERO DUP1 ISZERO PUSH2 0xB88 JUMPI PUSH1 0x0 DUP1 REVERT JUMPDEST POP GAS CALL ISZERO DUP1 ISZERO PUSH2 0xB9C JUMPI RETURNDATASIZE PUSH1 0x0 DUP1 RETURNDATACOPY RETURNDATASIZE PUSH1 0x0 REVERT JUMPDEST POP POP POP POP PUSH1 0x40 MLOAD RETURNDATASIZE PUSH1 0x1F NOT PUSH1 0x1F DUP3 ADD AND DUP3 ADD DUP1 PUSH1 0x40 MSTORE POP DUP2 ADD SWAP1 PUSH2 0xBC0 SWAP2 SWAP1 PUSH2 0x2090 JUMP JUMPDEST POP PUSH1 0x0 CALLER PUSH20 0xFFFFFFFFFFFFFFFFFFFFFFFFFFFFFFFFFFFFFFFF AND DUP6 PUSH1 0x40 MLOAD PUSH2 0xBE7 SWAP1 PUSH2 0x253E JUMP JUMPDEST PUSH1 0x0 PUSH1 0x40 MLOAD DUP1 DUP4 SUB DUP2 DUP6 DUP8 GAS CALL SWAP3 POP POP POP RETURNDATASIZE DUP1 PUSH1 0x0 DUP2 EQ PUSH2 0xC24 JUMPI PUSH1 0x40 MLOAD SWAP2 POP PUSH1 0x1F NOT PUSH1 0x3F RETURNDATASIZE ADD AND DUP3 ADD PUSH1 0x40 MSTORE RETURNDATASIZE DUP3 MSTORE RETURNDATASIZE PUSH1 0x0 PUSH1 0x20 DUP5 ADD RETURNDATACOPY PUSH2 0xC29 JUMP JUMPDEST PUSH1 0x60 SWAP2 POP JUMPDEST POP POP SWAP1 POP DUP1 PUSH2 0xC6D JUMPI PUSH1 0x40 MLOAD PUSH32 0x8C379A000000000000000000000000000000000000000000000000000000000 DUP2 MSTORE PUSH1 0x4 ADD PUSH2 0xC64 SWAP1 PUSH2 0x26CB JUMP JUMPDEST PUSH1 0x40 MLOAD DUP1 SWAP2 SUB SWAP1 REVERT JUMPDEST DUP6 CALLER PUSH20 0xFFFFFFFFFFFFFFFFFFFFFFFFFFFFFFFFFFFFFFFF AND PUSH32 0xD70CAA09595C8288801CA58A02FD0960EF4982B210B2B9BF88BD5344C27CC4E8 DUP5 PUSH1 0x40 MLOAD PUSH2 0xCB4 SWAP2 SWAP1 PUSH2 0x288B JUMP JUMPDEST PUSH1 0x40 MLOAD DUP1 SWAP2 SUB SWAP1 LOG3 POP POP POP POP POP POP JUMP JUMPDEST PUSH2 0xCCE DUP3 DUP3 PUSH2 0x1BA7 JUMP JUMPDEST POP POP JUMP JUMPDEST PUSH1 0x0 DUP1 PUSH1 0x0 DUP4 PUSH20 0xFFFFFFFFFFFFFFFFFFFFFFFFFFFFFFFFFFFFFFFF AND PUSH20 0xFFFFFFFFFFFFFFFFFFFFFFFFFFFFFFFFFFFFFFFF AND DUP2 MSTORE PUSH1 0x20 ADD SWAP1 DUP2 MSTORE PUSH1 0x20 ADD PUSH1 0x0 KECCAK256 SLOAD SWAP1 POP SWAP2 SWAP1 POP JUMP JUMPDEST PUSH1 0x60 PUSH1 0x4 DUP1 SLOAD PUSH2 0xD29 SWAP1 PUSH2 0x2AD7 JUMP JUMPDEST DUP1 PUSH1 0x1F ADD PUSH1 0x20 DUP1 SWAP2 DIV MUL PUSH1 0x20 ADD PUSH1 0x40 MLOAD SWAP1 DUP2 ADD PUSH1 0x40 MSTORE DUP1 SWAP3 SWAP2 SWAP1 DUP2 DUP2 MSTORE PUSH1 0x20 ADD DUP3 DUP1 SLOAD PUSH2 0xD55 SWAP1 PUSH2 0x2AD7 JUMP JUMPDEST DUP1 ISZERO PUSH2 0xDA2 JUMPI DUP1 PUSH1 0x1F LT PUSH2 0xD77 JUMPI PUSH2 0x100 DUP1 DUP4 SLOAD DIV MUL DUP4 MSTORE SWAP2 PUSH1 0x20 ADD SWAP2 PUSH2 0xDA2 JUMP JUMPDEST DUP3 ADD SWAP2 SWAP1 PUSH1 0x0 MSTORE PUSH1 0x20 PUSH1 0x0 KECCAK256 SWAP1 JUMPDEST DUP2 SLOAD DUP2 MSTORE SWAP1 PUSH1 0x1 ADD SWAP1 PUSH1 0x20 ADD DUP1 DUP4 GT PUSH2 0xD85 JUMPI DUP3 SWAP1 SUB PUSH1 0x1F AND DUP3 ADD SWAP2 JUMPDEST POP POP POP POP POP SWAP1 POP SWAP1 JUMP JUMPDEST PUSH1 0x6 PUSH1 0x0 SWAP1 SLOAD SWAP1 PUSH2 0x100 EXP SWAP1 DIV PUSH20 0xFFFFFFFFFFFFFFFFFFFFFFFFFFFFFFFFFFFFFFFF AND DUP2 JUMP JUMPDEST PUSH1 0x0 DUP1 PUSH1 0x0 DUP4 GT PUSH2 0xE18 JUMPI PUSH1 0x40 MLOAD PUSH32 0x8C379A000000000000000000000000000000000000000000000000000000000 DUP2 MSTORE PUSH1 0x4 ADD PUSH2 0xE0F SWAP1 PUSH2 0x276B JUMP JUMPDEST PUSH1 0x40 MLOAD DUP1 SWAP2 SUB SWAP1 REVERT JUMPDEST PUSH1 0x0 DUP1 PUSH2 0xE23 PUSH2 0x617 JUMP JUMPDEST SWAP2 POP SWAP2 POP PUSH2 0xE2F PUSH2 0x758 JUMP JUMPDEST DUP6 DUP3 PUSH2 0xE3B SWAP2 SWAP1 PUSH2 0x29C1 JUMP JUMPDEST PUSH2 0xE45 SWAP2 SWAP1 PUSH2 0x2990 JUMP JUMPDEST SWAP4 POP PUSH2 0xE4F PUSH2 0x758 JUMP JUMPDEST DUP6 DUP4 PUSH2 0xE5B SWAP2 SWAP1 PUSH2 0x29C1 JUMP JUMPDEST PUSH2 0xE65 SWAP2 SWAP1 PUSH2 0x2990 JUMP JUMPDEST SWAP3 POP PUSH2 0xE71 CALLER DUP7 PUSH2 0x1D19 JUMP JUMPDEST PUSH1 0x0 CALLER PUSH20 0xFFFFFFFFFFFFFFFFFFFFFFFFFFFFFFFFFFFFFFFF AND DUP6 PUSH1 0x40 MLOAD PUSH2 0xE97 SWAP1 PUSH2 0x253E JUMP JUMPDEST PUSH1 0x0 PUSH1 0x40 MLOAD DUP1 DUP4 SUB DUP2 DUP6 DUP8 GAS CALL SWAP3 POP POP POP RETURNDATASIZE DUP1 PUSH1 0x0 DUP2 EQ PUSH2 0xED4 JUMPI PUSH1 0x40 MLOAD SWAP2 POP PUSH1 0x1F NOT PUSH1 0x3F RETURNDATASIZE ADD AND DUP3 ADD PUSH1 0x40 MSTORE RETURNDATASIZE DUP3 MSTORE RETURNDATASIZE PUSH1 0x0 PUSH1 0x20 DUP5 ADD RETURNDATACOPY PUSH2 0xED9 JUMP JUMPDEST PUSH1 0x60 SWAP2 POP JUMPDEST POP POP SWAP1 POP DUP1 PUSH2 0xF1D JUMPI PUSH1 0x40 MLOAD PUSH32 0x8C379A000000000000000000000000000000000000000000000000000000000 DUP2 MSTORE PUSH1 0x4 ADD PUSH2 0xF14 SWAP1 PUSH2 0x27EB JUMP JUMPDEST PUSH1 0x40 MLOAD DUP1 SWAP2 SUB SWAP1 REVERT JUMPDEST PUSH1 0x5 PUSH1 0x0 SWAP1 SLOAD SWAP1 PUSH2 0x100 EXP SWAP1 DIV PUSH20 0xFFFFFFFFFFFFFFFFFFFFFFFFFFFFFFFFFFFFFFFF AND PUSH20 0xFFFFFFFFFFFFFFFFFFFFFFFFFFFFFFFFFFFFFFFF AND PUSH4 0xA9059CBB CALLER DUP7 PUSH1 0x40 MLOAD DUP4 PUSH4 0xFFFFFFFF AND PUSH1 0xE0 SHL DUP2 MSTORE PUSH1 0x4 ADD PUSH2 0xF7A SWAP3 SWAP2 SWAP1 PUSH2 0x25A5 JUMP JUMPDEST PUSH1 0x20 PUSH1 0x40 MLOAD DUP1 DUP4 SUB DUP2 PUSH1 0x0 DUP8 DUP1 EXTCODESIZE ISZERO DUP1 ISZERO PUSH2 0xF94 JUMPI PUSH1 0x0 DUP1 REVERT JUMPDEST POP GAS CALL ISZERO DUP1 ISZERO PUSH2 0xFA8 JUMPI RETURNDATASIZE PUSH1 0x0 DUP1 RETURNDATACOPY RETURNDATASIZE PUSH1 0x0 REVERT JUMPDEST POP POP POP POP PUSH1 0x40 MLOAD RETURNDATASIZE PUSH1 0x1F NOT PUSH1 0x1F DUP3 ADD AND DUP3 ADD DUP1 PUSH1 0x40 MSTORE POP DUP2 ADD SWAP1 PUSH2 0xFCC SWAP2 SWAP1 PUSH2 0x2090 JUMP JUMPDEST POP DUP4 DUP6 CALLER PUSH20 0xFFFFFFFFFFFFFFFFFFFFFFFFFFFFFFFFFFFFFFFF AND PUSH32 0xFBF06C058B90CB038A618F8C2ACBF6145F8B3570FD1FA56ABB8F0F3F05B36E8 PUSH1 0x40 MLOAD PUSH1 0x40 MLOAD DUP1 SWAP2 SUB SWAP1 LOG4 POP POP POP SWAP2 POP SWAP2 JUMP JUMPDEST PUSH1 0x5 PUSH1 0x0 SWAP1 SLOAD SWAP1 PUSH2 0x100 EXP SWAP1 DIV PUSH20 0xFFFFFFFFFFFFFFFFFFFFFFFFFFFFFFFFFFFFFFFF AND DUP2 JUMP JUMPDEST PUSH1 0x0 DUP1 PUSH2 0x104B PUSH2 0x14C1 JUMP JUMPDEST SWAP1 POP PUSH1 0x0 PUSH2 0x1059 DUP3 DUP7 PUSH2 0x10E7 JUMP JUMPDEST SWAP1 POP DUP4 DUP2 LT ISZERO PUSH2 0x109E JUMPI PUSH1 0x40 MLOAD PUSH32 0x8C379A000000000000000000000000000000000000000000000000000000000 DUP2 MSTORE PUSH1 0x4 ADD PUSH2 0x1095 SWAP1 PUSH2 0x284B JUMP JUMPDEST PUSH1 0x40 MLOAD DUP1 SWAP2 SUB SWAP1 REVERT JUMPDEST PUSH2 0x10AB DUP3 DUP7 DUP7 DUP5 SUB PUSH2 0x14C9 JUMP JUMPDEST PUSH1 0x1 SWAP3 POP POP POP SWAP3 SWAP2 POP POP JUMP JUMPDEST PUSH1 0x0 DUP1 PUSH2 0x10C2 PUSH2 0x14C1 JUMP JUMPDEST SWAP1 POP PUSH2 0x10CF DUP2 DUP6 DUP6 PUSH2 0x17C6 JUMP JUMPDEST PUSH1 0x1 SWAP2 POP POP SWAP3 SWAP2 POP POP JUMP JUMPDEST PUSH2 0x10E4 DUP2 CALLER PUSH2 0x1BA7 JUMP JUMPDEST POP JUMP JUMPDEST PUSH1 0x0 PUSH1 0x1 PUSH1 0x0 DUP5 PUSH20 0xFFFFFFFFFFFFFFFFFFFFFFFFFFFFFFFFFFFFFFFF AND PUSH20 0xFFFFFFFFFFFFFFFFFFFFFFFFFFFFFFFFFFFFFFFF AND DUP2 MSTORE PUSH1 0x20 ADD SWAP1 DUP2 MSTORE PUSH1 0x20 ADD PUSH1 0x0 KECCAK256 PUSH1 0x0 DUP4 PUSH20 0xFFFFFFFFFFFFFFFFFFFFFFFFFFFFFFFFFFFFFFFF AND PUSH20 0xFFFFFFFFFFFFFFFFFFFFFFFFFFFFFFFFFFFFFFFF AND DUP2 MSTORE PUSH1 0x20 ADD SWAP1 DUP2 MSTORE PUSH1 0x20 ADD PUSH1 0x0 KECCAK256 SLOAD SWAP1 POP SWAP3 SWAP2 POP POP JUMP JUMPDEST PUSH1 0x0 PUSH20 0xFFFFFFFFFFFFFFFFFFFFFFFFFFFFFFFFFFFFFFFF AND DUP2 PUSH20 0xFFFFFFFFFFFFFFFFFFFFFFFFFFFFFFFFFFFFFFFF AND EQ ISZERO PUSH2 0x11DE JUMPI PUSH1 0x40 MLOAD PUSH32 0x8C379A000000000000000000000000000000000000000000000000000000000 DUP2 MSTORE PUSH1 0x4 ADD PUSH2 0x11D5 SWAP1 PUSH2 0x26EB JUMP JUMPDEST PUSH1 0x40 MLOAD DUP1 SWAP2 SUB SWAP1 REVERT JUMPDEST PUSH1 0x0 DUP4 GT PUSH2 0x1221 JUMPI PUSH1 0x40 MLOAD PUSH32 0x8C379A000000000000000000000000000000000000000000000000000000000 DUP2 MSTORE PUSH1 0x4 ADD PUSH2 0x1218 SWAP1 PUSH2 0x270B JUMP JUMPDEST PUSH1 0x40 MLOAD DUP1 SWAP2 SUB SWAP1 REVERT JUMPDEST PUSH1 0x0 PUSH1 0x6 PUSH1 0x0 SWAP1 SLOAD SWAP1 PUSH2 0x100 EXP SWAP1 DIV PUSH20 0xFFFFFFFFFFFFFFFFFFFFFFFFFFFFFFFFFFFFFFFF AND PUSH20 0xFFFFFFFFFFFFFFFFFFFFFFFFFFFFFFFFFFFFFFFF AND PUSH4 0x6F2BF62 DUP4 PUSH1 0x40 MLOAD DUP3 PUSH4 0xFFFFFFFF AND PUSH1 0xE0 SHL DUP2 MSTORE PUSH1 0x4 ADD PUSH2 0x127E SWAP2 SWAP1 PUSH2 0x2553 JUMP JUMPDEST PUSH1 0x20 PUSH1 0x40 MLOAD DUP1 DUP4 SUB DUP2 PUSH1 0x0 DUP8 DUP1 EXTCODESIZE ISZERO DUP1 ISZERO PUSH2 0x1298 JUMPI PUSH1 0x0 DUP1 REVERT JUMPDEST POP GAS CALL ISZERO DUP1 ISZERO PUSH2 0x12AC JUMPI RETURNDATASIZE PUSH1 0x0 DUP1 RETURNDATACOPY RETURNDATASIZE PUSH1 0x0 REVERT JUMPDEST POP POP POP POP PUSH1 0x40 MLOAD RETURNDATASIZE PUSH1 0x1F NOT PUSH1 0x1F DUP3 ADD AND DUP3 ADD DUP1 PUSH1 0x40 MSTORE POP DUP2 ADD SWAP1 PUSH2 0x12D0 SWAP2 SWAP1 PUSH2 0x1F90 JUMP JUMPDEST SWAP1 POP ADDRESS PUSH20 0xFFFFFFFFFFFFFFFFFFFFFFFFFFFFFFFFFFFFFFFF AND DUP2 PUSH20 0xFFFFFFFFFFFFFFFFFFFFFFFFFFFFFFFFFFFFFFFF AND EQ ISZERO DUP1 ISZERO PUSH2 0x133B JUMPI POP PUSH1 0x0 PUSH20 0xFFFFFFFFFFFFFFFFFFFFFFFFFFFFFFFFFFFFFFFF AND DUP2 PUSH20 0xFFFFFFFFFFFFFFFFFFFFFFFFFFFFFFFFFFFFFFFF AND EQ ISZERO JUMPDEST PUSH2 0x137A JUMPI PUSH1 0x40 MLOAD PUSH32 0x8C379A000000000000000000000000000000000000000000000000000000000 DUP2 MSTORE PUSH1 0x4 ADD PUSH2 0x1371 SWAP1 PUSH2 0x272B JUMP JUMPDEST PUSH1 0x40 MLOAD DUP1 SWAP2 SUB SWAP1 REVERT JUMPDEST PUSH1 0x0 DUP1 PUSH2 0x1385 PUSH2 0x617 JUMP JUMPDEST SWAP2 POP SWAP2 POP PUSH1 0x0 PUSH2 0x1396 DUP8 DUP5 DUP5 PUSH2 0x1694 JUMP JUMPDEST SWAP1 POP PUSH1 0x5 PUSH1 0x0 SWAP1 SLOAD SWAP1 PUSH2 0x100 EXP SWAP1 DIV PUSH20 0xFFFFFFFFFFFFFFFFFFFFFFFFFFFFFFFFFFFFFFFF AND PUSH20 0xFFFFFFFFFFFFFFFFFFFFFFFFFFFFFFFFFFFFFFFF AND PUSH4 0x23B872DD CALLER ADDRESS DUP11 PUSH1 0x40 MLOAD DUP5 PUSH4 0xFFFFFFFF AND PUSH1 0xE0 SHL DUP2 MSTORE PUSH1 0x4 ADD PUSH2 0x13F7 SWAP4 SWAP3 SWAP2 SWAP1 PUSH2 0x256E JUMP JUMPDEST PUSH1 0x20 PUSH1 0x40 MLOAD DUP1 DUP4 SUB DUP2 PUSH1 0x0 DUP8 DUP1 EXTCODESIZE ISZERO DUP1 ISZERO PUSH2 0x1411 JUMPI PUSH1 0x0 DUP1 REVERT JUMPDEST POP GAS CALL ISZERO DUP1 ISZERO PUSH2 0x1425 JUMPI RETURNDATASIZE PUSH1 0x0 DUP1 RETURNDATACOPY RETURNDATASIZE PUSH1 0x0 REVERT JUMPDEST POP POP POP POP PUSH1 0x40 MLOAD RETURNDATASIZE PUSH1 0x1F NOT PUSH1 0x1F DUP3 ADD AND DUP3 ADD DUP1 PUSH1 0x40 MSTORE POP DUP2 ADD SWAP1 PUSH2 0x1449 SWAP2 SWAP1 PUSH2 0x2090 JUMP JUMPDEST POP DUP4 PUSH20 0xFFFFFFFFFFFFFFFFFFFFFFFFFFFFFFFFFFFFFFFF AND PUSH4 0x389D9A40 DUP3 DUP9 CALLER PUSH1 0x40 MLOAD DUP5 PUSH4 0xFFFFFFFF AND PUSH1 0xE0 SHL DUP2 MSTORE PUSH1 0x4 ADD PUSH2 0x1486 SWAP3 SWAP2 SWAP1 PUSH2 0x28A6 JUMP JUMPDEST PUSH1 0x0 PUSH1 0x40 MLOAD DUP1 DUP4 SUB DUP2 DUP6 DUP9 DUP1 EXTCODESIZE ISZERO DUP1 ISZERO PUSH2 0x149F JUMPI PUSH1 0x0 DUP1 REVERT JUMPDEST POP GAS CALL ISZERO DUP1 ISZERO PUSH2 0x14B3 JUMPI RETURNDATASIZE PUSH1 0x0 DUP1 RETURNDATACOPY RETURNDATASIZE PUSH1 0x0 REVERT JUMPDEST POP POP POP POP POP POP POP POP POP POP POP POP JUMP JUMPDEST PUSH1 0x0 CALLER SWAP1 POP SWAP1 JUMP JUMPDEST PUSH1 0x0 PUSH20 0xFFFFFFFFFFFFFFFFFFFFFFFFFFFFFFFFFFFFFFFF AND DUP4 PUSH20 0xFFFFFFFFFFFFFFFFFFFFFFFFFFFFFFFFFFFFFFFF AND EQ ISZERO PUSH2 0x1539 JUMPI PUSH1 0x40 MLOAD PUSH32 0x8C379A000000000000000000000000000000000000000000000000000000000 DUP2 MSTORE PUSH1 0x4 ADD PUSH2 0x1530 SWAP1 PUSH2 0x282B JUMP JUMPDEST PUSH1 0x40 MLOAD DUP1 SWAP2 SUB SWAP1 REVERT JUMPDEST PUSH1 0x0 PUSH20 0xFFFFFFFFFFFFFFFFFFFFFFFFFFFFFFFFFFFFFFFF AND DUP3 PUSH20 0xFFFFFFFFFFFFFFFFFFFFFFFFFFFFFFFFFFFFFFFF AND EQ ISZERO PUSH2 0x15A9 JUMPI PUSH1 0x40 MLOAD PUSH32 0x8C379A000000000000000000000000000000000000000000000000000000000 DUP2 MSTORE PUSH1 0x4 ADD PUSH2 0x15A0 SWAP1 PUSH2 0x264B JUMP JUMPDEST PUSH1 0x40 MLOAD DUP1 SWAP2 SUB SWAP1 REVERT JUMPDEST DUP1 PUSH1 0x1 PUSH1 0x0 DUP6 PUSH20 0xFFFFFFFFFFFFFFFFFFFFFFFFFFFFFFFFFFFFFFFF AND PUSH20 0xFFFFFFFFFFFFFFFFFFFFFFFFFFFFFFFFFFFFFFFF AND DUP2 MSTORE PUSH1 0x20 ADD SWAP1 DUP2 MSTORE PUSH1 0x20 ADD PUSH1 0x0 KECCAK256 PUSH1 0x0 DUP5 PUSH20 0xFFFFFFFFFFFFFFFFFFFFFFFFFFFFFFFFFFFFFFFF AND PUSH20 0xFFFFFFFFFFFFFFFFFFFFFFFFFFFFFFFFFFFFFFFF AND DUP2 MSTORE PUSH1 0x20 ADD SWAP1 DUP2 MSTORE PUSH1 0x20 ADD PUSH1 0x0 KECCAK256 DUP2 SWAP1 SSTORE POP DUP2 PUSH20 0xFFFFFFFFFFFFFFFFFFFFFFFFFFFFFFFFFFFFFFFF AND DUP4 PUSH20 0xFFFFFFFFFFFFFFFFFFFFFFFFFFFFFFFFFFFFFFFF AND PUSH32 0x8C5BE1E5EBEC7D5BD14F71427D1E84F3DD0314C0F7B2291E5B200AC8C7C3B925 DUP4 PUSH1 0x40 MLOAD PUSH2 0x1687 SWAP2 SWAP1 PUSH2 0x288B JUMP JUMPDEST PUSH1 0x40 MLOAD DUP1 SWAP2 SUB SWAP1 LOG3 POP POP POP JUMP JUMPDEST PUSH1 0x0 DUP1 DUP4 GT DUP1 ISZERO PUSH2 0x16A5 JUMPI POP PUSH1 0x0 DUP3 GT JUMPDEST PUSH2 0x16E4 JUMPI PUSH1 0x40 MLOAD PUSH32 0x8C379A000000000000000000000000000000000000000000000000000000000 DUP2 MSTORE PUSH1 0x4 ADD PUSH2 0x16DB SWAP1 PUSH2 0x280B JUMP JUMPDEST PUSH1 0x40 MLOAD DUP1 SWAP2 SUB SWAP1 REVERT JUMPDEST PUSH1 0x0 DUP1 PUSH2 0x3E8 PUSH2 0x16F4 SWAP2 SWAP1 PUSH2 0x2A1B JUMP JUMPDEST DUP6 PUSH2 0x16FF SWAP2 SWAP1 PUSH2 0x29C1 JUMP JUMPDEST SWAP1 POP DUP1 DUP5 PUSH2 0x3E8 PUSH2 0x1710 SWAP2 SWAP1 PUSH2 0x29C1 JUMP JUMPDEST PUSH2 0x171A SWAP2 SWAP1 PUSH2 0x293A JUMP JUMPDEST DUP4 DUP3 PUSH2 0x1726 SWAP2 SWAP1 PUSH2 0x29C1 JUMP JUMPDEST PUSH2 0x1730 SWAP2 SWAP1 PUSH2 0x2990 JUMP JUMPDEST SWAP2 POP POP SWAP4 SWAP3 POP POP POP JUMP JUMPDEST PUSH1 0x0 PUSH2 0x1746 DUP5 DUP5 PUSH2 0x10E7 JUMP JUMPDEST SWAP1 POP PUSH32 0xFFFFFFFFFFFFFFFFFFFFFFFFFFFFFFFFFFFFFFFFFFFFFFFFFFFFFFFFFFFFFFFF DUP2 EQ PUSH2 0x17C0 JUMPI DUP2 DUP2 LT ISZERO PUSH2 0x17B2 JUMPI PUSH1 0x40 MLOAD PUSH32 0x8C379A000000000000000000000000000000000000000000000000000000000 DUP2 MSTORE PUSH1 0x4 ADD PUSH2 0x17A9 SWAP1 PUSH2 0x268B JUMP JUMPDEST PUSH1 0x40 MLOAD DUP1 SWAP2 SUB SWAP1 REVERT JUMPDEST PUSH2 0x17BF DUP5 DUP5 DUP5 DUP5 SUB PUSH2 0x14C9 JUMP JUMPDEST JUMPDEST POP POP POP POP JUMP JUMPDEST PUSH1 0x0 PUSH20 0xFFFFFFFFFFFFFFFFFFFFFFFFFFFFFFFFFFFFFFFF AND DUP4 PUSH20 0xFFFFFFFFFFFFFFFFFFFFFFFFFFFFFFFFFFFFFFFF AND EQ ISZERO PUSH2 0x1836 JUMPI PUSH1 0x40 MLOAD PUSH32 0x8C379A000000000000000000000000000000000000000000000000000000000 DUP2 MSTORE PUSH1 0x4 ADD PUSH2 0x182D SWAP1 PUSH2 0x27CB JUMP JUMPDEST PUSH1 0x40 MLOAD DUP1 SWAP2 SUB SWAP1 REVERT JUMPDEST PUSH1 0x0 PUSH20 0xFFFFFFFFFFFFFFFFFFFFFFFFFFFFFFFFFFFFFFFF AND DUP3 PUSH20 0xFFFFFFFFFFFFFFFFFFFFFFFFFFFFFFFFFFFFFFFF AND EQ ISZERO PUSH2 0x18A6 JUMPI PUSH1 0x40 MLOAD PUSH32 0x8C379A000000000000000000000000000000000000000000000000000000000 DUP2 MSTORE PUSH1 0x4 ADD PUSH2 0x189D SWAP1 PUSH2 0x260B JUMP JUMPDEST PUSH1 0x40 MLOAD DUP1 SWAP2 SUB SWAP1 REVERT JUMPDEST PUSH2 0x18B1 DUP4 DUP4 DUP4 PUSH2 0x1EF0 JUMP JUMPDEST PUSH1 0x0 DUP1 PUSH1 0x0 DUP6 PUSH20 0xFFFFFFFFFFFFFFFFFFFFFFFFFFFFFFFFFFFFFFFF AND PUSH20 0xFFFFFFFFFFFFFFFFFFFFFFFFFFFFFFFFFFFFFFFF AND DUP2 MSTORE PUSH1 0x20 ADD SWAP1 DUP2 MSTORE PUSH1 0x20 ADD PUSH1 0x0 KECCAK256 SLOAD SWAP1 POP DUP2 DUP2 LT ISZERO PUSH2 0x1937 JUMPI PUSH1 0x40 MLOAD PUSH32 0x8C379A000000000000000000000000000000000000000000000000000000000 DUP2 MSTORE PUSH1 0x4 ADD PUSH2 0x192E SWAP1 PUSH2 0x26AB JUMP JUMPDEST PUSH1 0x40 MLOAD DUP1 SWAP2 SUB SWAP1 REVERT JUMPDEST DUP2 DUP2 SUB PUSH1 0x0 DUP1 DUP7 PUSH20 0xFFFFFFFFFFFFFFFFFFFFFFFFFFFFFFFFFFFFFFFF AND PUSH20 0xFFFFFFFFFFFFFFFFFFFFFFFFFFFFFFFFFFFFFFFF AND DUP2 MSTORE PUSH1 0x20 ADD SWAP1 DUP2 MSTORE PUSH1 0x20 ADD PUSH1 0x0 KECCAK256 DUP2 SWAP1 SSTORE POP DUP2 PUSH1 0x0 DUP1 DUP6 PUSH20 0xFFFFFFFFFFFFFFFFFFFFFFFFFFFFFFFFFFFFFFFF AND PUSH20 0xFFFFFFFFFFFFFFFFFFFFFFFFFFFFFFFFFFFFFFFF AND DUP2 MSTORE PUSH1 0x20 ADD SWAP1 DUP2 MSTORE PUSH1 0x20 ADD PUSH1 0x0 KECCAK256 PUSH1 0x0 DUP3 DUP3 SLOAD PUSH2 0x19CA SWAP2 SWAP1 PUSH2 0x293A JUMP JUMPDEST SWAP3 POP POP DUP2 SWAP1 SSTORE POP DUP3 PUSH20 0xFFFFFFFFFFFFFFFFFFFFFFFFFFFFFFFFFFFFFFFF AND DUP5 PUSH20 0xFFFFFFFFFFFFFFFFFFFFFFFFFFFFFFFFFFFFFFFF AND PUSH32 0xDDF252AD1BE2C89B69C2B068FC378DAA952BA7F163C4A11628F55A4DF523B3EF DUP5 PUSH1 0x40 MLOAD PUSH2 0x1A2E SWAP2 SWAP1 PUSH2 0x288B JUMP JUMPDEST PUSH1 0x40 MLOAD DUP1 SWAP2 SUB SWAP1 LOG3 PUSH2 0x1A41 DUP5 DUP5 DUP5 PUSH2 0x1EF5 JUMP JUMPDEST POP POP POP POP JUMP JUMPDEST PUSH1 0x0 PUSH20 0xFFFFFFFFFFFFFFFFFFFFFFFFFFFFFFFFFFFFFFFF AND DUP3 PUSH20 0xFFFFFFFFFFFFFFFFFFFFFFFFFFFFFFFFFFFFFFFF AND EQ ISZERO PUSH2 0x1AB7 JUMPI PUSH1 0x40 MLOAD PUSH32 0x8C379A000000000000000000000000000000000000000000000000000000000 DUP2 MSTORE PUSH1 0x4 ADD PUSH2 0x1AAE SWAP1 PUSH2 0x286B JUMP JUMPDEST PUSH1 0x40 MLOAD DUP1 SWAP2 SUB SWAP1 REVERT JUMPDEST PUSH2 0x1AC3 PUSH1 0x0 DUP4 DUP4 PUSH2 0x1EF0 JUMP JUMPDEST DUP1 PUSH1 0x2 PUSH1 0x0 DUP3 DUP3 SLOAD PUSH2 0x1AD5 SWAP2 SWAP1 PUSH2 0x293A JUMP JUMPDEST SWAP3 POP POP DUP2 SWAP1 SSTORE POP DUP1 PUSH1 0x0 DUP1 DUP5 PUSH20 0xFFFFFFFFFFFFFFFFFFFFFFFFFFFFFFFFFFFFFFFF AND PUSH20 0xFFFFFFFFFFFFFFFFFFFFFFFFFFFFFFFFFFFFFFFF AND DUP2 MSTORE PUSH1 0x20 ADD SWAP1 DUP2 MSTORE PUSH1 0x20 ADD PUSH1 0x0 KECCAK256 PUSH1 0x0 DUP3 DUP3 SLOAD PUSH2 0x1B2A SWAP2 SWAP1 PUSH2 0x293A JUMP JUMPDEST SWAP3 POP POP DUP2 SWAP1 SSTORE POP DUP2 PUSH20 0xFFFFFFFFFFFFFFFFFFFFFFFFFFFFFFFFFFFFFFFF AND PUSH1 0x0 PUSH20 0xFFFFFFFFFFFFFFFFFFFFFFFFFFFFFFFFFFFFFFFF AND PUSH32 0xDDF252AD1BE2C89B69C2B068FC378DAA952BA7F163C4A11628F55A4DF523B3EF DUP4 PUSH1 0x40 MLOAD PUSH2 0x1B8F SWAP2 SWAP1 PUSH2 0x288B JUMP JUMPDEST PUSH1 0x40 MLOAD DUP1 SWAP2 SUB SWAP1 LOG3 PUSH2 0x1BA3 PUSH1 0x0 DUP4 DUP4 PUSH2 0x1EF5 JUMP JUMPDEST POP POP JUMP JUMPDEST PUSH1 0x0 DUP1 PUSH2 0x1BB2 PUSH2 0x617 JUMP JUMPDEST SWAP2 POP SWAP2 POP PUSH1 0x0 PUSH2 0x1BCE CALLVALUE CALLVALUE DUP5 PUSH2 0x1BC8 SWAP2 SWAP1 PUSH2 0x2A1B JUMP JUMPDEST DUP6 PUSH2 0x1694 JUMP JUMPDEST SWAP1 POP DUP5 DUP2 LT ISZERO PUSH2 0x1C13 JUMPI PUSH1 0x40 MLOAD PUSH32 0x8C379A000000000000000000000000000000000000000000000000000000000 DUP2 MSTORE PUSH1 0x4 ADD PUSH2 0x1C0A SWAP1 PUSH2 0x274B JUMP JUMPDEST PUSH1 0x40 MLOAD DUP1 SWAP2 SUB SWAP1 REVERT JUMPDEST PUSH1 0x5 PUSH1 0x0 SWAP1 SLOAD SWAP1 PUSH2 0x100 EXP SWAP1 DIV PUSH20 0xFFFFFFFFFFFFFFFFFFFFFFFFFFFFFFFFFFFFFFFF AND PUSH20 0xFFFFFFFFFFFFFFFFFFFFFFFFFFFFFFFFFFFFFFFF AND PUSH4 0xA9059CBB DUP6 DUP4 PUSH1 0x40 MLOAD DUP4 PUSH4 0xFFFFFFFF AND PUSH1 0xE0 SHL DUP2 MSTORE PUSH1 0x4 ADD PUSH2 0x1C70 SWAP3 SWAP2 SWAP1 PUSH2 0x25A5 JUMP JUMPDEST PUSH1 0x20 PUSH1 0x40 MLOAD DUP1 DUP4 SUB DUP2 PUSH1 0x0 DUP8 DUP1 EXTCODESIZE ISZERO DUP1 ISZERO PUSH2 0x1C8A JUMPI PUSH1 0x0 DUP1 REVERT JUMPDEST POP GAS CALL ISZERO DUP1 ISZERO PUSH2 0x1C9E JUMPI RETURNDATASIZE PUSH1 0x0 DUP1 RETURNDATACOPY RETURNDATASIZE PUSH1 0x0 REVERT JUMPDEST POP POP POP POP PUSH1 0x40 MLOAD RETURNDATASIZE PUSH1 0x1F NOT PUSH1 0x1F DUP3 ADD AND DUP3 ADD DUP1 PUSH1 0x40 MSTORE POP DUP2 ADD SWAP1 PUSH2 0x1CC2 SWAP2 SWAP1 PUSH2 0x2090 JUMP JUMPDEST POP CALLVALUE DUP5 PUSH20 0xFFFFFFFFFFFFFFFFFFFFFFFFFFFFFFFFFFFFFFFF AND PUSH32 0x2AD51A6B79C1A35468E5CC340EF09004400E337E1D1149AAB02294FDB7F8F055 DUP4 PUSH1 0x40 MLOAD PUSH2 0x1D0A SWAP2 SWAP1 PUSH2 0x288B JUMP JUMPDEST PUSH1 0x40 MLOAD DUP1 SWAP2 SUB SWAP1 LOG3 POP POP POP POP POP JUMP JUMPDEST PUSH1 0x0 PUSH20 0xFFFFFFFFFFFFFFFFFFFFFFFFFFFFFFFFFFFFFFFF AND DUP3 PUSH20 0xFFFFFFFFFFFFFFFFFFFFFFFFFFFFFFFFFFFFFFFF AND EQ ISZERO PUSH2 0x1D89 JUMPI PUSH1 0x40 MLOAD PUSH32 0x8C379A000000000000000000000000000000000000000000000000000000000 DUP2 MSTORE PUSH1 0x4 ADD PUSH2 0x1D80 SWAP1 PUSH2 0x278B JUMP JUMPDEST PUSH1 0x40 MLOAD DUP1 SWAP2 SUB SWAP1 REVERT JUMPDEST PUSH2 0x1D95 DUP3 PUSH1 0x0 DUP4 PUSH2 0x1EF0 JUMP JUMPDEST PUSH1 0x0 DUP1 PUSH1 0x0 DUP5 PUSH20 0xFFFFFFFFFFFFFFFFFFFFFFFFFFFFFFFFFFFFFFFF AND PUSH20 0xFFFFFFFFFFFFFFFFFFFFFFFFFFFFFFFFFFFFFFFF AND DUP2 MSTORE PUSH1 0x20 ADD SWAP1 DUP2 MSTORE PUSH1 0x20 ADD PUSH1 0x0 KECCAK256 SLOAD SWAP1 POP DUP2 DUP2 LT ISZERO PUSH2 0x1E1B JUMPI PUSH1 0x40 MLOAD PUSH32 0x8C379A000000000000000000000000000000000000000000000000000000000 DUP2 MSTORE PUSH1 0x4 ADD PUSH2 0x1E12 SWAP1 PUSH2 0x262B JUMP JUMPDEST PUSH1 0x40 MLOAD DUP1 SWAP2 SUB SWAP1 REVERT JUMPDEST DUP2 DUP2 SUB PUSH1 0x0 DUP1 DUP6 PUSH20 0xFFFFFFFFFFFFFFFFFFFFFFFFFFFFFFFFFFFFFFFF AND PUSH20 0xFFFFFFFFFFFFFFFFFFFFFFFFFFFFFFFFFFFFFFFF AND DUP2 MSTORE PUSH1 0x20 ADD SWAP1 DUP2 MSTORE PUSH1 0x20 ADD PUSH1 0x0 KECCAK256 DUP2 SWAP1 SSTORE POP DUP2 PUSH1 0x2 PUSH1 0x0 DUP3 DUP3 SLOAD PUSH2 0x1E72 SWAP2 SWAP1 PUSH2 0x2A1B JUMP JUMPDEST SWAP3 POP POP DUP2 SWAP1 SSTORE POP PUSH1 0x0 PUSH20 0xFFFFFFFFFFFFFFFFFFFFFFFFFFFFFFFFFFFFFFFF AND DUP4 PUSH20 0xFFFFFFFFFFFFFFFFFFFFFFFFFFFFFFFFFFFFFFFF AND PUSH32 0xDDF252AD1BE2C89B69C2B068FC378DAA952BA7F163C4A11628F55A4DF523B3EF DUP5 PUSH1 0x40 MLOAD PUSH2 0x1ED7 SWAP2 SWAP1 PUSH2 0x288B JUMP JUMPDEST PUSH1 0x40 MLOAD DUP1 SWAP2 SUB SWAP1 LOG3 PUSH2 0x1EEB DUP4 PUSH1 0x0 DUP5 PUSH2 0x1EF5 JUMP JUMPDEST POP POP POP JUMP JUMPDEST POP POP POP JUMP JUMPDEST POP POP POP JUMP JUMPDEST PUSH1 0x0 DUP2 CALLDATALOAD SWAP1 POP PUSH2 0x1F09 DUP2 PUSH2 0x30F7 JUMP JUMPDEST SWAP3 SWAP2 POP POP JUMP JUMPDEST PUSH1 0x0 DUP2 MLOAD SWAP1 POP PUSH2 0x1F1E DUP2 PUSH2 0x30F7 JUMP JUMPDEST SWAP3 SWAP2 POP POP JUMP JUMPDEST PUSH1 0x0 DUP2 MLOAD SWAP1 POP PUSH2 0x1F33 DUP2 PUSH2 0x310E JUMP JUMPDEST SWAP3 SWAP2 POP POP JUMP JUMPDEST PUSH1 0x0 DUP2 CALLDATALOAD SWAP1 POP PUSH2 0x1F48 DUP2 PUSH2 0x3125 JUMP JUMPDEST SWAP3 SWAP2 POP POP JUMP JUMPDEST PUSH1 0x0 DUP2 MLOAD SWAP1 POP PUSH2 0x1F5D DUP2 PUSH2 0x3125 JUMP JUMPDEST SWAP3 SWAP2 POP POP JUMP JUMPDEST PUSH1 0x0 PUSH1 0x20 DUP3 DUP5 SUB SLT ISZERO PUSH2 0x1F79 JUMPI PUSH2 0x1F78 PUSH2 0x2B96 JUMP JUMPDEST JUMPDEST PUSH1 0x0 PUSH2 0x1F87 DUP5 DUP3 DUP6 ADD PUSH2 0x1EFA JUMP JUMPDEST SWAP2 POP POP SWAP3 SWAP2 POP POP JUMP JUMPDEST PUSH1 0x0 PUSH1 0x20 DUP3 DUP5 SUB SLT ISZERO PUSH2 0x1FA6 JUMPI PUSH2 0x1FA5 PUSH2 0x2B96 JUMP JUMPDEST JUMPDEST PUSH1 0x0 PUSH2 0x1FB4 DUP5 DUP3 DUP6 ADD PUSH2 0x1F0F JUMP JUMPDEST SWAP2 POP POP SWAP3 SWAP2 POP POP JUMP JUMPDEST PUSH1 0x0 DUP1 PUSH1 0x40 DUP4 DUP6 SUB SLT ISZERO PUSH2 0x1FD4 JUMPI PUSH2 0x1FD3 PUSH2 0x2B96 JUMP JUMPDEST JUMPDEST PUSH1 0x0 PUSH2 0x1FE2 DUP6 DUP3 DUP7 ADD PUSH2 0x1EFA JUMP JUMPDEST SWAP3 POP POP PUSH1 0x20 PUSH2 0x1FF3 DUP6 DUP3 DUP7 ADD PUSH2 0x1EFA JUMP JUMPDEST SWAP2 POP POP SWAP3 POP SWAP3 SWAP1 POP JUMP JUMPDEST PUSH1 0x0 DUP1 PUSH1 0x0 PUSH1 0x60 DUP5 DUP7 SUB SLT ISZERO PUSH2 0x2016 JUMPI PUSH2 0x2015 PUSH2 0x2B96 JUMP JUMPDEST JUMPDEST PUSH1 0x0 PUSH2 0x2024 DUP7 DUP3 DUP8 ADD PUSH2 0x1EFA JUMP JUMPDEST SWAP4 POP POP PUSH1 0x20 PUSH2 0x2035 DUP7 DUP3 DUP8 ADD PUSH2 0x1EFA JUMP JUMPDEST SWAP3 POP POP PUSH1 0x40 PUSH2 0x2046 DUP7 DUP3 DUP8 ADD PUSH2 0x1F39 JUMP JUMPDEST SWAP2 POP POP SWAP3 POP SWAP3 POP SWAP3 JUMP JUMPDEST PUSH1 0x0 DUP1 PUSH1 0x40 DUP4 DUP6 SUB SLT ISZERO PUSH2 0x2067 JUMPI PUSH2 0x2066 PUSH2 0x2B96 JUMP JUMPDEST JUMPDEST PUSH1 0x0 PUSH2 0x2075 DUP6 DUP3 DUP7 ADD PUSH2 0x1EFA JUMP JUMPDEST SWAP3 POP POP PUSH1 0x20 PUSH2 0x2086 DUP6 DUP3 DUP7 ADD PUSH2 0x1F39 JUMP JUMPDEST SWAP2 POP POP SWAP3 POP SWAP3 SWAP1 POP JUMP JUMPDEST PUSH1 0x0 PUSH1 0x20 DUP3 DUP5 SUB SLT ISZERO PUSH2 0x20A6 JUMPI PUSH2 0x20A5 PUSH2 0x2B96 JUMP JUMPDEST JUMPDEST PUSH1 0x0 PUSH2 0x20B4 DUP5 DUP3 DUP6 ADD PUSH2 0x1F24 JUMP JUMPDEST SWAP2 POP POP SWAP3 SWAP2 POP POP JUMP JUMPDEST PUSH1 0x0 PUSH1 0x20 DUP3 DUP5 SUB SLT ISZERO PUSH2 0x20D3 JUMPI PUSH2 0x20D2 PUSH2 0x2B96 JUMP JUMPDEST JUMPDEST PUSH1 0x0 PUSH2 0x20E1 DUP5 DUP3 DUP6 ADD PUSH2 0x1F39 JUMP JUMPDEST SWAP2 POP POP SWAP3 SWAP2 POP POP JUMP JUMPDEST PUSH1 0x0 PUSH1 0x20 DUP3 DUP5 SUB SLT ISZERO PUSH2 0x2100 JUMPI PUSH2 0x20FF PUSH2 0x2B96 JUMP JUMPDEST JUMPDEST PUSH1 0x0 PUSH2 0x210E DUP5 DUP3 DUP6 ADD PUSH2 0x1F4E JUMP JUMPDEST SWAP2 POP POP SWAP3 SWAP2 POP POP JUMP JUMPDEST PUSH1 0x0 DUP1 PUSH1 0x40 DUP4 DUP6 SUB SLT ISZERO PUSH2 0x212E JUMPI PUSH2 0x212D PUSH2 0x2B96 JUMP JUMPDEST JUMPDEST PUSH1 0x0 PUSH2 0x213C DUP6 DUP3 DUP7 ADD PUSH2 0x1F39 JUMP JUMPDEST SWAP3 POP POP PUSH1 0x20 PUSH2 0x214D DUP6 DUP3 DUP7 ADD PUSH2 0x1EFA JUMP JUMPDEST SWAP2 POP POP SWAP3 POP SWAP3 SWAP1 POP JUMP JUMPDEST PUSH1 0x0 DUP1 PUSH1 0x40 DUP4 DUP6 SUB SLT ISZERO PUSH2 0x216E JUMPI PUSH2 0x216D PUSH2 0x2B96 JUMP JUMPDEST JUMPDEST PUSH1 0x0 PUSH2 0x217C DUP6 DUP3 DUP7 ADD PUSH2 0x1F39 JUMP JUMPDEST SWAP3 POP POP PUSH1 0x20 PUSH2 0x218D DUP6 DUP3 DUP7 ADD PUSH2 0x1F39 JUMP JUMPDEST SWAP2 POP POP SWAP3 POP SWAP3 SWAP1 POP JUMP JUMPDEST PUSH1 0x0 DUP1 PUSH1 0x0 PUSH1 0x60 DUP5 DUP7 SUB SLT ISZERO PUSH2 0x21B0 JUMPI PUSH2 0x21AF PUSH2 0x2B96 JUMP JUMPDEST JUMPDEST PUSH1 0x0 PUSH2 0x21BE DUP7 DUP3 DUP8 ADD PUSH2 0x1F39 JUMP JUMPDEST SWAP4 POP POP PUSH1 0x20 PUSH2 0x21CF DUP7 DUP3 DUP8 ADD PUSH2 0x1F39 JUMP JUMPDEST SWAP3 POP POP PUSH1 0x40 PUSH2 0x21E0 DUP7 DUP3 DUP8 ADD PUSH2 0x1EFA JUMP JUMPDEST SWAP2 POP POP SWAP3 POP SWAP3 POP SWAP3 JUMP JUMPDEST PUSH2 0x21F3 DUP2 PUSH2 0x2A4F JUMP JUMPDEST DUP3 MSTORE POP POP JUMP JUMPDEST PUSH2 0x2202 DUP2 PUSH2 0x2A61 JUMP JUMPDEST DUP3 MSTORE POP POP JUMP JUMPDEST PUSH1 0x0 PUSH2 0x2213 DUP3 PUSH2 0x2913 JUMP JUMPDEST PUSH2 0x221D DUP2 DUP6 PUSH2 0x2929 JUMP JUMPDEST SWAP4 POP PUSH2 0x222D DUP2 DUP6 PUSH1 0x20 DUP7 ADD PUSH2 0x2AA4 JUMP JUMPDEST PUSH2 0x2236 DUP2 PUSH2 0x2B9B JUMP JUMPDEST DUP5 ADD SWAP2 POP POP SWAP3 SWAP2 POP POP JUMP JUMPDEST PUSH1 0x0 PUSH2 0x224E PUSH1 0x23 DUP4 PUSH2 0x2929 JUMP JUMPDEST SWAP2 POP PUSH2 0x2259 DUP3 PUSH2 0x2BAC JUMP JUMPDEST PUSH1 0x40 DUP3 ADD SWAP1 POP SWAP2 SWAP1 POP JUMP JUMPDEST PUSH1 0x0 PUSH2 0x2271 PUSH1 0x22 DUP4 PUSH2 0x2929 JUMP JUMPDEST SWAP2 POP PUSH2 0x227C DUP3 PUSH2 0x2BFB JUMP JUMPDEST PUSH1 0x40 DUP3 ADD SWAP1 POP SWAP2 SWAP1 POP JUMP JUMPDEST PUSH1 0x0 PUSH2 0x2294 PUSH1 0x22 DUP4 PUSH2 0x2929 JUMP JUMPDEST SWAP2 POP PUSH2 0x229F DUP3 PUSH2 0x2C4A JUMP JUMPDEST PUSH1 0x40 DUP3 ADD SWAP1 POP SWAP2 SWAP1 POP JUMP JUMPDEST PUSH1 0x0 PUSH2 0x22B7 PUSH1 0x29 DUP4 PUSH2 0x2929 JUMP JUMPDEST SWAP2 POP PUSH2 0x22C2 DUP3 PUSH2 0x2C99 JUMP JUMPDEST PUSH1 0x40 DUP3 ADD SWAP1 POP SWAP2 SWAP1 POP JUMP JUMPDEST PUSH1 0x0 PUSH2 0x22DA PUSH1 0x1D DUP4 PUSH2 0x2929 JUMP JUMPDEST SWAP2 POP PUSH2 0x22E5 DUP3 PUSH2 0x2CE8 JUMP JUMPDEST PUSH1 0x20 DUP3 ADD SWAP1 POP SWAP2 SWAP1 POP JUMP JUMPDEST PUSH1 0x0 PUSH2 0x22FD PUSH1 0x26 DUP4 PUSH2 0x2929 JUMP JUMPDEST SWAP2 POP PUSH2 0x2308 DUP3 PUSH2 0x2D11 JUMP JUMPDEST PUSH1 0x40 DUP3 ADD SWAP1 POP SWAP2 SWAP1 POP JUMP JUMPDEST PUSH1 0x0 PUSH2 0x2320 PUSH1 0x26 DUP4 PUSH2 0x2929 JUMP JUMPDEST SWAP2 POP PUSH2 0x232B DUP3 PUSH2 0x2D60 JUMP JUMPDEST PUSH1 0x40 DUP3 ADD SWAP1 POP SWAP2 SWAP1 POP JUMP JUMPDEST PUSH1 0x0 PUSH2 0x2343 PUSH1 0x18 DUP4 PUSH2 0x2929 JUMP JUMPDEST SWAP2 POP PUSH2 0x234E DUP3 PUSH2 0x2DAF JUMP JUMPDEST PUSH1 0x20 DUP3 ADD SWAP1 POP SWAP2 SWAP1 POP JUMP JUMPDEST PUSH1 0x0 PUSH2 0x2366 PUSH1 0x1A DUP4 PUSH2 0x2929 JUMP JUMPDEST SWAP2 POP PUSH2 0x2371 DUP3 PUSH2 0x2DD8 JUMP JUMPDEST PUSH1 0x20 DUP3 ADD SWAP1 POP SWAP2 SWAP1 POP JUMP JUMPDEST PUSH1 0x0 PUSH2 0x2389 PUSH1 0x18 DUP4 PUSH2 0x2929 JUMP JUMPDEST SWAP2 POP PUSH2 0x2394 DUP3 PUSH2 0x2E01 JUMP JUMPDEST PUSH1 0x20 DUP3 ADD SWAP1 POP SWAP2 SWAP1 POP JUMP JUMPDEST PUSH1 0x0 PUSH2 0x23AC PUSH1 0x43 DUP4 PUSH2 0x2929 JUMP JUMPDEST SWAP2 POP PUSH2 0x23B7 DUP3 PUSH2 0x2E2A JUMP JUMPDEST PUSH1 0x60 DUP3 ADD SWAP1 POP SWAP2 SWAP1 POP JUMP JUMPDEST PUSH1 0x0 PUSH2 0x23CF PUSH1 0x37 DUP4 PUSH2 0x2929 JUMP JUMPDEST SWAP2 POP PUSH2 0x23DA DUP3 PUSH2 0x2E9F JUMP JUMPDEST PUSH1 0x40 DUP3 ADD SWAP1 POP SWAP2 SWAP1 POP JUMP JUMPDEST PUSH1 0x0 PUSH2 0x23F2 PUSH1 0x21 DUP4 PUSH2 0x2929 JUMP JUMPDEST SWAP2 POP PUSH2 0x23FD DUP3 PUSH2 0x2EEE JUMP JUMPDEST PUSH1 0x40 DUP3 ADD SWAP1 POP SWAP2 SWAP1 POP JUMP JUMPDEST PUSH1 0x0 PUSH2 0x2415 PUSH1 0x19 DUP4 PUSH2 0x2929 JUMP JUMPDEST SWAP2 POP PUSH2 0x2420 DUP3 PUSH2 0x2F3D JUMP JUMPDEST PUSH1 0x20 DUP3 ADD SWAP1 POP SWAP2 SWAP1 POP JUMP JUMPDEST PUSH1 0x0 PUSH2 0x2438 PUSH1 0x25 DUP4 PUSH2 0x2929 JUMP JUMPDEST SWAP2 POP PUSH2 0x2443 DUP3 PUSH2 0x2F66 JUMP JUMPDEST PUSH1 0x40 DUP3 ADD SWAP1 POP SWAP2 SWAP1 POP JUMP JUMPDEST PUSH1 0x0 PUSH2 0x245B PUSH1 0x25 DUP4 PUSH2 0x2929 JUMP JUMPDEST SWAP2 POP PUSH2 0x2466 DUP3 PUSH2 0x2FB5 JUMP JUMPDEST PUSH1 0x40 DUP3 ADD SWAP1 POP SWAP2 SWAP1 POP JUMP JUMPDEST PUSH1 0x0 PUSH2 0x247E PUSH1 0x0 DUP4 PUSH2 0x291E JUMP JUMPDEST SWAP2 POP PUSH2 0x2489 DUP3 PUSH2 0x3004 JUMP JUMPDEST PUSH1 0x0 DUP3 ADD SWAP1 POP SWAP2 SWAP1 POP JUMP JUMPDEST PUSH1 0x0 PUSH2 0x24A1 PUSH1 0x15 DUP4 PUSH2 0x2929 JUMP JUMPDEST SWAP2 POP PUSH2 0x24AC DUP3 PUSH2 0x3007 JUMP JUMPDEST PUSH1 0x20 DUP3 ADD SWAP1 POP SWAP2 SWAP1 POP JUMP JUMPDEST PUSH1 0x0 PUSH2 0x24C4 PUSH1 0x24 DUP4 PUSH2 0x2929 JUMP JUMPDEST SWAP2 POP PUSH2 0x24CF DUP3 PUSH2 0x3030 JUMP JUMPDEST PUSH1 0x40 DUP3 ADD SWAP1 POP SWAP2 SWAP1 POP JUMP JUMPDEST PUSH1 0x0 PUSH2 0x24E7 PUSH1 0x25 DUP4 PUSH2 0x2929 JUMP JUMPDEST SWAP2 POP PUSH2 0x24F2 DUP3 PUSH2 0x307F JUMP JUMPDEST PUSH1 0x40 DUP3 ADD SWAP1 POP SWAP2 SWAP1 POP JUMP JUMPDEST PUSH1 0x0 PUSH2 0x250A PUSH1 0x1F DUP4 PUSH2 0x2929 JUMP JUMPDEST SWAP2 POP PUSH2 0x2515 DUP3 PUSH2 0x30CE JUMP JUMPDEST PUSH1 0x20 DUP3 ADD SWAP1 POP SWAP2 SWAP1 POP JUMP JUMPDEST PUSH2 0x2529 DUP2 PUSH2 0x2A8D JUMP JUMPDEST DUP3 MSTORE POP POP JUMP JUMPDEST PUSH2 0x2538 DUP2 PUSH2 0x2A97 JUMP JUMPDEST DUP3 MSTORE POP POP JUMP JUMPDEST PUSH1 0x0 PUSH2 0x2549 DUP3 PUSH2 0x2471 JUMP JUMPDEST SWAP2 POP DUP2 SWAP1 POP SWAP2 SWAP1 POP JUMP JUMPDEST PUSH1 0x0 PUSH1 0x20 DUP3 ADD SWAP1 POP PUSH2 0x2568 PUSH1 0x0 DUP4 ADD DUP5 PUSH2 0x21EA JUMP JUMPDEST SWAP3 SWAP2 POP POP JUMP JUMPDEST PUSH1 0x0 PUSH1 0x60 DUP3 ADD SWAP1 POP PUSH2 0x2583 PUSH1 0x0 DUP4 ADD DUP7 PUSH2 0x21EA JUMP JUMPDEST PUSH2 0x2590 PUSH1 0x20 DUP4 ADD DUP6 PUSH2 0x21EA JUMP JUMPDEST PUSH2 0x259D PUSH1 0x40 DUP4 ADD DUP5 PUSH2 0x2520 JUMP JUMPDEST SWAP5 SWAP4 POP POP POP POP JUMP JUMPDEST PUSH1 0x0 PUSH1 0x40 DUP3 ADD SWAP1 POP PUSH2 0x25BA PUSH1 0x0 DUP4 ADD DUP6 PUSH2 0x21EA JUMP JUMPDEST PUSH2 0x25C7 PUSH1 0x20 DUP4 ADD DUP5 PUSH2 0x2520 JUMP JUMPDEST SWAP4 SWAP3 POP POP POP JUMP JUMPDEST PUSH1 0x0 PUSH1 0x20 DUP3 ADD SWAP1 POP PUSH2 0x25E3 PUSH1 0x0 DUP4 ADD DUP5 PUSH2 0x21F9 JUMP JUMPDEST SWAP3 SWAP2 POP POP JUMP JUMPDEST PUSH1 0x0 PUSH1 0x20 DUP3 ADD SWAP1 POP DUP2 DUP2 SUB PUSH1 0x0 DUP4 ADD MSTORE PUSH2 0x2603 DUP2 DUP5 PUSH2 0x2208 JUMP JUMPDEST SWAP1 POP SWAP3 SWAP2 POP POP JUMP JUMPDEST PUSH1 0x0 PUSH1 0x20 DUP3 ADD SWAP1 POP DUP2 DUP2 SUB PUSH1 0x0 DUP4 ADD MSTORE PUSH2 0x2624 DUP2 PUSH2 0x2241 JUMP JUMPDEST SWAP1 POP SWAP2 SWAP1 POP JUMP JUMPDEST PUSH1 0x0 PUSH1 0x20 DUP3 ADD SWAP1 POP DUP2 DUP2 SUB PUSH1 0x0 DUP4 ADD MSTORE PUSH2 0x2644 DUP2 PUSH2 0x2264 JUMP JUMPDEST SWAP1 POP SWAP2 SWAP1 POP JUMP JUMPDEST PUSH1 0x0 PUSH1 0x20 DUP3 ADD SWAP1 POP DUP2 DUP2 SUB PUSH1 0x0 DUP4 ADD MSTORE PUSH2 0x2664 DUP2 PUSH2 0x2287 JUMP JUMPDEST SWAP1 POP SWAP2 SWAP1 POP JUMP JUMPDEST PUSH1 0x0 PUSH1 0x20 DUP3 ADD SWAP1 POP DUP2 DUP2 SUB PUSH1 0x0 DUP4 ADD MSTORE PUSH2 0x2684 DUP2 PUSH2 0x22AA JUMP JUMPDEST SWAP1 POP SWAP2 SWAP1 POP JUMP JUMPDEST PUSH1 0x0 PUSH1 0x20 DUP3 ADD SWAP1 POP DUP2 DUP2 SUB PUSH1 0x0 DUP4 ADD MSTORE PUSH2 0x26A4 DUP2 PUSH2 0x22CD JUMP JUMPDEST SWAP1 POP SWAP2 SWAP1 POP JUMP JUMPDEST PUSH1 0x0 PUSH1 0x20 DUP3 ADD SWAP1 POP DUP2 DUP2 SUB PUSH1 0x0 DUP4 ADD MSTORE PUSH2 0x26C4 DUP2 PUSH2 0x22F0 JUMP JUMPDEST SWAP1 POP SWAP2 SWAP1 POP JUMP JUMPDEST PUSH1 0x0 PUSH1 0x20 DUP3 ADD SWAP1 POP DUP2 DUP2 SUB PUSH1 0x0 DUP4 ADD MSTORE PUSH2 0x26E4 DUP2 PUSH2 0x2313 JUMP JUMPDEST SWAP1 POP SWAP2 SWAP1 POP JUMP JUMPDEST PUSH1 0x0 PUSH1 0x20 DUP3 ADD SWAP1 POP DUP2 DUP2 SUB PUSH1 0x0 DUP4 ADD MSTORE PUSH2 0x2704 DUP2 PUSH2 0x2336 JUMP JUMPDEST SWAP1 POP SWAP2 SWAP1 POP JUMP JUMPDEST PUSH1 0x0 PUSH1 0x20 DUP3 ADD SWAP1 POP DUP2 DUP2 SUB PUSH1 0x0 DUP4 ADD MSTORE PUSH2 0x2724 DUP2 PUSH2 0x2359 JUMP JUMPDEST SWAP1 POP SWAP2 SWAP1 POP JUMP JUMPDEST PUSH1 0x0 PUSH1 0x20 DUP3 ADD SWAP1 POP DUP2 DUP2 SUB PUSH1 0x0 DUP4 ADD MSTORE PUSH2 0x2744 DUP2 PUSH2 0x237C JUMP JUMPDEST SWAP1 POP SWAP2 SWAP1 POP JUMP JUMPDEST PUSH1 0x0 PUSH1 0x20 DUP3 ADD SWAP1 POP DUP2 DUP2 SUB PUSH1 0x0 DUP4 ADD MSTORE PUSH2 0x2764 DUP2 PUSH2 0x239F JUMP JUMPDEST SWAP1 POP SWAP2 SWAP1 POP JUMP JUMPDEST PUSH1 0x0 PUSH1 0x20 DUP3 ADD SWAP1 POP DUP2 DUP2 SUB PUSH1 0x0 DUP4 ADD MSTORE PUSH2 0x2784 DUP2 PUSH2 0x23C2 JUMP JUMPDEST SWAP1 POP SWAP2 SWAP1 POP JUMP JUMPDEST PUSH1 0x0 PUSH1 0x20 DUP3 ADD SWAP1 POP DUP2 DUP2 SUB PUSH1 0x0 DUP4 ADD MSTORE PUSH2 0x27A4 DUP2 PUSH2 0x23E5 JUMP JUMPDEST SWAP1 POP SWAP2 SWAP1 POP JUMP JUMPDEST PUSH1 0x0 PUSH1 0x20 DUP3 ADD SWAP1 POP DUP2 DUP2 SUB PUSH1 0x0 DUP4 ADD MSTORE PUSH2 0x27C4 DUP2 PUSH2 0x2408 JUMP JUMPDEST SWAP1 POP SWAP2 SWAP1 POP JUMP JUMPDEST PUSH1 0x0 PUSH1 0x20 DUP3 ADD SWAP1 POP DUP2 DUP2 SUB PUSH1 0x0 DUP4 ADD MSTORE PUSH2 0x27E4 DUP2 PUSH2 0x242B JUMP JUMPDEST SWAP1 POP SWAP2 SWAP1 POP JUMP JUMPDEST PUSH1 0x0 PUSH1 0x20 DUP3 ADD SWAP1 POP DUP2 DUP2 SUB PUSH1 0x0 DUP4 ADD MSTORE PUSH2 0x2804 DUP2 PUSH2 0x244E JUMP JUMPDEST SWAP1 POP SWAP2 SWAP1 POP JUMP JUMPDEST PUSH1 0x0 PUSH1 0x20 DUP3 ADD SWAP1 POP DUP2 DUP2 SUB PUSH1 0x0 DUP4 ADD MSTORE PUSH2 0x2824 DUP2 PUSH2 0x2494 JUMP JUMPDEST SWAP1 POP SWAP2 SWAP1 POP JUMP JUMPDEST PUSH1 0x0 PUSH1 0x20 DUP3 ADD SWAP1 POP DUP2 DUP2 SUB PUSH1 0x0 DUP4 ADD MSTORE PUSH2 0x2844 DUP2 PUSH2 0x24B7 JUMP JUMPDEST SWAP1 POP SWAP2 SWAP1 POP JUMP JUMPDEST PUSH1 0x0 PUSH1 0x20 DUP3 ADD SWAP1 POP DUP2 DUP2 SUB PUSH1 0x0 DUP4 ADD MSTORE PUSH2 0x2864 DUP2 PUSH2 0x24DA JUMP JUMPDEST SWAP1 POP SWAP2 SWAP1 POP JUMP JUMPDEST PUSH1 0x0 PUSH1 0x20 DUP3 ADD SWAP1 POP DUP2 DUP2 SUB PUSH1 0x0 DUP4 ADD MSTORE PUSH2 0x2884 DUP2 PUSH2 0x24FD JUMP JUMPDEST SWAP1 POP SWAP2 SWAP1 POP JUMP JUMPDEST PUSH1 0x0 PUSH1 0x20 DUP3 ADD SWAP1 POP PUSH2 0x28A0 PUSH1 0x0 DUP4 ADD DUP5 PUSH2 0x2520 JUMP JUMPDEST SWAP3 SWAP2 POP POP JUMP JUMPDEST PUSH1 0x0 PUSH1 0x40 DUP3 ADD SWAP1 POP PUSH2 0x28BB PUSH1 0x0 DUP4 ADD DUP6 PUSH2 0x2520 JUMP JUMPDEST PUSH2 0x28C8 PUSH1 0x20 DUP4 ADD DUP5 PUSH2 0x21EA JUMP JUMPDEST SWAP4 SWAP3 POP POP POP JUMP JUMPDEST PUSH1 0x0 PUSH1 0x40 DUP3 ADD SWAP1 POP PUSH2 0x28E4 PUSH1 0x0 DUP4 ADD DUP6 PUSH2 0x2520 JUMP JUMPDEST PUSH2 0x28F1 PUSH1 0x20 DUP4 ADD DUP5 PUSH2 0x2520 JUMP JUMPDEST SWAP4 SWAP3 POP POP POP JUMP JUMPDEST PUSH1 0x0 PUSH1 0x20 DUP3 ADD SWAP1 POP PUSH2 0x290D PUSH1 0x0 DUP4 ADD DUP5 PUSH2 0x252F JUMP JUMPDEST SWAP3 SWAP2 POP POP JUMP JUMPDEST PUSH1 0x0 DUP2 MLOAD SWAP1 POP SWAP2 SWAP1 POP JUMP JUMPDEST PUSH1 0x0 DUP2 SWAP1 POP SWAP3 SWAP2 POP POP JUMP JUMPDEST PUSH1 0x0 DUP3 DUP3 MSTORE PUSH1 0x20 DUP3 ADD SWAP1 POP SWAP3 SWAP2 POP POP JUMP JUMPDEST PUSH1 0x0 PUSH2 0x2945 DUP3 PUSH2 0x2A8D JUMP JUMPDEST SWAP2 POP PUSH2 0x2950 DUP4 PUSH2 0x2A8D JUMP JUMPDEST SWAP3 POP DUP3 PUSH32 0xFFFFFFFFFFFFFFFFFFFFFFFFFFFFFFFFFFFFFFFFFFFFFFFFFFFFFFFFFFFFFFFF SUB DUP3 GT ISZERO PUSH2 0x2985 JUMPI PUSH2 0x2984 PUSH2 0x2B09 JUMP JUMPDEST JUMPDEST DUP3 DUP3 ADD SWAP1 POP SWAP3 SWAP2 POP POP JUMP JUMPDEST PUSH1 0x0 PUSH2 0x299B DUP3 PUSH2 0x2A8D JUMP JUMPDEST SWAP2 POP PUSH2 0x29A6 DUP4 PUSH2 0x2A8D JUMP JUMPDEST SWAP3 POP DUP3 PUSH2 0x29B6 JUMPI PUSH2 0x29B5 PUSH2 0x2B38 JUMP JUMPDEST JUMPDEST DUP3 DUP3 DIV SWAP1 POP SWAP3 SWAP2 POP POP JUMP JUMPDEST PUSH1 0x0 PUSH2 0x29CC DUP3 PUSH2 0x2A8D JUMP JUMPDEST SWAP2 POP PUSH2 0x29D7 DUP4 PUSH2 0x2A8D JUMP JUMPDEST SWAP3 POP DUP2 PUSH32 0xFFFFFFFFFFFFFFFFFFFFFFFFFFFFFFFFFFFFFFFFFFFFFFFFFFFFFFFFFFFFFFFF DIV DUP4 GT DUP3 ISZERO ISZERO AND ISZERO PUSH2 0x2A10 JUMPI PUSH2 0x2A0F PUSH2 0x2B09 JUMP JUMPDEST JUMPDEST DUP3 DUP3 MUL SWAP1 POP SWAP3 SWAP2 POP POP JUMP JUMPDEST PUSH1 0x0 PUSH2 0x2A26 DUP3 PUSH2 0x2A8D JUMP JUMPDEST SWAP2 POP PUSH2 0x2A31 DUP4 PUSH2 0x2A8D JUMP JUMPDEST SWAP3 POP DUP3 DUP3 LT ISZERO PUSH2 0x2A44 JUMPI PUSH2 0x2A43 PUSH2 0x2B09 JUMP JUMPDEST JUMPDEST DUP3 DUP3 SUB SWAP1 POP SWAP3 SWAP2 POP POP JUMP JUMPDEST PUSH1 0x0 PUSH2 0x2A5A DUP3 PUSH2 0x2A6D JUMP JUMPDEST SWAP1 POP SWAP2 SWAP1 POP JUMP JUMPDEST PUSH1 0x0 DUP2 ISZERO ISZERO SWAP1 POP SWAP2 SWAP1 POP JUMP JUMPDEST PUSH1 0x0 PUSH20 0xFFFFFFFFFFFFFFFFFFFFFFFFFFFFFFFFFFFFFFFF DUP3 AND SWAP1 POP SWAP2 SWAP1 POP JUMP JUMPDEST PUSH1 0x0 DUP2 SWAP1 POP SWAP2 SWAP1 POP JUMP JUMPDEST PUSH1 0x0 PUSH1 0xFF DUP3 AND SWAP1 POP SWAP2 SWAP1 POP JUMP JUMPDEST PUSH1 0x0 JUMPDEST DUP4 DUP2 LT ISZERO PUSH2 0x2AC2 JUMPI DUP1 DUP3 ADD MLOAD DUP2 DUP5 ADD MSTORE PUSH1 0x20 DUP2 ADD SWAP1 POP PUSH2 0x2AA7 JUMP JUMPDEST DUP4 DUP2 GT ISZERO PUSH2 0x2AD1 JUMPI PUSH1 0x0 DUP5 DUP5 ADD MSTORE JUMPDEST POP POP POP POP JUMP JUMPDEST PUSH1 0x0 PUSH1 0x2 DUP3 DIV SWAP1 POP PUSH1 0x1 DUP3 AND DUP1 PUSH2 0x2AEF JUMPI PUSH1 0x7F DUP3 AND SWAP2 POP JUMPDEST PUSH1 0x20 DUP3 LT DUP2 EQ ISZERO PUSH2 0x2B03 JUMPI PUSH2 0x2B02 PUSH2 0x2B67 JUMP JUMPDEST JUMPDEST POP SWAP2 SWAP1 POP JUMP JUMPDEST PUSH32 0x4E487B7100000000000000000000000000000000000000000000000000000000 PUSH1 0x0 MSTORE PUSH1 0x11 PUSH1 0x4 MSTORE PUSH1 0x24 PUSH1 0x0 REVERT JUMPDEST PUSH32 0x4E487B7100000000000000000000000000000000000000000000000000000000 PUSH1 0x0 MSTORE PUSH1 0x12 PUSH1 0x4 MSTORE PUSH1 0x24 PUSH1 0x0 REVERT JUMPDEST PUSH32 0x4E487B7100000000000000000000000000000000000000000000000000000000 PUSH1 0x0 MSTORE PUSH1 0x22 PUSH1 0x4 MSTORE PUSH1 0x24 PUSH1 0x0 REVERT JUMPDEST PUSH1 0x0 DUP1 REVERT JUMPDEST PUSH1 0x0 PUSH1 0x1F NOT PUSH1 0x1F DUP4 ADD AND SWAP1 POP SWAP2 SWAP1 POP JUMP JUMPDEST PUSH32 0x45524332303A207472616E7366657220746F20746865207A65726F2061646472 PUSH1 0x0 DUP3 ADD MSTORE PUSH32 0x6573730000000000000000000000000000000000000000000000000000000000 PUSH1 0x20 DUP3 ADD MSTORE POP JUMP JUMPDEST PUSH32 0x45524332303A206275726E20616D6F756E7420657863656564732062616C616E PUSH1 0x0 DUP3 ADD MSTORE PUSH32 0x6365000000000000000000000000000000000000000000000000000000000000 PUSH1 0x20 DUP3 ADD MSTORE POP JUMP JUMPDEST PUSH32 0x45524332303A20617070726F766520746F20746865207A65726F206164647265 PUSH1 0x0 DUP3 ADD MSTORE PUSH32 0x7373000000000000000000000000000000000000000000000000000000000000 PUSH1 0x20 DUP3 ADD MSTORE POP JUMP JUMPDEST PUSH32 0x496E73756666696369656E7420696E70757420616D6F756E74206F6620455243 PUSH1 0x0 DUP3 ADD MSTORE PUSH32 0x323020546F6B656E730000000000000000000000000000000000000000000000 PUSH1 0x20 DUP3 ADD MSTORE POP JUMP JUMPDEST PUSH32 0x45524332303A20696E73756666696369656E7420616C6C6F77616E6365000000 PUSH1 0x0 DUP3 ADD MSTORE POP JUMP JUMPDEST PUSH32 0x45524332303A207472616E7366657220616D6F756E7420657863656564732062 PUSH1 0x0 DUP3 ADD MSTORE PUSH32 0x616C616E63650000000000000000000000000000000000000000000000000000 PUSH1 0x20 DUP3 ADD MSTORE POP JUMP JUMPDEST PUSH32 0x5472616E73616374696F6E206F662045544820746F20726563697069656E7420 PUSH1 0x0 DUP3 ADD MSTORE PUSH32 0x6661696C65640000000000000000000000000000000000000000000000000000 PUSH1 0x20 DUP3 ADD MSTORE POP JUMP JUMPDEST PUSH32 0x546F6B656E206164647265737320697320696E76616C69640000000000000000 PUSH1 0x0 DUP3 ADD MSTORE POP JUMP JUMPDEST PUSH32 0x496E76616C696420696E70757420746F6B656E20616D6F756E74000000000000 PUSH1 0x0 DUP3 ADD MSTORE POP JUMP JUMPDEST PUSH32 0x496E76616C69642065786368616E676520616464726573730000000000000000 PUSH1 0x0 DUP3 ADD MSTORE POP JUMP JUMPDEST PUSH32 0x416D6F756E74207377617070656420646F6573206E6F74206D65657420796F75 PUSH1 0x0 DUP3 ADD MSTORE PUSH32 0x722073746970756C6174656420616D6F756E742C20726576657274696E672073 PUSH1 0x20 DUP3 ADD MSTORE PUSH32 0x7761700000000000000000000000000000000000000000000000000000000000 PUSH1 0x40 DUP3 ADD MSTORE POP JUMP JUMPDEST PUSH32 0x506C6561736520696E70757420612076616C696420616D6F756E74206F66204C PUSH1 0x0 DUP3 ADD MSTORE PUSH32 0x5020546F6B656E7320746F206275726E2F72656465656D000000000000000000 PUSH1 0x20 DUP3 ADD MSTORE POP JUMP JUMPDEST PUSH32 0x45524332303A206275726E2066726F6D20746865207A65726F20616464726573 PUSH1 0x0 DUP3 ADD MSTORE PUSH32 0x7300000000000000000000000000000000000000000000000000000000000000 PUSH1 0x20 DUP3 ADD MSTORE POP JUMP JUMPDEST PUSH32 0x45544820616D6F756E742063616E6E6F74206265207A65726F00000000000000 PUSH1 0x0 DUP3 ADD MSTORE POP JUMP JUMPDEST PUSH32 0x45524332303A207472616E736665722066726F6D20746865207A65726F206164 PUSH1 0x0 DUP3 ADD MSTORE PUSH32 0x6472657373000000000000000000000000000000000000000000000000000000 PUSH1 0x20 DUP3 ADD MSTORE POP JUMP JUMPDEST PUSH32 0x5472616E73616374696F6E206F662045746865722077617320756E7375636365 PUSH1 0x0 DUP3 ADD MSTORE PUSH32 0x737366756C000000000000000000000000000000000000000000000000000000 PUSH1 0x20 DUP3 ADD MSTORE POP JUMP JUMPDEST POP JUMP JUMPDEST PUSH32 0x546865726520617265206E6F2072657365727665730000000000000000000000 PUSH1 0x0 DUP3 ADD MSTORE POP JUMP JUMPDEST PUSH32 0x45524332303A20617070726F76652066726F6D20746865207A65726F20616464 PUSH1 0x0 DUP3 ADD MSTORE PUSH32 0x7265737300000000000000000000000000000000000000000000000000000000 PUSH1 0x20 DUP3 ADD MSTORE POP JUMP JUMPDEST PUSH32 0x45524332303A2064656372656173656420616C6C6F77616E63652062656C6F77 PUSH1 0x0 DUP3 ADD MSTORE PUSH32 0x207A65726F000000000000000000000000000000000000000000000000000000 PUSH1 0x20 DUP3 ADD MSTORE POP JUMP JUMPDEST PUSH32 0x45524332303A206D696E7420746F20746865207A65726F206164647265737300 PUSH1 0x0 DUP3 ADD MSTORE POP JUMP JUMPDEST PUSH2 0x3100 DUP2 PUSH2 0x2A4F JUMP JUMPDEST DUP2 EQ PUSH2 0x310B JUMPI PUSH1 0x0 DUP1 REVERT JUMPDEST POP JUMP JUMPDEST PUSH2 0x3117 DUP2 PUSH2 0x2A61 JUMP JUMPDEST DUP2 EQ PUSH2 0x3122 JUMPI PUSH1 0x0 DUP1 REVERT JUMPDEST POP JUMP JUMPDEST PUSH2 0x312E DUP2 PUSH2 0x2A8D JUMP JUMPDEST DUP2 EQ PUSH2 0x3139 JUMPI PUSH1 0x0 DUP1 REVERT JUMPDEST POP JUMP INVALID LOG2 PUSH5 0x6970667358 0x22 SLT KECCAK256 CALLCODE 0xB9 0xB2 0xBF DUP14 0x49 0x22 0xEF PUSH10 0x11DBD25776A7EFA86D46 SAR NOT SHR CALLER SAR TIMESTAMP MUL 0xD2 DUP6 CHAINID 0x5F PUSH8 0x8B64736F6C634300 ADDMOD SMOD STOP CALLER LOG2 PUSH5 0x6970667358 0x22 SLT KECCAK256 0xC8 DUP15 DUP16 SELFBALANCE DUP14 ADD SWAP3 0xFB 0xF7 CREATE SMOD PUSH32 0x9315443BCD5B5593A02320CD13368838C85D569864736F6C6343000807003300 "
		},
		"gasEstimates": {
			"creation": {
				"codeDepositCost": "3072000",
				"executionCost": "3381",
				"totalCost": "3075381"
			},
			"external": {
				"createPair(address)": "infinite",
				"getPair(address)": "infinite",
				"pairs(address)": "infinite"
			}
		},
		"methodIdentifiers": {
			"createPair(address)": "9ccb0744",
			"getPair(address)": "1a788a02",
			"pairs(address)": "fe33b302"
		}
	},
	"abi": [
		{
			"inputs": [
				{
					"internalType": "address",
					"name": "tokenAddress",
					"type": "address"
				}
			],
			"name": "createPair",
			"outputs": [
				{
					"internalType": "address",
					"name": "pairAddress",
					"type": "address"
				}
			],
			"stateMutability": "nonpayable",
			"type": "function"
		},
		{
			"inputs": [
				{
					"internalType": "address",
					"name": "tokenAddress",
					"type": "address"
				}
			],
			"name": "getPair",
			"outputs": [
				{
					"internalType": "address",
					"name": "pairAddress",
					"type": "address"
				}
			],
			"stateMutability": "view",
			"type": "function"
		},
		{
			"inputs": [
				{
					"internalType": "address",
					"name": "",
					"type": "address"
				}
			],
			"name": "pairs",
			"outputs": [
				{
					"internalType": "address",
					"name": "",
					"type": "address"
				}
			],
			"stateMutability": "view",
			"type": "function"
		}
	]
}